{
  "address": "0xba01BC9Ea4f2806ADdcd94C6cd8c43DD4f2488eC",
  "abi": [
    {
      "inputs": [],
      "name": "ERC721EnumerableForbiddenBatchMint",
      "type": "error"
    },
    {
      "inputs": [
        {
          "internalType": "address",
          "name": "sender",
          "type": "address"
        },
        {
          "internalType": "uint256",
          "name": "tokenId",
          "type": "uint256"
        },
        {
          "internalType": "address",
          "name": "owner",
          "type": "address"
        }
      ],
      "name": "ERC721IncorrectOwner",
      "type": "error"
    },
    {
      "inputs": [
        {
          "internalType": "address",
          "name": "operator",
          "type": "address"
        },
        {
          "internalType": "uint256",
          "name": "tokenId",
          "type": "uint256"
        }
      ],
      "name": "ERC721InsufficientApproval",
      "type": "error"
    },
    {
      "inputs": [
        {
          "internalType": "address",
          "name": "approver",
          "type": "address"
        }
      ],
      "name": "ERC721InvalidApprover",
      "type": "error"
    },
    {
      "inputs": [
        {
          "internalType": "address",
          "name": "operator",
          "type": "address"
        }
      ],
      "name": "ERC721InvalidOperator",
      "type": "error"
    },
    {
      "inputs": [
        {
          "internalType": "address",
          "name": "owner",
          "type": "address"
        }
      ],
      "name": "ERC721InvalidOwner",
      "type": "error"
    },
    {
      "inputs": [
        {
          "internalType": "address",
          "name": "receiver",
          "type": "address"
        }
      ],
      "name": "ERC721InvalidReceiver",
      "type": "error"
    },
    {
      "inputs": [
        {
          "internalType": "address",
          "name": "sender",
          "type": "address"
        }
      ],
      "name": "ERC721InvalidSender",
      "type": "error"
    },
    {
      "inputs": [
        {
          "internalType": "uint256",
          "name": "tokenId",
          "type": "uint256"
        }
      ],
      "name": "ERC721NonexistentToken",
      "type": "error"
    },
    {
      "inputs": [
        {
          "internalType": "address",
          "name": "owner",
          "type": "address"
        },
        {
          "internalType": "uint256",
          "name": "index",
          "type": "uint256"
        }
      ],
      "name": "ERC721OutOfBoundsIndex",
      "type": "error"
    },
    {
      "inputs": [
        {
          "internalType": "uint256",
          "name": "value",
          "type": "uint256"
        },
        {
          "internalType": "uint256",
          "name": "length",
          "type": "uint256"
        }
      ],
      "name": "StringsInsufficientHexLength",
      "type": "error"
    },
    {
      "anonymous": false,
      "inputs": [
        {
          "indexed": true,
          "internalType": "address",
          "name": "owner",
          "type": "address"
        },
        {
          "indexed": true,
          "internalType": "address",
          "name": "approved",
          "type": "address"
        },
        {
          "indexed": true,
          "internalType": "uint256",
          "name": "tokenId",
          "type": "uint256"
        }
      ],
      "name": "Approval",
      "type": "event"
    },
    {
      "anonymous": false,
      "inputs": [
        {
          "indexed": true,
          "internalType": "address",
          "name": "owner",
          "type": "address"
        },
        {
          "indexed": true,
          "internalType": "address",
          "name": "operator",
          "type": "address"
        },
        {
          "indexed": false,
          "internalType": "bool",
          "name": "approved",
          "type": "bool"
        }
      ],
      "name": "ApprovalForAll",
      "type": "event"
    },
    {
      "anonymous": false,
      "inputs": [
        {
          "indexed": true,
          "internalType": "uint256",
          "name": "productIndex",
          "type": "uint256"
        }
      ],
      "name": "ProductCompleted",
      "type": "event"
    },
    {
      "anonymous": false,
      "inputs": [
        {
          "indexed": true,
          "internalType": "uint256",
          "name": "rangeIndex",
          "type": "uint256"
        },
        {
          "indexed": false,
          "internalType": "uint256",
          "name": "productIndex",
          "type": "uint256"
        }
      ],
      "name": "RangeCompleted",
      "type": "event"
    },
    {
      "anonymous": false,
      "inputs": [
        {
          "indexed": true,
          "internalType": "bytes32",
          "name": "role",
          "type": "bytes32"
        },
        {
          "indexed": true,
          "internalType": "bytes32",
          "name": "previousAdminRole",
          "type": "bytes32"
        },
        {
          "indexed": true,
          "internalType": "bytes32",
          "name": "newAdminRole",
          "type": "bytes32"
        }
      ],
      "name": "RoleAdminChanged",
      "type": "event"
    },
    {
      "anonymous": false,
      "inputs": [
        {
          "indexed": true,
          "internalType": "bytes32",
          "name": "role",
          "type": "bytes32"
        },
        {
          "indexed": true,
          "internalType": "address",
          "name": "account",
          "type": "address"
        },
        {
          "indexed": true,
          "internalType": "address",
          "name": "sender",
          "type": "address"
        }
      ],
      "name": "RoleGranted",
      "type": "event"
    },
    {
      "anonymous": false,
      "inputs": [
        {
          "indexed": true,
          "internalType": "bytes32",
          "name": "role",
          "type": "bytes32"
        },
        {
          "indexed": true,
          "internalType": "address",
          "name": "account",
          "type": "address"
        },
        {
          "indexed": true,
          "internalType": "address",
          "name": "sender",
          "type": "address"
        }
      ],
      "name": "RoleRevoked",
      "type": "event"
    },
    {
      "anonymous": false,
      "inputs": [
        {
          "indexed": true,
          "internalType": "uint256",
          "name": "rangeIndex",
          "type": "uint256"
        },
        {
          "indexed": false,
          "internalType": "uint256",
          "name": "from",
          "type": "uint256"
        },
        {
          "indexed": false,
          "internalType": "uint256",
          "name": "to",
          "type": "uint256"
        }
      ],
      "name": "TradingUnlocked",
      "type": "event"
    },
    {
      "anonymous": false,
      "inputs": [
        {
          "indexed": true,
          "internalType": "address",
          "name": "from",
          "type": "address"
        },
        {
          "indexed": true,
          "internalType": "address",
          "name": "to",
          "type": "address"
        },
        {
          "indexed": true,
          "internalType": "uint256",
          "name": "tokenId",
          "type": "uint256"
        }
      ],
      "name": "Transfer",
      "type": "event"
    },
    {
      "inputs": [],
      "name": "CREATOR",
      "outputs": [
        {
          "internalType": "bytes32",
          "name": "",
          "type": "bytes32"
        }
      ],
      "stateMutability": "view",
      "type": "function"
    },
    {
      "inputs": [],
      "name": "MINTER",
      "outputs": [
        {
          "internalType": "bytes32",
          "name": "",
          "type": "bytes32"
        }
      ],
      "stateMutability": "view",
      "type": "function"
    },
    {
      "inputs": [],
      "name": "TRADER",
      "outputs": [
        {
          "internalType": "bytes32",
          "name": "",
          "type": "bytes32"
        }
      ],
      "stateMutability": "view",
      "type": "function"
    },
    {
      "inputs": [
        {
          "internalType": "address",
          "name": "to",
          "type": "address"
        },
        {
          "internalType": "uint256",
          "name": "tokenId",
          "type": "uint256"
        }
      ],
      "name": "approve",
      "outputs": [],
      "stateMutability": "nonpayable",
      "type": "function"
    },
    {
      "inputs": [
        {
          "internalType": "address",
          "name": "owner",
          "type": "address"
        }
      ],
      "name": "balanceOf",
      "outputs": [
        {
          "internalType": "uint256",
          "name": "",
          "type": "uint256"
        }
      ],
      "stateMutability": "view",
      "type": "function"
    },
    {
      "inputs": [
        {
          "internalType": "uint256",
          "name": "tokenId",
          "type": "uint256"
        }
      ],
      "name": "getApproved",
      "outputs": [
        {
          "internalType": "address",
          "name": "",
          "type": "address"
        }
      ],
      "stateMutability": "view",
      "type": "function"
    },
    {
      "inputs": [
        {
          "internalType": "bytes32",
          "name": "role",
          "type": "bytes32"
        }
      ],
      "name": "getRoleAdmin",
      "outputs": [
        {
          "internalType": "bytes32",
          "name": "",
          "type": "bytes32"
        }
      ],
      "stateMutability": "view",
      "type": "function"
    },
    {
      "inputs": [
        {
          "internalType": "bytes32",
          "name": "role",
          "type": "bytes32"
        },
        {
          "internalType": "uint256",
          "name": "index",
          "type": "uint256"
        }
      ],
      "name": "getRoleMember",
      "outputs": [
        {
          "internalType": "address",
          "name": "",
          "type": "address"
        }
      ],
      "stateMutability": "view",
      "type": "function"
    },
    {
      "inputs": [
        {
          "internalType": "bytes32",
          "name": "role",
          "type": "bytes32"
        }
      ],
      "name": "getRoleMemberCount",
      "outputs": [
        {
          "internalType": "uint256",
          "name": "",
          "type": "uint256"
        }
      ],
      "stateMutability": "view",
      "type": "function"
    },
    {
      "inputs": [
        {
          "internalType": "bytes32",
          "name": "role",
          "type": "bytes32"
        },
        {
          "internalType": "address",
          "name": "account",
          "type": "address"
        }
      ],
      "name": "grantRole",
      "outputs": [],
      "stateMutability": "nonpayable",
      "type": "function"
    },
    {
      "inputs": [
        {
          "internalType": "bytes32",
          "name": "role",
          "type": "bytes32"
        },
        {
          "internalType": "address",
          "name": "account",
          "type": "address"
        }
      ],
      "name": "hasRole",
      "outputs": [
        {
          "internalType": "bool",
          "name": "",
          "type": "bool"
        }
      ],
      "stateMutability": "view",
      "type": "function"
    },
    {
      "inputs": [
        {
          "internalType": "address",
          "name": "owner",
          "type": "address"
        },
        {
          "internalType": "address",
          "name": "operator",
          "type": "address"
        }
      ],
      "name": "isApprovedForAll",
      "outputs": [
        {
          "internalType": "bool",
          "name": "",
          "type": "bool"
        }
      ],
      "stateMutability": "view",
      "type": "function"
    },
    {
      "inputs": [
        {
          "internalType": "address",
          "name": "to",
          "type": "address"
        },
        {
          "internalType": "uint256",
          "name": "rangeId",
          "type": "uint256"
        },
        {
          "internalType": "uint256",
          "name": "indexInRange",
          "type": "uint256"
        }
      ],
      "name": "mintFromRange",
      "outputs": [],
      "stateMutability": "nonpayable",
      "type": "function"
    },
    {
      "inputs": [
        {
          "internalType": "address[]",
          "name": "to",
          "type": "address[]"
        },
        {
          "internalType": "uint256",
          "name": "rangeId",
          "type": "uint256"
        },
        {
          "internalType": "uint256[]",
          "name": "indexInRange",
          "type": "uint256[]"
        }
      ],
      "name": "mintFromRangeBatch",
      "outputs": [],
      "stateMutability": "nonpayable",
      "type": "function"
    },
    {
      "inputs": [],
      "name": "name",
      "outputs": [
        {
          "internalType": "string",
          "name": "",
          "type": "string"
        }
      ],
      "stateMutability": "view",
      "type": "function"
    },
    {
      "inputs": [
        {
          "internalType": "uint256",
          "name": "rangeIndex",
          "type": "uint256"
        }
      ],
      "name": "nextMintableTokenInRange",
      "outputs": [
        {
          "internalType": "uint256",
          "name": "index",
          "type": "uint256"
        }
      ],
      "stateMutability": "view",
      "type": "function"
    },
    {
      "inputs": [
        {
          "internalType": "uint256",
          "name": "tokenId",
          "type": "uint256"
        }
      ],
      "name": "ownerOf",
      "outputs": [
        {
          "internalType": "address",
          "name": "",
          "type": "address"
        }
      ],
      "stateMutability": "view",
      "type": "function"
    },
    {
      "inputs": [
        {
          "internalType": "bytes32",
          "name": "role",
          "type": "bytes32"
        },
        {
          "internalType": "address",
          "name": "account",
          "type": "address"
        }
      ],
      "name": "renounceRole",
      "outputs": [],
      "stateMutability": "nonpayable",
      "type": "function"
    },
    {
      "inputs": [
        {
          "internalType": "bytes32",
          "name": "role",
          "type": "bytes32"
        },
        {
          "internalType": "address",
          "name": "account",
          "type": "address"
        }
      ],
      "name": "revokeRole",
      "outputs": [],
      "stateMutability": "nonpayable",
      "type": "function"
    },
    {
      "inputs": [
        {
          "internalType": "address",
          "name": "from",
          "type": "address"
        },
        {
          "internalType": "address",
          "name": "to",
          "type": "address"
        },
        {
          "internalType": "uint256",
          "name": "tokenId",
          "type": "uint256"
        }
      ],
      "name": "safeTransferFrom",
      "outputs": [],
      "stateMutability": "nonpayable",
      "type": "function"
    },
    {
      "inputs": [
        {
          "internalType": "address",
          "name": "from",
          "type": "address"
        },
        {
          "internalType": "address",
          "name": "to",
          "type": "address"
        },
        {
          "internalType": "uint256",
          "name": "tokenId",
          "type": "uint256"
        },
        {
          "internalType": "bytes",
          "name": "data",
          "type": "bytes"
        }
      ],
      "name": "safeTransferFrom",
      "outputs": [],
      "stateMutability": "nonpayable",
      "type": "function"
    },
    {
      "inputs": [
        {
          "internalType": "address",
          "name": "operator",
          "type": "address"
        },
        {
          "internalType": "bool",
          "name": "approved",
          "type": "bool"
        }
      ],
      "name": "setApprovalForAll",
      "outputs": [],
      "stateMutability": "nonpayable",
      "type": "function"
    },
    {
      "inputs": [
        {
          "internalType": "bytes4",
          "name": "interfaceId",
          "type": "bytes4"
        }
      ],
      "name": "supportsInterface",
      "outputs": [
        {
          "internalType": "bool",
          "name": "",
          "type": "bool"
        }
      ],
      "stateMutability": "view",
      "type": "function"
    },
    {
      "inputs": [],
      "name": "symbol",
      "outputs": [
        {
          "internalType": "string",
          "name": "",
          "type": "string"
        }
      ],
      "stateMutability": "view",
      "type": "function"
    },
    {
      "inputs": [
        {
          "internalType": "uint256",
          "name": "index",
          "type": "uint256"
        }
      ],
      "name": "tokenByIndex",
      "outputs": [
        {
          "internalType": "uint256",
          "name": "",
          "type": "uint256"
        }
      ],
      "stateMutability": "view",
      "type": "function"
    },
    {
      "inputs": [
        {
          "internalType": "address",
          "name": "owner",
          "type": "address"
        },
        {
          "internalType": "uint256",
          "name": "index",
          "type": "uint256"
        }
      ],
      "name": "tokenOfOwnerByIndex",
      "outputs": [
        {
          "internalType": "uint256",
          "name": "",
          "type": "uint256"
        }
      ],
      "stateMutability": "view",
      "type": "function"
    },
    {
      "inputs": [
        {
          "internalType": "uint256",
          "name": "tokenId",
          "type": "uint256"
        }
      ],
      "name": "tokenURI",
      "outputs": [
        {
          "internalType": "string",
          "name": "",
          "type": "string"
        }
      ],
      "stateMutability": "view",
      "type": "function"
    },
    {
      "inputs": [],
      "name": "totalSupply",
      "outputs": [
        {
          "internalType": "uint256",
          "name": "",
          "type": "uint256"
        }
      ],
      "stateMutability": "view",
      "type": "function"
    },
    {
      "inputs": [
        {
          "internalType": "address",
          "name": "from",
          "type": "address"
        },
        {
          "internalType": "address",
          "name": "to",
          "type": "address"
        },
        {
          "internalType": "uint256",
          "name": "tokenId",
          "type": "uint256"
        }
      ],
      "name": "transferFrom",
      "outputs": [],
      "stateMutability": "nonpayable",
      "type": "function"
    }
  ],
  "transactionHash": "0x149e6f5136f1ee90ec5f10b0d85fa9cfc4bda7e797da6778e4ee592a380c4ebe",
  "args": [],
  "numDeployments": 1,
  "solcInputHash": "ba288d747cc1aa4c71ee545a11fd6010",
  "bytecode": "0x6080604052348015600f57600080fd5b506129bb8061001f6000396000f3fe608060405234801561001057600080fd5b50600436106101cf5760003560e01c80635e79824d11610104578063b88d4fde116100a2578063e4fbb60911610071578063e4fbb609146103ec578063e766224314610413578063e985e9c514610426578063fe6d81241461043957600080fd5b8063b88d4fde146103a0578063c87b56dd146103b3578063ca15c873146103c6578063d547741f146103d957600080fd5b80639010d07c116100de5780639010d07c1461035f57806391d148541461037257806395d89b4114610385578063a22cb4651461038d57600080fd5b80635e79824d146103265780636352211e1461033957806370a082311461034c57600080fd5b8063248a9ca3116101715780632f745c591161014b5780632f745c59146102da57806336568abe146102ed57806342842e0e146103005780634f6ccce71461031357600080fd5b8063248a9ca3146102a157806326542370146102b45780632f2ff15d146102c757600080fd5b8063095ea7b3116101ad578063095ea7b31461023c578063175c4ef81461025157806318160ddd1461028657806323b872dd1461028e57600080fd5b806301ffc9a7146101d457806306fdde03146101fc578063081812fc14610211575b600080fd5b6101e76101e23660046123a2565b610460565b60405190151581526020015b60405180910390f35b61020461048b565b6040516101f3919061240f565b61022461021f366004612422565b61052c565b6040516001600160a01b0390911681526020016101f3565b61024f61024a366004612457565b610541565b005b6102787f872340a532bdd7bb02bea115c1b0f1ba87eac982f5b79b51ac189ffaac1b6fce81565b6040519081526020016101f3565b610278610550565b61024f61029c366004612481565b610565565b6102786102af366004612422565b6105f5565b61024f6102c2366004612509565b610617565b61024f6102d5366004612583565b610760565b6102786102e8366004612457565b610782565b61024f6102fb366004612583565b6107f6565b61024f61030e366004612481565b610870565b610278610321366004612422565b61088b565b610278610334366004612422565b6108f2565b610224610347366004612422565b610c65565b61027861035a3660046125af565b610c70565b61022461036d3660046125ca565b610cc8565b6101e7610380366004612583565b610cf4565b610204610d2c565b61024f61039b3660046125ec565b610d49565b61024f6103ae36600461263e565b610d54565b6102046103c1366004612422565b610d6b565b6102786103d4366004612422565b610ddf565b61024f6103e7366004612583565b610e03565b6102787f3c2519c4487d47714872f92cf90a50c25f5deaec2789dc2a497b1272df611db681565b61024f61042136600461271a565b610e20565b6101e761043436600461274d565b610e56565b6102787ff0887ba65ee2024ea881d91b74c2450ef19e1557f03bed3ea9f16b037cbe2dc981565b60006001600160e01b0319821663780e9d6360e01b1480610485575061048582610e95565b92915050565b60606000610497610ee5565b90508060000180546104a890612777565b80601f01602080910402602001604051908101604052809291908181526020018280546104d490612777565b80156105215780601f106104f657610100808354040283529160200191610521565b820191906000526020600020905b81548152906001019060200180831161050457829003601f168201915b505050505091505090565b600061053782610f09565b5061048582610f41565b61054c828233610f6a565b5050565b60008061055b610ee5565b6008015492915050565b6001600160a01b03821661059457604051633250574960e11b8152600060048201526024015b60405180910390fd5b60006105a1838333610f77565b9050836001600160a01b0316816001600160a01b0316146105ef576040516364283d7b60e01b81526001600160a01b038086166004830152602482018490528216604482015260640161058b565b50505050565b6000908152600080516020612946833981519152602052604090206001015490565b7ff0887ba65ee2024ea881d91b74c2450ef19e1557f03bed3ea9f16b037cbe2dc9610642813361111b565b8461068f5760405162461bcd60e51b815260206004820152601860248201527f52414952204552433732313a20456d7074792061727261790000000000000000604482015260640161058b565b8482146106fb5760405162461bcd60e51b815260206004820152603460248201527f52414952204552433732313a20426f7468206172726179732073686f756c64206044820152730d0c2ecca40e8d0ca40e6c2daca40d8cadccee8d60631b606482015260840161058b565b60005b858110156107575761074f87878381811061071b5761071b6127b1565b905060200201602081019061073091906125af565b86868685818110610743576107436127b1565b9050602002013561117f565b6001016106fe565b50505050505050565b610769826105f5565b610773813361111b565b61077d8383611662565b505050565b600061078d83610c70565b82106107be5760405163295f44f760e21b81526001600160a01b03841660048201526024810183905260440161058b565b60006107c8610ee5565b6001600160a01b03949094166000908152600690940160209081526040808620948652939052505090205490565b6001600160a01b03811633146108665760405162461bcd60e51b815260206004820152602f60248201527f416363657373436f6e74726f6c3a2063616e206f6e6c792072656e6f756e636560448201526e103937b632b9903337b91039b2b63360891b606482015260840161058b565b61054c82826116f9565b61077d83838360405180602001604052806000815250610d54565b6000610895610550565b82106108be5760405163295f44f760e21b8152600060048201526024810183905260440161058b565b60006108c8610ee5565b90508060080183815481106108df576108df6127b1565b9060005260206000200154915050919050565b6000806108fd610ee5565b600d81015490915083106109645760405162461bcd60e51b815260206004820152602860248201527f52414952204552433732312052616e6765733a2052616e676520646f6573206e6044820152671bdd08195e1a5cdd60c21b606482015260840161058b565b600081600d01848154811061097b5761097b6127b1565b90600052602060002090600702016040518060e00160405290816000820154815260200160018201548152602001600282015481526020016003820154815260200160048201548152602001600582015481526020016006820180546109e090612777565b80601f0160208091040260200160405190810160405280929190818152602001828054610a0c90612777565b8015610a595780601f10610a2e57610100808354040283529160200191610a59565b820191906000526020600020905b815481529060010190602001808311610a3c57829003601f168201915b505050919092525050506000858152601684016020526040812054600c8501805493945091928110610a8d57610a8d6127b1565b90600052602060002090600502016040518060a0016040529081600082015481526020016001820154815260200160028201548152602001600382018054610ad490612777565b80601f0160208091040260200160405190810160405280929190818152602001828054610b0090612777565b8015610b4d5780601f10610b2257610100808354040283529160200191610b4d565b820191906000526020600020905b815481529060010190602001808311610b3057829003601f168201915b5050505050815260200160048201805480602002602001604051908101604052809291908181526020018280548015610ba557602002820191906000526020600020905b815481526020019060010190808311610b91575b5050505050815250509050816000015193505b8160200151841015610bfe578051600090610bdd90610bd89087906127dd565b61178e565b6001600160a01b031603610bf357505050919050565b600190930192610bb8565b60405162461bcd60e51b815260206004820152603660248201527f52414952204552433732313a20546865726520617265206e6f20746f6b656e7360448201527520617661696c61626c6520666f72206d696e74696e6760501b606482015260840161058b565b600061048582610f09565b60006001600160a01b038216610c9c576040516322718ad960e21b81526000600482015260240161058b565b6000610ca6610ee5565b6001600160a01b03909316600090815260039093016020525050604090205490565b600082815260008051602061296683398151915260205260408120610ced90836117b7565b9392505050565b6000918252600080516020612946833981519152602090815260408084206001600160a01b0393909316845291905290205460ff1690565b60606000610d38610ee5565b90508060010180546104a890612777565b61054c3383836117c3565b610d5f848484610565565b6105ef84848484611876565b6060610d7682610f09565b506000610d8e60408051602081019091526000815290565b90506000815111610dae5760405180602001604052806000815250610ced565b80610db88461199f565b604051602001610dc99291906127f0565b6040516020818303038152906040529392505050565b60008181526000805160206129668339815191526020526040812061048590611a32565b610e0c826105f5565b610e16813361111b565b61077d83836116f9565b7ff0887ba65ee2024ea881d91b74c2450ef19e1557f03bed3ea9f16b037cbe2dc9610e4b813361111b565b6105ef84848461117f565b600080610e61610ee5565b6001600160a01b03948516600090815260059190910160209081526040808320959096168252939093525050205460ff1690565b60006001600160e01b031982166380ac58cd60e01b1480610ec657506001600160e01b03198216635b5e139f60e01b145b8061048557506301ffc9a760e01b6001600160e01b0319831614610485565b7f13fbb056f2602120441ced10c19d8151fd41fd4b17a6646b53bc0f944eb07a3990565b600080610f158361178e565b90506001600160a01b03811661048557604051637e27328960e01b81526004810184905260240161058b565b600080610f4c610ee5565b6000938452600401602052505060409020546001600160a01b031690565b61077d8383836001611a3c565b600080610f85858585611b50565b90506001600160a01b03811615801590610fa757506001600160a01b03851615155b15611095576000610fb6610ee5565b601b81015490915060ff1615610ff057610ff07f872340a532bdd7bb02bea115c1b0f1ba87eac982f5b79b51ac189ffaac1b6fce3361111b565b6000858152600f82016020526040902054600d820180549091908110611018576110186127b1565b9060005260206000209060070201600401546000146110935760405162461bcd60e51b815260206004820152603160248201527f52414952204552433732313a2043616e6e6f74207472616e736665722066726f6044820152706d2061206c6f636b65642072616e67652160781b606482015260840161058b565b505b6001600160a01b0381166110b1576110ac84611c57565b6110d4565b846001600160a01b0316816001600160a01b0316146110d4576110d48185611c90565b6001600160a01b0385166110f0576110eb84611d38565b611113565b846001600160a01b0316816001600160a01b031614611113576111138585611e01565b949350505050565b6111258282610cf4565b61054c5761113d816001600160a01b03166014611e5e565b611148836020611e5e565b60405160200161115992919061281f565b60408051601f198184030181529082905262461bcd60e51b825261058b9160040161240f565b6000611189610ee5565b600d81015490915083106111e95760405162461bcd60e51b815260206004820152602160248201527f52414952204552433732313a2052616e676520646f6573206e6f7420657869736044820152601d60fa1b606482015260840161058b565b600081600d018481548110611200576112006127b1565b90600052602060002090600702019050600082600c01836016016000878152602001908152602001600020548154811061123c5761123c6127b1565b9060005260206000209060050201905060008160020154116112c65760405162461bcd60e51b815260206004820152603760248201527f52414952204552433732313a2043616e6e6f74206d696e74206d6f726520746f60448201527f6b656e732066726f6d20746869732070726f6475637421000000000000000000606482015260840161058b565b60008260030154116113385760405162461bcd60e51b815260206004820152603560248201527f52414952204552433732313a2043616e6e6f74206d696e74206d6f726520746f6044820152746b656e732066726f6d20746869732072616e67652160581b606482015260840161058b565b60008260020154116113b25760405162461bcd60e51b815260206004820152603d60248201527f52414952204552433732313a204e6f7420616c6c6f77656420746f206d696e7460448201527f206d6f726520746f6b656e732066726f6d20746869732072616e676521000000606482015260840161058b565b815484108015906113c7575081600101548411155b6114135760405162461bcd60e51b815260206004820181905260248201527f52414952204552433732313a20496e76616c696420746f6b656e20696e646578604482015260640161058b565b61143c8685836000015461142791906127dd565b60405180602001604052806000815250611fd6565b60028201541561145e5760028201805490600061145883612894565b91905055505b6003820154156114db5760038201805490600061147a83612894565b919050555081600301546000036114db57847fc9ab1ba86a360ece15473f1c6edd6402b347ae87bf9bc3c0172518fd81167399846016016000888152602001908152602001600020546040516114d291815260200190565b60405180910390a25b600482015415611551576004820180549060006114f783612894565b91905055508160040154600003611551578154600183015460405187927f83d23f069f5730ce94e107a9258bae3b7a0f97184978fd7daa41c8df8ac6c29e9261154892918252602082015260400190565b60405180910390a25b6002810154156115b85760028101805490600061156d83612894565b919050555080600201546000036115b857600085815260168401602052604080822054905190917fe213303292163b95c0f90623eb8bc1f2c15b6d888051c10cc662e78204ff042291a25b600085815260168401602052604081205482549091600e8601916115dd9088906127dd565b8152602001908152602001600020819055508483600f01600086846000015461160691906127dd565b8152602080820192909252604090810160009081209390935587835260168601825280832054835260148601909152902081546116449086906127dd565b81546001810183556000928352602090922090910155505050505050565b61166c8282610cf4565b61054c576000828152600080516020612946833981519152602090815260408083206001600160a01b0385168085529252808320805460ff1916600117905551339285917f2f8788117e7eff1d82e926ec794901d17c78024a50270940304540a733656f0d9190a460008281526000805160206129668339815191526020526040902061077d9082611fed565b6117038282610cf4565b1561054c576000828152600080516020612946833981519152602090815260408083206001600160a01b0385168085529252808320805460ff1916905551339285917ff6391f5c32d9c69d2a47ea670b442974b53935d1edc7fd64eb21e047a839171b9190a460008281526000805160206129668339815191526020526040902061077d9082612002565b600080611799610ee5565b6000938452600201602052505060409020546001600160a01b031690565b6000610ced8383612017565b6001600160a01b0382166117f557604051630b61174360e31b81526001600160a01b038316600482015260240161058b565b60006117ff610ee5565b6001600160a01b038581166000818152600584016020908152604080832094891680845294825291829020805460ff19168815159081179091559151918252939450919290917f17307eab39ab6107e8899845ad3d59bd9653f200f220920489ca2b5937696c31910160405180910390a350505050565b6001600160a01b0383163b156105ef57604051630a85bd0160e11b81526001600160a01b0384169063150b7a02906118b89033908890879087906004016128ab565b6020604051808303816000875af19250505080156118f3575060408051601f3d908101601f191682019092526118f0918101906128e8565b60015b61195c573d808015611921576040519150601f19603f3d011682016040523d82523d6000602084013e611926565b606091505b50805160000361195457604051633250574960e11b81526001600160a01b038516600482015260240161058b565b805181602001fd5b6001600160e01b03198116630a85bd0160e11b1461199857604051633250574960e11b81526001600160a01b038516600482015260240161058b565b5050505050565b606060006119ac83612041565b600101905060008167ffffffffffffffff8111156119cc576119cc612628565b6040519080825280601f01601f1916602001820160405280156119f6576020820181803683370190505b5090508181016020015b600019016f181899199a1a9b1b9c1cb0b131b232b360811b600a86061a8153600a8504945084611a0057509392505050565b6000610485825490565b8080611a5057506001600160a01b03821615155b15611b12576000611a6084610f09565b90506001600160a01b03831615801590611a8c5750826001600160a01b0316816001600160a01b031614155b8015611a9f5750611a9d8184610e56565b155b15611ac85760405163a9fbf51f60e01b81526001600160a01b038416600482015260240161058b565b8115611b105783856001600160a01b0316826001600160a01b03167f8c5be1e5ebec7d5bd14f71427d1e84f3dd0314c0f7b2291e5b200ac8c7c3b92560405160405180910390a45b505b6000611b1c610ee5565b60009485526004016020525050604090912080546001600160a01b0319166001600160a01b03939093169290921790915550565b600080611b5c8461178e565b90506001600160a01b03831615611b7857611b78818486612119565b6000611b82610ee5565b90506001600160a01b03821615611bc457611ba1600086600080611a3c565b6001600160a01b0382166000908152600382016020526040902080546000190190555b6001600160a01b03861615611bf5576001600160a01b03861660009081526003820160205260409020805460010190555b600085815260028201602052604080822080546001600160a01b0319166001600160a01b038a811691821790925591518893918616917fddf252ad1be2c89b69c2b068fc378daa952ba7f163c4a11628f55a4df523b3ef91a450949350505050565b6000611c61610ee5565b600881018054600085815260099093016020908152604084208290556001820183559183529120019190915550565b6000611c9b83610c70565b90506000611ca7610ee5565b6000848152600782016020526040902054909150828114611d00576001600160a01b0385166000908152600683016020908152604080832086845282528083205484845281842081905583526007850190915290208190555b50600092835260078101602090815260408085208590556001600160a01b039095168452600690910181528383209183525290812055565b6000611d42610ee5565b6008810154909150600090611d5990600190612905565b6000848152600984016020526040812054600885018054939450909284908110611d8557611d856127b1565b9060005260206000200154905080846008018381548110611da857611da86127b1565b600091825260208083209091019290925582815260098601909152604080822084905586825281205560088401805480611de457611de4612918565b600190038181906000526020600020016000905590555050505050565b60006001611e0e84610c70565b611e189190612905565b90506000611e24610ee5565b6001600160a01b03909416600090815260068501602090815260408083208584528252808320869055948252600790950190945250912055565b6060826000611e6e84600261292e565b611e799060026127dd565b67ffffffffffffffff811115611e9157611e91612628565b6040519080825280601f01601f191660200182016040528015611ebb576020820181803683370190505b509050600360fc1b81600081518110611ed657611ed66127b1565b60200101906001600160f81b031916908160001a905350600f60fb1b81600181518110611f0557611f056127b1565b60200101906001600160f81b031916908160001a9053506000611f2985600261292e565b611f349060016127dd565b90505b6001811115611fac576f181899199a1a9b1b9c1cb0b131b232b360811b83600f1660108110611f6857611f686127b1565b1a60f81b828281518110611f7e57611f7e6127b1565b60200101906001600160f81b031916908160001a90535060049290921c91611fa581612894565b9050611f37565b5081156111135760405163e22e27eb60e01b8152600481018690526024810185905260440161058b565b611fe0838361217d565b61077d6000848484611876565b6000610ced836001600160a01b0384166121e2565b6000610ced836001600160a01b038416612231565b600082600001828154811061202e5761202e6127b1565b9060005260206000200154905092915050565b60008072184f03e93ff9f4daa797ed6e38ed64bf6a1f0160401b83106120805772184f03e93ff9f4daa797ed6e38ed64bf6a1f0160401b830492506040015b6d04ee2d6d415b85acef810000000083106120ac576d04ee2d6d415b85acef8100000000830492506020015b662386f26fc1000083106120ca57662386f26fc10000830492506010015b6305f5e10083106120e2576305f5e100830492506008015b61271083106120f657612710830492506004015b60648310612108576064830492506002015b600a83106104855760010192915050565b612124838383612324565b61077d576001600160a01b03831661215257604051637e27328960e01b81526004810182905260240161058b565b60405163177e802f60e01b81526001600160a01b03831660048201526024810182905260440161058b565b6001600160a01b0382166121a757604051633250574960e11b81526000600482015260240161058b565b60006121b583836000610f77565b90506001600160a01b0381161561077d576040516339e3563760e11b81526000600482015260240161058b565b600081815260018301602052604081205461222957508154600181810184556000848152602080822090930184905584548482528286019093526040902091909155610485565b506000610485565b6000818152600183016020526040812054801561231a576000612255600183612905565b855490915060009061226990600190612905565b90508082146122ce576000866000018281548110612289576122896127b1565b90600052602060002001549050808760000184815481106122ac576122ac6127b1565b6000918252602080832090910192909255918252600188019052604090208390555b85548690806122df576122df612918565b600190038181906000526020600020016000905590558560010160008681526020019081526020016000206000905560019350505050610485565b6000915050610485565b60006001600160a01b038316158015906111135750826001600160a01b0316846001600160a01b0316148061235e575061235e8484610e56565b806111135750826001600160a01b031661237783610f41565b6001600160a01b031614949350505050565b6001600160e01b03198116811461239f57600080fd5b50565b6000602082840312156123b457600080fd5b8135610ced81612389565b60005b838110156123da5781810151838201526020016123c2565b50506000910152565b600081518084526123fb8160208601602086016123bf565b601f01601f19169290920160200192915050565b602081526000610ced60208301846123e3565b60006020828403121561243457600080fd5b5035919050565b80356001600160a01b038116811461245257600080fd5b919050565b6000806040838503121561246a57600080fd5b6124738361243b565b946020939093013593505050565b60008060006060848603121561249657600080fd5b61249f8461243b565b92506124ad6020850161243b565b9150604084013590509250925092565b60008083601f8401126124cf57600080fd5b50813567ffffffffffffffff8111156124e757600080fd5b6020830191508360208260051b850101111561250257600080fd5b9250929050565b60008060008060006060868803121561252157600080fd5b853567ffffffffffffffff8082111561253957600080fd5b61254589838a016124bd565b909750955060208801359450604088013591508082111561256557600080fd5b50612572888289016124bd565b969995985093965092949392505050565b6000806040838503121561259657600080fd5b823591506125a66020840161243b565b90509250929050565b6000602082840312156125c157600080fd5b610ced8261243b565b600080604083850312156125dd57600080fd5b50508035926020909101359150565b600080604083850312156125ff57600080fd5b6126088361243b565b91506020830135801515811461261d57600080fd5b809150509250929050565b634e487b7160e01b600052604160045260246000fd5b6000806000806080858703121561265457600080fd5b61265d8561243b565b935061266b6020860161243b565b925060408501359150606085013567ffffffffffffffff8082111561268f57600080fd5b818701915087601f8301126126a357600080fd5b8135818111156126b5576126b5612628565b604051601f8201601f19908116603f011681019083821181831017156126dd576126dd612628565b816040528281528a60208487010111156126f657600080fd5b82602086016020830137600060208483010152809550505050505092959194509250565b60008060006060848603121561272f57600080fd5b6127388461243b565b95602085013595506040909401359392505050565b6000806040838503121561276057600080fd5b6127698361243b565b91506125a66020840161243b565b600181811c9082168061278b57607f821691505b6020821081036127ab57634e487b7160e01b600052602260045260246000fd5b50919050565b634e487b7160e01b600052603260045260246000fd5b634e487b7160e01b600052601160045260246000fd5b80820180821115610485576104856127c7565b600083516128028184602088016123bf565b8351908301906128168183602088016123bf565b01949350505050565b7f416363657373436f6e74726f6c3a206163636f756e74200000000000000000008152600083516128578160178501602088016123bf565b7001034b99036b4b9b9b4b733903937b6329607d1b60179184019182015283516128888160288401602088016123bf565b01602801949350505050565b6000816128a3576128a36127c7565b506000190190565b6001600160a01b03858116825284166020820152604081018390526080606082018190526000906128de908301846123e3565b9695505050505050565b6000602082840312156128fa57600080fd5b8151610ced81612389565b81810381811115610485576104856127c7565b634e487b7160e01b600052603160045260246000fd5b8082028115828204841417610485576104856127c756fe4f4f658137f4e10317e1a22624c2b114af7563a20fb2e3444ae2ac2342d457d04f4f658137f4e10317e1a22624c2b114af7563a20fb2e3444ae2ac2342d457d1a2646970667358221220f21386dc32d2a7dbc75821844c06d75dae5933f3a62c87f16f70cad36bbb6af364736f6c63430008190033",
  "devdoc": {
    "details": "This implements an optional extension of {ERC721} defined in the EIP that adds enumerability of all the token ids in the contract as well as all token ids owned by each account. CAUTION: `ERC721` extensions that implement custom `balanceOf` logic, such as `ERC721Consecutive`, interfere with enumerability and should not be used together with `ERC721Enumerable`.",
    "errors": {
      "ERC721EnumerableForbiddenBatchMint()": [
        {
          "details": "Batch mint is not allowed."
        }
      ],
      "ERC721IncorrectOwner(address,uint256,address)": [
        {
          "details": "Indicates an error related to the ownership over a particular token. Used in transfers.",
          "params": {
            "owner": "Address of the current owner of a token.",
            "sender": "Address whose tokens are being transferred.",
            "tokenId": "Identifier number of a token."
          }
        }
      ],
      "ERC721InsufficientApproval(address,uint256)": [
        {
          "details": "Indicates a failure with the `operator`s approval. Used in transfers.",
          "params": {
            "operator": "Address that may be allowed to operate on tokens without being their owner.",
            "tokenId": "Identifier number of a token."
          }
        }
      ],
      "ERC721InvalidApprover(address)": [
        {
          "details": "Indicates a failure with the `approver` of a token to be approved. Used in approvals.",
          "params": {
            "approver": "Address initiating an approval operation."
          }
        }
      ],
      "ERC721InvalidOperator(address)": [
        {
          "details": "Indicates a failure with the `operator` to be approved. Used in approvals.",
          "params": {
            "operator": "Address that may be allowed to operate on tokens without being their owner."
          }
        }
      ],
      "ERC721InvalidOwner(address)": [
        {
          "details": "Indicates that an address can't be an owner. For example, `address(0)` is a forbidden owner in EIP-20. Used in balance queries.",
          "params": {
            "owner": "Address of the current owner of a token."
          }
        }
      ],
      "ERC721InvalidReceiver(address)": [
        {
          "details": "Indicates a failure with the token `receiver`. Used in transfers.",
          "params": {
            "receiver": "Address to which tokens are being transferred."
          }
        }
      ],
      "ERC721InvalidSender(address)": [
        {
          "details": "Indicates a failure with the token `sender`. Used in transfers.",
          "params": {
            "sender": "Address whose tokens are being transferred."
          }
        }
      ],
      "ERC721NonexistentToken(uint256)": [
        {
          "details": "Indicates a `tokenId` whose `owner` is the zero address.",
          "params": {
            "tokenId": "Identifier number of a token."
          }
        }
      ],
      "ERC721OutOfBoundsIndex(address,uint256)": [
        {
          "details": "An `owner`'s token query was out of bounds for `index`. NOTE: The owner being `address(0)` indicates a global out of bounds index."
        }
      ],
      "StringsInsufficientHexLength(uint256,uint256)": [
        {
          "details": "The `value` string doesn't fit in the specified `length`."
        }
      ]
    },
    "events": {
      "Approval(address,address,uint256)": {
        "details": "Emitted when `owner` enables `approved` to manage the `tokenId` token."
      },
      "ApprovalForAll(address,address,bool)": {
        "details": "Emitted when `owner` enables or disables (`approved`) `operator` to manage all of its assets."
      },
      "ProductCompleted(uint256)": {
        "params": {
          "productIndex": "Contains the position where the product was indexed"
        }
      },
      "RangeCompleted(uint256,uint256)": {
        "params": {
          "productIndex": "Contains the indexed location for the product",
          "rangeIndex": "Contains the position where the range was indexed "
        }
      },
      "TradingUnlocked(uint256,uint256,uint256)": {
        "params": {
          "from": "Containt the date of begining of the range",
          "rangeIndex": "Contains the position where the range is indexed",
          "to": "Contain the date of end for the range"
        }
      },
      "Transfer(address,address,uint256)": {
        "details": "Emitted when `tokenId` token is transferred from `from` to `to`."
      }
    },
    "kind": "dev",
    "methods": {
      "approve(address,uint256)": {
        "details": "See {IERC721-approve}."
      },
      "balanceOf(address)": {
        "details": "See {IERC721-balanceOf}."
      },
      "getApproved(uint256)": {
        "details": "See {IERC721-getApproved}."
      },
      "isApprovedForAll(address,address)": {
        "details": "See {IERC721-isApprovedForAll}."
      },
      "mintFromRange(address,uint256,uint256)": {
        "details": "Only a contract with the `MINTER` role is available to use this function",
        "params": {
          "indexInRange": "Index of the token to mint",
          "rangeId": "Range to mint from",
          "to": "Recipient of the token"
        }
      },
      "mintFromRangeBatch(address[],uint256,uint256[])": {
        "params": {
          "indexInRange": "Contains array of ranges that will be used to index the minted NFT",
          "rangeId": "Contains the id of the range that we want to use for minting ",
          "to": "Contains the address that will own the minted token"
        }
      },
      "name()": {
        "details": "See {IERC721Metadata-name}."
      },
      "nextMintableTokenInRange(uint256)": {
        "params": {
          "rangeIndex": "Index of the range to check"
        },
        "returns": {
          "index": "\t\tIndex of the next available token"
        }
      },
      "ownerOf(uint256)": {
        "details": "See {IERC721-ownerOf}."
      },
      "safeTransferFrom(address,address,uint256)": {
        "details": "See {IERC721-safeTransferFrom}."
      },
      "safeTransferFrom(address,address,uint256,bytes)": {
        "details": "See {IERC721-safeTransferFrom}."
      },
      "setApprovalForAll(address,bool)": {
        "details": "See {IERC721-setApprovalForAll}."
      },
      "supportsInterface(bytes4)": {
        "details": "See {IERC165-supportsInterface}."
      },
      "symbol()": {
        "details": "See {IERC721Metadata-symbol}."
      },
      "tokenByIndex(uint256)": {
        "details": "See {IERC721Enumerable-tokenByIndex}."
      },
      "tokenOfOwnerByIndex(address,uint256)": {
        "details": "See {IERC721Enumerable-tokenOfOwnerByIndex}."
      },
      "tokenURI(uint256)": {
        "details": "See {IERC721Metadata-tokenURI}."
      },
      "totalSupply()": {
        "details": "See {IERC721Enumerable-totalSupply}."
      },
      "transferFrom(address,address,uint256)": {
        "details": "See {IERC721-transferFrom}."
      }
    },
    "version": 1
  },
  "userdoc": {
    "events": {
      "ProductCompleted(uint256)": {
        "notice": "This event stores in the blockchain when a product is succesfully finished"
      },
      "RangeCompleted(uint256,uint256)": {
        "notice": "This event stores in the blockchain when a range is succesfully established"
      },
      "TradingUnlocked(uint256,uint256,uint256)": {
        "notice": "This event stores in the blockchain when a trading is unlocked"
      }
    },
    "kind": "user",
    "methods": {
      "mintFromRange(address,uint256,uint256)": {
        "notice": "External function to mint from a range"
      },
      "mintFromRangeBatch(address[],uint256,uint256[])": {
        "notice": "This function allow us to mint a token form a batch of ranges"
      },
      "nextMintableTokenInRange(uint256)": {
        "notice": "Returns the next token available for minting in a range"
      }
    },
    "version": 1
  },
  "storageLayout": {
    "storage": [],
    "types": null
  }
}