{
  "address": "0x92FBe344513e108B581170E73CFA352B729E47EA",
  "abi": [
    {
      "inputs": [
        {
          "internalType": "uint256",
          "name": "value",
          "type": "uint256"
        },
        {
          "internalType": "uint256",
          "name": "length",
          "type": "uint256"
        }
      ],
      "name": "StringsInsufficientHexLength",
      "type": "error"
    },
    {
      "anonymous": false,
      "inputs": [
        {
          "indexed": true,
          "internalType": "uint256",
          "name": "collectionIndex",
          "type": "uint256"
        },
        {
          "indexed": false,
          "internalType": "string",
          "name": "collectionName",
          "type": "string"
        },
        {
          "indexed": false,
          "internalType": "uint256",
          "name": "startingToken",
          "type": "uint256"
        },
        {
          "indexed": false,
          "internalType": "uint256",
          "name": "collectionLength",
          "type": "uint256"
        }
      ],
      "name": "CreatedCollection",
      "type": "event"
    },
    {
      "anonymous": false,
      "inputs": [
        {
          "indexed": true,
          "internalType": "bytes32",
          "name": "role",
          "type": "bytes32"
        },
        {
          "indexed": true,
          "internalType": "bytes32",
          "name": "previousAdminRole",
          "type": "bytes32"
        },
        {
          "indexed": true,
          "internalType": "bytes32",
          "name": "newAdminRole",
          "type": "bytes32"
        }
      ],
      "name": "RoleAdminChanged",
      "type": "event"
    },
    {
      "anonymous": false,
      "inputs": [
        {
          "indexed": true,
          "internalType": "bytes32",
          "name": "role",
          "type": "bytes32"
        },
        {
          "indexed": true,
          "internalType": "address",
          "name": "account",
          "type": "address"
        },
        {
          "indexed": true,
          "internalType": "address",
          "name": "sender",
          "type": "address"
        }
      ],
      "name": "RoleGranted",
      "type": "event"
    },
    {
      "anonymous": false,
      "inputs": [
        {
          "indexed": true,
          "internalType": "bytes32",
          "name": "role",
          "type": "bytes32"
        },
        {
          "indexed": true,
          "internalType": "address",
          "name": "account",
          "type": "address"
        },
        {
          "indexed": true,
          "internalType": "address",
          "name": "sender",
          "type": "address"
        }
      ],
      "name": "RoleRevoked",
      "type": "event"
    },
    {
      "inputs": [],
      "name": "CREATOR",
      "outputs": [
        {
          "internalType": "bytes32",
          "name": "",
          "type": "bytes32"
        }
      ],
      "stateMutability": "view",
      "type": "function"
    },
    {
      "inputs": [],
      "name": "MINTER",
      "outputs": [
        {
          "internalType": "bytes32",
          "name": "",
          "type": "bytes32"
        }
      ],
      "stateMutability": "view",
      "type": "function"
    },
    {
      "inputs": [],
      "name": "TRADER",
      "outputs": [
        {
          "internalType": "bytes32",
          "name": "",
          "type": "bytes32"
        }
      ],
      "stateMutability": "view",
      "type": "function"
    },
    {
      "inputs": [
        {
          "internalType": "address",
          "name": "owner",
          "type": "address"
        }
      ],
      "name": "balanceOf",
      "outputs": [
        {
          "internalType": "uint256",
          "name": "",
          "type": "uint256"
        }
      ],
      "stateMutability": "view",
      "type": "function"
    },
    {
      "inputs": [
        {
          "internalType": "string",
          "name": "_productName",
          "type": "string"
        },
        {
          "internalType": "uint256",
          "name": "_copies",
          "type": "uint256"
        }
      ],
      "name": "createProduct",
      "outputs": [],
      "stateMutability": "nonpayable",
      "type": "function"
    },
    {
      "inputs": [
        {
          "internalType": "uint256",
          "name": "collectionId",
          "type": "uint256"
        },
        {
          "internalType": "uint256",
          "name": "startingIndex",
          "type": "uint256"
        },
        {
          "internalType": "uint256",
          "name": "endingIndex",
          "type": "uint256"
        }
      ],
      "name": "getNextSequentialIndex",
      "outputs": [
        {
          "internalType": "uint256",
          "name": "nextIndex",
          "type": "uint256"
        }
      ],
      "stateMutability": "view",
      "type": "function"
    },
    {
      "inputs": [],
      "name": "getProductCount",
      "outputs": [
        {
          "internalType": "uint256",
          "name": "",
          "type": "uint256"
        }
      ],
      "stateMutability": "view",
      "type": "function"
    },
    {
      "inputs": [
        {
          "internalType": "uint256",
          "name": "productIndex_",
          "type": "uint256"
        }
      ],
      "name": "getProductInfo",
      "outputs": [
        {
          "components": [
            {
              "internalType": "uint256",
              "name": "startingToken",
              "type": "uint256"
            },
            {
              "internalType": "uint256",
              "name": "endingToken",
              "type": "uint256"
            },
            {
              "internalType": "uint256",
              "name": "mintableTokens",
              "type": "uint256"
            },
            {
              "internalType": "string",
              "name": "name",
              "type": "string"
            },
            {
              "internalType": "uint256[]",
              "name": "rangeList",
              "type": "uint256[]"
            }
          ],
          "internalType": "struct ERC721Storage.product",
          "name": "",
          "type": "tuple"
        }
      ],
      "stateMutability": "view",
      "type": "function"
    },
    {
      "inputs": [
        {
          "internalType": "bytes32",
          "name": "role",
          "type": "bytes32"
        }
      ],
      "name": "getRoleAdmin",
      "outputs": [
        {
          "internalType": "bytes32",
          "name": "",
          "type": "bytes32"
        }
      ],
      "stateMutability": "view",
      "type": "function"
    },
    {
      "inputs": [
        {
          "internalType": "bytes32",
          "name": "role",
          "type": "bytes32"
        },
        {
          "internalType": "uint256",
          "name": "index",
          "type": "uint256"
        }
      ],
      "name": "getRoleMember",
      "outputs": [
        {
          "internalType": "address",
          "name": "",
          "type": "address"
        }
      ],
      "stateMutability": "view",
      "type": "function"
    },
    {
      "inputs": [
        {
          "internalType": "bytes32",
          "name": "role",
          "type": "bytes32"
        }
      ],
      "name": "getRoleMemberCount",
      "outputs": [
        {
          "internalType": "uint256",
          "name": "",
          "type": "uint256"
        }
      ],
      "stateMutability": "view",
      "type": "function"
    },
    {
      "inputs": [
        {
          "internalType": "bytes32",
          "name": "role",
          "type": "bytes32"
        },
        {
          "internalType": "address",
          "name": "account",
          "type": "address"
        }
      ],
      "name": "grantRole",
      "outputs": [],
      "stateMutability": "nonpayable",
      "type": "function"
    },
    {
      "inputs": [
        {
          "internalType": "bytes32",
          "name": "role",
          "type": "bytes32"
        },
        {
          "internalType": "address",
          "name": "account",
          "type": "address"
        }
      ],
      "name": "hasRole",
      "outputs": [
        {
          "internalType": "bool",
          "name": "",
          "type": "bool"
        }
      ],
      "stateMutability": "view",
      "type": "function"
    },
    {
      "inputs": [
        {
          "internalType": "address",
          "name": "userAddress",
          "type": "address"
        },
        {
          "internalType": "uint256",
          "name": "productIndex",
          "type": "uint256"
        },
        {
          "internalType": "uint256",
          "name": "startingToken",
          "type": "uint256"
        },
        {
          "internalType": "uint256",
          "name": "endingToken",
          "type": "uint256"
        }
      ],
      "name": "hasTokenInProduct",
      "outputs": [
        {
          "internalType": "bool",
          "name": "",
          "type": "bool"
        }
      ],
      "stateMutability": "view",
      "type": "function"
    },
    {
      "inputs": [
        {
          "internalType": "uint256",
          "name": "productIndex",
          "type": "uint256"
        }
      ],
      "name": "mintedTokensInProduct",
      "outputs": [
        {
          "internalType": "uint256",
          "name": "length",
          "type": "uint256"
        }
      ],
      "stateMutability": "view",
      "type": "function"
    },
    {
      "inputs": [
        {
          "internalType": "address",
          "name": "find",
          "type": "address"
        },
        {
          "internalType": "uint256",
          "name": "productIndex",
          "type": "uint256"
        }
      ],
      "name": "ownsTokenInProduct",
      "outputs": [
        {
          "internalType": "bool",
          "name": "",
          "type": "bool"
        }
      ],
      "stateMutability": "view",
      "type": "function"
    },
    {
      "inputs": [
        {
          "internalType": "address",
          "name": "find",
          "type": "address"
        },
        {
          "internalType": "uint256",
          "name": "rangeIndex",
          "type": "uint256"
        }
      ],
      "name": "ownsTokenInRange",
      "outputs": [
        {
          "internalType": "bool",
          "name": "",
          "type": "bool"
        }
      ],
      "stateMutability": "view",
      "type": "function"
    },
    {
      "inputs": [
        {
          "internalType": "uint256",
          "name": "productIndex_",
          "type": "uint256"
        },
        {
          "internalType": "uint256",
          "name": "tokenIndex_",
          "type": "uint256"
        }
      ],
      "name": "productToToken",
      "outputs": [
        {
          "internalType": "uint256",
          "name": "",
          "type": "uint256"
        }
      ],
      "stateMutability": "view",
      "type": "function"
    },
    {
      "inputs": [
        {
          "internalType": "bytes32",
          "name": "role",
          "type": "bytes32"
        },
        {
          "internalType": "address",
          "name": "account",
          "type": "address"
        }
      ],
      "name": "renounceRole",
      "outputs": [],
      "stateMutability": "nonpayable",
      "type": "function"
    },
    {
      "inputs": [
        {
          "internalType": "bytes32",
          "name": "role",
          "type": "bytes32"
        },
        {
          "internalType": "address",
          "name": "account",
          "type": "address"
        }
      ],
      "name": "revokeRole",
      "outputs": [],
      "stateMutability": "nonpayable",
      "type": "function"
    },
    {
      "inputs": [
        {
          "internalType": "uint256",
          "name": "productIndex_",
          "type": "uint256"
        },
        {
          "internalType": "uint256",
          "name": "tokenIndex_",
          "type": "uint256"
        }
      ],
      "name": "tokenByProduct",
      "outputs": [
        {
          "internalType": "uint256",
          "name": "",
          "type": "uint256"
        }
      ],
      "stateMutability": "view",
      "type": "function"
    },
    {
      "inputs": [
        {
          "internalType": "address",
          "name": "owner",
          "type": "address"
        },
        {
          "internalType": "uint256",
          "name": "index",
          "type": "uint256"
        }
      ],
      "name": "tokenOfOwnerByIndex",
      "outputs": [
        {
          "internalType": "uint256",
          "name": "",
          "type": "uint256"
        }
      ],
      "stateMutability": "view",
      "type": "function"
    },
    {
      "inputs": [
        {
          "internalType": "uint256",
          "name": "tokenIndex_",
          "type": "uint256"
        }
      ],
      "name": "tokenToProduct",
      "outputs": [
        {
          "internalType": "uint256",
          "name": "productIndex",
          "type": "uint256"
        },
        {
          "internalType": "uint256",
          "name": "rangeIndex",
          "type": "uint256"
        }
      ],
      "stateMutability": "view",
      "type": "function"
    },
    {
      "inputs": [
        {
          "internalType": "uint256",
          "name": "tokenIndex_",
          "type": "uint256"
        }
      ],
      "name": "tokenToProductIndex",
      "outputs": [
        {
          "internalType": "uint256",
          "name": "",
          "type": "uint256"
        }
      ],
      "stateMutability": "view",
      "type": "function"
    }
  ],
  "transactionHash": "0x60fdb832011ac344a23dd3dfde90c56cf743c82390e4c12765ea7325cb1fef97",
  "args": [],
  "numDeployments": 1,
  "solcInputHash": "48bff27b17b8e4de37ab8f58194aab78",
  "bytecode": "0x6080604052348015600f57600080fd5b50611cc28061001f6000396000f3fe608060405234801561001057600080fd5b50600436106101585760003560e01c806391d14854116100c3578063d547741f1161007c578063d547741f14610306578063d76bf56614610319578063e4fbb60914610341578063e5b8501514610368578063e9300c6c1461037b578063fe6d81241461038e57600080fd5b806391d14854146102945780639716d101146102a7578063971b4cc4146102ba578063bda5ec33146102cd578063c00b83c5146102e0578063ca15c873146102f357600080fd5b80634a348da9116101155780634a348da914610208578063586704ea146102105780636c99dcbf1461022357806370a082311461023657806379a85e6c146102495780639010d07c1461026957600080fd5b8063175c4ef81461015d578063248a9ca3146101975780632f2ff15d146101aa5780632f745c59146101bf57806336568abe146101d257806336706b41146101e5575b600080fd5b6101847f872340a532bdd7bb02bea115c1b0f1ba87eac982f5b79b51ac189ffaac1b6fce81565b6040519081526020015b60405180910390f35b6101846101a5366004611650565b6103b5565b6101bd6101b8366004611685565b6103d7565b005b6101846101cd3660046116b1565b6103f9565b6101bd6101e0366004611685565b6104a4565b6101f86101f33660046116b1565b610522565b604051901515815260200161018e565b610184610599565b61018461021e366004611650565b6105ac565b6101f86102313660046116db565b6105ca565b610184610244366004611714565b6107ae565b61025c610257366004611650565b610843565b60405161018e919061177f565b61027c610277366004611805565b6109e6565b6040516001600160a01b03909116815260200161018e565b6101f86102a2366004611685565b610a12565b6101846102b5366004611805565b610a4a565b6101846102c8366004611805565b610ab0565b6101846102db366004611827565b610b1e565b6101846102ee366004611650565b610d5f565b610184610301366004611650565b610df4565b6101bd610314366004611685565b610e18565b61032c610327366004611650565b610e35565b6040805192835260208301919091520161018e565b6101847f3c2519c4487d47714872f92cf90a50c25f5deaec2789dc2a497b1272df611db681565b6101f86103763660046116b1565b610eae565b6101bd610389366004611869565b610fbb565b6101847ff0887ba65ee2024ea881d91b74c2450ef19e1557f03bed3ea9f16b037cbe2dc981565b6000908152600080516020611c4d833981519152602052604090206001015490565b6103e0826103b5565b6103ea81336110ee565b6103f48383611152565b505050565b6000610404836107ae565b821061046b5760405162461bcd60e51b815260206004820152602b60248201527f455243373231456e756d657261626c653a206f776e657220696e646578206f7560448201526a74206f6620626f756e647360a81b60648201526084015b60405180910390fd5b6104736111e9565b6001600160a01b03841660009081526006919091016020908152604080832085845290915290205490505b92915050565b6001600160a01b03811633146105145760405162461bcd60e51b815260206004820152602f60248201527f416363657373436f6e74726f6c3a2063616e206f6e6c792072656e6f756e636560448201526e103937b632b9903337b91039b2b63360891b6064820152608401610462565b61051e828261120d565b5050565b6000818061052e6111e9565b600c01541161054f5760405162461bcd60e51b81526004016104629061191e565b60006105596111e9565b600c01848154811061056d5761056d611964565b9060005260206000209060050201905061059085826000015483600101546112a2565b95945050505050565b60006105a36111e9565b600c0154919050565b60006105b66111e9565b600092835260140160205250604090205490565b6000806105d56111e9565b9050600081600c0186815481106105ee576105ee611964565b90600052602060002090600502016040518060a00160405290816000820154815260200160018201548152602001600282015481526020016003820180546106359061197a565b80601f01602080910402602001604051908101604052809291908181526020018280546106619061197a565b80156106ae5780601f10610683576101008083540402835291602001916106ae565b820191906000526020600020905b81548152906001019060200180831161069157829003601f168201915b505050505081526020016004820180548060200260200160405190810160405280929190818152602001828054801561070657602002820191906000526020600020905b8154815260200190600101908083116106f2575b5050505050815250509050806020015160001461079f5760005b610729886107ae565b81101561079d57600061073c89836103f9565b6000818152600e860160205260409020549091508814801561076a575082516107669088906119c4565b8110155b80156107825750825161077e9087906119c4565b8111155b156107945760019450505050506107a6565b50600101610720565b505b6000925050505b949350505050565b60006001600160a01b0382166108195760405162461bcd60e51b815260206004820152602a60248201527f4552433732313a2062616c616e636520717565727920666f7220746865207a65604482015269726f206164647265737360b01b6064820152608401610462565b6108216111e9565b6001600160a01b03909216600090815260039290920160205250604090205490565b6108756040518060a0016040528060008152602001600081526020016000815260200160608152602001606081525090565b818061087f6111e9565b600c0154116108a05760405162461bcd60e51b81526004016104629061191e565b6108a86111e9565b600c0183815481106108bc576108bc611964565b90600052602060002090600502016040518060a00160405290816000820154815260200160018201548152602001600282015481526020016003820180546109039061197a565b80601f016020809104026020016040519081016040528092919081815260200182805461092f9061197a565b801561097c5780601f106109515761010080835404028352916020019161097c565b820191906000526020600020905b81548152906001019060200180831161095f57829003601f168201915b50505050508152602001600482018054806020026020016040519081016040528092919081815260200182805480156109d457602002820191906000526020600020905b8154815260200190600101908083116109c0575b50505050508152505091505b50919050565b6000828152600080516020611c6d83398151915260205260408120610a0b90836112fe565b9392505050565b6000918252600080516020611c4d833981519152602090815260408084206001600160a01b0393909316845291905290205460ff1690565b60008280610a566111e9565b600c015411610a775760405162461bcd60e51b81526004016104629061191e565b82610a806111e9565b600c018581548110610a9457610a94611964565b9060005260206000209060050201600001546107a691906119c4565b60008280610abc6111e9565b600c015411610add5760405162461bcd60e51b81526004016104629061191e565b610ae56111e9565b60140160008581526020019081526020016000208381548110610b0a57610b0a611964565b906000526020600020015491505092915050565b60008380610b2a6111e9565b600c015411610b4b5760405162461bcd60e51b81526004016104629061191e565b6000610b556111e9565b600c018681548110610b6957610b69611964565b90600052602060002090600502016040518060a0016040529081600082015481526020016001820154815260200160028201548152602001600382018054610bb09061197a565b80601f0160208091040260200160405190810160405280929190818152602001828054610bdc9061197a565b8015610c295780601f10610bfe57610100808354040283529160200191610c29565b820191906000526020600020905b815481529060010190602001808311610c0c57829003601f168201915b5050505050815260200160048201805480602002602001604051908101604052809291908181526020018280548015610c8157602002820191906000526020600020905b815481526020019060010190808311610c6d575b50505050508152505090506000858260000151610c9e91906119c4565b90505b8151610cae9086906119c4565b8111610ce857610cbd8161130a565b610cd6578151610ccd90826119d7565b93505050610d57565b80610ce0816119ea565b915050610ca1565b5060405162461bcd60e51b815260206004820152603960248201527f52414952204552433732313a20546865726520617265206e6f20617661696c6160448201527f626c6520746f6b656e7320696e20746869732072616e67652e000000000000006064820152608401610462565b509392505050565b60008181610d6b6111e9565b600083815260029190910160205260409020546001600160a01b031603610da45760405162461bcd60e51b815260040161046290611a03565b6000610dae6111e9565b6000858152600e82016020526040902054600c82018054929350918110610dd757610dd7611964565b906000526020600020906005020160000154846107a691906119d7565b6000818152600080516020611c6d8339815191526020526040812061049e90611338565b610e21826103b5565b610e2b81336110ee565b6103f4838361120d565b6000808281610e426111e9565b600083815260029190910160205260409020546001600160a01b031603610e7b5760405162461bcd60e51b815260040161046290611a03565b6000610e856111e9565b6000958652600e81016020908152604080882054600f9093019091529095205494959350505050565b60008180610eba6111e9565b600d015411610f155760405162461bcd60e51b815260206004820152602160248201527f52414952204552433732313a2052616e676520646f6573206e6f7420657869736044820152601d60fa1b6064820152608401610462565b6000610f1f6111e9565b9050600081600d018581548110610f3857610f38611964565b90600052602060002090600702019050600082600c018360160160008881526020019081526020016000205481548110610f7457610f74611964565b9060005260206000209060050201600001549050610fb087836000015483610f9c91906119c4565b6001850154610fab90856119c4565b6112a2565b979650505050505050565b7f3c2519c4487d47714872f92cf90a50c25f5deaec2789dc2a497b1272df611db6610fe681336110ee565b6000610ff06111e9565b600c8101549091506000901561104557600c82018054611012906001906119d7565b8154811061102257611022611964565b906000526020600020906005020160010154600161104091906119c4565b611048565b60005b600c83018054600181810183556000928352602090922060059091020182815591925061107586846119c4565b61107f91906119d7565b6001820155600381016110928782611a9b565b5060028101859055600c8301546110ab906001906119d7565b7fe318895d3fd44cb3524ca783576b7737ae76b172e344357462ab4258b50c1c228784886040516110de93929190611b5b565b60405180910390a2505050505050565b6110f88282610a12565b61051e57611110816001600160a01b03166014611342565b61111b836020611342565b60405160200161112c929190611b80565b60408051601f198184030181529082905262461bcd60e51b825261046291600401611bf5565b61115c8282610a12565b61051e576000828152600080516020611c4d833981519152602090815260408083206001600160a01b0385168085529252808320805460ff1916600117905551339285917f2f8788117e7eff1d82e926ec794901d17c78024a50270940304540a733656f0d9190a46000828152600080516020611c6d833981519152602052604090206103f490826114ba565b7f13fbb056f2602120441ced10c19d8151fd41fd4b17a6646b53bc0f944eb07a3990565b6112178282610a12565b1561051e576000828152600080516020611c4d833981519152602090815260408083206001600160a01b0385168085529252808320805460ff1916905551339285917ff6391f5c32d9c69d2a47ea670b442974b53935d1edc7fd64eb21e047a839171b9190a46000828152600080516020611c6d833981519152602052604090206103f490826114cf565b6000825b828110156112f357846001600160a01b03166112c06111e9565b600083815260029190910160205260409020546001600160a01b0316036112eb576001915050610a0b565b6001016112a6565b506000949350505050565b6000610a0b83836114e4565b6000806113156111e9565b60009384526002016020526040909220546001600160a01b031690911415919050565b600061049e825490565b6060826000611352846002611c08565b61135d9060026119c4565b67ffffffffffffffff81111561137557611375611853565b6040519080825280601f01601f19166020018201604052801561139f576020820181803683370190505b509050600360fc1b816000815181106113ba576113ba611964565b60200101906001600160f81b031916908160001a905350600f60fb1b816001815181106113e9576113e9611964565b60200101906001600160f81b031916908160001a905350600061140d856002611c08565b6114189060016119c4565b90505b6001811115611490576f181899199a1a9b1b9c1cb0b131b232b360811b83600f166010811061144c5761144c611964565b1a60f81b82828151811061146257611462611964565b60200101906001600160f81b031916908160001a90535060049290921c9161148981611c1f565b905061141b565b5081156107a65760405163e22e27eb60e01b81526004810186905260248101859052604401610462565b6000610a0b836001600160a01b03841661150e565b6000610a0b836001600160a01b03841661155d565b60008260000182815481106114fb576114fb611964565b9060005260206000200154905092915050565b60008181526001830160205260408120546115555750815460018181018455600084815260208082209093018490558454848252828601909352604090209190915561049e565b50600061049e565b600081815260018301602052604081205480156116465760006115816001836119d7565b8554909150600090611595906001906119d7565b90508082146115fa5760008660000182815481106115b5576115b5611964565b90600052602060002001549050808760000184815481106115d8576115d8611964565b6000918252602080832090910192909255918252600188019052604090208390555b855486908061160b5761160b611c36565b60019003818190600052602060002001600090559055856001016000868152602001908152602001600020600090556001935050505061049e565b600091505061049e565b60006020828403121561166257600080fd5b5035919050565b80356001600160a01b038116811461168057600080fd5b919050565b6000806040838503121561169857600080fd5b823591506116a860208401611669565b90509250929050565b600080604083850312156116c457600080fd5b6116cd83611669565b946020939093013593505050565b600080600080608085870312156116f157600080fd5b6116fa85611669565b966020860135965060408601359560600135945092505050565b60006020828403121561172657600080fd5b610a0b82611669565b60005b8381101561174a578181015183820152602001611732565b50506000910152565b6000815180845261176b81602086016020860161172f565b601f01601f19169290920160200192915050565b6000602080835283518184015280840151604084015260408401516060840152606084015160a060808501526117b860c0850182611753565b6080860151858203601f190160a0870152805180835290840192506000918401905b808310156117fa57835182529284019260019290920191908401906117da565b509695505050505050565b6000806040838503121561181857600080fd5b50508035926020909101359150565b60008060006060848603121561183c57600080fd5b505081359360208301359350604090920135919050565b634e487b7160e01b600052604160045260246000fd5b6000806040838503121561187c57600080fd5b823567ffffffffffffffff8082111561189457600080fd5b818501915085601f8301126118a857600080fd5b8135818111156118ba576118ba611853565b604051601f8201601f19908116603f011681019083821181831017156118e2576118e2611853565b816040528281528860208487010111156118fb57600080fd5b826020860160208301376000602093820184015298969091013596505050505050565b60208082526026908201527f52414952204552433732313a20436f6c6c656374696f6e20646f6573206e6f7460408201526508195e1a5cdd60d21b606082015260800190565b634e487b7160e01b600052603260045260246000fd5b600181811c9082168061198e57607f821691505b6020821081036109e057634e487b7160e01b600052602260045260246000fd5b634e487b7160e01b600052601160045260246000fd5b8082018082111561049e5761049e6119ae565b8181038181111561049e5761049e6119ae565b6000600182016119fc576119fc6119ae565b5060010190565b60208082526028908201527f52414952204552433732313a20517565727920666f72206e6f6e657869737465604082015267373a103a37b5b2b760c11b606082015260800190565b601f8211156103f4576000816000526020600020601f850160051c81016020861015611a745750805b601f850160051c820191505b81811015611a9357828155600101611a80565b505050505050565b815167ffffffffffffffff811115611ab557611ab5611853565b611ac981611ac3845461197a565b84611a4b565b602080601f831160018114611afe5760008415611ae65750858301515b600019600386901b1c1916600185901b178555611a93565b600085815260208120601f198616915b82811015611b2d57888601518255948401946001909101908401611b0e565b5085821015611b4b5787850151600019600388901b60f8161c191681555b5050505050600190811b01905550565b606081526000611b6e6060830186611753565b60208301949094525060400152919050565b7f416363657373436f6e74726f6c3a206163636f756e7420000000000000000000815260008351611bb881601785016020880161172f565b7001034b99036b4b9b9b4b733903937b6329607d1b6017918401918201528351611be981602884016020880161172f565b01602801949350505050565b602081526000610a0b6020830184611753565b808202811582820484141761049e5761049e6119ae565b600081611c2e57611c2e6119ae565b506000190190565b634e487b7160e01b600052603160045260246000fdfe4f4f658137f4e10317e1a22624c2b114af7563a20fb2e3444ae2ac2342d457d04f4f658137f4e10317e1a22624c2b114af7563a20fb2e3444ae2ac2342d457d1a26469706673582212207fcd73d0a7f6fd808779d5789c77d9365dc8067ff4341eb82c51a8552d94864d64736f6c63430008190033",
  "devdoc": {
    "errors": {
      "StringsInsufficientHexLength(uint256,uint256)": [
        {
          "details": "The `value` string doesn't fit in the specified `length`."
        }
      ]
    },
    "events": {
      "CreatedCollection(uint256,string,uint256,uint256)": {
        "params": {
          "collectionIndex": "Index for the collection",
          "collectionLength": "Number of tokens in the collection",
          "collectionName": "Name for the collection",
          "startingToken": "First token in the collection (include)"
        }
      }
    },
    "kind": "dev",
    "methods": {
      "balanceOf(address)": {
        "params": {
          "owner": "Contains the address which balance we want to verify"
        },
        "returns": {
          "_0": "uint256 with the current balance of the account"
        }
      },
      "createProduct(string,uint256)": {
        "details": "This function is only available to an account with a `CREATOR` role",
        "params": {
          "_copies": "Amount of tokens inside the product",
          "_productName": "Name of the product to create"
        }
      },
      "getNextSequentialIndex(uint256,uint256,uint256)": {
        "details": "Uses a loop, do not call this from a non-view function!This functions require that the collection exist to properly work ",
        "params": {
          "collectionId": "Index of the collection that we want to loop",
          "endingIndex": "Index of the last token of the product ",
          "startingIndex": "Index of the starting token of the product"
        },
        "returns": {
          "nextIndex": "\tWith the next starting point available for new products"
        }
      },
      "getProductCount()": {
        "details": "Use with get product to list all of the products",
        "returns": {
          "_0": "uint With the total of products"
        }
      },
      "getProductInfo(uint256)": {
        "details": "This function require that the collection exist",
        "params": {
          "productIndex_": "Contains the id of the product that we want to verify"
        },
        "returns": {
          "_0": "product which contain the information of the product"
        }
      },
      "hasTokenInProduct(address,uint256,uint256,uint256)": {
        "details": "Loops are expensive in solidity, so don't use this in a function that requires gas",
        "params": {
          "endingToken": "Last token to search ",
          "productIndex": "Index of the collection to search",
          "startingToken": "Starting token to search",
          "userAddress": "Address that will be uses to see the belonging tokens of a product and a range"
        },
        "returns": {
          "_0": "bool \t\t\t\tWhich respond if the tokens belongs or not to a product and a range"
        }
      },
      "mintedTokensInProduct(uint256)": {
        "params": {
          "productIndex": "Product index to verify"
        },
        "returns": {
          "length": " \t \tNumber of tokens already minted"
        }
      },
      "ownsTokenInProduct(address,uint256)": {
        "details": "This function require that the product exist",
        "params": {
          "find": "Address to search",
          "productIndex": "Collection to verify"
        },
        "returns": {
          "_0": "bool \t\t\tFor the existence or not, of the token in the product "
        }
      },
      "ownsTokenInRange(address,uint256)": {
        "details": "This function require that the range exist ",
        "params": {
          "find": "Address to search",
          "rangeIndex": "Range to verify"
        },
        "returns": {
          "_0": "bool \t\tFor the existence or not, of the token in the range "
        }
      },
      "productToToken(uint256,uint256)": {
        "details": "This function require that the collection exist\\",
        "params": {
          "productIndex_": "Contains the index of the collection where is the token",
          "tokenIndex_": "Contains the index of the token inside the collection"
        },
        "returns": {
          "_0": "uint\t\t  With the value of the token in that indexed position "
        }
      },
      "tokenByProduct(uint256,uint256)": {
        "details": "This function require that the collection exist",
        "params": {
          "productIndex_": "Contains the index of the collection where is the token",
          "tokenIndex_": "Contains the index of the token inside the collection"
        },
        "returns": {
          "_0": "uint\t\t  With the value of the token in that indexed position "
        }
      },
      "tokenOfOwnerByIndex(address,uint256)": {
        "params": {
          "index": "Contains the position in the owned tokens list",
          "owner": "Contains address of the acount that we want to verify"
        },
        "returns": {
          "_0": "uint with the token that is owned by the account in that position "
        }
      },
      "tokenToProduct(uint256)": {
        "details": "This function require that the token exist",
        "params": {
          "tokenIndex_": "Contains the index of the token which info we want to know "
        },
        "returns": {
          "productIndex": " With the corresponding collection ID for the token",
          "rangeIndex": "  With the corresponding range of the collection "
        }
      },
      "tokenToProductIndex(uint256)": {
        "details": "This function require that the token exist",
        "params": {
          "tokenIndex_": "Contains the index of the token inside the collection"
        },
        "returns": {
          "_0": "uint \t\t Return the ID of the collection "
        }
      }
    },
    "title": "RAIR Product facet contract",
    "version": 1
  },
  "userdoc": {
    "kind": "user",
    "methods": {
      "balanceOf(address)": {
        "notice": "this funtions allow us to know the balance of an account"
      },
      "createProduct(string,uint256)": {
        "notice": "Creates a new product"
      },
      "getNextSequentialIndex(uint256,uint256,uint256)": {
        "notice": "Loops through a range of tokens inside a collection and returns the first token without an owner"
      },
      "getProductCount()": {
        "notice": "Returns the number of products on the contract"
      },
      "getProductInfo(uint256)": {
        "notice": "This function allow us to check the information of a product"
      },
      "hasTokenInProduct(address,uint256,uint256,uint256)": {
        "notice": "Loops over the user's tokens looking for one that belongs to a product and a specific range"
      },
      "mintedTokensInProduct(uint256)": {
        "notice": "Returns the number of tokens inside a product"
      },
      "ownsTokenInProduct(address,uint256)": {
        "notice": "Wrapper for the validator, searching for the entire product"
      },
      "ownsTokenInRange(address,uint256)": {
        "notice": "Wrapper for the validator, searching for the entire range"
      },
      "productToToken(uint256,uint256)": {
        "notice": "This function will search in a collection for a especific token and return its value"
      },
      "tokenByProduct(uint256,uint256)": {
        "notice": "This function allow us to see the position of creation of a token"
      },
      "tokenOfOwnerByIndex(address,uint256)": {
        "notice": "This functions allow us to check is a token is owned by an account"
      },
      "tokenToProduct(uint256)": {
        "notice": "This function allow us to locaste the collection & range of a token "
      },
      "tokenToProductIndex(uint256)": {
        "notice": "This function allow us to know the index of the collection that contains the token"
      }
    },
    "notice": "Facets for Product management",
    "version": 1
  },
  "storageLayout": {
    "storage": [],
    "types": null
  }
}