{
  "address": "0x0dA4c32AA5dD0e14813a390b0397698A9Ed5C159",
  "abi": [
    {
      "anonymous": false,
      "inputs": [
        {
          "indexed": false,
          "internalType": "string",
          "name": "_value",
          "type": "string"
        },
        {
          "indexed": true,
          "internalType": "uint256",
          "name": "_id",
          "type": "uint256"
        }
      ],
      "name": "PermanentURI",
      "type": "event"
    },
    {
      "anonymous": false,
      "inputs": [
        {
          "indexed": true,
          "internalType": "bytes32",
          "name": "role",
          "type": "bytes32"
        },
        {
          "indexed": true,
          "internalType": "bytes32",
          "name": "previousAdminRole",
          "type": "bytes32"
        },
        {
          "indexed": true,
          "internalType": "bytes32",
          "name": "newAdminRole",
          "type": "bytes32"
        }
      ],
      "name": "RoleAdminChanged",
      "type": "event"
    },
    {
      "anonymous": false,
      "inputs": [
        {
          "indexed": true,
          "internalType": "bytes32",
          "name": "role",
          "type": "bytes32"
        },
        {
          "indexed": true,
          "internalType": "address",
          "name": "account",
          "type": "address"
        },
        {
          "indexed": true,
          "internalType": "address",
          "name": "sender",
          "type": "address"
        }
      ],
      "name": "RoleGranted",
      "type": "event"
    },
    {
      "anonymous": false,
      "inputs": [
        {
          "indexed": true,
          "internalType": "bytes32",
          "name": "role",
          "type": "bytes32"
        },
        {
          "indexed": true,
          "internalType": "address",
          "name": "account",
          "type": "address"
        },
        {
          "indexed": true,
          "internalType": "address",
          "name": "sender",
          "type": "address"
        }
      ],
      "name": "RoleRevoked",
      "type": "event"
    },
    {
      "anonymous": false,
      "inputs": [
        {
          "indexed": false,
          "internalType": "string",
          "name": "newURI",
          "type": "string"
        },
        {
          "indexed": false,
          "internalType": "bool",
          "name": "appendTokenIndex",
          "type": "bool"
        },
        {
          "indexed": false,
          "internalType": "string",
          "name": "metadataExtension",
          "type": "string"
        }
      ],
      "name": "UpdatedBaseURI",
      "type": "event"
    },
    {
      "anonymous": false,
      "inputs": [
        {
          "indexed": false,
          "internalType": "string",
          "name": "newURI",
          "type": "string"
        }
      ],
      "name": "UpdatedContractURI",
      "type": "event"
    },
    {
      "anonymous": false,
      "inputs": [
        {
          "indexed": false,
          "internalType": "uint256",
          "name": "productId",
          "type": "uint256"
        },
        {
          "indexed": false,
          "internalType": "string",
          "name": "newURI",
          "type": "string"
        },
        {
          "indexed": false,
          "internalType": "bool",
          "name": "appendTokenIndex",
          "type": "bool"
        },
        {
          "indexed": false,
          "internalType": "string",
          "name": "metadataExtension",
          "type": "string"
        }
      ],
      "name": "UpdatedProductURI",
      "type": "event"
    },
    {
      "anonymous": false,
      "inputs": [
        {
          "indexed": false,
          "internalType": "uint256",
          "name": "rangeId",
          "type": "uint256"
        },
        {
          "indexed": false,
          "internalType": "string",
          "name": "newURI",
          "type": "string"
        },
        {
          "indexed": false,
          "internalType": "bool",
          "name": "appendTokenIndex",
          "type": "bool"
        },
        {
          "indexed": false,
          "internalType": "string",
          "name": "metadataExtension",
          "type": "string"
        }
      ],
      "name": "UpdatedRangeURI",
      "type": "event"
    },
    {
      "anonymous": false,
      "inputs": [
        {
          "indexed": false,
          "internalType": "uint256",
          "name": "tokenId",
          "type": "uint256"
        },
        {
          "indexed": false,
          "internalType": "string",
          "name": "newURI",
          "type": "string"
        }
      ],
      "name": "UpdatedTokenURI",
      "type": "event"
    },
    {
      "anonymous": false,
      "inputs": [
        {
          "indexed": false,
          "internalType": "string",
          "name": "newExtension",
          "type": "string"
        }
      ],
      "name": "UpdatedURIExtension",
      "type": "event"
    },
    {
      "inputs": [],
      "name": "CREATOR",
      "outputs": [
        {
          "internalType": "bytes32",
          "name": "",
          "type": "bytes32"
        }
      ],
      "stateMutability": "view",
      "type": "function"
    },
    {
      "inputs": [],
      "name": "contractURI",
      "outputs": [
        {
          "internalType": "string",
          "name": "",
          "type": "string"
        }
      ],
      "stateMutability": "view",
      "type": "function"
    },
    {
      "inputs": [
        {
          "internalType": "uint256",
          "name": "tokenId",
          "type": "uint256"
        }
      ],
      "name": "freezeMetadata",
      "outputs": [],
      "stateMutability": "nonpayable",
      "type": "function"
    },
    {
      "inputs": [
        {
          "internalType": "bytes32",
          "name": "role",
          "type": "bytes32"
        }
      ],
      "name": "getRoleAdmin",
      "outputs": [
        {
          "internalType": "bytes32",
          "name": "",
          "type": "bytes32"
        }
      ],
      "stateMutability": "view",
      "type": "function"
    },
    {
      "inputs": [
        {
          "internalType": "bytes32",
          "name": "role",
          "type": "bytes32"
        },
        {
          "internalType": "uint256",
          "name": "index",
          "type": "uint256"
        }
      ],
      "name": "getRoleMember",
      "outputs": [
        {
          "internalType": "address",
          "name": "",
          "type": "address"
        }
      ],
      "stateMutability": "view",
      "type": "function"
    },
    {
      "inputs": [
        {
          "internalType": "bytes32",
          "name": "role",
          "type": "bytes32"
        }
      ],
      "name": "getRoleMemberCount",
      "outputs": [
        {
          "internalType": "uint256",
          "name": "",
          "type": "uint256"
        }
      ],
      "stateMutability": "view",
      "type": "function"
    },
    {
      "inputs": [
        {
          "internalType": "bytes32",
          "name": "role",
          "type": "bytes32"
        },
        {
          "internalType": "address",
          "name": "account",
          "type": "address"
        }
      ],
      "name": "grantRole",
      "outputs": [],
      "stateMutability": "nonpayable",
      "type": "function"
    },
    {
      "inputs": [
        {
          "internalType": "bytes32",
          "name": "role",
          "type": "bytes32"
        },
        {
          "internalType": "address",
          "name": "account",
          "type": "address"
        }
      ],
      "name": "hasRole",
      "outputs": [
        {
          "internalType": "bool",
          "name": "",
          "type": "bool"
        }
      ],
      "stateMutability": "view",
      "type": "function"
    },
    {
      "inputs": [
        {
          "internalType": "bytes32",
          "name": "role",
          "type": "bytes32"
        },
        {
          "internalType": "address",
          "name": "account",
          "type": "address"
        }
      ],
      "name": "renounceRole",
      "outputs": [],
      "stateMutability": "nonpayable",
      "type": "function"
    },
    {
      "inputs": [
        {
          "internalType": "bytes32",
          "name": "role",
          "type": "bytes32"
        },
        {
          "internalType": "address",
          "name": "account",
          "type": "address"
        }
      ],
      "name": "revokeRole",
      "outputs": [],
      "stateMutability": "nonpayable",
      "type": "function"
    },
    {
      "inputs": [
        {
          "internalType": "string",
          "name": "newURI",
          "type": "string"
        },
        {
          "internalType": "bool",
          "name": "appendTokenIndexToBaseURI",
          "type": "bool"
        }
      ],
      "name": "setBaseURI",
      "outputs": [],
      "stateMutability": "nonpayable",
      "type": "function"
    },
    {
      "inputs": [
        {
          "internalType": "string",
          "name": "newURI",
          "type": "string"
        }
      ],
      "name": "setContractURI",
      "outputs": [],
      "stateMutability": "nonpayable",
      "type": "function"
    },
    {
      "inputs": [
        {
          "internalType": "string",
          "name": "extension",
          "type": "string"
        }
      ],
      "name": "setMetadataExtension",
      "outputs": [],
      "stateMutability": "nonpayable",
      "type": "function"
    },
    {
      "inputs": [
        {
          "internalType": "uint256",
          "name": "productId",
          "type": "uint256"
        },
        {
          "internalType": "string",
          "name": "newURI",
          "type": "string"
        },
        {
          "internalType": "bool",
          "name": "appendTokenIndexToProductURI",
          "type": "bool"
        }
      ],
      "name": "setProductURI",
      "outputs": [],
      "stateMutability": "nonpayable",
      "type": "function"
    },
    {
      "inputs": [
        {
          "internalType": "uint256",
          "name": "rangeId",
          "type": "uint256"
        },
        {
          "internalType": "string",
          "name": "newURI",
          "type": "string"
        },
        {
          "internalType": "bool",
          "name": "appendTokenIndex",
          "type": "bool"
        }
      ],
      "name": "setRangeURI",
      "outputs": [],
      "stateMutability": "nonpayable",
      "type": "function"
    },
    {
      "inputs": [
        {
          "internalType": "uint256",
          "name": "tokenId",
          "type": "uint256"
        },
        {
          "internalType": "string",
          "name": "newURI",
          "type": "string"
        }
      ],
      "name": "setUniqueURI",
      "outputs": [],
      "stateMutability": "nonpayable",
      "type": "function"
    },
    {
      "inputs": [
        {
          "internalType": "uint256[]",
          "name": "tokenIds",
          "type": "uint256[]"
        },
        {
          "internalType": "string[]",
          "name": "newURIs",
          "type": "string[]"
        }
      ],
      "name": "setUniqueURIBatch",
      "outputs": [],
      "stateMutability": "nonpayable",
      "type": "function"
    },
    {
      "inputs": [
        {
          "internalType": "uint256",
          "name": "token",
          "type": "uint256"
        }
      ],
      "name": "tokenToCollectionIndex",
      "outputs": [
        {
          "internalType": "uint256",
          "name": "tokenIndex",
          "type": "uint256"
        }
      ],
      "stateMutability": "view",
      "type": "function"
    },
    {
      "inputs": [
        {
          "internalType": "uint256",
          "name": "tokenId",
          "type": "uint256"
        }
      ],
      "name": "tokenURI",
      "outputs": [
        {
          "internalType": "string",
          "name": "",
          "type": "string"
        }
      ],
      "stateMutability": "view",
      "type": "function"
    }
  ],
  "transactionHash": "0x92fc838b9e5ad58e807dc35acbb9cc921d28c33a047fdcc46de2a83260fde42e",
  "args": [],
  "numDeployments": 6,
  "solcInputHash": "5c9a6b1e2bb30fb69effbccc20e83a24",
  "bytecode": "0x608060405234801561001057600080fd5b50611b17806100206000396000f3fe608060405234801561001057600080fd5b50600436106101215760003560e01c8063938e3d7b116100ad578063c87b56dd11610071578063c87b56dd1461027d578063ca15c8731461029d578063d547741f146102b0578063e4fbb609146102c3578063e8a3d485146102d857600080fd5b8063938e3d7b1461021e5780639f6350e614610231578063ab9aae3514610244578063b64b21ca14610257578063c1d78b4a1461026a57600080fd5b80634dcf6ad6116100f45780634dcf6ad61461019757806381f460ef146101aa5780639010d07c146101bd57806391ab328d146101e857806391d14854146101fb57600080fd5b80631c899d1a14610126578063248a9ca31461013b5780632f2ff15d1461017157806336568abe14610184575b600080fd5b6101396101343660046112dc565b6102e0565b005b61015e610149366004611328565b6000908152600a602052604090206001015490565b6040519081526020015b60405180910390f35b61013961017f366004611341565b610354565b610139610192366004611341565b61037f565b6101396101a5366004611328565b610402565b6101396101b8366004611392565b61045f565b6101d06101cb3660046113f0565b6104f4565b6040516001600160a01b039091168152602001610168565b6101396101f6366004611392565b610515565b61020e610209366004611341565b61059b565b6040519015158152602001610168565b61013961022c366004611412565b6105c6565b61013961023f366004611412565b61062b565b61015e610252366004611328565b610711565b610139610265366004611454565b610752565b6101396102783660046114ed565b6107be565b61029061028b366004611328565b6108b1565b604051610168919061157d565b61015e6102ab366004611328565b610bf7565b6101396102be366004611341565b610c0e565b61015e600080516020611ac283398151915281565b610290610c34565b600080516020611ac28339815191526102f98133610cc9565b6000848152601260205260409020610312838583611646565b507faab063d4691f636507767c2040fbab0b0e00a684d66a2f9640653ed5e7b859f984848460405161034693929190611730565b60405180910390a150505050565b6000828152600a60205260409020600101546103708133610cc9565b61037a8383610d2d565b505050565b6001600160a01b03811633146103f45760405162461bcd60e51b815260206004820152602f60248201527f416363657373436f6e74726f6c3a2063616e206f6e6c792072656e6f756e636560448201526e103937b632b9903337b91039b2b63360891b60648201526084015b60405180910390fd5b6103fe8282610dc7565b5050565b600080516020611ac283398151915261041b8133610cc9565b817fa109ba539900bf1b633f956d63c96fc89b814c7287f7aa50a9216d0b55657207610446846108b1565b604051610453919061157d565b60405180910390a25050565b600080516020611ac28339815191526104788133610cc9565b6000858152601a60205260409020610491848683611646565b506000858152601b602052604090819020805460ff1916841515179055517f2bb1ada610787986fd4521b4954a78d4f238f7bca767c926c6f07d999a9cda43906104e5908790879087908790601c906117d0565b60405180910390a15050505050565b6000828152600b6020526040812061050c9083610e42565b90505b92915050565b600080516020611ac283398151915261052e8133610cc9565b6000858152601360205260409020610547848683611646565b5060008581526014602052604090819020805460ff1916841515179055517ff143691bfd54372ac96096580c7ac8fa560f8c1b3c770db4f16eb1197c8d2f43906104e5908790879087908790601c906117d0565b6000918252600a602090815260408084206001600160a01b0393909316845291905290205460ff1690565b600080516020611ac28339815191526105df8133610cc9565b60176105ec838583611646565b507f64729fba330f29cb50d748098a4dff25d203b0c55833653113fb5e80bcbd16c1838360405161061e929190611810565b60405180910390a1505050565b600080516020611ac28339815191526106448133610cc9565b8282600081811061065757610657611824565b9050013560f81c60f81b6001600160f81b031916601760f91b146106d25760405162461bcd60e51b815260206004820152602c60248201527f52414952204552433732313a20457874656e73696f6e206d757374207374617260448201526b742077697468206120272e2760a01b60648201526084016103eb565b601c6106df838583611646565b506040517faa320816703c301a5fd8413568c3c1973befd093aa334d16a2414f0019b0f3da9061061e90601c9061183a565b600081815260106020526040812054600e8054909190811061073557610735611824565b9060005260206000209060050201600001548261050f9190611863565b600080516020611ac283398151915261076b8133610cc9565b600c610778848683611646565b506015805460ff19168315151790556040517f5a46dbcba74fa6a037f659c582371f45be00bed8b34d9edc9ee5ef9eb2571d9d9061034690869086908690601c90611876565b600080516020611ac28339815191526107d78133610cc9565b83821461084c5760405162461bcd60e51b815260206004820152603b60248201527f52414952204552433732313a20546f6b656e2049447320616e6420555249732060448201527f73686f756c642068617665207468652073616d65206c656e677468000000000060648201526084016103eb565b60005b848110156108a95761089786868381811061086c5761086c611824565b9050602002013585858481811061088557610885611824565b905060200281019061013491906118af565b806108a1816118f6565b91505061084f565b505050505050565b6000818152601260205260408120805460609291906108cf906115c6565b80601f01602080910402602001604051908101604052809291908181526020018280546108fb906115c6565b80156109485780601f1061091d57610100808354040283529160200191610948565b820191906000526020600020905b81548152906001019060200180831161092b57829003601f168201915b5050505050905060008151111561095f5792915050565b6000838152601160209081526040808320548352601a90915290208054610985906115c6565b80601f01602080910402602001604051908101604052809291908181526020018280546109b1906115c6565b80156109fe5780601f106109d3576101008083540402835291602001916109fe565b820191906000526020600020905b8154815290600101906020018083116109e157829003601f168201915b50505050509050600081511115610a70576000838152601160209081526040808320548352601b90915290205460ff161561050f5780610a45610a4085610711565b610e4e565b604051610a59929190601c9060200161190f565b604051602081830303815290604052915050919050565b6000838152601060209081526040808320548352601390915290208054610a96906115c6565b80601f0160208091040260200160405190810160405280929190818152602001828054610ac2906115c6565b8015610b0f5780601f10610ae457610100808354040283529160200191610b0f565b820191906000526020600020905b815481529060010190602001808311610af257829003601f168201915b50505050509050600081511115610b51576000838152601060209081526040808320548352601490915290205460ff161561050f5780610a45610a4085610711565b600c8054610b5e906115c6565b80601f0160208091040260200160405190810160405280929190818152602001828054610b8a906115c6565b8015610bd75780601f10610bac57610100808354040283529160200191610bd7565b820191906000526020600020905b815481529060010190602001808311610bba57829003601f168201915b5050601554939450505060ff90911615905061050f5780610a4584610e4e565b6000818152600b6020526040812061050f90610f57565b6000828152600a6020526040902060010154610c2a8133610cc9565b61037a8383610dc7565b606060006017018054610c46906115c6565b80601f0160208091040260200160405190810160405280929190818152602001828054610c72906115c6565b8015610cbf5780601f10610c9457610100808354040283529160200191610cbf565b820191906000526020600020905b815481529060010190602001808311610ca257829003601f168201915b5050505050905090565b610cd3828261059b565b6103fe57610ceb816001600160a01b03166014610f61565b610cf6836020610f61565b604051602001610d079291906119af565b60408051601f198184030181529082905262461bcd60e51b82526103eb9160040161157d565b610d37828261059b565b6103fe576000828152600a602090815260408083206001600160a01b03851684529091529020805460ff19166001179055610d6f3390565b6001600160a01b0316816001600160a01b0316837f2f8788117e7eff1d82e926ec794901d17c78024a50270940304540a733656f0d60405160405180910390a46000828152600b6020526040902061037a90826110fd565b610dd1828261059b565b156103fe576000828152600a602090815260408083206001600160a01b0385168085529252808320805460ff1916905551339285917ff6391f5c32d9c69d2a47ea670b442974b53935d1edc7fd64eb21e047a839171b9190a46000828152600b6020526040902061037a9082611112565b600061050c8383611127565b606081600003610e755750506040805180820190915260018152600360fc1b602082015290565b8160005b8115610e9f5780610e89816118f6565b9150610e989050600a83611a3a565b9150610e79565b60008167ffffffffffffffff811115610eba57610eba6115b0565b6040519080825280601f01601f191660200182016040528015610ee4576020820181803683370190505b5090505b8415610f4f57610ef9600183611863565b9150610f06600a86611a4e565b610f11906030611a62565b60f81b818381518110610f2657610f26611824565b60200101906001600160f81b031916908160001a905350610f48600a86611a3a565b9450610ee8565b949350505050565b600061050f825490565b60606000610f70836002611a75565b610f7b906002611a62565b67ffffffffffffffff811115610f9357610f936115b0565b6040519080825280601f01601f191660200182016040528015610fbd576020820181803683370190505b509050600360fc1b81600081518110610fd857610fd8611824565b60200101906001600160f81b031916908160001a905350600f60fb1b8160018151811061100757611007611824565b60200101906001600160f81b031916908160001a905350600061102b846002611a75565b611036906001611a62565b90505b60018111156110ae576f181899199a1a9b1b9c1cb0b131b232b360811b85600f166010811061106a5761106a611824565b1a60f81b82828151811061108057611080611824565b60200101906001600160f81b031916908160001a90535060049490941c936110a781611a94565b9050611039565b50831561050c5760405162461bcd60e51b815260206004820181905260248201527f537472696e67733a20686578206c656e67746820696e73756666696369656e7460448201526064016103eb565b600061050c836001600160a01b038416611151565b600061050c836001600160a01b0384166111a0565b600082600001828154811061113e5761113e611824565b9060005260206000200154905092915050565b60008181526001830160205260408120546111985750815460018181018455600084815260208082209093018490558454848252828601909352604090209190915561050f565b50600061050f565b600081815260018301602052604081205480156112895760006111c4600183611863565b85549091506000906111d890600190611863565b905081811461123d5760008660000182815481106111f8576111f8611824565b906000526020600020015490508087600001848154811061121b5761121b611824565b6000918252602080832090910192909255918252600188019052604090208390555b855486908061124e5761124e611aab565b60019003818190600052602060002001600090559055856001016000868152602001908152602001600020600090556001935050505061050f565b600091505061050f565b60008083601f8401126112a557600080fd5b50813567ffffffffffffffff8111156112bd57600080fd5b6020830191508360208285010111156112d557600080fd5b9250929050565b6000806000604084860312156112f157600080fd5b83359250602084013567ffffffffffffffff81111561130f57600080fd5b61131b86828701611293565b9497909650939450505050565b60006020828403121561133a57600080fd5b5035919050565b6000806040838503121561135457600080fd5b8235915060208301356001600160a01b038116811461137257600080fd5b809150509250929050565b8035801515811461138d57600080fd5b919050565b600080600080606085870312156113a857600080fd5b84359350602085013567ffffffffffffffff8111156113c657600080fd5b6113d287828801611293565b90945092506113e590506040860161137d565b905092959194509250565b6000806040838503121561140357600080fd5b50508035926020909101359150565b6000806020838503121561142557600080fd5b823567ffffffffffffffff81111561143c57600080fd5b61144885828601611293565b90969095509350505050565b60008060006040848603121561146957600080fd5b833567ffffffffffffffff81111561148057600080fd5b61148c86828701611293565b909450925061149f90506020850161137d565b90509250925092565b60008083601f8401126114ba57600080fd5b50813567ffffffffffffffff8111156114d257600080fd5b6020830191508360208260051b85010111156112d557600080fd5b6000806000806040858703121561150357600080fd5b843567ffffffffffffffff8082111561151b57600080fd5b611527888389016114a8565b9096509450602087013591508082111561154057600080fd5b5061154d878288016114a8565b95989497509550505050565b60005b8381101561157457818101518382015260200161155c565b50506000910152565b602081526000825180602084015261159c816040850160208701611559565b601f01601f19169190910160400192915050565b634e487b7160e01b600052604160045260246000fd5b600181811c908216806115da57607f821691505b6020821081036115fa57634e487b7160e01b600052602260045260246000fd5b50919050565b601f82111561037a57600081815260208120601f850160051c810160208610156116275750805b601f850160051c820191505b818110156108a957828155600101611633565b67ffffffffffffffff83111561165e5761165e6115b0565b6116728361166c83546115c6565b83611600565b6000601f8411600181146116a6576000851561168e5750838201355b600019600387901b1c1916600186901b178355611700565b600083815260209020601f19861690835b828110156116d757868501358255602094850194600190920191016116b7565b50868210156116f45760001960f88860031b161c19848701351681555b505060018560011b0183555b5050505050565b81835281816020850137506000828201602090810191909152601f909101601f19169091010190565b83815260406020820152600061174a604083018486611707565b95945050505050565b60008154611760816115c6565b80855260206001838116801561177d5760018114611797576117c5565b60ff1985168884015283151560051b8801830195506117c5565b866000528260002060005b858110156117bd5781548a82018601529083019084016117a2565b890184019650505b505050505092915050565b8581526080602082015260006117ea608083018688611707565b841515604084015282810360608401526118048185611753565b98975050505050505050565b602081526000610f4f602083018486611707565b634e487b7160e01b600052603260045260246000fd5b60208152600061050c6020830184611753565b634e487b7160e01b600052601160045260246000fd5b8181038181111561050f5761050f61184d565b60608152600061188a606083018688611707565b841515602084015282810360408401526118a48185611753565b979650505050505050565b6000808335601e198436030181126118c657600080fd5b83018035915067ffffffffffffffff8211156118e157600080fd5b6020019150368190038213156112d557600080fd5b6000600182016119085761190861184d565b5060010190565b6000845160206119228285838a01611559565b8551918401916119358184848a01611559565b8554920191600090611946816115c6565b6001828116801561195e57600181146119735761199f565b60ff198416875282151583028701945061199f565b896000528560002060005b848110156119975781548982015290830190870161197e565b505082870194505b50929a9950505050505050505050565b7f416363657373436f6e74726f6c3a206163636f756e74200000000000000000008152600083516119e7816017850160208801611559565b7001034b99036b4b9b9b4b733903937b6329607d1b6017918401918201528351611a18816028840160208801611559565b01602801949350505050565b634e487b7160e01b600052601260045260246000fd5b600082611a4957611a49611a24565b500490565b600082611a5d57611a5d611a24565b500690565b8082018082111561050f5761050f61184d565b6000816000190483118215151615611a8f57611a8f61184d565b500290565b600081611aa357611aa361184d565b506000190190565b634e487b7160e01b600052603160045260246000fdfe3c2519c4487d47714872f92cf90a50c25f5deaec2789dc2a497b1272df611db6a26469706673582212203b752eda8088e2daa5e0aa3e9099194fad00c4d3d00a0e14e7430c5b6bb0aa8864736f6c63430008100033",
  "devdoc": {
    "author": "Juan M. Sanchez M.",
    "details": "Notice that this contract is inheriting from AccessControlAppStorageEnumerable721",
    "events": {
      "UpdatedBaseURI(string,bool,string)": {
        "params": {
          "appendTokenIndex": "Contains the index of the tokens appended to the URI",
          "metadataExtension": "File extension (if exists)",
          "newURI": "Contains the new  base identifier for all the tokens"
        }
      },
      "UpdatedContractURI(string)": {
        "params": {
          "newURI": "Contains the new identifier for the contract "
        }
      },
      "UpdatedProductURI(uint256,string,bool,string)": {
        "params": {
          "appendTokenIndex": "Contains the index of the token appended to the URI",
          "metadataExtension": "File extension (if exists)",
          "newURI": "Contains the new identifier for the product",
          "productId": "Contains the index of the product to change"
        }
      },
      "UpdatedRangeURI(uint256,string,bool,string)": {
        "params": {
          "appendTokenIndex": "Contains the index of the token appended to the URI",
          "metadataExtension": "File extension (if exists)",
          "newURI": "Contains the new identifier for the product",
          "rangeId": "Contains the index of the product to change"
        }
      },
      "UpdatedTokenURI(uint256,string)": {
        "params": {
          "newURI": "Contains the new identifier for the token",
          "tokenId": "Contains the index of the token appended to the URI"
        }
      },
      "UpdatedURIExtension(string)": {
        "details": "It will be appended ONLY if the token ID has to also be appended",
        "params": {
          "newExtension": "The new extension for all the URIs"
        }
      }
    },
    "kind": "dev",
    "methods": {
      "contractURI()": {
        "returns": {
          "_0": "string with the URI of the contract "
        }
      },
      "freezeMetadata(uint256)": {
        "details": "This function is only available to an account with a `CREATOR` role",
        "params": {
          "tokenId": "Token Index that will be given an URI"
        }
      },
      "getRoleAdmin(bytes32)": {
        "params": {
          "role": "Contains the role that we want to verify"
        },
        "returns": {
          "_0": "bytes that indicates if an account has or not an admin role"
        }
      },
      "getRoleMember(bytes32,uint256)": {
        "params": {
          "index": "Contains the indexed position to verify inside the role members list",
          "role": "Contains the role that we want to verify"
        },
        "returns": {
          "_0": "address that indicates the address indexed in that position"
        }
      },
      "getRoleMemberCount(bytes32)": {
        "params": {
          "role": "Contains the role that we want to verify"
        },
        "returns": {
          "_0": "uint256 that indicates the total accounts with that role"
        }
      },
      "grantRole(bytes32,address)": {
        "details": "This function is only available to an account with an Admin role",
        "params": {
          "account": "Contains the account that has the role we want to update",
          "role": "Contains the role that we want to grant"
        }
      },
      "hasRole(bytes32,address)": {
        "params": {
          "account": "Contains the account address thay we want to verify",
          "role": "Contains the role that we want to verify"
        },
        "returns": {
          "_0": "bool that indicates if an account has or not a role"
        }
      },
      "renounceRole(bytes32,address)": {
        "details": "Currently you can only renounce to your own roles",
        "params": {
          "account": "Contains the account that has the role we want to update",
          "role": "Contains the role to remove from our account"
        }
      },
      "revokeRole(bytes32,address)": {
        "details": "This function is only available to an account with an Admin role",
        "params": {
          "account": "Contains the account that has the role we want to update",
          "role": "Contains the role that we want to revoke"
        }
      },
      "setBaseURI(string,bool)": {
        "details": "This function is only available to an account with a `CREATOR` roleCan be overriden by the specific token URI",
        "params": {
          "appendTokenIndexToBaseURI": "URI to be used",
          "newURI": "URI to be used"
        }
      },
      "setContractURI(string)": {
        "details": "This function is only available to an account with a `CREATOR` role",
        "params": {
          "newURI": "New URI to be given"
        }
      },
      "setMetadataExtension(string)": {
        "details": "Must include the . before the extension",
        "params": {
          "extension": "Extension to be added at the end of all contract wide tokens"
        }
      },
      "setProductURI(uint256,string,bool)": {
        "details": "This function is only available to an account with a `CREATOR` roleEmits an event so there's provenance",
        "params": {
          "appendTokenIndexToProductURI": "If true, it will append the token index to the URI",
          "newURI": "New URI to be given",
          "productId": "Token Index that will be given an URI"
        }
      },
      "setRangeURI(uint256,string,bool)": {
        "details": "Emits an event so there's provenance",
        "params": {
          "appendTokenIndex": "Flag to append the token index at the end of the new URI",
          "newURI": "New URI to be given",
          "rangeId": "Token Index that will be given an URI"
        }
      },
      "setUniqueURI(uint256,string)": {
        "details": "This function is only available to an account with a `CREATOR` roleEmits an event so there's provenance",
        "params": {
          "newURI": "New URI to be given",
          "tokenId": "Token Index that will be given an URI"
        }
      },
      "setUniqueURIBatch(uint256[],string[])": {
        "details": "This function is only available to an account with a `CREATOR` roleUses the single function so it also emits an eventThis function requires that all the tokens have a corresponding URI",
        "params": {
          "newURIs": "New URIs to be set",
          "tokenIds": "Token Indexes that will be given an URI"
        }
      },
      "tokenToCollectionIndex(uint256)": {
        "params": {
          "token": "Token ID to find"
        },
        "returns": {
          "tokenIndex": "which contains the corresponding token index"
        }
      },
      "tokenURI(uint256)": {
        "details": "Will return unique token URI or product URI or contract URI",
        "params": {
          "tokenId": "Token Index to look for"
        },
        "returns": {
          "_0": "string with the URI of the toke that we are using"
        }
      }
    },
    "title": "RAIR Metadata facet contract",
    "version": 1
  },
  "userdoc": {
    "events": {
      "RoleAdminChanged(bytes32,bytes32,bytes32)": {
        "notice": "This event stores in the blockchain when we change an admin role"
      },
      "RoleGranted(bytes32,address,address)": {
        "notice": "This event stores in the blockchain when we grant a role"
      },
      "RoleRevoked(bytes32,address,address)": {
        "notice": "This event stores in the blockchain when we revoke a role"
      },
      "UpdatedBaseURI(string,bool,string)": {
        "notice": "This event stores in the blockchain when the base code of all the tokens has an update in its URI"
      },
      "UpdatedContractURI(string)": {
        "notice": "This event stores in the blockchain when a contract has a change in its URI"
      },
      "UpdatedProductURI(uint256,string,bool,string)": {
        "notice": "This event stores in the blockchain when a product has a change in its URI"
      },
      "UpdatedRangeURI(uint256,string,bool,string)": {
        "notice": "This event stores in the blockchain when a range has a change in its URI"
      },
      "UpdatedTokenURI(uint256,string)": {
        "notice": "This event stores in the blockchain when a token has a change in its URI"
      },
      "UpdatedURIExtension(string)": {
        "notice": "This event informs the new extension all metadata URIs will have appended at the end"
      }
    },
    "kind": "user",
    "methods": {
      "contractURI()": {
        "notice": "This function allow us to see the current URI of the contract"
      },
      "freezeMetadata(uint256)": {
        "notice": "This function use OpenSea's to freeze the metadata"
      },
      "getRoleAdmin(bytes32)": {
        "notice": "Allow us to check the admin role that contains a role"
      },
      "getRoleMember(bytes32,uint256)": {
        "notice": "Allow us to check the address of an indexed position for the role list"
      },
      "getRoleMemberCount(bytes32)": {
        "notice": "Allow us to check total members that has an selected role"
      },
      "grantRole(bytes32,address)": {
        "notice": "Allow us to grant a role to an account"
      },
      "hasRole(bytes32,address)": {
        "notice": "Allow us to check the if and account has a selected role"
      },
      "renounceRole(bytes32,address)": {
        "notice": "Allow us to renounce to a role"
      },
      "revokeRole(bytes32,address)": {
        "notice": "Allow us to revoke a role to an account"
      },
      "setBaseURI(string,bool)": {
        "notice": "Sets the Base URI for ALL tokens"
      },
      "setContractURI(string)": {
        "notice": "This function allow us to set a new contract URI"
      },
      "setMetadataExtension(string)": {
        "notice": "Updates the metadata extension added at the end of all tokens"
      },
      "setProductURI(uint256,string,bool)": {
        "notice": "Gives an individual token an unique URI"
      },
      "setRangeURI(uint256,string,bool)": {
        "notice": "Gives all tokens within a range a specific URI"
      },
      "setUniqueURI(uint256,string)": {
        "notice": "Gives an individual token an unique URI"
      },
      "setUniqueURIBatch(uint256[],string[])": {
        "notice": "Updates the unique URI of all the tokens, but in a single transaction"
      },
      "tokenToCollectionIndex(uint256)": {
        "notice": "Returns the token index inside the product"
      },
      "tokenURI(uint256)": {
        "notice": "Returns a token's URI"
      }
    },
    "notice": "You can use this contract to administrate the metadata asociated to the Rair facet",
    "version": 1
  },
  "storageLayout": {
    "storage": [
      {
        "astId": 8055,
        "contract": "contracts/tokens/RAIR Token Facets/RAIRMetadataFacet.sol:RAIRMetadataFacet",
        "label": "s",
        "offset": 0,
        "slot": "0",
        "type": "t_struct(AppStorage721)8039_storage"
      }
    ],
    "types": {
      "t_address": {
        "encoding": "inplace",
        "label": "address",
        "numberOfBytes": "20"
      },
      "t_array(t_bytes32)dyn_storage": {
        "base": "t_bytes32",
        "encoding": "dynamic_array",
        "label": "bytes32[]",
        "numberOfBytes": "32"
      },
      "t_array(t_struct(product)7928_storage)dyn_storage": {
        "base": "t_struct(product)7928_storage",
        "encoding": "dynamic_array",
        "label": "struct product[]",
        "numberOfBytes": "32"
      },
      "t_array(t_struct(range)7916_storage)dyn_storage": {
        "base": "t_struct(range)7916_storage",
        "encoding": "dynamic_array",
        "label": "struct range[]",
        "numberOfBytes": "32"
      },
      "t_array(t_uint256)dyn_storage": {
        "base": "t_uint256",
        "encoding": "dynamic_array",
        "label": "uint256[]",
        "numberOfBytes": "32"
      },
      "t_bool": {
        "encoding": "inplace",
        "label": "bool",
        "numberOfBytes": "1"
      },
      "t_bytes32": {
        "encoding": "inplace",
        "label": "bytes32",
        "numberOfBytes": "32"
      },
      "t_mapping(t_address,t_bool)": {
        "encoding": "mapping",
        "key": "t_address",
        "label": "mapping(address => bool)",
        "numberOfBytes": "32",
        "value": "t_bool"
      },
      "t_mapping(t_address,t_mapping(t_address,t_bool))": {
        "encoding": "mapping",
        "key": "t_address",
        "label": "mapping(address => mapping(address => bool))",
        "numberOfBytes": "32",
        "value": "t_mapping(t_address,t_bool)"
      },
      "t_mapping(t_address,t_mapping(t_uint256,t_uint256))": {
        "encoding": "mapping",
        "key": "t_address",
        "label": "mapping(address => mapping(uint256 => uint256))",
        "numberOfBytes": "32",
        "value": "t_mapping(t_uint256,t_uint256)"
      },
      "t_mapping(t_address,t_uint256)": {
        "encoding": "mapping",
        "key": "t_address",
        "label": "mapping(address => uint256)",
        "numberOfBytes": "32",
        "value": "t_uint256"
      },
      "t_mapping(t_bytes32,t_struct(AddressSet)2617_storage)": {
        "encoding": "mapping",
        "key": "t_bytes32",
        "label": "mapping(bytes32 => struct EnumerableSet.AddressSet)",
        "numberOfBytes": "32",
        "value": "t_struct(AddressSet)2617_storage"
      },
      "t_mapping(t_bytes32,t_struct(RoleData)5774_storage)": {
        "encoding": "mapping",
        "key": "t_bytes32",
        "label": "mapping(bytes32 => struct RoleData)",
        "numberOfBytes": "32",
        "value": "t_struct(RoleData)5774_storage"
      },
      "t_mapping(t_bytes32,t_uint256)": {
        "encoding": "mapping",
        "key": "t_bytes32",
        "label": "mapping(bytes32 => uint256)",
        "numberOfBytes": "32",
        "value": "t_uint256"
      },
      "t_mapping(t_uint256,t_address)": {
        "encoding": "mapping",
        "key": "t_uint256",
        "label": "mapping(uint256 => address)",
        "numberOfBytes": "32",
        "value": "t_address"
      },
      "t_mapping(t_uint256,t_array(t_uint256)dyn_storage)": {
        "encoding": "mapping",
        "key": "t_uint256",
        "label": "mapping(uint256 => uint256[])",
        "numberOfBytes": "32",
        "value": "t_array(t_uint256)dyn_storage"
      },
      "t_mapping(t_uint256,t_bool)": {
        "encoding": "mapping",
        "key": "t_uint256",
        "label": "mapping(uint256 => bool)",
        "numberOfBytes": "32",
        "value": "t_bool"
      },
      "t_mapping(t_uint256,t_string_storage)": {
        "encoding": "mapping",
        "key": "t_uint256",
        "label": "mapping(uint256 => string)",
        "numberOfBytes": "32",
        "value": "t_string_storage"
      },
      "t_mapping(t_uint256,t_uint256)": {
        "encoding": "mapping",
        "key": "t_uint256",
        "label": "mapping(uint256 => uint256)",
        "numberOfBytes": "32",
        "value": "t_uint256"
      },
      "t_string_storage": {
        "encoding": "bytes",
        "label": "string",
        "numberOfBytes": "32"
      },
      "t_struct(AddressSet)2617_storage": {
        "encoding": "inplace",
        "label": "struct EnumerableSet.AddressSet",
        "members": [
          {
            "astId": 2616,
            "contract": "contracts/tokens/RAIR Token Facets/RAIRMetadataFacet.sol:RAIRMetadataFacet",
            "label": "_inner",
            "offset": 0,
            "slot": "0",
            "type": "t_struct(Set)2316_storage"
          }
        ],
        "numberOfBytes": "64"
      },
      "t_struct(AppStorage721)8039_storage": {
        "encoding": "inplace",
        "label": "struct AppStorage721",
        "members": [
          {
            "astId": 7930,
            "contract": "contracts/tokens/RAIR Token Facets/RAIRMetadataFacet.sol:RAIRMetadataFacet",
            "label": "_name",
            "offset": 0,
            "slot": "0",
            "type": "t_string_storage"
          },
          {
            "astId": 7932,
            "contract": "contracts/tokens/RAIR Token Facets/RAIRMetadataFacet.sol:RAIRMetadataFacet",
            "label": "_symbol",
            "offset": 0,
            "slot": "1",
            "type": "t_string_storage"
          },
          {
            "astId": 7936,
            "contract": "contracts/tokens/RAIR Token Facets/RAIRMetadataFacet.sol:RAIRMetadataFacet",
            "label": "_owners",
            "offset": 0,
            "slot": "2",
            "type": "t_mapping(t_uint256,t_address)"
          },
          {
            "astId": 7940,
            "contract": "contracts/tokens/RAIR Token Facets/RAIRMetadataFacet.sol:RAIRMetadataFacet",
            "label": "_balances",
            "offset": 0,
            "slot": "3",
            "type": "t_mapping(t_address,t_uint256)"
          },
          {
            "astId": 7944,
            "contract": "contracts/tokens/RAIR Token Facets/RAIRMetadataFacet.sol:RAIRMetadataFacet",
            "label": "_tokenApprovals",
            "offset": 0,
            "slot": "4",
            "type": "t_mapping(t_uint256,t_address)"
          },
          {
            "astId": 7950,
            "contract": "contracts/tokens/RAIR Token Facets/RAIRMetadataFacet.sol:RAIRMetadataFacet",
            "label": "_operatorApprovals",
            "offset": 0,
            "slot": "5",
            "type": "t_mapping(t_address,t_mapping(t_address,t_bool))"
          },
          {
            "astId": 7956,
            "contract": "contracts/tokens/RAIR Token Facets/RAIRMetadataFacet.sol:RAIRMetadataFacet",
            "label": "_ownedTokens",
            "offset": 0,
            "slot": "6",
            "type": "t_mapping(t_address,t_mapping(t_uint256,t_uint256))"
          },
          {
            "astId": 7960,
            "contract": "contracts/tokens/RAIR Token Facets/RAIRMetadataFacet.sol:RAIRMetadataFacet",
            "label": "_ownedTokensIndex",
            "offset": 0,
            "slot": "7",
            "type": "t_mapping(t_uint256,t_uint256)"
          },
          {
            "astId": 7963,
            "contract": "contracts/tokens/RAIR Token Facets/RAIRMetadataFacet.sol:RAIRMetadataFacet",
            "label": "_allTokens",
            "offset": 0,
            "slot": "8",
            "type": "t_array(t_uint256)dyn_storage"
          },
          {
            "astId": 7967,
            "contract": "contracts/tokens/RAIR Token Facets/RAIRMetadataFacet.sol:RAIRMetadataFacet",
            "label": "_allTokensIndex",
            "offset": 0,
            "slot": "9",
            "type": "t_mapping(t_uint256,t_uint256)"
          },
          {
            "astId": 7972,
            "contract": "contracts/tokens/RAIR Token Facets/RAIRMetadataFacet.sol:RAIRMetadataFacet",
            "label": "_roles",
            "offset": 0,
            "slot": "10",
            "type": "t_mapping(t_bytes32,t_struct(RoleData)5774_storage)"
          },
          {
            "astId": 7977,
            "contract": "contracts/tokens/RAIR Token Facets/RAIRMetadataFacet.sol:RAIRMetadataFacet",
            "label": "_roleMembers",
            "offset": 0,
            "slot": "11",
            "type": "t_mapping(t_bytes32,t_struct(AddressSet)2617_storage)"
          },
          {
            "astId": 7979,
            "contract": "contracts/tokens/RAIR Token Facets/RAIRMetadataFacet.sol:RAIRMetadataFacet",
            "label": "baseURI",
            "offset": 0,
            "slot": "12",
            "type": "t_string_storage"
          },
          {
            "astId": 7981,
            "contract": "contracts/tokens/RAIR Token Facets/RAIRMetadataFacet.sol:RAIRMetadataFacet",
            "label": "factoryAddress",
            "offset": 0,
            "slot": "13",
            "type": "t_address"
          },
          {
            "astId": 7983,
            "contract": "contracts/tokens/RAIR Token Facets/RAIRMetadataFacet.sol:RAIRMetadataFacet",
            "label": "royaltyFee",
            "offset": 20,
            "slot": "13",
            "type": "t_uint16"
          },
          {
            "astId": 7987,
            "contract": "contracts/tokens/RAIR Token Facets/RAIRMetadataFacet.sol:RAIRMetadataFacet",
            "label": "products",
            "offset": 0,
            "slot": "14",
            "type": "t_array(t_struct(product)7928_storage)dyn_storage"
          },
          {
            "astId": 7991,
            "contract": "contracts/tokens/RAIR Token Facets/RAIRMetadataFacet.sol:RAIRMetadataFacet",
            "label": "ranges",
            "offset": 0,
            "slot": "15",
            "type": "t_array(t_struct(range)7916_storage)dyn_storage"
          },
          {
            "astId": 7995,
            "contract": "contracts/tokens/RAIR Token Facets/RAIRMetadataFacet.sol:RAIRMetadataFacet",
            "label": "tokenToProduct",
            "offset": 0,
            "slot": "16",
            "type": "t_mapping(t_uint256,t_uint256)"
          },
          {
            "astId": 7999,
            "contract": "contracts/tokens/RAIR Token Facets/RAIRMetadataFacet.sol:RAIRMetadataFacet",
            "label": "tokenToRange",
            "offset": 0,
            "slot": "17",
            "type": "t_mapping(t_uint256,t_uint256)"
          },
          {
            "astId": 8003,
            "contract": "contracts/tokens/RAIR Token Facets/RAIRMetadataFacet.sol:RAIRMetadataFacet",
            "label": "uniqueTokenURI",
            "offset": 0,
            "slot": "18",
            "type": "t_mapping(t_uint256,t_string_storage)"
          },
          {
            "astId": 8007,
            "contract": "contracts/tokens/RAIR Token Facets/RAIRMetadataFacet.sol:RAIRMetadataFacet",
            "label": "productURI",
            "offset": 0,
            "slot": "19",
            "type": "t_mapping(t_uint256,t_string_storage)"
          },
          {
            "astId": 8011,
            "contract": "contracts/tokens/RAIR Token Facets/RAIRMetadataFacet.sol:RAIRMetadataFacet",
            "label": "appendTokenIndexToProductURI",
            "offset": 0,
            "slot": "20",
            "type": "t_mapping(t_uint256,t_bool)"
          },
          {
            "astId": 8013,
            "contract": "contracts/tokens/RAIR Token Facets/RAIRMetadataFacet.sol:RAIRMetadataFacet",
            "label": "appendTokenIndexToBaseURI",
            "offset": 0,
            "slot": "21",
            "type": "t_bool"
          },
          {
            "astId": 8018,
            "contract": "contracts/tokens/RAIR Token Facets/RAIRMetadataFacet.sol:RAIRMetadataFacet",
            "label": "tokensByProduct",
            "offset": 0,
            "slot": "22",
            "type": "t_mapping(t_uint256,t_array(t_uint256)dyn_storage)"
          },
          {
            "astId": 8020,
            "contract": "contracts/tokens/RAIR Token Facets/RAIRMetadataFacet.sol:RAIRMetadataFacet",
            "label": "contractMetadataURI",
            "offset": 0,
            "slot": "23",
            "type": "t_string_storage"
          },
          {
            "astId": 8024,
            "contract": "contracts/tokens/RAIR Token Facets/RAIRMetadataFacet.sol:RAIRMetadataFacet",
            "label": "rangeToProduct",
            "offset": 0,
            "slot": "24",
            "type": "t_mapping(t_uint256,t_uint256)"
          },
          {
            "astId": 8028,
            "contract": "contracts/tokens/RAIR Token Facets/RAIRMetadataFacet.sol:RAIRMetadataFacet",
            "label": "_minted",
            "offset": 0,
            "slot": "25",
            "type": "t_mapping(t_uint256,t_bool)"
          },
          {
            "astId": 8032,
            "contract": "contracts/tokens/RAIR Token Facets/RAIRMetadataFacet.sol:RAIRMetadataFacet",
            "label": "rangeURI",
            "offset": 0,
            "slot": "26",
            "type": "t_mapping(t_uint256,t_string_storage)"
          },
          {
            "astId": 8036,
            "contract": "contracts/tokens/RAIR Token Facets/RAIRMetadataFacet.sol:RAIRMetadataFacet",
            "label": "appendTokenIndexToRangeURI",
            "offset": 0,
            "slot": "27",
            "type": "t_mapping(t_uint256,t_bool)"
          },
          {
            "astId": 8038,
            "contract": "contracts/tokens/RAIR Token Facets/RAIRMetadataFacet.sol:RAIRMetadataFacet",
            "label": "_metadataExtension",
            "offset": 0,
            "slot": "28",
            "type": "t_string_storage"
          }
        ],
        "numberOfBytes": "928"
      },
      "t_struct(RoleData)5774_storage": {
        "encoding": "inplace",
        "label": "struct RoleData",
        "members": [
          {
            "astId": 5771,
            "contract": "contracts/tokens/RAIR Token Facets/RAIRMetadataFacet.sol:RAIRMetadataFacet",
            "label": "members",
            "offset": 0,
            "slot": "0",
            "type": "t_mapping(t_address,t_bool)"
          },
          {
            "astId": 5773,
            "contract": "contracts/tokens/RAIR Token Facets/RAIRMetadataFacet.sol:RAIRMetadataFacet",
            "label": "adminRole",
            "offset": 0,
            "slot": "1",
            "type": "t_bytes32"
          }
        ],
        "numberOfBytes": "64"
      },
      "t_struct(Set)2316_storage": {
        "encoding": "inplace",
        "label": "struct EnumerableSet.Set",
        "members": [
          {
            "astId": 2311,
            "contract": "contracts/tokens/RAIR Token Facets/RAIRMetadataFacet.sol:RAIRMetadataFacet",
            "label": "_values",
            "offset": 0,
            "slot": "0",
            "type": "t_array(t_bytes32)dyn_storage"
          },
          {
            "astId": 2315,
            "contract": "contracts/tokens/RAIR Token Facets/RAIRMetadataFacet.sol:RAIRMetadataFacet",
            "label": "_indexes",
            "offset": 0,
            "slot": "1",
            "type": "t_mapping(t_bytes32,t_uint256)"
          }
        ],
        "numberOfBytes": "64"
      },
      "t_struct(product)7928_storage": {
        "encoding": "inplace",
        "label": "struct product",
        "members": [
          {
            "astId": 7918,
            "contract": "contracts/tokens/RAIR Token Facets/RAIRMetadataFacet.sol:RAIRMetadataFacet",
            "label": "startingToken",
            "offset": 0,
            "slot": "0",
            "type": "t_uint256"
          },
          {
            "astId": 7920,
            "contract": "contracts/tokens/RAIR Token Facets/RAIRMetadataFacet.sol:RAIRMetadataFacet",
            "label": "endingToken",
            "offset": 0,
            "slot": "1",
            "type": "t_uint256"
          },
          {
            "astId": 7922,
            "contract": "contracts/tokens/RAIR Token Facets/RAIRMetadataFacet.sol:RAIRMetadataFacet",
            "label": "mintableTokens",
            "offset": 0,
            "slot": "2",
            "type": "t_uint256"
          },
          {
            "astId": 7924,
            "contract": "contracts/tokens/RAIR Token Facets/RAIRMetadataFacet.sol:RAIRMetadataFacet",
            "label": "name",
            "offset": 0,
            "slot": "3",
            "type": "t_string_storage"
          },
          {
            "astId": 7927,
            "contract": "contracts/tokens/RAIR Token Facets/RAIRMetadataFacet.sol:RAIRMetadataFacet",
            "label": "rangeList",
            "offset": 0,
            "slot": "4",
            "type": "t_array(t_uint256)dyn_storage"
          }
        ],
        "numberOfBytes": "160"
      },
      "t_struct(range)7916_storage": {
        "encoding": "inplace",
        "label": "struct range",
        "members": [
          {
            "astId": 7903,
            "contract": "contracts/tokens/RAIR Token Facets/RAIRMetadataFacet.sol:RAIRMetadataFacet",
            "label": "rangeStart",
            "offset": 0,
            "slot": "0",
            "type": "t_uint256"
          },
          {
            "astId": 7905,
            "contract": "contracts/tokens/RAIR Token Facets/RAIRMetadataFacet.sol:RAIRMetadataFacet",
            "label": "rangeEnd",
            "offset": 0,
            "slot": "1",
            "type": "t_uint256"
          },
          {
            "astId": 7907,
            "contract": "contracts/tokens/RAIR Token Facets/RAIRMetadataFacet.sol:RAIRMetadataFacet",
            "label": "tokensAllowed",
            "offset": 0,
            "slot": "2",
            "type": "t_uint256"
          },
          {
            "astId": 7909,
            "contract": "contracts/tokens/RAIR Token Facets/RAIRMetadataFacet.sol:RAIRMetadataFacet",
            "label": "mintableTokens",
            "offset": 0,
            "slot": "3",
            "type": "t_uint256"
          },
          {
            "astId": 7911,
            "contract": "contracts/tokens/RAIR Token Facets/RAIRMetadataFacet.sol:RAIRMetadataFacet",
            "label": "lockedTokens",
            "offset": 0,
            "slot": "4",
            "type": "t_uint256"
          },
          {
            "astId": 7913,
            "contract": "contracts/tokens/RAIR Token Facets/RAIRMetadataFacet.sol:RAIRMetadataFacet",
            "label": "rangePrice",
            "offset": 0,
            "slot": "5",
            "type": "t_uint256"
          },
          {
            "astId": 7915,
            "contract": "contracts/tokens/RAIR Token Facets/RAIRMetadataFacet.sol:RAIRMetadataFacet",
            "label": "rangeName",
            "offset": 0,
            "slot": "6",
            "type": "t_string_storage"
          }
        ],
        "numberOfBytes": "224"
      },
      "t_uint16": {
        "encoding": "inplace",
        "label": "uint16",
        "numberOfBytes": "2"
      },
      "t_uint256": {
        "encoding": "inplace",
        "label": "uint256",
        "numberOfBytes": "32"
      }
    }
  }
}