{
    "_format": "hh-sol-artifact-1",
    "contractName": "RAIR_ERC721",
    "sourceName": "contracts/Tokens/RAIR-ERC721.sol",
    "abi": [
        {
            "inputs": [
                {
                    "internalType": "string",
                    "name": "_contractName",
                    "type": "string"
                },
                {
                    "internalType": "address",
                    "name": "_creatorAddress",
                    "type": "address"
                },
                {
                    "internalType": "uint16",
                    "name": "_creatorRoyalty",
                    "type": "uint16"
                }
            ],
            "stateMutability": "nonpayable",
            "type": "constructor"
        },
        {
            "anonymous": false,
            "inputs": [
                {
                    "indexed": true,
                    "internalType": "address",
                    "name": "owner",
                    "type": "address"
                },
                {
                    "indexed": true,
                    "internalType": "address",
                    "name": "approved",
                    "type": "address"
                },
                {
                    "indexed": true,
                    "internalType": "uint256",
                    "name": "tokenId",
                    "type": "uint256"
                }
            ],
            "name": "Approval",
            "type": "event"
        },
        {
            "anonymous": false,
            "inputs": [
                {
                    "indexed": true,
                    "internalType": "address",
                    "name": "owner",
                    "type": "address"
                },
                {
                    "indexed": true,
                    "internalType": "address",
                    "name": "operator",
                    "type": "address"
                },
                {
                    "indexed": false,
                    "internalType": "bool",
                    "name": "approved",
                    "type": "bool"
                }
            ],
            "name": "ApprovalForAll",
            "type": "event"
        },
        {
            "anonymous": false,
            "inputs": [
                {
                    "indexed": false,
                    "internalType": "string",
                    "name": "newURI",
                    "type": "string"
                }
            ],
            "name": "BaseURIChanged",
            "type": "event"
        },
        {
            "anonymous": false,
            "inputs": [
                {
                    "indexed": true,
                    "internalType": "uint256",
                    "name": "id",
                    "type": "uint256"
                },
                {
                    "indexed": false,
                    "internalType": "string",
                    "name": "name",
                    "type": "string"
                }
            ],
            "name": "ProductCompleted",
            "type": "event"
        },
        {
            "anonymous": false,
            "inputs": [
                {
                    "indexed": true,
                    "internalType": "uint256",
                    "name": "id",
                    "type": "uint256"
                },
                {
                    "indexed": false,
                    "internalType": "string",
                    "name": "name",
                    "type": "string"
                },
                {
                    "indexed": false,
                    "internalType": "uint256",
                    "name": "startingToken",
                    "type": "uint256"
                },
                {
                    "indexed": false,
                    "internalType": "uint256",
                    "name": "length",
                    "type": "uint256"
                }
            ],
            "name": "ProductCreated",
            "type": "event"
        },
        {
            "anonymous": false,
            "inputs": [
                {
                    "indexed": false,
                    "internalType": "uint256",
                    "name": "productId",
                    "type": "uint256"
                },
                {
                    "indexed": false,
                    "internalType": "string",
                    "name": "newURI",
                    "type": "string"
                }
            ],
            "name": "ProductURIChanged",
            "type": "event"
        },
        {
            "anonymous": false,
            "inputs": [
                {
                    "indexed": false,
                    "internalType": "uint256",
                    "name": "productIndex",
                    "type": "uint256"
                },
                {
                    "indexed": false,
                    "internalType": "uint256",
                    "name": "startingToken",
                    "type": "uint256"
                },
                {
                    "indexed": false,
                    "internalType": "uint256",
                    "name": "endingToken",
                    "type": "uint256"
                },
                {
                    "indexed": false,
                    "internalType": "uint256",
                    "name": "tokensLocked",
                    "type": "uint256"
                },
                {
                    "indexed": false,
                    "internalType": "string",
                    "name": "productName",
                    "type": "string"
                }
            ],
            "name": "RangeLocked",
            "type": "event"
        },
        {
            "anonymous": false,
            "inputs": [
                {
                    "indexed": false,
                    "internalType": "uint256",
                    "name": "productID",
                    "type": "uint256"
                },
                {
                    "indexed": false,
                    "internalType": "uint256",
                    "name": "startingToken",
                    "type": "uint256"
                },
                {
                    "indexed": false,
                    "internalType": "uint256",
                    "name": "endingToken",
                    "type": "uint256"
                }
            ],
            "name": "RangeUnlocked",
            "type": "event"
        },
        {
            "anonymous": false,
            "inputs": [
                {
                    "indexed": true,
                    "internalType": "bytes32",
                    "name": "role",
                    "type": "bytes32"
                },
                {
                    "indexed": true,
                    "internalType": "bytes32",
                    "name": "previousAdminRole",
                    "type": "bytes32"
                },
                {
                    "indexed": true,
                    "internalType": "bytes32",
                    "name": "newAdminRole",
                    "type": "bytes32"
                }
            ],
            "name": "RoleAdminChanged",
            "type": "event"
        },
        {
            "anonymous": false,
            "inputs": [
                {
                    "indexed": true,
                    "internalType": "bytes32",
                    "name": "role",
                    "type": "bytes32"
                },
                {
                    "indexed": true,
                    "internalType": "address",
                    "name": "account",
                    "type": "address"
                },
                {
                    "indexed": true,
                    "internalType": "address",
                    "name": "sender",
                    "type": "address"
                }
            ],
            "name": "RoleGranted",
            "type": "event"
        },
        {
            "anonymous": false,
            "inputs": [
                {
                    "indexed": true,
                    "internalType": "bytes32",
                    "name": "role",
                    "type": "bytes32"
                },
                {
                    "indexed": true,
                    "internalType": "address",
                    "name": "account",
                    "type": "address"
                },
                {
                    "indexed": true,
                    "internalType": "address",
                    "name": "sender",
                    "type": "address"
                }
            ],
            "name": "RoleRevoked",
            "type": "event"
        },
        {
            "anonymous": false,
            "inputs": [
                {
                    "indexed": false,
                    "internalType": "uint256",
                    "name": "tokenId",
                    "type": "uint256"
                },
                {
                    "indexed": false,
                    "internalType": "string",
                    "name": "newURI",
                    "type": "string"
                }
            ],
            "name": "TokenURIChanged",
            "type": "event"
        },
        {
            "anonymous": false,
            "inputs": [
                {
                    "indexed": true,
                    "internalType": "address",
                    "name": "from",
                    "type": "address"
                },
                {
                    "indexed": true,
                    "internalType": "address",
                    "name": "to",
                    "type": "address"
                },
                {
                    "indexed": true,
                    "internalType": "uint256",
                    "name": "tokenId",
                    "type": "uint256"
                }
            ],
            "name": "Transfer",
            "type": "event"
        },
        {
            "inputs": [],
            "name": "CREATOR",
            "outputs": [
                {
                    "internalType": "bytes32",
                    "name": "",
                    "type": "bytes32"
                }
            ],
            "stateMutability": "view",
            "type": "function"
        },
        {
            "inputs": [],
            "name": "DEFAULT_ADMIN_ROLE",
            "outputs": [
                {
                    "internalType": "bytes32",
                    "name": "",
                    "type": "bytes32"
                }
            ],
            "stateMutability": "view",
            "type": "function"
        },
        {
            "inputs": [],
            "name": "MINTER",
            "outputs": [
                {
                    "internalType": "bytes32",
                    "name": "",
                    "type": "bytes32"
                }
            ],
            "stateMutability": "view",
            "type": "function"
        },
        {
            "inputs": [],
            "name": "TRADER",
            "outputs": [
                {
                    "internalType": "bytes32",
                    "name": "",
                    "type": "bytes32"
                }
            ],
            "stateMutability": "view",
            "type": "function"
        },
        {
            "inputs": [
                {
                    "internalType": "address",
                    "name": "to",
                    "type": "address"
                },
                {
                    "internalType": "uint256",
                    "name": "tokenId",
                    "type": "uint256"
                }
            ],
            "name": "approve",
            "outputs": [],
            "stateMutability": "nonpayable",
            "type": "function"
        },
        {
            "inputs": [
                {
                    "internalType": "address",
                    "name": "owner",
                    "type": "address"
                }
            ],
            "name": "balanceOf",
            "outputs": [
                {
                    "internalType": "uint256",
                    "name": "",
                    "type": "uint256"
                }
            ],
            "stateMutability": "view",
            "type": "function"
        },
        {
            "inputs": [
                {
                    "internalType": "uint256",
                    "name": "productIndex",
                    "type": "uint256"
                },
                {
                    "internalType": "uint256",
                    "name": "startingToken",
                    "type": "uint256"
                },
                {
                    "internalType": "uint256",
                    "name": "endingToken",
                    "type": "uint256"
                }
            ],
            "name": "canCreateLock",
            "outputs": [
                {
                    "internalType": "bool",
                    "name": "canCreate",
                    "type": "bool"
                }
            ],
            "stateMutability": "view",
            "type": "function"
        },
        {
            "inputs": [
                {
                    "internalType": "string",
                    "name": "_productName",
                    "type": "string"
                },
                {
                    "internalType": "uint256",
                    "name": "_copies",
                    "type": "uint256"
                }
            ],
            "name": "createProduct",
            "outputs": [],
            "stateMutability": "nonpayable",
            "type": "function"
        },
        {
            "inputs": [
                {
                    "internalType": "uint256",
                    "name": "productIndex",
                    "type": "uint256"
                },
                {
                    "internalType": "uint256",
                    "name": "_startingToken",
                    "type": "uint256"
                },
                {
                    "internalType": "uint256",
                    "name": "_endingToken",
                    "type": "uint256"
                },
                {
                    "internalType": "uint256",
                    "name": "_lockedTokens",
                    "type": "uint256"
                }
            ],
            "name": "createRangeLock",
            "outputs": [],
            "stateMutability": "nonpayable",
            "type": "function"
        },
        {
            "inputs": [
                {
                    "internalType": "uint256",
                    "name": "tokenId",
                    "type": "uint256"
                }
            ],
            "name": "getApproved",
            "outputs": [
                {
                    "internalType": "address",
                    "name": "",
                    "type": "address"
                }
            ],
            "stateMutability": "view",
            "type": "function"
        },
        {
            "inputs": [
                {
                    "internalType": "uint256",
                    "name": "index",
                    "type": "uint256"
                }
            ],
            "name": "getLockedRange",
            "outputs": [
                {
                    "internalType": "uint256",
                    "name": "startingToken",
                    "type": "uint256"
                },
                {
                    "internalType": "uint256",
                    "name": "endingToken",
                    "type": "uint256"
                },
                {
                    "internalType": "uint256",
                    "name": "countToUnlock",
                    "type": "uint256"
                },
                {
                    "internalType": "uint256",
                    "name": "productIndex",
                    "type": "uint256"
                }
            ],
            "stateMutability": "view",
            "type": "function"
        },
        {
            "inputs": [
                {
                    "internalType": "uint256",
                    "name": "productID",
                    "type": "uint256"
                },
                {
                    "internalType": "uint256",
                    "name": "startingIndex",
                    "type": "uint256"
                },
                {
                    "internalType": "uint256",
                    "name": "endingIndex",
                    "type": "uint256"
                }
            ],
            "name": "getNextSequentialIndex",
            "outputs": [
                {
                    "internalType": "uint256",
                    "name": "nextIndex",
                    "type": "uint256"
                }
            ],
            "stateMutability": "view",
            "type": "function"
        },
        {
            "inputs": [
                {
                    "internalType": "uint256",
                    "name": "index",
                    "type": "uint256"
                }
            ],
            "name": "getProduct",
            "outputs": [
                {
                    "internalType": "uint256",
                    "name": "startingToken",
                    "type": "uint256"
                },
                {
                    "internalType": "uint256",
                    "name": "endingToken",
                    "type": "uint256"
                },
                {
                    "internalType": "uint256",
                    "name": "mintableTokensLeft",
                    "type": "uint256"
                },
                {
                    "internalType": "string",
                    "name": "productName",
                    "type": "string"
                },
                {
                    "internalType": "uint256[]",
                    "name": "locks",
                    "type": "uint256[]"
                }
            ],
            "stateMutability": "view",
            "type": "function"
        },
        {
            "inputs": [],
            "name": "getProductCount",
            "outputs": [
                {
                    "internalType": "uint256",
                    "name": "",
                    "type": "uint256"
                }
            ],
            "stateMutability": "view",
            "type": "function"
        },
        {
            "inputs": [
                {
                    "internalType": "bytes32",
                    "name": "role",
                    "type": "bytes32"
                }
            ],
            "name": "getRoleAdmin",
            "outputs": [
                {
                    "internalType": "bytes32",
                    "name": "",
                    "type": "bytes32"
                }
            ],
            "stateMutability": "view",
            "type": "function"
        },
        {
            "inputs": [
                {
                    "internalType": "bytes32",
                    "name": "role",
                    "type": "bytes32"
                },
                {
                    "internalType": "uint256",
                    "name": "index",
                    "type": "uint256"
                }
            ],
            "name": "getRoleMember",
            "outputs": [
                {
                    "internalType": "address",
                    "name": "",
                    "type": "address"
                }
            ],
            "stateMutability": "view",
            "type": "function"
        },
        {
            "inputs": [
                {
                    "internalType": "bytes32",
                    "name": "role",
                    "type": "bytes32"
                }
            ],
            "name": "getRoleMemberCount",
            "outputs": [
                {
                    "internalType": "uint256",
                    "name": "",
                    "type": "uint256"
                }
            ],
            "stateMutability": "view",
            "type": "function"
        },
        {
            "inputs": [
                {
                    "internalType": "bytes32",
                    "name": "role",
                    "type": "bytes32"
                },
                {
                    "internalType": "address",
                    "name": "account",
                    "type": "address"
                }
            ],
            "name": "grantRole",
            "outputs": [],
            "stateMutability": "nonpayable",
            "type": "function"
        },
        {
            "inputs": [
                {
                    "internalType": "bytes32",
                    "name": "role",
                    "type": "bytes32"
                },
                {
                    "internalType": "address",
                    "name": "account",
                    "type": "address"
                }
            ],
            "name": "hasRole",
            "outputs": [
                {
                    "internalType": "bool",
                    "name": "",
                    "type": "bool"
                }
            ],
            "stateMutability": "view",
            "type": "function"
        },
        {
            "inputs": [
                {
                    "internalType": "address",
                    "name": "owner",
                    "type": "address"
                },
                {
                    "internalType": "uint256",
                    "name": "productIndex",
                    "type": "uint256"
                }
            ],
            "name": "hasTokenInProduct",
            "outputs": [
                {
                    "internalType": "bool",
                    "name": "",
                    "type": "bool"
                }
            ],
            "stateMutability": "view",
            "type": "function"
        },
        {
            "inputs": [
                {
                    "internalType": "address",
                    "name": "owner",
                    "type": "address"
                },
                {
                    "internalType": "address",
                    "name": "operator",
                    "type": "address"
                }
            ],
            "name": "isApprovedForAll",
            "outputs": [
                {
                    "internalType": "bool",
                    "name": "",
                    "type": "bool"
                }
            ],
            "stateMutability": "view",
            "type": "function"
        },
        {
            "inputs": [
                {
                    "internalType": "uint256",
                    "name": "_tokenId",
                    "type": "uint256"
                }
            ],
            "name": "isTokenLocked",
            "outputs": [
                {
                    "internalType": "bool",
                    "name": "",
                    "type": "bool"
                }
            ],
            "stateMutability": "view",
            "type": "function"
        },
        {
            "inputs": [
                {
                    "internalType": "address",
                    "name": "to",
                    "type": "address"
                },
                {
                    "internalType": "uint256",
                    "name": "productId",
                    "type": "uint256"
                },
                {
                    "internalType": "uint256",
                    "name": "indexInProduct",
                    "type": "uint256"
                }
            ],
            "name": "mint",
            "outputs": [],
            "stateMutability": "nonpayable",
            "type": "function"
        },
        {
            "inputs": [],
            "name": "name",
            "outputs": [
                {
                    "internalType": "string",
                    "name": "",
                    "type": "string"
                }
            ],
            "stateMutability": "view",
            "type": "function"
        },
        {
            "inputs": [
                {
                    "internalType": "uint256",
                    "name": "tokenId",
                    "type": "uint256"
                }
            ],
            "name": "ownerOf",
            "outputs": [
                {
                    "internalType": "address",
                    "name": "",
                    "type": "address"
                }
            ],
            "stateMutability": "view",
            "type": "function"
        },
        {
            "inputs": [
                {
                    "internalType": "bytes32",
                    "name": "role",
                    "type": "bytes32"
                },
                {
                    "internalType": "address",
                    "name": "account",
                    "type": "address"
                }
            ],
            "name": "renounceRole",
            "outputs": [],
            "stateMutability": "nonpayable",
            "type": "function"
        },
        {
            "inputs": [
                {
                    "internalType": "bytes32",
                    "name": "role",
                    "type": "bytes32"
                },
                {
                    "internalType": "address",
                    "name": "account",
                    "type": "address"
                }
            ],
            "name": "revokeRole",
            "outputs": [],
            "stateMutability": "nonpayable",
            "type": "function"
        },
        {
            "inputs": [
                {
                    "internalType": "uint256",
                    "name": "_tokenId",
                    "type": "uint256"
                },
                {
                    "internalType": "uint256",
                    "name": "_salePrice",
                    "type": "uint256"
                }
            ],
            "name": "royaltyInfo",
            "outputs": [
                {
                    "internalType": "address",
                    "name": "receiver",
                    "type": "address"
                },
                {
                    "internalType": "uint256",
                    "name": "royaltyAmount",
                    "type": "uint256"
                }
            ],
            "stateMutability": "view",
            "type": "function"
        },
        {
            "inputs": [
                {
                    "internalType": "address",
                    "name": "from",
                    "type": "address"
                },
                {
                    "internalType": "address",
                    "name": "to",
                    "type": "address"
                },
                {
                    "internalType": "uint256",
                    "name": "tokenId",
                    "type": "uint256"
                }
            ],
            "name": "safeTransferFrom",
            "outputs": [],
            "stateMutability": "nonpayable",
            "type": "function"
        },
        {
            "inputs": [
                {
                    "internalType": "address",
                    "name": "from",
                    "type": "address"
                },
                {
                    "internalType": "address",
                    "name": "to",
                    "type": "address"
                },
                {
                    "internalType": "uint256",
                    "name": "tokenId",
                    "type": "uint256"
                },
                {
                    "internalType": "bytes",
                    "name": "_data",
                    "type": "bytes"
                }
            ],
            "name": "safeTransferFrom",
            "outputs": [],
            "stateMutability": "nonpayable",
            "type": "function"
        },
        {
            "inputs": [
                {
                    "internalType": "address",
                    "name": "operator",
                    "type": "address"
                },
                {
                    "internalType": "bool",
                    "name": "approved",
                    "type": "bool"
                }
            ],
            "name": "setApprovalForAll",
            "outputs": [],
            "stateMutability": "nonpayable",
            "type": "function"
        },
        {
            "inputs": [
                {
                    "internalType": "string",
                    "name": "newURI",
                    "type": "string"
                }
            ],
            "name": "setBaseURI",
            "outputs": [],
            "stateMutability": "nonpayable",
            "type": "function"
        },
        {
            "inputs": [
                {
                    "internalType": "uint256",
                    "name": "productId",
                    "type": "uint256"
                },
                {
                    "internalType": "string",
                    "name": "newURI",
                    "type": "string"
                }
            ],
            "name": "setProductURI",
            "outputs": [],
            "stateMutability": "nonpayable",
            "type": "function"
        },
        {
            "inputs": [
                {
                    "internalType": "uint256",
                    "name": "tokenId",
                    "type": "uint256"
                },
                {
                    "internalType": "string",
                    "name": "newURI",
                    "type": "string"
                }
            ],
            "name": "setUniqueURI",
            "outputs": [],
            "stateMutability": "nonpayable",
            "type": "function"
        },
        {
            "inputs": [
                {
                    "internalType": "bytes4",
                    "name": "interfaceId",
                    "type": "bytes4"
                }
            ],
            "name": "supportsInterface",
            "outputs": [
                {
                    "internalType": "bool",
                    "name": "",
                    "type": "bool"
                }
            ],
            "stateMutability": "view",
            "type": "function"
        },
        {
            "inputs": [],
            "name": "symbol",
            "outputs": [
                {
                    "internalType": "string",
                    "name": "",
                    "type": "string"
                }
            ],
            "stateMutability": "view",
            "type": "function"
        },
        {
            "inputs": [
                {
                    "internalType": "uint256",
                    "name": "index",
                    "type": "uint256"
                }
            ],
            "name": "tokenByIndex",
            "outputs": [
                {
                    "internalType": "uint256",
                    "name": "",
                    "type": "uint256"
                }
            ],
            "stateMutability": "view",
            "type": "function"
        },
        {
            "inputs": [
                {
                    "internalType": "uint256",
                    "name": "productIndex",
                    "type": "uint256"
                }
            ],
            "name": "tokenCountByProduct",
            "outputs": [
                {
                    "internalType": "uint256",
                    "name": "",
                    "type": "uint256"
                }
            ],
            "stateMutability": "view",
            "type": "function"
        },
        {
            "inputs": [
                {
                    "internalType": "address",
                    "name": "owner",
                    "type": "address"
                },
                {
                    "internalType": "uint256",
                    "name": "index",
                    "type": "uint256"
                }
            ],
            "name": "tokenOfOwnerByIndex",
            "outputs": [
                {
                    "internalType": "uint256",
                    "name": "",
                    "type": "uint256"
                }
            ],
            "stateMutability": "view",
            "type": "function"
        },
        {
            "inputs": [
                {
                    "internalType": "uint256",
                    "name": "",
                    "type": "uint256"
                }
            ],
            "name": "tokenToProduct",
            "outputs": [
                {
                    "internalType": "uint256",
                    "name": "",
                    "type": "uint256"
                }
            ],
            "stateMutability": "view",
            "type": "function"
        },
        {
            "inputs": [
                {
                    "internalType": "uint256",
                    "name": "token",
                    "type": "uint256"
                }
            ],
            "name": "tokenToProductIndex",
            "outputs": [
                {
                    "internalType": "uint256",
                    "name": "tokenIndex",
                    "type": "uint256"
                }
            ],
            "stateMutability": "view",
            "type": "function"
        },
        {
            "inputs": [
                {
                    "internalType": "uint256",
                    "name": "tokenId",
                    "type": "uint256"
                }
            ],
            "name": "tokenURI",
            "outputs": [
                {
                    "internalType": "string",
                    "name": "",
                    "type": "string"
                }
            ],
            "stateMutability": "view",
            "type": "function"
        },
        {
            "inputs": [
                {
                    "internalType": "uint256",
                    "name": "",
                    "type": "uint256"
                },
                {
                    "internalType": "uint256",
                    "name": "",
                    "type": "uint256"
                }
            ],
            "name": "tokensByProduct",
            "outputs": [
                {
                    "internalType": "uint256",
                    "name": "",
                    "type": "uint256"
                }
            ],
            "stateMutability": "view",
            "type": "function"
        },
        {
            "inputs": [],
            "name": "totalSupply",
            "outputs": [
                {
                    "internalType": "uint256",
                    "name": "",
                    "type": "uint256"
                }
            ],
            "stateMutability": "view",
            "type": "function"
        },
        {
            "inputs": [
                {
                    "internalType": "address",
                    "name": "from",
                    "type": "address"
                },
                {
                    "internalType": "address",
                    "name": "to",
                    "type": "address"
                },
                {
                    "internalType": "uint256",
                    "name": "tokenId",
                    "type": "uint256"
                }
            ],
            "name": "transferFrom",
            "outputs": [],
            "stateMutability": "nonpayable",
            "type": "function"
        }
    ],
    "bytecode": "0x60806040523480156200001157600080fd5b506040516200435e3803806200435e8339810160408190526200003491620003e1565b82604051806040016040528060048152602001632920a4a960e11b81525081600090805190602001906200006a9291906200030b565b508051620000809060019060208401906200030b565b5050601480546001600160b01b0319163361ffff60a01b191617600160a01b61ffff85160217905550620000d36000805160206200431e833981519152600080516020620042fe83398151915262000157565b620000fd6000805160206200433e833981519152600080516020620042fe83398151915262000157565b62000118600080516020620042fe83398151915283620001a2565b620001336000805160206200431e83398151915283620001a2565b6200014e6000805160206200433e83398151915283620001a2565b50505062000537565b6000828152600a6020526040808220600101805490849055905190918391839186917fbd79b86ffe0ab8e8776151514217cd7cacd52c909f66475c3af44e129f0b00ff9190a4505050565b620001b98282620001e560201b620021451760201c565b6000828152600b60209081526040909120620001e091839062002153620001f5821b17901c565b505050565b620001f1828262000215565b5050565b60006200020c836001600160a01b038416620002b9565b90505b92915050565b6000828152600a602090815260408083206001600160a01b038516845290915290205460ff16620001f1576000828152600a602090815260408083206001600160a01b03851684529091529020805460ff19166001179055620002753390565b6001600160a01b0316816001600160a01b0316837f2f8788117e7eff1d82e926ec794901d17c78024a50270940304540a733656f0d60405160405180910390a45050565b600081815260018301602052604081205462000302575081546001818101845560008481526020808220909301849055845484825282860190935260409020919091556200020f565b5060006200020f565b8280546200031990620004e4565b90600052602060002090601f0160209004810192826200033d576000855562000388565b82601f106200035857805160ff191683800117855562000388565b8280016001018555821562000388579182015b82811115620003885782518255916020019190600101906200036b565b50620003969291506200039a565b5090565b5b808211156200039657600081556001016200039b565b80516001600160a01b0381168114620003c957600080fd5b919050565b805161ffff81168114620003c957600080fd5b600080600060608486031215620003f757600080fd5b83516001600160401b03808211156200040f57600080fd5b818601915086601f8301126200042457600080fd5b81518181111562000439576200043962000521565b604051601f8201601f19908116603f0116810190838211818310171562000464576200046462000521565b816040528281526020935089848487010111156200048157600080fd5b600091505b82821015620004a5578482018401518183018501529083019062000486565b82821115620004b75760008484830101525b9650620004c9915050868201620003b1565b93505050620004db60408501620003ce565b90509250925092565b600181811c90821680620004f957607f821691505b602082108114156200051b57634e487b7160e01b600052602260045260246000fd5b50919050565b634e487b7160e01b600052604160045260246000fd5b613db780620005476000396000f3fe608060405234801561001057600080fd5b506004361061027f5760003560e01c806355f804b31161015c578063b9db15b4116100ce578063d547741f11610087578063d547741f146105fd578063d76bf56614610610578063e4fbb60914610630578063e9300c6c14610645578063e985e9c514610658578063fe6d81241461066b57600080fd5b8063b9db15b41461057a578063bda5ec331461059e578063c00b83c5146105b1578063c87b56dd146105c4578063ca15c873146105d7578063d403bf86146105ea57600080fd5b80639010d07c116101205780639010d07c1461051e57806391d148541461053157806395d89b4114610544578063a217fddf1461054c578063a22cb46514610554578063b88d4fde1461056757600080fd5b806355f804b31461049f5780636352211e146104b257806370a08231146104c5578063876654a0146104d85780638a9d7b211461050b57600080fd5b806324704bd7116101f55780632f745c59116101b95780632f745c591461043857806336568abe1461044b5780633d42f2061461045e57806342842e0e146104715780634a348da9146104845780634f6ccce71461048c57600080fd5b806324704bd7146103aa578063248a9ca3146103bd578063276a28a3146103e05780632a55205a146103f35780632f2ff15d1461042557600080fd5b8063156e29f611610247578063156e29f61461032f57806315a1824114610342578063175c4ef81461035557806318160ddd1461037c5780631c899d1a1461038457806323b872dd1461039757600080fd5b806301ffc9a7146102845780630301e1e2146102ac57806306fdde03146102da578063081812fc146102ef578063095ea7b31461031a575b600080fd5b61029761029236600461366f565b610692565b60405190151581526020015b60405180910390f35b6102cc6102ba366004613611565b6000908152600c602052604090205490565b6040519081526020016102a3565b6102e26106bd565b6040516102a391906139d8565b6103026102fd366004613611565b61074f565b6040516001600160a01b0390911681526020016102a3565b61032d6103283660046135b4565b6107e9565b005b61032d61033d3660046135de565b6108ff565b61032d6103503660046137bc565b610c7c565b6102cc7f872340a532bdd7bb02bea115c1b0f1ba87eac982f5b79b51ac189ffaac1b6fce81565b6008546102cc565b61032d610392366004613744565b610f86565b61032d6103a53660046134c0565b610ffa565b6102cc6103b836600461364d565b61102b565b6102cc6103cb366004613611565b6000908152600a602052604090206001015490565b6102976103ee366004613611565b61105c565b61040661040136600461364d565b6110e2565b604080516001600160a01b0390931683526020830191909152016102a3565b61032d61043336600461362a565b611131565b6102cc6104463660046135b4565b611153565b61032d61045936600461362a565b6111e9565b61029761046c366004613790565b61120b565b61032d61047f3660046134c0565b611411565b6013546102cc565b6102cc61049a366004613611565b61142c565b61032d6104ad3660046136a9565b6114bf565b6103026104c0366004613611565b611523565b6102cc6104d3366004613472565b61159a565b6104eb6104e6366004613611565b611621565b6040805194855260208501939093529183015260608201526080016102a3565b6102976105193660046135b4565b6117f8565b61030261052c36600461364d565b611856565b61029761053f36600461362a565b61186e565b6102e2611899565b6102cc600081565b61032d610562366004613578565b6118a8565b61032d6105753660046134fc565b61196d565b61058d610588366004613611565b6119a5565b6040516102a3959493929190613b2c565b6102cc6105ac366004613790565b611b0e565b6102cc6105bf366004613611565b611d4f565b6102e26105d2366004613611565b611d90565b6102cc6105e5366004613611565b611f31565b61032d6105f8366004613744565b611f48565b61032d61060b36600461362a565b611fae565b6102cc61061e366004613611565b600d6020526000908152604090205481565b6102cc600080516020613d6283398151915281565b61032d6106533660046136eb565b611fb8565b61029761066636600461348d565b6120e5565b6102cc7ff0887ba65ee2024ea881d91b74c2450ef19e1557f03bed3ea9f16b037cbe2dc981565b60006001600160e01b03198216632baae9fd60e01b14806106b757506106b782612168565b92915050565b6060600080546106cc90613c70565b80601f01602080910402602001604051908101604052809291908181526020018280546106f890613c70565b80156107455780601f1061071a57610100808354040283529160200191610745565b820191906000526020600020905b81548152906001019060200180831161072857829003601f168201915b5050505050905090565b6000818152600260205260408120546001600160a01b03166107cd5760405162461bcd60e51b815260206004820152602c60248201527f4552433732313a20617070726f76656420717565727920666f72206e6f6e657860448201526b34b9ba32b73a103a37b5b2b760a11b60648201526084015b60405180910390fd5b506000908152600460205260409020546001600160a01b031690565b60006107f482611523565b9050806001600160a01b0316836001600160a01b031614156108625760405162461bcd60e51b815260206004820152602160248201527f4552433732313a20617070726f76616c20746f2063757272656e74206f776e656044820152603960f91b60648201526084016107c4565b336001600160a01b038216148061087e575061087e81336120e5565b6108f05760405162461bcd60e51b815260206004820152603860248201527f4552433732313a20617070726f76652063616c6c6572206973206e6f74206f7760448201527f6e6572206e6f7220617070726f76656420666f7220616c6c000000000000000060648201526084016107c4565b6108fa838361218d565b505050565b7ff0887ba65ee2024ea881d91b74c2450ef19e1557f03bed3ea9f16b037cbe2dc961092a81336121fb565b6013548390811061094d5760405162461bcd60e51b81526004016107c490613a75565b60006013858154811061096257610962613d1c565b90600052602060002090600502019050806000015481600101546109869190613c16565b8411156109d55760405162461bcd60e51b815260206004820181905260248201527f52414952204552433732313a20496e76616c696420746f6b656e20696e64657860448201526064016107c4565b6109ee868583600001546109e99190613bcb565b61225f565b6000858152600c602052604090208154610a09908690613bcb565b8154600181018355600092835260208320015581548691600d91610a2e908890613bcb565b815260200190815260200160002081905550806002016000815480929190610a5590613c59565b9091555060009050805b6004830154811015610c2d578254610a78908790613bcb565b6012846004018381548110610a8f57610a8f613d1c565b906000526020600020015481548110610aaa57610aaa613d1c565b90600052602060002090600402016000015411158015610b1957508254610ad2908790613bcb565b6012846004018381548110610ae957610ae9613d1c565b906000526020600020015481548110610b0457610b04613d1c565b90600052602060002090600402016001015410155b15610c1b576012836004018281548110610b3557610b35613d1c565b906000526020600020015481548110610b5057610b50613d1c565b90600052602060002090600402019150826004018181548110610b7557610b75613d1c565b9060005260206000200154600e6000888660000154610b949190613bcb565b8152602081019190915260400160002055600282015415610c1657600282018054906000610bc183613c59565b90915550506002820154610c165781546001830154604080518a815260208101939093528201527fd3edbeb94dfb8eadcd8c291774b9ac3cc9b06af829273e295bf3197849934b889060600160405180910390a15b610c2d565b80610c2581613cab565b915050610a5f565b506002820154610c7357857f7118e1ae63262db55027a75ee525791f482e7fdf6c2ccb6c11528bf1652780e183600301604051610c6a9190613a10565b60405180910390a25b50505050505050565b600080516020613d62833981519152610c9581336121fb565b60135485908110610cb85760405162461bcd60e51b81526004016107c490613a75565b600060138781548110610ccd57610ccd613d1c565b906000526020600020906005020190508060010154858260000154610cf29190613bcb565b1115610d4a5760405162461bcd60e51b815260206004820152602160248201527f52414952204552433732313a20496e76616c696420656e64696e6720746f6b656044820152603760f91b60648201526084016107c4565b80546001820154610d5b9190613c16565b610d658787613c16565b1115610dbd5760405162461bcd60e51b815260206004820152602160248201527f52414952204552433732313a20496e76616c696420746f6b656e206c696d69746044820152607360f81b60648201526084016107c4565b83610dc88787613c16565b610dd3906001613bcb565b1015610e375760405162461bcd60e51b815260206004820152602d60248201527f52414952204552433732313a20496e76616c6964206e756d626572206f66207460448201526c6f6b656e7320746f206c6f636b60981b60648201526084016107c4565b610e4287878761120b565b610e8e5760405162461bcd60e51b815260206004820152601f60248201527f52414952204552433732313a2043616e6e6f7420637265617465206c6f636b0060448201526064016107c4565b60128054600181018255600091909152815460049091027fbb8a6a4669ba250d26cd7a459eca9d215f8307e33aebe50379bc5a3617ec34440190610ed3908890613bcb565b81558154610ee2908790613bcb565b60018083019190915560028201869055600382018990556012546004840191610f0a91613c16565b8154600181018355600092835260209092209091015581547f0b8fece546364ce1dcadcf45028659aff64e7a166d735eb32da27050fd520f69908990610f51908a90613bcb565b8454610f5e908a90613bcb565b8886600301604051610f74959493929190613b95565b60405180910390a15050505050505050565b600080516020613d62833981519152610f9f81336121fb565b6000848152601060205260409020610fb8908484613291565b507f483621391b5e72d74eb03c7b5715531c486e326fb115ab3bcf34b133041854ce848484604051610fec93929190613b09565b60405180910390a150505050565b6110043382612279565b6110205760405162461bcd60e51b81526004016107c490613ab8565b6108fa838383612350565b600c602052816000526040600020818154811061104757600080fd5b90600052602060002001600091509150505481565b6000818152600d6020908152604080832054600e90925282205460128054909190811061108b5761108b613d1c565b9060005260206000209060040201600301541480156106b757506000828152600e60205260408120546012805490919081106110c9576110c9613d1c565b9060005260206000209060040201600201541192915050565b6000806110fe600080516020613d628339815191526000611856565b601454620186a09061111b90600160a01b900461ffff1686613bf7565b6111259190613be3565b915091505b9250929050565b61113b82826124fb565b6000828152600b602052604090206108fa9082612153565b600061115e8361159a565b82106111c05760405162461bcd60e51b815260206004820152602b60248201527f455243373231456e756d657261626c653a206f776e657220696e646578206f7560448201526a74206f6620626f756e647360a81b60648201526084016107c4565b506001600160a01b03919091166000908152600660209081526040808320938352929052205490565b6111f38282612521565b6000828152600b602052604090206108fa908261259b565b6000806013858154811061122157611221613d1c565b90600052602060002090600502019050806000015481600101546112459190613c16565b84118061126157508054600182015461125e9190613c16565b83115b1561127057600091505061140a565b60005b600482015481101561140357815461128c908690613bcb565b60128360040183815481106112a3576112a3613d1c565b9060005260206000200154815481106112be576112be613d1c565b9060005260206000209060040201600001541115801561132d575081546112e6908690613bcb565b60128360040183815481106112fd576112fd613d1c565b90600052602060002001548154811061131857611318613d1c565b90600052602060002090600402016001015410155b806113e157508154611340908590613bcb565b601283600401838154811061135757611357613d1c565b90600052602060002001548154811061137257611372613d1c565b906000526020600020906004020160000154111580156113e15750815461139a908590613bcb565b60128360040183815481106113b1576113b1613d1c565b9060005260206000200154815481106113cc576113cc613d1c565b90600052602060002090600402016001015410155b156113f15760009250505061140a565b806113fb81613cab565b915050611273565b5060019150505b9392505050565b6108fa8383836040518060200160405280600081525061196d565b600061143760085490565b821061149a5760405162461bcd60e51b815260206004820152602c60248201527f455243373231456e756d657261626c653a20676c6f62616c20696e646578206f60448201526b7574206f6620626f756e647360a01b60648201526084016107c4565b600882815481106114ad576114ad613d1c565b90600052602060002001549050919050565b600080516020613d628339815191526114d881336121fb565b6114e4600f8484613291565b507f5411e8ebf1636d9e83d5fc4900bf80cbac82e8790da2a4c94db4895e889eedf683836040516115169291906139c4565b60405180910390a1505050565b6000818152600260205260408120546001600160a01b0316806106b75760405162461bcd60e51b815260206004820152602960248201527f4552433732313a206f776e657220717565727920666f72206e6f6e657869737460448201526832b73a103a37b5b2b760b91b60648201526084016107c4565b60006001600160a01b0382166116055760405162461bcd60e51b815260206004820152602a60248201527f4552433732313a2062616c616e636520717565727920666f7220746865207a65604482015269726f206164647265737360b01b60648201526084016107c4565b506001600160a01b031660009081526003602052604090205490565b60008060008060006012868154811061163c5761163c613d1c565b906000526020600020906004020160405180608001604052908160008201548152602001600182015481526020016002820154815260200160038201548152505090506000601382606001518154811061169857611698613d1c565b90600052602060002090600502016040518060a00160405290816000820154815260200160018201548152602001600282015481526020016003820180546116df90613c70565b80601f016020809104026020016040519081016040528092919081815260200182805461170b90613c70565b80156117585780601f1061172d57610100808354040283529160200191611758565b820191906000526020600020905b81548152906001019060200180831161173b57829003601f168201915b50505050508152602001600482018054806020026020016040519081016040528092919081815260200182805480156117b057602002820191906000526020600020905b81548152602001906001019080831161179c575b505050919092525050815184519293506117cc92909150613c16565b815160208401516117dd9190613c16565b83604001518460600151955095509550955050509193509193565b6000805b6118058461159a565b81101561184c5782600d600061181b8785611153565b815260200190815260200160002054141561183a5760019150506106b7565b8061184481613cab565b9150506117fc565b5060009392505050565b6000828152600b6020526040812061140a90836125b0565b6000918252600a602090815260408084206001600160a01b0393909316845291905290205460ff1690565b6060600180546106cc90613c70565b6001600160a01b0382163314156119015760405162461bcd60e51b815260206004820152601960248201527f4552433732313a20617070726f766520746f2063616c6c65720000000000000060448201526064016107c4565b3360008181526005602090815260408083206001600160a01b03871680855290835292819020805460ff191686151590811790915590519081529192917f17307eab39ab6107e8899845ad3d59bd9653f200f220920489ca2b5937696c31910160405180910390a35050565b6119773383612279565b6119935760405162461bcd60e51b81526004016107c490613ab8565b61199f848484846125bc565b50505050565b60008060006060806000601387815481106119c2576119c2613d1c565b90600052602060002090600502016040518060a0016040529081600082015481526020016001820154815260200160028201548152602001600382018054611a0990613c70565b80601f0160208091040260200160405190810160405280929190818152602001828054611a3590613c70565b8015611a825780601f10611a5757610100808354040283529160200191611a82565b820191906000526020600020905b815481529060010190602001808311611a6557829003601f168201915b5050505050815260200160048201805480602002602001604051908101604052809291908181526020018280548015611ada57602002820191906000526020600020905b815481526020019060010190808311611ac6575b5050509190925250508151602083015160408401516060850151608090950151929c919b5099509297509550909350505050565b6000838060138054905011611b355760405162461bcd60e51b81526004016107c490613a75565b600060138681548110611b4a57611b4a613d1c565b90600052602060002090600502016040518060a0016040529081600082015481526020016001820154815260200160028201548152602001600382018054611b9190613c70565b80601f0160208091040260200160405190810160405280929190818152602001828054611bbd90613c70565b8015611c0a5780601f10611bdf57610100808354040283529160200191611c0a565b820191906000526020600020905b815481529060010190602001808311611bed57829003601f168201915b5050505050815260200160048201805480602002602001604051908101604052809291908181526020018280548015611c6257602002820191906000526020600020905b815481526020019060010190808311611c4e575b50505050508152505090506000858260000151611c7f9190613bcb565b90505b8151611c8f908690613bcb565b8111611cd8576000818152600260205260409020546001600160a01b0316611cc6578151611cbd9082613c16565b93505050611d47565b80611cd081613cab565b915050611c82565b5060405162461bcd60e51b815260206004820152603960248201527f52414952204552433732313a20546865726520617265206e6f20617661696c6160448201527f626c6520746f6b656e7320696e20746869732072616e67652e0000000000000060648201526084016107c4565b509392505050565b6000818152600d6020526040812054601380549091908110611d7357611d73613d1c565b906000526020600020906005020160000154826106b79190613c16565b600081815260106020526040812080546060929190611dae90613c70565b80601f0160208091040260200160405190810160405280929190818152602001828054611dda90613c70565b8015611e275780601f10611dfc57610100808354040283529160200191611e27565b820191906000526020600020905b815481529060010190602001808311611e0a57829003601f168201915b50505050509050600081511115611e3e5792915050565b6000838152600d60209081526040808320548352601190915290208054611e6490613c70565b80601f0160208091040260200160405190810160405280929190818152602001828054611e9090613c70565b8015611edd5780601f10611eb257610100808354040283529160200191611edd565b820191906000526020600020905b815481529060010190602001808311611ec057829003601f168201915b50505050509050600081511115611f285780611f00611efb85611d4f565b6125ef565b604051602001611f119291906138e3565b604051602081830303815290604052915050919050565b61140a836126ed565b6000818152600b602052604081206106b7906127a0565b600080516020613d62833981519152611f6181336121fb565b6000848152601160205260409020611f7a908484613291565b507f658b273d88cb66d5790b2e0cb1510b48ab78d39cba1c9cad2df51068c42c607c848484604051610fec93929190613b09565b6111f382826127aa565b600080516020613d62833981519152611fd181336121fb565b6013546000901561201f5760138054611fec90600190613c16565b81548110611ffc57611ffc613d1c565b906000526020600020906005020160010154600161201a9190613bcb565b612022565b60005b60138054600181810183556000929092526005027f66de8ffda797e3de9c05e8fc57b3bf0ec28a930d40b0d285d93c06501cf6a090018281559192506120688584613bcb565b6120729190613c16565b6001820155845161208c9060038301906020880190613315565b50600281018490556013546120a390600190613c16565b7f8d3d82130aebba03bb48b5d158bc2bbb4647856765b1089e7250507307965af98684876040516120d6939291906139eb565b60405180910390a25050505050565b60006121117f872340a532bdd7bb02bea115c1b0f1ba87eac982f5b79b51ac189ffaac1b6fce8361186e565b8061140a57506001600160a01b0380841660009081526005602090815260408083209386168352929052205460ff1661140a565b61214f82826127d0565b5050565b600061140a836001600160a01b038416612856565b60006001600160e01b03198216635a05180f60e01b14806106b757506106b7826128a5565b600081815260046020526040902080546001600160a01b0319166001600160a01b03841690811790915581906121c282611523565b6001600160a01b03167f8c5be1e5ebec7d5bd14f71427d1e84f3dd0314c0f7b2291e5b200ac8c7c3b92560405160405180910390a45050565b612205828261186e565b61214f5761221d816001600160a01b031660146128ca565b6122288360206128ca565b604051602001612239929190613912565b60408051601f198184030181529082905262461bcd60e51b82526107c4916004016139d8565b61214f828260405180602001604052806000815250612a66565b6000818152600260205260408120546001600160a01b03166122f25760405162461bcd60e51b815260206004820152602c60248201527f4552433732313a206f70657261746f7220717565727920666f72206e6f6e657860448201526b34b9ba32b73a103a37b5b2b760a11b60648201526084016107c4565b60006122fd83611523565b9050806001600160a01b0316846001600160a01b031614806123385750836001600160a01b031661232d8461074f565b6001600160a01b0316145b80612348575061234881856120e5565b949350505050565b826001600160a01b031661236382611523565b6001600160a01b0316146123cb5760405162461bcd60e51b815260206004820152602960248201527f4552433732313a207472616e73666572206f6620746f6b656e2074686174206960448201526839903737ba1037bbb760b91b60648201526084016107c4565b6001600160a01b03821661242d5760405162461bcd60e51b8152602060048201526024808201527f4552433732313a207472616e7366657220746f20746865207a65726f206164646044820152637265737360e01b60648201526084016107c4565b612438838383612a99565b61244360008261218d565b6001600160a01b038316600090815260036020526040812080546001929061246c908490613c16565b90915550506001600160a01b038216600090815260036020526040812080546001929061249a908490613bcb565b909155505060008181526002602052604080822080546001600160a01b0319166001600160a01b0386811691821790925591518493918716917fddf252ad1be2c89b69c2b068fc378daa952ba7f163c4a11628f55a4df523b3ef91a4505050565b6000828152600a602052604090206001015461251781336121fb565b6108fa83836127d0565b6001600160a01b03811633146125915760405162461bcd60e51b815260206004820152602f60248201527f416363657373436f6e74726f6c3a2063616e206f6e6c792072656e6f756e636560448201526e103937b632b9903337b91039b2b63360891b60648201526084016107c4565b61214f8282612be6565b600061140a836001600160a01b038416612c4d565b600061140a8383612d40565b6125c7848484612350565b6125d384848484612d6a565b61199f5760405162461bcd60e51b81526004016107c490613a23565b6060816126135750506040805180820190915260018152600360fc1b602082015290565b8160005b811561263d578061262781613cab565b91506126369050600a83613be3565b9150612617565b60008167ffffffffffffffff81111561265857612658613d32565b6040519080825280601f01601f191660200182016040528015612682576020820181803683370190505b5090505b841561234857612697600183613c16565b91506126a4600a86613cc6565b6126af906030613bcb565b60f81b8183815181106126c4576126c4613d1c565b60200101906001600160f81b031916908160001a9053506126e6600a86613be3565b9450612686565b6000818152600260205260409020546060906001600160a01b031661276c5760405162461bcd60e51b815260206004820152602f60248201527f4552433732314d657461646174613a2055524920717565727920666f72206e6f60448201526e3732bc34b9ba32b73a103a37b5b2b760891b60648201526084016107c4565b6000612776612e77565b90506000815111612796576040518060200160405280600081525061140a565b80611f00846125ef565b60006106b7825490565b6000828152600a60205260409020600101546127c681336121fb565b6108fa8383612be6565b6127da828261186e565b61214f576000828152600a602090815260408083206001600160a01b03851684529091529020805460ff191660011790556128123390565b6001600160a01b0316816001600160a01b0316837f2f8788117e7eff1d82e926ec794901d17c78024a50270940304540a733656f0d60405160405180910390a45050565b600081815260018301602052604081205461289d575081546001818101845560008481526020808220909301849055845484825282860190935260409020919091556106b7565b5060006106b7565b60006001600160e01b03198216637965db0b60e01b14806106b757506106b782612e86565b606060006128d9836002613bf7565b6128e4906002613bcb565b67ffffffffffffffff8111156128fc576128fc613d32565b6040519080825280601f01601f191660200182016040528015612926576020820181803683370190505b509050600360fc1b8160008151811061294157612941613d1c565b60200101906001600160f81b031916908160001a905350600f60fb1b8160018151811061297057612970613d1c565b60200101906001600160f81b031916908160001a9053506000612994846002613bf7565b61299f906001613bcb565b90505b6001811115612a17576f181899199a1a9b1b9c1cb0b131b232b360811b85600f16601081106129d3576129d3613d1c565b1a60f81b8282815181106129e9576129e9613d1c565b60200101906001600160f81b031916908160001a90535060049490941c93612a1081613c59565b90506129a2565b50831561140a5760405162461bcd60e51b815260206004820181905260248201527f537472696e67733a20686578206c656e67746820696e73756666696369656e7460448201526064016107c4565b612a708383612eab565b612a7d6000848484612d6a565b6108fa5760405162461bcd60e51b81526004016107c490613a23565b6001600160a01b03831615801590612ab957506001600160a01b03821615155b15612bdb576000818152600d6020908152604080832054600e90925290912054601280549091908110612aee57612aee613d1c565b9060005260206000209060040201600301541415612bb1576000818152600e6020526040902054601280549091908110612b2a57612b2a613d1c565b906000526020600020906004020160020154600014612bb15760405162461bcd60e51b815260206004820152603a60248201527f52414952204552433732313a205472616e736665727320666f7220746869732060448201527f72616e6765206172652063757272656e746c79206c6f636b656400000000000060648201526084016107c4565b612bdb7f872340a532bdd7bb02bea115c1b0f1ba87eac982f5b79b51ac189ffaac1b6fce336121fb565b6108fa838383612ff9565b612bf0828261186e565b1561214f576000828152600a602090815260408083206001600160a01b0385168085529252808320805460ff1916905551339285917ff6391f5c32d9c69d2a47ea670b442974b53935d1edc7fd64eb21e047a839171b9190a45050565b60008181526001830160205260408120548015612d36576000612c71600183613c16565b8554909150600090612c8590600190613c16565b9050818114612cea576000866000018281548110612ca557612ca5613d1c565b9060005260206000200154905080876000018481548110612cc857612cc8613d1c565b6000918252602080832090910192909255918252600188019052604090208390555b8554869080612cfb57612cfb613d06565b6001900381819060005260206000200160009055905585600101600086815260200190815260200160002060009055600193505050506106b7565b60009150506106b7565b6000826000018281548110612d5757612d57613d1c565b9060005260206000200154905092915050565b60006001600160a01b0384163b15612e6c57604051630a85bd0160e11b81526001600160a01b0385169063150b7a0290612dae903390899088908890600401613987565b602060405180830381600087803b158015612dc857600080fd5b505af1925050508015612df8575060408051601f3d908101601f19168201909252612df59181019061368c565b60015b612e52573d808015612e26576040519150601f19603f3d011682016040523d82523d6000602084013e612e2b565b606091505b508051612e4a5760405162461bcd60e51b81526004016107c490613a23565b805181602001fd5b6001600160e01b031916630a85bd0160e11b149050612348565b506001949350505050565b6060600f80546106cc90613c70565b60006001600160e01b0319821663780e9d6360e01b14806106b757506106b7826130b1565b6001600160a01b038216612f015760405162461bcd60e51b815260206004820181905260248201527f4552433732313a206d696e7420746f20746865207a65726f206164647265737360448201526064016107c4565b6000818152600260205260409020546001600160a01b031615612f665760405162461bcd60e51b815260206004820152601c60248201527f4552433732313a20746f6b656e20616c7265616479206d696e7465640000000060448201526064016107c4565b612f7260008383612a99565b6001600160a01b0382166000908152600360205260408120805460019290612f9b908490613bcb565b909155505060008181526002602052604080822080546001600160a01b0319166001600160a01b03861690811790915590518392907fddf252ad1be2c89b69c2b068fc378daa952ba7f163c4a11628f55a4df523b3ef908290a45050565b6001600160a01b0383166130545761304f81600880546000838152600960205260408120829055600182018355919091527ff3f7a9fe364faab93b216da50a3214154f22a0a2b415b23a84c8169e8b636ee30155565b613077565b816001600160a01b0316836001600160a01b031614613077576130778382613101565b6001600160a01b03821661308e576108fa8161319e565b826001600160a01b0316826001600160a01b0316146108fa576108fa828261324d565b60006001600160e01b031982166380ac58cd60e01b14806130e257506001600160e01b03198216635b5e139f60e01b145b806106b757506301ffc9a760e01b6001600160e01b03198316146106b7565b6000600161310e8461159a565b6131189190613c16565b60008381526007602052604090205490915080821461316b576001600160a01b03841660009081526006602090815260408083208584528252808320548484528184208190558352600790915290208190555b5060009182526007602090815260408084208490556001600160a01b039094168352600681528383209183525290812055565b6008546000906131b090600190613c16565b600083815260096020526040812054600880549394509092849081106131d8576131d8613d1c565b9060005260206000200154905080600883815481106131f9576131f9613d1c565b600091825260208083209091019290925582815260099091526040808220849055858252812055600880548061323157613231613d06565b6001900381819060005260206000200160009055905550505050565b60006132588361159a565b6001600160a01b039093166000908152600660209081526040808320868452825280832085905593825260079052919091209190915550565b82805461329d90613c70565b90600052602060002090601f0160209004810192826132bf5760008555613305565b82601f106132d85782800160ff19823516178555613305565b82800160010185558215613305579182015b828111156133055782358255916020019190600101906132ea565b50613311929150613389565b5090565b82805461332190613c70565b90600052602060002090601f0160209004810192826133435760008555613305565b82601f1061335c57805160ff1916838001178555613305565b82800160010185558215613305579182015b8281111561330557825182559160200191906001019061336e565b5b80821115613311576000815560010161338a565b600067ffffffffffffffff808411156133b9576133b9613d32565b604051601f8501601f19908116603f011681019082821181831017156133e1576133e1613d32565b816040528093508581528686860111156133fa57600080fd5b858560208301376000602087830101525050509392505050565b80356001600160a01b038116811461342b57600080fd5b919050565b60008083601f84011261344257600080fd5b50813567ffffffffffffffff81111561345a57600080fd5b60208301915083602082850101111561112a57600080fd5b60006020828403121561348457600080fd5b61140a82613414565b600080604083850312156134a057600080fd5b6134a983613414565b91506134b760208401613414565b90509250929050565b6000806000606084860312156134d557600080fd5b6134de84613414565b92506134ec60208501613414565b9150604084013590509250925092565b6000806000806080858703121561351257600080fd5b61351b85613414565b935061352960208601613414565b925060408501359150606085013567ffffffffffffffff81111561354c57600080fd5b8501601f8101871361355d57600080fd5b61356c8782356020840161339e565b91505092959194509250565b6000806040838503121561358b57600080fd5b61359483613414565b9150602083013580151581146135a957600080fd5b809150509250929050565b600080604083850312156135c757600080fd5b6135d083613414565b946020939093013593505050565b6000806000606084860312156135f357600080fd5b6135fc84613414565b95602085013595506040909401359392505050565b60006020828403121561362357600080fd5b5035919050565b6000806040838503121561363d57600080fd5b823591506134b760208401613414565b6000806040838503121561366057600080fd5b50508035926020909101359150565b60006020828403121561368157600080fd5b813561140a81613d48565b60006020828403121561369e57600080fd5b815161140a81613d48565b600080602083850312156136bc57600080fd5b823567ffffffffffffffff8111156136d357600080fd5b6136df85828601613430565b90969095509350505050565b600080604083850312156136fe57600080fd5b823567ffffffffffffffff81111561371557600080fd5b8301601f8101851361372657600080fd5b6137358582356020840161339e565b95602094909401359450505050565b60008060006040848603121561375957600080fd5b83359250602084013567ffffffffffffffff81111561377757600080fd5b61378386828701613430565b9497909650939450505050565b6000806000606084860312156137a557600080fd5b505081359360208301359350604090920135919050565b600080600080608085870312156137d257600080fd5b5050823594602084013594506040840135936060013592509050565b60008151808452613806816020860160208601613c2d565b601f01601f19169290920160200192915050565b81835281816020850137506000828201602090810191909152601f909101601f19169091010190565b8054600090600181811c908083168061385d57607f831692505b602080841082141561387f57634e487b7160e01b600052602260045260246000fd5b8388526020880182801561389a57600181146138ab576138d6565b60ff198716825282820197506138d6565b60008981526020902060005b878110156138d0578154848201529086019084016138b7565b83019850505b5050505050505092915050565b600083516138f5818460208801613c2d565b835190830190613909818360208801613c2d565b01949350505050565b7f416363657373436f6e74726f6c3a206163636f756e742000000000000000000081526000835161394a816017850160208801613c2d565b7001034b99036b4b9b9b4b733903937b6329607d1b601791840191820152835161397b816028840160208801613c2d565b01602801949350505050565b6001600160a01b03858116825284166020820152604081018390526080606082018190526000906139ba908301846137ee565b9695505050505050565b60208152600061234860208301848661381a565b60208152600061140a60208301846137ee565b6060815260006139fe60608301866137ee565b60208301949094525060400152919050565b60208152600061140a6020830184613843565b60208082526032908201527f4552433732313a207472616e7366657220746f206e6f6e20455243373231526560408201527131b2b4bb32b91034b6b83632b6b2b73a32b960711b606082015260800190565b60208082526023908201527f52414952204552433732313a2050726f6475637420646f6573206e6f742065786040820152621a5cdd60ea1b606082015260800190565b60208082526031908201527f4552433732313a207472616e736665722063616c6c6572206973206e6f74206f6040820152701ddb995c881b9bdc88185c1c1c9bdd9959607a1b606082015260800190565b838152604060208201526000613b2360408301848661381a565b95945050505050565b85815260006020868184015285604084015260a06060840152613b5260a08401866137ee565b838103608085015284518082528286019183019060005b81811015613b8557835183529284019291840191600101613b69565b50909a9950505050505050505050565b85815284602082015283604082015282606082015260a060808201526000613bc060a0830184613843565b979650505050505050565b60008219821115613bde57613bde613cda565b500190565b600082613bf257613bf2613cf0565b500490565b6000816000190483118215151615613c1157613c11613cda565b500290565b600082821015613c2857613c28613cda565b500390565b60005b83811015613c48578181015183820152602001613c30565b8381111561199f5750506000910152565b600081613c6857613c68613cda565b506000190190565b600181811c90821680613c8457607f821691505b60208210811415613ca557634e487b7160e01b600052602260045260246000fd5b50919050565b6000600019821415613cbf57613cbf613cda565b5060010190565b600082613cd557613cd5613cf0565b500690565b634e487b7160e01b600052601160045260246000fd5b634e487b7160e01b600052601260045260246000fd5b634e487b7160e01b600052603160045260246000fd5b634e487b7160e01b600052603260045260246000fd5b634e487b7160e01b600052604160045260246000fd5b6001600160e01b031981168114613d5e57600080fd5b5056fe3c2519c4487d47714872f92cf90a50c25f5deaec2789dc2a497b1272df611db6a26469706673582212200a03c4e3c9cb753992ead4e32f4a88adb95de610d5c6b6d303b15a86e126d5e064736f6c634300080700333c2519c4487d47714872f92cf90a50c25f5deaec2789dc2a497b1272df611db6f0887ba65ee2024ea881d91b74c2450ef19e1557f03bed3ea9f16b037cbe2dc9872340a532bdd7bb02bea115c1b0f1ba87eac982f5b79b51ac189ffaac1b6fce",
    "linkReferences": {},
    "deployedLinkReferences": {}
}