{
  "address": "0xA1A7D6107116b65D43A3b6C07714fA5C5cd81a74",
  "abi": [
    {
      "anonymous": false,
      "inputs": [
        {
          "indexed": false,
          "internalType": "address",
          "name": "erc721Address",
          "type": "address"
        },
        {
          "indexed": false,
          "internalType": "uint256",
          "name": "rangeIndex",
          "type": "uint256"
        },
        {
          "indexed": false,
          "internalType": "string",
          "name": "rangeName",
          "type": "string"
        },
        {
          "indexed": false,
          "internalType": "uint256",
          "name": "price",
          "type": "uint256"
        },
        {
          "indexed": false,
          "internalType": "uint256",
          "name": "feeSplitsLength",
          "type": "uint256"
        },
        {
          "indexed": false,
          "internalType": "bool",
          "name": "visible",
          "type": "bool"
        },
        {
          "indexed": false,
          "internalType": "uint256",
          "name": "offerIndex",
          "type": "uint256"
        }
      ],
      "name": "AddedMintingOffer",
      "type": "event"
    },
    {
      "anonymous": false,
      "inputs": [
        {
          "indexed": false,
          "internalType": "address",
          "name": "erc721Address",
          "type": "address"
        },
        {
          "indexed": false,
          "internalType": "uint256",
          "name": "rangeIndex",
          "type": "uint256"
        },
        {
          "indexed": false,
          "internalType": "uint256",
          "name": "tokenIndex",
          "type": "uint256"
        },
        {
          "indexed": false,
          "internalType": "address",
          "name": "buyer",
          "type": "address"
        }
      ],
      "name": "MintedToken",
      "type": "event"
    },
    {
      "anonymous": false,
      "inputs": [
        {
          "indexed": true,
          "internalType": "bytes32",
          "name": "role",
          "type": "bytes32"
        },
        {
          "indexed": true,
          "internalType": "bytes32",
          "name": "previousAdminRole",
          "type": "bytes32"
        },
        {
          "indexed": true,
          "internalType": "bytes32",
          "name": "newAdminRole",
          "type": "bytes32"
        }
      ],
      "name": "RoleAdminChanged",
      "type": "event"
    },
    {
      "anonymous": false,
      "inputs": [
        {
          "indexed": true,
          "internalType": "bytes32",
          "name": "role",
          "type": "bytes32"
        },
        {
          "indexed": true,
          "internalType": "address",
          "name": "account",
          "type": "address"
        },
        {
          "indexed": true,
          "internalType": "address",
          "name": "sender",
          "type": "address"
        }
      ],
      "name": "RoleGranted",
      "type": "event"
    },
    {
      "anonymous": false,
      "inputs": [
        {
          "indexed": true,
          "internalType": "bytes32",
          "name": "role",
          "type": "bytes32"
        },
        {
          "indexed": true,
          "internalType": "address",
          "name": "account",
          "type": "address"
        },
        {
          "indexed": true,
          "internalType": "address",
          "name": "sender",
          "type": "address"
        }
      ],
      "name": "RoleRevoked",
      "type": "event"
    },
    {
      "anonymous": false,
      "inputs": [
        {
          "indexed": false,
          "internalType": "address",
          "name": "erc721Address",
          "type": "address"
        },
        {
          "indexed": false,
          "internalType": "uint256",
          "name": "rangeIndex",
          "type": "uint256"
        },
        {
          "indexed": false,
          "internalType": "uint256",
          "name": "feeSplitsLength",
          "type": "uint256"
        },
        {
          "indexed": false,
          "internalType": "bool",
          "name": "visible",
          "type": "bool"
        },
        {
          "indexed": false,
          "internalType": "uint256",
          "name": "offerIndex",
          "type": "uint256"
        }
      ],
      "name": "UpdatedMintingOffer",
      "type": "event"
    },
    {
      "inputs": [
        {
          "internalType": "address",
          "name": "erc721Address_",
          "type": "address"
        },
        {
          "internalType": "uint256",
          "name": "rangeIndex_",
          "type": "uint256"
        },
        {
          "components": [
            {
              "internalType": "address",
              "name": "recipient",
              "type": "address"
            },
            {
              "internalType": "uint256",
              "name": "percentage",
              "type": "uint256"
            }
          ],
          "internalType": "struct feeSplits[]",
          "name": "splits",
          "type": "tuple[]"
        },
        {
          "internalType": "bool",
          "name": "visible_",
          "type": "bool"
        },
        {
          "internalType": "address",
          "name": "nodeAddress_",
          "type": "address"
        }
      ],
      "name": "addMintingOffer",
      "outputs": [],
      "stateMutability": "nonpayable",
      "type": "function"
    },
    {
      "inputs": [
        {
          "internalType": "address",
          "name": "erc721Address_",
          "type": "address"
        },
        {
          "internalType": "uint256[]",
          "name": "rangeIndexes",
          "type": "uint256[]"
        },
        {
          "components": [
            {
              "internalType": "address",
              "name": "recipient",
              "type": "address"
            },
            {
              "internalType": "uint256",
              "name": "percentage",
              "type": "uint256"
            }
          ],
          "internalType": "struct feeSplits[][]",
          "name": "splits",
          "type": "tuple[][]"
        },
        {
          "internalType": "bool[]",
          "name": "visibility",
          "type": "bool[]"
        },
        {
          "internalType": "address",
          "name": "nodeAddress_",
          "type": "address"
        }
      ],
      "name": "addMintingOfferBatch",
      "outputs": [],
      "stateMutability": "nonpayable",
      "type": "function"
    },
    {
      "inputs": [
        {
          "internalType": "uint256",
          "name": "offerIndex_",
          "type": "uint256"
        },
        {
          "internalType": "uint256",
          "name": "tokenIndex_",
          "type": "uint256"
        }
      ],
      "name": "buyMintingOffer",
      "outputs": [],
      "stateMutability": "payable",
      "type": "function"
    },
    {
      "inputs": [
        {
          "internalType": "uint256",
          "name": "offerIndex_",
          "type": "uint256"
        },
        {
          "internalType": "uint256[]",
          "name": "tokenIndexes",
          "type": "uint256[]"
        },
        {
          "internalType": "address[]",
          "name": "recipients",
          "type": "address[]"
        }
      ],
      "name": "buyMintingOfferBatch",
      "outputs": [],
      "stateMutability": "payable",
      "type": "function"
    },
    {
      "inputs": [
        {
          "internalType": "uint256",
          "name": "offerIndex",
          "type": "uint256"
        }
      ],
      "name": "getOfferInfo",
      "outputs": [
        {
          "components": [
            {
              "internalType": "address",
              "name": "erc721Address",
              "type": "address"
            },
            {
              "internalType": "address",
              "name": "nodeAddress",
              "type": "address"
            },
            {
              "internalType": "uint256",
              "name": "rangeIndex",
              "type": "uint256"
            },
            {
              "components": [
                {
                  "internalType": "address",
                  "name": "recipient",
                  "type": "address"
                },
                {
                  "internalType": "uint256",
                  "name": "percentage",
                  "type": "uint256"
                }
              ],
              "internalType": "struct feeSplits[]",
              "name": "fees",
              "type": "tuple[]"
            },
            {
              "internalType": "bool",
              "name": "visible",
              "type": "bool"
            }
          ],
          "internalType": "struct mintingOffer",
          "name": "mintOffer",
          "type": "tuple"
        },
        {
          "components": [
            {
              "internalType": "uint256",
              "name": "rangeStart",
              "type": "uint256"
            },
            {
              "internalType": "uint256",
              "name": "rangeEnd",
              "type": "uint256"
            },
            {
              "internalType": "uint256",
              "name": "tokensAllowed",
              "type": "uint256"
            },
            {
              "internalType": "uint256",
              "name": "mintableTokens",
              "type": "uint256"
            },
            {
              "internalType": "uint256",
              "name": "lockedTokens",
              "type": "uint256"
            },
            {
              "internalType": "uint256",
              "name": "rangePrice",
              "type": "uint256"
            },
            {
              "internalType": "string",
              "name": "rangeName",
              "type": "string"
            }
          ],
          "internalType": "struct IRAIR721.range",
          "name": "rangeData",
          "type": "tuple"
        },
        {
          "internalType": "uint256",
          "name": "productIndex",
          "type": "uint256"
        }
      ],
      "stateMutability": "view",
      "type": "function"
    },
    {
      "inputs": [
        {
          "internalType": "address",
          "name": "erc721Address",
          "type": "address"
        },
        {
          "internalType": "uint256",
          "name": "rangeIndex",
          "type": "uint256"
        }
      ],
      "name": "getOfferInfoForAddress",
      "outputs": [
        {
          "internalType": "uint256",
          "name": "offerIndex",
          "type": "uint256"
        },
        {
          "components": [
            {
              "internalType": "address",
              "name": "erc721Address",
              "type": "address"
            },
            {
              "internalType": "address",
              "name": "nodeAddress",
              "type": "address"
            },
            {
              "internalType": "uint256",
              "name": "rangeIndex",
              "type": "uint256"
            },
            {
              "components": [
                {
                  "internalType": "address",
                  "name": "recipient",
                  "type": "address"
                },
                {
                  "internalType": "uint256",
                  "name": "percentage",
                  "type": "uint256"
                }
              ],
              "internalType": "struct feeSplits[]",
              "name": "fees",
              "type": "tuple[]"
            },
            {
              "internalType": "bool",
              "name": "visible",
              "type": "bool"
            }
          ],
          "internalType": "struct mintingOffer",
          "name": "mintOffer",
          "type": "tuple"
        },
        {
          "components": [
            {
              "internalType": "uint256",
              "name": "rangeStart",
              "type": "uint256"
            },
            {
              "internalType": "uint256",
              "name": "rangeEnd",
              "type": "uint256"
            },
            {
              "internalType": "uint256",
              "name": "tokensAllowed",
              "type": "uint256"
            },
            {
              "internalType": "uint256",
              "name": "mintableTokens",
              "type": "uint256"
            },
            {
              "internalType": "uint256",
              "name": "lockedTokens",
              "type": "uint256"
            },
            {
              "internalType": "uint256",
              "name": "rangePrice",
              "type": "uint256"
            },
            {
              "internalType": "string",
              "name": "rangeName",
              "type": "string"
            }
          ],
          "internalType": "struct IRAIR721.range",
          "name": "rangeData",
          "type": "tuple"
        },
        {
          "internalType": "uint256",
          "name": "productIndex",
          "type": "uint256"
        }
      ],
      "stateMutability": "view",
      "type": "function"
    },
    {
      "inputs": [
        {
          "internalType": "address",
          "name": "erc721Address",
          "type": "address"
        }
      ],
      "name": "getOffersCountForAddress",
      "outputs": [
        {
          "internalType": "uint256",
          "name": "",
          "type": "uint256"
        }
      ],
      "stateMutability": "view",
      "type": "function"
    },
    {
      "inputs": [
        {
          "internalType": "bytes32",
          "name": "role",
          "type": "bytes32"
        }
      ],
      "name": "getRoleAdmin",
      "outputs": [
        {
          "internalType": "bytes32",
          "name": "",
          "type": "bytes32"
        }
      ],
      "stateMutability": "view",
      "type": "function"
    },
    {
      "inputs": [
        {
          "internalType": "bytes32",
          "name": "role",
          "type": "bytes32"
        },
        {
          "internalType": "uint256",
          "name": "index",
          "type": "uint256"
        }
      ],
      "name": "getRoleMember",
      "outputs": [
        {
          "internalType": "address",
          "name": "",
          "type": "address"
        }
      ],
      "stateMutability": "view",
      "type": "function"
    },
    {
      "inputs": [
        {
          "internalType": "bytes32",
          "name": "role",
          "type": "bytes32"
        }
      ],
      "name": "getRoleMemberCount",
      "outputs": [
        {
          "internalType": "uint256",
          "name": "",
          "type": "uint256"
        }
      ],
      "stateMutability": "view",
      "type": "function"
    },
    {
      "inputs": [],
      "name": "getTotalOfferCount",
      "outputs": [
        {
          "internalType": "uint256",
          "name": "",
          "type": "uint256"
        }
      ],
      "stateMutability": "view",
      "type": "function"
    },
    {
      "inputs": [
        {
          "internalType": "bytes32",
          "name": "role",
          "type": "bytes32"
        },
        {
          "internalType": "address",
          "name": "account",
          "type": "address"
        }
      ],
      "name": "grantRole",
      "outputs": [],
      "stateMutability": "nonpayable",
      "type": "function"
    },
    {
      "inputs": [
        {
          "internalType": "bytes32",
          "name": "role",
          "type": "bytes32"
        },
        {
          "internalType": "address",
          "name": "account",
          "type": "address"
        }
      ],
      "name": "hasRole",
      "outputs": [
        {
          "internalType": "bool",
          "name": "",
          "type": "bool"
        }
      ],
      "stateMutability": "view",
      "type": "function"
    },
    {
      "inputs": [
        {
          "internalType": "bytes32",
          "name": "role",
          "type": "bytes32"
        },
        {
          "internalType": "address",
          "name": "account",
          "type": "address"
        }
      ],
      "name": "renounceRole",
      "outputs": [],
      "stateMutability": "nonpayable",
      "type": "function"
    },
    {
      "inputs": [
        {
          "internalType": "bytes32",
          "name": "role",
          "type": "bytes32"
        },
        {
          "internalType": "address",
          "name": "account",
          "type": "address"
        }
      ],
      "name": "revokeRole",
      "outputs": [],
      "stateMutability": "nonpayable",
      "type": "function"
    },
    {
      "inputs": [
        {
          "internalType": "uint256",
          "name": "mintingOfferId_",
          "type": "uint256"
        },
        {
          "components": [
            {
              "internalType": "address",
              "name": "recipient",
              "type": "address"
            },
            {
              "internalType": "uint256",
              "name": "percentage",
              "type": "uint256"
            }
          ],
          "internalType": "struct feeSplits[]",
          "name": "splits_",
          "type": "tuple[]"
        },
        {
          "internalType": "bool",
          "name": "visible_",
          "type": "bool"
        }
      ],
      "name": "updateMintingOffer",
      "outputs": [],
      "stateMutability": "nonpayable",
      "type": "function"
    }
  ],
  "transactionHash": "0x4d7a1c2aefac528c48f67fdc930a5d8ec5db24db6e1f1cf8a005f9492ec916e3",
  "args": [],
  "numDeployments": 2,
  "solcInputHash": "6b3b31b2045612a4a08903bbe9f034c9",
  "bytecode": "0x608060405234801561001057600080fd5b5061320f806100206000396000f3fe6080604052600436106100f35760003560e01c80638bcccedb1161008a578063ca15c87311610059578063ca15c873146102bf578063d0b922ed146102df578063d547741f146102ff578063df275c6a1461031f57600080fd5b80638bcccedb146102225780639010d07c1461023757806391d148541461026f5780639c3ac84b1461029f57600080fd5b806334dbcd4a116100c657806334dbcd4a146101ac57806336568abe146101bf57806382ec0663146101df5780638b0e2e13146101f257600080fd5b8063248a9ca3146100f85780632a1da9821461013b5780632a8512541461016a5780632f2ff15d1461018c575b600080fd5b34801561010457600080fd5b5061012861011336600461257c565b60009081526020819052604090206001015490565b6040519081526020015b60405180910390f35b34801561014757600080fd5b5061015b61015636600461257c565b610355565b604051610132939291906126d6565b34801561017657600080fd5b5061018a610185366004612774565b61051e565b005b34801561019857600080fd5b5061018a6101a736600461282f565b6106dc565b61018a6101ba36600461285b565b610707565b3480156101cb57600080fd5b5061018a6101da36600461282f565b610c65565b61018a6101ed3660046128d5565b610ce3565b3480156101fe57600080fd5b5061021261020d3660046128f7565b6110b0565b6040516101329493929190612921565b34801561022e57600080fd5b50600754610128565b34801561024357600080fd5b506102576102523660046128d5565b6112e6565b6040516001600160a01b039091168152602001610132565b34801561027b57600080fd5b5061028f61028a36600461282f565b611307565b6040519015158152602001610132565b3480156102ab57600080fd5b5061018a6102ba366004612977565b611330565b3480156102cb57600080fd5b506101286102da36600461257c565b611397565b3480156102eb57600080fd5b5061018a6102fa366004612aee565b6113ae565b34801561030b57600080fd5b5061018a61031a36600461282f565b6113e2565b34801561032b57600080fd5b5061012861033a366004612bbd565b6001600160a01b031660009081526009602052604090205490565b6040805160a08101825260008082526020820181905291810182905260608082015260808101919091526103bf6040518060e00160405280600081526020016000815260200160008152602001600081526020016000815260200160008152602001606081525090565b600080600060070185815481106103d8576103d8612bd8565b600091825260208083206040805160a081018252600590940290910180546001600160a01b039081168552600182015416848401526002810154848301526003810180548351818602810186019094528084529495919460608701949192909184015b82821015610483576000848152602090819020604080518082019091526002850290910180546001600160a01b0316825260019081015482840152908352909201910161043b565b5050509082525060049182015460ff161515602090910152815160408084015190516364cc98df60e11b8152928301529195508592506001600160a01b039091169063c99931be90602401600060405180830381865afa1580156104eb573d6000803e3d6000fd5b505050506040513d6000823e601f3d908101601f191682016040526105139190810190612c52565b949690955092505050565b8561057c5760405162461bcd60e51b815260206004820152602360248201527f4d696e746572204d61726b6574706c6163653a204e6f206f66666572732073656044820152626e742160e81b60648201526084015b60405180910390fd5b858214801561058a57508382145b6105f55760405162461bcd60e51b815260206004820152603660248201527f4d696e746572204d61726b6574706c6163653a204172726179732073686f756c6044820152750c840d0c2ecca40e8d0ca40e6c2daca40d8cadccee8d60531b6064820152608401610573565b60005b868110156106d1576106bf8989898481811061061657610616612bd8565b9050602002013588888581811061062f5761062f612bd8565b90506020028101906106419190612d05565b808060200260200160405190810160405280939291908181526020016000905b8282101561068d5761067e60408302860136819003810190612d4f565b81526020019060010190610661565b50505050508787868181106106a4576106a4612bd8565b90506020020160208101906106b99190612d6b565b86611408565b806106c981612d9e565b9150506105f8565b505050505050505050565b6000828152602081905260409020600101546106f88133611a4c565b6107028383611ab0565b505050565b6007548590811061072a5760405162461bcd60e51b815260040161057390612db7565b836107835760405162461bcd60e51b815260206004820152602360248201527f4d696e746572204d61726b6574706c6163653a204e6f20746f6b656e732073656044820152626e742160e81b6064820152608401610573565b8382146108065760405162461bcd60e51b8152602060048201526044602482018190527f4d696e746572204d61726b6574706c6163653a20546f6b656e7320616e642041908201527f64647265737365732073686f756c642068617665207468652073616d65206c656064820152630dccee8d60e31b608482015260a401610573565b600080600701878154811061081d5761081d612bd8565b60009182526020909120600590910201600481015490915060ff166108545760405162461bcd60e51b815260040161057390612e07565b8054610868906001600160a01b0316611b48565b6108845760405162461bcd60e51b815260040161057390612e64565b805460028201546040516364cc98df60e11b815260048101919091526000916001600160a01b03169063c99931be90602401600060405180830381865afa1580156108d3573d6000803e3d6000fd5b505050506040513d6000823e601f3d908101601f191682016040526108fb9190810190612c52565b5090506000808260a001511115610bed5760a0820151349061091e908990612eb8565b111561093c5760405162461bcd60e51b815260040161057390612ecf565b60a082015160009061094f908990612eb8565b6109599034612f16565b11156109a95760a082015133906108fc90610975908a90612eb8565b61097f9034612f16565b6040518115909202916000818181858888f193505050501580156109a7573d6000803e3d6000fd5b505b6003546000906109ba906064612eb8565b6005546004546109ca9190612f29565b60a08501516109da908b90612eb8565b6109e49190612eb8565b6109ee9190612f3c565b60018501546003549192506001600160a01b0316906108fc90610a12906064612eb8565b60045460a0870151610a25908d90612eb8565b610a2f9190612eb8565b610a399190612f3c565b6040518115909202916000818181858888f19350505050158015610a61573d6000803e3d6000fd5b506006546003546001600160a01b03909116906108fc90610a83906064612eb8565b60055460a0870151610a96908d90612eb8565b610aa09190612eb8565b610aaa9190612f3c565b6040518115909202916000818181858888f19350505050158015610ad2573d6000803e3d6000fd5b5060008092505b6003850154831015610bbc57600354610af3906064612eb8565b856003018481548110610b0857610b08612bd8565b9060005260206000209060020201600101548b8b90508660a00151610b2d9190612eb8565b610b379190612eb8565b610b419190612f3c565b9050610b4d8183612f29565b9150846003018381548110610b6457610b64612bd8565b600091825260208220600290910201546040516001600160a01b039091169183156108fc02918491818181858888f19350505050158015610ba9573d6000803e3d6000fd5b5082610bb481612d9e565b935050610ad9565b60a0840151610bcc908a90612eb8565b8214610bea5760405162461bcd60e51b815260040161057390612f5e565b50505b5060005b868110156106d15782546002840154610c53916001600160a01b0316908a8a85818110610c2057610c20612bd8565b90506020020135898986818110610c3957610c39612bd8565b9050602002016020810190610c4e9190612bbd565b611bd9565b80610c5d81612d9e565b915050610bf1565b6001600160a01b0381163314610cd55760405162461bcd60e51b815260206004820152602f60248201527f416363657373436f6e74726f6c3a2063616e206f6e6c792072656e6f756e636560448201526e103937b632b9903337b91039b2b63360891b6064820152608401610573565b610cdf8282611c9a565b5050565b60075482908110610d065760405162461bcd60e51b815260040161057390612db7565b6000806007018481548110610d1d57610d1d612bd8565b60009182526020909120600590910201600481015490915060ff16610d545760405162461bcd60e51b815260040161057390612e07565b8054610d68906001600160a01b0316611b48565b610d845760405162461bcd60e51b815260040161057390612e64565b805460028201546040516364cc98df60e11b815260048101919091526000916001600160a01b03169063c99931be90602401600060405180830381865afa158015610dd3573d6000803e3d6000fd5b505050506040513d6000823e601f3d908101601f19168201604052610dfb9190810190612c52565b5060a08101519091501561108d57348160a001511115610e2d5760405162461bcd60e51b815260040161057390612ecf565b60008160a0015134610e3f9190612f16565b1115610e845760a081015133906108fc90610e5a9034612f16565b6040518115909202916000818181858888f19350505050158015610e82573d6000803e3d6000fd5b505b600354600090610e95906064612eb8565b600554600454610ea59190612f29565b8360a00151610eb49190612eb8565b610ebe9190612f3c565b60018401546003549192506001600160a01b0316906108fc90610ee2906064612eb8565b60045460a0860151610ef49190612eb8565b610efe9190612f3c565b6040518115909202916000818181858888f19350505050158015610f26573d6000803e3d6000fd5b506006546003546001600160a01b03909116906108fc90610f48906064612eb8565b60055460a0860151610f5a9190612eb8565b610f649190612f3c565b6040518115909202916000818181858888f19350505050158015610f8c573d6000803e3d6000fd5b506000805b600385015481101561106657600354610fab906064612eb8565b856003018281548110610fc057610fc0612bd8565b9060005260206000209060020201600101548560a00151610fe19190612eb8565b610feb9190612f3c565b9150610ff78284612f29565b925084600301818154811061100e5761100e612bd8565b600091825260208220600290910201546040516001600160a01b039091169184156108fc02918591818181858888f19350505050158015611053573d6000803e3d6000fd5b508061105e81612d9e565b915050610f91565b508260a00151821461108a5760405162461bcd60e51b815260040161057390612f5e565b50505b815460028301546110a9916001600160a01b0316908633611bd9565b5050505050565b6040805160a081018252600080825260208201819052918101829052606080820152608081018290526111196040518060e00160405280600081526020016000815260200160008152602001600081526020016000815260200160008152602001606081525090565b6001600160a01b0385166000908152600960205260408120805482916007918890811061114857611148612bd8565b90600052602060002001548154811061116357611163612bd8565b600091825260208083206040805160a081018252600590940290910180546001600160a01b039081168552600182015416848401526002810154848301526003810180548351818602810186019094528084529495919460608701949192909184015b8282101561120e576000848152602090819020604080518082019091526002850290910180546001600160a01b031682526001908101548284015290835290920191016111c6565b5050509082525060049182015460ff161515602090910152815160408084015190516364cc98df60e11b8152928301529192506001600160a01b039091169063c99931be90602401600060405180830381865afa158015611273573d6000803e3d6000fd5b505050506040513d6000823e601f3d908101601f1916820160405261129b9190810190612c52565b6001600160a01b0389166000908152600960205260409020805492955090935090879081106112cc576112cc612bd8565b906000526020600020015494508093505092959194509250565b60008281526001602052604081206112fe9083611d13565b90505b92915050565b6000918252602082815260408084206001600160a01b0393909316845291905290205460ff1690565b61138f86868686808060200260200160405190810160405280939291908181526020016000905b828210156113835761137460408302860136819003810190612d4f565b81526020019060010190611357565b50505050508585611408565b505050505050565b600081815260016020526040812061130190611d1f565b600754839081106113d15760405162461bcd60e51b815260040161057390612db7565b6113dc848484611d29565b50505050565b6000828152602081905260409020600101546113fe8133611a4c565b6107028383611c9a565b8461141281611b48565b61142e5760405162461bcd60e51b815260040161057390612e64565b6001600160a01b038616600090815260086020908152604080832088845290915290205486908690156114735760405162461bcd60e51b815260040161057390612fab565b6001600160a01b03821660009081526008602090815260408083208484529091529020541580156114a5575060075415155b1561153657816001600160a01b031660006007016000815481106114cb576114cb612bd8565b60009182526020909120600590910201546001600160a01b031614158061151a575080600060070160008154811061150557611505612bd8565b90600052602060002090600502016002015414155b6115365760405162461bcd60e51b815260040161057390612fab565b61153f8861207c565b506007805460018101825560009182526040516364cc98df60e11b815260059091027fa66cc928b5edb82af9bd49922954155ab7b0942694bea4ce44661d9a8736c6880191906001600160a01b038b169063c99931be906115a8908c9060040190815260200190565b600060405180830381865afa1580156115c5573d6000803e3d6000fd5b505050506040513d6000823e601f3d908101601f191682016040526115ed9190810190612c52565b509050600081606001511161166a5760405162461bcd60e51b815260206004820152603860248201527f4d696e746572204d61726b6574706c6163653a204f6666657220646f65736e2760448201527f74206861766520746f6b656e7320617661696c61626c652100000000000000006064820152608401610573565b81546001600160a01b03808c166001600160a01b0319928316178455600184018054918916919092161790556002820189905560048201805488151560ff1990911617905560a081015115611970576005546004546000916116cb91612f29565b6003549091506000906116df906064612eb8565b828460a001516116ef9190612eb8565b6116f99190612f3c565b905060005b8a518110156118b45761172e8b828151811061171c5761171c612bd8565b6020026020010151600001513b151590565b156117a15760405162461bcd60e51b815260206004820152603f60248201527f4d696e746572204d61726b6574706c6163653a20436f6e74726163747320636160448201527f6e277420626520726563697069656e7473206f66207468652073706c697473006064820152608401610573565b6003546000906117b2906064612eb8565b8c83815181106117c4576117c4612bd8565b6020026020010151602001518660a001516117df9190612eb8565b6117e99190612f3c565b90506000811161180b5760405162461bcd60e51b815260040161057390612ff9565b6118158184612f29565b92508b828151811061182957611829612bd8565b602002602001015160200151846118409190612f29565b9350856003018c838151811061185857611858612bd8565b602090810291909101810151825460018082018555600094855293839020825160029092020180546001600160a01b0319166001600160a01b0390921691909117815591015191015550806118ac81612d9e565b9150506116fe565b506003546118c3906064612eb8565b82146118e15760405162461bcd60e51b81526004016105739061306d565b8260a00151811461196d5760405162461bcd60e51b815260206004820152604a60248201527f4d696e746572204d61726b6574706c6163653a2043757272656e74206665652060448201527f636f6e66696775726174696f6e2077696c6c20726573756c7420696e206d697360648201526973696e672066756e647360b01b608482015260a401610573565b50505b6001600160a01b038a16600090815260096020526040902060075461199790600190612f16565b8154600181810184556000938452602090932001556007546119b99190612f16565b6001600160a01b038b1660009081526008602090815260408083208d845290915290205560c081015160a082015189516007547f2dbafc19fe6977f2e69a6f341c1cbeae0bcb75da97b336801f1bb6b7ecd27a29938e938e9391929091908d90611a2590600190612f16565b604051611a3897969594939291906130ba565b60405180910390a150505050505050505050565b611a568282611307565b610cdf57611a6e816001600160a01b031660146121fc565b611a798360206121fc565b604051602001611a8a929190613107565b60408051601f198184030181529082905262461bcd60e51b82526105739160040161317c565b611aba8282611307565b610cdf576000828152602081815260408083206001600160a01b03851684529091529020805460ff19166001179055611af03390565b6001600160a01b0316816001600160a01b0316837f2f8788117e7eff1d82e926ec794901d17c78024a50270940304540a733656f0d60405160405180910390a460008281526001602052604090206107029082612398565b604051632474521560e21b81527ff0887ba65ee2024ea881d91b74c2450ef19e1557f03bed3ea9f16b037cbe2dc960048201523060248201526000906001600160a01b038316906391d1485490604401602060405180830381865afa158015611bb5573d6000803e3d6000fd5b505050506040513d601f19601f82011682018060405250810190611301919061318f565b60405163e766224360e01b81526001600160a01b038281166004830152602482018590526044820184905285169063e766224390606401600060405180830381600087803b158015611c2a57600080fd5b505af1158015611c3e573d6000803e3d6000fd5b5050604080516001600160a01b038881168252602082018890528183018790528516606082015290517f0dd9e6b4baafd1387e6f21dbe1004e4f6240e1abd6f95d63234578da7d40469b9350908190036080019150a150505050565b611ca48282611307565b15610cdf576000828152602081815260408083206001600160a01b0385168085529252808320805460ff1916905551339285917ff6391f5c32d9c69d2a47ea670b442974b53935d1edc7fd64eb21e047a839171b9190a4600082815260016020526040902061070290826123ad565b60006112fe83836123c2565b6000611301825490565b6000806007018481548110611d4057611d40612bd8565b600091825260209091206005909102018054909150611d67906001600160a01b031661207c565b508054611d7c906001600160a01b0316611b48565b611d985760405162461bcd60e51b815260040161057390612e64565b805460028201546040516364cc98df60e11b815260048101919091526000916001600160a01b03169063c99931be90602401600060405180830381865afa158015611de7573d6000803e3d6000fd5b505050506040513d6000823e601f3d908101601f19168201604052611e0f9190810190612c52565b50600554600454919250600091611e269190612f29565b9050611e3660038401600061252e565b60005b8551811015611fcb57611e5786828151811061171c5761171c612bd8565b15611eca5760405162461bcd60e51b815260206004820152603960248201527f4d696e746572204d61726b6574706c6163653a20436f6e74726163747320636160448201527f6e277420626520726563697069656e7473206f662066656573000000000000006064820152608401610573565b600354600090611edb906064612eb8565b878381518110611eed57611eed612bd8565b6020026020010151602001518560a00151611f089190612eb8565b611f129190612f3c565b11611f2f5760405162461bcd60e51b815260040161057390612ff9565b858181518110611f4157611f41612bd8565b60200260200101516020015182611f589190612f29565b915083600301868281518110611f7057611f70612bd8565b602090810291909101810151825460018082018555600094855293839020825160029092020180546001600160a01b0319166001600160a01b0390921691909117815591015191015580611fc381612d9e565b915050611e39565b50600354611fda906064612eb8565b8114611ff85760405162461bcd60e51b81526004016105739061306d565b60048301805460ff1916851515908117909155835460028501546003860154604080516001600160a01b03909416845260208401929092529082015260ff90911615156060820152608081018790527ff9aa099c7d91e9bd33886c159620aeba7e2d9bd460bf94282df788a0af93787f9060a00160405180910390a1505050505050565b604051632474521560e21b8152600060048201819052336024830152906001600160a01b038316906391d1485490604401602060405180830381865afa1580156120ca573d6000803e3d6000fd5b505050506040513d601f19601f820116820180604052508101906120ee919061318f565b806121825750604051632474521560e21b81527f3c2519c4487d47714872f92cf90a50c25f5deaec2789dc2a497b1272df611db660048201523360248201526001600160a01b038316906391d1485490604401602060405180830381865afa15801561215e573d6000803e3d6000fd5b505050506040513d601f19601f82011682018060405250810190612182919061318f565b6121f45760405162461bcd60e51b815260206004820152603d60248201527f4d696e746572204d61726b6574706c6163653a2053656e6465722069736e277460448201527f207468652063726561746f72206f662074686520636f6e7472616374210000006064820152608401610573565b506001919050565b6060600061220b836002612eb8565b612216906002612f29565b67ffffffffffffffff81111561222e5761222e612a27565b6040519080825280601f01601f191660200182016040528015612258576020820181803683370190505b509050600360fc1b8160008151811061227357612273612bd8565b60200101906001600160f81b031916908160001a905350600f60fb1b816001815181106122a2576122a2612bd8565b60200101906001600160f81b031916908160001a90535060006122c6846002612eb8565b6122d1906001612f29565b90505b6001811115612349576f181899199a1a9b1b9c1cb0b131b232b360811b85600f166010811061230557612305612bd8565b1a60f81b82828151811061231b5761231b612bd8565b60200101906001600160f81b031916908160001a90535060049490941c93612342816131ac565b90506122d4565b5083156112fe5760405162461bcd60e51b815260206004820181905260248201527f537472696e67733a20686578206c656e67746820696e73756666696369656e746044820152606401610573565b60006112fe836001600160a01b0384166123ec565b60006112fe836001600160a01b03841661243b565b60008260000182815481106123d9576123d9612bd8565b9060005260206000200154905092915050565b600081815260018301602052604081205461243357508154600181810184556000848152602080822090930184905584548482528286019093526040902091909155611301565b506000611301565b6000818152600183016020526040812054801561252457600061245f600183612f16565b855490915060009061247390600190612f16565b90508181146124d857600086600001828154811061249357612493612bd8565b90600052602060002001549050808760000184815481106124b6576124b6612bd8565b6000918252602080832090910192909255918252600188019052604090208390555b85548690806124e9576124e96131c3565b600190038181906000526020600020016000905590558560010160008681526020019081526020016000206000905560019350505050611301565b6000915050611301565b508054600082556002029060005260206000209081019061254f9190612552565b50565b5b808211156125785780546001600160a01b031916815560006001820155600201612553565b5090565b60006020828403121561258e57600080fd5b5035919050565b600060a0830160018060a01b0380845116855260208181860151168187015260408086015181880152606086015160a0606089015284815180875260c08a0191508483019650600092505b8083101561260b578651805187168352850151858301529584019560019290920191908301906125e0565b506080880151955061262160808a018715159052565b98975050505050505050565b60005b83811015612648578181015183820152602001612630565b50506000910152565b6000815180845261266981602086016020860161262d565b601f01601f19169290920160200192915050565b805182526020810151602083015260408101516040830152606081015160608301526080810151608083015260a081015160a0830152600060c082015160e060c08501526126ce60e0850182612651565b949350505050565b6060815260006126e96060830186612595565b82810360208401526126fb818661267d565b915050826040830152949350505050565b80356001600160a01b038116811461272357600080fd5b919050565b60008083601f84011261273a57600080fd5b50813567ffffffffffffffff81111561275257600080fd5b6020830191508360208260051b850101111561276d57600080fd5b9250929050565b60008060008060008060008060a0898b03121561279057600080fd5b6127998961270c565b9750602089013567ffffffffffffffff808211156127b657600080fd5b6127c28c838d01612728565b909950975060408b01359150808211156127db57600080fd5b6127e78c838d01612728565b909750955060608b013591508082111561280057600080fd5b5061280d8b828c01612728565b9094509250612820905060808a0161270c565b90509295985092959890939650565b6000806040838503121561284257600080fd5b823591506128526020840161270c565b90509250929050565b60008060008060006060868803121561287357600080fd5b85359450602086013567ffffffffffffffff8082111561289257600080fd5b61289e89838a01612728565b909650945060408801359150808211156128b757600080fd5b506128c488828901612728565b969995985093965092949392505050565b600080604083850312156128e857600080fd5b50508035926020909101359150565b6000806040838503121561290a57600080fd5b6129138361270c565b946020939093013593505050565b84815260806020820152600061293a6080830186612595565b828103604084015261294c818661267d565b91505082606083015295945050505050565b801515811461254f57600080fd5b80356127238161295e565b60008060008060008060a0878903121561299057600080fd5b6129998761270c565b955060208701359450604087013567ffffffffffffffff808211156129bd57600080fd5b818901915089601f8301126129d157600080fd5b8135818111156129e057600080fd5b8a60208260061b85010111156129f557600080fd5b602083019650809550505050612a0d6060880161296c565b9150612a1b6080880161270c565b90509295509295509295565b634e487b7160e01b600052604160045260246000fd5b60405160e0810167ffffffffffffffff81118282101715612a6057612a60612a27565b60405290565b604051601f8201601f1916810167ffffffffffffffff81118282101715612a8f57612a8f612a27565b604052919050565b600060408284031215612aa957600080fd5b6040516040810181811067ffffffffffffffff82111715612acc57612acc612a27565b604052905080612adb8361270c565b8152602083013560208201525092915050565b600080600060608486031215612b0357600080fd5b8335925060208085013567ffffffffffffffff80821115612b2357600080fd5b818701915087601f830112612b3757600080fd5b813581811115612b4957612b49612a27565b612b57848260051b01612a66565b818152848101925060069190911b830184019089821115612b7757600080fd5b928401925b81841015612ba057612b8e8a85612a97565b83528483019250604084019350612b7c565b8096505050505050612bb46040850161296c565b90509250925092565b600060208284031215612bcf57600080fd5b6112fe8261270c565b634e487b7160e01b600052603260045260246000fd5b600082601f830112612bff57600080fd5b815167ffffffffffffffff811115612c1957612c19612a27565b612c2c601f8201601f1916602001612a66565b818152846020838601011115612c4157600080fd5b6126ce82602083016020870161262d565b60008060408385031215612c6557600080fd5b825167ffffffffffffffff80821115612c7d57600080fd5b9084019060e08287031215612c9157600080fd5b612c99612a3d565b825181526020830151602082015260408301516040820152606083015160608201526080830151608082015260a083015160a082015260c083015182811115612ce157600080fd5b612ced88828601612bee565b60c08301525060209590950151949694955050505050565b6000808335601e19843603018112612d1c57600080fd5b83018035915067ffffffffffffffff821115612d3757600080fd5b6020019150600681901b360382131561276d57600080fd5b600060408284031215612d6157600080fd5b6112fe8383612a97565b600060208284031215612d7d57600080fd5b81356112fe8161295e565b634e487b7160e01b600052601160045260246000fd5b600060018201612db057612db0612d88565b5060010190565b60208082526030908201527f4d696e74696e67204d61726b6574706c6163653a204d696e74696e67204f666660408201526f195c88191bd95cdb89dd08195e1a5cdd60821b606082015260800190565b60208082526037908201527f4d696e746572204d61726b6574706c6163653a2054686973206f66666572206960408201527f73206e6f7420726561647920746f20626520736f6c6421000000000000000000606082015260800190565b60208082526034908201527f4d696e746572204d61726b6574706c6163653a2054686973204d61726b6574706040820152736c6163652069736e27742061204d696e7465722160601b606082015260800190565b808202811582820484141761130157611301612d88565b60208082526027908201527f4d696e746572204d61726b6574706c6163653a20496e73756666696369656e746040820152662066756e64732160c81b606082015260800190565b8181038181111561130157611301612d88565b8082018082111561130157611301612d88565b600082612f5957634e487b7160e01b600052601260045260246000fd5b500490565b6020808252602d908201527f4d696e746572204d61726b6574706c6163653a204572726f72207472616e736660408201526c657272696e672066756e64732160981b606082015260800190565b6020808252602e908201527f4d696e746572204d61726b6574706c6163653a2052616e676520616c7265616460408201526d3c903430b99030b71037b33332b960911b606082015260800190565b6020808252604e908201527f4d696e746572204d61726b6574706c6163653a20412070657263656e7461676560408201527f206f6e207468652061727261792077696c6c20726573756c7420696e20616e2060608201526d32b6b83a3c903a3930b739b332b960911b608082015260a00190565b6020808252602d908201527f4d696e746572204d61726b6574706c6163653a204665657320646f6e2774206160408201526c646420757020746f203130302560981b606082015260800190565b60018060a01b038816815286602082015260e0604082015260006130e160e0830188612651565b606083019690965250608081019390935290151560a083015260c0909101529392505050565b7f416363657373436f6e74726f6c3a206163636f756e742000000000000000000081526000835161313f81601785016020880161262d565b7001034b99036b4b9b9b4b733903937b6329607d1b601791840191820152835161317081602884016020880161262d565b01602801949350505050565b6020815260006112fe6020830184612651565b6000602082840312156131a157600080fd5b81516112fe8161295e565b6000816131bb576131bb612d88565b506000190190565b634e487b7160e01b600052603160045260246000fdfea26469706673582212203729a2867321244f21af4acaf731cd0ff52cbd6a406bc203dd327c1aa9665a7e64736f6c63430008110033",
  "devdoc": {
    "author": "Juan M. Sanchez M.",
    "details": "Notice that this contract is inheriting from AccessControlAppStorageEnumerableMarket",
    "events": {
      "AddedMintingOffer(address,uint256,string,uint256,uint256,bool,uint256)": {
        "params": {
          "erc721Address": "Contains the address of the erc721",
          "feeSplitsLength": "Contains the visibility of the offer",
          "offerIndex": "contains the new status of the offer",
          "price": "Contains the price of the offer fot the token",
          "rangeIndex": "contains the id of the minted token",
          "rangeName": "contains the name of the range where the token is"
        }
      }
    },
    "kind": "dev",
    "methods": {
      "addMintingOffer(address,uint256,(address,uint256)[],bool,address)": {
        "params": {
          "erc721Address_": "Contains the address of the minter marketplace contract",
          "nodeAddress_": "Contains address of the node where the offer was placed",
          "rangeIndex_": "Contains the index location of the range where the offer will be placed",
          "splits": "Contains the shares and address to pay when the offer is succesfull ",
          "visible_": "Contains a boolean to set if the offer is public or not "
        }
      },
      "addMintingOfferBatch(address,uint256[],(address,uint256)[][],bool[],address)": {
        "params": {
          "erc721Address_": "Contains the address of the minter marketplace contract",
          "nodeAddress_": "Contains address of the node where the offer was placed",
          "rangeIndexes": "Contains the collection of ranges where the offer will be placed",
          "splits": "Contains the shares and address to pay when the offer is succesfull ",
          "visibility": "Contains a collection of booleans that set the offer as public or not "
        }
      },
      "buyMintingOffer(uint256,uint256)": {
        "details": "This function requires that the mintingOfferExists points to an valid offer  ",
        "params": {
          "offerIndex_": "Contains index location of the offer",
          "tokenIndex_": "Contains the id of the tokens that we want to mint"
        }
      },
      "buyMintingOfferBatch(uint256,uint256[],address[])": {
        "details": "This function requires that the mintingOfferExists points to an valid offer  ",
        "params": {
          "offerIndex_": "Contains index location of the offer",
          "recipients": "Contains the collection of addresses that will receive",
          "tokenIndexes": "Contains the collection of tokens that we want to mint"
        }
      },
      "getOfferInfo(uint256)": {
        "params": {
          "offerIndex": "Contains the facet addresses and function selectors"
        },
        "returns": {
          "mintOffer": "Show us the information about the minting offer ",
          "productIndex": "Show us the indexed position for the product inside the range",
          "rangeData": "Show us the data about the selected range"
        }
      },
      "getOfferInfoForAddress(address,uint256)": {
        "params": {
          "erc721Address": "Contains the facet addresses and function selectors",
          "rangeIndex": "Contains the facet addresses and function selectors"
        },
        "returns": {
          "mintOffer": "Show us the information about the minting offer ",
          "offerIndex": "Show us the indexed position of the offer",
          "productIndex": "Show us the indexed position for the product inside the range",
          "rangeData": "Show us the data about the selected range"
        }
      },
      "getOffersCountForAddress(address)": {
        "params": {
          "erc721Address": "Address of the ERC721 token"
        },
        "returns": {
          "_0": "uint with the total of offers"
        }
      },
      "getRoleAdmin(bytes32)": {
        "params": {
          "role": "Contains the role that we want to verify"
        },
        "returns": {
          "_0": "bytes that indicates if an account has or not an admin role"
        }
      },
      "getRoleMember(bytes32,uint256)": {
        "params": {
          "index": "Contains the indexed position to verify inside the role members list",
          "role": "Contains the role that we want to verify"
        },
        "returns": {
          "_0": "address that indicates the address indexed in that position"
        }
      },
      "getRoleMemberCount(bytes32)": {
        "params": {
          "role": "Contains the role that we want to verify"
        },
        "returns": {
          "_0": "uint256 that indicates the total accounts with that role"
        }
      },
      "getTotalOfferCount()": {
        "returns": {
          "_0": "uint with the total of offers"
        }
      },
      "grantRole(bytes32,address)": {
        "details": "This function is only available to an account with an Admin role",
        "params": {
          "account": "Contains the account that has the role we want to update",
          "role": "Contains the role that we want to grant"
        }
      },
      "hasRole(bytes32,address)": {
        "params": {
          "account": "Contains the account address thay we want to verify",
          "role": "Contains the role that we want to verify"
        },
        "returns": {
          "_0": "bool that indicates if an account has or not a role"
        }
      },
      "renounceRole(bytes32,address)": {
        "details": "Currently you can only renounce to your own roles",
        "params": {
          "account": "Contains the account that has the role we want to update",
          "role": "Contains the role to remove from our account"
        }
      },
      "revokeRole(bytes32,address)": {
        "details": "This function is only available to an account with an Admin role",
        "params": {
          "account": "Contains the account that has the role we want to update",
          "role": "Contains the role that we want to revoke"
        }
      },
      "updateMintingOffer(uint256,(address,uint256)[],bool)": {
        "details": "This function requires that the mintingOfferExists points to an valid offer  ",
        "params": {
          "mintingOfferId_": "Contains index location of the minting offer",
          "splits_": "Contains the shares and address to pay when the offer is succesfull ",
          "visible_": "Contains a boolean to set if the offer is public or not "
        }
      }
    },
    "title": "RAIR Diamond - Minting offers facet",
    "version": 1
  },
  "userdoc": {
    "events": {
      "AddedMintingOffer(address,uint256,string,uint256,uint256,bool,uint256)": {
        "notice": "This event stores in the blockchain when a Minting Offer is Added"
      },
      "RoleAdminChanged(bytes32,bytes32,bytes32)": {
        "notice": "This event stores in the blockchain when we change an admin role"
      },
      "RoleGranted(bytes32,address,address)": {
        "notice": "This event stores in the blockchain when we grant a role"
      },
      "RoleRevoked(bytes32,address,address)": {
        "notice": "This event stores in the blockchain when we revoke a role"
      }
    },
    "kind": "user",
    "methods": {
      "addMintingOffer(address,uint256,(address,uint256)[],bool,address)": {
        "notice": "This function allow us to add a new minting offer"
      },
      "addMintingOfferBatch(address,uint256[],(address,uint256)[][],bool[],address)": {
        "notice": "This function allow us to create a group of minting offers in a single call"
      },
      "buyMintingOffer(uint256,uint256)": {
        "notice": "This function allow us to buy a minting offers"
      },
      "buyMintingOfferBatch(uint256,uint256[],address[])": {
        "notice": "This function allow us to buy a collection of minting offers"
      },
      "getOfferInfo(uint256)": {
        "notice": "This function show us the information of an selected minting offer"
      },
      "getOfferInfoForAddress(address,uint256)": {
        "notice": "This functions show us the information of an offer asociated to a marketplace"
      },
      "getOffersCountForAddress(address)": {
        "notice": "Returns the number of offers for a specific ERC721 address"
      },
      "getRoleAdmin(bytes32)": {
        "notice": "Allow us to check the admin role that contains a role"
      },
      "getRoleMember(bytes32,uint256)": {
        "notice": "Allow us to check the address of an indexed position for the role list"
      },
      "getRoleMemberCount(bytes32)": {
        "notice": "Allow us to check total members that has an selected role"
      },
      "getTotalOfferCount()": {
        "notice": "Returns the number of all the minting offers "
      },
      "grantRole(bytes32,address)": {
        "notice": "Allow us to grant a role to an account"
      },
      "hasRole(bytes32,address)": {
        "notice": "Allow us to check the if and account has a selected role"
      },
      "renounceRole(bytes32,address)": {
        "notice": "Allow us to renounce to a role"
      },
      "revokeRole(bytes32,address)": {
        "notice": "Allow us to revoke a role to an account"
      },
      "updateMintingOffer(uint256,(address,uint256)[],bool)": {
        "notice": "This function allow us to update the parameters of a minting offers"
      }
    },
    "notice": "Facet in charge of the minting offers in the RAIR Marketplace",
    "version": 1
  },
  "storageLayout": {
    "storage": [
      {
        "astId": 3758,
        "contract": "contracts/Marketplace/Facets/MintingOffersFacet.sol:MintingOffersFacet",
        "label": "s",
        "offset": 0,
        "slot": "0",
        "type": "t_struct(AppStorage)3739_storage"
      }
    ],
    "types": {
      "t_address": {
        "encoding": "inplace",
        "label": "address",
        "numberOfBytes": "20"
      },
      "t_array(t_bytes32)dyn_storage": {
        "base": "t_bytes32",
        "encoding": "dynamic_array",
        "label": "bytes32[]",
        "numberOfBytes": "32"
      },
      "t_array(t_struct(feeSplits)3683_storage)dyn_storage": {
        "base": "t_struct(feeSplits)3683_storage",
        "encoding": "dynamic_array",
        "label": "struct feeSplits[]",
        "numberOfBytes": "32"
      },
      "t_array(t_struct(mintingOffer)3696_storage)dyn_storage": {
        "base": "t_struct(mintingOffer)3696_storage",
        "encoding": "dynamic_array",
        "label": "struct mintingOffer[]",
        "numberOfBytes": "32"
      },
      "t_array(t_uint256)dyn_storage": {
        "base": "t_uint256",
        "encoding": "dynamic_array",
        "label": "uint256[]",
        "numberOfBytes": "32"
      },
      "t_bool": {
        "encoding": "inplace",
        "label": "bool",
        "numberOfBytes": "1"
      },
      "t_bytes32": {
        "encoding": "inplace",
        "label": "bytes32",
        "numberOfBytes": "32"
      },
      "t_mapping(t_address,t_array(t_uint256)dyn_storage)": {
        "encoding": "mapping",
        "key": "t_address",
        "label": "mapping(address => uint256[])",
        "numberOfBytes": "32",
        "value": "t_array(t_uint256)dyn_storage"
      },
      "t_mapping(t_address,t_bool)": {
        "encoding": "mapping",
        "key": "t_address",
        "label": "mapping(address => bool)",
        "numberOfBytes": "32",
        "value": "t_bool"
      },
      "t_mapping(t_address,t_mapping(t_uint256,t_uint256))": {
        "encoding": "mapping",
        "key": "t_address",
        "label": "mapping(address => mapping(uint256 => uint256))",
        "numberOfBytes": "32",
        "value": "t_mapping(t_uint256,t_uint256)"
      },
      "t_mapping(t_bytes32,t_struct(AddressSet)2617_storage)": {
        "encoding": "mapping",
        "key": "t_bytes32",
        "label": "mapping(bytes32 => struct EnumerableSet.AddressSet)",
        "numberOfBytes": "32",
        "value": "t_struct(AddressSet)2617_storage"
      },
      "t_mapping(t_bytes32,t_struct(RoleData)3703_storage)": {
        "encoding": "mapping",
        "key": "t_bytes32",
        "label": "mapping(bytes32 => struct RoleData)",
        "numberOfBytes": "32",
        "value": "t_struct(RoleData)3703_storage"
      },
      "t_mapping(t_bytes32,t_uint256)": {
        "encoding": "mapping",
        "key": "t_bytes32",
        "label": "mapping(bytes32 => uint256)",
        "numberOfBytes": "32",
        "value": "t_uint256"
      },
      "t_mapping(t_uint256,t_uint256)": {
        "encoding": "mapping",
        "key": "t_uint256",
        "label": "mapping(uint256 => uint256)",
        "numberOfBytes": "32",
        "value": "t_uint256"
      },
      "t_struct(AddressSet)2617_storage": {
        "encoding": "inplace",
        "label": "struct EnumerableSet.AddressSet",
        "members": [
          {
            "astId": 2616,
            "contract": "contracts/Marketplace/Facets/MintingOffersFacet.sol:MintingOffersFacet",
            "label": "_inner",
            "offset": 0,
            "slot": "0",
            "type": "t_struct(Set)2316_storage"
          }
        ],
        "numberOfBytes": "64"
      },
      "t_struct(AppStorage)3739_storage": {
        "encoding": "inplace",
        "label": "struct AppStorage",
        "members": [
          {
            "astId": 3708,
            "contract": "contracts/Marketplace/Facets/MintingOffersFacet.sol:MintingOffersFacet",
            "label": "_roles",
            "offset": 0,
            "slot": "0",
            "type": "t_mapping(t_bytes32,t_struct(RoleData)3703_storage)"
          },
          {
            "astId": 3713,
            "contract": "contracts/Marketplace/Facets/MintingOffersFacet.sol:MintingOffersFacet",
            "label": "_roleMembers",
            "offset": 0,
            "slot": "1",
            "type": "t_mapping(t_bytes32,t_struct(AddressSet)2617_storage)"
          },
          {
            "astId": 3715,
            "contract": "contracts/Marketplace/Facets/MintingOffersFacet.sol:MintingOffersFacet",
            "label": "decimals",
            "offset": 0,
            "slot": "2",
            "type": "t_uint16"
          },
          {
            "astId": 3717,
            "contract": "contracts/Marketplace/Facets/MintingOffersFacet.sol:MintingOffersFacet",
            "label": "decimalPow",
            "offset": 0,
            "slot": "3",
            "type": "t_uint256"
          },
          {
            "astId": 3719,
            "contract": "contracts/Marketplace/Facets/MintingOffersFacet.sol:MintingOffersFacet",
            "label": "nodeFee",
            "offset": 0,
            "slot": "4",
            "type": "t_uint256"
          },
          {
            "astId": 3721,
            "contract": "contracts/Marketplace/Facets/MintingOffersFacet.sol:MintingOffersFacet",
            "label": "treasuryFee",
            "offset": 0,
            "slot": "5",
            "type": "t_uint256"
          },
          {
            "astId": 3723,
            "contract": "contracts/Marketplace/Facets/MintingOffersFacet.sol:MintingOffersFacet",
            "label": "treasuryAddress",
            "offset": 0,
            "slot": "6",
            "type": "t_address"
          },
          {
            "astId": 3727,
            "contract": "contracts/Marketplace/Facets/MintingOffersFacet.sol:MintingOffersFacet",
            "label": "mintingOffers",
            "offset": 0,
            "slot": "7",
            "type": "t_array(t_struct(mintingOffer)3696_storage)dyn_storage"
          },
          {
            "astId": 3733,
            "contract": "contracts/Marketplace/Facets/MintingOffersFacet.sol:MintingOffersFacet",
            "label": "addressToRangeOffer",
            "offset": 0,
            "slot": "8",
            "type": "t_mapping(t_address,t_mapping(t_uint256,t_uint256))"
          },
          {
            "astId": 3738,
            "contract": "contracts/Marketplace/Facets/MintingOffersFacet.sol:MintingOffersFacet",
            "label": "addressToOffers",
            "offset": 0,
            "slot": "9",
            "type": "t_mapping(t_address,t_array(t_uint256)dyn_storage)"
          }
        ],
        "numberOfBytes": "320"
      },
      "t_struct(RoleData)3703_storage": {
        "encoding": "inplace",
        "label": "struct RoleData",
        "members": [
          {
            "astId": 3700,
            "contract": "contracts/Marketplace/Facets/MintingOffersFacet.sol:MintingOffersFacet",
            "label": "members",
            "offset": 0,
            "slot": "0",
            "type": "t_mapping(t_address,t_bool)"
          },
          {
            "astId": 3702,
            "contract": "contracts/Marketplace/Facets/MintingOffersFacet.sol:MintingOffersFacet",
            "label": "adminRole",
            "offset": 0,
            "slot": "1",
            "type": "t_bytes32"
          }
        ],
        "numberOfBytes": "64"
      },
      "t_struct(Set)2316_storage": {
        "encoding": "inplace",
        "label": "struct EnumerableSet.Set",
        "members": [
          {
            "astId": 2311,
            "contract": "contracts/Marketplace/Facets/MintingOffersFacet.sol:MintingOffersFacet",
            "label": "_values",
            "offset": 0,
            "slot": "0",
            "type": "t_array(t_bytes32)dyn_storage"
          },
          {
            "astId": 2315,
            "contract": "contracts/Marketplace/Facets/MintingOffersFacet.sol:MintingOffersFacet",
            "label": "_indexes",
            "offset": 0,
            "slot": "1",
            "type": "t_mapping(t_bytes32,t_uint256)"
          }
        ],
        "numberOfBytes": "64"
      },
      "t_struct(feeSplits)3683_storage": {
        "encoding": "inplace",
        "label": "struct feeSplits",
        "members": [
          {
            "astId": 3680,
            "contract": "contracts/Marketplace/Facets/MintingOffersFacet.sol:MintingOffersFacet",
            "label": "recipient",
            "offset": 0,
            "slot": "0",
            "type": "t_address"
          },
          {
            "astId": 3682,
            "contract": "contracts/Marketplace/Facets/MintingOffersFacet.sol:MintingOffersFacet",
            "label": "percentage",
            "offset": 0,
            "slot": "1",
            "type": "t_uint256"
          }
        ],
        "numberOfBytes": "64"
      },
      "t_struct(mintingOffer)3696_storage": {
        "encoding": "inplace",
        "label": "struct mintingOffer",
        "members": [
          {
            "astId": 3685,
            "contract": "contracts/Marketplace/Facets/MintingOffersFacet.sol:MintingOffersFacet",
            "label": "erc721Address",
            "offset": 0,
            "slot": "0",
            "type": "t_address"
          },
          {
            "astId": 3687,
            "contract": "contracts/Marketplace/Facets/MintingOffersFacet.sol:MintingOffersFacet",
            "label": "nodeAddress",
            "offset": 0,
            "slot": "1",
            "type": "t_address"
          },
          {
            "astId": 3689,
            "contract": "contracts/Marketplace/Facets/MintingOffersFacet.sol:MintingOffersFacet",
            "label": "rangeIndex",
            "offset": 0,
            "slot": "2",
            "type": "t_uint256"
          },
          {
            "astId": 3693,
            "contract": "contracts/Marketplace/Facets/MintingOffersFacet.sol:MintingOffersFacet",
            "label": "fees",
            "offset": 0,
            "slot": "3",
            "type": "t_array(t_struct(feeSplits)3683_storage)dyn_storage"
          },
          {
            "astId": 3695,
            "contract": "contracts/Marketplace/Facets/MintingOffersFacet.sol:MintingOffersFacet",
            "label": "visible",
            "offset": 0,
            "slot": "4",
            "type": "t_bool"
          }
        ],
        "numberOfBytes": "160"
      },
      "t_uint16": {
        "encoding": "inplace",
        "label": "uint16",
        "numberOfBytes": "2"
      },
      "t_uint256": {
        "encoding": "inplace",
        "label": "uint256",
        "numberOfBytes": "32"
      }
    }
  }
}