{
  "_format": "hh-sol-artifact-1",
  "contractName": "Minter_Marketplace",
  "sourceName": "contracts/Marketplaces/MarketplaceMinter.sol",
  "abi": [
    {
      "anonymous": false,
      "inputs": [
        {
          "indexed": false,
          "internalType": "address",
          "name": "contractAddress",
          "type": "address"
        },
        {
          "indexed": false,
          "internalType": "uint256",
          "name": "productIndex",
          "type": "uint256"
        },
        {
          "indexed": false,
          "internalType": "uint256",
          "name": "rangesCreated",
          "type": "uint256"
        },
        {
          "indexed": false,
          "internalType": "uint256",
          "name": "catalogIndex",
          "type": "uint256"
        }
      ],
      "name": "AddedOffer",
      "type": "event"
    },
    {
      "anonymous": false,
      "inputs": [
        {
          "indexed": false,
          "internalType": "address",
          "name": "contractAddress",
          "type": "address"
        },
        {
          "indexed": false,
          "internalType": "uint256",
          "name": "productIndex",
          "type": "uint256"
        },
        {
          "indexed": false,
          "internalType": "uint256",
          "name": "offerIndex",
          "type": "uint256"
        },
        {
          "indexed": false,
          "internalType": "uint256",
          "name": "rangeIndex",
          "type": "uint256"
        },
        {
          "indexed": false,
          "internalType": "uint256",
          "name": "startToken",
          "type": "uint256"
        },
        {
          "indexed": false,
          "internalType": "uint256",
          "name": "endToken",
          "type": "uint256"
        },
        {
          "indexed": false,
          "internalType": "uint256",
          "name": "price",
          "type": "uint256"
        },
        {
          "indexed": false,
          "internalType": "string",
          "name": "name",
          "type": "string"
        }
      ],
      "name": "AppendedRange",
      "type": "event"
    },
    {
      "anonymous": false,
      "inputs": [
        {
          "indexed": false,
          "internalType": "uint16",
          "name": "newNodeFee",
          "type": "uint16"
        }
      ],
      "name": "ChangedNodeFee",
      "type": "event"
    },
    {
      "anonymous": false,
      "inputs": [
        {
          "indexed": false,
          "internalType": "address",
          "name": "newTreasury",
          "type": "address"
        }
      ],
      "name": "ChangedTreasury",
      "type": "event"
    },
    {
      "anonymous": false,
      "inputs": [
        {
          "indexed": false,
          "internalType": "address",
          "name": "treasury",
          "type": "address"
        },
        {
          "indexed": false,
          "internalType": "uint16",
          "name": "newTreasuryFee",
          "type": "uint16"
        }
      ],
      "name": "ChangedTreasuryFee",
      "type": "event"
    },
    {
      "anonymous": false,
      "inputs": [
        {
          "indexed": true,
          "internalType": "address",
          "name": "previousOwner",
          "type": "address"
        },
        {
          "indexed": true,
          "internalType": "address",
          "name": "newOwner",
          "type": "address"
        }
      ],
      "name": "OwnershipTransferred",
      "type": "event"
    },
    {
      "anonymous": false,
      "inputs": [
        {
          "indexed": false,
          "internalType": "address",
          "name": "contractAddress",
          "type": "address"
        },
        {
          "indexed": false,
          "internalType": "uint256",
          "name": "catalogIndex",
          "type": "uint256"
        },
        {
          "indexed": false,
          "internalType": "uint256",
          "name": "rangeIndex",
          "type": "uint256"
        }
      ],
      "name": "SoldOut",
      "type": "event"
    },
    {
      "anonymous": false,
      "inputs": [
        {
          "indexed": false,
          "internalType": "address",
          "name": "ownerAddress",
          "type": "address"
        },
        {
          "indexed": false,
          "internalType": "address",
          "name": "contractAddress",
          "type": "address"
        },
        {
          "indexed": false,
          "internalType": "uint256",
          "name": "catalogIndex",
          "type": "uint256"
        },
        {
          "indexed": false,
          "internalType": "uint256",
          "name": "rangeIndex",
          "type": "uint256"
        },
        {
          "indexed": false,
          "internalType": "uint256",
          "name": "tokenIndex",
          "type": "uint256"
        }
      ],
      "name": "TokenMinted",
      "type": "event"
    },
    {
      "anonymous": false,
      "inputs": [
        {
          "indexed": false,
          "internalType": "address",
          "name": "contractAddress",
          "type": "address"
        },
        {
          "indexed": false,
          "internalType": "uint256",
          "name": "offerIndex",
          "type": "uint256"
        },
        {
          "indexed": false,
          "internalType": "uint256",
          "name": "rangeIndex",
          "type": "uint256"
        },
        {
          "indexed": false,
          "internalType": "uint256",
          "name": "tokens",
          "type": "uint256"
        },
        {
          "indexed": false,
          "internalType": "uint256",
          "name": "price",
          "type": "uint256"
        },
        {
          "indexed": false,
          "internalType": "string",
          "name": "name",
          "type": "string"
        }
      ],
      "name": "UpdatedOffer",
      "type": "event"
    },
    {
      "inputs": [
        {
          "internalType": "address",
          "name": "_tokenAddress",
          "type": "address"
        },
        {
          "internalType": "uint256",
          "name": "_productIndex",
          "type": "uint256"
        },
        {
          "internalType": "uint256[]",
          "name": "_rangeStartToken",
          "type": "uint256[]"
        },
        {
          "internalType": "uint256[]",
          "name": "_rangeEndToken",
          "type": "uint256[]"
        },
        {
          "internalType": "uint256[]",
          "name": "_rangePrice",
          "type": "uint256[]"
        },
        {
          "internalType": "string[]",
          "name": "_rangeName",
          "type": "string[]"
        },
        {
          "internalType": "address",
          "name": "_nodeAddress",
          "type": "address"
        }
      ],
      "name": "addOffer",
      "outputs": [],
      "stateMutability": "nonpayable",
      "type": "function"
    },
    {
      "inputs": [
        {
          "internalType": "uint256",
          "name": "offerIndex",
          "type": "uint256"
        },
        {
          "internalType": "uint256",
          "name": "startToken",
          "type": "uint256"
        },
        {
          "internalType": "uint256",
          "name": "endToken",
          "type": "uint256"
        },
        {
          "internalType": "uint256",
          "name": "price",
          "type": "uint256"
        },
        {
          "internalType": "string",
          "name": "name",
          "type": "string"
        }
      ],
      "name": "appendOfferRange",
      "outputs": [],
      "stateMutability": "nonpayable",
      "type": "function"
    },
    {
      "inputs": [
        {
          "internalType": "uint256",
          "name": "catalogIndex",
          "type": "uint256"
        },
        {
          "internalType": "uint256",
          "name": "rangeIndex",
          "type": "uint256"
        },
        {
          "internalType": "uint256",
          "name": "internalTokenIndex",
          "type": "uint256"
        }
      ],
      "name": "buyToken",
      "outputs": [],
      "stateMutability": "payable",
      "type": "function"
    },
    {
      "inputs": [
        {
          "internalType": "address",
          "name": "erc721Address",
          "type": "address"
        }
      ],
      "name": "contractToOffer",
      "outputs": [
        {
          "internalType": "uint256",
          "name": "offerIndex",
          "type": "uint256"
        }
      ],
      "stateMutability": "view",
      "type": "function"
    },
    {
      "inputs": [],
      "name": "feeDecimals",
      "outputs": [
        {
          "internalType": "uint16",
          "name": "",
          "type": "uint16"
        }
      ],
      "stateMutability": "view",
      "type": "function"
    },
    {
      "inputs": [],
      "name": "getOfferCount",
      "outputs": [
        {
          "internalType": "uint256",
          "name": "",
          "type": "uint256"
        }
      ],
      "stateMutability": "view",
      "type": "function"
    },
    {
      "inputs": [
        {
          "internalType": "uint256",
          "name": "_index",
          "type": "uint256"
        }
      ],
      "name": "getOfferInfo",
      "outputs": [
        {
          "internalType": "address",
          "name": "contractAddress",
          "type": "address"
        },
        {
          "internalType": "uint256",
          "name": "productIndex",
          "type": "uint256"
        },
        {
          "internalType": "address",
          "name": "nodeAddress",
          "type": "address"
        },
        {
          "internalType": "uint256",
          "name": "availableRanges",
          "type": "uint256"
        }
      ],
      "stateMutability": "view",
      "type": "function"
    },
    {
      "inputs": [
        {
          "internalType": "uint256",
          "name": "offerIndex",
          "type": "uint256"
        },
        {
          "internalType": "uint256",
          "name": "rangeIndex",
          "type": "uint256"
        }
      ],
      "name": "getOfferRangeInfo",
      "outputs": [
        {
          "internalType": "address",
          "name": "contractAddress",
          "type": "address"
        },
        {
          "internalType": "uint256",
          "name": "collectionIndex",
          "type": "uint256"
        },
        {
          "internalType": "uint256",
          "name": "tokenStart",
          "type": "uint256"
        },
        {
          "internalType": "uint256",
          "name": "tokenEnd",
          "type": "uint256"
        },
        {
          "internalType": "uint256",
          "name": "tokensAllowed",
          "type": "uint256"
        },
        {
          "internalType": "uint256",
          "name": "price",
          "type": "uint256"
        },
        {
          "internalType": "string",
          "name": "name",
          "type": "string"
        }
      ],
      "stateMutability": "view",
      "type": "function"
    },
    {
      "inputs": [
        {
          "internalType": "address",
          "name": "_treasury",
          "type": "address"
        },
        {
          "internalType": "uint16",
          "name": "_treasuryFee",
          "type": "uint16"
        },
        {
          "internalType": "uint16",
          "name": "_nodeFee",
          "type": "uint16"
        }
      ],
      "name": "initialize",
      "outputs": [],
      "stateMutability": "nonpayable",
      "type": "function"
    },
    {
      "inputs": [],
      "name": "nodeFee",
      "outputs": [
        {
          "internalType": "uint16",
          "name": "",
          "type": "uint16"
        }
      ],
      "stateMutability": "view",
      "type": "function"
    },
    {
      "inputs": [],
      "name": "openSales",
      "outputs": [
        {
          "internalType": "uint256",
          "name": "",
          "type": "uint256"
        }
      ],
      "stateMutability": "view",
      "type": "function"
    },
    {
      "inputs": [],
      "name": "owner",
      "outputs": [
        {
          "internalType": "address",
          "name": "",
          "type": "address"
        }
      ],
      "stateMutability": "view",
      "type": "function"
    },
    {
      "inputs": [],
      "name": "renounceOwnership",
      "outputs": [],
      "stateMutability": "nonpayable",
      "type": "function"
    },
    {
      "inputs": [
        {
          "internalType": "uint16",
          "name": "_newFee",
          "type": "uint16"
        }
      ],
      "name": "setNodeFee",
      "outputs": [],
      "stateMutability": "nonpayable",
      "type": "function"
    },
    {
      "inputs": [
        {
          "internalType": "address",
          "name": "_newTreasury",
          "type": "address"
        }
      ],
      "name": "setTreasuryAddress",
      "outputs": [],
      "stateMutability": "nonpayable",
      "type": "function"
    },
    {
      "inputs": [
        {
          "internalType": "uint16",
          "name": "_newFee",
          "type": "uint16"
        }
      ],
      "name": "setTreasuryFee",
      "outputs": [],
      "stateMutability": "nonpayable",
      "type": "function"
    },
    {
      "inputs": [
        {
          "internalType": "address",
          "name": "newOwner",
          "type": "address"
        }
      ],
      "name": "transferOwnership",
      "outputs": [],
      "stateMutability": "nonpayable",
      "type": "function"
    },
    {
      "inputs": [],
      "name": "treasury",
      "outputs": [
        {
          "internalType": "address",
          "name": "",
          "type": "address"
        }
      ],
      "stateMutability": "view",
      "type": "function"
    },
    {
      "inputs": [],
      "name": "treasuryFee",
      "outputs": [
        {
          "internalType": "uint16",
          "name": "",
          "type": "uint16"
        }
      ],
      "stateMutability": "view",
      "type": "function"
    },
    {
      "inputs": [
        {
          "internalType": "uint256",
          "name": "offerIndex",
          "type": "uint256"
        },
        {
          "internalType": "uint256",
          "name": "rangeIndex",
          "type": "uint256"
        },
        {
          "internalType": "uint256",
          "name": "startToken",
          "type": "uint256"
        },
        {
          "internalType": "uint256",
          "name": "endToken",
          "type": "uint256"
        },
        {
          "internalType": "uint256",
          "name": "price",
          "type": "uint256"
        },
        {
          "internalType": "string",
          "name": "name",
          "type": "string"
        }
      ],
      "name": "updateOfferRange",
      "outputs": [],
      "stateMutability": "nonpayable",
      "type": "function"
    },
    {
      "inputs": [
        {
          "internalType": "address",
          "name": "tokenAddress",
          "type": "address"
        }
      ],
      "name": "validateRoles",
      "outputs": [
        {
          "internalType": "bool",
          "name": "canOffer",
          "type": "bool"
        }
      ],
      "stateMutability": "view",
      "type": "function"
    }
  ],
  "bytecode": "0x608060405234801561001057600080fd5b50612e97806100206000396000f3fe60806040526004361061016a5760003560e01c80638da5cb5b116100cb578063d048db371161007f578063f2fde38b11610059578063f2fde38b14610412578063f416253014610432578063f7ca892a1461045357600080fd5b8063d048db37146103ca578063de2d554b146103df578063e4ccbe6c146103f257600080fd5b8063ca3dba5d116100b0578063ca3dba5d14610354578063cc0f178614610387578063cc32d176146103af57600080fd5b80638da5cb5b14610316578063a652db491461033457600080fd5b806361d027b311610122578063665b64dd11610107578063665b64dd146102c1578063715018a6146102e157806375cb00ea146102f657600080fd5b806361d027b3146102695780636605bfda146102a157600080fd5b80632a1da982116101535780632a1da982146101c45780633539a52c14610219578063607814b21461023957600080fd5b80631c4b995a1461016f578063298640c314610191575b600080fd5b34801561017b57600080fd5b5061018f61018a3660046126f8565b610469565b005b34801561019d57600080fd5b506101b16101ac3660046126d4565b610581565b6040519081526020015b60405180910390f35b3480156101d057600080fd5b506101e46101df3660046128db565b61068e565b6040516101bb94939291906001600160a01b039485168152602081019390935292166040820152606081019190915260800190565b34801561022557600080fd5b5061018f6102343660046129b0565b610943565b34801561024557600080fd5b506102596102543660046126d4565b6109ce565b60405190151581526020016101bb565b34801561027557600080fd5b50606754610289906001600160a01b031681565b6040516001600160a01b0390911681526020016101bb565b3480156102ad57600080fd5b5061018f6102bc3660046126d4565b610bf7565b3480156102cd57600080fd5b5061018f6102dc36600461273d565b610cb3565b3480156102ed57600080fd5b5061018f61114e565b34801561030257600080fd5b5061018f610311366004612a1a565b6111b4565b34801561032257600080fd5b506033546001600160a01b0316610289565b34801561034057600080fd5b5061018f61034f3660046128c0565b611488565b34801561036057600080fd5b5061037461036f3660046128f4565b61153a565b6040516101bb9796959493929190612b15565b34801561039357600080fd5b5061039c600281565b60405161ffff90911681526020016101bb565b3480156103bb57600080fd5b5060695461039c9061ffff1681565b3480156103d657600080fd5b506066546101b1565b61018f6103ed366004612916565b61188f565b3480156103fe57600080fd5b5061018f61040d3660046128c0565b6120d5565b34801561041e57600080fd5b5061018f61042d3660046126d4565b61217d565b34801561043e57600080fd5b5060695461039c9062010000900461ffff1681565b34801561045f57600080fd5b506101b160685481565b600054610100900460ff1680610482575060005460ff16155b6104f95760405162461bcd60e51b815260206004820152602e60248201527f496e697469616c697a61626c653a20636f6e747261637420697320616c72656160448201527f647920696e697469616c697a656400000000000000000000000000000000000060648201526084015b60405180910390fd5b600054610100900460ff1615801561051b576000805461ffff19166101011790555b606780546001600160a01b03861673ffffffffffffffffffffffffffffffffffffffff199091161790556069805461ffff848116620100000263ffffffff19909216908616171790556000606855801561057b576000805461ff00191690555b50505050565b606654600090158015906105da57506001600160a01b0382166000818152606560205260409020546066805490919081106105be576105be612e20565b60009182526020909120600890910201546001600160a01b0316145b6106725760405162461bcd60e51b815260206004820152604760248201527f4d696e74696e67204d61726b6574706c6163653a20436f6e747261637420616460448201527f647265737320646f65736e2774206861766520616e206f66666572206173736f60648201527f6369617465642100000000000000000000000000000000000000000000000000608482015260a4016104f0565b506001600160a01b031660009081526065602052604090205490565b6000806000806000606686815481106106a9576106a9612e20565b60009182526020918290206040805161010081018252600890930290910180546001600160a01b039081168452600182015416838501526002810154838301526003810180548351818702810187019094528084529394919360608601939283018282801561073757602002820191906000526020600020905b815481526020019060010190808311610723575b505050505081526020016004820180548060200260200160405190810160405280929190818152602001828054801561078f57602002820191906000526020600020905b81548152602001906001019080831161077b575b50505050508152602001600582018054806020026020016040519081016040528092919081815260200182805480156107e757602002820191906000526020600020905b8154815260200190600101908083116107d3575b505050505081526020016006820180548060200260200160405190810160405280929190818152602001828054801561083f57602002820191906000526020600020905b81548152602001906001019080831161082b575b5050505050815260200160078201805480602002602001604051908101604052809291908181526020016000905b8282101561091957838290600052602060002001805461088c90612db4565b80601f01602080910402602001604051908101604052809291908181526020018280546108b890612db4565b80156109055780601f106108da57610100808354040283529160200191610905565b820191906000526020600020905b8154815290600101906020018083116108e857829003601f168201915b50505050508152602001906001019061086d565b5050509152505080516040820151602083015160e090930151519199909850919650945092505050565b6109786066878154811061095957610959612e20565b60009182526020909120600890910201546001600160a01b03166109ce565b50610983858561225f565b6109c68686868686868080601f0160208091040260200160405190810160405280939291908181526020018383808284376000920191909152506122fe92505050565b505050505050565b604051632474521560e21b81527ff0887ba65ee2024ea881d91b74c2450ef19e1557f03bed3ea9f16b037cbe2dc960048201523060248201526000906001600160a01b038316906391d148549060440160206040518083038186803b158015610a3657600080fd5b505afa158015610a4a573d6000803e3d6000fd5b505050506040513d601f19601f82011682018060405250810190610a6e919061289e565b610ae05760405162461bcd60e51b815260206004820152603560248201527f4d696e74696e67204d61726b6574706c6163653a2054686973204d61726b657460448201527f706c6163652069736e27742061204d696e74657221000000000000000000000060648201526084016104f0565b604051632474521560e21b81527f3c2519c4487d47714872f92cf90a50c25f5deaec2789dc2a497b1272df611db660048201523360248201526001600160a01b038316906391d148549060440160206040518083038186803b158015610b4557600080fd5b505afa158015610b59573d6000803e3d6000fd5b505050506040513d601f19601f82011682018060405250810190610b7d919061289e565b610bef5760405162461bcd60e51b815260206004820152602e60248201527f4d696e74696e67204d61726b6574706c6163653a2053656e6465722069736e2760448201527f74207468652063726561746f722100000000000000000000000000000000000060648201526084016104f0565b506001919050565b6033546001600160a01b03163314610c515760405162461bcd60e51b815260206004820181905260248201527f4f776e61626c653a2063616c6c6572206973206e6f7420746865206f776e657260448201526064016104f0565b6067805473ffffffffffffffffffffffffffffffffffffffff19166001600160a01b0383169081179091556040519081527f63cc689e9d3377465b51fb094ea4ca5e0a1436b21f1ad30d707c696111c66500906020015b60405180910390a150565b610cbc8b6109ce565b5060665415610d80576001600160a01b038b16600090815260656020526040812054606680549091908110610cf357610cf3612e20565b60009182526020909120600890910201546001600160a01b031614610d805760405162461bcd60e51b815260206004820152602d60248201527f4d696e74696e67204d61726b6574706c6163653a20416e206f6666657220616c60448201527f726561647920657869737473210000000000000000000000000000000000000060648201526084016104f0565b8786148015610d8e57508388145b8015610d9957508184145b610e0d576040805162461bcd60e51b81526020600482015260248101919091527f4d696e74696e67204d61726b6574706c6163653a204f6666657227732072616e60448201527f6765732073686f756c642068617665207468652073616d65206c656e6774682160648201526084016104f0565b6040517f5a1f3c28000000000000000000000000000000000000000000000000000000008152600481018b90526000906001600160a01b038d1690635a1f3c289060240160006040518083038186803b158015610e6957600080fd5b505afa158015610e7d573d6000803e3d6000fd5b505050506040513d6000823e601f3d908101601f19168201604052610ea59190810190612942565b509250505060008111610f205760405162461bcd60e51b815260206004820152603f60248201527f4d696e74696e67204d61726b6574706c6163653a2043616e6e6f74206d696e7460448201527f206d6f726520746f6b656e732066726f6d20746869732050726f64756374210060648201526084016104f0565b6000606660018160018154018082558091505003906000526020600020906008020190508c8160000160006101000a8154816001600160a01b0302191690836001600160a01b03160217905550828160010160006101000a8154816001600160a01b0302191690836001600160a01b031602179055508b816002018190555060005b848110156110b257610fe48c8c83818110610fbf57610fbf612e20565b905060200201358b8b84818110610fd857610fd8612e20565b9050602002013561225f565b6066546110a090610ff790600190612d5a565b8d8d8481811061100957611009612e20565b905060200201358c8c8581811061102257611022612e20565b905060200201358b8b8681811061103b5761103b612e20565b905060200201358a8a8781811061105457611054612e20565b90506020028101906110669190612c70565b8080601f0160208091040260200160405190810160405280939291908181526020018383808284376000920191909152506122fe92505050565b806110aa81612def565b915050610fa2565b506066546110c290600190612d5a565b6001600160a01b038e166000908152606560205260409020556066547f9c82f4230a033475cfb564c6eb24f4ad45139901a657e8edd9a6cd234e354949908e908e90879061111290600190612d5a565b604080516001600160a01b039095168552602085019390935291830152606082015260800160405180910390a150505050505050505050505050565b6033546001600160a01b031633146111a85760405162461bcd60e51b815260206004820181905260248201527f4f776e61626c653a2063616c6c6572206973206e6f7420746865206f776e657260448201526064016104f0565b6111b26000612444565b565b6000606688815481106111c9576111c9612e20565b906000526020600020906008020190508060040187815481106111ee576111ee612e20565b90600052602060002001548511158015611227575080600301878154811061121857611218612e20565b90600052602060002001548610155b6112bf5760405162461bcd60e51b815260206004820152604360248201527f4d696e74696e67204d61726b6574706c6163653a204e6577206c696d6974732060448201527f6d7573742062652077697468696e207468652070726576696f7573206c696d6960648201527f7473210000000000000000000000000000000000000000000000000000000000608482015260a4016104f0565b80546112d3906001600160a01b03166109ce565b506112de868661225f565b6112e88686612d5a565b8160030188815481106112fd576112fd612e20565b906000526020600020015482600401898154811061131d5761131d612e20565b90600052602060002001546113329190612d5a565b61133c9190612d5a565b81600501888154811061135157611351612e20565b90600052602060002001600082825461136a9190612d5a565b925050819055508581600301888154811061138757611387612e20565b9060005260206000200181905550848160040188815481106113ab576113ab612e20565b9060005260206000200181905550838160060188815481106113cf576113cf612e20565b906000526020600020018190555082828260070189815481106113f4576113f4612e20565b90600052602060002001919061140b9291906124a3565b5080546005820180547fd99934f5b053ba28c54ae74875195b688f9367ba5b0c50f5233e692eb91549c8926001600160a01b0316918b918b91908290811061145557611455612e20565b90600052602060002001548888886040516114769796959493929190612aba565b60405180910390a15050505050505050565b6033546001600160a01b031633146114e25760405162461bcd60e51b815260206004820181905260248201527f4f776e61626c653a2063616c6c6572206973206e6f7420746865206f776e657260448201526064016104f0565b6069805461ffff191661ffff8316908117909155606754604080516001600160a01b03909216825260208201929092527f2adb51c26afe364a53c16cd44e82bdf5a52680ad11c64f2dbeb5bdb3764f731d9101610ca8565b6000806000806000806060600060668a8154811061155a5761155a612e20565b60009182526020918290206040805161010081018252600890930290910180546001600160a01b03908116845260018201541683850152600281015483830152600381018054835181870281018701909452808452939491936060860193928301828280156115e857602002820191906000526020600020905b8154815260200190600101908083116115d4575b505050505081526020016004820180548060200260200160405190810160405280929190818152602001828054801561164057602002820191906000526020600020905b81548152602001906001019080831161162c575b505050505081526020016005820180548060200260200160405190810160405280929190818152602001828054801561169857602002820191906000526020600020905b815481526020019060010190808311611684575b50505050508152602001600682018054806020026020016040519081016040528092919081815260200182805480156116f057602002820191906000526020600020905b8154815260200190600101908083116116dc575b5050505050815260200160078201805480602002602001604051908101604052809291908181526020016000905b828210156117ca57838290600052602060002001805461173d90612db4565b80601f016020809104026020016040519081016040528092919081815260200182805461176990612db4565b80156117b65780601f1061178b576101008083540402835291602001916117b6565b820191906000526020600020905b81548152906001019060200180831161179957829003601f168201915b50505050508152602001906001019061171e565b505050508152505090508060000151816040015182606001518b815181106117f4576117f4612e20565b602002602001015183608001518c8151811061181257611812612e20565b60200260200101518460a001518d8151811061183057611830612e20565b60200260200101518560c001518e8151811061184e5761184e612e20565b60200260200101518660e001518f8151811061186c5761186c612e20565b602002602001015197509750975097509750975097505092959891949750929550565b6000606684815481106118a4576118a4612e20565b6000918252602090912060089091020180549091506001600160a01b03166119345760405162461bcd60e51b815260206004820152603160248201527f4d696e74696e67204d61726b6574706c6163653a20496e76616c696420436f6c60448201527f6c656374696f6e2053656c65637465642100000000000000000000000000000060648201526084016104f0565b600581015483106119ad5760405162461bcd60e51b815260206004820152602360248201527f4d696e74696e67204d61726b6574706c6163653a20496e76616c69642072616e60448201527f676521000000000000000000000000000000000000000000000000000000000060648201526084016104f0565b60008160050184815481106119c4576119c4612e20565b906000526020600020015411611a425760405162461bcd60e51b815260206004820152603c60248201527f4d696e74696e67204d61726b6574706c6163653a2043616e6e6f74206d696e7460448201527f206d6f726520746f6b656e7320666f7220746869732072616e6765210000000060648201526084016104f0565b81816003018481548110611a5857611a58612e20565b906000526020600020015411158015611a905750806004018381548110611a8157611a81612e20565b90600052602060002001548211155b611b025760405162461bcd60e51b815260206004820152603e60248201527f4d696e74696e67204d61726b6574706c6163653a20546f6b656e20646f65736e60448201527f27742062656c6f6e6720696e2074686174206f666665722072616e676521000060648201526084016104f0565b806006018381548110611b1757611b17612e20565b9060005260206000200154341015611b975760405162461bcd60e51b815260206004820152602760248201527f4d696e74696e67204d61726b6574706c6163653a20496e737566696369656e7460448201527f2046756e6473210000000000000000000000000000000000000000000000000060648201526084016104f0565b80546040517f01ffc9a70000000000000000000000000000000000000000000000000000000081527fc0aa9aba000000000000000000000000000000000000000000000000000000006004820152600091829182916001600160a01b0316906301ffc9a79060240160206040518083038186803b158015611c1757600080fd5b505afa158015611c2b573d6000803e3d6000fd5b505050506040513d601f19601f82011682018060405250810190611c4f919061289e565b90508015611dc75783546006850180546001600160a01b039092169163c155531d916000918a908110611c8457611c84612e20565b9060005260206000200154876007018a81548110611ca457611ca4612e20565b906000526020600020016040518463ffffffff1660e01b8152600401611ccc93929190612bb8565b60006040518083038186803b158015611ce457600080fd5b505afa158015611cf8573d6000803e3d6000fd5b505050506040513d6000823e601f3d908101601f19168201604052611d209190810190612830565b5060695491945092506001600160a01b038416906108fc90620186a090611d539061ffff62010000820481169116612cb7565b611d649061ffff16620186a0612d36565b62ffffff16876006018a81548110611d7e57611d7e612e20565b9060005260206000200154611d939190612d17565b611d9d9190612cf5565b6040518115909202916000818181858888f19350505050158015611dc5573d6000803e3d6000fd5b505b336001600160a01b03166108fc856006018881548110611de957611de9612e20565b906000526020600020015434611dff9190612d5a565b6040518115909202916000818181858888f19350505050158015611e27573d6000803e3d6000fd5b506067546069546006860180546001600160a01b03909316926108fc92620186a09261ffff909116918b908110611e6057611e60612e20565b9060005260206000200154611e759190612d17565b611e7f9190612cf5565b6040518115909202916000818181858888f19350505050158015611ea7573d6000803e3d6000fd5b5060018401546069546006860180546001600160a01b03909316926108fc92620186a0926201000090910461ffff16918b908110611ee757611ee7612e20565b9060005260206000200154611efc9190612d17565b611f069190612cf5565b6040518115909202916000818181858888f19350505050158015611f2e573d6000803e3d6000fd5b50836005018681548110611f4457611f44612e20565b60009182526020822001805491611f5a83612d9d565b9190505550836005018681548110611f7457611f74612e20565b906000526020600020015460001415611fe95760688054906000611f9783612d9d565b90915550508354604080516001600160a01b0390921682526020820189905281018790527fd7597aa2d6438f91b7d71e7d13764734af94bc7db28326e194bfab67236e58c19060600160405180910390a15b835460028501546040517f156e29f60000000000000000000000000000000000000000000000000000000081523360048201526024810191909152604481018790526001600160a01b039091169063156e29f690606401600060405180830381600087803b15801561205a57600080fd5b505af115801561206e573d6000803e3d6000fd5b50508554604080513381526001600160a01b03909216602083015281018a905260608101899052608081018890527f188c6e7ce5cf6a45f5d4441da49a243005c388c7f4f00137378ba3d058baf01d925060a001905060405180910390a150505050505050565b6033546001600160a01b0316331461212f5760405162461bcd60e51b815260206004820181905260248201527f4f776e61626c653a2063616c6c6572206973206e6f7420746865206f776e657260448201526064016104f0565b6069805463ffff000019166201000061ffff8416908102919091179091556040519081527f6a6cc0807c3fb0910ab842e5fd4c193307b3cff967f1a7d096538e4961884b7090602001610ca8565b6033546001600160a01b031633146121d75760405162461bcd60e51b815260206004820181905260248201527f4f776e61626c653a2063616c6c6572206973206e6f7420746865206f776e657260448201526064016104f0565b6001600160a01b0381166122535760405162461bcd60e51b815260206004820152602660248201527f4f776e61626c653a206e6577206f776e657220697320746865207a65726f206160448201527f646472657373000000000000000000000000000000000000000000000000000060648201526084016104f0565b61225c81612444565b50565b8082106122fa5760405162461bcd60e51b815260206004820152605960248201527f4d696e74696e67204d61726b6574706c6163653a2052616e676527732073746160448201527f7274696e6720746f6b656e2068617320746f206265206c657373207468616e2060648201527f7468652072616e6765277320656e64696e6720746f6b656e2100000000000000608482015260a4016104f0565b5050565b60006066868154811061231357612313612e20565b600091825260208083206003600890930201918201805460018181018355918552828520018990556004830180548083018255908552828520018890556006830180549182018155845292209091018490559050600581016123758686612d5a565b612380906001612cdd565b8154600181810184556000938452602080852090920192909255600784018054928301815583529182902084516123bf93919092019190850190612527565b508054600282015460078301547f5fb7e8962f72a7aa133e869363451a963b669f4833ca29bc394ebd53f121b98f926001600160a01b03169190899061240790600190612d5a565b8989898960405161241f989796959493929190612b62565b60405180910390a16068805490600061243783612def565b9190505550505050505050565b603380546001600160a01b0383811673ffffffffffffffffffffffffffffffffffffffff19831681179093556040519116919082907f8be0079c531659141344cd1fd0a4f28419497f9722a3daafe3b4186f6b6457e090600090a35050565b8280546124af90612db4565b90600052602060002090601f0160209004810192826124d15760008555612517565b82601f106124ea5782800160ff19823516178555612517565b82800160010185558215612517579182015b828111156125175782358255916020019190600101906124fc565b5061252392915061259b565b5090565b82805461253390612db4565b90600052602060002090601f0160209004810192826125555760008555612517565b82601f1061256e57805160ff1916838001178555612517565b82800160010185558215612517579182015b82811115612517578251825591602001919060010190612580565b5b80821115612523576000815560010161259c565b600067ffffffffffffffff808411156125cb576125cb612e36565b604051601f8501601f19908116603f011681019082821181831017156125f3576125f3612e36565b8160405280935085815286868601111561260c57600080fd5b61261a866020830187612d71565b5050509392505050565b803561262f81612e4c565b919050565b60008083601f84011261264657600080fd5b50813567ffffffffffffffff81111561265e57600080fd5b6020830191508360208260051b850101111561267957600080fd5b9250929050565b60008083601f84011261269257600080fd5b50813567ffffffffffffffff8111156126aa57600080fd5b60208301915083602082850101111561267957600080fd5b803561ffff8116811461262f57600080fd5b6000602082840312156126e657600080fd5b81356126f181612e4c565b9392505050565b60008060006060848603121561270d57600080fd5b833561271881612e4c565b9250612726602085016126c2565b9150612734604085016126c2565b90509250925092565b600080600080600080600080600080600060e08c8e03121561275e57600080fd5b6127678c612624565b9a5060208c0135995067ffffffffffffffff8060408e0135111561278a57600080fd5b61279a8e60408f01358f01612634565b909a50985060608d01358110156127b057600080fd5b6127c08e60608f01358f01612634565b909850965060808d01358110156127d657600080fd5b6127e68e60808f01358f01612634565b909650945060a08d01358110156127fc57600080fd5b5061280d8d60a08e01358e01612634565b909350915061281e60c08d01612624565b90509295989b509295989b9093969950565b60008060006060848603121561284557600080fd5b835161285081612e4c565b60208501516040860151919450925067ffffffffffffffff81111561287457600080fd5b8401601f8101861361288557600080fd5b612894868251602084016125b0565b9150509250925092565b6000602082840312156128b057600080fd5b815180151581146126f157600080fd5b6000602082840312156128d257600080fd5b6126f1826126c2565b6000602082840312156128ed57600080fd5b5035919050565b6000806040838503121561290757600080fd5b50508035926020909101359150565b60008060006060848603121561292b57600080fd5b505081359360208301359350604090920135919050565b6000806000806080858703121561295857600080fd5b845193506020850151925060408501519150606085015167ffffffffffffffff81111561298457600080fd5b8501601f8101871361299557600080fd5b6129a4878251602084016125b0565b91505092959194509250565b60008060008060008060a087890312156129c957600080fd5b86359550602087013594506040870135935060608701359250608087013567ffffffffffffffff8111156129fc57600080fd5b612a0889828a01612680565b979a9699509497509295939492505050565b600080600080600080600060c0888a031215612a3557600080fd5b873596506020880135955060408801359450606088013593506080880135925060a088013567ffffffffffffffff811115612a6f57600080fd5b612a7b8a828b01612680565b989b979a50959850939692959293505050565b60008151808452612aa6816020860160208601612d71565b601f01601f19169290920160200192915050565b6001600160a01b038816815286602082015285604082015284606082015283608082015260c060a08201528160c0820152818360e0830137600081830160e090810191909152601f909201601f191601019695505050505050565b6001600160a01b03881681528660208201528560408201528460608201528360808201528260a082015260e060c08201526000612b5560e0830184612a8e565b9998505050505050505050565b60006101006001600160a01b038b1683528960208401528860408401528760608401528660808401528560a08401528460c08401528060e0840152612ba981840185612a8e565b9b9a5050505050505050505050565b838152600060208481840152606060408401526000845481600182811c915080831680612be657607f831692505b858310811415612c0457634e487b7160e01b85526022600452602485fd5b6060880183905260808801818015612c235760018114612c3457612c5f565b60ff19861682528782019650612c5f565b60008b81526020902060005b86811015612c5957815484820152908501908901612c40565b83019750505b50949b9a5050505050505050505050565b6000808335601e19843603018112612c8757600080fd5b83018035915067ffffffffffffffff821115612ca257600080fd5b60200191503681900382131561267957600080fd5b600061ffff808316818516808303821115612cd457612cd4612e0a565b01949350505050565b60008219821115612cf057612cf0612e0a565b500190565b600082612d1257634e487b7160e01b600052601260045260246000fd5b500490565b6000816000190483118215151615612d3157612d31612e0a565b500290565b600062ffffff83811690831681811015612d5257612d52612e0a565b039392505050565b600082821015612d6c57612d6c612e0a565b500390565b60005b83811015612d8c578181015183820152602001612d74565b8381111561057b5750506000910152565b600081612dac57612dac612e0a565b506000190190565b600181811c90821680612dc857607f821691505b60208210811415612de957634e487b7160e01b600052602260045260246000fd5b50919050565b6000600019821415612e0357612e03612e0a565b5060010190565b634e487b7160e01b600052601160045260246000fd5b634e487b7160e01b600052603260045260246000fd5b634e487b7160e01b600052604160045260246000fd5b6001600160a01b038116811461225c57600080fdfea26469706673582212201140c5e706c11c663c06429de7f199c1120335b1db0b2bda25ddc2b2f797c34364736f6c63430008060033",
  "linkReferences": {},
  "deployedLinkReferences": {}
}