{
  "_format": "hh-sol-artifact-1",
  "contractName": "Minter_Marketplace",
  "sourceName": "contracts/Marketplaces/MarketplaceMinter.sol",
  "abi": [
    {
      "anonymous": false,
      "inputs": [
        {
          "indexed": false,
          "internalType": "address",
          "name": "contractAddress",
          "type": "address"
        },
        {
          "indexed": false,
          "internalType": "uint256",
          "name": "collectionIndex",
          "type": "uint256"
        },
        {
          "indexed": false,
          "internalType": "uint256",
          "name": "price",
          "type": "uint256"
        }
      ],
      "name": "AddedCollection",
      "type": "event"
    },
    {
      "anonymous": false,
      "inputs": [
        {
          "indexed": true,
          "internalType": "address",
          "name": "previousOwner",
          "type": "address"
        },
        {
          "indexed": true,
          "internalType": "address",
          "name": "newOwner",
          "type": "address"
        }
      ],
      "name": "OwnershipTransferred",
      "type": "event"
    },
    {
      "anonymous": false,
      "inputs": [
        {
          "indexed": false,
          "internalType": "address",
          "name": "contractAddress",
          "type": "address"
        },
        {
          "indexed": false,
          "internalType": "uint256",
          "name": "catalogIndex",
          "type": "uint256"
        }
      ],
      "name": "SoldOut",
      "type": "event"
    },
    {
      "anonymous": false,
      "inputs": [
        {
          "indexed": false,
          "internalType": "address",
          "name": "ownerAddress",
          "type": "address"
        },
        {
          "indexed": false,
          "internalType": "uint256",
          "name": "catalogIndex",
          "type": "uint256"
        }
      ],
      "name": "TokenMinted",
      "type": "event"
    },
    {
      "anonymous": false,
      "inputs": [
        {
          "indexed": false,
          "internalType": "address",
          "name": "contractAddress",
          "type": "address"
        },
        {
          "indexed": false,
          "internalType": "uint256",
          "name": "collectionIndex",
          "type": "uint256"
        },
        {
          "indexed": false,
          "internalType": "uint256",
          "name": "price",
          "type": "uint256"
        }
      ],
      "name": "UpdatedCollection",
      "type": "event"
    },
    {
      "inputs": [
        {
          "internalType": "address",
          "name": "_tokenAddress",
          "type": "address"
        },
        {
          "internalType": "uint256",
          "name": "_tokensAllowed",
          "type": "uint256"
        },
        {
          "internalType": "uint256",
          "name": "_collectionIndex",
          "type": "uint256"
        },
        {
          "internalType": "uint256",
          "name": "_tokenPrice",
          "type": "uint256"
        },
        {
          "internalType": "address",
          "name": "_nodeAddress",
          "type": "address"
        }
      ],
      "name": "addCollection",
      "outputs": [],
      "stateMutability": "nonpayable",
      "type": "function"
    },
    {
      "inputs": [
        {
          "internalType": "uint256",
          "name": "_collectionID",
          "type": "uint256"
        }
      ],
      "name": "buyToken",
      "outputs": [],
      "stateMutability": "payable",
      "type": "function"
    },
    {
      "inputs": [
        {
          "internalType": "address",
          "name": "",
          "type": "address"
        },
        {
          "internalType": "uint256",
          "name": "",
          "type": "uint256"
        }
      ],
      "name": "contractToOffers",
      "outputs": [
        {
          "internalType": "uint256",
          "name": "",
          "type": "uint256"
        }
      ],
      "stateMutability": "view",
      "type": "function"
    },
    {
      "inputs": [],
      "name": "getCollectionCount",
      "outputs": [
        {
          "internalType": "uint256",
          "name": "",
          "type": "uint256"
        }
      ],
      "stateMutability": "view",
      "type": "function"
    },
    {
      "inputs": [
        {
          "internalType": "uint256",
          "name": "_index",
          "type": "uint256"
        }
      ],
      "name": "getCollectionInfo",
      "outputs": [
        {
          "internalType": "address",
          "name": "contractAddress",
          "type": "address"
        },
        {
          "internalType": "uint256",
          "name": "collectionIndex",
          "type": "uint256"
        },
        {
          "internalType": "uint256",
          "name": "tokensAllowed",
          "type": "uint256"
        },
        {
          "internalType": "uint256",
          "name": "price",
          "type": "uint256"
        }
      ],
      "stateMutability": "view",
      "type": "function"
    },
    {
      "inputs": [
        {
          "internalType": "address",
          "name": "_contract",
          "type": "address"
        }
      ],
      "name": "getOffersFromContract",
      "outputs": [
        {
          "internalType": "uint256[]",
          "name": "",
          "type": "uint256[]"
        }
      ],
      "stateMutability": "view",
      "type": "function"
    },
    {
      "inputs": [
        {
          "internalType": "address",
          "name": "_treasury",
          "type": "address"
        },
        {
          "internalType": "uint16",
          "name": "_treasuryFee",
          "type": "uint16"
        },
        {
          "internalType": "uint16",
          "name": "_nodeFee",
          "type": "uint16"
        }
      ],
      "name": "initialize",
      "outputs": [],
      "stateMutability": "nonpayable",
      "type": "function"
    },
    {
      "inputs": [],
      "name": "nodeFee",
      "outputs": [
        {
          "internalType": "uint16",
          "name": "",
          "type": "uint16"
        }
      ],
      "stateMutability": "view",
      "type": "function"
    },
    {
      "inputs": [],
      "name": "openSales",
      "outputs": [
        {
          "internalType": "uint256",
          "name": "",
          "type": "uint256"
        }
      ],
      "stateMutability": "view",
      "type": "function"
    },
    {
      "inputs": [],
      "name": "owner",
      "outputs": [
        {
          "internalType": "address",
          "name": "",
          "type": "address"
        }
      ],
      "stateMutability": "view",
      "type": "function"
    },
    {
      "inputs": [],
      "name": "renounceOwnership",
      "outputs": [],
      "stateMutability": "nonpayable",
      "type": "function"
    },
    {
      "inputs": [
        {
          "internalType": "address",
          "name": "_newTreasury",
          "type": "address"
        }
      ],
      "name": "setTreasuryAddress",
      "outputs": [],
      "stateMutability": "nonpayable",
      "type": "function"
    },
    {
      "inputs": [
        {
          "internalType": "uint16",
          "name": "_newFee",
          "type": "uint16"
        }
      ],
      "name": "setTreasuryFee",
      "outputs": [],
      "stateMutability": "nonpayable",
      "type": "function"
    },
    {
      "inputs": [
        {
          "internalType": "address",
          "name": "newOwner",
          "type": "address"
        }
      ],
      "name": "transferOwnership",
      "outputs": [],
      "stateMutability": "nonpayable",
      "type": "function"
    },
    {
      "inputs": [],
      "name": "treasury",
      "outputs": [
        {
          "internalType": "address",
          "name": "",
          "type": "address"
        }
      ],
      "stateMutability": "view",
      "type": "function"
    },
    {
      "inputs": [],
      "name": "treasuryFee",
      "outputs": [
        {
          "internalType": "uint16",
          "name": "",
          "type": "uint16"
        }
      ],
      "stateMutability": "view",
      "type": "function"
    },
    {
      "inputs": [
        {
          "internalType": "uint256",
          "name": "_catalogIndex",
          "type": "uint256"
        },
        {
          "internalType": "uint256",
          "name": "_newTokensAllowed",
          "type": "uint256"
        },
        {
          "internalType": "uint256",
          "name": "_tokenPrice",
          "type": "uint256"
        }
      ],
      "name": "updateCollectionSale",
      "outputs": [],
      "stateMutability": "nonpayable",
      "type": "function"
    }
  ],
  "bytecode": "0x608060405234801561001057600080fd5b50611adf806100206000396000f3fe60806040526004361061010e5760003560e01c8063a652db49116100a5578063d4e4d3dd11610074578063f416253011610059578063f41625301461030f578063f7ca892a14610330578063fb8e317b1461034657600080fd5b8063d4e4d3dd146102a5578063f2fde38b146102ef57600080fd5b8063a652db4914610217578063b2fe6ed314610237578063c4ce862514610257578063cc32d1761461027757600080fd5b80636605bfda116100e15780636605bfda146101a4578063715018a6146101c45780637ede0f6b146101d95780638da5cb5b146101f957600080fd5b80631c10106f146101135780631c4b995a146101375780632d296bf11461015957806361d027b31461016c575b600080fd5b34801561011f57600080fd5b506066545b6040519081526020015b60405180910390f35b34801561014357600080fd5b50610157610152366004611715565b610373565b005b610157610167366004611887565b61048b565b34801561017857600080fd5b5060675461018c906001600160a01b031681565b6040516001600160a01b03909116815260200161012e565b3480156101b057600080fd5b506101576101bf3660046116f1565b610a72565b3480156101d057600080fd5b50610157610afb565b3480156101e557600080fd5b506101576101f43660046118a0565b610b61565b34801561020557600080fd5b506033546001600160a01b031661018c565b34801561022357600080fd5b5061015761023236600461186c565b610eec565b34801561024357600080fd5b506101576102523660046117f4565b610f5e565b34801561026357600080fd5b5061012461027236600461175a565b6113d4565b34801561028357600080fd5b506069546102929061ffff1681565b60405161ffff909116815260200161012e565b3480156102b157600080fd5b506102c56102c0366004611887565b611405565b604080516001600160a01b039095168552602085019390935291830152606082015260800161012e565b3480156102fb57600080fd5b5061015761030a3660046116f1565b611492565b34801561031b57600080fd5b506069546102929062010000900461ffff1681565b34801561033c57600080fd5b5061012460685481565b34801561035257600080fd5b506103666103613660046116f1565b611574565b60405161012e919061193a565b600054610100900460ff168061038c575060005460ff16155b6104035760405162461bcd60e51b815260206004820152602e60248201527f496e697469616c697a61626c653a20636f6e747261637420697320616c72656160448201527f647920696e697469616c697a656400000000000000000000000000000000000060648201526084015b60405180910390fd5b600054610100900460ff16158015610425576000805461ffff19166101011790555b606780546001600160a01b03861673ffffffffffffffffffffffffffffffffffffffff199091161790556069805461ffff848116620100000263ffffffff199092169086161717905560006068558015610485576000805461ff00191690555b50505050565b6000606682815481106104a0576104a0611a68565b6000918252602090912060059091020180549091506001600160a01b03166105305760405162461bcd60e51b815260206004820152603160248201527f4d696e74696e67204d61726b6574706c6163653a20496e76616c696420436f6c60448201527f6c656374696f6e2053656c65637465642100000000000000000000000000000060648201526084016103fa565b60008160030154116105aa5760405162461bcd60e51b815260206004820152602d60248201527f4d696e74696e67204d61726b6574706c6163653a2043616e6e6f74206d696e7460448201527f206d6f726520746f6b656e73210000000000000000000000000000000000000060648201526084016103fa565b80600401543410156106245760405162461bcd60e51b815260206004820152602760248201527f4d696e74696e67204d61726b6574706c6163653a20496e737566696369656e7460448201527f2046756e6473210000000000000000000000000000000000000000000000000060648201526084016103fa565b80546040517f01ffc9a70000000000000000000000000000000000000000000000000000000081527fc0aa9aba000000000000000000000000000000000000000000000000000000006004820152600091829182916001600160a01b0316906301ffc9a79060240160206040518083038186803b1580156106a457600080fd5b505afa1580156106b8573d6000803e3d6000fd5b505050506040513d601f19601f820116820180604052508101906106dc919061184a565b9050801561082b5783546004808601546040517fc155531d0000000000000000000000000000000000000000000000000000000081526001600160a01b039093169263c155531d9261074b92600092909101918252602082015260606040820181905260009082015260800190565b60006040518083038186803b15801561076357600080fd5b505afa158015610777573d6000803e3d6000fd5b505050506040513d6000823e601f3d908101601f1916820160405261079f9190810190611786565b5060695491945092506001600160a01b038416906108fc90620186a0906107d29061ffff6201000082048116911661197e565b6107e39061ffff16620186a06119e5565b62ffffff1687600401546107f791906119c6565b61080191906119a4565b6040518115909202916000818181858888f19350505050158015610829573d6000803e3d6000fd5b505b600484015433906108fc906108409034611a09565b6040518115909202916000818181858888f19350505050158015610868573d6000803e3d6000fd5b5060675460695460048601546001600160a01b03909216916108fc91620186a0916108979161ffff16906119c6565b6108a191906119a4565b6040518115909202916000818181858888f193505050501580156108c9573d6000803e3d6000fd5b50600184015460695460048601546001600160a01b03909216916108fc91620186a0916109009162010000900461ffff16906119c6565b61090a91906119a4565b6040518115909202916000818181858888f19350505050158015610932573d6000803e3d6000fd5b5060038401805490600061094583611a20565b909155505060038401546109ae576068805490600061096383611a20565b90915550508354604080516001600160a01b039092168252602082018790527f2d4e4d63ac76d303f78859260d3e896cfeeed6cf5e5ecea330cbcfc2f40642a6910160405180910390a15b835460028501546040517f40c10f1900000000000000000000000000000000000000000000000000000000815233600482015260248101919091526001600160a01b03909116906340c10f1990604401600060405180830381600087803b158015610a1857600080fd5b505af1158015610a2c573d6000803e3d6000fd5b505060408051338152602081018990527fb9144c96c86541f6fa89c9f2f02495cccf4b08cd6643e26d34ee00aa586558a893500190505b60405180910390a15050505050565b6033546001600160a01b03163314610acc5760405162461bcd60e51b815260206004820181905260248201527f4f776e61626c653a2063616c6c6572206973206e6f7420746865206f776e657260448201526064016103fa565b6067805473ffffffffffffffffffffffffffffffffffffffff19166001600160a01b0392909216919091179055565b6033546001600160a01b03163314610b555760405162461bcd60e51b815260206004820181905260248201527f4f776e61626c653a2063616c6c6572206973206e6f7420746865206f776e657260448201526064016103fa565b610b5f60006115e0565b565b600060668481548110610b7657610b76611a68565b6000918252602082206005919091020180546002820154604051630b43e78560e31b815260048101919091529193506001600160a01b031690635a1f3c289060240160006040518083038186803b158015610bd057600080fd5b505afa158015610be4573d6000803e3d6000fd5b505050506040513d6000823e601f3d908101601f19168201604052610c0c91908101906118cc565b509250505080841115610cad5760405162461bcd60e51b815260206004820152605560248201527f4d696e74696e67204d61726b6574706c6163653a204e6577206c696d6974206d60448201527f757374206265206c6f776572206f7220657175616c207468616e20746865207460648201527f6f74616c20616c6c6f77656420746f206d696e74210000000000000000000000608482015260a4016103fa565b8154604051632474521560e21b81527ff0887ba65ee2024ea881d91b74c2450ef19e1557f03bed3ea9f16b037cbe2dc960048201523060248201526001600160a01b03909116906391d148549060440160206040518083038186803b158015610d1557600080fd5b505afa158015610d29573d6000803e3d6000fd5b505050506040513d601f19601f82011682018060405250810190610d4d919061184a565b610dbf5760405162461bcd60e51b815260206004820152603560248201527f4d696e74696e67204d61726b6574706c6163653a2054686973204d61726b657460448201527f706c6163652069736e27742061204d696e74657221000000000000000000000060648201526084016103fa565b8154604051632474521560e21b81527f3c2519c4487d47714872f92cf90a50c25f5deaec2789dc2a497b1272df611db660048201523360248201526001600160a01b03909116906391d148549060440160206040518083038186803b158015610e2757600080fd5b505afa158015610e3b573d6000803e3d6000fd5b505050506040513d601f19601f82011682018060405250810190610e5f919061184a565b610e6857600080fd5b600482018390556003820154158015610e815750600084115b15610e9c5760688054906000610e9683611a37565b91905055505b600382018490558154604080516001600160a01b0390921682526020820186905281018490527f57882ca60c6ab54d7e00e874281ab2485f3f50f36df3fe4208ec42133d04984a90606001610a63565b6033546001600160a01b03163314610f465760405162461bcd60e51b815260206004820181905260248201527f4f776e61626c653a2063616c6c6572206973206e6f7420746865206f776e657260448201526064016103fa565b6069805461ffff191661ffff92909216919091179055565b604051632474521560e21b81527ff0887ba65ee2024ea881d91b74c2450ef19e1557f03bed3ea9f16b037cbe2dc960048201523060248201526001600160a01b038616906391d148549060440160206040518083038186803b158015610fc357600080fd5b505afa158015610fd7573d6000803e3d6000fd5b505050506040513d601f19601f82011682018060405250810190610ffb919061184a565b61106d5760405162461bcd60e51b815260206004820152603560248201527f4d696e74696e67204d61726b6574706c6163653a2054686973204d61726b657460448201527f706c6163652069736e27742061204d696e74657221000000000000000000000060648201526084016103fa565b604051632474521560e21b81527f3c2519c4487d47714872f92cf90a50c25f5deaec2789dc2a497b1272df611db660048201523360248201526001600160a01b038616906391d148549060440160206040518083038186803b1580156110d257600080fd5b505afa1580156110e6573d6000803e3d6000fd5b505050506040513d601f19601f8201168201806040525081019061110a919061184a565b61111357600080fd5b604051630b43e78560e31b8152600481018490526000906001600160a01b03871690635a1f3c289060240160006040518083038186803b15801561115657600080fd5b505afa15801561116a573d6000803e3d6000fd5b505050506040513d6000823e601f3d908101601f1916820160405261119291908101906118cc565b5092505050848110156112335760405162461bcd60e51b815260206004820152604660248201527f4d696e74696e67204d61726b6574706c6163653a20436f6c6c656374696f6e2060448201527f646f65736e277420686176652074686174206d616e7920746f6b656e7320746f60648201527f206d696e74210000000000000000000000000000000000000000000000000000608482015260a4016103fa565b6066805460018101825560009182526005027f46501879b8ca8525e8c2fd519e2fbfcfa2ebea26501294aa02cbfcfb12e94354810180546001600160a01b03808b1673ffffffffffffffffffffffffffffffffffffffff199283161783557f46501879b8ca8525e8c2fd519e2fbfcfa2ebea26501294aa02cbfcfb12e9435584018054918816919092161790557f46501879b8ca8525e8c2fd519e2fbfcfa2ebea26501294aa02cbfcfb12e9435682018790557f46501879b8ca8525e8c2fd519e2fbfcfa2ebea26501294aa02cbfcfb12e9435782018890557f46501879b8ca8525e8c2fd519e2fbfcfa2ebea26501294aa02cbfcfb12e9435890910185905560688054919261134283611a37565b90915550506001600160a01b038716600090815260656020526040902060665461136e90600190611a09565b815460018101835560009283526020928390200155604080516001600160a01b038a16815291820188905281018590527f1fabeb79537a852e5129e9cb93543edf60903d01fd42141c0003e82ca9ac24f59060600160405180910390a150505050505050565b606560205281600052604060002081815481106113f057600080fd5b90600052602060002001600091509150505481565b60008060008060006066868154811061142057611420611a68565b60009182526020918290206040805160a08101825260059390930290910180546001600160a01b03908116808552600183015490911694840194909452600281015491830182905260038101546060840181905260049091015460809093018390529299909850919650945092505050565b6033546001600160a01b031633146114ec5760405162461bcd60e51b815260206004820181905260248201527f4f776e61626c653a2063616c6c6572206973206e6f7420746865206f776e657260448201526064016103fa565b6001600160a01b0381166115685760405162461bcd60e51b815260206004820152602660248201527f4f776e61626c653a206e6577206f776e657220697320746865207a65726f206160448201527f646472657373000000000000000000000000000000000000000000000000000060648201526084016103fa565b611571816115e0565b50565b6001600160a01b0381166000908152606560209081526040918290208054835181840281018401909452808452606093928301828280156115d457602002820191906000526020600020905b8154815260200190600101908083116115c0575b50505050509050919050565b603380546001600160a01b0383811673ffffffffffffffffffffffffffffffffffffffff19831681179093556040519116919082907f8be0079c531659141344cd1fd0a4f28419497f9722a3daafe3b4186f6b6457e090600090a35050565b600067ffffffffffffffff8084111561165a5761165a611a7e565b604051601f8501601f19908116603f0116810190828211818310171561168257611682611a7e565b8160405280935085815286868601111561169b57600080fd5b600092505b858310156116be5782850151602084830101526020830192506116a0565b858311156116d0576000602087830101525b5050509392505050565b803561ffff811681146116ec57600080fd5b919050565b60006020828403121561170357600080fd5b813561170e81611a94565b9392505050565b60008060006060848603121561172a57600080fd5b833561173581611a94565b9250611743602085016116da565b9150611751604085016116da565b90509250925092565b6000806040838503121561176d57600080fd5b823561177881611a94565b946020939093013593505050565b60008060006060848603121561179b57600080fd5b83516117a681611a94565b60208501516040860151919450925067ffffffffffffffff8111156117ca57600080fd5b8401601f810186136117db57600080fd5b6117ea8682516020840161163f565b9150509250925092565b600080600080600060a0868803121561180c57600080fd5b853561181781611a94565b9450602086013593506040860135925060608601359150608086013561183c81611a94565b809150509295509295909350565b60006020828403121561185c57600080fd5b8151801515811461170e57600080fd5b60006020828403121561187e57600080fd5b61170e826116da565b60006020828403121561189957600080fd5b5035919050565b6000806000606084860312156118b557600080fd5b505081359360208301359350604090920135919050565b600080600080608085870312156118e257600080fd5b845193506020850151925060408501519150606085015167ffffffffffffffff81111561190e57600080fd5b8501601f8101871361191f57600080fd5b61192e8782516020840161163f565b91505092959194509250565b6020808252825182820181905260009190848201906040850190845b8181101561197257835183529284019291840191600101611956565b50909695505050505050565b600061ffff80831681851680830382111561199b5761199b611a52565b01949350505050565b6000826119c157634e487b7160e01b600052601260045260246000fd5b500490565b60008160001904831182151516156119e0576119e0611a52565b500290565b600062ffffff83811690831681811015611a0157611a01611a52565b039392505050565b600082821015611a1b57611a1b611a52565b500390565b600081611a2f57611a2f611a52565b506000190190565b6000600019821415611a4b57611a4b611a52565b5060010190565b634e487b7160e01b600052601160045260246000fd5b634e487b7160e01b600052603260045260246000fd5b634e487b7160e01b600052604160045260246000fd5b6001600160a01b038116811461157157600080fdfea264697066735822122081974568152dfb6141af2d4f0e8a98020adcb62106c51da4302f5e732a609c0364736f6c63430008060033",
  "linkReferences": {},
  "deployedLinkReferences": {}
}