{
  "_format": "hh-sol-artifact-1",
  "contractName": "Minter_Marketplace",
  "sourceName": "contracts/MarketplaceMinter.sol",
  "abi": [
    {
      "inputs": [
        {
          "internalType": "address",
          "name": "_treasury",
          "type": "address"
        },
        {
          "internalType": "uint16",
          "name": "_treasuryFee",
          "type": "uint16"
        },
        {
          "internalType": "uint16",
          "name": "_nodeFee",
          "type": "uint16"
        }
      ],
      "stateMutability": "nonpayable",
      "type": "constructor"
    },
    {
      "anonymous": false,
      "inputs": [
        {
          "indexed": false,
          "internalType": "address",
          "name": "contractAddress",
          "type": "address"
        },
        {
          "indexed": false,
          "internalType": "uint256",
          "name": "collectionIndex",
          "type": "uint256"
        },
        {
          "indexed": false,
          "internalType": "uint256",
          "name": "price",
          "type": "uint256"
        }
      ],
      "name": "AddedCollection",
      "type": "event"
    },
    {
      "anonymous": false,
      "inputs": [
        {
          "indexed": true,
          "internalType": "address",
          "name": "previousOwner",
          "type": "address"
        },
        {
          "indexed": true,
          "internalType": "address",
          "name": "newOwner",
          "type": "address"
        }
      ],
      "name": "OwnershipTransferred",
      "type": "event"
    },
    {
      "anonymous": false,
      "inputs": [
        {
          "indexed": false,
          "internalType": "address",
          "name": "contractAddress",
          "type": "address"
        },
        {
          "indexed": false,
          "internalType": "uint256",
          "name": "collectionIndex",
          "type": "uint256"
        },
        {
          "indexed": false,
          "internalType": "uint256",
          "name": "price",
          "type": "uint256"
        }
      ],
      "name": "UpdatedCollection",
      "type": "event"
    },
    {
      "inputs": [
        {
          "internalType": "address",
          "name": "_tokenAddress",
          "type": "address"
        },
        {
          "internalType": "uint256",
          "name": "_tokensAllowed",
          "type": "uint256"
        },
        {
          "internalType": "uint256",
          "name": "_collectionIndex",
          "type": "uint256"
        },
        {
          "internalType": "uint256",
          "name": "_tokenPrice",
          "type": "uint256"
        },
        {
          "internalType": "address",
          "name": "_nodeAddress",
          "type": "address"
        }
      ],
      "name": "addCollection",
      "outputs": [],
      "stateMutability": "nonpayable",
      "type": "function"
    },
    {
      "inputs": [
        {
          "internalType": "uint256",
          "name": "_collectionID",
          "type": "uint256"
        }
      ],
      "name": "buyToken",
      "outputs": [],
      "stateMutability": "payable",
      "type": "function"
    },
    {
      "inputs": [],
      "name": "getCollectionCount",
      "outputs": [
        {
          "internalType": "uint256",
          "name": "",
          "type": "uint256"
        }
      ],
      "stateMutability": "view",
      "type": "function"
    },
    {
      "inputs": [
        {
          "internalType": "uint256",
          "name": "_index",
          "type": "uint256"
        }
      ],
      "name": "getCollectionInfo",
      "outputs": [
        {
          "internalType": "address",
          "name": "",
          "type": "address"
        },
        {
          "internalType": "uint256",
          "name": "",
          "type": "uint256"
        },
        {
          "internalType": "uint256",
          "name": "",
          "type": "uint256"
        },
        {
          "internalType": "uint256",
          "name": "",
          "type": "uint256"
        }
      ],
      "stateMutability": "view",
      "type": "function"
    },
    {
      "inputs": [],
      "name": "nodeFee",
      "outputs": [
        {
          "internalType": "uint16",
          "name": "",
          "type": "uint16"
        }
      ],
      "stateMutability": "view",
      "type": "function"
    },
    {
      "inputs": [],
      "name": "owner",
      "outputs": [
        {
          "internalType": "address",
          "name": "",
          "type": "address"
        }
      ],
      "stateMutability": "view",
      "type": "function"
    },
    {
      "inputs": [],
      "name": "renounceOwnership",
      "outputs": [],
      "stateMutability": "nonpayable",
      "type": "function"
    },
    {
      "inputs": [
        {
          "internalType": "address",
          "name": "_newTreasury",
          "type": "address"
        }
      ],
      "name": "setTreasuryAddress",
      "outputs": [],
      "stateMutability": "nonpayable",
      "type": "function"
    },
    {
      "inputs": [
        {
          "internalType": "uint16",
          "name": "_newFee",
          "type": "uint16"
        }
      ],
      "name": "setTreasuryFee",
      "outputs": [],
      "stateMutability": "nonpayable",
      "type": "function"
    },
    {
      "inputs": [
        {
          "internalType": "address",
          "name": "newOwner",
          "type": "address"
        }
      ],
      "name": "transferOwnership",
      "outputs": [],
      "stateMutability": "nonpayable",
      "type": "function"
    },
    {
      "inputs": [],
      "name": "treasury",
      "outputs": [
        {
          "internalType": "address",
          "name": "",
          "type": "address"
        }
      ],
      "stateMutability": "view",
      "type": "function"
    },
    {
      "inputs": [],
      "name": "treasuryFee",
      "outputs": [
        {
          "internalType": "uint16",
          "name": "",
          "type": "uint16"
        }
      ],
      "stateMutability": "view",
      "type": "function"
    },
    {
      "inputs": [
        {
          "internalType": "uint256",
          "name": "_catalogIndex",
          "type": "uint256"
        },
        {
          "internalType": "uint256",
          "name": "_newTokensAllowed",
          "type": "uint256"
        },
        {
          "internalType": "uint256",
          "name": "_tokenPrice",
          "type": "uint256"
        }
      ],
      "name": "updateCollectionSale",
      "outputs": [],
      "stateMutability": "nonpayable",
      "type": "function"
    }
  ],
  "bytecode": "0x60806040523480156200001157600080fd5b506040516200185b3803806200185b8339810160408190526200003491620000d5565b600080546001600160a01b031916339081178255604051909182917f8be0079c531659141344cd1fd0a4f28419497f9722a3daafe3b4186f6b6457e0908290a350600280546001600160a01b03949094166001600160b01b031990941693909317600160a01b61ffff938416021761ffff60b01b1916600160b01b91909216021790556200012c565b805161ffff81168114620000d057600080fd5b919050565b600080600060608486031215620000eb57600080fd5b83516001600160a01b03811681146200010357600080fd5b92506200011360208501620000bd565b91506200012360408501620000bd565b90509250925092565b61171f806200013c6000396000f3fe6080604052600436106100d25760003560e01c80638da5cb5b1161007f578063cc32d17611610059578063cc32d176146101fa578063d4e4d3dd1461022f578063f2fde38b14610279578063f41625301461029957600080fd5b80638da5cb5b1461019c578063a652db49146101ba578063b2fe6ed3146101da57600080fd5b80636605bfda116100b05780636605bfda14610147578063715018a6146101675780637ede0f6b1461017c57600080fd5b80631c10106f146100d75780632d296bf1146100fa57806361d027b31461010f575b600080fd5b3480156100e357600080fd5b506001546040519081526020015b60405180910390f35b61010d610108366004611523565b6102bb565b005b34801561011b57600080fd5b5060025461012f906001600160a01b031681565b6040516001600160a01b0390911681526020016100f1565b34801561015357600080fd5b5061010d6101623660046113f5565b610833565b34801561017357600080fd5b5061010d6108bc565b34801561018857600080fd5b5061010d61019736600461153c565b61096d565b3480156101a857600080fd5b506000546001600160a01b031661012f565b3480156101c657600080fd5b5061010d6101d53660046114ff565b610cd5565b3480156101e657600080fd5b5061010d6101f5366004611487565b610d6b565b34801561020657600080fd5b5060025461021c90600160a01b900461ffff1681565b60405161ffff90911681526020016100f1565b34801561023b57600080fd5b5061024f61024a366004611523565b61118f565b604080516001600160a01b03909516855260208501939093529183015260608201526080016100f1565b34801561028557600080fd5b5061010d6102943660046113f5565b61121c565b3480156102a557600080fd5b5060025461021c90600160b01b900461ffff1681565b6000600182815481106102d0576102d06116a5565b6000918252602090912060059091020180549091506001600160a01b03166103655760405162461bcd60e51b815260206004820152603160248201527f4d696e74696e67204d61726b6574706c6163653a20496e76616c696420436f6c60448201527f6c656374696f6e2053656c65637465642100000000000000000000000000000060648201526084015b60405180910390fd5b60008160030154116103df5760405162461bcd60e51b815260206004820152602d60248201527f4d696e74696e67204d61726b6574706c6163653a2043616e6e6f74206d696e7460448201527f206d6f726520746f6b656e732100000000000000000000000000000000000000606482015260840161035c565b80600401543410156104595760405162461bcd60e51b815260206004820152602760248201527f4d696e74696e67204d61726b6574706c6163653a20496e737566696369656e7460448201527f2046756e64732100000000000000000000000000000000000000000000000000606482015260840161035c565b80546040517f01ffc9a70000000000000000000000000000000000000000000000000000000081527fc0aa9aba000000000000000000000000000000000000000000000000000000006004820152600091829182916001600160a01b0316906301ffc9a79060240160206040518083038186803b1580156104d957600080fd5b505afa1580156104ed573d6000803e3d6000fd5b505050506040513d601f19601f8201168201806040525081019061051191906114dd565b905080156106865783546004808601546040517fc155531d000000000000000000000000000000000000000000000000000000008152600092810192909252602482015260606044820152600660648201527f524545454545000000000000000000000000000000000000000000000000000060848201526001600160a01b039091169063c155531d9060a40160006040518083038186803b1580156105b657600080fd5b505afa1580156105ca573d6000803e3d6000fd5b505050506040513d6000823e601f3d908101601f191682016040526105f29190810190611419565b5060025491945092506001600160a01b038416906108fc90620186a09061062d9061ffff600160b01b8204811691600160a01b9004166115d6565b61063e9061ffff16620186a061163d565b62ffffff168760040154610652919061161e565b61065c91906115fc565b6040518115909202916000818181858888f19350505050158015610684573d6000803e3d6000fd5b505b600484015433906108fc9061069b9034611661565b6040518115909202916000818181858888f193505050501580156106c3573d6000803e3d6000fd5b5060025460048501546001600160a01b038216916108fc91620186a0916106f691600160a01b90910461ffff169061161e565b61070091906115fc565b6040518115909202916000818181858888f19350505050158015610728573d6000803e3d6000fd5b50600184015460025460048601546001600160a01b03909216916108fc91620186a09161076091600160b01b900461ffff169061161e565b61076a91906115fc565b6040518115909202916000818181858888f19350505050158015610792573d6000803e3d6000fd5b506003840180549060006107a583611678565b9091555050835460028501546040517f40c10f1900000000000000000000000000000000000000000000000000000000815233600482015260248101919091526001600160a01b03909116906340c10f1990604401600060405180830381600087803b15801561081457600080fd5b505af1158015610828573d6000803e3d6000fd5b505050505050505050565b6000546001600160a01b0316331461088d5760405162461bcd60e51b815260206004820181905260248201527f4f776e61626c653a2063616c6c6572206973206e6f7420746865206f776e6572604482015260640161035c565b6002805473ffffffffffffffffffffffffffffffffffffffff19166001600160a01b0392909216919091179055565b6000546001600160a01b031633146109165760405162461bcd60e51b815260206004820181905260248201527f4f776e61626c653a2063616c6c6572206973206e6f7420746865206f776e6572604482015260640161035c565b600080546040516001600160a01b03909116907f8be0079c531659141344cd1fd0a4f28419497f9722a3daafe3b4186f6b6457e0908390a36000805473ffffffffffffffffffffffffffffffffffffffff19169055565b600060018481548110610982576109826116a5565b6000918252602082206005919091020180546002820154604051630b43e78560e31b815260048101919091529193506001600160a01b031690635a1f3c289060240160006040518083038186803b1580156109dc57600080fd5b505afa1580156109f0573d6000803e3d6000fd5b505050506040513d6000823e601f3d908101601f19168201604052610a189190810190611568565b509250505080841115610ab95760405162461bcd60e51b815260206004820152605560248201527f4d696e74696e67204d61726b6574706c6163653a204e6577206c696d6974206d60448201527f757374206265206c6f776572206f7220657175616c207468616e20746865207460648201527f6f74616c20616c6c6f77656420746f206d696e74210000000000000000000000608482015260a40161035c565b8154604051632474521560e21b81527ff0887ba65ee2024ea881d91b74c2450ef19e1557f03bed3ea9f16b037cbe2dc960048201523060248201526001600160a01b03909116906391d148549060440160206040518083038186803b158015610b2157600080fd5b505afa158015610b35573d6000803e3d6000fd5b505050506040513d601f19601f82011682018060405250810190610b5991906114dd565b610bcb5760405162461bcd60e51b815260206004820152603560248201527f4d696e74696e67204d61726b6574706c6163653a2054686973204d61726b657460448201527f706c6163652069736e27742061204d696e746572210000000000000000000000606482015260840161035c565b8154604051632474521560e21b81527f3c2519c4487d47714872f92cf90a50c25f5deaec2789dc2a497b1272df611db660048201523360248201526001600160a01b03909116906391d148549060440160206040518083038186803b158015610c3357600080fd5b505afa158015610c47573d6000803e3d6000fd5b505050506040513d601f19601f82011682018060405250810190610c6b91906114dd565b610c7457600080fd5b60048201839055600382018490558154604080516001600160a01b0390921682526020820186905281018490527f57882ca60c6ab54d7e00e874281ab2485f3f50f36df3fe4208ec42133d04984a9060600160405180910390a15050505050565b6000546001600160a01b03163314610d2f5760405162461bcd60e51b815260206004820181905260248201527f4f776e61626c653a2063616c6c6572206973206e6f7420746865206f776e6572604482015260640161035c565b6002805461ffff909216600160a01b027fffffffffffffffffffff0000ffffffffffffffffffffffffffffffffffffffff909216919091179055565b604051632474521560e21b81527ff0887ba65ee2024ea881d91b74c2450ef19e1557f03bed3ea9f16b037cbe2dc960048201523060248201526001600160a01b038616906391d148549060440160206040518083038186803b158015610dd057600080fd5b505afa158015610de4573d6000803e3d6000fd5b505050506040513d601f19601f82011682018060405250810190610e0891906114dd565b610e7a5760405162461bcd60e51b815260206004820152603560248201527f4d696e74696e67204d61726b6574706c6163653a2054686973204d61726b657460448201527f706c6163652069736e27742061204d696e746572210000000000000000000000606482015260840161035c565b604051632474521560e21b81527f3c2519c4487d47714872f92cf90a50c25f5deaec2789dc2a497b1272df611db660048201523360248201526001600160a01b038616906391d148549060440160206040518083038186803b158015610edf57600080fd5b505afa158015610ef3573d6000803e3d6000fd5b505050506040513d601f19601f82011682018060405250810190610f1791906114dd565b610f2057600080fd5b604051630b43e78560e31b8152600481018490526000906001600160a01b03871690635a1f3c289060240160006040518083038186803b158015610f6357600080fd5b505afa158015610f77573d6000803e3d6000fd5b505050506040513d6000823e601f3d908101601f19168201604052610f9f9190810190611568565b5092505050848110156110405760405162461bcd60e51b815260206004820152604660248201527f4d696e74696e67204d61726b6574706c6163653a20436f6c6c656374696f6e2060448201527f646f65736e277420686176652074686174206d616e7920746f6b656e7320746f60648201527f206d696e74210000000000000000000000000000000000000000000000000000608482015260a40161035c565b6001805480820182556000919091527fb10e2d527612073b26eecdfd717e6a320cf44b4afac2b0732d9fcbe2b7fa0cf66005909102908101805473ffffffffffffffffffffffffffffffffffffffff199081166001600160a01b038a811691821784557fb10e2d527612073b26eecdfd717e6a320cf44b4afac2b0732d9fcbe2b7fa0cf785018054909316908716179091557fb10e2d527612073b26eecdfd717e6a320cf44b4afac2b0732d9fcbe2b7fa0cf883018790557fb10e2d527612073b26eecdfd717e6a320cf44b4afac2b0732d9fcbe2b7fa0cf983018890557fb10e2d527612073b26eecdfd717e6a320cf44b4afac2b0732d9fcbe2b7fa0cfa90920185905560408051928352602083018890528201859052907f1fabeb79537a852e5129e9cb93543edf60903d01fd42141c0003e82ca9ac24f59060600160405180910390a150505050505050565b6000806000806000600186815481106111aa576111aa6116a5565b60009182526020918290206040805160a08101825260059390930290910180546001600160a01b03908116808552600183015490911694840194909452600281015491830182905260038101546060840181905260049091015460809093018390529299909850919650945092505050565b6000546001600160a01b031633146112765760405162461bcd60e51b815260206004820181905260248201527f4f776e61626c653a2063616c6c6572206973206e6f7420746865206f776e6572604482015260640161035c565b6001600160a01b0381166112f25760405162461bcd60e51b815260206004820152602660248201527f4f776e61626c653a206e6577206f776e657220697320746865207a65726f206160448201527f6464726573730000000000000000000000000000000000000000000000000000606482015260840161035c565b600080546040516001600160a01b03808516939216917f8be0079c531659141344cd1fd0a4f28419497f9722a3daafe3b4186f6b6457e091a36000805473ffffffffffffffffffffffffffffffffffffffff19166001600160a01b0392909216919091179055565b600067ffffffffffffffff80841115611375576113756116bb565b604051601f8501601f19908116603f0116810190828211818310171561139d5761139d6116bb565b816040528093508581528686860111156113b657600080fd5b600092505b858310156113d95782850151602084830101526020830192506113bb565b858311156113eb576000602087830101525b5050509392505050565b60006020828403121561140757600080fd5b8135611412816116d1565b9392505050565b60008060006060848603121561142e57600080fd5b8351611439816116d1565b60208501516040860151919450925067ffffffffffffffff81111561145d57600080fd5b8401601f8101861361146e57600080fd5b61147d8682516020840161135a565b9150509250925092565b600080600080600060a0868803121561149f57600080fd5b85356114aa816116d1565b945060208601359350604086013592506060860135915060808601356114cf816116d1565b809150509295509295909350565b6000602082840312156114ef57600080fd5b8151801515811461141257600080fd5b60006020828403121561151157600080fd5b813561ffff8116811461141257600080fd5b60006020828403121561153557600080fd5b5035919050565b60008060006060848603121561155157600080fd5b505081359360208301359350604090920135919050565b6000806000806080858703121561157e57600080fd5b845193506020850151925060408501519150606085015167ffffffffffffffff8111156115aa57600080fd5b8501601f810187136115bb57600080fd5b6115ca8782516020840161135a565b91505092959194509250565b600061ffff8083168185168083038211156115f3576115f361168f565b01949350505050565b60008261161957634e487b7160e01b600052601260045260246000fd5b500490565b60008160001904831182151516156116385761163861168f565b500290565b600062ffffff838116908316818110156116595761165961168f565b039392505050565b6000828210156116735761167361168f565b500390565b6000816116875761168761168f565b506000190190565b634e487b7160e01b600052601160045260246000fd5b634e487b7160e01b600052603260045260246000fd5b634e487b7160e01b600052604160045260246000fd5b6001600160a01b03811681146116e657600080fd5b5056fea26469706673582212205c5fe8ca40098ff0f5260ba1d6147dc98d69d57f302848b250d29a14fc46f76464736f6c63430008060033",
  "linkReferences": {},
  "deployedLinkReferences": {}
}