{
  "_format": "hh-sol-artifact-1",
  "contractName": "Minter_Marketplace",
  "sourceName": "contracts/Marketplaces/MarketplaceMinter.sol",
  "abi": [
    {
      "anonymous": false,
      "inputs": [
        {
          "indexed": false,
          "internalType": "address",
          "name": "contractAddress",
          "type": "address"
        },
        {
          "indexed": false,
          "internalType": "uint256",
          "name": "productIndex",
          "type": "uint256"
        },
        {
          "indexed": false,
          "internalType": "uint256",
          "name": "rangesCreated",
          "type": "uint256"
        },
        {
          "indexed": false,
          "internalType": "uint256",
          "name": "catalogIndex",
          "type": "uint256"
        }
      ],
      "name": "AddedOffer",
      "type": "event"
    },
    {
      "anonymous": false,
      "inputs": [
        {
          "indexed": false,
          "internalType": "address",
          "name": "contractAddress",
          "type": "address"
        },
        {
          "indexed": false,
          "internalType": "uint256",
          "name": "offerIndex",
          "type": "uint256"
        },
        {
          "indexed": false,
          "internalType": "uint256",
          "name": "rangeIndex",
          "type": "uint256"
        }
      ],
      "name": "AppendedOffer",
      "type": "event"
    },
    {
      "anonymous": false,
      "inputs": [
        {
          "indexed": false,
          "internalType": "uint16",
          "name": "newNodeFee",
          "type": "uint16"
        }
      ],
      "name": "ChangedNodeFee",
      "type": "event"
    },
    {
      "anonymous": false,
      "inputs": [
        {
          "indexed": false,
          "internalType": "address",
          "name": "newTreasury",
          "type": "address"
        }
      ],
      "name": "ChangedTreasury",
      "type": "event"
    },
    {
      "anonymous": false,
      "inputs": [
        {
          "indexed": false,
          "internalType": "address",
          "name": "treasury",
          "type": "address"
        },
        {
          "indexed": false,
          "internalType": "uint16",
          "name": "newTreasuryFee",
          "type": "uint16"
        }
      ],
      "name": "ChangedTreasuryFee",
      "type": "event"
    },
    {
      "anonymous": false,
      "inputs": [
        {
          "indexed": true,
          "internalType": "address",
          "name": "previousOwner",
          "type": "address"
        },
        {
          "indexed": true,
          "internalType": "address",
          "name": "newOwner",
          "type": "address"
        }
      ],
      "name": "OwnershipTransferred",
      "type": "event"
    },
    {
      "anonymous": false,
      "inputs": [
        {
          "indexed": false,
          "internalType": "address",
          "name": "contractAddress",
          "type": "address"
        },
        {
          "indexed": false,
          "internalType": "uint256",
          "name": "catalogIndex",
          "type": "uint256"
        },
        {
          "indexed": false,
          "internalType": "uint256",
          "name": "rangeIndex",
          "type": "uint256"
        }
      ],
      "name": "SoldOut",
      "type": "event"
    },
    {
      "anonymous": false,
      "inputs": [
        {
          "indexed": false,
          "internalType": "address",
          "name": "ownerAddress",
          "type": "address"
        },
        {
          "indexed": false,
          "internalType": "uint256",
          "name": "catalogIndex",
          "type": "uint256"
        },
        {
          "indexed": false,
          "internalType": "uint256",
          "name": "rangeIndex",
          "type": "uint256"
        }
      ],
      "name": "TokenMinted",
      "type": "event"
    },
    {
      "anonymous": false,
      "inputs": [
        {
          "indexed": false,
          "internalType": "address",
          "name": "contractAddress",
          "type": "address"
        },
        {
          "indexed": false,
          "internalType": "uint256",
          "name": "offerIndex",
          "type": "uint256"
        },
        {
          "indexed": false,
          "internalType": "uint256",
          "name": "rangeIndex",
          "type": "uint256"
        },
        {
          "indexed": false,
          "internalType": "uint256",
          "name": "tokens",
          "type": "uint256"
        },
        {
          "indexed": false,
          "internalType": "uint256",
          "name": "price",
          "type": "uint256"
        },
        {
          "indexed": false,
          "internalType": "string",
          "name": "name",
          "type": "string"
        }
      ],
      "name": "UpdatedOffer",
      "type": "event"
    },
    {
      "inputs": [
        {
          "internalType": "address",
          "name": "_tokenAddress",
          "type": "address"
        },
        {
          "internalType": "uint256",
          "name": "_productIndex",
          "type": "uint256"
        },
        {
          "internalType": "uint256[]",
          "name": "_rangeStartToken",
          "type": "uint256[]"
        },
        {
          "internalType": "uint256[]",
          "name": "_rangeEndToken",
          "type": "uint256[]"
        },
        {
          "internalType": "uint256[]",
          "name": "_rangePrice",
          "type": "uint256[]"
        },
        {
          "internalType": "string[]",
          "name": "_rangeName",
          "type": "string[]"
        },
        {
          "internalType": "address",
          "name": "_nodeAddress",
          "type": "address"
        }
      ],
      "name": "addOffer",
      "outputs": [],
      "stateMutability": "nonpayable",
      "type": "function"
    },
    {
      "inputs": [
        {
          "internalType": "uint256",
          "name": "offerIndex",
          "type": "uint256"
        },
        {
          "internalType": "uint256",
          "name": "startToken",
          "type": "uint256"
        },
        {
          "internalType": "uint256",
          "name": "endToken",
          "type": "uint256"
        },
        {
          "internalType": "uint256",
          "name": "price",
          "type": "uint256"
        },
        {
          "internalType": "string",
          "name": "name",
          "type": "string"
        }
      ],
      "name": "appendOfferRange",
      "outputs": [],
      "stateMutability": "nonpayable",
      "type": "function"
    },
    {
      "inputs": [
        {
          "internalType": "uint256",
          "name": "catalogIndex",
          "type": "uint256"
        },
        {
          "internalType": "uint256",
          "name": "rangeIndex",
          "type": "uint256"
        },
        {
          "internalType": "uint256",
          "name": "internalTokenIndex",
          "type": "uint256"
        }
      ],
      "name": "buyToken",
      "outputs": [],
      "stateMutability": "payable",
      "type": "function"
    },
    {
      "inputs": [
        {
          "internalType": "address",
          "name": "",
          "type": "address"
        }
      ],
      "name": "contractToOffer",
      "outputs": [
        {
          "internalType": "uint256",
          "name": "",
          "type": "uint256"
        }
      ],
      "stateMutability": "view",
      "type": "function"
    },
    {
      "inputs": [],
      "name": "feeDecimals",
      "outputs": [
        {
          "internalType": "uint16",
          "name": "",
          "type": "uint16"
        }
      ],
      "stateMutability": "view",
      "type": "function"
    },
    {
      "inputs": [],
      "name": "getOfferCount",
      "outputs": [
        {
          "internalType": "uint256",
          "name": "",
          "type": "uint256"
        }
      ],
      "stateMutability": "view",
      "type": "function"
    },
    {
      "inputs": [
        {
          "internalType": "uint256",
          "name": "_index",
          "type": "uint256"
        }
      ],
      "name": "getOfferInfo",
      "outputs": [
        {
          "internalType": "address",
          "name": "contractAddress",
          "type": "address"
        },
        {
          "internalType": "uint256",
          "name": "productIndex",
          "type": "uint256"
        },
        {
          "internalType": "address",
          "name": "nodeAddress",
          "type": "address"
        },
        {
          "internalType": "uint256",
          "name": "availableRanges",
          "type": "uint256"
        }
      ],
      "stateMutability": "view",
      "type": "function"
    },
    {
      "inputs": [
        {
          "internalType": "uint256",
          "name": "offerIndex",
          "type": "uint256"
        },
        {
          "internalType": "uint256",
          "name": "rangeIndex",
          "type": "uint256"
        }
      ],
      "name": "getOfferRangeInfo",
      "outputs": [
        {
          "internalType": "address",
          "name": "contractAddress",
          "type": "address"
        },
        {
          "internalType": "uint256",
          "name": "collectionIndex",
          "type": "uint256"
        },
        {
          "internalType": "uint256",
          "name": "tokenStart",
          "type": "uint256"
        },
        {
          "internalType": "uint256",
          "name": "tokenEnd",
          "type": "uint256"
        },
        {
          "internalType": "uint256",
          "name": "tokensAllowed",
          "type": "uint256"
        },
        {
          "internalType": "uint256",
          "name": "price",
          "type": "uint256"
        },
        {
          "internalType": "string",
          "name": "name",
          "type": "string"
        }
      ],
      "stateMutability": "view",
      "type": "function"
    },
    {
      "inputs": [
        {
          "internalType": "address",
          "name": "_treasury",
          "type": "address"
        },
        {
          "internalType": "uint16",
          "name": "_treasuryFee",
          "type": "uint16"
        },
        {
          "internalType": "uint16",
          "name": "_nodeFee",
          "type": "uint16"
        }
      ],
      "name": "initialize",
      "outputs": [],
      "stateMutability": "nonpayable",
      "type": "function"
    },
    {
      "inputs": [],
      "name": "nodeFee",
      "outputs": [
        {
          "internalType": "uint16",
          "name": "",
          "type": "uint16"
        }
      ],
      "stateMutability": "view",
      "type": "function"
    },
    {
      "inputs": [],
      "name": "openSales",
      "outputs": [
        {
          "internalType": "uint256",
          "name": "",
          "type": "uint256"
        }
      ],
      "stateMutability": "view",
      "type": "function"
    },
    {
      "inputs": [],
      "name": "owner",
      "outputs": [
        {
          "internalType": "address",
          "name": "",
          "type": "address"
        }
      ],
      "stateMutability": "view",
      "type": "function"
    },
    {
      "inputs": [],
      "name": "renounceOwnership",
      "outputs": [],
      "stateMutability": "nonpayable",
      "type": "function"
    },
    {
      "inputs": [
        {
          "internalType": "uint16",
          "name": "_newFee",
          "type": "uint16"
        }
      ],
      "name": "setNodeFee",
      "outputs": [],
      "stateMutability": "nonpayable",
      "type": "function"
    },
    {
      "inputs": [
        {
          "internalType": "address",
          "name": "_newTreasury",
          "type": "address"
        }
      ],
      "name": "setTreasuryAddress",
      "outputs": [],
      "stateMutability": "nonpayable",
      "type": "function"
    },
    {
      "inputs": [
        {
          "internalType": "uint16",
          "name": "_newFee",
          "type": "uint16"
        }
      ],
      "name": "setTreasuryFee",
      "outputs": [],
      "stateMutability": "nonpayable",
      "type": "function"
    },
    {
      "inputs": [
        {
          "internalType": "address",
          "name": "newOwner",
          "type": "address"
        }
      ],
      "name": "transferOwnership",
      "outputs": [],
      "stateMutability": "nonpayable",
      "type": "function"
    },
    {
      "inputs": [],
      "name": "treasury",
      "outputs": [
        {
          "internalType": "address",
          "name": "",
          "type": "address"
        }
      ],
      "stateMutability": "view",
      "type": "function"
    },
    {
      "inputs": [],
      "name": "treasuryFee",
      "outputs": [
        {
          "internalType": "uint16",
          "name": "",
          "type": "uint16"
        }
      ],
      "stateMutability": "view",
      "type": "function"
    },
    {
      "inputs": [
        {
          "internalType": "uint256",
          "name": "offerIndex",
          "type": "uint256"
        },
        {
          "internalType": "uint256",
          "name": "rangeIndex",
          "type": "uint256"
        },
        {
          "internalType": "uint256",
          "name": "startToken",
          "type": "uint256"
        },
        {
          "internalType": "uint256",
          "name": "endToken",
          "type": "uint256"
        },
        {
          "internalType": "uint256",
          "name": "price",
          "type": "uint256"
        },
        {
          "internalType": "string",
          "name": "name",
          "type": "string"
        }
      ],
      "name": "updateOfferRange",
      "outputs": [],
      "stateMutability": "nonpayable",
      "type": "function"
    },
    {
      "inputs": [
        {
          "internalType": "address",
          "name": "tokenAddress",
          "type": "address"
        }
      ],
      "name": "validateRoles",
      "outputs": [
        {
          "internalType": "bool",
          "name": "canOffer",
          "type": "bool"
        }
      ],
      "stateMutability": "view",
      "type": "function"
    }
  ],
  "bytecode": "0x608060405234801561001057600080fd5b50612d07806100206000396000f3fe60806040526004361061016a5760003560e01c80638da5cb5b116100cb578063d048db371161007f578063f2fde38b11610059578063f2fde38b1461041f578063f41625301461043f578063f7ca892a1461046057600080fd5b8063d048db37146103d7578063de2d554b146103ec578063e4ccbe6c146103ff57600080fd5b8063ca3dba5d116100b0578063ca3dba5d14610361578063cc0f178614610394578063cc32d176146103bc57600080fd5b80638da5cb5b14610323578063a652db491461034157600080fd5b806361d027b311610122578063665b64dd11610107578063665b64dd146102ce578063715018a6146102ee57806375cb00ea1461030357600080fd5b806361d027b3146102765780636605bfda146102ae57600080fd5b80632a1da982116101535780632a1da982146101d15780633539a52c14610226578063607814b21461024657600080fd5b80631c4b995a1461016f578063298640c314610191575b600080fd5b34801561017b57600080fd5b5061018f61018a3660046125cd565b610476565b005b34801561019d57600080fd5b506101be6101ac3660046125a9565b60656020526000908152604090205481565b6040519081526020015b60405180910390f35b3480156101dd57600080fd5b506101f16101ec3660046127b0565b61058e565b6040516101c894939291906001600160a01b039485168152602081019390935292166040820152606081019190915260800190565b34801561023257600080fd5b5061018f610241366004612885565b610843565b34801561025257600080fd5b506102666102613660046125a9565b6108ce565b60405190151581526020016101c8565b34801561028257600080fd5b50606754610296906001600160a01b031681565b6040516001600160a01b0390911681526020016101c8565b3480156102ba57600080fd5b5061018f6102c93660046125a9565b610af7565b3480156102da57600080fd5b5061018f6102e9366004612612565b610bb3565b3480156102fa57600080fd5b5061018f61104e565b34801561030f57600080fd5b5061018f61031e3660046128ef565b6110b4565b34801561032f57600080fd5b506033546001600160a01b0316610296565b34801561034d57600080fd5b5061018f61035c366004612795565b611388565b34801561036d57600080fd5b5061038161037c3660046127c9565b61143a565b6040516101c897969594939291906129be565b3480156103a057600080fd5b506103a9600281565b60405161ffff90911681526020016101c8565b3480156103c857600080fd5b506069546103a99061ffff1681565b3480156103e357600080fd5b506066546101be565b61018f6103fa3660046127eb565b61178f565b34801561040b57600080fd5b5061018f61041a366004612795565b611fbd565b34801561042b57600080fd5b5061018f61043a3660046125a9565b612065565b34801561044b57600080fd5b506069546103a99062010000900461ffff1681565b34801561046c57600080fd5b506101be60685481565b600054610100900460ff168061048f575060005460ff16155b6105065760405162461bcd60e51b815260206004820152602e60248201527f496e697469616c697a61626c653a20636f6e747261637420697320616c72656160448201527f647920696e697469616c697a656400000000000000000000000000000000000060648201526084015b60405180910390fd5b600054610100900460ff16158015610528576000805461ffff19166101011790555b606780546001600160a01b03861673ffffffffffffffffffffffffffffffffffffffff199091161790556069805461ffff848116620100000263ffffffff199092169086161717905560006068558015610588576000805461ff00191690555b50505050565b6000806000806000606686815481106105a9576105a9612c90565b60009182526020918290206040805161010081018252600890930290910180546001600160a01b039081168452600182015416838501526002810154838301526003810180548351818702810187019094528084529394919360608601939283018282801561063757602002820191906000526020600020905b815481526020019060010190808311610623575b505050505081526020016004820180548060200260200160405190810160405280929190818152602001828054801561068f57602002820191906000526020600020905b81548152602001906001019080831161067b575b50505050508152602001600582018054806020026020016040519081016040528092919081815260200182805480156106e757602002820191906000526020600020905b8154815260200190600101908083116106d3575b505050505081526020016006820180548060200260200160405190810160405280929190818152602001828054801561073f57602002820191906000526020600020905b81548152602001906001019080831161072b575b5050505050815260200160078201805480602002602001604051908101604052809291908181526020016000905b8282101561081957838290600052602060002001805461078c90612c24565b80601f01602080910402602001604051908101604052809291908181526020018280546107b890612c24565b80156108055780601f106107da57610100808354040283529160200191610805565b820191906000526020600020905b8154815290600101906020018083116107e857829003601f168201915b50505050508152602001906001019061076d565b5050509152505080516040820151602083015160e090930151519199909850919650945092505050565b6108786066878154811061085957610859612c90565b60009182526020909120600890910201546001600160a01b03166108ce565b506108838585612147565b6108c68686868686868080601f0160208091040260200160405190810160405280939291908181526020018383808284376000920191909152506121e692505050565b505050505050565b604051632474521560e21b81527ff0887ba65ee2024ea881d91b74c2450ef19e1557f03bed3ea9f16b037cbe2dc960048201523060248201526000906001600160a01b038316906391d148549060440160206040518083038186803b15801561093657600080fd5b505afa15801561094a573d6000803e3d6000fd5b505050506040513d601f19601f8201168201806040525081019061096e9190612773565b6109e05760405162461bcd60e51b815260206004820152603560248201527f4d696e74696e67204d61726b6574706c6163653a2054686973204d61726b657460448201527f706c6163652069736e27742061204d696e74657221000000000000000000000060648201526084016104fd565b604051632474521560e21b81527f3c2519c4487d47714872f92cf90a50c25f5deaec2789dc2a497b1272df611db660048201523360248201526001600160a01b038316906391d148549060440160206040518083038186803b158015610a4557600080fd5b505afa158015610a59573d6000803e3d6000fd5b505050506040513d601f19601f82011682018060405250810190610a7d9190612773565b610aef5760405162461bcd60e51b815260206004820152602e60248201527f4d696e74696e67204d61726b6574706c6163653a2053656e6465722069736e2760448201527f74207468652063726561746f722100000000000000000000000000000000000060648201526084016104fd565b506001919050565b6033546001600160a01b03163314610b515760405162461bcd60e51b815260206004820181905260248201527f4f776e61626c653a2063616c6c6572206973206e6f7420746865206f776e657260448201526064016104fd565b6067805473ffffffffffffffffffffffffffffffffffffffff19166001600160a01b0383169081179091556040519081527f63cc689e9d3377465b51fb094ea4ca5e0a1436b21f1ad30d707c696111c66500906020015b60405180910390a150565b610bbc8b6108ce565b5060665415610c80576001600160a01b038b16600090815260656020526040812054606680549091908110610bf357610bf3612c90565b60009182526020909120600890910201546001600160a01b031614610c805760405162461bcd60e51b815260206004820152602d60248201527f4d696e74696e67204d61726b6574706c6163653a20416e206f6666657220616c60448201527f726561647920657869737473210000000000000000000000000000000000000060648201526084016104fd565b8786148015610c8e57508388145b8015610c9957508184145b610d0d576040805162461bcd60e51b81526020600482015260248101919091527f4d696e74696e67204d61726b6574706c6163653a204f6666657227732072616e60448201527f6765732073686f756c642068617665207468652073616d65206c656e6774682160648201526084016104fd565b6040517f5a1f3c28000000000000000000000000000000000000000000000000000000008152600481018b90526000906001600160a01b038d1690635a1f3c289060240160006040518083038186803b158015610d6957600080fd5b505afa158015610d7d573d6000803e3d6000fd5b505050506040513d6000823e601f3d908101601f19168201604052610da59190810190612817565b509250505060008111610e205760405162461bcd60e51b815260206004820152603f60248201527f4d696e74696e67204d61726b6574706c6163653a2043616e6e6f74206d696e7460448201527f206d6f726520746f6b656e732066726f6d20746869732050726f64756374210060648201526084016104fd565b6000606660018160018154018082558091505003906000526020600020906008020190508c8160000160006101000a8154816001600160a01b0302191690836001600160a01b03160217905550828160010160006101000a8154816001600160a01b0302191690836001600160a01b031602179055508b816002018190555060005b84811015610fb257610ee48c8c83818110610ebf57610ebf612c90565b905060200201358b8b84818110610ed857610ed8612c90565b90506020020135612147565b606654610fa090610ef790600190612bca565b8d8d84818110610f0957610f09612c90565b905060200201358c8c85818110610f2257610f22612c90565b905060200201358b8b86818110610f3b57610f3b612c90565b905060200201358a8a87818110610f5457610f54612c90565b9050602002810190610f669190612ae0565b8080601f0160208091040260200160405190810160405280939291908181526020018383808284376000920191909152506121e692505050565b80610faa81612c5f565b915050610ea2565b50606654610fc290600190612bca565b6001600160a01b038e166000908152606560205260409020556066547f9c82f4230a033475cfb564c6eb24f4ad45139901a657e8edd9a6cd234e354949908e908e90879061101290600190612bca565b604080516001600160a01b039095168552602085019390935291830152606082015260800160405180910390a150505050505050505050505050565b6033546001600160a01b031633146110a85760405162461bcd60e51b815260206004820181905260248201527f4f776e61626c653a2063616c6c6572206973206e6f7420746865206f776e657260448201526064016104fd565b6110b26000612319565b565b6000606688815481106110c9576110c9612c90565b906000526020600020906008020190508060040187815481106110ee576110ee612c90565b90600052602060002001548511158015611127575080600301878154811061111857611118612c90565b90600052602060002001548610155b6111bf5760405162461bcd60e51b815260206004820152604360248201527f4d696e74696e67204d61726b6574706c6163653a204e6577206c696d6974732060448201527f6d7573742062652077697468696e207468652070726576696f7573206c696d6960648201527f7473210000000000000000000000000000000000000000000000000000000000608482015260a4016104fd565b80546111d3906001600160a01b03166108ce565b506111de8686612147565b6111e88686612bca565b8160030188815481106111fd576111fd612c90565b906000526020600020015482600401898154811061121d5761121d612c90565b90600052602060002001546112329190612bca565b61123c9190612bca565b81600501888154811061125157611251612c90565b90600052602060002001600082825461126a9190612bca565b925050819055508581600301888154811061128757611287612c90565b9060005260206000200181905550848160040188815481106112ab576112ab612c90565b9060005260206000200181905550838160060188815481106112cf576112cf612c90565b906000526020600020018190555082828260070189815481106112f4576112f4612c90565b90600052602060002001919061130b929190612378565b5080546005820180547fd99934f5b053ba28c54ae74875195b688f9367ba5b0c50f5233e692eb91549c8926001600160a01b0316918b918b91908290811061135557611355612c90565b90600052602060002001548888886040516113769796959493929190612963565b60405180910390a15050505050505050565b6033546001600160a01b031633146113e25760405162461bcd60e51b815260206004820181905260248201527f4f776e61626c653a2063616c6c6572206973206e6f7420746865206f776e657260448201526064016104fd565b6069805461ffff191661ffff8316908117909155606754604080516001600160a01b03909216825260208201929092527f2adb51c26afe364a53c16cd44e82bdf5a52680ad11c64f2dbeb5bdb3764f731d9101610ba8565b6000806000806000806060600060668a8154811061145a5761145a612c90565b60009182526020918290206040805161010081018252600890930290910180546001600160a01b03908116845260018201541683850152600281015483830152600381018054835181870281018701909452808452939491936060860193928301828280156114e857602002820191906000526020600020905b8154815260200190600101908083116114d4575b505050505081526020016004820180548060200260200160405190810160405280929190818152602001828054801561154057602002820191906000526020600020905b81548152602001906001019080831161152c575b505050505081526020016005820180548060200260200160405190810160405280929190818152602001828054801561159857602002820191906000526020600020905b815481526020019060010190808311611584575b50505050508152602001600682018054806020026020016040519081016040528092919081815260200182805480156115f057602002820191906000526020600020905b8154815260200190600101908083116115dc575b5050505050815260200160078201805480602002602001604051908101604052809291908181526020016000905b828210156116ca57838290600052602060002001805461163d90612c24565b80601f016020809104026020016040519081016040528092919081815260200182805461166990612c24565b80156116b65780601f1061168b576101008083540402835291602001916116b6565b820191906000526020600020905b81548152906001019060200180831161169957829003601f168201915b50505050508152602001906001019061161e565b505050508152505090508060000151816040015182608001518b815181106116f4576116f4612c90565b602002602001015183606001518c8151811061171257611712612c90565b60200260200101518460a001518d8151811061173057611730612c90565b60200260200101518560c001518e8151811061174e5761174e612c90565b60200260200101518660e001518f8151811061176c5761176c612c90565b602002602001015197509750975097509750975097505092959891949750929550565b6000606684815481106117a4576117a4612c90565b6000918252602090912060089091020180549091506001600160a01b03166118345760405162461bcd60e51b815260206004820152603160248201527f4d696e74696e67204d61726b6574706c6163653a20496e76616c696420436f6c60448201527f6c656374696f6e2053656c65637465642100000000000000000000000000000060648201526084016104fd565b600581015483106118ad5760405162461bcd60e51b815260206004820152602360248201527f4d696e74696e67204d61726b6574706c6163653a20496e76616c69642072616e60448201527f676521000000000000000000000000000000000000000000000000000000000060648201526084016104fd565b60008160050184815481106118c4576118c4612c90565b9060005260206000200154116119425760405162461bcd60e51b815260206004820152603c60248201527f4d696e74696e67204d61726b6574706c6163653a2043616e6e6f74206d696e7460448201527f206d6f726520746f6b656e7320666f7220746869732072616e6765210000000060648201526084016104fd565b8181600301848154811061195857611958612c90565b906000526020600020015411158015611990575080600401838154811061198157611981612c90565b90600052602060002001548211155b611a025760405162461bcd60e51b815260206004820152603e60248201527f4d696e74696e67204d61726b6574706c6163653a20546f6b656e20646f65736e60448201527f27742062656c6f6e6720696e2074686174206f666665722072616e676521000060648201526084016104fd565b806006018381548110611a1757611a17612c90565b9060005260206000200154341015611a975760405162461bcd60e51b815260206004820152602760248201527f4d696e74696e67204d61726b6574706c6163653a20496e737566696369656e7460448201527f2046756e6473210000000000000000000000000000000000000000000000000060648201526084016104fd565b80546040517f01ffc9a70000000000000000000000000000000000000000000000000000000081527fc0aa9aba000000000000000000000000000000000000000000000000000000006004820152600091829182916001600160a01b0316906301ffc9a79060240160206040518083038186803b158015611b1757600080fd5b505afa158015611b2b573d6000803e3d6000fd5b505050506040513d601f19601f82011682018060405250810190611b4f9190612773565b90508015611cc75783546006850180546001600160a01b039092169163c155531d916000918a908110611b8457611b84612c90565b9060005260206000200154876007018a81548110611ba457611ba4612c90565b906000526020600020016040518463ffffffff1660e01b8152600401611bcc93929190612a28565b60006040518083038186803b158015611be457600080fd5b505afa158015611bf8573d6000803e3d6000fd5b505050506040513d6000823e601f3d908101601f19168201604052611c209190810190612705565b5060695491945092506001600160a01b038416906108fc90620186a090611c539061ffff62010000820481169116612b27565b611c649061ffff16620186a0612ba6565b62ffffff16876006018a81548110611c7e57611c7e612c90565b9060005260206000200154611c939190612b87565b611c9d9190612b65565b6040518115909202916000818181858888f19350505050158015611cc5573d6000803e3d6000fd5b505b336001600160a01b03166108fc856006018881548110611ce957611ce9612c90565b906000526020600020015434611cff9190612bca565b6040518115909202916000818181858888f19350505050158015611d27573d6000803e3d6000fd5b506067546069546006860180546001600160a01b03909316926108fc92620186a09261ffff909116918b908110611d6057611d60612c90565b9060005260206000200154611d759190612b87565b611d7f9190612b65565b6040518115909202916000818181858888f19350505050158015611da7573d6000803e3d6000fd5b5060018401546069546006860180546001600160a01b03909316926108fc92620186a0926201000090910461ffff16918b908110611de757611de7612c90565b9060005260206000200154611dfc9190612b87565b611e069190612b65565b6040518115909202916000818181858888f19350505050158015611e2e573d6000803e3d6000fd5b50836005018681548110611e4457611e44612c90565b60009182526020822001805491611e5a83612c0d565b9190505550836005018681548110611e7457611e74612c90565b906000526020600020015460001415611ee95760688054906000611e9783612c0d565b90915550508354604080516001600160a01b0390921682526020820189905281018790527fd7597aa2d6438f91b7d71e7d13764734af94bc7db28326e194bfab67236e58c19060600160405180910390a15b835460028501546040517f156e29f60000000000000000000000000000000000000000000000000000000081523360048201526024810191909152604481018790526001600160a01b039091169063156e29f690606401600060405180830381600087803b158015611f5a57600080fd5b505af1158015611f6e573d6000803e3d6000fd5b505060408051338152602081018b90529081018990527f96234cb3d6c373a1aaa06497a540bc166d4b0359243a088eaf95e21d7253d0be9250606001905060405180910390a150505050505050565b6033546001600160a01b031633146120175760405162461bcd60e51b815260206004820181905260248201527f4f776e61626c653a2063616c6c6572206973206e6f7420746865206f776e657260448201526064016104fd565b6069805463ffff000019166201000061ffff8416908102919091179091556040519081527f6a6cc0807c3fb0910ab842e5fd4c193307b3cff967f1a7d096538e4961884b7090602001610ba8565b6033546001600160a01b031633146120bf5760405162461bcd60e51b815260206004820181905260248201527f4f776e61626c653a2063616c6c6572206973206e6f7420746865206f776e657260448201526064016104fd565b6001600160a01b03811661213b5760405162461bcd60e51b815260206004820152602660248201527f4f776e61626c653a206e6577206f776e657220697320746865207a65726f206160448201527f646472657373000000000000000000000000000000000000000000000000000060648201526084016104fd565b61214481612319565b50565b8082106121e25760405162461bcd60e51b815260206004820152605960248201527f4d696e74696e67204d61726b6574706c6163653a2052616e676527732073746160448201527f7274696e6720746f6b656e2068617320746f206265206c657373207468616e2060648201527f7468652072616e6765277320656e64696e6720746f6b656e2100000000000000608482015260a4016104fd565b5050565b6000606686815481106121fb576121fb612c90565b60009182526020918290206008919091020180546007820154604080516001600160a01b0390931683529382018a90528184015291519092507f88e974a76692067b23f1fc1dbe7b4eb308cc98214b2ea8dc9c1b5e8a25cb7d229181900360600190a1600381018054600181810183556000928352602080842090920188905560048401805480830182559084528284200187905560068401805491820181558352912001839055600581016122b18686612bca565b6122bc906001612b4d565b8154600181810184556000938452602080852090920192909255600784018054928301815583529182902084516122fb939190920191908501906123fc565b506068805490600061230c83612c5f565b9190505550505050505050565b603380546001600160a01b0383811673ffffffffffffffffffffffffffffffffffffffff19831681179093556040519116919082907f8be0079c531659141344cd1fd0a4f28419497f9722a3daafe3b4186f6b6457e090600090a35050565b82805461238490612c24565b90600052602060002090601f0160209004810192826123a657600085556123ec565b82601f106123bf5782800160ff198235161785556123ec565b828001600101855582156123ec579182015b828111156123ec5782358255916020019190600101906123d1565b506123f8929150612470565b5090565b82805461240890612c24565b90600052602060002090601f01602090048101928261242a57600085556123ec565b82601f1061244357805160ff19168380011785556123ec565b828001600101855582156123ec579182015b828111156123ec578251825591602001919060010190612455565b5b808211156123f85760008155600101612471565b600067ffffffffffffffff808411156124a0576124a0612ca6565b604051601f8501601f19908116603f011681019082821181831017156124c8576124c8612ca6565b816040528093508581528686860111156124e157600080fd5b6124ef866020830187612be1565b5050509392505050565b803561250481612cbc565b919050565b60008083601f84011261251b57600080fd5b50813567ffffffffffffffff81111561253357600080fd5b6020830191508360208260051b850101111561254e57600080fd5b9250929050565b60008083601f84011261256757600080fd5b50813567ffffffffffffffff81111561257f57600080fd5b60208301915083602082850101111561254e57600080fd5b803561ffff8116811461250457600080fd5b6000602082840312156125bb57600080fd5b81356125c681612cbc565b9392505050565b6000806000606084860312156125e257600080fd5b83356125ed81612cbc565b92506125fb60208501612597565b915061260960408501612597565b90509250925092565b600080600080600080600080600080600060e08c8e03121561263357600080fd5b61263c8c6124f9565b9a5060208c0135995067ffffffffffffffff8060408e0135111561265f57600080fd5b61266f8e60408f01358f01612509565b909a50985060608d013581101561268557600080fd5b6126958e60608f01358f01612509565b909850965060808d01358110156126ab57600080fd5b6126bb8e60808f01358f01612509565b909650945060a08d01358110156126d157600080fd5b506126e28d60a08e01358e01612509565b90935091506126f360c08d016124f9565b90509295989b509295989b9093969950565b60008060006060848603121561271a57600080fd5b835161272581612cbc565b60208501516040860151919450925067ffffffffffffffff81111561274957600080fd5b8401601f8101861361275a57600080fd5b61276986825160208401612485565b9150509250925092565b60006020828403121561278557600080fd5b815180151581146125c657600080fd5b6000602082840312156127a757600080fd5b6125c682612597565b6000602082840312156127c257600080fd5b5035919050565b600080604083850312156127dc57600080fd5b50508035926020909101359150565b60008060006060848603121561280057600080fd5b505081359360208301359350604090920135919050565b6000806000806080858703121561282d57600080fd5b845193506020850151925060408501519150606085015167ffffffffffffffff81111561285957600080fd5b8501601f8101871361286a57600080fd5b61287987825160208401612485565b91505092959194509250565b60008060008060008060a0878903121561289e57600080fd5b86359550602087013594506040870135935060608701359250608087013567ffffffffffffffff8111156128d157600080fd5b6128dd89828a01612555565b979a9699509497509295939492505050565b600080600080600080600060c0888a03121561290a57600080fd5b873596506020880135955060408801359450606088013593506080880135925060a088013567ffffffffffffffff81111561294457600080fd5b6129508a828b01612555565b989b979a50959850939692959293505050565b6001600160a01b038816815286602082015285604082015284606082015283608082015260c060a08201528160c0820152818360e0830137600081830160e090810191909152601f909201601f191601019695505050505050565b6001600160a01b03881681528660208201528560408201528460608201528360808201528260a082015260e060c0820152600082518060e0840152610100612a0c8282860160208801612be1565b80601f19601f8401168501019250505098975050505050505050565b838152600060208481840152606060408401526000845481600182811c915080831680612a5657607f831692505b858310811415612a7457634e487b7160e01b85526022600452602485fd5b6060880183905260808801818015612a935760018114612aa457612acf565b60ff19861682528782019650612acf565b60008b81526020902060005b86811015612ac957815484820152908501908901612ab0565b83019750505b50949b9a5050505050505050505050565b6000808335601e19843603018112612af757600080fd5b83018035915067ffffffffffffffff821115612b1257600080fd5b60200191503681900382131561254e57600080fd5b600061ffff808316818516808303821115612b4457612b44612c7a565b01949350505050565b60008219821115612b6057612b60612c7a565b500190565b600082612b8257634e487b7160e01b600052601260045260246000fd5b500490565b6000816000190483118215151615612ba157612ba1612c7a565b500290565b600062ffffff83811690831681811015612bc257612bc2612c7a565b039392505050565b600082821015612bdc57612bdc612c7a565b500390565b60005b83811015612bfc578181015183820152602001612be4565b838111156105885750506000910152565b600081612c1c57612c1c612c7a565b506000190190565b600181811c90821680612c3857607f821691505b60208210811415612c5957634e487b7160e01b600052602260045260246000fd5b50919050565b6000600019821415612c7357612c73612c7a565b5060010190565b634e487b7160e01b600052601160045260246000fd5b634e487b7160e01b600052603260045260246000fd5b634e487b7160e01b600052604160045260246000fd5b6001600160a01b038116811461214457600080fdfea2646970667358221220f3418b27076ed5f1abb60a79b2211e432a6e6d58c65a03f1ddbfb03425bd8d4664736f6c63430008060033",
  "linkReferences": {},
  "deployedLinkReferences": {}
}