{
  "_format": "hh-sol-artifact-1",
  "contractName": "RAIR_Token_Factory",
  "sourceName": "contracts/RAIR-ERC721_Factory.sol",
  "abi": [
    {
      "inputs": [
        {
          "internalType": "uint256",
          "name": "_pricePerToken",
          "type": "uint256"
        },
        {
          "internalType": "address",
          "name": "_rairAddress",
          "type": "address"
        }
      ],
      "stateMutability": "nonpayable",
      "type": "constructor"
    },
    {
      "anonymous": false,
      "inputs": [
        {
          "indexed": true,
          "internalType": "bytes32",
          "name": "role",
          "type": "bytes32"
        },
        {
          "indexed": true,
          "internalType": "bytes32",
          "name": "previousAdminRole",
          "type": "bytes32"
        },
        {
          "indexed": true,
          "internalType": "bytes32",
          "name": "newAdminRole",
          "type": "bytes32"
        }
      ],
      "name": "RoleAdminChanged",
      "type": "event"
    },
    {
      "anonymous": false,
      "inputs": [
        {
          "indexed": true,
          "internalType": "bytes32",
          "name": "role",
          "type": "bytes32"
        },
        {
          "indexed": true,
          "internalType": "address",
          "name": "account",
          "type": "address"
        },
        {
          "indexed": true,
          "internalType": "address",
          "name": "sender",
          "type": "address"
        }
      ],
      "name": "RoleGranted",
      "type": "event"
    },
    {
      "anonymous": false,
      "inputs": [
        {
          "indexed": true,
          "internalType": "bytes32",
          "name": "role",
          "type": "bytes32"
        },
        {
          "indexed": true,
          "internalType": "address",
          "name": "account",
          "type": "address"
        },
        {
          "indexed": true,
          "internalType": "address",
          "name": "sender",
          "type": "address"
        }
      ],
      "name": "RoleRevoked",
      "type": "event"
    },
    {
      "inputs": [],
      "name": "DEFAULT_ADMIN_ROLE",
      "outputs": [
        {
          "internalType": "bytes32",
          "name": "",
          "type": "bytes32"
        }
      ],
      "stateMutability": "view",
      "type": "function"
    },
    {
      "inputs": [],
      "name": "ERC777",
      "outputs": [
        {
          "internalType": "bytes32",
          "name": "",
          "type": "bytes32"
        }
      ],
      "stateMutability": "view",
      "type": "function"
    },
    {
      "inputs": [],
      "name": "OWNER",
      "outputs": [
        {
          "internalType": "bytes32",
          "name": "",
          "type": "bytes32"
        }
      ],
      "stateMutability": "view",
      "type": "function"
    },
    {
      "inputs": [
        {
          "internalType": "address",
          "name": "_erc777Address",
          "type": "address"
        },
        {
          "internalType": "uint256",
          "name": "_pricePerToken",
          "type": "uint256"
        }
      ],
      "name": "add777Token",
      "outputs": [],
      "stateMutability": "nonpayable",
      "type": "function"
    },
    {
      "inputs": [
        {
          "internalType": "address",
          "name": "",
          "type": "address"
        }
      ],
      "name": "erc777ToNFTPrice",
      "outputs": [
        {
          "internalType": "uint256",
          "name": "",
          "type": "uint256"
        }
      ],
      "stateMutability": "view",
      "type": "function"
    },
    {
      "inputs": [
        {
          "internalType": "bytes32",
          "name": "role",
          "type": "bytes32"
        }
      ],
      "name": "getRoleAdmin",
      "outputs": [
        {
          "internalType": "bytes32",
          "name": "",
          "type": "bytes32"
        }
      ],
      "stateMutability": "view",
      "type": "function"
    },
    {
      "inputs": [
        {
          "internalType": "bytes32",
          "name": "role",
          "type": "bytes32"
        },
        {
          "internalType": "address",
          "name": "account",
          "type": "address"
        }
      ],
      "name": "grantRole",
      "outputs": [],
      "stateMutability": "nonpayable",
      "type": "function"
    },
    {
      "inputs": [
        {
          "internalType": "bytes32",
          "name": "role",
          "type": "bytes32"
        },
        {
          "internalType": "address",
          "name": "account",
          "type": "address"
        }
      ],
      "name": "hasRole",
      "outputs": [
        {
          "internalType": "bool",
          "name": "",
          "type": "bool"
        }
      ],
      "stateMutability": "view",
      "type": "function"
    },
    {
      "inputs": [
        {
          "internalType": "address",
          "name": "_erc777Address",
          "type": "address"
        }
      ],
      "name": "remove777Token",
      "outputs": [],
      "stateMutability": "nonpayable",
      "type": "function"
    },
    {
      "inputs": [
        {
          "internalType": "bytes32",
          "name": "role",
          "type": "bytes32"
        },
        {
          "internalType": "address",
          "name": "account",
          "type": "address"
        }
      ],
      "name": "renounceRole",
      "outputs": [],
      "stateMutability": "nonpayable",
      "type": "function"
    },
    {
      "inputs": [
        {
          "internalType": "bytes32",
          "name": "role",
          "type": "bytes32"
        },
        {
          "internalType": "address",
          "name": "account",
          "type": "address"
        }
      ],
      "name": "revokeRole",
      "outputs": [],
      "stateMutability": "nonpayable",
      "type": "function"
    },
    {
      "inputs": [
        {
          "internalType": "bytes4",
          "name": "interfaceId",
          "type": "bytes4"
        }
      ],
      "name": "supportsInterface",
      "outputs": [
        {
          "internalType": "bool",
          "name": "",
          "type": "bool"
        }
      ],
      "stateMutability": "view",
      "type": "function"
    },
    {
      "inputs": [
        {
          "internalType": "address",
          "name": "",
          "type": "address"
        }
      ],
      "name": "tokenToOwner",
      "outputs": [
        {
          "internalType": "address",
          "name": "",
          "type": "address"
        }
      ],
      "stateMutability": "view",
      "type": "function"
    },
    {
      "inputs": [
        {
          "internalType": "address",
          "name": "_owner",
          "type": "address"
        }
      ],
      "name": "tokensByOwner",
      "outputs": [
        {
          "internalType": "address[]",
          "name": "",
          "type": "address[]"
        }
      ],
      "stateMutability": "view",
      "type": "function"
    },
    {
      "inputs": [
        {
          "internalType": "address",
          "name": "operator",
          "type": "address"
        },
        {
          "internalType": "address",
          "name": "from",
          "type": "address"
        },
        {
          "internalType": "address",
          "name": "to",
          "type": "address"
        },
        {
          "internalType": "uint256",
          "name": "amount",
          "type": "uint256"
        },
        {
          "internalType": "bytes",
          "name": "userData",
          "type": "bytes"
        },
        {
          "internalType": "bytes",
          "name": "operatorData",
          "type": "bytes"
        }
      ],
      "name": "tokensReceived",
      "outputs": [],
      "stateMutability": "nonpayable",
      "type": "function"
    }
  ],
  "bytecode": "0x60806040523480156200001157600080fd5b50604051620046f4380380620046f483398101604081905262000034916200024f565b6040516329965a1d60e01b815230600482018190527fb281fc8c12954d22544db45de3159a39272895b169a852b314f9cc762e44c53b60248301526044820152731820a4b7618bde71dce8cdc73aab6c95905fad24906329965a1d90606401600060405180830381600087803b158015620000ae57600080fd5b505af1158015620000c3573d6000803e3d6000fd5b50505050620000f7600080516020620046d4833981519152600080516020620046b48339815191526200014b60201b60201c565b62000112600080516020620046b4833981519152336200019f565b6200012d600080516020620046d4833981519152826200019f565b6001600160a01b03166000908152600360205260409020556200028e565b600082815260208190526040902060010154819060405184907fbd79b86ffe0ab8e8776151514217cd7cacd52c909f66475c3af44e129f0b00ff90600090a460009182526020829052604090912060010155565b620001ab8282620001af565b5050565b6000828152602081815260408083206001600160a01b038516845290915290205460ff16620001ab576000828152602081815260408083206001600160a01b03851684529091529020805460ff191660011790556200020b3390565b6001600160a01b0316816001600160a01b0316837f2f8788117e7eff1d82e926ec794901d17c78024a50270940304540a733656f0d60405160405180910390a45050565b600080604083850312156200026357600080fd5b825160208401519092506001600160a01b03811681146200028357600080fd5b809150509250929050565b614416806200029e6000396000f3fe60806040523480156200001157600080fd5b5060043610620001085760003560e01c80632f2ff15d11620000a357806391d14854116200006e57806391d1485414620002aa578063a217fddf14620002e4578063d547741f14620002ed578063dbdda1a1146200030457600080fd5b80632f2ff15d146200020f57806336568abe14620002265780634dfb4c53146200023d578063543a16b1146200028257600080fd5b8063117803e311620000e4578063117803e314620001785780631c6ee6a214620001af5780631ee04b6f14620001c6578063248a9ca314620001e957600080fd5b806223de29146200010d57806301ffc9a714620001265780630d381a281462000152575b600080fd5b620001246200011e36600462000cb5565b6200031b565b005b6200013d6200013736600462000de3565b6200058e565b60405190151581526020015b60405180910390f35b620001696200016336600462000c97565b62000628565b60405162000149919062000f0a565b620001a07f6270edb7c868f86fda4adedba75108201087268ea345934db8bad688e1feb91b81565b60405190815260200162000149565b62000124620001c036600462000d6d565b620006a0565b620001a0620001d736600462000c97565b60036020526000908152604090205481565b620001a0620001fa36600462000d9a565b60009081526020819052604090206001015490565b620001246200022036600462000db4565b62000716565b620001246200023736600462000db4565b62000745565b620002696200024e36600462000c97565b6002602052600090815260409020546001600160a01b031681565b6040516001600160a01b03909116815260200162000149565b620001a07fe33cd123f09d9a4e3b34162dcaba99ee0b73fe748beb8ca15f84a66b0c14723081565b6200013d620002bb36600462000db4565b6000918252602082815260408084206001600160a01b0393909316845291905290205460ff1690565b620001a0600081565b62000124620002fe36600462000db4565b620007d5565b620001246200031536600462000c97565b620007ff565b7fe33cd123f09d9a4e3b34162dcaba99ee0b73fe748beb8ca15f84a66b0c14723062000348813362000873565b33600090815260036020526040902054861015620003d35760405162461bcd60e51b815260206004820152603960248201527f5241495220466163746f72793a206e6f7420656e6f756768205241495220746f60448201527f6b656e7320746f206465706c6f79206120636f6e74726163740000000000000060648201526084015b60405180910390fd5b33600090815260036020526040812054620003ef908862000fe3565b33600090815260036020526040812054919250906200041090839062001006565b6200041c908962001028565b1115620004ac5733600081815260036020526040902054639bd9bbc6908b906200044890859062001006565b62000454908b62001028565b89896040518563ffffffff1660e01b815260040162000477949392919062000ed5565b600060405180830381600087803b1580156200049257600080fd5b505af1158015620004a7573d6000803e3d6000fd5b505050505b60005b818110156200058157600087878c617530604051620004ce9062000c20565b620004dd949392919062000f59565b604051809103906000f080158015620004fa573d6000803e3d6000fd5b506001600160a01b03808d1660008181526001602081815260408084208054938401815584528184209092018054959096167fffffffffffffffffffffffff0000000000000000000000000000000000000000958616811790965594825260029094529290922080549091169091179055508062000578816200108f565b915050620004af565b5050505050505050505050565b60007fffffffff0000000000000000000000000000000000000000000000000000000082167f7965db0b0000000000000000000000000000000000000000000000000000000014806200062257507f01ffc9a7000000000000000000000000000000000000000000000000000000007fffffffff000000000000000000000000000000000000000000000000000000008316145b92915050565b6001600160a01b0381166000908152600160209081526040918290208054835181840281018401909452808452606093928301828280156200069457602002820191906000526020600020905b81546001600160a01b0316815260019091019060200180831162000675575b50505050509050919050565b7f6270edb7c868f86fda4adedba75108201087268ea345934db8bad688e1feb91b620006cd813362000873565b620006f97fe33cd123f09d9a4e3b34162dcaba99ee0b73fe748beb8ca15f84a66b0c1472308462000716565b506001600160a01b03909116600090815260036020526040902055565b60008281526020819052604090206001015462000734813362000873565b620007408383620008fa565b505050565b6001600160a01b0381163314620007c55760405162461bcd60e51b815260206004820152602f60248201527f416363657373436f6e74726f6c3a2063616e206f6e6c792072656e6f756e636560448201527f20726f6c657320666f722073656c6600000000000000000000000000000000006064820152608401620003ca565b620007d182826200099a565b5050565b600082815260208190526040902060010154620007f3813362000873565b6200074083836200099a565b7f6270edb7c868f86fda4adedba75108201087268ea345934db8bad688e1feb91b6200082c813362000873565b620008587fe33cd123f09d9a4e3b34162dcaba99ee0b73fe748beb8ca15f84a66b0c14723083620007d5565b506001600160a01b0316600090815260036020526040812055565b6000828152602081815260408083206001600160a01b038516845290915290205460ff16620007d157620008b2816001600160a01b0316601462000a1a565b620008bf83602062000a1a565b604051602001620008d292919062000e50565b60408051601f198184030181529082905262461bcd60e51b8252620003ca9160040162000f93565b6000828152602081815260408083206001600160a01b038516845290915290205460ff16620007d1576000828152602081815260408083206001600160a01b03851684529091529020805460ff19166001179055620009563390565b6001600160a01b0316816001600160a01b0316837f2f8788117e7eff1d82e926ec794901d17c78024a50270940304540a733656f0d60405160405180910390a45050565b6000828152602081815260408083206001600160a01b038516845290915290205460ff1615620007d1576000828152602081815260408083206001600160a01b0385168085529252808320805460ff1916905551339285917ff6391f5c32d9c69d2a47ea670b442974b53935d1edc7fd64eb21e047a839171b9190a45050565b6060600062000a2b83600262001006565b62000a3890600262000fc8565b67ffffffffffffffff81111562000a535762000a53620010d9565b6040519080825280601f01601f19166020018201604052801562000a7e576020820181803683370190505b5090507f30000000000000000000000000000000000000000000000000000000000000008160008151811062000ab85762000ab8620010c3565b60200101906001600160f81b031916908160001a9053507f78000000000000000000000000000000000000000000000000000000000000008160018151811062000b065762000b06620010c3565b60200101906001600160f81b031916908160001a905350600062000b2c84600262001006565b62000b3990600162000fc8565b90505b600181111562000bc8577f303132333435363738396162636465660000000000000000000000000000000085600f166010811062000b7e5762000b7e620010c3565b1a60f81b82828151811062000b975762000b97620010c3565b60200101906001600160f81b031916908160001a90535060049490941c9362000bc08162001075565b905062000b3c565b50831562000c195760405162461bcd60e51b815260206004820181905260248201527f537472696e67733a20686578206c656e67746820696e73756666696369656e746044820152606401620003ca565b9392505050565b6132f180620010f083390190565b80356001600160a01b038116811462000c4657600080fd5b919050565b60008083601f84011262000c5e57600080fd5b50813567ffffffffffffffff81111562000c7757600080fd5b60208301915083602082850101111562000c9057600080fd5b9250929050565b60006020828403121562000caa57600080fd5b62000c198262000c2e565b60008060008060008060008060c0898b03121562000cd257600080fd5b62000cdd8962000c2e565b975062000ced60208a0162000c2e565b965062000cfd60408a0162000c2e565b955060608901359450608089013567ffffffffffffffff8082111562000d2257600080fd5b62000d308c838d0162000c4b565b909650945060a08b013591508082111562000d4a57600080fd5b5062000d598b828c0162000c4b565b999c989b5096995094979396929594505050565b6000806040838503121562000d8157600080fd5b62000d8c8362000c2e565b946020939093013593505050565b60006020828403121562000dad57600080fd5b5035919050565b6000806040838503121562000dc857600080fd5b8235915062000dda6020840162000c2e565b90509250929050565b60006020828403121562000df657600080fd5b81357fffffffff000000000000000000000000000000000000000000000000000000008116811462000c1957600080fd5b81835281816020850137506000828201602090810191909152601f909101601f19169091010190565b7f416363657373436f6e74726f6c3a206163636f756e742000000000000000000081526000835162000e8a81601785016020880162001042565b7f206973206d697373696e6720726f6c6520000000000000000000000000000000601791840191820152835162000ec981602884016020880162001042565b01602801949350505050565b6001600160a01b038516815283602082015260606040820152600062000f0060608301848662000e27565b9695505050505050565b6020808252825182820181905260009190848201906040850190845b8181101562000f4d5783516001600160a01b03168352928401929184019160010162000f26565b50909695505050505050565b60608152600062000f6f60608301868862000e27565b90506001600160a01b038416602083015261ffff8316604083015295945050505050565b602081526000825180602084015262000fb481604085016020870162001042565b601f01601f19169190910160400192915050565b6000821982111562000fde5762000fde620010ad565b500190565b6000826200100157634e487b7160e01b600052601260045260246000fd5b500490565b6000816000190483118215151615620010235762001023620010ad565b500290565b6000828210156200103d576200103d620010ad565b500390565b60005b838110156200105f57818101518382015260200162001045565b838111156200106f576000848401525b50505050565b600081620010875762001087620010ad565b506000190190565b6000600019821415620010a657620010a6620010ad565b5060010190565b634e487b7160e01b600052601160045260246000fd5b634e487b7160e01b600052603260045260246000fd5b634e487b7160e01b600052604160045260246000fdfe60806040523480156200001157600080fd5b50604051620032f1380380620032f18339810160408190526200003491620003a5565b82604051806040016040528060048152602001632920a4a960e11b81525081600090805190602001906200006a929190620002cf565b50805162000080906001906020840190620002cf565b5050600e80546001600160b01b0319163361ffff60a01b191617600160a01b61ffff85160217905550620000d3600080516020620032d1833981519152600080516020620032b183398151915262000112565b620000ee600080516020620032b18339815191528362000166565b62000109600080516020620032d18339815191528362000166565b505050620004fb565b6000828152600a6020526040902060010154819060405184907fbd79b86ffe0ab8e8776151514217cd7cacd52c909f66475c3af44e129f0b00ff90600090a46000918252600a602052604090912060010155565b6200017d8282620001a960201b620013491760201c565b6000828152600b60209081526040909120620001a491839062001357620001b9821b17901c565b505050565b620001b58282620001d9565b5050565b6000620001d0836001600160a01b0384166200027d565b90505b92915050565b6000828152600a602090815260408083206001600160a01b038516845290915290205460ff16620001b5576000828152600a602090815260408083206001600160a01b03851684529091529020805460ff19166001179055620002393390565b6001600160a01b0316816001600160a01b0316837f2f8788117e7eff1d82e926ec794901d17c78024a50270940304540a733656f0d60405160405180910390a45050565b6000818152600183016020526040812054620002c657508154600181810184556000848152602080822090930184905584548482528286019093526040902091909155620001d3565b506000620001d3565b828054620002dd90620004a8565b90600052602060002090601f0160209004810192826200030157600085556200034c565b82601f106200031c57805160ff19168380011785556200034c565b828001600101855582156200034c579182015b828111156200034c5782518255916020019190600101906200032f565b506200035a9291506200035e565b5090565b5b808211156200035a57600081556001016200035f565b80516001600160a01b03811681146200038d57600080fd5b919050565b805161ffff811681146200038d57600080fd5b600080600060608486031215620003bb57600080fd5b83516001600160401b0380821115620003d357600080fd5b818601915086601f830112620003e857600080fd5b815181811115620003fd57620003fd620004e5565b604051601f8201601f19908116603f01168101908382118183101715620004285762000428620004e5565b816040528281526020935089848487010111156200044557600080fd5b600091505b828210156200046957848201840151818301850152908301906200044a565b828211156200047b5760008484830101525b96506200048d91505086820162000375565b935050506200049f6040850162000392565b90509250925092565b600181811c90821680620004bd57607f821691505b60208210811415620004df57634e487b7160e01b600052602260045260246000fd5b50919050565b634e487b7160e01b600052604160045260246000fd5b612da6806200050b6000396000f3fe608060405234801561001057600080fd5b506004361061020b5760003560e01c80636018d3e31161012a578063a22cb465116100bd578063ca15c8731161008c578063e4fbb60911610071578063e4fbb609146104bb578063e985e9c5146104e2578063fe6d81241461051e57600080fd5b8063ca15c87314610495578063d547741f146104a857600080fd5b8063a22cb4651461043a578063b88d4fde1461044d578063c155531d14610460578063c87b56dd1461048257600080fd5b806391d14854116100f957806391d14854146103de57806395d89b411461041757806397099fb21461041f578063a217fddf1461043257600080fd5b80636018d3e3146103925780636352211e146103a557806370a08231146103b85780639010d07c146103cb57600080fd5b8063248a9ca3116101a257806340c10f191161017157806340c10f191461033657806342842e0e146103495780634f6ccce71461035c5780635a1f3c281461036f57600080fd5b8063248a9ca3146102da5780632f2ff15d146102fd5780632f745c591461031057806336568abe1461032357600080fd5b806318160ddd116101de57806318160ddd1461028d578063195f78ae1461029f5780631c10106f146102bf57806323b872dd146102c757600080fd5b806301ffc9a71461021057806306fdde0314610238578063081812fc1461024d578063095ea7b314610278575b600080fd5b61022361021e36600461293d565b610545565b60405190151581526020015b60405180910390f35b610240610589565b60405161022f9190612ba2565b61026061025b3660046128df565b61061b565b6040516001600160a01b03909116815260200161022f565b61028b6102863660046128b5565b6106b5565b005b6008545b60405190815260200161022f565b6102916102ad3660046128df565b600d6020526000908152604090205481565b600c54610291565b61028b6102d53660046127c1565b6107e7565b6102916102e83660046128df565b6000908152600a602052604090206001015490565b61028b61030b3660046128f8565b61086e565b61029161031e3660046128b5565b610890565b61028b6103313660046128f8565b610938565b61028b6103443660046128b5565b61095a565b61028b6103573660046127c1565b610b17565b61029161036a3660046128df565b610b32565b61038261037d3660046128df565b610bd6565b60405161022f9493929190612bb5565b61028b6103a0366004612977565b610ce9565b6102606103b33660046128df565b610ea2565b6102916103c6366004612773565b610f2d565b6102606103d936600461291b565b610fc7565b6102236103ec3660046128f8565b6000918252600a602090815260408084206001600160a01b0393909316845291905290205460ff1690565b610240610fe6565b61022361042d3660046128b5565b610ff5565b610291600081565b61028b610448366004612879565b611053565b61028b61045b3660046127fd565b611118565b61047361046e3660046129d9565b6111a0565b60405161022f93929190612b71565b6102406104903660046128df565b611233565b6102916104a33660046128df565b611328565b61028b6104b63660046128f8565b61133f565b6102917f3c2519c4487d47714872f92cf90a50c25f5deaec2789dc2a497b1272df611db681565b6102236104f036600461278e565b6001600160a01b03918216600090815260056020908152604080832093909416825291909152205460ff1690565b6102917ff0887ba65ee2024ea881d91b74c2450ef19e1557f03bed3ea9f16b037cbe2dc981565b60006001600160e01b031982167fc0aa9aba00000000000000000000000000000000000000000000000000000000148061058357506105838261136c565b92915050565b60606000805461059890612c7f565b80601f01602080910402602001604051908101604052809291908181526020018280546105c490612c7f565b80156106115780601f106105e657610100808354040283529160200191610611565b820191906000526020600020905b8154815290600101906020018083116105f457829003601f168201915b5050505050905090565b6000818152600260205260408120546001600160a01b03166106995760405162461bcd60e51b815260206004820152602c60248201527f4552433732313a20617070726f76656420717565727920666f72206e6f6e657860448201526b34b9ba32b73a103a37b5b2b760a11b60648201526084015b60405180910390fd5b506000908152600460205260409020546001600160a01b031690565b60006106c082610ea2565b9050806001600160a01b0316836001600160a01b0316141561074a5760405162461bcd60e51b815260206004820152602160248201527f4552433732313a20617070726f76616c20746f2063757272656e74206f776e6560448201527f72000000000000000000000000000000000000000000000000000000000000006064820152608401610690565b336001600160a01b0382161480610766575061076681336104f0565b6107d85760405162461bcd60e51b815260206004820152603860248201527f4552433732313a20617070726f76652063616c6c6572206973206e6f74206f7760448201527f6e6572206e6f7220617070726f76656420666f7220616c6c00000000000000006064820152608401610690565b6107e283836113aa565b505050565b6107f13382611425565b6108635760405162461bcd60e51b815260206004820152603160248201527f4552433732313a207472616e736665722063616c6c6572206973206e6f74206f60448201527f776e6572206e6f7220617070726f7665640000000000000000000000000000006064820152608401610690565b6107e283838361151c565b6108788282611701565b6000828152600b602052604090206107e29082611357565b600061089b83610f2d565b821061090f5760405162461bcd60e51b815260206004820152602b60248201527f455243373231456e756d657261626c653a206f776e657220696e646578206f7560448201527f74206f6620626f756e64730000000000000000000000000000000000000000006064820152608401610690565b506001600160a01b03919091166000908152600660209081526040808320938352929052205490565b6109428282611727565b6000828152600b602052604090206107e290826117af565b7ff0887ba65ee2024ea881d91b74c2450ef19e1557f03bed3ea9f16b037cbe2dc961098581336117c4565b6000600c838154811061099a5761099a612d2b565b906000526020600020906005020190506000816002015411610a245760405162461bcd60e51b815260206004820152603460248201527f52414952204552433732313a2043616e6e6f74206d696e7420746f6b656e732060448201527f66726f6d207468697320636f6c6c656374696f6e0000000000000000000000006064820152608401610690565b610a418482600201548360010154610a3c9190612c25565b611844565b82600d600083600201548460010154610a5a9190612c25565b815260200190815260200160002081905550806002016000815480929190610a8190612c68565b9091555050600381015415610adc57600381018054906000610aa283612c68565b90915550506003810154610adc5760405183907f9721655f0c5c6a6d956e513ad4689d1f8b450cd5996c40c125042f6fb2025b3490600090a25b6002810154610b115760405183907f07316b39b8c420c7e2db22023e90ea579f0e9b4a5c605b0b0a27c284e45c685690600090a25b50505050565b6107e283838360405180602001604052806000815250611118565b6000610b3d60085490565b8210610bb15760405162461bcd60e51b815260206004820152602c60248201527f455243373231456e756d657261626c653a20676c6f62616c20696e646578206f60448201527f7574206f6620626f756e647300000000000000000000000000000000000000006064820152608401610690565b60088281548110610bc457610bc4612d2b565b90600052602060002001549050919050565b600080600060606000600c8681548110610bf257610bf2612d2b565b90600052602060002090600502016040518060a001604052908160008201548152602001600182015481526020016002820154815260200160038201548152602001600482018054610c4390612c7f565b80601f0160208091040260200160405190810160405280929190818152602001828054610c6f90612c7f565b8015610cbc5780601f10610c9157610100808354040283529160200191610cbc565b820191906000526020600020905b815481529060010190602001808311610c9f57829003601f168201915b505050919092525050815160208301516040840151608090940151919a9099509297509550909350505050565b7f3c2519c4487d47714872f92cf90a50c25f5deaec2789dc2a497b1272df611db6610d1481336117c4565b81831015610db05760405162461bcd60e51b815260206004820152604360248201527f4552433732313a20526573616c652073746172742073686f756c64206265206c60448201527f657373207468616e2074686520746f74616c20616d6f756e74206f6620636f7060648201527f6965730000000000000000000000000000000000000000000000000000000000608482015260a401610690565b600c54600090610dc257506000610df7565b600c8054610dd290600190612c25565b81548110610de257610de2612d2b565b90600052602060002090600502016001015490505b600c80546001810182556000919091526005027fdf6966c971051c3d54ec59162606531493a51404a002842f56009d7e5cf4a8c701818155610e398583612bda565b60018201558551610e539060048301906020890190612648565b506002810185905560038101849055600c54610e7190600190612c25565b6040517f5baee347cce9899b119eb4f42984958a6e25dc5b505f4f1ab8f3837120cf241f90600090a2505050505050565b6000818152600260205260408120546001600160a01b0316806105835760405162461bcd60e51b815260206004820152602960248201527f4552433732313a206f776e657220717565727920666f72206e6f6e657869737460448201527f656e7420746f6b656e00000000000000000000000000000000000000000000006064820152608401610690565b60006001600160a01b038216610fab5760405162461bcd60e51b815260206004820152602a60248201527f4552433732313a2062616c616e636520717565727920666f7220746865207a6560448201527f726f2061646472657373000000000000000000000000000000000000000000006064820152608401610690565b506001600160a01b031660009081526003602052604090205490565b6000828152600b60205260408120610fdf908361185e565b9392505050565b60606001805461059890612c7f565b6000805b61100284610f2d565b8110156110495782600d60006110188785610890565b8152602001908152602001600020541415611037576001915050610583565b8061104181612cba565b915050610ff9565b5060009392505050565b6001600160a01b0382163314156110ac5760405162461bcd60e51b815260206004820152601960248201527f4552433732313a20617070726f766520746f2063616c6c6572000000000000006044820152606401610690565b3360008181526005602090815260408083206001600160a01b03871680855290835292819020805460ff191686151590811790915590519081529192917f17307eab39ab6107e8899845ad3d59bd9653f200f220920489ca2b5937696c31910160405180910390a35050565b6111223383611425565b6111945760405162461bcd60e51b815260206004820152603160248201527f4552433732313a207472616e736665722063616c6c6572206973206e6f74206f60448201527f776e6572206e6f7220617070726f7665640000000000000000000000000000006064820152608401610690565b610b118484848461186a565b60008060606111d07f3c2519c4487d47714872f92cf90a50c25f5deaec2789dc2a497b1272df611db66000610fc7565b600e54620186a0906111fe9074010000000000000000000000000000000000000000900461ffff1689612c06565b6112089190612bf2565b60408051602081018a9052016040516020818303038152906040529250925092509450945094915050565b6000818152600260205260409020546060906001600160a01b03166112c05760405162461bcd60e51b815260206004820152602f60248201527f4552433732314d657461646174613a2055524920717565727920666f72206e6f60448201527f6e6578697374656e7420746f6b656e00000000000000000000000000000000006064820152608401610690565b60006112d760408051602081019091526000815290565b905060008151116112f75760405180602001604052806000815250610fdf565b80611301846118e8565b604051602001611312929190612a85565b6040516020818303038152906040529392505050565b6000818152600b60205260408120610583906119e6565b61094282826119f0565b6113538282611a16565b5050565b6000610fdf836001600160a01b038416611ab8565b60006001600160e01b031982167f5a05180f000000000000000000000000000000000000000000000000000000001480610583575061058382611b07565b6000818152600460205260409020805473ffffffffffffffffffffffffffffffffffffffff19166001600160a01b03841690811790915581906113ec82610ea2565b6001600160a01b03167f8c5be1e5ebec7d5bd14f71427d1e84f3dd0314c0f7b2291e5b200ac8c7c3b92560405160405180910390a45050565b6000818152600260205260408120546001600160a01b031661149e5760405162461bcd60e51b815260206004820152602c60248201527f4552433732313a206f70657261746f7220717565727920666f72206e6f6e657860448201526b34b9ba32b73a103a37b5b2b760a11b6064820152608401610690565b60006114a983610ea2565b9050806001600160a01b0316846001600160a01b031614806114e45750836001600160a01b03166114d98461061b565b6001600160a01b0316145b8061151457506001600160a01b0380821660009081526005602090815260408083209388168352929052205460ff165b949350505050565b826001600160a01b031661152f82610ea2565b6001600160a01b0316146115ab5760405162461bcd60e51b815260206004820152602960248201527f4552433732313a207472616e73666572206f6620746f6b656e2074686174206960448201527f73206e6f74206f776e00000000000000000000000000000000000000000000006064820152608401610690565b6001600160a01b0382166116265760405162461bcd60e51b8152602060048201526024808201527f4552433732313a207472616e7366657220746f20746865207a65726f2061646460448201527f72657373000000000000000000000000000000000000000000000000000000006064820152608401610690565b611631838383611b45565b61163c6000826113aa565b6001600160a01b0383166000908152600360205260408120805460019290611665908490612c25565b90915550506001600160a01b0382166000908152600360205260408120805460019290611693908490612bda565b9091555050600081815260026020526040808220805473ffffffffffffffffffffffffffffffffffffffff19166001600160a01b0386811691821790925591518493918716917fddf252ad1be2c89b69c2b068fc378daa952ba7f163c4a11628f55a4df523b3ef91a4505050565b6000828152600a602052604090206001015461171d81336117c4565b6107e28383611a16565b6001600160a01b03811633146117a55760405162461bcd60e51b815260206004820152602f60248201527f416363657373436f6e74726f6c3a2063616e206f6e6c792072656e6f756e636560448201527f20726f6c657320666f722073656c6600000000000000000000000000000000006064820152608401610690565b6113538282611c20565b6000610fdf836001600160a01b038416611ca3565b6000828152600a602090815260408083206001600160a01b038516845290915290205460ff1661135357611802816001600160a01b03166014611d90565b61180d836020611d90565b60405160200161181e929190612ab4565b60408051601f198184030181529082905262461bcd60e51b825261069091600401612ba2565b611353828260405180602001604052806000815250611f55565b6000610fdf8383611fd3565b61187584848461151c565b61188184848484612074565b610b115760405162461bcd60e51b815260206004820152603260248201527f4552433732313a207472616e7366657220746f206e6f6e20455243373231526560448201527131b2b4bb32b91034b6b83632b6b2b73a32b960711b6064820152608401610690565b60608161190c5750506040805180820190915260018152600360fc1b602082015290565b8160005b8115611936578061192081612cba565b915061192f9050600a83612bf2565b9150611910565b60008167ffffffffffffffff81111561195157611951612d41565b6040519080825280601f01601f19166020018201604052801561197b576020820181803683370190505b5090505b841561151457611990600183612c25565b915061199d600a86612cd5565b6119a8906030612bda565b60f81b8183815181106119bd576119bd612d2b565b60200101906001600160f81b031916908160001a9053506119df600a86612bf2565b945061197f565b6000610583825490565b6000828152600a6020526040902060010154611a0c81336117c4565b6107e28383611c20565b6000828152600a602090815260408083206001600160a01b038516845290915290205460ff16611353576000828152600a602090815260408083206001600160a01b03851684529091529020805460ff19166001179055611a743390565b6001600160a01b0316816001600160a01b0316837f2f8788117e7eff1d82e926ec794901d17c78024a50270940304540a733656f0d60405160405180910390a45050565b6000818152600183016020526040812054611aff57508154600181810184556000848152602080822090930184905584548482528286019093526040902091909155610583565b506000610583565b60006001600160e01b031982167f7965db0b0000000000000000000000000000000000000000000000000000000014806105835750610583826121cc565b6001600160a01b03831615801590611b6557506001600160a01b03821615155b15611c15576000818152600d6020526040902054600c80549091908110611b8e57611b8e612d2b565b906000526020600020906005020160030154600014611c155760405162461bcd60e51b815260206004820152603f60248201527f52414952204552433732313a205472616e736665727320666f7220746869732060448201527f636f6c6c656374696f6e20686176656e2774206265656e20656e61626c6564006064820152608401610690565b6107e283838361220a565b6000828152600a602090815260408083206001600160a01b038516845290915290205460ff1615611353576000828152600a602090815260408083206001600160a01b0385168085529252808320805460ff1916905551339285917ff6391f5c32d9c69d2a47ea670b442974b53935d1edc7fd64eb21e047a839171b9190a45050565b60008181526001830160205260408120548015611d86576000611cc7600183612c25565b8554909150600090611cdb90600190612c25565b90506000866000018281548110611cf457611cf4612d2b565b9060005260206000200154905080876000018481548110611d1757611d17612d2b565b600091825260208083209091019290925582815260018901909152604090208490558654879080611d4a57611d4a612d15565b60019003818190600052602060002001600090559055866001016000878152602001908152602001600020600090556001945050505050610583565b6000915050610583565b60606000611d9f836002612c06565b611daa906002612bda565b67ffffffffffffffff811115611dc257611dc2612d41565b6040519080825280601f01601f191660200182016040528015611dec576020820181803683370190505b509050600360fc1b81600081518110611e0757611e07612d2b565b60200101906001600160f81b031916908160001a9053507f780000000000000000000000000000000000000000000000000000000000000081600181518110611e5257611e52612d2b565b60200101906001600160f81b031916908160001a9053506000611e76846002612c06565b611e81906001612bda565b90505b6001811115611f06577f303132333435363738396162636465660000000000000000000000000000000085600f1660108110611ec257611ec2612d2b565b1a60f81b828281518110611ed857611ed8612d2b565b60200101906001600160f81b031916908160001a90535060049490941c93611eff81612c68565b9050611e84565b508315610fdf5760405162461bcd60e51b815260206004820181905260248201527f537472696e67733a20686578206c656e67746820696e73756666696369656e746044820152606401610690565b611f5f83836122c2565b611f6c6000848484612074565b6107e25760405162461bcd60e51b815260206004820152603260248201527f4552433732313a207472616e7366657220746f206e6f6e20455243373231526560448201527131b2b4bb32b91034b6b83632b6b2b73a32b960711b6064820152608401610690565b8154600090821061204c5760405162461bcd60e51b815260206004820152602260248201527f456e756d657261626c655365743a20696e646578206f7574206f6620626f756e60448201527f64730000000000000000000000000000000000000000000000000000000000006064820152608401610690565b82600001828154811061206157612061612d2b565b9060005260206000200154905092915050565b60006001600160a01b0384163b156121c157604051630a85bd0160e11b81526001600160a01b0385169063150b7a02906120b8903390899088908890600401612b35565b602060405180830381600087803b1580156120d257600080fd5b505af1925050508015612102575060408051601f3d908101601f191682019092526120ff9181019061295a565b60015b6121a7573d808015612130576040519150601f19603f3d011682016040523d82523d6000602084013e612135565b606091505b50805161219f5760405162461bcd60e51b815260206004820152603260248201527f4552433732313a207472616e7366657220746f206e6f6e20455243373231526560448201527131b2b4bb32b91034b6b83632b6b2b73a32b960711b6064820152608401610690565b805181602001fd5b6001600160e01b031916630a85bd0160e11b149050611514565b506001949350505050565b60006001600160e01b031982167f780e9d6300000000000000000000000000000000000000000000000000000000148061058357506105838261241d565b6001600160a01b0383166122655761226081600880546000838152600960205260408120829055600182018355919091527ff3f7a9fe364faab93b216da50a3214154f22a0a2b415b23a84c8169e8b636ee30155565b612288565b816001600160a01b0316836001600160a01b0316146122885761228883826124b8565b6001600160a01b03821661229f576107e281612555565b826001600160a01b0316826001600160a01b0316146107e2576107e28282612604565b6001600160a01b0382166123185760405162461bcd60e51b815260206004820181905260248201527f4552433732313a206d696e7420746f20746865207a65726f20616464726573736044820152606401610690565b6000818152600260205260409020546001600160a01b03161561237d5760405162461bcd60e51b815260206004820152601c60248201527f4552433732313a20746f6b656e20616c7265616479206d696e746564000000006044820152606401610690565b61238960008383611b45565b6001600160a01b03821660009081526003602052604081208054600192906123b2908490612bda565b9091555050600081815260026020526040808220805473ffffffffffffffffffffffffffffffffffffffff19166001600160a01b03861690811790915590518392907fddf252ad1be2c89b69c2b068fc378daa952ba7f163c4a11628f55a4df523b3ef908290a45050565b60006001600160e01b031982167f80ac58cd00000000000000000000000000000000000000000000000000000000148061248057506001600160e01b031982167f5b5e139f00000000000000000000000000000000000000000000000000000000145b8061058357507f01ffc9a7000000000000000000000000000000000000000000000000000000006001600160e01b0319831614610583565b600060016124c584610f2d565b6124cf9190612c25565b600083815260076020526040902054909150808214612522576001600160a01b03841660009081526006602090815260408083208584528252808320548484528184208190558352600790915290208190555b5060009182526007602090815260408084208490556001600160a01b039094168352600681528383209183525290812055565b60085460009061256790600190612c25565b6000838152600960205260408120546008805493945090928490811061258f5761258f612d2b565b9060005260206000200154905080600883815481106125b0576125b0612d2b565b60009182526020808320909101929092558281526009909152604080822084905585825281205560088054806125e8576125e8612d15565b6001900381819060005260206000200160009055905550505050565b600061260f83610f2d565b6001600160a01b039093166000908152600660209081526040808320868452825280832085905593825260079052919091209190915550565b82805461265490612c7f565b90600052602060002090601f01602090048101928261267657600085556126bc565b82601f1061268f57805160ff19168380011785556126bc565b828001600101855582156126bc579182015b828111156126bc5782518255916020019190600101906126a1565b506126c89291506126cc565b5090565b5b808211156126c857600081556001016126cd565b600067ffffffffffffffff808411156126fc576126fc612d41565b604051601f8501601f19908116603f0116810190828211818310171561272457612724612d41565b8160405280935085815286868601111561273d57600080fd5b858560208301376000602087830101525050509392505050565b80356001600160a01b038116811461276e57600080fd5b919050565b60006020828403121561278557600080fd5b610fdf82612757565b600080604083850312156127a157600080fd5b6127aa83612757565b91506127b860208401612757565b90509250929050565b6000806000606084860312156127d657600080fd5b6127df84612757565b92506127ed60208501612757565b9150604084013590509250925092565b6000806000806080858703121561281357600080fd5b61281c85612757565b935061282a60208601612757565b925060408501359150606085013567ffffffffffffffff81111561284d57600080fd5b8501601f8101871361285e57600080fd5b61286d878235602084016126e1565b91505092959194509250565b6000806040838503121561288c57600080fd5b61289583612757565b9150602083013580151581146128aa57600080fd5b809150509250929050565b600080604083850312156128c857600080fd5b6128d183612757565b946020939093013593505050565b6000602082840312156128f157600080fd5b5035919050565b6000806040838503121561290b57600080fd5b823591506127b860208401612757565b6000806040838503121561292e57600080fd5b50508035926020909101359150565b60006020828403121561294f57600080fd5b8135610fdf81612d57565b60006020828403121561296c57600080fd5b8151610fdf81612d57565b60008060006060848603121561298c57600080fd5b833567ffffffffffffffff8111156129a357600080fd5b8401601f810186136129b457600080fd5b6129c3868235602084016126e1565b9660208601359650604090950135949350505050565b600080600080606085870312156129ef57600080fd5b8435935060208501359250604085013567ffffffffffffffff80821115612a1557600080fd5b818701915087601f830112612a2957600080fd5b813581811115612a3857600080fd5b886020828501011115612a4a57600080fd5b95989497505060200194505050565b60008151808452612a71816020860160208601612c3c565b601f01601f19169290920160200192915050565b60008351612a97818460208801612c3c565b835190830190612aab818360208801612c3c565b01949350505050565b7f416363657373436f6e74726f6c3a206163636f756e7420000000000000000000815260008351612aec816017850160208801612c3c565b7f206973206d697373696e6720726f6c65200000000000000000000000000000006017918401918201528351612b29816028840160208801612c3c565b01602801949350505050565b60006001600160a01b03808716835280861660208401525083604083015260806060830152612b676080830184612a59565b9695505050505050565b6001600160a01b0384168152826020820152606060408201526000612b996060830184612a59565b95945050505050565b602081526000610fdf6020830184612a59565b848152836020820152826040820152608060608201526000612b676080830184612a59565b60008219821115612bed57612bed612ce9565b500190565b600082612c0157612c01612cff565b500490565b6000816000190483118215151615612c2057612c20612ce9565b500290565b600082821015612c3757612c37612ce9565b500390565b60005b83811015612c57578181015183820152602001612c3f565b83811115610b115750506000910152565b600081612c7757612c77612ce9565b506000190190565b600181811c90821680612c9357607f821691505b60208210811415612cb457634e487b7160e01b600052602260045260246000fd5b50919050565b6000600019821415612cce57612cce612ce9565b5060010190565b600082612ce457612ce4612cff565b500690565b634e487b7160e01b600052601160045260246000fd5b634e487b7160e01b600052601260045260246000fd5b634e487b7160e01b600052603160045260246000fd5b634e487b7160e01b600052603260045260246000fd5b634e487b7160e01b600052604160045260246000fd5b6001600160e01b031981168114612d6d57600080fd5b5056fea264697066735822122026adc24af678deeb9cc4712c87e8e967a15a4a4ebc12b67e08d220e78e5cd79064736f6c634300080600333c2519c4487d47714872f92cf90a50c25f5deaec2789dc2a497b1272df611db6f0887ba65ee2024ea881d91b74c2450ef19e1557f03bed3ea9f16b037cbe2dc9a264697066735822122081a43282d1fb4b305f170134176c05ee082458afe11408df4675c1d70115478664736f6c634300080600336270edb7c868f86fda4adedba75108201087268ea345934db8bad688e1feb91be33cd123f09d9a4e3b34162dcaba99ee0b73fe748beb8ca15f84a66b0c147230",
  "linkReferences": {},
  "deployedLinkReferences": {}
}