{
  "_format": "hh-sol-artifact-1",
  "contractName": "RAIR_ERC721",
  "sourceName": "contracts/Tokens/RAIR-ERC721.sol",
  "abi": [
    {
      "inputs": [
        {
          "internalType": "string",
          "name": "_contractName",
          "type": "string"
        },
        {
          "internalType": "address",
          "name": "_creatorAddress",
          "type": "address"
        },
        {
          "internalType": "uint16",
          "name": "_creatorRoyalty",
          "type": "uint16"
        }
      ],
      "stateMutability": "nonpayable",
      "type": "constructor"
    },
    {
      "anonymous": false,
      "inputs": [
        {
          "indexed": true,
          "internalType": "address",
          "name": "owner",
          "type": "address"
        },
        {
          "indexed": true,
          "internalType": "address",
          "name": "approved",
          "type": "address"
        },
        {
          "indexed": true,
          "internalType": "uint256",
          "name": "tokenId",
          "type": "uint256"
        }
      ],
      "name": "Approval",
      "type": "event"
    },
    {
      "anonymous": false,
      "inputs": [
        {
          "indexed": true,
          "internalType": "address",
          "name": "owner",
          "type": "address"
        },
        {
          "indexed": true,
          "internalType": "address",
          "name": "operator",
          "type": "address"
        },
        {
          "indexed": false,
          "internalType": "bool",
          "name": "approved",
          "type": "bool"
        }
      ],
      "name": "ApprovalForAll",
      "type": "event"
    },
    {
      "anonymous": false,
      "inputs": [
        {
          "indexed": true,
          "internalType": "uint256",
          "name": "id",
          "type": "uint256"
        },
        {
          "indexed": false,
          "internalType": "string",
          "name": "name",
          "type": "string"
        }
      ],
      "name": "CollectionCompleted",
      "type": "event"
    },
    {
      "anonymous": false,
      "inputs": [
        {
          "indexed": true,
          "internalType": "uint256",
          "name": "id",
          "type": "uint256"
        },
        {
          "indexed": false,
          "internalType": "string",
          "name": "name",
          "type": "string"
        },
        {
          "indexed": false,
          "internalType": "uint256",
          "name": "length",
          "type": "uint256"
        }
      ],
      "name": "CollectionCreated",
      "type": "event"
    },
    {
      "anonymous": false,
      "inputs": [
        {
          "indexed": true,
          "internalType": "bytes32",
          "name": "role",
          "type": "bytes32"
        },
        {
          "indexed": true,
          "internalType": "bytes32",
          "name": "previousAdminRole",
          "type": "bytes32"
        },
        {
          "indexed": true,
          "internalType": "bytes32",
          "name": "newAdminRole",
          "type": "bytes32"
        }
      ],
      "name": "RoleAdminChanged",
      "type": "event"
    },
    {
      "anonymous": false,
      "inputs": [
        {
          "indexed": true,
          "internalType": "bytes32",
          "name": "role",
          "type": "bytes32"
        },
        {
          "indexed": true,
          "internalType": "address",
          "name": "account",
          "type": "address"
        },
        {
          "indexed": true,
          "internalType": "address",
          "name": "sender",
          "type": "address"
        }
      ],
      "name": "RoleGranted",
      "type": "event"
    },
    {
      "anonymous": false,
      "inputs": [
        {
          "indexed": true,
          "internalType": "bytes32",
          "name": "role",
          "type": "bytes32"
        },
        {
          "indexed": true,
          "internalType": "address",
          "name": "account",
          "type": "address"
        },
        {
          "indexed": true,
          "internalType": "address",
          "name": "sender",
          "type": "address"
        }
      ],
      "name": "RoleRevoked",
      "type": "event"
    },
    {
      "anonymous": false,
      "inputs": [
        {
          "indexed": true,
          "internalType": "address",
          "name": "from",
          "type": "address"
        },
        {
          "indexed": true,
          "internalType": "address",
          "name": "to",
          "type": "address"
        },
        {
          "indexed": true,
          "internalType": "uint256",
          "name": "tokenId",
          "type": "uint256"
        }
      ],
      "name": "Transfer",
      "type": "event"
    },
    {
      "anonymous": false,
      "inputs": [
        {
          "indexed": true,
          "internalType": "uint256",
          "name": "id",
          "type": "uint256"
        },
        {
          "indexed": false,
          "internalType": "string",
          "name": "name",
          "type": "string"
        }
      ],
      "name": "TransfersEnabled",
      "type": "event"
    },
    {
      "inputs": [],
      "name": "CREATOR",
      "outputs": [
        {
          "internalType": "bytes32",
          "name": "",
          "type": "bytes32"
        }
      ],
      "stateMutability": "view",
      "type": "function"
    },
    {
      "inputs": [],
      "name": "DEFAULT_ADMIN_ROLE",
      "outputs": [
        {
          "internalType": "bytes32",
          "name": "",
          "type": "bytes32"
        }
      ],
      "stateMutability": "view",
      "type": "function"
    },
    {
      "inputs": [],
      "name": "MINTER",
      "outputs": [
        {
          "internalType": "bytes32",
          "name": "",
          "type": "bytes32"
        }
      ],
      "stateMutability": "view",
      "type": "function"
    },
    {
      "inputs": [
        {
          "internalType": "address",
          "name": "to",
          "type": "address"
        },
        {
          "internalType": "uint256",
          "name": "tokenId",
          "type": "uint256"
        }
      ],
      "name": "approve",
      "outputs": [],
      "stateMutability": "nonpayable",
      "type": "function"
    },
    {
      "inputs": [
        {
          "internalType": "address",
          "name": "owner",
          "type": "address"
        }
      ],
      "name": "balanceOf",
      "outputs": [
        {
          "internalType": "uint256",
          "name": "",
          "type": "uint256"
        }
      ],
      "stateMutability": "view",
      "type": "function"
    },
    {
      "inputs": [
        {
          "internalType": "string",
          "name": "_collectionName",
          "type": "string"
        },
        {
          "internalType": "uint256",
          "name": "_copies",
          "type": "uint256"
        },
        {
          "internalType": "uint256",
          "name": "_resaleAt",
          "type": "uint256"
        }
      ],
      "name": "createCollection",
      "outputs": [],
      "stateMutability": "nonpayable",
      "type": "function"
    },
    {
      "inputs": [
        {
          "internalType": "uint256",
          "name": "tokenId",
          "type": "uint256"
        }
      ],
      "name": "getApproved",
      "outputs": [
        {
          "internalType": "address",
          "name": "",
          "type": "address"
        }
      ],
      "stateMutability": "view",
      "type": "function"
    },
    {
      "inputs": [
        {
          "internalType": "uint256",
          "name": "index",
          "type": "uint256"
        }
      ],
      "name": "getCollection",
      "outputs": [
        {
          "internalType": "uint256",
          "name": "startingToken",
          "type": "uint256"
        },
        {
          "internalType": "uint256",
          "name": "endingToken",
          "type": "uint256"
        },
        {
          "internalType": "uint256",
          "name": "mintableTokensLeft",
          "type": "uint256"
        },
        {
          "internalType": "string",
          "name": "collectionName",
          "type": "string"
        }
      ],
      "stateMutability": "view",
      "type": "function"
    },
    {
      "inputs": [],
      "name": "getCollectionCount",
      "outputs": [
        {
          "internalType": "uint256",
          "name": "",
          "type": "uint256"
        }
      ],
      "stateMutability": "view",
      "type": "function"
    },
    {
      "inputs": [
        {
          "internalType": "bytes32",
          "name": "role",
          "type": "bytes32"
        }
      ],
      "name": "getRoleAdmin",
      "outputs": [
        {
          "internalType": "bytes32",
          "name": "",
          "type": "bytes32"
        }
      ],
      "stateMutability": "view",
      "type": "function"
    },
    {
      "inputs": [
        {
          "internalType": "bytes32",
          "name": "role",
          "type": "bytes32"
        },
        {
          "internalType": "uint256",
          "name": "index",
          "type": "uint256"
        }
      ],
      "name": "getRoleMember",
      "outputs": [
        {
          "internalType": "address",
          "name": "",
          "type": "address"
        }
      ],
      "stateMutability": "view",
      "type": "function"
    },
    {
      "inputs": [
        {
          "internalType": "bytes32",
          "name": "role",
          "type": "bytes32"
        }
      ],
      "name": "getRoleMemberCount",
      "outputs": [
        {
          "internalType": "uint256",
          "name": "",
          "type": "uint256"
        }
      ],
      "stateMutability": "view",
      "type": "function"
    },
    {
      "inputs": [
        {
          "internalType": "bytes32",
          "name": "role",
          "type": "bytes32"
        },
        {
          "internalType": "address",
          "name": "account",
          "type": "address"
        }
      ],
      "name": "grantRole",
      "outputs": [],
      "stateMutability": "nonpayable",
      "type": "function"
    },
    {
      "inputs": [
        {
          "internalType": "bytes32",
          "name": "role",
          "type": "bytes32"
        },
        {
          "internalType": "address",
          "name": "account",
          "type": "address"
        }
      ],
      "name": "hasRole",
      "outputs": [
        {
          "internalType": "bool",
          "name": "",
          "type": "bool"
        }
      ],
      "stateMutability": "view",
      "type": "function"
    },
    {
      "inputs": [
        {
          "internalType": "address",
          "name": "owner",
          "type": "address"
        },
        {
          "internalType": "uint256",
          "name": "collectionIndex",
          "type": "uint256"
        }
      ],
      "name": "hasTokenInCollection",
      "outputs": [
        {
          "internalType": "bool",
          "name": "",
          "type": "bool"
        }
      ],
      "stateMutability": "view",
      "type": "function"
    },
    {
      "inputs": [
        {
          "internalType": "address",
          "name": "owner",
          "type": "address"
        },
        {
          "internalType": "address",
          "name": "operator",
          "type": "address"
        }
      ],
      "name": "isApprovedForAll",
      "outputs": [
        {
          "internalType": "bool",
          "name": "",
          "type": "bool"
        }
      ],
      "stateMutability": "view",
      "type": "function"
    },
    {
      "inputs": [
        {
          "internalType": "address",
          "name": "to",
          "type": "address"
        },
        {
          "internalType": "uint256",
          "name": "collectionID",
          "type": "uint256"
        }
      ],
      "name": "mint",
      "outputs": [],
      "stateMutability": "nonpayable",
      "type": "function"
    },
    {
      "inputs": [],
      "name": "name",
      "outputs": [
        {
          "internalType": "string",
          "name": "",
          "type": "string"
        }
      ],
      "stateMutability": "view",
      "type": "function"
    },
    {
      "inputs": [
        {
          "internalType": "uint256",
          "name": "tokenId",
          "type": "uint256"
        }
      ],
      "name": "ownerOf",
      "outputs": [
        {
          "internalType": "address",
          "name": "",
          "type": "address"
        }
      ],
      "stateMutability": "view",
      "type": "function"
    },
    {
      "inputs": [
        {
          "internalType": "bytes32",
          "name": "role",
          "type": "bytes32"
        },
        {
          "internalType": "address",
          "name": "account",
          "type": "address"
        }
      ],
      "name": "renounceRole",
      "outputs": [],
      "stateMutability": "nonpayable",
      "type": "function"
    },
    {
      "inputs": [
        {
          "internalType": "bytes32",
          "name": "role",
          "type": "bytes32"
        },
        {
          "internalType": "address",
          "name": "account",
          "type": "address"
        }
      ],
      "name": "revokeRole",
      "outputs": [],
      "stateMutability": "nonpayable",
      "type": "function"
    },
    {
      "inputs": [
        {
          "internalType": "uint256",
          "name": "_tokenId",
          "type": "uint256"
        },
        {
          "internalType": "uint256",
          "name": "_value",
          "type": "uint256"
        },
        {
          "internalType": "bytes",
          "name": "_data",
          "type": "bytes"
        }
      ],
      "name": "royaltyInfo",
      "outputs": [
        {
          "internalType": "address",
          "name": "_receiver",
          "type": "address"
        },
        {
          "internalType": "uint256",
          "name": "_royaltyAmount",
          "type": "uint256"
        },
        {
          "internalType": "bytes",
          "name": "_royaltyPaymentData",
          "type": "bytes"
        }
      ],
      "stateMutability": "view",
      "type": "function"
    },
    {
      "inputs": [
        {
          "internalType": "address",
          "name": "from",
          "type": "address"
        },
        {
          "internalType": "address",
          "name": "to",
          "type": "address"
        },
        {
          "internalType": "uint256",
          "name": "tokenId",
          "type": "uint256"
        }
      ],
      "name": "safeTransferFrom",
      "outputs": [],
      "stateMutability": "nonpayable",
      "type": "function"
    },
    {
      "inputs": [
        {
          "internalType": "address",
          "name": "from",
          "type": "address"
        },
        {
          "internalType": "address",
          "name": "to",
          "type": "address"
        },
        {
          "internalType": "uint256",
          "name": "tokenId",
          "type": "uint256"
        },
        {
          "internalType": "bytes",
          "name": "_data",
          "type": "bytes"
        }
      ],
      "name": "safeTransferFrom",
      "outputs": [],
      "stateMutability": "nonpayable",
      "type": "function"
    },
    {
      "inputs": [
        {
          "internalType": "address",
          "name": "operator",
          "type": "address"
        },
        {
          "internalType": "bool",
          "name": "approved",
          "type": "bool"
        }
      ],
      "name": "setApprovalForAll",
      "outputs": [],
      "stateMutability": "nonpayable",
      "type": "function"
    },
    {
      "inputs": [
        {
          "internalType": "bytes4",
          "name": "interfaceId",
          "type": "bytes4"
        }
      ],
      "name": "supportsInterface",
      "outputs": [
        {
          "internalType": "bool",
          "name": "",
          "type": "bool"
        }
      ],
      "stateMutability": "view",
      "type": "function"
    },
    {
      "inputs": [],
      "name": "symbol",
      "outputs": [
        {
          "internalType": "string",
          "name": "",
          "type": "string"
        }
      ],
      "stateMutability": "view",
      "type": "function"
    },
    {
      "inputs": [
        {
          "internalType": "uint256",
          "name": "index",
          "type": "uint256"
        }
      ],
      "name": "tokenByIndex",
      "outputs": [
        {
          "internalType": "uint256",
          "name": "",
          "type": "uint256"
        }
      ],
      "stateMutability": "view",
      "type": "function"
    },
    {
      "inputs": [
        {
          "internalType": "address",
          "name": "owner",
          "type": "address"
        },
        {
          "internalType": "uint256",
          "name": "index",
          "type": "uint256"
        }
      ],
      "name": "tokenOfOwnerByIndex",
      "outputs": [
        {
          "internalType": "uint256",
          "name": "",
          "type": "uint256"
        }
      ],
      "stateMutability": "view",
      "type": "function"
    },
    {
      "inputs": [
        {
          "internalType": "uint256",
          "name": "",
          "type": "uint256"
        }
      ],
      "name": "tokenToCollection",
      "outputs": [
        {
          "internalType": "uint256",
          "name": "",
          "type": "uint256"
        }
      ],
      "stateMutability": "view",
      "type": "function"
    },
    {
      "inputs": [
        {
          "internalType": "uint256",
          "name": "token",
          "type": "uint256"
        }
      ],
      "name": "tokenToCollectionIndex",
      "outputs": [
        {
          "internalType": "uint256",
          "name": "tokenIndex",
          "type": "uint256"
        }
      ],
      "stateMutability": "view",
      "type": "function"
    },
    {
      "inputs": [
        {
          "internalType": "uint256",
          "name": "tokenId",
          "type": "uint256"
        }
      ],
      "name": "tokenURI",
      "outputs": [
        {
          "internalType": "string",
          "name": "",
          "type": "string"
        }
      ],
      "stateMutability": "view",
      "type": "function"
    },
    {
      "inputs": [],
      "name": "totalSupply",
      "outputs": [
        {
          "internalType": "uint256",
          "name": "",
          "type": "uint256"
        }
      ],
      "stateMutability": "view",
      "type": "function"
    },
    {
      "inputs": [
        {
          "internalType": "address",
          "name": "from",
          "type": "address"
        },
        {
          "internalType": "address",
          "name": "to",
          "type": "address"
        },
        {
          "internalType": "uint256",
          "name": "tokenId",
          "type": "uint256"
        }
      ],
      "name": "transferFrom",
      "outputs": [],
      "stateMutability": "nonpayable",
      "type": "function"
    }
  ],
  "bytecode": "0x60806040523480156200001157600080fd5b50604051620034a6380380620034a68339810160408190526200003491620003a5565b82604051806040016040528060048152602001632920a4a960e11b81525081600090805190602001906200006a929190620002cf565b50805162000080906001906020840190620002cf565b5050600e80546001600160b01b0319163361ffff60a01b191617600160a01b61ffff85160217905550620000d3600080516020620034868339815191526000805160206200346683398151915262000112565b620000ee600080516020620034668339815191528362000166565b62000109600080516020620034868339815191528362000166565b505050620004fb565b6000828152600a6020526040902060010154819060405184907fbd79b86ffe0ab8e8776151514217cd7cacd52c909f66475c3af44e129f0b00ff90600090a46000918252600a602052604090912060010155565b6200017d8282620001a960201b620014341760201c565b6000828152600b60209081526040909120620001a491839062001442620001b9821b17901c565b505050565b620001b58282620001d9565b5050565b6000620001d0836001600160a01b0384166200027d565b90505b92915050565b6000828152600a602090815260408083206001600160a01b038516845290915290205460ff16620001b5576000828152600a602090815260408083206001600160a01b03851684529091529020805460ff19166001179055620002393390565b6001600160a01b0316816001600160a01b0316837f2f8788117e7eff1d82e926ec794901d17c78024a50270940304540a733656f0d60405160405180910390a45050565b6000818152600183016020526040812054620002c657508154600181810184556000848152602080822090930184905584548482528286019093526040902091909155620001d3565b506000620001d3565b828054620002dd90620004a8565b90600052602060002090601f0160209004810192826200030157600085556200034c565b82601f106200031c57805160ff19168380011785556200034c565b828001600101855582156200034c579182015b828111156200034c5782518255916020019190600101906200032f565b506200035a9291506200035e565b5090565b5b808211156200035a57600081556001016200035f565b80516001600160a01b03811681146200038d57600080fd5b919050565b805161ffff811681146200038d57600080fd5b600080600060608486031215620003bb57600080fd5b83516001600160401b0380821115620003d357600080fd5b818601915086601f830112620003e857600080fd5b815181811115620003fd57620003fd620004e5565b604051601f8201601f19908116603f01168101908382118183101715620004285762000428620004e5565b816040528281526020935089848487010111156200044557600080fd5b600091505b828210156200046957848201840151818301850152908301906200044a565b828211156200047b5760008484830101525b96506200048d91505086820162000375565b935050506200049f6040850162000392565b90509250925092565b600181811c90821680620004bd57607f821691505b60208210811415620004df57634e487b7160e01b600052602260045260246000fd5b50919050565b634e487b7160e01b600052604160045260246000fd5b612f5b806200050b6000396000f3fe608060405234801561001057600080fd5b50600436106102265760003560e01c80636352211e1161012a578063ab9aae35116100bd578063ca15c8731161008c578063e4fbb60911610071578063e4fbb609146104e9578063e985e9c514610510578063fe6d81241461054c57600080fd5b8063ca15c873146104c3578063d547741f146104d657600080fd5b8063ab9aae3514610468578063b88d4fde1461047b578063c155531d1461048e578063c87b56dd146104b057600080fd5b806395d89b41116100f957806395d89b411461043257806397099fb21461043a578063a217fddf1461044d578063a22cb4651461045557600080fd5b80636352211e146103c057806370a08231146103d35780639010d07c146103e657806391d14854146103f957600080fd5b8063248a9ca3116101bd57806340c10f191161018c5780634f6ccce7116101715780634f6ccce7146103775780635a1f3c281461038a5780636018d3e3146103ad57600080fd5b806340c10f191461035157806342842e0e1461036457600080fd5b8063248a9ca3146102f55780632f2ff15d146103185780632f745c591461032b57806336568abe1461033e57600080fd5b806318160ddd116101f957806318160ddd146102a8578063195f78ae146102ba5780631c10106f146102da57806323b872dd146102e257600080fd5b806301ffc9a71461022b57806306fdde0314610253578063081812fc14610268578063095ea7b314610293575b600080fd5b61023e610239366004612a28565b610573565b60405190151581526020015b60405180910390f35b61025b6105b7565b60405161024a9190612c8d565b61027b6102763660046129ca565b610649565b6040516001600160a01b03909116815260200161024a565b6102a66102a13660046129a0565b6106e3565b005b6008545b60405190815260200161024a565b6102ac6102c83660046129ca565b600d6020526000908152604090205481565b600c546102ac565b6102a66102f03660046128ac565b610815565b6102ac6103033660046129ca565b6000908152600a602052604090206001015490565b6102a66103263660046129e3565b61089c565b6102ac6103393660046129a0565b6108be565b6102a661034c3660046129e3565b610966565b6102a661035f3660046129a0565b610988565b6102a66103723660046128ac565b610b65565b6102ac6103853660046129ca565b610b80565b61039d6103983660046129ca565b610c24565b60405161024a9493929190612d6a565b6102a66103bb366004612a62565b610d37565b61027b6103ce3660046129ca565b610f4c565b6102ac6103e136600461285e565b610fd7565b61027b6103f4366004612a06565b611071565b61023e6104073660046129e3565b6000918252600a602090815260408084206001600160a01b0393909316845291905290205460ff1690565b61025b611090565b61023e6104483660046129a0565b61109f565b6102ac600081565b6102a6610463366004612964565b6110fd565b6102ac6104763660046129ca565b6111c2565b6102a66104893660046128e8565b611203565b6104a161049c366004612ac4565b61128b565b60405161024a93929190612c5c565b61025b6104be3660046129ca565b61131e565b6102ac6104d13660046129ca565b611413565b6102a66104e43660046129e3565b61142a565b6102ac7f3c2519c4487d47714872f92cf90a50c25f5deaec2789dc2a497b1272df611db681565b61023e61051e366004612879565b6001600160a01b03918216600090815260056020908152604080832093909416825291909152205460ff1690565b6102ac7ff0887ba65ee2024ea881d91b74c2450ef19e1557f03bed3ea9f16b037cbe2dc981565b60006001600160e01b031982167fc0aa9aba0000000000000000000000000000000000000000000000000000000014806105b157506105b182611457565b92915050565b6060600080546105c690612e34565b80601f01602080910402602001604051908101604052809291908181526020018280546105f290612e34565b801561063f5780601f106106145761010080835404028352916020019161063f565b820191906000526020600020905b81548152906001019060200180831161062257829003601f168201915b5050505050905090565b6000818152600260205260408120546001600160a01b03166106c75760405162461bcd60e51b815260206004820152602c60248201527f4552433732313a20617070726f76656420717565727920666f72206e6f6e657860448201526b34b9ba32b73a103a37b5b2b760a11b60648201526084015b60405180910390fd5b506000908152600460205260409020546001600160a01b031690565b60006106ee82610f4c565b9050806001600160a01b0316836001600160a01b031614156107785760405162461bcd60e51b815260206004820152602160248201527f4552433732313a20617070726f76616c20746f2063757272656e74206f776e6560448201527f720000000000000000000000000000000000000000000000000000000000000060648201526084016106be565b336001600160a01b03821614806107945750610794813361051e565b6108065760405162461bcd60e51b815260206004820152603860248201527f4552433732313a20617070726f76652063616c6c6572206973206e6f74206f7760448201527f6e6572206e6f7220617070726f76656420666f7220616c6c000000000000000060648201526084016106be565b6108108383611495565b505050565b61081f3382611510565b6108915760405162461bcd60e51b815260206004820152603160248201527f4552433732313a207472616e736665722063616c6c6572206973206e6f74206f60448201527f776e6572206e6f7220617070726f76656400000000000000000000000000000060648201526084016106be565b610810838383611607565b6108a682826117ec565b6000828152600b602052604090206108109082611442565b60006108c983610fd7565b821061093d5760405162461bcd60e51b815260206004820152602b60248201527f455243373231456e756d657261626c653a206f776e657220696e646578206f7560448201527f74206f6620626f756e647300000000000000000000000000000000000000000060648201526084016106be565b506001600160a01b03919091166000908152600660209081526040808320938352929052205490565b6109708282611812565b6000828152600b60205260409020610810908261189a565b7ff0887ba65ee2024ea881d91b74c2450ef19e1557f03bed3ea9f16b037cbe2dc96109b381336118af565b6000600c83815481106109c8576109c8612ee0565b906000526020600020906005020190506000816002015411610a525760405162461bcd60e51b815260206004820152603460248201527f52414952204552433732313a2043616e6e6f74206d696e7420746f6b656e732060448201527f66726f6d207468697320636f6c6c656374696f6e00000000000000000000000060648201526084016106be565b610a6f8482600201548360010154610a6a9190612dda565b61192f565b82600d600083600201548460010154610a889190612dda565b815260200190815260200160002081905550806002016000815480929190610aaf90612e1d565b9091555050600381015415610b1a57600381018054906000610ad083612e1d565b90915550506003810154610b1a57827facf2f481ab4e0a6a6928fa55f92b2526414a1065c43a7103afd0fbdecb1cb5d982600401604051610b119190612cc2565b60405180910390a25b6002810154610b5f57827f3ab828a3fee3d542c87fb145e900664325100c3c0b2e2a2cca38685b6de1b27182600401604051610b569190612cc2565b60405180910390a25b50505050565b61081083838360405180602001604052806000815250611203565b6000610b8b60085490565b8210610bff5760405162461bcd60e51b815260206004820152602c60248201527f455243373231456e756d657261626c653a20676c6f62616c20696e646578206f60448201527f7574206f6620626f756e6473000000000000000000000000000000000000000060648201526084016106be565b60088281548110610c1257610c12612ee0565b90600052602060002001549050919050565b600080600060606000600c8681548110610c4057610c40612ee0565b90600052602060002090600502016040518060a001604052908160008201548152602001600182015481526020016002820154815260200160038201548152602001600482018054610c9190612e34565b80601f0160208091040260200160405190810160405280929190818152602001828054610cbd90612e34565b8015610d0a5780601f10610cdf57610100808354040283529160200191610d0a565b820191906000526020600020905b815481529060010190602001808311610ced57829003601f168201915b505050919092525050815160208301516040840151608090940151919a9099509297509550909350505050565b7f3c2519c4487d47714872f92cf90a50c25f5deaec2789dc2a497b1272df611db6610d6281336118af565b81831015610dfe5760405162461bcd60e51b815260206004820152604360248201527f4552433732313a20526573616c652073746172742073686f756c64206265206c60448201527f657373207468616e2074686520746f74616c20616d6f756e74206f6620636f7060648201527f6965730000000000000000000000000000000000000000000000000000000000608482015260a4016106be565b600c54600090610e1057506000610e45565b600c8054610e2090600190612dda565b81548110610e3057610e30612ee0565b90600052602060002090600502016001015490505b600c80546001810182556000919091526005027fdf6966c971051c3d54ec59162606531493a51404a002842f56009d7e5cf4a8c701818155610e878583612d8f565b60018201558551610ea19060048301906020890190612733565b506002810185905560038101849055600c54610ebf90600190612dda565b7f9ae7dd5dbfc3938737af70872685a3fb26f364d20134cd30be25108122626a178787604051610ef0929190612ca0565b60405180910390a283610f4457600c54610f0c90600190612dda565b7facf2f481ab4e0a6a6928fa55f92b2526414a1065c43a7103afd0fbdecb1cb5d987604051610f3b9190612c8d565b60405180910390a25b505050505050565b6000818152600260205260408120546001600160a01b0316806105b15760405162461bcd60e51b815260206004820152602960248201527f4552433732313a206f776e657220717565727920666f72206e6f6e657869737460448201527f656e7420746f6b656e000000000000000000000000000000000000000000000060648201526084016106be565b60006001600160a01b0382166110555760405162461bcd60e51b815260206004820152602a60248201527f4552433732313a2062616c616e636520717565727920666f7220746865207a6560448201527f726f20616464726573730000000000000000000000000000000000000000000060648201526084016106be565b506001600160a01b031660009081526003602052604090205490565b6000828152600b602052604081206110899083611949565b9392505050565b6060600180546105c690612e34565b6000805b6110ac84610fd7565b8110156110f35782600d60006110c287856108be565b81526020019081526020016000205414156110e15760019150506105b1565b806110eb81612e6f565b9150506110a3565b5060009392505050565b6001600160a01b0382163314156111565760405162461bcd60e51b815260206004820152601960248201527f4552433732313a20617070726f766520746f2063616c6c65720000000000000060448201526064016106be565b3360008181526005602090815260408083206001600160a01b03871680855290835292819020805460ff191686151590811790915590519081529192917f17307eab39ab6107e8899845ad3d59bd9653f200f220920489ca2b5937696c31910160405180910390a35050565b6000818152600d6020526040812054600c805490919081106111e6576111e6612ee0565b906000526020600020906005020160000154826105b19190612dda565b61120d3383611510565b61127f5760405162461bcd60e51b815260206004820152603160248201527f4552433732313a207472616e736665722063616c6c6572206973206e6f74206f60448201527f776e6572206e6f7220617070726f76656400000000000000000000000000000060648201526084016106be565b610b5f84848484611955565b60008060606112bb7f3c2519c4487d47714872f92cf90a50c25f5deaec2789dc2a497b1272df611db66000611071565b600e54620186a0906112e99074010000000000000000000000000000000000000000900461ffff1689612dbb565b6112f39190612da7565b60408051602081018b9052016040516020818303038152906040529250925092509450945094915050565b6000818152600260205260409020546060906001600160a01b03166113ab5760405162461bcd60e51b815260206004820152602f60248201527f4552433732314d657461646174613a2055524920717565727920666f72206e6f60448201527f6e6578697374656e7420746f6b656e000000000000000000000000000000000060648201526084016106be565b60006113c260408051602081019091526000815290565b905060008151116113e25760405180602001604052806000815250611089565b806113ec846119d3565b6040516020016113fd929190612b70565b6040516020818303038152906040529392505050565b6000818152600b602052604081206105b190611ad1565b6109708282611adb565b61143e8282611b01565b5050565b6000611089836001600160a01b038416611ba3565b60006001600160e01b031982167f5a05180f0000000000000000000000000000000000000000000000000000000014806105b157506105b182611bf2565b6000818152600460205260409020805473ffffffffffffffffffffffffffffffffffffffff19166001600160a01b03841690811790915581906114d782610f4c565b6001600160a01b03167f8c5be1e5ebec7d5bd14f71427d1e84f3dd0314c0f7b2291e5b200ac8c7c3b92560405160405180910390a45050565b6000818152600260205260408120546001600160a01b03166115895760405162461bcd60e51b815260206004820152602c60248201527f4552433732313a206f70657261746f7220717565727920666f72206e6f6e657860448201526b34b9ba32b73a103a37b5b2b760a11b60648201526084016106be565b600061159483610f4c565b9050806001600160a01b0316846001600160a01b031614806115cf5750836001600160a01b03166115c484610649565b6001600160a01b0316145b806115ff57506001600160a01b0380821660009081526005602090815260408083209388168352929052205460ff165b949350505050565b826001600160a01b031661161a82610f4c565b6001600160a01b0316146116965760405162461bcd60e51b815260206004820152602960248201527f4552433732313a207472616e73666572206f6620746f6b656e2074686174206960448201527f73206e6f74206f776e000000000000000000000000000000000000000000000060648201526084016106be565b6001600160a01b0382166117115760405162461bcd60e51b8152602060048201526024808201527f4552433732313a207472616e7366657220746f20746865207a65726f2061646460448201527f726573730000000000000000000000000000000000000000000000000000000060648201526084016106be565b61171c838383611c30565b611727600082611495565b6001600160a01b0383166000908152600360205260408120805460019290611750908490612dda565b90915550506001600160a01b038216600090815260036020526040812080546001929061177e908490612d8f565b9091555050600081815260026020526040808220805473ffffffffffffffffffffffffffffffffffffffff19166001600160a01b0386811691821790925591518493918716917fddf252ad1be2c89b69c2b068fc378daa952ba7f163c4a11628f55a4df523b3ef91a4505050565b6000828152600a602052604090206001015461180881336118af565b6108108383611b01565b6001600160a01b03811633146118905760405162461bcd60e51b815260206004820152602f60248201527f416363657373436f6e74726f6c3a2063616e206f6e6c792072656e6f756e636560448201527f20726f6c657320666f722073656c66000000000000000000000000000000000060648201526084016106be565b61143e8282611d0b565b6000611089836001600160a01b038416611d8e565b6000828152600a602090815260408083206001600160a01b038516845290915290205460ff1661143e576118ed816001600160a01b03166014611e7b565b6118f8836020611e7b565b604051602001611909929190612b9f565b60408051601f198184030181529082905262461bcd60e51b82526106be91600401612c8d565b61143e828260405180602001604052806000815250612040565b600061108983836120be565b611960848484611607565b61196c8484848461215f565b610b5f5760405162461bcd60e51b815260206004820152603260248201527f4552433732313a207472616e7366657220746f206e6f6e20455243373231526560448201527131b2b4bb32b91034b6b83632b6b2b73a32b960711b60648201526084016106be565b6060816119f75750506040805180820190915260018152600360fc1b602082015290565b8160005b8115611a215780611a0b81612e6f565b9150611a1a9050600a83612da7565b91506119fb565b60008167ffffffffffffffff811115611a3c57611a3c612ef6565b6040519080825280601f01601f191660200182016040528015611a66576020820181803683370190505b5090505b84156115ff57611a7b600183612dda565b9150611a88600a86612e8a565b611a93906030612d8f565b60f81b818381518110611aa857611aa8612ee0565b60200101906001600160f81b031916908160001a905350611aca600a86612da7565b9450611a6a565b60006105b1825490565b6000828152600a6020526040902060010154611af781336118af565b6108108383611d0b565b6000828152600a602090815260408083206001600160a01b038516845290915290205460ff1661143e576000828152600a602090815260408083206001600160a01b03851684529091529020805460ff19166001179055611b5f3390565b6001600160a01b0316816001600160a01b0316837f2f8788117e7eff1d82e926ec794901d17c78024a50270940304540a733656f0d60405160405180910390a45050565b6000818152600183016020526040812054611bea575081546001818101845560008481526020808220909301849055845484825282860190935260409020919091556105b1565b5060006105b1565b60006001600160e01b031982167f7965db0b0000000000000000000000000000000000000000000000000000000014806105b157506105b1826122b7565b6001600160a01b03831615801590611c5057506001600160a01b03821615155b15611d00576000818152600d6020526040902054600c80549091908110611c7957611c79612ee0565b906000526020600020906005020160030154600014611d005760405162461bcd60e51b815260206004820152603f60248201527f52414952204552433732313a205472616e736665727320666f7220746869732060448201527f636f6c6c656374696f6e20686176656e2774206265656e20656e61626c65640060648201526084016106be565b6108108383836122f5565b6000828152600a602090815260408083206001600160a01b038516845290915290205460ff161561143e576000828152600a602090815260408083206001600160a01b0385168085529252808320805460ff1916905551339285917ff6391f5c32d9c69d2a47ea670b442974b53935d1edc7fd64eb21e047a839171b9190a45050565b60008181526001830160205260408120548015611e71576000611db2600183612dda565b8554909150600090611dc690600190612dda565b90506000866000018281548110611ddf57611ddf612ee0565b9060005260206000200154905080876000018481548110611e0257611e02612ee0565b600091825260208083209091019290925582815260018901909152604090208490558654879080611e3557611e35612eca565b600190038181906000526020600020016000905590558660010160008781526020019081526020016000206000905560019450505050506105b1565b60009150506105b1565b60606000611e8a836002612dbb565b611e95906002612d8f565b67ffffffffffffffff811115611ead57611ead612ef6565b6040519080825280601f01601f191660200182016040528015611ed7576020820181803683370190505b509050600360fc1b81600081518110611ef257611ef2612ee0565b60200101906001600160f81b031916908160001a9053507f780000000000000000000000000000000000000000000000000000000000000081600181518110611f3d57611f3d612ee0565b60200101906001600160f81b031916908160001a9053506000611f61846002612dbb565b611f6c906001612d8f565b90505b6001811115611ff1577f303132333435363738396162636465660000000000000000000000000000000085600f1660108110611fad57611fad612ee0565b1a60f81b828281518110611fc357611fc3612ee0565b60200101906001600160f81b031916908160001a90535060049490941c93611fea81612e1d565b9050611f6f565b5083156110895760405162461bcd60e51b815260206004820181905260248201527f537472696e67733a20686578206c656e67746820696e73756666696369656e7460448201526064016106be565b61204a83836123ad565b612057600084848461215f565b6108105760405162461bcd60e51b815260206004820152603260248201527f4552433732313a207472616e7366657220746f206e6f6e20455243373231526560448201527131b2b4bb32b91034b6b83632b6b2b73a32b960711b60648201526084016106be565b815460009082106121375760405162461bcd60e51b815260206004820152602260248201527f456e756d657261626c655365743a20696e646578206f7574206f6620626f756e60448201527f647300000000000000000000000000000000000000000000000000000000000060648201526084016106be565b82600001828154811061214c5761214c612ee0565b9060005260206000200154905092915050565b60006001600160a01b0384163b156122ac57604051630a85bd0160e11b81526001600160a01b0385169063150b7a02906121a3903390899088908890600401612c20565b602060405180830381600087803b1580156121bd57600080fd5b505af19250505080156121ed575060408051601f3d908101601f191682019092526121ea91810190612a45565b60015b612292573d80801561221b576040519150601f19603f3d011682016040523d82523d6000602084013e612220565b606091505b50805161228a5760405162461bcd60e51b815260206004820152603260248201527f4552433732313a207472616e7366657220746f206e6f6e20455243373231526560448201527131b2b4bb32b91034b6b83632b6b2b73a32b960711b60648201526084016106be565b805181602001fd5b6001600160e01b031916630a85bd0160e11b1490506115ff565b506001949350505050565b60006001600160e01b031982167f780e9d630000000000000000000000000000000000000000000000000000000014806105b157506105b182612508565b6001600160a01b0383166123505761234b81600880546000838152600960205260408120829055600182018355919091527ff3f7a9fe364faab93b216da50a3214154f22a0a2b415b23a84c8169e8b636ee30155565b612373565b816001600160a01b0316836001600160a01b0316146123735761237383826125a3565b6001600160a01b03821661238a5761081081612640565b826001600160a01b0316826001600160a01b0316146108105761081082826126ef565b6001600160a01b0382166124035760405162461bcd60e51b815260206004820181905260248201527f4552433732313a206d696e7420746f20746865207a65726f206164647265737360448201526064016106be565b6000818152600260205260409020546001600160a01b0316156124685760405162461bcd60e51b815260206004820152601c60248201527f4552433732313a20746f6b656e20616c7265616479206d696e7465640000000060448201526064016106be565b61247460008383611c30565b6001600160a01b038216600090815260036020526040812080546001929061249d908490612d8f565b9091555050600081815260026020526040808220805473ffffffffffffffffffffffffffffffffffffffff19166001600160a01b03861690811790915590518392907fddf252ad1be2c89b69c2b068fc378daa952ba7f163c4a11628f55a4df523b3ef908290a45050565b60006001600160e01b031982167f80ac58cd00000000000000000000000000000000000000000000000000000000148061256b57506001600160e01b031982167f5b5e139f00000000000000000000000000000000000000000000000000000000145b806105b157507f01ffc9a7000000000000000000000000000000000000000000000000000000006001600160e01b03198316146105b1565b600060016125b084610fd7565b6125ba9190612dda565b60008381526007602052604090205490915080821461260d576001600160a01b03841660009081526006602090815260408083208584528252808320548484528184208190558352600790915290208190555b5060009182526007602090815260408084208490556001600160a01b039094168352600681528383209183525290812055565b60085460009061265290600190612dda565b6000838152600960205260408120546008805493945090928490811061267a5761267a612ee0565b90600052602060002001549050806008838154811061269b5761269b612ee0565b60009182526020808320909101929092558281526009909152604080822084905585825281205560088054806126d3576126d3612eca565b6001900381819060005260206000200160009055905550505050565b60006126fa83610fd7565b6001600160a01b039093166000908152600660209081526040808320868452825280832085905593825260079052919091209190915550565b82805461273f90612e34565b90600052602060002090601f01602090048101928261276157600085556127a7565b82601f1061277a57805160ff19168380011785556127a7565b828001600101855582156127a7579182015b828111156127a757825182559160200191906001019061278c565b506127b39291506127b7565b5090565b5b808211156127b357600081556001016127b8565b600067ffffffffffffffff808411156127e7576127e7612ef6565b604051601f8501601f19908116603f0116810190828211818310171561280f5761280f612ef6565b8160405280935085815286868601111561282857600080fd5b858560208301376000602087830101525050509392505050565b80356001600160a01b038116811461285957600080fd5b919050565b60006020828403121561287057600080fd5b61108982612842565b6000806040838503121561288c57600080fd5b61289583612842565b91506128a360208401612842565b90509250929050565b6000806000606084860312156128c157600080fd5b6128ca84612842565b92506128d860208501612842565b9150604084013590509250925092565b600080600080608085870312156128fe57600080fd5b61290785612842565b935061291560208601612842565b925060408501359150606085013567ffffffffffffffff81111561293857600080fd5b8501601f8101871361294957600080fd5b612958878235602084016127cc565b91505092959194509250565b6000806040838503121561297757600080fd5b61298083612842565b91506020830135801515811461299557600080fd5b809150509250929050565b600080604083850312156129b357600080fd5b6129bc83612842565b946020939093013593505050565b6000602082840312156129dc57600080fd5b5035919050565b600080604083850312156129f657600080fd5b823591506128a360208401612842565b60008060408385031215612a1957600080fd5b50508035926020909101359150565b600060208284031215612a3a57600080fd5b813561108981612f0c565b600060208284031215612a5757600080fd5b815161108981612f0c565b600080600060608486031215612a7757600080fd5b833567ffffffffffffffff811115612a8e57600080fd5b8401601f81018613612a9f57600080fd5b612aae868235602084016127cc565b9660208601359650604090950135949350505050565b60008060008060608587031215612ada57600080fd5b8435935060208501359250604085013567ffffffffffffffff80821115612b0057600080fd5b818701915087601f830112612b1457600080fd5b813581811115612b2357600080fd5b886020828501011115612b3557600080fd5b95989497505060200194505050565b60008151808452612b5c816020860160208601612df1565b601f01601f19169290920160200192915050565b60008351612b82818460208801612df1565b835190830190612b96818360208801612df1565b01949350505050565b7f416363657373436f6e74726f6c3a206163636f756e7420000000000000000000815260008351612bd7816017850160208801612df1565b7f206973206d697373696e6720726f6c65200000000000000000000000000000006017918401918201528351612c14816028840160208801612df1565b01602801949350505050565b60006001600160a01b03808716835280861660208401525083604083015260806060830152612c526080830184612b44565b9695505050505050565b6001600160a01b0384168152826020820152606060408201526000612c846060830184612b44565b95945050505050565b6020815260006110896020830184612b44565b604081526000612cb36040830185612b44565b90508260208301529392505050565b600060208083526000845481600182811c915080831680612ce457607f831692505b858310811415612d0257634e487b7160e01b85526022600452602485fd5b878601838152602001818015612d1f5760018114612d3057612d5b565b60ff19861682528782019650612d5b565b60008b81526020902060005b86811015612d5557815484820152908501908901612d3c565b83019750505b50949998505050505050505050565b848152836020820152826040820152608060608201526000612c526080830184612b44565b60008219821115612da257612da2612e9e565b500190565b600082612db657612db6612eb4565b500490565b6000816000190483118215151615612dd557612dd5612e9e565b500290565b600082821015612dec57612dec612e9e565b500390565b60005b83811015612e0c578181015183820152602001612df4565b83811115610b5f5750506000910152565b600081612e2c57612e2c612e9e565b506000190190565b600181811c90821680612e4857607f821691505b60208210811415612e6957634e487b7160e01b600052602260045260246000fd5b50919050565b6000600019821415612e8357612e83612e9e565b5060010190565b600082612e9957612e99612eb4565b500690565b634e487b7160e01b600052601160045260246000fd5b634e487b7160e01b600052601260045260246000fd5b634e487b7160e01b600052603160045260246000fd5b634e487b7160e01b600052603260045260246000fd5b634e487b7160e01b600052604160045260246000fd5b6001600160e01b031981168114612f2257600080fd5b5056fea2646970667358221220b306ca0a7d0ec77269c51efe64456aeef4970c3ac496213c3af5c51b7323def664736f6c634300080600333c2519c4487d47714872f92cf90a50c25f5deaec2789dc2a497b1272df611db6f0887ba65ee2024ea881d91b74c2450ef19e1557f03bed3ea9f16b037cbe2dc9",
  "linkReferences": {},
  "deployedLinkReferences": {}
}