{
  "_format": "hh-sol-artifact-1",
  "contractName": "RAIR_ERC721",
  "sourceName": "contracts/Tokens/RAIR-ERC721.sol",
  "abi": [
    {
      "inputs": [
        {
          "internalType": "string",
          "name": "_contractName",
          "type": "string"
        },
        {
          "internalType": "address",
          "name": "_creatorAddress",
          "type": "address"
        },
        {
          "internalType": "uint16",
          "name": "_creatorRoyalty",
          "type": "uint16"
        }
      ],
      "stateMutability": "nonpayable",
      "type": "constructor"
    },
    {
      "anonymous": false,
      "inputs": [
        {
          "indexed": true,
          "internalType": "address",
          "name": "owner",
          "type": "address"
        },
        {
          "indexed": true,
          "internalType": "address",
          "name": "approved",
          "type": "address"
        },
        {
          "indexed": true,
          "internalType": "uint256",
          "name": "tokenId",
          "type": "uint256"
        }
      ],
      "name": "Approval",
      "type": "event"
    },
    {
      "anonymous": false,
      "inputs": [
        {
          "indexed": true,
          "internalType": "address",
          "name": "owner",
          "type": "address"
        },
        {
          "indexed": true,
          "internalType": "address",
          "name": "operator",
          "type": "address"
        },
        {
          "indexed": false,
          "internalType": "bool",
          "name": "approved",
          "type": "bool"
        }
      ],
      "name": "ApprovalForAll",
      "type": "event"
    },
    {
      "anonymous": false,
      "inputs": [
        {
          "indexed": true,
          "internalType": "uint256",
          "name": "id",
          "type": "uint256"
        },
        {
          "indexed": false,
          "internalType": "string",
          "name": "name",
          "type": "string"
        }
      ],
      "name": "CollectionCompleted",
      "type": "event"
    },
    {
      "anonymous": false,
      "inputs": [
        {
          "indexed": true,
          "internalType": "uint256",
          "name": "id",
          "type": "uint256"
        },
        {
          "indexed": false,
          "internalType": "string",
          "name": "name",
          "type": "string"
        },
        {
          "indexed": false,
          "internalType": "uint256",
          "name": "length",
          "type": "uint256"
        }
      ],
      "name": "CollectionCreated",
      "type": "event"
    },
    {
      "anonymous": false,
      "inputs": [
        {
          "indexed": false,
          "internalType": "uint256",
          "name": "collectionIndex",
          "type": "uint256"
        },
        {
          "indexed": false,
          "internalType": "uint256",
          "name": "startingToken",
          "type": "uint256"
        },
        {
          "indexed": false,
          "internalType": "uint256",
          "name": "endingToken",
          "type": "uint256"
        },
        {
          "indexed": false,
          "internalType": "uint256",
          "name": "tokensLocked",
          "type": "uint256"
        },
        {
          "indexed": false,
          "internalType": "string",
          "name": "collectionName",
          "type": "string"
        }
      ],
      "name": "RangeLocked",
      "type": "event"
    },
    {
      "anonymous": false,
      "inputs": [
        {
          "indexed": false,
          "internalType": "uint256",
          "name": "collectionID",
          "type": "uint256"
        },
        {
          "indexed": false,
          "internalType": "uint256",
          "name": "startingToken",
          "type": "uint256"
        },
        {
          "indexed": false,
          "internalType": "uint256",
          "name": "endingToken",
          "type": "uint256"
        }
      ],
      "name": "RangeUnlocked",
      "type": "event"
    },
    {
      "anonymous": false,
      "inputs": [
        {
          "indexed": true,
          "internalType": "bytes32",
          "name": "role",
          "type": "bytes32"
        },
        {
          "indexed": true,
          "internalType": "bytes32",
          "name": "previousAdminRole",
          "type": "bytes32"
        },
        {
          "indexed": true,
          "internalType": "bytes32",
          "name": "newAdminRole",
          "type": "bytes32"
        }
      ],
      "name": "RoleAdminChanged",
      "type": "event"
    },
    {
      "anonymous": false,
      "inputs": [
        {
          "indexed": true,
          "internalType": "bytes32",
          "name": "role",
          "type": "bytes32"
        },
        {
          "indexed": true,
          "internalType": "address",
          "name": "account",
          "type": "address"
        },
        {
          "indexed": true,
          "internalType": "address",
          "name": "sender",
          "type": "address"
        }
      ],
      "name": "RoleGranted",
      "type": "event"
    },
    {
      "anonymous": false,
      "inputs": [
        {
          "indexed": true,
          "internalType": "bytes32",
          "name": "role",
          "type": "bytes32"
        },
        {
          "indexed": true,
          "internalType": "address",
          "name": "account",
          "type": "address"
        },
        {
          "indexed": true,
          "internalType": "address",
          "name": "sender",
          "type": "address"
        }
      ],
      "name": "RoleRevoked",
      "type": "event"
    },
    {
      "anonymous": false,
      "inputs": [
        {
          "indexed": true,
          "internalType": "address",
          "name": "from",
          "type": "address"
        },
        {
          "indexed": true,
          "internalType": "address",
          "name": "to",
          "type": "address"
        },
        {
          "indexed": true,
          "internalType": "uint256",
          "name": "tokenId",
          "type": "uint256"
        }
      ],
      "name": "Transfer",
      "type": "event"
    },
    {
      "inputs": [],
      "name": "CREATOR",
      "outputs": [
        {
          "internalType": "bytes32",
          "name": "",
          "type": "bytes32"
        }
      ],
      "stateMutability": "view",
      "type": "function"
    },
    {
      "inputs": [],
      "name": "DEFAULT_ADMIN_ROLE",
      "outputs": [
        {
          "internalType": "bytes32",
          "name": "",
          "type": "bytes32"
        }
      ],
      "stateMutability": "view",
      "type": "function"
    },
    {
      "inputs": [],
      "name": "MINTER",
      "outputs": [
        {
          "internalType": "bytes32",
          "name": "",
          "type": "bytes32"
        }
      ],
      "stateMutability": "view",
      "type": "function"
    },
    {
      "inputs": [],
      "name": "TRADER",
      "outputs": [
        {
          "internalType": "bytes32",
          "name": "",
          "type": "bytes32"
        }
      ],
      "stateMutability": "view",
      "type": "function"
    },
    {
      "inputs": [
        {
          "internalType": "address",
          "name": "to",
          "type": "address"
        },
        {
          "internalType": "uint256",
          "name": "tokenId",
          "type": "uint256"
        }
      ],
      "name": "approve",
      "outputs": [],
      "stateMutability": "nonpayable",
      "type": "function"
    },
    {
      "inputs": [
        {
          "internalType": "address",
          "name": "owner",
          "type": "address"
        }
      ],
      "name": "balanceOf",
      "outputs": [
        {
          "internalType": "uint256",
          "name": "",
          "type": "uint256"
        }
      ],
      "stateMutability": "view",
      "type": "function"
    },
    {
      "inputs": [
        {
          "internalType": "string",
          "name": "_collectionName",
          "type": "string"
        },
        {
          "internalType": "uint256",
          "name": "_copies",
          "type": "uint256"
        }
      ],
      "name": "createCollection",
      "outputs": [],
      "stateMutability": "nonpayable",
      "type": "function"
    },
    {
      "inputs": [
        {
          "internalType": "uint256",
          "name": "collectionIndex",
          "type": "uint256"
        },
        {
          "internalType": "uint256",
          "name": "_startingToken",
          "type": "uint256"
        },
        {
          "internalType": "uint256",
          "name": "_endingToken",
          "type": "uint256"
        },
        {
          "internalType": "uint256",
          "name": "_lockedTokens",
          "type": "uint256"
        }
      ],
      "name": "createRangeLock",
      "outputs": [],
      "stateMutability": "nonpayable",
      "type": "function"
    },
    {
      "inputs": [
        {
          "internalType": "uint256",
          "name": "tokenId",
          "type": "uint256"
        }
      ],
      "name": "getApproved",
      "outputs": [
        {
          "internalType": "address",
          "name": "",
          "type": "address"
        }
      ],
      "stateMutability": "view",
      "type": "function"
    },
    {
      "inputs": [
        {
          "internalType": "uint256",
          "name": "index",
          "type": "uint256"
        }
      ],
      "name": "getCollection",
      "outputs": [
        {
          "internalType": "uint256",
          "name": "startingToken",
          "type": "uint256"
        },
        {
          "internalType": "uint256",
          "name": "endingToken",
          "type": "uint256"
        },
        {
          "internalType": "uint256",
          "name": "mintableTokensLeft",
          "type": "uint256"
        },
        {
          "internalType": "string",
          "name": "collectionName",
          "type": "string"
        }
      ],
      "stateMutability": "view",
      "type": "function"
    },
    {
      "inputs": [],
      "name": "getCollectionCount",
      "outputs": [
        {
          "internalType": "uint256",
          "name": "",
          "type": "uint256"
        }
      ],
      "stateMutability": "view",
      "type": "function"
    },
    {
      "inputs": [
        {
          "internalType": "uint256",
          "name": "collectionID",
          "type": "uint256"
        },
        {
          "internalType": "uint256",
          "name": "startingIndex",
          "type": "uint256"
        },
        {
          "internalType": "uint256",
          "name": "endingIndex",
          "type": "uint256"
        }
      ],
      "name": "getNextSequentialIndex",
      "outputs": [
        {
          "internalType": "uint256",
          "name": "nextIndex",
          "type": "uint256"
        }
      ],
      "stateMutability": "view",
      "type": "function"
    },
    {
      "inputs": [
        {
          "internalType": "bytes32",
          "name": "role",
          "type": "bytes32"
        }
      ],
      "name": "getRoleAdmin",
      "outputs": [
        {
          "internalType": "bytes32",
          "name": "",
          "type": "bytes32"
        }
      ],
      "stateMutability": "view",
      "type": "function"
    },
    {
      "inputs": [
        {
          "internalType": "bytes32",
          "name": "role",
          "type": "bytes32"
        },
        {
          "internalType": "uint256",
          "name": "index",
          "type": "uint256"
        }
      ],
      "name": "getRoleMember",
      "outputs": [
        {
          "internalType": "address",
          "name": "",
          "type": "address"
        }
      ],
      "stateMutability": "view",
      "type": "function"
    },
    {
      "inputs": [
        {
          "internalType": "bytes32",
          "name": "role",
          "type": "bytes32"
        }
      ],
      "name": "getRoleMemberCount",
      "outputs": [
        {
          "internalType": "uint256",
          "name": "",
          "type": "uint256"
        }
      ],
      "stateMutability": "view",
      "type": "function"
    },
    {
      "inputs": [
        {
          "internalType": "bytes32",
          "name": "role",
          "type": "bytes32"
        },
        {
          "internalType": "address",
          "name": "account",
          "type": "address"
        }
      ],
      "name": "grantRole",
      "outputs": [],
      "stateMutability": "nonpayable",
      "type": "function"
    },
    {
      "inputs": [
        {
          "internalType": "bytes32",
          "name": "role",
          "type": "bytes32"
        },
        {
          "internalType": "address",
          "name": "account",
          "type": "address"
        }
      ],
      "name": "hasRole",
      "outputs": [
        {
          "internalType": "bool",
          "name": "",
          "type": "bool"
        }
      ],
      "stateMutability": "view",
      "type": "function"
    },
    {
      "inputs": [
        {
          "internalType": "address",
          "name": "owner",
          "type": "address"
        },
        {
          "internalType": "uint256",
          "name": "collectionIndex",
          "type": "uint256"
        }
      ],
      "name": "hasTokenInCollection",
      "outputs": [
        {
          "internalType": "bool",
          "name": "",
          "type": "bool"
        }
      ],
      "stateMutability": "view",
      "type": "function"
    },
    {
      "inputs": [
        {
          "internalType": "address",
          "name": "owner",
          "type": "address"
        },
        {
          "internalType": "address",
          "name": "operator",
          "type": "address"
        }
      ],
      "name": "isApprovedForAll",
      "outputs": [
        {
          "internalType": "bool",
          "name": "",
          "type": "bool"
        }
      ],
      "stateMutability": "view",
      "type": "function"
    },
    {
      "inputs": [
        {
          "internalType": "uint256",
          "name": "_tokenId",
          "type": "uint256"
        }
      ],
      "name": "isTokenLocked",
      "outputs": [
        {
          "internalType": "bool",
          "name": "",
          "type": "bool"
        }
      ],
      "stateMutability": "view",
      "type": "function"
    },
    {
      "inputs": [
        {
          "internalType": "address",
          "name": "to",
          "type": "address"
        },
        {
          "internalType": "uint256",
          "name": "collectionID",
          "type": "uint256"
        },
        {
          "internalType": "uint256",
          "name": "indexInCollection",
          "type": "uint256"
        }
      ],
      "name": "mint",
      "outputs": [],
      "stateMutability": "nonpayable",
      "type": "function"
    },
    {
      "inputs": [],
      "name": "name",
      "outputs": [
        {
          "internalType": "string",
          "name": "",
          "type": "string"
        }
      ],
      "stateMutability": "view",
      "type": "function"
    },
    {
      "inputs": [
        {
          "internalType": "uint256",
          "name": "tokenId",
          "type": "uint256"
        }
      ],
      "name": "ownerOf",
      "outputs": [
        {
          "internalType": "address",
          "name": "",
          "type": "address"
        }
      ],
      "stateMutability": "view",
      "type": "function"
    },
    {
      "inputs": [
        {
          "internalType": "bytes32",
          "name": "role",
          "type": "bytes32"
        },
        {
          "internalType": "address",
          "name": "account",
          "type": "address"
        }
      ],
      "name": "renounceRole",
      "outputs": [],
      "stateMutability": "nonpayable",
      "type": "function"
    },
    {
      "inputs": [
        {
          "internalType": "bytes32",
          "name": "role",
          "type": "bytes32"
        },
        {
          "internalType": "address",
          "name": "account",
          "type": "address"
        }
      ],
      "name": "revokeRole",
      "outputs": [],
      "stateMutability": "nonpayable",
      "type": "function"
    },
    {
      "inputs": [
        {
          "internalType": "uint256",
          "name": "_tokenId",
          "type": "uint256"
        },
        {
          "internalType": "uint256",
          "name": "_value",
          "type": "uint256"
        },
        {
          "internalType": "bytes",
          "name": "_data",
          "type": "bytes"
        }
      ],
      "name": "royaltyInfo",
      "outputs": [
        {
          "internalType": "address",
          "name": "_receiver",
          "type": "address"
        },
        {
          "internalType": "uint256",
          "name": "_royaltyAmount",
          "type": "uint256"
        },
        {
          "internalType": "bytes",
          "name": "_royaltyPaymentData",
          "type": "bytes"
        }
      ],
      "stateMutability": "view",
      "type": "function"
    },
    {
      "inputs": [
        {
          "internalType": "address",
          "name": "from",
          "type": "address"
        },
        {
          "internalType": "address",
          "name": "to",
          "type": "address"
        },
        {
          "internalType": "uint256",
          "name": "tokenId",
          "type": "uint256"
        }
      ],
      "name": "safeTransferFrom",
      "outputs": [],
      "stateMutability": "nonpayable",
      "type": "function"
    },
    {
      "inputs": [
        {
          "internalType": "address",
          "name": "from",
          "type": "address"
        },
        {
          "internalType": "address",
          "name": "to",
          "type": "address"
        },
        {
          "internalType": "uint256",
          "name": "tokenId",
          "type": "uint256"
        },
        {
          "internalType": "bytes",
          "name": "_data",
          "type": "bytes"
        }
      ],
      "name": "safeTransferFrom",
      "outputs": [],
      "stateMutability": "nonpayable",
      "type": "function"
    },
    {
      "inputs": [
        {
          "internalType": "address",
          "name": "operator",
          "type": "address"
        },
        {
          "internalType": "bool",
          "name": "approved",
          "type": "bool"
        }
      ],
      "name": "setApprovalForAll",
      "outputs": [],
      "stateMutability": "nonpayable",
      "type": "function"
    },
    {
      "inputs": [
        {
          "internalType": "bytes4",
          "name": "interfaceId",
          "type": "bytes4"
        }
      ],
      "name": "supportsInterface",
      "outputs": [
        {
          "internalType": "bool",
          "name": "",
          "type": "bool"
        }
      ],
      "stateMutability": "view",
      "type": "function"
    },
    {
      "inputs": [],
      "name": "symbol",
      "outputs": [
        {
          "internalType": "string",
          "name": "",
          "type": "string"
        }
      ],
      "stateMutability": "view",
      "type": "function"
    },
    {
      "inputs": [
        {
          "internalType": "uint256",
          "name": "index",
          "type": "uint256"
        }
      ],
      "name": "tokenByIndex",
      "outputs": [
        {
          "internalType": "uint256",
          "name": "",
          "type": "uint256"
        }
      ],
      "stateMutability": "view",
      "type": "function"
    },
    {
      "inputs": [
        {
          "internalType": "address",
          "name": "owner",
          "type": "address"
        },
        {
          "internalType": "uint256",
          "name": "index",
          "type": "uint256"
        }
      ],
      "name": "tokenOfOwnerByIndex",
      "outputs": [
        {
          "internalType": "uint256",
          "name": "",
          "type": "uint256"
        }
      ],
      "stateMutability": "view",
      "type": "function"
    },
    {
      "inputs": [
        {
          "internalType": "uint256",
          "name": "",
          "type": "uint256"
        }
      ],
      "name": "tokenToCollection",
      "outputs": [
        {
          "internalType": "uint256",
          "name": "",
          "type": "uint256"
        }
      ],
      "stateMutability": "view",
      "type": "function"
    },
    {
      "inputs": [
        {
          "internalType": "uint256",
          "name": "token",
          "type": "uint256"
        }
      ],
      "name": "tokenToCollectionIndex",
      "outputs": [
        {
          "internalType": "uint256",
          "name": "tokenIndex",
          "type": "uint256"
        }
      ],
      "stateMutability": "view",
      "type": "function"
    },
    {
      "inputs": [
        {
          "internalType": "uint256",
          "name": "tokenId",
          "type": "uint256"
        }
      ],
      "name": "tokenURI",
      "outputs": [
        {
          "internalType": "string",
          "name": "",
          "type": "string"
        }
      ],
      "stateMutability": "view",
      "type": "function"
    },
    {
      "inputs": [],
      "name": "totalSupply",
      "outputs": [
        {
          "internalType": "uint256",
          "name": "",
          "type": "uint256"
        }
      ],
      "stateMutability": "view",
      "type": "function"
    },
    {
      "inputs": [
        {
          "internalType": "address",
          "name": "from",
          "type": "address"
        },
        {
          "internalType": "address",
          "name": "to",
          "type": "address"
        },
        {
          "internalType": "uint256",
          "name": "tokenId",
          "type": "uint256"
        }
      ],
      "name": "transferFrom",
      "outputs": [],
      "stateMutability": "nonpayable",
      "type": "function"
    }
  ],
  "bytecode": "0x60806040523480156200001157600080fd5b5060405162003ecd38038062003ecd8339810160408190526200003491620003ea565b82604051806040016040528060048152602001632920a4a960e11b81525081600090805190602001906200006a92919062000314565b5080516200008090600190602084019062000314565b5050601080546001600160b01b0319163361ffff60a01b191617600160a01b61ffff85160217905550620000d360008051602062003e8d83398151915260008051602062003e6d83398151915262000157565b620000fd60008051602062003ead83398151915260008051602062003e6d83398151915262000157565b6200011860008051602062003e6d83398151915283620001ab565b6200013360008051602062003e8d83398151915283620001ab565b6200014e60008051602062003ead83398151915283620001ab565b50505062000540565b6000828152600a6020526040902060010154819060405184907fbd79b86ffe0ab8e8776151514217cd7cacd52c909f66475c3af44e129f0b00ff90600090a46000918252600a602052604090912060010155565b620001c28282620001ee60201b62001cbb1760201c565b6000828152600b60209081526040909120620001e991839062001cc9620001fe821b17901c565b505050565b620001fa82826200021e565b5050565b600062000215836001600160a01b038416620002c2565b90505b92915050565b6000828152600a602090815260408083206001600160a01b038516845290915290205460ff16620001fa576000828152600a602090815260408083206001600160a01b03851684529091529020805460ff191660011790556200027e3390565b6001600160a01b0316816001600160a01b0316837f2f8788117e7eff1d82e926ec794901d17c78024a50270940304540a733656f0d60405160405180910390a45050565b60008181526001830160205260408120546200030b5750815460018181018455600084815260208082209093018490558454848252828601909352604090209190915562000218565b50600062000218565b8280546200032290620004ed565b90600052602060002090601f01602090048101928262000346576000855562000391565b82601f106200036157805160ff191683800117855562000391565b8280016001018555821562000391579182015b828111156200039157825182559160200191906001019062000374565b506200039f929150620003a3565b5090565b5b808211156200039f5760008155600101620003a4565b80516001600160a01b0381168114620003d257600080fd5b919050565b805161ffff81168114620003d257600080fd5b6000806000606084860312156200040057600080fd5b83516001600160401b03808211156200041857600080fd5b818601915086601f8301126200042d57600080fd5b8151818111156200044257620004426200052a565b604051601f8201601f19908116603f011681019083821181831017156200046d576200046d6200052a565b816040528281526020935089848487010111156200048a57600080fd5b600091505b82821015620004ae57848201840151818301850152908301906200048f565b82821115620004c05760008484830101525b9650620004d2915050868201620003ba565b93505050620004e460408501620003d7565b90509250925092565b600181811c908216806200050257607f821691505b602082108114156200052457634e487b7160e01b600052602260045260246000fd5b50919050565b634e487b7160e01b600052604160045260246000fd5b61391d80620005506000396000f3fe608060405234801561001057600080fd5b50600436106102925760003560e01c80636352211e11610160578063ab9aae35116100d8578063ca15c8731161008c578063e4fbb60911610071578063e4fbb609146105b9578063e985e9c5146105e0578063fe6d81241461061c57600080fd5b8063ca15c87314610593578063d547741f146105a657600080fd5b8063bda5ec33116100bd578063bda5ec331461054b578063c155531d1461055e578063c87b56dd1461058057600080fd5b8063ab9aae3514610525578063b88d4fde1461053857600080fd5b806391d148541161012f57806397099fb21161011457806397099fb2146104f7578063a217fddf1461050a578063a22cb4651461051257600080fd5b806391d14854146104b657806395d89b41146104ef57600080fd5b80636352211e1461046a57806364d541511461047d57806370a08231146104905780639010d07c146104a357600080fd5b80631c10106f1161020e5780632f745c59116101c257806342842e0e116101a757806342842e0e146104215780634f6ccce7146104345780635a1f3c281461044757600080fd5b80632f745c59146103fb57806336568abe1461040e57600080fd5b8063248a9ca3116101f3578063248a9ca3146103b2578063276a28a3146103d55780632f2ff15d146103e857600080fd5b80631c10106f1461039757806323b872dd1461039f57600080fd5b8063156e29f611610265578063175c4ef81161024a578063175c4ef81461033a57806318160ddd1461036f578063195f78ae1461037757600080fd5b8063156e29f61461031457806315a182411461032757600080fd5b806301ffc9a71461029757806306fdde03146102bf578063081812fc146102d4578063095ea7b3146102ff575b600080fd5b6102aa6102a5366004613354565b610643565b60405190151581526020015b60405180910390f35b6102c7610687565b6040516102b691906136ae565b6102e76102e23660046132f6565b610719565b6040516001600160a01b0390911681526020016102b6565b61031261030d366004613299565b6107b3565b005b6103126103223660046132c3565b6108e5565b610312610335366004613493565b610c76565b6103617f872340a532bdd7bb02bea115c1b0f1ba87eac982f5b79b51ac189ffaac1b6fce81565b6040519081526020016102b6565b600854610361565b6103616103853660046132f6565b600f6020526000908152604090205481565b600e54610361565b6103126103ad3660046131a5565b610fc2565b6103616103c03660046132f6565b6000908152600a602052604090206001015490565b6102aa6103e33660046132f6565b611049565b6103126103f636600461330f565b6110d1565b610361610409366004613299565b6110f3565b61031261041c36600461330f565b61119b565b61031261042f3660046131a5565b6111bd565b6103616104423660046132f6565b6111d8565b61045a6104553660046132f6565b61127c565b6040516102b694939291906136f6565b6102e76104783660046132f6565b6113dd565b61031261048b36600461338e565b611468565b61036161049e366004613157565b6115a5565b6102e76104b1366004613332565b61163f565b6102aa6104c436600461330f565b6000918252600a602090815260408084206001600160a01b0393909316845291905290205460ff1690565b6102c761165e565b6102aa610505366004613299565b61166d565b610361600081565b61031261052036600461325d565b6116cb565b6103616105333660046132f6565b611790565b6103126105463660046131e1565b6117d1565b610361610559366004613467565b61185f565b61057161056c3660046133e7565b611b12565b6040516102b69392919061367d565b6102c761058e3660046132f6565b611ba5565b6103616105a13660046132f6565b611c9a565b6103126105b436600461330f565b611cb1565b6103617f3c2519c4487d47714872f92cf90a50c25f5deaec2789dc2a497b1272df611db681565b6102aa6105ee366004613172565b6001600160a01b03918216600090815260056020908152604080832093909416825291909152205460ff1690565b6103617ff0887ba65ee2024ea881d91b74c2450ef19e1557f03bed3ea9f16b037cbe2dc981565b60006001600160e01b031982167fc0aa9aba000000000000000000000000000000000000000000000000000000001480610681575061068182611cde565b92915050565b606060008054610696906137f6565b80601f01602080910402602001604051908101604052809291908181526020018280546106c2906137f6565b801561070f5780601f106106e45761010080835404028352916020019161070f565b820191906000526020600020905b8154815290600101906020018083116106f257829003601f168201915b5050505050905090565b6000818152600260205260408120546001600160a01b03166107975760405162461bcd60e51b815260206004820152602c60248201527f4552433732313a20617070726f76656420717565727920666f72206e6f6e657860448201526b34b9ba32b73a103a37b5b2b760a11b60648201526084015b60405180910390fd5b506000908152600460205260409020546001600160a01b031690565b60006107be826113dd565b9050806001600160a01b0316836001600160a01b031614156108485760405162461bcd60e51b815260206004820152602160248201527f4552433732313a20617070726f76616c20746f2063757272656e74206f776e6560448201527f7200000000000000000000000000000000000000000000000000000000000000606482015260840161078e565b336001600160a01b0382161480610864575061086481336105ee565b6108d65760405162461bcd60e51b815260206004820152603860248201527f4552433732313a20617070726f76652063616c6c6572206973206e6f74206f7760448201527f6e6572206e6f7220617070726f76656420666f7220616c6c0000000000000000606482015260840161078e565b6108e08383611d1c565b505050565b7ff0887ba65ee2024ea881d91b74c2450ef19e1557f03bed3ea9f16b037cbe2dc96109108133611d97565b600e54839081106109725760405162461bcd60e51b815260206004820152602660248201527f52414952204552433732313a20436f6c6c656374696f6e20646f6573206e6f7460448201526508195e1a5cdd60d21b606482015260840161078e565b6000600e8581548110610987576109876138a2565b90600052602060002090600502019050806000015481600101546109ab919061379c565b8411156109fa5760405162461bcd60e51b815260206004820181905260248201527f52414952204552433732313a20496e76616c696420746f6b656e20696e646578604482015260640161078e565b610a1386858360000154610a0e9190613751565b611e17565b84600f6000868460000154610a289190613751565b815260200190815260200160002081905550806002016000815480929190610a4f906137df565b9091555060009050805b6004830154811015610c27578254610a72908790613751565b600d846004018381548110610a8957610a896138a2565b906000526020600020015481548110610aa457610aa46138a2565b90600052602060002090600402016000015411158015610b1357508254610acc908790613751565b600d846004018381548110610ae357610ae36138a2565b906000526020600020015481548110610afe57610afe6138a2565b90600052602060002090600402016001015410155b15610c1557600d836004018281548110610b2f57610b2f6138a2565b906000526020600020015481548110610b4a57610b4a6138a2565b90600052602060002090600402019150826004018181548110610b6f57610b6f6138a2565b9060005260206000200154600c6000888660000154610b8e9190613751565b8152602081019190915260400160002055600282015415610c1057600282018054906000610bbb836137df565b90915550506002820154610c105781546001830154604080518a815260208101939093528201527fd3edbeb94dfb8eadcd8c291774b9ac3cc9b06af829273e295bf3197849934b889060600160405180910390a15b610c27565b80610c1f81613831565b915050610a59565b506002820154610c6d57857f3ab828a3fee3d542c87fb145e900664325100c3c0b2e2a2cca38685b6de1b27183600301604051610c6491906136e3565b60405180910390a25b50505050505050565b7f3c2519c4487d47714872f92cf90a50c25f5deaec2789dc2a497b1272df611db6610ca18133611d97565b600e5485908110610d035760405162461bcd60e51b815260206004820152602660248201527f52414952204552433732313a20436f6c6c656374696f6e20646f6573206e6f7460448201526508195e1a5cdd60d21b606482015260840161078e565b6000600e8781548110610d1857610d186138a2565b906000526020600020906005020190508060010154858260000154610d3d9190613751565b1115610db15760405162461bcd60e51b815260206004820152602160248201527f52414952204552433732313a20496e76616c696420656e64696e6720746f6b6560448201527f6e00000000000000000000000000000000000000000000000000000000000000606482015260840161078e565b80546001820154610dc2919061379c565b610dcc878761379c565b1115610e405760405162461bcd60e51b815260206004820152602160248201527f52414952204552433732313a20496e76616c696420746f6b656e206c696d697460448201527f7300000000000000000000000000000000000000000000000000000000000000606482015260840161078e565b83610e4b878761379c565b610e56906001613751565b1015610eca5760405162461bcd60e51b815260206004820152602d60248201527f52414952204552433732313a20496e76616c6964206e756d626572206f66207460448201527f6f6b656e7320746f206c6f636b00000000000000000000000000000000000000606482015260840161078e565b600d8054600181018255600091909152815460049091027fd7b6990105719101dabeb77144f2a3385c8033acd3af97e9423a695e81ad1eb50190610f0f908890613751565b81558154610f1e908790613751565b6001808301919091556002820186905560038201899055600d546004840191610f469161379c565b8154600181018355600092835260209092209091015581547f0b8fece546364ce1dcadcf45028659aff64e7a166d735eb32da27050fd520f69908990610f8d908a90613751565b8454610f9a908a90613751565b8886600301604051610fb095949392919061371b565b60405180910390a15050505050505050565b610fcc3382611e31565b61103e5760405162461bcd60e51b815260206004820152603160248201527f4552433732313a207472616e736665722063616c6c6572206973206e6f74206f60448201527f776e6572206e6f7220617070726f766564000000000000000000000000000000606482015260840161078e565b6108e0838383611f28565b6000818152600f6020908152604080832054600c909252822054600d80549091908110611078576110786138a2565b90600052602060002090600402016003015414801561068157506000828152600c6020526040902054600d805490919081106110b6576110b66138a2565b90600052602060002090600402016002015460001492915050565b6110db828261210d565b6000828152600b602052604090206108e09082611cc9565b60006110fe836115a5565b82106111725760405162461bcd60e51b815260206004820152602b60248201527f455243373231456e756d657261626c653a206f776e657220696e646578206f7560448201527f74206f6620626f756e6473000000000000000000000000000000000000000000606482015260840161078e565b506001600160a01b03919091166000908152600660209081526040808320938352929052205490565b6111a58282612133565b6000828152600b602052604090206108e090826121bb565b6108e0838383604051806020016040528060008152506117d1565b60006111e360085490565b82106112575760405162461bcd60e51b815260206004820152602c60248201527f455243373231456e756d657261626c653a20676c6f62616c20696e646578206f60448201527f7574206f6620626f756e64730000000000000000000000000000000000000000606482015260840161078e565b6008828154811061126a5761126a6138a2565b90600052602060002001549050919050565b600080600060606000600e8681548110611298576112986138a2565b90600052602060002090600502016040518060a00160405290816000820154815260200160018201548152602001600282015481526020016003820180546112df906137f6565b80601f016020809104026020016040519081016040528092919081815260200182805461130b906137f6565b80156113585780601f1061132d57610100808354040283529160200191611358565b820191906000526020600020905b81548152906001019060200180831161133b57829003601f168201915b50505050508152602001600482018054806020026020016040519081016040528092919081815260200182805480156113b057602002820191906000526020600020905b81548152602001906001019080831161139c575b505050919092525050815160208301516040840151606090940151919a9099509297509550909350505050565b6000818152600260205260408120546001600160a01b0316806106815760405162461bcd60e51b815260206004820152602960248201527f4552433732313a206f776e657220717565727920666f72206e6f6e657869737460448201527f656e7420746f6b656e0000000000000000000000000000000000000000000000606482015260840161078e565b7f3c2519c4487d47714872f92cf90a50c25f5deaec2789dc2a497b1272df611db66114938133611d97565b600e54600090156114e157600e80546114ae9060019061379c565b815481106114be576114be6138a2565b90600052602060002090600502016001015460016114dc9190613751565b6114e4565b60005b600e8054600181810183556000929092526005027fbb7b4a454dc3493923482f07822329ed19e8244eff582cc204f8554c3620c3fd0182815591925061152a8584613751565b611534919061379c565b6001820155845161154e906003830190602088019061302c565b5060028101849055600e546115659060019061379c565b7f9ae7dd5dbfc3938737af70872685a3fb26f364d20134cd30be25108122626a1786866040516115969291906136c1565b60405180910390a25050505050565b60006001600160a01b0382166116235760405162461bcd60e51b815260206004820152602a60248201527f4552433732313a2062616c616e636520717565727920666f7220746865207a6560448201527f726f206164647265737300000000000000000000000000000000000000000000606482015260840161078e565b506001600160a01b031660009081526003602052604090205490565b6000828152600b6020526040812061165790836121d0565b9392505050565b606060018054610696906137f6565b6000805b61167a846115a5565b8110156116c15782600f600061169087856110f3565b81526020019081526020016000205414156116af576001915050610681565b806116b981613831565b915050611671565b5060009392505050565b6001600160a01b0382163314156117245760405162461bcd60e51b815260206004820152601960248201527f4552433732313a20617070726f766520746f2063616c6c657200000000000000604482015260640161078e565b3360008181526005602090815260408083206001600160a01b03871680855290835292819020805460ff191686151590811790915590519081529192917f17307eab39ab6107e8899845ad3d59bd9653f200f220920489ca2b5937696c31910160405180910390a35050565b6000818152600f6020526040812054600e805490919081106117b4576117b46138a2565b90600052602060002090600502016000015482610681919061379c565b6117db3383611e31565b61184d5760405162461bcd60e51b815260206004820152603160248201527f4552433732313a207472616e736665722063616c6c6572206973206e6f74206f60448201527f776e6572206e6f7220617070726f766564000000000000000000000000000000606482015260840161078e565b611859848484846121dc565b50505050565b60008380600e80549050116118c55760405162461bcd60e51b815260206004820152602660248201527f52414952204552433732313a20436f6c6c656374696f6e20646f6573206e6f7460448201526508195e1a5cdd60d21b606482015260840161078e565b6000600e86815481106118da576118da6138a2565b90600052602060002090600502016040518060a0016040529081600082015481526020016001820154815260200160028201548152602001600382018054611921906137f6565b80601f016020809104026020016040519081016040528092919081815260200182805461194d906137f6565b801561199a5780601f1061196f5761010080835404028352916020019161199a565b820191906000526020600020905b81548152906001019060200180831161197d57829003601f168201915b50505050508152602001600482018054806020026020016040519081016040528092919081815260200182805480156119f257602002820191906000526020600020905b8154815260200190600101908083116119de575b50505050508152505090508060400151816000015182602001516001611a189190613751565b611a22919061379c565b1415611a32576000925050611b0a565b8051600090611a42908790613751565b90505b8151611a52908690613751565b8111611a9b576000818152600260205260409020546001600160a01b0316611a89578151611a80908261379c565b93505050611b0a565b80611a9381613831565b915050611a45565b5060405162461bcd60e51b815260206004820152603960248201527f52414952204552433732313a20546865726520617265206e6f20617661696c6160448201527f626c6520746f6b656e7320696e20746869732072616e67652e00000000000000606482015260840161078e565b509392505050565b6000806060611b427f3c2519c4487d47714872f92cf90a50c25f5deaec2789dc2a497b1272df611db6600061163f565b601054620186a090611b709074010000000000000000000000000000000000000000900461ffff168961377d565b611b7a9190613769565b60408051602081018b9052016040516020818303038152906040529250925092509450945094915050565b6000818152600260205260409020546060906001600160a01b0316611c325760405162461bcd60e51b815260206004820152602f60248201527f4552433732314d657461646174613a2055524920717565727920666f72206e6f60448201527f6e6578697374656e7420746f6b656e0000000000000000000000000000000000606482015260840161078e565b6000611c4960408051602081019091526000815290565b90506000815111611c695760405180602001604052806000815250611657565b80611c738461225a565b604051602001611c84929190613591565b6040516020818303038152906040529392505050565b6000818152600b6020526040812061068190612358565b6111a58282612362565b611cc58282612388565b5050565b6000611657836001600160a01b03841661242a565b60006001600160e01b031982167f5a05180f000000000000000000000000000000000000000000000000000000001480610681575061068182612479565b6000818152600460205260409020805473ffffffffffffffffffffffffffffffffffffffff19166001600160a01b0384169081179091558190611d5e826113dd565b6001600160a01b03167f8c5be1e5ebec7d5bd14f71427d1e84f3dd0314c0f7b2291e5b200ac8c7c3b92560405160405180910390a45050565b6000828152600a602090815260408083206001600160a01b038516845290915290205460ff16611cc557611dd5816001600160a01b031660146124b7565b611de08360206124b7565b604051602001611df19291906135c0565b60408051601f198184030181529082905262461bcd60e51b825261078e916004016136ae565b611cc582826040518060200160405280600081525061267c565b6000818152600260205260408120546001600160a01b0316611eaa5760405162461bcd60e51b815260206004820152602c60248201527f4552433732313a206f70657261746f7220717565727920666f72206e6f6e657860448201526b34b9ba32b73a103a37b5b2b760a11b606482015260840161078e565b6000611eb5836113dd565b9050806001600160a01b0316846001600160a01b03161480611ef05750836001600160a01b0316611ee584610719565b6001600160a01b0316145b80611f2057506001600160a01b0380821660009081526005602090815260408083209388168352929052205460ff165b949350505050565b826001600160a01b0316611f3b826113dd565b6001600160a01b031614611fb75760405162461bcd60e51b815260206004820152602960248201527f4552433732313a207472616e73666572206f6620746f6b656e2074686174206960448201527f73206e6f74206f776e0000000000000000000000000000000000000000000000606482015260840161078e565b6001600160a01b0382166120325760405162461bcd60e51b8152602060048201526024808201527f4552433732313a207472616e7366657220746f20746865207a65726f2061646460448201527f7265737300000000000000000000000000000000000000000000000000000000606482015260840161078e565b61203d8383836126fa565b612048600082611d1c565b6001600160a01b038316600090815260036020526040812080546001929061207190849061379c565b90915550506001600160a01b038216600090815260036020526040812080546001929061209f908490613751565b9091555050600081815260026020526040808220805473ffffffffffffffffffffffffffffffffffffffff19166001600160a01b0386811691821790925591518493918716917fddf252ad1be2c89b69c2b068fc378daa952ba7f163c4a11628f55a4df523b3ef91a4505050565b6000828152600a60205260409020600101546121298133611d97565b6108e08383612388565b6001600160a01b03811633146121b15760405162461bcd60e51b815260206004820152602f60248201527f416363657373436f6e74726f6c3a2063616e206f6e6c792072656e6f756e636560448201527f20726f6c657320666f722073656c660000000000000000000000000000000000606482015260840161078e565b611cc58282612847565b6000611657836001600160a01b0384166128ca565b600061165783836129b7565b6121e7848484611f28565b6121f384848484612a58565b6118595760405162461bcd60e51b815260206004820152603260248201527f4552433732313a207472616e7366657220746f206e6f6e20455243373231526560448201527131b2b4bb32b91034b6b83632b6b2b73a32b960711b606482015260840161078e565b60608161227e5750506040805180820190915260018152600360fc1b602082015290565b8160005b81156122a8578061229281613831565b91506122a19050600a83613769565b9150612282565b60008167ffffffffffffffff8111156122c3576122c36138b8565b6040519080825280601f01601f1916602001820160405280156122ed576020820181803683370190505b5090505b8415611f205761230260018361379c565b915061230f600a8661384c565b61231a906030613751565b60f81b81838151811061232f5761232f6138a2565b60200101906001600160f81b031916908160001a905350612351600a86613769565b94506122f1565b6000610681825490565b6000828152600a602052604090206001015461237e8133611d97565b6108e08383612847565b6000828152600a602090815260408083206001600160a01b038516845290915290205460ff16611cc5576000828152600a602090815260408083206001600160a01b03851684529091529020805460ff191660011790556123e63390565b6001600160a01b0316816001600160a01b0316837f2f8788117e7eff1d82e926ec794901d17c78024a50270940304540a733656f0d60405160405180910390a45050565b600081815260018301602052604081205461247157508154600181810184556000848152602080822090930184905584548482528286019093526040902091909155610681565b506000610681565b60006001600160e01b031982167f7965db0b000000000000000000000000000000000000000000000000000000001480610681575061068182612bb0565b606060006124c683600261377d565b6124d1906002613751565b67ffffffffffffffff8111156124e9576124e96138b8565b6040519080825280601f01601f191660200182016040528015612513576020820181803683370190505b509050600360fc1b8160008151811061252e5761252e6138a2565b60200101906001600160f81b031916908160001a9053507f780000000000000000000000000000000000000000000000000000000000000081600181518110612579576125796138a2565b60200101906001600160f81b031916908160001a905350600061259d84600261377d565b6125a8906001613751565b90505b600181111561262d577f303132333435363738396162636465660000000000000000000000000000000085600f16601081106125e9576125e96138a2565b1a60f81b8282815181106125ff576125ff6138a2565b60200101906001600160f81b031916908160001a90535060049490941c93612626816137df565b90506125ab565b5083156116575760405162461bcd60e51b815260206004820181905260248201527f537472696e67733a20686578206c656e67746820696e73756666696369656e74604482015260640161078e565b6126868383612bee565b6126936000848484612a58565b6108e05760405162461bcd60e51b815260206004820152603260248201527f4552433732313a207472616e7366657220746f206e6f6e20455243373231526560448201527131b2b4bb32b91034b6b83632b6b2b73a32b960711b606482015260840161078e565b6001600160a01b0383161580159061271a57506001600160a01b03821615155b1561283c576000818152600f6020908152604080832054600c90925290912054600d8054909190811061274f5761274f6138a2565b9060005260206000209060040201600301541415612812576000818152600c6020526040902054600d8054909190811061278b5761278b6138a2565b9060005260206000209060040201600201546000146128125760405162461bcd60e51b815260206004820152603a60248201527f52414952204552433732313a205472616e736665727320666f7220746869732060448201527f72616e6765206172652063757272656e746c79206c6f636b6564000000000000606482015260840161078e565b61283c7f872340a532bdd7bb02bea115c1b0f1ba87eac982f5b79b51ac189ffaac1b6fce33611d97565b6108e0838383612d49565b6000828152600a602090815260408083206001600160a01b038516845290915290205460ff1615611cc5576000828152600a602090815260408083206001600160a01b0385168085529252808320805460ff1916905551339285917ff6391f5c32d9c69d2a47ea670b442974b53935d1edc7fd64eb21e047a839171b9190a45050565b600081815260018301602052604081205480156129ad5760006128ee60018361379c565b85549091506000906129029060019061379c565b9050600086600001828154811061291b5761291b6138a2565b906000526020600020015490508087600001848154811061293e5761293e6138a2565b6000918252602080832090910192909255828152600189019091526040902084905586548790806129715761297161388c565b60019003818190600052602060002001600090559055866001016000878152602001908152602001600020600090556001945050505050610681565b6000915050610681565b81546000908210612a305760405162461bcd60e51b815260206004820152602260248201527f456e756d657261626c655365743a20696e646578206f7574206f6620626f756e60448201527f6473000000000000000000000000000000000000000000000000000000000000606482015260840161078e565b826000018281548110612a4557612a456138a2565b9060005260206000200154905092915050565b60006001600160a01b0384163b15612ba557604051630a85bd0160e11b81526001600160a01b0385169063150b7a0290612a9c903390899088908890600401613641565b602060405180830381600087803b158015612ab657600080fd5b505af1925050508015612ae6575060408051601f3d908101601f19168201909252612ae391810190613371565b60015b612b8b573d808015612b14576040519150601f19603f3d011682016040523d82523d6000602084013e612b19565b606091505b508051612b835760405162461bcd60e51b815260206004820152603260248201527f4552433732313a207472616e7366657220746f206e6f6e20455243373231526560448201527131b2b4bb32b91034b6b83632b6b2b73a32b960711b606482015260840161078e565b805181602001fd5b6001600160e01b031916630a85bd0160e11b149050611f20565b506001949350505050565b60006001600160e01b031982167f780e9d63000000000000000000000000000000000000000000000000000000001480610681575061068182612e01565b6001600160a01b038216612c445760405162461bcd60e51b815260206004820181905260248201527f4552433732313a206d696e7420746f20746865207a65726f2061646472657373604482015260640161078e565b6000818152600260205260409020546001600160a01b031615612ca95760405162461bcd60e51b815260206004820152601c60248201527f4552433732313a20746f6b656e20616c7265616479206d696e74656400000000604482015260640161078e565b612cb5600083836126fa565b6001600160a01b0382166000908152600360205260408120805460019290612cde908490613751565b9091555050600081815260026020526040808220805473ffffffffffffffffffffffffffffffffffffffff19166001600160a01b03861690811790915590518392907fddf252ad1be2c89b69c2b068fc378daa952ba7f163c4a11628f55a4df523b3ef908290a45050565b6001600160a01b038316612da457612d9f81600880546000838152600960205260408120829055600182018355919091527ff3f7a9fe364faab93b216da50a3214154f22a0a2b415b23a84c8169e8b636ee30155565b612dc7565b816001600160a01b0316836001600160a01b031614612dc757612dc78382612e9c565b6001600160a01b038216612dde576108e081612f39565b826001600160a01b0316826001600160a01b0316146108e0576108e08282612fe8565b60006001600160e01b031982167f80ac58cd000000000000000000000000000000000000000000000000000000001480612e6457506001600160e01b031982167f5b5e139f00000000000000000000000000000000000000000000000000000000145b8061068157507f01ffc9a7000000000000000000000000000000000000000000000000000000006001600160e01b0319831614610681565b60006001612ea9846115a5565b612eb3919061379c565b600083815260076020526040902054909150808214612f06576001600160a01b03841660009081526006602090815260408083208584528252808320548484528184208190558352600790915290208190555b5060009182526007602090815260408084208490556001600160a01b039094168352600681528383209183525290812055565b600854600090612f4b9060019061379c565b60008381526009602052604081205460088054939450909284908110612f7357612f736138a2565b906000526020600020015490508060088381548110612f9457612f946138a2565b6000918252602080832090910192909255828152600990915260408082208490558582528120556008805480612fcc57612fcc61388c565b6001900381819060005260206000200160009055905550505050565b6000612ff3836115a5565b6001600160a01b039093166000908152600660209081526040808320868452825280832085905593825260079052919091209190915550565b828054613038906137f6565b90600052602060002090601f01602090048101928261305a57600085556130a0565b82601f1061307357805160ff19168380011785556130a0565b828001600101855582156130a0579182015b828111156130a0578251825591602001919060010190613085565b506130ac9291506130b0565b5090565b5b808211156130ac57600081556001016130b1565b600067ffffffffffffffff808411156130e0576130e06138b8565b604051601f8501601f19908116603f01168101908282118183101715613108576131086138b8565b8160405280935085815286868601111561312157600080fd5b858560208301376000602087830101525050509392505050565b80356001600160a01b038116811461315257600080fd5b919050565b60006020828403121561316957600080fd5b6116578261313b565b6000806040838503121561318557600080fd5b61318e8361313b565b915061319c6020840161313b565b90509250929050565b6000806000606084860312156131ba57600080fd5b6131c38461313b565b92506131d16020850161313b565b9150604084013590509250925092565b600080600080608085870312156131f757600080fd5b6132008561313b565b935061320e6020860161313b565b925060408501359150606085013567ffffffffffffffff81111561323157600080fd5b8501601f8101871361324257600080fd5b613251878235602084016130c5565b91505092959194509250565b6000806040838503121561327057600080fd5b6132798361313b565b91506020830135801515811461328e57600080fd5b809150509250929050565b600080604083850312156132ac57600080fd5b6132b58361313b565b946020939093013593505050565b6000806000606084860312156132d857600080fd5b6132e18461313b565b95602085013595506040909401359392505050565b60006020828403121561330857600080fd5b5035919050565b6000806040838503121561332257600080fd5b8235915061319c6020840161313b565b6000806040838503121561334557600080fd5b50508035926020909101359150565b60006020828403121561336657600080fd5b8135611657816138ce565b60006020828403121561338357600080fd5b8151611657816138ce565b600080604083850312156133a157600080fd5b823567ffffffffffffffff8111156133b857600080fd5b8301601f810185136133c957600080fd5b6133d8858235602084016130c5565b95602094909401359450505050565b600080600080606085870312156133fd57600080fd5b8435935060208501359250604085013567ffffffffffffffff8082111561342357600080fd5b818701915087601f83011261343757600080fd5b81358181111561344657600080fd5b88602082850101111561345857600080fd5b95989497505060200194505050565b60008060006060848603121561347c57600080fd5b505081359360208301359350604090920135919050565b600080600080608085870312156134a957600080fd5b5050823594602084013594506040840135936060013592509050565b600081518084526134dd8160208601602086016137b3565b601f01601f19169290920160200192915050565b8054600090600181811c908083168061350b57607f831692505b602080841082141561352d57634e487b7160e01b600052602260045260246000fd5b83885260208801828015613548576001811461355957613584565b60ff19871682528282019750613584565b60008981526020902060005b8781101561357e57815484820152908601908401613565565b83019850505b5050505050505092915050565b600083516135a38184602088016137b3565b8351908301906135b78183602088016137b3565b01949350505050565b7f416363657373436f6e74726f6c3a206163636f756e74200000000000000000008152600083516135f88160178501602088016137b3565b7f206973206d697373696e6720726f6c652000000000000000000000000000000060179184019182015283516136358160288401602088016137b3565b01602801949350505050565b60006001600160a01b0380871683528086166020840152508360408301526080606083015261367360808301846134c5565b9695505050505050565b6001600160a01b03841681528260208201526060604082015260006136a560608301846134c5565b95945050505050565b60208152600061165760208301846134c5565b6040815260006136d460408301856134c5565b90508260208301529392505050565b60208152600061165760208301846134f1565b84815283602082015282604082015260806060820152600061367360808301846134c5565b85815284602082015283604082015282606082015260a06080820152600061374660a08301846134f1565b979650505050505050565b6000821982111561376457613764613860565b500190565b60008261377857613778613876565b500490565b600081600019048311821515161561379757613797613860565b500290565b6000828210156137ae576137ae613860565b500390565b60005b838110156137ce5781810151838201526020016137b6565b838111156118595750506000910152565b6000816137ee576137ee613860565b506000190190565b600181811c9082168061380a57607f821691505b6020821081141561382b57634e487b7160e01b600052602260045260246000fd5b50919050565b600060001982141561384557613845613860565b5060010190565b60008261385b5761385b613876565b500690565b634e487b7160e01b600052601160045260246000fd5b634e487b7160e01b600052601260045260246000fd5b634e487b7160e01b600052603160045260246000fd5b634e487b7160e01b600052603260045260246000fd5b634e487b7160e01b600052604160045260246000fd5b6001600160e01b0319811681146138e457600080fd5b5056fea26469706673582212204d3f789eaf7643ce975d271d98a7212e63ad430700d8d510ef698c742ada093064736f6c634300080600333c2519c4487d47714872f92cf90a50c25f5deaec2789dc2a497b1272df611db6f0887ba65ee2024ea881d91b74c2450ef19e1557f03bed3ea9f16b037cbe2dc9872340a532bdd7bb02bea115c1b0f1ba87eac982f5b79b51ac189ffaac1b6fce",
  "linkReferences": {},
  "deployedLinkReferences": {}
}