{
  "_format": "hh-sol-artifact-1",
  "contractName": "RAIR_ERC721",
  "sourceName": "contracts/Tokens/RAIR-ERC721.sol",
  "abi": [
    {
      "inputs": [
        {
          "internalType": "string",
          "name": "_contractName",
          "type": "string"
        },
        {
          "internalType": "address",
          "name": "_creatorAddress",
          "type": "address"
        },
        {
          "internalType": "uint16",
          "name": "_creatorRoyalty",
          "type": "uint16"
        }
      ],
      "stateMutability": "nonpayable",
      "type": "constructor"
    },
    {
      "anonymous": false,
      "inputs": [
        {
          "indexed": true,
          "internalType": "address",
          "name": "owner",
          "type": "address"
        },
        {
          "indexed": true,
          "internalType": "address",
          "name": "approved",
          "type": "address"
        },
        {
          "indexed": true,
          "internalType": "uint256",
          "name": "tokenId",
          "type": "uint256"
        }
      ],
      "name": "Approval",
      "type": "event"
    },
    {
      "anonymous": false,
      "inputs": [
        {
          "indexed": true,
          "internalType": "address",
          "name": "owner",
          "type": "address"
        },
        {
          "indexed": true,
          "internalType": "address",
          "name": "operator",
          "type": "address"
        },
        {
          "indexed": false,
          "internalType": "bool",
          "name": "approved",
          "type": "bool"
        }
      ],
      "name": "ApprovalForAll",
      "type": "event"
    },
    {
      "anonymous": false,
      "inputs": [
        {
          "indexed": true,
          "internalType": "uint256",
          "name": "id",
          "type": "uint256"
        },
        {
          "indexed": false,
          "internalType": "string",
          "name": "name",
          "type": "string"
        }
      ],
      "name": "CollectionCompleted",
      "type": "event"
    },
    {
      "anonymous": false,
      "inputs": [
        {
          "indexed": true,
          "internalType": "uint256",
          "name": "id",
          "type": "uint256"
        },
        {
          "indexed": false,
          "internalType": "string",
          "name": "name",
          "type": "string"
        },
        {
          "indexed": false,
          "internalType": "uint256",
          "name": "length",
          "type": "uint256"
        }
      ],
      "name": "CollectionCreated",
      "type": "event"
    },
    {
      "anonymous": false,
      "inputs": [
        {
          "indexed": false,
          "internalType": "uint256",
          "name": "collectionIndex",
          "type": "uint256"
        },
        {
          "indexed": false,
          "internalType": "uint256",
          "name": "startingToken",
          "type": "uint256"
        },
        {
          "indexed": false,
          "internalType": "uint256",
          "name": "endingToken",
          "type": "uint256"
        },
        {
          "indexed": false,
          "internalType": "uint256",
          "name": "tokensLocked",
          "type": "uint256"
        },
        {
          "indexed": false,
          "internalType": "string",
          "name": "collectionName",
          "type": "string"
        }
      ],
      "name": "RangeLocked",
      "type": "event"
    },
    {
      "anonymous": false,
      "inputs": [
        {
          "indexed": false,
          "internalType": "uint256",
          "name": "collectionID",
          "type": "uint256"
        },
        {
          "indexed": false,
          "internalType": "uint256",
          "name": "startingToken",
          "type": "uint256"
        },
        {
          "indexed": false,
          "internalType": "uint256",
          "name": "endingToken",
          "type": "uint256"
        }
      ],
      "name": "RangeUnlocked",
      "type": "event"
    },
    {
      "anonymous": false,
      "inputs": [
        {
          "indexed": true,
          "internalType": "bytes32",
          "name": "role",
          "type": "bytes32"
        },
        {
          "indexed": true,
          "internalType": "bytes32",
          "name": "previousAdminRole",
          "type": "bytes32"
        },
        {
          "indexed": true,
          "internalType": "bytes32",
          "name": "newAdminRole",
          "type": "bytes32"
        }
      ],
      "name": "RoleAdminChanged",
      "type": "event"
    },
    {
      "anonymous": false,
      "inputs": [
        {
          "indexed": true,
          "internalType": "bytes32",
          "name": "role",
          "type": "bytes32"
        },
        {
          "indexed": true,
          "internalType": "address",
          "name": "account",
          "type": "address"
        },
        {
          "indexed": true,
          "internalType": "address",
          "name": "sender",
          "type": "address"
        }
      ],
      "name": "RoleGranted",
      "type": "event"
    },
    {
      "anonymous": false,
      "inputs": [
        {
          "indexed": true,
          "internalType": "bytes32",
          "name": "role",
          "type": "bytes32"
        },
        {
          "indexed": true,
          "internalType": "address",
          "name": "account",
          "type": "address"
        },
        {
          "indexed": true,
          "internalType": "address",
          "name": "sender",
          "type": "address"
        }
      ],
      "name": "RoleRevoked",
      "type": "event"
    },
    {
      "anonymous": false,
      "inputs": [
        {
          "indexed": true,
          "internalType": "address",
          "name": "from",
          "type": "address"
        },
        {
          "indexed": true,
          "internalType": "address",
          "name": "to",
          "type": "address"
        },
        {
          "indexed": true,
          "internalType": "uint256",
          "name": "tokenId",
          "type": "uint256"
        }
      ],
      "name": "Transfer",
      "type": "event"
    },
    {
      "inputs": [],
      "name": "CREATOR",
      "outputs": [
        {
          "internalType": "bytes32",
          "name": "",
          "type": "bytes32"
        }
      ],
      "stateMutability": "view",
      "type": "function"
    },
    {
      "inputs": [],
      "name": "DEFAULT_ADMIN_ROLE",
      "outputs": [
        {
          "internalType": "bytes32",
          "name": "",
          "type": "bytes32"
        }
      ],
      "stateMutability": "view",
      "type": "function"
    },
    {
      "inputs": [],
      "name": "MINTER",
      "outputs": [
        {
          "internalType": "bytes32",
          "name": "",
          "type": "bytes32"
        }
      ],
      "stateMutability": "view",
      "type": "function"
    },
    {
      "inputs": [],
      "name": "TRADER",
      "outputs": [
        {
          "internalType": "bytes32",
          "name": "",
          "type": "bytes32"
        }
      ],
      "stateMutability": "view",
      "type": "function"
    },
    {
      "inputs": [
        {
          "internalType": "address",
          "name": "to",
          "type": "address"
        },
        {
          "internalType": "uint256",
          "name": "tokenId",
          "type": "uint256"
        }
      ],
      "name": "approve",
      "outputs": [],
      "stateMutability": "nonpayable",
      "type": "function"
    },
    {
      "inputs": [
        {
          "internalType": "address",
          "name": "owner",
          "type": "address"
        }
      ],
      "name": "balanceOf",
      "outputs": [
        {
          "internalType": "uint256",
          "name": "",
          "type": "uint256"
        }
      ],
      "stateMutability": "view",
      "type": "function"
    },
    {
      "inputs": [
        {
          "internalType": "string",
          "name": "_collectionName",
          "type": "string"
        },
        {
          "internalType": "uint256",
          "name": "_copies",
          "type": "uint256"
        }
      ],
      "name": "createCollection",
      "outputs": [],
      "stateMutability": "nonpayable",
      "type": "function"
    },
    {
      "inputs": [
        {
          "internalType": "uint256",
          "name": "collectionIndex",
          "type": "uint256"
        },
        {
          "internalType": "uint256",
          "name": "_startingToken",
          "type": "uint256"
        },
        {
          "internalType": "uint256",
          "name": "_endingToken",
          "type": "uint256"
        },
        {
          "internalType": "uint256",
          "name": "_lockedTokens",
          "type": "uint256"
        }
      ],
      "name": "createRangeLock",
      "outputs": [],
      "stateMutability": "nonpayable",
      "type": "function"
    },
    {
      "inputs": [
        {
          "internalType": "uint256",
          "name": "tokenId",
          "type": "uint256"
        }
      ],
      "name": "getApproved",
      "outputs": [
        {
          "internalType": "address",
          "name": "",
          "type": "address"
        }
      ],
      "stateMutability": "view",
      "type": "function"
    },
    {
      "inputs": [
        {
          "internalType": "uint256",
          "name": "index",
          "type": "uint256"
        }
      ],
      "name": "getCollection",
      "outputs": [
        {
          "internalType": "uint256",
          "name": "startingToken",
          "type": "uint256"
        },
        {
          "internalType": "uint256",
          "name": "endingToken",
          "type": "uint256"
        },
        {
          "internalType": "uint256",
          "name": "mintableTokensLeft",
          "type": "uint256"
        },
        {
          "internalType": "string",
          "name": "collectionName",
          "type": "string"
        }
      ],
      "stateMutability": "view",
      "type": "function"
    },
    {
      "inputs": [],
      "name": "getCollectionCount",
      "outputs": [
        {
          "internalType": "uint256",
          "name": "",
          "type": "uint256"
        }
      ],
      "stateMutability": "view",
      "type": "function"
    },
    {
      "inputs": [
        {
          "internalType": "uint256",
          "name": "collectionID",
          "type": "uint256"
        },
        {
          "internalType": "uint256",
          "name": "startingIndex",
          "type": "uint256"
        },
        {
          "internalType": "uint256",
          "name": "endingIndex",
          "type": "uint256"
        }
      ],
      "name": "getNextSequentialIndex",
      "outputs": [
        {
          "internalType": "uint256",
          "name": "nextIndex",
          "type": "uint256"
        }
      ],
      "stateMutability": "view",
      "type": "function"
    },
    {
      "inputs": [
        {
          "internalType": "bytes32",
          "name": "role",
          "type": "bytes32"
        }
      ],
      "name": "getRoleAdmin",
      "outputs": [
        {
          "internalType": "bytes32",
          "name": "",
          "type": "bytes32"
        }
      ],
      "stateMutability": "view",
      "type": "function"
    },
    {
      "inputs": [
        {
          "internalType": "bytes32",
          "name": "role",
          "type": "bytes32"
        },
        {
          "internalType": "uint256",
          "name": "index",
          "type": "uint256"
        }
      ],
      "name": "getRoleMember",
      "outputs": [
        {
          "internalType": "address",
          "name": "",
          "type": "address"
        }
      ],
      "stateMutability": "view",
      "type": "function"
    },
    {
      "inputs": [
        {
          "internalType": "bytes32",
          "name": "role",
          "type": "bytes32"
        }
      ],
      "name": "getRoleMemberCount",
      "outputs": [
        {
          "internalType": "uint256",
          "name": "",
          "type": "uint256"
        }
      ],
      "stateMutability": "view",
      "type": "function"
    },
    {
      "inputs": [
        {
          "internalType": "bytes32",
          "name": "role",
          "type": "bytes32"
        },
        {
          "internalType": "address",
          "name": "account",
          "type": "address"
        }
      ],
      "name": "grantRole",
      "outputs": [],
      "stateMutability": "nonpayable",
      "type": "function"
    },
    {
      "inputs": [
        {
          "internalType": "bytes32",
          "name": "role",
          "type": "bytes32"
        },
        {
          "internalType": "address",
          "name": "account",
          "type": "address"
        }
      ],
      "name": "hasRole",
      "outputs": [
        {
          "internalType": "bool",
          "name": "",
          "type": "bool"
        }
      ],
      "stateMutability": "view",
      "type": "function"
    },
    {
      "inputs": [
        {
          "internalType": "address",
          "name": "owner",
          "type": "address"
        },
        {
          "internalType": "uint256",
          "name": "collectionIndex",
          "type": "uint256"
        }
      ],
      "name": "hasTokenInCollection",
      "outputs": [
        {
          "internalType": "bool",
          "name": "",
          "type": "bool"
        }
      ],
      "stateMutability": "view",
      "type": "function"
    },
    {
      "inputs": [
        {
          "internalType": "address",
          "name": "owner",
          "type": "address"
        },
        {
          "internalType": "address",
          "name": "operator",
          "type": "address"
        }
      ],
      "name": "isApprovedForAll",
      "outputs": [
        {
          "internalType": "bool",
          "name": "",
          "type": "bool"
        }
      ],
      "stateMutability": "view",
      "type": "function"
    },
    {
      "inputs": [
        {
          "internalType": "address",
          "name": "to",
          "type": "address"
        },
        {
          "internalType": "uint256",
          "name": "collectionID",
          "type": "uint256"
        },
        {
          "internalType": "uint256",
          "name": "indexInCollection",
          "type": "uint256"
        }
      ],
      "name": "mint",
      "outputs": [],
      "stateMutability": "nonpayable",
      "type": "function"
    },
    {
      "inputs": [],
      "name": "name",
      "outputs": [
        {
          "internalType": "string",
          "name": "",
          "type": "string"
        }
      ],
      "stateMutability": "view",
      "type": "function"
    },
    {
      "inputs": [
        {
          "internalType": "uint256",
          "name": "tokenId",
          "type": "uint256"
        }
      ],
      "name": "ownerOf",
      "outputs": [
        {
          "internalType": "address",
          "name": "",
          "type": "address"
        }
      ],
      "stateMutability": "view",
      "type": "function"
    },
    {
      "inputs": [
        {
          "internalType": "bytes32",
          "name": "role",
          "type": "bytes32"
        },
        {
          "internalType": "address",
          "name": "account",
          "type": "address"
        }
      ],
      "name": "renounceRole",
      "outputs": [],
      "stateMutability": "nonpayable",
      "type": "function"
    },
    {
      "inputs": [
        {
          "internalType": "bytes32",
          "name": "role",
          "type": "bytes32"
        },
        {
          "internalType": "address",
          "name": "account",
          "type": "address"
        }
      ],
      "name": "revokeRole",
      "outputs": [],
      "stateMutability": "nonpayable",
      "type": "function"
    },
    {
      "inputs": [
        {
          "internalType": "uint256",
          "name": "_tokenId",
          "type": "uint256"
        },
        {
          "internalType": "uint256",
          "name": "_value",
          "type": "uint256"
        },
        {
          "internalType": "bytes",
          "name": "_data",
          "type": "bytes"
        }
      ],
      "name": "royaltyInfo",
      "outputs": [
        {
          "internalType": "address",
          "name": "_receiver",
          "type": "address"
        },
        {
          "internalType": "uint256",
          "name": "_royaltyAmount",
          "type": "uint256"
        },
        {
          "internalType": "bytes",
          "name": "_royaltyPaymentData",
          "type": "bytes"
        }
      ],
      "stateMutability": "view",
      "type": "function"
    },
    {
      "inputs": [
        {
          "internalType": "address",
          "name": "from",
          "type": "address"
        },
        {
          "internalType": "address",
          "name": "to",
          "type": "address"
        },
        {
          "internalType": "uint256",
          "name": "tokenId",
          "type": "uint256"
        }
      ],
      "name": "safeTransferFrom",
      "outputs": [],
      "stateMutability": "nonpayable",
      "type": "function"
    },
    {
      "inputs": [
        {
          "internalType": "address",
          "name": "from",
          "type": "address"
        },
        {
          "internalType": "address",
          "name": "to",
          "type": "address"
        },
        {
          "internalType": "uint256",
          "name": "tokenId",
          "type": "uint256"
        },
        {
          "internalType": "bytes",
          "name": "_data",
          "type": "bytes"
        }
      ],
      "name": "safeTransferFrom",
      "outputs": [],
      "stateMutability": "nonpayable",
      "type": "function"
    },
    {
      "inputs": [
        {
          "internalType": "address",
          "name": "operator",
          "type": "address"
        },
        {
          "internalType": "bool",
          "name": "approved",
          "type": "bool"
        }
      ],
      "name": "setApprovalForAll",
      "outputs": [],
      "stateMutability": "nonpayable",
      "type": "function"
    },
    {
      "inputs": [
        {
          "internalType": "bytes4",
          "name": "interfaceId",
          "type": "bytes4"
        }
      ],
      "name": "supportsInterface",
      "outputs": [
        {
          "internalType": "bool",
          "name": "",
          "type": "bool"
        }
      ],
      "stateMutability": "view",
      "type": "function"
    },
    {
      "inputs": [],
      "name": "symbol",
      "outputs": [
        {
          "internalType": "string",
          "name": "",
          "type": "string"
        }
      ],
      "stateMutability": "view",
      "type": "function"
    },
    {
      "inputs": [
        {
          "internalType": "uint256",
          "name": "index",
          "type": "uint256"
        }
      ],
      "name": "tokenByIndex",
      "outputs": [
        {
          "internalType": "uint256",
          "name": "",
          "type": "uint256"
        }
      ],
      "stateMutability": "view",
      "type": "function"
    },
    {
      "inputs": [
        {
          "internalType": "address",
          "name": "owner",
          "type": "address"
        },
        {
          "internalType": "uint256",
          "name": "index",
          "type": "uint256"
        }
      ],
      "name": "tokenOfOwnerByIndex",
      "outputs": [
        {
          "internalType": "uint256",
          "name": "",
          "type": "uint256"
        }
      ],
      "stateMutability": "view",
      "type": "function"
    },
    {
      "inputs": [
        {
          "internalType": "uint256",
          "name": "",
          "type": "uint256"
        }
      ],
      "name": "tokenToCollection",
      "outputs": [
        {
          "internalType": "uint256",
          "name": "",
          "type": "uint256"
        }
      ],
      "stateMutability": "view",
      "type": "function"
    },
    {
      "inputs": [
        {
          "internalType": "uint256",
          "name": "token",
          "type": "uint256"
        }
      ],
      "name": "tokenToCollectionIndex",
      "outputs": [
        {
          "internalType": "uint256",
          "name": "tokenIndex",
          "type": "uint256"
        }
      ],
      "stateMutability": "view",
      "type": "function"
    },
    {
      "inputs": [
        {
          "internalType": "uint256",
          "name": "tokenId",
          "type": "uint256"
        }
      ],
      "name": "tokenURI",
      "outputs": [
        {
          "internalType": "string",
          "name": "",
          "type": "string"
        }
      ],
      "stateMutability": "view",
      "type": "function"
    },
    {
      "inputs": [],
      "name": "totalSupply",
      "outputs": [
        {
          "internalType": "uint256",
          "name": "",
          "type": "uint256"
        }
      ],
      "stateMutability": "view",
      "type": "function"
    },
    {
      "inputs": [
        {
          "internalType": "address",
          "name": "from",
          "type": "address"
        },
        {
          "internalType": "address",
          "name": "to",
          "type": "address"
        },
        {
          "internalType": "uint256",
          "name": "tokenId",
          "type": "uint256"
        }
      ],
      "name": "transferFrom",
      "outputs": [],
      "stateMutability": "nonpayable",
      "type": "function"
    }
  ],
  "bytecode": "0x60806040523480156200001157600080fd5b5060405162003e1738038062003e178339810160408190526200003491620003ea565b82604051806040016040528060048152602001632920a4a960e11b81525081600090805190602001906200006a92919062000314565b5080516200008090600190602084019062000314565b5050601080546001600160b01b0319163361ffff60a01b191617600160a01b61ffff85160217905550620000d360008051602062003dd783398151915260008051602062003db783398151915262000157565b620000fd60008051602062003df783398151915260008051602062003db783398151915262000157565b6200011860008051602062003db783398151915283620001ab565b6200013360008051602062003dd783398151915283620001ab565b6200014e60008051602062003df783398151915283620001ab565b50505062000540565b6000828152600a6020526040902060010154819060405184907fbd79b86ffe0ab8e8776151514217cd7cacd52c909f66475c3af44e129f0b00ff90600090a46000918252600a602052604090912060010155565b620001c28282620001ee60201b62001c051760201c565b6000828152600b60209081526040909120620001e991839062001c13620001fe821b17901c565b505050565b620001fa82826200021e565b5050565b600062000215836001600160a01b038416620002c2565b90505b92915050565b6000828152600a602090815260408083206001600160a01b038516845290915290205460ff16620001fa576000828152600a602090815260408083206001600160a01b03851684529091529020805460ff191660011790556200027e3390565b6001600160a01b0316816001600160a01b0316837f2f8788117e7eff1d82e926ec794901d17c78024a50270940304540a733656f0d60405160405180910390a45050565b60008181526001830160205260408120546200030b5750815460018181018455600084815260208082209093018490558454848252828601909352604090209190915562000218565b50600062000218565b8280546200032290620004ed565b90600052602060002090601f01602090048101928262000346576000855562000391565b82601f106200036157805160ff191683800117855562000391565b8280016001018555821562000391579182015b828111156200039157825182559160200191906001019062000374565b506200039f929150620003a3565b5090565b5b808211156200039f5760008155600101620003a4565b80516001600160a01b0381168114620003d257600080fd5b919050565b805161ffff81168114620003d257600080fd5b6000806000606084860312156200040057600080fd5b83516001600160401b03808211156200041857600080fd5b818601915086601f8301126200042d57600080fd5b8151818111156200044257620004426200052a565b604051601f8201601f19908116603f011681019083821181831017156200046d576200046d6200052a565b816040528281526020935089848487010111156200048a57600080fd5b600091505b82821015620004ae57848201840151818301850152908301906200048f565b82821115620004c05760008484830101525b9650620004d2915050868201620003ba565b93505050620004e460408501620003d7565b90509250925092565b600181811c908216806200050257607f821691505b602082108114156200052457634e487b7160e01b600052602260045260246000fd5b50919050565b634e487b7160e01b600052604160045260246000fd5b61386780620005506000396000f3fe608060405234801561001057600080fd5b50600436106102775760003560e01c80636352211e11610160578063ab9aae35116100d8578063ca15c8731161008c578063e4fbb60911610071578063e4fbb6091461058b578063e985e9c5146105b2578063fe6d8124146105ee57600080fd5b8063ca15c87314610565578063d547741f1461057857600080fd5b8063bda5ec33116100bd578063bda5ec331461051d578063c155531d14610530578063c87b56dd1461055257600080fd5b8063ab9aae35146104f7578063b88d4fde1461050a57600080fd5b806391d148541161012f57806397099fb21161011457806397099fb2146104c9578063a217fddf146104dc578063a22cb465146104e457600080fd5b806391d148541461048857806395d89b41146104c157600080fd5b80636352211e1461043c57806364d541511461044f57806370a08231146104625780639010d07c1461047557600080fd5b80631c10106f116101f35780632f745c59116101c257806342842e0e116101a757806342842e0e146103f35780634f6ccce7146104065780635a1f3c281461041957600080fd5b80632f745c59146103cd57806336568abe146103e057600080fd5b80631c10106f1461037c57806323b872dd14610384578063248a9ca3146103975780632f2ff15d146103ba57600080fd5b8063156e29f61161024a578063175c4ef81161022f578063175c4ef81461031f57806318160ddd14610354578063195f78ae1461035c57600080fd5b8063156e29f6146102f957806315a182411461030c57600080fd5b806301ffc9a71461027c57806306fdde03146102a4578063081812fc146102b9578063095ea7b3146102e4575b600080fd5b61028f61028a36600461329e565b610615565b60405190151581526020015b60405180910390f35b6102ac610659565b60405161029b91906135f8565b6102cc6102c7366004613240565b6106eb565b6040516001600160a01b03909116815260200161029b565b6102f76102f23660046131e3565b610785565b005b6102f761030736600461320d565b6108b7565b6102f761031a3660046133dd565b610c48565b6103467f872340a532bdd7bb02bea115c1b0f1ba87eac982f5b79b51ac189ffaac1b6fce81565b60405190815260200161029b565b600854610346565b61034661036a366004613240565b600f6020526000908152604090205481565b600e54610346565b6102f76103923660046130ef565b610f94565b6103466103a5366004613240565b6000908152600a602052604090206001015490565b6102f76103c8366004613259565b61101b565b6103466103db3660046131e3565b61103d565b6102f76103ee366004613259565b6110e5565b6102f76104013660046130ef565b611107565b610346610414366004613240565b611122565b61042c610427366004613240565b6111c6565b60405161029b9493929190613640565b6102cc61044a366004613240565b611327565b6102f761045d3660046132d8565b6113b2565b6103466104703660046130a1565b6114ef565b6102cc61048336600461327c565b611589565b61028f610496366004613259565b6000918252600a602090815260408084206001600160a01b0393909316845291905290205460ff1690565b6102ac6115a8565b61028f6104d73660046131e3565b6115b7565b610346600081565b6102f76104f23660046131a7565b611615565b610346610505366004613240565b6116da565b6102f761051836600461312b565b61171b565b61034661052b3660046133b1565b6117a9565b61054361053e366004613331565b611a5c565b60405161029b939291906135c7565b6102ac610560366004613240565b611aef565b610346610573366004613240565b611be4565b6102f7610586366004613259565b611bfb565b6103467f3c2519c4487d47714872f92cf90a50c25f5deaec2789dc2a497b1272df611db681565b61028f6105c03660046130bc565b6001600160a01b03918216600090815260056020908152604080832093909416825291909152205460ff1690565b6103467ff0887ba65ee2024ea881d91b74c2450ef19e1557f03bed3ea9f16b037cbe2dc981565b60006001600160e01b031982167fc0aa9aba000000000000000000000000000000000000000000000000000000001480610653575061065382611c28565b92915050565b60606000805461066890613740565b80601f016020809104026020016040519081016040528092919081815260200182805461069490613740565b80156106e15780601f106106b6576101008083540402835291602001916106e1565b820191906000526020600020905b8154815290600101906020018083116106c457829003601f168201915b5050505050905090565b6000818152600260205260408120546001600160a01b03166107695760405162461bcd60e51b815260206004820152602c60248201527f4552433732313a20617070726f76656420717565727920666f72206e6f6e657860448201526b34b9ba32b73a103a37b5b2b760a11b60648201526084015b60405180910390fd5b506000908152600460205260409020546001600160a01b031690565b600061079082611327565b9050806001600160a01b0316836001600160a01b0316141561081a5760405162461bcd60e51b815260206004820152602160248201527f4552433732313a20617070726f76616c20746f2063757272656e74206f776e6560448201527f72000000000000000000000000000000000000000000000000000000000000006064820152608401610760565b336001600160a01b0382161480610836575061083681336105c0565b6108a85760405162461bcd60e51b815260206004820152603860248201527f4552433732313a20617070726f76652063616c6c6572206973206e6f74206f7760448201527f6e6572206e6f7220617070726f76656420666f7220616c6c00000000000000006064820152608401610760565b6108b28383611c66565b505050565b7ff0887ba65ee2024ea881d91b74c2450ef19e1557f03bed3ea9f16b037cbe2dc96108e28133611ce1565b600e54839081106109445760405162461bcd60e51b815260206004820152602660248201527f52414952204552433732313a20436f6c6c656374696f6e20646f6573206e6f7460448201526508195e1a5cdd60d21b6064820152608401610760565b6000600e8581548110610959576109596137ec565b906000526020600020906005020190508060000154816001015461097d91906136e6565b8411156109cc5760405162461bcd60e51b815260206004820181905260248201527f52414952204552433732313a20496e76616c696420746f6b656e20696e6465786044820152606401610760565b6109e5868583600001546109e0919061369b565b611d61565b84600f60008684600001546109fa919061369b565b815260200190815260200160002081905550806002016000815480929190610a2190613729565b9091555060009050805b6004830154811015610bf9578254610a4490879061369b565b600d846004018381548110610a5b57610a5b6137ec565b906000526020600020015481548110610a7657610a766137ec565b90600052602060002090600402016000015411158015610ae557508254610a9e90879061369b565b600d846004018381548110610ab557610ab56137ec565b906000526020600020015481548110610ad057610ad06137ec565b90600052602060002090600402016001015410155b15610be757600d836004018281548110610b0157610b016137ec565b906000526020600020015481548110610b1c57610b1c6137ec565b90600052602060002090600402019150826004018181548110610b4157610b416137ec565b9060005260206000200154600c6000888660000154610b60919061369b565b8152602081019190915260400160002055600282015415610be257600282018054906000610b8d83613729565b90915550506002820154610be25781546001830154604080518a815260208101939093528201527fd3edbeb94dfb8eadcd8c291774b9ac3cc9b06af829273e295bf3197849934b889060600160405180910390a15b610bf9565b80610bf18161377b565b915050610a2b565b506002820154610c3f57857f3ab828a3fee3d542c87fb145e900664325100c3c0b2e2a2cca38685b6de1b27183600301604051610c36919061362d565b60405180910390a25b50505050505050565b7f3c2519c4487d47714872f92cf90a50c25f5deaec2789dc2a497b1272df611db6610c738133611ce1565b600e5485908110610cd55760405162461bcd60e51b815260206004820152602660248201527f52414952204552433732313a20436f6c6c656374696f6e20646f6573206e6f7460448201526508195e1a5cdd60d21b6064820152608401610760565b6000600e8781548110610cea57610cea6137ec565b906000526020600020906005020190508060010154858260000154610d0f919061369b565b1115610d835760405162461bcd60e51b815260206004820152602160248201527f52414952204552433732313a20496e76616c696420656e64696e6720746f6b6560448201527f6e000000000000000000000000000000000000000000000000000000000000006064820152608401610760565b80546001820154610d9491906136e6565b610d9e87876136e6565b1115610e125760405162461bcd60e51b815260206004820152602160248201527f52414952204552433732313a20496e76616c696420746f6b656e206c696d697460448201527f73000000000000000000000000000000000000000000000000000000000000006064820152608401610760565b83610e1d87876136e6565b610e2890600161369b565b1015610e9c5760405162461bcd60e51b815260206004820152602d60248201527f52414952204552433732313a20496e76616c6964206e756d626572206f66207460448201527f6f6b656e7320746f206c6f636b000000000000000000000000000000000000006064820152608401610760565b600d8054600181018255600091909152815460049091027fd7b6990105719101dabeb77144f2a3385c8033acd3af97e9423a695e81ad1eb50190610ee190889061369b565b81558154610ef090879061369b565b6001808301919091556002820186905560038201899055600d546004840191610f18916136e6565b8154600181018355600092835260209092209091015581547f0b8fece546364ce1dcadcf45028659aff64e7a166d735eb32da27050fd520f69908990610f5f908a9061369b565b8454610f6c908a9061369b565b8886600301604051610f82959493929190613665565b60405180910390a15050505050505050565b610f9e3382611d7b565b6110105760405162461bcd60e51b815260206004820152603160248201527f4552433732313a207472616e736665722063616c6c6572206973206e6f74206f60448201527f776e6572206e6f7220617070726f7665640000000000000000000000000000006064820152608401610760565b6108b2838383611e72565b6110258282612057565b6000828152600b602052604090206108b29082611c13565b6000611048836114ef565b82106110bc5760405162461bcd60e51b815260206004820152602b60248201527f455243373231456e756d657261626c653a206f776e657220696e646578206f7560448201527f74206f6620626f756e64730000000000000000000000000000000000000000006064820152608401610760565b506001600160a01b03919091166000908152600660209081526040808320938352929052205490565b6110ef828261207d565b6000828152600b602052604090206108b29082612105565b6108b28383836040518060200160405280600081525061171b565b600061112d60085490565b82106111a15760405162461bcd60e51b815260206004820152602c60248201527f455243373231456e756d657261626c653a20676c6f62616c20696e646578206f60448201527f7574206f6620626f756e647300000000000000000000000000000000000000006064820152608401610760565b600882815481106111b4576111b46137ec565b90600052602060002001549050919050565b600080600060606000600e86815481106111e2576111e26137ec565b90600052602060002090600502016040518060a001604052908160008201548152602001600182015481526020016002820154815260200160038201805461122990613740565b80601f016020809104026020016040519081016040528092919081815260200182805461125590613740565b80156112a25780601f10611277576101008083540402835291602001916112a2565b820191906000526020600020905b81548152906001019060200180831161128557829003601f168201915b50505050508152602001600482018054806020026020016040519081016040528092919081815260200182805480156112fa57602002820191906000526020600020905b8154815260200190600101908083116112e6575b505050919092525050815160208301516040840151606090940151919a9099509297509550909350505050565b6000818152600260205260408120546001600160a01b0316806106535760405162461bcd60e51b815260206004820152602960248201527f4552433732313a206f776e657220717565727920666f72206e6f6e657869737460448201527f656e7420746f6b656e00000000000000000000000000000000000000000000006064820152608401610760565b7f3c2519c4487d47714872f92cf90a50c25f5deaec2789dc2a497b1272df611db66113dd8133611ce1565b600e546000901561142b57600e80546113f8906001906136e6565b81548110611408576114086137ec565b9060005260206000209060050201600101546001611426919061369b565b61142e565b60005b600e8054600181810183556000929092526005027fbb7b4a454dc3493923482f07822329ed19e8244eff582cc204f8554c3620c3fd01828155919250611474858461369b565b61147e91906136e6565b600182015584516114989060038301906020880190612f76565b5060028101849055600e546114af906001906136e6565b7f9ae7dd5dbfc3938737af70872685a3fb26f364d20134cd30be25108122626a1786866040516114e092919061360b565b60405180910390a25050505050565b60006001600160a01b03821661156d5760405162461bcd60e51b815260206004820152602a60248201527f4552433732313a2062616c616e636520717565727920666f7220746865207a6560448201527f726f2061646472657373000000000000000000000000000000000000000000006064820152608401610760565b506001600160a01b031660009081526003602052604090205490565b6000828152600b602052604081206115a1908361211a565b9392505050565b60606001805461066890613740565b6000805b6115c4846114ef565b81101561160b5782600f60006115da878561103d565b81526020019081526020016000205414156115f9576001915050610653565b806116038161377b565b9150506115bb565b5060009392505050565b6001600160a01b03821633141561166e5760405162461bcd60e51b815260206004820152601960248201527f4552433732313a20617070726f766520746f2063616c6c6572000000000000006044820152606401610760565b3360008181526005602090815260408083206001600160a01b03871680855290835292819020805460ff191686151590811790915590519081529192917f17307eab39ab6107e8899845ad3d59bd9653f200f220920489ca2b5937696c31910160405180910390a35050565b6000818152600f6020526040812054600e805490919081106116fe576116fe6137ec565b9060005260206000209060050201600001548261065391906136e6565b6117253383611d7b565b6117975760405162461bcd60e51b815260206004820152603160248201527f4552433732313a207472616e736665722063616c6c6572206973206e6f74206f60448201527f776e6572206e6f7220617070726f7665640000000000000000000000000000006064820152608401610760565b6117a384848484612126565b50505050565b60008380600e805490501161180f5760405162461bcd60e51b815260206004820152602660248201527f52414952204552433732313a20436f6c6c656374696f6e20646f6573206e6f7460448201526508195e1a5cdd60d21b6064820152608401610760565b6000600e8681548110611824576118246137ec565b90600052602060002090600502016040518060a001604052908160008201548152602001600182015481526020016002820154815260200160038201805461186b90613740565b80601f016020809104026020016040519081016040528092919081815260200182805461189790613740565b80156118e45780601f106118b9576101008083540402835291602001916118e4565b820191906000526020600020905b8154815290600101906020018083116118c757829003601f168201915b505050505081526020016004820180548060200260200160405190810160405280929190818152602001828054801561193c57602002820191906000526020600020905b815481526020019060010190808311611928575b50505050508152505090508060400151816000015182602001516001611962919061369b565b61196c91906136e6565b141561197c576000925050611a54565b805160009061198c90879061369b565b90505b815161199c90869061369b565b81116119e5576000818152600260205260409020546001600160a01b03166119d35781516119ca90826136e6565b93505050611a54565b806119dd8161377b565b91505061198f565b5060405162461bcd60e51b815260206004820152603960248201527f52414952204552433732313a20546865726520617265206e6f20617661696c6160448201527f626c6520746f6b656e7320696e20746869732072616e67652e000000000000006064820152608401610760565b509392505050565b6000806060611a8c7f3c2519c4487d47714872f92cf90a50c25f5deaec2789dc2a497b1272df611db66000611589565b601054620186a090611aba9074010000000000000000000000000000000000000000900461ffff16896136c7565b611ac491906136b3565b60408051602081018b9052016040516020818303038152906040529250925092509450945094915050565b6000818152600260205260409020546060906001600160a01b0316611b7c5760405162461bcd60e51b815260206004820152602f60248201527f4552433732314d657461646174613a2055524920717565727920666f72206e6f60448201527f6e6578697374656e7420746f6b656e00000000000000000000000000000000006064820152608401610760565b6000611b9360408051602081019091526000815290565b90506000815111611bb357604051806020016040528060008152506115a1565b80611bbd846121a4565b604051602001611bce9291906134db565b6040516020818303038152906040529392505050565b6000818152600b60205260408120610653906122a2565b6110ef82826122ac565b611c0f82826122d2565b5050565b60006115a1836001600160a01b038416612374565b60006001600160e01b031982167f5a05180f0000000000000000000000000000000000000000000000000000000014806106535750610653826123c3565b6000818152600460205260409020805473ffffffffffffffffffffffffffffffffffffffff19166001600160a01b0384169081179091558190611ca882611327565b6001600160a01b03167f8c5be1e5ebec7d5bd14f71427d1e84f3dd0314c0f7b2291e5b200ac8c7c3b92560405160405180910390a45050565b6000828152600a602090815260408083206001600160a01b038516845290915290205460ff16611c0f57611d1f816001600160a01b03166014612401565b611d2a836020612401565b604051602001611d3b92919061350a565b60408051601f198184030181529082905262461bcd60e51b8252610760916004016135f8565b611c0f8282604051806020016040528060008152506125c6565b6000818152600260205260408120546001600160a01b0316611df45760405162461bcd60e51b815260206004820152602c60248201527f4552433732313a206f70657261746f7220717565727920666f72206e6f6e657860448201526b34b9ba32b73a103a37b5b2b760a11b6064820152608401610760565b6000611dff83611327565b9050806001600160a01b0316846001600160a01b03161480611e3a5750836001600160a01b0316611e2f846106eb565b6001600160a01b0316145b80611e6a57506001600160a01b0380821660009081526005602090815260408083209388168352929052205460ff165b949350505050565b826001600160a01b0316611e8582611327565b6001600160a01b031614611f015760405162461bcd60e51b815260206004820152602960248201527f4552433732313a207472616e73666572206f6620746f6b656e2074686174206960448201527f73206e6f74206f776e00000000000000000000000000000000000000000000006064820152608401610760565b6001600160a01b038216611f7c5760405162461bcd60e51b8152602060048201526024808201527f4552433732313a207472616e7366657220746f20746865207a65726f2061646460448201527f72657373000000000000000000000000000000000000000000000000000000006064820152608401610760565b611f87838383612644565b611f92600082611c66565b6001600160a01b0383166000908152600360205260408120805460019290611fbb9084906136e6565b90915550506001600160a01b0382166000908152600360205260408120805460019290611fe990849061369b565b9091555050600081815260026020526040808220805473ffffffffffffffffffffffffffffffffffffffff19166001600160a01b0386811691821790925591518493918716917fddf252ad1be2c89b69c2b068fc378daa952ba7f163c4a11628f55a4df523b3ef91a4505050565b6000828152600a60205260409020600101546120738133611ce1565b6108b283836122d2565b6001600160a01b03811633146120fb5760405162461bcd60e51b815260206004820152602f60248201527f416363657373436f6e74726f6c3a2063616e206f6e6c792072656e6f756e636560448201527f20726f6c657320666f722073656c6600000000000000000000000000000000006064820152608401610760565b611c0f8282612791565b60006115a1836001600160a01b038416612814565b60006115a18383612901565b612131848484611e72565b61213d848484846129a2565b6117a35760405162461bcd60e51b815260206004820152603260248201527f4552433732313a207472616e7366657220746f206e6f6e20455243373231526560448201527131b2b4bb32b91034b6b83632b6b2b73a32b960711b6064820152608401610760565b6060816121c85750506040805180820190915260018152600360fc1b602082015290565b8160005b81156121f257806121dc8161377b565b91506121eb9050600a836136b3565b91506121cc565b60008167ffffffffffffffff81111561220d5761220d613802565b6040519080825280601f01601f191660200182016040528015612237576020820181803683370190505b5090505b8415611e6a5761224c6001836136e6565b9150612259600a86613796565b61226490603061369b565b60f81b818381518110612279576122796137ec565b60200101906001600160f81b031916908160001a90535061229b600a866136b3565b945061223b565b6000610653825490565b6000828152600a60205260409020600101546122c88133611ce1565b6108b28383612791565b6000828152600a602090815260408083206001600160a01b038516845290915290205460ff16611c0f576000828152600a602090815260408083206001600160a01b03851684529091529020805460ff191660011790556123303390565b6001600160a01b0316816001600160a01b0316837f2f8788117e7eff1d82e926ec794901d17c78024a50270940304540a733656f0d60405160405180910390a45050565b60008181526001830160205260408120546123bb57508154600181810184556000848152602080822090930184905584548482528286019093526040902091909155610653565b506000610653565b60006001600160e01b031982167f7965db0b000000000000000000000000000000000000000000000000000000001480610653575061065382612afa565b606060006124108360026136c7565b61241b90600261369b565b67ffffffffffffffff81111561243357612433613802565b6040519080825280601f01601f19166020018201604052801561245d576020820181803683370190505b509050600360fc1b81600081518110612478576124786137ec565b60200101906001600160f81b031916908160001a9053507f7800000000000000000000000000000000000000000000000000000000000000816001815181106124c3576124c36137ec565b60200101906001600160f81b031916908160001a90535060006124e78460026136c7565b6124f290600161369b565b90505b6001811115612577577f303132333435363738396162636465660000000000000000000000000000000085600f1660108110612533576125336137ec565b1a60f81b828281518110612549576125496137ec565b60200101906001600160f81b031916908160001a90535060049490941c9361257081613729565b90506124f5565b5083156115a15760405162461bcd60e51b815260206004820181905260248201527f537472696e67733a20686578206c656e67746820696e73756666696369656e746044820152606401610760565b6125d08383612b38565b6125dd60008484846129a2565b6108b25760405162461bcd60e51b815260206004820152603260248201527f4552433732313a207472616e7366657220746f206e6f6e20455243373231526560448201527131b2b4bb32b91034b6b83632b6b2b73a32b960711b6064820152608401610760565b6001600160a01b0383161580159061266457506001600160a01b03821615155b15612786576000818152600f6020908152604080832054600c90925290912054600d80549091908110612699576126996137ec565b906000526020600020906004020160030154141561275c576000818152600c6020526040902054600d805490919081106126d5576126d56137ec565b90600052602060002090600402016002015460001461275c5760405162461bcd60e51b815260206004820152603a60248201527f52414952204552433732313a205472616e736665727320666f7220746869732060448201527f72616e6765206172652063757272656e746c79206c6f636b65640000000000006064820152608401610760565b6127867f872340a532bdd7bb02bea115c1b0f1ba87eac982f5b79b51ac189ffaac1b6fce33611ce1565b6108b2838383612c93565b6000828152600a602090815260408083206001600160a01b038516845290915290205460ff1615611c0f576000828152600a602090815260408083206001600160a01b0385168085529252808320805460ff1916905551339285917ff6391f5c32d9c69d2a47ea670b442974b53935d1edc7fd64eb21e047a839171b9190a45050565b600081815260018301602052604081205480156128f75760006128386001836136e6565b855490915060009061284c906001906136e6565b90506000866000018281548110612865576128656137ec565b9060005260206000200154905080876000018481548110612888576128886137ec565b6000918252602080832090910192909255828152600189019091526040902084905586548790806128bb576128bb6137d6565b60019003818190600052602060002001600090559055866001016000878152602001908152602001600020600090556001945050505050610653565b6000915050610653565b8154600090821061297a5760405162461bcd60e51b815260206004820152602260248201527f456e756d657261626c655365743a20696e646578206f7574206f6620626f756e60448201527f64730000000000000000000000000000000000000000000000000000000000006064820152608401610760565b82600001828154811061298f5761298f6137ec565b9060005260206000200154905092915050565b60006001600160a01b0384163b15612aef57604051630a85bd0160e11b81526001600160a01b0385169063150b7a02906129e690339089908890889060040161358b565b602060405180830381600087803b158015612a0057600080fd5b505af1925050508015612a30575060408051601f3d908101601f19168201909252612a2d918101906132bb565b60015b612ad5573d808015612a5e576040519150601f19603f3d011682016040523d82523d6000602084013e612a63565b606091505b508051612acd5760405162461bcd60e51b815260206004820152603260248201527f4552433732313a207472616e7366657220746f206e6f6e20455243373231526560448201527131b2b4bb32b91034b6b83632b6b2b73a32b960711b6064820152608401610760565b805181602001fd5b6001600160e01b031916630a85bd0160e11b149050611e6a565b506001949350505050565b60006001600160e01b031982167f780e9d63000000000000000000000000000000000000000000000000000000001480610653575061065382612d4b565b6001600160a01b038216612b8e5760405162461bcd60e51b815260206004820181905260248201527f4552433732313a206d696e7420746f20746865207a65726f20616464726573736044820152606401610760565b6000818152600260205260409020546001600160a01b031615612bf35760405162461bcd60e51b815260206004820152601c60248201527f4552433732313a20746f6b656e20616c7265616479206d696e746564000000006044820152606401610760565b612bff60008383612644565b6001600160a01b0382166000908152600360205260408120805460019290612c2890849061369b565b9091555050600081815260026020526040808220805473ffffffffffffffffffffffffffffffffffffffff19166001600160a01b03861690811790915590518392907fddf252ad1be2c89b69c2b068fc378daa952ba7f163c4a11628f55a4df523b3ef908290a45050565b6001600160a01b038316612cee57612ce981600880546000838152600960205260408120829055600182018355919091527ff3f7a9fe364faab93b216da50a3214154f22a0a2b415b23a84c8169e8b636ee30155565b612d11565b816001600160a01b0316836001600160a01b031614612d1157612d118382612de6565b6001600160a01b038216612d28576108b281612e83565b826001600160a01b0316826001600160a01b0316146108b2576108b28282612f32565b60006001600160e01b031982167f80ac58cd000000000000000000000000000000000000000000000000000000001480612dae57506001600160e01b031982167f5b5e139f00000000000000000000000000000000000000000000000000000000145b8061065357507f01ffc9a7000000000000000000000000000000000000000000000000000000006001600160e01b0319831614610653565b60006001612df3846114ef565b612dfd91906136e6565b600083815260076020526040902054909150808214612e50576001600160a01b03841660009081526006602090815260408083208584528252808320548484528184208190558352600790915290208190555b5060009182526007602090815260408084208490556001600160a01b039094168352600681528383209183525290812055565b600854600090612e95906001906136e6565b60008381526009602052604081205460088054939450909284908110612ebd57612ebd6137ec565b906000526020600020015490508060088381548110612ede57612ede6137ec565b6000918252602080832090910192909255828152600990915260408082208490558582528120556008805480612f1657612f166137d6565b6001900381819060005260206000200160009055905550505050565b6000612f3d836114ef565b6001600160a01b039093166000908152600660209081526040808320868452825280832085905593825260079052919091209190915550565b828054612f8290613740565b90600052602060002090601f016020900481019282612fa45760008555612fea565b82601f10612fbd57805160ff1916838001178555612fea565b82800160010185558215612fea579182015b82811115612fea578251825591602001919060010190612fcf565b50612ff6929150612ffa565b5090565b5b80821115612ff65760008155600101612ffb565b600067ffffffffffffffff8084111561302a5761302a613802565b604051601f8501601f19908116603f0116810190828211818310171561305257613052613802565b8160405280935085815286868601111561306b57600080fd5b858560208301376000602087830101525050509392505050565b80356001600160a01b038116811461309c57600080fd5b919050565b6000602082840312156130b357600080fd5b6115a182613085565b600080604083850312156130cf57600080fd5b6130d883613085565b91506130e660208401613085565b90509250929050565b60008060006060848603121561310457600080fd5b61310d84613085565b925061311b60208501613085565b9150604084013590509250925092565b6000806000806080858703121561314157600080fd5b61314a85613085565b935061315860208601613085565b925060408501359150606085013567ffffffffffffffff81111561317b57600080fd5b8501601f8101871361318c57600080fd5b61319b8782356020840161300f565b91505092959194509250565b600080604083850312156131ba57600080fd5b6131c383613085565b9150602083013580151581146131d857600080fd5b809150509250929050565b600080604083850312156131f657600080fd5b6131ff83613085565b946020939093013593505050565b60008060006060848603121561322257600080fd5b61322b84613085565b95602085013595506040909401359392505050565b60006020828403121561325257600080fd5b5035919050565b6000806040838503121561326c57600080fd5b823591506130e660208401613085565b6000806040838503121561328f57600080fd5b50508035926020909101359150565b6000602082840312156132b057600080fd5b81356115a181613818565b6000602082840312156132cd57600080fd5b81516115a181613818565b600080604083850312156132eb57600080fd5b823567ffffffffffffffff81111561330257600080fd5b8301601f8101851361331357600080fd5b6133228582356020840161300f565b95602094909401359450505050565b6000806000806060858703121561334757600080fd5b8435935060208501359250604085013567ffffffffffffffff8082111561336d57600080fd5b818701915087601f83011261338157600080fd5b81358181111561339057600080fd5b8860208285010111156133a257600080fd5b95989497505060200194505050565b6000806000606084860312156133c657600080fd5b505081359360208301359350604090920135919050565b600080600080608085870312156133f357600080fd5b5050823594602084013594506040840135936060013592509050565b600081518084526134278160208601602086016136fd565b601f01601f19169290920160200192915050565b8054600090600181811c908083168061345557607f831692505b602080841082141561347757634e487b7160e01b600052602260045260246000fd5b8388526020880182801561349257600181146134a3576134ce565b60ff198716825282820197506134ce565b60008981526020902060005b878110156134c8578154848201529086019084016134af565b83019850505b5050505050505092915050565b600083516134ed8184602088016136fd565b8351908301906135018183602088016136fd565b01949350505050565b7f416363657373436f6e74726f6c3a206163636f756e74200000000000000000008152600083516135428160178501602088016136fd565b7f206973206d697373696e6720726f6c6520000000000000000000000000000000601791840191820152835161357f8160288401602088016136fd565b01602801949350505050565b60006001600160a01b038087168352808616602084015250836040830152608060608301526135bd608083018461340f565b9695505050505050565b6001600160a01b03841681528260208201526060604082015260006135ef606083018461340f565b95945050505050565b6020815260006115a1602083018461340f565b60408152600061361e604083018561340f565b90508260208301529392505050565b6020815260006115a1602083018461343b565b8481528360208201528260408201526080606082015260006135bd608083018461340f565b85815284602082015283604082015282606082015260a06080820152600061369060a083018461343b565b979650505050505050565b600082198211156136ae576136ae6137aa565b500190565b6000826136c2576136c26137c0565b500490565b60008160001904831182151516156136e1576136e16137aa565b500290565b6000828210156136f8576136f86137aa565b500390565b60005b83811015613718578181015183820152602001613700565b838111156117a35750506000910152565b600081613738576137386137aa565b506000190190565b600181811c9082168061375457607f821691505b6020821081141561377557634e487b7160e01b600052602260045260246000fd5b50919050565b600060001982141561378f5761378f6137aa565b5060010190565b6000826137a5576137a56137c0565b500690565b634e487b7160e01b600052601160045260246000fd5b634e487b7160e01b600052601260045260246000fd5b634e487b7160e01b600052603160045260246000fd5b634e487b7160e01b600052603260045260246000fd5b634e487b7160e01b600052604160045260246000fd5b6001600160e01b03198116811461382e57600080fd5b5056fea26469706673582212209c0378a693e10c57e93d60578046e19bd7348572d4bfa37f41b2c429ad1962fe64736f6c634300080600333c2519c4487d47714872f92cf90a50c25f5deaec2789dc2a497b1272df611db6f0887ba65ee2024ea881d91b74c2450ef19e1557f03bed3ea9f16b037cbe2dc9872340a532bdd7bb02bea115c1b0f1ba87eac982f5b79b51ac189ffaac1b6fce",
  "linkReferences": {},
  "deployedLinkReferences": {}
}