{
  "_format": "hh-sol-artifact-1",
  "contractName": "RAIR_Token_Factory",
  "sourceName": "contracts/RAIR-ERC721_Factory.sol",
  "abi": [
    {
      "anonymous": false,
      "inputs": [
        {
          "indexed": false,
          "internalType": "address",
          "name": "owner",
          "type": "address"
        },
        {
          "indexed": false,
          "internalType": "uint256",
          "name": "id",
          "type": "uint256"
        },
        {
          "indexed": false,
          "internalType": "address",
          "name": "token",
          "type": "address"
        }
      ],
      "name": "NewContractDeployed",
      "type": "event"
    },
    {
      "anonymous": false,
      "inputs": [
        {
          "indexed": false,
          "internalType": "address",
          "name": "erc777",
          "type": "address"
        },
        {
          "indexed": false,
          "internalType": "uint256",
          "name": "priceForNFT",
          "type": "uint256"
        }
      ],
      "name": "NewTokensAccepted",
      "type": "event"
    },
    {
      "anonymous": false,
      "inputs": [
        {
          "indexed": true,
          "internalType": "bytes32",
          "name": "role",
          "type": "bytes32"
        },
        {
          "indexed": true,
          "internalType": "bytes32",
          "name": "previousAdminRole",
          "type": "bytes32"
        },
        {
          "indexed": true,
          "internalType": "bytes32",
          "name": "newAdminRole",
          "type": "bytes32"
        }
      ],
      "name": "RoleAdminChanged",
      "type": "event"
    },
    {
      "anonymous": false,
      "inputs": [
        {
          "indexed": true,
          "internalType": "bytes32",
          "name": "role",
          "type": "bytes32"
        },
        {
          "indexed": true,
          "internalType": "address",
          "name": "account",
          "type": "address"
        },
        {
          "indexed": true,
          "internalType": "address",
          "name": "sender",
          "type": "address"
        }
      ],
      "name": "RoleGranted",
      "type": "event"
    },
    {
      "anonymous": false,
      "inputs": [
        {
          "indexed": true,
          "internalType": "bytes32",
          "name": "role",
          "type": "bytes32"
        },
        {
          "indexed": true,
          "internalType": "address",
          "name": "account",
          "type": "address"
        },
        {
          "indexed": true,
          "internalType": "address",
          "name": "sender",
          "type": "address"
        }
      ],
      "name": "RoleRevoked",
      "type": "event"
    },
    {
      "anonymous": false,
      "inputs": [
        {
          "indexed": false,
          "internalType": "address",
          "name": "erc777",
          "type": "address"
        }
      ],
      "name": "TokenNoLongerAccepted",
      "type": "event"
    },
    {
      "anonymous": false,
      "inputs": [
        {
          "indexed": false,
          "internalType": "address",
          "name": "recipient",
          "type": "address"
        },
        {
          "indexed": false,
          "internalType": "address",
          "name": "erc777",
          "type": "address"
        },
        {
          "indexed": false,
          "internalType": "uint256",
          "name": "amount",
          "type": "uint256"
        }
      ],
      "name": "TokensWithdrawn",
      "type": "event"
    },
    {
      "inputs": [],
      "name": "DEFAULT_ADMIN_ROLE",
      "outputs": [
        {
          "internalType": "bytes32",
          "name": "",
          "type": "bytes32"
        }
      ],
      "stateMutability": "view",
      "type": "function"
    },
    {
      "inputs": [],
      "name": "ERC777",
      "outputs": [
        {
          "internalType": "bytes32",
          "name": "",
          "type": "bytes32"
        }
      ],
      "stateMutability": "view",
      "type": "function"
    },
    {
      "inputs": [],
      "name": "OWNER",
      "outputs": [
        {
          "internalType": "bytes32",
          "name": "",
          "type": "bytes32"
        }
      ],
      "stateMutability": "view",
      "type": "function"
    },
    {
      "inputs": [
        {
          "internalType": "address",
          "name": "_erc777Address",
          "type": "address"
        },
        {
          "internalType": "uint256",
          "name": "_pricePerToken",
          "type": "uint256"
        }
      ],
      "name": "add777Token",
      "outputs": [],
      "stateMutability": "nonpayable",
      "type": "function"
    },
    {
      "inputs": [
        {
          "internalType": "address",
          "name": "",
          "type": "address"
        }
      ],
      "name": "contractToOwner",
      "outputs": [
        {
          "internalType": "address",
          "name": "",
          "type": "address"
        }
      ],
      "stateMutability": "view",
      "type": "function"
    },
    {
      "inputs": [
        {
          "internalType": "uint256",
          "name": "",
          "type": "uint256"
        }
      ],
      "name": "creators",
      "outputs": [
        {
          "internalType": "address",
          "name": "",
          "type": "address"
        }
      ],
      "stateMutability": "view",
      "type": "function"
    },
    {
      "inputs": [
        {
          "internalType": "address",
          "name": "",
          "type": "address"
        }
      ],
      "name": "deploymentCostForERC777",
      "outputs": [
        {
          "internalType": "uint256",
          "name": "",
          "type": "uint256"
        }
      ],
      "stateMutability": "view",
      "type": "function"
    },
    {
      "inputs": [
        {
          "internalType": "address",
          "name": "_owner",
          "type": "address"
        }
      ],
      "name": "getContractCount",
      "outputs": [
        {
          "internalType": "uint256",
          "name": "count",
          "type": "uint256"
        }
      ],
      "stateMutability": "view",
      "type": "function"
    },
    {
      "inputs": [
        {
          "internalType": "address",
          "name": "deployer",
          "type": "address"
        }
      ],
      "name": "getContractCountOf",
      "outputs": [
        {
          "internalType": "uint256",
          "name": "count",
          "type": "uint256"
        }
      ],
      "stateMutability": "view",
      "type": "function"
    },
    {
      "inputs": [],
      "name": "getCreatorsCount",
      "outputs": [
        {
          "internalType": "uint256",
          "name": "count",
          "type": "uint256"
        }
      ],
      "stateMutability": "view",
      "type": "function"
    },
    {
      "inputs": [
        {
          "internalType": "bytes32",
          "name": "role",
          "type": "bytes32"
        }
      ],
      "name": "getRoleAdmin",
      "outputs": [
        {
          "internalType": "bytes32",
          "name": "",
          "type": "bytes32"
        }
      ],
      "stateMutability": "view",
      "type": "function"
    },
    {
      "inputs": [
        {
          "internalType": "bytes32",
          "name": "role",
          "type": "bytes32"
        },
        {
          "internalType": "uint256",
          "name": "index",
          "type": "uint256"
        }
      ],
      "name": "getRoleMember",
      "outputs": [
        {
          "internalType": "address",
          "name": "",
          "type": "address"
        }
      ],
      "stateMutability": "view",
      "type": "function"
    },
    {
      "inputs": [
        {
          "internalType": "bytes32",
          "name": "role",
          "type": "bytes32"
        }
      ],
      "name": "getRoleMemberCount",
      "outputs": [
        {
          "internalType": "uint256",
          "name": "",
          "type": "uint256"
        }
      ],
      "stateMutability": "view",
      "type": "function"
    },
    {
      "inputs": [
        {
          "internalType": "bytes32",
          "name": "role",
          "type": "bytes32"
        },
        {
          "internalType": "address",
          "name": "account",
          "type": "address"
        }
      ],
      "name": "grantRole",
      "outputs": [],
      "stateMutability": "nonpayable",
      "type": "function"
    },
    {
      "inputs": [
        {
          "internalType": "bytes32",
          "name": "role",
          "type": "bytes32"
        },
        {
          "internalType": "address",
          "name": "account",
          "type": "address"
        }
      ],
      "name": "hasRole",
      "outputs": [
        {
          "internalType": "bool",
          "name": "",
          "type": "bool"
        }
      ],
      "stateMutability": "view",
      "type": "function"
    },
    {
      "inputs": [
        {
          "internalType": "uint256",
          "name": "_pricePerToken",
          "type": "uint256"
        },
        {
          "internalType": "address",
          "name": "_rairAddress",
          "type": "address"
        }
      ],
      "name": "initialize",
      "outputs": [],
      "stateMutability": "nonpayable",
      "type": "function"
    },
    {
      "inputs": [
        {
          "internalType": "address",
          "name": "",
          "type": "address"
        },
        {
          "internalType": "uint256",
          "name": "",
          "type": "uint256"
        }
      ],
      "name": "ownerToContracts",
      "outputs": [
        {
          "internalType": "address",
          "name": "",
          "type": "address"
        }
      ],
      "stateMutability": "view",
      "type": "function"
    },
    {
      "inputs": [
        {
          "internalType": "address",
          "name": "_erc777Address",
          "type": "address"
        }
      ],
      "name": "remove777Token",
      "outputs": [],
      "stateMutability": "nonpayable",
      "type": "function"
    },
    {
      "inputs": [
        {
          "internalType": "bytes32",
          "name": "role",
          "type": "bytes32"
        },
        {
          "internalType": "address",
          "name": "account",
          "type": "address"
        }
      ],
      "name": "renounceRole",
      "outputs": [],
      "stateMutability": "nonpayable",
      "type": "function"
    },
    {
      "inputs": [
        {
          "internalType": "bytes32",
          "name": "role",
          "type": "bytes32"
        },
        {
          "internalType": "address",
          "name": "account",
          "type": "address"
        }
      ],
      "name": "revokeRole",
      "outputs": [],
      "stateMutability": "nonpayable",
      "type": "function"
    },
    {
      "inputs": [
        {
          "internalType": "bytes4",
          "name": "interfaceId",
          "type": "bytes4"
        }
      ],
      "name": "supportsInterface",
      "outputs": [
        {
          "internalType": "bool",
          "name": "",
          "type": "bool"
        }
      ],
      "stateMutability": "view",
      "type": "function"
    },
    {
      "inputs": [
        {
          "internalType": "address",
          "name": "operator",
          "type": "address"
        },
        {
          "internalType": "address",
          "name": "from",
          "type": "address"
        },
        {
          "internalType": "address",
          "name": "to",
          "type": "address"
        },
        {
          "internalType": "uint256",
          "name": "amount",
          "type": "uint256"
        },
        {
          "internalType": "bytes",
          "name": "userData",
          "type": "bytes"
        },
        {
          "internalType": "bytes",
          "name": "operatorData",
          "type": "bytes"
        }
      ],
      "name": "tokensReceived",
      "outputs": [],
      "stateMutability": "nonpayable",
      "type": "function"
    },
    {
      "inputs": [
        {
          "internalType": "address",
          "name": "erc777",
          "type": "address"
        },
        {
          "internalType": "uint256",
          "name": "amount",
          "type": "uint256"
        }
      ],
      "name": "withdrawTokens",
      "outputs": [],
      "stateMutability": "nonpayable",
      "type": "function"
    }
  ],
  "bytecode": "0x608060405234801561001057600080fd5b50615326806100206000396000f3fe60806040523480156200001157600080fd5b5060043610620001ac5760003560e01c8063871797f711620000f5578063ca15c8731162000097578063da35a26f116200006e578063da35a26f1462000400578063dbdda1a11462000417578063f42512ce146200042e57600080fd5b8063ca15c87314620003bb578063cd53d08e14620003d2578063d547741f14620003e957600080fd5b8063956f903811620000cc578063956f903814620002d7578063a217fddf14620003a9578063aa55ecbc14620003b257600080fd5b8063871797f714620003335780639010d07c146200035657806391d14854146200036d57600080fd5b8063248a9ca3116200015f578063543a16b11162000136578063543a16b114620002af57806366cdbf8614620002d75780636a1972bd146200030357600080fd5b8063248a9ca3146200025b5780632f2ff15d146200028157806336568abe146200029857600080fd5b806306b091f9116200019457806306b091f914620001f6578063117803e3146200020d5780631c6ee6a2146200024457600080fd5b806223de2914620001b157806301ffc9a714620001ca575b600080fd5b620001c8620001c2366004620016a1565b6200045a565b005b620001e1620001db366004620017f2565b620007d3565b60405190151581526020015b60405180910390f35b620001c86200020736600462001759565b6200081a565b620002357f6270edb7c868f86fda4adedba75108201087268ea345934db8bad688e1feb91b81565b604051908152602001620001ed565b620001c86200025536600462001759565b62000a1b565b620002356200026c36600462001786565b60009081526065602052604090206001015490565b620001c862000292366004620017a0565b62000ac6565b620001c8620002a9366004620017a0565b62000af1565b620002357fe33cd123f09d9a4e3b34162dcaba99ee0b73fe748beb8ca15f84a66b0c14723081565b62000235620002e836600462001683565b6001600160a01b0316600090815260c9602052604090205490565b6200031a6200031436600462001759565b62000b17565b6040516001600160a01b039091168152602001620001ed565b620002356200034436600462001683565b60cb6020526000908152604090205481565b6200031a62000367366004620017cf565b62000b50565b620001e16200037e366004620017a0565b60009182526065602090815260408084206001600160a01b0393909316845291905290205460ff1690565b62000235600081565b60cc5462000235565b62000235620003cc36600462001786565b62000b71565b6200031a620003e336600462001786565b62000b8a565b620001c8620003fa366004620017a0565b62000bb5565b620001c862000411366004620017a0565b62000bc1565b620001c86200042836600462001683565b62000e2d565b6200031a6200043f36600462001683565b60ca602052600090815260409020546001600160a01b031681565b7fe33cd123f09d9a4e3b34162dcaba99ee0b73fe748beb8ca15f84a66b0c14723062000487813362000ed9565b33600090815260cb6020526040902054861015620005125760405162461bcd60e51b815260206004820152603960248201527f5241495220466163746f72793a206e6f7420656e6f756768205241495220746f60448201527f6b656e7320746f206465706c6f79206120636f6e74726163740000000000000060648201526084015b60405180910390fd5b33600090815260cb60205260408120546200052e90886200198b565b33600090815260cb6020526040812054919250906200054f908390620019ae565b6200055b9089620019d0565b1115620005eb5733600081815260cb6020526040902054639bd9bbc6908b9062000587908590620019ae565b62000593908b620019d0565b89896040518563ffffffff1660e01b8152600401620005b69493929190620018cc565b600060405180830381600087803b158015620005d157600080fd5b505af1158015620005e6573d6000803e3d6000fd5b505050505b6001600160a01b038916600090815260c96020526040902080546200066e5760cc80546001810182556000919091527f47197230e1e4b29fc0bd84d7d78966c0925452aff72a2a121538b102457e9ebe0180547fffffffffffffffffffffffff0000000000000000000000000000000000000000166001600160a01b038c161790555b60005b82811015620007c557600088888d61753060405162000690906200160c565b6200069f949392919062001901565b604051809103906000f080158015620006bc573d6000803e3d6000fd5b50905082819080600181540180825580915050600190039060005260206000200160009091909190916101000a8154816001600160a01b0302191690836001600160a01b031602179055508b60ca6000836001600160a01b03166001600160a01b0316815260200190815260200160002060006101000a8154816001600160a01b0302191690836001600160a01b031602179055507f8541d3f155d1d78bb99039323325761c94686b6f359d2ab4f5c645551f55fa118c848054905083604051620007a7939291906001600160a01b0393841681526020810192909252909116604082015260600190565b60405180910390a15080620007bc8162001a37565b91505062000671565b505050505050505050505050565b60006001600160e01b031982167f5a05180f000000000000000000000000000000000000000000000000000000001480620008145750620008148262000f66565b92915050565b7f6270edb7c868f86fda4adedba75108201087268ea345934db8bad688e1feb91b62000847813362000ed9565b6001600160a01b03831660009081527fb5704d40d816f89c7ed881fad8dc86d867ee17f23bd4491183613bf1becdc1e8602052604090205460ff166200091c5760405162461bcd60e51b815260206004820152604260248201527f5241495220466163746f72793a2053706563696669656420636f6e747261637460448201527f2069736e277420616e20617070726f7665642065726337373720636f6e74726160648201527f6374000000000000000000000000000000000000000000000000000000000000608482015260a40162000509565b6040517f9bd9bbc60000000000000000000000000000000000000000000000000000000081523360048201526024810183905260606044820152601060648201527f466163746f72792057697468647261770000000000000000000000000000000060848201526001600160a01b03841690639bd9bbc69060a401600060405180830381600087803b158015620009b257600080fd5b505af1158015620009c7573d6000803e3d6000fd5b5050604080513381526001600160a01b03871660208201529081018590527f6337ed398c0e8467698c581374fdce4db14922df487b5a39483079f5f59b60a4925060600190505b60405180910390a1505050565b7f6270edb7c868f86fda4adedba75108201087268ea345934db8bad688e1feb91b62000a48813362000ed9565b62000a747fe33cd123f09d9a4e3b34162dcaba99ee0b73fe748beb8ca15f84a66b0c1472308462000ac6565b6001600160a01b038316600081815260cb6020908152604091829020859055815192835282018490527f3229ffedb9ac4c1136e523cacfdab8c7621a1f1394161e5fa51850fbf4b4079b910162000a0e565b62000ad2828262000fcf565b600082815260976020526040902062000aec908262000ff9565b505050565b62000afd828262001010565b600082815260976020526040902062000aec90826200109c565b60c9602052816000526040600020818154811062000b3457600080fd5b6000918252602090912001546001600160a01b03169150829050565b600082815260976020526040812062000b6a9083620010b3565b9392505050565b60008181526097602052604081206200081490620010c1565b60cc818154811062000b9b57600080fd5b6000918252602090912001546001600160a01b0316905081565b62000afd8282620010cc565b600054610100900460ff168062000bdb575060005460ff16155b62000c4f5760405162461bcd60e51b815260206004820152602e60248201527f496e697469616c697a61626c653a20636f6e747261637420697320616c72656160448201527f647920696e697469616c697a6564000000000000000000000000000000000000606482015260840162000509565b600054610100900460ff1615801562000c72576000805461ffff19166101011790555b6040517f29965a1d00000000000000000000000000000000000000000000000000000000815230600482018190527fb281fc8c12954d22544db45de3159a39272895b169a852b314f9cc762e44c53b60248301526044820152731820a4b7618bde71dce8cdc73aab6c95905fad24906329965a1d90606401600060405180830381600087803b15801562000d0557600080fd5b505af115801562000d1a573d6000803e3d6000fd5b5050505062000d6a7fe33cd123f09d9a4e3b34162dcaba99ee0b73fe748beb8ca15f84a66b0c1472307f6270edb7c868f86fda4adedba75108201087268ea345934db8bad688e1feb91b620010f6565b62000d967f6270edb7c868f86fda4adedba75108201087268ea345934db8bad688e1feb91b336200114a565b62000dc27fe33cd123f09d9a4e3b34162dcaba99ee0b73fe748beb8ca15f84a66b0c147230836200114a565b6001600160a01b038216600081815260cb6020908152604091829020869055815192835282018590527f3229ffedb9ac4c1136e523cacfdab8c7621a1f1394161e5fa51850fbf4b4079b910160405180910390a1801562000aec576000805461ff0019169055505050565b7f6270edb7c868f86fda4adedba75108201087268ea345934db8bad688e1feb91b62000e5a813362000ed9565b62000e867fe33cd123f09d9a4e3b34162dcaba99ee0b73fe748beb8ca15f84a66b0c1472308362000bb5565b6001600160a01b038216600081815260cb602090815260408083209290925590519182527ffae0368e2524d44fb9cd4e3d7b3c3ef4c00778a55c6121e48e49d11fb38c7e38910160405180910390a15050565b60008281526065602090815260408083206001600160a01b038516845290915290205460ff1662000f625762000f1a816001600160a01b0316601462001156565b62000f2783602062001156565b60405160200162000f3a92919062001847565b60408051601f198184030181529082905262461bcd60e51b825262000509916004016200193b565b5050565b60006001600160e01b031982167f7965db0b0000000000000000000000000000000000000000000000000000000014806200081457507f01ffc9a7000000000000000000000000000000000000000000000000000000006001600160e01b031983161462000814565b60008281526065602052604090206001015462000fed813362000ed9565b62000aec838362001355565b600062000b6a836001600160a01b038416620013f9565b6001600160a01b0381163314620010905760405162461bcd60e51b815260206004820152602f60248201527f416363657373436f6e74726f6c3a2063616e206f6e6c792072656e6f756e636560448201527f20726f6c657320666f722073656c660000000000000000000000000000000000606482015260840162000509565b62000f6282826200144b565b600062000b6a836001600160a01b038416620014cf565b600062000b6a8383620015d3565b600062000814825490565b600082815260656020526040902060010154620010ea813362000ed9565b62000aec83836200144b565b600082815260656020526040902060010154819060405184907fbd79b86ffe0ab8e8776151514217cd7cacd52c909f66475c3af44e129f0b00ff90600090a460009182526065602052604090912060010155565b62000ad2828262001600565b6060600062001167836002620019ae565b6200117490600262001970565b67ffffffffffffffff8111156200118f576200118f62001a97565b6040519080825280601f01601f191660200182016040528015620011ba576020820181803683370190505b5090507f300000000000000000000000000000000000000000000000000000000000000081600081518110620011f457620011f462001a81565b60200101906001600160f81b031916908160001a9053507f78000000000000000000000000000000000000000000000000000000000000008160018151811062001242576200124262001a81565b60200101906001600160f81b031916908160001a905350600062001268846002620019ae565b6200127590600162001970565b90505b600181111562001304577f303132333435363738396162636465660000000000000000000000000000000085600f1660108110620012ba57620012ba62001a81565b1a60f81b828281518110620012d357620012d362001a81565b60200101906001600160f81b031916908160001a90535060049490941c93620012fc8162001a1d565b905062001278565b50831562000b6a5760405162461bcd60e51b815260206004820181905260248201527f537472696e67733a20686578206c656e67746820696e73756666696369656e74604482015260640162000509565b60008281526065602090815260408083206001600160a01b038516845290915290205460ff1662000f625760008281526065602090815260408083206001600160a01b03851684529091529020805460ff19166001179055620013b53390565b6001600160a01b0316816001600160a01b0316837f2f8788117e7eff1d82e926ec794901d17c78024a50270940304540a733656f0d60405160405180910390a45050565b6000818152600183016020526040812054620014425750815460018181018455600084815260208082209093018490558454848252828601909352604090209190915562000814565b50600062000814565b60008281526065602090815260408083206001600160a01b038516845290915290205460ff161562000f625760008281526065602090815260408083206001600160a01b0385168085529252808320805460ff1916905551339285917ff6391f5c32d9c69d2a47ea670b442974b53935d1edc7fd64eb21e047a839171b9190a45050565b60008181526001830160205260408120548015620015c8576000620014f6600183620019d0565b85549091506000906200150c90600190620019d0565b90508181146200157857600086600001828154811062001530576200153062001a81565b906000526020600020015490508087600001848154811062001556576200155662001a81565b6000918252602080832090910192909255918252600188019052604090208390555b85548690806200158c576200158c62001a6b565b60019003818190600052602060002001600090559055856001016000868152602001908152602001600020600090556001935050505062000814565b600091505062000814565b6000826000018281548110620015ed57620015ed62001a81565b9060005260206000200154905092915050565b62000f62828262001355565b6138438062001aae83390190565b80356001600160a01b03811681146200163257600080fd5b919050565b60008083601f8401126200164a57600080fd5b50813567ffffffffffffffff8111156200166357600080fd5b6020830191508360208285010111156200167c57600080fd5b9250929050565b6000602082840312156200169657600080fd5b62000b6a826200161a565b60008060008060008060008060c0898b031215620016be57600080fd5b620016c9896200161a565b9750620016d960208a016200161a565b9650620016e960408a016200161a565b955060608901359450608089013567ffffffffffffffff808211156200170e57600080fd5b6200171c8c838d0162001637565b909650945060a08b01359150808211156200173657600080fd5b50620017458b828c0162001637565b999c989b5096995094979396929594505050565b600080604083850312156200176d57600080fd5b62001778836200161a565b946020939093013593505050565b6000602082840312156200179957600080fd5b5035919050565b60008060408385031215620017b457600080fd5b82359150620017c6602084016200161a565b90509250929050565b60008060408385031215620017e357600080fd5b50508035926020909101359150565b6000602082840312156200180557600080fd5b81356001600160e01b03198116811462000b6a57600080fd5b81835281816020850137506000828201602090810191909152601f909101601f19169091010190565b7f416363657373436f6e74726f6c3a206163636f756e742000000000000000000081526000835162001881816017850160208801620019ea565b7f206973206d697373696e6720726f6c65200000000000000000000000000000006017918401918201528351620018c0816028840160208801620019ea565b01602801949350505050565b6001600160a01b0385168152836020820152606060408201526000620018f76060830184866200181e565b9695505050505050565b606081526000620019176060830186886200181e565b90506001600160a01b038416602083015261ffff8316604083015295945050505050565b60208152600082518060208401526200195c816040850160208701620019ea565b601f01601f19169190910160400192915050565b6000821982111562001986576200198662001a55565b500190565b600082620019a957634e487b7160e01b600052601260045260246000fd5b500490565b6000816000190483118215151615620019cb57620019cb62001a55565b500290565b600082821015620019e557620019e562001a55565b500390565b60005b8381101562001a07578181015183820152602001620019ed565b8381111562001a17576000848401525b50505050565b60008162001a2f5762001a2f62001a55565b506000190190565b600060001982141562001a4e5762001a4e62001a55565b5060010190565b634e487b7160e01b600052601160045260246000fd5b634e487b7160e01b600052603160045260246000fd5b634e487b7160e01b600052603260045260246000fd5b634e487b7160e01b600052604160045260246000fdfe60806040523480156200001157600080fd5b5060405162003843380380620038438339810160408190526200003491620003a5565b82604051806040016040528060048152602001632920a4a960e11b81525081600090805190602001906200006a929190620002cf565b50805162000080906001906020840190620002cf565b5050600e80546001600160b01b0319163361ffff60a01b191617600160a01b61ffff85160217905550620000d3600080516020620038238339815191526000805160206200380383398151915262000112565b620000ee600080516020620038038339815191528362000166565b62000109600080516020620038238339815191528362000166565b505050620004fb565b6000828152600a6020526040902060010154819060405184907fbd79b86ffe0ab8e8776151514217cd7cacd52c909f66475c3af44e129f0b00ff90600090a46000918252600a602052604090912060010155565b6200017d8282620001a960201b620017a41760201c565b6000828152600b60209081526040909120620001a4918390620017b2620001b9821b17901c565b505050565b620001b58282620001d9565b5050565b6000620001d0836001600160a01b0384166200027d565b90505b92915050565b6000828152600a602090815260408083206001600160a01b038516845290915290205460ff16620001b5576000828152600a602090815260408083206001600160a01b03851684529091529020805460ff19166001179055620002393390565b6001600160a01b0316816001600160a01b0316837f2f8788117e7eff1d82e926ec794901d17c78024a50270940304540a733656f0d60405160405180910390a45050565b6000818152600183016020526040812054620002c657508154600181810184556000848152602080822090930184905584548482528286019093526040902091909155620001d3565b506000620001d3565b828054620002dd90620004a8565b90600052602060002090601f0160209004810192826200030157600085556200034c565b82601f106200031c57805160ff19168380011785556200034c565b828001600101855582156200034c579182015b828111156200034c5782518255916020019190600101906200032f565b506200035a9291506200035e565b5090565b5b808211156200035a57600081556001016200035f565b80516001600160a01b03811681146200038d57600080fd5b919050565b805161ffff811681146200038d57600080fd5b600080600060608486031215620003bb57600080fd5b83516001600160401b0380821115620003d357600080fd5b818601915086601f830112620003e857600080fd5b815181811115620003fd57620003fd620004e5565b604051601f8201601f19908116603f01168101908382118183101715620004285762000428620004e5565b816040528281526020935089848487010111156200044557600080fd5b600091505b828210156200046957848201840151818301850152908301906200044a565b828211156200047b5760008484830101525b96506200048d91505086820162000375565b935050506200049f6040850162000392565b90509250925092565b600181811c90821680620004bd57607f821691505b60208210811415620004df57634e487b7160e01b600052602260045260246000fd5b50919050565b634e487b7160e01b600052604160045260246000fd5b6132f8806200050b6000396000f3fe608060405234801561001057600080fd5b50600436106102415760003560e01c80636352211e11610145578063ab9aae35116100bd578063ca15c8731161008c578063e4fbb60911610071578063e4fbb60914610517578063e985e9c51461053e578063fe6d81241461057a57600080fd5b8063ca15c873146104f1578063d547741f1461050457600080fd5b8063ab9aae3514610496578063b88d4fde146104a9578063c155531d146104bc578063c87b56dd146104de57600080fd5b806391d148541161011457806397099fb2116100f957806397099fb214610468578063a217fddf1461047b578063a22cb4651461048357600080fd5b806391d148541461042757806395d89b411461046057600080fd5b80636352211e146103db57806370a08231146103ee57806388146f8d146104015780639010d07c1461041457600080fd5b806323b872dd116101d857806336568abe116101a75780634f6ccce71161018c5780634f6ccce7146103925780635a1f3c28146103a55780636018d3e3146103c857600080fd5b806336568abe1461036c57806342842e0e1461037f57600080fd5b806323b872dd14610310578063248a9ca3146103235780632f2ff15d146103465780632f745c591461035957600080fd5b8063156e29f611610214578063156e29f6146102c357806318160ddd146102d6578063195f78ae146102e85780631c10106f1461030857600080fd5b806301ffc9a71461024657806306fdde031461026e578063081812fc14610283578063095ea7b3146102ae575b600080fd5b610259610254366004612dcb565b6105a1565b60405190151581526020015b60405180910390f35b6102766105e5565b6040516102659190613030565b610296610291366004612d6d565b610677565b6040516001600160a01b039091168152602001610265565b6102c16102bc366004612d10565b610711565b005b6102c16102d1366004612d3a565b610843565b6008545b604051908152602001610265565b6102da6102f6366004612d6d565b600d6020526000908152604090205481565b600c546102da565b6102c161031e366004612c1c565b610afe565b6102da610331366004612d6d565b6000908152600a602052604090206001015490565b6102c1610354366004612d86565b610b85565b6102da610367366004612d10565b610ba7565b6102c161037a366004612d86565b610c4f565b6102c161038d366004612c1c565b610c71565b6102da6103a0366004612d6d565b610c8c565b6103b86103b3366004612d6d565b610d30565b604051610265949392919061310d565b6102c16103d6366004612e05565b610e43565b6102966103e9366004612d6d565b611048565b6102da6103fc366004612bce565b6110d3565b6102da61040f366004612d6d565b61116d565b610296610422366004612da9565b6113db565b610259610435366004612d86565b6000918252600a602090815260408084206001600160a01b0393909316845291905290205460ff1690565b6102766113fa565b610259610476366004612d10565b611409565b6102da600081565b6102c1610491366004612cd4565b611467565b6102da6104a4366004612d6d565b61152c565b6102c16104b7366004612c58565b61156d565b6104cf6104ca366004612e67565b6115fb565b60405161026593929190612fff565b6102766104ec366004612d6d565b61168e565b6102da6104ff366004612d6d565b611783565b6102c1610512366004612d86565b61179a565b6102da7f3c2519c4487d47714872f92cf90a50c25f5deaec2789dc2a497b1272df611db681565b61025961054c366004612be9565b6001600160a01b03918216600090815260056020908152604080832093909416825291909152205460ff1690565b6102da7ff0887ba65ee2024ea881d91b74c2450ef19e1557f03bed3ea9f16b037cbe2dc981565b60006001600160e01b031982167fc0aa9aba0000000000000000000000000000000000000000000000000000000014806105df57506105df826117c7565b92915050565b6060600080546105f4906131d7565b80601f0160208091040260200160405190810160405280929190818152602001828054610620906131d7565b801561066d5780601f106106425761010080835404028352916020019161066d565b820191906000526020600020905b81548152906001019060200180831161065057829003601f168201915b5050505050905090565b6000818152600260205260408120546001600160a01b03166106f55760405162461bcd60e51b815260206004820152602c60248201527f4552433732313a20617070726f76656420717565727920666f72206e6f6e657860448201526b34b9ba32b73a103a37b5b2b760a11b60648201526084015b60405180910390fd5b506000908152600460205260409020546001600160a01b031690565b600061071c82611048565b9050806001600160a01b0316836001600160a01b031614156107a65760405162461bcd60e51b815260206004820152602160248201527f4552433732313a20617070726f76616c20746f2063757272656e74206f776e6560448201527f720000000000000000000000000000000000000000000000000000000000000060648201526084016106ec565b336001600160a01b03821614806107c257506107c2813361054c565b6108345760405162461bcd60e51b815260206004820152603860248201527f4552433732313a20617070726f76652063616c6c6572206973206e6f74206f7760448201527f6e6572206e6f7220617070726f76656420666f7220616c6c000000000000000060648201526084016106ec565b61083e8383611805565b505050565b7ff0887ba65ee2024ea881d91b74c2450ef19e1557f03bed3ea9f16b037cbe2dc961086e8133611880565b600c54839081106108d05760405162461bcd60e51b815260206004820152602660248201527f52414952204552433732313a20436f6c6c656374696f6e20646f6573206e6f7460448201526508195e1a5cdd60d21b60648201526084016106ec565b6000600c82815481106108e5576108e561327d565b9060005260206000209060050201600201541161096a5760405162461bcd60e51b815260206004820152603460248201527f52414952204552433732313a2043616e6e6f74206d696e7420746f6b656e732060448201527f66726f6d207468697320636f6c6c656374696f6e00000000000000000000000060648201526084016106ec565b6000600c858154811061097f5761097f61327d565b90600052602060002090600502019050806000015481600101546109a3919061317d565b84106109f15760405162461bcd60e51b815260206004820181905260248201527f52414952204552433732313a20496e76616c696420746f6b656e20696e64657860448201526064016106ec565b610a0a86858360000154610a059190613132565b611900565b84600d6000868460000154610a1f9190613132565b815260200190815260200160002081905550806002016000815480929190610a46906131c0565b9091555050600381015415610ab157600381018054906000610a67836131c0565b90915550506003810154610ab157847facf2f481ab4e0a6a6928fa55f92b2526414a1065c43a7103afd0fbdecb1cb5d982600401604051610aa89190613065565b60405180910390a25b6002810154610af657847f3ab828a3fee3d542c87fb145e900664325100c3c0b2e2a2cca38685b6de1b27182600401604051610aed9190613065565b60405180910390a25b505050505050565b610b08338261191a565b610b7a5760405162461bcd60e51b815260206004820152603160248201527f4552433732313a207472616e736665722063616c6c6572206973206e6f74206f60448201527f776e6572206e6f7220617070726f76656400000000000000000000000000000060648201526084016106ec565b61083e838383611a11565b610b8f8282611bf6565b6000828152600b6020526040902061083e90826117b2565b6000610bb2836110d3565b8210610c265760405162461bcd60e51b815260206004820152602b60248201527f455243373231456e756d657261626c653a206f776e657220696e646578206f7560448201527f74206f6620626f756e647300000000000000000000000000000000000000000060648201526084016106ec565b506001600160a01b03919091166000908152600660209081526040808320938352929052205490565b610c598282611c1c565b6000828152600b6020526040902061083e9082611ca4565b61083e8383836040518060200160405280600081525061156d565b6000610c9760085490565b8210610d0b5760405162461bcd60e51b815260206004820152602c60248201527f455243373231456e756d657261626c653a20676c6f62616c20696e646578206f60448201527f7574206f6620626f756e6473000000000000000000000000000000000000000060648201526084016106ec565b60088281548110610d1e57610d1e61327d565b90600052602060002001549050919050565b600080600060606000600c8681548110610d4c57610d4c61327d565b90600052602060002090600502016040518060a001604052908160008201548152602001600182015481526020016002820154815260200160038201548152602001600482018054610d9d906131d7565b80601f0160208091040260200160405190810160405280929190818152602001828054610dc9906131d7565b8015610e165780601f10610deb57610100808354040283529160200191610e16565b820191906000526020600020905b815481529060010190602001808311610df957829003601f168201915b505050919092525050815160208301516040840151608090940151919a9099509297509550909350505050565b7f3c2519c4487d47714872f92cf90a50c25f5deaec2789dc2a497b1272df611db6610e6e8133611880565b81831015610f0a5760405162461bcd60e51b815260206004820152604360248201527f4552433732313a20526573616c652073746172742073686f756c64206265206c60448201527f657373207468616e2074686520746f74616c20616d6f756e74206f6620636f7060648201527f6965730000000000000000000000000000000000000000000000000000000000608482015260a4016106ec565b600c5460009015610f4c57600c8054610f259060019061317d565b81548110610f3557610f3561327d565b906000526020600020906005020160010154610f4f565b60005b600c80546001810182556000919091526005027fdf6966c971051c3d54ec59162606531493a51404a002842f56009d7e5cf4a8c701818155909150610f948583613132565b60018201558551610fae9060048301906020890190612aa3565b506002810185905560038101849055600c54610fcc9060019061317d565b7f9ae7dd5dbfc3938737af70872685a3fb26f364d20134cd30be25108122626a178787604051610ffd929190613043565b60405180910390a283610af657600c546110199060019061317d565b7facf2f481ab4e0a6a6928fa55f92b2526414a1065c43a7103afd0fbdecb1cb5d987604051610aed9190613030565b6000818152600260205260408120546001600160a01b0316806105df5760405162461bcd60e51b815260206004820152602960248201527f4552433732313a206f776e657220717565727920666f72206e6f6e657869737460448201527f656e7420746f6b656e000000000000000000000000000000000000000000000060648201526084016106ec565b60006001600160a01b0382166111515760405162461bcd60e51b815260206004820152602a60248201527f4552433732313a2062616c616e636520717565727920666f7220746865207a6560448201527f726f20616464726573730000000000000000000000000000000000000000000060648201526084016106ec565b506001600160a01b031660009081526003602052604090205490565b60008180600c80549050116111d35760405162461bcd60e51b815260206004820152602660248201527f52414952204552433732313a20436f6c6c656374696f6e20646f6573206e6f7460448201526508195e1a5cdd60d21b60648201526084016106ec565b6000600c82815481106111e8576111e861327d565b9060005260206000209060050201600201541161126d5760405162461bcd60e51b815260206004820152603460248201527f52414952204552433732313a2043616e6e6f74206d696e7420746f6b656e732060448201527f66726f6d207468697320636f6c6c656374696f6e00000000000000000000000060648201526084016106ec565b6000600c84815481106112825761128261327d565b90600052602060002090600502016040518060a0016040529081600082015481526020016001820154815260200160028201548152602001600382015481526020016004820180546112d3906131d7565b80601f01602080910402602001604051908101604052809291908181526020018280546112ff906131d7565b801561134c5780601f106113215761010080835404028352916020019161134c565b820191906000526020600020905b81548152906001019060200180831161132f57829003601f168201915b5050505050815250509050806040015181600001518260200151611370919061317d565b14156113805760009250506113d5565b80515b81602001518110156113d2576000818152600260205260409020546001600160a01b03166113c05781516113b7908261317d565b935050506113d5565b806113ca8161320c565b915050611383565b50505b50919050565b6000828152600b602052604081206113f39083611cb9565b9392505050565b6060600180546105f4906131d7565b6000805b611416846110d3565b81101561145d5782600d600061142c8785610ba7565b815260200190815260200160002054141561144b5760019150506105df565b806114558161320c565b91505061140d565b5060009392505050565b6001600160a01b0382163314156114c05760405162461bcd60e51b815260206004820152601960248201527f4552433732313a20617070726f766520746f2063616c6c65720000000000000060448201526064016106ec565b3360008181526005602090815260408083206001600160a01b03871680855290835292819020805460ff191686151590811790915590519081529192917f17307eab39ab6107e8899845ad3d59bd9653f200f220920489ca2b5937696c31910160405180910390a35050565b6000818152600d6020526040812054600c805490919081106115505761155061327d565b906000526020600020906005020160000154826105df919061317d565b611577338361191a565b6115e95760405162461bcd60e51b815260206004820152603160248201527f4552433732313a207472616e736665722063616c6c6572206973206e6f74206f60448201527f776e6572206e6f7220617070726f76656400000000000000000000000000000060648201526084016106ec565b6115f584848484611cc5565b50505050565b600080606061162b7f3c2519c4487d47714872f92cf90a50c25f5deaec2789dc2a497b1272df611db660006113db565b600e54620186a0906116599074010000000000000000000000000000000000000000900461ffff168961315e565b611663919061314a565b60408051602081018b9052016040516020818303038152906040529250925092509450945094915050565b6000818152600260205260409020546060906001600160a01b031661171b5760405162461bcd60e51b815260206004820152602f60248201527f4552433732314d657461646174613a2055524920717565727920666f72206e6f60448201527f6e6578697374656e7420746f6b656e000000000000000000000000000000000060648201526084016106ec565b600061173260408051602081019091526000815290565b9050600081511161175257604051806020016040528060008152506113f3565b8061175c84611d43565b60405160200161176d929190612f13565b6040516020818303038152906040529392505050565b6000818152600b602052604081206105df90611e41565b610c598282611e4b565b6117ae8282611e71565b5050565b60006113f3836001600160a01b038416611f13565b60006001600160e01b031982167f5a05180f0000000000000000000000000000000000000000000000000000000014806105df57506105df82611f62565b6000818152600460205260409020805473ffffffffffffffffffffffffffffffffffffffff19166001600160a01b038416908117909155819061184782611048565b6001600160a01b03167f8c5be1e5ebec7d5bd14f71427d1e84f3dd0314c0f7b2291e5b200ac8c7c3b92560405160405180910390a45050565b6000828152600a602090815260408083206001600160a01b038516845290915290205460ff166117ae576118be816001600160a01b03166014611fa0565b6118c9836020611fa0565b6040516020016118da929190612f42565b60408051601f198184030181529082905262461bcd60e51b82526106ec91600401613030565b6117ae828260405180602001604052806000815250612165565b6000818152600260205260408120546001600160a01b03166119935760405162461bcd60e51b815260206004820152602c60248201527f4552433732313a206f70657261746f7220717565727920666f72206e6f6e657860448201526b34b9ba32b73a103a37b5b2b760a11b60648201526084016106ec565b600061199e83611048565b9050806001600160a01b0316846001600160a01b031614806119d95750836001600160a01b03166119ce84610677565b6001600160a01b0316145b80611a0957506001600160a01b0380821660009081526005602090815260408083209388168352929052205460ff165b949350505050565b826001600160a01b0316611a2482611048565b6001600160a01b031614611aa05760405162461bcd60e51b815260206004820152602960248201527f4552433732313a207472616e73666572206f6620746f6b656e2074686174206960448201527f73206e6f74206f776e000000000000000000000000000000000000000000000060648201526084016106ec565b6001600160a01b038216611b1b5760405162461bcd60e51b8152602060048201526024808201527f4552433732313a207472616e7366657220746f20746865207a65726f2061646460448201527f726573730000000000000000000000000000000000000000000000000000000060648201526084016106ec565b611b268383836121e3565b611b31600082611805565b6001600160a01b0383166000908152600360205260408120805460019290611b5a90849061317d565b90915550506001600160a01b0382166000908152600360205260408120805460019290611b88908490613132565b9091555050600081815260026020526040808220805473ffffffffffffffffffffffffffffffffffffffff19166001600160a01b0386811691821790925591518493918716917fddf252ad1be2c89b69c2b068fc378daa952ba7f163c4a11628f55a4df523b3ef91a4505050565b6000828152600a6020526040902060010154611c128133611880565b61083e8383611e71565b6001600160a01b0381163314611c9a5760405162461bcd60e51b815260206004820152602f60248201527f416363657373436f6e74726f6c3a2063616e206f6e6c792072656e6f756e636560448201527f20726f6c657320666f722073656c66000000000000000000000000000000000060648201526084016106ec565b6117ae82826122be565b60006113f3836001600160a01b038416612341565b60006113f3838361242e565b611cd0848484611a11565b611cdc848484846124cf565b6115f55760405162461bcd60e51b815260206004820152603260248201527f4552433732313a207472616e7366657220746f206e6f6e20455243373231526560448201527131b2b4bb32b91034b6b83632b6b2b73a32b960711b60648201526084016106ec565b606081611d675750506040805180820190915260018152600360fc1b602082015290565b8160005b8115611d915780611d7b8161320c565b9150611d8a9050600a8361314a565b9150611d6b565b60008167ffffffffffffffff811115611dac57611dac613293565b6040519080825280601f01601f191660200182016040528015611dd6576020820181803683370190505b5090505b8415611a0957611deb60018361317d565b9150611df8600a86613227565b611e03906030613132565b60f81b818381518110611e1857611e1861327d565b60200101906001600160f81b031916908160001a905350611e3a600a8661314a565b9450611dda565b60006105df825490565b6000828152600a6020526040902060010154611e678133611880565b61083e83836122be565b6000828152600a602090815260408083206001600160a01b038516845290915290205460ff166117ae576000828152600a602090815260408083206001600160a01b03851684529091529020805460ff19166001179055611ecf3390565b6001600160a01b0316816001600160a01b0316837f2f8788117e7eff1d82e926ec794901d17c78024a50270940304540a733656f0d60405160405180910390a45050565b6000818152600183016020526040812054611f5a575081546001818101845560008481526020808220909301849055845484825282860190935260409020919091556105df565b5060006105df565b60006001600160e01b031982167f7965db0b0000000000000000000000000000000000000000000000000000000014806105df57506105df82612627565b60606000611faf83600261315e565b611fba906002613132565b67ffffffffffffffff811115611fd257611fd2613293565b6040519080825280601f01601f191660200182016040528015611ffc576020820181803683370190505b509050600360fc1b816000815181106120175761201761327d565b60200101906001600160f81b031916908160001a9053507f7800000000000000000000000000000000000000000000000000000000000000816001815181106120625761206261327d565b60200101906001600160f81b031916908160001a905350600061208684600261315e565b612091906001613132565b90505b6001811115612116577f303132333435363738396162636465660000000000000000000000000000000085600f16601081106120d2576120d261327d565b1a60f81b8282815181106120e8576120e861327d565b60200101906001600160f81b031916908160001a90535060049490941c9361210f816131c0565b9050612094565b5083156113f35760405162461bcd60e51b815260206004820181905260248201527f537472696e67733a20686578206c656e67746820696e73756666696369656e7460448201526064016106ec565b61216f8383612665565b61217c60008484846124cf565b61083e5760405162461bcd60e51b815260206004820152603260248201527f4552433732313a207472616e7366657220746f206e6f6e20455243373231526560448201527131b2b4bb32b91034b6b83632b6b2b73a32b960711b60648201526084016106ec565b6001600160a01b0383161580159061220357506001600160a01b03821615155b156122b3576000818152600d6020526040902054600c8054909190811061222c5761222c61327d565b9060005260206000209060050201600301546000146122b35760405162461bcd60e51b815260206004820152603f60248201527f52414952204552433732313a205472616e736665727320666f7220746869732060448201527f636f6c6c656374696f6e20686176656e2774206265656e20656e61626c65640060648201526084016106ec565b61083e8383836127c0565b6000828152600a602090815260408083206001600160a01b038516845290915290205460ff16156117ae576000828152600a602090815260408083206001600160a01b0385168085529252808320805460ff1916905551339285917ff6391f5c32d9c69d2a47ea670b442974b53935d1edc7fd64eb21e047a839171b9190a45050565b6000818152600183016020526040812054801561242457600061236560018361317d565b85549091506000906123799060019061317d565b905060008660000182815481106123925761239261327d565b90600052602060002001549050808760000184815481106123b5576123b561327d565b6000918252602080832090910192909255828152600189019091526040902084905586548790806123e8576123e8613267565b600190038181906000526020600020016000905590558660010160008781526020019081526020016000206000905560019450505050506105df565b60009150506105df565b815460009082106124a75760405162461bcd60e51b815260206004820152602260248201527f456e756d657261626c655365743a20696e646578206f7574206f6620626f756e60448201527f647300000000000000000000000000000000000000000000000000000000000060648201526084016106ec565b8260000182815481106124bc576124bc61327d565b9060005260206000200154905092915050565b60006001600160a01b0384163b1561261c57604051630a85bd0160e11b81526001600160a01b0385169063150b7a0290612513903390899088908890600401612fc3565b602060405180830381600087803b15801561252d57600080fd5b505af192505050801561255d575060408051601f3d908101601f1916820190925261255a91810190612de8565b60015b612602573d80801561258b576040519150601f19603f3d011682016040523d82523d6000602084013e612590565b606091505b5080516125fa5760405162461bcd60e51b815260206004820152603260248201527f4552433732313a207472616e7366657220746f206e6f6e20455243373231526560448201527131b2b4bb32b91034b6b83632b6b2b73a32b960711b60648201526084016106ec565b805181602001fd5b6001600160e01b031916630a85bd0160e11b149050611a09565b506001949350505050565b60006001600160e01b031982167f780e9d630000000000000000000000000000000000000000000000000000000014806105df57506105df82612878565b6001600160a01b0382166126bb5760405162461bcd60e51b815260206004820181905260248201527f4552433732313a206d696e7420746f20746865207a65726f206164647265737360448201526064016106ec565b6000818152600260205260409020546001600160a01b0316156127205760405162461bcd60e51b815260206004820152601c60248201527f4552433732313a20746f6b656e20616c7265616479206d696e7465640000000060448201526064016106ec565b61272c600083836121e3565b6001600160a01b0382166000908152600360205260408120805460019290612755908490613132565b9091555050600081815260026020526040808220805473ffffffffffffffffffffffffffffffffffffffff19166001600160a01b03861690811790915590518392907fddf252ad1be2c89b69c2b068fc378daa952ba7f163c4a11628f55a4df523b3ef908290a45050565b6001600160a01b03831661281b5761281681600880546000838152600960205260408120829055600182018355919091527ff3f7a9fe364faab93b216da50a3214154f22a0a2b415b23a84c8169e8b636ee30155565b61283e565b816001600160a01b0316836001600160a01b03161461283e5761283e8382612913565b6001600160a01b0382166128555761083e816129b0565b826001600160a01b0316826001600160a01b03161461083e5761083e8282612a5f565b60006001600160e01b031982167f80ac58cd0000000000000000000000000000000000000000000000000000000014806128db57506001600160e01b031982167f5b5e139f00000000000000000000000000000000000000000000000000000000145b806105df57507f01ffc9a7000000000000000000000000000000000000000000000000000000006001600160e01b03198316146105df565b60006001612920846110d3565b61292a919061317d565b60008381526007602052604090205490915080821461297d576001600160a01b03841660009081526006602090815260408083208584528252808320548484528184208190558352600790915290208190555b5060009182526007602090815260408084208490556001600160a01b039094168352600681528383209183525290812055565b6008546000906129c29060019061317d565b600083815260096020526040812054600880549394509092849081106129ea576129ea61327d565b906000526020600020015490508060088381548110612a0b57612a0b61327d565b6000918252602080832090910192909255828152600990915260408082208490558582528120556008805480612a4357612a43613267565b6001900381819060005260206000200160009055905550505050565b6000612a6a836110d3565b6001600160a01b039093166000908152600660209081526040808320868452825280832085905593825260079052919091209190915550565b828054612aaf906131d7565b90600052602060002090601f016020900481019282612ad15760008555612b17565b82601f10612aea57805160ff1916838001178555612b17565b82800160010185558215612b17579182015b82811115612b17578251825591602001919060010190612afc565b50612b23929150612b27565b5090565b5b80821115612b235760008155600101612b28565b600067ffffffffffffffff80841115612b5757612b57613293565b604051601f8501601f19908116603f01168101908282118183101715612b7f57612b7f613293565b81604052809350858152868686011115612b9857600080fd5b858560208301376000602087830101525050509392505050565b80356001600160a01b0381168114612bc957600080fd5b919050565b600060208284031215612be057600080fd5b6113f382612bb2565b60008060408385031215612bfc57600080fd5b612c0583612bb2565b9150612c1360208401612bb2565b90509250929050565b600080600060608486031215612c3157600080fd5b612c3a84612bb2565b9250612c4860208501612bb2565b9150604084013590509250925092565b60008060008060808587031215612c6e57600080fd5b612c7785612bb2565b9350612c8560208601612bb2565b925060408501359150606085013567ffffffffffffffff811115612ca857600080fd5b8501601f81018713612cb957600080fd5b612cc887823560208401612b3c565b91505092959194509250565b60008060408385031215612ce757600080fd5b612cf083612bb2565b915060208301358015158114612d0557600080fd5b809150509250929050565b60008060408385031215612d2357600080fd5b612d2c83612bb2565b946020939093013593505050565b600080600060608486031215612d4f57600080fd5b612d5884612bb2565b95602085013595506040909401359392505050565b600060208284031215612d7f57600080fd5b5035919050565b60008060408385031215612d9957600080fd5b82359150612c1360208401612bb2565b60008060408385031215612dbc57600080fd5b50508035926020909101359150565b600060208284031215612ddd57600080fd5b81356113f3816132a9565b600060208284031215612dfa57600080fd5b81516113f3816132a9565b600080600060608486031215612e1a57600080fd5b833567ffffffffffffffff811115612e3157600080fd5b8401601f81018613612e4257600080fd5b612e5186823560208401612b3c565b9660208601359650604090950135949350505050565b60008060008060608587031215612e7d57600080fd5b8435935060208501359250604085013567ffffffffffffffff80821115612ea357600080fd5b818701915087601f830112612eb757600080fd5b813581811115612ec657600080fd5b886020828501011115612ed857600080fd5b95989497505060200194505050565b60008151808452612eff816020860160208601613194565b601f01601f19169290920160200192915050565b60008351612f25818460208801613194565b835190830190612f39818360208801613194565b01949350505050565b7f416363657373436f6e74726f6c3a206163636f756e7420000000000000000000815260008351612f7a816017850160208801613194565b7f206973206d697373696e6720726f6c65200000000000000000000000000000006017918401918201528351612fb7816028840160208801613194565b01602801949350505050565b60006001600160a01b03808716835280861660208401525083604083015260806060830152612ff56080830184612ee7565b9695505050505050565b6001600160a01b03841681528260208201526060604082015260006130276060830184612ee7565b95945050505050565b6020815260006113f36020830184612ee7565b6040815260006130566040830185612ee7565b90508260208301529392505050565b600060208083526000845481600182811c91508083168061308757607f831692505b8583108114156130a557634e487b7160e01b85526022600452602485fd5b8786018381526020018180156130c257600181146130d3576130fe565b60ff198616825287820196506130fe565b60008b81526020902060005b868110156130f8578154848201529085019089016130df565b83019750505b50949998505050505050505050565b848152836020820152826040820152608060608201526000612ff56080830184612ee7565b600082198211156131455761314561323b565b500190565b60008261315957613159613251565b500490565b60008160001904831182151516156131785761317861323b565b500290565b60008282101561318f5761318f61323b565b500390565b60005b838110156131af578181015183820152602001613197565b838111156115f55750506000910152565b6000816131cf576131cf61323b565b506000190190565b600181811c908216806131eb57607f821691505b602082108114156113d557634e487b7160e01b600052602260045260246000fd5b60006000198214156132205761322061323b565b5060010190565b60008261323657613236613251565b500690565b634e487b7160e01b600052601160045260246000fd5b634e487b7160e01b600052601260045260246000fd5b634e487b7160e01b600052603160045260246000fd5b634e487b7160e01b600052603260045260246000fd5b634e487b7160e01b600052604160045260246000fd5b6001600160e01b0319811681146132bf57600080fd5b5056fea26469706673582212204cec486e6e4bc1c9ba9171425d95c08b47a5632feb67409ed8d619067ce93b4864736f6c634300080600333c2519c4487d47714872f92cf90a50c25f5deaec2789dc2a497b1272df611db6f0887ba65ee2024ea881d91b74c2450ef19e1557f03bed3ea9f16b037cbe2dc9a2646970667358221220f8e4ea4b98e7a0a84d907f83811fd5906e13c8e8123c7aa443256a1257e61e2e64736f6c63430008060033",
  "linkReferences": {},
  "deployedLinkReferences": {}
}