{
  "address": "0x4a87675A164C18A58DDC4aA6d4486685D7eDD7cA",
  "abi": [
    {
      "inputs": [
        {
          "internalType": "uint256",
          "name": "value",
          "type": "uint256"
        },
        {
          "internalType": "uint256",
          "name": "length",
          "type": "uint256"
        }
      ],
      "name": "StringsInsufficientHexLength",
      "type": "error"
    },
    {
      "anonymous": false,
      "inputs": [
        {
          "indexed": true,
          "internalType": "bytes32",
          "name": "role",
          "type": "bytes32"
        },
        {
          "indexed": true,
          "internalType": "bytes32",
          "name": "previousAdminRole",
          "type": "bytes32"
        },
        {
          "indexed": true,
          "internalType": "bytes32",
          "name": "newAdminRole",
          "type": "bytes32"
        }
      ],
      "name": "RoleAdminChanged",
      "type": "event"
    },
    {
      "anonymous": false,
      "inputs": [
        {
          "indexed": true,
          "internalType": "bytes32",
          "name": "role",
          "type": "bytes32"
        },
        {
          "indexed": true,
          "internalType": "address",
          "name": "account",
          "type": "address"
        },
        {
          "indexed": true,
          "internalType": "address",
          "name": "sender",
          "type": "address"
        }
      ],
      "name": "RoleGranted",
      "type": "event"
    },
    {
      "anonymous": false,
      "inputs": [
        {
          "indexed": true,
          "internalType": "bytes32",
          "name": "role",
          "type": "bytes32"
        },
        {
          "indexed": true,
          "internalType": "address",
          "name": "account",
          "type": "address"
        },
        {
          "indexed": true,
          "internalType": "address",
          "name": "sender",
          "type": "address"
        }
      ],
      "name": "RoleRevoked",
      "type": "event"
    },
    {
      "inputs": [
        {
          "internalType": "address",
          "name": "deployedContract",
          "type": "address"
        }
      ],
      "name": "contractToCreator",
      "outputs": [
        {
          "internalType": "address",
          "name": "creator",
          "type": "address"
        }
      ],
      "stateMutability": "view",
      "type": "function"
    },
    {
      "inputs": [
        {
          "internalType": "address",
          "name": "deployer",
          "type": "address"
        },
        {
          "internalType": "uint256",
          "name": "index",
          "type": "uint256"
        }
      ],
      "name": "creatorToContractIndex",
      "outputs": [
        {
          "internalType": "address",
          "name": "deployedContract",
          "type": "address"
        }
      ],
      "stateMutability": "view",
      "type": "function"
    },
    {
      "inputs": [
        {
          "internalType": "address",
          "name": "deployer",
          "type": "address"
        }
      ],
      "name": "creatorToContractList",
      "outputs": [
        {
          "internalType": "address[]",
          "name": "deployedContracts",
          "type": "address[]"
        }
      ],
      "stateMutability": "view",
      "type": "function"
    },
    {
      "inputs": [
        {
          "internalType": "address",
          "name": "deployer",
          "type": "address"
        }
      ],
      "name": "getContractCountOf",
      "outputs": [
        {
          "internalType": "uint256",
          "name": "count",
          "type": "uint256"
        }
      ],
      "stateMutability": "view",
      "type": "function"
    },
    {
      "inputs": [
        {
          "internalType": "uint256",
          "name": "index",
          "type": "uint256"
        }
      ],
      "name": "getCreatorAtIndex",
      "outputs": [
        {
          "internalType": "address",
          "name": "creator",
          "type": "address"
        }
      ],
      "stateMutability": "view",
      "type": "function"
    },
    {
      "inputs": [],
      "name": "getCreatorsCount",
      "outputs": [
        {
          "internalType": "uint256",
          "name": "count",
          "type": "uint256"
        }
      ],
      "stateMutability": "view",
      "type": "function"
    },
    {
      "inputs": [],
      "name": "getFacetSource",
      "outputs": [
        {
          "internalType": "address",
          "name": "facetSource",
          "type": "address"
        }
      ],
      "stateMutability": "view",
      "type": "function"
    },
    {
      "inputs": [
        {
          "internalType": "bytes32",
          "name": "role",
          "type": "bytes32"
        }
      ],
      "name": "getRoleAdmin",
      "outputs": [
        {
          "internalType": "bytes32",
          "name": "",
          "type": "bytes32"
        }
      ],
      "stateMutability": "view",
      "type": "function"
    },
    {
      "inputs": [
        {
          "internalType": "bytes32",
          "name": "role",
          "type": "bytes32"
        },
        {
          "internalType": "uint256",
          "name": "index",
          "type": "uint256"
        }
      ],
      "name": "getRoleMember",
      "outputs": [
        {
          "internalType": "address",
          "name": "",
          "type": "address"
        }
      ],
      "stateMutability": "view",
      "type": "function"
    },
    {
      "inputs": [
        {
          "internalType": "bytes32",
          "name": "role",
          "type": "bytes32"
        }
      ],
      "name": "getRoleMemberCount",
      "outputs": [
        {
          "internalType": "uint256",
          "name": "",
          "type": "uint256"
        }
      ],
      "stateMutability": "view",
      "type": "function"
    },
    {
      "inputs": [
        {
          "internalType": "bytes32",
          "name": "role",
          "type": "bytes32"
        },
        {
          "internalType": "address",
          "name": "account",
          "type": "address"
        }
      ],
      "name": "grantRole",
      "outputs": [],
      "stateMutability": "nonpayable",
      "type": "function"
    },
    {
      "inputs": [
        {
          "internalType": "bytes32",
          "name": "role",
          "type": "bytes32"
        },
        {
          "internalType": "address",
          "name": "account",
          "type": "address"
        }
      ],
      "name": "hasRole",
      "outputs": [
        {
          "internalType": "bool",
          "name": "",
          "type": "bool"
        }
      ],
      "stateMutability": "view",
      "type": "function"
    },
    {
      "inputs": [
        {
          "internalType": "bytes32",
          "name": "role",
          "type": "bytes32"
        },
        {
          "internalType": "address",
          "name": "account",
          "type": "address"
        }
      ],
      "name": "renounceRole",
      "outputs": [],
      "stateMutability": "nonpayable",
      "type": "function"
    },
    {
      "inputs": [
        {
          "internalType": "bytes32",
          "name": "role",
          "type": "bytes32"
        },
        {
          "internalType": "address",
          "name": "account",
          "type": "address"
        }
      ],
      "name": "revokeRole",
      "outputs": [],
      "stateMutability": "nonpayable",
      "type": "function"
    },
    {
      "inputs": [
        {
          "internalType": "address",
          "name": "facetSource",
          "type": "address"
        }
      ],
      "name": "setFacetSource",
      "outputs": [],
      "stateMutability": "nonpayable",
      "type": "function"
    }
  ],
  "transactionHash": "0x67790a8881102590b178e8bcadfe30086c56162f8c6f7dfb212a3938dca4d00d",
  "args": [],
  "numDeployments": 1,
  "solcInputHash": "ba288d747cc1aa4c71ee545a11fd6010",
  "bytecode": "0x6080604052348015600f57600080fd5b50610db28061001f6000396000f3fe608060405234801561001057600080fd5b50600436106100f55760003560e01c806391d1485411610097578063ba7c628211610066578063ba7c62821461029a578063ca15c873146102e5578063d547741f146102f8578063eddae7881461030b57600080fd5b806391d14854146101b9578063956f9038146101dc578063aa55ecbc14610224578063b57f06cb1461024b57600080fd5b806336568abe116100d357806336568abe1461015557806366780031146101685780637fbbc0a4146101935780639010d07c146101a657600080fd5b8063248a9ca3146100fa5780632c6a94ec146101205780632f2ff15d14610140575b600080fd5b61010d610108366004610aaf565b61033b565b6040519081526020015b60405180910390f35b61013361012e366004610ae4565b61035d565b6040516101179190610aff565b61015361014e366004610b4c565b6103f2565b005b610153610163366004610b4c565b610414565b61017b610176366004610b78565b610497565b6040516001600160a01b039091168152602001610117565b61017b6101a1366004610aaf565b6104fe565b61017b6101b4366004610ba2565b61054e565b6101cc6101c7366004610b4c565b61057a565b6040519015158152602001610117565b61010d6101ea366004610ae4565b6001600160a01b031660009081527f3178d75a97455c722bbe6e3619364b9b8f446a5900d6fbcc8d92ea722276883b602052604090205490565b7f3178d75a97455c722bbe6e3619364b9b8f446a5900d6fbcc8d92ea722276883a5461010d565b610153610259366004610ae4565b7f3178d75a97455c722bbe6e3619364b9b8f446a5900d6fbcc8d92ea722276884280546001600160a01b0319166001600160a01b0392909216919091179055565b61017b6102a8366004610ae4565b6001600160a01b0390811660009081527f3178d75a97455c722bbe6e3619364b9b8f446a5900d6fbcc8d92ea722276883c60205260409020541690565b61010d6102f3366004610aaf565b6105b2565b610153610306366004610b4c565b6105d6565b7f3178d75a97455c722bbe6e3619364b9b8f446a5900d6fbcc8d92ea7222768842546001600160a01b031661017b565b6000908152600080516020610d3d833981519152602052604090206001015490565b6001600160a01b03811660009081527f3178d75a97455c722bbe6e3619364b9b8f446a5900d6fbcc8d92ea722276883b60209081526040918290208054835181840281018401909452808452606093928301828280156103e657602002820191906000526020600020905b81546001600160a01b031681526001909101906020018083116103c8575b50505050509050919050565b6103fb8261033b565b61040581336105f3565b61040f8383610657565b505050565b6001600160a01b03811633146104895760405162461bcd60e51b815260206004820152602f60248201527f416363657373436f6e74726f6c3a2063616e206f6e6c792072656e6f756e636560448201526e103937b632b9903337b91039b2b63360891b60648201526084015b60405180910390fd5b61049382826106ee565b5050565b6001600160a01b03821660009081527f3178d75a97455c722bbe6e3619364b9b8f446a5900d6fbcc8d92ea722276883b602052604081208054839081106104e0576104e0610bc4565b6000918252602090912001546001600160a01b031690505b92915050565b60007f3178d75a97455c722bbe6e3619364b9b8f446a5900d6fbcc8d92ea722276883a80548390811061053357610533610bc4565b6000918252602090912001546001600160a01b031692915050565b6000828152600080516020610d5d833981519152602052604081206105739083610783565b9392505050565b6000918252600080516020610d3d833981519152602090815260408084206001600160a01b0393909316845291905290205460ff1690565b6000818152600080516020610d5d833981519152602052604081206104f89061078f565b6105df8261033b565b6105e981336105f3565b61040f83836106ee565b6105fd828261057a565b61049357610615816001600160a01b03166014610799565b610620836020610799565b604051602001610631929190610bfe565b60408051601f198184030181529082905262461bcd60e51b825261048091600401610c73565b610661828261057a565b610493576000828152600080516020610d3d833981519152602090815260408083206001600160a01b0385168085529252808320805460ff1916600117905551339285917f2f8788117e7eff1d82e926ec794901d17c78024a50270940304540a733656f0d9190a46000828152600080516020610d5d8339815191526020526040902061040f9082610919565b6106f8828261057a565b15610493576000828152600080516020610d3d833981519152602090815260408083206001600160a01b0385168085529252808320805460ff1916905551339285917ff6391f5c32d9c69d2a47ea670b442974b53935d1edc7fd64eb21e047a839171b9190a46000828152600080516020610d5d8339815191526020526040902061040f908261092e565b60006105738383610943565b60006104f8825490565b60608260006107a9846002610cbc565b6107b4906002610cd3565b67ffffffffffffffff8111156107cc576107cc610ce6565b6040519080825280601f01601f1916602001820160405280156107f6576020820181803683370190505b509050600360fc1b8160008151811061081157610811610bc4565b60200101906001600160f81b031916908160001a905350600f60fb1b8160018151811061084057610840610bc4565b60200101906001600160f81b031916908160001a9053506000610864856002610cbc565b61086f906001610cd3565b90505b60018111156108e7576f181899199a1a9b1b9c1cb0b131b232b360811b83600f16601081106108a3576108a3610bc4565b1a60f81b8282815181106108b9576108b9610bc4565b60200101906001600160f81b031916908160001a90535060049290921c916108e081610cfc565b9050610872565b5081156109115760405163e22e27eb60e01b81526004810186905260248101859052604401610480565b949350505050565b6000610573836001600160a01b03841661096d565b6000610573836001600160a01b0384166109bc565b600082600001828154811061095a5761095a610bc4565b9060005260206000200154905092915050565b60008181526001830160205260408120546109b4575081546001818101845560008481526020808220909301849055845484825282860190935260409020919091556104f8565b5060006104f8565b60008181526001830160205260408120548015610aa55760006109e0600183610d13565b85549091506000906109f490600190610d13565b9050808214610a59576000866000018281548110610a1457610a14610bc4565b9060005260206000200154905080876000018481548110610a3757610a37610bc4565b6000918252602080832090910192909255918252600188019052604090208390555b8554869080610a6a57610a6a610d26565b6001900381819060005260206000200160009055905585600101600086815260200190815260200160002060009055600193505050506104f8565b60009150506104f8565b600060208284031215610ac157600080fd5b5035919050565b80356001600160a01b0381168114610adf57600080fd5b919050565b600060208284031215610af657600080fd5b61057382610ac8565b6020808252825182820181905260009190848201906040850190845b81811015610b405783516001600160a01b031683529284019291840191600101610b1b565b50909695505050505050565b60008060408385031215610b5f57600080fd5b82359150610b6f60208401610ac8565b90509250929050565b60008060408385031215610b8b57600080fd5b610b9483610ac8565b946020939093013593505050565b60008060408385031215610bb557600080fd5b50508035926020909101359150565b634e487b7160e01b600052603260045260246000fd5b60005b83811015610bf5578181015183820152602001610bdd565b50506000910152565b7f416363657373436f6e74726f6c3a206163636f756e7420000000000000000000815260008351610c36816017850160208801610bda565b7001034b99036b4b9b9b4b733903937b6329607d1b6017918401918201528351610c67816028840160208801610bda565b01602801949350505050565b6020815260008251806020840152610c92816040850160208701610bda565b601f01601f19169190910160400192915050565b634e487b7160e01b600052601160045260246000fd5b80820281158282048414176104f8576104f8610ca6565b808201808211156104f8576104f8610ca6565b634e487b7160e01b600052604160045260246000fd5b600081610d0b57610d0b610ca6565b506000190190565b818103818111156104f8576104f8610ca6565b634e487b7160e01b600052603160045260246000fdfe4f4f658137f4e10317e1a22624c2b114af7563a20fb2e3444ae2ac2342d457d04f4f658137f4e10317e1a22624c2b114af7563a20fb2e3444ae2ac2342d457d1a2646970667358221220578a5c557f9f20f185e407e3b1e88d00c5a99ae2e0b49b844a17fb1dd8b18ae864736f6c63430008190033",
  "devdoc": {
    "errors": {
      "StringsInsufficientHexLength(uint256,uint256)": [
        {
          "details": "The `value` string doesn't fit in the specified `length`."
        }
      ]
    },
    "kind": "dev",
    "methods": {
      "contractToCreator(address)": {
        "params": {
          "deployedContract": "Contains the facet addresses and function selectors"
        },
        "returns": {
          "creator": "\tAddress of the contracts creator"
        }
      },
      "creatorToContractIndex(address,uint256)": {
        "params": {
          "deployer": "Contains the facet addresses and function selectors",
          "index": "Contains the facet addresses and function selectors"
        },
        "returns": {
          "deployedContract": "\tAddress of the deployed ERC721"
        }
      },
      "creatorToContractList(address)": {
        "params": {
          "deployer": "Contains the facet addresses and function selectors"
        },
        "returns": {
          "deployedContracts": "\tAddresses of the deployed contracts  "
        }
      },
      "getContractCountOf(address)": {
        "details": "Use alongside creatorToContracts for the full list of tokens ",
        "params": {
          "deployer": "Wallet address to query"
        },
        "returns": {
          "count": "\tNumber of contracts deployed by the deployer"
        }
      },
      "getCreatorAtIndex(uint256)": {
        "params": {
          "index": "number of the index for look inside our array"
        },
        "returns": {
          "creator": "\tAddress of the selected index"
        }
      },
      "getCreatorsCount()": {
        "returns": {
          "count": "with the total of creators of this contract"
        }
      },
      "setFacetSource(address)": {
        "params": {
          "facetSource": "Contains the facet addresses and function selectors"
        }
      }
    },
    "title": "Our Facet creators contract",
    "version": 1
  },
  "userdoc": {
    "kind": "user",
    "methods": {
      "contractToCreator(address)": {
        "notice": "Returns the address of the creator given a deployed contract's address"
      },
      "creatorToContractIndex(address,uint256)": {
        "notice": "Necessary view function now that public mappings are not possible"
      },
      "creatorToContractList(address)": {
        "notice": "Returns the whole array of deployed addresses of a creator"
      },
      "getContractCountOf(address)": {
        "notice": "Returns the number of contracts deployed by an address"
      },
      "getCreatorAtIndex(uint256)": {
        "notice": "Returns a single address inside the creators array"
      },
      "getCreatorsCount()": {
        "notice": "Returns the number of addresses that have deployed a contract"
      },
      "setFacetSource(address)": {
        "notice": "Returns the address of the creator given a deployed contract's address"
      }
    },
    "notice": "You can use this contract to view the creator of contracts and the list of contractsdeployed",
    "version": 1
  },
  "storageLayout": {
    "storage": [],
    "types": null
  }
}