{
  "address": "0x152a459Db1b6AFAD47200510b94a163db35D6B82",
  "abi": [
    {
      "inputs": [
        {
          "internalType": "address",
          "name": "_diamondCut",
          "type": "address"
        }
      ],
      "stateMutability": "nonpayable",
      "type": "constructor"
    },
    {
      "inputs": [
        {
          "internalType": "address",
          "name": "_initializationContractAddress",
          "type": "address"
        },
        {
          "internalType": "bytes",
          "name": "_calldata",
          "type": "bytes"
        }
      ],
      "name": "InitializationFunctionReverted",
      "type": "error"
    },
    {
      "inputs": [
        {
          "internalType": "uint256",
          "name": "value",
          "type": "uint256"
        },
        {
          "internalType": "uint256",
          "name": "length",
          "type": "uint256"
        }
      ],
      "name": "StringsInsufficientHexLength",
      "type": "error"
    },
    {
      "anonymous": false,
      "inputs": [
        {
          "components": [
            {
              "internalType": "address",
              "name": "facetAddress",
              "type": "address"
            },
            {
              "internalType": "enum IDiamondCut.FacetCutAction",
              "name": "action",
              "type": "uint8"
            },
            {
              "internalType": "bytes4[]",
              "name": "functionSelectors",
              "type": "bytes4[]"
            }
          ],
          "indexed": false,
          "internalType": "struct IDiamondCut.FacetCut[]",
          "name": "_diamondCut",
          "type": "tuple[]"
        },
        {
          "indexed": false,
          "internalType": "address",
          "name": "_init",
          "type": "address"
        },
        {
          "indexed": false,
          "internalType": "bytes",
          "name": "_calldata",
          "type": "bytes"
        }
      ],
      "name": "DiamondCut",
      "type": "event"
    },
    {
      "anonymous": false,
      "inputs": [
        {
          "indexed": true,
          "internalType": "address",
          "name": "previousOwner",
          "type": "address"
        },
        {
          "indexed": true,
          "internalType": "address",
          "name": "newOwner",
          "type": "address"
        }
      ],
      "name": "OwnershipTransferred",
      "type": "event"
    },
    {
      "anonymous": false,
      "inputs": [
        {
          "indexed": true,
          "internalType": "bytes32",
          "name": "role",
          "type": "bytes32"
        },
        {
          "indexed": true,
          "internalType": "bytes32",
          "name": "previousAdminRole",
          "type": "bytes32"
        },
        {
          "indexed": true,
          "internalType": "bytes32",
          "name": "newAdminRole",
          "type": "bytes32"
        }
      ],
      "name": "RoleAdminChanged",
      "type": "event"
    },
    {
      "anonymous": false,
      "inputs": [
        {
          "indexed": true,
          "internalType": "bytes32",
          "name": "role",
          "type": "bytes32"
        },
        {
          "indexed": true,
          "internalType": "address",
          "name": "account",
          "type": "address"
        },
        {
          "indexed": true,
          "internalType": "address",
          "name": "sender",
          "type": "address"
        }
      ],
      "name": "RoleGranted",
      "type": "event"
    },
    {
      "anonymous": false,
      "inputs": [
        {
          "indexed": true,
          "internalType": "bytes32",
          "name": "role",
          "type": "bytes32"
        },
        {
          "indexed": true,
          "internalType": "address",
          "name": "account",
          "type": "address"
        },
        {
          "indexed": true,
          "internalType": "address",
          "name": "sender",
          "type": "address"
        }
      ],
      "name": "RoleRevoked",
      "type": "event"
    },
    {
      "stateMutability": "payable",
      "type": "fallback"
    },
    {
      "inputs": [
        {
          "internalType": "bytes32",
          "name": "role",
          "type": "bytes32"
        }
      ],
      "name": "getRoleAdmin",
      "outputs": [
        {
          "internalType": "bytes32",
          "name": "",
          "type": "bytes32"
        }
      ],
      "stateMutability": "view",
      "type": "function"
    },
    {
      "inputs": [
        {
          "internalType": "bytes32",
          "name": "role",
          "type": "bytes32"
        },
        {
          "internalType": "uint256",
          "name": "index",
          "type": "uint256"
        }
      ],
      "name": "getRoleMember",
      "outputs": [
        {
          "internalType": "address",
          "name": "",
          "type": "address"
        }
      ],
      "stateMutability": "view",
      "type": "function"
    },
    {
      "inputs": [
        {
          "internalType": "bytes32",
          "name": "role",
          "type": "bytes32"
        }
      ],
      "name": "getRoleMemberCount",
      "outputs": [
        {
          "internalType": "uint256",
          "name": "",
          "type": "uint256"
        }
      ],
      "stateMutability": "view",
      "type": "function"
    },
    {
      "inputs": [
        {
          "internalType": "bytes32",
          "name": "role",
          "type": "bytes32"
        },
        {
          "internalType": "address",
          "name": "account",
          "type": "address"
        }
      ],
      "name": "grantRole",
      "outputs": [],
      "stateMutability": "nonpayable",
      "type": "function"
    },
    {
      "inputs": [
        {
          "internalType": "bytes32",
          "name": "role",
          "type": "bytes32"
        },
        {
          "internalType": "address",
          "name": "account",
          "type": "address"
        }
      ],
      "name": "hasRole",
      "outputs": [
        {
          "internalType": "bool",
          "name": "",
          "type": "bool"
        }
      ],
      "stateMutability": "view",
      "type": "function"
    },
    {
      "inputs": [
        {
          "internalType": "bytes32",
          "name": "role",
          "type": "bytes32"
        },
        {
          "internalType": "address",
          "name": "account",
          "type": "address"
        }
      ],
      "name": "renounceRole",
      "outputs": [],
      "stateMutability": "nonpayable",
      "type": "function"
    },
    {
      "inputs": [
        {
          "internalType": "bytes32",
          "name": "role",
          "type": "bytes32"
        },
        {
          "internalType": "address",
          "name": "account",
          "type": "address"
        }
      ],
      "name": "revokeRole",
      "outputs": [],
      "stateMutability": "nonpayable",
      "type": "function"
    },
    {
      "stateMutability": "payable",
      "type": "receive"
    }
  ],
  "transactionHash": "0xd74a009176c6070451e54e782e47894b034f55ae3e4ca7664eea3eb8b1b56b82",
  "args": [
    "0x8dd9bac877ddee493f46fd0df7f4d12054a63607"
  ],
  "numDeployments": 1,
  "solcInputHash": "ba288d747cc1aa4c71ee545a11fd6010",
  "bytecode": "0x608060405234801561001057600080fd5b506040516119e43803806119e483398101604081905261002f91610bc8565b338161003a82610146565b604080516001808252818301909252600091816020015b604080516060808201835260008083526020830152918101919091528152602001906001900390816100515750506040805160018082528183019092529192506000919060208083019080368337019050509050631f931c1c60e01b816000815181106100c0576100c0610bf8565b6001600160e01b031990921660209283029190910182015260408051606081019091526001600160a01b038516815290810160008152602001828152508260008151811061011057610110610bf8565b602002602001018190525061013c826000604051806020016040528060008152506101c960201b60201c565b5050505050610e48565b7fc8fcad8db84d3cc18b4c41d551ea0ee66dd599cde068d998e57d5e09332c132080546001600160a01b031981166001600160a01b03848116918217909355604051600080516020611950833981519152939092169182907f8be0079c531659141344cd1fd0a4f28419497f9722a3daafe3b4186f6b6457e090600090a3505050565b7fc8fcad8db84d3cc18b4c41d551ea0ee66dd599cde068d998e57d5e09332c131e546000805160206119508339815191529061ffff8116908190600090600716156102265750600381901c60009081526001840160205260409020545b60005b87518110156102a95761029c83838a848151811061024957610249610bf8565b6020026020010151600001518b858151811061026757610267610bf8565b6020026020010151602001518c868151811061028557610285610bf8565b60200260200101516040015161033560201b60201c565b9093509150600101610229565b508282146102c55760028401805461ffff191661ffff84161790555b60078216156102e757600382901c600090815260018501602052604090208190555b7f8faa70878671ccd212d20771b795c50af8fd3ff6cf27f4bde57e5d4de0aeb67387878760405161031a93929190610c74565b60405180910390a161032c8686610adb565b50505050505050565b60008080600080516020611950833981519152905060008451116103b45760405162461bcd60e51b815260206004820152602b60248201527f4c69624469616d6f6e644375743a204e6f2073656c6563746f727320696e206660448201526a1858d95d081d1bc818dd5d60aa1b60648201526084015b60405180910390fd5b60008560028111156103c8576103c8610c0e565b03610536576103ef8660405180606001604052806024815260200161197060249139610ba7565b60005b845181101561053057600085828151811061040f5761040f610bf8565b6020908102919091018101516001600160e01b03198116600090815291859052604090912054909150606081901c156104b05760405162461bcd60e51b815260206004820152603560248201527f4c69624469616d6f6e644375743a2043616e2774206164642066756e6374696f60448201527f6e207468617420616c726561647920657869737473000000000000000000000060648201526084016103ab565b6001600160e01b031980831660008181526020879052604090206001600160601b031960608d901b168e17905560e060058e901b811692831c199c909c1690821c179a8190036105145760038c901c600090815260018601602052604081209b909b555b8b61051e81610d8d565b9c5050600190930192506103f2915050565b50610acf565b600185600281111561054a5761054a610c0e565b0361074657610571866040518060600160405280602881526020016119bc60289139610ba7565b60005b845181101561053057600085828151811061059157610591610bf8565b6020908102919091018101516001600160e01b03198116600090815291859052604090912054909150606081901c3081036106265760405162461bcd60e51b815260206004820152602f60248201527f4c69624469616d6f6e644375743a2043616e2774207265706c61636520696d6d60448201526e3aba30b1363290333ab731ba34b7b760891b60648201526084016103ab565b896001600160a01b0316816001600160a01b03160361069b5760405162461bcd60e51b8152602060048201526038602482015260008051602061193083398151915260448201527f6374696f6e20776974682073616d652066756e6374696f6e000000000000000060648201526084016103ab565b6001600160a01b0381166107055760405162461bcd60e51b8152602060048201526038602482015260008051602061193083398151915260448201527f6374696f6e207468617420646f65736e2774206578697374000000000000000060648201526084016103ab565b506001600160e01b031990911660009081526020849052604090206001600160601b03919091166001600160601b031960608a901b16179055600101610574565b600285600281111561075a5761075a610c0e565b03610a77576001600160a01b038616156107dc5760405162461bcd60e51b815260206004820152603660248201527f4c69624469616d6f6e644375743a2052656d6f7665206661636574206164647260448201527f657373206d75737420626520616464726573732830290000000000000000000060648201526084016103ab565b600388901c6007891660005b8651811015610a575760008a9003610824578261080481610da6565b60008181526001870160205260409020549b509350600792506108329050565b8161082e81610da6565b9250505b6000806000808a858151811061084a5761084a610bf8565b6020908102919091018101516001600160e01b031981166000908152918a9052604090912054909150606081901c6108ea5760405162461bcd60e51b815260206004820152603760248201527f4c69624469616d6f6e644375743a2043616e27742072656d6f76652066756e6360448201527f74696f6e207468617420646f65736e277420657869737400000000000000000060648201526084016103ab565b30606082901c036109545760405162461bcd60e51b815260206004820152602e60248201527f4c69624469616d6f6e644375743a2043616e27742072656d6f766520696d6d7560448201526d3a30b1363290333ab731ba34b7b760911b60648201526084016103ab565b600587901b8f901b94506001600160e01b0319808616908316146109a5576001600160e01b03198516600090815260208a90526040902080546001600160601b0319166001600160601b0383161790555b6001600160e01b031991909116600090815260208990526040812055600381901c611fff16925060051b60e0169050858214610a0a576000828152600188016020526040902080546001600160e01b031980841c19909116908516831c179055610a2e565b80836001600160e01b031916901c816001600160e01b031960001b901c198e16179c505b84600003610a4c57600086815260018801602052604081208190559c505b5050506001016107e8565b5080610a64836008610dbd565b610a6e9190610dda565b99505050610acf565b60405162461bcd60e51b815260206004820152602760248201527f4c69624469616d6f6e644375743a20496e636f727265637420466163657443756044820152663a20b1ba34b7b760c91b60648201526084016103ab565b50959694955050505050565b6001600160a01b038216610aed575050565b610b0f8260405180606001604052806028815260200161199460289139610ba7565b600080836001600160a01b031683604051610b2a9190610ded565b600060405180830381855af49150503d8060008114610b65576040519150601f19603f3d011682016040523d82523d6000602084013e610b6a565b606091505b509150915081610ba157805115610b845780518082602001fd5b838360405163192105d760e01b81526004016103ab929190610e09565b50505050565b813b8181610ba15760405162461bcd60e51b81526004016103ab9190610e35565b600060208284031215610bda57600080fd5b81516001600160a01b0381168114610bf157600080fd5b9392505050565b634e487b7160e01b600052603260045260246000fd5b634e487b7160e01b600052602160045260246000fd5b60005b83811015610c3f578181015183820152602001610c27565b50506000910152565b60008151808452610c60816020860160208601610c24565b601f01601f19169290920160200192915050565b60006060808301606084528087518083526080925060808601915060808160051b8701016020808b0160005b84811015610d4757898403607f19018652815180516001600160a01b03168552838101518986019060038110610ce657634e487b7160e01b600052602160045260246000fd5b868601526040918201519186018a905281519081905290840190600090898701905b80831015610d325783516001600160e01b0319168252928601926001929092019190860190610d08565b50978501979550505090820190600101610ca0565b50506001600160a01b038a16908801528681036040880152610d698189610c48565b9a9950505050505050505050565b634e487b7160e01b600052601160045260246000fd5b600060018201610d9f57610d9f610d77565b5060010190565b600081610db557610db5610d77565b506000190190565b8082028115828204841417610dd457610dd4610d77565b92915050565b80820180821115610dd457610dd4610d77565b60008251610dff818460208701610c24565b9190910192915050565b6001600160a01b0383168152604060208201819052600090610e2d90830184610c48565b949350505050565b602081526000610bf16020830184610c48565b610ad980610e576000396000f3fe6080604052600436106100745760003560e01c80639010d07c1161004e5780639010d07c146101a757806391d14854146101df578063ca15c8731461020f578063d547741f1461022f5761007b565b8063248a9ca3146101345780632f2ff15d1461016757806336568abe146101875761007b565b3661007b57005b600080356001600160e01b03191681527fc8fcad8db84d3cc18b4c41d551ea0ee66dd599cde068d998e57d5e09332c131c6020819052604090912054819060601c8061010e5760405162461bcd60e51b815260206004820181905260248201527f4469616d6f6e643a2046756e6374696f6e20646f6573206e6f7420657869737460448201526064015b60405180910390fd5b3660008037600080366000845af43d6000803e80801561012d573d6000f35b3d6000fd5b005b34801561014057600080fd5b5061015461014f366004610874565b61024f565b6040519081526020015b60405180910390f35b34801561017357600080fd5b5061013261018236600461088d565b610271565b34801561019357600080fd5b506101326101a236600461088d565b610293565b3480156101b357600080fd5b506101c76101c23660046108c9565b610311565b6040516001600160a01b03909116815260200161015e565b3480156101eb57600080fd5b506101ff6101fa36600461088d565b61033f565b604051901515815260200161015e565b34801561021b57600080fd5b5061015461022a366004610874565b610377565b34801561023b57600080fd5b5061013261024a36600461088d565b61039b565b6000908152600080516020610a64833981519152602052604090206001015490565b61027a8261024f565b61028481336103b8565b61028e838361041c565b505050565b6001600160a01b03811633146103035760405162461bcd60e51b815260206004820152602f60248201527f416363657373436f6e74726f6c3a2063616e206f6e6c792072656e6f756e636560448201526e103937b632b9903337b91039b2b63360891b6064820152608401610105565b61030d82826104b3565b5050565b6000828152600080516020610a84833981519152602052604081206103369083610548565b90505b92915050565b6000918252600080516020610a64833981519152602090815260408084206001600160a01b0393909316845291905290205460ff1690565b6000818152600080516020610a848339815191526020526040812061033990610554565b6103a48261024f565b6103ae81336103b8565b61028e83836104b3565b6103c2828261033f565b61030d576103da816001600160a01b0316601461055e565b6103e583602061055e565b6040516020016103f692919061090f565b60408051601f198184030181529082905262461bcd60e51b825261010591600401610984565b610426828261033f565b61030d576000828152600080516020610a64833981519152602090815260408083206001600160a01b0385168085529252808320805460ff1916600117905551339285917f2f8788117e7eff1d82e926ec794901d17c78024a50270940304540a733656f0d9190a46000828152600080516020610a848339815191526020526040902061028e90826106de565b6104bd828261033f565b1561030d576000828152600080516020610a64833981519152602090815260408083206001600160a01b0385168085529252808320805460ff1916905551339285917ff6391f5c32d9c69d2a47ea670b442974b53935d1edc7fd64eb21e047a839171b9190a46000828152600080516020610a848339815191526020526040902061028e90826106f3565b60006103368383610708565b6000610339825490565b606082600061056e8460026109cd565b6105799060026109e4565b67ffffffffffffffff811115610591576105916109f7565b6040519080825280601f01601f1916602001820160405280156105bb576020820181803683370190505b509050600360fc1b816000815181106105d6576105d6610a0d565b60200101906001600160f81b031916908160001a905350600f60fb1b8160018151811061060557610605610a0d565b60200101906001600160f81b031916908160001a90535060006106298560026109cd565b6106349060016109e4565b90505b60018111156106ac576f181899199a1a9b1b9c1cb0b131b232b360811b83600f166010811061066857610668610a0d565b1a60f81b82828151811061067e5761067e610a0d565b60200101906001600160f81b031916908160001a90535060049290921c916106a581610a23565b9050610637565b5081156106d65760405163e22e27eb60e01b81526004810186905260248101859052604401610105565b949350505050565b6000610336836001600160a01b038416610732565b6000610336836001600160a01b038416610781565b600082600001828154811061071f5761071f610a0d565b9060005260206000200154905092915050565b600081815260018301602052604081205461077957508154600181810184556000848152602080822090930184905584548482528286019093526040902091909155610339565b506000610339565b6000818152600183016020526040812054801561086a5760006107a5600183610a3a565b85549091506000906107b990600190610a3a565b905080821461081e5760008660000182815481106107d9576107d9610a0d565b90600052602060002001549050808760000184815481106107fc576107fc610a0d565b6000918252602080832090910192909255918252600188019052604090208390555b855486908061082f5761082f610a4d565b600190038181906000526020600020016000905590558560010160008681526020019081526020016000206000905560019350505050610339565b6000915050610339565b60006020828403121561088657600080fd5b5035919050565b600080604083850312156108a057600080fd5b8235915060208301356001600160a01b03811681146108be57600080fd5b809150509250929050565b600080604083850312156108dc57600080fd5b50508035926020909101359150565b60005b838110156109065781810151838201526020016108ee565b50506000910152565b7f416363657373436f6e74726f6c3a206163636f756e74200000000000000000008152600083516109478160178501602088016108eb565b7001034b99036b4b9b9b4b733903937b6329607d1b60179184019182015283516109788160288401602088016108eb565b01602801949350505050565b60208152600082518060208401526109a38160408501602087016108eb565b601f01601f19169190910160400192915050565b634e487b7160e01b600052601160045260246000fd5b8082028115828204841417610339576103396109b7565b80820180821115610339576103396109b7565b634e487b7160e01b600052604160045260246000fd5b634e487b7160e01b600052603260045260246000fd5b600081610a3257610a326109b7565b506000190190565b81810381811115610339576103396109b7565b634e487b7160e01b600052603160045260246000fdfe4f4f658137f4e10317e1a22624c2b114af7563a20fb2e3444ae2ac2342d457d04f4f658137f4e10317e1a22624c2b114af7563a20fb2e3444ae2ac2342d457d1a2646970667358221220f76b05f30af72b8c78c10d2f0c6696ee537763f8acbb8411c3445b6d075a2cdd64736f6c634300081900334c69624469616d6f6e644375743a2043616e2774207265706c6163652066756ec8fcad8db84d3cc18b4c41d551ea0ee66dd599cde068d998e57d5e09332c131c4c69624469616d6f6e644375743a2041646420666163657420686173206e6f20636f64654c69624469616d6f6e644375743a205f696e6974206164647265737320686173206e6f20636f64654c69624469616d6f6e644375743a205265706c61636520666163657420686173206e6f20636f6465",
  "devdoc": {
    "details": "To be used alongside the Factory",
    "errors": {
      "StringsInsufficientHexLength(uint256,uint256)": [
        {
          "details": "The `value` string doesn't fit in the specified `length`."
        }
      ]
    },
    "kind": "dev",
    "methods": {},
    "title": "Facet source",
    "version": 1
  },
  "userdoc": {
    "kind": "user",
    "methods": {},
    "notice": "Main hub for the ERC721 facets",
    "version": 1
  },
  "storageLayout": {
    "storage": [],
    "types": null
  }
}