{
  "address": "0x9498b23e964760364435C23c793e9352Ff4E2200",
  "abi": [
    {
      "inputs": [
        {
          "internalType": "address",
          "name": "_diamondCut",
          "type": "address"
        }
      ],
      "stateMutability": "nonpayable",
      "type": "constructor"
    },
    {
      "anonymous": false,
      "inputs": [
        {
          "indexed": true,
          "internalType": "bytes32",
          "name": "role",
          "type": "bytes32"
        },
        {
          "indexed": true,
          "internalType": "bytes32",
          "name": "previousAdminRole",
          "type": "bytes32"
        },
        {
          "indexed": true,
          "internalType": "bytes32",
          "name": "newAdminRole",
          "type": "bytes32"
        }
      ],
      "name": "RoleAdminChanged",
      "type": "event"
    },
    {
      "anonymous": false,
      "inputs": [
        {
          "indexed": true,
          "internalType": "bytes32",
          "name": "role",
          "type": "bytes32"
        },
        {
          "indexed": true,
          "internalType": "address",
          "name": "account",
          "type": "address"
        },
        {
          "indexed": true,
          "internalType": "address",
          "name": "sender",
          "type": "address"
        }
      ],
      "name": "RoleGranted",
      "type": "event"
    },
    {
      "anonymous": false,
      "inputs": [
        {
          "indexed": true,
          "internalType": "bytes32",
          "name": "role",
          "type": "bytes32"
        },
        {
          "indexed": true,
          "internalType": "address",
          "name": "account",
          "type": "address"
        },
        {
          "indexed": true,
          "internalType": "address",
          "name": "sender",
          "type": "address"
        }
      ],
      "name": "RoleRevoked",
      "type": "event"
    },
    {
      "stateMutability": "payable",
      "type": "fallback"
    },
    {
      "inputs": [],
      "name": "DEFAULT_ADMIN_ROLE",
      "outputs": [
        {
          "internalType": "bytes32",
          "name": "",
          "type": "bytes32"
        }
      ],
      "stateMutability": "view",
      "type": "function"
    },
    {
      "inputs": [],
      "name": "ERC777",
      "outputs": [
        {
          "internalType": "bytes32",
          "name": "",
          "type": "bytes32"
        }
      ],
      "stateMutability": "view",
      "type": "function"
    },
    {
      "inputs": [],
      "name": "OWNER",
      "outputs": [
        {
          "internalType": "bytes32",
          "name": "",
          "type": "bytes32"
        }
      ],
      "stateMutability": "view",
      "type": "function"
    },
    {
      "inputs": [
        {
          "internalType": "bytes32",
          "name": "role",
          "type": "bytes32"
        }
      ],
      "name": "getRoleAdmin",
      "outputs": [
        {
          "internalType": "bytes32",
          "name": "",
          "type": "bytes32"
        }
      ],
      "stateMutability": "view",
      "type": "function"
    },
    {
      "inputs": [
        {
          "internalType": "bytes32",
          "name": "role",
          "type": "bytes32"
        },
        {
          "internalType": "uint256",
          "name": "index",
          "type": "uint256"
        }
      ],
      "name": "getRoleMember",
      "outputs": [
        {
          "internalType": "address",
          "name": "",
          "type": "address"
        }
      ],
      "stateMutability": "view",
      "type": "function"
    },
    {
      "inputs": [
        {
          "internalType": "bytes32",
          "name": "role",
          "type": "bytes32"
        }
      ],
      "name": "getRoleMemberCount",
      "outputs": [
        {
          "internalType": "uint256",
          "name": "",
          "type": "uint256"
        }
      ],
      "stateMutability": "view",
      "type": "function"
    },
    {
      "inputs": [
        {
          "internalType": "bytes32",
          "name": "role",
          "type": "bytes32"
        },
        {
          "internalType": "address",
          "name": "account",
          "type": "address"
        }
      ],
      "name": "grantRole",
      "outputs": [],
      "stateMutability": "nonpayable",
      "type": "function"
    },
    {
      "inputs": [
        {
          "internalType": "bytes32",
          "name": "role",
          "type": "bytes32"
        },
        {
          "internalType": "address",
          "name": "account",
          "type": "address"
        }
      ],
      "name": "hasRole",
      "outputs": [
        {
          "internalType": "bool",
          "name": "",
          "type": "bool"
        }
      ],
      "stateMutability": "view",
      "type": "function"
    },
    {
      "inputs": [
        {
          "internalType": "bytes32",
          "name": "role",
          "type": "bytes32"
        },
        {
          "internalType": "address",
          "name": "account",
          "type": "address"
        }
      ],
      "name": "renounceRole",
      "outputs": [],
      "stateMutability": "nonpayable",
      "type": "function"
    },
    {
      "inputs": [
        {
          "internalType": "bytes32",
          "name": "role",
          "type": "bytes32"
        },
        {
          "internalType": "address",
          "name": "account",
          "type": "address"
        }
      ],
      "name": "revokeRole",
      "outputs": [],
      "stateMutability": "nonpayable",
      "type": "function"
    },
    {
      "stateMutability": "payable",
      "type": "receive"
    }
  ],
  "transactionHash": "0x221eee60ce04056a9d17d116033246f2c8f4a7bd500c17b1bc6b9ba26e1ef9d8",
  "args": [
    "0x09FC6670ab52dc4fDE66B74908DE200252a6872A"
  ],
  "numDeployments": 1,
  "solcInputHash": "e560c328e08cfc746d049e8f92e818e6",
  "bytecode": "0x60806040523480156200001157600080fd5b5060405162002ded38038062002ded833981016040819052620000349162001152565b33816200004c82620002b160201b6200041b1760201c565b604080516001808252818301909252600091816020015b60408051606080820183526000808352602083015291810191909152815260200190600190039081620000635750506040805160018082528183019092529192506000919060208083019080368337019050509050631f931c1c60e01b81600081518110620000d657620000d66200117d565b6001600160e01b031990921660209283029190910182015260408051606081019091526001600160a01b03851681529081016000815260200182815250826000815181106200012957620001296200117d565b60200260200101819052506200015c826000604051806020016040528060008152506200033560201b6200049e1760201c565b50506040516329965a1d60e01b815230600482018190527fb281fc8c12954d22544db45de3159a39272895b169a852b314f9cc762e44c53b60248301526044820152731820a4b7618bde71dce8cdc73aab6c95905fad2492506329965a1d9150606401600060405180830381600087803b158015620001da57600080fd5b505af1158015620001ef573d6000803e3d6000fd5b505060408051808201909152600f8082526e54686973206973206120746573742160881b60209092019182526200022b935060019250620010ac565b506200024760008051602062002da583398151915280620004c2565b620002827fe33cd123f09d9a4e3b34162dcaba99ee0b73fe748beb8ca15f84a66b0c14723060008051602062002da5833981519152620004c2565b6200028f6000336200050d565b620002aa60008051602062002da5833981519152336200050d565b5062001408565b7fc8fcad8db84d3cc18b4c41d551ea0ee66dd599cde068d998e57d5e09332c132080546001600160a01b031981166001600160a01b0384811691821790935560405160008051602062002d39833981519152939092169182907f8be0079c531659141344cd1fd0a4f28419497f9722a3daafe3b4186f6b6457e090600090a3505050565b7fc8fcad8db84d3cc18b4c41d551ea0ee66dd599cde068d998e57d5e09332c131e5460008051602062002d398339815191529061ffff811690819060009060071615620003945750600381901c60009081526001840160205260409020545b60005b875181101562000430576200041683838a8481518110620003bc57620003bc6200117d565b6020026020010151600001518b8581518110620003dd57620003dd6200117d565b6020026020010151602001518c8681518110620003fe57620003fe6200117d565b602002602001015160400151620005be60201b60201c565b9093509150806200042781620011bf565b91505062000397565b508282146200044d5760028401805461ffff191661ffff84161790555b60078216156200047057600382901c600090815260018501602052604090208190555b7f8faa70878671ccd212d20771b795c50af8fd3ff6cf27f4bde57e5d4de0aeb673878787604051620004a5939291906200123a565b60405180910390a1620004b9868662000dcc565b50505050505050565b600082815260208190526040808220600101805490849055905190918391839186917fbd79b86ffe0ab8e8776151514217cd7cacd52c909f66475c3af44e129f0b00ff9190a4505050565b62000519828262000fed565b620005ba576000828152602081815260408083206001600160a01b03851684529091529020805460ff19166001179055620005513390565b6001600160a01b0316816001600160a01b0316837f2f8788117e7eff1d82e926ec794901d17c78024a50270940304540a733656f0d60405160405180910390a46000828152600260209081526040909120620005b89183906200060e62001018821b17901c565b505b5050565b6000808060008051602062002d39833981519152905060008451116200063f5760405162461bcd60e51b815260206004820152602b60248201527f4c69624469616d6f6e644375743a204e6f2073656c6563746f727320696e206660448201526a1858d95d081d1bc818dd5d60aa1b60648201526084015b60405180910390fd5b600085600281111562000656576200065662001193565b1415620007dd57620006828660405180606001604052806024815260200162002d596024913962001036565b60005b8451811015620007d6576000858281518110620006a657620006a66200117d565b6020908102919091018101516001600160e01b03198116600090815291859052604090912054909150606081901c15620007495760405162461bcd60e51b815260206004820152603560248201527f4c69624469616d6f6e644375743a2043616e2774206164642066756e6374696f60448201527f6e207468617420616c7265616479206578697374730000000000000000000000606482015260840162000636565b6001600160e01b031980831660008181526020879052604090206001600160601b031960608d901b168e17905560e060058e901b811692831c199c909c1690821c179a811415620007ae5760038c901c600090815260018601602052604081209b909b555b8b620007ba81620011bf565b9c50505050508080620007cd90620011bf565b91505062000685565b5062000dc0565b6001856002811115620007f457620007f462001193565b141562000a1057620008208660405180606001604052806028815260200162002dc56028913962001036565b60005b8451811015620007d65760008582815181106200084457620008446200117d565b6020908102919091018101516001600160e01b03198116600090815291859052604090912054909150606081901c30811415620008dc5760405162461bcd60e51b815260206004820152602f60248201527f4c69624469616d6f6e644375743a2043616e2774207265706c61636520696d6d60448201526e3aba30b1363290333ab731ba34b7b760891b606482015260840162000636565b896001600160a01b0316816001600160a01b03161415620009555760405162461bcd60e51b8152602060048201526038602482015260008051602062002d1983398151915260448201527f6374696f6e20776974682073616d652066756e6374696f6e0000000000000000606482015260840162000636565b6001600160a01b038116620009c25760405162461bcd60e51b8152602060048201526038602482015260008051602062002d1983398151915260448201527f6374696f6e207468617420646f65736e27742065786973740000000000000000606482015260840162000636565b506001600160e01b031990911660009081526020849052604090206001600160601b03919091166001600160601b031960608a901b161790558062000a0781620011bf565b91505062000823565b600285600281111562000a275762000a2762001193565b141562000d67576001600160a01b0386161562000aad5760405162461bcd60e51b815260206004820152603660248201527f4c69624469616d6f6e644375743a2052656d6f7665206661636574206164647260448201527f657373206d757374206265206164647265737328302900000000000000000000606482015260840162000636565b600388901c6007891660005b865181101562000d42578962000af6578262000ad58162001341565b60008181526001870160205260409020549b5093506007925062000b069050565b8162000b028162001341565b9250505b6000806000808a858151811062000b215762000b216200117d565b6020908102919091018101516001600160e01b031981166000908152918a9052604090912054909150606081901c62000bc35760405162461bcd60e51b815260206004820152603760248201527f4c69624469616d6f6e644375743a2043616e27742072656d6f76652066756e6360448201527f74696f6e207468617420646f65736e2774206578697374000000000000000000606482015260840162000636565b606081901c30141562000c305760405162461bcd60e51b815260206004820152602e60248201527f4c69624469616d6f6e644375743a2043616e27742072656d6f766520696d6d7560448201526d3a30b1363290333ab731ba34b7b760911b606482015260840162000636565b600587901b8f901b94506001600160e01b03198086169083161462000c82576001600160e01b03198516600090815260208a90526040902080546001600160601b0319166001600160601b0383161790555b6001600160e01b031991909116600090815260208990526040812055600381901c611fff16925060051b60e016905085821462000ce9576000828152600188016020526040902080546001600160e01b031980841c19909116908516831c17905562000d0d565b80836001600160e01b031916901c816001600160e01b031960001b901c198e16179c505b8462000d2957600086815260018801602052604081208190559c505b505050808062000d3990620011bf565b91505062000ab9565b508062000d518360086200135b565b62000d5d91906200137d565b9950505062000dc0565b60405162461bcd60e51b815260206004820152602760248201527f4c69624469616d6f6e644375743a20496e636f727265637420466163657443756044820152663a20b1ba34b7b760c91b606482015260840162000636565b50959694955050505050565b6001600160a01b03821662000e5257805115620005ba5760405162461bcd60e51b815260206004820152603c60248201527f4c69624469616d6f6e644375743a205f696e697420697320616464726573732860448201527f3029206275745f63616c6c64617461206973206e6f7420656d70747900000000606482015260840162000636565b600081511162000ecb5760405162461bcd60e51b815260206004820152603d60248201527f4c69624469616d6f6e644375743a205f63616c6c6461746120697320656d707460448201527f7920627574205f696e6974206973206e6f742061646472657373283029000000606482015260840162000636565b6001600160a01b038216301462000f015762000f018260405180606001604052806028815260200162002d7d6028913962001036565b600080836001600160a01b03168360405162000f1e919062001398565b600060405180830381855af49150503d806000811462000f5b576040519150601f19603f3d011682016040523d82523d6000602084013e62000f60565b606091505b50915091508162000fe75780511562000f8f578060405162461bcd60e51b8152600401620006369190620013b6565b60405162461bcd60e51b815260206004820152602660248201527f4c69624469616d6f6e644375743a205f696e69742066756e6374696f6e2072656044820152651d995c9d195960d21b606482015260840162000636565b50505050565b6000828152602081815260408083206001600160a01b038516845290915290205460ff165b92915050565b60006200102f836001600160a01b0384166200105a565b9392505050565b813b818162000fe75760405162461bcd60e51b8152600401620006369190620013b6565b6000818152600183016020526040812054620010a35750815460018181018455600084815260208082209093018490558454848252828601909352604090209190915562001012565b50600062001012565b828054620010ba90620013cb565b90600052602060002090601f016020900481019282620010de576000855562001129565b82601f10620010f957805160ff191683800117855562001129565b8280016001018555821562001129579182015b82811115620011295782518255916020019190600101906200110c565b50620011379291506200113b565b5090565b5b808211156200113757600081556001016200113c565b6000602082840312156200116557600080fd5b81516001600160a01b03811681146200102f57600080fd5b634e487b7160e01b600052603260045260246000fd5b634e487b7160e01b600052602160045260246000fd5b634e487b7160e01b600052601160045260246000fd5b6000600019821415620011d657620011d6620011a9565b5060010190565b60005b83811015620011fa578181015183820152602001620011e0565b8381111562000fe75750506000910152565b6000815180845262001226816020860160208601620011dd565b601f01601f19169290920160200192915050565b60006060808301818452808751808352608092508286019150828160051b8701016020808b0160005b848110156200130f57898403607f19018652815180516001600160a01b03168552838101518986019060038110620012ab57634e487b7160e01b600052602160045260246000fd5b868601526040918201519186018a905281519081905290840190600090898701905b80831015620012f95783516001600160e01b0319168252928601926001929092019190860190620012cd565b5097850197955050509082019060010162001263565b50506001600160a01b038a169088015286810360408801526200133381896200120c565b9a9950505050505050505050565b600081620013535762001353620011a9565b506000190190565b6000816000190483118215151615620013785762001378620011a9565b500290565b60008219821115620013935762001393620011a9565b500190565b60008251620013ac818460208701620011dd565b9190910192915050565b6020815260006200102f60208301846200120c565b600181811c90821680620013e057607f821691505b602082108114156200140257634e487b7160e01b600052602260045260246000fd5b50919050565b61190180620014186000396000f3fe6080604052600436106100955760003560e01c80639010d07c116100595780639010d07c1461022e57806391d1485414610266578063a217fddf14610296578063ca15c873146102ab578063d547741f146102cb5761009c565b8063117803e314610141578063248a9ca3146101885780632f2ff15d146101b857806336568abe146101da578063543a16b1146101fa5761009c565b3661009c57005b600080356001600160e01b03191681526000805160206118388339815191526020819052604090912054819060601c8061011d5760405162461bcd60e51b815260206004820181905260248201527f4469616d6f6e643a2046756e6374696f6e20646f6573206e6f7420657869737460448201526064015b60405180910390fd5b3660008037600080366000845af43d6000803e80801561013c573d6000f35b3d6000fd5b34801561014d57600080fd5b506101757f6270edb7c868f86fda4adedba75108201087268ea345934db8bad688e1feb91b81565b6040519081526020015b60405180910390f35b34801561019457600080fd5b506101756101a33660046114d6565b60009081526020819052604090206001015490565b3480156101c457600080fd5b506101d86101d33660046114ef565b6102eb565b005b3480156101e657600080fd5b506101d86101f53660046114ef565b610316565b34801561020657600080fd5b506101757fe33cd123f09d9a4e3b34162dcaba99ee0b73fe748beb8ca15f84a66b0c14723081565b34801561023a57600080fd5b5061024e61024936600461152b565b610394565b6040516001600160a01b03909116815260200161017f565b34801561027257600080fd5b506102866102813660046114ef565b6103b5565b604051901515815260200161017f565b3480156102a257600080fd5b50610175600081565b3480156102b757600080fd5b506101756102c63660046114d6565b6103de565b3480156102d757600080fd5b506101d86102e63660046114ef565b6103f5565b6000828152602081905260409020600101546103078133610623565b6103118383610687565b505050565b6001600160a01b03811633146103865760405162461bcd60e51b815260206004820152602f60248201527f416363657373436f6e74726f6c3a2063616e206f6e6c792072656e6f756e636560448201526e103937b632b9903337b91039b2b63360891b6064820152608401610114565b610390828261071f565b5050565b60008281526002602052604081206103ac9083610798565b90505b92915050565b6000918252602082815260408084206001600160a01b0393909316845291905290205460ff1690565b60008181526002602052604081206103af906107a4565b6000828152602081905260409020600101546104118133610623565b610311838361071f565b7fc8fcad8db84d3cc18b4c41d551ea0ee66dd599cde068d998e57d5e09332c132080546001600160a01b031981166001600160a01b03848116918217909355604051600080516020611838833981519152939092169182907f8be0079c531659141344cd1fd0a4f28419497f9722a3daafe3b4186f6b6457e090600090a3505050565b7fc8fcad8db84d3cc18b4c41d551ea0ee66dd599cde068d998e57d5e09332c131e546000805160206118388339815191529061ffff8116908190600090600716156104fb5750600381901c60009081526001840160205260409020545b60005b87518110156105825761056b83838a848151811061051e5761051e61154d565b6020026020010151600001518b858151811061053c5761053c61154d565b6020026020010151602001518c868151811061055a5761055a61154d565b6020026020010151604001516107ae565b90935091508061057a81611579565b9150506104fe565b5082821461059e5760028401805461ffff191661ffff84161790555b60078216156105c057600382901c600090815260018501602052604090208190555b7f8faa70878671ccd212d20771b795c50af8fd3ff6cf27f4bde57e5d4de0aeb6738787876040516105f393929190611602565b60405180910390a16106058686610f89565b50505050505050565b60006103ac836001600160a01b038416611198565b61062d82826103b5565b61039057610645816001600160a01b031660146111e7565b6106508360206111e7565b604051602001610661929190611702565b60408051601f198184030181529082905262461bcd60e51b825261011491600401611777565b61069182826103b5565b610390576000828152602081815260408083206001600160a01b03851684529091529020805460ff191660011790556106c73390565b6001600160a01b0316816001600160a01b0316837f2f8788117e7eff1d82e926ec794901d17c78024a50270940304540a733656f0d60405160405180910390a46000828152600260205260409020610311908261060e565b61072982826103b5565b15610390576000828152602081815260408083206001600160a01b0385168085529252808320805460ff1916905551339285917ff6391f5c32d9c69d2a47ea670b442974b53935d1edc7fd64eb21e047a839171b9190a460008281526002602052604090206103119082611383565b60006103ac8383611398565b60006103af825490565b60008080600080516020611838833981519152905060008451116108285760405162461bcd60e51b815260206004820152602b60248201527f4c69624469616d6f6e644375743a204e6f2073656c6563746f727320696e206660448201526a1858d95d081d1bc818dd5d60aa1b6064820152608401610114565b600085600281111561083c5761083c611594565b14156109aa5761086486604051806060016040528060248152602001611858602491396113c2565b60005b84518110156109a45760008582815181106108845761088461154d565b6020908102919091018101516001600160e01b03198116600090815291859052604090912054909150606081901c1561091d5760405162461bcd60e51b815260206004820152603560248201527f4c69624469616d6f6e644375743a2043616e2774206164642066756e6374696f6044820152746e207468617420616c72656164792065786973747360581b6064820152608401610114565b6001600160e01b031980831660008181526020879052604090206001600160601b031960608d901b168e17905560e060058e901b811692831c199c909c1690821c179a8114156109815760038c901c600090815260018601602052604081209b909b555b8b61098b81611579565b9c5050505050808061099c90611579565b915050610867565b50610f7d565b60018560028111156109be576109be611594565b1415610bf0576109e6866040518060600160405280602881526020016118a4602891396113c2565b60005b84518110156109a4576000858281518110610a0657610a0661154d565b6020908102919091018101516001600160e01b03198116600090815291859052604090912054909150606081901c30811415610a9c5760405162461bcd60e51b815260206004820152602f60248201527f4c69624469616d6f6e644375743a2043616e2774207265706c61636520696d6d60448201526e3aba30b1363290333ab731ba34b7b760891b6064820152608401610114565b896001600160a01b0316816001600160a01b03161415610b245760405162461bcd60e51b815260206004820152603860248201527f4c69624469616d6f6e644375743a2043616e2774207265706c6163652066756e60448201527f6374696f6e20776974682073616d652066756e6374696f6e00000000000000006064820152608401610114565b6001600160a01b038116610ba05760405162461bcd60e51b815260206004820152603860248201527f4c69624469616d6f6e644375743a2043616e2774207265706c6163652066756e60448201527f6374696f6e207468617420646f65736e277420657869737400000000000000006064820152608401610114565b506001600160e01b031990911660009081526020849052604090206bffffffffffffffffffffffff919091166001600160601b031960608a901b1617905580610be881611579565b9150506109e9565b6002856002811115610c0457610c04611594565b1415610f25576001600160a01b03861615610c805760405162461bcd60e51b815260206004820152603660248201527f4c69624469616d6f6e644375743a2052656d6f76652066616365742061646472604482015275657373206d757374206265206164647265737328302960501b6064820152608401610114565b600388901c6007891660005b8651811015610f055789610cc45782610ca48161178a565b60008181526001870160205260409020549b50935060079250610cd29050565b81610cce8161178a565b9250505b6000806000808a8581518110610cea57610cea61154d565b6020908102919091018101516001600160e01b031981166000908152918a9052604090912054909150606081901c610d8a5760405162461bcd60e51b815260206004820152603760248201527f4c69624469616d6f6e644375743a2043616e27742072656d6f76652066756e6360448201527f74696f6e207468617420646f65736e27742065786973740000000000000000006064820152608401610114565b606081901c301415610df55760405162461bcd60e51b815260206004820152602e60248201527f4c69624469616d6f6e644375743a2043616e27742072656d6f766520696d6d7560448201526d3a30b1363290333ab731ba34b7b760911b6064820152608401610114565b600587901b8f901b94506001600160e01b031980861690831614610e4b576001600160e01b03198516600090815260208a90526040902080546001600160601b0319166bffffffffffffffffffffffff83161790555b6001600160e01b031991909116600090815260208990526040812055600381901c611fff16925060051b60e0169050858214610eb0576000828152600188016020526040902080546001600160e01b031980841c19909116908516831c179055610ed4565b80836001600160e01b031916901c816001600160e01b031960001b901c198e16179c505b84610eef57600086815260018801602052604081208190559c505b5050508080610efd90611579565b915050610c8c565b5080610f128360086117a1565b610f1c91906117c0565b99505050610f7d565b60405162461bcd60e51b815260206004820152602760248201527f4c69624469616d6f6e644375743a20496e636f727265637420466163657443756044820152663a20b1ba34b7b760c91b6064820152608401610114565b50959694955050505050565b6001600160a01b03821661100c578051156103905760405162461bcd60e51b815260206004820152603c60248201527f4c69624469616d6f6e644375743a205f696e697420697320616464726573732860448201527f3029206275745f63616c6c64617461206973206e6f7420656d707479000000006064820152608401610114565b60008151116110835760405162461bcd60e51b815260206004820152603d60248201527f4c69624469616d6f6e644375743a205f63616c6c6461746120697320656d707460448201527f7920627574205f696e6974206973206e6f7420616464726573732830290000006064820152608401610114565b6001600160a01b03821630146110b5576110b58260405180606001604052806028815260200161187c602891396113c2565b600080836001600160a01b0316836040516110d091906117d8565b600060405180830381855af49150503d806000811461110b576040519150601f19603f3d011682016040523d82523d6000602084013e611110565b606091505b5091509150816111925780511561113b578060405162461bcd60e51b81526004016101149190611777565b60405162461bcd60e51b815260206004820152602660248201527f4c69624469616d6f6e644375743a205f696e69742066756e6374696f6e2072656044820152651d995c9d195960d21b6064820152608401610114565b50505050565b60008181526001830160205260408120546111df575081546001818101845560008481526020808220909301849055845484825282860190935260409020919091556103af565b5060006103af565b606060006111f68360026117a1565b6112019060026117c0565b67ffffffffffffffff811115611219576112196117f4565b6040519080825280601f01601f191660200182016040528015611243576020820181803683370190505b509050600360fc1b8160008151811061125e5761125e61154d565b60200101906001600160f81b031916908160001a905350600f60fb1b8160018151811061128d5761128d61154d565b60200101906001600160f81b031916908160001a90535060006112b18460026117a1565b6112bc9060016117c0565b90505b6001811115611334576f181899199a1a9b1b9c1cb0b131b232b360811b85600f16601081106112f0576112f061154d565b1a60f81b8282815181106113065761130661154d565b60200101906001600160f81b031916908160001a90535060049490941c9361132d8161178a565b90506112bf565b5083156103ac5760405162461bcd60e51b815260206004820181905260248201527f537472696e67733a20686578206c656e67746820696e73756666696369656e746044820152606401610114565b60006103ac836001600160a01b0384166113e3565b60008260000182815481106113af576113af61154d565b9060005260206000200154905092915050565b813b81816111925760405162461bcd60e51b81526004016101149190611777565b600081815260018301602052604081205480156114cc57600061140760018361180a565b855490915060009061141b9060019061180a565b905081811461148057600086600001828154811061143b5761143b61154d565b906000526020600020015490508087600001848154811061145e5761145e61154d565b6000918252602080832090910192909255918252600188019052604090208390555b855486908061149157611491611821565b6001900381819060005260206000200160009055905585600101600086815260200190815260200160002060009055600193505050506103af565b60009150506103af565b6000602082840312156114e857600080fd5b5035919050565b6000806040838503121561150257600080fd5b8235915060208301356001600160a01b038116811461152057600080fd5b809150509250929050565b6000806040838503121561153e57600080fd5b50508035926020909101359150565b634e487b7160e01b600052603260045260246000fd5b634e487b7160e01b600052601160045260246000fd5b600060001982141561158d5761158d611563565b5060010190565b634e487b7160e01b600052602160045260246000fd5b60005b838110156115c55781810151838201526020016115ad565b838111156111925750506000910152565b600081518084526115ee8160208601602086016115aa565b601f01601f19169290920160200192915050565b60006060808301818452808751808352608092508286019150828160051b8701016020808b0160005b848110156116d257898403607f19018652815180516001600160a01b0316855283810151898601906003811061167157634e487b7160e01b600052602160045260246000fd5b868601526040918201519186018a905281519081905290840190600090898701905b808310156116bd5783516001600160e01b0319168252928601926001929092019190860190611693565b5097850197955050509082019060010161162b565b50506001600160a01b038a169088015286810360408801526116f481896115d6565b9a9950505050505050505050565b7f416363657373436f6e74726f6c3a206163636f756e742000000000000000000081526000835161173a8160178501602088016115aa565b7001034b99036b4b9b9b4b733903937b6329607d1b601791840191820152835161176b8160288401602088016115aa565b01602801949350505050565b6020815260006103ac60208301846115d6565b60008161179957611799611563565b506000190190565b60008160001904831182151516156117bb576117bb611563565b500290565b600082198211156117d3576117d3611563565b500190565b600082516117ea8184602087016115aa565b9190910192915050565b634e487b7160e01b600052604160045260246000fd5b60008282101561181c5761181c611563565b500390565b634e487b7160e01b600052603160045260246000fdfec8fcad8db84d3cc18b4c41d551ea0ee66dd599cde068d998e57d5e09332c131c4c69624469616d6f6e644375743a2041646420666163657420686173206e6f20636f64654c69624469616d6f6e644375743a205f696e6974206164647265737320686173206e6f20636f64654c69624469616d6f6e644375743a205265706c61636520666163657420686173206e6f20636f6465a2646970667358221220b2342d212dfa1bd8914f051e9f8b164260f212e94b2149055b9dc3e583b5ac3f64736f6c634300080b00334c69624469616d6f6e644375743a2043616e2774207265706c6163652066756ec8fcad8db84d3cc18b4c41d551ea0ee66dd599cde068d998e57d5e09332c131c4c69624469616d6f6e644375743a2041646420666163657420686173206e6f20636f64654c69624469616d6f6e644375743a205f696e6974206164647265737320686173206e6f20636f64656270edb7c868f86fda4adedba75108201087268ea345934db8bad688e1feb91b4c69624469616d6f6e644375743a205265706c61636520666163657420686173206e6f20636f6465",
  "devdoc": {
    "author": "Juan M. Sanchez M.",
    "details": "Uses AccessControl for the reception of ERC777 tokens!",
    "kind": "dev",
    "methods": {},
    "title": "RAIR ERC721 Factory",
    "version": 1
  },
  "userdoc": {
    "kind": "user",
    "methods": {},
    "notice": "Handles the deployment of ERC721 RAIR Tokens",
    "version": 1
  },
  "storageLayout": {
    "storage": [
      {
        "astId": 3004,
        "contract": "contracts/Factory/FactoryDiamond.sol:FactoryDiamond",
        "label": "s",
        "offset": 0,
        "slot": "0",
        "type": "t_struct(AppStorage)2984_storage"
      }
    ],
    "types": {
      "t_address": {
        "encoding": "inplace",
        "label": "address",
        "numberOfBytes": "20"
      },
      "t_array(t_address)dyn_storage": {
        "base": "t_address",
        "encoding": "dynamic_array",
        "label": "address[]",
        "numberOfBytes": "32"
      },
      "t_array(t_bytes32)dyn_storage": {
        "base": "t_bytes32",
        "encoding": "dynamic_array",
        "label": "bytes32[]",
        "numberOfBytes": "32"
      },
      "t_bool": {
        "encoding": "inplace",
        "label": "bool",
        "numberOfBytes": "1"
      },
      "t_bytes32": {
        "encoding": "inplace",
        "label": "bytes32",
        "numberOfBytes": "32"
      },
      "t_mapping(t_address,t_address)": {
        "encoding": "mapping",
        "key": "t_address",
        "label": "mapping(address => address)",
        "numberOfBytes": "32",
        "value": "t_address"
      },
      "t_mapping(t_address,t_array(t_address)dyn_storage)": {
        "encoding": "mapping",
        "key": "t_address",
        "label": "mapping(address => address[])",
        "numberOfBytes": "32",
        "value": "t_array(t_address)dyn_storage"
      },
      "t_mapping(t_address,t_bool)": {
        "encoding": "mapping",
        "key": "t_address",
        "label": "mapping(address => bool)",
        "numberOfBytes": "32",
        "value": "t_bool"
      },
      "t_mapping(t_address,t_uint256)": {
        "encoding": "mapping",
        "key": "t_address",
        "label": "mapping(address => uint256)",
        "numberOfBytes": "32",
        "value": "t_uint256"
      },
      "t_mapping(t_bytes32,t_struct(AddressSet)2662_storage)": {
        "encoding": "mapping",
        "key": "t_bytes32",
        "label": "mapping(bytes32 => struct EnumerableSet.AddressSet)",
        "numberOfBytes": "32",
        "value": "t_struct(AddressSet)2662_storage"
      },
      "t_mapping(t_bytes32,t_struct(RoleData)5713_storage)": {
        "encoding": "mapping",
        "key": "t_bytes32",
        "label": "mapping(bytes32 => struct RoleData)",
        "numberOfBytes": "32",
        "value": "t_struct(RoleData)5713_storage"
      },
      "t_mapping(t_bytes32,t_uint256)": {
        "encoding": "mapping",
        "key": "t_bytes32",
        "label": "mapping(bytes32 => uint256)",
        "numberOfBytes": "32",
        "value": "t_uint256"
      },
      "t_string_storage": {
        "encoding": "bytes",
        "label": "string",
        "numberOfBytes": "32"
      },
      "t_struct(AddressSet)2662_storage": {
        "encoding": "inplace",
        "label": "struct EnumerableSet.AddressSet",
        "members": [
          {
            "astId": 2661,
            "contract": "contracts/Factory/FactoryDiamond.sol:FactoryDiamond",
            "label": "_inner",
            "offset": 0,
            "slot": "0",
            "type": "t_struct(Set)2361_storage"
          }
        ],
        "numberOfBytes": "64"
      },
      "t_struct(AppStorage)2984_storage": {
        "encoding": "inplace",
        "label": "struct AppStorage",
        "members": [
          {
            "astId": 2960,
            "contract": "contracts/Factory/FactoryDiamond.sol:FactoryDiamond",
            "label": "_roles",
            "offset": 0,
            "slot": "0",
            "type": "t_mapping(t_bytes32,t_struct(RoleData)5713_storage)"
          },
          {
            "astId": 2962,
            "contract": "contracts/Factory/FactoryDiamond.sol:FactoryDiamond",
            "label": "failsafe",
            "offset": 0,
            "slot": "1",
            "type": "t_string_storage"
          },
          {
            "astId": 2967,
            "contract": "contracts/Factory/FactoryDiamond.sol:FactoryDiamond",
            "label": "_roleMembers",
            "offset": 0,
            "slot": "2",
            "type": "t_mapping(t_bytes32,t_struct(AddressSet)2662_storage)"
          },
          {
            "astId": 2970,
            "contract": "contracts/Factory/FactoryDiamond.sol:FactoryDiamond",
            "label": "creators",
            "offset": 0,
            "slot": "3",
            "type": "t_array(t_address)dyn_storage"
          },
          {
            "astId": 2975,
            "contract": "contracts/Factory/FactoryDiamond.sol:FactoryDiamond",
            "label": "creatorToContracts",
            "offset": 0,
            "slot": "4",
            "type": "t_mapping(t_address,t_array(t_address)dyn_storage)"
          },
          {
            "astId": 2979,
            "contract": "contracts/Factory/FactoryDiamond.sol:FactoryDiamond",
            "label": "contractToCreator",
            "offset": 0,
            "slot": "5",
            "type": "t_mapping(t_address,t_address)"
          },
          {
            "astId": 2983,
            "contract": "contracts/Factory/FactoryDiamond.sol:FactoryDiamond",
            "label": "deploymentCostForToken",
            "offset": 0,
            "slot": "6",
            "type": "t_mapping(t_address,t_uint256)"
          }
        ],
        "numberOfBytes": "224"
      },
      "t_struct(RoleData)5713_storage": {
        "encoding": "inplace",
        "label": "struct RoleData",
        "members": [
          {
            "astId": 5710,
            "contract": "contracts/Factory/FactoryDiamond.sol:FactoryDiamond",
            "label": "members",
            "offset": 0,
            "slot": "0",
            "type": "t_mapping(t_address,t_bool)"
          },
          {
            "astId": 5712,
            "contract": "contracts/Factory/FactoryDiamond.sol:FactoryDiamond",
            "label": "adminRole",
            "offset": 0,
            "slot": "1",
            "type": "t_bytes32"
          }
        ],
        "numberOfBytes": "64"
      },
      "t_struct(Set)2361_storage": {
        "encoding": "inplace",
        "label": "struct EnumerableSet.Set",
        "members": [
          {
            "astId": 2356,
            "contract": "contracts/Factory/FactoryDiamond.sol:FactoryDiamond",
            "label": "_values",
            "offset": 0,
            "slot": "0",
            "type": "t_array(t_bytes32)dyn_storage"
          },
          {
            "astId": 2360,
            "contract": "contracts/Factory/FactoryDiamond.sol:FactoryDiamond",
            "label": "_indexes",
            "offset": 0,
            "slot": "1",
            "type": "t_mapping(t_bytes32,t_uint256)"
          }
        ],
        "numberOfBytes": "64"
      },
      "t_uint256": {
        "encoding": "inplace",
        "label": "uint256",
        "numberOfBytes": "32"
      }
    }
  }
}