{
  "address": "0xBaDc7213F0D0340BA0c8771E5B25f4D6b563d65a",
  "abi": [
    {
      "anonymous": false,
      "inputs": [
        {
          "indexed": false,
          "internalType": "address",
          "name": "erc721Address",
          "type": "address"
        },
        {
          "indexed": false,
          "internalType": "uint256",
          "name": "rangeIndex",
          "type": "uint256"
        },
        {
          "indexed": false,
          "internalType": "string",
          "name": "rangeName",
          "type": "string"
        },
        {
          "indexed": false,
          "internalType": "uint256",
          "name": "price",
          "type": "uint256"
        },
        {
          "indexed": false,
          "internalType": "uint256",
          "name": "feeSplitsLength",
          "type": "uint256"
        },
        {
          "indexed": false,
          "internalType": "uint256",
          "name": "offerIndex",
          "type": "uint256"
        }
      ],
      "name": "AddedMintingOffer",
      "type": "event"
    },
    {
      "anonymous": false,
      "inputs": [
        {
          "indexed": false,
          "internalType": "address",
          "name": "erc721Address",
          "type": "address"
        },
        {
          "indexed": false,
          "internalType": "uint256",
          "name": "rangeIndex",
          "type": "uint256"
        },
        {
          "indexed": false,
          "internalType": "uint256",
          "name": "tokenIndex",
          "type": "uint256"
        },
        {
          "indexed": false,
          "internalType": "address",
          "name": "buyer",
          "type": "address"
        }
      ],
      "name": "MintedToken",
      "type": "event"
    },
    {
      "anonymous": false,
      "inputs": [
        {
          "indexed": true,
          "internalType": "bytes32",
          "name": "role",
          "type": "bytes32"
        },
        {
          "indexed": true,
          "internalType": "bytes32",
          "name": "previousAdminRole",
          "type": "bytes32"
        },
        {
          "indexed": true,
          "internalType": "bytes32",
          "name": "newAdminRole",
          "type": "bytes32"
        }
      ],
      "name": "RoleAdminChanged",
      "type": "event"
    },
    {
      "anonymous": false,
      "inputs": [
        {
          "indexed": true,
          "internalType": "bytes32",
          "name": "role",
          "type": "bytes32"
        },
        {
          "indexed": true,
          "internalType": "address",
          "name": "account",
          "type": "address"
        },
        {
          "indexed": true,
          "internalType": "address",
          "name": "sender",
          "type": "address"
        }
      ],
      "name": "RoleGranted",
      "type": "event"
    },
    {
      "anonymous": false,
      "inputs": [
        {
          "indexed": true,
          "internalType": "bytes32",
          "name": "role",
          "type": "bytes32"
        },
        {
          "indexed": true,
          "internalType": "address",
          "name": "account",
          "type": "address"
        },
        {
          "indexed": true,
          "internalType": "address",
          "name": "sender",
          "type": "address"
        }
      ],
      "name": "RoleRevoked",
      "type": "event"
    },
    {
      "anonymous": false,
      "inputs": [
        {
          "indexed": false,
          "internalType": "address",
          "name": "erc721Address",
          "type": "address"
        },
        {
          "indexed": false,
          "internalType": "uint256",
          "name": "rangeIndex",
          "type": "uint256"
        },
        {
          "indexed": false,
          "internalType": "uint256",
          "name": "feeSplitsLength",
          "type": "uint256"
        },
        {
          "indexed": false,
          "internalType": "bool",
          "name": "visible",
          "type": "bool"
        },
        {
          "indexed": false,
          "internalType": "uint256",
          "name": "offerIndex",
          "type": "uint256"
        }
      ],
      "name": "UpdatedMintingOffer",
      "type": "event"
    },
    {
      "inputs": [
        {
          "internalType": "address",
          "name": "erc721Address_",
          "type": "address"
        },
        {
          "internalType": "uint256",
          "name": "rangeIndex_",
          "type": "uint256"
        },
        {
          "components": [
            {
              "internalType": "address",
              "name": "recipient",
              "type": "address"
            },
            {
              "internalType": "uint256",
              "name": "percentage",
              "type": "uint256"
            }
          ],
          "internalType": "struct feeSplits[]",
          "name": "splits",
          "type": "tuple[]"
        },
        {
          "internalType": "bool",
          "name": "visible_",
          "type": "bool"
        },
        {
          "internalType": "address",
          "name": "nodeAddress_",
          "type": "address"
        }
      ],
      "name": "addMintingOffer",
      "outputs": [],
      "stateMutability": "nonpayable",
      "type": "function"
    },
    {
      "inputs": [
        {
          "internalType": "address",
          "name": "erc721Address_",
          "type": "address"
        },
        {
          "internalType": "uint256[]",
          "name": "rangeIndexes",
          "type": "uint256[]"
        },
        {
          "components": [
            {
              "internalType": "address",
              "name": "recipient",
              "type": "address"
            },
            {
              "internalType": "uint256",
              "name": "percentage",
              "type": "uint256"
            }
          ],
          "internalType": "struct feeSplits[][]",
          "name": "splits",
          "type": "tuple[][]"
        },
        {
          "internalType": "bool[]",
          "name": "visibility",
          "type": "bool[]"
        },
        {
          "internalType": "address",
          "name": "nodeAddress_",
          "type": "address"
        }
      ],
      "name": "addMintingOfferBatch",
      "outputs": [],
      "stateMutability": "nonpayable",
      "type": "function"
    },
    {
      "inputs": [
        {
          "internalType": "uint256",
          "name": "offerIndex_",
          "type": "uint256"
        },
        {
          "internalType": "uint256",
          "name": "tokenIndex_",
          "type": "uint256"
        }
      ],
      "name": "buyMintingOffer",
      "outputs": [],
      "stateMutability": "payable",
      "type": "function"
    },
    {
      "inputs": [
        {
          "internalType": "uint256",
          "name": "offerIndex_",
          "type": "uint256"
        },
        {
          "internalType": "uint256[]",
          "name": "tokenIndexes",
          "type": "uint256[]"
        },
        {
          "internalType": "address[]",
          "name": "recipients",
          "type": "address[]"
        }
      ],
      "name": "buyMintingOfferBatch",
      "outputs": [],
      "stateMutability": "payable",
      "type": "function"
    },
    {
      "inputs": [
        {
          "internalType": "uint256",
          "name": "offerIndex",
          "type": "uint256"
        }
      ],
      "name": "getOfferInfo",
      "outputs": [
        {
          "components": [
            {
              "internalType": "address",
              "name": "erc721Address",
              "type": "address"
            },
            {
              "internalType": "address",
              "name": "nodeAddress",
              "type": "address"
            },
            {
              "internalType": "uint256",
              "name": "rangeIndex",
              "type": "uint256"
            },
            {
              "components": [
                {
                  "internalType": "address",
                  "name": "recipient",
                  "type": "address"
                },
                {
                  "internalType": "uint256",
                  "name": "percentage",
                  "type": "uint256"
                }
              ],
              "internalType": "struct feeSplits[]",
              "name": "fees",
              "type": "tuple[]"
            },
            {
              "internalType": "bool",
              "name": "visible",
              "type": "bool"
            }
          ],
          "internalType": "struct mintingOffer",
          "name": "mintOffer",
          "type": "tuple"
        },
        {
          "components": [
            {
              "internalType": "uint256",
              "name": "rangeStart",
              "type": "uint256"
            },
            {
              "internalType": "uint256",
              "name": "rangeEnd",
              "type": "uint256"
            },
            {
              "internalType": "uint256",
              "name": "tokensAllowed",
              "type": "uint256"
            },
            {
              "internalType": "uint256",
              "name": "mintableTokens",
              "type": "uint256"
            },
            {
              "internalType": "uint256",
              "name": "lockedTokens",
              "type": "uint256"
            },
            {
              "internalType": "uint256",
              "name": "rangePrice",
              "type": "uint256"
            },
            {
              "internalType": "string",
              "name": "rangeName",
              "type": "string"
            }
          ],
          "internalType": "struct IRAIR721.range",
          "name": "rangeData",
          "type": "tuple"
        },
        {
          "internalType": "uint256",
          "name": "productIndex",
          "type": "uint256"
        }
      ],
      "stateMutability": "view",
      "type": "function"
    },
    {
      "inputs": [
        {
          "internalType": "address",
          "name": "erc721Address",
          "type": "address"
        },
        {
          "internalType": "uint256",
          "name": "rangeIndex",
          "type": "uint256"
        }
      ],
      "name": "getOfferInfoForAddress",
      "outputs": [
        {
          "internalType": "uint256",
          "name": "offerIndex",
          "type": "uint256"
        },
        {
          "components": [
            {
              "internalType": "address",
              "name": "erc721Address",
              "type": "address"
            },
            {
              "internalType": "address",
              "name": "nodeAddress",
              "type": "address"
            },
            {
              "internalType": "uint256",
              "name": "rangeIndex",
              "type": "uint256"
            },
            {
              "components": [
                {
                  "internalType": "address",
                  "name": "recipient",
                  "type": "address"
                },
                {
                  "internalType": "uint256",
                  "name": "percentage",
                  "type": "uint256"
                }
              ],
              "internalType": "struct feeSplits[]",
              "name": "fees",
              "type": "tuple[]"
            },
            {
              "internalType": "bool",
              "name": "visible",
              "type": "bool"
            }
          ],
          "internalType": "struct mintingOffer",
          "name": "mintOffer",
          "type": "tuple"
        },
        {
          "components": [
            {
              "internalType": "uint256",
              "name": "rangeStart",
              "type": "uint256"
            },
            {
              "internalType": "uint256",
              "name": "rangeEnd",
              "type": "uint256"
            },
            {
              "internalType": "uint256",
              "name": "tokensAllowed",
              "type": "uint256"
            },
            {
              "internalType": "uint256",
              "name": "mintableTokens",
              "type": "uint256"
            },
            {
              "internalType": "uint256",
              "name": "lockedTokens",
              "type": "uint256"
            },
            {
              "internalType": "uint256",
              "name": "rangePrice",
              "type": "uint256"
            },
            {
              "internalType": "string",
              "name": "rangeName",
              "type": "string"
            }
          ],
          "internalType": "struct IRAIR721.range",
          "name": "rangeData",
          "type": "tuple"
        },
        {
          "internalType": "uint256",
          "name": "productIndex",
          "type": "uint256"
        }
      ],
      "stateMutability": "view",
      "type": "function"
    },
    {
      "inputs": [
        {
          "internalType": "address",
          "name": "erc721Address",
          "type": "address"
        }
      ],
      "name": "getOffersCountForAddress",
      "outputs": [
        {
          "internalType": "uint256",
          "name": "",
          "type": "uint256"
        }
      ],
      "stateMutability": "view",
      "type": "function"
    },
    {
      "inputs": [
        {
          "internalType": "bytes32",
          "name": "role",
          "type": "bytes32"
        }
      ],
      "name": "getRoleAdmin",
      "outputs": [
        {
          "internalType": "bytes32",
          "name": "",
          "type": "bytes32"
        }
      ],
      "stateMutability": "view",
      "type": "function"
    },
    {
      "inputs": [
        {
          "internalType": "bytes32",
          "name": "role",
          "type": "bytes32"
        },
        {
          "internalType": "uint256",
          "name": "index",
          "type": "uint256"
        }
      ],
      "name": "getRoleMember",
      "outputs": [
        {
          "internalType": "address",
          "name": "",
          "type": "address"
        }
      ],
      "stateMutability": "view",
      "type": "function"
    },
    {
      "inputs": [
        {
          "internalType": "bytes32",
          "name": "role",
          "type": "bytes32"
        }
      ],
      "name": "getRoleMemberCount",
      "outputs": [
        {
          "internalType": "uint256",
          "name": "",
          "type": "uint256"
        }
      ],
      "stateMutability": "view",
      "type": "function"
    },
    {
      "inputs": [],
      "name": "getTotalOfferCount",
      "outputs": [
        {
          "internalType": "uint256",
          "name": "",
          "type": "uint256"
        }
      ],
      "stateMutability": "view",
      "type": "function"
    },
    {
      "inputs": [
        {
          "internalType": "bytes32",
          "name": "role",
          "type": "bytes32"
        },
        {
          "internalType": "address",
          "name": "account",
          "type": "address"
        }
      ],
      "name": "grantRole",
      "outputs": [],
      "stateMutability": "nonpayable",
      "type": "function"
    },
    {
      "inputs": [
        {
          "internalType": "bytes32",
          "name": "role",
          "type": "bytes32"
        },
        {
          "internalType": "address",
          "name": "account",
          "type": "address"
        }
      ],
      "name": "hasRole",
      "outputs": [
        {
          "internalType": "bool",
          "name": "",
          "type": "bool"
        }
      ],
      "stateMutability": "view",
      "type": "function"
    },
    {
      "inputs": [
        {
          "internalType": "bytes32",
          "name": "role",
          "type": "bytes32"
        },
        {
          "internalType": "address",
          "name": "account",
          "type": "address"
        }
      ],
      "name": "renounceRole",
      "outputs": [],
      "stateMutability": "nonpayable",
      "type": "function"
    },
    {
      "inputs": [
        {
          "internalType": "bytes32",
          "name": "role",
          "type": "bytes32"
        },
        {
          "internalType": "address",
          "name": "account",
          "type": "address"
        }
      ],
      "name": "revokeRole",
      "outputs": [],
      "stateMutability": "nonpayable",
      "type": "function"
    },
    {
      "inputs": [
        {
          "internalType": "uint256",
          "name": "mintingOfferId_",
          "type": "uint256"
        },
        {
          "components": [
            {
              "internalType": "address",
              "name": "recipient",
              "type": "address"
            },
            {
              "internalType": "uint256",
              "name": "percentage",
              "type": "uint256"
            }
          ],
          "internalType": "struct feeSplits[]",
          "name": "splits_",
          "type": "tuple[]"
        },
        {
          "internalType": "bool",
          "name": "visible_",
          "type": "bool"
        }
      ],
      "name": "updateMintingOffer",
      "outputs": [],
      "stateMutability": "nonpayable",
      "type": "function"
    }
  ],
  "transactionHash": "0x9449e6a1d7cb4af192fd9c148f08eac0c77d7b083ccc3ec7aba5ecc0e618e6af",
  "args": [],
  "numDeployments": 3,
  "solcInputHash": "dab41e518a34db4157b5822de8d6a702",
  "bytecode": "0x608060405234801561001057600080fd5b50613230806100206000396000f3fe6080604052600436106100f35760003560e01c80638bcccedb1161008a578063ca15c87311610059578063ca15c873146102bf578063d0b922ed146102df578063d547741f146102ff578063df275c6a1461031f57600080fd5b80638bcccedb146102225780639010d07c1461023757806391d148541461026f5780639c3ac84b1461029f57600080fd5b806334dbcd4a116100c657806334dbcd4a146101ac57806336568abe146101bf57806382ec0663146101df5780638b0e2e13146101f257600080fd5b8063248a9ca3146100f85780632a1da9821461013b5780632a8512541461016a5780632f2ff15d1461018c575b600080fd5b34801561010457600080fd5b5061012861011336600461252d565b60009081526020819052604090206001015490565b6040519081526020015b60405180910390f35b34801561014757600080fd5b5061015b61015636600461252d565b610355565b6040516101329392919061268f565b34801561017657600080fd5b5061018a61018536600461272d565b61051e565b005b34801561019857600080fd5b5061018a6101a73660046127e8565b6106dc565b61018a6101ba366004612814565b610707565b3480156101cb57600080fd5b5061018a6101da3660046127e8565b610c60565b61018a6101ed36600461288e565b610cde565b3480156101fe57600080fd5b5061021261020d3660046128b0565b61109f565b60405161013294939291906128da565b34801561022e57600080fd5b50600754610128565b34801561024357600080fd5b5061025761025236600461288e565b6112d5565b6040516001600160a01b039091168152602001610132565b34801561027b57600080fd5b5061028f61028a3660046127e8565b6112f6565b6040519015158152602001610132565b3480156102ab57600080fd5b5061018a6102ba366004612930565b61131f565b3480156102cb57600080fd5b506101286102da36600461252d565b611386565b3480156102eb57600080fd5b5061018a6102fa366004612aa7565b61139d565b34801561030b57600080fd5b5061018a61031a3660046127e8565b6113d1565b34801561032b57600080fd5b5061012861033a366004612b76565b6001600160a01b031660009081526009602052604090205490565b6040805160a08101825260008082526020820181905291810182905260608082015260808101919091526103bf6040518060e00160405280600081526020016000815260200160008152602001600081526020016000815260200160008152602001606081525090565b600080600060070185815481106103d8576103d8612b91565b600091825260208083206040805160a081018252600590940290910180546001600160a01b039081168552600182015416848401526002810154848301526003810180548351818602810186019094528084529495919460608701949192909184015b82821015610483576000848152602090819020604080518082019091526002850290910180546001600160a01b0316825260019081015482840152908352909201910161043b565b5050509082525060049182015460ff161515602090910152815160408084015190516364cc98df60e11b8152928301529195508592506001600160a01b039091169063c99931be90602401600060405180830381865afa1580156104eb573d6000803e3d6000fd5b505050506040513d6000823e601f3d908101601f191682016040526105139190810190612c0b565b949690955092505050565b8561057c5760405162461bcd60e51b815260206004820152602360248201527f4d696e746572204d61726b6574706c6163653a204e6f206f66666572732073656044820152626e742160e81b60648201526084015b60405180910390fd5b858214801561058a57508382145b6105f55760405162461bcd60e51b815260206004820152603660248201527f4d696e746572204d61726b6574706c6163653a204172726179732073686f756c6044820152750c840d0c2ecca40e8d0ca40e6c2daca40d8cadccee8d60531b6064820152608401610573565b60005b868110156106d1576106bf8989898481811061061657610616612b91565b9050602002013588888581811061062f5761062f612b91565b90506020028101906106419190612cbe565b808060200260200160405190810160405280939291908181526020016000905b8282101561068d5761067e60408302860136819003810190612d08565b81526020019060010190610661565b50505050508787868181106106a4576106a4612b91565b90506020020160208101906106b99190612d24565b866113f7565b806106c981612d57565b9150506105f8565b505050505050505050565b6000828152602081905260409020600101546106f88133611ae7565b6107028383611b4b565b505050565b6007548590811061072a5760405162461bcd60e51b815260040161057390612d72565b836107835760405162461bcd60e51b815260206004820152602360248201527f4d696e746572204d61726b6574706c6163653a204e6f20746f6b656e732073656044820152626e742160e81b6064820152608401610573565b8382146108065760405162461bcd60e51b8152602060048201526044602482018190527f4d696e746572204d61726b6574706c6163653a20546f6b656e7320616e642041908201527f64647265737365732073686f756c642068617665207468652073616d65206c656064820152630dccee8d60e31b608482015260a401610573565b600080600701878154811061081d5761081d612b91565b60009182526020909120600590910201600481015490915060ff166108545760405162461bcd60e51b815260040161057390612dc2565b8054610868906001600160a01b0316611be3565b6108845760405162461bcd60e51b815260040161057390612e1f565b805460028201546040516364cc98df60e11b815260048101919091526000916001600160a01b03169063c99931be90602401600060405180830381865afa1580156108d3573d6000803e3d6000fd5b505050506040513d6000823e601f3d908101601f191682016040526108fb9190810190612c0b565b5060a08101519091503490610911908890612e73565b111561092f5760405162461bcd60e51b815260040161057390612e92565b60a0810151600090610942908890612e73565b61094c9034612ed9565b111561099c5760a081015133906108fc90610968908990612e73565b6109729034612ed9565b6040518115909202916000818181858888f1935050505015801561099a573d6000803e3d6000fd5b505b6003546000906109ad906064612e73565b6005546004546109bd9190612ef0565b60a08401516109cd908a90612e73565b6109d79190612e73565b6109e19190612f08565b60018401546003549192506001600160a01b0316906108fc90610a05906064612e73565b60045460a0860151610a18908c90612e73565b610a229190612e73565b610a2c9190612f08565b6040518115909202916000818181858888f19350505050158015610a54573d6000803e3d6000fd5b506006546003546001600160a01b03909116906108fc90610a76906064612e73565b60055460a0860151610a89908c90612e73565b610a939190612e73565b610a9d9190612f08565b6040518115909202916000818181858888f19350505050158015610ac5573d6000803e3d6000fd5b506000805b6003850154811015610bad57600354610ae4906064612e73565b856003018281548110610af957610af9612b91565b9060005260206000209060020201600101548b8b90508660a00151610b1e9190612e73565b610b289190612e73565b610b329190612f08565b9150610b3e8284612ef0565b9250846003018181548110610b5557610b55612b91565b600091825260208220600290910201546040516001600160a01b039091169184156108fc02918591818181858888f19350505050158015610b9a573d6000803e3d6000fd5b5080610ba581612d57565b915050610aca565b60a0840151610bbd908a90612e73565b8314610bdb5760405162461bcd60e51b815260040161057390612f2a565b5060005b88811015610c535784546002860154610c41916001600160a01b0316908c8c85818110610c0e57610c0e612b91565b905060200201358b8b86818110610c2757610c27612b91565b9050602002016020810190610c3c9190612b76565b611c74565b80610c4b81612d57565b915050610bdf565b5050505050505050505050565b6001600160a01b0381163314610cd05760405162461bcd60e51b815260206004820152602f60248201527f416363657373436f6e74726f6c3a2063616e206f6e6c792072656e6f756e636560448201526e103937b632b9903337b91039b2b63360891b6064820152608401610573565b610cda8282611d35565b5050565b60075482908110610d015760405162461bcd60e51b815260040161057390612d72565b6000806007018481548110610d1857610d18612b91565b60009182526020909120600590910201600481015490915060ff16610d4f5760405162461bcd60e51b815260040161057390612dc2565b8054610d63906001600160a01b0316611be3565b610d7f5760405162461bcd60e51b815260040161057390612e1f565b805460028201546040516364cc98df60e11b815260048101919091526000916001600160a01b03169063c99931be90602401600060405180830381865afa158015610dce573d6000803e3d6000fd5b505050506040513d6000823e601f3d908101601f19168201604052610df69190810190612c0b565b509050348160a001511115610e1d5760405162461bcd60e51b815260040161057390612e92565b60008160a0015134610e2f9190612ed9565b1115610e745760a081015133906108fc90610e4a9034612ed9565b6040518115909202916000818181858888f19350505050158015610e72573d6000803e3d6000fd5b505b600354600090610e85906064612e73565b600554600454610e959190612ef0565b8360a00151610ea49190612e73565b610eae9190612f08565b60018401546003549192506001600160a01b0316906108fc90610ed2906064612e73565b60045460a0860151610ee49190612e73565b610eee9190612f08565b6040518115909202916000818181858888f19350505050158015610f16573d6000803e3d6000fd5b506006546003546001600160a01b03909116906108fc90610f38906064612e73565b60055460a0860151610f4a9190612e73565b610f549190612f08565b6040518115909202916000818181858888f19350505050158015610f7c573d6000803e3d6000fd5b506000805b600385015481101561105657600354610f9b906064612e73565b856003018281548110610fb057610fb0612b91565b9060005260206000209060020201600101548560a00151610fd19190612e73565b610fdb9190612f08565b9150610fe78284612ef0565b9250846003018181548110610ffe57610ffe612b91565b600091825260208220600290910201546040516001600160a01b039091169184156108fc02918591818181858888f19350505050158015611043573d6000803e3d6000fd5b508061104e81612d57565b915050610f81565b508260a00151821461107a5760405162461bcd60e51b815260040161057390612f2a565b83546002850154611096916001600160a01b0316908833611c74565b50505050505050565b6040805160a081018252600080825260208201819052918101829052606080820152608081018290526111086040518060e00160405280600081526020016000815260200160008152602001600081526020016000815260200160008152602001606081525090565b6001600160a01b0385166000908152600960205260408120805482916007918890811061113757611137612b91565b90600052602060002001548154811061115257611152612b91565b600091825260208083206040805160a081018252600590940290910180546001600160a01b039081168552600182015416848401526002810154848301526003810180548351818602810186019094528084529495919460608701949192909184015b828210156111fd576000848152602090819020604080518082019091526002850290910180546001600160a01b031682526001908101548284015290835290920191016111b5565b5050509082525060049182015460ff161515602090910152815160408084015190516364cc98df60e11b8152928301529192506001600160a01b039091169063c99931be90602401600060405180830381865afa158015611262573d6000803e3d6000fd5b505050506040513d6000823e601f3d908101601f1916820160405261128a9190810190612c0b565b6001600160a01b0389166000908152600960205260409020805492955090935090879081106112bb576112bb612b91565b906000526020600020015494508093505092959194509250565b60008281526001602052604081206112ed9083611dae565b90505b92915050565b6000918252602082815260408084206001600160a01b0393909316845291905290205460ff1690565b61137e86868686808060200260200160405190810160405280939291908181526020016000905b828210156113725761136360408302860136819003810190612d08565b81526020019060010190611346565b505050505085856113f7565b505050505050565b60008181526001602052604081206112f090611dba565b600754839081106113c05760405162461bcd60e51b815260040161057390612d72565b6113cb848484611dc4565b50505050565b6000828152602081905260409020600101546113ed8133611ae7565b6107028383611d35565b604051632474521560e21b81527f3c2519c4487d47714872f92cf90a50c25f5deaec2789dc2a497b1272df611db6600482015233602482015285906001600160a01b038216906391d1485490604401602060405180830381865afa158015611463573d6000803e3d6000fd5b505050506040513d601f19601f820116820180604052508101906114879190612f77565b6114a35760405162461bcd60e51b815260040161057390612f94565b856114ad81611be3565b6114c95760405162461bcd60e51b815260040161057390612e1f565b6001600160a01b0387166000908152600860209081526040808320898452909152902054879087901561150e5760405162461bcd60e51b815260040161057390612ff1565b6001600160a01b0382166000908152600860209081526040808320848452909152902054158015611540575060075415155b156115d157816001600160a01b0316600060070160008154811061156657611566612b91565b60009182526020909120600590910201546001600160a01b03161415806115b557508060006007016000815481106115a0576115a0612b91565b90600052602060002090600502016002015414155b6115d15760405162461bcd60e51b815260040161057390612ff1565b6007805460018101825560009182526040516364cc98df60e11b815260059091027fa66cc928b5edb82af9bd49922954155ab7b0942694bea4ce44661d9a8736c6880191906001600160a01b038c169063c99931be90611639908d9060040190815260200190565b600060405180830381865afa158015611656573d6000803e3d6000fd5b505050506040513d6000823e601f3d908101601f1916820160405261167e9190810190612c0b565b50905060008160600151116116fb5760405162461bcd60e51b815260206004820152603860248201527f4d696e746572204d61726b6574706c6163653a204f6666657220646f65736e2760448201527f74206861766520746f6b656e7320617661696c61626c652100000000000000006064820152608401610573565b81546001600160a01b03808d166001600160a01b0319928316178455600184018054918a1691909216179055600282018a9055600480830180548a151560ff19909116179055600554905460009161175291612ef0565b600354909150600090611766906064612e73565b828460a001516117769190612e73565b6117809190612f08565b905060005b8b5181101561193b576117b58c82815181106117a3576117a3612b91565b6020026020010151600001513b151590565b156118285760405162461bcd60e51b815260206004820152603f60248201527f4d696e746572204d61726b6574706c6163653a20436f6e74726163747320636160448201527f6e277420626520726563697069656e7473206f66207468652073706c697473006064820152608401610573565b600354600090611839906064612e73565b8d838151811061184b5761184b612b91565b6020026020010151602001518660a001516118669190612e73565b6118709190612f08565b9050600081116118925760405162461bcd60e51b81526004016105739061303f565b61189c8184612ef0565b92508c82815181106118b0576118b0612b91565b602002602001015160200151846118c79190612ef0565b9350856003018d83815181106118df576118df612b91565b602090810291909101810151825460018082018555600094855293839020825160029092020180546001600160a01b0319166001600160a01b03909216919091178155910151910155508061193381612d57565b915050611785565b5060035461194a906064612e73565b82146119685760405162461bcd60e51b8152600401610573906130b3565b8260a0015181146119f45760405162461bcd60e51b815260206004820152604a60248201527f4d696e746572204d61726b6574706c6163653a2043757272656e74206665652060448201527f636f6e66696775726174696f6e2077696c6c20726573756c7420696e206d697360648201526973696e672066756e647360b01b608482015260a401610573565b6001600160a01b038d166000908152600960205260409020600754611a1b90600190612ed9565b815460018181018455600093845260209093200155600754611a3d9190612ed9565b600060080160008f6001600160a01b03166001600160a01b0316815260200190815260200160002060008e8152602001908152602001600020819055507f26d54df15e8a0d68fa0ae9702cf190da88a0e1d48b0ed4c6b1099610b292f5f78d8d8560c001518660a001518f516001600060070180549050611abe9190612ed9565b604051611ad096959493929190613100565b60405180910390a150505050505050505050505050565b611af182826112f6565b610cda57611b09816001600160a01b031660146121ad565b611b148360206121ad565b604051602001611b25929190613145565b60408051601f198184030181529082905262461bcd60e51b8252610573916004016131ba565b611b5582826112f6565b610cda576000828152602081815260408083206001600160a01b03851684529091529020805460ff19166001179055611b8b3390565b6001600160a01b0316816001600160a01b0316837f2f8788117e7eff1d82e926ec794901d17c78024a50270940304540a733656f0d60405160405180910390a460008281526001602052604090206107029082612349565b604051632474521560e21b81527ff0887ba65ee2024ea881d91b74c2450ef19e1557f03bed3ea9f16b037cbe2dc960048201523060248201526000906001600160a01b038316906391d1485490604401602060405180830381865afa158015611c50573d6000803e3d6000fd5b505050506040513d601f19601f820116820180604052508101906112f09190612f77565b60405163e766224360e01b81526001600160a01b038281166004830152602482018590526044820184905285169063e766224390606401600060405180830381600087803b158015611cc557600080fd5b505af1158015611cd9573d6000803e3d6000fd5b5050604080516001600160a01b038881168252602082018890528183018790528516606082015290517f0dd9e6b4baafd1387e6f21dbe1004e4f6240e1abd6f95d63234578da7d40469b9350908190036080019150a150505050565b611d3f82826112f6565b15610cda576000828152602081815260408083206001600160a01b0385168085529252808320805460ff1916905551339285917ff6391f5c32d9c69d2a47ea670b442974b53935d1edc7fd64eb21e047a839171b9190a46000828152600160205260409020610702908261235e565b60006112ed8383612373565b60006112f0825490565b6000806007018481548110611ddb57611ddb612b91565b600091825260209091206005909102018054604051632474521560e21b81527f3c2519c4487d47714872f92cf90a50c25f5deaec2789dc2a497b1272df611db660048201523360248201529192506001600160a01b0316906391d1485490604401602060405180830381865afa158015611e59573d6000803e3d6000fd5b505050506040513d601f19601f82011682018060405250810190611e7d9190612f77565b611e995760405162461bcd60e51b815260040161057390612f94565b8054611ead906001600160a01b0316611be3565b611ec95760405162461bcd60e51b815260040161057390612e1f565b805460028201546040516364cc98df60e11b815260048101919091526000916001600160a01b03169063c99931be90602401600060405180830381865afa158015611f18573d6000803e3d6000fd5b505050506040513d6000823e601f3d908101601f19168201604052611f409190810190612c0b565b50600554600454919250600091611f579190612ef0565b9050611f676003840160006124df565b60005b85518110156120fc57611f888682815181106117a3576117a3612b91565b15611ffb5760405162461bcd60e51b815260206004820152603960248201527f4d696e746572204d61726b6574706c6163653a20436f6e74726163747320636160448201527f6e277420626520726563697069656e7473206f662066656573000000000000006064820152608401610573565b60035460009061200c906064612e73565b87838151811061201e5761201e612b91565b6020026020010151602001518560a001516120399190612e73565b6120439190612f08565b116120605760405162461bcd60e51b81526004016105739061303f565b85818151811061207257612072612b91565b602002602001015160200151826120899190612ef0565b9150836003018682815181106120a1576120a1612b91565b602090810291909101810151825460018082018555600094855293839020825160029092020180546001600160a01b0319166001600160a01b03909216919091178155910151910155806120f481612d57565b915050611f6a565b5060035461210b906064612e73565b81146121295760405162461bcd60e51b8152600401610573906130b3565b60048301805460ff1916851515908117909155835460028501546003860154604080516001600160a01b03909416845260208401929092529082015260ff90911615156060820152608081018790527ff9aa099c7d91e9bd33886c159620aeba7e2d9bd460bf94282df788a0af93787f9060a00160405180910390a1505050505050565b606060006121bc836002612e73565b6121c7906002612ef0565b67ffffffffffffffff8111156121df576121df6129e0565b6040519080825280601f01601f191660200182016040528015612209576020820181803683370190505b509050600360fc1b8160008151811061222457612224612b91565b60200101906001600160f81b031916908160001a905350600f60fb1b8160018151811061225357612253612b91565b60200101906001600160f81b031916908160001a9053506000612277846002612e73565b612282906001612ef0565b90505b60018111156122fa576f181899199a1a9b1b9c1cb0b131b232b360811b85600f16601081106122b6576122b6612b91565b1a60f81b8282815181106122cc576122cc612b91565b60200101906001600160f81b031916908160001a90535060049490941c936122f3816131cd565b9050612285565b5083156112ed5760405162461bcd60e51b815260206004820181905260248201527f537472696e67733a20686578206c656e67746820696e73756666696369656e746044820152606401610573565b60006112ed836001600160a01b03841661239d565b60006112ed836001600160a01b0384166123ec565b600082600001828154811061238a5761238a612b91565b9060005260206000200154905092915050565b60008181526001830160205260408120546123e4575081546001818101845560008481526020808220909301849055845484825282860190935260409020919091556112f0565b5060006112f0565b600081815260018301602052604081205480156124d5576000612410600183612ed9565b855490915060009061242490600190612ed9565b905081811461248957600086600001828154811061244457612444612b91565b906000526020600020015490508087600001848154811061246757612467612b91565b6000918252602080832090910192909255918252600188019052604090208390555b855486908061249a5761249a6131e4565b6001900381819060005260206000200160009055905585600101600086815260200190815260200160002060009055600193505050506112f0565b60009150506112f0565b50805460008255600202906000526020600020908101906125009190612503565b50565b5b808211156125295780546001600160a01b031916815560006001820155600201612504565b5090565b60006020828403121561253f57600080fd5b5035919050565b600060a0830160018060a01b0380845116855260208181860151168187015260408086015181880152606086015160a0606089015284815180875260c08a0191508483019650600092505b808310156125bc57865180518716835285015185830152958401956001929092019190830190612591565b50608088015195506125d260808a018715159052565b98975050505050505050565b60005b838110156125f95781810151838201526020016125e1565b838111156113cb5750506000910152565b600081518084526126228160208601602086016125de565b601f01601f19169290920160200192915050565b805182526020810151602083015260408101516040830152606081015160608301526080810151608083015260a081015160a0830152600060c082015160e060c085015261268760e085018261260a565b949350505050565b6060815260006126a26060830186612546565b82810360208401526126b48186612636565b915050826040830152949350505050565b80356001600160a01b03811681146126dc57600080fd5b919050565b60008083601f8401126126f357600080fd5b50813567ffffffffffffffff81111561270b57600080fd5b6020830191508360208260051b850101111561272657600080fd5b9250929050565b60008060008060008060008060a0898b03121561274957600080fd5b612752896126c5565b9750602089013567ffffffffffffffff8082111561276f57600080fd5b61277b8c838d016126e1565b909950975060408b013591508082111561279457600080fd5b6127a08c838d016126e1565b909750955060608b01359150808211156127b957600080fd5b506127c68b828c016126e1565b90945092506127d9905060808a016126c5565b90509295985092959890939650565b600080604083850312156127fb57600080fd5b8235915061280b602084016126c5565b90509250929050565b60008060008060006060868803121561282c57600080fd5b85359450602086013567ffffffffffffffff8082111561284b57600080fd5b61285789838a016126e1565b9096509450604088013591508082111561287057600080fd5b5061287d888289016126e1565b969995985093965092949392505050565b600080604083850312156128a157600080fd5b50508035926020909101359150565b600080604083850312156128c357600080fd5b6128cc836126c5565b946020939093013593505050565b8481526080602082015260006128f36080830186612546565b82810360408401526129058186612636565b91505082606083015295945050505050565b801515811461250057600080fd5b80356126dc81612917565b60008060008060008060a0878903121561294957600080fd5b612952876126c5565b955060208701359450604087013567ffffffffffffffff8082111561297657600080fd5b818901915089601f83011261298a57600080fd5b81358181111561299957600080fd5b8a60208260061b85010111156129ae57600080fd5b6020830196508095505050506129c660608801612925565b91506129d4608088016126c5565b90509295509295509295565b634e487b7160e01b600052604160045260246000fd5b60405160e0810167ffffffffffffffff81118282101715612a1957612a196129e0565b60405290565b604051601f8201601f1916810167ffffffffffffffff81118282101715612a4857612a486129e0565b604052919050565b600060408284031215612a6257600080fd5b6040516040810181811067ffffffffffffffff82111715612a8557612a856129e0565b604052905080612a94836126c5565b8152602083013560208201525092915050565b600080600060608486031215612abc57600080fd5b8335925060208085013567ffffffffffffffff80821115612adc57600080fd5b818701915087601f830112612af057600080fd5b813581811115612b0257612b026129e0565b612b10848260051b01612a1f565b818152848101925060069190911b830184019089821115612b3057600080fd5b928401925b81841015612b5957612b478a85612a50565b83528483019250604084019350612b35565b8096505050505050612b6d60408501612925565b90509250925092565b600060208284031215612b8857600080fd5b6112ed826126c5565b634e487b7160e01b600052603260045260246000fd5b600082601f830112612bb857600080fd5b815167ffffffffffffffff811115612bd257612bd26129e0565b612be5601f8201601f1916602001612a1f565b818152846020838601011115612bfa57600080fd5b6126878260208301602087016125de565b60008060408385031215612c1e57600080fd5b825167ffffffffffffffff80821115612c3657600080fd5b9084019060e08287031215612c4a57600080fd5b612c526129f6565b825181526020830151602082015260408301516040820152606083015160608201526080830151608082015260a083015160a082015260c083015182811115612c9a57600080fd5b612ca688828601612ba7565b60c08301525060209590950151949694955050505050565b6000808335601e19843603018112612cd557600080fd5b83018035915067ffffffffffffffff821115612cf057600080fd5b6020019150600681901b360382131561272657600080fd5b600060408284031215612d1a57600080fd5b6112ed8383612a50565b600060208284031215612d3657600080fd5b81356112ed81612917565b634e487b7160e01b600052601160045260246000fd5b6000600019821415612d6b57612d6b612d41565b5060010190565b60208082526030908201527f4d696e74696e67204d61726b6574706c6163653a204d696e74696e67204f666660408201526f195c88191bd95cdb89dd08195e1a5cdd60821b606082015260800190565b60208082526037908201527f4d696e746572204d61726b6574706c6163653a2054686973206f66666572206960408201527f73206e6f7420726561647920746f20626520736f6c6421000000000000000000606082015260800190565b60208082526034908201527f4d696e746572204d61726b6574706c6163653a2054686973204d61726b6574706040820152736c6163652069736e27742061204d696e7465722160601b606082015260800190565b6000816000190483118215151615612e8d57612e8d612d41565b500290565b60208082526027908201527f4d696e746572204d61726b6574706c6163653a20496e73756666696369656e746040820152662066756e64732160c81b606082015260800190565b600082821015612eeb57612eeb612d41565b500390565b60008219821115612f0357612f03612d41565b500190565b600082612f2557634e487b7160e01b600052601260045260246000fd5b500490565b6020808252602d908201527f4d696e746572204d61726b6574706c6163653a204572726f72207472616e736660408201526c657272696e672066756e64732160981b606082015260800190565b600060208284031215612f8957600080fd5b81516112ed81612917565b6020808252603d908201527f4d696e746572204d61726b6574706c6163653a2053656e6465722069736e277460408201527f207468652063726561746f72206f662074686520636f6e747261637421000000606082015260800190565b6020808252602e908201527f4d696e746572204d61726b6574706c6163653a2052616e676520616c7265616460408201526d3c903430b99030b71037b33332b960911b606082015260800190565b6020808252604e908201527f4d696e746572204d61726b6574706c6163653a20412070657263656e7461676560408201527f206f6e207468652061727261792077696c6c20726573756c7420696e20616e2060608201526d32b6b83a3c903a3930b739b332b960911b608082015260a00190565b6020808252602d908201527f4d696e746572204d61726b6574706c6163653a204665657320646f6e2774206160408201526c646420757020746f203130302560981b606082015260800190565b60018060a01b038716815285602082015260c06040820152600061312760c083018761260a565b606083019590955250608081019290925260a0909101529392505050565b7f416363657373436f6e74726f6c3a206163636f756e742000000000000000000081526000835161317d8160178501602088016125de565b7001034b99036b4b9b9b4b733903937b6329607d1b60179184019182015283516131ae8160288401602088016125de565b01602801949350505050565b6020815260006112ed602083018461260a565b6000816131dc576131dc612d41565b506000190190565b634e487b7160e01b600052603160045260246000fdfea264697066735822122006d3d2d35f81becc3b2a9125180e637042ba06bfdeb2a8efcde18310c1a5911a64736f6c634300080b0033",
  "devdoc": {
    "author": "Juan M. Sanchez M.",
    "kind": "dev",
    "methods": {
      "getOffersCountForAddress(address)": {
        "params": {
          "erc721Address": "Address of the ERC721 token"
        }
      }
    },
    "title": "RAIR Diamond - Minting offers facet",
    "version": 1
  },
  "userdoc": {
    "kind": "user",
    "methods": {
      "getOffersCountForAddress(address)": {
        "notice": "Returns the number of offers for a specific ERC721 address"
      }
    },
    "notice": "Facet in charge of the minting offers in the RAIR Marketplace",
    "version": 1
  },
  "storageLayout": {
    "storage": [
      {
        "astId": 3787,
        "contract": "contracts/Marketplace/Facets/MintingOffersFacet.sol:MintingOffersFacet",
        "label": "s",
        "offset": 0,
        "slot": "0",
        "type": "t_struct(AppStorage)3769_storage"
      }
    ],
    "types": {
      "t_address": {
        "encoding": "inplace",
        "label": "address",
        "numberOfBytes": "20"
      },
      "t_array(t_bytes32)dyn_storage": {
        "base": "t_bytes32",
        "encoding": "dynamic_array",
        "label": "bytes32[]",
        "numberOfBytes": "32"
      },
      "t_array(t_struct(feeSplits)3713_storage)dyn_storage": {
        "base": "t_struct(feeSplits)3713_storage",
        "encoding": "dynamic_array",
        "label": "struct feeSplits[]",
        "numberOfBytes": "32"
      },
      "t_array(t_struct(mintingOffer)3726_storage)dyn_storage": {
        "base": "t_struct(mintingOffer)3726_storage",
        "encoding": "dynamic_array",
        "label": "struct mintingOffer[]",
        "numberOfBytes": "32"
      },
      "t_array(t_uint256)dyn_storage": {
        "base": "t_uint256",
        "encoding": "dynamic_array",
        "label": "uint256[]",
        "numberOfBytes": "32"
      },
      "t_bool": {
        "encoding": "inplace",
        "label": "bool",
        "numberOfBytes": "1"
      },
      "t_bytes32": {
        "encoding": "inplace",
        "label": "bytes32",
        "numberOfBytes": "32"
      },
      "t_mapping(t_address,t_array(t_uint256)dyn_storage)": {
        "encoding": "mapping",
        "key": "t_address",
        "label": "mapping(address => uint256[])",
        "numberOfBytes": "32",
        "value": "t_array(t_uint256)dyn_storage"
      },
      "t_mapping(t_address,t_bool)": {
        "encoding": "mapping",
        "key": "t_address",
        "label": "mapping(address => bool)",
        "numberOfBytes": "32",
        "value": "t_bool"
      },
      "t_mapping(t_address,t_mapping(t_uint256,t_uint256))": {
        "encoding": "mapping",
        "key": "t_address",
        "label": "mapping(address => mapping(uint256 => uint256))",
        "numberOfBytes": "32",
        "value": "t_mapping(t_uint256,t_uint256)"
      },
      "t_mapping(t_bytes32,t_struct(AddressSet)2662_storage)": {
        "encoding": "mapping",
        "key": "t_bytes32",
        "label": "mapping(bytes32 => struct EnumerableSet.AddressSet)",
        "numberOfBytes": "32",
        "value": "t_struct(AddressSet)2662_storage"
      },
      "t_mapping(t_bytes32,t_struct(RoleData)3733_storage)": {
        "encoding": "mapping",
        "key": "t_bytes32",
        "label": "mapping(bytes32 => struct RoleData)",
        "numberOfBytes": "32",
        "value": "t_struct(RoleData)3733_storage"
      },
      "t_mapping(t_bytes32,t_uint256)": {
        "encoding": "mapping",
        "key": "t_bytes32",
        "label": "mapping(bytes32 => uint256)",
        "numberOfBytes": "32",
        "value": "t_uint256"
      },
      "t_mapping(t_uint256,t_uint256)": {
        "encoding": "mapping",
        "key": "t_uint256",
        "label": "mapping(uint256 => uint256)",
        "numberOfBytes": "32",
        "value": "t_uint256"
      },
      "t_struct(AddressSet)2662_storage": {
        "encoding": "inplace",
        "label": "struct EnumerableSet.AddressSet",
        "members": [
          {
            "astId": 2661,
            "contract": "contracts/Marketplace/Facets/MintingOffersFacet.sol:MintingOffersFacet",
            "label": "_inner",
            "offset": 0,
            "slot": "0",
            "type": "t_struct(Set)2361_storage"
          }
        ],
        "numberOfBytes": "64"
      },
      "t_struct(AppStorage)3769_storage": {
        "encoding": "inplace",
        "label": "struct AppStorage",
        "members": [
          {
            "astId": 3738,
            "contract": "contracts/Marketplace/Facets/MintingOffersFacet.sol:MintingOffersFacet",
            "label": "_roles",
            "offset": 0,
            "slot": "0",
            "type": "t_mapping(t_bytes32,t_struct(RoleData)3733_storage)"
          },
          {
            "astId": 3743,
            "contract": "contracts/Marketplace/Facets/MintingOffersFacet.sol:MintingOffersFacet",
            "label": "_roleMembers",
            "offset": 0,
            "slot": "1",
            "type": "t_mapping(t_bytes32,t_struct(AddressSet)2662_storage)"
          },
          {
            "astId": 3745,
            "contract": "contracts/Marketplace/Facets/MintingOffersFacet.sol:MintingOffersFacet",
            "label": "decimals",
            "offset": 0,
            "slot": "2",
            "type": "t_uint16"
          },
          {
            "astId": 3747,
            "contract": "contracts/Marketplace/Facets/MintingOffersFacet.sol:MintingOffersFacet",
            "label": "decimalPow",
            "offset": 0,
            "slot": "3",
            "type": "t_uint256"
          },
          {
            "astId": 3749,
            "contract": "contracts/Marketplace/Facets/MintingOffersFacet.sol:MintingOffersFacet",
            "label": "nodeFee",
            "offset": 0,
            "slot": "4",
            "type": "t_uint256"
          },
          {
            "astId": 3751,
            "contract": "contracts/Marketplace/Facets/MintingOffersFacet.sol:MintingOffersFacet",
            "label": "treasuryFee",
            "offset": 0,
            "slot": "5",
            "type": "t_uint256"
          },
          {
            "astId": 3753,
            "contract": "contracts/Marketplace/Facets/MintingOffersFacet.sol:MintingOffersFacet",
            "label": "treasuryAddress",
            "offset": 0,
            "slot": "6",
            "type": "t_address"
          },
          {
            "astId": 3757,
            "contract": "contracts/Marketplace/Facets/MintingOffersFacet.sol:MintingOffersFacet",
            "label": "mintingOffers",
            "offset": 0,
            "slot": "7",
            "type": "t_array(t_struct(mintingOffer)3726_storage)dyn_storage"
          },
          {
            "astId": 3763,
            "contract": "contracts/Marketplace/Facets/MintingOffersFacet.sol:MintingOffersFacet",
            "label": "addressToRangeOffer",
            "offset": 0,
            "slot": "8",
            "type": "t_mapping(t_address,t_mapping(t_uint256,t_uint256))"
          },
          {
            "astId": 3768,
            "contract": "contracts/Marketplace/Facets/MintingOffersFacet.sol:MintingOffersFacet",
            "label": "addressToOffers",
            "offset": 0,
            "slot": "9",
            "type": "t_mapping(t_address,t_array(t_uint256)dyn_storage)"
          }
        ],
        "numberOfBytes": "320"
      },
      "t_struct(RoleData)3733_storage": {
        "encoding": "inplace",
        "label": "struct RoleData",
        "members": [
          {
            "astId": 3730,
            "contract": "contracts/Marketplace/Facets/MintingOffersFacet.sol:MintingOffersFacet",
            "label": "members",
            "offset": 0,
            "slot": "0",
            "type": "t_mapping(t_address,t_bool)"
          },
          {
            "astId": 3732,
            "contract": "contracts/Marketplace/Facets/MintingOffersFacet.sol:MintingOffersFacet",
            "label": "adminRole",
            "offset": 0,
            "slot": "1",
            "type": "t_bytes32"
          }
        ],
        "numberOfBytes": "64"
      },
      "t_struct(Set)2361_storage": {
        "encoding": "inplace",
        "label": "struct EnumerableSet.Set",
        "members": [
          {
            "astId": 2356,
            "contract": "contracts/Marketplace/Facets/MintingOffersFacet.sol:MintingOffersFacet",
            "label": "_values",
            "offset": 0,
            "slot": "0",
            "type": "t_array(t_bytes32)dyn_storage"
          },
          {
            "astId": 2360,
            "contract": "contracts/Marketplace/Facets/MintingOffersFacet.sol:MintingOffersFacet",
            "label": "_indexes",
            "offset": 0,
            "slot": "1",
            "type": "t_mapping(t_bytes32,t_uint256)"
          }
        ],
        "numberOfBytes": "64"
      },
      "t_struct(feeSplits)3713_storage": {
        "encoding": "inplace",
        "label": "struct feeSplits",
        "members": [
          {
            "astId": 3710,
            "contract": "contracts/Marketplace/Facets/MintingOffersFacet.sol:MintingOffersFacet",
            "label": "recipient",
            "offset": 0,
            "slot": "0",
            "type": "t_address"
          },
          {
            "astId": 3712,
            "contract": "contracts/Marketplace/Facets/MintingOffersFacet.sol:MintingOffersFacet",
            "label": "percentage",
            "offset": 0,
            "slot": "1",
            "type": "t_uint256"
          }
        ],
        "numberOfBytes": "64"
      },
      "t_struct(mintingOffer)3726_storage": {
        "encoding": "inplace",
        "label": "struct mintingOffer",
        "members": [
          {
            "astId": 3715,
            "contract": "contracts/Marketplace/Facets/MintingOffersFacet.sol:MintingOffersFacet",
            "label": "erc721Address",
            "offset": 0,
            "slot": "0",
            "type": "t_address"
          },
          {
            "astId": 3717,
            "contract": "contracts/Marketplace/Facets/MintingOffersFacet.sol:MintingOffersFacet",
            "label": "nodeAddress",
            "offset": 0,
            "slot": "1",
            "type": "t_address"
          },
          {
            "astId": 3719,
            "contract": "contracts/Marketplace/Facets/MintingOffersFacet.sol:MintingOffersFacet",
            "label": "rangeIndex",
            "offset": 0,
            "slot": "2",
            "type": "t_uint256"
          },
          {
            "astId": 3723,
            "contract": "contracts/Marketplace/Facets/MintingOffersFacet.sol:MintingOffersFacet",
            "label": "fees",
            "offset": 0,
            "slot": "3",
            "type": "t_array(t_struct(feeSplits)3713_storage)dyn_storage"
          },
          {
            "astId": 3725,
            "contract": "contracts/Marketplace/Facets/MintingOffersFacet.sol:MintingOffersFacet",
            "label": "visible",
            "offset": 0,
            "slot": "4",
            "type": "t_bool"
          }
        ],
        "numberOfBytes": "160"
      },
      "t_uint16": {
        "encoding": "inplace",
        "label": "uint16",
        "numberOfBytes": "2"
      },
      "t_uint256": {
        "encoding": "inplace",
        "label": "uint256",
        "numberOfBytes": "32"
      }
    }
  }
}