{
  "address": "0x80847414d3B4ac35d6b078501Bad7a7E2367a931",
  "abi": [
    {
      "anonymous": false,
      "inputs": [
        {
          "indexed": false,
          "internalType": "uint256",
          "name": "productIndex",
          "type": "uint256"
        },
        {
          "indexed": false,
          "internalType": "uint256",
          "name": "start",
          "type": "uint256"
        },
        {
          "indexed": false,
          "internalType": "uint256",
          "name": "end",
          "type": "uint256"
        },
        {
          "indexed": false,
          "internalType": "uint256",
          "name": "price",
          "type": "uint256"
        },
        {
          "indexed": false,
          "internalType": "uint256",
          "name": "tokensAllowed",
          "type": "uint256"
        },
        {
          "indexed": false,
          "internalType": "uint256",
          "name": "lockedTokens",
          "type": "uint256"
        },
        {
          "indexed": false,
          "internalType": "string",
          "name": "name",
          "type": "string"
        },
        {
          "indexed": false,
          "internalType": "uint256",
          "name": "rangeIndex",
          "type": "uint256"
        }
      ],
      "name": "CreatedRange",
      "type": "event"
    },
    {
      "anonymous": false,
      "inputs": [
        {
          "indexed": true,
          "internalType": "bytes32",
          "name": "role",
          "type": "bytes32"
        },
        {
          "indexed": true,
          "internalType": "bytes32",
          "name": "previousAdminRole",
          "type": "bytes32"
        },
        {
          "indexed": true,
          "internalType": "bytes32",
          "name": "newAdminRole",
          "type": "bytes32"
        }
      ],
      "name": "RoleAdminChanged",
      "type": "event"
    },
    {
      "anonymous": false,
      "inputs": [
        {
          "indexed": true,
          "internalType": "bytes32",
          "name": "role",
          "type": "bytes32"
        },
        {
          "indexed": true,
          "internalType": "address",
          "name": "account",
          "type": "address"
        },
        {
          "indexed": true,
          "internalType": "address",
          "name": "sender",
          "type": "address"
        }
      ],
      "name": "RoleGranted",
      "type": "event"
    },
    {
      "anonymous": false,
      "inputs": [
        {
          "indexed": true,
          "internalType": "bytes32",
          "name": "role",
          "type": "bytes32"
        },
        {
          "indexed": true,
          "internalType": "address",
          "name": "account",
          "type": "address"
        },
        {
          "indexed": true,
          "internalType": "address",
          "name": "sender",
          "type": "address"
        }
      ],
      "name": "RoleRevoked",
      "type": "event"
    },
    {
      "anonymous": false,
      "inputs": [
        {
          "indexed": true,
          "internalType": "uint256",
          "name": "rangeIndex",
          "type": "uint256"
        },
        {
          "indexed": false,
          "internalType": "uint256",
          "name": "from",
          "type": "uint256"
        },
        {
          "indexed": false,
          "internalType": "uint256",
          "name": "to",
          "type": "uint256"
        },
        {
          "indexed": false,
          "internalType": "uint256",
          "name": "lockedTokens",
          "type": "uint256"
        }
      ],
      "name": "TradingLocked",
      "type": "event"
    },
    {
      "anonymous": false,
      "inputs": [
        {
          "indexed": true,
          "internalType": "uint256",
          "name": "rangeIndex",
          "type": "uint256"
        },
        {
          "indexed": false,
          "internalType": "uint256",
          "name": "from",
          "type": "uint256"
        },
        {
          "indexed": false,
          "internalType": "uint256",
          "name": "to",
          "type": "uint256"
        }
      ],
      "name": "TradingUnlocked",
      "type": "event"
    },
    {
      "anonymous": false,
      "inputs": [
        {
          "indexed": false,
          "internalType": "uint256",
          "name": "rangeIndex",
          "type": "uint256"
        },
        {
          "indexed": false,
          "internalType": "string",
          "name": "name",
          "type": "string"
        },
        {
          "indexed": false,
          "internalType": "uint256",
          "name": "price",
          "type": "uint256"
        },
        {
          "indexed": false,
          "internalType": "uint256",
          "name": "tokensAllowed",
          "type": "uint256"
        },
        {
          "indexed": false,
          "internalType": "uint256",
          "name": "lockedTokens",
          "type": "uint256"
        }
      ],
      "name": "UpdatedRange",
      "type": "event"
    },
    {
      "inputs": [],
      "name": "CREATOR",
      "outputs": [
        {
          "internalType": "bytes32",
          "name": "",
          "type": "bytes32"
        }
      ],
      "stateMutability": "view",
      "type": "function"
    },
    {
      "inputs": [
        {
          "internalType": "uint256",
          "name": "productId_",
          "type": "uint256"
        },
        {
          "internalType": "uint256",
          "name": "rangeStart_",
          "type": "uint256"
        },
        {
          "internalType": "uint256",
          "name": "rangeEnd_",
          "type": "uint256"
        }
      ],
      "name": "canCreateRange",
      "outputs": [
        {
          "internalType": "bool",
          "name": "",
          "type": "bool"
        }
      ],
      "stateMutability": "view",
      "type": "function"
    },
    {
      "inputs": [
        {
          "internalType": "uint256",
          "name": "collectionId",
          "type": "uint256"
        },
        {
          "internalType": "uint256",
          "name": "rangeStart",
          "type": "uint256"
        },
        {
          "internalType": "uint256",
          "name": "rangeEnd",
          "type": "uint256"
        },
        {
          "internalType": "uint256",
          "name": "price",
          "type": "uint256"
        },
        {
          "internalType": "uint256",
          "name": "tokensAllowed",
          "type": "uint256"
        },
        {
          "internalType": "uint256",
          "name": "lockedTokens",
          "type": "uint256"
        },
        {
          "internalType": "string",
          "name": "name",
          "type": "string"
        }
      ],
      "name": "createRange",
      "outputs": [],
      "stateMutability": "nonpayable",
      "type": "function"
    },
    {
      "inputs": [
        {
          "internalType": "uint256",
          "name": "collectionId",
          "type": "uint256"
        },
        {
          "components": [
            {
              "internalType": "uint256",
              "name": "rangeStart",
              "type": "uint256"
            },
            {
              "internalType": "uint256",
              "name": "rangeEnd",
              "type": "uint256"
            },
            {
              "internalType": "uint256",
              "name": "price",
              "type": "uint256"
            },
            {
              "internalType": "uint256",
              "name": "tokensAllowed",
              "type": "uint256"
            },
            {
              "internalType": "uint256",
              "name": "lockedTokens",
              "type": "uint256"
            },
            {
              "internalType": "string",
              "name": "name",
              "type": "string"
            }
          ],
          "internalType": "struct RAIRRangesFacet.rangeData[]",
          "name": "data",
          "type": "tuple[]"
        }
      ],
      "name": "createRangeBatch",
      "outputs": [],
      "stateMutability": "nonpayable",
      "type": "function"
    },
    {
      "inputs": [
        {
          "internalType": "bytes32",
          "name": "role",
          "type": "bytes32"
        }
      ],
      "name": "getRoleAdmin",
      "outputs": [
        {
          "internalType": "bytes32",
          "name": "",
          "type": "bytes32"
        }
      ],
      "stateMutability": "view",
      "type": "function"
    },
    {
      "inputs": [
        {
          "internalType": "bytes32",
          "name": "role",
          "type": "bytes32"
        },
        {
          "internalType": "uint256",
          "name": "index",
          "type": "uint256"
        }
      ],
      "name": "getRoleMember",
      "outputs": [
        {
          "internalType": "address",
          "name": "",
          "type": "address"
        }
      ],
      "stateMutability": "view",
      "type": "function"
    },
    {
      "inputs": [
        {
          "internalType": "bytes32",
          "name": "role",
          "type": "bytes32"
        }
      ],
      "name": "getRoleMemberCount",
      "outputs": [
        {
          "internalType": "uint256",
          "name": "",
          "type": "uint256"
        }
      ],
      "stateMutability": "view",
      "type": "function"
    },
    {
      "inputs": [
        {
          "internalType": "bytes32",
          "name": "role",
          "type": "bytes32"
        },
        {
          "internalType": "address",
          "name": "account",
          "type": "address"
        }
      ],
      "name": "grantRole",
      "outputs": [],
      "stateMutability": "nonpayable",
      "type": "function"
    },
    {
      "inputs": [
        {
          "internalType": "bytes32",
          "name": "role",
          "type": "bytes32"
        },
        {
          "internalType": "address",
          "name": "account",
          "type": "address"
        }
      ],
      "name": "hasRole",
      "outputs": [
        {
          "internalType": "bool",
          "name": "",
          "type": "bool"
        }
      ],
      "stateMutability": "view",
      "type": "function"
    },
    {
      "inputs": [
        {
          "internalType": "uint256",
          "name": "rangeId",
          "type": "uint256"
        }
      ],
      "name": "isRangeLocked",
      "outputs": [
        {
          "internalType": "bool",
          "name": "",
          "type": "bool"
        }
      ],
      "stateMutability": "view",
      "type": "function"
    },
    {
      "inputs": [
        {
          "internalType": "uint256",
          "name": "collectionId",
          "type": "uint256"
        },
        {
          "internalType": "uint256",
          "name": "rangeIndex",
          "type": "uint256"
        }
      ],
      "name": "productRangeInfo",
      "outputs": [
        {
          "components": [
            {
              "internalType": "uint256",
              "name": "rangeStart",
              "type": "uint256"
            },
            {
              "internalType": "uint256",
              "name": "rangeEnd",
              "type": "uint256"
            },
            {
              "internalType": "uint256",
              "name": "tokensAllowed",
              "type": "uint256"
            },
            {
              "internalType": "uint256",
              "name": "mintableTokens",
              "type": "uint256"
            },
            {
              "internalType": "uint256",
              "name": "lockedTokens",
              "type": "uint256"
            },
            {
              "internalType": "uint256",
              "name": "rangePrice",
              "type": "uint256"
            },
            {
              "internalType": "string",
              "name": "rangeName",
              "type": "string"
            }
          ],
          "internalType": "struct range",
          "name": "data",
          "type": "tuple"
        }
      ],
      "stateMutability": "view",
      "type": "function"
    },
    {
      "inputs": [
        {
          "internalType": "uint256",
          "name": "rangeId",
          "type": "uint256"
        }
      ],
      "name": "rangeInfo",
      "outputs": [
        {
          "components": [
            {
              "internalType": "uint256",
              "name": "rangeStart",
              "type": "uint256"
            },
            {
              "internalType": "uint256",
              "name": "rangeEnd",
              "type": "uint256"
            },
            {
              "internalType": "uint256",
              "name": "tokensAllowed",
              "type": "uint256"
            },
            {
              "internalType": "uint256",
              "name": "mintableTokens",
              "type": "uint256"
            },
            {
              "internalType": "uint256",
              "name": "lockedTokens",
              "type": "uint256"
            },
            {
              "internalType": "uint256",
              "name": "rangePrice",
              "type": "uint256"
            },
            {
              "internalType": "string",
              "name": "rangeName",
              "type": "string"
            }
          ],
          "internalType": "struct range",
          "name": "data",
          "type": "tuple"
        },
        {
          "internalType": "uint256",
          "name": "productIndex",
          "type": "uint256"
        }
      ],
      "stateMutability": "view",
      "type": "function"
    },
    {
      "inputs": [
        {
          "internalType": "uint256",
          "name": "rangeIndex_",
          "type": "uint256"
        }
      ],
      "name": "rangeToProduct",
      "outputs": [
        {
          "internalType": "uint256",
          "name": "",
          "type": "uint256"
        }
      ],
      "stateMutability": "view",
      "type": "function"
    },
    {
      "inputs": [
        {
          "internalType": "bytes32",
          "name": "role",
          "type": "bytes32"
        },
        {
          "internalType": "address",
          "name": "account",
          "type": "address"
        }
      ],
      "name": "renounceRole",
      "outputs": [],
      "stateMutability": "nonpayable",
      "type": "function"
    },
    {
      "inputs": [
        {
          "internalType": "bytes32",
          "name": "role",
          "type": "bytes32"
        },
        {
          "internalType": "address",
          "name": "account",
          "type": "address"
        }
      ],
      "name": "revokeRole",
      "outputs": [],
      "stateMutability": "nonpayable",
      "type": "function"
    },
    {
      "inputs": [
        {
          "internalType": "uint256",
          "name": "rangeId",
          "type": "uint256"
        },
        {
          "internalType": "string",
          "name": "name",
          "type": "string"
        },
        {
          "internalType": "uint256",
          "name": "price_",
          "type": "uint256"
        },
        {
          "internalType": "uint256",
          "name": "tokensAllowed_",
          "type": "uint256"
        },
        {
          "internalType": "uint256",
          "name": "lockedTokens_",
          "type": "uint256"
        }
      ],
      "name": "updateRange",
      "outputs": [],
      "stateMutability": "nonpayable",
      "type": "function"
    }
  ],
  "transactionHash": "0xdbad0abb279cd62f1e520ebcdbabb7481f04699f4a543e982cea2077c7394678",
  "args": [],
  "numDeployments": 1,
  "solcInputHash": "dab41e518a34db4157b5822de8d6a702",
  "bytecode": "0x608060405234801561001057600080fd5b50611ea8806100206000396000f3fe608060405234801561001057600080fd5b50600436106101005760003560e01c80636ebdacdf11610097578063ca15c87311610066578063ca15c87314610251578063d547741f14610264578063e054431114610277578063e4fbb6091461028a57600080fd5b80636ebdacdf146101df5780639010d07c146101f257806391d148541461021d578063c99931be1461023057600080fd5b80633cd97a55116100d35780633cd97a55146101865780635c5c0518146101a6578063673636b7146101b95780636e30b3d3146101cc57600080fd5b8063248a9ca3146101055780632f2ff15d1461013b57806336568abe14610150578063381f5ebb14610163575b600080fd5b6101286101133660046116a1565b6000908152600a602052604090206001015490565b6040519081526020015b60405180910390f35b61014e6101493660046116ba565b61029f565b005b61014e61015e3660046116ba565b6102ca565b6101766101713660046116a1565b61034d565b6040519015158152602001610132565b6101996101943660046116f6565b6103a6565b60405161013291906117cd565b61014e6101b43660046117e0565b6105d7565b61014e6101c7366004611875565b6107ba565b6101766101da36600461194b565b61097d565b61014e6101ed366004611977565b610b5a565b6102056102003660046116f6565b610be7565b6040516001600160a01b039091168152602001610132565b61017661022b3660046116ba565b610c08565b61024361023e3660046116a1565b610c33565b604051610132929190611a23565b61012861025f3660046116a1565b610dad565b61014e6102723660046116ba565b610dc4565b6101286102853660046116a1565b610dea565b610128600080516020611e5383398151915281565b6000828152600a60205260409020600101546102bb8133610e24565b6102c58383610e88565b505050565b6001600160a01b038116331461033f5760405162461bcd60e51b815260206004820152602f60248201527f416363657373436f6e74726f6c3a2063616e206f6e6c792072656e6f756e636560448201526e103937b632b9903337b91039b2b63360891b60648201526084015b60405180910390fd5b6103498282610f22565b5050565b600f54600090829081106103735760405162461bcd60e51b815260040161033690611a45565b600080600f01848154811061038a5761038a611a8d565b9060005260206000209060070201600401541191505b50919050565b6103e66040518060e00160405280600081526020016000815260200160008152602001600081526020016000815260200160008152602001606081525090565b600e54839081106104095760405162461bcd60e51b815260040161033690611aa3565b826000600e01858154811061042057610420611a8d565b906000526020600020906005020160040180549050116104925760405162461bcd60e51b815260206004820152602760248201527f52414952204552433732312052616e6765733a20496e76616c69642072616e676044820152660ca40d2dcc8caf60cb1b6064820152608401610336565b600e8054600f9190869081106104aa576104aa611a8d565b906000526020600020906005020160040184815481106104cc576104cc611a8d565b9060005260206000200154815481106104e7576104e7611a8d565b90600052602060002090600702016040518060e001604052908160008201548152602001600182015481526020016002820154815260200160038201548152602001600482015481526020016005820154815260200160068201805461054c90611af0565b80601f016020809104026020016040519081016040528092919081815260200182805461057890611af0565b80156105c55780601f1061059a576101008083540402835291602001916105c5565b820191906000526020600020905b8154815290600101906020018083116105a857829003601f168201915b50505050508152505091505092915050565b600080516020611e538339815191526105f08133610e24565b600e54849081106106135760405162461bcd60e51b815260040161033690611aa3565b826106605760405162461bcd60e51b815260206004820152601860248201527f52414952204552433732313a20456d70747920617272617900000000000000006044820152606401610336565b60005b838110156107b2576107a08686868481811061068157610681611a8d565b90506020028101906106939190611b25565b358787858181106106a6576106a6611a8d565b90506020028101906106b89190611b25565b602001358888868181106106ce576106ce611a8d565b90506020028101906106e09190611b25565b604001358989878181106106f6576106f6611a8d565b90506020028101906107089190611b25565b606001358a8a8881811061071e5761071e611a8d565b90506020028101906107309190611b25565b608001358b8b8981811061074657610746611a8d565b90506020028101906107589190611b25565b6107669060a0810190611b45565b8080601f016020809104026020016040519081016040528093929190818152602001838380828437600092019190915250610f9d92505050565b806107aa81611ba9565b915050610663565b505050505050565b600f54859081106107dd5760405162461bcd60e51b815260040161033690611a45565b600080516020611e538339815191526107f68133610e24565b60648510156108175760405162461bcd60e51b815260040161033690611bc4565b600080600f01888154811061082e5761082e611a8d565b9060005260206000209060070201905084816000015482600101546108539190611c11565b61085e906001611c28565b101561087c5760405162461bcd60e51b815260040161033690611c40565b80546001820154859161088e91611c11565b610899906001611c28565b10156108b75760405162461bcd60e51b815260040161033690611c9d565b6002810185905583156109165780546001820154604080519283526020830191909152810185905288907fd2deaeacc8e325d59c09833f4f8df9c144784d547a7725c7085fae3b644c93e49060600160405180910390a2600481018490555b865161092b90600683019060208a0190611608565b50600581018690556040517f675fe88181b85cb3612f534abc69fa999ba2e4744dc830488c9de8b25ec6cfd19061096b908a908a908a908a908a90611cfa565b60405180910390a15050505050505050565b6000806000600e01858154811061099657610996611a8d565b90600052602060002090600502016004018054806020026020016040519081016040528092919081815260200182805480156109f157602002820191906000526020600020905b8154815260200190600101908083116109dd575b5050505050905060005b8151811015610b4c57846000600f01838381518110610a1c57610a1c611a8d565b602002602001015181548110610a3457610a34611a8d565b90600052602060002090600702016000015411158015610a945750846000600f01838381518110610a6757610a67611a8d565b602002602001015181548110610a7f57610a7f611a8d565b90600052602060002090600702016001015410155b80610b2a5750836000600f01838381518110610ab257610ab2611a8d565b602002602001015181548110610aca57610aca611a8d565b90600052602060002090600702016000015411158015610b2a5750836000600f01838381518110610afd57610afd611a8d565b602002602001015181548110610b1557610b15611a8d565b90600052602060002090600702016001015410155b15610b3a57600092505050610b53565b80610b4481611ba9565b9150506109fb565b5060019150505b9392505050565b600080516020611e53833981519152610b738133610e24565b600e5489908110610b965760405162461bcd60e51b815260040161033690611aa3565b610bdb8a8a8a8a8a8a8a8a8080601f016020809104026020016040519081016040528093929190818152602001838380828437600092019190915250610f9d92505050565b50505050505050505050565b6000828152600b60205260408120610bff90836112c0565b90505b92915050565b6000918252600a602090815260408084206001600160a01b0393909316845291905290205460ff1690565b610c736040518060e00160405280600081526020016000815260200160008152602001600081526020016000815260200160008152602001606081525090565b600f5460009083908110610c995760405162461bcd60e51b815260040161033690611a45565b600f805485908110610cad57610cad611a8d565b90600052602060002090600702016040518060e0016040529081600082015481526020016001820154815260200160028201548152602001600382015481526020016004820154815260200160058201548152602001600682018054610d1290611af0565b80601f0160208091040260200160405190810160405280929190818152602001828054610d3e90611af0565b8015610d8b5780601f10610d6057610100808354040283529160200191610d8b565b820191906000526020600020905b815481529060010190602001808311610d6e57829003601f168201915b5050509190925250505060009485526018602052604090942054939492505050565b6000818152600b60205260408120610c02906112cc565b6000828152600a6020526040902060010154610de08133610e24565b6102c58383610f22565b600f5460009082908110610e105760405162461bcd60e51b815260040161033690611a45565b505060009081526018602052604090205490565b610e2e8282610c08565b61034957610e46816001600160a01b031660146112d6565b610e518360206112d6565b604051602001610e62929190611d30565b60408051601f198184030181529082905262461bcd60e51b825261033691600401611da5565b610e928282610c08565b610349576000828152600a602090815260408083206001600160a01b03851684529091529020805460ff19166001179055610eca3390565b6001600160a01b0316816001600160a01b0316837f2f8788117e7eff1d82e926ec794901d17c78024a50270940304540a733656f0d60405160405180910390a46000828152600b602052604090206102c59082611472565b610f2c8282610c08565b15610349576000828152600a602090815260408083206001600160a01b0385168085529252808320805460ff1916905551339285917ff6391f5c32d9c69d2a47ea670b442974b53935d1edc7fd64eb21e047a839171b9190a46000828152600b602052604090206102c59082611487565b6064841015610fbe5760405162461bcd60e51b815260040161033690611bc4565b848611156110245760405162461bcd60e51b815260206004820152602d60248201527f52414952204552433732313a20496e76616c6964207374617274696e67206f7260448201526c1032b73234b733903a37b5b2b760991b6064820152608401610336565b8261102f8787611c11565b61103a906001611c28565b10156110585760405162461bcd60e51b815260040161033690611c40565b816110638787611c11565b61106e906001611c28565b101561108c5760405162461bcd60e51b815260040161033690611c9d565b600080600e0188815481106110a3576110a3611a8d565b600091825260208220600f805460018181018084559286526005909402909201945060079091027f8d1108e10bcb7c27dddfc02ed9d693a074039d026cf4ea4240b40f7d581ac8020192916110f791611c11565b90506111048a8a8a61097d565b6111675760405162461bcd60e51b815260206004820152602e60248201527f52414952204552433732313a2043616e2774206372656174652061206c6f636b60448201526d206f6620746869732072616e676560901b6064820152608401610336565b88825560018201889055600282018690556111828989611c11565b61118d906001611c28565b60038301556004820185905584156111e757604080518a8152602081018a905290810186905281907fd2deaeacc8e325d59c09833f4f8df9c144784d547a7725c7085fae3b644c93e49060600160405180910390a2611228565b8461122857604080518a8152602081018a905282917f83d23f069f5730ce94e107a9258bae3b7a0f97184978fd7daa41c8df8ac6c29e910160405180910390a25b6005820187905583516112449060068401906020870190611608565b5060008181526018602090815260408083208d90556004860180546001810182559084529190922001829055517fc4e232d19c750404428930450f0a050bf4c166f32910679d1b9e52f17bad8347906112ac908c908c908c908c908c908c908c908a90611db8565b60405180910390a150505050505050505050565b6000610bff838361149c565b6000610c02825490565b606060006112e5836002611e06565b6112f0906002611c28565b67ffffffffffffffff8111156113085761130861185f565b6040519080825280601f01601f191660200182016040528015611332576020820181803683370190505b509050600360fc1b8160008151811061134d5761134d611a8d565b60200101906001600160f81b031916908160001a905350600f60fb1b8160018151811061137c5761137c611a8d565b60200101906001600160f81b031916908160001a90535060006113a0846002611e06565b6113ab906001611c28565b90505b6001811115611423576f181899199a1a9b1b9c1cb0b131b232b360811b85600f16601081106113df576113df611a8d565b1a60f81b8282815181106113f5576113f5611a8d565b60200101906001600160f81b031916908160001a90535060049490941c9361141c81611e25565b90506113ae565b508315610bff5760405162461bcd60e51b815260206004820181905260248201527f537472696e67733a20686578206c656e67746820696e73756666696369656e746044820152606401610336565b6000610bff836001600160a01b0384166114c6565b6000610bff836001600160a01b038416611515565b60008260000182815481106114b3576114b3611a8d565b9060005260206000200154905092915050565b600081815260018301602052604081205461150d57508154600181810184556000848152602080822090930184905584548482528286019093526040902091909155610c02565b506000610c02565b600081815260018301602052604081205480156115fe576000611539600183611c11565b855490915060009061154d90600190611c11565b90508181146115b257600086600001828154811061156d5761156d611a8d565b906000526020600020015490508087600001848154811061159057611590611a8d565b6000918252602080832090910192909255918252600188019052604090208390555b85548690806115c3576115c3611e3c565b600190038181906000526020600020016000905590558560010160008681526020019081526020016000206000905560019350505050610c02565b6000915050610c02565b82805461161490611af0565b90600052602060002090601f016020900481019282611636576000855561167c565b82601f1061164f57805160ff191683800117855561167c565b8280016001018555821561167c579182015b8281111561167c578251825591602001919060010190611661565b5061168892915061168c565b5090565b5b80821115611688576000815560010161168d565b6000602082840312156116b357600080fd5b5035919050565b600080604083850312156116cd57600080fd5b8235915060208301356001600160a01b03811681146116eb57600080fd5b809150509250929050565b6000806040838503121561170957600080fd5b50508035926020909101359150565b60005b8381101561173357818101518382015260200161171b565b83811115611742576000848401525b50505050565b60008151808452611760816020860160208601611718565b601f01601f19169290920160200192915050565b805182526020810151602083015260408101516040830152606081015160608301526080810151608083015260a081015160a0830152600060c082015160e060c08501526117c560e0850182611748565b949350505050565b602081526000610bff6020830184611774565b6000806000604084860312156117f557600080fd5b83359250602084013567ffffffffffffffff8082111561181457600080fd5b818601915086601f83011261182857600080fd5b81358181111561183757600080fd5b8760208260051b850101111561184c57600080fd5b6020830194508093505050509250925092565b634e487b7160e01b600052604160045260246000fd5b600080600080600060a0868803121561188d57600080fd5b85359450602086013567ffffffffffffffff808211156118ac57600080fd5b818801915088601f8301126118c057600080fd5b8135818111156118d2576118d261185f565b604051601f8201601f19908116603f011681019083821181831017156118fa576118fa61185f565b816040528281528b602084870101111561191357600080fd5b826020860160208301376000928101602001929092525096999698505050506040850135946060810135946080909101359350915050565b60008060006060848603121561196057600080fd5b505081359360208301359350604090920135919050565b60008060008060008060008060e0898b03121561199357600080fd5b883597506020890135965060408901359550606089013594506080890135935060a0890135925060c089013567ffffffffffffffff808211156119d557600080fd5b818b0191508b601f8301126119e957600080fd5b8135818111156119f857600080fd5b8c6020828501011115611a0a57600080fd5b6020830194508093505050509295985092959890939650565b604081526000611a366040830185611774565b90508260208301529392505050565b60208082526028908201527f52414952204552433732312052616e6765733a2052616e676520646f6573206e6040820152671bdd08195e1a5cdd60c21b606082015260800190565b634e487b7160e01b600052603260045260246000fd5b6020808252602d908201527f52414952204552433732312052616e6765733a20436f6c6c656374696f6e206460408201526c1bd95cc81b9bdd08195e1a5cdd609a1b606082015260800190565b600181811c90821680611b0457607f821691505b602082108114156103a057634e487b7160e01b600052602260045260246000fd5b6000823560be19833603018112611b3b57600080fd5b9190910192915050565b6000808335601e19843603018112611b5c57600080fd5b83018035915067ffffffffffffffff821115611b7757600080fd5b602001915036819003821315611b8c57600080fd5b9250929050565b634e487b7160e01b600052601160045260246000fd5b6000600019821415611bbd57611bbd611b93565b5060010190565b6020808252602d908201527f52414952204552433732313a204d696e696d756d20707269636520616c6c6f7760408201526c6564206973203130302077656960981b606082015260800190565b600082821015611c2357611c23611b93565b500390565b60008219821115611c3b57611c3b611b93565b500190565b6020808252603e908201527f52414952204552433732313a20416c6c6f77656420746f6b656e732073686f7560408201527f6c64206265206c657373207468616e2072616e67652773206c656e6774680000606082015260800190565b6020808252603d908201527f52414952204552433732313a204c6f636b656420746f6b656e732073686f756c60408201527f64206265206c657373207468616e2072616e67652773206c656e677468000000606082015260800190565b85815260a060208201526000611d1360a0830187611748565b604083019590955250606081019290925260809091015292915050565b7f416363657373436f6e74726f6c3a206163636f756e7420000000000000000000815260008351611d68816017850160208801611718565b7001034b99036b4b9b9b4b733903937b6329607d1b6017918401918201528351611d99816028840160208801611718565b01602801949350505050565b602081526000610bff6020830184611748565b60006101008a83528960208401528860408401528760608401528660808401528560a08401528060c0840152611df081840186611748565b9150508260e08301529998505050505050505050565b6000816000190483118215151615611e2057611e20611b93565b500290565b600081611e3457611e34611b93565b506000190190565b634e487b7160e01b600052603160045260246000fdfe3c2519c4487d47714872f92cf90a50c25f5deaec2789dc2a497b1272df611db6a2646970667358221220c607f3fda7ab52eae165d9ee8e4ba55c31cd157d04ac51e4dd7c8e38e75deade64736f6c634300080b0033",
  "devdoc": {
    "kind": "dev",
    "methods": {},
    "version": 1
  },
  "userdoc": {
    "kind": "user",
    "methods": {},
    "version": 1
  },
  "storageLayout": {
    "storage": [
      {
        "astId": 7998,
        "contract": "contracts/tokens/RAIR Token Facets/RangesFacet.sol:RAIRRangesFacet",
        "label": "s",
        "offset": 0,
        "slot": "0",
        "type": "t_struct(AppStorage721)7984_storage"
      }
    ],
    "types": {
      "t_address": {
        "encoding": "inplace",
        "label": "address",
        "numberOfBytes": "20"
      },
      "t_array(t_bytes32)dyn_storage": {
        "base": "t_bytes32",
        "encoding": "dynamic_array",
        "label": "bytes32[]",
        "numberOfBytes": "32"
      },
      "t_array(t_struct(product)7883_storage)dyn_storage": {
        "base": "t_struct(product)7883_storage",
        "encoding": "dynamic_array",
        "label": "struct product[]",
        "numberOfBytes": "32"
      },
      "t_array(t_struct(range)7871_storage)dyn_storage": {
        "base": "t_struct(range)7871_storage",
        "encoding": "dynamic_array",
        "label": "struct range[]",
        "numberOfBytes": "32"
      },
      "t_array(t_uint256)dyn_storage": {
        "base": "t_uint256",
        "encoding": "dynamic_array",
        "label": "uint256[]",
        "numberOfBytes": "32"
      },
      "t_bool": {
        "encoding": "inplace",
        "label": "bool",
        "numberOfBytes": "1"
      },
      "t_bytes32": {
        "encoding": "inplace",
        "label": "bytes32",
        "numberOfBytes": "32"
      },
      "t_mapping(t_address,t_bool)": {
        "encoding": "mapping",
        "key": "t_address",
        "label": "mapping(address => bool)",
        "numberOfBytes": "32",
        "value": "t_bool"
      },
      "t_mapping(t_address,t_mapping(t_address,t_bool))": {
        "encoding": "mapping",
        "key": "t_address",
        "label": "mapping(address => mapping(address => bool))",
        "numberOfBytes": "32",
        "value": "t_mapping(t_address,t_bool)"
      },
      "t_mapping(t_address,t_mapping(t_uint256,t_uint256))": {
        "encoding": "mapping",
        "key": "t_address",
        "label": "mapping(address => mapping(uint256 => uint256))",
        "numberOfBytes": "32",
        "value": "t_mapping(t_uint256,t_uint256)"
      },
      "t_mapping(t_address,t_uint256)": {
        "encoding": "mapping",
        "key": "t_address",
        "label": "mapping(address => uint256)",
        "numberOfBytes": "32",
        "value": "t_uint256"
      },
      "t_mapping(t_bytes32,t_struct(AddressSet)2662_storage)": {
        "encoding": "mapping",
        "key": "t_bytes32",
        "label": "mapping(bytes32 => struct EnumerableSet.AddressSet)",
        "numberOfBytes": "32",
        "value": "t_struct(AddressSet)2662_storage"
      },
      "t_mapping(t_bytes32,t_struct(RoleData)5744_storage)": {
        "encoding": "mapping",
        "key": "t_bytes32",
        "label": "mapping(bytes32 => struct RoleData)",
        "numberOfBytes": "32",
        "value": "t_struct(RoleData)5744_storage"
      },
      "t_mapping(t_bytes32,t_uint256)": {
        "encoding": "mapping",
        "key": "t_bytes32",
        "label": "mapping(bytes32 => uint256)",
        "numberOfBytes": "32",
        "value": "t_uint256"
      },
      "t_mapping(t_uint256,t_address)": {
        "encoding": "mapping",
        "key": "t_uint256",
        "label": "mapping(uint256 => address)",
        "numberOfBytes": "32",
        "value": "t_address"
      },
      "t_mapping(t_uint256,t_array(t_uint256)dyn_storage)": {
        "encoding": "mapping",
        "key": "t_uint256",
        "label": "mapping(uint256 => uint256[])",
        "numberOfBytes": "32",
        "value": "t_array(t_uint256)dyn_storage"
      },
      "t_mapping(t_uint256,t_bool)": {
        "encoding": "mapping",
        "key": "t_uint256",
        "label": "mapping(uint256 => bool)",
        "numberOfBytes": "32",
        "value": "t_bool"
      },
      "t_mapping(t_uint256,t_string_storage)": {
        "encoding": "mapping",
        "key": "t_uint256",
        "label": "mapping(uint256 => string)",
        "numberOfBytes": "32",
        "value": "t_string_storage"
      },
      "t_mapping(t_uint256,t_uint256)": {
        "encoding": "mapping",
        "key": "t_uint256",
        "label": "mapping(uint256 => uint256)",
        "numberOfBytes": "32",
        "value": "t_uint256"
      },
      "t_string_storage": {
        "encoding": "bytes",
        "label": "string",
        "numberOfBytes": "32"
      },
      "t_struct(AddressSet)2662_storage": {
        "encoding": "inplace",
        "label": "struct EnumerableSet.AddressSet",
        "members": [
          {
            "astId": 2661,
            "contract": "contracts/tokens/RAIR Token Facets/RangesFacet.sol:RAIRRangesFacet",
            "label": "_inner",
            "offset": 0,
            "slot": "0",
            "type": "t_struct(Set)2361_storage"
          }
        ],
        "numberOfBytes": "64"
      },
      "t_struct(AppStorage721)7984_storage": {
        "encoding": "inplace",
        "label": "struct AppStorage721",
        "members": [
          {
            "astId": 7885,
            "contract": "contracts/tokens/RAIR Token Facets/RangesFacet.sol:RAIRRangesFacet",
            "label": "_name",
            "offset": 0,
            "slot": "0",
            "type": "t_string_storage"
          },
          {
            "astId": 7887,
            "contract": "contracts/tokens/RAIR Token Facets/RangesFacet.sol:RAIRRangesFacet",
            "label": "_symbol",
            "offset": 0,
            "slot": "1",
            "type": "t_string_storage"
          },
          {
            "astId": 7891,
            "contract": "contracts/tokens/RAIR Token Facets/RangesFacet.sol:RAIRRangesFacet",
            "label": "_owners",
            "offset": 0,
            "slot": "2",
            "type": "t_mapping(t_uint256,t_address)"
          },
          {
            "astId": 7895,
            "contract": "contracts/tokens/RAIR Token Facets/RangesFacet.sol:RAIRRangesFacet",
            "label": "_balances",
            "offset": 0,
            "slot": "3",
            "type": "t_mapping(t_address,t_uint256)"
          },
          {
            "astId": 7899,
            "contract": "contracts/tokens/RAIR Token Facets/RangesFacet.sol:RAIRRangesFacet",
            "label": "_tokenApprovals",
            "offset": 0,
            "slot": "4",
            "type": "t_mapping(t_uint256,t_address)"
          },
          {
            "astId": 7905,
            "contract": "contracts/tokens/RAIR Token Facets/RangesFacet.sol:RAIRRangesFacet",
            "label": "_operatorApprovals",
            "offset": 0,
            "slot": "5",
            "type": "t_mapping(t_address,t_mapping(t_address,t_bool))"
          },
          {
            "astId": 7911,
            "contract": "contracts/tokens/RAIR Token Facets/RangesFacet.sol:RAIRRangesFacet",
            "label": "_ownedTokens",
            "offset": 0,
            "slot": "6",
            "type": "t_mapping(t_address,t_mapping(t_uint256,t_uint256))"
          },
          {
            "astId": 7915,
            "contract": "contracts/tokens/RAIR Token Facets/RangesFacet.sol:RAIRRangesFacet",
            "label": "_ownedTokensIndex",
            "offset": 0,
            "slot": "7",
            "type": "t_mapping(t_uint256,t_uint256)"
          },
          {
            "astId": 7918,
            "contract": "contracts/tokens/RAIR Token Facets/RangesFacet.sol:RAIRRangesFacet",
            "label": "_allTokens",
            "offset": 0,
            "slot": "8",
            "type": "t_array(t_uint256)dyn_storage"
          },
          {
            "astId": 7922,
            "contract": "contracts/tokens/RAIR Token Facets/RangesFacet.sol:RAIRRangesFacet",
            "label": "_allTokensIndex",
            "offset": 0,
            "slot": "9",
            "type": "t_mapping(t_uint256,t_uint256)"
          },
          {
            "astId": 7927,
            "contract": "contracts/tokens/RAIR Token Facets/RangesFacet.sol:RAIRRangesFacet",
            "label": "_roles",
            "offset": 0,
            "slot": "10",
            "type": "t_mapping(t_bytes32,t_struct(RoleData)5744_storage)"
          },
          {
            "astId": 7932,
            "contract": "contracts/tokens/RAIR Token Facets/RangesFacet.sol:RAIRRangesFacet",
            "label": "_roleMembers",
            "offset": 0,
            "slot": "11",
            "type": "t_mapping(t_bytes32,t_struct(AddressSet)2662_storage)"
          },
          {
            "astId": 7934,
            "contract": "contracts/tokens/RAIR Token Facets/RangesFacet.sol:RAIRRangesFacet",
            "label": "baseURI",
            "offset": 0,
            "slot": "12",
            "type": "t_string_storage"
          },
          {
            "astId": 7936,
            "contract": "contracts/tokens/RAIR Token Facets/RangesFacet.sol:RAIRRangesFacet",
            "label": "factoryAddress",
            "offset": 0,
            "slot": "13",
            "type": "t_address"
          },
          {
            "astId": 7938,
            "contract": "contracts/tokens/RAIR Token Facets/RangesFacet.sol:RAIRRangesFacet",
            "label": "royaltyFee",
            "offset": 20,
            "slot": "13",
            "type": "t_uint16"
          },
          {
            "astId": 7942,
            "contract": "contracts/tokens/RAIR Token Facets/RangesFacet.sol:RAIRRangesFacet",
            "label": "products",
            "offset": 0,
            "slot": "14",
            "type": "t_array(t_struct(product)7883_storage)dyn_storage"
          },
          {
            "astId": 7946,
            "contract": "contracts/tokens/RAIR Token Facets/RangesFacet.sol:RAIRRangesFacet",
            "label": "ranges",
            "offset": 0,
            "slot": "15",
            "type": "t_array(t_struct(range)7871_storage)dyn_storage"
          },
          {
            "astId": 7950,
            "contract": "contracts/tokens/RAIR Token Facets/RangesFacet.sol:RAIRRangesFacet",
            "label": "tokenToProduct",
            "offset": 0,
            "slot": "16",
            "type": "t_mapping(t_uint256,t_uint256)"
          },
          {
            "astId": 7954,
            "contract": "contracts/tokens/RAIR Token Facets/RangesFacet.sol:RAIRRangesFacet",
            "label": "tokenToRange",
            "offset": 0,
            "slot": "17",
            "type": "t_mapping(t_uint256,t_uint256)"
          },
          {
            "astId": 7958,
            "contract": "contracts/tokens/RAIR Token Facets/RangesFacet.sol:RAIRRangesFacet",
            "label": "uniqueTokenURI",
            "offset": 0,
            "slot": "18",
            "type": "t_mapping(t_uint256,t_string_storage)"
          },
          {
            "astId": 7962,
            "contract": "contracts/tokens/RAIR Token Facets/RangesFacet.sol:RAIRRangesFacet",
            "label": "productURI",
            "offset": 0,
            "slot": "19",
            "type": "t_mapping(t_uint256,t_string_storage)"
          },
          {
            "astId": 7966,
            "contract": "contracts/tokens/RAIR Token Facets/RangesFacet.sol:RAIRRangesFacet",
            "label": "appendTokenIndexToProductURI",
            "offset": 0,
            "slot": "20",
            "type": "t_mapping(t_uint256,t_bool)"
          },
          {
            "astId": 7968,
            "contract": "contracts/tokens/RAIR Token Facets/RangesFacet.sol:RAIRRangesFacet",
            "label": "appendTokenIndexToBaseURI",
            "offset": 0,
            "slot": "21",
            "type": "t_bool"
          },
          {
            "astId": 7973,
            "contract": "contracts/tokens/RAIR Token Facets/RangesFacet.sol:RAIRRangesFacet",
            "label": "tokensByProduct",
            "offset": 0,
            "slot": "22",
            "type": "t_mapping(t_uint256,t_array(t_uint256)dyn_storage)"
          },
          {
            "astId": 7975,
            "contract": "contracts/tokens/RAIR Token Facets/RangesFacet.sol:RAIRRangesFacet",
            "label": "contractMetadataURI",
            "offset": 0,
            "slot": "23",
            "type": "t_string_storage"
          },
          {
            "astId": 7979,
            "contract": "contracts/tokens/RAIR Token Facets/RangesFacet.sol:RAIRRangesFacet",
            "label": "rangeToProduct",
            "offset": 0,
            "slot": "24",
            "type": "t_mapping(t_uint256,t_uint256)"
          },
          {
            "astId": 7983,
            "contract": "contracts/tokens/RAIR Token Facets/RangesFacet.sol:RAIRRangesFacet",
            "label": "_minted",
            "offset": 0,
            "slot": "25",
            "type": "t_mapping(t_uint256,t_bool)"
          }
        ],
        "numberOfBytes": "832"
      },
      "t_struct(RoleData)5744_storage": {
        "encoding": "inplace",
        "label": "struct RoleData",
        "members": [
          {
            "astId": 5741,
            "contract": "contracts/tokens/RAIR Token Facets/RangesFacet.sol:RAIRRangesFacet",
            "label": "members",
            "offset": 0,
            "slot": "0",
            "type": "t_mapping(t_address,t_bool)"
          },
          {
            "astId": 5743,
            "contract": "contracts/tokens/RAIR Token Facets/RangesFacet.sol:RAIRRangesFacet",
            "label": "adminRole",
            "offset": 0,
            "slot": "1",
            "type": "t_bytes32"
          }
        ],
        "numberOfBytes": "64"
      },
      "t_struct(Set)2361_storage": {
        "encoding": "inplace",
        "label": "struct EnumerableSet.Set",
        "members": [
          {
            "astId": 2356,
            "contract": "contracts/tokens/RAIR Token Facets/RangesFacet.sol:RAIRRangesFacet",
            "label": "_values",
            "offset": 0,
            "slot": "0",
            "type": "t_array(t_bytes32)dyn_storage"
          },
          {
            "astId": 2360,
            "contract": "contracts/tokens/RAIR Token Facets/RangesFacet.sol:RAIRRangesFacet",
            "label": "_indexes",
            "offset": 0,
            "slot": "1",
            "type": "t_mapping(t_bytes32,t_uint256)"
          }
        ],
        "numberOfBytes": "64"
      },
      "t_struct(product)7883_storage": {
        "encoding": "inplace",
        "label": "struct product",
        "members": [
          {
            "astId": 7873,
            "contract": "contracts/tokens/RAIR Token Facets/RangesFacet.sol:RAIRRangesFacet",
            "label": "startingToken",
            "offset": 0,
            "slot": "0",
            "type": "t_uint256"
          },
          {
            "astId": 7875,
            "contract": "contracts/tokens/RAIR Token Facets/RangesFacet.sol:RAIRRangesFacet",
            "label": "endingToken",
            "offset": 0,
            "slot": "1",
            "type": "t_uint256"
          },
          {
            "astId": 7877,
            "contract": "contracts/tokens/RAIR Token Facets/RangesFacet.sol:RAIRRangesFacet",
            "label": "mintableTokens",
            "offset": 0,
            "slot": "2",
            "type": "t_uint256"
          },
          {
            "astId": 7879,
            "contract": "contracts/tokens/RAIR Token Facets/RangesFacet.sol:RAIRRangesFacet",
            "label": "name",
            "offset": 0,
            "slot": "3",
            "type": "t_string_storage"
          },
          {
            "astId": 7882,
            "contract": "contracts/tokens/RAIR Token Facets/RangesFacet.sol:RAIRRangesFacet",
            "label": "rangeList",
            "offset": 0,
            "slot": "4",
            "type": "t_array(t_uint256)dyn_storage"
          }
        ],
        "numberOfBytes": "160"
      },
      "t_struct(range)7871_storage": {
        "encoding": "inplace",
        "label": "struct range",
        "members": [
          {
            "astId": 7858,
            "contract": "contracts/tokens/RAIR Token Facets/RangesFacet.sol:RAIRRangesFacet",
            "label": "rangeStart",
            "offset": 0,
            "slot": "0",
            "type": "t_uint256"
          },
          {
            "astId": 7860,
            "contract": "contracts/tokens/RAIR Token Facets/RangesFacet.sol:RAIRRangesFacet",
            "label": "rangeEnd",
            "offset": 0,
            "slot": "1",
            "type": "t_uint256"
          },
          {
            "astId": 7862,
            "contract": "contracts/tokens/RAIR Token Facets/RangesFacet.sol:RAIRRangesFacet",
            "label": "tokensAllowed",
            "offset": 0,
            "slot": "2",
            "type": "t_uint256"
          },
          {
            "astId": 7864,
            "contract": "contracts/tokens/RAIR Token Facets/RangesFacet.sol:RAIRRangesFacet",
            "label": "mintableTokens",
            "offset": 0,
            "slot": "3",
            "type": "t_uint256"
          },
          {
            "astId": 7866,
            "contract": "contracts/tokens/RAIR Token Facets/RangesFacet.sol:RAIRRangesFacet",
            "label": "lockedTokens",
            "offset": 0,
            "slot": "4",
            "type": "t_uint256"
          },
          {
            "astId": 7868,
            "contract": "contracts/tokens/RAIR Token Facets/RangesFacet.sol:RAIRRangesFacet",
            "label": "rangePrice",
            "offset": 0,
            "slot": "5",
            "type": "t_uint256"
          },
          {
            "astId": 7870,
            "contract": "contracts/tokens/RAIR Token Facets/RangesFacet.sol:RAIRRangesFacet",
            "label": "rangeName",
            "offset": 0,
            "slot": "6",
            "type": "t_string_storage"
          }
        ],
        "numberOfBytes": "224"
      },
      "t_uint16": {
        "encoding": "inplace",
        "label": "uint16",
        "numberOfBytes": "2"
      },
      "t_uint256": {
        "encoding": "inplace",
        "label": "uint256",
        "numberOfBytes": "32"
      }
    }
  }
}