{
  "_format": "hh-sol-artifact-1",
  "contractName": "RAIR_ERC721",
  "sourceName": "contracts/RAIR-ERC721.sol",
  "abi": [
    {
      "inputs": [
        {
          "internalType": "address",
          "name": "_creatorAddress",
          "type": "address"
        },
        {
          "internalType": "uint256",
          "name": "_supplyLimit",
          "type": "uint256"
        },
        {
          "internalType": "uint16",
          "name": "_creatorRoyalty",
          "type": "uint16"
        }
      ],
      "stateMutability": "nonpayable",
      "type": "constructor"
    },
    {
      "anonymous": false,
      "inputs": [
        {
          "indexed": true,
          "internalType": "address",
          "name": "owner",
          "type": "address"
        },
        {
          "indexed": true,
          "internalType": "address",
          "name": "approved",
          "type": "address"
        },
        {
          "indexed": true,
          "internalType": "uint256",
          "name": "tokenId",
          "type": "uint256"
        }
      ],
      "name": "Approval",
      "type": "event"
    },
    {
      "anonymous": false,
      "inputs": [
        {
          "indexed": true,
          "internalType": "address",
          "name": "owner",
          "type": "address"
        },
        {
          "indexed": true,
          "internalType": "address",
          "name": "operator",
          "type": "address"
        },
        {
          "indexed": false,
          "internalType": "bool",
          "name": "approved",
          "type": "bool"
        }
      ],
      "name": "ApprovalForAll",
      "type": "event"
    },
    {
      "anonymous": false,
      "inputs": [
        {
          "indexed": true,
          "internalType": "bytes32",
          "name": "role",
          "type": "bytes32"
        },
        {
          "indexed": true,
          "internalType": "bytes32",
          "name": "previousAdminRole",
          "type": "bytes32"
        },
        {
          "indexed": true,
          "internalType": "bytes32",
          "name": "newAdminRole",
          "type": "bytes32"
        }
      ],
      "name": "RoleAdminChanged",
      "type": "event"
    },
    {
      "anonymous": false,
      "inputs": [
        {
          "indexed": true,
          "internalType": "bytes32",
          "name": "role",
          "type": "bytes32"
        },
        {
          "indexed": true,
          "internalType": "address",
          "name": "account",
          "type": "address"
        },
        {
          "indexed": true,
          "internalType": "address",
          "name": "sender",
          "type": "address"
        }
      ],
      "name": "RoleGranted",
      "type": "event"
    },
    {
      "anonymous": false,
      "inputs": [
        {
          "indexed": true,
          "internalType": "bytes32",
          "name": "role",
          "type": "bytes32"
        },
        {
          "indexed": true,
          "internalType": "address",
          "name": "account",
          "type": "address"
        },
        {
          "indexed": true,
          "internalType": "address",
          "name": "sender",
          "type": "address"
        }
      ],
      "name": "RoleRevoked",
      "type": "event"
    },
    {
      "anonymous": false,
      "inputs": [
        {
          "indexed": true,
          "internalType": "address",
          "name": "from",
          "type": "address"
        },
        {
          "indexed": true,
          "internalType": "address",
          "name": "to",
          "type": "address"
        },
        {
          "indexed": true,
          "internalType": "uint256",
          "name": "tokenId",
          "type": "uint256"
        }
      ],
      "name": "Transfer",
      "type": "event"
    },
    {
      "inputs": [],
      "name": "CREATOR",
      "outputs": [
        {
          "internalType": "bytes32",
          "name": "",
          "type": "bytes32"
        }
      ],
      "stateMutability": "view",
      "type": "function"
    },
    {
      "inputs": [],
      "name": "DEFAULT_ADMIN_ROLE",
      "outputs": [
        {
          "internalType": "bytes32",
          "name": "",
          "type": "bytes32"
        }
      ],
      "stateMutability": "view",
      "type": "function"
    },
    {
      "inputs": [],
      "name": "MINTER",
      "outputs": [
        {
          "internalType": "bytes32",
          "name": "",
          "type": "bytes32"
        }
      ],
      "stateMutability": "view",
      "type": "function"
    },
    {
      "inputs": [
        {
          "internalType": "address",
          "name": "_minterAddress",
          "type": "address"
        }
      ],
      "name": "addMinter",
      "outputs": [],
      "stateMutability": "nonpayable",
      "type": "function"
    },
    {
      "inputs": [
        {
          "internalType": "address",
          "name": "to",
          "type": "address"
        },
        {
          "internalType": "uint256",
          "name": "tokenId",
          "type": "uint256"
        }
      ],
      "name": "approve",
      "outputs": [],
      "stateMutability": "nonpayable",
      "type": "function"
    },
    {
      "inputs": [
        {
          "internalType": "address",
          "name": "owner",
          "type": "address"
        }
      ],
      "name": "balanceOf",
      "outputs": [
        {
          "internalType": "uint256",
          "name": "",
          "type": "uint256"
        }
      ],
      "stateMutability": "view",
      "type": "function"
    },
    {
      "inputs": [],
      "name": "creatorAddress",
      "outputs": [
        {
          "internalType": "address",
          "name": "",
          "type": "address"
        }
      ],
      "stateMutability": "view",
      "type": "function"
    },
    {
      "inputs": [
        {
          "internalType": "uint256",
          "name": "tokenId",
          "type": "uint256"
        }
      ],
      "name": "getApproved",
      "outputs": [
        {
          "internalType": "address",
          "name": "",
          "type": "address"
        }
      ],
      "stateMutability": "view",
      "type": "function"
    },
    {
      "inputs": [
        {
          "internalType": "bytes32",
          "name": "role",
          "type": "bytes32"
        }
      ],
      "name": "getRoleAdmin",
      "outputs": [
        {
          "internalType": "bytes32",
          "name": "",
          "type": "bytes32"
        }
      ],
      "stateMutability": "view",
      "type": "function"
    },
    {
      "inputs": [
        {
          "internalType": "bytes32",
          "name": "role",
          "type": "bytes32"
        },
        {
          "internalType": "address",
          "name": "account",
          "type": "address"
        }
      ],
      "name": "grantRole",
      "outputs": [],
      "stateMutability": "nonpayable",
      "type": "function"
    },
    {
      "inputs": [
        {
          "internalType": "bytes32",
          "name": "role",
          "type": "bytes32"
        },
        {
          "internalType": "address",
          "name": "account",
          "type": "address"
        }
      ],
      "name": "hasRole",
      "outputs": [
        {
          "internalType": "bool",
          "name": "",
          "type": "bool"
        }
      ],
      "stateMutability": "view",
      "type": "function"
    },
    {
      "inputs": [
        {
          "internalType": "address",
          "name": "owner",
          "type": "address"
        },
        {
          "internalType": "address",
          "name": "operator",
          "type": "address"
        }
      ],
      "name": "isApprovedForAll",
      "outputs": [
        {
          "internalType": "bool",
          "name": "",
          "type": "bool"
        }
      ],
      "stateMutability": "view",
      "type": "function"
    },
    {
      "inputs": [
        {
          "internalType": "address",
          "name": "to",
          "type": "address"
        },
        {
          "internalType": "uint256",
          "name": "tokenId",
          "type": "uint256"
        }
      ],
      "name": "mint",
      "outputs": [],
      "stateMutability": "nonpayable",
      "type": "function"
    },
    {
      "inputs": [],
      "name": "name",
      "outputs": [
        {
          "internalType": "string",
          "name": "",
          "type": "string"
        }
      ],
      "stateMutability": "view",
      "type": "function"
    },
    {
      "inputs": [
        {
          "internalType": "uint256",
          "name": "tokenId",
          "type": "uint256"
        }
      ],
      "name": "ownerOf",
      "outputs": [
        {
          "internalType": "address",
          "name": "",
          "type": "address"
        }
      ],
      "stateMutability": "view",
      "type": "function"
    },
    {
      "inputs": [
        {
          "internalType": "address",
          "name": "_minterAddress",
          "type": "address"
        }
      ],
      "name": "removeMinter",
      "outputs": [],
      "stateMutability": "nonpayable",
      "type": "function"
    },
    {
      "inputs": [
        {
          "internalType": "bytes32",
          "name": "role",
          "type": "bytes32"
        },
        {
          "internalType": "address",
          "name": "account",
          "type": "address"
        }
      ],
      "name": "renounceRole",
      "outputs": [],
      "stateMutability": "nonpayable",
      "type": "function"
    },
    {
      "inputs": [
        {
          "internalType": "bytes32",
          "name": "role",
          "type": "bytes32"
        },
        {
          "internalType": "address",
          "name": "account",
          "type": "address"
        }
      ],
      "name": "revokeRole",
      "outputs": [],
      "stateMutability": "nonpayable",
      "type": "function"
    },
    {
      "inputs": [
        {
          "internalType": "uint256",
          "name": "_tokenId",
          "type": "uint256"
        },
        {
          "internalType": "uint256",
          "name": "_value",
          "type": "uint256"
        },
        {
          "internalType": "bytes",
          "name": "_data",
          "type": "bytes"
        }
      ],
      "name": "royaltyInfo",
      "outputs": [
        {
          "internalType": "address",
          "name": "_receiver",
          "type": "address"
        },
        {
          "internalType": "uint256",
          "name": "_royaltyAmount",
          "type": "uint256"
        },
        {
          "internalType": "bytes",
          "name": "_royaltyPaymentData",
          "type": "bytes"
        }
      ],
      "stateMutability": "view",
      "type": "function"
    },
    {
      "inputs": [
        {
          "internalType": "address",
          "name": "from",
          "type": "address"
        },
        {
          "internalType": "address",
          "name": "to",
          "type": "address"
        },
        {
          "internalType": "uint256",
          "name": "tokenId",
          "type": "uint256"
        }
      ],
      "name": "safeTransferFrom",
      "outputs": [],
      "stateMutability": "nonpayable",
      "type": "function"
    },
    {
      "inputs": [
        {
          "internalType": "address",
          "name": "from",
          "type": "address"
        },
        {
          "internalType": "address",
          "name": "to",
          "type": "address"
        },
        {
          "internalType": "uint256",
          "name": "tokenId",
          "type": "uint256"
        },
        {
          "internalType": "bytes",
          "name": "_data",
          "type": "bytes"
        }
      ],
      "name": "safeTransferFrom",
      "outputs": [],
      "stateMutability": "nonpayable",
      "type": "function"
    },
    {
      "inputs": [
        {
          "internalType": "address",
          "name": "operator",
          "type": "address"
        },
        {
          "internalType": "bool",
          "name": "approved",
          "type": "bool"
        }
      ],
      "name": "setApprovalForAll",
      "outputs": [],
      "stateMutability": "nonpayable",
      "type": "function"
    },
    {
      "inputs": [
        {
          "internalType": "uint256",
          "name": "_newLimit",
          "type": "uint256"
        }
      ],
      "name": "setSupplyLimit",
      "outputs": [],
      "stateMutability": "nonpayable",
      "type": "function"
    },
    {
      "inputs": [],
      "name": "supplyLimit",
      "outputs": [
        {
          "internalType": "uint256",
          "name": "",
          "type": "uint256"
        }
      ],
      "stateMutability": "view",
      "type": "function"
    },
    {
      "inputs": [
        {
          "internalType": "bytes4",
          "name": "interfaceId",
          "type": "bytes4"
        }
      ],
      "name": "supportsInterface",
      "outputs": [
        {
          "internalType": "bool",
          "name": "",
          "type": "bool"
        }
      ],
      "stateMutability": "view",
      "type": "function"
    },
    {
      "inputs": [],
      "name": "symbol",
      "outputs": [
        {
          "internalType": "string",
          "name": "",
          "type": "string"
        }
      ],
      "stateMutability": "view",
      "type": "function"
    },
    {
      "inputs": [
        {
          "internalType": "uint256",
          "name": "index",
          "type": "uint256"
        }
      ],
      "name": "tokenByIndex",
      "outputs": [
        {
          "internalType": "uint256",
          "name": "",
          "type": "uint256"
        }
      ],
      "stateMutability": "view",
      "type": "function"
    },
    {
      "inputs": [
        {
          "internalType": "address",
          "name": "owner",
          "type": "address"
        },
        {
          "internalType": "uint256",
          "name": "index",
          "type": "uint256"
        }
      ],
      "name": "tokenOfOwnerByIndex",
      "outputs": [
        {
          "internalType": "uint256",
          "name": "",
          "type": "uint256"
        }
      ],
      "stateMutability": "view",
      "type": "function"
    },
    {
      "inputs": [
        {
          "internalType": "uint256",
          "name": "tokenId",
          "type": "uint256"
        }
      ],
      "name": "tokenURI",
      "outputs": [
        {
          "internalType": "string",
          "name": "",
          "type": "string"
        }
      ],
      "stateMutability": "view",
      "type": "function"
    },
    {
      "inputs": [],
      "name": "totalSupply",
      "outputs": [
        {
          "internalType": "uint256",
          "name": "",
          "type": "uint256"
        }
      ],
      "stateMutability": "view",
      "type": "function"
    },
    {
      "inputs": [
        {
          "internalType": "address",
          "name": "from",
          "type": "address"
        },
        {
          "internalType": "address",
          "name": "to",
          "type": "address"
        },
        {
          "internalType": "uint256",
          "name": "tokenId",
          "type": "uint256"
        }
      ],
      "name": "transferFrom",
      "outputs": [],
      "stateMutability": "nonpayable",
      "type": "function"
    }
  ],
  "bytecode": "0x60806040523480156200001157600080fd5b50604051620029dc380380620029dc833981016040819052620000349162000304565b604080518082018252601681527f436f6c6c65637461626c65205241495220546f6b656e000000000000000000006020808301918252835180850190945260048452632920a4a960e11b90840152815191929162000095916000916200025e565b508051620000ab9060019060208401906200025e565b5050600b8054336001600160a01b031991821617909155600e805461ffff191661ffff8516179055600d849055600c80549091166001600160a01b0386161790555062000117600080516020620029bc8339815191526000805160206200299c83398151915262000156565b620001326000805160206200299c83398151915284620001aa565b6200014d600080516020620029bc83398151915284620001aa565b50505062000397565b6000828152600a6020526040902060010154819060405184907fbd79b86ffe0ab8e8776151514217cd7cacd52c909f66475c3af44e129f0b00ff90600090a46000918252600a602052604090912060010155565b620001b68282620001ba565b5050565b6000828152600a602090815260408083206001600160a01b038516845290915290205460ff16620001b6576000828152600a602090815260408083206001600160a01b03851684529091529020805460ff191660011790556200021a3390565b6001600160a01b0316816001600160a01b0316837f2f8788117e7eff1d82e926ec794901d17c78024a50270940304540a733656f0d60405160405180910390a45050565b8280546200026c906200035a565b90600052602060002090601f016020900481019282620002905760008555620002db565b82601f10620002ab57805160ff1916838001178555620002db565b82800160010185558215620002db579182015b82811115620002db578251825591602001919060010190620002be565b50620002e9929150620002ed565b5090565b5b80821115620002e95760008155600101620002ee565b60008060006060848603121562000319578283fd5b83516001600160a01b038116811462000330578384fd5b60208501516040860151919450925061ffff811681146200034f578182fd5b809150509250925092565b600181811c908216806200036f57607f821691505b602082108114156200039157634e487b7160e01b600052602260045260246000fd5b50919050565b6125f580620003a76000396000f3fe608060405234801561001057600080fd5b50600436106101e55760003560e01c80634f6ccce71161010f578063b88d4fde116100a2578063e4fbb60911610071578063e4fbb60914610440578063e927fc5c14610467578063e985e9c51461047a578063fe6d8124146104b657600080fd5b8063b88d4fde146103e5578063c155531d146103f8578063c87b56dd1461041a578063d547741f1461042d57600080fd5b806395d89b41116100de57806395d89b41146103af578063983b2d56146103b7578063a217fddf146103ca578063a22cb465146103d257600080fd5b80634f6ccce71461033d5780636352211e1461035057806370a082311461036357806391d148541461037657600080fd5b8063248a9ca311610187578063361fab2511610156578063361fab25146102f157806336568abe1461030457806340c10f191461031757806342842e0e1461032a57600080fd5b8063248a9ca3146102955780632f2ff15d146102b85780632f745c59146102cb5780633092afd5146102de57600080fd5b8063095ea7b3116101c3578063095ea7b31461025257806318160ddd1461026757806319d1997a1461027957806323b872dd1461028257600080fd5b806301ffc9a7146101ea57806306fdde0314610212578063081812fc14610227575b600080fd5b6101fd6101f8366004612246565b6104dd565b60405190151581526020015b60405180910390f35b61021a610521565b6040516102099190612442565b61023a61023536600461220c565b6105b3565b6040516001600160a01b039091168152602001610209565b6102656102603660046121e3565b61064d565b005b6008545b604051908152602001610209565b61026b600d5481565b610265610290366004612099565b61077f565b61026b6102a336600461220c565b6000908152600a602052604090206001015490565b6102656102c6366004612224565b610806565b61026b6102d93660046121e3565b61082c565b6102656102ec36600461204d565b6108d4565b6102656102ff36600461220c565b61092d565b610265610312366004612224565b6109d5565b6102656103253660046121e3565b610a5d565b610265610338366004612099565b610b0a565b61026b61034b36600461220c565b610b25565b61023a61035e36600461220c565b610bd7565b61026b61037136600461204d565b610c62565b6101fd610384366004612224565b6000918252600a602090815260408084206001600160a01b0393909316845291905290205460ff1690565b61021a610cfc565b6102656103c536600461204d565b610d0b565b61026b600081565b6102656103e03660046121a9565b610d60565b6102656103f33660046120d4565b610e25565b61040b61040636600461227e565b610eb3565b60405161020993929190612411565b61021a61042836600461220c565b610f97565b61026561043b366004612224565b61108d565b61026b7f3c2519c4487d47714872f92cf90a50c25f5deaec2789dc2a497b1272df611db681565b600c5461023a906001600160a01b031681565b6101fd610488366004612067565b6001600160a01b03918216600090815260056020908152604080832093909416825291909152205460ff1690565b61026b7ff0887ba65ee2024ea881d91b74c2450ef19e1557f03bed3ea9f16b037cbe2dc981565b60006001600160e01b031982167fc0aa9aba00000000000000000000000000000000000000000000000000000000148061051b575061051b826110b3565b92915050565b606060008054610530906124fa565b80601f016020809104026020016040519081016040528092919081815260200182805461055c906124fa565b80156105a95780601f1061057e576101008083540402835291602001916105a9565b820191906000526020600020905b81548152906001019060200180831161058c57829003601f168201915b5050505050905090565b6000818152600260205260408120546001600160a01b03166106315760405162461bcd60e51b815260206004820152602c60248201527f4552433732313a20617070726f76656420717565727920666f72206e6f6e657860448201526b34b9ba32b73a103a37b5b2b760a11b60648201526084015b60405180910390fd5b506000908152600460205260409020546001600160a01b031690565b600061065882610bd7565b9050806001600160a01b0316836001600160a01b031614156106e25760405162461bcd60e51b815260206004820152602160248201527f4552433732313a20617070726f76616c20746f2063757272656e74206f776e6560448201527f72000000000000000000000000000000000000000000000000000000000000006064820152608401610628565b336001600160a01b03821614806106fe57506106fe8133610488565b6107705760405162461bcd60e51b815260206004820152603860248201527f4552433732313a20617070726f76652063616c6c6572206973206e6f74206f7760448201527f6e6572206e6f7220617070726f76656420666f7220616c6c00000000000000006064820152608401610628565b61077a83836110f1565b505050565b610789338261116c565b6107fb5760405162461bcd60e51b815260206004820152603160248201527f4552433732313a207472616e736665722063616c6c6572206973206e6f74206f60448201527f776e6572206e6f7220617070726f7665640000000000000000000000000000006064820152608401610628565b61077a838383611263565b6000828152600a60205260409020600101546108228133611448565b61077a83836114c8565b600061083783610c62565b82106108ab5760405162461bcd60e51b815260206004820152602b60248201527f455243373231456e756d657261626c653a206f776e657220696e646578206f7560448201527f74206f6620626f756e64730000000000000000000000000000000000000000006064820152608401610628565b506001600160a01b03919091166000908152600660209081526040808320938352929052205490565b7f3c2519c4487d47714872f92cf90a50c25f5deaec2789dc2a497b1272df611db66108ff8133611448565b6109297ff0887ba65ee2024ea881d91b74c2450ef19e1557f03bed3ea9f16b037cbe2dc98361108d565b5050565b7f3c2519c4487d47714872f92cf90a50c25f5deaec2789dc2a497b1272df611db66109588133611448565b60085482116109cf5760405162461bcd60e51b815260206004820152603a60248201527f52414952204552433732313a204e6577206c696d6974206d757374206265206760448201527f726561746572207468616e2063757272656e7420737570706c790000000000006064820152608401610628565b50600d55565b6001600160a01b0381163314610a535760405162461bcd60e51b815260206004820152602f60248201527f416363657373436f6e74726f6c3a2063616e206f6e6c792072656e6f756e636560448201527f20726f6c657320666f722073656c6600000000000000000000000000000000006064820152608401610628565b610929828261156a565b7ff0887ba65ee2024ea881d91b74c2450ef19e1557f03bed3ea9f16b037cbe2dc9610a888133611448565b600d5460085410610b005760405162461bcd60e51b8152602060048201526024808201527f52414952204552433732313a2043616e6e6f74206d696e74206d6f726520746f60448201527f6b656e73000000000000000000000000000000000000000000000000000000006064820152608401610628565b61077a83836115ed565b61077a83838360405180602001604052806000815250610e25565b6000610b3060085490565b8210610ba45760405162461bcd60e51b815260206004820152602c60248201527f455243373231456e756d657261626c653a20676c6f62616c20696e646578206f60448201527f7574206f6620626f756e647300000000000000000000000000000000000000006064820152608401610628565b60088281548110610bc557634e487b7160e01b600052603260045260246000fd5b90600052602060002001549050919050565b6000818152600260205260408120546001600160a01b03168061051b5760405162461bcd60e51b815260206004820152602960248201527f4552433732313a206f776e657220717565727920666f72206e6f6e657869737460448201527f656e7420746f6b656e00000000000000000000000000000000000000000000006064820152608401610628565b60006001600160a01b038216610ce05760405162461bcd60e51b815260206004820152602a60248201527f4552433732313a2062616c616e636520717565727920666f7220746865207a6560448201527f726f2061646472657373000000000000000000000000000000000000000000006064820152608401610628565b506001600160a01b031660009081526003602052604090205490565b606060018054610530906124fa565b7f3c2519c4487d47714872f92cf90a50c25f5deaec2789dc2a497b1272df611db6610d368133611448565b6109297ff0887ba65ee2024ea881d91b74c2450ef19e1557f03bed3ea9f16b037cbe2dc983610806565b6001600160a01b038216331415610db95760405162461bcd60e51b815260206004820152601960248201527f4552433732313a20617070726f766520746f2063616c6c6572000000000000006044820152606401610628565b3360008181526005602090815260408083206001600160a01b03871680855290835292819020805460ff191686151590811790915590519081529192917f17307eab39ab6107e8899845ad3d59bd9653f200f220920489ca2b5937696c31910160405180910390a35050565b610e2f338361116c565b610ea15760405162461bcd60e51b815260206004820152603160248201527f4552433732313a207472616e736665722063616c6c6572206973206e6f74206f60448201527f776e6572206e6f7220617070726f7665640000000000000000000000000000006064820152608401610628565b610ead84848484611607565b50505050565b600080606081610ec288610bd7565b6001600160a01b03161415610f3f5760405162461bcd60e51b815260206004820152602660248201527f41736b696e6720666f7220666565206f6e20616e20696e76616c696420546f6b60448201527f656e2049442100000000000000000000000000000000000000000000000000006064820152608401610628565b600c54600e546001600160a01b039091169061ffff16610f62620186a08961246d565b610f6c9190612481565b60408051602081018a9052016040516020818303038152906040529250925092509450945094915050565b6000818152600260205260409020546060906001600160a01b03166110245760405162461bcd60e51b815260206004820152602f60248201527f4552433732314d657461646174613a2055524920717565727920666f72206e6f60448201527f6e6578697374656e7420746f6b656e00000000000000000000000000000000006064820152608401610628565b600061103b60408051602081019091526000815290565b9050600081511161105b5760405180602001604052806000815250611086565b8061106584611685565b604051602001611076929190612325565b6040516020818303038152906040525b9392505050565b6000828152600a60205260409020600101546110a98133611448565b61077a838361156a565b60006001600160e01b031982167f7965db0b00000000000000000000000000000000000000000000000000000000148061051b575061051b8261179f565b6000818152600460205260409020805473ffffffffffffffffffffffffffffffffffffffff19166001600160a01b038416908117909155819061113382610bd7565b6001600160a01b03167f8c5be1e5ebec7d5bd14f71427d1e84f3dd0314c0f7b2291e5b200ac8c7c3b92560405160405180910390a45050565b6000818152600260205260408120546001600160a01b03166111e55760405162461bcd60e51b815260206004820152602c60248201527f4552433732313a206f70657261746f7220717565727920666f72206e6f6e657860448201526b34b9ba32b73a103a37b5b2b760a11b6064820152608401610628565b60006111f083610bd7565b9050806001600160a01b0316846001600160a01b0316148061122b5750836001600160a01b0316611220846105b3565b6001600160a01b0316145b8061125b57506001600160a01b0380821660009081526005602090815260408083209388168352929052205460ff165b949350505050565b826001600160a01b031661127682610bd7565b6001600160a01b0316146112f25760405162461bcd60e51b815260206004820152602960248201527f4552433732313a207472616e73666572206f6620746f6b656e2074686174206960448201527f73206e6f74206f776e00000000000000000000000000000000000000000000006064820152608401610628565b6001600160a01b03821661136d5760405162461bcd60e51b8152602060048201526024808201527f4552433732313a207472616e7366657220746f20746865207a65726f2061646460448201527f72657373000000000000000000000000000000000000000000000000000000006064820152608401610628565b6113788383836117dd565b6113836000826110f1565b6001600160a01b03831660009081526003602052604081208054600192906113ac9084906124a0565b90915550506001600160a01b03821660009081526003602052604081208054600192906113da908490612455565b9091555050600081815260026020526040808220805473ffffffffffffffffffffffffffffffffffffffff19166001600160a01b0386811691821790925591518493918716917fddf252ad1be2c89b69c2b068fc378daa952ba7f163c4a11628f55a4df523b3ef91a4505050565b6000828152600a602090815260408083206001600160a01b038516845290915290205460ff1661092957611486816001600160a01b031660146117e8565b6114918360206117e8565b6040516020016114a2929190612354565b60408051601f198184030181529082905262461bcd60e51b825261062891600401612442565b6000828152600a602090815260408083206001600160a01b038516845290915290205460ff16610929576000828152600a602090815260408083206001600160a01b03851684529091529020805460ff191660011790556115263390565b6001600160a01b0316816001600160a01b0316837f2f8788117e7eff1d82e926ec794901d17c78024a50270940304540a733656f0d60405160405180910390a45050565b6000828152600a602090815260408083206001600160a01b038516845290915290205460ff1615610929576000828152600a602090815260408083206001600160a01b0385168085529252808320805460ff1916905551339285917ff6391f5c32d9c69d2a47ea670b442974b53935d1edc7fd64eb21e047a839171b9190a45050565b6109298282604051806020016040528060008152506119f3565b611612848484611263565b61161e84848484611a71565b610ead5760405162461bcd60e51b815260206004820152603260248201527f4552433732313a207472616e7366657220746f206e6f6e20455243373231526560448201527131b2b4bb32b91034b6b83632b6b2b73a32b960711b6064820152608401610628565b6060816116a95750506040805180820190915260018152600360fc1b602082015290565b8160005b81156116d357806116bd81612535565b91506116cc9050600a8361246d565b91506116ad565b60008167ffffffffffffffff8111156116fc57634e487b7160e01b600052604160045260246000fd5b6040519080825280601f01601f191660200182016040528015611726576020820181803683370190505b5090505b841561125b5761173b6001836124a0565b9150611748600a86612550565b611753906030612455565b60f81b81838151811061177657634e487b7160e01b600052603260045260246000fd5b60200101906001600160f81b031916908160001a905350611798600a8661246d565b945061172a565b60006001600160e01b031982167f780e9d6300000000000000000000000000000000000000000000000000000000148061051b575061051b82611bc9565b61077a838383611c64565b606060006117f7836002612481565b611802906002612455565b67ffffffffffffffff81111561182857634e487b7160e01b600052604160045260246000fd5b6040519080825280601f01601f191660200182016040528015611852576020820181803683370190505b509050600360fc1b8160008151811061187b57634e487b7160e01b600052603260045260246000fd5b60200101906001600160f81b031916908160001a9053507f7800000000000000000000000000000000000000000000000000000000000000816001815181106118d457634e487b7160e01b600052603260045260246000fd5b60200101906001600160f81b031916908160001a90535060006118f8846002612481565b611903906001612455565b90505b60018111156119a4577f303132333435363738396162636465660000000000000000000000000000000085600f166010811061195257634e487b7160e01b600052603260045260246000fd5b1a60f81b82828151811061197657634e487b7160e01b600052603260045260246000fd5b60200101906001600160f81b031916908160001a90535060049490941c9361199d816124e3565b9050611906565b5083156110865760405162461bcd60e51b815260206004820181905260248201527f537472696e67733a20686578206c656e67746820696e73756666696369656e746044820152606401610628565b6119fd8383611d1c565b611a0a6000848484611a71565b61077a5760405162461bcd60e51b815260206004820152603260248201527f4552433732313a207472616e7366657220746f206e6f6e20455243373231526560448201527131b2b4bb32b91034b6b83632b6b2b73a32b960711b6064820152608401610628565b60006001600160a01b0384163b15611bbe57604051630a85bd0160e11b81526001600160a01b0385169063150b7a0290611ab59033908990889088906004016123d5565b602060405180830381600087803b158015611acf57600080fd5b505af1925050508015611aff575060408051601f3d908101601f19168201909252611afc91810190612262565b60015b611ba4573d808015611b2d576040519150601f19603f3d011682016040523d82523d6000602084013e611b32565b606091505b508051611b9c5760405162461bcd60e51b815260206004820152603260248201527f4552433732313a207472616e7366657220746f206e6f6e20455243373231526560448201527131b2b4bb32b91034b6b83632b6b2b73a32b960711b6064820152608401610628565b805181602001fd5b6001600160e01b031916630a85bd0160e11b14905061125b565b506001949350505050565b60006001600160e01b031982167f80ac58cd000000000000000000000000000000000000000000000000000000001480611c2c57506001600160e01b031982167f5b5e139f00000000000000000000000000000000000000000000000000000000145b8061051b57507f01ffc9a7000000000000000000000000000000000000000000000000000000006001600160e01b031983161461051b565b6001600160a01b038316611cbf57611cba81600880546000838152600960205260408120829055600182018355919091527ff3f7a9fe364faab93b216da50a3214154f22a0a2b415b23a84c8169e8b636ee30155565b611ce2565b816001600160a01b0316836001600160a01b031614611ce257611ce28382611e77565b6001600160a01b038216611cf95761077a81611f14565b826001600160a01b0316826001600160a01b03161461077a5761077a8282611fed565b6001600160a01b038216611d725760405162461bcd60e51b815260206004820181905260248201527f4552433732313a206d696e7420746f20746865207a65726f20616464726573736044820152606401610628565b6000818152600260205260409020546001600160a01b031615611dd75760405162461bcd60e51b815260206004820152601c60248201527f4552433732313a20746f6b656e20616c7265616479206d696e746564000000006044820152606401610628565b611de3600083836117dd565b6001600160a01b0382166000908152600360205260408120805460019290611e0c908490612455565b9091555050600081815260026020526040808220805473ffffffffffffffffffffffffffffffffffffffff19166001600160a01b03861690811790915590518392907fddf252ad1be2c89b69c2b068fc378daa952ba7f163c4a11628f55a4df523b3ef908290a45050565b60006001611e8484610c62565b611e8e91906124a0565b600083815260076020526040902054909150808214611ee1576001600160a01b03841660009081526006602090815260408083208584528252808320548484528184208190558352600790915290208190555b5060009182526007602090815260408084208490556001600160a01b039094168352600681528383209183525290812055565b600854600090611f26906001906124a0565b60008381526009602052604081205460088054939450909284908110611f5c57634e487b7160e01b600052603260045260246000fd5b906000526020600020015490508060088381548110611f8b57634e487b7160e01b600052603260045260246000fd5b6000918252602080832090910192909255828152600990915260408082208490558582528120556008805480611fd157634e487b7160e01b600052603160045260246000fd5b6001900381819060005260206000200160009055905550505050565b6000611ff883610c62565b6001600160a01b039093166000908152600660209081526040808320868452825280832085905593825260079052919091209190915550565b80356001600160a01b038116811461204857600080fd5b919050565b60006020828403121561205e578081fd5b61108682612031565b60008060408385031215612079578081fd5b61208283612031565b915061209060208401612031565b90509250929050565b6000806000606084860312156120ad578081fd5b6120b684612031565b92506120c460208501612031565b9150604084013590509250925092565b600080600080608085870312156120e9578081fd5b6120f285612031565b935061210060208601612031565b925060408501359150606085013567ffffffffffffffff80821115612123578283fd5b818701915087601f830112612136578283fd5b81358181111561214857612148612590565b604051601f8201601f19908116603f0116810190838211818310171561217057612170612590565b816040528281528a6020848701011115612188578586fd5b82602086016020830137918201602001949094529598949750929550505050565b600080604083850312156121bb578182fd5b6121c483612031565b9150602083013580151581146121d8578182fd5b809150509250929050565b600080604083850312156121f5578182fd5b6121fe83612031565b946020939093013593505050565b60006020828403121561221d578081fd5b5035919050565b60008060408385031215612236578182fd5b8235915061209060208401612031565b600060208284031215612257578081fd5b8135611086816125a6565b600060208284031215612273578081fd5b8151611086816125a6565b60008060008060608587031215612293578384fd5b8435935060208501359250604085013567ffffffffffffffff808211156122b8578384fd5b818701915087601f8301126122cb578384fd5b8135818111156122d9578485fd5b8860208285010111156122ea578485fd5b95989497505060200194505050565b600081518084526123118160208601602086016124b7565b601f01601f19169290920160200192915050565b600083516123378184602088016124b7565b83519083019061234b8183602088016124b7565b01949350505050565b7f416363657373436f6e74726f6c3a206163636f756e742000000000000000000081526000835161238c8160178501602088016124b7565b7f206973206d697373696e6720726f6c652000000000000000000000000000000060179184019182015283516123c98160288401602088016124b7565b01602801949350505050565b60006001600160a01b0380871683528086166020840152508360408301526080606083015261240760808301846122f9565b9695505050505050565b6001600160a01b038416815282602082015260606040820152600061243960608301846122f9565b95945050505050565b60208152600061108660208301846122f9565b6000821982111561246857612468612564565b500190565b60008261247c5761247c61257a565b500490565b600081600019048311821515161561249b5761249b612564565b500290565b6000828210156124b2576124b2612564565b500390565b60005b838110156124d25781810151838201526020016124ba565b83811115610ead5750506000910152565b6000816124f2576124f2612564565b506000190190565b600181811c9082168061250e57607f821691505b6020821081141561252f57634e487b7160e01b600052602260045260246000fd5b50919050565b600060001982141561254957612549612564565b5060010190565b60008261255f5761255f61257a565b500690565b634e487b7160e01b600052601160045260246000fd5b634e487b7160e01b600052601260045260246000fd5b634e487b7160e01b600052604160045260246000fd5b6001600160e01b0319811681146125bc57600080fd5b5056fea2646970667358221220447be46aa33cc5ad934f0b92b2ab254364e30caabb2d785629d594994c6ca7d764736f6c634300080400333c2519c4487d47714872f92cf90a50c25f5deaec2789dc2a497b1272df611db6f0887ba65ee2024ea881d91b74c2450ef19e1557f03bed3ea9f16b037cbe2dc9",
  "linkReferences": {},
  "deployedLinkReferences": {}
}