{
  "_format": "hh-sol-artifact-1",
  "contractName": "Minter_Marketplace",
  "sourceName": "contracts/Marketplaces/MarketplaceMinter.sol",
  "abi": [
    {
      "anonymous": false,
      "inputs": [
        {
          "indexed": false,
          "internalType": "address",
          "name": "contractAddress",
          "type": "address"
        },
        {
          "indexed": false,
          "internalType": "uint256",
          "name": "productIndex",
          "type": "uint256"
        },
        {
          "indexed": false,
          "internalType": "uint256",
          "name": "rangesCreated",
          "type": "uint256"
        },
        {
          "indexed": false,
          "internalType": "uint256",
          "name": "catalogIndex",
          "type": "uint256"
        }
      ],
      "name": "AddedOffer",
      "type": "event"
    },
    {
      "anonymous": false,
      "inputs": [
        {
          "indexed": false,
          "internalType": "address",
          "name": "contractAddress",
          "type": "address"
        },
        {
          "indexed": false,
          "internalType": "uint256",
          "name": "productIndex",
          "type": "uint256"
        },
        {
          "indexed": false,
          "internalType": "uint256",
          "name": "offerIndex",
          "type": "uint256"
        },
        {
          "indexed": false,
          "internalType": "uint256",
          "name": "rangeIndex",
          "type": "uint256"
        },
        {
          "indexed": false,
          "internalType": "uint256",
          "name": "startToken",
          "type": "uint256"
        },
        {
          "indexed": false,
          "internalType": "uint256",
          "name": "endToken",
          "type": "uint256"
        },
        {
          "indexed": false,
          "internalType": "uint256",
          "name": "price",
          "type": "uint256"
        },
        {
          "indexed": false,
          "internalType": "string",
          "name": "name",
          "type": "string"
        }
      ],
      "name": "AppendedRange",
      "type": "event"
    },
    {
      "anonymous": false,
      "inputs": [
        {
          "indexed": false,
          "internalType": "uint16",
          "name": "newNodeFee",
          "type": "uint16"
        }
      ],
      "name": "ChangedNodeFee",
      "type": "event"
    },
    {
      "anonymous": false,
      "inputs": [
        {
          "indexed": false,
          "internalType": "address",
          "name": "newTreasury",
          "type": "address"
        }
      ],
      "name": "ChangedTreasury",
      "type": "event"
    },
    {
      "anonymous": false,
      "inputs": [
        {
          "indexed": false,
          "internalType": "address",
          "name": "treasury",
          "type": "address"
        },
        {
          "indexed": false,
          "internalType": "uint16",
          "name": "newTreasuryFee",
          "type": "uint16"
        }
      ],
      "name": "ChangedTreasuryFee",
      "type": "event"
    },
    {
      "anonymous": false,
      "inputs": [
        {
          "indexed": true,
          "internalType": "address",
          "name": "previousOwner",
          "type": "address"
        },
        {
          "indexed": true,
          "internalType": "address",
          "name": "newOwner",
          "type": "address"
        }
      ],
      "name": "OwnershipTransferred",
      "type": "event"
    },
    {
      "anonymous": false,
      "inputs": [
        {
          "indexed": false,
          "internalType": "address",
          "name": "contractAddress",
          "type": "address"
        },
        {
          "indexed": false,
          "internalType": "uint256",
          "name": "catalogIndex",
          "type": "uint256"
        },
        {
          "indexed": false,
          "internalType": "uint256",
          "name": "rangeIndex",
          "type": "uint256"
        }
      ],
      "name": "SoldOut",
      "type": "event"
    },
    {
      "anonymous": false,
      "inputs": [
        {
          "indexed": false,
          "internalType": "address",
          "name": "ownerAddress",
          "type": "address"
        },
        {
          "indexed": false,
          "internalType": "address",
          "name": "contractAddress",
          "type": "address"
        },
        {
          "indexed": false,
          "internalType": "uint256",
          "name": "catalogIndex",
          "type": "uint256"
        },
        {
          "indexed": false,
          "internalType": "uint256",
          "name": "rangeIndex",
          "type": "uint256"
        },
        {
          "indexed": false,
          "internalType": "uint256",
          "name": "tokenIndex",
          "type": "uint256"
        }
      ],
      "name": "TokenMinted",
      "type": "event"
    },
    {
      "anonymous": false,
      "inputs": [
        {
          "indexed": false,
          "internalType": "address",
          "name": "contractAddress",
          "type": "address"
        },
        {
          "indexed": false,
          "internalType": "uint256",
          "name": "offerIndex",
          "type": "uint256"
        },
        {
          "indexed": false,
          "internalType": "uint256",
          "name": "rangeIndex",
          "type": "uint256"
        },
        {
          "indexed": false,
          "internalType": "uint256",
          "name": "tokens",
          "type": "uint256"
        },
        {
          "indexed": false,
          "internalType": "uint256",
          "name": "price",
          "type": "uint256"
        },
        {
          "indexed": false,
          "internalType": "string",
          "name": "name",
          "type": "string"
        }
      ],
      "name": "UpdatedOffer",
      "type": "event"
    },
    {
      "inputs": [
        {
          "internalType": "address",
          "name": "_tokenAddress",
          "type": "address"
        },
        {
          "internalType": "uint256",
          "name": "_productIndex",
          "type": "uint256"
        },
        {
          "internalType": "uint256[]",
          "name": "_rangeStartToken",
          "type": "uint256[]"
        },
        {
          "internalType": "uint256[]",
          "name": "_rangeEndToken",
          "type": "uint256[]"
        },
        {
          "internalType": "uint256[]",
          "name": "_rangePrice",
          "type": "uint256[]"
        },
        {
          "internalType": "string[]",
          "name": "_rangeName",
          "type": "string[]"
        },
        {
          "internalType": "address",
          "name": "_nodeAddress",
          "type": "address"
        }
      ],
      "name": "addOffer",
      "outputs": [],
      "stateMutability": "nonpayable",
      "type": "function"
    },
    {
      "inputs": [
        {
          "internalType": "uint256",
          "name": "offerIndex",
          "type": "uint256"
        },
        {
          "internalType": "uint256",
          "name": "startToken",
          "type": "uint256"
        },
        {
          "internalType": "uint256",
          "name": "endToken",
          "type": "uint256"
        },
        {
          "internalType": "uint256",
          "name": "price",
          "type": "uint256"
        },
        {
          "internalType": "string",
          "name": "name",
          "type": "string"
        }
      ],
      "name": "appendOfferRange",
      "outputs": [],
      "stateMutability": "nonpayable",
      "type": "function"
    },
    {
      "inputs": [
        {
          "internalType": "uint256",
          "name": "offerIndex",
          "type": "uint256"
        },
        {
          "internalType": "uint256[]",
          "name": "startTokens",
          "type": "uint256[]"
        },
        {
          "internalType": "uint256[]",
          "name": "endTokens",
          "type": "uint256[]"
        },
        {
          "internalType": "uint256[]",
          "name": "prices",
          "type": "uint256[]"
        },
        {
          "internalType": "string[]",
          "name": "names",
          "type": "string[]"
        }
      ],
      "name": "appendOfferRangeBatch",
      "outputs": [],
      "stateMutability": "nonpayable",
      "type": "function"
    },
    {
      "inputs": [
        {
          "internalType": "uint256",
          "name": "catalogIndex",
          "type": "uint256"
        },
        {
          "internalType": "uint256",
          "name": "rangeIndex",
          "type": "uint256"
        },
        {
          "internalType": "uint256",
          "name": "internalTokenIndex",
          "type": "uint256"
        }
      ],
      "name": "buyToken",
      "outputs": [],
      "stateMutability": "payable",
      "type": "function"
    },
    {
      "inputs": [
        {
          "internalType": "address",
          "name": "erc721Address",
          "type": "address"
        },
        {
          "internalType": "uint256",
          "name": "productIndex",
          "type": "uint256"
        }
      ],
      "name": "contractToOfferRange",
      "outputs": [
        {
          "internalType": "uint256",
          "name": "offerIndex",
          "type": "uint256"
        }
      ],
      "stateMutability": "view",
      "type": "function"
    },
    {
      "inputs": [],
      "name": "feeDecimals",
      "outputs": [
        {
          "internalType": "uint16",
          "name": "",
          "type": "uint16"
        }
      ],
      "stateMutability": "view",
      "type": "function"
    },
    {
      "inputs": [],
      "name": "getOfferCount",
      "outputs": [
        {
          "internalType": "uint256",
          "name": "",
          "type": "uint256"
        }
      ],
      "stateMutability": "view",
      "type": "function"
    },
    {
      "inputs": [
        {
          "internalType": "uint256",
          "name": "_index",
          "type": "uint256"
        }
      ],
      "name": "getOfferInfo",
      "outputs": [
        {
          "internalType": "address",
          "name": "contractAddress",
          "type": "address"
        },
        {
          "internalType": "uint256",
          "name": "productIndex",
          "type": "uint256"
        },
        {
          "internalType": "address",
          "name": "nodeAddress",
          "type": "address"
        },
        {
          "internalType": "uint256",
          "name": "availableRanges",
          "type": "uint256"
        }
      ],
      "stateMutability": "view",
      "type": "function"
    },
    {
      "inputs": [
        {
          "internalType": "uint256",
          "name": "offerIndex",
          "type": "uint256"
        },
        {
          "internalType": "uint256",
          "name": "rangeIndex",
          "type": "uint256"
        }
      ],
      "name": "getOfferRangeInfo",
      "outputs": [
        {
          "internalType": "address",
          "name": "contractAddress",
          "type": "address"
        },
        {
          "internalType": "uint256",
          "name": "collectionIndex",
          "type": "uint256"
        },
        {
          "internalType": "uint256",
          "name": "tokenStart",
          "type": "uint256"
        },
        {
          "internalType": "uint256",
          "name": "tokenEnd",
          "type": "uint256"
        },
        {
          "internalType": "uint256",
          "name": "tokensAllowed",
          "type": "uint256"
        },
        {
          "internalType": "uint256",
          "name": "price",
          "type": "uint256"
        },
        {
          "internalType": "string",
          "name": "name",
          "type": "string"
        }
      ],
      "stateMutability": "view",
      "type": "function"
    },
    {
      "inputs": [
        {
          "internalType": "address",
          "name": "_treasury",
          "type": "address"
        },
        {
          "internalType": "uint16",
          "name": "_treasuryFee",
          "type": "uint16"
        },
        {
          "internalType": "uint16",
          "name": "_nodeFee",
          "type": "uint16"
        }
      ],
      "name": "initialize",
      "outputs": [],
      "stateMutability": "nonpayable",
      "type": "function"
    },
    {
      "inputs": [],
      "name": "nodeFee",
      "outputs": [
        {
          "internalType": "uint16",
          "name": "",
          "type": "uint16"
        }
      ],
      "stateMutability": "view",
      "type": "function"
    },
    {
      "inputs": [],
      "name": "openSales",
      "outputs": [
        {
          "internalType": "uint256",
          "name": "",
          "type": "uint256"
        }
      ],
      "stateMutability": "view",
      "type": "function"
    },
    {
      "inputs": [],
      "name": "owner",
      "outputs": [
        {
          "internalType": "address",
          "name": "",
          "type": "address"
        }
      ],
      "stateMutability": "view",
      "type": "function"
    },
    {
      "inputs": [],
      "name": "renounceOwnership",
      "outputs": [],
      "stateMutability": "nonpayable",
      "type": "function"
    },
    {
      "inputs": [
        {
          "internalType": "uint16",
          "name": "_newFee",
          "type": "uint16"
        }
      ],
      "name": "setNodeFee",
      "outputs": [],
      "stateMutability": "nonpayable",
      "type": "function"
    },
    {
      "inputs": [
        {
          "internalType": "address",
          "name": "_newTreasury",
          "type": "address"
        }
      ],
      "name": "setTreasuryAddress",
      "outputs": [],
      "stateMutability": "nonpayable",
      "type": "function"
    },
    {
      "inputs": [
        {
          "internalType": "uint16",
          "name": "_newFee",
          "type": "uint16"
        }
      ],
      "name": "setTreasuryFee",
      "outputs": [],
      "stateMutability": "nonpayable",
      "type": "function"
    },
    {
      "inputs": [
        {
          "internalType": "address",
          "name": "newOwner",
          "type": "address"
        }
      ],
      "name": "transferOwnership",
      "outputs": [],
      "stateMutability": "nonpayable",
      "type": "function"
    },
    {
      "inputs": [],
      "name": "treasury",
      "outputs": [
        {
          "internalType": "address",
          "name": "",
          "type": "address"
        }
      ],
      "stateMutability": "view",
      "type": "function"
    },
    {
      "inputs": [],
      "name": "treasuryFee",
      "outputs": [
        {
          "internalType": "uint16",
          "name": "",
          "type": "uint16"
        }
      ],
      "stateMutability": "view",
      "type": "function"
    },
    {
      "inputs": [
        {
          "internalType": "uint256",
          "name": "offerIndex",
          "type": "uint256"
        },
        {
          "internalType": "uint256",
          "name": "rangeIndex",
          "type": "uint256"
        },
        {
          "internalType": "uint256",
          "name": "startToken",
          "type": "uint256"
        },
        {
          "internalType": "uint256",
          "name": "endToken",
          "type": "uint256"
        },
        {
          "internalType": "uint256",
          "name": "price",
          "type": "uint256"
        },
        {
          "internalType": "string",
          "name": "name",
          "type": "string"
        }
      ],
      "name": "updateOfferRange",
      "outputs": [],
      "stateMutability": "nonpayable",
      "type": "function"
    },
    {
      "inputs": [
        {
          "internalType": "address",
          "name": "tokenAddress",
          "type": "address"
        }
      ],
      "name": "validateRoles",
      "outputs": [
        {
          "internalType": "bool",
          "name": "canOffer",
          "type": "bool"
        }
      ],
      "stateMutability": "view",
      "type": "function"
    }
  ],
  "bytecode": "0x608060405234801561001057600080fd5b50613990806100206000396000f3fe6080604052600436106101755760003560e01c80639c13108c116100cb578063d048db371161007f578063f2fde38b11610059578063f2fde38b14610441578063f416253014610461578063f7ca892a1461048257600080fd5b8063d048db37146103f9578063de2d554b1461040e578063e4ccbe6c1461042157600080fd5b8063ca3dba5d116100b0578063ca3dba5d14610383578063cc0f1786146103b6578063cc32d176146103de57600080fd5b80639c13108c14610335578063a652db491461036357600080fd5b806361d027b31161012d578063715018a611610107578063715018a6146102e257806375cb00ea146102f75780638da5cb5b1461031757600080fd5b806361d027b31461026a5780636605bfda146102a2578063665b64dd146102c257600080fd5b80633539a52c1161015e5780633539a52c146101fa57806338b2c8331461021a578063607814b21461023a57600080fd5b80631c4b995a1461017a5780632a1da9821461019c575b600080fd5b34801561018657600080fd5b5061019a610195366004612f4d565b610498565b005b3480156101a857600080fd5b506101bc6101b736600461315c565b6105b0565b6040516101f194939291906001600160a01b039485168152602081019390935292166040820152606081019190915260800190565b60405180910390f35b34801561020657600080fd5b5061019a61021536600461342c565b610865565b34801561022657600080fd5b5061019a610235366004613175565b6109f5565b34801561024657600080fd5b5061025a610255366004612f30565b610c71565b60405190151581526020016101f1565b34801561027657600080fd5b5060675461028a906001600160a01b031681565b6040516001600160a01b0390911681526020016101f1565b3480156102ae57600080fd5b5061019a6102bd366004612f30565b610e9a565b3480156102ce57600080fd5b5061019a6102dd366004612fbe565b610f56565b3480156102ee57600080fd5b5061019a61157b565b34801561030357600080fd5b5061019a610312366004613496565b6115e1565b34801561032357600080fd5b506033546001600160a01b031661028a565b34801561034157600080fd5b50610355610350366004612f92565b611975565b6040519081526020016101f1565b34801561036f57600080fd5b5061019a61037e366004613141565b611be7565b34801561038f57600080fd5b506103a361039e3660046132ea565b611c99565b6040516101f19796959493929190613591565b3480156103c257600080fd5b506103cb600281565b60405161ffff90911681526020016101f1565b3480156103ea57600080fd5b506069546103cb9061ffff1681565b34801561040557600080fd5b50606654610355565b61019a61041c36600461330c565b611fee565b34801561042d57600080fd5b5061019a61043c366004613141565b612834565b34801561044d57600080fd5b5061019a61045c366004612f30565b6128dc565b34801561046d57600080fd5b506069546103cb9062010000900461ffff1681565b34801561048e57600080fd5b5061035560685481565b600054610100900460ff16806104b1575060005460ff16155b6105285760405162461bcd60e51b815260206004820152602e60248201527f496e697469616c697a61626c653a20636f6e747261637420697320616c72656160448201527f647920696e697469616c697a656400000000000000000000000000000000000060648201526084015b60405180910390fd5b600054610100900460ff1615801561054a576000805461ffff19166101011790555b606780546001600160a01b03861673ffffffffffffffffffffffffffffffffffffffff199091161790556069805461ffff848116620100000263ffffffff1990921690861617179055600060685580156105aa576000805461ff00191690555b50505050565b6000806000806000606686815481106105cb576105cb613919565b60009182526020918290206040805161010081018252600890930290910180546001600160a01b039081168452600182015416838501526002810154838301526003810180548351818702810187019094528084529394919360608601939283018282801561065957602002820191906000526020600020905b815481526020019060010190808311610645575b50505050508152602001600482018054806020026020016040519081016040528092919081815260200182805480156106b157602002820191906000526020600020905b81548152602001906001019080831161069d575b505050505081526020016005820180548060200260200160405190810160405280929190818152602001828054801561070957602002820191906000526020600020905b8154815260200190600101908083116106f5575b505050505081526020016006820180548060200260200160405190810160405280929190818152602001828054801561076157602002820191906000526020600020905b81548152602001906001019080831161074d575b5050505050815260200160078201805480602002602001604051908101604052809291908181526020016000905b8282101561083b5783829060005260206000200180546107ae906138ad565b80601f01602080910402602001604051908101604052809291908181526020018280546107da906138ad565b80156108275780601f106107fc57610100808354040283529160200191610827565b820191906000526020600020905b81548152906001019060200180831161080a57829003601f168201915b50505050508152602001906001019061078f565b5050509152505080516040820151602083015160e090930151519199909850919650945092505050565b61089a6066878154811061087b5761087b613919565b60009182526020909120600890910201546001600160a01b0316610c71565b506108bf60405180606001604052806000815260200160008152602001600081525090565b606687815481106108d2576108d2613919565b6000918252602090912060089091020154606680546001600160a01b0390921691635a1f3c2891908a90811061090a5761090a613919565b9060005260206000209060080201600201546040518263ffffffff1660e01b815260040161093a91815260200190565b60006040518083038186803b15801561095257600080fd5b505afa158015610966573d6000803e3d6000fd5b505050506040513d6000823e601f3d908101601f1916820160405261098e9190810190613338565b505050602083018190528183526109a99188918891906129be565b6109ec8787878787878080601f016020809104026020016040519081016040528093929190818152602001838380828437600092019190915250612b2592505050565b50505050505050565b82518451148015610a07575083518251145b8015610a14575081518151145b610a88576040805162461bcd60e51b81526020600482015260248101919091527f4d696e74696e67204d61726b6574706c6163653a204f6666657227732072616e60448201527f6765732073686f756c642068617665207468652073616d65206c656e67746821606482015260840161051f565b610a9e6066868154811061087b5761087b613919565b50610ac360405180606001604052806000815260200160008152602001600081525090565b60668681548110610ad657610ad6613919565b6000918252602090912060089091020154606680546001600160a01b0390921691635a1f3c28919089908110610b0e57610b0e613919565b9060005260206000209060080201600201546040518263ffffffff1660e01b8152600401610b3e91815260200190565b60006040518083038186803b158015610b5657600080fd5b505afa158015610b6a573d6000803e3d6000fd5b505050506040513d6000823e601f3d908101601f19168201604052610b929190810190613338565b5050506020830152815260005b82518110156109ec57610bee868281518110610bbd57610bbd613919565b6020026020010151868381518110610bd757610bd7613919565b6020026020010151846000015185602001516129be565b610c5f87878381518110610c0457610c04613919565b6020026020010151878481518110610c1e57610c1e613919565b6020026020010151878581518110610c3857610c38613919565b6020026020010151878681518110610c5257610c52613919565b6020026020010151612b25565b80610c69816138e8565b915050610b9f565b604051632474521560e21b81527ff0887ba65ee2024ea881d91b74c2450ef19e1557f03bed3ea9f16b037cbe2dc960048201523060248201526000906001600160a01b038316906391d148549060440160206040518083038186803b158015610cd957600080fd5b505afa158015610ced573d6000803e3d6000fd5b505050506040513d601f19601f82011682018060405250810190610d11919061311f565b610d835760405162461bcd60e51b815260206004820152603560248201527f4d696e74696e67204d61726b6574706c6163653a2054686973204d61726b657460448201527f706c6163652069736e27742061204d696e746572210000000000000000000000606482015260840161051f565b604051632474521560e21b81527f3c2519c4487d47714872f92cf90a50c25f5deaec2789dc2a497b1272df611db660048201523360248201526001600160a01b038316906391d148549060440160206040518083038186803b158015610de857600080fd5b505afa158015610dfc573d6000803e3d6000fd5b505050506040513d601f19601f82011682018060405250810190610e20919061311f565b610e925760405162461bcd60e51b815260206004820152602e60248201527f4d696e74696e67204d61726b6574706c6163653a2053656e6465722069736e2760448201527f74207468652063726561746f7221000000000000000000000000000000000000606482015260840161051f565b506001919050565b6033546001600160a01b03163314610ef45760405162461bcd60e51b815260206004820181905260248201527f4f776e61626c653a2063616c6c6572206973206e6f7420746865206f776e6572604482015260640161051f565b6067805473ffffffffffffffffffffffffffffffffffffffff19166001600160a01b0383169081179091556040519081527f63cc689e9d3377465b51fb094ea4ca5e0a1436b21f1ad30d707c696111c66500906020015b60405180910390a150565b610f5f8b610c71565b508786148015610f6e57508388145b8015610f7957508184145b610fed576040805162461bcd60e51b81526020600482015260248101919091527f4d696e74696e67204d61726b6574706c6163653a204f6666657227732072616e60448201527f6765732073686f756c642068617665207468652073616d65206c656e67746821606482015260840161051f565b606654156111fa576001600160a01b038b1660009081526065602090815260408083208d8452909152902054611150576001600160a01b038b1660008181526065602090815260408083208e845290915290205460668054909190811061105657611056613919565b60009182526020909120600890910201546001600160a01b03161415806110c657506001600160a01b038b1660009081526065602090815260408083208d8452909152902054606680548c929081106110b1576110b1613919565b90600052602060002090600802016002015414155b61114b5760405162461bcd60e51b815260206004820152604a60248201527f4d696e74696e67204d61726b6574706c6163653a20416e206f6666657220616c60448201527f72656164792065786973747320666f72207468697320636f6e747261637420616064820152691b99081c1c9bd91d58dd60b21b608482015260a40161051f565b6111fa565b6001600160a01b038b1660009081526065602090815260408083208d8452909152902054156111fa5760405162461bcd60e51b815260206004820152604a60248201527f4d696e74696e67204d61726b6574706c6163653a20416e206f6666657220616c60448201527f72656164792065786973747320666f72207468697320636f6e747261637420616064820152691b99081c1c9bd91d58dd60b21b608482015260a40161051f565b61121e60405180606001604052806000815260200160008152602001600081525090565b604051630b43e78560e31b8152600481018c90526001600160a01b038d1690635a1f3c289060240160006040518083038186803b15801561125e57600080fd5b505afa158015611272573d6000803e3d6000fd5b505050506040513d6000823e601f3d908101601f1916820160405261129a9190810190613338565b50506040840181905260208401919091529082526113205760405162461bcd60e51b815260206004820152603f60248201527f4d696e74696e67204d61726b6574706c6163653a2043616e6e6f74206d696e7460448201527f206d6f726520746f6b656e732066726f6d20746869732050726f647563742100606482015260840161051f565b6000606660018160018154018082558091505003906000526020600020906008020190508c8160000160006101000a8154816001600160a01b0302191690836001600160a01b03160217905550828160010160006101000a8154816001600160a01b0302191690836001600160a01b031602179055508b816002018190555060005b848110156114bc576113ee8c8c838181106113bf576113bf613919565b905060200201358b8b848181106113d8576113d8613919565b90506020020135856000015186602001516129be565b6066546114aa9061140190600190613853565b8d8d8481811061141357611413613919565b905060200201358c8c8581811061142c5761142c613919565b905060200201358b8b8681811061144557611445613919565b905060200201358a8a8781811061145e5761145e613919565b905060200281019061147091906136ec565b8080601f016020809104026020016040519081016040528093929190818152602001838380828437600092019190915250612b2592505050565b806114b4816138e8565b9150506113a2565b506066546114cc90600190613853565b606560008f6001600160a01b03166001600160a01b0316815260200190815260200160002060008e8152602001908152602001600020819055507f9c82f4230a033475cfb564c6eb24f4ad45139901a657e8edd9a6cd234e3549498d8d87879050600160668054905061153f9190613853565b604080516001600160a01b039095168552602085019390935291830152606082015260800160405180910390a150505050505050505050505050565b6033546001600160a01b031633146115d55760405162461bcd60e51b815260206004820181905260248201527f4f776e61626c653a2063616c6c6572206973206e6f7420746865206f776e6572604482015260640161051f565b6115df6000612c6b565b565b6000606688815481106115f6576115f6613919565b9060005260206000209060080201905080600401878154811061161b5761161b613919565b90600052602060002001548511158015611654575080600301878154811061164557611645613919565b90600052602060002001548610155b6116ec5760405162461bcd60e51b815260206004820152604360248201527f4d696e74696e67204d61726b6574706c6163653a204e6577206c696d6974732060448201527f6d7573742062652077697468696e207468652070726576696f7573206c696d6960648201527f7473210000000000000000000000000000000000000000000000000000000000608482015260a40161051f565b8054611700906001600160a01b0316610c71565b5061172560405180606001604052806000815260200160008152602001600081525090565b81546002830154604051630b43e78560e31b81526001600160a01b0390921691635a1f3c289161175b9160040190815260200190565b60006040518083038186803b15801561177357600080fd5b505afa158015611787573d6000803e3d6000fd5b505050506040513d6000823e601f3d908101601f191682016040526117af9190810190613338565b505050602083018190528183526117ca9189918991906129be565b6117d48787613853565b8260030189815481106117e9576117e9613919565b9060005260206000200154836004018a8154811061180957611809613919565b906000526020600020015461181e9190613853565b6118289190613853565b82600501898154811061183d5761183d613919565b9060005260206000200160008282546118569190613853565b925050819055508682600301898154811061187357611873613919565b90600052602060002001819055508582600401898154811061189757611897613919565b9060005260206000200181905550848260060189815481106118bb576118bb613919565b90600052602060002001819055508383836007018a815481106118e0576118e0613919565b9060005260206000200191906118f7929190612cca565b5081546005830180547fd99934f5b053ba28c54ae74875195b688f9367ba5b0c50f5233e692eb91549c8926001600160a01b0316918c918c91908290811061194157611941613919565b90600052602060002001548989896040516119629796959493929190613536565b60405180910390a1505050505050505050565b6066546000906119ed5760405162461bcd60e51b815260206004820152603360248201527f4d696e74696e67204d61726b6574706c6163653a20546865726520617265206e60448201527f6f206f6666657273207265676973746572656400000000000000000000000000606482015260840161051f565b6001600160a01b0383166000818152606560209081526040808320868452909152902054606680549091908110611a2657611a26613919565b60009182526020909120600890910201546001600160a01b031614611ada5760405162461bcd60e51b8152602060048201526044602482018190527f4d696e74696e67204d61726b6574706c6163653a20546865726520617265206e908201527f6f206f6666657273207265676973746572656420666f7220746861742061646460648201527f7265737300000000000000000000000000000000000000000000000000000000608482015260a40161051f565b6001600160a01b0383166000908152606560209081526040808320858452909152902054606680548492908110611b1357611b13613919565b90600052602060002090600802016002015414611bbe5760405162461bcd60e51b815260206004820152604660248201527f4d696e74696e67204d61726b6574706c6163653a20546865726520617265206960448201527f73206e6f206f66666572207265676973746572656420666f722074686174207060648201527f726f647563740000000000000000000000000000000000000000000000000000608482015260a40161051f565b506001600160a01b03919091166000908152606560209081526040808320938352929052205490565b6033546001600160a01b03163314611c415760405162461bcd60e51b815260206004820181905260248201527f4f776e61626c653a2063616c6c6572206973206e6f7420746865206f776e6572604482015260640161051f565b6069805461ffff191661ffff8316908117909155606754604080516001600160a01b03909216825260208201929092527f2adb51c26afe364a53c16cd44e82bdf5a52680ad11c64f2dbeb5bdb3764f731d9101610f4b565b6000806000806000806060600060668a81548110611cb957611cb9613919565b60009182526020918290206040805161010081018252600890930290910180546001600160a01b0390811684526001820154168385015260028101548383015260038101805483518187028101870190945280845293949193606086019392830182828015611d4757602002820191906000526020600020905b815481526020019060010190808311611d33575b5050505050815260200160048201805480602002602001604051908101604052809291908181526020018280548015611d9f57602002820191906000526020600020905b815481526020019060010190808311611d8b575b5050505050815260200160058201805480602002602001604051908101604052809291908181526020018280548015611df757602002820191906000526020600020905b815481526020019060010190808311611de3575b5050505050815260200160068201805480602002602001604051908101604052809291908181526020018280548015611e4f57602002820191906000526020600020905b815481526020019060010190808311611e3b575b5050505050815260200160078201805480602002602001604051908101604052809291908181526020016000905b82821015611f29578382906000526020600020018054611e9c906138ad565b80601f0160208091040260200160405190810160405280929190818152602001828054611ec8906138ad565b8015611f155780601f10611eea57610100808354040283529160200191611f15565b820191906000526020600020905b815481529060010190602001808311611ef857829003601f168201915b505050505081526020019060010190611e7d565b505050508152505090508060000151816040015182606001518b81518110611f5357611f53613919565b602002602001015183608001518c81518110611f7157611f71613919565b60200260200101518460a001518d81518110611f8f57611f8f613919565b60200260200101518560c001518e81518110611fad57611fad613919565b60200260200101518660e001518f81518110611fcb57611fcb613919565b602002602001015197509750975097509750975097505092959891949750929550565b60006066848154811061200357612003613919565b6000918252602090912060089091020180549091506001600160a01b03166120935760405162461bcd60e51b815260206004820152603160248201527f4d696e74696e67204d61726b6574706c6163653a20496e76616c696420436f6c60448201527f6c656374696f6e2053656c656374656421000000000000000000000000000000606482015260840161051f565b6005810154831061210c5760405162461bcd60e51b815260206004820152602360248201527f4d696e74696e67204d61726b6574706c6163653a20496e76616c69642072616e60448201527f6765210000000000000000000000000000000000000000000000000000000000606482015260840161051f565b600081600501848154811061212357612123613919565b9060005260206000200154116121a15760405162461bcd60e51b815260206004820152603c60248201527f4d696e74696e67204d61726b6574706c6163653a2043616e6e6f74206d696e7460448201527f206d6f726520746f6b656e7320666f7220746869732072616e67652100000000606482015260840161051f565b818160030184815481106121b7576121b7613919565b9060005260206000200154111580156121ef57508060040183815481106121e0576121e0613919565b90600052602060002001548211155b6122615760405162461bcd60e51b815260206004820152603e60248201527f4d696e74696e67204d61726b6574706c6163653a20546f6b656e20646f65736e60448201527f27742062656c6f6e6720696e2074686174206f666665722072616e6765210000606482015260840161051f565b80600601838154811061227657612276613919565b90600052602060002001543410156122f65760405162461bcd60e51b815260206004820152602760248201527f4d696e74696e67204d61726b6574706c6163653a20496e737566696369656e7460448201527f2046756e64732100000000000000000000000000000000000000000000000000606482015260840161051f565b80546040517f01ffc9a70000000000000000000000000000000000000000000000000000000081527fc0aa9aba000000000000000000000000000000000000000000000000000000006004820152600091829182916001600160a01b0316906301ffc9a79060240160206040518083038186803b15801561237657600080fd5b505afa15801561238a573d6000803e3d6000fd5b505050506040513d601f19601f820116820180604052508101906123ae919061311f565b905080156125265783546006850180546001600160a01b039092169163c155531d916000918a9081106123e3576123e3613919565b9060005260206000200154876007018a8154811061240357612403613919565b906000526020600020016040518463ffffffff1660e01b815260040161242b93929190613634565b60006040518083038186803b15801561244357600080fd5b505afa158015612457573d6000803e3d6000fd5b505050506040513d6000823e601f3d908101601f1916820160405261247f91908101906130b1565b5060695491945092506001600160a01b038416906108fc90620186a0906124b29061ffff620100008204811691166137b0565b6124c39061ffff16620186a061382f565b62ffffff16876006018a815481106124dd576124dd613919565b90600052602060002001546124f29190613810565b6124fc91906137ee565b6040518115909202916000818181858888f19350505050158015612524573d6000803e3d6000fd5b505b336001600160a01b03166108fc85600601888154811061254857612548613919565b90600052602060002001543461255e9190613853565b6040518115909202916000818181858888f19350505050158015612586573d6000803e3d6000fd5b506067546069546006860180546001600160a01b03909316926108fc92620186a09261ffff909116918b9081106125bf576125bf613919565b90600052602060002001546125d49190613810565b6125de91906137ee565b6040518115909202916000818181858888f19350505050158015612606573d6000803e3d6000fd5b5060018401546069546006860180546001600160a01b03909316926108fc92620186a0926201000090910461ffff16918b90811061264657612646613919565b906000526020600020015461265b9190613810565b61266591906137ee565b6040518115909202916000818181858888f1935050505015801561268d573d6000803e3d6000fd5b508360050186815481106126a3576126a3613919565b600091825260208220018054916126b983613896565b91905055508360050186815481106126d3576126d3613919565b90600052602060002001546000141561274857606880549060006126f683613896565b90915550508354604080516001600160a01b0390921682526020820189905281018790527fd7597aa2d6438f91b7d71e7d13764734af94bc7db28326e194bfab67236e58c19060600160405180910390a15b835460028501546040517f156e29f60000000000000000000000000000000000000000000000000000000081523360048201526024810191909152604481018790526001600160a01b039091169063156e29f690606401600060405180830381600087803b1580156127b957600080fd5b505af11580156127cd573d6000803e3d6000fd5b50508554604080513381526001600160a01b03909216602083015281018a905260608101899052608081018890527f188c6e7ce5cf6a45f5d4441da49a243005c388c7f4f00137378ba3d058baf01d925060a001905060405180910390a150505050505050565b6033546001600160a01b0316331461288e5760405162461bcd60e51b815260206004820181905260248201527f4f776e61626c653a2063616c6c6572206973206e6f7420746865206f776e6572604482015260640161051f565b6069805463ffff000019166201000061ffff8416908102919091179091556040519081527f6a6cc0807c3fb0910ab842e5fd4c193307b3cff967f1a7d096538e4961884b7090602001610f4b565b6033546001600160a01b031633146129365760405162461bcd60e51b815260206004820181905260248201527f4f776e61626c653a2063616c6c6572206973206e6f7420746865206f776e6572604482015260640161051f565b6001600160a01b0381166129b25760405162461bcd60e51b815260206004820152602660248201527f4f776e61626c653a206e6577206f776e657220697320746865207a65726f206160448201527f6464726573730000000000000000000000000000000000000000000000000000606482015260840161051f565b6129bb81612c6b565b50565b82841115612a5a5760405162461bcd60e51b815260206004820152605960248201527f4d696e74696e67204d61726b6574706c6163653a2052616e676527732073746160448201527f7274696e6720746f6b656e2068617320746f206265206c657373207468616e2060648201527f7468652072616e6765277320656e64696e6720746f6b656e2100000000000000608482015260a40161051f565b80612a6584846137d6565b11156105aa5760405162461bcd60e51b815260206004820152606260248201527f4d696e74696e67204d61726b6574706c6163653a2052616e6765277320656e6460448201527f696e6720746f6b656e2068617320746f206265206c657373206f72206571756160648201527f6c207468616e207468652070726f64756374277320656e64696e6720746f6b6560848201527f6e2100000000000000000000000000000000000000000000000000000000000060a482015260c40161051f565b600060668681548110612b3a57612b3a613919565b60009182526020808320600360089093020191820180546001818101835591855282852001899055600483018054808301825590855282852001889055600683018054918201815584529220909101849055905060058101612b9c8686613853565b612ba79060016137d6565b815460018181018455600093845260208085209092019290925560078401805492830181558352918290208451612be693919092019190850190612d4e565b508054600282015460078301547f5fb7e8962f72a7aa133e869363451a963b669f4833ca29bc394ebd53f121b98f926001600160a01b031691908990612c2e90600190613853565b89898989604051612c469897969594939291906135de565b60405180910390a160688054906000612c5e836138e8565b9190505550505050505050565b603380546001600160a01b0383811673ffffffffffffffffffffffffffffffffffffffff19831681179093556040519116919082907f8be0079c531659141344cd1fd0a4f28419497f9722a3daafe3b4186f6b6457e090600090a35050565b828054612cd6906138ad565b90600052602060002090601f016020900481019282612cf85760008555612d3e565b82601f10612d115782800160ff19823516178555612d3e565b82800160010185558215612d3e579182015b82811115612d3e578235825591602001919060010190612d23565b50612d4a929150612dc2565b5090565b828054612d5a906138ad565b90600052602060002090601f016020900481019282612d7c5760008555612d3e565b82601f10612d9557805160ff1916838001178555612d3e565b82800160010185558215612d3e579182015b82811115612d3e578251825591602001919060010190612da7565b5b80821115612d4a5760008155600101612dc3565b6000612dea612de584613788565b613733565b9050828152838383011115612dfe57600080fd5b612e0c83602083018461386a565b9392505050565b8035612e1e81613945565b919050565b60008083601f840112612e3557600080fd5b50813567ffffffffffffffff811115612e4d57600080fd5b6020830191508360208260051b8501011115612e6857600080fd5b9250929050565b600082601f830112612e8057600080fd5b81356020612e90612de583613764565b80838252828201915082860187848660051b8901011115612eb057600080fd5b60005b85811015612ecf57813584529284019290840190600101612eb3565b5090979650505050505050565b60008083601f840112612eee57600080fd5b50813567ffffffffffffffff811115612f0657600080fd5b602083019150836020828501011115612e6857600080fd5b803561ffff81168114612e1e57600080fd5b600060208284031215612f4257600080fd5b8135612e0c81613945565b600080600060608486031215612f6257600080fd5b8335612f6d81613945565b9250612f7b60208501612f1e565b9150612f8960408501612f1e565b90509250925092565b60008060408385031215612fa557600080fd5b8235612fb081613945565b946020939093013593505050565b600080600080600080600080600080600060e08c8e031215612fdf57600080fd5b612fe88c612e13565b9a5060208c0135995067ffffffffffffffff8060408e0135111561300b57600080fd5b61301b8e60408f01358f01612e23565b909a50985060608d013581101561303157600080fd5b6130418e60608f01358f01612e23565b909850965060808d013581101561305757600080fd5b6130678e60808f01358f01612e23565b909650945060a08d013581101561307d57600080fd5b5061308e8d60a08e01358e01612e23565b909350915061309f60c08d01612e13565b90509295989b509295989b9093969950565b6000806000606084860312156130c657600080fd5b83516130d181613945565b60208501516040860151919450925067ffffffffffffffff8111156130f557600080fd5b8401601f8101861361310657600080fd5b61311586825160208401612dd7565b9150509250925092565b60006020828403121561313157600080fd5b81518015158114612e0c57600080fd5b60006020828403121561315357600080fd5b612e0c82612f1e565b60006020828403121561316e57600080fd5b5035919050565b600080600080600060a0868803121561318d57600080fd5b8535945067ffffffffffffffff80602088013511156131ab57600080fd5b6131bb8860208901358901612e6f565b945080604088013511156131ce57600080fd5b6131de8860408901358901612e6f565b935080606088013511156131f157600080fd5b6132018860608901358901612e6f565b9250806080880135111561321457600080fd5b6080870135870188601f82011261322a57600080fd5b613237612de58235613764565b8082358252602082019150602083018b6020853560051b860101111561325c57600080fd5b60005b84358110156132d757858235111561327657600080fd5b813585018d603f82011261328957600080fd5b602081013561329a612de582613788565b8181528f60408385010111156132af57600080fd5b816040840160208301376000602092820183015286529485019492909201915060010161325f565b5050809450505050509295509295909350565b600080604083850312156132fd57600080fd5b50508035926020909101359150565b60008060006060848603121561332157600080fd5b505081359360208301359350604090920135919050565b600080600080600060a0868803121561335057600080fd5b85519450602080870151945060408701519350606087015167ffffffffffffffff8082111561337e57600080fd5b818901915089601f83011261339257600080fd5b6133a08a8351858501612dd7565b945060808901519150808211156133b657600080fd5b508701601f810189136133c857600080fd5b80516133d6612de582613764565b8082825284820191508484018c868560051b87010111156133f657600080fd5b600094505b838510156134195780518352600194909401939185019185016133fb565b5080955050505050509295509295909350565b60008060008060008060a0878903121561344557600080fd5b86359550602087013594506040870135935060608701359250608087013567ffffffffffffffff81111561347857600080fd5b61348489828a01612edc565b979a9699509497509295939492505050565b600080600080600080600060c0888a0312156134b157600080fd5b873596506020880135955060408801359450606088013593506080880135925060a088013567ffffffffffffffff8111156134eb57600080fd5b6134f78a828b01612edc565b989b979a50959850939692959293505050565b6000815180845261352281602086016020860161386a565b601f01601f19169290920160200192915050565b6001600160a01b038816815286602082015285604082015284606082015283608082015260c060a08201528160c0820152818360e0830137600081830160e090810191909152601f909201601f191601019695505050505050565b6001600160a01b03881681528660208201528560408201528460608201528360808201528260a082015260e060c082015260006135d160e083018461350a565b9998505050505050505050565b60006101006001600160a01b038b1683528960208401528860408401528760608401528660808401528560a08401528460c08401528060e08401526136258184018561350a565b9b9a5050505050505050505050565b838152600060208481840152606060408401526000845481600182811c91508083168061366257607f831692505b85831081141561368057634e487b7160e01b85526022600452602485fd5b606088018390526080880181801561369f57600181146136b0576136db565b60ff198616825287820196506136db565b60008b81526020902060005b868110156136d5578154848201529085019089016136bc565b83019750505b50949b9a5050505050505050505050565b6000808335601e1984360301811261370357600080fd5b83018035915067ffffffffffffffff82111561371e57600080fd5b602001915036819003821315612e6857600080fd5b604051601f8201601f1916810167ffffffffffffffff8111828210171561375c5761375c61392f565b604052919050565b600067ffffffffffffffff82111561377e5761377e61392f565b5060051b60200190565b600067ffffffffffffffff8211156137a2576137a261392f565b50601f01601f191660200190565b600061ffff8083168185168083038211156137cd576137cd613903565b01949350505050565b600082198211156137e9576137e9613903565b500190565b60008261380b57634e487b7160e01b600052601260045260246000fd5b500490565b600081600019048311821515161561382a5761382a613903565b500290565b600062ffffff8381169083168181101561384b5761384b613903565b039392505050565b60008282101561386557613865613903565b500390565b60005b8381101561388557818101518382015260200161386d565b838111156105aa5750506000910152565b6000816138a5576138a5613903565b506000190190565b600181811c908216806138c157607f821691505b602082108114156138e257634e487b7160e01b600052602260045260246000fd5b50919050565b60006000198214156138fc576138fc613903565b5060010190565b634e487b7160e01b600052601160045260246000fd5b634e487b7160e01b600052603260045260246000fd5b634e487b7160e01b600052604160045260246000fd5b6001600160a01b03811681146129bb57600080fdfea264697066735822122067e47df21a8dc280892e1420c9c2caa7c4e361b5e423449aa1e2e6556e2896af64736f6c63430008060033",
  "linkReferences": {},
  "deployedLinkReferences": {}
}