{
  "address": "0x5C1b040fc8b5c03d2e5DcDf54138db64413DCD3B",
  "abi": [
    {
      "anonymous": false,
      "inputs": [
        {
          "indexed": true,
          "internalType": "address",
          "name": "owner",
          "type": "address"
        },
        {
          "indexed": true,
          "internalType": "address",
          "name": "approved",
          "type": "address"
        },
        {
          "indexed": true,
          "internalType": "uint256",
          "name": "tokenId",
          "type": "uint256"
        }
      ],
      "name": "Approval",
      "type": "event"
    },
    {
      "anonymous": false,
      "inputs": [
        {
          "indexed": true,
          "internalType": "address",
          "name": "owner",
          "type": "address"
        },
        {
          "indexed": true,
          "internalType": "address",
          "name": "operator",
          "type": "address"
        },
        {
          "indexed": false,
          "internalType": "bool",
          "name": "approved",
          "type": "bool"
        }
      ],
      "name": "ApprovalForAll",
      "type": "event"
    },
    {
      "anonymous": false,
      "inputs": [
        {
          "indexed": true,
          "internalType": "uint256",
          "name": "productIndex",
          "type": "uint256"
        }
      ],
      "name": "ProductCompleted",
      "type": "event"
    },
    {
      "anonymous": false,
      "inputs": [
        {
          "indexed": true,
          "internalType": "uint256",
          "name": "rangeIndex",
          "type": "uint256"
        },
        {
          "indexed": false,
          "internalType": "uint256",
          "name": "productIndex",
          "type": "uint256"
        }
      ],
      "name": "RangeCompleted",
      "type": "event"
    },
    {
      "anonymous": false,
      "inputs": [
        {
          "indexed": true,
          "internalType": "bytes32",
          "name": "role",
          "type": "bytes32"
        },
        {
          "indexed": true,
          "internalType": "bytes32",
          "name": "previousAdminRole",
          "type": "bytes32"
        },
        {
          "indexed": true,
          "internalType": "bytes32",
          "name": "newAdminRole",
          "type": "bytes32"
        }
      ],
      "name": "RoleAdminChanged",
      "type": "event"
    },
    {
      "anonymous": false,
      "inputs": [
        {
          "indexed": true,
          "internalType": "bytes32",
          "name": "role",
          "type": "bytes32"
        },
        {
          "indexed": true,
          "internalType": "address",
          "name": "account",
          "type": "address"
        },
        {
          "indexed": true,
          "internalType": "address",
          "name": "sender",
          "type": "address"
        }
      ],
      "name": "RoleGranted",
      "type": "event"
    },
    {
      "anonymous": false,
      "inputs": [
        {
          "indexed": true,
          "internalType": "bytes32",
          "name": "role",
          "type": "bytes32"
        },
        {
          "indexed": true,
          "internalType": "address",
          "name": "account",
          "type": "address"
        },
        {
          "indexed": true,
          "internalType": "address",
          "name": "sender",
          "type": "address"
        }
      ],
      "name": "RoleRevoked",
      "type": "event"
    },
    {
      "anonymous": false,
      "inputs": [
        {
          "indexed": true,
          "internalType": "uint256",
          "name": "rangeIndex",
          "type": "uint256"
        },
        {
          "indexed": false,
          "internalType": "uint256",
          "name": "from",
          "type": "uint256"
        },
        {
          "indexed": false,
          "internalType": "uint256",
          "name": "to",
          "type": "uint256"
        }
      ],
      "name": "TradingUnlocked",
      "type": "event"
    },
    {
      "anonymous": false,
      "inputs": [
        {
          "indexed": true,
          "internalType": "address",
          "name": "from",
          "type": "address"
        },
        {
          "indexed": true,
          "internalType": "address",
          "name": "to",
          "type": "address"
        },
        {
          "indexed": true,
          "internalType": "uint256",
          "name": "tokenId",
          "type": "uint256"
        }
      ],
      "name": "Transfer",
      "type": "event"
    },
    {
      "inputs": [],
      "name": "CREATOR",
      "outputs": [
        {
          "internalType": "bytes32",
          "name": "",
          "type": "bytes32"
        }
      ],
      "stateMutability": "view",
      "type": "function"
    },
    {
      "inputs": [],
      "name": "MINTER",
      "outputs": [
        {
          "internalType": "bytes32",
          "name": "",
          "type": "bytes32"
        }
      ],
      "stateMutability": "view",
      "type": "function"
    },
    {
      "inputs": [],
      "name": "TRADER",
      "outputs": [
        {
          "internalType": "bytes32",
          "name": "",
          "type": "bytes32"
        }
      ],
      "stateMutability": "view",
      "type": "function"
    },
    {
      "inputs": [
        {
          "internalType": "address",
          "name": "to",
          "type": "address"
        },
        {
          "internalType": "uint256",
          "name": "tokenId",
          "type": "uint256"
        }
      ],
      "name": "approve",
      "outputs": [],
      "stateMutability": "nonpayable",
      "type": "function"
    },
    {
      "inputs": [
        {
          "internalType": "address",
          "name": "owner",
          "type": "address"
        }
      ],
      "name": "balanceOf",
      "outputs": [
        {
          "internalType": "uint256",
          "name": "",
          "type": "uint256"
        }
      ],
      "stateMutability": "view",
      "type": "function"
    },
    {
      "inputs": [
        {
          "internalType": "uint256",
          "name": "tokenId",
          "type": "uint256"
        }
      ],
      "name": "getApproved",
      "outputs": [
        {
          "internalType": "address",
          "name": "",
          "type": "address"
        }
      ],
      "stateMutability": "view",
      "type": "function"
    },
    {
      "inputs": [
        {
          "internalType": "bytes32",
          "name": "role",
          "type": "bytes32"
        }
      ],
      "name": "getRoleAdmin",
      "outputs": [
        {
          "internalType": "bytes32",
          "name": "",
          "type": "bytes32"
        }
      ],
      "stateMutability": "view",
      "type": "function"
    },
    {
      "inputs": [
        {
          "internalType": "bytes32",
          "name": "role",
          "type": "bytes32"
        },
        {
          "internalType": "uint256",
          "name": "index",
          "type": "uint256"
        }
      ],
      "name": "getRoleMember",
      "outputs": [
        {
          "internalType": "address",
          "name": "",
          "type": "address"
        }
      ],
      "stateMutability": "view",
      "type": "function"
    },
    {
      "inputs": [
        {
          "internalType": "bytes32",
          "name": "role",
          "type": "bytes32"
        }
      ],
      "name": "getRoleMemberCount",
      "outputs": [
        {
          "internalType": "uint256",
          "name": "",
          "type": "uint256"
        }
      ],
      "stateMutability": "view",
      "type": "function"
    },
    {
      "inputs": [
        {
          "internalType": "bytes32",
          "name": "role",
          "type": "bytes32"
        },
        {
          "internalType": "address",
          "name": "account",
          "type": "address"
        }
      ],
      "name": "grantRole",
      "outputs": [],
      "stateMutability": "nonpayable",
      "type": "function"
    },
    {
      "inputs": [
        {
          "internalType": "bytes32",
          "name": "role",
          "type": "bytes32"
        },
        {
          "internalType": "address",
          "name": "account",
          "type": "address"
        }
      ],
      "name": "hasRole",
      "outputs": [
        {
          "internalType": "bool",
          "name": "",
          "type": "bool"
        }
      ],
      "stateMutability": "view",
      "type": "function"
    },
    {
      "inputs": [
        {
          "internalType": "address",
          "name": "owner",
          "type": "address"
        },
        {
          "internalType": "address",
          "name": "operator",
          "type": "address"
        }
      ],
      "name": "isApprovedForAll",
      "outputs": [
        {
          "internalType": "bool",
          "name": "",
          "type": "bool"
        }
      ],
      "stateMutability": "view",
      "type": "function"
    },
    {
      "inputs": [
        {
          "internalType": "address",
          "name": "to",
          "type": "address"
        },
        {
          "internalType": "uint256",
          "name": "rangeId",
          "type": "uint256"
        },
        {
          "internalType": "uint256",
          "name": "indexInRange",
          "type": "uint256"
        }
      ],
      "name": "mintFromRange",
      "outputs": [],
      "stateMutability": "nonpayable",
      "type": "function"
    },
    {
      "inputs": [
        {
          "internalType": "address[]",
          "name": "to",
          "type": "address[]"
        },
        {
          "internalType": "uint256",
          "name": "rangeId",
          "type": "uint256"
        },
        {
          "internalType": "uint256[]",
          "name": "indexInRange",
          "type": "uint256[]"
        }
      ],
      "name": "mintFromRangeBatch",
      "outputs": [],
      "stateMutability": "nonpayable",
      "type": "function"
    },
    {
      "inputs": [],
      "name": "name",
      "outputs": [
        {
          "internalType": "string",
          "name": "",
          "type": "string"
        }
      ],
      "stateMutability": "view",
      "type": "function"
    },
    {
      "inputs": [
        {
          "internalType": "uint256",
          "name": "rangeIndex",
          "type": "uint256"
        }
      ],
      "name": "nextMintableTokenInRange",
      "outputs": [
        {
          "internalType": "uint256",
          "name": "",
          "type": "uint256"
        }
      ],
      "stateMutability": "view",
      "type": "function"
    },
    {
      "inputs": [
        {
          "internalType": "uint256",
          "name": "tokenId",
          "type": "uint256"
        }
      ],
      "name": "ownerOf",
      "outputs": [
        {
          "internalType": "address",
          "name": "",
          "type": "address"
        }
      ],
      "stateMutability": "view",
      "type": "function"
    },
    {
      "inputs": [
        {
          "internalType": "bytes32",
          "name": "role",
          "type": "bytes32"
        },
        {
          "internalType": "address",
          "name": "account",
          "type": "address"
        }
      ],
      "name": "renounceRole",
      "outputs": [],
      "stateMutability": "nonpayable",
      "type": "function"
    },
    {
      "inputs": [
        {
          "internalType": "bytes32",
          "name": "role",
          "type": "bytes32"
        },
        {
          "internalType": "address",
          "name": "account",
          "type": "address"
        }
      ],
      "name": "revokeRole",
      "outputs": [],
      "stateMutability": "nonpayable",
      "type": "function"
    },
    {
      "inputs": [
        {
          "internalType": "address",
          "name": "from",
          "type": "address"
        },
        {
          "internalType": "address",
          "name": "to",
          "type": "address"
        },
        {
          "internalType": "uint256",
          "name": "tokenId",
          "type": "uint256"
        }
      ],
      "name": "safeTransferFrom",
      "outputs": [],
      "stateMutability": "nonpayable",
      "type": "function"
    },
    {
      "inputs": [
        {
          "internalType": "address",
          "name": "from",
          "type": "address"
        },
        {
          "internalType": "address",
          "name": "to",
          "type": "address"
        },
        {
          "internalType": "uint256",
          "name": "tokenId",
          "type": "uint256"
        },
        {
          "internalType": "bytes",
          "name": "_data",
          "type": "bytes"
        }
      ],
      "name": "safeTransferFrom",
      "outputs": [],
      "stateMutability": "nonpayable",
      "type": "function"
    },
    {
      "inputs": [
        {
          "internalType": "address",
          "name": "operator",
          "type": "address"
        },
        {
          "internalType": "bool",
          "name": "approved",
          "type": "bool"
        }
      ],
      "name": "setApprovalForAll",
      "outputs": [],
      "stateMutability": "nonpayable",
      "type": "function"
    },
    {
      "inputs": [],
      "name": "symbol",
      "outputs": [
        {
          "internalType": "string",
          "name": "",
          "type": "string"
        }
      ],
      "stateMutability": "view",
      "type": "function"
    },
    {
      "inputs": [
        {
          "internalType": "uint256",
          "name": "index",
          "type": "uint256"
        }
      ],
      "name": "tokenByIndex",
      "outputs": [
        {
          "internalType": "uint256",
          "name": "",
          "type": "uint256"
        }
      ],
      "stateMutability": "view",
      "type": "function"
    },
    {
      "inputs": [
        {
          "internalType": "address",
          "name": "owner",
          "type": "address"
        },
        {
          "internalType": "uint256",
          "name": "index",
          "type": "uint256"
        }
      ],
      "name": "tokenOfOwnerByIndex",
      "outputs": [
        {
          "internalType": "uint256",
          "name": "",
          "type": "uint256"
        }
      ],
      "stateMutability": "view",
      "type": "function"
    },
    {
      "inputs": [],
      "name": "totalSupply",
      "outputs": [
        {
          "internalType": "uint256",
          "name": "",
          "type": "uint256"
        }
      ],
      "stateMutability": "view",
      "type": "function"
    },
    {
      "inputs": [
        {
          "internalType": "address",
          "name": "from",
          "type": "address"
        },
        {
          "internalType": "address",
          "name": "to",
          "type": "address"
        },
        {
          "internalType": "uint256",
          "name": "tokenId",
          "type": "uint256"
        }
      ],
      "name": "transferFrom",
      "outputs": [],
      "stateMutability": "nonpayable",
      "type": "function"
    }
  ],
  "transactionHash": "0x1acbdca76236d9a94ef390011f9237206e5cd46b9028f2905e77c828959319b8",
  "args": [],
  "numDeployments": 2,
  "solcInputHash": "bf669b2060c289e970e5f0b3838c1436",
  "bytecode": "0x608060405234801561001057600080fd5b50612950806100206000396000f3fe608060405234801561001057600080fd5b50600436106101a95760003560e01c80635e79824d116100f9578063b88d4fde11610097578063e4fbb60911610071578063e4fbb609146103b4578063e7662243146103db578063e985e9c5146103ee578063fe6d81241461040157600080fd5b8063b88d4fde1461037b578063ca15c8731461038e578063d547741f146103a157600080fd5b80639010d07c116100d35780639010d07c1461032a57806391d148541461033d57806395d89b4114610360578063a22cb4651461036857600080fd5b80635e79824d146102f15780636352211e1461030457806370a082311461031757600080fd5b8063248a9ca3116101665780632f745c59116101405780632f745c59146102a557806336568abe146102b857806342842e0e146102cb5780634f6ccce7146102de57600080fd5b8063248a9ca31461025c578063265423701461027f5780632f2ff15d1461029257600080fd5b806306fdde03146101ae578063081812fc146101cc578063095ea7b3146101f7578063175c4ef81461020c57806318160ddd1461024157806323b872dd14610249575b600080fd5b6101b6610428565b6040516101c3919061234a565b60405180910390f35b6101df6101da36600461235d565b6104bc565b6040516001600160a01b0390911681526020016101c3565b61020a610205366004612392565b610556565b005b6102337f872340a532bdd7bb02bea115c1b0f1ba87eac982f5b79b51ac189ffaac1b6fce81565b6040519081526020016101c3565b600854610233565b61020a6102573660046123bc565b61066b565b61023361026a36600461235d565b6000908152600a602052604090206001015490565b61020a61028d366004612444565b61069c565b61020a6102a03660046124be565b6107ef565b6102336102b3366004612392565b610815565b61020a6102c63660046124be565b6108ae565b61020a6102d93660046123bc565b61092c565b6102336102ec36600461235d565b610947565b6102336102ff36600461235d565b6109db565b6101df61031236600461235d565b610d4d565b6102336103253660046124ea565b610dc4565b6101df610338366004612505565b610e4b565b61035061034b3660046124be565b610e6a565b60405190151581526020016101c3565b6101b6610e95565b61020a610376366004612527565b610ea7565b61020a610389366004612579565b610eb2565b61023361039c36600461235d565b610eea565b61020a6103af3660046124be565b610f01565b6102337f3c2519c4487d47714872f92cf90a50c25f5deaec2789dc2a497b1272df611db681565b61020a6103e9366004612655565b610f27565b6103506103fc366004612688565b610f5d565b6102337ff0887ba65ee2024ea881d91b74c2450ef19e1557f03bed3ea9f16b037cbe2dc981565b6060600080018054610439906126b2565b80601f0160208091040260200160405190810160405280929190818152602001828054610465906126b2565b80156104b25780601f10610487576101008083540402835291602001916104b2565b820191906000526020600020905b81548152906001019060200180831161049557829003601f168201915b5050505050905090565b6000818152600260205260408120546001600160a01b031661053a5760405162461bcd60e51b815260206004820152602c60248201527f4552433732313a20617070726f76656420717565727920666f72206e6f6e657860448201526b34b9ba32b73a103a37b5b2b760a11b60648201526084015b60405180910390fd5b506000908152600460205260409020546001600160a01b031690565b600061056182610d4d565b9050806001600160a01b0316836001600160a01b0316036105ce5760405162461bcd60e51b815260206004820152602160248201527f4552433732313a20617070726f76616c20746f2063757272656e74206f776e656044820152603960f91b6064820152608401610531565b336001600160a01b03821614806105ea57506105ea8133610f5d565b61065c5760405162461bcd60e51b815260206004820152603860248201527f4552433732313a20617070726f76652063616c6c6572206973206e6f74206f7760448201527f6e6572206e6f7220617070726f76656420666f7220616c6c00000000000000006064820152608401610531565b6106668383610fbe565b505050565b610675338261102c565b6106915760405162461bcd60e51b8152600401610531906126ec565b610666838383611103565b7ff0887ba65ee2024ea881d91b74c2450ef19e1557f03bed3ea9f16b037cbe2dc96106c781336112aa565b846107145760405162461bcd60e51b815260206004820152601860248201527f52414952204552433732313a20456d70747920617272617900000000000000006044820152606401610531565b8482146107805760405162461bcd60e51b815260206004820152603460248201527f52414952204552433732313a20426f7468206172726179732073686f756c64206044820152730d0c2ecca40e8d0ca40e6c2daca40d8cadccee8d60631b6064820152608401610531565b60005b858110156107e6576107d48787838181106107a0576107a061273d565b90506020020160208101906107b591906124ea565b868686858181106107c8576107c861273d565b9050602002013561130e565b806107de81612769565b915050610783565b50505050505050565b6000828152600a602052604090206001015461080b81336112aa565b61066683836117cd565b600061082083610dc4565b82106108825760405162461bcd60e51b815260206004820152602b60248201527f455243373231456e756d657261626c653a206f776e657220696e646578206f7560448201526a74206f6620626f756e647360a81b6064820152608401610531565b506001600160a01b03821660009081526006602090815260408083208484529091529020545b92915050565b6001600160a01b038116331461091e5760405162461bcd60e51b815260206004820152602f60248201527f416363657373436f6e74726f6c3a2063616e206f6e6c792072656e6f756e636560448201526e103937b632b9903337b91039b2b63360891b6064820152608401610531565b6109288282611867565b5050565b61066683838360405180602001604052806000815250610eb2565b600061095260085490565b82106109b55760405162461bcd60e51b815260206004820152602c60248201527f455243373231456e756d657261626c653a20676c6f62616c20696e646578206f60448201526b7574206f6620626f756e647360a01b6064820152608401610531565b60088054839081106109c9576109c961273d565b90600052602060002001549050919050565b600f546000908210610a405760405162461bcd60e51b815260206004820152602860248201527f52414952204552433732312052616e6765733a2052616e676520646f6573206e6044820152671bdd08195e1a5cdd60c21b6064820152608401610531565b600080600f018381548110610a5757610a5761273d565b90600052602060002090600702016040518060e0016040529081600082015481526020016001820154815260200160028201548152602001600382015481526020016004820154815260200160058201548152602001600682018054610abc906126b2565b80601f0160208091040260200160405190810160405280929190818152602001828054610ae8906126b2565b8015610b355780601f10610b0a57610100808354040283529160200191610b35565b820191906000526020600020905b815481529060010190602001808311610b1857829003601f168201915b50505091909252505050600084815260186020526040812054600e805493945091928110610b6557610b6561273d565b90600052602060002090600502016040518060a0016040529081600082015481526020016001820154815260200160028201548152602001600382018054610bac906126b2565b80601f0160208091040260200160405190810160405280929190818152602001828054610bd8906126b2565b8015610c255780601f10610bfa57610100808354040283529160200191610c25565b820191906000526020600020905b815481529060010190602001808311610c0857829003601f168201915b5050505050815260200160048201805480602002602001604051908101604052809291908181526020018280548015610c7d57602002820191906000526020600020905b815481526020019060010190808311610c69575b5050509190925250508351919250505b8260200151811015610ce5578151610cc790610caa908390612782565b6000908152600260205260409020546001600160a01b0316151590565b610cd357949350505050565b80610cdd81612769565b915050610c8d565b5060405162461bcd60e51b815260206004820152603660248201527f52414952204552433732313a20546865726520617265206e6f20746f6b656e7360448201527520617661696c61626c6520666f72206d696e74696e6760501b6064820152608401610531565b6000818152600260205260408120546001600160a01b0316806108a85760405162461bcd60e51b815260206004820152602960248201527f4552433732313a206f776e657220717565727920666f72206e6f6e657869737460448201526832b73a103a37b5b2b760b91b6064820152608401610531565b60006001600160a01b038216610e2f5760405162461bcd60e51b815260206004820152602a60248201527f4552433732313a2062616c616e636520717565727920666f7220746865207a65604482015269726f206164647265737360b01b6064820152608401610531565b506001600160a01b031660009081526003602052604090205490565b6000828152600b60205260408120610e6390836118e2565b9392505050565b6000918252600a602090815260408084206001600160a01b0393909316845291905290205460ff1690565b606060006001018054610439906126b2565b6109283383836118ee565b610ebc338361102c565b610ed85760405162461bcd60e51b8152600401610531906126ec565b610ee4848484846119bc565b50505050565b6000818152600b602052604081206108a8906119ef565b6000828152600a6020526040902060010154610f1d81336112aa565b6106668383611867565b7ff0887ba65ee2024ea881d91b74c2450ef19e1557f03bed3ea9f16b037cbe2dc9610f5281336112aa565b610ee484848461130e565b6000610f897f872340a532bdd7bb02bea115c1b0f1ba87eac982f5b79b51ac189ffaac1b6fce83610e6a565b80610e635750506001600160a01b03918216600090815260056020908152604080832093909416825291909152205460ff1690565b600081815260046020526040902080546001600160a01b0319166001600160a01b0384169081179091558190610ff382610d4d565b6001600160a01b03167f8c5be1e5ebec7d5bd14f71427d1e84f3dd0314c0f7b2291e5b200ac8c7c3b92560405160405180910390a45050565b6000818152600260205260408120546001600160a01b03166110a55760405162461bcd60e51b815260206004820152602c60248201527f4552433732313a206f70657261746f7220717565727920666f72206e6f6e657860448201526b34b9ba32b73a103a37b5b2b760a11b6064820152608401610531565b60006110b083610d4d565b9050806001600160a01b0316846001600160a01b031614806110eb5750836001600160a01b03166110e0846104bc565b6001600160a01b0316145b806110fb57506110fb8185610f5d565b949350505050565b826001600160a01b031661111682610d4d565b6001600160a01b03161461117a5760405162461bcd60e51b815260206004820152602560248201527f4552433732313a207472616e736665722066726f6d20696e636f72726563742060448201526437bbb732b960d91b6064820152608401610531565b6001600160a01b0382166111dc5760405162461bcd60e51b8152602060048201526024808201527f4552433732313a207472616e7366657220746f20746865207a65726f206164646044820152637265737360e01b6064820152608401610531565b6111e78383836119f9565b6111f2600082610fbe565b6001600160a01b038316600090815260036020526040812080546001929061121b908490612795565b90915550506001600160a01b0382166000908152600360205260408120805460019290611249908490612782565b909155505060008181526002602052604080822080546001600160a01b0319166001600160a01b0386811691821790925591518493918716917fddf252ad1be2c89b69c2b068fc378daa952ba7f163c4a11628f55a4df523b3ef91a4505050565b6112b48282610e6a565b610928576112cc816001600160a01b03166014611b9f565b6112d7836020611b9f565b6040516020016112e89291906127a8565b60408051601f198184030181529082905262461bcd60e51b82526105319160040161234a565b600f5482106113695760405162461bcd60e51b815260206004820152602160248201527f52414952204552433732313a2052616e676520646f6573206e6f7420657869736044820152601d60fa1b6064820152608401610531565b600080600f0183815481106113805761138061273d565b6000918252602080832086845260189091526040832054600e805460079094029092019450909181106113b5576113b561273d565b90600052602060002090600502019050600081600201541161143f5760405162461bcd60e51b815260206004820152603760248201527f52414952204552433732313a2043616e6e6f74206d696e74206d6f726520746f60448201527f6b656e732066726f6d20746869732070726f64756374210000000000000000006064820152608401610531565b60008260030154116114b15760405162461bcd60e51b815260206004820152603560248201527f52414952204552433732313a2043616e6e6f74206d696e74206d6f726520746f6044820152746b656e732066726f6d20746869732072616e67652160581b6064820152608401610531565b600082600201541161152b5760405162461bcd60e51b815260206004820152603d60248201527f52414952204552433732313a204e6f7420616c6c6f77656420746f206d696e7460448201527f206d6f726520746f6b656e732066726f6d20746869732072616e6765210000006064820152608401610531565b81548310801590611540575081600101548311155b61158c5760405162461bcd60e51b815260206004820181905260248201527f52414952204552433732313a20496e76616c696420746f6b656e20696e6465786044820152606401610531565b6115b5858483600001546115a09190612782565b60405180602001604052806000815250611d3b565b6002820154156115d7576002820180549060006115d18361281d565b91905055505b600382015415611650576003820180549060006115f38361281d565b91905055508160030154600003611650576000848152601860205260409081902054905185917fc9ab1ba86a360ece15473f1c6edd6402b347ae87bf9bc3c0172518fd811673999161164791815260200190565b60405180910390a25b6004820154156116c65760048201805490600061166c8361281d565b919050555081600401546000036116c6578154600183015460405186927f83d23f069f5730ce94e107a9258bae3b7a0f97184978fd7daa41c8df8ac6c29e926116bd92918252602082015260400190565b60405180910390a25b60028101541561172b576002810180549060006116e28361281d565b9190505550806002015460000361172b5760008481526018602052604080822054905190917fe213303292163b95c0f90623eb8bc1f2c15b6d888051c10cc662e78204ff042291a25b6000848152601860205260408120548254909160109161174c908790612782565b81526020019081526020016000208190555083600060110160008584600001546117769190612782565b81526020808201929092526040908101600090812093909355868352601882528083205483526016909152902081546117b0908590612782565b815460018101835560009283526020909220909101555050505050565b6117d78282610e6a565b610928576000828152600a602090815260408083206001600160a01b03851684529091529020805460ff1916600117905561180f3390565b6001600160a01b0316816001600160a01b0316837f2f8788117e7eff1d82e926ec794901d17c78024a50270940304540a733656f0d60405160405180910390a46000828152600b602052604090206106669082611d6e565b6118718282610e6a565b15610928576000828152600a602090815260408083206001600160a01b0385168085529252808320805460ff1916905551339285917ff6391f5c32d9c69d2a47ea670b442974b53935d1edc7fd64eb21e047a839171b9190a46000828152600b602052604090206106669082611d83565b6000610e638383611d98565b816001600160a01b0316836001600160a01b03160361194f5760405162461bcd60e51b815260206004820152601960248201527f4552433732313a20617070726f766520746f2063616c6c6572000000000000006044820152606401610531565b6001600160a01b03838116600081815260056020908152604080832094871680845294825291829020805460ff191686151590811790915591519182527f17307eab39ab6107e8899845ad3d59bd9653f200f220920489ca2b5937696c31910160405180910390a3505050565b6119c7848484611103565b6119d384848484611dc2565b610ee45760405162461bcd60e51b815260040161053190612834565b60006108a8825490565b6001600160a01b03831615801590611a1957506001600160a01b03821615155b15611ae757611a487f872340a532bdd7bb02bea115c1b0f1ba87eac982f5b79b51ac189ffaac1b6fce336112aa565b600081815260116020526040902054600f80549091908110611a6c57611a6c61273d565b906000526020600020906007020160040154600014611ae75760405162461bcd60e51b815260206004820152603160248201527f52414952204552433732313a2043616e6e6f74207472616e736665722066726f6044820152706d2061206c6f636b65642072616e67652160781b6064820152608401610531565b6001600160a01b038316611b4257611b3d81600880546000838152600960205260408120829055600182018355919091527ff3f7a9fe364faab93b216da50a3214154f22a0a2b415b23a84c8169e8b636ee30155565b611b65565b816001600160a01b0316836001600160a01b031614611b6557611b658382611ec3565b6001600160a01b038216611b7c5761066681611f60565b826001600160a01b0316826001600160a01b031614610666576106668282612012565b60606000611bae836002612886565b611bb9906002612782565b67ffffffffffffffff811115611bd157611bd1612563565b6040519080825280601f01601f191660200182016040528015611bfb576020820181803683370190505b509050600360fc1b81600081518110611c1657611c1661273d565b60200101906001600160f81b031916908160001a905350600f60fb1b81600181518110611c4557611c4561273d565b60200101906001600160f81b031916908160001a9053506000611c69846002612886565b611c74906001612782565b90505b6001811115611cec576f181899199a1a9b1b9c1cb0b131b232b360811b85600f1660108110611ca857611ca861273d565b1a60f81b828281518110611cbe57611cbe61273d565b60200101906001600160f81b031916908160001a90535060049490941c93611ce58161281d565b9050611c77565b508315610e635760405162461bcd60e51b815260206004820181905260248201527f537472696e67733a20686578206c656e67746820696e73756666696369656e746044820152606401610531565b611d458383612056565b611d526000848484611dc2565b6106665760405162461bcd60e51b815260040161053190612834565b6000610e63836001600160a01b0384166121b8565b6000610e63836001600160a01b038416612207565b6000826000018281548110611daf57611daf61273d565b9060005260206000200154905092915050565b60006001600160a01b0384163b15611eb857604051630a85bd0160e11b81526001600160a01b0385169063150b7a0290611e0690339089908890889060040161289d565b6020604051808303816000875af1925050508015611e41575060408051601f3d908101601f19168201909252611e3e918101906128da565b60015b611e9e573d808015611e6f576040519150601f19603f3d011682016040523d82523d6000602084013e611e74565b606091505b508051600003611e965760405162461bcd60e51b815260040161053190612834565b805181602001fd5b6001600160e01b031916630a85bd0160e11b1490506110fb565b506001949350505050565b60006001611ed084610dc4565b611eda9190612795565b600083815260076020526040902054909150808214611f2d576001600160a01b03841660009081526006602090815260408083208584528252808320548484528184208190558352600790915290208190555b5060009182526007602090815260408084208490556001600160a01b039094168352600681528383209183525290812055565b600854600090611f7290600190612795565b60008381526009602052604081205460088054939450909284908110611f9a57611f9a61273d565b906000526020600020015490508060006008018381548110611fbe57611fbe61273d565b6000918252602080832090910192909255828152600990915260408082208490558582528120556008805480611ff657611ff6612904565b6001900381819060005260206000200160009055905550505050565b600061201d83610dc4565b6001600160a01b039093166000908152600660209081526040808320868452825280832085905593825260079052919091209190915550565b6001600160a01b0382166120ac5760405162461bcd60e51b815260206004820181905260248201527f4552433732313a206d696e7420746f20746865207a65726f20616464726573736044820152606401610531565b6000818152600260205260409020546001600160a01b0316156121115760405162461bcd60e51b815260206004820152601c60248201527f4552433732313a20746f6b656e20616c7265616479206d696e746564000000006044820152606401610531565b61211d600083836119f9565b6001600160a01b0382166000908152600360205260408120805460019290612146908490612782565b9091555050600081815260026020908152604080832080546001600160a01b0319166001600160a01b0387169081179091556019909252808320805460ff19166001179055518392907fddf252ad1be2c89b69c2b068fc378daa952ba7f163c4a11628f55a4df523b3ef908290a45050565b60008181526001830160205260408120546121ff575081546001818101845560008481526020808220909301849055845484825282860190935260409020919091556108a8565b5060006108a8565b600081815260018301602052604081205480156122f057600061222b600183612795565b855490915060009061223f90600190612795565b90508181146122a457600086600001828154811061225f5761225f61273d565b90600052602060002001549050808760000184815481106122825761228261273d565b6000918252602080832090910192909255918252600188019052604090208390555b85548690806122b5576122b5612904565b6001900381819060005260206000200160009055905585600101600086815260200190815260200160002060009055600193505050506108a8565b60009150506108a8565b60005b838110156123155781810151838201526020016122fd565b50506000910152565b600081518084526123368160208601602086016122fa565b601f01601f19169290920160200192915050565b602081526000610e63602083018461231e565b60006020828403121561236f57600080fd5b5035919050565b80356001600160a01b038116811461238d57600080fd5b919050565b600080604083850312156123a557600080fd5b6123ae83612376565b946020939093013593505050565b6000806000606084860312156123d157600080fd5b6123da84612376565b92506123e860208501612376565b9150604084013590509250925092565b60008083601f84011261240a57600080fd5b50813567ffffffffffffffff81111561242257600080fd5b6020830191508360208260051b850101111561243d57600080fd5b9250929050565b60008060008060006060868803121561245c57600080fd5b853567ffffffffffffffff8082111561247457600080fd5b61248089838a016123f8565b90975095506020880135945060408801359150808211156124a057600080fd5b506124ad888289016123f8565b969995985093965092949392505050565b600080604083850312156124d157600080fd5b823591506124e160208401612376565b90509250929050565b6000602082840312156124fc57600080fd5b610e6382612376565b6000806040838503121561251857600080fd5b50508035926020909101359150565b6000806040838503121561253a57600080fd5b61254383612376565b91506020830135801515811461255857600080fd5b809150509250929050565b634e487b7160e01b600052604160045260246000fd5b6000806000806080858703121561258f57600080fd5b61259885612376565b93506125a660208601612376565b925060408501359150606085013567ffffffffffffffff808211156125ca57600080fd5b818701915087601f8301126125de57600080fd5b8135818111156125f0576125f0612563565b604051601f8201601f19908116603f0116810190838211818310171561261857612618612563565b816040528281528a602084870101111561263157600080fd5b82602086016020830137600060208483010152809550505050505092959194509250565b60008060006060848603121561266a57600080fd5b61267384612376565b95602085013595506040909401359392505050565b6000806040838503121561269b57600080fd5b6126a483612376565b91506124e160208401612376565b600181811c908216806126c657607f821691505b6020821081036126e657634e487b7160e01b600052602260045260246000fd5b50919050565b60208082526031908201527f4552433732313a207472616e736665722063616c6c6572206973206e6f74206f6040820152701ddb995c881b9bdc88185c1c1c9bdd9959607a1b606082015260800190565b634e487b7160e01b600052603260045260246000fd5b634e487b7160e01b600052601160045260246000fd5b60006001820161277b5761277b612753565b5060010190565b808201808211156108a8576108a8612753565b818103818111156108a8576108a8612753565b7f416363657373436f6e74726f6c3a206163636f756e74200000000000000000008152600083516127e08160178501602088016122fa565b7001034b99036b4b9b9b4b733903937b6329607d1b60179184019182015283516128118160288401602088016122fa565b01602801949350505050565b60008161282c5761282c612753565b506000190190565b60208082526032908201527f4552433732313a207472616e7366657220746f206e6f6e20455243373231526560408201527131b2b4bb32b91034b6b83632b6b2b73a32b960711b606082015260800190565b80820281158282048414176108a8576108a8612753565b6001600160a01b03858116825284166020820152604081018390526080606082018190526000906128d09083018461231e565b9695505050505050565b6000602082840312156128ec57600080fd5b81516001600160e01b031981168114610e6357600080fd5b634e487b7160e01b600052603160045260246000fdfea264697066735822122020d7fac139895ceb6a6d57fb1b2388277c62d2a6cd227d78684f3c1db7944fae64736f6c63430008130033",
  "devdoc": {
    "author": "Juan M. Sanchez M.",
    "details": "Notice that this contract is inheriting from AccessControlAppStorageEnumerable721",
    "events": {
      "Approval(address,address,uint256)": {
        "params": {
          "approved": "Contains the address of the user approved for move the token",
          "owner": "Contains the address of the owner of the tokens",
          "tokenId": "Contains the id of the transfered token"
        }
      },
      "ApprovalForAll(address,address,bool)": {
        "params": {
          "approved": "Boolean flag to approve or disapprove the operator",
          "operator": "Contains the address of the user approved for move all the tokens",
          "owner": "Contains the address of the owner of the tokens"
        }
      },
      "ProductCompleted(uint256)": {
        "params": {
          "productIndex": "Contains the position where the product was indexed"
        }
      },
      "RangeCompleted(uint256,uint256)": {
        "params": {
          "productIndex": "Contains the indexed location for the product",
          "rangeIndex": "Contains the position where the range was indexed "
        }
      },
      "RoleAdminChanged(bytes32,bytes32,bytes32)": {
        "params": {
          "newAdminRole": "contains the new status of the role",
          "previousAdminRole": "contains the previous status of the role",
          "role": "Contains the role we want to update"
        }
      },
      "RoleGranted(bytes32,address,address)": {
        "params": {
          "account": "contains the address that we want to grant the role",
          "role": "Contains the role we want to update",
          "sender": "contains the address that is changing the role of the account"
        }
      },
      "RoleRevoked(bytes32,address,address)": {
        "params": {
          "account": "contains the address that we want to revoke the role",
          "role": "Contains the role we want to update",
          "sender": "contains the address that is changing the role of the account"
        }
      },
      "TradingUnlocked(uint256,uint256,uint256)": {
        "params": {
          "from": "Containt the date of begining of the range",
          "rangeIndex": "Contains the position where the range is indexed",
          "to": "Contain the date of end for the range"
        }
      },
      "Transfer(address,address,uint256)": {
        "params": {
          "from": "Contains the sender of the transaction",
          "to": "Contains the destiny address of the transaction",
          "tokenId": "Contains the id of the token to transfer"
        }
      }
    },
    "kind": "dev",
    "methods": {
      "approve(address,uint256)": {
        "params": {
          "to": "Contains the facet addresses and function selectors",
          "tokenId": "Contains the facet addresses and function selectors"
        }
      },
      "balanceOf(address)": {
        "params": {
          "owner": "Contains the address of the owner of tokens that we want to verify"
        },
        "returns": {
          "_0": "uint256  with the total of the owned tokens"
        }
      },
      "getApproved(uint256)": {
        "params": {
          "tokenId": "Contains the token of the id to be added to the account"
        },
        "returns": {
          "_0": "address which has the authorization to move the token"
        }
      },
      "getRoleAdmin(bytes32)": {
        "params": {
          "role": "Contains the role that we want to verify"
        },
        "returns": {
          "_0": "bytes that indicates if an account has or not an admin role"
        }
      },
      "getRoleMember(bytes32,uint256)": {
        "params": {
          "index": "Contains the indexed position to verify inside the role members list",
          "role": "Contains the role that we want to verify"
        },
        "returns": {
          "_0": "address that indicates the address indexed in that position"
        }
      },
      "getRoleMemberCount(bytes32)": {
        "params": {
          "role": "Contains the role that we want to verify"
        },
        "returns": {
          "_0": "uint256 that indicates the total accounts with that role"
        }
      },
      "grantRole(bytes32,address)": {
        "details": "This function is only available to an account with an Admin role",
        "params": {
          "account": "Contains the account that has the role we want to update",
          "role": "Contains the role that we want to grant"
        }
      },
      "hasRole(bytes32,address)": {
        "params": {
          "account": "Contains the account address thay we want to verify",
          "role": "Contains the role that we want to verify"
        },
        "returns": {
          "_0": "bool that indicates if an account has or not a role"
        }
      },
      "isApprovedForAll(address,address)": {
        "details": "Overrides the OpenZeppelin standard by allowing anyone with the TRADER role to transfer tokens",
        "params": {
          "operator": "Operator of the tokens.",
          "owner": "Owner of the tokens."
        },
        "returns": {
          "_0": "bool \t\tNotify if the operator is approved or not for move all the tokens"
        }
      },
      "mintFromRange(address,uint256,uint256)": {
        "details": "Only an account with the `MINTER` role is available to use this function",
        "params": {
          "indexInRange": "Contains the facet addresses and function selectors",
          "rangeId": "Contains the facet addresses and function selectors",
          "to": "Contains the facet addresses and function selectors"
        }
      },
      "mintFromRangeBatch(address[],uint256,uint256[])": {
        "params": {
          "indexInRange": "Contains array of ranges that will be used to index the minted NFT",
          "rangeId": "Contains the id of the range that we want to use for minting ",
          "to": "Contains the address that will own the minted token"
        }
      },
      "name()": {
        "returns": {
          "_0": "string with the name of the token"
        }
      },
      "nextMintableTokenInRange(uint256)": {
        "params": {
          "rangeIndex": "Contains index of the range that we want to veify"
        },
        "returns": {
          "_0": "uint which containts the immediately next token absent of owner"
        }
      },
      "ownerOf(uint256)": {
        "params": {
          "tokenId": "Contains the facet addresses and function selectors"
        },
        "returns": {
          "_0": "address Which contains the owner of the token "
        }
      },
      "renounceRole(bytes32,address)": {
        "details": "Currently you can only renounce to your own roles",
        "params": {
          "account": "Contains the account that has the role we want to update",
          "role": "Contains the role to remove from our account"
        }
      },
      "revokeRole(bytes32,address)": {
        "details": "This function is only available to an account with an Admin role",
        "params": {
          "account": "Contains the account that has the role we want to update",
          "role": "Contains the role that we want to revoke"
        }
      },
      "safeTransferFrom(address,address,uint256)": {
        "params": {
          "from": "Contains the address of the owner of the token",
          "to": "Contains the address of the receiver of the token",
          "tokenId": "Contains the ID of the token to transfer"
        }
      },
      "safeTransferFrom(address,address,uint256,bytes)": {
        "params": {
          "_data": "Contains any adicional info or massage",
          "from": "Contains the address of the owner of the token",
          "to": "Contains the address of the receiver of the token",
          "tokenId": "Contains the ID of the token to transfer"
        }
      },
      "setApprovalForAll(address,bool)": {
        "params": {
          "approved": "Contains the status of approved or not for the operator",
          "operator": "Contains the address with authorization to move the tokens"
        }
      },
      "symbol()": {
        "returns": {
          "_0": "string with the symbol of the token"
        }
      },
      "tokenByIndex(uint256)": {
        "params": {
          "index": "Contains the index position that we want to check"
        },
        "returns": {
          "_0": "uint256 which contains the token indexed in that position "
        }
      },
      "tokenOfOwnerByIndex(address,uint256)": {
        "params": {
          "index": "Contains the index of the list of owned token that we want to check",
          "owner": "Contains the address of the owner of tokens that we want to verify"
        },
        "returns": {
          "_0": "uint256 which contains the owned token "
        }
      },
      "totalSupply()": {
        "returns": {
          "_0": "uint256 which contains the total amount of tokens "
        }
      },
      "transferFrom(address,address,uint256)": {
        "params": {
          "from": "Contains the address of the owner of the token",
          "to": "Contains the address of the receiver of the token",
          "tokenId": "Contains the ID of the token to transfer"
        }
      }
    },
    "title": "This is contract to manage the ERC721 NFT facet ",
    "version": 1
  },
  "userdoc": {
    "events": {
      "Approval(address,address,uint256)": {
        "notice": "This event stores in the blockchain when an user is approved to move a token"
      },
      "ApprovalForAll(address,address,bool)": {
        "notice": "This event stores in the blockchain when a owner is approved to move all the tokens"
      },
      "ProductCompleted(uint256)": {
        "notice": "This event stores in the blockchain when a product is succesfully finished"
      },
      "RangeCompleted(uint256,uint256)": {
        "notice": "This event stores in the blockchain when a range is succesfully established"
      },
      "RoleAdminChanged(bytes32,bytes32,bytes32)": {
        "notice": "This event stores in the blockchain when we change an admin role"
      },
      "RoleGranted(bytes32,address,address)": {
        "notice": "This event stores in the blockchain when we grant a role"
      },
      "RoleRevoked(bytes32,address,address)": {
        "notice": "This event stores in the blockchain when we revoke a role"
      },
      "TradingUnlocked(uint256,uint256,uint256)": {
        "notice": "This event stores in the blockchain when a trading is unlocked"
      },
      "Transfer(address,address,uint256)": {
        "notice": "This event stores in the blockchain when a trasfer is made"
      }
    },
    "kind": "user",
    "methods": {
      "approve(address,uint256)": {
        "notice": "This function grants permision to an account for move one specific token"
      },
      "balanceOf(address)": {
        "notice": "This function allow us to check the balance of an account"
      },
      "getApproved(uint256)": {
        "notice": "This function allow us to see the address approved for an specific token"
      },
      "getRoleAdmin(bytes32)": {
        "notice": "Allow us to check the admin role that contains a role"
      },
      "getRoleMember(bytes32,uint256)": {
        "notice": "Allow us to check the address of an indexed position for the role list"
      },
      "getRoleMemberCount(bytes32)": {
        "notice": "Allow us to check total members that has an selected role"
      },
      "grantRole(bytes32,address)": {
        "notice": "Allow us to grant a role to an account"
      },
      "hasRole(bytes32,address)": {
        "notice": "Allow us to check the if and account has a selected role"
      },
      "isApprovedForAll(address,address)": {
        "notice": "Queries if an operator can act on behalf of an owner on all of their tokens"
      },
      "mintFromRange(address,uint256,uint256)": {
        "notice": "This function allow us to mint from a range"
      },
      "mintFromRangeBatch(address[],uint256,uint256[])": {
        "notice": "This function allow us to mint a token form a batch of ranges"
      },
      "name()": {
        "notice": "This function allow us to check the name of the token"
      },
      "nextMintableTokenInRange(uint256)": {
        "notice": "This function returns immediately next token without owner in the range"
      },
      "ownerOf(uint256)": {
        "notice": "This functions allow us to know the address that owns the token"
      },
      "renounceRole(bytes32,address)": {
        "notice": "Allow us to renounce to a role"
      },
      "revokeRole(bytes32,address)": {
        "notice": "Allow us to revoke a role to an account"
      },
      "setApprovalForAll(address,bool)": {
        "notice": "This function grants permision to an account for move any token"
      },
      "symbol()": {
        "notice": "This function allow us to check the symbol of the token"
      },
      "tokenByIndex(uint256)": {
        "notice": "This function allow us to verify the token indexed in a selected position "
      },
      "tokenOfOwnerByIndex(address,uint256)": {
        "notice": "This function allow us to check the balance of an account for a specific indexed token "
      },
      "totalSupply()": {
        "notice": "This function allow us to check the total amount of tokens"
      },
      "transferFrom(address,address,uint256)": {
        "notice": "This function is used to transfer tokens from an account to another "
      }
    },
    "notice": "You can use this contract to administrate ranges, transfers & minting of the tokens",
    "version": 1
  },
  "storageLayout": {
    "storage": [
      {
        "astId": 10262,
        "contract": "contracts/tokens/RAIR Token Facets/ERC721Facet.sol:ERC721Facet",
        "label": "s",
        "offset": 0,
        "slot": "0",
        "type": "t_struct(AppStorage721)10246_storage"
      }
    ],
    "types": {
      "t_address": {
        "encoding": "inplace",
        "label": "address",
        "numberOfBytes": "20"
      },
      "t_array(t_bytes32)dyn_storage": {
        "base": "t_bytes32",
        "encoding": "dynamic_array",
        "label": "bytes32[]",
        "numberOfBytes": "32"
      },
      "t_array(t_struct(product)10135_storage)dyn_storage": {
        "base": "t_struct(product)10135_storage",
        "encoding": "dynamic_array",
        "label": "struct product[]",
        "numberOfBytes": "32"
      },
      "t_array(t_struct(range)10123_storage)dyn_storage": {
        "base": "t_struct(range)10123_storage",
        "encoding": "dynamic_array",
        "label": "struct range[]",
        "numberOfBytes": "32"
      },
      "t_array(t_uint256)dyn_storage": {
        "base": "t_uint256",
        "encoding": "dynamic_array",
        "label": "uint256[]",
        "numberOfBytes": "32"
      },
      "t_bool": {
        "encoding": "inplace",
        "label": "bool",
        "numberOfBytes": "1"
      },
      "t_bytes32": {
        "encoding": "inplace",
        "label": "bytes32",
        "numberOfBytes": "32"
      },
      "t_mapping(t_address,t_bool)": {
        "encoding": "mapping",
        "key": "t_address",
        "label": "mapping(address => bool)",
        "numberOfBytes": "32",
        "value": "t_bool"
      },
      "t_mapping(t_address,t_mapping(t_address,t_bool))": {
        "encoding": "mapping",
        "key": "t_address",
        "label": "mapping(address => mapping(address => bool))",
        "numberOfBytes": "32",
        "value": "t_mapping(t_address,t_bool)"
      },
      "t_mapping(t_address,t_mapping(t_uint256,t_uint256))": {
        "encoding": "mapping",
        "key": "t_address",
        "label": "mapping(address => mapping(uint256 => uint256))",
        "numberOfBytes": "32",
        "value": "t_mapping(t_uint256,t_uint256)"
      },
      "t_mapping(t_address,t_uint256)": {
        "encoding": "mapping",
        "key": "t_address",
        "label": "mapping(address => uint256)",
        "numberOfBytes": "32",
        "value": "t_uint256"
      },
      "t_mapping(t_bytes32,t_struct(AddressSet)3640_storage)": {
        "encoding": "mapping",
        "key": "t_bytes32",
        "label": "mapping(bytes32 => struct EnumerableSet.AddressSet)",
        "numberOfBytes": "32",
        "value": "t_struct(AddressSet)3640_storage"
      },
      "t_mapping(t_bytes32,t_struct(RoleData)7394_storage)": {
        "encoding": "mapping",
        "key": "t_bytes32",
        "label": "mapping(bytes32 => struct RoleData)",
        "numberOfBytes": "32",
        "value": "t_struct(RoleData)7394_storage"
      },
      "t_mapping(t_bytes32,t_uint256)": {
        "encoding": "mapping",
        "key": "t_bytes32",
        "label": "mapping(bytes32 => uint256)",
        "numberOfBytes": "32",
        "value": "t_uint256"
      },
      "t_mapping(t_uint256,t_address)": {
        "encoding": "mapping",
        "key": "t_uint256",
        "label": "mapping(uint256 => address)",
        "numberOfBytes": "32",
        "value": "t_address"
      },
      "t_mapping(t_uint256,t_array(t_uint256)dyn_storage)": {
        "encoding": "mapping",
        "key": "t_uint256",
        "label": "mapping(uint256 => uint256[])",
        "numberOfBytes": "32",
        "value": "t_array(t_uint256)dyn_storage"
      },
      "t_mapping(t_uint256,t_bool)": {
        "encoding": "mapping",
        "key": "t_uint256",
        "label": "mapping(uint256 => bool)",
        "numberOfBytes": "32",
        "value": "t_bool"
      },
      "t_mapping(t_uint256,t_string_storage)": {
        "encoding": "mapping",
        "key": "t_uint256",
        "label": "mapping(uint256 => string)",
        "numberOfBytes": "32",
        "value": "t_string_storage"
      },
      "t_mapping(t_uint256,t_uint256)": {
        "encoding": "mapping",
        "key": "t_uint256",
        "label": "mapping(uint256 => uint256)",
        "numberOfBytes": "32",
        "value": "t_uint256"
      },
      "t_string_storage": {
        "encoding": "bytes",
        "label": "string",
        "numberOfBytes": "32"
      },
      "t_struct(AddressSet)3640_storage": {
        "encoding": "inplace",
        "label": "struct EnumerableSet.AddressSet",
        "members": [
          {
            "astId": 3639,
            "contract": "contracts/tokens/RAIR Token Facets/ERC721Facet.sol:ERC721Facet",
            "label": "_inner",
            "offset": 0,
            "slot": "0",
            "type": "t_struct(Set)3325_storage"
          }
        ],
        "numberOfBytes": "64"
      },
      "t_struct(AppStorage721)10246_storage": {
        "encoding": "inplace",
        "label": "struct AppStorage721",
        "members": [
          {
            "astId": 10137,
            "contract": "contracts/tokens/RAIR Token Facets/ERC721Facet.sol:ERC721Facet",
            "label": "_name",
            "offset": 0,
            "slot": "0",
            "type": "t_string_storage"
          },
          {
            "astId": 10139,
            "contract": "contracts/tokens/RAIR Token Facets/ERC721Facet.sol:ERC721Facet",
            "label": "_symbol",
            "offset": 0,
            "slot": "1",
            "type": "t_string_storage"
          },
          {
            "astId": 10143,
            "contract": "contracts/tokens/RAIR Token Facets/ERC721Facet.sol:ERC721Facet",
            "label": "_owners",
            "offset": 0,
            "slot": "2",
            "type": "t_mapping(t_uint256,t_address)"
          },
          {
            "astId": 10147,
            "contract": "contracts/tokens/RAIR Token Facets/ERC721Facet.sol:ERC721Facet",
            "label": "_balances",
            "offset": 0,
            "slot": "3",
            "type": "t_mapping(t_address,t_uint256)"
          },
          {
            "astId": 10151,
            "contract": "contracts/tokens/RAIR Token Facets/ERC721Facet.sol:ERC721Facet",
            "label": "_tokenApprovals",
            "offset": 0,
            "slot": "4",
            "type": "t_mapping(t_uint256,t_address)"
          },
          {
            "astId": 10157,
            "contract": "contracts/tokens/RAIR Token Facets/ERC721Facet.sol:ERC721Facet",
            "label": "_operatorApprovals",
            "offset": 0,
            "slot": "5",
            "type": "t_mapping(t_address,t_mapping(t_address,t_bool))"
          },
          {
            "astId": 10163,
            "contract": "contracts/tokens/RAIR Token Facets/ERC721Facet.sol:ERC721Facet",
            "label": "_ownedTokens",
            "offset": 0,
            "slot": "6",
            "type": "t_mapping(t_address,t_mapping(t_uint256,t_uint256))"
          },
          {
            "astId": 10167,
            "contract": "contracts/tokens/RAIR Token Facets/ERC721Facet.sol:ERC721Facet",
            "label": "_ownedTokensIndex",
            "offset": 0,
            "slot": "7",
            "type": "t_mapping(t_uint256,t_uint256)"
          },
          {
            "astId": 10170,
            "contract": "contracts/tokens/RAIR Token Facets/ERC721Facet.sol:ERC721Facet",
            "label": "_allTokens",
            "offset": 0,
            "slot": "8",
            "type": "t_array(t_uint256)dyn_storage"
          },
          {
            "astId": 10174,
            "contract": "contracts/tokens/RAIR Token Facets/ERC721Facet.sol:ERC721Facet",
            "label": "_allTokensIndex",
            "offset": 0,
            "slot": "9",
            "type": "t_mapping(t_uint256,t_uint256)"
          },
          {
            "astId": 10179,
            "contract": "contracts/tokens/RAIR Token Facets/ERC721Facet.sol:ERC721Facet",
            "label": "_roles",
            "offset": 0,
            "slot": "10",
            "type": "t_mapping(t_bytes32,t_struct(RoleData)7394_storage)"
          },
          {
            "astId": 10184,
            "contract": "contracts/tokens/RAIR Token Facets/ERC721Facet.sol:ERC721Facet",
            "label": "_roleMembers",
            "offset": 0,
            "slot": "11",
            "type": "t_mapping(t_bytes32,t_struct(AddressSet)3640_storage)"
          },
          {
            "astId": 10186,
            "contract": "contracts/tokens/RAIR Token Facets/ERC721Facet.sol:ERC721Facet",
            "label": "baseURI",
            "offset": 0,
            "slot": "12",
            "type": "t_string_storage"
          },
          {
            "astId": 10188,
            "contract": "contracts/tokens/RAIR Token Facets/ERC721Facet.sol:ERC721Facet",
            "label": "factoryAddress",
            "offset": 0,
            "slot": "13",
            "type": "t_address"
          },
          {
            "astId": 10190,
            "contract": "contracts/tokens/RAIR Token Facets/ERC721Facet.sol:ERC721Facet",
            "label": "royaltyFee",
            "offset": 20,
            "slot": "13",
            "type": "t_uint16"
          },
          {
            "astId": 10194,
            "contract": "contracts/tokens/RAIR Token Facets/ERC721Facet.sol:ERC721Facet",
            "label": "products",
            "offset": 0,
            "slot": "14",
            "type": "t_array(t_struct(product)10135_storage)dyn_storage"
          },
          {
            "astId": 10198,
            "contract": "contracts/tokens/RAIR Token Facets/ERC721Facet.sol:ERC721Facet",
            "label": "ranges",
            "offset": 0,
            "slot": "15",
            "type": "t_array(t_struct(range)10123_storage)dyn_storage"
          },
          {
            "astId": 10202,
            "contract": "contracts/tokens/RAIR Token Facets/ERC721Facet.sol:ERC721Facet",
            "label": "tokenToProduct",
            "offset": 0,
            "slot": "16",
            "type": "t_mapping(t_uint256,t_uint256)"
          },
          {
            "astId": 10206,
            "contract": "contracts/tokens/RAIR Token Facets/ERC721Facet.sol:ERC721Facet",
            "label": "tokenToRange",
            "offset": 0,
            "slot": "17",
            "type": "t_mapping(t_uint256,t_uint256)"
          },
          {
            "astId": 10210,
            "contract": "contracts/tokens/RAIR Token Facets/ERC721Facet.sol:ERC721Facet",
            "label": "uniqueTokenURI",
            "offset": 0,
            "slot": "18",
            "type": "t_mapping(t_uint256,t_string_storage)"
          },
          {
            "astId": 10214,
            "contract": "contracts/tokens/RAIR Token Facets/ERC721Facet.sol:ERC721Facet",
            "label": "productURI",
            "offset": 0,
            "slot": "19",
            "type": "t_mapping(t_uint256,t_string_storage)"
          },
          {
            "astId": 10218,
            "contract": "contracts/tokens/RAIR Token Facets/ERC721Facet.sol:ERC721Facet",
            "label": "appendTokenIndexToProductURI",
            "offset": 0,
            "slot": "20",
            "type": "t_mapping(t_uint256,t_bool)"
          },
          {
            "astId": 10220,
            "contract": "contracts/tokens/RAIR Token Facets/ERC721Facet.sol:ERC721Facet",
            "label": "appendTokenIndexToBaseURI",
            "offset": 0,
            "slot": "21",
            "type": "t_bool"
          },
          {
            "astId": 10225,
            "contract": "contracts/tokens/RAIR Token Facets/ERC721Facet.sol:ERC721Facet",
            "label": "tokensByProduct",
            "offset": 0,
            "slot": "22",
            "type": "t_mapping(t_uint256,t_array(t_uint256)dyn_storage)"
          },
          {
            "astId": 10227,
            "contract": "contracts/tokens/RAIR Token Facets/ERC721Facet.sol:ERC721Facet",
            "label": "contractMetadataURI",
            "offset": 0,
            "slot": "23",
            "type": "t_string_storage"
          },
          {
            "astId": 10231,
            "contract": "contracts/tokens/RAIR Token Facets/ERC721Facet.sol:ERC721Facet",
            "label": "rangeToProduct",
            "offset": 0,
            "slot": "24",
            "type": "t_mapping(t_uint256,t_uint256)"
          },
          {
            "astId": 10235,
            "contract": "contracts/tokens/RAIR Token Facets/ERC721Facet.sol:ERC721Facet",
            "label": "_minted",
            "offset": 0,
            "slot": "25",
            "type": "t_mapping(t_uint256,t_bool)"
          },
          {
            "astId": 10239,
            "contract": "contracts/tokens/RAIR Token Facets/ERC721Facet.sol:ERC721Facet",
            "label": "rangeURI",
            "offset": 0,
            "slot": "26",
            "type": "t_mapping(t_uint256,t_string_storage)"
          },
          {
            "astId": 10243,
            "contract": "contracts/tokens/RAIR Token Facets/ERC721Facet.sol:ERC721Facet",
            "label": "appendTokenIndexToRangeURI",
            "offset": 0,
            "slot": "27",
            "type": "t_mapping(t_uint256,t_bool)"
          },
          {
            "astId": 10245,
            "contract": "contracts/tokens/RAIR Token Facets/ERC721Facet.sol:ERC721Facet",
            "label": "_metadataExtension",
            "offset": 0,
            "slot": "28",
            "type": "t_string_storage"
          }
        ],
        "numberOfBytes": "928"
      },
      "t_struct(RoleData)7394_storage": {
        "encoding": "inplace",
        "label": "struct RoleData",
        "members": [
          {
            "astId": 7391,
            "contract": "contracts/tokens/RAIR Token Facets/ERC721Facet.sol:ERC721Facet",
            "label": "members",
            "offset": 0,
            "slot": "0",
            "type": "t_mapping(t_address,t_bool)"
          },
          {
            "astId": 7393,
            "contract": "contracts/tokens/RAIR Token Facets/ERC721Facet.sol:ERC721Facet",
            "label": "adminRole",
            "offset": 0,
            "slot": "1",
            "type": "t_bytes32"
          }
        ],
        "numberOfBytes": "64"
      },
      "t_struct(Set)3325_storage": {
        "encoding": "inplace",
        "label": "struct EnumerableSet.Set",
        "members": [
          {
            "astId": 3320,
            "contract": "contracts/tokens/RAIR Token Facets/ERC721Facet.sol:ERC721Facet",
            "label": "_values",
            "offset": 0,
            "slot": "0",
            "type": "t_array(t_bytes32)dyn_storage"
          },
          {
            "astId": 3324,
            "contract": "contracts/tokens/RAIR Token Facets/ERC721Facet.sol:ERC721Facet",
            "label": "_indexes",
            "offset": 0,
            "slot": "1",
            "type": "t_mapping(t_bytes32,t_uint256)"
          }
        ],
        "numberOfBytes": "64"
      },
      "t_struct(product)10135_storage": {
        "encoding": "inplace",
        "label": "struct product",
        "members": [
          {
            "astId": 10125,
            "contract": "contracts/tokens/RAIR Token Facets/ERC721Facet.sol:ERC721Facet",
            "label": "startingToken",
            "offset": 0,
            "slot": "0",
            "type": "t_uint256"
          },
          {
            "astId": 10127,
            "contract": "contracts/tokens/RAIR Token Facets/ERC721Facet.sol:ERC721Facet",
            "label": "endingToken",
            "offset": 0,
            "slot": "1",
            "type": "t_uint256"
          },
          {
            "astId": 10129,
            "contract": "contracts/tokens/RAIR Token Facets/ERC721Facet.sol:ERC721Facet",
            "label": "mintableTokens",
            "offset": 0,
            "slot": "2",
            "type": "t_uint256"
          },
          {
            "astId": 10131,
            "contract": "contracts/tokens/RAIR Token Facets/ERC721Facet.sol:ERC721Facet",
            "label": "name",
            "offset": 0,
            "slot": "3",
            "type": "t_string_storage"
          },
          {
            "astId": 10134,
            "contract": "contracts/tokens/RAIR Token Facets/ERC721Facet.sol:ERC721Facet",
            "label": "rangeList",
            "offset": 0,
            "slot": "4",
            "type": "t_array(t_uint256)dyn_storage"
          }
        ],
        "numberOfBytes": "160"
      },
      "t_struct(range)10123_storage": {
        "encoding": "inplace",
        "label": "struct range",
        "members": [
          {
            "astId": 10110,
            "contract": "contracts/tokens/RAIR Token Facets/ERC721Facet.sol:ERC721Facet",
            "label": "rangeStart",
            "offset": 0,
            "slot": "0",
            "type": "t_uint256"
          },
          {
            "astId": 10112,
            "contract": "contracts/tokens/RAIR Token Facets/ERC721Facet.sol:ERC721Facet",
            "label": "rangeEnd",
            "offset": 0,
            "slot": "1",
            "type": "t_uint256"
          },
          {
            "astId": 10114,
            "contract": "contracts/tokens/RAIR Token Facets/ERC721Facet.sol:ERC721Facet",
            "label": "tokensAllowed",
            "offset": 0,
            "slot": "2",
            "type": "t_uint256"
          },
          {
            "astId": 10116,
            "contract": "contracts/tokens/RAIR Token Facets/ERC721Facet.sol:ERC721Facet",
            "label": "mintableTokens",
            "offset": 0,
            "slot": "3",
            "type": "t_uint256"
          },
          {
            "astId": 10118,
            "contract": "contracts/tokens/RAIR Token Facets/ERC721Facet.sol:ERC721Facet",
            "label": "lockedTokens",
            "offset": 0,
            "slot": "4",
            "type": "t_uint256"
          },
          {
            "astId": 10120,
            "contract": "contracts/tokens/RAIR Token Facets/ERC721Facet.sol:ERC721Facet",
            "label": "rangePrice",
            "offset": 0,
            "slot": "5",
            "type": "t_uint256"
          },
          {
            "astId": 10122,
            "contract": "contracts/tokens/RAIR Token Facets/ERC721Facet.sol:ERC721Facet",
            "label": "rangeName",
            "offset": 0,
            "slot": "6",
            "type": "t_string_storage"
          }
        ],
        "numberOfBytes": "224"
      },
      "t_uint16": {
        "encoding": "inplace",
        "label": "uint16",
        "numberOfBytes": "2"
      },
      "t_uint256": {
        "encoding": "inplace",
        "label": "uint256",
        "numberOfBytes": "32"
      }
    }
  }
}