{
  "address": "0x494847fbD0F22a063f6e5C9e959772BDc96E4a2c",
  "abi": [
    {
      "anonymous": false,
      "inputs": [
        {
          "indexed": false,
          "internalType": "address",
          "name": "deployerAddress",
          "type": "address"
        },
        {
          "indexed": false,
          "internalType": "uint256",
          "name": "deploymentIndex",
          "type": "uint256"
        },
        {
          "indexed": false,
          "internalType": "address",
          "name": "deploymentAddress",
          "type": "address"
        },
        {
          "indexed": false,
          "internalType": "string",
          "name": "deploymentName",
          "type": "string"
        }
      ],
      "name": "DeployedContract",
      "type": "event"
    },
    {
      "anonymous": false,
      "inputs": [
        {
          "indexed": true,
          "internalType": "bytes32",
          "name": "role",
          "type": "bytes32"
        },
        {
          "indexed": true,
          "internalType": "bytes32",
          "name": "previousAdminRole",
          "type": "bytes32"
        },
        {
          "indexed": true,
          "internalType": "bytes32",
          "name": "newAdminRole",
          "type": "bytes32"
        }
      ],
      "name": "RoleAdminChanged",
      "type": "event"
    },
    {
      "anonymous": false,
      "inputs": [
        {
          "indexed": true,
          "internalType": "bytes32",
          "name": "role",
          "type": "bytes32"
        },
        {
          "indexed": true,
          "internalType": "address",
          "name": "account",
          "type": "address"
        },
        {
          "indexed": true,
          "internalType": "address",
          "name": "sender",
          "type": "address"
        }
      ],
      "name": "RoleGranted",
      "type": "event"
    },
    {
      "anonymous": false,
      "inputs": [
        {
          "indexed": true,
          "internalType": "bytes32",
          "name": "role",
          "type": "bytes32"
        },
        {
          "indexed": true,
          "internalType": "address",
          "name": "account",
          "type": "address"
        },
        {
          "indexed": true,
          "internalType": "address",
          "name": "sender",
          "type": "address"
        }
      ],
      "name": "RoleRevoked",
      "type": "event"
    },
    {
      "inputs": [
        {
          "internalType": "bytes32",
          "name": "role",
          "type": "bytes32"
        }
      ],
      "name": "getRoleAdmin",
      "outputs": [
        {
          "internalType": "bytes32",
          "name": "",
          "type": "bytes32"
        }
      ],
      "stateMutability": "view",
      "type": "function"
    },
    {
      "inputs": [
        {
          "internalType": "bytes32",
          "name": "role",
          "type": "bytes32"
        },
        {
          "internalType": "uint256",
          "name": "index",
          "type": "uint256"
        }
      ],
      "name": "getRoleMember",
      "outputs": [
        {
          "internalType": "address",
          "name": "",
          "type": "address"
        }
      ],
      "stateMutability": "view",
      "type": "function"
    },
    {
      "inputs": [
        {
          "internalType": "bytes32",
          "name": "role",
          "type": "bytes32"
        }
      ],
      "name": "getRoleMemberCount",
      "outputs": [
        {
          "internalType": "uint256",
          "name": "",
          "type": "uint256"
        }
      ],
      "stateMutability": "view",
      "type": "function"
    },
    {
      "inputs": [
        {
          "internalType": "bytes32",
          "name": "role",
          "type": "bytes32"
        },
        {
          "internalType": "address",
          "name": "account",
          "type": "address"
        }
      ],
      "name": "grantRole",
      "outputs": [],
      "stateMutability": "nonpayable",
      "type": "function"
    },
    {
      "inputs": [
        {
          "internalType": "bytes32",
          "name": "role",
          "type": "bytes32"
        },
        {
          "internalType": "address",
          "name": "account",
          "type": "address"
        }
      ],
      "name": "hasRole",
      "outputs": [
        {
          "internalType": "bool",
          "name": "",
          "type": "bool"
        }
      ],
      "stateMutability": "view",
      "type": "function"
    },
    {
      "inputs": [
        {
          "internalType": "bytes32",
          "name": "role",
          "type": "bytes32"
        },
        {
          "internalType": "address",
          "name": "account",
          "type": "address"
        }
      ],
      "name": "renounceRole",
      "outputs": [],
      "stateMutability": "nonpayable",
      "type": "function"
    },
    {
      "inputs": [
        {
          "internalType": "bytes32",
          "name": "role",
          "type": "bytes32"
        },
        {
          "internalType": "address",
          "name": "account",
          "type": "address"
        }
      ],
      "name": "revokeRole",
      "outputs": [],
      "stateMutability": "nonpayable",
      "type": "function"
    },
    {
      "inputs": [
        {
          "internalType": "address",
          "name": "operator",
          "type": "address"
        },
        {
          "internalType": "address",
          "name": "from",
          "type": "address"
        },
        {
          "internalType": "address",
          "name": "to",
          "type": "address"
        },
        {
          "internalType": "uint256",
          "name": "amount",
          "type": "uint256"
        },
        {
          "internalType": "bytes",
          "name": "userData",
          "type": "bytes"
        },
        {
          "internalType": "bytes",
          "name": "operatorData",
          "type": "bytes"
        }
      ],
      "name": "tokensReceived",
      "outputs": [],
      "stateMutability": "nonpayable",
      "type": "function"
    }
  ],
  "transactionHash": "0x3612aa666df72794d5d4873dda71519270d7dc00da03301cb7ec6c53d3632f35",
  "args": [],
  "numDeployments": 3,
  "solcInputHash": "cffcd730e399a9a4fc62800a3a35ab22",
  "bytecode": "0x608060405234801561001057600080fd5b50612290806100206000396000f3fe60806040523480156200001157600080fd5b5060043610620000925760003560e01c80639010d07c11620000625780639010d07c146200010857806391d148541462000138578063ca15c8731462000160578063d547741f146200017757600080fd5b806223de291462000097578063248a9ca314620000b05780632f2ff15d14620000da57806336568abe14620000f1575b600080fd5b620000ae620000a836600462000bf2565b6200018e565b005b620000c7620000c136600462000caa565b620004cd565b6040519081526020015b60405180910390f35b620000ae620000eb36600462000cc4565b620004f0565b620000ae6200010236600462000cc4565b62000518565b6200011f6200011936600462000cf3565b6200059a565b6040516001600160a01b039091168152602001620000d1565b6200014f6200014936600462000cc4565b620005cb565b6040519015158152602001620000d1565b620000c76200017136600462000caa565b62000604565b620000ae6200018836600462000cc4565b6200062b565b7fe33cd123f09d9a4e3b34162dcaba99ee0b73fe748beb8ca15f84a66b0c147230620001bb81336200064e565b3360009081527f3178d75a97455c722bbe6e3619364b9b8f446a5900d6fbcc8d92ea722276883d60205260409020547f3178d75a97455c722bbe6e3619364b9b8f446a5900d6fbcc8d92ea722276883a90871015620002875760405162461bcd60e51b815260206004820152603860248201527f484f5420466163746f72793a206e6f7420656e6f756768205241495220746f6b60448201527f656e7320746f206465706c6f79206120636f6e7472616374000000000000000060648201526084015b60405180910390fd5b336000908152600382016020526040812054620002a5908962000d2c565b11156200034357336000818152600383016020526040902054639bd9bbc6908b90620002d2908b62000d2c565b604051806040016040528060038152602001621213d560ea1b8152506040518463ffffffff1660e01b81526004016200030e9392919062000d96565b600060405180830381600087803b1580156200032957600080fd5b505af11580156200033e573d6000803e3d6000fd5b505050505b6001600160a01b038916600090815260018201602052604081208054909103620003935781546001810183556000838152602090200180546001600160a01b0319166001600160a01b038c161790555b600087878c617530604051620003a99062000b7b565b620003b8949392919062000df1565b604051809103906000f080158015620003d5573d6000803e3d6000fd5b50905081819080600181540180825580915050600190039060005260206000200160009091909190916101000a8154816001600160a01b0302191690836001600160a01b031602179055508a836002016000836001600160a01b03166001600160a01b0316815260200190815260200160002060006101000a8154816001600160a01b0302191690836001600160a01b031602179055507fb1bf8414d7fb85ef593239c1db589dffe8753ca97f373e492a269ec8c1e975538b60018480549050620004a1919062000d2c565b838b8b604051620004b795949392919062000e2c565b60405180910390a1505050505050505050505050565b60009081526000805160206200221b833981519152602052604090206001015490565b620004fb82620004cd565b6200050781336200064e565b620005138383620006bd565b505050565b6001600160a01b03811633146200058a5760405162461bcd60e51b815260206004820152602f60248201527f416363657373436f6e74726f6c3a2063616e206f6e6c792072656e6f756e636560448201526e103937b632b9903337b91039b2b63360891b60648201526084016200027e565b6200059682826200075b565b5050565b60008281526000805160206200223b83398151915260205260408120620005c29083620007f7565b90505b92915050565b60009182526000805160206200221b833981519152602090815260408084206001600160a01b0393909316845291905290205460ff1690565b60008181526000805160206200223b83398151915260205260408120620005c59062000805565b6200063682620004cd565b6200064281336200064e565b6200051383836200075b565b6200065a8282620005cb565b620005965762000675816001600160a01b0316601462000810565b6200068283602062000810565b6040516020016200069592919062000e6d565b60408051601f198184030181529082905262461bcd60e51b82526200027e9160040162000ee6565b620006c98282620005cb565b620005965760008281526000805160206200221b833981519152602090815260408083206001600160a01b0385168085529252808320805460ff1916600117905551339285917f2f8788117e7eff1d82e926ec794901d17c78024a50270940304540a733656f0d9190a460008281526000805160206200223b83398151915260205260409020620005139082620009ca565b620007678282620005cb565b15620005965760008281526000805160206200221b833981519152602090815260408083206001600160a01b0385168085529252808320805460ff1916905551339285917ff6391f5c32d9c69d2a47ea670b442974b53935d1edc7fd64eb21e047a839171b9190a460008281526000805160206200223b83398151915260205260409020620005139082620009e1565b6000620005c28383620009f8565b6000620005c5825490565b606060006200082183600262000efb565b6200082e90600262000f15565b67ffffffffffffffff81111562000849576200084962000f2b565b6040519080825280601f01601f19166020018201604052801562000874576020820181803683370190505b509050600360fc1b8160008151811062000892576200089262000f41565b60200101906001600160f81b031916908160001a905350600f60fb1b81600181518110620008c457620008c462000f41565b60200101906001600160f81b031916908160001a9053506000620008ea84600262000efb565b620008f790600162000f15565b90505b600181111562000979576f181899199a1a9b1b9c1cb0b131b232b360811b85600f16601081106200092f576200092f62000f41565b1a60f81b82828151811062000948576200094862000f41565b60200101906001600160f81b031916908160001a90535060049490941c93620009718162000f57565b9050620008fa565b508315620005c25760405162461bcd60e51b815260206004820181905260248201527f537472696e67733a20686578206c656e67746820696e73756666696369656e7460448201526064016200027e565b6000620005c2836001600160a01b03841662000a25565b6000620005c2836001600160a01b03841662000a77565b600082600001828154811062000a125762000a1262000f41565b9060005260206000200154905092915050565b600081815260018301602052604081205462000a6e57508154600181810184556000848152602080822090930184905584548482528286019093526040902091909155620005c5565b506000620005c5565b6000818152600183016020526040812054801562000b7057600062000a9e60018362000d2c565b855490915060009062000ab49060019062000d2c565b905081811462000b2057600086600001828154811062000ad85762000ad862000f41565b906000526020600020015490508087600001848154811062000afe5762000afe62000f41565b6000918252602080832090910192909255918252600188019052604090208390555b855486908062000b345762000b3462000f71565b600190038181906000526020600020016000905590558560010160008681526020019081526020016000206000905560019350505050620005c5565b6000915050620005c5565b6112938062000f8883390190565b80356001600160a01b038116811462000ba157600080fd5b919050565b60008083601f84011262000bb957600080fd5b50813567ffffffffffffffff81111562000bd257600080fd5b60208301915083602082850101111562000beb57600080fd5b9250929050565b60008060008060008060008060c0898b03121562000c0f57600080fd5b62000c1a8962000b89565b975062000c2a60208a0162000b89565b965062000c3a60408a0162000b89565b955060608901359450608089013567ffffffffffffffff8082111562000c5f57600080fd5b62000c6d8c838d0162000ba6565b909650945060a08b013591508082111562000c8757600080fd5b5062000c968b828c0162000ba6565b999c989b5096995094979396929594505050565b60006020828403121562000cbd57600080fd5b5035919050565b6000806040838503121562000cd857600080fd5b8235915062000cea6020840162000b89565b90509250929050565b6000806040838503121562000d0757600080fd5b50508035926020909101359150565b634e487b7160e01b600052601160045260246000fd5b81810381811115620005c557620005c562000d16565b60005b8381101562000d5f57818101518382015260200162000d45565b50506000910152565b6000815180845262000d8281602086016020860162000d42565b601f01601f19169290920160200192915050565b60018060a01b038416815282602082015260606040820152600062000dbf606083018462000d68565b95945050505050565b81835281816020850137506000828201602090810191909152601f909101601f19169091010190565b60608152600062000e0760608301868862000dc8565b6001600160a01b039490941660208301525061ffff9190911660409091015292915050565b6001600160a01b038681168252602082018690528416604082015260806060820181905260009062000e62908301848662000dc8565b979650505050505050565b7f416363657373436f6e74726f6c3a206163636f756e742000000000000000000081526000835162000ea781601785016020880162000d42565b7001034b99036b4b9b9b4b733903937b6329607d1b601791840191820152835162000eda81602884016020880162000d42565b01602801949350505050565b602081526000620005c2602083018462000d68565b8082028115828204841417620005c557620005c562000d16565b80820180821115620005c557620005c562000d16565b634e487b7160e01b600052604160045260246000fd5b634e487b7160e01b600052603260045260246000fd5b60008162000f695762000f6962000d16565b506000190190565b634e487b7160e01b600052603160045260246000fdfe60806040523480156200001157600080fd5b506040516200129338038062001293833981016040819052620000349162000315565b60006200004284826200049d565b506040805180820190915260038152621213d560ea1b60208201526001906200006c90826200049d565b50600d80546001600160b01b0319163361ffff60a01b191617600160a01b61ffff841602179055620000bd600080516020620012538339815191526000805160206200123383398151915262000141565b620000e7600080516020620012738339815191526000805160206200123383398151915262000141565b6200010260008051602062001233833981519152836200018c565b6200011d60008051602062001253833981519152836200018c565b6200013860008051602062001273833981519152836200018c565b50505062000569565b6000828152600a6020526040808220600101805490849055905190918391839186917fbd79b86ffe0ab8e8776151514217cd7cacd52c909f66475c3af44e129f0b00ff9190a4505050565b62000198828262000232565b6200022e576000828152600a602090815260408083206001600160a01b03851684529091529020805460ff19166001179055620001d23390565b6001600160a01b0316816001600160a01b0316837f2f8788117e7eff1d82e926ec794901d17c78024a50270940304540a733656f0d60405160405180910390a46000828152600b602052604090206200022c90826200025f565b505b5050565b6000828152600a602090815260408083206001600160a01b038516845290915290205460ff165b92915050565b600062000276836001600160a01b0384166200027d565b9392505050565b6000818152600183016020526040812054620002c65750815460018181018455600084815260208082209093018490558454848252828601909352604090209190915562000259565b50600062000259565b634e487b7160e01b600052604160045260246000fd5b80516001600160a01b0381168114620002fd57600080fd5b919050565b805161ffff81168114620002fd57600080fd5b6000806000606084860312156200032b57600080fd5b83516001600160401b03808211156200034357600080fd5b818601915086601f8301126200035857600080fd5b8151818111156200036d576200036d620002cf565b604051601f8201601f19908116603f01168101908382118183101715620003985762000398620002cf565b81604052828152602093508984848701011115620003b557600080fd5b600091505b82821015620003d95784820184015181830185015290830190620003ba565b6000848483010152809750505050620003f4818701620002e5565b93505050620004066040850162000302565b90509250925092565b600181811c908216806200042457607f821691505b6020821081036200044557634e487b7160e01b600052602260045260246000fd5b50919050565b601f8211156200022c57600081815260208120601f850160051c81016020861015620004745750805b601f850160051c820191505b81811015620004955782815560010162000480565b505050505050565b81516001600160401b03811115620004b957620004b9620002cf565b620004d181620004ca84546200040f565b846200044b565b602080601f831160018114620005095760008415620004f05750858301515b600019600386901b1c1916600185901b17855562000495565b600085815260208120601f198616915b828110156200053a5788860151825594840194600190910190840162000519565b5085821015620005595787850151600019600388901b60f8161c191681555b5050505050600190811b01905550565b610cba80620005796000396000f3fe608060405234801561001057600080fd5b50600436106100ea5760003560e01c8063a217fddf1161008c578063d547741f11610066578063d547741f1461029a578063e4fbb609146102ad578063e8a3d485146102d4578063fe6d8124146102e9576100ea565b8063a217fddf1461026e578063a9c2e36c14610276578063ca15c87314610287576100ea565b80632f2ff15d116100c85780632f2ff15d1461020a57806336568abe1461021d5780639010d07c1461023057806391d148541461025b576100ea565b806301ffc9a71461018a578063175c4ef8146101b2578063248a9ca3146101e7575b600d546040516366ffd66360e11b8152600080356001600160e01b0319166004830152916001600160a01b03169063cdffacc690602401602060405180830381865afa15801561013e573d6000803e3d6000fd5b505050506040513d601f19601f820116820180604052508101906101629190610a20565b90503660008037600080366000845af43d6000803e808015610183573d6000f35b3d6000fd5b005b61019d610198366004610a3d565b610310565b60405190151581526020015b60405180910390f35b6101d97f872340a532bdd7bb02bea115c1b0f1ba87eac982f5b79b51ac189ffaac1b6fce81565b6040519081526020016101a9565b6101d96101f5366004610a67565b6000908152600a602052604090206001015490565b610188610218366004610a80565b61037d565b61018861022b366004610a80565b6103a8565b61024361023e366004610ab0565b61042b565b6040516001600160a01b0390911681526020016101a9565b61019d610269366004610a80565b61044a565b6101d9600081565b600d546001600160a01b0316610243565b6101d9610295366004610a67565b610475565b6101886102a8366004610a80565b61048c565b6101d97f3c2519c4487d47714872f92cf90a50c25f5deaec2789dc2a497b1272df611db681565b6102dc6104b2565b6040516101a99190610af6565b6101d97ff0887ba65ee2024ea881d91b74c2450ef19e1557f03bed3ea9f16b037cbe2dc981565b60006001600160e01b031982166380ac58cd60e01b148061034157506001600160e01b03198216635b5e139f60e01b145b8061035c57506001600160e01b0319821663780e9d6360e01b145b8061037757506301ffc9a760e01b6001600160e01b03198316145b92915050565b6000828152600a60205260409020600101546103998133610547565b6103a383836105ab565b505050565b6001600160a01b038116331461041d5760405162461bcd60e51b815260206004820152602f60248201527f416363657373436f6e74726f6c3a2063616e206f6e6c792072656e6f756e636560448201526e103937b632b9903337b91039b2b63360891b60648201526084015b60405180910390fd5b6104278282610645565b5050565b6000828152600b6020526040812061044390836106c0565b9392505050565b6000918252600a602090815260408084206001600160a01b0393909316845291905290205460ff1690565b6000818152600b60205260408120610377906106cc565b6000828152600a60205260409020600101546104a88133610547565b6103a38383610645565b6060600060170180546104c490610b29565b80601f01602080910402602001604051908101604052809291908181526020018280546104f090610b29565b801561053d5780601f106105125761010080835404028352916020019161053d565b820191906000526020600020905b81548152906001019060200180831161052057829003601f168201915b5050505050905090565b610551828261044a565b61042757610569816001600160a01b031660146106d6565b6105748360206106d6565b604051602001610585929190610b63565b60408051601f198184030181529082905262461bcd60e51b825261041491600401610af6565b6105b5828261044a565b610427576000828152600a602090815260408083206001600160a01b03851684529091529020805460ff191660011790556105ed3390565b6001600160a01b0316816001600160a01b0316837f2f8788117e7eff1d82e926ec794901d17c78024a50270940304540a733656f0d60405160405180910390a46000828152600b602052604090206103a39082610872565b61064f828261044a565b15610427576000828152600a602090815260408083206001600160a01b0385168085529252808320805460ff1916905551339285917ff6391f5c32d9c69d2a47ea670b442974b53935d1edc7fd64eb21e047a839171b9190a46000828152600b602052604090206103a39082610887565b6000610443838361089c565b6000610377825490565b606060006106e5836002610bee565b6106f0906002610c05565b67ffffffffffffffff81111561070857610708610c18565b6040519080825280601f01601f191660200182016040528015610732576020820181803683370190505b509050600360fc1b8160008151811061074d5761074d610c2e565b60200101906001600160f81b031916908160001a905350600f60fb1b8160018151811061077c5761077c610c2e565b60200101906001600160f81b031916908160001a90535060006107a0846002610bee565b6107ab906001610c05565b90505b6001811115610823576f181899199a1a9b1b9c1cb0b131b232b360811b85600f16601081106107df576107df610c2e565b1a60f81b8282815181106107f5576107f5610c2e565b60200101906001600160f81b031916908160001a90535060049490941c9361081c81610c44565b90506107ae565b5083156104435760405162461bcd60e51b815260206004820181905260248201527f537472696e67733a20686578206c656e67746820696e73756666696369656e746044820152606401610414565b6000610443836001600160a01b0384166108c6565b6000610443836001600160a01b038416610915565b60008260000182815481106108b3576108b3610c2e565b9060005260206000200154905092915050565b600081815260018301602052604081205461090d57508154600181810184556000848152602080822090930184905584548482528286019093526040902091909155610377565b506000610377565b600081815260018301602052604081205480156109fe576000610939600183610c5b565b855490915060009061094d90600190610c5b565b90508181146109b257600086600001828154811061096d5761096d610c2e565b906000526020600020015490508087600001848154811061099057610990610c2e565b6000918252602080832090910192909255918252600188019052604090208390555b85548690806109c3576109c3610c6e565b600190038181906000526020600020016000905590558560010160008681526020019081526020016000206000905560019350505050610377565b6000915050610377565b6001600160a01b0381168114610a1d57600080fd5b50565b600060208284031215610a3257600080fd5b815161044381610a08565b600060208284031215610a4f57600080fd5b81356001600160e01b03198116811461044357600080fd5b600060208284031215610a7957600080fd5b5035919050565b60008060408385031215610a9357600080fd5b823591506020830135610aa581610a08565b809150509250929050565b60008060408385031215610ac357600080fd5b50508035926020909101359150565b60005b83811015610aed578181015183820152602001610ad5565b50506000910152565b6020815260008251806020840152610b15816040850160208701610ad2565b601f01601f19169190910160400192915050565b600181811c90821680610b3d57607f821691505b602082108103610b5d57634e487b7160e01b600052602260045260246000fd5b50919050565b7f416363657373436f6e74726f6c3a206163636f756e7420000000000000000000815260008351610b9b816017850160208801610ad2565b7001034b99036b4b9b9b4b733903937b6329607d1b6017918401918201528351610bcc816028840160208801610ad2565b01602801949350505050565b634e487b7160e01b600052601160045260246000fd5b808202811582820484141761037757610377610bd8565b8082018082111561037757610377610bd8565b634e487b7160e01b600052604160045260246000fd5b634e487b7160e01b600052603260045260246000fd5b600081610c5357610c53610bd8565b506000190190565b8181038181111561037757610377610bd8565b634e487b7160e01b600052603160045260246000fdfea264697066735822122009af081d2a6d410aa9b193c2d1b3cbb0e01c6483a20de7892fbd704fc889aef664736f6c634300081300333c2519c4487d47714872f92cf90a50c25f5deaec2789dc2a497b1272df611db6f0887ba65ee2024ea881d91b74c2450ef19e1557f03bed3ea9f16b037cbe2dc9872340a532bdd7bb02bea115c1b0f1ba87eac982f5b79b51ac189ffaac1b6fce4f4f658137f4e10317e1a22624c2b114af7563a20fb2e3444ae2ac2342d457d04f4f658137f4e10317e1a22624c2b114af7563a20fb2e3444ae2ac2342d457d1a26469706673582212203e269d4422e19b3f3d179aeec51bbb92c7efcacfd44110a0e8aab328c0a3c09b64736f6c63430008130033",
  "devdoc": {
    "events": {
      "DeployedContract(address,uint256,address,string)": {
        "params": {
          "deployerAddress": "Contains the address of the deployer of the contract ",
          "deploymentAddress": "Contains the address where the contract was deployed",
          "deploymentIndex": "Contains the corresponding ID for the deployment",
          "deploymentName": "Contains the name of the deployed contract"
        }
      }
    },
    "kind": "dev",
    "methods": {
      "tokensReceived(address,address,address,uint256,bytes,bytes)": {
        "details": "This is our deployment mechanism for ERC721 contracts!",
        "params": {
          "amount": "The number of tokens sent",
          "from": "The owner of the tokens",
          "operator": "The ERC777 operator calling the send() function",
          "operatorData": "bytes sent from the operator",
          "to": "The recipient of the tokens",
          "userData": "bytes sent from the send call"
        }
      }
    },
    "title": "ERC721 factory",
    "version": 1
  },
  "userdoc": {
    "events": {
      "DeployedContract(address,uint256,address,string)": {
        "notice": "This event stores in the blockchain when a new contract is deployed"
      }
    },
    "kind": "user",
    "methods": {
      "tokensReceived(address,address,address,uint256,bytes,bytes)": {
        "notice": "Function called by an ERC777 when they send tokens"
      }
    },
    "notice": "Facet receives ERC777 tokens and deploys an ERC721 smart contract",
    "version": 1
  },
  "storageLayout": {
    "storage": [],
    "types": null
  }
}