{
  "address": "0xeef47E293D01Ce29E91707ED2fe8E9b8e3fe75D1",
  "abi": [
    {
      "inputs": [
        {
          "internalType": "address",
          "name": "_diamondCut",
          "type": "address"
        }
      ],
      "stateMutability": "nonpayable",
      "type": "constructor"
    },
    {
      "inputs": [
        {
          "internalType": "address",
          "name": "_initializationContractAddress",
          "type": "address"
        },
        {
          "internalType": "bytes",
          "name": "_calldata",
          "type": "bytes"
        }
      ],
      "name": "InitializationFunctionReverted",
      "type": "error"
    },
    {
      "anonymous": false,
      "inputs": [
        {
          "indexed": true,
          "internalType": "bytes32",
          "name": "role",
          "type": "bytes32"
        },
        {
          "indexed": true,
          "internalType": "bytes32",
          "name": "previousAdminRole",
          "type": "bytes32"
        },
        {
          "indexed": true,
          "internalType": "bytes32",
          "name": "newAdminRole",
          "type": "bytes32"
        }
      ],
      "name": "RoleAdminChanged",
      "type": "event"
    },
    {
      "anonymous": false,
      "inputs": [
        {
          "indexed": true,
          "internalType": "bytes32",
          "name": "role",
          "type": "bytes32"
        },
        {
          "indexed": true,
          "internalType": "address",
          "name": "account",
          "type": "address"
        },
        {
          "indexed": true,
          "internalType": "address",
          "name": "sender",
          "type": "address"
        }
      ],
      "name": "RoleGranted",
      "type": "event"
    },
    {
      "anonymous": false,
      "inputs": [
        {
          "indexed": true,
          "internalType": "bytes32",
          "name": "role",
          "type": "bytes32"
        },
        {
          "indexed": true,
          "internalType": "address",
          "name": "account",
          "type": "address"
        },
        {
          "indexed": true,
          "internalType": "address",
          "name": "sender",
          "type": "address"
        }
      ],
      "name": "RoleRevoked",
      "type": "event"
    },
    {
      "stateMutability": "payable",
      "type": "fallback"
    },
    {
      "inputs": [],
      "name": "DEFAULT_ADMIN_ROLE",
      "outputs": [
        {
          "internalType": "bytes32",
          "name": "",
          "type": "bytes32"
        }
      ],
      "stateMutability": "view",
      "type": "function"
    },
    {
      "inputs": [],
      "name": "ERC777",
      "outputs": [
        {
          "internalType": "bytes32",
          "name": "",
          "type": "bytes32"
        }
      ],
      "stateMutability": "view",
      "type": "function"
    },
    {
      "inputs": [],
      "name": "OWNER",
      "outputs": [
        {
          "internalType": "bytes32",
          "name": "",
          "type": "bytes32"
        }
      ],
      "stateMutability": "view",
      "type": "function"
    },
    {
      "inputs": [
        {
          "internalType": "bytes32",
          "name": "role",
          "type": "bytes32"
        }
      ],
      "name": "getRoleAdmin",
      "outputs": [
        {
          "internalType": "bytes32",
          "name": "",
          "type": "bytes32"
        }
      ],
      "stateMutability": "view",
      "type": "function"
    },
    {
      "inputs": [
        {
          "internalType": "bytes32",
          "name": "role",
          "type": "bytes32"
        },
        {
          "internalType": "uint256",
          "name": "index",
          "type": "uint256"
        }
      ],
      "name": "getRoleMember",
      "outputs": [
        {
          "internalType": "address",
          "name": "",
          "type": "address"
        }
      ],
      "stateMutability": "view",
      "type": "function"
    },
    {
      "inputs": [
        {
          "internalType": "bytes32",
          "name": "role",
          "type": "bytes32"
        }
      ],
      "name": "getRoleMemberCount",
      "outputs": [
        {
          "internalType": "uint256",
          "name": "",
          "type": "uint256"
        }
      ],
      "stateMutability": "view",
      "type": "function"
    },
    {
      "inputs": [
        {
          "internalType": "bytes32",
          "name": "role",
          "type": "bytes32"
        },
        {
          "internalType": "address",
          "name": "account",
          "type": "address"
        }
      ],
      "name": "grantRole",
      "outputs": [],
      "stateMutability": "nonpayable",
      "type": "function"
    },
    {
      "inputs": [
        {
          "internalType": "bytes32",
          "name": "role",
          "type": "bytes32"
        },
        {
          "internalType": "address",
          "name": "account",
          "type": "address"
        }
      ],
      "name": "hasRole",
      "outputs": [
        {
          "internalType": "bool",
          "name": "",
          "type": "bool"
        }
      ],
      "stateMutability": "view",
      "type": "function"
    },
    {
      "inputs": [
        {
          "internalType": "bytes32",
          "name": "role",
          "type": "bytes32"
        },
        {
          "internalType": "address",
          "name": "account",
          "type": "address"
        }
      ],
      "name": "renounceRole",
      "outputs": [],
      "stateMutability": "nonpayable",
      "type": "function"
    },
    {
      "inputs": [
        {
          "internalType": "bytes32",
          "name": "role",
          "type": "bytes32"
        },
        {
          "internalType": "address",
          "name": "account",
          "type": "address"
        }
      ],
      "name": "revokeRole",
      "outputs": [],
      "stateMutability": "nonpayable",
      "type": "function"
    },
    {
      "stateMutability": "payable",
      "type": "receive"
    }
  ],
  "transactionHash": "0xd183a7bae491c126e26feedad8a5c286bf80e55f8c387a66fc7104e056fd17ec",
  "args": [
    "0x144D4143da5B1dBd318Cc3376D556ba86efae995"
  ],
  "numDeployments": 2,
  "solcInputHash": "c85847323ff1382a06b45b962308e0b0",
  "bytecode": "0x60806040523480156200001157600080fd5b5060405162001e6938038062001e69833981016040819052620000349162000f43565b338162000041826200026e565b604080516001808252818301909252600091816020015b60408051606080820183526000808352602083015291810191909152815260200190600190039081620000585750506040805160018082528183019092529192506000919060208083019080368337019050509050631f931c1c60e01b81600081518110620000cb57620000cb62000f6e565b6001600160e01b031990921660209283029190910182015260408051606081019091526001600160a01b03851681529081016000815260200182815250826000815181106200011e576200011e62000f6e565b60200260200101819052506200014c82600060405180602001604052806000815250620002f260201b60201c565b50506040516329965a1d60e01b815230600482018190527fb281fc8c12954d22544db45de3159a39272895b169a852b314f9cc762e44c53b60248301526044820152731820a4b7618bde71dce8cdc73aab6c95905fad2492506329965a1d9150606401600060405180830381600087803b158015620001ca57600080fd5b505af1158015620001df573d6000803e3d6000fd5b505050506200020460008051602062001e21833981519152806200047f60201b60201c565b6200023f7fe33cd123f09d9a4e3b34162dcaba99ee0b73fe748beb8ca15f84a66b0c14723060008051602062001e218339815191526200047f565b6200024c600033620004d8565b6200026760008051602062001e2183398151915233620004d8565b50620011d2565b7fc8fcad8db84d3cc18b4c41d551ea0ee66dd599cde068d998e57d5e09332c132080546001600160a01b031981166001600160a01b0384811691821790935560405160008051602062001d95833981519152939092169182907f8be0079c531659141344cd1fd0a4f28419497f9722a3daafe3b4186f6b6457e090600090a3505050565b7fc8fcad8db84d3cc18b4c41d551ea0ee66dd599cde068d998e57d5e09332c131e5460008051602062001d958339815191529061ffff811690819060009060071615620003515750600381901c60009081526001840160205260409020545b60005b8751811015620003ed57620003d383838a848151811062000379576200037962000f6e565b6020026020010151600001518b85815181106200039a576200039a62000f6e565b6020026020010151602001518c8681518110620003bb57620003bb62000f6e565b6020026020010151604001516200058d60201b60201c565b909350915080620003e48162000fb0565b91505062000354565b508282146200040a5760028401805461ffff191661ffff84161790555b60078216156200042d57600382901c600090815260018501602052604090208190555b7f8faa70878671ccd212d20771b795c50af8fd3ff6cf27f4bde57e5d4de0aeb673878787604051620004629392919062001020565b60405180910390a162000476868662000d9c565b50505050505050565b600082815260008051602062001db58339815191526020526040808220600101805490849055905190918391839186917fbd79b86ffe0ab8e8776151514217cd7cacd52c909f66475c3af44e129f0b00ff9190a4505050565b620004e4828262000e74565b6200058957600082815260008051602062001db5833981519152602090815260408083206001600160a01b0385168085529252808320805460ff1916600117905551339285917f2f8788117e7eff1d82e926ec794901d17c78024a50270940304540a733656f0d9190a460008281527f4f4f658137f4e10317e1a22624c2b114af7563a20fb2e3444ae2ac2342d457d16020526040902062000587908262000eaf565b505b5050565b6000808060008051602062001d95833981519152905060008451116200060e5760405162461bcd60e51b815260206004820152602b60248201527f4c69624469616d6f6e644375743a204e6f2073656c6563746f727320696e206660448201526a1858d95d081d1bc818dd5d60aa1b60648201526084015b60405180910390fd5b600085600281111562000625576200062562000f84565b03620007ab57620006508660405180606001604052806024815260200162001dd56024913962000ecd565b60005b8451811015620007a457600085828151811062000674576200067462000f6e565b6020908102919091018101516001600160e01b03198116600090815291859052604090912054909150606081901c15620007175760405162461bcd60e51b815260206004820152603560248201527f4c69624469616d6f6e644375743a2043616e2774206164642066756e6374696f60448201527f6e207468617420616c7265616479206578697374730000000000000000000000606482015260840162000605565b6001600160e01b031980831660008181526020879052604090206001600160601b031960608d901b168e17905560e060058e901b811692831c199c909c1690821c179a8190036200077c5760038c901c600090815260018601602052604081209b909b555b8b620007888162000fb0565b9c505050505080806200079b9062000fb0565b91505062000653565b5062000d90565b6001856002811115620007c257620007c262000f84565b03620009db57620007ed8660405180606001604052806028815260200162001e416028913962000ecd565b60005b8451811015620007a457600085828151811062000811576200081162000f6e565b6020908102919091018101516001600160e01b03198116600090815291859052604090912054909150606081901c308103620008a85760405162461bcd60e51b815260206004820152602f60248201527f4c69624469616d6f6e644375743a2043616e2774207265706c61636520696d6d60448201526e3aba30b1363290333ab731ba34b7b760891b606482015260840162000605565b896001600160a01b0316816001600160a01b031603620009205760405162461bcd60e51b8152602060048201526038602482015260008051602062001d7583398151915260448201527f6374696f6e20776974682073616d652066756e6374696f6e0000000000000000606482015260840162000605565b6001600160a01b0381166200098d5760405162461bcd60e51b8152602060048201526038602482015260008051602062001d7583398151915260448201527f6374696f6e207468617420646f65736e27742065786973740000000000000000606482015260840162000605565b506001600160e01b031990911660009081526020849052604090206001600160601b03919091166001600160601b031960608a901b1617905580620009d28162000fb0565b915050620007f0565b6002856002811115620009f257620009f262000f84565b0362000d37576001600160a01b0386161562000a775760405162461bcd60e51b815260206004820152603660248201527f4c69624469616d6f6e644375743a2052656d6f7665206661636574206164647260448201527f657373206d757374206265206164647265737328302900000000000000000000606482015260840162000605565b600388901c6007891660005b865181101562000d125760008a900362000ac4578262000aa38162001127565b60008181526001870160205260409020549b5093506007925062000ad49050565b8162000ad08162001127565b9250505b6000806000808a858151811062000aef5762000aef62000f6e565b6020908102919091018101516001600160e01b031981166000908152918a9052604090912054909150606081901c62000b915760405162461bcd60e51b815260206004820152603760248201527f4c69624469616d6f6e644375743a2043616e27742072656d6f76652066756e6360448201527f74696f6e207468617420646f65736e2774206578697374000000000000000000606482015260840162000605565b30606082901c0362000bfd5760405162461bcd60e51b815260206004820152602e60248201527f4c69624469616d6f6e644375743a2043616e27742072656d6f766520696d6d7560448201526d3a30b1363290333ab731ba34b7b760911b606482015260840162000605565b600587901b8f901b94506001600160e01b03198086169083161462000c4f576001600160e01b03198516600090815260208a90526040902080546001600160601b0319166001600160601b0383161790555b6001600160e01b031991909116600090815260208990526040812055600381901c611fff16925060051b60e016905085821462000cb6576000828152600188016020526040902080546001600160e01b031980841c19909116908516831c17905562000cda565b80836001600160e01b031916901c816001600160e01b031960001b901c198e16179c505b8460000362000cf957600086815260018801602052604081208190559c505b505050808062000d099062000fb0565b91505062000a83565b508062000d2183600862001141565b62000d2d91906200115b565b9950505062000d90565b60405162461bcd60e51b815260206004820152602760248201527f4c69624469616d6f6e644375743a20496e636f727265637420466163657443756044820152663a20b1ba34b7b760c91b606482015260840162000605565b50959694955050505050565b6001600160a01b03821662000daf575050565b62000dd48260405180606001604052806028815260200162001df96028913962000ecd565b600080836001600160a01b03168360405162000df1919062001171565b600060405180830381855af49150503d806000811462000e2e576040519150601f19603f3d011682016040523d82523d6000602084013e62000e33565b606091505b50915091508162000e6e5780511562000e4f5780518082602001fd5b838360405163192105d760e01b8152600401620006059291906200118f565b50505050565b600082815260008051602062001db5833981519152602090815260408083206001600160a01b038516845290915290205460ff165b92915050565b600062000ec6836001600160a01b03841662000ef1565b9392505050565b813b818162000e6e5760405162461bcd60e51b8152600401620006059190620011bd565b600081815260018301602052604081205462000f3a5750815460018181018455600084815260208082209093018490558454848252828601909352604090209190915562000ea9565b50600062000ea9565b60006020828403121562000f5657600080fd5b81516001600160a01b038116811462000ec657600080fd5b634e487b7160e01b600052603260045260246000fd5b634e487b7160e01b600052602160045260246000fd5b634e487b7160e01b600052601160045260246000fd5b60006001820162000fc55762000fc562000f9a565b5060010190565b60005b8381101562000fe957818101518382015260200162000fcf565b50506000910152565b600081518084526200100c81602086016020860162000fcc565b601f01601f19169290920160200192915050565b60006060808301818452808751808352608092508286019150828160051b8701016020808b0160005b84811015620010f557898403607f19018652815180516001600160a01b031685528381015189860190600381106200109157634e487b7160e01b600052602160045260246000fd5b868601526040918201519186018a905281519081905290840190600090898701905b80831015620010df5783516001600160e01b0319168252928601926001929092019190860190620010b3565b5097850197955050509082019060010162001049565b50506001600160a01b038a1690880152868103604088015262001119818962000ff2565b9a9950505050505050505050565b60008162001139576200113962000f9a565b506000190190565b808202811582820484141762000ea95762000ea962000f9a565b8082018082111562000ea95762000ea962000f9a565b600082516200118581846020870162000fcc565b9190910192915050565b6001600160a01b0383168152604060208201819052600090620011b59083018462000ff2565b949350505050565b60208152600062000ec6602083018462000ff2565b610b9380620011e26000396000f3fe6080604052600436106100955760003560e01c80639010d07c116100595780639010d07c1461023057806391d1485414610268578063a217fddf14610298578063ca15c873146102ad578063d547741f146102cd5761009c565b8063117803e314610155578063248a9ca31461019c5780632f2ff15d146101bc57806336568abe146101dc578063543a16b1146101fc5761009c565b3661009c57005b600080356001600160e01b03191681527fc8fcad8db84d3cc18b4c41d551ea0ee66dd599cde068d998e57d5e09332c131c6020819052604090912054819060601c8061012f5760405162461bcd60e51b815260206004820181905260248201527f4469616d6f6e643a2046756e6374696f6e20646f6573206e6f7420657869737460448201526064015b60405180910390fd5b3660008037600080366000845af43d6000803e80801561014e573d6000f35b3d6000fd5b005b34801561016157600080fd5b506101897f6270edb7c868f86fda4adedba75108201087268ea345934db8bad688e1feb91b81565b6040519081526020015b60405180910390f35b3480156101a857600080fd5b506101896101b736600461092e565b6102ed565b3480156101c857600080fd5b506101536101d7366004610947565b61030f565b3480156101e857600080fd5b506101536101f7366004610947565b610331565b34801561020857600080fd5b506101897fe33cd123f09d9a4e3b34162dcaba99ee0b73fe748beb8ca15f84a66b0c14723081565b34801561023c57600080fd5b5061025061024b366004610983565b6103af565b6040516001600160a01b039091168152602001610193565b34801561027457600080fd5b50610288610283366004610947565b6103dd565b6040519015158152602001610193565b3480156102a457600080fd5b50610189600081565b3480156102b957600080fd5b506101896102c836600461092e565b610415565b3480156102d957600080fd5b506101536102e8366004610947565b610439565b6000908152600080516020610b1e833981519152602052604090206001015490565b610318826102ed565b6103228133610456565b61032c83836104ba565b505050565b6001600160a01b03811633146103a15760405162461bcd60e51b815260206004820152602f60248201527f416363657373436f6e74726f6c3a2063616e206f6e6c792072656e6f756e636560448201526e103937b632b9903337b91039b2b63360891b6064820152608401610126565b6103ab8282610551565b5050565b6000828152600080516020610b3e833981519152602052604081206103d490836105e6565b90505b92915050565b6000918252600080516020610b1e833981519152602090815260408084206001600160a01b0393909316845291905290205460ff1690565b6000818152600080516020610b3e833981519152602052604081206103d7906105f2565b610442826102ed565b61044c8133610456565b61032c8383610551565b61046082826103dd565b6103ab57610478816001600160a01b031660146105fc565b6104838360206105fc565b6040516020016104949291906109c9565b60408051601f198184030181529082905262461bcd60e51b825261012691600401610a3e565b6104c482826103dd565b6103ab576000828152600080516020610b1e833981519152602090815260408083206001600160a01b0385168085529252808320805460ff1916600117905551339285917f2f8788117e7eff1d82e926ec794901d17c78024a50270940304540a733656f0d9190a46000828152600080516020610b3e8339815191526020526040902061032c9082610798565b61055b82826103dd565b156103ab576000828152600080516020610b1e833981519152602090815260408083206001600160a01b0385168085529252808320805460ff1916905551339285917ff6391f5c32d9c69d2a47ea670b442974b53935d1edc7fd64eb21e047a839171b9190a46000828152600080516020610b3e8339815191526020526040902061032c90826107ad565b60006103d483836107c2565b60006103d7825490565b6060600061060b836002610a87565b610616906002610a9e565b67ffffffffffffffff81111561062e5761062e610ab1565b6040519080825280601f01601f191660200182016040528015610658576020820181803683370190505b509050600360fc1b8160008151811061067357610673610ac7565b60200101906001600160f81b031916908160001a905350600f60fb1b816001815181106106a2576106a2610ac7565b60200101906001600160f81b031916908160001a90535060006106c6846002610a87565b6106d1906001610a9e565b90505b6001811115610749576f181899199a1a9b1b9c1cb0b131b232b360811b85600f166010811061070557610705610ac7565b1a60f81b82828151811061071b5761071b610ac7565b60200101906001600160f81b031916908160001a90535060049490941c9361074281610add565b90506106d4565b5083156103d45760405162461bcd60e51b815260206004820181905260248201527f537472696e67733a20686578206c656e67746820696e73756666696369656e746044820152606401610126565b60006103d4836001600160a01b0384166107ec565b60006103d4836001600160a01b03841661083b565b60008260000182815481106107d9576107d9610ac7565b9060005260206000200154905092915050565b6000818152600183016020526040812054610833575081546001818101845560008481526020808220909301849055845484825282860190935260409020919091556103d7565b5060006103d7565b6000818152600183016020526040812054801561092457600061085f600183610af4565b855490915060009061087390600190610af4565b90508181146108d857600086600001828154811061089357610893610ac7565b90600052602060002001549050808760000184815481106108b6576108b6610ac7565b6000918252602080832090910192909255918252600188019052604090208390555b85548690806108e9576108e9610b07565b6001900381819060005260206000200160009055905585600101600086815260200190815260200160002060009055600193505050506103d7565b60009150506103d7565b60006020828403121561094057600080fd5b5035919050565b6000806040838503121561095a57600080fd5b8235915060208301356001600160a01b038116811461097857600080fd5b809150509250929050565b6000806040838503121561099657600080fd5b50508035926020909101359150565b60005b838110156109c05781810151838201526020016109a8565b50506000910152565b7f416363657373436f6e74726f6c3a206163636f756e7420000000000000000000815260008351610a018160178501602088016109a5565b7001034b99036b4b9b9b4b733903937b6329607d1b6017918401918201528351610a328160288401602088016109a5565b01602801949350505050565b6020815260008251806020840152610a5d8160408501602087016109a5565b601f01601f19169190910160400192915050565b634e487b7160e01b600052601160045260246000fd5b80820281158282048414176103d7576103d7610a71565b808201808211156103d7576103d7610a71565b634e487b7160e01b600052604160045260246000fd5b634e487b7160e01b600052603260045260246000fd5b600081610aec57610aec610a71565b506000190190565b818103818111156103d7576103d7610a71565b634e487b7160e01b600052603160045260246000fdfe4f4f658137f4e10317e1a22624c2b114af7563a20fb2e3444ae2ac2342d457d04f4f658137f4e10317e1a22624c2b114af7563a20fb2e3444ae2ac2342d457d1a264697066735822122099a21497f269d8ea95e6ec767afa7cd0e17b7ea5f9a567d51762501734ac50f264736f6c634300081300334c69624469616d6f6e644375743a2043616e2774207265706c6163652066756ec8fcad8db84d3cc18b4c41d551ea0ee66dd599cde068d998e57d5e09332c131c4f4f658137f4e10317e1a22624c2b114af7563a20fb2e3444ae2ac2342d457d04c69624469616d6f6e644375743a2041646420666163657420686173206e6f20636f64654c69624469616d6f6e644375743a205f696e6974206164647265737320686173206e6f20636f64656270edb7c868f86fda4adedba75108201087268ea345934db8bad688e1feb91b4c69624469616d6f6e644375743a205265706c61636520666163657420686173206e6f20636f6465",
  "devdoc": {
    "author": "Juan M. Sanchez M.",
    "kind": "dev",
    "methods": {},
    "title": "RAIR ERC721 Factory",
    "version": 1
  },
  "userdoc": {
    "kind": "user",
    "methods": {},
    "notice": "Handles the deployment of ERC721 RAIR Tokens",
    "version": 1
  },
  "storageLayout": {
    "storage": [],
    "types": null
  }
}