{
  "address": "0xAFbacEDaD4117eA6F53686e7702F012d0bbfF452",
  "abi": [
    {
      "inputs": [
        {
          "internalType": "address",
          "name": "_diamondCut",
          "type": "address"
        }
      ],
      "stateMutability": "nonpayable",
      "type": "constructor"
    },
    {
      "inputs": [
        {
          "internalType": "address",
          "name": "_initializationContractAddress",
          "type": "address"
        },
        {
          "internalType": "bytes",
          "name": "_calldata",
          "type": "bytes"
        }
      ],
      "name": "InitializationFunctionReverted",
      "type": "error"
    },
    {
      "inputs": [
        {
          "internalType": "uint256",
          "name": "value",
          "type": "uint256"
        },
        {
          "internalType": "uint256",
          "name": "length",
          "type": "uint256"
        }
      ],
      "name": "StringsInsufficientHexLength",
      "type": "error"
    },
    {
      "anonymous": false,
      "inputs": [
        {
          "components": [
            {
              "internalType": "address",
              "name": "facetAddress",
              "type": "address"
            },
            {
              "internalType": "enum IDiamondCut.FacetCutAction",
              "name": "action",
              "type": "uint8"
            },
            {
              "internalType": "bytes4[]",
              "name": "functionSelectors",
              "type": "bytes4[]"
            }
          ],
          "indexed": false,
          "internalType": "struct IDiamondCut.FacetCut[]",
          "name": "_diamondCut",
          "type": "tuple[]"
        },
        {
          "indexed": false,
          "internalType": "address",
          "name": "_init",
          "type": "address"
        },
        {
          "indexed": false,
          "internalType": "bytes",
          "name": "_calldata",
          "type": "bytes"
        }
      ],
      "name": "DiamondCut",
      "type": "event"
    },
    {
      "anonymous": false,
      "inputs": [
        {
          "indexed": true,
          "internalType": "address",
          "name": "previousOwner",
          "type": "address"
        },
        {
          "indexed": true,
          "internalType": "address",
          "name": "newOwner",
          "type": "address"
        }
      ],
      "name": "OwnershipTransferred",
      "type": "event"
    },
    {
      "anonymous": false,
      "inputs": [
        {
          "indexed": true,
          "internalType": "bytes32",
          "name": "role",
          "type": "bytes32"
        },
        {
          "indexed": true,
          "internalType": "bytes32",
          "name": "previousAdminRole",
          "type": "bytes32"
        },
        {
          "indexed": true,
          "internalType": "bytes32",
          "name": "newAdminRole",
          "type": "bytes32"
        }
      ],
      "name": "RoleAdminChanged",
      "type": "event"
    },
    {
      "anonymous": false,
      "inputs": [
        {
          "indexed": true,
          "internalType": "bytes32",
          "name": "role",
          "type": "bytes32"
        },
        {
          "indexed": true,
          "internalType": "address",
          "name": "account",
          "type": "address"
        },
        {
          "indexed": true,
          "internalType": "address",
          "name": "sender",
          "type": "address"
        }
      ],
      "name": "RoleGranted",
      "type": "event"
    },
    {
      "anonymous": false,
      "inputs": [
        {
          "indexed": true,
          "internalType": "bytes32",
          "name": "role",
          "type": "bytes32"
        },
        {
          "indexed": true,
          "internalType": "address",
          "name": "account",
          "type": "address"
        },
        {
          "indexed": true,
          "internalType": "address",
          "name": "sender",
          "type": "address"
        }
      ],
      "name": "RoleRevoked",
      "type": "event"
    },
    {
      "stateMutability": "payable",
      "type": "fallback"
    },
    {
      "inputs": [],
      "name": "DEFAULT_ADMIN_ROLE",
      "outputs": [
        {
          "internalType": "bytes32",
          "name": "",
          "type": "bytes32"
        }
      ],
      "stateMutability": "view",
      "type": "function"
    },
    {
      "inputs": [],
      "name": "MAINTAINER",
      "outputs": [
        {
          "internalType": "bytes32",
          "name": "",
          "type": "bytes32"
        }
      ],
      "stateMutability": "view",
      "type": "function"
    },
    {
      "inputs": [
        {
          "internalType": "bytes32",
          "name": "role",
          "type": "bytes32"
        }
      ],
      "name": "getRoleAdmin",
      "outputs": [
        {
          "internalType": "bytes32",
          "name": "",
          "type": "bytes32"
        }
      ],
      "stateMutability": "view",
      "type": "function"
    },
    {
      "inputs": [
        {
          "internalType": "bytes32",
          "name": "role",
          "type": "bytes32"
        },
        {
          "internalType": "uint256",
          "name": "index",
          "type": "uint256"
        }
      ],
      "name": "getRoleMember",
      "outputs": [
        {
          "internalType": "address",
          "name": "",
          "type": "address"
        }
      ],
      "stateMutability": "view",
      "type": "function"
    },
    {
      "inputs": [
        {
          "internalType": "bytes32",
          "name": "role",
          "type": "bytes32"
        }
      ],
      "name": "getRoleMemberCount",
      "outputs": [
        {
          "internalType": "uint256",
          "name": "",
          "type": "uint256"
        }
      ],
      "stateMutability": "view",
      "type": "function"
    },
    {
      "inputs": [
        {
          "internalType": "bytes32",
          "name": "role",
          "type": "bytes32"
        },
        {
          "internalType": "address",
          "name": "account",
          "type": "address"
        }
      ],
      "name": "grantRole",
      "outputs": [],
      "stateMutability": "nonpayable",
      "type": "function"
    },
    {
      "inputs": [
        {
          "internalType": "bytes32",
          "name": "role",
          "type": "bytes32"
        },
        {
          "internalType": "address",
          "name": "account",
          "type": "address"
        }
      ],
      "name": "hasRole",
      "outputs": [
        {
          "internalType": "bool",
          "name": "",
          "type": "bool"
        }
      ],
      "stateMutability": "view",
      "type": "function"
    },
    {
      "inputs": [
        {
          "internalType": "bytes32",
          "name": "role",
          "type": "bytes32"
        },
        {
          "internalType": "address",
          "name": "account",
          "type": "address"
        }
      ],
      "name": "renounceRole",
      "outputs": [],
      "stateMutability": "nonpayable",
      "type": "function"
    },
    {
      "inputs": [
        {
          "internalType": "bytes32",
          "name": "role",
          "type": "bytes32"
        },
        {
          "internalType": "address",
          "name": "account",
          "type": "address"
        }
      ],
      "name": "revokeRole",
      "outputs": [],
      "stateMutability": "nonpayable",
      "type": "function"
    },
    {
      "stateMutability": "payable",
      "type": "receive"
    }
  ],
  "transactionHash": "0x3fc65db8676231921c700926cccfa552f93ebdb9bf37fe7f9e1383b754ea8b00",
  "args": [
    "0x8dd9bac877ddee493f46fd0df7f4d12054a63607"
  ],
  "numDeployments": 3,
  "solcInputHash": "ba288d747cc1aa4c71ee545a11fd6010",
  "bytecode": "0x608060405234801561001057600080fd5b50604051611bc4380380611bc483398101604081905261002f91610dba565b338161003a826101b9565b604080516001808252818301909252600091816020015b604080516060808201835260008083526020830152918101919091528152602001906001900390816100515750506040805160018082528183019092529192506000919060208083019080368337019050509050631f931c1c60e01b816000815181106100c0576100c0610de3565b6001600160e01b031990921660209283029190910182015260408051606081019091526001600160a01b038516815290810160008152602001828152508260008151811061011057610110610de3565b602002602001018190525061013c8260006040518060200160405280600081525061023c60201b60201c565b50506002805461ffff191660039081179091556103e890819055610164925090506001610e25565b600455600354610175906009610e25565b600555610190600080516020611b7c833981519152806103a8565b61019b6000336103f3565b6101b3600080516020611b7c833981519152336103f3565b5061102d565b7fc8fcad8db84d3cc18b4c41d551ea0ee66dd599cde068d998e57d5e09332c132080546001600160a01b031981166001600160a01b03848116918217909355604051600080516020611b10833981519152939092169182907f8be0079c531659141344cd1fd0a4f28419497f9722a3daafe3b4186f6b6457e090600090a3505050565b7fc8fcad8db84d3cc18b4c41d551ea0ee66dd599cde068d998e57d5e09332c131e54600080516020611b108339815191529061ffff8116908190600090600716156102995750600381901c60009081526001840160205260409020545b60005b875181101561031c5761030f83838a84815181106102bc576102bc610de3565b6020026020010151600001518b85815181106102da576102da610de3565b6020026020010151602001518c86815181106102f8576102f8610de3565b60200260200101516040015161049160201b60201c565b909350915060010161029c565b508282146103385760028401805461ffff191661ffff84161790555b600782161561035a57600382901c600090815260018501602052604090208190555b7f8faa70878671ccd212d20771b795c50af8fd3ff6cf27f4bde57e5d4de0aeb67387878760405161038d93929190610e8c565b60405180910390a161039f8686610c37565b50505050505050565b600082815260208190526040808220600101805490849055905190918391839186917fbd79b86ffe0ab8e8776151514217cd7cacd52c909f66475c3af44e129f0b00ff9190a4505050565b6103fd8282610d03565b61048d576000828152602081815260408083206001600160a01b03851684529091529020805460ff191660011790556104333390565b6001600160a01b0316816001600160a01b0316837f2f8788117e7eff1d82e926ec794901d17c78024a50270940304540a733656f0d60405160405180910390a4600082815260016020526040902061048b9082610d2e565b505b5050565b60008080600080516020611b10833981519152905060008451116105105760405162461bcd60e51b815260206004820152602b60248201527f4c69624469616d6f6e644375743a204e6f2073656c6563746f727320696e206660448201526a1858d95d081d1bc818dd5d60aa1b60648201526084015b60405180910390fd5b600085600281111561052457610524610df9565b036106925761054b86604051806060016040528060248152602001611b3060249139610d4a565b60005b845181101561068c57600085828151811061056b5761056b610de3565b6020908102919091018101516001600160e01b03198116600090815291859052604090912054909150606081901c1561060c5760405162461bcd60e51b815260206004820152603560248201527f4c69624469616d6f6e644375743a2043616e2774206164642066756e6374696f60448201527f6e207468617420616c72656164792065786973747300000000000000000000006064820152608401610507565b6001600160e01b031980831660008181526020879052604090206001600160601b031960608d901b168e17905560e060058e901b811692831c199c909c1690821c179a8190036106705760038c901c600090815260018601602052604081209b909b555b8b61067a81610f8f565b9c50506001909301925061054e915050565b50610c2b565b60018560028111156106a6576106a6610df9565b036108a2576106cd86604051806060016040528060288152602001611b9c60289139610d4a565b60005b845181101561068c5760008582815181106106ed576106ed610de3565b6020908102919091018101516001600160e01b03198116600090815291859052604090912054909150606081901c3081036107825760405162461bcd60e51b815260206004820152602f60248201527f4c69624469616d6f6e644375743a2043616e2774207265706c61636520696d6d60448201526e3aba30b1363290333ab731ba34b7b760891b6064820152608401610507565b896001600160a01b0316816001600160a01b0316036107f75760405162461bcd60e51b81526020600482015260386024820152600080516020611af083398151915260448201527f6374696f6e20776974682073616d652066756e6374696f6e00000000000000006064820152608401610507565b6001600160a01b0381166108615760405162461bcd60e51b81526020600482015260386024820152600080516020611af083398151915260448201527f6374696f6e207468617420646f65736e277420657869737400000000000000006064820152608401610507565b506001600160e01b031990911660009081526020849052604090206001600160601b03919091166001600160601b031960608a901b161790556001016106d0565b60028560028111156108b6576108b6610df9565b03610bd3576001600160a01b038616156109385760405162461bcd60e51b815260206004820152603660248201527f4c69624469616d6f6e644375743a2052656d6f7665206661636574206164647260448201527f657373206d7573742062652061646472657373283029000000000000000000006064820152608401610507565b600388901c6007891660005b8651811015610bb35760008a9003610980578261096081610fa8565b60008181526001870160205260409020549b5093506007925061098e9050565b8161098a81610fa8565b9250505b6000806000808a85815181106109a6576109a6610de3565b6020908102919091018101516001600160e01b031981166000908152918a9052604090912054909150606081901c610a465760405162461bcd60e51b815260206004820152603760248201527f4c69624469616d6f6e644375743a2043616e27742072656d6f76652066756e6360448201527f74696f6e207468617420646f65736e27742065786973740000000000000000006064820152608401610507565b30606082901c03610ab05760405162461bcd60e51b815260206004820152602e60248201527f4c69624469616d6f6e644375743a2043616e27742072656d6f766520696d6d7560448201526d3a30b1363290333ab731ba34b7b760911b6064820152608401610507565b600587901b8f901b94506001600160e01b031980861690831614610b01576001600160e01b03198516600090815260208a90526040902080546001600160601b0319166001600160601b0383161790555b6001600160e01b031991909116600090815260208990526040812055600381901c611fff16925060051b60e0169050858214610b66576000828152600188016020526040902080546001600160e01b031980841c19909116908516831c179055610b8a565b80836001600160e01b031916901c816001600160e01b031960001b901c198e16179c505b84600003610ba857600086815260018801602052604081208190559c505b505050600101610944565b5080610bc0836008610e25565b610bca9190610fbf565b99505050610c2b565b60405162461bcd60e51b815260206004820152602760248201527f4c69624469616d6f6e644375743a20496e636f727265637420466163657443756044820152663a20b1ba34b7b760c91b6064820152608401610507565b50959694955050505050565b6001600160a01b038216610c49575050565b610c6b82604051806060016040528060288152602001611b5460289139610d4a565b600080836001600160a01b031683604051610c869190610fd2565b600060405180830381855af49150503d8060008114610cc1576040519150601f19603f3d011682016040523d82523d6000602084013e610cc6565b606091505b509150915081610cfd57805115610ce05780518082602001fd5b838360405163192105d760e01b8152600401610507929190610fee565b50505050565b6000828152602081815260408083206001600160a01b038516845290915290205460ff165b92915050565b6000610d43836001600160a01b038416610d6b565b9392505050565b813b8181610cfd5760405162461bcd60e51b8152600401610507919061101a565b6000818152600183016020526040812054610db257508154600181810184556000848152602080822090930184905584548482528286019093526040902091909155610d28565b506000610d28565b600060208284031215610dcc57600080fd5b81516001600160a01b0381168114610d4357600080fd5b634e487b7160e01b600052603260045260246000fd5b634e487b7160e01b600052602160045260246000fd5b634e487b7160e01b600052601160045260246000fd5b8082028115828204841417610d2857610d28610e0f565b60005b83811015610e57578181015183820152602001610e3f565b50506000910152565b60008151808452610e78816020860160208601610e3c565b601f01601f19169290920160200192915050565b60006060808301606084528087518083526080925060808601915060808160051b8701016020808b0160005b84811015610f5f57898403607f19018652815180516001600160a01b03168552838101518986019060038110610efe57634e487b7160e01b600052602160045260246000fd5b868601526040918201519186018a905281519081905290840190600090898701905b80831015610f4a5783516001600160e01b0319168252928601926001929092019190860190610f20565b50978501979550505090820190600101610eb8565b50506001600160a01b038a16908801528681036040880152610f818189610e60565b9a9950505050505050505050565b600060018201610fa157610fa1610e0f565b5060010190565b600081610fb757610fb7610e0f565b506000190190565b80820180821115610d2857610d28610e0f565b60008251610fe4818460208701610e3c565b9190910192915050565b6001600160a01b038316815260406020820181905260009061101290830184610e60565b949350505050565b602081526000610d436020830184610e60565b610ab48061103c6000396000f3fe60806040526004361061008a5760003560e01c80639010d07c116100595780639010d07c1461020157806391d1485414610239578063a217fddf14610269578063ca15c8731461027e578063d547741f1461029e57610091565b8063248a9ca31461014a5780632aabb7261461018d5780632f2ff15d146101c157806336568abe146101e157610091565b3661009157005b600080356001600160e01b03191681527fc8fcad8db84d3cc18b4c41d551ea0ee66dd599cde068d998e57d5e09332c131c6020819052604090912054819060601c806101245760405162461bcd60e51b815260206004820181905260248201527f4469616d6f6e643a2046756e6374696f6e20646f6573206e6f7420657869737460448201526064015b60405180910390fd5b3660008037600080366000845af43d6000803e808015610143573d6000f35b3d6000fd5b005b34801561015657600080fd5b5061017a61016536600461088f565b60009081526020819052604090206001015490565b6040519081526020015b60405180910390f35b34801561019957600080fd5b5061017a7fd88b35d7427a01a8e16d8a129535b4cf3150edf8d92c0a44dc1eba73bdaf18cb81565b3480156101cd57600080fd5b506101486101dc3660046108a8565b6102be565b3480156101ed57600080fd5b506101486101fc3660046108a8565b6102e9565b34801561020d57600080fd5b5061022161021c3660046108e4565b610367565b6040516001600160a01b039091168152602001610184565b34801561024557600080fd5b506102596102543660046108a8565b610388565b6040519015158152602001610184565b34801561027557600080fd5b5061017a600081565b34801561028a57600080fd5b5061017a61029936600461088f565b6103b1565b3480156102aa57600080fd5b506101486102b93660046108a8565b6103c8565b6000828152602081905260409020600101546102da81336103ee565b6102e48383610452565b505050565b6001600160a01b03811633146103595760405162461bcd60e51b815260206004820152602f60248201527f416363657373436f6e74726f6c3a2063616e206f6e6c792072656e6f756e636560448201526e103937b632b9903337b91039b2b63360891b606482015260840161011b565b61036382826104ea565b5050565b600082815260016020526040812061037f9083610563565b90505b92915050565b6000918252602082815260408084206001600160a01b0393909316845291905290205460ff1690565b60008181526001602052604081206103829061056f565b6000828152602081905260409020600101546103e481336103ee565b6102e483836104ea565b6103f88282610388565b61036357610410816001600160a01b03166014610579565b61041b836020610579565b60405160200161042c92919061092a565b60408051601f198184030181529082905262461bcd60e51b825261011b9160040161099f565b61045c8282610388565b610363576000828152602081815260408083206001600160a01b03851684529091529020805460ff191660011790556104923390565b6001600160a01b0316816001600160a01b0316837f2f8788117e7eff1d82e926ec794901d17c78024a50270940304540a733656f0d60405160405180910390a460008281526001602052604090206102e490826106f9565b6104f48282610388565b15610363576000828152602081815260408083206001600160a01b0385168085529252808320805460ff1916905551339285917ff6391f5c32d9c69d2a47ea670b442974b53935d1edc7fd64eb21e047a839171b9190a460008281526001602052604090206102e4908261070e565b600061037f8383610723565b6000610382825490565b60608260006105898460026109e8565b6105949060026109ff565b67ffffffffffffffff8111156105ac576105ac610a12565b6040519080825280601f01601f1916602001820160405280156105d6576020820181803683370190505b509050600360fc1b816000815181106105f1576105f1610a28565b60200101906001600160f81b031916908160001a905350600f60fb1b8160018151811061062057610620610a28565b60200101906001600160f81b031916908160001a90535060006106448560026109e8565b61064f9060016109ff565b90505b60018111156106c7576f181899199a1a9b1b9c1cb0b131b232b360811b83600f166010811061068357610683610a28565b1a60f81b82828151811061069957610699610a28565b60200101906001600160f81b031916908160001a90535060049290921c916106c081610a3e565b9050610652565b5081156106f15760405163e22e27eb60e01b8152600481018690526024810185905260440161011b565b949350505050565b600061037f836001600160a01b03841661074d565b600061037f836001600160a01b03841661079c565b600082600001828154811061073a5761073a610a28565b9060005260206000200154905092915050565b600081815260018301602052604081205461079457508154600181810184556000848152602080822090930184905584548482528286019093526040902091909155610382565b506000610382565b600081815260018301602052604081205480156108855760006107c0600183610a55565b85549091506000906107d490600190610a55565b90508082146108395760008660000182815481106107f4576107f4610a28565b906000526020600020015490508087600001848154811061081757610817610a28565b6000918252602080832090910192909255918252600188019052604090208390555b855486908061084a5761084a610a68565b600190038181906000526020600020016000905590558560010160008681526020019081526020016000206000905560019350505050610382565b6000915050610382565b6000602082840312156108a157600080fd5b5035919050565b600080604083850312156108bb57600080fd5b8235915060208301356001600160a01b03811681146108d957600080fd5b809150509250929050565b600080604083850312156108f757600080fd5b50508035926020909101359150565b60005b83811015610921578181015183820152602001610909565b50506000910152565b7f416363657373436f6e74726f6c3a206163636f756e7420000000000000000000815260008351610962816017850160208801610906565b7001034b99036b4b9b9b4b733903937b6329607d1b6017918401918201528351610993816028840160208801610906565b01602801949350505050565b60208152600082518060208401526109be816040850160208701610906565b601f01601f19169190910160400192915050565b634e487b7160e01b600052601160045260246000fd5b8082028115828204841417610382576103826109d2565b80820180821115610382576103826109d2565b634e487b7160e01b600052604160045260246000fd5b634e487b7160e01b600052603260045260246000fd5b600081610a4d57610a4d6109d2565b506000190190565b81810381811115610382576103826109d2565b634e487b7160e01b600052603160045260246000fdfea264697066735822122093f22939a958cf9a168c77f97e48b416de13aade26260c34890ca725d3311fc664736f6c634300081900334c69624469616d6f6e644375743a2043616e2774207265706c6163652066756ec8fcad8db84d3cc18b4c41d551ea0ee66dd599cde068d998e57d5e09332c131c4c69624469616d6f6e644375743a2041646420666163657420686173206e6f20636f64654c69624469616d6f6e644375743a205f696e6974206164647265737320686173206e6f20636f6465d88b35d7427a01a8e16d8a129535b4cf3150edf8d92c0a44dc1eba73bdaf18cb4c69624469616d6f6e644375743a205265706c61636520666163657420686173206e6f20636f6465",
  "devdoc": {
    "author": "Juan M. Sanchez M.",
    "details": "Notice this contract is inheriting from Diamond & AccessControlAppStorageEnumerableMarket",
    "errors": {
      "StringsInsufficientHexLength(uint256,uint256)": [
        {
          "details": "The `value` string doesn't fit in the specified `length`."
        }
      ]
    },
    "events": {
      "RoleAdminChanged(bytes32,bytes32,bytes32)": {
        "params": {
          "newAdminRole": "contains the new status of the role",
          "previousAdminRole": "contains the previous status of the role",
          "role": "Contains the role we want to update"
        }
      },
      "RoleGranted(bytes32,address,address)": {
        "params": {
          "account": "contains the address that we want to grant the role",
          "role": "Contains the role we want to update",
          "sender": "contains the address that is changing the role of the account"
        }
      },
      "RoleRevoked(bytes32,address,address)": {
        "params": {
          "account": "contains the address that we want to revoke the role",
          "role": "Contains the role we want to update",
          "sender": "contains the address that is changing the role of the account"
        }
      }
    },
    "kind": "dev",
    "methods": {
      "getRoleAdmin(bytes32)": {
        "params": {
          "role": "Contains the role that we want to verify"
        },
        "returns": {
          "_0": "bytes that indicates if an account has or not an admin role"
        }
      },
      "getRoleMember(bytes32,uint256)": {
        "params": {
          "index": "Contains the indexed position to verify inside the role members list",
          "role": "Contains the role that we want to verify"
        },
        "returns": {
          "_0": "address that indicates the address indexed in that position"
        }
      },
      "getRoleMemberCount(bytes32)": {
        "params": {
          "role": "Contains the role that we want to verify"
        },
        "returns": {
          "_0": "uint256 that indicates the total accounts with that role"
        }
      },
      "grantRole(bytes32,address)": {
        "details": "This function is only available to an account with an Admin role",
        "params": {
          "account": "Contains the account that has the role we want to update",
          "role": "Contains the role that we want to grant"
        }
      },
      "hasRole(bytes32,address)": {
        "params": {
          "account": "Contains the account address thay we want to verify",
          "role": "Contains the role that we want to verify"
        },
        "returns": {
          "_0": "bool that indicates if an account has or not a role"
        }
      },
      "renounceRole(bytes32,address)": {
        "details": "Currently you can only renounce to your own roles",
        "params": {
          "account": "Contains the account that has the role we want to update",
          "role": "Contains the role to remove from our account"
        }
      },
      "revokeRole(bytes32,address)": {
        "details": "This function is only available to an account with an Admin role",
        "params": {
          "account": "Contains the account that has the role we want to update",
          "role": "Contains the role that we want to revoke"
        }
      }
    },
    "title": "RAIR ERC721 Marketplace Diamond",
    "version": 1
  },
  "userdoc": {
    "events": {
      "RoleAdminChanged(bytes32,bytes32,bytes32)": {
        "notice": "This event stores in the blockchain when we change an admin role"
      },
      "RoleGranted(bytes32,address,address)": {
        "notice": "This event stores in the blockchain when we grant a role"
      },
      "RoleRevoked(bytes32,address,address)": {
        "notice": "This event stores in the blockchain when we revoke a role"
      }
    },
    "kind": "user",
    "methods": {
      "getRoleAdmin(bytes32)": {
        "notice": "Allow us to check the admin role that contains a role"
      },
      "getRoleMember(bytes32,uint256)": {
        "notice": "Allow us to check the address of an indexed position for the role list"
      },
      "getRoleMemberCount(bytes32)": {
        "notice": "Allow us to check total members that has an selected role"
      },
      "grantRole(bytes32,address)": {
        "notice": "Allow us to grant a role to an account"
      },
      "hasRole(bytes32,address)": {
        "notice": "Allow us to check the if and account has a selected role"
      },
      "renounceRole(bytes32,address)": {
        "notice": "Allow us to renounce to a role"
      },
      "revokeRole(bytes32,address)": {
        "notice": "Allow us to revoke a role to an account"
      }
    },
    "notice": "Handles the trading of ERC721 RAIR Tokens",
    "version": 1
  },
  "storageLayout": {
    "storage": [
      {
        "astId": 5159,
        "contract": "contracts/Marketplace/MarketplaceDiamond.sol:MarketplaceDiamond",
        "label": "s",
        "offset": 0,
        "slot": "0",
        "type": "t_struct(AppStorage)5140_storage"
      }
    ],
    "types": {
      "t_address": {
        "encoding": "inplace",
        "label": "address",
        "numberOfBytes": "20"
      },
      "t_array(t_bytes32)dyn_storage": {
        "base": "t_bytes32",
        "encoding": "dynamic_array",
        "label": "bytes32[]",
        "numberOfBytes": "32"
      },
      "t_array(t_struct(feeSplits)5084_storage)dyn_storage": {
        "base": "t_struct(feeSplits)5084_storage",
        "encoding": "dynamic_array",
        "label": "struct feeSplits[]",
        "numberOfBytes": "32"
      },
      "t_array(t_struct(mintingOffer)5097_storage)dyn_storage": {
        "base": "t_struct(mintingOffer)5097_storage",
        "encoding": "dynamic_array",
        "label": "struct mintingOffer[]",
        "numberOfBytes": "32"
      },
      "t_array(t_uint256)dyn_storage": {
        "base": "t_uint256",
        "encoding": "dynamic_array",
        "label": "uint256[]",
        "numberOfBytes": "32"
      },
      "t_bool": {
        "encoding": "inplace",
        "label": "bool",
        "numberOfBytes": "1"
      },
      "t_bytes32": {
        "encoding": "inplace",
        "label": "bytes32",
        "numberOfBytes": "32"
      },
      "t_mapping(t_address,t_array(t_uint256)dyn_storage)": {
        "encoding": "mapping",
        "key": "t_address",
        "label": "mapping(address => uint256[])",
        "numberOfBytes": "32",
        "value": "t_array(t_uint256)dyn_storage"
      },
      "t_mapping(t_address,t_bool)": {
        "encoding": "mapping",
        "key": "t_address",
        "label": "mapping(address => bool)",
        "numberOfBytes": "32",
        "value": "t_bool"
      },
      "t_mapping(t_address,t_mapping(t_uint256,t_uint256))": {
        "encoding": "mapping",
        "key": "t_address",
        "label": "mapping(address => mapping(uint256 => uint256))",
        "numberOfBytes": "32",
        "value": "t_mapping(t_uint256,t_uint256)"
      },
      "t_mapping(t_bytes32,t_struct(AddressSet)3771_storage)": {
        "encoding": "mapping",
        "key": "t_bytes32",
        "label": "mapping(bytes32 => struct EnumerableSet.AddressSet)",
        "numberOfBytes": "32",
        "value": "t_struct(AddressSet)3771_storage"
      },
      "t_mapping(t_bytes32,t_struct(RoleData)5104_storage)": {
        "encoding": "mapping",
        "key": "t_bytes32",
        "label": "mapping(bytes32 => struct RoleData)",
        "numberOfBytes": "32",
        "value": "t_struct(RoleData)5104_storage"
      },
      "t_mapping(t_bytes32,t_uint256)": {
        "encoding": "mapping",
        "key": "t_bytes32",
        "label": "mapping(bytes32 => uint256)",
        "numberOfBytes": "32",
        "value": "t_uint256"
      },
      "t_mapping(t_uint256,t_uint256)": {
        "encoding": "mapping",
        "key": "t_uint256",
        "label": "mapping(uint256 => uint256)",
        "numberOfBytes": "32",
        "value": "t_uint256"
      },
      "t_struct(AddressSet)3771_storage": {
        "encoding": "inplace",
        "label": "struct EnumerableSet.AddressSet",
        "members": [
          {
            "astId": 3770,
            "contract": "contracts/Marketplace/MarketplaceDiamond.sol:MarketplaceDiamond",
            "label": "_inner",
            "offset": 0,
            "slot": "0",
            "type": "t_struct(Set)3456_storage"
          }
        ],
        "numberOfBytes": "64"
      },
      "t_struct(AppStorage)5140_storage": {
        "encoding": "inplace",
        "label": "struct AppStorage",
        "members": [
          {
            "astId": 5109,
            "contract": "contracts/Marketplace/MarketplaceDiamond.sol:MarketplaceDiamond",
            "label": "_roles",
            "offset": 0,
            "slot": "0",
            "type": "t_mapping(t_bytes32,t_struct(RoleData)5104_storage)"
          },
          {
            "astId": 5114,
            "contract": "contracts/Marketplace/MarketplaceDiamond.sol:MarketplaceDiamond",
            "label": "_roleMembers",
            "offset": 0,
            "slot": "1",
            "type": "t_mapping(t_bytes32,t_struct(AddressSet)3771_storage)"
          },
          {
            "astId": 5116,
            "contract": "contracts/Marketplace/MarketplaceDiamond.sol:MarketplaceDiamond",
            "label": "decimals",
            "offset": 0,
            "slot": "2",
            "type": "t_uint16"
          },
          {
            "astId": 5118,
            "contract": "contracts/Marketplace/MarketplaceDiamond.sol:MarketplaceDiamond",
            "label": "decimalPow",
            "offset": 0,
            "slot": "3",
            "type": "t_uint256"
          },
          {
            "astId": 5120,
            "contract": "contracts/Marketplace/MarketplaceDiamond.sol:MarketplaceDiamond",
            "label": "nodeFee",
            "offset": 0,
            "slot": "4",
            "type": "t_uint256"
          },
          {
            "astId": 5122,
            "contract": "contracts/Marketplace/MarketplaceDiamond.sol:MarketplaceDiamond",
            "label": "treasuryFee",
            "offset": 0,
            "slot": "5",
            "type": "t_uint256"
          },
          {
            "astId": 5124,
            "contract": "contracts/Marketplace/MarketplaceDiamond.sol:MarketplaceDiamond",
            "label": "treasuryAddress",
            "offset": 0,
            "slot": "6",
            "type": "t_address"
          },
          {
            "astId": 5128,
            "contract": "contracts/Marketplace/MarketplaceDiamond.sol:MarketplaceDiamond",
            "label": "mintingOffers",
            "offset": 0,
            "slot": "7",
            "type": "t_array(t_struct(mintingOffer)5097_storage)dyn_storage"
          },
          {
            "astId": 5134,
            "contract": "contracts/Marketplace/MarketplaceDiamond.sol:MarketplaceDiamond",
            "label": "addressToRangeOffer",
            "offset": 0,
            "slot": "8",
            "type": "t_mapping(t_address,t_mapping(t_uint256,t_uint256))"
          },
          {
            "astId": 5139,
            "contract": "contracts/Marketplace/MarketplaceDiamond.sol:MarketplaceDiamond",
            "label": "addressToOffers",
            "offset": 0,
            "slot": "9",
            "type": "t_mapping(t_address,t_array(t_uint256)dyn_storage)"
          }
        ],
        "numberOfBytes": "320"
      },
      "t_struct(RoleData)5104_storage": {
        "encoding": "inplace",
        "label": "struct RoleData",
        "members": [
          {
            "astId": 5101,
            "contract": "contracts/Marketplace/MarketplaceDiamond.sol:MarketplaceDiamond",
            "label": "members",
            "offset": 0,
            "slot": "0",
            "type": "t_mapping(t_address,t_bool)"
          },
          {
            "astId": 5103,
            "contract": "contracts/Marketplace/MarketplaceDiamond.sol:MarketplaceDiamond",
            "label": "adminRole",
            "offset": 0,
            "slot": "1",
            "type": "t_bytes32"
          }
        ],
        "numberOfBytes": "64"
      },
      "t_struct(Set)3456_storage": {
        "encoding": "inplace",
        "label": "struct EnumerableSet.Set",
        "members": [
          {
            "astId": 3451,
            "contract": "contracts/Marketplace/MarketplaceDiamond.sol:MarketplaceDiamond",
            "label": "_values",
            "offset": 0,
            "slot": "0",
            "type": "t_array(t_bytes32)dyn_storage"
          },
          {
            "astId": 3455,
            "contract": "contracts/Marketplace/MarketplaceDiamond.sol:MarketplaceDiamond",
            "label": "_positions",
            "offset": 0,
            "slot": "1",
            "type": "t_mapping(t_bytes32,t_uint256)"
          }
        ],
        "numberOfBytes": "64"
      },
      "t_struct(feeSplits)5084_storage": {
        "encoding": "inplace",
        "label": "struct feeSplits",
        "members": [
          {
            "astId": 5079,
            "contract": "contracts/Marketplace/MarketplaceDiamond.sol:MarketplaceDiamond",
            "label": "recipient",
            "offset": 0,
            "slot": "0",
            "type": "t_address"
          },
          {
            "astId": 5081,
            "contract": "contracts/Marketplace/MarketplaceDiamond.sol:MarketplaceDiamond",
            "label": "canBeContract",
            "offset": 20,
            "slot": "0",
            "type": "t_bool"
          },
          {
            "astId": 5083,
            "contract": "contracts/Marketplace/MarketplaceDiamond.sol:MarketplaceDiamond",
            "label": "percentage",
            "offset": 0,
            "slot": "1",
            "type": "t_uint256"
          }
        ],
        "numberOfBytes": "64"
      },
      "t_struct(mintingOffer)5097_storage": {
        "encoding": "inplace",
        "label": "struct mintingOffer",
        "members": [
          {
            "astId": 5086,
            "contract": "contracts/Marketplace/MarketplaceDiamond.sol:MarketplaceDiamond",
            "label": "erc721Address",
            "offset": 0,
            "slot": "0",
            "type": "t_address"
          },
          {
            "astId": 5088,
            "contract": "contracts/Marketplace/MarketplaceDiamond.sol:MarketplaceDiamond",
            "label": "nodeAddress",
            "offset": 0,
            "slot": "1",
            "type": "t_address"
          },
          {
            "astId": 5090,
            "contract": "contracts/Marketplace/MarketplaceDiamond.sol:MarketplaceDiamond",
            "label": "rangeIndex",
            "offset": 0,
            "slot": "2",
            "type": "t_uint256"
          },
          {
            "astId": 5094,
            "contract": "contracts/Marketplace/MarketplaceDiamond.sol:MarketplaceDiamond",
            "label": "fees",
            "offset": 0,
            "slot": "3",
            "type": "t_array(t_struct(feeSplits)5084_storage)dyn_storage"
          },
          {
            "astId": 5096,
            "contract": "contracts/Marketplace/MarketplaceDiamond.sol:MarketplaceDiamond",
            "label": "visible",
            "offset": 0,
            "slot": "4",
            "type": "t_bool"
          }
        ],
        "numberOfBytes": "160"
      },
      "t_uint16": {
        "encoding": "inplace",
        "label": "uint16",
        "numberOfBytes": "2"
      },
      "t_uint256": {
        "encoding": "inplace",
        "label": "uint256",
        "numberOfBytes": "32"
      }
    }
  }
}