{
  "address": "0xB0b4C34caF2cd6B9DBcd1aF19Da0bDF139f44b79",
  "abi": [
    {
      "anonymous": false,
      "inputs": [
        {
          "indexed": true,
          "internalType": "bytes32",
          "name": "role",
          "type": "bytes32"
        },
        {
          "indexed": true,
          "internalType": "bytes32",
          "name": "previousAdminRole",
          "type": "bytes32"
        },
        {
          "indexed": true,
          "internalType": "bytes32",
          "name": "newAdminRole",
          "type": "bytes32"
        }
      ],
      "name": "RoleAdminChanged",
      "type": "event"
    },
    {
      "anonymous": false,
      "inputs": [
        {
          "indexed": true,
          "internalType": "bytes32",
          "name": "role",
          "type": "bytes32"
        },
        {
          "indexed": true,
          "internalType": "address",
          "name": "account",
          "type": "address"
        },
        {
          "indexed": true,
          "internalType": "address",
          "name": "sender",
          "type": "address"
        }
      ],
      "name": "RoleGranted",
      "type": "event"
    },
    {
      "anonymous": false,
      "inputs": [
        {
          "indexed": true,
          "internalType": "bytes32",
          "name": "role",
          "type": "bytes32"
        },
        {
          "indexed": true,
          "internalType": "address",
          "name": "account",
          "type": "address"
        },
        {
          "indexed": true,
          "internalType": "address",
          "name": "sender",
          "type": "address"
        }
      ],
      "name": "RoleRevoked",
      "type": "event"
    },
    {
      "inputs": [],
      "name": "CREATOR",
      "outputs": [
        {
          "internalType": "bytes32",
          "name": "",
          "type": "bytes32"
        }
      ],
      "stateMutability": "view",
      "type": "function"
    },
    {
      "inputs": [
        {
          "internalType": "bytes32",
          "name": "role",
          "type": "bytes32"
        }
      ],
      "name": "getRoleAdmin",
      "outputs": [
        {
          "internalType": "bytes32",
          "name": "",
          "type": "bytes32"
        }
      ],
      "stateMutability": "view",
      "type": "function"
    },
    {
      "inputs": [
        {
          "internalType": "bytes32",
          "name": "role",
          "type": "bytes32"
        },
        {
          "internalType": "uint256",
          "name": "index",
          "type": "uint256"
        }
      ],
      "name": "getRoleMember",
      "outputs": [
        {
          "internalType": "address",
          "name": "",
          "type": "address"
        }
      ],
      "stateMutability": "view",
      "type": "function"
    },
    {
      "inputs": [
        {
          "internalType": "bytes32",
          "name": "role",
          "type": "bytes32"
        }
      ],
      "name": "getRoleMemberCount",
      "outputs": [
        {
          "internalType": "uint256",
          "name": "",
          "type": "uint256"
        }
      ],
      "stateMutability": "view",
      "type": "function"
    },
    {
      "inputs": [
        {
          "internalType": "bytes32",
          "name": "role",
          "type": "bytes32"
        },
        {
          "internalType": "address",
          "name": "account",
          "type": "address"
        }
      ],
      "name": "grantRole",
      "outputs": [],
      "stateMutability": "nonpayable",
      "type": "function"
    },
    {
      "inputs": [
        {
          "internalType": "bytes32",
          "name": "role",
          "type": "bytes32"
        },
        {
          "internalType": "address",
          "name": "account",
          "type": "address"
        }
      ],
      "name": "hasRole",
      "outputs": [
        {
          "internalType": "bool",
          "name": "",
          "type": "bool"
        }
      ],
      "stateMutability": "view",
      "type": "function"
    },
    {
      "inputs": [
        {
          "internalType": "bytes32",
          "name": "role",
          "type": "bytes32"
        },
        {
          "internalType": "address",
          "name": "account",
          "type": "address"
        }
      ],
      "name": "renounceRole",
      "outputs": [],
      "stateMutability": "nonpayable",
      "type": "function"
    },
    {
      "inputs": [
        {
          "internalType": "bytes32",
          "name": "role",
          "type": "bytes32"
        },
        {
          "internalType": "address",
          "name": "account",
          "type": "address"
        }
      ],
      "name": "revokeRole",
      "outputs": [],
      "stateMutability": "nonpayable",
      "type": "function"
    },
    {
      "inputs": [],
      "name": "royaltyFee",
      "outputs": [
        {
          "internalType": "uint16",
          "name": "",
          "type": "uint16"
        }
      ],
      "stateMutability": "view",
      "type": "function"
    },
    {
      "inputs": [
        {
          "internalType": "uint256",
          "name": "_tokenId",
          "type": "uint256"
        },
        {
          "internalType": "uint256",
          "name": "_salePrice",
          "type": "uint256"
        }
      ],
      "name": "royaltyInfo",
      "outputs": [
        {
          "internalType": "address",
          "name": "receiver",
          "type": "address"
        },
        {
          "internalType": "uint256",
          "name": "royaltyAmount",
          "type": "uint256"
        }
      ],
      "stateMutability": "view",
      "type": "function"
    },
    {
      "inputs": [
        {
          "internalType": "bytes4",
          "name": "interfaceId",
          "type": "bytes4"
        }
      ],
      "name": "supportsInterface",
      "outputs": [
        {
          "internalType": "bool",
          "name": "",
          "type": "bool"
        }
      ],
      "stateMutability": "view",
      "type": "function"
    }
  ],
  "transactionHash": "0xd19fe5cc68aea0dc49e77d0e2bb5be7a0f0759919ce2ca095956fa7087578605",
  "args": [],
  "numDeployments": 1,
  "solcInputHash": "dff7539f184e69da158bf5dc37db03d9",
  "bytecode": "0x608060405234801561001057600080fd5b50610ae7806100206000396000f3fe608060405234801561001057600080fd5b50600436106100a95760003560e01c80639010d07c116100715780639010d07c1461017257806391d148541461019d578063b8997a97146101b0578063ca15c873146101d1578063d547741f146101e4578063e4fbb609146101f757600080fd5b806301ffc9a7146100ae578063248a9ca3146100e75780632a55205a146101185780632f2ff15d1461014a57806336568abe1461015f575b600080fd5b6100d26100bc366004610876565b6001600160e01b031916632baae9fd60e01b1490565b60405190151581526020015b60405180910390f35b61010a6100f53660046108a0565b6000908152600a602052604090206001015490565b6040519081526020016100de565b61012b6101263660046108b9565b61021e565b604080516001600160a01b0390931683526020830191909152016100de565b61015d6101583660046108db565b61027e565b005b61015d61016d3660046108db565b6102a9565b6101856101803660046108b9565b61032c565b6040516001600160a01b0390911681526020016100de565b6100d26101ab3660046108db565b61034d565b600d54600160a01b900461ffff1660405161ffff90911681526020016100de565b61010a6101df3660046108a0565b610378565b61015d6101f23660046108db565b61038f565b61010a7f3c2519c4487d47714872f92cf90a50c25f5deaec2789dc2a497b1272df611db681565b60008061024c7f3c2519c4487d47714872f92cf90a50c25f5deaec2789dc2a497b1272df611db6600061032c565b600d54620186a09061026990600160a01b900461ffff168661092d565b6102739190610944565b915091509250929050565b6000828152600a602052604090206001015461029a81336103b5565b6102a48383610419565b505050565b6001600160a01b038116331461031e5760405162461bcd60e51b815260206004820152602f60248201527f416363657373436f6e74726f6c3a2063616e206f6e6c792072656e6f756e636560448201526e103937b632b9903337b91039b2b63360891b60648201526084015b60405180910390fd5b61032882826104b3565b5050565b6000828152600b60205260408120610344908361052e565b90505b92915050565b6000918252600a602090815260408084206001600160a01b0393909316845291905290205460ff1690565b6000818152600b602052604081206103479061053a565b6000828152600a60205260409020600101546103ab81336103b5565b6102a483836104b3565b6103bf828261034d565b610328576103d7816001600160a01b03166014610544565b6103e2836020610544565b6040516020016103f392919061098a565b60408051601f198184030181529082905262461bcd60e51b8252610315916004016109ff565b610423828261034d565b610328576000828152600a602090815260408083206001600160a01b03851684529091529020805460ff1916600117905561045b3390565b6001600160a01b0316816001600160a01b0316837f2f8788117e7eff1d82e926ec794901d17c78024a50270940304540a733656f0d60405160405180910390a46000828152600b602052604090206102a490826106e0565b6104bd828261034d565b15610328576000828152600a602090815260408083206001600160a01b0385168085529252808320805460ff1916905551339285917ff6391f5c32d9c69d2a47ea670b442974b53935d1edc7fd64eb21e047a839171b9190a46000828152600b602052604090206102a490826106f5565b6000610344838361070a565b6000610347825490565b6060600061055383600261092d565b61055e906002610a32565b67ffffffffffffffff81111561057657610576610a45565b6040519080825280601f01601f1916602001820160405280156105a0576020820181803683370190505b509050600360fc1b816000815181106105bb576105bb610a5b565b60200101906001600160f81b031916908160001a905350600f60fb1b816001815181106105ea576105ea610a5b565b60200101906001600160f81b031916908160001a905350600061060e84600261092d565b610619906001610a32565b90505b6001811115610691576f181899199a1a9b1b9c1cb0b131b232b360811b85600f166010811061064d5761064d610a5b565b1a60f81b82828151811061066357610663610a5b565b60200101906001600160f81b031916908160001a90535060049490941c9361068a81610a71565b905061061c565b5083156103445760405162461bcd60e51b815260206004820181905260248201527f537472696e67733a20686578206c656e67746820696e73756666696369656e746044820152606401610315565b6000610344836001600160a01b038416610734565b6000610344836001600160a01b038416610783565b600082600001828154811061072157610721610a5b565b9060005260206000200154905092915050565b600081815260018301602052604081205461077b57508154600181810184556000848152602080822090930184905584548482528286019093526040902091909155610347565b506000610347565b6000818152600183016020526040812054801561086c5760006107a7600183610a88565b85549091506000906107bb90600190610a88565b90508181146108205760008660000182815481106107db576107db610a5b565b90600052602060002001549050808760000184815481106107fe576107fe610a5b565b6000918252602080832090910192909255918252600188019052604090208390555b855486908061083157610831610a9b565b600190038181906000526020600020016000905590558560010160008681526020019081526020016000206000905560019350505050610347565b6000915050610347565b60006020828403121561088857600080fd5b81356001600160e01b03198116811461034457600080fd5b6000602082840312156108b257600080fd5b5035919050565b600080604083850312156108cc57600080fd5b50508035926020909101359150565b600080604083850312156108ee57600080fd5b8235915060208301356001600160a01b038116811461090c57600080fd5b809150509250929050565b634e487b7160e01b600052601160045260246000fd5b808202811582820484141761034757610347610917565b60008261096157634e487b7160e01b600052601260045260246000fd5b500490565b60005b83811015610981578181015183820152602001610969565b50506000910152565b7f416363657373436f6e74726f6c3a206163636f756e74200000000000000000008152600083516109c2816017850160208801610966565b7001034b99036b4b9b9b4b733903937b6329607d1b60179184019182015283516109f3816028840160208801610966565b01602801949350505050565b6020815260008251806020840152610a1e816040850160208701610966565b601f01601f19169190910160400192915050565b8082018082111561034757610347610917565b634e487b7160e01b600052604160045260246000fd5b634e487b7160e01b600052603260045260246000fd5b600081610a8057610a80610917565b506000190190565b8181038181111561034757610347610917565b634e487b7160e01b600052603160045260246000fdfea2646970667358221220397035570b1937d8a2be13de5825429bb5c04b950fef44084b2a7dcac11dc68864736f6c63430008130033",
  "devdoc": {
    "author": "Juan M. Sanchez M.",
    "details": "Notice that this contract is inheriting from AccessControlAppStorageEnumerable721",
    "events": {
      "RoleAdminChanged(bytes32,bytes32,bytes32)": {
        "params": {
          "newAdminRole": "contains the new status of the role",
          "previousAdminRole": "contains the previous status of the role",
          "role": "Contains the role we want to update"
        }
      },
      "RoleGranted(bytes32,address,address)": {
        "params": {
          "account": "contains the address that we want to grant the role",
          "role": "Contains the role we want to update",
          "sender": "contains the address that is changing the role of the account"
        }
      },
      "RoleRevoked(bytes32,address,address)": {
        "params": {
          "account": "contains the address that we want to revoke the role",
          "role": "Contains the role we want to update",
          "sender": "contains the address that is changing the role of the account"
        }
      }
    },
    "kind": "dev",
    "methods": {
      "getRoleAdmin(bytes32)": {
        "params": {
          "role": "Contains the role that we want to verify"
        },
        "returns": {
          "_0": "bytes that indicates if an account has or not an admin role"
        }
      },
      "getRoleMember(bytes32,uint256)": {
        "params": {
          "index": "Contains the indexed position to verify inside the role members list",
          "role": "Contains the role that we want to verify"
        },
        "returns": {
          "_0": "address that indicates the address indexed in that position"
        }
      },
      "getRoleMemberCount(bytes32)": {
        "params": {
          "role": "Contains the role that we want to verify"
        },
        "returns": {
          "_0": "uint256 that indicates the total accounts with that role"
        }
      },
      "grantRole(bytes32,address)": {
        "details": "This function is only available to an account with an Admin role",
        "params": {
          "account": "Contains the account that has the role we want to update",
          "role": "Contains the role that we want to grant"
        }
      },
      "hasRole(bytes32,address)": {
        "params": {
          "account": "Contains the account address thay we want to verify",
          "role": "Contains the role that we want to verify"
        },
        "returns": {
          "_0": "bool that indicates if an account has or not a role"
        }
      },
      "renounceRole(bytes32,address)": {
        "details": "Currently you can only renounce to your own roles",
        "params": {
          "account": "Contains the account that has the role we want to update",
          "role": "Contains the role to remove from our account"
        }
      },
      "revokeRole(bytes32,address)": {
        "details": "This function is only available to an account with an Admin role",
        "params": {
          "account": "Contains the account that has the role we want to update",
          "role": "Contains the role that we want to revoke"
        }
      },
      "royaltyInfo(uint256,uint256)": {
        "params": {
          "_salePrice": "the sale price of the NFT asset specified by _tokenId",
          "_tokenId": "the NFT asset queried for royalty information"
        },
        "returns": {
          "receiver": "\taddress of who should be sent the royalty payment",
          "royaltyAmount": "the royalty payment amount for _salePrice sale price"
        }
      }
    },
    "title": "ERC2981 facet for RAIR diamond contracts",
    "version": 1
  },
  "userdoc": {
    "events": {
      "RoleAdminChanged(bytes32,bytes32,bytes32)": {
        "notice": "This event stores in the blockchain when we change an admin role"
      },
      "RoleGranted(bytes32,address,address)": {
        "notice": "This event stores in the blockchain when we grant a role"
      },
      "RoleRevoked(bytes32,address,address)": {
        "notice": "This event stores in the blockchain when we revoke a role"
      }
    },
    "kind": "user",
    "methods": {
      "getRoleAdmin(bytes32)": {
        "notice": "Allow us to check the admin role that contains a role"
      },
      "getRoleMember(bytes32,uint256)": {
        "notice": "Allow us to check the address of an indexed position for the role list"
      },
      "getRoleMemberCount(bytes32)": {
        "notice": "Allow us to check total members that has an selected role"
      },
      "grantRole(bytes32,address)": {
        "notice": "Allow us to grant a role to an account"
      },
      "hasRole(bytes32,address)": {
        "notice": "Allow us to check the if and account has a selected role"
      },
      "renounceRole(bytes32,address)": {
        "notice": "Allow us to renounce to a role"
      },
      "revokeRole(bytes32,address)": {
        "notice": "Allow us to revoke a role to an account"
      },
      "royaltyInfo(uint256,uint256)": {
        "notice": "Returns the fee for the NFT sale"
      }
    },
    "notice": "Adds support for royalties",
    "version": 1
  },
  "storageLayout": {
    "storage": [
      {
        "astId": 2233,
        "contract": "contracts/tokens/RAIR Token Facets/RoyaltiesFacet.sol:RAIRRoyaltiesFacet",
        "label": "s",
        "offset": 0,
        "slot": "0",
        "type": "t_struct(AppStorage721)2217_storage"
      }
    ],
    "types": {
      "t_address": {
        "encoding": "inplace",
        "label": "address",
        "numberOfBytes": "20"
      },
      "t_array(t_bytes32)dyn_storage": {
        "base": "t_bytes32",
        "encoding": "dynamic_array",
        "label": "bytes32[]",
        "numberOfBytes": "32"
      },
      "t_array(t_struct(product)2106_storage)dyn_storage": {
        "base": "t_struct(product)2106_storage",
        "encoding": "dynamic_array",
        "label": "struct product[]",
        "numberOfBytes": "32"
      },
      "t_array(t_struct(range)2094_storage)dyn_storage": {
        "base": "t_struct(range)2094_storage",
        "encoding": "dynamic_array",
        "label": "struct range[]",
        "numberOfBytes": "32"
      },
      "t_array(t_uint256)dyn_storage": {
        "base": "t_uint256",
        "encoding": "dynamic_array",
        "label": "uint256[]",
        "numberOfBytes": "32"
      },
      "t_bool": {
        "encoding": "inplace",
        "label": "bool",
        "numberOfBytes": "1"
      },
      "t_bytes32": {
        "encoding": "inplace",
        "label": "bytes32",
        "numberOfBytes": "32"
      },
      "t_mapping(t_address,t_bool)": {
        "encoding": "mapping",
        "key": "t_address",
        "label": "mapping(address => bool)",
        "numberOfBytes": "32",
        "value": "t_bool"
      },
      "t_mapping(t_address,t_mapping(t_address,t_bool))": {
        "encoding": "mapping",
        "key": "t_address",
        "label": "mapping(address => mapping(address => bool))",
        "numberOfBytes": "32",
        "value": "t_mapping(t_address,t_bool)"
      },
      "t_mapping(t_address,t_mapping(t_uint256,t_uint256))": {
        "encoding": "mapping",
        "key": "t_address",
        "label": "mapping(address => mapping(uint256 => uint256))",
        "numberOfBytes": "32",
        "value": "t_mapping(t_uint256,t_uint256)"
      },
      "t_mapping(t_address,t_uint256)": {
        "encoding": "mapping",
        "key": "t_address",
        "label": "mapping(address => uint256)",
        "numberOfBytes": "32",
        "value": "t_uint256"
      },
      "t_mapping(t_bytes32,t_struct(AddressSet)1547_storage)": {
        "encoding": "mapping",
        "key": "t_bytes32",
        "label": "mapping(bytes32 => struct EnumerableSet.AddressSet)",
        "numberOfBytes": "32",
        "value": "t_struct(AddressSet)1547_storage"
      },
      "t_mapping(t_bytes32,t_struct(RoleData)1846_storage)": {
        "encoding": "mapping",
        "key": "t_bytes32",
        "label": "mapping(bytes32 => struct RoleData)",
        "numberOfBytes": "32",
        "value": "t_struct(RoleData)1846_storage"
      },
      "t_mapping(t_bytes32,t_uint256)": {
        "encoding": "mapping",
        "key": "t_bytes32",
        "label": "mapping(bytes32 => uint256)",
        "numberOfBytes": "32",
        "value": "t_uint256"
      },
      "t_mapping(t_uint256,t_address)": {
        "encoding": "mapping",
        "key": "t_uint256",
        "label": "mapping(uint256 => address)",
        "numberOfBytes": "32",
        "value": "t_address"
      },
      "t_mapping(t_uint256,t_array(t_uint256)dyn_storage)": {
        "encoding": "mapping",
        "key": "t_uint256",
        "label": "mapping(uint256 => uint256[])",
        "numberOfBytes": "32",
        "value": "t_array(t_uint256)dyn_storage"
      },
      "t_mapping(t_uint256,t_bool)": {
        "encoding": "mapping",
        "key": "t_uint256",
        "label": "mapping(uint256 => bool)",
        "numberOfBytes": "32",
        "value": "t_bool"
      },
      "t_mapping(t_uint256,t_string_storage)": {
        "encoding": "mapping",
        "key": "t_uint256",
        "label": "mapping(uint256 => string)",
        "numberOfBytes": "32",
        "value": "t_string_storage"
      },
      "t_mapping(t_uint256,t_uint256)": {
        "encoding": "mapping",
        "key": "t_uint256",
        "label": "mapping(uint256 => uint256)",
        "numberOfBytes": "32",
        "value": "t_uint256"
      },
      "t_string_storage": {
        "encoding": "bytes",
        "label": "string",
        "numberOfBytes": "32"
      },
      "t_struct(AddressSet)1547_storage": {
        "encoding": "inplace",
        "label": "struct EnumerableSet.AddressSet",
        "members": [
          {
            "astId": 1546,
            "contract": "contracts/tokens/RAIR Token Facets/RoyaltiesFacet.sol:RAIRRoyaltiesFacet",
            "label": "_inner",
            "offset": 0,
            "slot": "0",
            "type": "t_struct(Set)1232_storage"
          }
        ],
        "numberOfBytes": "64"
      },
      "t_struct(AppStorage721)2217_storage": {
        "encoding": "inplace",
        "label": "struct AppStorage721",
        "members": [
          {
            "astId": 2108,
            "contract": "contracts/tokens/RAIR Token Facets/RoyaltiesFacet.sol:RAIRRoyaltiesFacet",
            "label": "_name",
            "offset": 0,
            "slot": "0",
            "type": "t_string_storage"
          },
          {
            "astId": 2110,
            "contract": "contracts/tokens/RAIR Token Facets/RoyaltiesFacet.sol:RAIRRoyaltiesFacet",
            "label": "_symbol",
            "offset": 0,
            "slot": "1",
            "type": "t_string_storage"
          },
          {
            "astId": 2114,
            "contract": "contracts/tokens/RAIR Token Facets/RoyaltiesFacet.sol:RAIRRoyaltiesFacet",
            "label": "_owners",
            "offset": 0,
            "slot": "2",
            "type": "t_mapping(t_uint256,t_address)"
          },
          {
            "astId": 2118,
            "contract": "contracts/tokens/RAIR Token Facets/RoyaltiesFacet.sol:RAIRRoyaltiesFacet",
            "label": "_balances",
            "offset": 0,
            "slot": "3",
            "type": "t_mapping(t_address,t_uint256)"
          },
          {
            "astId": 2122,
            "contract": "contracts/tokens/RAIR Token Facets/RoyaltiesFacet.sol:RAIRRoyaltiesFacet",
            "label": "_tokenApprovals",
            "offset": 0,
            "slot": "4",
            "type": "t_mapping(t_uint256,t_address)"
          },
          {
            "astId": 2128,
            "contract": "contracts/tokens/RAIR Token Facets/RoyaltiesFacet.sol:RAIRRoyaltiesFacet",
            "label": "_operatorApprovals",
            "offset": 0,
            "slot": "5",
            "type": "t_mapping(t_address,t_mapping(t_address,t_bool))"
          },
          {
            "astId": 2134,
            "contract": "contracts/tokens/RAIR Token Facets/RoyaltiesFacet.sol:RAIRRoyaltiesFacet",
            "label": "_ownedTokens",
            "offset": 0,
            "slot": "6",
            "type": "t_mapping(t_address,t_mapping(t_uint256,t_uint256))"
          },
          {
            "astId": 2138,
            "contract": "contracts/tokens/RAIR Token Facets/RoyaltiesFacet.sol:RAIRRoyaltiesFacet",
            "label": "_ownedTokensIndex",
            "offset": 0,
            "slot": "7",
            "type": "t_mapping(t_uint256,t_uint256)"
          },
          {
            "astId": 2141,
            "contract": "contracts/tokens/RAIR Token Facets/RoyaltiesFacet.sol:RAIRRoyaltiesFacet",
            "label": "_allTokens",
            "offset": 0,
            "slot": "8",
            "type": "t_array(t_uint256)dyn_storage"
          },
          {
            "astId": 2145,
            "contract": "contracts/tokens/RAIR Token Facets/RoyaltiesFacet.sol:RAIRRoyaltiesFacet",
            "label": "_allTokensIndex",
            "offset": 0,
            "slot": "9",
            "type": "t_mapping(t_uint256,t_uint256)"
          },
          {
            "astId": 2150,
            "contract": "contracts/tokens/RAIR Token Facets/RoyaltiesFacet.sol:RAIRRoyaltiesFacet",
            "label": "_roles",
            "offset": 0,
            "slot": "10",
            "type": "t_mapping(t_bytes32,t_struct(RoleData)1846_storage)"
          },
          {
            "astId": 2155,
            "contract": "contracts/tokens/RAIR Token Facets/RoyaltiesFacet.sol:RAIRRoyaltiesFacet",
            "label": "_roleMembers",
            "offset": 0,
            "slot": "11",
            "type": "t_mapping(t_bytes32,t_struct(AddressSet)1547_storage)"
          },
          {
            "astId": 2157,
            "contract": "contracts/tokens/RAIR Token Facets/RoyaltiesFacet.sol:RAIRRoyaltiesFacet",
            "label": "baseURI",
            "offset": 0,
            "slot": "12",
            "type": "t_string_storage"
          },
          {
            "astId": 2159,
            "contract": "contracts/tokens/RAIR Token Facets/RoyaltiesFacet.sol:RAIRRoyaltiesFacet",
            "label": "factoryAddress",
            "offset": 0,
            "slot": "13",
            "type": "t_address"
          },
          {
            "astId": 2161,
            "contract": "contracts/tokens/RAIR Token Facets/RoyaltiesFacet.sol:RAIRRoyaltiesFacet",
            "label": "royaltyFee",
            "offset": 20,
            "slot": "13",
            "type": "t_uint16"
          },
          {
            "astId": 2165,
            "contract": "contracts/tokens/RAIR Token Facets/RoyaltiesFacet.sol:RAIRRoyaltiesFacet",
            "label": "products",
            "offset": 0,
            "slot": "14",
            "type": "t_array(t_struct(product)2106_storage)dyn_storage"
          },
          {
            "astId": 2169,
            "contract": "contracts/tokens/RAIR Token Facets/RoyaltiesFacet.sol:RAIRRoyaltiesFacet",
            "label": "ranges",
            "offset": 0,
            "slot": "15",
            "type": "t_array(t_struct(range)2094_storage)dyn_storage"
          },
          {
            "astId": 2173,
            "contract": "contracts/tokens/RAIR Token Facets/RoyaltiesFacet.sol:RAIRRoyaltiesFacet",
            "label": "tokenToProduct",
            "offset": 0,
            "slot": "16",
            "type": "t_mapping(t_uint256,t_uint256)"
          },
          {
            "astId": 2177,
            "contract": "contracts/tokens/RAIR Token Facets/RoyaltiesFacet.sol:RAIRRoyaltiesFacet",
            "label": "tokenToRange",
            "offset": 0,
            "slot": "17",
            "type": "t_mapping(t_uint256,t_uint256)"
          },
          {
            "astId": 2181,
            "contract": "contracts/tokens/RAIR Token Facets/RoyaltiesFacet.sol:RAIRRoyaltiesFacet",
            "label": "uniqueTokenURI",
            "offset": 0,
            "slot": "18",
            "type": "t_mapping(t_uint256,t_string_storage)"
          },
          {
            "astId": 2185,
            "contract": "contracts/tokens/RAIR Token Facets/RoyaltiesFacet.sol:RAIRRoyaltiesFacet",
            "label": "productURI",
            "offset": 0,
            "slot": "19",
            "type": "t_mapping(t_uint256,t_string_storage)"
          },
          {
            "astId": 2189,
            "contract": "contracts/tokens/RAIR Token Facets/RoyaltiesFacet.sol:RAIRRoyaltiesFacet",
            "label": "appendTokenIndexToProductURI",
            "offset": 0,
            "slot": "20",
            "type": "t_mapping(t_uint256,t_bool)"
          },
          {
            "astId": 2191,
            "contract": "contracts/tokens/RAIR Token Facets/RoyaltiesFacet.sol:RAIRRoyaltiesFacet",
            "label": "appendTokenIndexToBaseURI",
            "offset": 0,
            "slot": "21",
            "type": "t_bool"
          },
          {
            "astId": 2196,
            "contract": "contracts/tokens/RAIR Token Facets/RoyaltiesFacet.sol:RAIRRoyaltiesFacet",
            "label": "tokensByProduct",
            "offset": 0,
            "slot": "22",
            "type": "t_mapping(t_uint256,t_array(t_uint256)dyn_storage)"
          },
          {
            "astId": 2198,
            "contract": "contracts/tokens/RAIR Token Facets/RoyaltiesFacet.sol:RAIRRoyaltiesFacet",
            "label": "contractMetadataURI",
            "offset": 0,
            "slot": "23",
            "type": "t_string_storage"
          },
          {
            "astId": 2202,
            "contract": "contracts/tokens/RAIR Token Facets/RoyaltiesFacet.sol:RAIRRoyaltiesFacet",
            "label": "rangeToProduct",
            "offset": 0,
            "slot": "24",
            "type": "t_mapping(t_uint256,t_uint256)"
          },
          {
            "astId": 2206,
            "contract": "contracts/tokens/RAIR Token Facets/RoyaltiesFacet.sol:RAIRRoyaltiesFacet",
            "label": "_minted",
            "offset": 0,
            "slot": "25",
            "type": "t_mapping(t_uint256,t_bool)"
          },
          {
            "astId": 2210,
            "contract": "contracts/tokens/RAIR Token Facets/RoyaltiesFacet.sol:RAIRRoyaltiesFacet",
            "label": "rangeURI",
            "offset": 0,
            "slot": "26",
            "type": "t_mapping(t_uint256,t_string_storage)"
          },
          {
            "astId": 2214,
            "contract": "contracts/tokens/RAIR Token Facets/RoyaltiesFacet.sol:RAIRRoyaltiesFacet",
            "label": "appendTokenIndexToRangeURI",
            "offset": 0,
            "slot": "27",
            "type": "t_mapping(t_uint256,t_bool)"
          },
          {
            "astId": 2216,
            "contract": "contracts/tokens/RAIR Token Facets/RoyaltiesFacet.sol:RAIRRoyaltiesFacet",
            "label": "_metadataExtension",
            "offset": 0,
            "slot": "28",
            "type": "t_string_storage"
          }
        ],
        "numberOfBytes": "928"
      },
      "t_struct(RoleData)1846_storage": {
        "encoding": "inplace",
        "label": "struct RoleData",
        "members": [
          {
            "astId": 1843,
            "contract": "contracts/tokens/RAIR Token Facets/RoyaltiesFacet.sol:RAIRRoyaltiesFacet",
            "label": "members",
            "offset": 0,
            "slot": "0",
            "type": "t_mapping(t_address,t_bool)"
          },
          {
            "astId": 1845,
            "contract": "contracts/tokens/RAIR Token Facets/RoyaltiesFacet.sol:RAIRRoyaltiesFacet",
            "label": "adminRole",
            "offset": 0,
            "slot": "1",
            "type": "t_bytes32"
          }
        ],
        "numberOfBytes": "64"
      },
      "t_struct(Set)1232_storage": {
        "encoding": "inplace",
        "label": "struct EnumerableSet.Set",
        "members": [
          {
            "astId": 1227,
            "contract": "contracts/tokens/RAIR Token Facets/RoyaltiesFacet.sol:RAIRRoyaltiesFacet",
            "label": "_values",
            "offset": 0,
            "slot": "0",
            "type": "t_array(t_bytes32)dyn_storage"
          },
          {
            "astId": 1231,
            "contract": "contracts/tokens/RAIR Token Facets/RoyaltiesFacet.sol:RAIRRoyaltiesFacet",
            "label": "_indexes",
            "offset": 0,
            "slot": "1",
            "type": "t_mapping(t_bytes32,t_uint256)"
          }
        ],
        "numberOfBytes": "64"
      },
      "t_struct(product)2106_storage": {
        "encoding": "inplace",
        "label": "struct product",
        "members": [
          {
            "astId": 2096,
            "contract": "contracts/tokens/RAIR Token Facets/RoyaltiesFacet.sol:RAIRRoyaltiesFacet",
            "label": "startingToken",
            "offset": 0,
            "slot": "0",
            "type": "t_uint256"
          },
          {
            "astId": 2098,
            "contract": "contracts/tokens/RAIR Token Facets/RoyaltiesFacet.sol:RAIRRoyaltiesFacet",
            "label": "endingToken",
            "offset": 0,
            "slot": "1",
            "type": "t_uint256"
          },
          {
            "astId": 2100,
            "contract": "contracts/tokens/RAIR Token Facets/RoyaltiesFacet.sol:RAIRRoyaltiesFacet",
            "label": "mintableTokens",
            "offset": 0,
            "slot": "2",
            "type": "t_uint256"
          },
          {
            "astId": 2102,
            "contract": "contracts/tokens/RAIR Token Facets/RoyaltiesFacet.sol:RAIRRoyaltiesFacet",
            "label": "name",
            "offset": 0,
            "slot": "3",
            "type": "t_string_storage"
          },
          {
            "astId": 2105,
            "contract": "contracts/tokens/RAIR Token Facets/RoyaltiesFacet.sol:RAIRRoyaltiesFacet",
            "label": "rangeList",
            "offset": 0,
            "slot": "4",
            "type": "t_array(t_uint256)dyn_storage"
          }
        ],
        "numberOfBytes": "160"
      },
      "t_struct(range)2094_storage": {
        "encoding": "inplace",
        "label": "struct range",
        "members": [
          {
            "astId": 2081,
            "contract": "contracts/tokens/RAIR Token Facets/RoyaltiesFacet.sol:RAIRRoyaltiesFacet",
            "label": "rangeStart",
            "offset": 0,
            "slot": "0",
            "type": "t_uint256"
          },
          {
            "astId": 2083,
            "contract": "contracts/tokens/RAIR Token Facets/RoyaltiesFacet.sol:RAIRRoyaltiesFacet",
            "label": "rangeEnd",
            "offset": 0,
            "slot": "1",
            "type": "t_uint256"
          },
          {
            "astId": 2085,
            "contract": "contracts/tokens/RAIR Token Facets/RoyaltiesFacet.sol:RAIRRoyaltiesFacet",
            "label": "tokensAllowed",
            "offset": 0,
            "slot": "2",
            "type": "t_uint256"
          },
          {
            "astId": 2087,
            "contract": "contracts/tokens/RAIR Token Facets/RoyaltiesFacet.sol:RAIRRoyaltiesFacet",
            "label": "mintableTokens",
            "offset": 0,
            "slot": "3",
            "type": "t_uint256"
          },
          {
            "astId": 2089,
            "contract": "contracts/tokens/RAIR Token Facets/RoyaltiesFacet.sol:RAIRRoyaltiesFacet",
            "label": "lockedTokens",
            "offset": 0,
            "slot": "4",
            "type": "t_uint256"
          },
          {
            "astId": 2091,
            "contract": "contracts/tokens/RAIR Token Facets/RoyaltiesFacet.sol:RAIRRoyaltiesFacet",
            "label": "rangePrice",
            "offset": 0,
            "slot": "5",
            "type": "t_uint256"
          },
          {
            "astId": 2093,
            "contract": "contracts/tokens/RAIR Token Facets/RoyaltiesFacet.sol:RAIRRoyaltiesFacet",
            "label": "rangeName",
            "offset": 0,
            "slot": "6",
            "type": "t_string_storage"
          }
        ],
        "numberOfBytes": "224"
      },
      "t_uint16": {
        "encoding": "inplace",
        "label": "uint16",
        "numberOfBytes": "2"
      },
      "t_uint256": {
        "encoding": "inplace",
        "label": "uint256",
        "numberOfBytes": "32"
      }
    }
  }
}