{
  "address": "0x2bAcd16c1EDaAE5730633e801edb34D05d1c4740",
  "abi": [
    {
      "anonymous": false,
      "inputs": [
        {
          "indexed": true,
          "internalType": "bytes32",
          "name": "role",
          "type": "bytes32"
        },
        {
          "indexed": true,
          "internalType": "bytes32",
          "name": "previousAdminRole",
          "type": "bytes32"
        },
        {
          "indexed": true,
          "internalType": "bytes32",
          "name": "newAdminRole",
          "type": "bytes32"
        }
      ],
      "name": "RoleAdminChanged",
      "type": "event"
    },
    {
      "anonymous": false,
      "inputs": [
        {
          "indexed": true,
          "internalType": "bytes32",
          "name": "role",
          "type": "bytes32"
        },
        {
          "indexed": true,
          "internalType": "address",
          "name": "account",
          "type": "address"
        },
        {
          "indexed": true,
          "internalType": "address",
          "name": "sender",
          "type": "address"
        }
      ],
      "name": "RoleGranted",
      "type": "event"
    },
    {
      "anonymous": false,
      "inputs": [
        {
          "indexed": true,
          "internalType": "bytes32",
          "name": "role",
          "type": "bytes32"
        },
        {
          "indexed": true,
          "internalType": "address",
          "name": "account",
          "type": "address"
        },
        {
          "indexed": true,
          "internalType": "address",
          "name": "sender",
          "type": "address"
        }
      ],
      "name": "RoleRevoked",
      "type": "event"
    },
    {
      "anonymous": false,
      "inputs": [
        {
          "indexed": false,
          "internalType": "address",
          "name": "erc721Address",
          "type": "address"
        },
        {
          "indexed": false,
          "internalType": "address",
          "name": "buyer",
          "type": "address"
        },
        {
          "indexed": false,
          "internalType": "address",
          "name": "seller",
          "type": "address"
        },
        {
          "indexed": false,
          "internalType": "uint256",
          "name": "token",
          "type": "uint256"
        },
        {
          "indexed": false,
          "internalType": "uint256",
          "name": "tokenPrice",
          "type": "uint256"
        }
      ],
      "name": "TokenSold",
      "type": "event"
    },
    {
      "inputs": [],
      "name": "MAINTAINER",
      "outputs": [
        {
          "internalType": "bytes32",
          "name": "",
          "type": "bytes32"
        }
      ],
      "stateMutability": "view",
      "type": "function"
    },
    {
      "inputs": [],
      "name": "RESALE_ADMIN",
      "outputs": [
        {
          "internalType": "bytes32",
          "name": "",
          "type": "bytes32"
        }
      ],
      "stateMutability": "view",
      "type": "function"
    },
    {
      "inputs": [
        {
          "internalType": "address",
          "name": "erc721",
          "type": "address"
        },
        {
          "internalType": "address",
          "name": "buyer",
          "type": "address"
        },
        {
          "internalType": "address",
          "name": "seller",
          "type": "address"
        },
        {
          "internalType": "uint256",
          "name": "token",
          "type": "uint256"
        },
        {
          "internalType": "uint256",
          "name": "tokenPrice",
          "type": "uint256"
        },
        {
          "internalType": "address",
          "name": "nodeAddress",
          "type": "address"
        }
      ],
      "name": "generateResaleHash",
      "outputs": [
        {
          "internalType": "bytes32",
          "name": "",
          "type": "bytes32"
        }
      ],
      "stateMutability": "view",
      "type": "function"
    },
    {
      "inputs": [
        {
          "internalType": "bytes32",
          "name": "role",
          "type": "bytes32"
        }
      ],
      "name": "getRoleAdmin",
      "outputs": [
        {
          "internalType": "bytes32",
          "name": "",
          "type": "bytes32"
        }
      ],
      "stateMutability": "view",
      "type": "function"
    },
    {
      "inputs": [
        {
          "internalType": "bytes32",
          "name": "role",
          "type": "bytes32"
        },
        {
          "internalType": "uint256",
          "name": "index",
          "type": "uint256"
        }
      ],
      "name": "getRoleMember",
      "outputs": [
        {
          "internalType": "address",
          "name": "",
          "type": "address"
        }
      ],
      "stateMutability": "view",
      "type": "function"
    },
    {
      "inputs": [
        {
          "internalType": "bytes32",
          "name": "role",
          "type": "bytes32"
        }
      ],
      "name": "getRoleMemberCount",
      "outputs": [
        {
          "internalType": "uint256",
          "name": "",
          "type": "uint256"
        }
      ],
      "stateMutability": "view",
      "type": "function"
    },
    {
      "inputs": [
        {
          "internalType": "address",
          "name": "erc721",
          "type": "address"
        }
      ],
      "name": "getRoyalties",
      "outputs": [
        {
          "components": [
            {
              "internalType": "address",
              "name": "recipient",
              "type": "address"
            },
            {
              "internalType": "uint256",
              "name": "percentage",
              "type": "uint256"
            }
          ],
          "internalType": "struct ResaleStorage.feeSplits[]",
          "name": "",
          "type": "tuple[]"
        }
      ],
      "stateMutability": "view",
      "type": "function"
    },
    {
      "inputs": [
        {
          "internalType": "bytes32",
          "name": "role",
          "type": "bytes32"
        },
        {
          "internalType": "address",
          "name": "account",
          "type": "address"
        }
      ],
      "name": "grantRole",
      "outputs": [],
      "stateMutability": "nonpayable",
      "type": "function"
    },
    {
      "inputs": [
        {
          "internalType": "bytes32",
          "name": "role",
          "type": "bytes32"
        },
        {
          "internalType": "address",
          "name": "account",
          "type": "address"
        }
      ],
      "name": "hasRole",
      "outputs": [
        {
          "internalType": "bool",
          "name": "",
          "type": "bool"
        }
      ],
      "stateMutability": "view",
      "type": "function"
    },
    {
      "inputs": [
        {
          "internalType": "address",
          "name": "erc721",
          "type": "address"
        },
        {
          "internalType": "address",
          "name": "buyer",
          "type": "address"
        },
        {
          "internalType": "address",
          "name": "seller",
          "type": "address"
        },
        {
          "internalType": "uint256",
          "name": "token",
          "type": "uint256"
        },
        {
          "internalType": "uint256",
          "name": "tokenPrice",
          "type": "uint256"
        },
        {
          "internalType": "address",
          "name": "nodeAddress",
          "type": "address"
        },
        {
          "internalType": "bytes",
          "name": "signature",
          "type": "bytes"
        }
      ],
      "name": "purchaseTokenOffer",
      "outputs": [],
      "stateMutability": "payable",
      "type": "function"
    },
    {
      "inputs": [
        {
          "internalType": "bytes32",
          "name": "role",
          "type": "bytes32"
        },
        {
          "internalType": "address",
          "name": "account",
          "type": "address"
        }
      ],
      "name": "renounceRole",
      "outputs": [],
      "stateMutability": "nonpayable",
      "type": "function"
    },
    {
      "inputs": [
        {
          "internalType": "bytes32",
          "name": "role",
          "type": "bytes32"
        },
        {
          "internalType": "address",
          "name": "account",
          "type": "address"
        }
      ],
      "name": "revokeRole",
      "outputs": [],
      "stateMutability": "nonpayable",
      "type": "function"
    },
    {
      "inputs": [
        {
          "internalType": "uint256",
          "name": "value",
          "type": "uint256"
        }
      ],
      "name": "setDecimalPow",
      "outputs": [],
      "stateMutability": "nonpayable",
      "type": "function"
    },
    {
      "inputs": [
        {
          "internalType": "uint256",
          "name": "value",
          "type": "uint256"
        }
      ],
      "name": "setPurchaseGracePeriod",
      "outputs": [],
      "stateMutability": "nonpayable",
      "type": "function"
    },
    {
      "inputs": [
        {
          "internalType": "address",
          "name": "erc721",
          "type": "address"
        },
        {
          "components": [
            {
              "internalType": "address",
              "name": "recipient",
              "type": "address"
            },
            {
              "internalType": "uint256",
              "name": "percentage",
              "type": "uint256"
            }
          ],
          "internalType": "struct ResaleStorage.feeSplits[]",
          "name": "fees",
          "type": "tuple[]"
        }
      ],
      "name": "setRoyalties",
      "outputs": [],
      "stateMutability": "nonpayable",
      "type": "function"
    }
  ],
  "transactionHash": "0x7b57a2ca0b70e450f8839c126f0338b70bc14c84dcdebdd5dbfc201542e0b305",
  "args": [],
  "numDeployments": 1,
  "solcInputHash": "5a90491dc56a9d2c5534cf329afa6564",
  "bytecode": "0x608060405234801561001057600080fd5b50611a07806100206000396000f3fe6080604052600436106100e85760003560e01c80636394f83f1161008a578063ca15c87311610059578063ca15c873146102b2578063d547741f146102d2578063da9bdab0146102f2578063ec71bce81461032657600080fd5b80636394f83f1461020a5780638e118fb31461022a5780639010d07c1461024a57806391d148541461028257600080fd5b80632f2ff15d116100c65780632f2ff15d1461019557806336568abe146101b757806346b51ea5146101d757806358a59bf4146101ea57600080fd5b806314556a56146100ed578063248a9ca3146101235780632aabb72614610161575b600080fd5b3480156100f957600080fd5b5061010d6101083660046114a2565b610346565b60405161011a91906114bf565b60405180910390f35b34801561012f57600080fd5b5061015361013e366004611517565b60009081526020819052604090206001015490565b60405190815260200161011a565b34801561016d57600080fd5b506101537fd88b35d7427a01a8e16d8a129535b4cf3150edf8d92c0a44dc1eba73bdaf18cb81565b3480156101a157600080fd5b506101b56101b0366004611530565b6103dc565b005b3480156101c357600080fd5b506101b56101d2366004611530565b610407565b6101b56101e5366004611576565b61048a565b3480156101f657600080fd5b506101b5610205366004611517565b610974565b34801561021657600080fd5b50610153610225366004611685565b6109c4565b34801561023657600080fd5b506101b56102453660046116f5565b610ba0565b34801561025657600080fd5b5061026a61026536600461177d565b610db7565b6040516001600160a01b03909116815260200161011a565b34801561028e57600080fd5b506102a261029d366004611530565b610dd8565b604051901515815260200161011a565b3480156102be57600080fd5b506101536102cd366004611517565b610e01565b3480156102de57600080fd5b506101b56102ed366004611530565b610e18565b3480156102fe57600080fd5b506101537fc0f3378637414317b885402eb428659ba3cbc2330f4bee724741cd4aea9b8b4981565b34801561033257600080fd5b506101b5610341366004611517565b610e3e565b60606000805160206119b28339815191526001600160a01b0383166000908152602091825260408082208054825181860281018601909352808352919390929084015b828210156103d1576000848152602090819020604080518082019091526002850290910180546001600160a01b03168252600190810154828401529083529092019101610389565b505050509050919050565b6000828152602081905260409020600101546103f88133610e8e565b6104028383610ef2565b505050565b6001600160a01b038116331461047c5760405162461bcd60e51b815260206004820152602f60248201527f416363657373436f6e74726f6c3a2063616e206f6e6c792072656e6f756e636560448201526e103937b632b9903337b91039b2b63360891b60648201526084015b60405180910390fd5b6104868282610f8a565b5050565b6001600160a01b03871660009081526000805160206119b283398151915260205260408120906104be8989898989896109c4565b90506000610519826040517f19457468657265756d205369676e6564204d6573736167653a0a3332000000006020820152603c8101829052600090605c01604051602081830303815290604052805190602001209050919050565b90506105497fc0f3378637414317b885402eb428659ba3cbc2330f4bee724741cd4aea9b8b4961029d8387611003565b6105955760405162461bcd60e51b815260206004820181905260248201527f526573616c653a20496e76616c696420776974686472617720726571756573746044820152606401610473565b348611156105e55760405162461bcd60e51b815260206004820152601b60248201527f526573616c653a20496e73756666696369656e742066756e64732100000000006044820152606401610473565b8560006105f282346117b5565b111561063057336108fc61060689346117b5565b6040518115909202916000818181858888f1935050505015801561062e573d6000803e3d6000fd5b505b6003546000906106419060646117c8565b60045461064e908a6117c8565b61065891906117df565b6040519091506001600160a01b0388169082156108fc029083906000818181858888f19350505050158015610691573d6000803e3d6000fd5b508061069d81846117b5565b6003549093506106ae9060646117c8565b6005546106bb908b6117c8565b6106c591906117df565b6006546040519193506001600160a01b03169083156108fc029084906000818181858888f19350505050158015610700573d6000803e3d6000fd5b5061070b8282611801565b905061071782846117b5565b925060005b86548110156107f0576003546107339060646117c8565b87828154811061074557610745611814565b9060005260206000209060020201600101548b61076291906117c8565b61076c91906117df565b925086818154811061078057610780611814565b600091825260208220600290910201546040516001600160a01b039091169185156108fc02918691818181858888f193505050501580156107c5573d6000803e3d6000fd5b506107d08383611801565b91506107dc83856117b5565b9350806107e88161182a565b91505061071c565b506040516001600160a01b038c169084156108fc029085906000818181858888f19350505050158015610827573d6000803e3d6000fd5b506108328382611801565b905088811461088d5760405162461bcd60e51b815260206004820152602160248201527f526573616c653a204572726f72207472616e7366657272696e672066756e64736044820152602160f81b6064820152608401610473565b6040516323b872dd60e01b81526001600160a01b038c811660048301528d81166024830152604482018c90528e16906323b872dd90606401600060405180830381600087803b1580156108df57600080fd5b505af11580156108f3573d6000803e3d6000fd5b505050507f2f0996da6c077604b5bde68e82fc6389b549462f3d448d4bda60ad38e1a739868d8d8d8d8d60405161095d9594939291906001600160a01b03958616815293851660208501529190931660408301526060820192909252608081019190915260a00190565b60405180910390a150505050505050505050505050565b7fd88b35d7427a01a8e16d8a129535b4cf3150edf8d92c0a44dc1eba73bdaf18cb61099f8133610e8e565b507f232aa753920d876dd52c6464ae9dec228a3cfdca7d146885d71d13b28dc65b9855565b60405163e985e9c560e01b81526001600160a01b0385811660048301523060248301526000919088169063e985e9c590604401602060405180830381865afa158015610a14573d6000803e3d6000fd5b505050506040513d601f19601f82011682018060405250810190610a389190611843565b80610ab4575060405163020604bf60e21b81526004810185905230906001600160a01b0389169063081812fc90602401602060405180830381865afa158015610a85573d6000803e3d6000fd5b505050506040513d601f19601f82011682018060405250810190610aa99190611865565b6001600160a01b0316145b610b195760405162461bcd60e51b815260206004820152603060248201527f526573616c653a204d61726b6574706c6163652069736e277420617070726f7660448201526f656420666f72207472616e736665727360801b6064820152608401610473565b868686868686610b27611082565b6040516bffffffffffffffffffffffff19606098891b8116602083015296881b8716603482015294871b86166048860152605c850193909352607c84019190915290931b909116609c82015260b081019190915260d0016040516020818303038152906040528051906020012090509695505050505050565b8260006000805160206119b2833981519152604051632474521560e21b81527f3c2519c4487d47714872f92cf90a50c25f5deaec2789dc2a497b1272df611db660048201523360248201529091506001600160a01b038316906391d1485490604401602060405180830381865afa158015610c1f573d6000803e3d6000fd5b505050506040513d601f19601f82011682018060405250810190610c439190611843565b80610cb85750604051632474521560e21b8152600060048201523360248201526001600160a01b038316906391d1485490604401602060405180830381865afa158015610c94573d6000803e3d6000fd5b505050506040513d601f19601f82011682018060405250810190610cb89190611843565b610d2a5760405162461bcd60e51b815260206004820152603d60248201527f526573616c653a204f6e6c7920746865206f776e6572206f66206120636f6e7460448201527f726163742063616e2073657420637573746f6d20726f79616c746965730000006064820152608401610473565b60005b83811015610daf576001600160a01b03861660009081526000805160206119b283398151915260205260409020858583818110610d6c57610d6c611814565b835460018101855560009485526020909420604090910292909201926002029091019050610d9a8282611882565b50508080610da79061182a565b915050610d2d565b505050505050565b6000828152600160205260408120610dcf90836110ce565b90505b92915050565b6000918252602082815260408084206001600160a01b0393909316845291905290205460ff1690565b6000818152600160205260408120610dd2906110da565b600082815260208190526040902060010154610e348133610e8e565b6104028383610f8a565b7fd88b35d7427a01a8e16d8a129535b4cf3150edf8d92c0a44dc1eba73bdaf18cb610e698133610e8e565b507f232aa753920d876dd52c6464ae9dec228a3cfdca7d146885d71d13b28dc65b9955565b610e988282610dd8565b61048657610eb0816001600160a01b031660146110e4565b610ebb8360206110e4565b604051602001610ecc9291906118dc565b60408051601f198184030181529082905262461bcd60e51b825261047391600401611951565b610efc8282610dd8565b610486576000828152602081815260408083206001600160a01b03851684529091529020805460ff19166001179055610f323390565b6001600160a01b0316816001600160a01b0316837f2f8788117e7eff1d82e926ec794901d17c78024a50270940304540a733656f0d60405160405180910390a460008281526001602052604090206104029082611280565b610f948282610dd8565b15610486576000828152602081815260408083206001600160a01b0385168085529252808320805460ff1916905551339285917ff6391f5c32d9c69d2a47ea670b442974b53935d1edc7fd64eb21e047a839171b9190a460008281526001602052604090206104029082611295565b600080600080611012856112aa565b6040805160008152602081018083528b905260ff8316918101919091526060810184905260808101839052929550909350915060019060a0016020604051602081039080840390855afa15801561106d573d6000803e3d6000fd5b5050604051601f190151979650505050505050565b600061108f6064426117df565b61109a9060646117c8565b7f232aa753920d876dd52c6464ae9dec228a3cfdca7d146885d71d13b28dc65b98549091506110c99082611801565b905090565b6000610dcf838361131e565b6000610dd2825490565b606060006110f38360026117c8565b6110fe906002611801565b67ffffffffffffffff81111561111657611116611560565b6040519080825280601f01601f191660200182016040528015611140576020820181803683370190505b509050600360fc1b8160008151811061115b5761115b611814565b60200101906001600160f81b031916908160001a905350600f60fb1b8160018151811061118a5761118a611814565b60200101906001600160f81b031916908160001a90535060006111ae8460026117c8565b6111b9906001611801565b90505b6001811115611231576f181899199a1a9b1b9c1cb0b131b232b360811b85600f16601081106111ed576111ed611814565b1a60f81b82828151811061120357611203611814565b60200101906001600160f81b031916908160001a90535060049490941c9361122a81611984565b90506111bc565b508315610dcf5760405162461bcd60e51b815260206004820181905260248201527f537472696e67733a20686578206c656e67746820696e73756666696369656e746044820152606401610473565b6000610dcf836001600160a01b038416611348565b6000610dcf836001600160a01b038416611397565b600080600083516041146113005760405162461bcd60e51b815260206004820181905260248201527f526573616c653a20696e76616c6964207369676e6174757265206c656e6774686044820152606401610473565b50505060208101516040820151606090920151909260009190911a90565b600082600001828154811061133557611335611814565b9060005260206000200154905092915050565b600081815260018301602052604081205461138f57508154600181810184556000848152602080822090930184905584548482528286019093526040902091909155610dd2565b506000610dd2565b600081815260018301602052604081205480156114805760006113bb6001836117b5565b85549091506000906113cf906001906117b5565b90508181146114345760008660000182815481106113ef576113ef611814565b906000526020600020015490508087600001848154811061141257611412611814565b6000918252602080832090910192909255918252600188019052604090208390555b85548690806114455761144561199b565b600190038181906000526020600020016000905590558560010160008681526020019081526020016000206000905560019350505050610dd2565b6000915050610dd2565b6001600160a01b038116811461149f57600080fd5b50565b6000602082840312156114b457600080fd5b8135610dcf8161148a565b602080825282518282018190526000919060409081850190868401855b8281101561150a57815180516001600160a01b031685528601518685015292840192908501906001016114dc565b5091979650505050505050565b60006020828403121561152957600080fd5b5035919050565b6000806040838503121561154357600080fd5b8235915060208301356115558161148a565b809150509250929050565b634e487b7160e01b600052604160045260246000fd5b600080600080600080600060e0888a03121561159157600080fd5b873561159c8161148a565b965060208801356115ac8161148a565b955060408801356115bc8161148a565b9450606088013593506080880135925060a08801356115da8161148a565b915060c088013567ffffffffffffffff808211156115f757600080fd5b818a0191508a601f83011261160b57600080fd5b81358181111561161d5761161d611560565b604051601f8201601f19908116603f0116810190838211818310171561164557611645611560565b816040528281528d602084870101111561165e57600080fd5b82602086016020830137600060208483010152809550505050505092959891949750929550565b60008060008060008060c0878903121561169e57600080fd5b86356116a98161148a565b955060208701356116b98161148a565b945060408701356116c98161148a565b9350606087013592506080870135915060a08701356116e78161148a565b809150509295509295509295565b60008060006040848603121561170a57600080fd5b83356117158161148a565b9250602084013567ffffffffffffffff8082111561173257600080fd5b818601915086601f83011261174657600080fd5b81358181111561175557600080fd5b8760208260061b850101111561176a57600080fd5b6020830194508093505050509250925092565b6000806040838503121561179057600080fd5b50508035926020909101359150565b634e487b7160e01b600052601160045260246000fd5b81810381811115610dd257610dd261179f565b8082028115828204841417610dd257610dd261179f565b6000826117fc57634e487b7160e01b600052601260045260246000fd5b500490565b80820180821115610dd257610dd261179f565b634e487b7160e01b600052603260045260246000fd5b60006001820161183c5761183c61179f565b5060010190565b60006020828403121561185557600080fd5b81518015158114610dcf57600080fd5b60006020828403121561187757600080fd5b8151610dcf8161148a565b813561188d8161148a565b81546001600160a01b0319166001600160a01b03919091161781556020919091013560019190910155565b60005b838110156118d35781810151838201526020016118bb565b50506000910152565b7f416363657373436f6e74726f6c3a206163636f756e74200000000000000000008152600083516119148160178501602088016118b8565b7001034b99036b4b9b9b4b733903937b6329607d1b60179184019182015283516119458160288401602088016118b8565b01602801949350505050565b60208152600082518060208401526119708160408501602087016118b8565b601f01601f19169190910160400192915050565b6000816119935761199361179f565b506000190190565b634e487b7160e01b600052603160045260246000fdfe232aa753920d876dd52c6464ae9dec228a3cfdca7d146885d71d13b28dc65b96a26469706673582212207e9cc5f051d1a2773ffd7727fd624f629ce53b5dee52d595e5c4239fee4b51ee64736f6c63430008140033",
  "devdoc": {
    "author": "Juan M. Sanchez M.",
    "details": "Uses signed messages for gasless offer postings",
    "events": {
      "RoleAdminChanged(bytes32,bytes32,bytes32)": {
        "params": {
          "newAdminRole": "contains the new status of the role",
          "previousAdminRole": "contains the previous status of the role",
          "role": "Contains the role we want to update"
        }
      },
      "RoleGranted(bytes32,address,address)": {
        "params": {
          "account": "contains the address that we want to grant the role",
          "role": "Contains the role we want to update",
          "sender": "contains the address that is changing the role of the account"
        }
      },
      "RoleRevoked(bytes32,address,address)": {
        "params": {
          "account": "contains the address that we want to revoke the role",
          "role": "Contains the role we want to update",
          "sender": "contains the address that is changing the role of the account"
        }
      }
    },
    "kind": "dev",
    "methods": {
      "getRoleAdmin(bytes32)": {
        "params": {
          "role": "Contains the role that we want to verify"
        },
        "returns": {
          "_0": "bytes that indicates if an account has or not an admin role"
        }
      },
      "getRoleMember(bytes32,uint256)": {
        "params": {
          "index": "Contains the indexed position to verify inside the role members list",
          "role": "Contains the role that we want to verify"
        },
        "returns": {
          "_0": "address that indicates the address indexed in that position"
        }
      },
      "getRoleMemberCount(bytes32)": {
        "params": {
          "role": "Contains the role that we want to verify"
        },
        "returns": {
          "_0": "uint256 that indicates the total accounts with that role"
        }
      },
      "grantRole(bytes32,address)": {
        "details": "This function is only available to an account with an Admin role",
        "params": {
          "account": "Contains the account that has the role we want to update",
          "role": "Contains the role that we want to grant"
        }
      },
      "hasRole(bytes32,address)": {
        "params": {
          "account": "Contains the account address thay we want to verify",
          "role": "Contains the role that we want to verify"
        },
        "returns": {
          "_0": "bool that indicates if an account has or not a role"
        }
      },
      "renounceRole(bytes32,address)": {
        "details": "Currently you can only renounce to your own roles",
        "params": {
          "account": "Contains the account that has the role we want to update",
          "role": "Contains the role to remove from our account"
        }
      },
      "revokeRole(bytes32,address)": {
        "details": "This function is only available to an account with an Admin role",
        "params": {
          "account": "Contains the account that has the role we want to update",
          "role": "Contains the role that we want to revoke"
        }
      }
    },
    "title": "RAIR Diamond - Resale Marketplace facet",
    "version": 1
  },
  "userdoc": {
    "events": {
      "RoleAdminChanged(bytes32,bytes32,bytes32)": {
        "notice": "This event stores in the blockchain when we change an admin role"
      },
      "RoleGranted(bytes32,address,address)": {
        "notice": "This event stores in the blockchain when we grant a role"
      },
      "RoleRevoked(bytes32,address,address)": {
        "notice": "This event stores in the blockchain when we revoke a role"
      }
    },
    "kind": "user",
    "methods": {
      "getRoleAdmin(bytes32)": {
        "notice": "Allow us to check the admin role that contains a role"
      },
      "getRoleMember(bytes32,uint256)": {
        "notice": "Allow us to check the address of an indexed position for the role list"
      },
      "getRoleMemberCount(bytes32)": {
        "notice": "Allow us to check total members that has an selected role"
      },
      "grantRole(bytes32,address)": {
        "notice": "Allow us to grant a role to an account"
      },
      "hasRole(bytes32,address)": {
        "notice": "Allow us to check the if and account has a selected role"
      },
      "renounceRole(bytes32,address)": {
        "notice": "Allow us to renounce to a role"
      },
      "revokeRole(bytes32,address)": {
        "notice": "Allow us to revoke a role to an account"
      }
    },
    "notice": "Facet in charge of transfering NFTs and funds",
    "version": 1
  },
  "storageLayout": {
    "storage": [
      {
        "astId": 5315,
        "contract": "contracts/Marketplace/Facets/ResalesFacet.sol:ResaleFacet",
        "label": "s",
        "offset": 0,
        "slot": "0",
        "type": "t_struct(AppStorage)5296_storage"
      }
    ],
    "types": {
      "t_address": {
        "encoding": "inplace",
        "label": "address",
        "numberOfBytes": "20"
      },
      "t_array(t_bytes32)dyn_storage": {
        "base": "t_bytes32",
        "encoding": "dynamic_array",
        "label": "bytes32[]",
        "numberOfBytes": "32"
      },
      "t_array(t_struct(feeSplits)5240_storage)dyn_storage": {
        "base": "t_struct(feeSplits)5240_storage",
        "encoding": "dynamic_array",
        "label": "struct feeSplits[]",
        "numberOfBytes": "32"
      },
      "t_array(t_struct(mintingOffer)5253_storage)dyn_storage": {
        "base": "t_struct(mintingOffer)5253_storage",
        "encoding": "dynamic_array",
        "label": "struct mintingOffer[]",
        "numberOfBytes": "32"
      },
      "t_array(t_uint256)dyn_storage": {
        "base": "t_uint256",
        "encoding": "dynamic_array",
        "label": "uint256[]",
        "numberOfBytes": "32"
      },
      "t_bool": {
        "encoding": "inplace",
        "label": "bool",
        "numberOfBytes": "1"
      },
      "t_bytes32": {
        "encoding": "inplace",
        "label": "bytes32",
        "numberOfBytes": "32"
      },
      "t_mapping(t_address,t_array(t_uint256)dyn_storage)": {
        "encoding": "mapping",
        "key": "t_address",
        "label": "mapping(address => uint256[])",
        "numberOfBytes": "32",
        "value": "t_array(t_uint256)dyn_storage"
      },
      "t_mapping(t_address,t_bool)": {
        "encoding": "mapping",
        "key": "t_address",
        "label": "mapping(address => bool)",
        "numberOfBytes": "32",
        "value": "t_bool"
      },
      "t_mapping(t_address,t_mapping(t_uint256,t_uint256))": {
        "encoding": "mapping",
        "key": "t_address",
        "label": "mapping(address => mapping(uint256 => uint256))",
        "numberOfBytes": "32",
        "value": "t_mapping(t_uint256,t_uint256)"
      },
      "t_mapping(t_bytes32,t_struct(AddressSet)3753_storage)": {
        "encoding": "mapping",
        "key": "t_bytes32",
        "label": "mapping(bytes32 => struct EnumerableSet.AddressSet)",
        "numberOfBytes": "32",
        "value": "t_struct(AddressSet)3753_storage"
      },
      "t_mapping(t_bytes32,t_struct(RoleData)5260_storage)": {
        "encoding": "mapping",
        "key": "t_bytes32",
        "label": "mapping(bytes32 => struct RoleData)",
        "numberOfBytes": "32",
        "value": "t_struct(RoleData)5260_storage"
      },
      "t_mapping(t_bytes32,t_uint256)": {
        "encoding": "mapping",
        "key": "t_bytes32",
        "label": "mapping(bytes32 => uint256)",
        "numberOfBytes": "32",
        "value": "t_uint256"
      },
      "t_mapping(t_uint256,t_uint256)": {
        "encoding": "mapping",
        "key": "t_uint256",
        "label": "mapping(uint256 => uint256)",
        "numberOfBytes": "32",
        "value": "t_uint256"
      },
      "t_struct(AddressSet)3753_storage": {
        "encoding": "inplace",
        "label": "struct EnumerableSet.AddressSet",
        "members": [
          {
            "astId": 3752,
            "contract": "contracts/Marketplace/Facets/ResalesFacet.sol:ResaleFacet",
            "label": "_inner",
            "offset": 0,
            "slot": "0",
            "type": "t_struct(Set)3438_storage"
          }
        ],
        "numberOfBytes": "64"
      },
      "t_struct(AppStorage)5296_storage": {
        "encoding": "inplace",
        "label": "struct AppStorage",
        "members": [
          {
            "astId": 5265,
            "contract": "contracts/Marketplace/Facets/ResalesFacet.sol:ResaleFacet",
            "label": "_roles",
            "offset": 0,
            "slot": "0",
            "type": "t_mapping(t_bytes32,t_struct(RoleData)5260_storage)"
          },
          {
            "astId": 5270,
            "contract": "contracts/Marketplace/Facets/ResalesFacet.sol:ResaleFacet",
            "label": "_roleMembers",
            "offset": 0,
            "slot": "1",
            "type": "t_mapping(t_bytes32,t_struct(AddressSet)3753_storage)"
          },
          {
            "astId": 5272,
            "contract": "contracts/Marketplace/Facets/ResalesFacet.sol:ResaleFacet",
            "label": "decimals",
            "offset": 0,
            "slot": "2",
            "type": "t_uint16"
          },
          {
            "astId": 5274,
            "contract": "contracts/Marketplace/Facets/ResalesFacet.sol:ResaleFacet",
            "label": "decimalPow",
            "offset": 0,
            "slot": "3",
            "type": "t_uint256"
          },
          {
            "astId": 5276,
            "contract": "contracts/Marketplace/Facets/ResalesFacet.sol:ResaleFacet",
            "label": "nodeFee",
            "offset": 0,
            "slot": "4",
            "type": "t_uint256"
          },
          {
            "astId": 5278,
            "contract": "contracts/Marketplace/Facets/ResalesFacet.sol:ResaleFacet",
            "label": "treasuryFee",
            "offset": 0,
            "slot": "5",
            "type": "t_uint256"
          },
          {
            "astId": 5280,
            "contract": "contracts/Marketplace/Facets/ResalesFacet.sol:ResaleFacet",
            "label": "treasuryAddress",
            "offset": 0,
            "slot": "6",
            "type": "t_address"
          },
          {
            "astId": 5284,
            "contract": "contracts/Marketplace/Facets/ResalesFacet.sol:ResaleFacet",
            "label": "mintingOffers",
            "offset": 0,
            "slot": "7",
            "type": "t_array(t_struct(mintingOffer)5253_storage)dyn_storage"
          },
          {
            "astId": 5290,
            "contract": "contracts/Marketplace/Facets/ResalesFacet.sol:ResaleFacet",
            "label": "addressToRangeOffer",
            "offset": 0,
            "slot": "8",
            "type": "t_mapping(t_address,t_mapping(t_uint256,t_uint256))"
          },
          {
            "astId": 5295,
            "contract": "contracts/Marketplace/Facets/ResalesFacet.sol:ResaleFacet",
            "label": "addressToOffers",
            "offset": 0,
            "slot": "9",
            "type": "t_mapping(t_address,t_array(t_uint256)dyn_storage)"
          }
        ],
        "numberOfBytes": "320"
      },
      "t_struct(RoleData)5260_storage": {
        "encoding": "inplace",
        "label": "struct RoleData",
        "members": [
          {
            "astId": 5257,
            "contract": "contracts/Marketplace/Facets/ResalesFacet.sol:ResaleFacet",
            "label": "members",
            "offset": 0,
            "slot": "0",
            "type": "t_mapping(t_address,t_bool)"
          },
          {
            "astId": 5259,
            "contract": "contracts/Marketplace/Facets/ResalesFacet.sol:ResaleFacet",
            "label": "adminRole",
            "offset": 0,
            "slot": "1",
            "type": "t_bytes32"
          }
        ],
        "numberOfBytes": "64"
      },
      "t_struct(Set)3438_storage": {
        "encoding": "inplace",
        "label": "struct EnumerableSet.Set",
        "members": [
          {
            "astId": 3433,
            "contract": "contracts/Marketplace/Facets/ResalesFacet.sol:ResaleFacet",
            "label": "_values",
            "offset": 0,
            "slot": "0",
            "type": "t_array(t_bytes32)dyn_storage"
          },
          {
            "astId": 3437,
            "contract": "contracts/Marketplace/Facets/ResalesFacet.sol:ResaleFacet",
            "label": "_indexes",
            "offset": 0,
            "slot": "1",
            "type": "t_mapping(t_bytes32,t_uint256)"
          }
        ],
        "numberOfBytes": "64"
      },
      "t_struct(feeSplits)5240_storage": {
        "encoding": "inplace",
        "label": "struct feeSplits",
        "members": [
          {
            "astId": 5235,
            "contract": "contracts/Marketplace/Facets/ResalesFacet.sol:ResaleFacet",
            "label": "recipient",
            "offset": 0,
            "slot": "0",
            "type": "t_address"
          },
          {
            "astId": 5237,
            "contract": "contracts/Marketplace/Facets/ResalesFacet.sol:ResaleFacet",
            "label": "canBeContract",
            "offset": 20,
            "slot": "0",
            "type": "t_bool"
          },
          {
            "astId": 5239,
            "contract": "contracts/Marketplace/Facets/ResalesFacet.sol:ResaleFacet",
            "label": "percentage",
            "offset": 0,
            "slot": "1",
            "type": "t_uint256"
          }
        ],
        "numberOfBytes": "64"
      },
      "t_struct(mintingOffer)5253_storage": {
        "encoding": "inplace",
        "label": "struct mintingOffer",
        "members": [
          {
            "astId": 5242,
            "contract": "contracts/Marketplace/Facets/ResalesFacet.sol:ResaleFacet",
            "label": "erc721Address",
            "offset": 0,
            "slot": "0",
            "type": "t_address"
          },
          {
            "astId": 5244,
            "contract": "contracts/Marketplace/Facets/ResalesFacet.sol:ResaleFacet",
            "label": "nodeAddress",
            "offset": 0,
            "slot": "1",
            "type": "t_address"
          },
          {
            "astId": 5246,
            "contract": "contracts/Marketplace/Facets/ResalesFacet.sol:ResaleFacet",
            "label": "rangeIndex",
            "offset": 0,
            "slot": "2",
            "type": "t_uint256"
          },
          {
            "astId": 5250,
            "contract": "contracts/Marketplace/Facets/ResalesFacet.sol:ResaleFacet",
            "label": "fees",
            "offset": 0,
            "slot": "3",
            "type": "t_array(t_struct(feeSplits)5240_storage)dyn_storage"
          },
          {
            "astId": 5252,
            "contract": "contracts/Marketplace/Facets/ResalesFacet.sol:ResaleFacet",
            "label": "visible",
            "offset": 0,
            "slot": "4",
            "type": "t_bool"
          }
        ],
        "numberOfBytes": "160"
      },
      "t_uint16": {
        "encoding": "inplace",
        "label": "uint16",
        "numberOfBytes": "2"
      },
      "t_uint256": {
        "encoding": "inplace",
        "label": "uint256",
        "numberOfBytes": "32"
      }
    }
  }
}