{
  "address": "0x460A4087bEfD90C5b1D1c83C22DbB626EFa91208",
  "abi": [
    {
      "inputs": [
        {
          "internalType": "uint256",
          "name": "value",
          "type": "uint256"
        },
        {
          "internalType": "uint256",
          "name": "length",
          "type": "uint256"
        }
      ],
      "name": "StringsInsufficientHexLength",
      "type": "error"
    },
    {
      "anonymous": false,
      "inputs": [
        {
          "indexed": true,
          "internalType": "bytes32",
          "name": "role",
          "type": "bytes32"
        },
        {
          "indexed": true,
          "internalType": "bytes32",
          "name": "previousAdminRole",
          "type": "bytes32"
        },
        {
          "indexed": true,
          "internalType": "bytes32",
          "name": "newAdminRole",
          "type": "bytes32"
        }
      ],
      "name": "RoleAdminChanged",
      "type": "event"
    },
    {
      "anonymous": false,
      "inputs": [
        {
          "indexed": true,
          "internalType": "bytes32",
          "name": "role",
          "type": "bytes32"
        },
        {
          "indexed": true,
          "internalType": "address",
          "name": "account",
          "type": "address"
        },
        {
          "indexed": true,
          "internalType": "address",
          "name": "sender",
          "type": "address"
        }
      ],
      "name": "RoleGranted",
      "type": "event"
    },
    {
      "anonymous": false,
      "inputs": [
        {
          "indexed": true,
          "internalType": "bytes32",
          "name": "role",
          "type": "bytes32"
        },
        {
          "indexed": true,
          "internalType": "address",
          "name": "account",
          "type": "address"
        },
        {
          "indexed": true,
          "internalType": "address",
          "name": "sender",
          "type": "address"
        }
      ],
      "name": "RoleRevoked",
      "type": "event"
    },
    {
      "anonymous": false,
      "inputs": [
        {
          "indexed": false,
          "internalType": "address",
          "name": "erc721Address",
          "type": "address"
        },
        {
          "indexed": false,
          "internalType": "address",
          "name": "seller",
          "type": "address"
        },
        {
          "indexed": false,
          "internalType": "uint256",
          "name": "token",
          "type": "uint256"
        },
        {
          "indexed": false,
          "internalType": "uint256",
          "name": "tokenPrice",
          "type": "uint256"
        },
        {
          "indexed": false,
          "internalType": "uint256",
          "name": "offerId",
          "type": "uint256"
        }
      ],
      "name": "TokenOfferCreated",
      "type": "event"
    },
    {
      "anonymous": false,
      "inputs": [
        {
          "indexed": false,
          "internalType": "address",
          "name": "erc721Address",
          "type": "address"
        },
        {
          "indexed": false,
          "internalType": "address",
          "name": "buyer",
          "type": "address"
        },
        {
          "indexed": false,
          "internalType": "address",
          "name": "seller",
          "type": "address"
        },
        {
          "indexed": false,
          "internalType": "uint256",
          "name": "token",
          "type": "uint256"
        },
        {
          "indexed": false,
          "internalType": "uint256",
          "name": "tokenPrice",
          "type": "uint256"
        }
      ],
      "name": "TokenSold",
      "type": "event"
    },
    {
      "inputs": [],
      "name": "MAINTAINER",
      "outputs": [
        {
          "internalType": "bytes32",
          "name": "",
          "type": "bytes32"
        }
      ],
      "stateMutability": "view",
      "type": "function"
    },
    {
      "inputs": [],
      "name": "RESALE_ADMIN",
      "outputs": [
        {
          "internalType": "bytes32",
          "name": "",
          "type": "bytes32"
        }
      ],
      "stateMutability": "view",
      "type": "function"
    },
    {
      "inputs": [
        {
          "internalType": "address",
          "name": "erc721",
          "type": "address"
        },
        {
          "internalType": "uint256",
          "name": "token",
          "type": "uint256"
        },
        {
          "internalType": "uint256",
          "name": "tokenPrice",
          "type": "uint256"
        },
        {
          "internalType": "address",
          "name": "nodeAddress",
          "type": "address"
        }
      ],
      "name": "createGasTokenOffer",
      "outputs": [],
      "stateMutability": "nonpayable",
      "type": "function"
    },
    {
      "inputs": [
        {
          "internalType": "address",
          "name": "erc721",
          "type": "address"
        },
        {
          "internalType": "address",
          "name": "buyer",
          "type": "address"
        },
        {
          "internalType": "address",
          "name": "seller",
          "type": "address"
        },
        {
          "internalType": "uint256",
          "name": "token",
          "type": "uint256"
        },
        {
          "internalType": "uint256",
          "name": "tokenPrice",
          "type": "uint256"
        },
        {
          "internalType": "address",
          "name": "nodeAddress",
          "type": "address"
        }
      ],
      "name": "generateResaleHash",
      "outputs": [
        {
          "internalType": "bytes32",
          "name": "",
          "type": "bytes32"
        }
      ],
      "stateMutability": "view",
      "type": "function"
    },
    {
      "inputs": [
        {
          "internalType": "bytes32",
          "name": "role",
          "type": "bytes32"
        }
      ],
      "name": "getRoleAdmin",
      "outputs": [
        {
          "internalType": "bytes32",
          "name": "",
          "type": "bytes32"
        }
      ],
      "stateMutability": "view",
      "type": "function"
    },
    {
      "inputs": [
        {
          "internalType": "bytes32",
          "name": "role",
          "type": "bytes32"
        },
        {
          "internalType": "uint256",
          "name": "index",
          "type": "uint256"
        }
      ],
      "name": "getRoleMember",
      "outputs": [
        {
          "internalType": "address",
          "name": "",
          "type": "address"
        }
      ],
      "stateMutability": "view",
      "type": "function"
    },
    {
      "inputs": [
        {
          "internalType": "bytes32",
          "name": "role",
          "type": "bytes32"
        }
      ],
      "name": "getRoleMemberCount",
      "outputs": [
        {
          "internalType": "uint256",
          "name": "",
          "type": "uint256"
        }
      ],
      "stateMutability": "view",
      "type": "function"
    },
    {
      "inputs": [
        {
          "internalType": "address",
          "name": "erc721",
          "type": "address"
        }
      ],
      "name": "getRoyalties",
      "outputs": [
        {
          "components": [
            {
              "internalType": "address",
              "name": "recipient",
              "type": "address"
            },
            {
              "internalType": "uint256",
              "name": "percentage",
              "type": "uint256"
            }
          ],
          "internalType": "struct ResaleStorage.feeSplits[]",
          "name": "",
          "type": "tuple[]"
        }
      ],
      "stateMutability": "view",
      "type": "function"
    },
    {
      "inputs": [
        {
          "internalType": "bytes32",
          "name": "role",
          "type": "bytes32"
        },
        {
          "internalType": "address",
          "name": "account",
          "type": "address"
        }
      ],
      "name": "grantRole",
      "outputs": [],
      "stateMutability": "nonpayable",
      "type": "function"
    },
    {
      "inputs": [
        {
          "internalType": "bytes32",
          "name": "role",
          "type": "bytes32"
        },
        {
          "internalType": "address",
          "name": "account",
          "type": "address"
        }
      ],
      "name": "hasRole",
      "outputs": [
        {
          "internalType": "bool",
          "name": "",
          "type": "bool"
        }
      ],
      "stateMutability": "view",
      "type": "function"
    },
    {
      "inputs": [
        {
          "internalType": "uint256",
          "name": "offerIndex",
          "type": "uint256"
        }
      ],
      "name": "purchaseGasTokenOffer",
      "outputs": [],
      "stateMutability": "payable",
      "type": "function"
    },
    {
      "inputs": [
        {
          "internalType": "address",
          "name": "erc721",
          "type": "address"
        },
        {
          "internalType": "address",
          "name": "buyer",
          "type": "address"
        },
        {
          "internalType": "address",
          "name": "seller",
          "type": "address"
        },
        {
          "internalType": "uint256",
          "name": "token",
          "type": "uint256"
        },
        {
          "internalType": "uint256",
          "name": "tokenPrice",
          "type": "uint256"
        },
        {
          "internalType": "address",
          "name": "nodeAddress",
          "type": "address"
        },
        {
          "internalType": "bytes",
          "name": "signature",
          "type": "bytes"
        }
      ],
      "name": "purchaseTokenOffer",
      "outputs": [],
      "stateMutability": "payable",
      "type": "function"
    },
    {
      "inputs": [
        {
          "internalType": "bytes32",
          "name": "role",
          "type": "bytes32"
        },
        {
          "internalType": "address",
          "name": "account",
          "type": "address"
        }
      ],
      "name": "renounceRole",
      "outputs": [],
      "stateMutability": "nonpayable",
      "type": "function"
    },
    {
      "inputs": [
        {
          "internalType": "bytes32",
          "name": "role",
          "type": "bytes32"
        },
        {
          "internalType": "address",
          "name": "account",
          "type": "address"
        }
      ],
      "name": "revokeRole",
      "outputs": [],
      "stateMutability": "nonpayable",
      "type": "function"
    },
    {
      "inputs": [
        {
          "internalType": "uint256",
          "name": "value",
          "type": "uint256"
        }
      ],
      "name": "setDecimalPow",
      "outputs": [],
      "stateMutability": "nonpayable",
      "type": "function"
    },
    {
      "inputs": [
        {
          "internalType": "uint256",
          "name": "value",
          "type": "uint256"
        }
      ],
      "name": "setPurchaseGracePeriod",
      "outputs": [],
      "stateMutability": "nonpayable",
      "type": "function"
    },
    {
      "inputs": [
        {
          "internalType": "address",
          "name": "erc721",
          "type": "address"
        },
        {
          "components": [
            {
              "internalType": "address",
              "name": "recipient",
              "type": "address"
            },
            {
              "internalType": "uint256",
              "name": "percentage",
              "type": "uint256"
            }
          ],
          "internalType": "struct ResaleStorage.feeSplits[]",
          "name": "fees",
          "type": "tuple[]"
        }
      ],
      "name": "setRoyalties",
      "outputs": [],
      "stateMutability": "nonpayable",
      "type": "function"
    }
  ],
  "transactionHash": "0x379c29d7a5da90e7559310795be0ffd3144d78a21fc7ec3fb04c313fea9c5c39",
  "args": [],
  "numDeployments": 3,
  "solcInputHash": "f2691882dc4d8214978e57617b5436dc",
  "bytecode": "0x6080604052348015600f57600080fd5b50611dc98061001f6000396000f3fe6080604052600436106100fe5760003560e01c80636394f83f1161009557806391d148541161006457806391d14854146102cb578063ca15c873146102fb578063d547741f1461031b578063da9bdab01461033b578063ec71bce81461036f57600080fd5b80636394f83f146102335780638e118fb3146102535780638e6a912c146102735780639010d07c1461029357600080fd5b806336568abe116100d157806336568abe146101cd57806346b51ea5146101ed5780634fbbada91461020057806358a59bf41461021357600080fd5b806314556a5614610103578063248a9ca3146101395780632aabb726146101775780632f2ff15d146101ab575b600080fd5b34801561010f57600080fd5b5061012361011e36600461182c565b61038f565b6040516101309190611850565b60405180910390f35b34801561014557600080fd5b506101696101543660046118a8565b60009081526020819052604090206001015490565b604051908152602001610130565b34801561018357600080fd5b506101697fd88b35d7427a01a8e16d8a129535b4cf3150edf8d92c0a44dc1eba73bdaf18cb81565b3480156101b757600080fd5b506101cb6101c63660046118c1565b610425565b005b3480156101d957600080fd5b506101cb6101e83660046118c1565b610450565b6101cb6101fb366004611907565b6104d3565b6101cb61020e3660046118a8565b6105de565b34801561021f57600080fd5b506101cb61022e3660046118a8565b6106dd565b34801561023f57600080fd5b5061016961024e366004611a16565b61072d565b34801561025f57600080fd5b506101cb61026e366004611a86565b610909565b34801561027f57600080fd5b506101cb61028e366004611b0e565b610b15565b34801561029f57600080fd5b506102b36102ae366004611b58565b610d7b565b6040516001600160a01b039091168152602001610130565b3480156102d757600080fd5b506102eb6102e63660046118c1565b610d9c565b6040519015158152602001610130565b34801561030757600080fd5b506101696103163660046118a8565b610dc5565b34801561032757600080fd5b506101cb6103363660046118c1565b610ddc565b34801561034757600080fd5b506101697fc0f3378637414317b885402eb428659ba3cbc2330f4bee724741cd4aea9b8b4981565b34801561037b57600080fd5b506101cb61038a3660046118a8565b610e02565b6060600080516020611d748339815191526001600160a01b0383166000908152602091825260408082208054825181860281018601909352808352919390929084015b8282101561041a576000848152602090819020604080518082019091526002850290910180546001600160a01b031682526001908101548284015290835290920191016103d2565b505050509050919050565b6000828152602081905260409020600101546104418133610e52565b61044b8383610eb6565b505050565b6001600160a01b03811633146104c55760405162461bcd60e51b815260206004820152602f60248201527f416363657373436f6e74726f6c3a2063616e206f6e6c792072656e6f756e636560448201526e103937b632b9903337b91039b2b63360891b60648201526084015b60405180910390fd5b6104cf8282610f4e565b5050565b60006104e388888888888861072d565b9050600061053e826040517f19457468657265756d205369676e6564204d6573736167653a0a3332000000006020820152603c8101829052600090605c01604051602081830303815290604052805190602001209050919050565b905061056e7fc0f3378637414317b885402eb428659ba3cbc2330f4bee724741cd4aea9b8b496102e68386610fc7565b6105ba5760405162461bcd60e51b815260206004820181905260248201527f526573616c653a20496e76616c6964207769746864726177207265717565737460448201526064016104bc565b6105c68986868a611046565b6105d38987898b89611363565b505050505050505050565b6000600080516020611d74833981519152600401828154811061060357610603611b7a565b6000918252602090912060069091020160018101549091506001600160a01b0316156106715760405162461bcd60e51b815260206004820152601f60248201527f526573616c653a204f6666657220616c7265616479207075726368617365640060448201526064016104bc565b805460048201546005830154600284015461069c936001600160a01b03908116939281169116611046565b80546003820154600283015460048401546106c7936001600160a01b03908116939216903390611363565b60010180546001600160a01b0319163317905550565b7fd88b35d7427a01a8e16d8a129535b4cf3150edf8d92c0a44dc1eba73bdaf18cb6107088133610e52565b507f232aa753920d876dd52c6464ae9dec228a3cfdca7d146885d71d13b28dc65b9855565b60405163e985e9c560e01b81526001600160a01b0385811660048301523060248301526000919088169063e985e9c590604401602060405180830381865afa15801561077d573d6000803e3d6000fd5b505050506040513d601f19601f820116820180604052508101906107a19190611b90565b8061081d575060405163020604bf60e21b81526004810185905230906001600160a01b0389169063081812fc90602401602060405180830381865afa1580156107ee573d6000803e3d6000fd5b505050506040513d601f19601f820116820180604052508101906108129190611bb2565b6001600160a01b0316145b6108825760405162461bcd60e51b815260206004820152603060248201527f526573616c653a204d61726b6574706c6163652069736e277420617070726f7660448201526f656420666f72207472616e736665727360801b60648201526084016104bc565b868686868686610890611428565b6040516bffffffffffffffffffffffff19606098891b8116602083015296881b8716603482015294871b86166048860152605c850193909352607c84019190915290931b909116609c82015260b081019190915260d0016040516020818303038152906040528051906020012090509695505050505050565b826000600080516020611d74833981519152604051632474521560e21b81527f3c2519c4487d47714872f92cf90a50c25f5deaec2789dc2a497b1272df611db660048201523360248201529091506001600160a01b038316906391d1485490604401602060405180830381865afa158015610988573d6000803e3d6000fd5b505050506040513d601f19601f820116820180604052508101906109ac9190611b90565b80610a215750604051632474521560e21b8152600060048201523360248201526001600160a01b038316906391d1485490604401602060405180830381865afa1580156109fd573d6000803e3d6000fd5b505050506040513d601f19601f82011682018060405250810190610a219190611b90565b610a935760405162461bcd60e51b815260206004820152603d60248201527f526573616c653a204f6e6c7920746865206f776e6572206f66206120636f6e7460448201527f726163742063616e2073657420637573746f6d20726f79616c7469657300000060648201526084016104bc565b60005b83811015610b0d576001600160a01b0386166000908152600080516020611d7483398151915260205260409020858583818110610ad557610ad5611b7a565b835460018101855560009485526020909420604090910292909201926002029091019050610b038282611bcf565b5050600101610a96565b505050505050565b6040516331a9108f60e11b81526004810184905233906001600160a01b03861690636352211e90602401602060405180830381865afa158015610b5c573d6000803e3d6000fd5b505050506040513d601f19601f82011682018060405250810190610b809190611bb2565b6001600160a01b031614610be95760405162461bcd60e51b815260206004820152602a60248201527f526573616c653a204e6f74207468652063757272656e74206f776e6572206f66604482015269103a3432903a37b5b2b760b11b60648201526084016104bc565b7f232aa753920d876dd52c6464ae9dec228a3cfdca7d146885d71d13b28dc65b9a80546001808201835560008390527fa62c46310d289fa80c1ba7e34ec8c731947a3a6abd942dc427f9fc608de857e3600690920291820180546001600160a01b038981166001600160a01b03199283161783557fa62c46310d289fa80c1ba7e34ec8c731947a3a6abd942dc427f9fc608de857e5850180548316339081179091557fa62c46310d289fa80c1ba7e34ec8c731947a3a6abd942dc427f9fc608de857e686018a90557fa62c46310d289fa80c1ba7e34ec8c731947a3a6abd942dc427f9fc608de857e786018990557fa62c46310d289fa80c1ba7e34ec8c731947a3a6abd942dc427f9fc608de857e890950180549188169190921617905592547f85d0909ac42cb4f28bdac7af71b9af534efa326b2256cd44097577545b18ca6e928892909188918891610d3d9190611c1b565b604080516001600160a01b039687168152959094166020860152928401919091526060830152608082015260a0015b60405180910390a15050505050565b6000828152600160205260408120610d939083611474565b90505b92915050565b6000918252602082815260408084206001600160a01b0393909316845291905290205460ff1690565b6000818152600160205260408120610d9690611480565b600082815260208190526040902060010154610df88133610e52565b61044b8383610f4e565b7fd88b35d7427a01a8e16d8a129535b4cf3150edf8d92c0a44dc1eba73bdaf18cb610e2d8133610e52565b507f232aa753920d876dd52c6464ae9dec228a3cfdca7d146885d71d13b28dc65b9955565b610e5c8282610d9c565b6104cf57610e74816001600160a01b0316601461148a565b610e7f83602061148a565b604051602001610e90929190611c52565b60408051601f198184030181529082905262461bcd60e51b82526104bc91600401611cc7565b610ec08282610d9c565b6104cf576000828152602081815260408083206001600160a01b03851684529091529020805460ff19166001179055610ef63390565b6001600160a01b0316816001600160a01b0316837f2f8788117e7eff1d82e926ec794901d17c78024a50270940304540a733656f0d60405160405180910390a4600082815260016020526040902061044b908261160a565b610f588282610d9c565b156104cf576000828152602081815260408083206001600160a01b0385168085529252808320805460ff1916905551339285917ff6391f5c32d9c69d2a47ea670b442974b53935d1edc7fd64eb21e047a839171b9190a4600082815260016020526040902061044b908261161f565b600080600080610fd685611634565b6040805160008152602081018083528b905260ff8316918101919091526060810184905260808101839052929550909350915060019060a0016020604051602081039080840390855afa158015611031573d6000803e3d6000fd5b5050604051601f190151979650505050505050565b6001600160a01b0384166000908152600080516020611d7483398151915260205260409020348411156110bb5760405162461bcd60e51b815260206004820152601b60248201527f526573616c653a20496e73756666696369656e742066756e647321000000000060448201526064016104bc565b8360006110c88234611c1b565b111561110657336108fc6110dc8734611c1b565b6040518115909202916000818181858888f19350505050158015611104573d6000803e3d6000fd5b505b600354600090611117906064611cfa565b6004546111249088611cfa565b61112e9190611d11565b6040519091506001600160a01b0386169082156108fc029083906000818181858888f19350505050158015611167573d6000803e3d6000fd5b50806111738184611c1b565b600354909350611184906064611cfa565b6005546111919089611cfa565b61119b9190611d11565b6006546040519193506001600160a01b03169083156108fc029084906000818181858888f193505050501580156111d6573d6000803e3d6000fd5b506111e18282611d33565b90506111ed8284611c1b565b925060005b84548110156112bc57600354611209906064611cfa565b85828154811061121b5761121b611b7a565b906000526020600020906002020160010154896112389190611cfa565b6112429190611d11565b925084818154811061125657611256611b7a565b600091825260208220600290910201546040516001600160a01b039091169185156108fc02918691818181858888f1935050505015801561129b573d6000803e3d6000fd5b506112a68383611d33565b91506112b28385611c1b565b93506001016111f2565b506040516001600160a01b0386169084156108fc029085906000818181858888f193505050501580156112f3573d6000803e3d6000fd5b506112fe8382611d33565b90508681146113595760405162461bcd60e51b815260206004820152602160248201527f526573616c653a204572726f72207472616e7366657272696e672066756e64736044820152602160f81b60648201526084016104bc565b5050505050505050565b6040516323b872dd60e01b81526001600160a01b0384811660048301528381166024830152604482018690528616906323b872dd90606401600060405180830381600087803b1580156113b557600080fd5b505af11580156113c9573d6000803e3d6000fd5b5050604080516001600160a01b03808a168252808716602083015287169181019190915260608101879052608081018490527f2f0996da6c077604b5bde68e82fc6389b549462f3d448d4bda60ad38e1a73986925060a0019050610d6c565b6000611435606442611d11565b611440906064611cfa565b7f232aa753920d876dd52c6464ae9dec228a3cfdca7d146885d71d13b28dc65b985490915061146f9082611d33565b905090565b6000610d9383836116a8565b6000610d96825490565b606082600061149a846002611cfa565b6114a5906002611d33565b67ffffffffffffffff8111156114bd576114bd6118f1565b6040519080825280601f01601f1916602001820160405280156114e7576020820181803683370190505b509050600360fc1b8160008151811061150257611502611b7a565b60200101906001600160f81b031916908160001a905350600f60fb1b8160018151811061153157611531611b7a565b60200101906001600160f81b031916908160001a9053506000611555856002611cfa565b611560906001611d33565b90505b60018111156115d8576f181899199a1a9b1b9c1cb0b131b232b360811b83600f166010811061159457611594611b7a565b1a60f81b8282815181106115aa576115aa611b7a565b60200101906001600160f81b031916908160001a90535060049290921c916115d181611d46565b9050611563565b5081156116025760405163e22e27eb60e01b815260048101869052602481018590526044016104bc565b949350505050565b6000610d93836001600160a01b0384166116d2565b6000610d93836001600160a01b038416611721565b6000806000835160411461168a5760405162461bcd60e51b815260206004820181905260248201527f526573616c653a20696e76616c6964207369676e6174757265206c656e67746860448201526064016104bc565b50505060208101516040820151606090920151909260009190911a90565b60008260000182815481106116bf576116bf611b7a565b9060005260206000200154905092915050565b600081815260018301602052604081205461171957508154600181810184556000848152602080822090930184905584548482528286019093526040902091909155610d96565b506000610d96565b6000818152600183016020526040812054801561180a576000611745600183611c1b565b855490915060009061175990600190611c1b565b90508082146117be57600086600001828154811061177957611779611b7a565b906000526020600020015490508087600001848154811061179c5761179c611b7a565b6000918252602080832090910192909255918252600188019052604090208390555b85548690806117cf576117cf611d5d565b600190038181906000526020600020016000905590558560010160008681526020019081526020016000206000905560019350505050610d96565b6000915050610d96565b6001600160a01b038116811461182957600080fd5b50565b60006020828403121561183e57600080fd5b813561184981611814565b9392505050565b602080825282518282018190526000919060409081850190868401855b8281101561189b57815180516001600160a01b0316855286015186850152928401929085019060010161186d565b5091979650505050505050565b6000602082840312156118ba57600080fd5b5035919050565b600080604083850312156118d457600080fd5b8235915060208301356118e681611814565b809150509250929050565b634e487b7160e01b600052604160045260246000fd5b600080600080600080600060e0888a03121561192257600080fd5b873561192d81611814565b9650602088013561193d81611814565b9550604088013561194d81611814565b9450606088013593506080880135925060a088013561196b81611814565b915060c088013567ffffffffffffffff8082111561198857600080fd5b818a0191508a601f83011261199c57600080fd5b8135818111156119ae576119ae6118f1565b604051601f8201601f19908116603f011681019083821181831017156119d6576119d66118f1565b816040528281528d60208487010111156119ef57600080fd5b82602086016020830137600060208483010152809550505050505092959891949750929550565b60008060008060008060c08789031215611a2f57600080fd5b8635611a3a81611814565b95506020870135611a4a81611814565b94506040870135611a5a81611814565b9350606087013592506080870135915060a0870135611a7881611814565b809150509295509295509295565b600080600060408486031215611a9b57600080fd5b8335611aa681611814565b9250602084013567ffffffffffffffff80821115611ac357600080fd5b818601915086601f830112611ad757600080fd5b813581811115611ae657600080fd5b8760208260061b8501011115611afb57600080fd5b6020830194508093505050509250925092565b60008060008060808587031215611b2457600080fd5b8435611b2f81611814565b935060208501359250604085013591506060850135611b4d81611814565b939692955090935050565b60008060408385031215611b6b57600080fd5b50508035926020909101359150565b634e487b7160e01b600052603260045260246000fd5b600060208284031215611ba257600080fd5b8151801515811461184957600080fd5b600060208284031215611bc457600080fd5b815161184981611814565b8135611bda81611814565b81546001600160a01b0319166001600160a01b03919091161781556020919091013560019190910155565b634e487b7160e01b600052601160045260246000fd5b81810381811115610d9657610d96611c05565b60005b83811015611c49578181015183820152602001611c31565b50506000910152565b7f416363657373436f6e74726f6c3a206163636f756e7420000000000000000000815260008351611c8a816017850160208801611c2e565b7001034b99036b4b9b9b4b733903937b6329607d1b6017918401918201528351611cbb816028840160208801611c2e565b01602801949350505050565b6020815260008251806020840152611ce6816040850160208701611c2e565b601f01601f19169190910160400192915050565b8082028115828204841417610d9657610d96611c05565b600082611d2e57634e487b7160e01b600052601260045260246000fd5b500490565b80820180821115610d9657610d96611c05565b600081611d5557611d55611c05565b506000190190565b634e487b7160e01b600052603160045260246000fdfe232aa753920d876dd52c6464ae9dec228a3cfdca7d146885d71d13b28dc65b96a264697066735822122087ee282924737123af492fccebfd673cd14881b8ab89185285d57ab983aab64a64736f6c63430008190033",
  "devdoc": {
    "author": "Juan M. Sanchez M.",
    "details": "Uses signed messages for gasless offer postings",
    "errors": {
      "StringsInsufficientHexLength(uint256,uint256)": [
        {
          "details": "The `value` string doesn't fit in the specified `length`."
        }
      ]
    },
    "events": {
      "RoleAdminChanged(bytes32,bytes32,bytes32)": {
        "params": {
          "newAdminRole": "contains the new status of the role",
          "previousAdminRole": "contains the previous status of the role",
          "role": "Contains the role we want to update"
        }
      },
      "RoleGranted(bytes32,address,address)": {
        "params": {
          "account": "contains the address that we want to grant the role",
          "role": "Contains the role we want to update",
          "sender": "contains the address that is changing the role of the account"
        }
      },
      "RoleRevoked(bytes32,address,address)": {
        "params": {
          "account": "contains the address that we want to revoke the role",
          "role": "Contains the role we want to update",
          "sender": "contains the address that is changing the role of the account"
        }
      }
    },
    "kind": "dev",
    "methods": {
      "getRoleAdmin(bytes32)": {
        "params": {
          "role": "Contains the role that we want to verify"
        },
        "returns": {
          "_0": "bytes that indicates if an account has or not an admin role"
        }
      },
      "getRoleMember(bytes32,uint256)": {
        "params": {
          "index": "Contains the indexed position to verify inside the role members list",
          "role": "Contains the role that we want to verify"
        },
        "returns": {
          "_0": "address that indicates the address indexed in that position"
        }
      },
      "getRoleMemberCount(bytes32)": {
        "params": {
          "role": "Contains the role that we want to verify"
        },
        "returns": {
          "_0": "uint256 that indicates the total accounts with that role"
        }
      },
      "grantRole(bytes32,address)": {
        "details": "This function is only available to an account with an Admin role",
        "params": {
          "account": "Contains the account that has the role we want to update",
          "role": "Contains the role that we want to grant"
        }
      },
      "hasRole(bytes32,address)": {
        "params": {
          "account": "Contains the account address thay we want to verify",
          "role": "Contains the role that we want to verify"
        },
        "returns": {
          "_0": "bool that indicates if an account has or not a role"
        }
      },
      "renounceRole(bytes32,address)": {
        "details": "Currently you can only renounce to your own roles",
        "params": {
          "account": "Contains the account that has the role we want to update",
          "role": "Contains the role to remove from our account"
        }
      },
      "revokeRole(bytes32,address)": {
        "details": "This function is only available to an account with an Admin role",
        "params": {
          "account": "Contains the account that has the role we want to update",
          "role": "Contains the role that we want to revoke"
        }
      }
    },
    "title": "RAIR Diamond - Resale Marketplace facet",
    "version": 1
  },
  "userdoc": {
    "events": {
      "RoleAdminChanged(bytes32,bytes32,bytes32)": {
        "notice": "This event stores in the blockchain when we change an admin role"
      },
      "RoleGranted(bytes32,address,address)": {
        "notice": "This event stores in the blockchain when we grant a role"
      },
      "RoleRevoked(bytes32,address,address)": {
        "notice": "This event stores in the blockchain when we revoke a role"
      }
    },
    "kind": "user",
    "methods": {
      "getRoleAdmin(bytes32)": {
        "notice": "Allow us to check the admin role that contains a role"
      },
      "getRoleMember(bytes32,uint256)": {
        "notice": "Allow us to check the address of an indexed position for the role list"
      },
      "getRoleMemberCount(bytes32)": {
        "notice": "Allow us to check total members that has an selected role"
      },
      "grantRole(bytes32,address)": {
        "notice": "Allow us to grant a role to an account"
      },
      "hasRole(bytes32,address)": {
        "notice": "Allow us to check the if and account has a selected role"
      },
      "renounceRole(bytes32,address)": {
        "notice": "Allow us to renounce to a role"
      },
      "revokeRole(bytes32,address)": {
        "notice": "Allow us to revoke a role to an account"
      }
    },
    "notice": "Facet in charge of transfering NFTs and funds",
    "version": 1
  },
  "storageLayout": {
    "storage": [
      {
        "astId": 2420,
        "contract": "contracts/Marketplace/Facets/ResalesFacet.sol:ResaleFacet",
        "label": "s",
        "offset": 0,
        "slot": "0",
        "type": "t_struct(AppStorage)2401_storage"
      }
    ],
    "types": {
      "t_address": {
        "encoding": "inplace",
        "label": "address",
        "numberOfBytes": "20"
      },
      "t_array(t_bytes32)dyn_storage": {
        "base": "t_bytes32",
        "encoding": "dynamic_array",
        "label": "bytes32[]",
        "numberOfBytes": "32"
      },
      "t_array(t_struct(feeSplits)2345_storage)dyn_storage": {
        "base": "t_struct(feeSplits)2345_storage",
        "encoding": "dynamic_array",
        "label": "struct feeSplits[]",
        "numberOfBytes": "32"
      },
      "t_array(t_struct(mintingOffer)2358_storage)dyn_storage": {
        "base": "t_struct(mintingOffer)2358_storage",
        "encoding": "dynamic_array",
        "label": "struct mintingOffer[]",
        "numberOfBytes": "32"
      },
      "t_array(t_uint256)dyn_storage": {
        "base": "t_uint256",
        "encoding": "dynamic_array",
        "label": "uint256[]",
        "numberOfBytes": "32"
      },
      "t_bool": {
        "encoding": "inplace",
        "label": "bool",
        "numberOfBytes": "1"
      },
      "t_bytes32": {
        "encoding": "inplace",
        "label": "bytes32",
        "numberOfBytes": "32"
      },
      "t_mapping(t_address,t_array(t_uint256)dyn_storage)": {
        "encoding": "mapping",
        "key": "t_address",
        "label": "mapping(address => uint256[])",
        "numberOfBytes": "32",
        "value": "t_array(t_uint256)dyn_storage"
      },
      "t_mapping(t_address,t_bool)": {
        "encoding": "mapping",
        "key": "t_address",
        "label": "mapping(address => bool)",
        "numberOfBytes": "32",
        "value": "t_bool"
      },
      "t_mapping(t_address,t_mapping(t_uint256,t_uint256))": {
        "encoding": "mapping",
        "key": "t_address",
        "label": "mapping(address => mapping(uint256 => uint256))",
        "numberOfBytes": "32",
        "value": "t_mapping(t_uint256,t_uint256)"
      },
      "t_mapping(t_bytes32,t_struct(AddressSet)2046_storage)": {
        "encoding": "mapping",
        "key": "t_bytes32",
        "label": "mapping(bytes32 => struct EnumerableSet.AddressSet)",
        "numberOfBytes": "32",
        "value": "t_struct(AddressSet)2046_storage"
      },
      "t_mapping(t_bytes32,t_struct(RoleData)2365_storage)": {
        "encoding": "mapping",
        "key": "t_bytes32",
        "label": "mapping(bytes32 => struct RoleData)",
        "numberOfBytes": "32",
        "value": "t_struct(RoleData)2365_storage"
      },
      "t_mapping(t_bytes32,t_uint256)": {
        "encoding": "mapping",
        "key": "t_bytes32",
        "label": "mapping(bytes32 => uint256)",
        "numberOfBytes": "32",
        "value": "t_uint256"
      },
      "t_mapping(t_uint256,t_uint256)": {
        "encoding": "mapping",
        "key": "t_uint256",
        "label": "mapping(uint256 => uint256)",
        "numberOfBytes": "32",
        "value": "t_uint256"
      },
      "t_struct(AddressSet)2046_storage": {
        "encoding": "inplace",
        "label": "struct EnumerableSet.AddressSet",
        "members": [
          {
            "astId": 2045,
            "contract": "contracts/Marketplace/Facets/ResalesFacet.sol:ResaleFacet",
            "label": "_inner",
            "offset": 0,
            "slot": "0",
            "type": "t_struct(Set)1731_storage"
          }
        ],
        "numberOfBytes": "64"
      },
      "t_struct(AppStorage)2401_storage": {
        "encoding": "inplace",
        "label": "struct AppStorage",
        "members": [
          {
            "astId": 2370,
            "contract": "contracts/Marketplace/Facets/ResalesFacet.sol:ResaleFacet",
            "label": "_roles",
            "offset": 0,
            "slot": "0",
            "type": "t_mapping(t_bytes32,t_struct(RoleData)2365_storage)"
          },
          {
            "astId": 2375,
            "contract": "contracts/Marketplace/Facets/ResalesFacet.sol:ResaleFacet",
            "label": "_roleMembers",
            "offset": 0,
            "slot": "1",
            "type": "t_mapping(t_bytes32,t_struct(AddressSet)2046_storage)"
          },
          {
            "astId": 2377,
            "contract": "contracts/Marketplace/Facets/ResalesFacet.sol:ResaleFacet",
            "label": "decimals",
            "offset": 0,
            "slot": "2",
            "type": "t_uint16"
          },
          {
            "astId": 2379,
            "contract": "contracts/Marketplace/Facets/ResalesFacet.sol:ResaleFacet",
            "label": "decimalPow",
            "offset": 0,
            "slot": "3",
            "type": "t_uint256"
          },
          {
            "astId": 2381,
            "contract": "contracts/Marketplace/Facets/ResalesFacet.sol:ResaleFacet",
            "label": "nodeFee",
            "offset": 0,
            "slot": "4",
            "type": "t_uint256"
          },
          {
            "astId": 2383,
            "contract": "contracts/Marketplace/Facets/ResalesFacet.sol:ResaleFacet",
            "label": "treasuryFee",
            "offset": 0,
            "slot": "5",
            "type": "t_uint256"
          },
          {
            "astId": 2385,
            "contract": "contracts/Marketplace/Facets/ResalesFacet.sol:ResaleFacet",
            "label": "treasuryAddress",
            "offset": 0,
            "slot": "6",
            "type": "t_address"
          },
          {
            "astId": 2389,
            "contract": "contracts/Marketplace/Facets/ResalesFacet.sol:ResaleFacet",
            "label": "mintingOffers",
            "offset": 0,
            "slot": "7",
            "type": "t_array(t_struct(mintingOffer)2358_storage)dyn_storage"
          },
          {
            "astId": 2395,
            "contract": "contracts/Marketplace/Facets/ResalesFacet.sol:ResaleFacet",
            "label": "addressToRangeOffer",
            "offset": 0,
            "slot": "8",
            "type": "t_mapping(t_address,t_mapping(t_uint256,t_uint256))"
          },
          {
            "astId": 2400,
            "contract": "contracts/Marketplace/Facets/ResalesFacet.sol:ResaleFacet",
            "label": "addressToOffers",
            "offset": 0,
            "slot": "9",
            "type": "t_mapping(t_address,t_array(t_uint256)dyn_storage)"
          }
        ],
        "numberOfBytes": "320"
      },
      "t_struct(RoleData)2365_storage": {
        "encoding": "inplace",
        "label": "struct RoleData",
        "members": [
          {
            "astId": 2362,
            "contract": "contracts/Marketplace/Facets/ResalesFacet.sol:ResaleFacet",
            "label": "members",
            "offset": 0,
            "slot": "0",
            "type": "t_mapping(t_address,t_bool)"
          },
          {
            "astId": 2364,
            "contract": "contracts/Marketplace/Facets/ResalesFacet.sol:ResaleFacet",
            "label": "adminRole",
            "offset": 0,
            "slot": "1",
            "type": "t_bytes32"
          }
        ],
        "numberOfBytes": "64"
      },
      "t_struct(Set)1731_storage": {
        "encoding": "inplace",
        "label": "struct EnumerableSet.Set",
        "members": [
          {
            "astId": 1726,
            "contract": "contracts/Marketplace/Facets/ResalesFacet.sol:ResaleFacet",
            "label": "_values",
            "offset": 0,
            "slot": "0",
            "type": "t_array(t_bytes32)dyn_storage"
          },
          {
            "astId": 1730,
            "contract": "contracts/Marketplace/Facets/ResalesFacet.sol:ResaleFacet",
            "label": "_positions",
            "offset": 0,
            "slot": "1",
            "type": "t_mapping(t_bytes32,t_uint256)"
          }
        ],
        "numberOfBytes": "64"
      },
      "t_struct(feeSplits)2345_storage": {
        "encoding": "inplace",
        "label": "struct feeSplits",
        "members": [
          {
            "astId": 2340,
            "contract": "contracts/Marketplace/Facets/ResalesFacet.sol:ResaleFacet",
            "label": "recipient",
            "offset": 0,
            "slot": "0",
            "type": "t_address"
          },
          {
            "astId": 2342,
            "contract": "contracts/Marketplace/Facets/ResalesFacet.sol:ResaleFacet",
            "label": "canBeContract",
            "offset": 20,
            "slot": "0",
            "type": "t_bool"
          },
          {
            "astId": 2344,
            "contract": "contracts/Marketplace/Facets/ResalesFacet.sol:ResaleFacet",
            "label": "percentage",
            "offset": 0,
            "slot": "1",
            "type": "t_uint256"
          }
        ],
        "numberOfBytes": "64"
      },
      "t_struct(mintingOffer)2358_storage": {
        "encoding": "inplace",
        "label": "struct mintingOffer",
        "members": [
          {
            "astId": 2347,
            "contract": "contracts/Marketplace/Facets/ResalesFacet.sol:ResaleFacet",
            "label": "erc721Address",
            "offset": 0,
            "slot": "0",
            "type": "t_address"
          },
          {
            "astId": 2349,
            "contract": "contracts/Marketplace/Facets/ResalesFacet.sol:ResaleFacet",
            "label": "nodeAddress",
            "offset": 0,
            "slot": "1",
            "type": "t_address"
          },
          {
            "astId": 2351,
            "contract": "contracts/Marketplace/Facets/ResalesFacet.sol:ResaleFacet",
            "label": "rangeIndex",
            "offset": 0,
            "slot": "2",
            "type": "t_uint256"
          },
          {
            "astId": 2355,
            "contract": "contracts/Marketplace/Facets/ResalesFacet.sol:ResaleFacet",
            "label": "fees",
            "offset": 0,
            "slot": "3",
            "type": "t_array(t_struct(feeSplits)2345_storage)dyn_storage"
          },
          {
            "astId": 2357,
            "contract": "contracts/Marketplace/Facets/ResalesFacet.sol:ResaleFacet",
            "label": "visible",
            "offset": 0,
            "slot": "4",
            "type": "t_bool"
          }
        ],
        "numberOfBytes": "160"
      },
      "t_uint16": {
        "encoding": "inplace",
        "label": "uint16",
        "numberOfBytes": "2"
      },
      "t_uint256": {
        "encoding": "inplace",
        "label": "uint256",
        "numberOfBytes": "32"
      }
    }
  }
}