{
  "address": "0x22621969D0BE8658b63734f95C067a155666BA19",
  "abi": [
    {
      "anonymous": false,
      "inputs": [
        {
          "indexed": false,
          "internalType": "address",
          "name": "contractAddress",
          "type": "address"
        },
        {
          "indexed": false,
          "internalType": "uint256",
          "name": "priceToDeploy",
          "type": "uint256"
        },
        {
          "indexed": false,
          "internalType": "address",
          "name": "responsible",
          "type": "address"
        }
      ],
      "name": "AcceptedToken",
      "type": "event"
    },
    {
      "anonymous": false,
      "inputs": [
        {
          "indexed": false,
          "internalType": "address",
          "name": "erc777",
          "type": "address"
        },
        {
          "indexed": false,
          "internalType": "address",
          "name": "responsible",
          "type": "address"
        }
      ],
      "name": "RemovedToken",
      "type": "event"
    },
    {
      "anonymous": false,
      "inputs": [
        {
          "indexed": true,
          "internalType": "bytes32",
          "name": "role",
          "type": "bytes32"
        },
        {
          "indexed": true,
          "internalType": "bytes32",
          "name": "previousAdminRole",
          "type": "bytes32"
        },
        {
          "indexed": true,
          "internalType": "bytes32",
          "name": "newAdminRole",
          "type": "bytes32"
        }
      ],
      "name": "RoleAdminChanged",
      "type": "event"
    },
    {
      "anonymous": false,
      "inputs": [
        {
          "indexed": true,
          "internalType": "bytes32",
          "name": "role",
          "type": "bytes32"
        },
        {
          "indexed": true,
          "internalType": "address",
          "name": "account",
          "type": "address"
        },
        {
          "indexed": true,
          "internalType": "address",
          "name": "sender",
          "type": "address"
        }
      ],
      "name": "RoleGranted",
      "type": "event"
    },
    {
      "anonymous": false,
      "inputs": [
        {
          "indexed": true,
          "internalType": "bytes32",
          "name": "role",
          "type": "bytes32"
        },
        {
          "indexed": true,
          "internalType": "address",
          "name": "account",
          "type": "address"
        },
        {
          "indexed": true,
          "internalType": "address",
          "name": "sender",
          "type": "address"
        }
      ],
      "name": "RoleRevoked",
      "type": "event"
    },
    {
      "anonymous": false,
      "inputs": [
        {
          "indexed": false,
          "internalType": "address",
          "name": "recipient",
          "type": "address"
        },
        {
          "indexed": false,
          "internalType": "address",
          "name": "erc777",
          "type": "address"
        },
        {
          "indexed": false,
          "internalType": "uint256",
          "name": "amount",
          "type": "uint256"
        }
      ],
      "name": "WithdrawTokens",
      "type": "event"
    },
    {
      "inputs": [
        {
          "internalType": "address",
          "name": "_erc777Address",
          "type": "address"
        },
        {
          "internalType": "uint256",
          "name": "_priceToDeploy",
          "type": "uint256"
        }
      ],
      "name": "acceptNewToken",
      "outputs": [],
      "stateMutability": "nonpayable",
      "type": "function"
    },
    {
      "inputs": [
        {
          "internalType": "address",
          "name": "erc777",
          "type": "address"
        }
      ],
      "name": "getDeploymentCost",
      "outputs": [
        {
          "internalType": "uint256",
          "name": "price",
          "type": "uint256"
        }
      ],
      "stateMutability": "view",
      "type": "function"
    },
    {
      "inputs": [
        {
          "internalType": "bytes32",
          "name": "role",
          "type": "bytes32"
        }
      ],
      "name": "getRoleAdmin",
      "outputs": [
        {
          "internalType": "bytes32",
          "name": "",
          "type": "bytes32"
        }
      ],
      "stateMutability": "view",
      "type": "function"
    },
    {
      "inputs": [
        {
          "internalType": "bytes32",
          "name": "role",
          "type": "bytes32"
        },
        {
          "internalType": "uint256",
          "name": "index",
          "type": "uint256"
        }
      ],
      "name": "getRoleMember",
      "outputs": [
        {
          "internalType": "address",
          "name": "",
          "type": "address"
        }
      ],
      "stateMutability": "view",
      "type": "function"
    },
    {
      "inputs": [
        {
          "internalType": "bytes32",
          "name": "role",
          "type": "bytes32"
        }
      ],
      "name": "getRoleMemberCount",
      "outputs": [
        {
          "internalType": "uint256",
          "name": "",
          "type": "uint256"
        }
      ],
      "stateMutability": "view",
      "type": "function"
    },
    {
      "inputs": [
        {
          "internalType": "bytes32",
          "name": "role",
          "type": "bytes32"
        },
        {
          "internalType": "address",
          "name": "account",
          "type": "address"
        }
      ],
      "name": "grantRole",
      "outputs": [],
      "stateMutability": "nonpayable",
      "type": "function"
    },
    {
      "inputs": [
        {
          "internalType": "bytes32",
          "name": "role",
          "type": "bytes32"
        },
        {
          "internalType": "address",
          "name": "account",
          "type": "address"
        }
      ],
      "name": "hasRole",
      "outputs": [
        {
          "internalType": "bool",
          "name": "",
          "type": "bool"
        }
      ],
      "stateMutability": "view",
      "type": "function"
    },
    {
      "inputs": [
        {
          "internalType": "address",
          "name": "_erc777Address",
          "type": "address"
        }
      ],
      "name": "removeToken",
      "outputs": [],
      "stateMutability": "nonpayable",
      "type": "function"
    },
    {
      "inputs": [
        {
          "internalType": "bytes32",
          "name": "role",
          "type": "bytes32"
        },
        {
          "internalType": "address",
          "name": "account",
          "type": "address"
        }
      ],
      "name": "renounceRole",
      "outputs": [],
      "stateMutability": "nonpayable",
      "type": "function"
    },
    {
      "inputs": [
        {
          "internalType": "bytes32",
          "name": "role",
          "type": "bytes32"
        },
        {
          "internalType": "address",
          "name": "account",
          "type": "address"
        }
      ],
      "name": "revokeRole",
      "outputs": [],
      "stateMutability": "nonpayable",
      "type": "function"
    },
    {
      "inputs": [
        {
          "internalType": "address",
          "name": "erc777",
          "type": "address"
        },
        {
          "internalType": "uint256",
          "name": "amount",
          "type": "uint256"
        }
      ],
      "name": "withdrawTokens",
      "outputs": [],
      "stateMutability": "nonpayable",
      "type": "function"
    }
  ],
  "transactionHash": "0x28d9d595f43883454ad44a1f90147c273da830cde11ddafd69e2a776dd76bd47",
  "args": [],
  "numDeployments": 3,
  "solcInputHash": "cffcd730e399a9a4fc62800a3a35ab22",
  "bytecode": "0x608060405234801561001057600080fd5b50610e71806100206000396000f3fe608060405234801561001057600080fd5b50600436106100a95760003560e01c80635fa7b584116100715780635fa7b58414610157578063638958dd1461016a5780639010d07c1461017d57806391d14854146101a8578063ca15c873146101cb578063d547741f146101de57600080fd5b806306b091f9146100ae5780631c7d25d1146100c3578063248a9ca31461011e5780632f2ff15d1461013157806336568abe14610144575b600080fd5b6100c16100bc366004610b9b565b6101f1565b005b61010b6100d1366004610bc5565b6001600160a01b031660009081527f3178d75a97455c722bbe6e3619364b9b8f446a5900d6fbcc8d92ea722276883d602052604090205490565b6040519081526020015b60405180910390f35b61010b61012c366004610be0565b61039e565b6100c161013f366004610bf9565b6103c0565b6100c1610152366004610bf9565b6103e2565b6100c1610165366004610bc5565b610460565b6100c1610178366004610b9b565b610529565b61019061018b366004610c25565b610600565b6040516001600160a01b039091168152602001610115565b6101bb6101b6366004610bf9565b61062e565b6040519015158152602001610115565b61010b6101d9366004610be0565b610666565b6100c16101ec366004610bf9565b61068a565b7f6270edb7c868f86fda4adedba75108201087268ea345934db8bad688e1feb91b61021c81336106a7565b6102467fe33cd123f09d9a4e3b34162dcaba99ee0b73fe748beb8ca15f84a66b0c1472308461062e565b6102c85760405162461bcd60e51b815260206004820152604260248201527f5241495220466163746f72793a2053706563696669656420636f6e747261637460448201527f2069736e277420616e20617070726f7665642065726337373720636f6e74726160648201526118dd60f21b608482015260a4015b60405180910390fd5b604080518082018252601081526f466163746f727920576974686472617760801b60208201529051634decdde360e11b81526001600160a01b03851691639bd9bbc69161031c913391879190600401610c97565b600060405180830381600087803b15801561033657600080fd5b505af115801561034a573d6000803e3d6000fd5b5050604080513381526001600160a01b03871660208201529081018590527f70082d08c003c5341f2401bec1c2ae1dbcdc29ae17e9cc5633fa617caa8acd4c925060600190505b60405180910390a1505050565b6000908152600080516020610dfc833981519152602052604090206001015490565b6103c98261039e565b6103d381336106a7565b6103dd838361070b565b505050565b6001600160a01b03811633146104525760405162461bcd60e51b815260206004820152602f60248201527f416363657373436f6e74726f6c3a2063616e206f6e6c792072656e6f756e636560448201526e103937b632b9903337b91039b2b63360891b60648201526084016102bf565b61045c82826107a2565b5050565b7f6270edb7c868f86fda4adedba75108201087268ea345934db8bad688e1feb91b61048b81336106a7565b7f3178d75a97455c722bbe6e3619364b9b8f446a5900d6fbcc8d92ea722276883a6104d67fe33cd123f09d9a4e3b34162dcaba99ee0b73fe748beb8ca15f84a66b0c1472308461068a565b6001600160a01b0383166000818152600383016020908152604080832092909255815192835233908301527f703f7e3f084d5b8dcc12fddcfd9a70d65b6b21ec7659e4608dbaf4419ede3ad09101610391565b7f6270edb7c868f86fda4adedba75108201087268ea345934db8bad688e1feb91b61055481336106a7565b7f3178d75a97455c722bbe6e3619364b9b8f446a5900d6fbcc8d92ea722276883a61059f7fe33cd123f09d9a4e3b34162dcaba99ee0b73fe748beb8ca15f84a66b0c147230856103c0565b6001600160a01b0384166000818152600383016020908152604091829020869055815192835282018590523382820152517f1dfbc08fdb736bd9ac2161460c84943a6c681b26e3b4184c9456b3a0530f118f9181900360600190a150505050565b6000828152600080516020610e1c833981519152602052604081206106259083610837565b90505b92915050565b6000918252600080516020610dfc833981519152602090815260408084206001600160a01b0393909316845291905290205460ff1690565b6000818152600080516020610e1c8339815191526020526040812061062890610843565b6106938261039e565b61069d81336106a7565b6103dd83836107a2565b6106b1828261062e565b61045c576106c9816001600160a01b0316601461084d565b6106d483602061084d565b6040516020016106e5929190610cc7565b60408051601f198184030181529082905262461bcd60e51b82526102bf91600401610d3c565b610715828261062e565b61045c576000828152600080516020610dfc833981519152602090815260408083206001600160a01b0385168085529252808320805460ff1916600117905551339285917f2f8788117e7eff1d82e926ec794901d17c78024a50270940304540a733656f0d9190a46000828152600080516020610e1c833981519152602052604090206103dd90826109e9565b6107ac828261062e565b1561045c576000828152600080516020610dfc833981519152602090815260408083206001600160a01b0385168085529252808320805460ff1916905551339285917ff6391f5c32d9c69d2a47ea670b442974b53935d1edc7fd64eb21e047a839171b9190a46000828152600080516020610e1c833981519152602052604090206103dd90826109fe565b60006106258383610a13565b6000610628825490565b6060600061085c836002610d65565b610867906002610d7c565b67ffffffffffffffff81111561087f5761087f610d8f565b6040519080825280601f01601f1916602001820160405280156108a9576020820181803683370190505b509050600360fc1b816000815181106108c4576108c4610da5565b60200101906001600160f81b031916908160001a905350600f60fb1b816001815181106108f3576108f3610da5565b60200101906001600160f81b031916908160001a9053506000610917846002610d65565b610922906001610d7c565b90505b600181111561099a576f181899199a1a9b1b9c1cb0b131b232b360811b85600f166010811061095657610956610da5565b1a60f81b82828151811061096c5761096c610da5565b60200101906001600160f81b031916908160001a90535060049490941c9361099381610dbb565b9050610925565b5083156106255760405162461bcd60e51b815260206004820181905260248201527f537472696e67733a20686578206c656e67746820696e73756666696369656e7460448201526064016102bf565b6000610625836001600160a01b038416610a3d565b6000610625836001600160a01b038416610a8c565b6000826000018281548110610a2a57610a2a610da5565b9060005260206000200154905092915050565b6000818152600183016020526040812054610a8457508154600181810184556000848152602080822090930184905584548482528286019093526040902091909155610628565b506000610628565b60008181526001830160205260408120548015610b75576000610ab0600183610dd2565b8554909150600090610ac490600190610dd2565b9050818114610b29576000866000018281548110610ae457610ae4610da5565b9060005260206000200154905080876000018481548110610b0757610b07610da5565b6000918252602080832090910192909255918252600188019052604090208390555b8554869080610b3a57610b3a610de5565b600190038181906000526020600020016000905590558560010160008681526020019081526020016000206000905560019350505050610628565b6000915050610628565b80356001600160a01b0381168114610b9657600080fd5b919050565b60008060408385031215610bae57600080fd5b610bb783610b7f565b946020939093013593505050565b600060208284031215610bd757600080fd5b61062582610b7f565b600060208284031215610bf257600080fd5b5035919050565b60008060408385031215610c0c57600080fd5b82359150610c1c60208401610b7f565b90509250929050565b60008060408385031215610c3857600080fd5b50508035926020909101359150565b60005b83811015610c62578181015183820152602001610c4a565b50506000910152565b60008151808452610c83816020860160208601610c47565b601f01601f19169290920160200192915050565b60018060a01b0384168152826020820152606060408201526000610cbe6060830184610c6b565b95945050505050565b7f416363657373436f6e74726f6c3a206163636f756e7420000000000000000000815260008351610cff816017850160208801610c47565b7001034b99036b4b9b9b4b733903937b6329607d1b6017918401918201528351610d30816028840160208801610c47565b01602801949350505050565b6020815260006106256020830184610c6b565b634e487b7160e01b600052601160045260246000fd5b808202811582820484141761062857610628610d4f565b8082018082111561062857610628610d4f565b634e487b7160e01b600052604160045260246000fd5b634e487b7160e01b600052603260045260246000fd5b600081610dca57610dca610d4f565b506000190190565b8181038181111561062857610628610d4f565b634e487b7160e01b600052603160045260246000fdfe4f4f658137f4e10317e1a22624c2b114af7563a20fb2e3444ae2ac2342d457d04f4f658137f4e10317e1a22624c2b114af7563a20fb2e3444ae2ac2342d457d1a26469706673582212200fc44ee17b819f9e46ebd8c45f7749854ab87c52d379df38eb21ae765f39a52564736f6c63430008130033",
  "devdoc": {
    "events": {
      "AcceptedToken(address,uint256,address)": {
        "params": {
          "contractAddress": "contains the address of the tokens contract ",
          "priceToDeploy": "contains the deployment cost for the token",
          "responsible": "address of the person that implement the new token"
        }
      },
      "RemovedToken(address,address)": {
        "params": {
          "erc777": "contains the address of the tokens contract to remove",
          "responsible": "address of the person that revokes the token"
        }
      },
      "WithdrawTokens(address,address,uint256)": {
        "params": {
          "amount": "total of tokens to recieve",
          "erc777": "contains the address of the tokens contract to withdraw",
          "recipient": "address who will recieve the tokens"
        }
      }
    },
    "kind": "dev",
    "methods": {
      "acceptNewToken(address,uint256)": {
        "params": {
          "_erc777Address": "Address of the new Token",
          "_priceToDeploy": "Price of deployment for the new Token"
        }
      },
      "getDeploymentCost(address)": {
        "params": {
          "erc777": "Contains the facet addresses and function selectors"
        },
        "returns": {
          "price": "\tShows the price of deployment for the token"
        }
      },
      "removeToken(address)": {
        "params": {
          "_erc777Address": "Address of the Token"
        }
      },
      "withdrawTokens(address,uint256)": {
        "details": "If the contract has less than the amount, the ERC777 contract will revertAccessControl makes sure only an OWNER can withdraw",
        "params": {
          "amount": "Amount of tokens to withdraw",
          "erc777": "Address of the ERC777 contract"
        }
      }
    },
    "title": "Our Facet creator for tokens",
    "version": 1
  },
  "userdoc": {
    "events": {
      "AcceptedToken(address,uint256,address)": {
        "notice": "This event stores in the blockchain when a new token is indexed as accepted "
      },
      "RemovedToken(address,address)": {
        "notice": "This event stores in the blockchain when a token is revoked"
      },
      "WithdrawTokens(address,address,uint256)": {
        "notice": "This event stores in the blockchain when the tokens are withdrawed from the contract"
      }
    },
    "kind": "user",
    "methods": {
      "acceptNewToken(address,uint256)": {
        "notice": "Adds an address to the list of allowed minters"
      },
      "getDeploymentCost(address)": {
        "notice": "Returns the number of required tokens, given an erc777 address"
      },
      "removeToken(address)": {
        "notice": "Removes an address from the list of allowed minters"
      },
      "withdrawTokens(address,uint256)": {
        "notice": "Transfers tokens from the factory to any of the OWNER addresses"
      }
    },
    "notice": "You can use this contract to manage the use of tokens",
    "version": 1
  },
  "storageLayout": {
    "storage": [],
    "types": null
  }
}