{
  "address": "0xe3fFbD303ccC7733e501713aAF06E46312B22D3E",
  "abi": [
    {
      "inputs": [
        {
          "internalType": "uint256",
          "name": "initialSupply",
          "type": "uint256"
        },
        {
          "internalType": "uint256",
          "name": "maximumSupply_",
          "type": "uint256"
        },
        {
          "internalType": "address",
          "name": "owner",
          "type": "address"
        },
        {
          "internalType": "address[]",
          "name": "_defaultOperators",
          "type": "address[]"
        }
      ],
      "stateMutability": "nonpayable",
      "type": "constructor"
    },
    {
      "anonymous": false,
      "inputs": [
        {
          "indexed": true,
          "internalType": "address",
          "name": "owner",
          "type": "address"
        },
        {
          "indexed": true,
          "internalType": "address",
          "name": "spender",
          "type": "address"
        },
        {
          "indexed": false,
          "internalType": "uint256",
          "name": "value",
          "type": "uint256"
        }
      ],
      "name": "Approval",
      "type": "event"
    },
    {
      "anonymous": false,
      "inputs": [
        {
          "indexed": true,
          "internalType": "address",
          "name": "operator",
          "type": "address"
        },
        {
          "indexed": true,
          "internalType": "address",
          "name": "tokenHolder",
          "type": "address"
        }
      ],
      "name": "AuthorizedOperator",
      "type": "event"
    },
    {
      "anonymous": false,
      "inputs": [
        {
          "indexed": true,
          "internalType": "address",
          "name": "operator",
          "type": "address"
        },
        {
          "indexed": true,
          "internalType": "address",
          "name": "from",
          "type": "address"
        },
        {
          "indexed": false,
          "internalType": "uint256",
          "name": "amount",
          "type": "uint256"
        },
        {
          "indexed": false,
          "internalType": "bytes",
          "name": "data",
          "type": "bytes"
        },
        {
          "indexed": false,
          "internalType": "bytes",
          "name": "operatorData",
          "type": "bytes"
        }
      ],
      "name": "Burned",
      "type": "event"
    },
    {
      "anonymous": false,
      "inputs": [
        {
          "indexed": true,
          "internalType": "address",
          "name": "operator",
          "type": "address"
        },
        {
          "indexed": true,
          "internalType": "address",
          "name": "to",
          "type": "address"
        },
        {
          "indexed": false,
          "internalType": "uint256",
          "name": "amount",
          "type": "uint256"
        },
        {
          "indexed": false,
          "internalType": "bytes",
          "name": "data",
          "type": "bytes"
        },
        {
          "indexed": false,
          "internalType": "bytes",
          "name": "operatorData",
          "type": "bytes"
        }
      ],
      "name": "Minted",
      "type": "event"
    },
    {
      "anonymous": false,
      "inputs": [
        {
          "indexed": true,
          "internalType": "address",
          "name": "operator",
          "type": "address"
        },
        {
          "indexed": true,
          "internalType": "address",
          "name": "tokenHolder",
          "type": "address"
        }
      ],
      "name": "RevokedOperator",
      "type": "event"
    },
    {
      "anonymous": false,
      "inputs": [
        {
          "indexed": true,
          "internalType": "bytes32",
          "name": "role",
          "type": "bytes32"
        },
        {
          "indexed": true,
          "internalType": "bytes32",
          "name": "previousAdminRole",
          "type": "bytes32"
        },
        {
          "indexed": true,
          "internalType": "bytes32",
          "name": "newAdminRole",
          "type": "bytes32"
        }
      ],
      "name": "RoleAdminChanged",
      "type": "event"
    },
    {
      "anonymous": false,
      "inputs": [
        {
          "indexed": true,
          "internalType": "bytes32",
          "name": "role",
          "type": "bytes32"
        },
        {
          "indexed": true,
          "internalType": "address",
          "name": "account",
          "type": "address"
        },
        {
          "indexed": true,
          "internalType": "address",
          "name": "sender",
          "type": "address"
        }
      ],
      "name": "RoleGranted",
      "type": "event"
    },
    {
      "anonymous": false,
      "inputs": [
        {
          "indexed": true,
          "internalType": "bytes32",
          "name": "role",
          "type": "bytes32"
        },
        {
          "indexed": true,
          "internalType": "address",
          "name": "account",
          "type": "address"
        },
        {
          "indexed": true,
          "internalType": "address",
          "name": "sender",
          "type": "address"
        }
      ],
      "name": "RoleRevoked",
      "type": "event"
    },
    {
      "anonymous": false,
      "inputs": [
        {
          "indexed": true,
          "internalType": "address",
          "name": "operator",
          "type": "address"
        },
        {
          "indexed": true,
          "internalType": "address",
          "name": "from",
          "type": "address"
        },
        {
          "indexed": true,
          "internalType": "address",
          "name": "to",
          "type": "address"
        },
        {
          "indexed": false,
          "internalType": "uint256",
          "name": "amount",
          "type": "uint256"
        },
        {
          "indexed": false,
          "internalType": "bytes",
          "name": "data",
          "type": "bytes"
        },
        {
          "indexed": false,
          "internalType": "bytes",
          "name": "operatorData",
          "type": "bytes"
        }
      ],
      "name": "Sent",
      "type": "event"
    },
    {
      "anonymous": false,
      "inputs": [
        {
          "indexed": true,
          "internalType": "address",
          "name": "from",
          "type": "address"
        },
        {
          "indexed": true,
          "internalType": "address",
          "name": "to",
          "type": "address"
        },
        {
          "indexed": false,
          "internalType": "uint256",
          "name": "value",
          "type": "uint256"
        }
      ],
      "name": "Transfer",
      "type": "event"
    },
    {
      "inputs": [],
      "name": "DEFAULT_ADMIN_ROLE",
      "outputs": [
        {
          "internalType": "bytes32",
          "name": "",
          "type": "bytes32"
        }
      ],
      "stateMutability": "view",
      "type": "function"
    },
    {
      "inputs": [],
      "name": "MINTER",
      "outputs": [
        {
          "internalType": "bytes32",
          "name": "",
          "type": "bytes32"
        }
      ],
      "stateMutability": "view",
      "type": "function"
    },
    {
      "inputs": [
        {
          "internalType": "address",
          "name": "holder",
          "type": "address"
        },
        {
          "internalType": "address",
          "name": "spender",
          "type": "address"
        }
      ],
      "name": "allowance",
      "outputs": [
        {
          "internalType": "uint256",
          "name": "",
          "type": "uint256"
        }
      ],
      "stateMutability": "view",
      "type": "function"
    },
    {
      "inputs": [
        {
          "internalType": "address",
          "name": "spender",
          "type": "address"
        },
        {
          "internalType": "uint256",
          "name": "value",
          "type": "uint256"
        }
      ],
      "name": "approve",
      "outputs": [
        {
          "internalType": "bool",
          "name": "",
          "type": "bool"
        }
      ],
      "stateMutability": "nonpayable",
      "type": "function"
    },
    {
      "inputs": [
        {
          "internalType": "address",
          "name": "operator",
          "type": "address"
        }
      ],
      "name": "authorizeOperator",
      "outputs": [],
      "stateMutability": "nonpayable",
      "type": "function"
    },
    {
      "inputs": [
        {
          "internalType": "address",
          "name": "tokenHolder",
          "type": "address"
        }
      ],
      "name": "balanceOf",
      "outputs": [
        {
          "internalType": "uint256",
          "name": "",
          "type": "uint256"
        }
      ],
      "stateMutability": "view",
      "type": "function"
    },
    {
      "inputs": [
        {
          "internalType": "uint256",
          "name": "amount",
          "type": "uint256"
        },
        {
          "internalType": "bytes",
          "name": "data",
          "type": "bytes"
        }
      ],
      "name": "burn",
      "outputs": [],
      "stateMutability": "nonpayable",
      "type": "function"
    },
    {
      "inputs": [],
      "name": "decimals",
      "outputs": [
        {
          "internalType": "uint8",
          "name": "",
          "type": "uint8"
        }
      ],
      "stateMutability": "pure",
      "type": "function"
    },
    {
      "inputs": [],
      "name": "defaultOperators",
      "outputs": [
        {
          "internalType": "address[]",
          "name": "",
          "type": "address[]"
        }
      ],
      "stateMutability": "view",
      "type": "function"
    },
    {
      "inputs": [
        {
          "internalType": "bytes32",
          "name": "role",
          "type": "bytes32"
        }
      ],
      "name": "getRoleAdmin",
      "outputs": [
        {
          "internalType": "bytes32",
          "name": "",
          "type": "bytes32"
        }
      ],
      "stateMutability": "view",
      "type": "function"
    },
    {
      "inputs": [
        {
          "internalType": "bytes32",
          "name": "role",
          "type": "bytes32"
        },
        {
          "internalType": "uint256",
          "name": "index",
          "type": "uint256"
        }
      ],
      "name": "getRoleMember",
      "outputs": [
        {
          "internalType": "address",
          "name": "",
          "type": "address"
        }
      ],
      "stateMutability": "view",
      "type": "function"
    },
    {
      "inputs": [
        {
          "internalType": "bytes32",
          "name": "role",
          "type": "bytes32"
        }
      ],
      "name": "getRoleMemberCount",
      "outputs": [
        {
          "internalType": "uint256",
          "name": "",
          "type": "uint256"
        }
      ],
      "stateMutability": "view",
      "type": "function"
    },
    {
      "inputs": [
        {
          "internalType": "bytes32",
          "name": "role",
          "type": "bytes32"
        },
        {
          "internalType": "address",
          "name": "account",
          "type": "address"
        }
      ],
      "name": "grantRole",
      "outputs": [],
      "stateMutability": "nonpayable",
      "type": "function"
    },
    {
      "inputs": [],
      "name": "granularity",
      "outputs": [
        {
          "internalType": "uint256",
          "name": "",
          "type": "uint256"
        }
      ],
      "stateMutability": "view",
      "type": "function"
    },
    {
      "inputs": [
        {
          "internalType": "bytes32",
          "name": "role",
          "type": "bytes32"
        },
        {
          "internalType": "address",
          "name": "account",
          "type": "address"
        }
      ],
      "name": "hasRole",
      "outputs": [
        {
          "internalType": "bool",
          "name": "",
          "type": "bool"
        }
      ],
      "stateMutability": "view",
      "type": "function"
    },
    {
      "inputs": [
        {
          "internalType": "address",
          "name": "operator",
          "type": "address"
        },
        {
          "internalType": "address",
          "name": "tokenHolder",
          "type": "address"
        }
      ],
      "name": "isOperatorFor",
      "outputs": [
        {
          "internalType": "bool",
          "name": "",
          "type": "bool"
        }
      ],
      "stateMutability": "view",
      "type": "function"
    },
    {
      "inputs": [],
      "name": "maximumSupply",
      "outputs": [
        {
          "internalType": "uint256",
          "name": "",
          "type": "uint256"
        }
      ],
      "stateMutability": "view",
      "type": "function"
    },
    {
      "inputs": [
        {
          "internalType": "uint256",
          "name": "amount",
          "type": "uint256"
        },
        {
          "internalType": "address",
          "name": "recipient",
          "type": "address"
        }
      ],
      "name": "mint",
      "outputs": [],
      "stateMutability": "nonpayable",
      "type": "function"
    },
    {
      "inputs": [],
      "name": "name",
      "outputs": [
        {
          "internalType": "string",
          "name": "",
          "type": "string"
        }
      ],
      "stateMutability": "view",
      "type": "function"
    },
    {
      "inputs": [
        {
          "internalType": "address",
          "name": "account",
          "type": "address"
        },
        {
          "internalType": "uint256",
          "name": "amount",
          "type": "uint256"
        },
        {
          "internalType": "bytes",
          "name": "data",
          "type": "bytes"
        },
        {
          "internalType": "bytes",
          "name": "operatorData",
          "type": "bytes"
        }
      ],
      "name": "operatorBurn",
      "outputs": [],
      "stateMutability": "nonpayable",
      "type": "function"
    },
    {
      "inputs": [
        {
          "internalType": "address",
          "name": "sender",
          "type": "address"
        },
        {
          "internalType": "address",
          "name": "recipient",
          "type": "address"
        },
        {
          "internalType": "uint256",
          "name": "amount",
          "type": "uint256"
        },
        {
          "internalType": "bytes",
          "name": "data",
          "type": "bytes"
        },
        {
          "internalType": "bytes",
          "name": "operatorData",
          "type": "bytes"
        }
      ],
      "name": "operatorSend",
      "outputs": [],
      "stateMutability": "nonpayable",
      "type": "function"
    },
    {
      "inputs": [
        {
          "internalType": "bytes32",
          "name": "role",
          "type": "bytes32"
        },
        {
          "internalType": "address",
          "name": "account",
          "type": "address"
        }
      ],
      "name": "renounceRole",
      "outputs": [],
      "stateMutability": "nonpayable",
      "type": "function"
    },
    {
      "inputs": [
        {
          "internalType": "address",
          "name": "operator",
          "type": "address"
        }
      ],
      "name": "revokeOperator",
      "outputs": [],
      "stateMutability": "nonpayable",
      "type": "function"
    },
    {
      "inputs": [
        {
          "internalType": "bytes32",
          "name": "role",
          "type": "bytes32"
        },
        {
          "internalType": "address",
          "name": "account",
          "type": "address"
        }
      ],
      "name": "revokeRole",
      "outputs": [],
      "stateMutability": "nonpayable",
      "type": "function"
    },
    {
      "inputs": [
        {
          "internalType": "address",
          "name": "recipient",
          "type": "address"
        },
        {
          "internalType": "uint256",
          "name": "amount",
          "type": "uint256"
        },
        {
          "internalType": "bytes",
          "name": "data",
          "type": "bytes"
        }
      ],
      "name": "send",
      "outputs": [],
      "stateMutability": "nonpayable",
      "type": "function"
    },
    {
      "inputs": [
        {
          "internalType": "bytes4",
          "name": "interfaceId",
          "type": "bytes4"
        }
      ],
      "name": "supportsInterface",
      "outputs": [
        {
          "internalType": "bool",
          "name": "",
          "type": "bool"
        }
      ],
      "stateMutability": "view",
      "type": "function"
    },
    {
      "inputs": [],
      "name": "symbol",
      "outputs": [
        {
          "internalType": "string",
          "name": "",
          "type": "string"
        }
      ],
      "stateMutability": "view",
      "type": "function"
    },
    {
      "inputs": [],
      "name": "totalSupply",
      "outputs": [
        {
          "internalType": "uint256",
          "name": "",
          "type": "uint256"
        }
      ],
      "stateMutability": "view",
      "type": "function"
    },
    {
      "inputs": [
        {
          "internalType": "address",
          "name": "recipient",
          "type": "address"
        },
        {
          "internalType": "uint256",
          "name": "amount",
          "type": "uint256"
        }
      ],
      "name": "transfer",
      "outputs": [
        {
          "internalType": "bool",
          "name": "",
          "type": "bool"
        }
      ],
      "stateMutability": "nonpayable",
      "type": "function"
    },
    {
      "inputs": [
        {
          "internalType": "address",
          "name": "holder",
          "type": "address"
        },
        {
          "internalType": "address",
          "name": "recipient",
          "type": "address"
        },
        {
          "internalType": "uint256",
          "name": "amount",
          "type": "uint256"
        }
      ],
      "name": "transferFrom",
      "outputs": [
        {
          "internalType": "bool",
          "name": "",
          "type": "bool"
        }
      ],
      "stateMutability": "nonpayable",
      "type": "function"
    },
    {
      "stateMutability": "payable",
      "type": "receive"
    }
  ],
  "transactionHash": "0xc7579100f5a8e808c45919fd7f9de5bab359ef48d284efaba759af4b3ea24e7e",
  "args": [
    "222000000000000000000000000",
    "400000000000000000000000000",
    "0xf3FC93b77A1A39610aa800734dfD017Ca293e53d",
    [
      "0xf3FC93b77A1A39610aa800734dfD017Ca293e53d",
      "0xF31263051C09BCC2853DaC78185E1e5C59f4Ee56"
    ]
  ],
  "numDeployments": 1,
  "solcInputHash": "82d3ab4457a77f7fc32443df43b4cac5",
  "bytecode": "0x60806040523480156200001157600080fd5b5060405162002f7238038062002f72833981016040819052620000349162000867565b604080518082018252600480825263082aaa8960e31b602080840182905284518086019095529184529083015290826002620000718482620009ee565b506003620000808382620009ee565b50805162000096906004906020840190620007b3565b5060005b81518110156200010657600160056000848481518110620000bf57620000bf62000aba565b6020908102919091018101516001600160a01b03168252810191909152604001600020805460ff191691151591909117905580620000fd8162000ae6565b9150506200009a565b506040516329965a1d60e01b815230600482018190527fac7fbab5f54a3ca8194167523c6753bfeb96a445279294b6125b68cce217705460248301526044820152731820a4b7618bde71dce8cdc73aab6c95905fad24906329965a1d90606401600060405180830381600087803b1580156200018157600080fd5b505af115801562000196573d6000803e3d6000fd5b50506040516329965a1d60e01b815230600482018190527faea199e31a596269b42cdafd93407f14436db6e4cad65417994c2eb37381e05a60248301526044820152731820a4b7618bde71dce8cdc73aab6c95905fad2492506329965a1d9150606401600060405180830381600087803b1580156200021457600080fd5b505af115801562000229573d6000803e3d6000fd5b505050600b879055506200026592507ff0887ba65ee2024ea881d91b74c2450ef19e1557f03bed3ea9f16b037cbe2dc9915060009050620002ae565b62000272600083620002f9565b620002a4828560405180602001604052806000815250604051806020016040528060008152506200033c60201b60201c565b5050505062000c15565b600082815260096020526040808220600101805490849055905190918391839186917fbd79b86ffe0ab8e8776151514217cd7cacd52c909f66475c3af44e129f0b00ff9190a4505050565b6200031082826200035260201b62000d431760201c565b6000828152600a602090815260409091206200033791839062000dc9620003f7821b17901c565b505050565b6200034c84848484600162000417565b50505050565b60008281526009602090815260408083206001600160a01b038516845290915290205460ff16620003f35760008281526009602090815260408083206001600160a01b03851684529091529020805460ff19166001179055620003b23390565b6001600160a01b0316816001600160a01b0316837f2f8788117e7eff1d82e926ec794901d17c78024a50270940304540a733656f0d60405160405180910390a45b5050565b60006200040e836001600160a01b0384166200056d565b90505b92915050565b6001600160a01b038516620004735760405162461bcd60e51b815260206004820181905260248201527f4552433737373a206d696e7420746f20746865207a65726f206164647265737360448201526064015b60405180910390fd5b600033905084600160008282546200048c919062000b02565b90915550506001600160a01b03861660009081526020819052604081208054879290620004bb90849062000b02565b90915550620004d390508160008888888888620005bf565b856001600160a01b0316816001600160a01b03167f2fe5be0146f74c5bce36c0b80911af6c7d86ff27e89d5cfa61fc681327954e5d8787876040516200051c9392919062000b60565b60405180910390a36040518581526001600160a01b038716906000907fddf252ad1be2c89b69c2b068fc378daa952ba7f163c4a11628f55a4df523b3ef9060200160405180910390a3505050505050565b6000818152600183016020526040812054620005b65750815460018181018455600084815260208082209093018490558454848252828601909352604090209190915562000411565b50600062000411565b60405163555ddc6560e11b81526001600160a01b03861660048201527fb281fc8c12954d22544db45de3159a39272895b169a852b314f9cc762e44c53b6024820152600090731820a4b7618bde71dce8cdc73aab6c95905fad249063aabbb8ca90604401602060405180830381865afa15801562000641573d6000803e3d6000fd5b505050506040513d601f19601f8201168201806040525081019062000667919062000b99565b90506001600160a01b03811615620006e9576040516223de2960e01b81526001600160a01b038216906223de2990620006af908b908b908b908b908b908b9060040162000bb7565b600060405180830381600087803b158015620006ca57600080fd5b505af1158015620006df573d6000803e3d6000fd5b505050506200079a565b81156200079a576200070f866001600160a01b0316620007a460201b62000dde1760201c565b156200079a5760405162461bcd60e51b815260206004820152604d60248201527f4552433737373a20746f6b656e20726563697069656e7420636f6e747261637460448201527f20686173206e6f20696d706c656d656e74657220666f7220455243373737546f60648201526c1ad95b9cd49958da5c1a595b9d609a1b608482015260a4016200046a565b5050505050505050565b6001600160a01b03163b151590565b8280548282559060005260206000209081019282156200080b579160200282015b828111156200080b57825182546001600160a01b0319166001600160a01b03909116178255602090920191600190910190620007d4565b50620008199291506200081d565b5090565b5b808211156200081957600081556001016200081e565b80516001600160a01b03811681146200084c57600080fd5b919050565b634e487b7160e01b600052604160045260246000fd5b600080600080608085870312156200087e57600080fd5b845193506020808601519350620008986040870162000834565b60608701519093506001600160401b0380821115620008b657600080fd5b818801915088601f830112620008cb57600080fd5b815181811115620008e057620008e062000851565b8060051b604051601f19603f8301168101818110858211171562000908576200090862000851565b60405291825284820192508381018501918b8311156200092757600080fd5b938501935b828510156200095057620009408562000834565b845293850193928501926200092c565b989b979a50959850505050505050565b600181811c908216806200097557607f821691505b6020821081036200099657634e487b7160e01b600052602260045260246000fd5b50919050565b601f8211156200033757600081815260208120601f850160051c81016020861015620009c55750805b601f850160051c820191505b81811015620009e657828155600101620009d1565b505050505050565b81516001600160401b0381111562000a0a5762000a0a62000851565b62000a228162000a1b845462000960565b846200099c565b602080601f83116001811462000a5a576000841562000a415750858301515b600019600386901b1c1916600185901b178555620009e6565b600085815260208120601f198616915b8281101562000a8b5788860151825594840194600190910190840162000a6a565b508582101562000aaa5787850151600019600388901b60f8161c191681555b5050505050600190811b01905550565b634e487b7160e01b600052603260045260246000fd5b634e487b7160e01b600052601160045260246000fd5b60006001820162000afb5762000afb62000ad0565b5060010190565b8082018082111562000411576200041162000ad0565b6000815180845260005b8181101562000b405760208185018101518683018201520162000b22565b506000602082860101526020601f19601f83011685010191505092915050565b83815260606020820152600062000b7b606083018562000b18565b828103604084015262000b8f818562000b18565b9695505050505050565b60006020828403121562000bac57600080fd5b6200040e8262000834565b6001600160a01b0387811682528681166020830152851660408201526060810184905260c06080820181905260009062000bf49083018562000b18565b82810360a084015262000c08818562000b18565b9998505050505050505050565b61234d8062000c256000396000f3fe6080604052600436106101d15760003560e01c806391d14854116100f7578063ca15c87311610095578063fad8b32a11610064578063fad8b32a1461056f578063fc673c4f1461058f578063fe6d8124146105af578063fe9d9303146105e357600080fd5b8063ca15c873146104c9578063d547741f146104e9578063d95b637114610509578063dd62ed3e1461052957600080fd5b806395d89b41116100d157806395d89b411461045f5780639bd9bbc614610474578063a217fddf14610494578063a9059cbb146104a957600080fd5b806391d14854146103ff57806394bf804d1461041f578063959b8c3f1461043f57600080fd5b8063248a9ca31161016f578063556f0dc71161013e578063556f0dc71461035d57806362ad1b831461037157806370a08231146103915780639010d07c146103c757600080fd5b8063248a9ca3146102cf5780632f2ff15d146102ff578063313ce5671461032157806336568abe1461033d57600080fd5b806306fdde03116101ab57806306fdde0314610258578063095ea7b31461027a57806318160ddd1461029a57806323b872dd146102af57600080fd5b806301ffc9a7146101dd5780630480e58b1461021257806306e485381461023657600080fd5b366101d857005b600080fd5b3480156101e957600080fd5b506101fd6101f8366004611c72565b610603565b60405190151581526020015b60405180910390f35b34801561021e57600080fd5b50610228600b5481565b604051908152602001610209565b34801561024257600080fd5b5061024b61062e565b6040516102099190611c9c565b34801561026457600080fd5b5061026d610690565b6040516102099190611d39565b34801561028657600080fd5b506101fd610295366004611d61565b610719565b3480156102a657600080fd5b50600154610228565b3480156102bb57600080fd5b506101fd6102ca366004611d8d565b610731565b3480156102db57600080fd5b506102286102ea366004611dce565b60009081526009602052604090206001015490565b34801561030b57600080fd5b5061031f61031a366004611de7565b610777565b005b34801561032d57600080fd5b5060405160128152602001610209565b34801561034957600080fd5b5061031f610358366004611de7565b6107a1565b34801561036957600080fd5b506001610228565b34801561037d57600080fd5b5061031f61038c366004611eba565b610824565b34801561039d57600080fd5b506102286103ac366004611f4d565b6001600160a01b031660009081526020819052604090205490565b3480156103d357600080fd5b506103e76103e2366004611f6a565b610860565b6040516001600160a01b039091168152602001610209565b34801561040b57600080fd5b506101fd61041a366004611de7565b61087f565b34801561042b57600080fd5b5061031f61043a366004611de7565b6108aa565b34801561044b57600080fd5b5061031f61045a366004611f4d565b610976565b34801561046b57600080fd5b5061026d610a93565b34801561048057600080fd5b5061031f61048f366004611f8c565b610aa2565b3480156104a057600080fd5b50610228600081565b3480156104b557600080fd5b506101fd6104c4366004611d61565b610ac0565b3480156104d557600080fd5b506102286104e4366004611dce565b610af8565b3480156104f557600080fd5b5061031f610504366004611de7565b610b0f565b34801561051557600080fd5b506101fd610524366004611fe5565b610b34565b34801561053557600080fd5b50610228610544366004611fe5565b6001600160a01b03918216600090815260086020908152604080832093909416825291909152205490565b34801561057b57600080fd5b5061031f61058a366004611f4d565b610bd5565b34801561059b57600080fd5b5061031f6105aa366004612013565b610cf0565b3480156105bb57600080fd5b506102287ff0887ba65ee2024ea881d91b74c2450ef19e1557f03bed3ea9f16b037cbe2dc981565b3480156105ef57600080fd5b5061031f6105fe366004612093565b610d28565b60006001600160e01b03198216635a05180f60e01b1480610628575061062882610ded565b92915050565b6060600480548060200260200160405190810160405280929190818152602001828054801561068657602002820191906000526020600020905b81546001600160a01b03168152600190910190602001808311610668575b5050505050905090565b60606002805461069f906120da565b80601f01602080910402602001604051908101604052809291908181526020018280546106cb906120da565b80156106865780601f106106ed57610100808354040283529160200191610686565b820191906000526020600020905b8154815290600101906020018083116106fb57509395945050505050565b600033610727818585610e22565b5060019392505050565b60003361073f858285610f49565b61076c85858560405180602001604052806000815250604051806020016040528060008152506000610fd5565b506001949350505050565b600082815260096020526040902060010154610792816110d1565b61079c83836110de565b505050565b6001600160a01b03811633146108165760405162461bcd60e51b815260206004820152602f60248201527f416363657373436f6e74726f6c3a2063616e206f6e6c792072656e6f756e636560448201526e103937b632b9903337b91039b2b63360891b60648201526084015b60405180910390fd5b6108208282611100565b5050565b61082e3386610b34565b61084a5760405162461bcd60e51b815260040161080d90612114565b61085985858585856001610fd5565b5050505050565b6000828152600a602052604081206108789083611122565b9392505050565b60009182526009602090815260408084206001600160a01b0393909316845291905290205460ff1690565b7ff0887ba65ee2024ea881d91b74c2450ef19e1557f03bed3ea9f16b037cbe2dc96108d4816110d1565b600b54836108e160015490565b6108eb9190612176565b111561094c5760405162461bcd60e51b815260206004820152602a60248201527f41555448203737373a2043616e6e6f74206d696e742074686520726571756972604482015269656420616d6f756e742160b01b606482015260840161080d565b61079c8284604051806020016040528060008152506040518060200160405280600081525061112e565b6001600160a01b03811633036109da5760405162461bcd60e51b8152602060048201526024808201527f4552433737373a20617574686f72697a696e672073656c66206173206f70657260448201526330ba37b960e11b606482015260840161080d565b6001600160a01b03811660009081526005602052604090205460ff1615610a2b573360009081526007602090815260408083206001600160a01b03851684529091529020805460ff19169055610a5a565b3360009081526006602090815260408083206001600160a01b03851684529091529020805460ff191660011790555b60405133906001600160a01b038316907ff4caeb2d6ca8932a215a353d0703c326ec2d81fc68170f320eb2ab49e9df61f990600090a350565b60606003805461069f906120da565b61079c33848484604051806020016040528060008152506001610fd5565b6000610aef33848460405180602001604052806000815250604051806020016040528060008152506000610fd5565b50600192915050565b6000818152600a602052604081206106289061113c565b600082815260096020526040902060010154610b2a816110d1565b61079c8383611100565b6000816001600160a01b0316836001600160a01b03161480610b9f57506001600160a01b03831660009081526005602052604090205460ff168015610b9f57506001600160a01b0380831660009081526007602090815260408083209387168352929052205460ff16155b806108785750506001600160a01b0390811660009081526006602090815260408083209490931682529290925290205460ff1690565b336001600160a01b03821603610c375760405162461bcd60e51b815260206004820152602160248201527f4552433737373a207265766f6b696e672073656c66206173206f70657261746f6044820152603960f91b606482015260840161080d565b6001600160a01b03811660009081526005602052604090205460ff1615610c8b573360009081526007602090815260408083206001600160a01b03851684529091529020805460ff19166001179055610cb7565b3360009081526006602090815260408083206001600160a01b03851684529091529020805460ff191690555b60405133906001600160a01b038316907f50546e66e5f44d728365dc3908c63bc5cfeeab470722c1677e3073a6ac294aa190600090a350565b610cfa3385610b34565b610d165760405162461bcd60e51b815260040161080d90612114565b610d2284848484611146565b50505050565b61082033838360405180602001604052806000815250611146565b610d4d828261087f565b6108205760008281526009602090815260408083206001600160a01b03851684529091529020805460ff19166001179055610d853390565b6001600160a01b0316816001600160a01b0316837f2f8788117e7eff1d82e926ec794901d17c78024a50270940304540a733656f0d60405160405180910390a45050565b6000610878836001600160a01b0384166112fb565b6001600160a01b03163b151590565b60006001600160e01b03198216637965db0b60e01b148061062857506301ffc9a760e01b6001600160e01b0319831614610628565b6001600160a01b038316610e865760405162461bcd60e51b815260206004820152602560248201527f4552433737373a20617070726f76652066726f6d20746865207a65726f206164604482015264647265737360d81b606482015260840161080d565b6001600160a01b038216610ee85760405162461bcd60e51b815260206004820152602360248201527f4552433737373a20617070726f766520746f20746865207a65726f206164647260448201526265737360e81b606482015260840161080d565b6001600160a01b0383811660008181526008602090815260408083209487168084529482529182902085905590518481527f8c5be1e5ebec7d5bd14f71427d1e84f3dd0314c0f7b2291e5b200ac8c7c3b925910160405180910390a3505050565b6001600160a01b038381166000908152600860209081526040808320938616835292905220546000198114610d225781811015610fc85760405162461bcd60e51b815260206004820152601e60248201527f4552433737373a20696e73756666696369656e7420616c6c6f77616e63650000604482015260640161080d565b610d228484848403610e22565b6001600160a01b03861661103a5760405162461bcd60e51b815260206004820152602660248201527f4552433737373a207472616e736665722066726f6d20746865207a65726f206160448201526564647265737360d01b606482015260840161080d565b6001600160a01b03851661109c5760405162461bcd60e51b8152602060048201526024808201527f4552433737373a207472616e7366657220746f20746865207a65726f206164646044820152637265737360e01b606482015260840161080d565b336110ab81888888888861134a565b6110b9818888888888611471565b6110c8818888888888886115d7565b50505050505050565b6110db813361179c565b50565b6110e88282610d43565b6000828152600a6020526040902061079c9082610dc9565b61110a8282611800565b6000828152600a6020526040902061079c9082611867565b6000610878838361187c565b610d228484848460016118a6565b6000610628825490565b6001600160a01b0384166111a75760405162461bcd60e51b815260206004820152602260248201527f4552433737373a206275726e2066726f6d20746865207a65726f206164647265604482015261737360f01b606482015260840161080d565b336111b78186600087878761134a565b6001600160a01b0385166000908152602081905260409020548481101561122c5760405162461bcd60e51b815260206004820152602360248201527f4552433737373a206275726e20616d6f756e7420657863656564732062616c616044820152626e636560e81b606482015260840161080d565b6001600160a01b038616600090815260208190526040812086830390556001805487929061125b908490612189565b92505081905550856001600160a01b0316826001600160a01b03167fa78a9be3a7b862d26933ad85fb11d80ef66b8f972d7cbba06621d583943a40988787876040516112a99392919061219c565b60405180910390a36040518581526000906001600160a01b038816907fddf252ad1be2c89b69c2b068fc378daa952ba7f163c4a11628f55a4df523b3ef906020015b60405180910390a3505050505050565b600081815260018301602052604081205461134257508154600181810184556000848152602080822090930184905584548482528286019093526040902091909155610628565b506000610628565b60405163555ddc6560e11b81526001600160a01b03861660048201527f29ddb589b1fb5fc7cf394961c1adf5f8c6454761adf795e67fe149f658abe8956024820152600090731820a4b7618bde71dce8cdc73aab6c95905fad249063aabbb8ca90604401602060405180830381865afa1580156113cb573d6000803e3d6000fd5b505050506040513d601f19601f820116820180604052508101906113ef91906121d1565b90506001600160a01b038116156110c857604051633ad5cbc160e11b81526001600160a01b038216906375ab978290611436908a908a908a908a908a908a906004016121ee565b600060405180830381600087803b15801561145057600080fd5b505af1158015611464573d6000803e3d6000fd5b5050505050505050505050565b6001600160a01b038516600090815260208190526040902054838110156114ea5760405162461bcd60e51b815260206004820152602760248201527f4552433737373a207472616e7366657220616d6f756e7420657863656564732060448201526662616c616e636560c81b606482015260840161080d565b6001600160a01b03808716600090815260208190526040808220878503905591871681529081208054869290611521908490612176565b92505081905550846001600160a01b0316866001600160a01b0316886001600160a01b03167f06b541ddaa720db2b10a4d0cdac39b8d360425fc073085fac19bc826146779878787876040516115799392919061219c565b60405180910390a4846001600160a01b0316866001600160a01b03167fddf252ad1be2c89b69c2b068fc378daa952ba7f163c4a11628f55a4df523b3ef866040516115c691815260200190565b60405180910390a350505050505050565b60405163555ddc6560e11b81526001600160a01b03861660048201527fb281fc8c12954d22544db45de3159a39272895b169a852b314f9cc762e44c53b6024820152600090731820a4b7618bde71dce8cdc73aab6c95905fad249063aabbb8ca90604401602060405180830381865afa158015611658573d6000803e3d6000fd5b505050506040513d601f19601f8201168201806040525081019061167c91906121d1565b90506001600160a01b038116156116f8576040516223de2960e01b81526001600160a01b038216906223de29906116c1908b908b908b908b908b908b906004016121ee565b600060405180830381600087803b1580156116db57600080fd5b505af11580156116ef573d6000803e3d6000fd5b50505050611792565b8115611792576001600160a01b0386163b156117925760405162461bcd60e51b815260206004820152604d60248201527f4552433737373a20746f6b656e20726563697069656e7420636f6e747261637460448201527f20686173206e6f20696d706c656d656e74657220666f7220455243373737546f60648201526c1ad95b9cd49958da5c1a595b9d609a1b608482015260a40161080d565b5050505050505050565b6117a6828261087f565b610820576117be816001600160a01b031660146119e3565b6117c98360206119e3565b6040516020016117da929190612248565b60408051601f198184030181529082905262461bcd60e51b825261080d91600401611d39565b61180a828261087f565b156108205760008281526009602090815260408083206001600160a01b0385168085529252808320805460ff1916905551339285917ff6391f5c32d9c69d2a47ea670b442974b53935d1edc7fd64eb21e047a839171b9190a45050565b6000610878836001600160a01b038416611b7f565b6000826000018281548110611893576118936122bd565b9060005260206000200154905092915050565b6001600160a01b0385166118fc5760405162461bcd60e51b815260206004820181905260248201527f4552433737373a206d696e7420746f20746865207a65726f2061646472657373604482015260640161080d565b600033905084600160008282546119139190612176565b90915550506001600160a01b03861660009081526020819052604081208054879290611940908490612176565b90915550611956905081600088888888886115d7565b856001600160a01b0316816001600160a01b03167f2fe5be0146f74c5bce36c0b80911af6c7d86ff27e89d5cfa61fc681327954e5d87878760405161199d9392919061219c565b60405180910390a36040518581526001600160a01b038716906000907fddf252ad1be2c89b69c2b068fc378daa952ba7f163c4a11628f55a4df523b3ef906020016112eb565b606060006119f28360026122d3565b6119fd906002612176565b67ffffffffffffffff811115611a1557611a15611e17565b6040519080825280601f01601f191660200182016040528015611a3f576020820181803683370190505b509050600360fc1b81600081518110611a5a57611a5a6122bd565b60200101906001600160f81b031916908160001a905350600f60fb1b81600181518110611a8957611a896122bd565b60200101906001600160f81b031916908160001a9053506000611aad8460026122d3565b611ab8906001612176565b90505b6001811115611b30576f181899199a1a9b1b9c1cb0b131b232b360811b85600f1660108110611aec57611aec6122bd565b1a60f81b828281518110611b0257611b026122bd565b60200101906001600160f81b031916908160001a90535060049490941c93611b29816122ea565b9050611abb565b5083156108785760405162461bcd60e51b815260206004820181905260248201527f537472696e67733a20686578206c656e67746820696e73756666696369656e74604482015260640161080d565b60008181526001830160205260408120548015611c68576000611ba3600183612189565b8554909150600090611bb790600190612189565b9050818114611c1c576000866000018281548110611bd757611bd76122bd565b9060005260206000200154905080876000018481548110611bfa57611bfa6122bd565b6000918252602080832090910192909255918252600188019052604090208390555b8554869080611c2d57611c2d612301565b600190038181906000526020600020016000905590558560010160008681526020019081526020016000206000905560019350505050610628565b6000915050610628565b600060208284031215611c8457600080fd5b81356001600160e01b03198116811461087857600080fd5b6020808252825182820181905260009190848201906040850190845b81811015611cdd5783516001600160a01b031683529284019291840191600101611cb8565b50909695505050505050565b60005b83811015611d04578181015183820152602001611cec565b50506000910152565b60008151808452611d25816020860160208601611ce9565b601f01601f19169290920160200192915050565b6020815260006108786020830184611d0d565b6001600160a01b03811681146110db57600080fd5b60008060408385031215611d7457600080fd5b8235611d7f81611d4c565b946020939093013593505050565b600080600060608486031215611da257600080fd5b8335611dad81611d4c565b92506020840135611dbd81611d4c565b929592945050506040919091013590565b600060208284031215611de057600080fd5b5035919050565b60008060408385031215611dfa57600080fd5b823591506020830135611e0c81611d4c565b809150509250929050565b634e487b7160e01b600052604160045260246000fd5b600082601f830112611e3e57600080fd5b813567ffffffffffffffff80821115611e5957611e59611e17565b604051601f8301601f19908116603f01168101908282118183101715611e8157611e81611e17565b81604052838152866020858801011115611e9a57600080fd5b836020870160208301376000602085830101528094505050505092915050565b600080600080600060a08688031215611ed257600080fd5b8535611edd81611d4c565b94506020860135611eed81611d4c565b935060408601359250606086013567ffffffffffffffff80821115611f1157600080fd5b611f1d89838a01611e2d565b93506080880135915080821115611f3357600080fd5b50611f4088828901611e2d565b9150509295509295909350565b600060208284031215611f5f57600080fd5b813561087881611d4c565b60008060408385031215611f7d57600080fd5b50508035926020909101359150565b600080600060608486031215611fa157600080fd5b8335611fac81611d4c565b925060208401359150604084013567ffffffffffffffff811115611fcf57600080fd5b611fdb86828701611e2d565b9150509250925092565b60008060408385031215611ff857600080fd5b823561200381611d4c565b91506020830135611e0c81611d4c565b6000806000806080858703121561202957600080fd5b843561203481611d4c565b935060208501359250604085013567ffffffffffffffff8082111561205857600080fd5b61206488838901611e2d565b9350606087013591508082111561207a57600080fd5b5061208787828801611e2d565b91505092959194509250565b600080604083850312156120a657600080fd5b82359150602083013567ffffffffffffffff8111156120c457600080fd5b6120d085828601611e2d565b9150509250929050565b600181811c908216806120ee57607f821691505b60208210810361210e57634e487b7160e01b600052602260045260246000fd5b50919050565b6020808252602c908201527f4552433737373a2063616c6c6572206973206e6f7420616e206f70657261746f60408201526b39103337b9103437b63232b960a11b606082015260800190565b634e487b7160e01b600052601160045260246000fd5b8082018082111561062857610628612160565b8181038181111561062857610628612160565b8381526060602082015260006121b56060830185611d0d565b82810360408401526121c78185611d0d565b9695505050505050565b6000602082840312156121e357600080fd5b815161087881611d4c565b6001600160a01b0387811682528681166020830152851660408201526060810184905260c06080820181905260009061222990830185611d0d565b82810360a084015261223b8185611d0d565b9998505050505050505050565b7f416363657373436f6e74726f6c3a206163636f756e7420000000000000000000815260008351612280816017850160208801611ce9565b7001034b99036b4b9b9b4b733903937b6329607d1b60179184019182015283516122b1816028840160208801611ce9565b01602801949350505050565b634e487b7160e01b600052603260045260246000fd5b808202811582820484141761062857610628612160565b6000816122f9576122f9612160565b506000190190565b634e487b7160e01b600052603160045260246000fdfea264697066735822122072b82dcf35e8cd748cac72d27f3a5cbda633bbfef6633a68004bcc4d0966f5c664736f6c63430008110033",
  "devdoc": {
    "kind": "dev",
    "methods": {
      "allowance(address,address)": {
        "details": "See {IERC20-allowance}. Note that operator and allowance concepts are orthogonal: operators may not have allowance, and accounts with allowance may not be operators themselves."
      },
      "approve(address,uint256)": {
        "details": "See {IERC20-approve}. NOTE: If `value` is the maximum `uint256`, the allowance is not updated on `transferFrom`. This is semantically equivalent to an infinite approval. Note that accounts cannot have allowance issued by their operators."
      },
      "authorizeOperator(address)": {
        "details": "See {IERC777-authorizeOperator}."
      },
      "balanceOf(address)": {
        "details": "Returns the amount of tokens owned by an account (`tokenHolder`)."
      },
      "burn(uint256,bytes)": {
        "details": "See {IERC777-burn}. Also emits a {IERC20-Transfer} event for ERC20 compatibility."
      },
      "decimals()": {
        "details": "See {ERC20-decimals}. Always returns 18, as per the [ERC777 EIP](https://eips.ethereum.org/EIPS/eip-777#backward-compatibility)."
      },
      "defaultOperators()": {
        "details": "See {IERC777-defaultOperators}."
      },
      "getRoleAdmin(bytes32)": {
        "details": "Returns the admin role that controls `role`. See {grantRole} and {revokeRole}. To change a role's admin, use {_setRoleAdmin}."
      },
      "getRoleMember(bytes32,uint256)": {
        "details": "Returns one of the accounts that have `role`. `index` must be a value between 0 and {getRoleMemberCount}, non-inclusive. Role bearers are not sorted in any particular way, and their ordering may change at any point. WARNING: When using {getRoleMember} and {getRoleMemberCount}, make sure you perform all queries on the same block. See the following https://forum.openzeppelin.com/t/iterating-over-elements-on-enumerableset-in-openzeppelin-contracts/2296[forum post] for more information."
      },
      "getRoleMemberCount(bytes32)": {
        "details": "Returns the number of accounts that have `role`. Can be used together with {getRoleMember} to enumerate all bearers of a role."
      },
      "grantRole(bytes32,address)": {
        "details": "Grants `role` to `account`. If `account` had not been already granted `role`, emits a {RoleGranted} event. Requirements: - the caller must have ``role``'s admin role."
      },
      "granularity()": {
        "details": "See {IERC777-granularity}. This implementation always returns `1`."
      },
      "hasRole(bytes32,address)": {
        "details": "Returns `true` if `account` has been granted `role`."
      },
      "isOperatorFor(address,address)": {
        "details": "See {IERC777-isOperatorFor}."
      },
      "name()": {
        "details": "See {IERC777-name}."
      },
      "operatorBurn(address,uint256,bytes,bytes)": {
        "details": "See {IERC777-operatorBurn}. Emits {Burned} and {IERC20-Transfer} events."
      },
      "operatorSend(address,address,uint256,bytes,bytes)": {
        "details": "See {IERC777-operatorSend}. Emits {Sent} and {IERC20-Transfer} events."
      },
      "renounceRole(bytes32,address)": {
        "details": "Revokes `role` from the calling account. Roles are often managed via {grantRole} and {revokeRole}: this function's purpose is to provide a mechanism for accounts to lose their privileges if they are compromised (such as when a trusted device is misplaced). If the calling account had been revoked `role`, emits a {RoleRevoked} event. Requirements: - the caller must be `account`."
      },
      "revokeOperator(address)": {
        "details": "See {IERC777-revokeOperator}."
      },
      "revokeRole(bytes32,address)": {
        "details": "Revokes `role` from `account`. If `account` had been granted `role`, emits a {RoleRevoked} event. Requirements: - the caller must have ``role``'s admin role."
      },
      "send(address,uint256,bytes)": {
        "details": "See {IERC777-send}. Also emits a {IERC20-Transfer} event for ERC20 compatibility."
      },
      "supportsInterface(bytes4)": {
        "details": "See {IERC165-supportsInterface}."
      },
      "symbol()": {
        "details": "See {IERC777-symbol}."
      },
      "totalSupply()": {
        "details": "See {IERC777-totalSupply}."
      },
      "transfer(address,uint256)": {
        "details": "See {IERC20-transfer}. Unlike `send`, `recipient` is _not_ required to implement the {IERC777Recipient} interface if it is a contract. Also emits a {Sent} event."
      },
      "transferFrom(address,address,uint256)": {
        "details": "See {IERC20-transferFrom}. NOTE: Does not update the allowance if the current allowance is the maximum `uint256`. Note that operator and allowance concepts are orthogonal: operators cannot call `transferFrom` (unless they have allowance), and accounts with allowance cannot call `operatorSend` (unless they are operators). Emits {Sent}, {IERC20-Transfer} and {IERC20-Approval} events."
      }
    },
    "version": 1
  },
  "userdoc": {
    "kind": "user",
    "methods": {},
    "version": 1
  },
  "storageLayout": {
    "storage": [
      {
        "astId": 649,
        "contract": "contracts/Tokens/RAIR-ERC777.sol:RAIR777",
        "label": "_balances",
        "offset": 0,
        "slot": "0",
        "type": "t_mapping(t_address,t_uint256)"
      },
      {
        "astId": 651,
        "contract": "contracts/Tokens/RAIR-ERC777.sol:RAIR777",
        "label": "_totalSupply",
        "offset": 0,
        "slot": "1",
        "type": "t_uint256"
      },
      {
        "astId": 653,
        "contract": "contracts/Tokens/RAIR-ERC777.sol:RAIR777",
        "label": "_name",
        "offset": 0,
        "slot": "2",
        "type": "t_string_storage"
      },
      {
        "astId": 655,
        "contract": "contracts/Tokens/RAIR-ERC777.sol:RAIR777",
        "label": "_symbol",
        "offset": 0,
        "slot": "3",
        "type": "t_string_storage"
      },
      {
        "astId": 668,
        "contract": "contracts/Tokens/RAIR-ERC777.sol:RAIR777",
        "label": "_defaultOperatorsArray",
        "offset": 0,
        "slot": "4",
        "type": "t_array(t_address)dyn_storage"
      },
      {
        "astId": 672,
        "contract": "contracts/Tokens/RAIR-ERC777.sol:RAIR777",
        "label": "_defaultOperators",
        "offset": 0,
        "slot": "5",
        "type": "t_mapping(t_address,t_bool)"
      },
      {
        "astId": 678,
        "contract": "contracts/Tokens/RAIR-ERC777.sol:RAIR777",
        "label": "_operators",
        "offset": 0,
        "slot": "6",
        "type": "t_mapping(t_address,t_mapping(t_address,t_bool))"
      },
      {
        "astId": 684,
        "contract": "contracts/Tokens/RAIR-ERC777.sol:RAIR777",
        "label": "_revokedDefaultOperators",
        "offset": 0,
        "slot": "7",
        "type": "t_mapping(t_address,t_mapping(t_address,t_bool))"
      },
      {
        "astId": 690,
        "contract": "contracts/Tokens/RAIR-ERC777.sol:RAIR777",
        "label": "_allowances",
        "offset": 0,
        "slot": "8",
        "type": "t_mapping(t_address,t_mapping(t_address,t_uint256))"
      },
      {
        "astId": 24,
        "contract": "contracts/Tokens/RAIR-ERC777.sol:RAIR777",
        "label": "_roles",
        "offset": 0,
        "slot": "9",
        "type": "t_mapping(t_bytes32,t_struct(RoleData)19_storage)"
      },
      {
        "astId": 338,
        "contract": "contracts/Tokens/RAIR-ERC777.sol:RAIR777",
        "label": "_roleMembers",
        "offset": 0,
        "slot": "10",
        "type": "t_mapping(t_bytes32,t_struct(AddressSet)2872_storage)"
      },
      {
        "astId": 3174,
        "contract": "contracts/Tokens/RAIR-ERC777.sol:RAIR777",
        "label": "maximumSupply",
        "offset": 0,
        "slot": "11",
        "type": "t_uint256"
      }
    ],
    "types": {
      "t_address": {
        "encoding": "inplace",
        "label": "address",
        "numberOfBytes": "20"
      },
      "t_array(t_address)dyn_storage": {
        "base": "t_address",
        "encoding": "dynamic_array",
        "label": "address[]",
        "numberOfBytes": "32"
      },
      "t_array(t_bytes32)dyn_storage": {
        "base": "t_bytes32",
        "encoding": "dynamic_array",
        "label": "bytes32[]",
        "numberOfBytes": "32"
      },
      "t_bool": {
        "encoding": "inplace",
        "label": "bool",
        "numberOfBytes": "1"
      },
      "t_bytes32": {
        "encoding": "inplace",
        "label": "bytes32",
        "numberOfBytes": "32"
      },
      "t_mapping(t_address,t_bool)": {
        "encoding": "mapping",
        "key": "t_address",
        "label": "mapping(address => bool)",
        "numberOfBytes": "32",
        "value": "t_bool"
      },
      "t_mapping(t_address,t_mapping(t_address,t_bool))": {
        "encoding": "mapping",
        "key": "t_address",
        "label": "mapping(address => mapping(address => bool))",
        "numberOfBytes": "32",
        "value": "t_mapping(t_address,t_bool)"
      },
      "t_mapping(t_address,t_mapping(t_address,t_uint256))": {
        "encoding": "mapping",
        "key": "t_address",
        "label": "mapping(address => mapping(address => uint256))",
        "numberOfBytes": "32",
        "value": "t_mapping(t_address,t_uint256)"
      },
      "t_mapping(t_address,t_uint256)": {
        "encoding": "mapping",
        "key": "t_address",
        "label": "mapping(address => uint256)",
        "numberOfBytes": "32",
        "value": "t_uint256"
      },
      "t_mapping(t_bytes32,t_struct(AddressSet)2872_storage)": {
        "encoding": "mapping",
        "key": "t_bytes32",
        "label": "mapping(bytes32 => struct EnumerableSet.AddressSet)",
        "numberOfBytes": "32",
        "value": "t_struct(AddressSet)2872_storage"
      },
      "t_mapping(t_bytes32,t_struct(RoleData)19_storage)": {
        "encoding": "mapping",
        "key": "t_bytes32",
        "label": "mapping(bytes32 => struct AccessControl.RoleData)",
        "numberOfBytes": "32",
        "value": "t_struct(RoleData)19_storage"
      },
      "t_mapping(t_bytes32,t_uint256)": {
        "encoding": "mapping",
        "key": "t_bytes32",
        "label": "mapping(bytes32 => uint256)",
        "numberOfBytes": "32",
        "value": "t_uint256"
      },
      "t_string_storage": {
        "encoding": "bytes",
        "label": "string",
        "numberOfBytes": "32"
      },
      "t_struct(AddressSet)2872_storage": {
        "encoding": "inplace",
        "label": "struct EnumerableSet.AddressSet",
        "members": [
          {
            "astId": 2871,
            "contract": "contracts/Tokens/RAIR-ERC777.sol:RAIR777",
            "label": "_inner",
            "offset": 0,
            "slot": "0",
            "type": "t_struct(Set)2571_storage"
          }
        ],
        "numberOfBytes": "64"
      },
      "t_struct(RoleData)19_storage": {
        "encoding": "inplace",
        "label": "struct AccessControl.RoleData",
        "members": [
          {
            "astId": 16,
            "contract": "contracts/Tokens/RAIR-ERC777.sol:RAIR777",
            "label": "members",
            "offset": 0,
            "slot": "0",
            "type": "t_mapping(t_address,t_bool)"
          },
          {
            "astId": 18,
            "contract": "contracts/Tokens/RAIR-ERC777.sol:RAIR777",
            "label": "adminRole",
            "offset": 0,
            "slot": "1",
            "type": "t_bytes32"
          }
        ],
        "numberOfBytes": "64"
      },
      "t_struct(Set)2571_storage": {
        "encoding": "inplace",
        "label": "struct EnumerableSet.Set",
        "members": [
          {
            "astId": 2566,
            "contract": "contracts/Tokens/RAIR-ERC777.sol:RAIR777",
            "label": "_values",
            "offset": 0,
            "slot": "0",
            "type": "t_array(t_bytes32)dyn_storage"
          },
          {
            "astId": 2570,
            "contract": "contracts/Tokens/RAIR-ERC777.sol:RAIR777",
            "label": "_indexes",
            "offset": 0,
            "slot": "1",
            "type": "t_mapping(t_bytes32,t_uint256)"
          }
        ],
        "numberOfBytes": "64"
      },
      "t_uint256": {
        "encoding": "inplace",
        "label": "uint256",
        "numberOfBytes": "32"
      }
    }
  }
}