{
  "address": "0xe460B022fff745c341f01f83216458fB389FDD41",
  "abi": [
    {
      "inputs": [
        {
          "internalType": "uint256",
          "name": "value",
          "type": "uint256"
        },
        {
          "internalType": "uint256",
          "name": "length",
          "type": "uint256"
        }
      ],
      "name": "StringsInsufficientHexLength",
      "type": "error"
    },
    {
      "anonymous": false,
      "inputs": [
        {
          "indexed": false,
          "internalType": "address",
          "name": "userAddress",
          "type": "address"
        },
        {
          "indexed": false,
          "internalType": "address",
          "name": "tokenAddress",
          "type": "address"
        },
        {
          "indexed": false,
          "internalType": "uint256",
          "name": "amount",
          "type": "uint256"
        },
        {
          "indexed": false,
          "internalType": "uint256",
          "name": "totalTokensDeposited",
          "type": "uint256"
        }
      ],
      "name": "ReceivedTokens",
      "type": "event"
    },
    {
      "anonymous": false,
      "inputs": [
        {
          "indexed": true,
          "internalType": "bytes32",
          "name": "role",
          "type": "bytes32"
        },
        {
          "indexed": true,
          "internalType": "bytes32",
          "name": "previousAdminRole",
          "type": "bytes32"
        },
        {
          "indexed": true,
          "internalType": "bytes32",
          "name": "newAdminRole",
          "type": "bytes32"
        }
      ],
      "name": "RoleAdminChanged",
      "type": "event"
    },
    {
      "anonymous": false,
      "inputs": [
        {
          "indexed": true,
          "internalType": "bytes32",
          "name": "role",
          "type": "bytes32"
        },
        {
          "indexed": true,
          "internalType": "address",
          "name": "account",
          "type": "address"
        },
        {
          "indexed": true,
          "internalType": "address",
          "name": "sender",
          "type": "address"
        }
      ],
      "name": "RoleGranted",
      "type": "event"
    },
    {
      "anonymous": false,
      "inputs": [
        {
          "indexed": true,
          "internalType": "bytes32",
          "name": "role",
          "type": "bytes32"
        },
        {
          "indexed": true,
          "internalType": "address",
          "name": "account",
          "type": "address"
        },
        {
          "indexed": true,
          "internalType": "address",
          "name": "sender",
          "type": "address"
        }
      ],
      "name": "RoleRevoked",
      "type": "event"
    },
    {
      "inputs": [],
      "name": "ADMINISTRATOR",
      "outputs": [
        {
          "internalType": "bytes32",
          "name": "",
          "type": "bytes32"
        }
      ],
      "stateMutability": "view",
      "type": "function"
    },
    {
      "inputs": [],
      "name": "DEFAULT_ADMIN_ROLE",
      "outputs": [
        {
          "internalType": "bytes32",
          "name": "",
          "type": "bytes32"
        }
      ],
      "stateMutability": "view",
      "type": "function"
    },
    {
      "inputs": [],
      "name": "WITHDRAW_SIGNER",
      "outputs": [
        {
          "internalType": "bytes32",
          "name": "",
          "type": "bytes32"
        }
      ],
      "stateMutability": "view",
      "type": "function"
    },
    {
      "inputs": [
        {
          "internalType": "uint256",
          "name": "amount",
          "type": "uint256"
        }
      ],
      "name": "depositTokens",
      "outputs": [],
      "stateMutability": "nonpayable",
      "type": "function"
    },
    {
      "inputs": [
        {
          "internalType": "bytes32",
          "name": "role",
          "type": "bytes32"
        }
      ],
      "name": "getRoleAdmin",
      "outputs": [
        {
          "internalType": "bytes32",
          "name": "",
          "type": "bytes32"
        }
      ],
      "stateMutability": "view",
      "type": "function"
    },
    {
      "inputs": [
        {
          "internalType": "bytes32",
          "name": "role",
          "type": "bytes32"
        },
        {
          "internalType": "uint256",
          "name": "index",
          "type": "uint256"
        }
      ],
      "name": "getRoleMember",
      "outputs": [
        {
          "internalType": "address",
          "name": "",
          "type": "address"
        }
      ],
      "stateMutability": "view",
      "type": "function"
    },
    {
      "inputs": [
        {
          "internalType": "bytes32",
          "name": "role",
          "type": "bytes32"
        }
      ],
      "name": "getRoleMemberCount",
      "outputs": [
        {
          "internalType": "uint256",
          "name": "",
          "type": "uint256"
        }
      ],
      "stateMutability": "view",
      "type": "function"
    },
    {
      "inputs": [
        {
          "internalType": "bytes32",
          "name": "role",
          "type": "bytes32"
        },
        {
          "internalType": "address",
          "name": "account",
          "type": "address"
        }
      ],
      "name": "grantRole",
      "outputs": [],
      "stateMutability": "nonpayable",
      "type": "function"
    },
    {
      "inputs": [
        {
          "internalType": "bytes32",
          "name": "role",
          "type": "bytes32"
        },
        {
          "internalType": "address",
          "name": "account",
          "type": "address"
        }
      ],
      "name": "hasRole",
      "outputs": [
        {
          "internalType": "bool",
          "name": "",
          "type": "bool"
        }
      ],
      "stateMutability": "view",
      "type": "function"
    },
    {
      "inputs": [
        {
          "internalType": "bytes32",
          "name": "role",
          "type": "bytes32"
        },
        {
          "internalType": "address",
          "name": "account",
          "type": "address"
        }
      ],
      "name": "renounceRole",
      "outputs": [],
      "stateMutability": "nonpayable",
      "type": "function"
    },
    {
      "inputs": [
        {
          "internalType": "bytes32",
          "name": "role",
          "type": "bytes32"
        },
        {
          "internalType": "address",
          "name": "account",
          "type": "address"
        }
      ],
      "name": "revokeRole",
      "outputs": [],
      "stateMutability": "nonpayable",
      "type": "function"
    }
  ],
  "transactionHash": "0x721a7d414d7595495d24a3479f0e79fb7822663b8b338dc203b6783f1e674bd3",
  "args": [],
  "numDeployments": 1,
  "solcInputHash": "71466c8edcac01049d1feb06f48db85a",
  "bytecode": "0x6080604052348015600f57600080fd5b50610d3f8061001f6000396000f3fe608060405234801561001057600080fd5b50600436106100a95760003560e01c806391d148541161007157806391d148541461014e578063a217fddf14610171578063ca15c87314610179578063d547741f1461018c578063dd49756e1461019f578063fa2edf10146101b257600080fd5b8063248a9ca3146100ae5780632f2ff15d146100d457806336568abe146100e957806359fe7279146100fc5780639010d07c14610123575b600080fd5b6100c16100bc366004610a98565b6101d9565b6040519081526020015b60405180910390f35b6100e76100e2366004610ab1565b6101fb565b005b6100e76100f7366004610ab1565b61021d565b6100c17f1959792afc6b020af87e178d7b19fcc140aca47290ef021bbdb58aa0b70c0b9f81565b610136610131366004610aed565b6102a0565b6040516001600160a01b0390911681526020016100cb565b61016161015c366004610ab1565b6102ce565b60405190151581526020016100cb565b6100c1600081565b6100c1610187366004610a98565b610306565b6100e761019a366004610ab1565b61032a565b6100e76101ad366004610a98565b610347565b6100c17f8a43fb683ea3ec35449b33dd7e81508331a13bd722eaa8ce13ba29cc60084d5681565b6000908152600080516020610cca833981519152602052604090206001015490565b610204826101d9565b61020e81336105dc565b6102188383610640565b505050565b6001600160a01b03811633146102925760405162461bcd60e51b815260206004820152602f60248201527f416363657373436f6e74726f6c3a2063616e206f6e6c792072656e6f756e636560448201526e103937b632b9903337b91039b2b63360891b60648201526084015b60405180910390fd5b61029c82826106d7565b5050565b6000828152600080516020610cea833981519152602052604081206102c5908361076c565b90505b92915050565b6000918252600080516020610cca833981519152602090815260408084206001600160a01b0393909316845291905290205460ff1690565b6000818152600080516020610cea833981519152602052604081206102c890610778565b610333826101d9565b61033d81336105dc565b61021883836106d7565b60007f3178d75a97455c722bbe6e3619364b9b8f446a5900d6fbcc8d92ea722276883a600481810154604051636eb1769f60e11b8152339281019290925230602483015291925083916001600160a01b03169063dd62ed3e90604401602060405180830381865afa1580156103c0573d6000803e3d6000fd5b505050506040513d601f19601f820116820180604052508101906103e49190610b0f565b10156104485760405162461bcd60e51b815260206004820152602d60248201527f506f696e74734465706f7369743a204e6f7420616c6c6f77656420746f20747260448201526c616e7366657220746f6b656e7360981b6064820152608401610289565b6004818101546040516323b872dd60e01b81523392810192909252306024830152604482018490526001600160a01b0316906323b872dd906064016020604051808303816000875af11580156104a2573d6000803e3d6000fd5b505050506040513d601f19601f820116820180604052508101906104c69190610b28565b6105235760405162461bcd60e51b815260206004820152602860248201527f506f696e74734465706f7369743a204572726f72207472616e7366657272696e6044820152676720746f6b656e7360c01b6064820152608401610289565b33600090815260068201602052604081208054849290610544908490610b67565b90915550503360009081526005820160205260408120805484929061056a908490610b67565b909155505060048101543360008181526005840160209081526040918290205482519384526001600160a01b0390941690830152810184905260608101919091527fee70738e4859e9b5eaba108c07f5f97459880f7d99f4af4bbbb400a529ed3db29060800160405180910390a15050565b6105e682826102ce565b61029c576105fe816001600160a01b03166014610782565b610609836020610782565b60405160200161061a929190610b9e565b60408051601f198184030181529082905262461bcd60e51b825261028991600401610c13565b61064a82826102ce565b61029c576000828152600080516020610cca833981519152602090815260408083206001600160a01b0385168085529252808320805460ff1916600117905551339285917f2f8788117e7eff1d82e926ec794901d17c78024a50270940304540a733656f0d9190a46000828152600080516020610cea833981519152602052604090206102189082610902565b6106e182826102ce565b1561029c576000828152600080516020610cca833981519152602090815260408083206001600160a01b0385168085529252808320805460ff1916905551339285917ff6391f5c32d9c69d2a47ea670b442974b53935d1edc7fd64eb21e047a839171b9190a46000828152600080516020610cea833981519152602052604090206102189082610917565b60006102c5838361092c565b60006102c8825490565b6060826000610792846002610c46565b61079d906002610b67565b67ffffffffffffffff8111156107b5576107b5610c5d565b6040519080825280601f01601f1916602001820160405280156107df576020820181803683370190505b509050600360fc1b816000815181106107fa576107fa610c73565b60200101906001600160f81b031916908160001a905350600f60fb1b8160018151811061082957610829610c73565b60200101906001600160f81b031916908160001a905350600061084d856002610c46565b610858906001610b67565b90505b60018111156108d0576f181899199a1a9b1b9c1cb0b131b232b360811b83600f166010811061088c5761088c610c73565b1a60f81b8282815181106108a2576108a2610c73565b60200101906001600160f81b031916908160001a90535060049290921c916108c981610c89565b905061085b565b5081156108fa5760405163e22e27eb60e01b81526004810186905260248101859052604401610289565b949350505050565b60006102c5836001600160a01b038416610956565b60006102c5836001600160a01b0384166109a5565b600082600001828154811061094357610943610c73565b9060005260206000200154905092915050565b600081815260018301602052604081205461099d575081546001818101845560008481526020808220909301849055845484825282860190935260409020919091556102c8565b5060006102c8565b60008181526001830160205260408120548015610a8e5760006109c9600183610ca0565b85549091506000906109dd90600190610ca0565b9050808214610a425760008660000182815481106109fd576109fd610c73565b9060005260206000200154905080876000018481548110610a2057610a20610c73565b6000918252602080832090910192909255918252600188019052604090208390555b8554869080610a5357610a53610cb3565b6001900381819060005260206000200160009055905585600101600086815260200190815260200160002060009055600193505050506102c8565b60009150506102c8565b600060208284031215610aaa57600080fd5b5035919050565b60008060408385031215610ac457600080fd5b8235915060208301356001600160a01b0381168114610ae257600080fd5b809150509250929050565b60008060408385031215610b0057600080fd5b50508035926020909101359150565b600060208284031215610b2157600080fd5b5051919050565b600060208284031215610b3a57600080fd5b81518015158114610b4a57600080fd5b9392505050565b634e487b7160e01b600052601160045260246000fd5b808201808211156102c8576102c8610b51565b60005b83811015610b95578181015183820152602001610b7d565b50506000910152565b7f416363657373436f6e74726f6c3a206163636f756e7420000000000000000000815260008351610bd6816017850160208801610b7a565b7001034b99036b4b9b9b4b733903937b6329607d1b6017918401918201528351610c07816028840160208801610b7a565b01602801949350505050565b6020815260008251806020840152610c32816040850160208701610b7a565b601f01601f19169190910160400192915050565b80820281158282048414176102c8576102c8610b51565b634e487b7160e01b600052604160045260246000fd5b634e487b7160e01b600052603260045260246000fd5b600081610c9857610c98610b51565b506000190190565b818103818111156102c8576102c8610b51565b634e487b7160e01b600052603160045260246000fdfe4f4f658137f4e10317e1a22624c2b114af7563a20fb2e3444ae2ac2342d457d04f4f658137f4e10317e1a22624c2b114af7563a20fb2e3444ae2ac2342d457d1a26469706673582212205216291171a74733cadd77b59bf20265f2000430ff6dd9c6a753c5df4144d23564736f6c63430008190033",
  "devdoc": {
    "errors": {
      "StringsInsufficientHexLength(uint256,uint256)": [
        {
          "details": "The `value` string doesn't fit in the specified `length`."
        }
      ]
    },
    "events": {
      "ReceivedTokens(address,address,uint256,uint256)": {
        "params": {
          "amount": "Amount of tokens transferred to this contract",
          "tokenAddress": "Address of the ERC777 contract used",
          "totalTokensDeposited": "Total amount of tokens deposited by the user",
          "userAddress": "Public address of the user depositing"
        }
      }
    },
    "kind": "dev",
    "methods": {
      "depositTokens(uint256)": {
        "params": {
          "amount": "The number of tokens sent"
        }
      }
    },
    "title": "Deposit logic for the points system",
    "version": 1
  },
  "userdoc": {
    "events": {
      "ReceivedTokens(address,address,uint256,uint256)": {
        "notice": "This event stores the user that deposited tokens into the contract"
      }
    },
    "kind": "user",
    "methods": {
      "depositTokens(uint256)": {
        "notice": "Deposit tokens from the user's balance to this contract"
      }
    },
    "notice": "Uses the ERC777 receiver hook to trigger additional logic",
    "version": 1
  },
  "storageLayout": {
    "storage": [],
    "types": null
  }
}