{
  "address": "0xaf26C1736118C09c5dFd36258B69f135c0031F99",
  "abi": [
    {
      "anonymous": false,
      "inputs": [
        {
          "indexed": false,
          "internalType": "uint256",
          "name": "productIndex",
          "type": "uint256"
        },
        {
          "indexed": false,
          "internalType": "uint256",
          "name": "start",
          "type": "uint256"
        },
        {
          "indexed": false,
          "internalType": "uint256",
          "name": "end",
          "type": "uint256"
        },
        {
          "indexed": false,
          "internalType": "uint256",
          "name": "price",
          "type": "uint256"
        },
        {
          "indexed": false,
          "internalType": "uint256",
          "name": "tokensAllowed",
          "type": "uint256"
        },
        {
          "indexed": false,
          "internalType": "uint256",
          "name": "lockedTokens",
          "type": "uint256"
        },
        {
          "indexed": false,
          "internalType": "string",
          "name": "name",
          "type": "string"
        },
        {
          "indexed": false,
          "internalType": "uint256",
          "name": "rangeIndex",
          "type": "uint256"
        }
      ],
      "name": "CreatedRange",
      "type": "event"
    },
    {
      "anonymous": false,
      "inputs": [
        {
          "indexed": true,
          "internalType": "bytes32",
          "name": "role",
          "type": "bytes32"
        },
        {
          "indexed": true,
          "internalType": "bytes32",
          "name": "previousAdminRole",
          "type": "bytes32"
        },
        {
          "indexed": true,
          "internalType": "bytes32",
          "name": "newAdminRole",
          "type": "bytes32"
        }
      ],
      "name": "RoleAdminChanged",
      "type": "event"
    },
    {
      "anonymous": false,
      "inputs": [
        {
          "indexed": true,
          "internalType": "bytes32",
          "name": "role",
          "type": "bytes32"
        },
        {
          "indexed": true,
          "internalType": "address",
          "name": "account",
          "type": "address"
        },
        {
          "indexed": true,
          "internalType": "address",
          "name": "sender",
          "type": "address"
        }
      ],
      "name": "RoleGranted",
      "type": "event"
    },
    {
      "anonymous": false,
      "inputs": [
        {
          "indexed": true,
          "internalType": "bytes32",
          "name": "role",
          "type": "bytes32"
        },
        {
          "indexed": true,
          "internalType": "address",
          "name": "account",
          "type": "address"
        },
        {
          "indexed": true,
          "internalType": "address",
          "name": "sender",
          "type": "address"
        }
      ],
      "name": "RoleRevoked",
      "type": "event"
    },
    {
      "anonymous": false,
      "inputs": [
        {
          "indexed": true,
          "internalType": "uint256",
          "name": "rangeIndex",
          "type": "uint256"
        },
        {
          "indexed": false,
          "internalType": "uint256",
          "name": "from",
          "type": "uint256"
        },
        {
          "indexed": false,
          "internalType": "uint256",
          "name": "to",
          "type": "uint256"
        },
        {
          "indexed": false,
          "internalType": "uint256",
          "name": "lockedTokens",
          "type": "uint256"
        }
      ],
      "name": "TradingLocked",
      "type": "event"
    },
    {
      "anonymous": false,
      "inputs": [
        {
          "indexed": true,
          "internalType": "uint256",
          "name": "rangeIndex",
          "type": "uint256"
        },
        {
          "indexed": false,
          "internalType": "uint256",
          "name": "from",
          "type": "uint256"
        },
        {
          "indexed": false,
          "internalType": "uint256",
          "name": "to",
          "type": "uint256"
        }
      ],
      "name": "TradingUnlocked",
      "type": "event"
    },
    {
      "anonymous": false,
      "inputs": [
        {
          "indexed": false,
          "internalType": "uint256",
          "name": "rangeIndex",
          "type": "uint256"
        },
        {
          "indexed": false,
          "internalType": "string",
          "name": "name",
          "type": "string"
        },
        {
          "indexed": false,
          "internalType": "uint256",
          "name": "price",
          "type": "uint256"
        },
        {
          "indexed": false,
          "internalType": "uint256",
          "name": "tokensAllowed",
          "type": "uint256"
        },
        {
          "indexed": false,
          "internalType": "uint256",
          "name": "lockedTokens",
          "type": "uint256"
        }
      ],
      "name": "UpdatedRange",
      "type": "event"
    },
    {
      "inputs": [],
      "name": "CREATOR",
      "outputs": [
        {
          "internalType": "bytes32",
          "name": "",
          "type": "bytes32"
        }
      ],
      "stateMutability": "view",
      "type": "function"
    },
    {
      "inputs": [
        {
          "internalType": "uint256",
          "name": "productId_",
          "type": "uint256"
        },
        {
          "internalType": "uint256",
          "name": "rangeStart_",
          "type": "uint256"
        },
        {
          "internalType": "uint256",
          "name": "rangeEnd_",
          "type": "uint256"
        }
      ],
      "name": "canCreateRange",
      "outputs": [
        {
          "internalType": "bool",
          "name": "",
          "type": "bool"
        }
      ],
      "stateMutability": "view",
      "type": "function"
    },
    {
      "inputs": [
        {
          "internalType": "uint256",
          "name": "productId",
          "type": "uint256"
        },
        {
          "internalType": "uint256",
          "name": "rangeStart",
          "type": "uint256"
        },
        {
          "internalType": "uint256",
          "name": "rangeEnd",
          "type": "uint256"
        },
        {
          "internalType": "uint256",
          "name": "price",
          "type": "uint256"
        },
        {
          "internalType": "uint256",
          "name": "tokensAllowed",
          "type": "uint256"
        },
        {
          "internalType": "uint256",
          "name": "lockedTokens",
          "type": "uint256"
        },
        {
          "internalType": "string",
          "name": "name",
          "type": "string"
        }
      ],
      "name": "createRange",
      "outputs": [],
      "stateMutability": "nonpayable",
      "type": "function"
    },
    {
      "inputs": [
        {
          "internalType": "uint256",
          "name": "productId",
          "type": "uint256"
        },
        {
          "components": [
            {
              "internalType": "uint256",
              "name": "rangeStart",
              "type": "uint256"
            },
            {
              "internalType": "uint256",
              "name": "rangeEnd",
              "type": "uint256"
            },
            {
              "internalType": "uint256",
              "name": "price",
              "type": "uint256"
            },
            {
              "internalType": "uint256",
              "name": "tokensAllowed",
              "type": "uint256"
            },
            {
              "internalType": "uint256",
              "name": "lockedTokens",
              "type": "uint256"
            },
            {
              "internalType": "string",
              "name": "name",
              "type": "string"
            }
          ],
          "internalType": "struct RAIRRangesFacet.rangeData[]",
          "name": "data",
          "type": "tuple[]"
        }
      ],
      "name": "createRangeBatch",
      "outputs": [],
      "stateMutability": "nonpayable",
      "type": "function"
    },
    {
      "inputs": [
        {
          "internalType": "bytes32",
          "name": "role",
          "type": "bytes32"
        }
      ],
      "name": "getRoleAdmin",
      "outputs": [
        {
          "internalType": "bytes32",
          "name": "",
          "type": "bytes32"
        }
      ],
      "stateMutability": "view",
      "type": "function"
    },
    {
      "inputs": [
        {
          "internalType": "bytes32",
          "name": "role",
          "type": "bytes32"
        },
        {
          "internalType": "uint256",
          "name": "index",
          "type": "uint256"
        }
      ],
      "name": "getRoleMember",
      "outputs": [
        {
          "internalType": "address",
          "name": "",
          "type": "address"
        }
      ],
      "stateMutability": "view",
      "type": "function"
    },
    {
      "inputs": [
        {
          "internalType": "bytes32",
          "name": "role",
          "type": "bytes32"
        }
      ],
      "name": "getRoleMemberCount",
      "outputs": [
        {
          "internalType": "uint256",
          "name": "",
          "type": "uint256"
        }
      ],
      "stateMutability": "view",
      "type": "function"
    },
    {
      "inputs": [
        {
          "internalType": "bytes32",
          "name": "role",
          "type": "bytes32"
        },
        {
          "internalType": "address",
          "name": "account",
          "type": "address"
        }
      ],
      "name": "grantRole",
      "outputs": [],
      "stateMutability": "nonpayable",
      "type": "function"
    },
    {
      "inputs": [
        {
          "internalType": "bytes32",
          "name": "role",
          "type": "bytes32"
        },
        {
          "internalType": "address",
          "name": "account",
          "type": "address"
        }
      ],
      "name": "hasRole",
      "outputs": [
        {
          "internalType": "bool",
          "name": "",
          "type": "bool"
        }
      ],
      "stateMutability": "view",
      "type": "function"
    },
    {
      "inputs": [
        {
          "internalType": "uint256",
          "name": "rangeId",
          "type": "uint256"
        }
      ],
      "name": "isRangeLocked",
      "outputs": [
        {
          "internalType": "bool",
          "name": "",
          "type": "bool"
        }
      ],
      "stateMutability": "view",
      "type": "function"
    },
    {
      "inputs": [
        {
          "internalType": "uint256",
          "name": "productId",
          "type": "uint256"
        },
        {
          "internalType": "uint256",
          "name": "rangeIndex",
          "type": "uint256"
        }
      ],
      "name": "productRangeInfo",
      "outputs": [
        {
          "components": [
            {
              "internalType": "uint256",
              "name": "rangeStart",
              "type": "uint256"
            },
            {
              "internalType": "uint256",
              "name": "rangeEnd",
              "type": "uint256"
            },
            {
              "internalType": "uint256",
              "name": "tokensAllowed",
              "type": "uint256"
            },
            {
              "internalType": "uint256",
              "name": "mintableTokens",
              "type": "uint256"
            },
            {
              "internalType": "uint256",
              "name": "lockedTokens",
              "type": "uint256"
            },
            {
              "internalType": "uint256",
              "name": "rangePrice",
              "type": "uint256"
            },
            {
              "internalType": "string",
              "name": "rangeName",
              "type": "string"
            }
          ],
          "internalType": "struct range",
          "name": "data",
          "type": "tuple"
        }
      ],
      "stateMutability": "view",
      "type": "function"
    },
    {
      "inputs": [
        {
          "internalType": "uint256",
          "name": "rangeId",
          "type": "uint256"
        }
      ],
      "name": "rangeInfo",
      "outputs": [
        {
          "components": [
            {
              "internalType": "uint256",
              "name": "rangeStart",
              "type": "uint256"
            },
            {
              "internalType": "uint256",
              "name": "rangeEnd",
              "type": "uint256"
            },
            {
              "internalType": "uint256",
              "name": "tokensAllowed",
              "type": "uint256"
            },
            {
              "internalType": "uint256",
              "name": "mintableTokens",
              "type": "uint256"
            },
            {
              "internalType": "uint256",
              "name": "lockedTokens",
              "type": "uint256"
            },
            {
              "internalType": "uint256",
              "name": "rangePrice",
              "type": "uint256"
            },
            {
              "internalType": "string",
              "name": "rangeName",
              "type": "string"
            }
          ],
          "internalType": "struct range",
          "name": "data",
          "type": "tuple"
        },
        {
          "internalType": "uint256",
          "name": "productIndex",
          "type": "uint256"
        }
      ],
      "stateMutability": "view",
      "type": "function"
    },
    {
      "inputs": [
        {
          "internalType": "uint256",
          "name": "rangeIndex_",
          "type": "uint256"
        }
      ],
      "name": "rangeToProduct",
      "outputs": [
        {
          "internalType": "uint256",
          "name": "",
          "type": "uint256"
        }
      ],
      "stateMutability": "view",
      "type": "function"
    },
    {
      "inputs": [
        {
          "internalType": "bytes32",
          "name": "role",
          "type": "bytes32"
        },
        {
          "internalType": "address",
          "name": "account",
          "type": "address"
        }
      ],
      "name": "renounceRole",
      "outputs": [],
      "stateMutability": "nonpayable",
      "type": "function"
    },
    {
      "inputs": [
        {
          "internalType": "bytes32",
          "name": "role",
          "type": "bytes32"
        },
        {
          "internalType": "address",
          "name": "account",
          "type": "address"
        }
      ],
      "name": "revokeRole",
      "outputs": [],
      "stateMutability": "nonpayable",
      "type": "function"
    },
    {
      "inputs": [
        {
          "internalType": "uint256",
          "name": "rangeId",
          "type": "uint256"
        },
        {
          "internalType": "string",
          "name": "name",
          "type": "string"
        },
        {
          "internalType": "uint256",
          "name": "price_",
          "type": "uint256"
        },
        {
          "internalType": "uint256",
          "name": "tokensAllowed_",
          "type": "uint256"
        },
        {
          "internalType": "uint256",
          "name": "lockedTokens_",
          "type": "uint256"
        }
      ],
      "name": "updateRange",
      "outputs": [],
      "stateMutability": "nonpayable",
      "type": "function"
    }
  ],
  "transactionHash": "0x3a50ed8bc6f04fe36939e58ad9bbaecd69c0a9ff36d1c8eb7aa2c3c559f25a78",
  "args": [],
  "numDeployments": 2,
  "solcInputHash": "8d128ee5a66a73f617eeedf37ad5359a",
  "bytecode": "0x608060405234801561001057600080fd5b50611e49806100206000396000f3fe608060405234801561001057600080fd5b50600436106101005760003560e01c80636ebdacdf11610097578063ca15c87311610066578063ca15c87314610251578063d547741f14610264578063e054431114610277578063e4fbb6091461028a57600080fd5b80636ebdacdf146101df5780639010d07c146101f257806391d148541461021d578063c99931be1461023057600080fd5b80633cd97a55116100d35780633cd97a55146101865780635c5c0518146101a6578063673636b7146101b95780636e30b3d3146101cc57600080fd5b8063248a9ca3146101055780632f2ff15d1461013b57806336568abe14610150578063381f5ebb14610163575b600080fd5b610128610113366004611699565b6000908152600a602052604090206001015490565b6040519081526020015b60405180910390f35b61014e6101493660046116b2565b61029f565b005b61014e61015e3660046116b2565b6102ca565b610176610171366004611699565b61034d565b6040519015158152602001610132565b6101996101943660046116ee565b6103a6565b60405161013291906117c5565b61014e6101b43660046117d8565b610617565b61014e6101c736600461186d565b6107f7565b6101766101da366004611943565b610999565b61014e6101ed36600461196f565b610b76565b6102056102003660046116ee565b610c00565b6040516001600160a01b039091168152602001610132565b61017661022b3660046116b2565b610c21565b61024361023e366004611699565b610c4c565b604051610132929190611a1b565b61012861025f366004611699565b610dc6565b61014e6102723660046116b2565b610ddd565b610128610285366004611699565b610e03565b610128600080516020611df483398151915281565b6000828152600a60205260409020600101546102bb8133610e3d565b6102c58383610ea1565b505050565b6001600160a01b038116331461033f5760405162461bcd60e51b815260206004820152602f60248201527f416363657373436f6e74726f6c3a2063616e206f6e6c792072656e6f756e636560448201526e103937b632b9903337b91039b2b63360891b60648201526084015b60405180910390fd5b6103498282610f3b565b5050565b600f54600090829081106103735760405162461bcd60e51b815260040161033690611a3d565b600080600f01848154811061038a5761038a611a85565b9060005260206000209060070201600401541191505b50919050565b6103e66040518060e00160405280600081526020016000815260200160008152602001600081526020016000815260200160008152602001606081525090565b600e54831061044a5760405162461bcd60e51b815260206004820152602a60248201527f52414952204552433732312052616e6765733a2050726f6475637420646f6573604482015269081b9bdd08195e1a5cdd60b21b6064820152608401610336565b816000600e01848154811061046157610461611a85565b906000526020600020906005020160040180549050116104d35760405162461bcd60e51b815260206004820152602760248201527f52414952204552433732312052616e6765733a20496e76616c69642072616e676044820152660ca40d2dcc8caf60cb1b6064820152608401610336565b600e8054600f9190859081106104eb576104eb611a85565b9060005260206000209060050201600401838154811061050d5761050d611a85565b90600052602060002001548154811061052857610528611a85565b90600052602060002090600702016040518060e001604052908160008201548152602001600182015481526020016002820154815260200160038201548152602001600482015481526020016005820154815260200160068201805461058d90611a9b565b80601f01602080910402602001604051908101604052809291908181526020018280546105b990611a9b565b80156106065780601f106105db57610100808354040283529160200191610606565b820191906000526020600020905b8154815290600101906020018083116105e957829003601f168201915b505050505081525050905092915050565b600080516020611df48339815191526106308133610e3d565b8161067d5760405162461bcd60e51b815260206004820152601860248201527f52414952204552433732313a20456d70747920617272617900000000000000006044820152606401610336565b600e54841061069e5760405162461bcd60e51b815260040161033690611ad0565b60005b828110156107f0576107de858585848181106106bf576106bf611a85565b90506020028101906106d19190611b13565b358686858181106106e4576106e4611a85565b90506020028101906106f69190611b13565b6020013587878681811061070c5761070c611a85565b905060200281019061071e9190611b13565b6040013588888781811061073457610734611a85565b90506020028101906107469190611b13565b6060013589898881811061075c5761075c611a85565b905060200281019061076e9190611b13565b608001358a8a8981811061078457610784611a85565b90506020028101906107969190611b13565b6107a49060a0810190611b33565b8080601f016020809104026020016040519081016040528093929190818152602001838380828437600092019190915250610fb692505050565b806107e881611b97565b9150506106a1565b5050505050565b600f548590811061081a5760405162461bcd60e51b815260040161033690611a3d565b600080516020611df48339815191526108338133610e3d565b600080600f01888154811061084a5761084a611a85565b90600052602060002090600702019050848160000154826001015461086f9190611bb2565b61087a906001611bc9565b10156108985760405162461bcd60e51b815260040161033690611be1565b8054600182015485916108aa91611bb2565b6108b5906001611bc9565b10156108d35760405162461bcd60e51b815260040161033690611c3e565b6002810185905583156109325780546001820154604080519283526020830191909152810185905288907fd2deaeacc8e325d59c09833f4f8df9c144784d547a7725c7085fae3b644c93e49060600160405180910390a2600481018490555b865161094790600683019060208a0190611600565b50600581018690556040517f675fe88181b85cb3612f534abc69fa999ba2e4744dc830488c9de8b25ec6cfd190610987908a908a908a908a908a90611c9b565b60405180910390a15050505050505050565b6000806000600e0185815481106109b2576109b2611a85565b9060005260206000209060050201600401805480602002602001604051908101604052809291908181526020018280548015610a0d57602002820191906000526020600020905b8154815260200190600101908083116109f9575b5050505050905060005b8151811015610b6857846000600f01838381518110610a3857610a38611a85565b602002602001015181548110610a5057610a50611a85565b90600052602060002090600702016000015411158015610ab05750846000600f01838381518110610a8357610a83611a85565b602002602001015181548110610a9b57610a9b611a85565b90600052602060002090600702016001015410155b80610b465750836000600f01838381518110610ace57610ace611a85565b602002602001015181548110610ae657610ae6611a85565b90600052602060002090600702016000015411158015610b465750836000600f01838381518110610b1957610b19611a85565b602002602001015181548110610b3157610b31611a85565b90600052602060002090600702016001015410155b15610b5657600092505050610b6f565b80610b6081611b97565b915050610a17565b5060019150505b9392505050565b600080516020611df4833981519152610b8f8133610e3d565b600e548910610bb05760405162461bcd60e51b815260040161033690611ad0565b610bf589898989898989898080601f016020809104026020016040519081016040528093929190818152602001838380828437600092019190915250610fb692505050565b505050505050505050565b6000828152600b60205260408120610c1890836112b8565b90505b92915050565b6000918252600a602090815260408084206001600160a01b0393909316845291905290205460ff1690565b610c8c6040518060e00160405280600081526020016000815260200160008152602001600081526020016000815260200160008152602001606081525090565b600f5460009083908110610cb25760405162461bcd60e51b815260040161033690611a3d565b600f805485908110610cc657610cc6611a85565b90600052602060002090600702016040518060e0016040529081600082015481526020016001820154815260200160028201548152602001600382015481526020016004820154815260200160058201548152602001600682018054610d2b90611a9b565b80601f0160208091040260200160405190810160405280929190818152602001828054610d5790611a9b565b8015610da45780601f10610d7957610100808354040283529160200191610da4565b820191906000526020600020905b815481529060010190602001808311610d8757829003601f168201915b5050509190925250505060009485526018602052604090942054939492505050565b6000818152600b60205260408120610c1b906112c4565b6000828152600a6020526040902060010154610df98133610e3d565b6102c58383610f3b565b600f5460009082908110610e295760405162461bcd60e51b815260040161033690611a3d565b505060009081526018602052604090205490565b610e478282610c21565b61034957610e5f816001600160a01b031660146112ce565b610e6a8360206112ce565b604051602001610e7b929190611cd1565b60408051601f198184030181529082905262461bcd60e51b825261033691600401611d46565b610eab8282610c21565b610349576000828152600a602090815260408083206001600160a01b03851684529091529020805460ff19166001179055610ee33390565b6001600160a01b0316816001600160a01b0316837f2f8788117e7eff1d82e926ec794901d17c78024a50270940304540a733656f0d60405160405180910390a46000828152600b602052604090206102c5908261146a565b610f458282610c21565b15610349576000828152600a602090815260408083206001600160a01b0385168085529252808320805460ff1916905551339285917ff6391f5c32d9c69d2a47ea670b442974b53935d1edc7fd64eb21e047a839171b9190a46000828152600b602052604090206102c5908261147f565b600080600e018881548110610fcd57610fcd611a85565b600091825260208220600f805460018181018084559286526005909402909201945060079091027f8d1108e10bcb7c27dddfc02ed9d693a074039d026cf4ea4240b40f7d581ac80201929161102191611bb2565b9050878911156110895760405162461bcd60e51b815260206004820152602d60248201527f52414952204552433732313a20496e76616c6964207374617274696e67206f7260448201526c1032b73234b733903a37b5b2b760991b6064820152608401610336565b856110948a8a611bb2565b61109f906001611bc9565b10156110bd5760405162461bcd60e51b815260040161033690611be1565b846110c88a8a611bb2565b6110d3906001611bc9565b10156110f15760405162461bcd60e51b815260040161033690611c3e565b6110fc8a8a8a610999565b61115f5760405162461bcd60e51b815260206004820152602e60248201527f52414952204552433732313a2043616e2774206372656174652061206c6f636b60448201526d206f6620746869732072616e676560901b6064820152608401610336565b888255600182018890556002820186905561117a8989611bb2565b611185906001611bc9565b60038301556004820185905584156111df57604080518a8152602081018a905290810186905281907fd2deaeacc8e325d59c09833f4f8df9c144784d547a7725c7085fae3b644c93e49060600160405180910390a2611220565b8461122057604080518a8152602081018a905282917f83d23f069f5730ce94e107a9258bae3b7a0f97184978fd7daa41c8df8ac6c29e910160405180910390a25b60058201879055835161123c9060068401906020870190611600565b5060008181526018602090815260408083208d90556004860180546001810182559084529190922001829055517fc4e232d19c750404428930450f0a050bf4c166f32910679d1b9e52f17bad8347906112a4908c908c908c908c908c908c908c908a90611d59565b60405180910390a150505050505050505050565b6000610c188383611494565b6000610c1b825490565b606060006112dd836002611da7565b6112e8906002611bc9565b67ffffffffffffffff81111561130057611300611857565b6040519080825280601f01601f19166020018201604052801561132a576020820181803683370190505b509050600360fc1b8160008151811061134557611345611a85565b60200101906001600160f81b031916908160001a905350600f60fb1b8160018151811061137457611374611a85565b60200101906001600160f81b031916908160001a9053506000611398846002611da7565b6113a3906001611bc9565b90505b600181111561141b576f181899199a1a9b1b9c1cb0b131b232b360811b85600f16601081106113d7576113d7611a85565b1a60f81b8282815181106113ed576113ed611a85565b60200101906001600160f81b031916908160001a90535060049490941c9361141481611dc6565b90506113a6565b508315610c185760405162461bcd60e51b815260206004820181905260248201527f537472696e67733a20686578206c656e67746820696e73756666696369656e746044820152606401610336565b6000610c18836001600160a01b0384166114be565b6000610c18836001600160a01b03841661150d565b60008260000182815481106114ab576114ab611a85565b9060005260206000200154905092915050565b600081815260018301602052604081205461150557508154600181810184556000848152602080822090930184905584548482528286019093526040902091909155610c1b565b506000610c1b565b600081815260018301602052604081205480156115f6576000611531600183611bb2565b855490915060009061154590600190611bb2565b90508181146115aa57600086600001828154811061156557611565611a85565b906000526020600020015490508087600001848154811061158857611588611a85565b6000918252602080832090910192909255918252600188019052604090208390555b85548690806115bb576115bb611ddd565b600190038181906000526020600020016000905590558560010160008681526020019081526020016000206000905560019350505050610c1b565b6000915050610c1b565b82805461160c90611a9b565b90600052602060002090601f01602090048101928261162e5760008555611674565b82601f1061164757805160ff1916838001178555611674565b82800160010185558215611674579182015b82811115611674578251825591602001919060010190611659565b50611680929150611684565b5090565b5b808211156116805760008155600101611685565b6000602082840312156116ab57600080fd5b5035919050565b600080604083850312156116c557600080fd5b8235915060208301356001600160a01b03811681146116e357600080fd5b809150509250929050565b6000806040838503121561170157600080fd5b50508035926020909101359150565b60005b8381101561172b578181015183820152602001611713565b8381111561173a576000848401525b50505050565b60008151808452611758816020860160208601611710565b601f01601f19169290920160200192915050565b805182526020810151602083015260408101516040830152606081015160608301526080810151608083015260a081015160a0830152600060c082015160e060c08501526117bd60e0850182611740565b949350505050565b602081526000610c18602083018461176c565b6000806000604084860312156117ed57600080fd5b83359250602084013567ffffffffffffffff8082111561180c57600080fd5b818601915086601f83011261182057600080fd5b81358181111561182f57600080fd5b8760208260051b850101111561184457600080fd5b6020830194508093505050509250925092565b634e487b7160e01b600052604160045260246000fd5b600080600080600060a0868803121561188557600080fd5b85359450602086013567ffffffffffffffff808211156118a457600080fd5b818801915088601f8301126118b857600080fd5b8135818111156118ca576118ca611857565b604051601f8201601f19908116603f011681019083821181831017156118f2576118f2611857565b816040528281528b602084870101111561190b57600080fd5b826020860160208301376000928101602001929092525096999698505050506040850135946060810135946080909101359350915050565b60008060006060848603121561195857600080fd5b505081359360208301359350604090920135919050565b60008060008060008060008060e0898b03121561198b57600080fd5b883597506020890135965060408901359550606089013594506080890135935060a0890135925060c089013567ffffffffffffffff808211156119cd57600080fd5b818b0191508b601f8301126119e157600080fd5b8135818111156119f057600080fd5b8c6020828501011115611a0257600080fd5b6020830194508093505050509295985092959890939650565b604081526000611a2e604083018561176c565b90508260208301529392505050565b60208082526028908201527f52414952204552433732312052616e6765733a2052616e676520646f6573206e6040820152671bdd08195e1a5cdd60c21b606082015260800190565b634e487b7160e01b600052603260045260246000fd5b600181811c90821680611aaf57607f821691505b602082108114156103a057634e487b7160e01b600052602260045260246000fd5b60208082526023908201527f52414952204552433732313a2050726f6475637420646f6573206e6f742065786040820152621a5cdd60ea1b606082015260800190565b6000823560be19833603018112611b2957600080fd5b9190910192915050565b6000808335601e19843603018112611b4a57600080fd5b83018035915067ffffffffffffffff821115611b6557600080fd5b602001915036819003821315611b7a57600080fd5b9250929050565b634e487b7160e01b600052601160045260246000fd5b6000600019821415611bab57611bab611b81565b5060010190565b600082821015611bc457611bc4611b81565b500390565b60008219821115611bdc57611bdc611b81565b500190565b6020808252603e908201527f52414952204552433732313a20416c6c6f77656420746f6b656e732073686f7560408201527f6c64206265206c657373207468616e2072616e67652773206c656e6774680000606082015260800190565b6020808252603d908201527f52414952204552433732313a204c6f636b656420746f6b656e732073686f756c60408201527f64206265206c657373207468616e2072616e67652773206c656e677468000000606082015260800190565b85815260a060208201526000611cb460a0830187611740565b604083019590955250606081019290925260809091015292915050565b7f416363657373436f6e74726f6c3a206163636f756e7420000000000000000000815260008351611d09816017850160208801611710565b7001034b99036b4b9b9b4b733903937b6329607d1b6017918401918201528351611d3a816028840160208801611710565b01602801949350505050565b602081526000610c186020830184611740565b60006101008a83528960208401528860408401528760608401528660808401528560a08401528060c0840152611d9181840186611740565b9150508260e08301529998505050505050505050565b6000816000190483118215151615611dc157611dc1611b81565b500290565b600081611dd557611dd5611b81565b506000190190565b634e487b7160e01b600052603160045260246000fdfe3c2519c4487d47714872f92cf90a50c25f5deaec2789dc2a497b1272df611db6a264697066735822122023cc7fb00ee92def7bdd617485babb2b225da570d75c57036e4d6101a3f969f464736f6c634300080b0033",
  "devdoc": {
    "kind": "dev",
    "methods": {},
    "version": 1
  },
  "userdoc": {
    "kind": "user",
    "methods": {},
    "version": 1
  },
  "storageLayout": {
    "storage": [
      {
        "astId": 7943,
        "contract": "contracts/tokens/RAIR Token Facets/RangesFacet.sol:RAIRRangesFacet",
        "label": "s",
        "offset": 0,
        "slot": "0",
        "type": "t_struct(AppStorage721)7929_storage"
      }
    ],
    "types": {
      "t_address": {
        "encoding": "inplace",
        "label": "address",
        "numberOfBytes": "20"
      },
      "t_array(t_bytes32)dyn_storage": {
        "base": "t_bytes32",
        "encoding": "dynamic_array",
        "label": "bytes32[]",
        "numberOfBytes": "32"
      },
      "t_array(t_struct(product)7828_storage)dyn_storage": {
        "base": "t_struct(product)7828_storage",
        "encoding": "dynamic_array",
        "label": "struct product[]",
        "numberOfBytes": "32"
      },
      "t_array(t_struct(range)7816_storage)dyn_storage": {
        "base": "t_struct(range)7816_storage",
        "encoding": "dynamic_array",
        "label": "struct range[]",
        "numberOfBytes": "32"
      },
      "t_array(t_uint256)dyn_storage": {
        "base": "t_uint256",
        "encoding": "dynamic_array",
        "label": "uint256[]",
        "numberOfBytes": "32"
      },
      "t_bool": {
        "encoding": "inplace",
        "label": "bool",
        "numberOfBytes": "1"
      },
      "t_bytes32": {
        "encoding": "inplace",
        "label": "bytes32",
        "numberOfBytes": "32"
      },
      "t_mapping(t_address,t_bool)": {
        "encoding": "mapping",
        "key": "t_address",
        "label": "mapping(address => bool)",
        "numberOfBytes": "32",
        "value": "t_bool"
      },
      "t_mapping(t_address,t_mapping(t_address,t_bool))": {
        "encoding": "mapping",
        "key": "t_address",
        "label": "mapping(address => mapping(address => bool))",
        "numberOfBytes": "32",
        "value": "t_mapping(t_address,t_bool)"
      },
      "t_mapping(t_address,t_mapping(t_uint256,t_uint256))": {
        "encoding": "mapping",
        "key": "t_address",
        "label": "mapping(address => mapping(uint256 => uint256))",
        "numberOfBytes": "32",
        "value": "t_mapping(t_uint256,t_uint256)"
      },
      "t_mapping(t_address,t_uint256)": {
        "encoding": "mapping",
        "key": "t_address",
        "label": "mapping(address => uint256)",
        "numberOfBytes": "32",
        "value": "t_uint256"
      },
      "t_mapping(t_bytes32,t_struct(AddressSet)2638_storage)": {
        "encoding": "mapping",
        "key": "t_bytes32",
        "label": "mapping(bytes32 => struct EnumerableSet.AddressSet)",
        "numberOfBytes": "32",
        "value": "t_struct(AddressSet)2638_storage"
      },
      "t_mapping(t_bytes32,t_struct(RoleData)5689_storage)": {
        "encoding": "mapping",
        "key": "t_bytes32",
        "label": "mapping(bytes32 => struct RoleData)",
        "numberOfBytes": "32",
        "value": "t_struct(RoleData)5689_storage"
      },
      "t_mapping(t_bytes32,t_uint256)": {
        "encoding": "mapping",
        "key": "t_bytes32",
        "label": "mapping(bytes32 => uint256)",
        "numberOfBytes": "32",
        "value": "t_uint256"
      },
      "t_mapping(t_uint256,t_address)": {
        "encoding": "mapping",
        "key": "t_uint256",
        "label": "mapping(uint256 => address)",
        "numberOfBytes": "32",
        "value": "t_address"
      },
      "t_mapping(t_uint256,t_array(t_uint256)dyn_storage)": {
        "encoding": "mapping",
        "key": "t_uint256",
        "label": "mapping(uint256 => uint256[])",
        "numberOfBytes": "32",
        "value": "t_array(t_uint256)dyn_storage"
      },
      "t_mapping(t_uint256,t_bool)": {
        "encoding": "mapping",
        "key": "t_uint256",
        "label": "mapping(uint256 => bool)",
        "numberOfBytes": "32",
        "value": "t_bool"
      },
      "t_mapping(t_uint256,t_string_storage)": {
        "encoding": "mapping",
        "key": "t_uint256",
        "label": "mapping(uint256 => string)",
        "numberOfBytes": "32",
        "value": "t_string_storage"
      },
      "t_mapping(t_uint256,t_uint256)": {
        "encoding": "mapping",
        "key": "t_uint256",
        "label": "mapping(uint256 => uint256)",
        "numberOfBytes": "32",
        "value": "t_uint256"
      },
      "t_string_storage": {
        "encoding": "bytes",
        "label": "string",
        "numberOfBytes": "32"
      },
      "t_struct(AddressSet)2638_storage": {
        "encoding": "inplace",
        "label": "struct EnumerableSet.AddressSet",
        "members": [
          {
            "astId": 2637,
            "contract": "contracts/tokens/RAIR Token Facets/RangesFacet.sol:RAIRRangesFacet",
            "label": "_inner",
            "offset": 0,
            "slot": "0",
            "type": "t_struct(Set)2337_storage"
          }
        ],
        "numberOfBytes": "64"
      },
      "t_struct(AppStorage721)7929_storage": {
        "encoding": "inplace",
        "label": "struct AppStorage721",
        "members": [
          {
            "astId": 7830,
            "contract": "contracts/tokens/RAIR Token Facets/RangesFacet.sol:RAIRRangesFacet",
            "label": "_name",
            "offset": 0,
            "slot": "0",
            "type": "t_string_storage"
          },
          {
            "astId": 7832,
            "contract": "contracts/tokens/RAIR Token Facets/RangesFacet.sol:RAIRRangesFacet",
            "label": "_symbol",
            "offset": 0,
            "slot": "1",
            "type": "t_string_storage"
          },
          {
            "astId": 7836,
            "contract": "contracts/tokens/RAIR Token Facets/RangesFacet.sol:RAIRRangesFacet",
            "label": "_owners",
            "offset": 0,
            "slot": "2",
            "type": "t_mapping(t_uint256,t_address)"
          },
          {
            "astId": 7840,
            "contract": "contracts/tokens/RAIR Token Facets/RangesFacet.sol:RAIRRangesFacet",
            "label": "_balances",
            "offset": 0,
            "slot": "3",
            "type": "t_mapping(t_address,t_uint256)"
          },
          {
            "astId": 7844,
            "contract": "contracts/tokens/RAIR Token Facets/RangesFacet.sol:RAIRRangesFacet",
            "label": "_tokenApprovals",
            "offset": 0,
            "slot": "4",
            "type": "t_mapping(t_uint256,t_address)"
          },
          {
            "astId": 7850,
            "contract": "contracts/tokens/RAIR Token Facets/RangesFacet.sol:RAIRRangesFacet",
            "label": "_operatorApprovals",
            "offset": 0,
            "slot": "5",
            "type": "t_mapping(t_address,t_mapping(t_address,t_bool))"
          },
          {
            "astId": 7856,
            "contract": "contracts/tokens/RAIR Token Facets/RangesFacet.sol:RAIRRangesFacet",
            "label": "_ownedTokens",
            "offset": 0,
            "slot": "6",
            "type": "t_mapping(t_address,t_mapping(t_uint256,t_uint256))"
          },
          {
            "astId": 7860,
            "contract": "contracts/tokens/RAIR Token Facets/RangesFacet.sol:RAIRRangesFacet",
            "label": "_ownedTokensIndex",
            "offset": 0,
            "slot": "7",
            "type": "t_mapping(t_uint256,t_uint256)"
          },
          {
            "astId": 7863,
            "contract": "contracts/tokens/RAIR Token Facets/RangesFacet.sol:RAIRRangesFacet",
            "label": "_allTokens",
            "offset": 0,
            "slot": "8",
            "type": "t_array(t_uint256)dyn_storage"
          },
          {
            "astId": 7867,
            "contract": "contracts/tokens/RAIR Token Facets/RangesFacet.sol:RAIRRangesFacet",
            "label": "_allTokensIndex",
            "offset": 0,
            "slot": "9",
            "type": "t_mapping(t_uint256,t_uint256)"
          },
          {
            "astId": 7872,
            "contract": "contracts/tokens/RAIR Token Facets/RangesFacet.sol:RAIRRangesFacet",
            "label": "_roles",
            "offset": 0,
            "slot": "10",
            "type": "t_mapping(t_bytes32,t_struct(RoleData)5689_storage)"
          },
          {
            "astId": 7877,
            "contract": "contracts/tokens/RAIR Token Facets/RangesFacet.sol:RAIRRangesFacet",
            "label": "_roleMembers",
            "offset": 0,
            "slot": "11",
            "type": "t_mapping(t_bytes32,t_struct(AddressSet)2638_storage)"
          },
          {
            "astId": 7879,
            "contract": "contracts/tokens/RAIR Token Facets/RangesFacet.sol:RAIRRangesFacet",
            "label": "baseURI",
            "offset": 0,
            "slot": "12",
            "type": "t_string_storage"
          },
          {
            "astId": 7881,
            "contract": "contracts/tokens/RAIR Token Facets/RangesFacet.sol:RAIRRangesFacet",
            "label": "factoryAddress",
            "offset": 0,
            "slot": "13",
            "type": "t_address"
          },
          {
            "astId": 7883,
            "contract": "contracts/tokens/RAIR Token Facets/RangesFacet.sol:RAIRRangesFacet",
            "label": "royaltyFee",
            "offset": 20,
            "slot": "13",
            "type": "t_uint16"
          },
          {
            "astId": 7887,
            "contract": "contracts/tokens/RAIR Token Facets/RangesFacet.sol:RAIRRangesFacet",
            "label": "products",
            "offset": 0,
            "slot": "14",
            "type": "t_array(t_struct(product)7828_storage)dyn_storage"
          },
          {
            "astId": 7891,
            "contract": "contracts/tokens/RAIR Token Facets/RangesFacet.sol:RAIRRangesFacet",
            "label": "ranges",
            "offset": 0,
            "slot": "15",
            "type": "t_array(t_struct(range)7816_storage)dyn_storage"
          },
          {
            "astId": 7895,
            "contract": "contracts/tokens/RAIR Token Facets/RangesFacet.sol:RAIRRangesFacet",
            "label": "tokenToProduct",
            "offset": 0,
            "slot": "16",
            "type": "t_mapping(t_uint256,t_uint256)"
          },
          {
            "astId": 7899,
            "contract": "contracts/tokens/RAIR Token Facets/RangesFacet.sol:RAIRRangesFacet",
            "label": "tokenToRange",
            "offset": 0,
            "slot": "17",
            "type": "t_mapping(t_uint256,t_uint256)"
          },
          {
            "astId": 7903,
            "contract": "contracts/tokens/RAIR Token Facets/RangesFacet.sol:RAIRRangesFacet",
            "label": "uniqueTokenURI",
            "offset": 0,
            "slot": "18",
            "type": "t_mapping(t_uint256,t_string_storage)"
          },
          {
            "astId": 7907,
            "contract": "contracts/tokens/RAIR Token Facets/RangesFacet.sol:RAIRRangesFacet",
            "label": "productURI",
            "offset": 0,
            "slot": "19",
            "type": "t_mapping(t_uint256,t_string_storage)"
          },
          {
            "astId": 7911,
            "contract": "contracts/tokens/RAIR Token Facets/RangesFacet.sol:RAIRRangesFacet",
            "label": "appendTokenIndexToProductURI",
            "offset": 0,
            "slot": "20",
            "type": "t_mapping(t_uint256,t_bool)"
          },
          {
            "astId": 7913,
            "contract": "contracts/tokens/RAIR Token Facets/RangesFacet.sol:RAIRRangesFacet",
            "label": "appendTokenIndexToBaseURI",
            "offset": 0,
            "slot": "21",
            "type": "t_bool"
          },
          {
            "astId": 7918,
            "contract": "contracts/tokens/RAIR Token Facets/RangesFacet.sol:RAIRRangesFacet",
            "label": "tokensByProduct",
            "offset": 0,
            "slot": "22",
            "type": "t_mapping(t_uint256,t_array(t_uint256)dyn_storage)"
          },
          {
            "astId": 7920,
            "contract": "contracts/tokens/RAIR Token Facets/RangesFacet.sol:RAIRRangesFacet",
            "label": "contractMetadataURI",
            "offset": 0,
            "slot": "23",
            "type": "t_string_storage"
          },
          {
            "astId": 7924,
            "contract": "contracts/tokens/RAIR Token Facets/RangesFacet.sol:RAIRRangesFacet",
            "label": "rangeToProduct",
            "offset": 0,
            "slot": "24",
            "type": "t_mapping(t_uint256,t_uint256)"
          },
          {
            "astId": 7928,
            "contract": "contracts/tokens/RAIR Token Facets/RangesFacet.sol:RAIRRangesFacet",
            "label": "_minted",
            "offset": 0,
            "slot": "25",
            "type": "t_mapping(t_uint256,t_bool)"
          }
        ],
        "numberOfBytes": "832"
      },
      "t_struct(RoleData)5689_storage": {
        "encoding": "inplace",
        "label": "struct RoleData",
        "members": [
          {
            "astId": 5686,
            "contract": "contracts/tokens/RAIR Token Facets/RangesFacet.sol:RAIRRangesFacet",
            "label": "members",
            "offset": 0,
            "slot": "0",
            "type": "t_mapping(t_address,t_bool)"
          },
          {
            "astId": 5688,
            "contract": "contracts/tokens/RAIR Token Facets/RangesFacet.sol:RAIRRangesFacet",
            "label": "adminRole",
            "offset": 0,
            "slot": "1",
            "type": "t_bytes32"
          }
        ],
        "numberOfBytes": "64"
      },
      "t_struct(Set)2337_storage": {
        "encoding": "inplace",
        "label": "struct EnumerableSet.Set",
        "members": [
          {
            "astId": 2332,
            "contract": "contracts/tokens/RAIR Token Facets/RangesFacet.sol:RAIRRangesFacet",
            "label": "_values",
            "offset": 0,
            "slot": "0",
            "type": "t_array(t_bytes32)dyn_storage"
          },
          {
            "astId": 2336,
            "contract": "contracts/tokens/RAIR Token Facets/RangesFacet.sol:RAIRRangesFacet",
            "label": "_indexes",
            "offset": 0,
            "slot": "1",
            "type": "t_mapping(t_bytes32,t_uint256)"
          }
        ],
        "numberOfBytes": "64"
      },
      "t_struct(product)7828_storage": {
        "encoding": "inplace",
        "label": "struct product",
        "members": [
          {
            "astId": 7818,
            "contract": "contracts/tokens/RAIR Token Facets/RangesFacet.sol:RAIRRangesFacet",
            "label": "startingToken",
            "offset": 0,
            "slot": "0",
            "type": "t_uint256"
          },
          {
            "astId": 7820,
            "contract": "contracts/tokens/RAIR Token Facets/RangesFacet.sol:RAIRRangesFacet",
            "label": "endingToken",
            "offset": 0,
            "slot": "1",
            "type": "t_uint256"
          },
          {
            "astId": 7822,
            "contract": "contracts/tokens/RAIR Token Facets/RangesFacet.sol:RAIRRangesFacet",
            "label": "mintableTokens",
            "offset": 0,
            "slot": "2",
            "type": "t_uint256"
          },
          {
            "astId": 7824,
            "contract": "contracts/tokens/RAIR Token Facets/RangesFacet.sol:RAIRRangesFacet",
            "label": "name",
            "offset": 0,
            "slot": "3",
            "type": "t_string_storage"
          },
          {
            "astId": 7827,
            "contract": "contracts/tokens/RAIR Token Facets/RangesFacet.sol:RAIRRangesFacet",
            "label": "rangeList",
            "offset": 0,
            "slot": "4",
            "type": "t_array(t_uint256)dyn_storage"
          }
        ],
        "numberOfBytes": "160"
      },
      "t_struct(range)7816_storage": {
        "encoding": "inplace",
        "label": "struct range",
        "members": [
          {
            "astId": 7803,
            "contract": "contracts/tokens/RAIR Token Facets/RangesFacet.sol:RAIRRangesFacet",
            "label": "rangeStart",
            "offset": 0,
            "slot": "0",
            "type": "t_uint256"
          },
          {
            "astId": 7805,
            "contract": "contracts/tokens/RAIR Token Facets/RangesFacet.sol:RAIRRangesFacet",
            "label": "rangeEnd",
            "offset": 0,
            "slot": "1",
            "type": "t_uint256"
          },
          {
            "astId": 7807,
            "contract": "contracts/tokens/RAIR Token Facets/RangesFacet.sol:RAIRRangesFacet",
            "label": "tokensAllowed",
            "offset": 0,
            "slot": "2",
            "type": "t_uint256"
          },
          {
            "astId": 7809,
            "contract": "contracts/tokens/RAIR Token Facets/RangesFacet.sol:RAIRRangesFacet",
            "label": "mintableTokens",
            "offset": 0,
            "slot": "3",
            "type": "t_uint256"
          },
          {
            "astId": 7811,
            "contract": "contracts/tokens/RAIR Token Facets/RangesFacet.sol:RAIRRangesFacet",
            "label": "lockedTokens",
            "offset": 0,
            "slot": "4",
            "type": "t_uint256"
          },
          {
            "astId": 7813,
            "contract": "contracts/tokens/RAIR Token Facets/RangesFacet.sol:RAIRRangesFacet",
            "label": "rangePrice",
            "offset": 0,
            "slot": "5",
            "type": "t_uint256"
          },
          {
            "astId": 7815,
            "contract": "contracts/tokens/RAIR Token Facets/RangesFacet.sol:RAIRRangesFacet",
            "label": "rangeName",
            "offset": 0,
            "slot": "6",
            "type": "t_string_storage"
          }
        ],
        "numberOfBytes": "224"
      },
      "t_uint16": {
        "encoding": "inplace",
        "label": "uint16",
        "numberOfBytes": "2"
      },
      "t_uint256": {
        "encoding": "inplace",
        "label": "uint256",
        "numberOfBytes": "32"
      }
    }
  }
}