{
  "address": "0x982B88e877018b026E952CA46C52D2129c4C7aD2",
  "abi": [
    {
      "anonymous": false,
      "inputs": [
        {
          "indexed": true,
          "internalType": "bytes32",
          "name": "role",
          "type": "bytes32"
        },
        {
          "indexed": true,
          "internalType": "bytes32",
          "name": "previousAdminRole",
          "type": "bytes32"
        },
        {
          "indexed": true,
          "internalType": "bytes32",
          "name": "newAdminRole",
          "type": "bytes32"
        }
      ],
      "name": "RoleAdminChanged",
      "type": "event"
    },
    {
      "anonymous": false,
      "inputs": [
        {
          "indexed": true,
          "internalType": "bytes32",
          "name": "role",
          "type": "bytes32"
        },
        {
          "indexed": true,
          "internalType": "address",
          "name": "account",
          "type": "address"
        },
        {
          "indexed": true,
          "internalType": "address",
          "name": "sender",
          "type": "address"
        }
      ],
      "name": "RoleGranted",
      "type": "event"
    },
    {
      "anonymous": false,
      "inputs": [
        {
          "indexed": true,
          "internalType": "bytes32",
          "name": "role",
          "type": "bytes32"
        },
        {
          "indexed": true,
          "internalType": "address",
          "name": "account",
          "type": "address"
        },
        {
          "indexed": true,
          "internalType": "address",
          "name": "sender",
          "type": "address"
        }
      ],
      "name": "RoleRevoked",
      "type": "event"
    },
    {
      "inputs": [],
      "name": "ADMINISTRATOR",
      "outputs": [
        {
          "internalType": "bytes32",
          "name": "",
          "type": "bytes32"
        }
      ],
      "stateMutability": "view",
      "type": "function"
    },
    {
      "inputs": [],
      "name": "ALLOWED_ERC777",
      "outputs": [
        {
          "internalType": "bytes32",
          "name": "",
          "type": "bytes32"
        }
      ],
      "stateMutability": "view",
      "type": "function"
    },
    {
      "inputs": [],
      "name": "DEFAULT_ADMIN_ROLE",
      "outputs": [
        {
          "internalType": "bytes32",
          "name": "",
          "type": "bytes32"
        }
      ],
      "stateMutability": "view",
      "type": "function"
    },
    {
      "inputs": [
        {
          "internalType": "bytes32",
          "name": "role",
          "type": "bytes32"
        }
      ],
      "name": "getRoleAdmin",
      "outputs": [
        {
          "internalType": "bytes32",
          "name": "",
          "type": "bytes32"
        }
      ],
      "stateMutability": "view",
      "type": "function"
    },
    {
      "inputs": [
        {
          "internalType": "bytes32",
          "name": "role",
          "type": "bytes32"
        },
        {
          "internalType": "uint256",
          "name": "index",
          "type": "uint256"
        }
      ],
      "name": "getRoleMember",
      "outputs": [
        {
          "internalType": "address",
          "name": "",
          "type": "address"
        }
      ],
      "stateMutability": "view",
      "type": "function"
    },
    {
      "inputs": [
        {
          "internalType": "bytes32",
          "name": "role",
          "type": "bytes32"
        }
      ],
      "name": "getRoleMemberCount",
      "outputs": [
        {
          "internalType": "uint256",
          "name": "",
          "type": "uint256"
        }
      ],
      "stateMutability": "view",
      "type": "function"
    },
    {
      "inputs": [
        {
          "internalType": "address",
          "name": "userAddress",
          "type": "address"
        }
      ],
      "name": "getTotalUserCredits",
      "outputs": [
        {
          "internalType": "uint256",
          "name": "balance",
          "type": "uint256"
        }
      ],
      "stateMutability": "view",
      "type": "function"
    },
    {
      "inputs": [
        {
          "internalType": "address",
          "name": "token",
          "type": "address"
        },
        {
          "internalType": "address",
          "name": "userAddress",
          "type": "address"
        }
      ],
      "name": "getUserCredits",
      "outputs": [
        {
          "internalType": "uint256",
          "name": "balance",
          "type": "uint256"
        }
      ],
      "stateMutability": "view",
      "type": "function"
    },
    {
      "inputs": [
        {
          "internalType": "bytes32",
          "name": "role",
          "type": "bytes32"
        },
        {
          "internalType": "address",
          "name": "account",
          "type": "address"
        }
      ],
      "name": "grantRole",
      "outputs": [],
      "stateMutability": "nonpayable",
      "type": "function"
    },
    {
      "inputs": [
        {
          "internalType": "bytes32",
          "name": "role",
          "type": "bytes32"
        },
        {
          "internalType": "address",
          "name": "account",
          "type": "address"
        }
      ],
      "name": "hasRole",
      "outputs": [
        {
          "internalType": "bool",
          "name": "",
          "type": "bool"
        }
      ],
      "stateMutability": "view",
      "type": "function"
    },
    {
      "inputs": [
        {
          "internalType": "bytes32",
          "name": "role",
          "type": "bytes32"
        },
        {
          "internalType": "address",
          "name": "account",
          "type": "address"
        }
      ],
      "name": "renounceRole",
      "outputs": [],
      "stateMutability": "nonpayable",
      "type": "function"
    },
    {
      "inputs": [
        {
          "internalType": "bytes32",
          "name": "role",
          "type": "bytes32"
        },
        {
          "internalType": "address",
          "name": "account",
          "type": "address"
        }
      ],
      "name": "revokeRole",
      "outputs": [],
      "stateMutability": "nonpayable",
      "type": "function"
    }
  ],
  "transactionHash": "0x0249416257f2fce3b6135ff0cef839bc04a52ea8e1027e995e27bd8a1f0a29c2",
  "args": [],
  "numDeployments": 1,
  "solcInputHash": "6db0d6c83c95def51e994aeb444e0aca",
  "bytecode": "0x608060405234801561001057600080fd5b50610b6d806100206000396000f3fe608060405234801561001057600080fd5b50600436106100b45760003560e01c806391d148541161007157806391d14854146101b1578063a217fddf146101d4578063ca15c873146101dc578063d547741f146101ef578063d7ccbefe14610202578063ee21c7841461022957600080fd5b8063248a9ca3146100b95780632f2ff15d146100df57806336568abe146100f45780633f71a75b1461010757806359fe72791461015f5780639010d07c14610186575b600080fd5b6100cc6100c73660046108b7565b610271565b6040519081526020015b60405180910390f35b6100f26100ed3660046108ec565b610293565b005b6100f26101023660046108ec565b6102b5565b6100cc610115366004610918565b6001600160a01b0391821660009081527f4450215f052c8f729ef154acb1b5bb971dcf3a8c302f328f6a0a91077b170fb56020908152604080832093909416825291909152205490565b6100cc7f5feb4fc8353744df88c070fec2ce0b260201a0f48c15e9c30b74c6772f05987e81565b610199610194366004610942565b610338565b6040516001600160a01b0390911681526020016100d6565b6101c46101bf3660046108ec565b610366565b60405190151581526020016100d6565b6100cc600081565b6100cc6101ea3660046108b7565b61039e565b6100f26101fd3660046108ec565b6103c2565b6100cc7f632cf005d591a00d863083f41da4ebaf8627023b95d6248039a4445218150dc281565b6100cc610237366004610964565b6001600160a01b031660009081527f4450215f052c8f729ef154acb1b5bb971dcf3a8c302f328f6a0a91077b170fb6602052604090205490565b6000908152600080516020610af8833981519152602052604090206001015490565b61029c82610271565b6102a681336103df565b6102b08383610443565b505050565b6001600160a01b038116331461032a5760405162461bcd60e51b815260206004820152602f60248201527f416363657373436f6e74726f6c3a2063616e206f6e6c792072656e6f756e636560448201526e103937b632b9903337b91039b2b63360891b60648201526084015b60405180910390fd5b61033482826104da565b5050565b6000828152600080516020610b188339815191526020526040812061035d908361056f565b90505b92915050565b6000918252600080516020610af8833981519152602090815260408084206001600160a01b0393909316845291905290205460ff1690565b6000818152600080516020610b18833981519152602052604081206103609061057b565b6103cb82610271565b6103d581336103df565b6102b083836104da565b6103e98282610366565b61033457610401816001600160a01b03166014610585565b61040c836020610585565b60405160200161041d9291906109a3565b60408051601f198184030181529082905262461bcd60e51b825261032191600401610a18565b61044d8282610366565b610334576000828152600080516020610af8833981519152602090815260408083206001600160a01b0385168085529252808320805460ff1916600117905551339285917f2f8788117e7eff1d82e926ec794901d17c78024a50270940304540a733656f0d9190a46000828152600080516020610b18833981519152602052604090206102b09082610721565b6104e48282610366565b15610334576000828152600080516020610af8833981519152602090815260408083206001600160a01b0385168085529252808320805460ff1916905551339285917ff6391f5c32d9c69d2a47ea670b442974b53935d1edc7fd64eb21e047a839171b9190a46000828152600080516020610b18833981519152602052604090206102b09082610736565b600061035d838361074b565b6000610360825490565b60606000610594836002610a61565b61059f906002610a78565b67ffffffffffffffff8111156105b7576105b7610a8b565b6040519080825280601f01601f1916602001820160405280156105e1576020820181803683370190505b509050600360fc1b816000815181106105fc576105fc610aa1565b60200101906001600160f81b031916908160001a905350600f60fb1b8160018151811061062b5761062b610aa1565b60200101906001600160f81b031916908160001a905350600061064f846002610a61565b61065a906001610a78565b90505b60018111156106d2576f181899199a1a9b1b9c1cb0b131b232b360811b85600f166010811061068e5761068e610aa1565b1a60f81b8282815181106106a4576106a4610aa1565b60200101906001600160f81b031916908160001a90535060049490941c936106cb81610ab7565b905061065d565b50831561035d5760405162461bcd60e51b815260206004820181905260248201527f537472696e67733a20686578206c656e67746820696e73756666696369656e746044820152606401610321565b600061035d836001600160a01b038416610775565b600061035d836001600160a01b0384166107c4565b600082600001828154811061076257610762610aa1565b9060005260206000200154905092915050565b60008181526001830160205260408120546107bc57508154600181810184556000848152602080822090930184905584548482528286019093526040902091909155610360565b506000610360565b600081815260018301602052604081205480156108ad5760006107e8600183610ace565b85549091506000906107fc90600190610ace565b905081811461086157600086600001828154811061081c5761081c610aa1565b906000526020600020015490508087600001848154811061083f5761083f610aa1565b6000918252602080832090910192909255918252600188019052604090208390555b855486908061087257610872610ae1565b600190038181906000526020600020016000905590558560010160008681526020019081526020016000206000905560019350505050610360565b6000915050610360565b6000602082840312156108c957600080fd5b5035919050565b80356001600160a01b03811681146108e757600080fd5b919050565b600080604083850312156108ff57600080fd5b8235915061090f602084016108d0565b90509250929050565b6000806040838503121561092b57600080fd5b610934836108d0565b915061090f602084016108d0565b6000806040838503121561095557600080fd5b50508035926020909101359150565b60006020828403121561097657600080fd5b61035d826108d0565b60005b8381101561099a578181015183820152602001610982565b50506000910152565b7f416363657373436f6e74726f6c3a206163636f756e74200000000000000000008152600083516109db81601785016020880161097f565b7001034b99036b4b9b9b4b733903937b6329607d1b6017918401918201528351610a0c81602884016020880161097f565b01602801949350505050565b6020815260008251806020840152610a3781604085016020870161097f565b601f01601f19169190910160400192915050565b634e487b7160e01b600052601160045260246000fd5b808202811582820484141761036057610360610a4b565b8082018082111561036057610360610a4b565b634e487b7160e01b600052604160045260246000fd5b634e487b7160e01b600052603260045260246000fd5b600081610ac657610ac6610a4b565b506000190190565b8181038181111561036057610360610a4b565b634e487b7160e01b600052603160045260246000fdfe4f4f658137f4e10317e1a22624c2b114af7563a20fb2e3444ae2ac2342d457d04f4f658137f4e10317e1a22624c2b114af7563a20fb2e3444ae2ac2342d457d1a2646970667358221220e924d9cd7e4033e5784ebb883a4d3419740978ab17802a4c41036e38a151ffd564736f6c63430008130033",
  "devdoc": {
    "kind": "dev",
    "methods": {},
    "title": "Deposit logic for the credit system",
    "version": 1
  },
  "userdoc": {
    "kind": "user",
    "methods": {},
    "notice": "Uses the ERC777 receiver hook to trigger additional logic",
    "version": 1
  },
  "storageLayout": {
    "storage": [],
    "types": null
  }
}