{
  "address": "0x5C40A8674F66C64796Ec7b15b1e9AC3d195f4438",
  "abi": [
    {
      "anonymous": false,
      "inputs": [
        {
          "indexed": false,
          "internalType": "address",
          "name": "userAddress",
          "type": "address"
        },
        {
          "indexed": false,
          "internalType": "address",
          "name": "tokenAddress",
          "type": "address"
        },
        {
          "indexed": false,
          "internalType": "uint256",
          "name": "amount",
          "type": "uint256"
        },
        {
          "indexed": false,
          "internalType": "uint256",
          "name": "totalTokensDeposited",
          "type": "uint256"
        }
      ],
      "name": "ReceivedTokens",
      "type": "event"
    },
    {
      "anonymous": false,
      "inputs": [
        {
          "indexed": true,
          "internalType": "bytes32",
          "name": "role",
          "type": "bytes32"
        },
        {
          "indexed": true,
          "internalType": "bytes32",
          "name": "previousAdminRole",
          "type": "bytes32"
        },
        {
          "indexed": true,
          "internalType": "bytes32",
          "name": "newAdminRole",
          "type": "bytes32"
        }
      ],
      "name": "RoleAdminChanged",
      "type": "event"
    },
    {
      "anonymous": false,
      "inputs": [
        {
          "indexed": true,
          "internalType": "bytes32",
          "name": "role",
          "type": "bytes32"
        },
        {
          "indexed": true,
          "internalType": "address",
          "name": "account",
          "type": "address"
        },
        {
          "indexed": true,
          "internalType": "address",
          "name": "sender",
          "type": "address"
        }
      ],
      "name": "RoleGranted",
      "type": "event"
    },
    {
      "anonymous": false,
      "inputs": [
        {
          "indexed": true,
          "internalType": "bytes32",
          "name": "role",
          "type": "bytes32"
        },
        {
          "indexed": true,
          "internalType": "address",
          "name": "account",
          "type": "address"
        },
        {
          "indexed": true,
          "internalType": "address",
          "name": "sender",
          "type": "address"
        }
      ],
      "name": "RoleRevoked",
      "type": "event"
    },
    {
      "inputs": [],
      "name": "ADMINISTRATOR",
      "outputs": [
        {
          "internalType": "bytes32",
          "name": "",
          "type": "bytes32"
        }
      ],
      "stateMutability": "view",
      "type": "function"
    },
    {
      "inputs": [],
      "name": "ALLOWED_ERC777",
      "outputs": [
        {
          "internalType": "bytes32",
          "name": "",
          "type": "bytes32"
        }
      ],
      "stateMutability": "view",
      "type": "function"
    },
    {
      "inputs": [],
      "name": "DEFAULT_ADMIN_ROLE",
      "outputs": [
        {
          "internalType": "bytes32",
          "name": "",
          "type": "bytes32"
        }
      ],
      "stateMutability": "view",
      "type": "function"
    },
    {
      "inputs": [
        {
          "internalType": "bytes32",
          "name": "role",
          "type": "bytes32"
        }
      ],
      "name": "getRoleAdmin",
      "outputs": [
        {
          "internalType": "bytes32",
          "name": "",
          "type": "bytes32"
        }
      ],
      "stateMutability": "view",
      "type": "function"
    },
    {
      "inputs": [
        {
          "internalType": "bytes32",
          "name": "role",
          "type": "bytes32"
        },
        {
          "internalType": "uint256",
          "name": "index",
          "type": "uint256"
        }
      ],
      "name": "getRoleMember",
      "outputs": [
        {
          "internalType": "address",
          "name": "",
          "type": "address"
        }
      ],
      "stateMutability": "view",
      "type": "function"
    },
    {
      "inputs": [
        {
          "internalType": "bytes32",
          "name": "role",
          "type": "bytes32"
        }
      ],
      "name": "getRoleMemberCount",
      "outputs": [
        {
          "internalType": "uint256",
          "name": "",
          "type": "uint256"
        }
      ],
      "stateMutability": "view",
      "type": "function"
    },
    {
      "inputs": [
        {
          "internalType": "bytes32",
          "name": "role",
          "type": "bytes32"
        },
        {
          "internalType": "address",
          "name": "account",
          "type": "address"
        }
      ],
      "name": "grantRole",
      "outputs": [],
      "stateMutability": "nonpayable",
      "type": "function"
    },
    {
      "inputs": [
        {
          "internalType": "bytes32",
          "name": "role",
          "type": "bytes32"
        },
        {
          "internalType": "address",
          "name": "account",
          "type": "address"
        }
      ],
      "name": "hasRole",
      "outputs": [
        {
          "internalType": "bool",
          "name": "",
          "type": "bool"
        }
      ],
      "stateMutability": "view",
      "type": "function"
    },
    {
      "inputs": [
        {
          "internalType": "bytes32",
          "name": "role",
          "type": "bytes32"
        },
        {
          "internalType": "address",
          "name": "account",
          "type": "address"
        }
      ],
      "name": "renounceRole",
      "outputs": [],
      "stateMutability": "nonpayable",
      "type": "function"
    },
    {
      "inputs": [
        {
          "internalType": "bytes32",
          "name": "role",
          "type": "bytes32"
        },
        {
          "internalType": "address",
          "name": "account",
          "type": "address"
        }
      ],
      "name": "revokeRole",
      "outputs": [],
      "stateMutability": "nonpayable",
      "type": "function"
    },
    {
      "inputs": [
        {
          "internalType": "address",
          "name": "operator",
          "type": "address"
        },
        {
          "internalType": "address",
          "name": "from",
          "type": "address"
        },
        {
          "internalType": "address",
          "name": "to",
          "type": "address"
        },
        {
          "internalType": "uint256",
          "name": "amount",
          "type": "uint256"
        },
        {
          "internalType": "bytes",
          "name": "userData",
          "type": "bytes"
        },
        {
          "internalType": "bytes",
          "name": "operatorData",
          "type": "bytes"
        }
      ],
      "name": "tokensReceived",
      "outputs": [],
      "stateMutability": "nonpayable",
      "type": "function"
    }
  ],
  "transactionHash": "0x3cd2e5d7450356ebe9370d0b757222251b4fecdea6e5874a84d948b5220d78cc",
  "args": [],
  "numDeployments": 1,
  "solcInputHash": "397cc6ee0ea798d89b27054303431364",
  "bytecode": "0x608060405234801561001057600080fd5b50610d0d806100206000396000f3fe608060405234801561001057600080fd5b50600436106100a85760003560e01c80639010d07c116100715780639010d07c1461013557806391d1485414610160578063a217fddf14610183578063ca15c8731461018b578063d547741f1461019e578063d7ccbefe146101b157600080fd5b806223de29146100ad578063248a9ca3146100c25780632f2ff15d146100e857806336568abe146100fb57806359fe72791461010e575b600080fd5b6100c06100bb366004610a0d565b6101d8565b005b6100d56100d0366004610ab8565b610367565b6040519081526020015b60405180910390f35b6100c06100f6366004610ad1565b610389565b6100c0610109366004610ad1565b6103ab565b6100d57f5feb4fc8353744df88c070fec2ce0b260201a0f48c15e9c30b74c6772f05987e81565b610148610143366004610afd565b610429565b6040516001600160a01b0390911681526020016100df565b61017361016e366004610ad1565b610457565b60405190151581526020016100df565b6100d5600081565b6100d5610199366004610ab8565b61048f565b6100c06101ac366004610ad1565b6104b3565b6100d57f632cf005d591a00d863083f41da4ebaf8627023b95d6248039a4445218150dc281565b7f632cf005d591a00d863083f41da4ebaf8627023b95d6248039a4445218150dc261020381336104d0565b6001600160a01b038716301461026c5760405162461bcd60e51b815260206004820152602360248201527f437265646974436f6e73756d65723a20496e76616c69642064657374696e617460448201526234b7b760e91b60648201526084015b60405180910390fd5b3360009081527f4450215f052c8f729ef154acb1b5bb971dcf3a8c302f328f6a0a91077b170fb5602081815260408084206001600160a01b038d16855290915282208054919289926102bf908490610b35565b90915550506001600160a01b0389166000908152600182016020526040812080548992906102ee908490610b35565b9091555050336000818152602083815260408083206001600160a01b038e1680855290835292819020548151938452918301939093528183018a9052606082015290517fee70738e4859e9b5eaba108c07f5f97459880f7d99f4af4bbbb400a529ed3db29181900360800190a150505050505050505050565b6000908152600080516020610c98833981519152602052604090206001015490565b61039282610367565b61039c81336104d0565b6103a68383610534565b505050565b6001600160a01b038116331461041b5760405162461bcd60e51b815260206004820152602f60248201527f416363657373436f6e74726f6c3a2063616e206f6e6c792072656e6f756e636560448201526e103937b632b9903337b91039b2b63360891b6064820152608401610263565b61042582826105cb565b5050565b6000828152600080516020610cb88339815191526020526040812061044e9083610660565b90505b92915050565b6000918252600080516020610c98833981519152602090815260408084206001600160a01b0393909316845291905290205460ff1690565b6000818152600080516020610cb8833981519152602052604081206104519061066c565b6104bc82610367565b6104c681336104d0565b6103a683836105cb565b6104da8282610457565b610425576104f2816001600160a01b03166014610676565b6104fd836020610676565b60405160200161050e929190610b6c565b60408051601f198184030181529082905262461bcd60e51b825261026391600401610be1565b61053e8282610457565b610425576000828152600080516020610c98833981519152602090815260408083206001600160a01b0385168085529252808320805460ff1916600117905551339285917f2f8788117e7eff1d82e926ec794901d17c78024a50270940304540a733656f0d9190a46000828152600080516020610cb8833981519152602052604090206103a69082610812565b6105d58282610457565b15610425576000828152600080516020610c98833981519152602090815260408083206001600160a01b0385168085529252808320805460ff1916905551339285917ff6391f5c32d9c69d2a47ea670b442974b53935d1edc7fd64eb21e047a839171b9190a46000828152600080516020610cb8833981519152602052604090206103a69082610827565b600061044e838361083c565b6000610451825490565b60606000610685836002610c14565b610690906002610b35565b67ffffffffffffffff8111156106a8576106a8610c2b565b6040519080825280601f01601f1916602001820160405280156106d2576020820181803683370190505b509050600360fc1b816000815181106106ed576106ed610c41565b60200101906001600160f81b031916908160001a905350600f60fb1b8160018151811061071c5761071c610c41565b60200101906001600160f81b031916908160001a9053506000610740846002610c14565b61074b906001610b35565b90505b60018111156107c3576f181899199a1a9b1b9c1cb0b131b232b360811b85600f166010811061077f5761077f610c41565b1a60f81b82828151811061079557610795610c41565b60200101906001600160f81b031916908160001a90535060049490941c936107bc81610c57565b905061074e565b50831561044e5760405162461bcd60e51b815260206004820181905260248201527f537472696e67733a20686578206c656e67746820696e73756666696369656e746044820152606401610263565b600061044e836001600160a01b038416610866565b600061044e836001600160a01b0384166108b5565b600082600001828154811061085357610853610c41565b9060005260206000200154905092915050565b60008181526001830160205260408120546108ad57508154600181810184556000848152602080822090930184905584548482528286019093526040902091909155610451565b506000610451565b6000818152600183016020526040812054801561099e5760006108d9600183610c6e565b85549091506000906108ed90600190610c6e565b905081811461095257600086600001828154811061090d5761090d610c41565b906000526020600020015490508087600001848154811061093057610930610c41565b6000918252602080832090910192909255918252600188019052604090208390555b855486908061096357610963610c81565b600190038181906000526020600020016000905590558560010160008681526020019081526020016000206000905560019350505050610451565b6000915050610451565b80356001600160a01b03811681146109bf57600080fd5b919050565b60008083601f8401126109d657600080fd5b50813567ffffffffffffffff8111156109ee57600080fd5b602083019150836020828501011115610a0657600080fd5b9250929050565b60008060008060008060008060c0898b031215610a2957600080fd5b610a32896109a8565b9750610a4060208a016109a8565b9650610a4e60408a016109a8565b955060608901359450608089013567ffffffffffffffff80821115610a7257600080fd5b610a7e8c838d016109c4565b909650945060a08b0135915080821115610a9757600080fd5b50610aa48b828c016109c4565b999c989b5096995094979396929594505050565b600060208284031215610aca57600080fd5b5035919050565b60008060408385031215610ae457600080fd5b82359150610af4602084016109a8565b90509250929050565b60008060408385031215610b1057600080fd5b50508035926020909101359150565b634e487b7160e01b600052601160045260246000fd5b8082018082111561045157610451610b1f565b60005b83811015610b63578181015183820152602001610b4b565b50506000910152565b7f416363657373436f6e74726f6c3a206163636f756e7420000000000000000000815260008351610ba4816017850160208801610b48565b7001034b99036b4b9b9b4b733903937b6329607d1b6017918401918201528351610bd5816028840160208801610b48565b01602801949350505050565b6020815260008251806020840152610c00816040850160208701610b48565b601f01601f19169190910160400192915050565b808202811582820484141761045157610451610b1f565b634e487b7160e01b600052604160045260246000fd5b634e487b7160e01b600052603260045260246000fd5b600081610c6657610c66610b1f565b506000190190565b8181038181111561045157610451610b1f565b634e487b7160e01b600052603160045260246000fdfe4f4f658137f4e10317e1a22624c2b114af7563a20fb2e3444ae2ac2342d457d04f4f658137f4e10317e1a22624c2b114af7563a20fb2e3444ae2ac2342d457d1a2646970667358221220922bd7570b9966c8e868b07a89a84096f27097f6795660e075b8d44f8bfbee0e64736f6c63430008130033",
  "devdoc": {
    "events": {
      "ReceivedTokens(address,address,uint256,uint256)": {
        "params": {
          "amount": "Amount of tokens transferred to this contract",
          "tokenAddress": "Address of the ERC777 contract used",
          "totalTokensDeposited": "Total amount of tokens deposited by the user",
          "userAddress": "Public address of the user depositing"
        }
      }
    },
    "kind": "dev",
    "methods": {
      "tokensReceived(address,address,address,uint256,bytes,bytes)": {
        "details": "This is our deposit mechanism",
        "params": {
          "amount": "The number of tokens sent",
          "from": "The owner of the tokens",
          "operator": "The ERC777 operator calling the send() function",
          "operatorData": "bytes sent from the operator",
          "to": "The recipient of the tokens",
          "userData": "bytes sent from the send call"
        }
      }
    },
    "title": "Deposit logic for the credit system",
    "version": 1
  },
  "userdoc": {
    "events": {
      "ReceivedTokens(address,address,uint256,uint256)": {
        "notice": "This event stores the user that deposited tokens into the contract"
      }
    },
    "kind": "user",
    "methods": {
      "tokensReceived(address,address,address,uint256,bytes,bytes)": {
        "notice": "Function called by an ERC777 when they send tokens"
      }
    },
    "notice": "Uses the ERC777 receiver hook to trigger additional logic",
    "version": 1
  },
  "storageLayout": {
    "storage": [],
    "types": null
  }
}