{
  "address": "0x8DD9bac877dDEE493F46FD0Df7F4d12054A63607",
  "abi": [
    {
      "anonymous": false,
      "inputs": [
        {
          "indexed": false,
          "internalType": "address",
          "name": "erc721Address",
          "type": "address"
        },
        {
          "indexed": false,
          "internalType": "uint256",
          "name": "rangeIndex",
          "type": "uint256"
        },
        {
          "indexed": false,
          "internalType": "string",
          "name": "rangeName",
          "type": "string"
        },
        {
          "indexed": false,
          "internalType": "uint256",
          "name": "price",
          "type": "uint256"
        },
        {
          "indexed": false,
          "internalType": "uint256",
          "name": "feeSplitsLength",
          "type": "uint256"
        },
        {
          "indexed": false,
          "internalType": "uint256",
          "name": "offerIndex",
          "type": "uint256"
        }
      ],
      "name": "AddedMintingOffer",
      "type": "event"
    },
    {
      "anonymous": false,
      "inputs": [
        {
          "indexed": true,
          "internalType": "bytes32",
          "name": "role",
          "type": "bytes32"
        },
        {
          "indexed": true,
          "internalType": "bytes32",
          "name": "previousAdminRole",
          "type": "bytes32"
        },
        {
          "indexed": true,
          "internalType": "bytes32",
          "name": "newAdminRole",
          "type": "bytes32"
        }
      ],
      "name": "RoleAdminChanged",
      "type": "event"
    },
    {
      "anonymous": false,
      "inputs": [
        {
          "indexed": true,
          "internalType": "bytes32",
          "name": "role",
          "type": "bytes32"
        },
        {
          "indexed": true,
          "internalType": "address",
          "name": "account",
          "type": "address"
        },
        {
          "indexed": true,
          "internalType": "address",
          "name": "sender",
          "type": "address"
        }
      ],
      "name": "RoleGranted",
      "type": "event"
    },
    {
      "anonymous": false,
      "inputs": [
        {
          "indexed": true,
          "internalType": "bytes32",
          "name": "role",
          "type": "bytes32"
        },
        {
          "indexed": true,
          "internalType": "address",
          "name": "account",
          "type": "address"
        },
        {
          "indexed": true,
          "internalType": "address",
          "name": "sender",
          "type": "address"
        }
      ],
      "name": "RoleRevoked",
      "type": "event"
    },
    {
      "anonymous": false,
      "inputs": [
        {
          "indexed": false,
          "internalType": "address",
          "name": "erc721Address",
          "type": "address"
        },
        {
          "indexed": false,
          "internalType": "uint256",
          "name": "rangeIndex",
          "type": "uint256"
        },
        {
          "indexed": false,
          "internalType": "uint256",
          "name": "tokenIndex",
          "type": "uint256"
        },
        {
          "indexed": false,
          "internalType": "address",
          "name": "buyer",
          "type": "address"
        }
      ],
      "name": "TokenMinted",
      "type": "event"
    },
    {
      "inputs": [
        {
          "internalType": "address",
          "name": "erc721Address_",
          "type": "address"
        },
        {
          "internalType": "uint256",
          "name": "rangeIndex_",
          "type": "uint256"
        },
        {
          "components": [
            {
              "internalType": "address",
              "name": "recipient",
              "type": "address"
            },
            {
              "internalType": "uint256",
              "name": "percentage",
              "type": "uint256"
            }
          ],
          "internalType": "struct feeSplits[]",
          "name": "splits",
          "type": "tuple[]"
        },
        {
          "internalType": "bool",
          "name": "visible_",
          "type": "bool"
        },
        {
          "internalType": "address",
          "name": "nodeAddress_",
          "type": "address"
        }
      ],
      "name": "addMintingOffer",
      "outputs": [],
      "stateMutability": "nonpayable",
      "type": "function"
    },
    {
      "inputs": [
        {
          "internalType": "address",
          "name": "erc721Address_",
          "type": "address"
        },
        {
          "internalType": "uint256[]",
          "name": "rangeIndexes",
          "type": "uint256[]"
        },
        {
          "components": [
            {
              "internalType": "address",
              "name": "recipient",
              "type": "address"
            },
            {
              "internalType": "uint256",
              "name": "percentage",
              "type": "uint256"
            }
          ],
          "internalType": "struct feeSplits[][]",
          "name": "splits",
          "type": "tuple[][]"
        },
        {
          "internalType": "bool[]",
          "name": "visibility",
          "type": "bool[]"
        },
        {
          "internalType": "address",
          "name": "nodeAddress_",
          "type": "address"
        }
      ],
      "name": "addMintingOfferBatch",
      "outputs": [],
      "stateMutability": "nonpayable",
      "type": "function"
    },
    {
      "inputs": [
        {
          "internalType": "uint256",
          "name": "offerIndex_",
          "type": "uint256"
        },
        {
          "internalType": "uint256",
          "name": "tokenIndex_",
          "type": "uint256"
        }
      ],
      "name": "buyMintingOffer",
      "outputs": [],
      "stateMutability": "payable",
      "type": "function"
    },
    {
      "inputs": [
        {
          "internalType": "uint256",
          "name": "offerIndex_",
          "type": "uint256"
        },
        {
          "internalType": "uint256[]",
          "name": "tokenIndexes",
          "type": "uint256[]"
        }
      ],
      "name": "buyMintingOfferBatch",
      "outputs": [],
      "stateMutability": "payable",
      "type": "function"
    },
    {
      "inputs": [
        {
          "internalType": "uint256",
          "name": "offerIndex",
          "type": "uint256"
        }
      ],
      "name": "getOfferInfo",
      "outputs": [
        {
          "components": [
            {
              "internalType": "address",
              "name": "erc721Address",
              "type": "address"
            },
            {
              "internalType": "address",
              "name": "nodeAddress",
              "type": "address"
            },
            {
              "internalType": "uint256",
              "name": "rangeIndex",
              "type": "uint256"
            },
            {
              "components": [
                {
                  "internalType": "address",
                  "name": "recipient",
                  "type": "address"
                },
                {
                  "internalType": "uint256",
                  "name": "percentage",
                  "type": "uint256"
                }
              ],
              "internalType": "struct feeSplits[]",
              "name": "fees",
              "type": "tuple[]"
            },
            {
              "internalType": "bool",
              "name": "visible",
              "type": "bool"
            }
          ],
          "internalType": "struct mintingOffer",
          "name": "mintOffer",
          "type": "tuple"
        },
        {
          "components": [
            {
              "internalType": "uint256",
              "name": "rangeStart",
              "type": "uint256"
            },
            {
              "internalType": "uint256",
              "name": "rangeEnd",
              "type": "uint256"
            },
            {
              "internalType": "uint256",
              "name": "tokensAllowed",
              "type": "uint256"
            },
            {
              "internalType": "uint256",
              "name": "mintableTokens",
              "type": "uint256"
            },
            {
              "internalType": "uint256",
              "name": "lockedTokens",
              "type": "uint256"
            },
            {
              "internalType": "uint256",
              "name": "rangePrice",
              "type": "uint256"
            },
            {
              "internalType": "string",
              "name": "rangeName",
              "type": "string"
            }
          ],
          "internalType": "struct IRAIR721.range",
          "name": "rangeData",
          "type": "tuple"
        },
        {
          "internalType": "uint256",
          "name": "productIndex",
          "type": "uint256"
        }
      ],
      "stateMutability": "view",
      "type": "function"
    },
    {
      "inputs": [
        {
          "internalType": "address",
          "name": "erc721Address",
          "type": "address"
        },
        {
          "internalType": "uint256",
          "name": "rangeIndex",
          "type": "uint256"
        }
      ],
      "name": "getOfferInfoForAddress",
      "outputs": [
        {
          "internalType": "uint256",
          "name": "offerIndex",
          "type": "uint256"
        },
        {
          "components": [
            {
              "internalType": "address",
              "name": "erc721Address",
              "type": "address"
            },
            {
              "internalType": "address",
              "name": "nodeAddress",
              "type": "address"
            },
            {
              "internalType": "uint256",
              "name": "rangeIndex",
              "type": "uint256"
            },
            {
              "components": [
                {
                  "internalType": "address",
                  "name": "recipient",
                  "type": "address"
                },
                {
                  "internalType": "uint256",
                  "name": "percentage",
                  "type": "uint256"
                }
              ],
              "internalType": "struct feeSplits[]",
              "name": "fees",
              "type": "tuple[]"
            },
            {
              "internalType": "bool",
              "name": "visible",
              "type": "bool"
            }
          ],
          "internalType": "struct mintingOffer",
          "name": "mintOffer",
          "type": "tuple"
        },
        {
          "components": [
            {
              "internalType": "uint256",
              "name": "rangeStart",
              "type": "uint256"
            },
            {
              "internalType": "uint256",
              "name": "rangeEnd",
              "type": "uint256"
            },
            {
              "internalType": "uint256",
              "name": "tokensAllowed",
              "type": "uint256"
            },
            {
              "internalType": "uint256",
              "name": "mintableTokens",
              "type": "uint256"
            },
            {
              "internalType": "uint256",
              "name": "lockedTokens",
              "type": "uint256"
            },
            {
              "internalType": "uint256",
              "name": "rangePrice",
              "type": "uint256"
            },
            {
              "internalType": "string",
              "name": "rangeName",
              "type": "string"
            }
          ],
          "internalType": "struct IRAIR721.range",
          "name": "rangeData",
          "type": "tuple"
        },
        {
          "internalType": "uint256",
          "name": "productIndex",
          "type": "uint256"
        }
      ],
      "stateMutability": "view",
      "type": "function"
    },
    {
      "inputs": [
        {
          "internalType": "address",
          "name": "erc721Address",
          "type": "address"
        }
      ],
      "name": "getOffersCountForAddress",
      "outputs": [
        {
          "internalType": "uint256",
          "name": "",
          "type": "uint256"
        }
      ],
      "stateMutability": "view",
      "type": "function"
    },
    {
      "inputs": [
        {
          "internalType": "bytes32",
          "name": "role",
          "type": "bytes32"
        }
      ],
      "name": "getRoleAdmin",
      "outputs": [
        {
          "internalType": "bytes32",
          "name": "",
          "type": "bytes32"
        }
      ],
      "stateMutability": "view",
      "type": "function"
    },
    {
      "inputs": [
        {
          "internalType": "bytes32",
          "name": "role",
          "type": "bytes32"
        },
        {
          "internalType": "uint256",
          "name": "index",
          "type": "uint256"
        }
      ],
      "name": "getRoleMember",
      "outputs": [
        {
          "internalType": "address",
          "name": "",
          "type": "address"
        }
      ],
      "stateMutability": "view",
      "type": "function"
    },
    {
      "inputs": [
        {
          "internalType": "bytes32",
          "name": "role",
          "type": "bytes32"
        }
      ],
      "name": "getRoleMemberCount",
      "outputs": [
        {
          "internalType": "uint256",
          "name": "",
          "type": "uint256"
        }
      ],
      "stateMutability": "view",
      "type": "function"
    },
    {
      "inputs": [],
      "name": "getTotalOfferCount",
      "outputs": [
        {
          "internalType": "uint256",
          "name": "",
          "type": "uint256"
        }
      ],
      "stateMutability": "view",
      "type": "function"
    },
    {
      "inputs": [
        {
          "internalType": "bytes32",
          "name": "role",
          "type": "bytes32"
        },
        {
          "internalType": "address",
          "name": "account",
          "type": "address"
        }
      ],
      "name": "grantRole",
      "outputs": [],
      "stateMutability": "nonpayable",
      "type": "function"
    },
    {
      "inputs": [
        {
          "internalType": "bytes32",
          "name": "role",
          "type": "bytes32"
        },
        {
          "internalType": "address",
          "name": "account",
          "type": "address"
        }
      ],
      "name": "hasRole",
      "outputs": [
        {
          "internalType": "bool",
          "name": "",
          "type": "bool"
        }
      ],
      "stateMutability": "view",
      "type": "function"
    },
    {
      "inputs": [
        {
          "internalType": "bytes32",
          "name": "role",
          "type": "bytes32"
        },
        {
          "internalType": "address",
          "name": "account",
          "type": "address"
        }
      ],
      "name": "renounceRole",
      "outputs": [],
      "stateMutability": "nonpayable",
      "type": "function"
    },
    {
      "inputs": [
        {
          "internalType": "bytes32",
          "name": "role",
          "type": "bytes32"
        },
        {
          "internalType": "address",
          "name": "account",
          "type": "address"
        }
      ],
      "name": "revokeRole",
      "outputs": [],
      "stateMutability": "nonpayable",
      "type": "function"
    }
  ],
  "transactionHash": "0xc49be1c633a258d68f65c0151ebd546d3a67e5aa256509f6f5d18f9d3823d646",
  "args": [],
  "numDeployments": 5,
  "solcInputHash": "f9230a4be01cced59f0be2944f6e8c11",
  "bytecode": "0x608060405234801561001057600080fd5b50612975806100206000396000f3fe6080604052600436106100e85760003560e01c80638b0e2e131161008a5780639c3ac84b116100595780639c3ac84b14610294578063ca15c873146102b4578063d547741f146102d4578063df275c6a146102f457600080fd5b80638b0e2e13146101e75780638bcccedb146102175780639010d07c1461022c57806391d148541461026457600080fd5b80632a851254116100c65780632a851254146101745780632f2ff15d1461019457806336568abe146101b457806382ec0663146101d457600080fd5b806308db7184146100ed578063248a9ca3146101025780632a1da98214610145575b600080fd5b6101006100fb366004611efb565b61032a565b005b34801561010e57600080fd5b5061013261011d366004611f47565b60009081526020819052604090206001015490565b6040519081526020015b60405180910390f35b34801561015157600080fd5b50610165610160366004611f47565b6107e0565b60405161013c939291906120ad565b34801561018057600080fd5b5061010061018f3660046120ff565b6109a9565b3480156101a057600080fd5b506101006101af3660046121ba565b610b57565b3480156101c057600080fd5b506101006101cf3660046121ba565b610b82565b6101006101e23660046121e6565b610c00565b3480156101f357600080fd5b50610207610202366004612208565b610fc0565b60405161013c9493929190612232565b34801561022357600080fd5b50600754610132565b34801561023857600080fd5b5061024c6102473660046121e6565b6111f6565b6040516001600160a01b03909116815260200161013c565b34801561027057600080fd5b5061028461027f3660046121ba565b611217565b604051901515815260200161013c565b3480156102a057600080fd5b506101006102af36600461228b565b611240565b3480156102c057600080fd5b506101326102cf366004611f47565b6112a7565b3480156102e057600080fd5b506101006102ef3660046121ba565b6112be565b34801561030057600080fd5b5061013261030f36600461233b565b6001600160a01b031660009081526009602052604090205490565b600754839081106103565760405162461bcd60e51b815260040161034d90612356565b60405180910390fd5b816103af5760405162461bcd60e51b815260206004820152602360248201527f4d696e746572204d61726b6574706c6163653a204e6f20746f6b656e732073656044820152626e742160e81b606482015260840161034d565b60008060070185815481106103c6576103c66123a6565b60009182526020909120600590910201600481015490915060ff166103fd5760405162461bcd60e51b815260040161034d906123bc565b8054610411906001600160a01b03166112e4565b61042d5760405162461bcd60e51b815260040161034d90612419565b805460028201546040516364cc98df60e11b815260048101919091526000916001600160a01b03169063c99931be90602401600060405180830381865afa15801561047c573d6000803e3d6000fd5b505050506040513d6000823e601f3d908101601f191682016040526104a49190810190612534565b5060a081015190915034906104ba9086906125fd565b11156104d85760405162461bcd60e51b815260040161034d9061261c565b60a08101516000906104eb9086906125fd565b6104f59034612663565b11156105455760a081015133906108fc906105119087906125fd565b61051b9034612663565b6040518115909202916000818181858888f19350505050158015610543573d6000803e3d6000fd5b505b6003546000906105569060646125fd565b600554600454610566919061267a565b60a08401516105769088906125fd565b61058091906125fd565b61058a9190612692565b60018401546003549192506001600160a01b0316906108fc906105ae9060646125fd565b60045460a08601516105c1908a906125fd565b6105cb91906125fd565b6105d59190612692565b6040518115909202916000818181858888f193505050501580156105fd573d6000803e3d6000fd5b506006546003546001600160a01b03909116906108fc9061061f9060646125fd565b60055460a0860151610632908a906125fd565b61063c91906125fd565b6106469190612692565b6040518115909202916000818181858888f1935050505015801561066e573d6000803e3d6000fd5b506000805b60038501548110156107565760035461068d9060646125fd565b8560030182815481106106a2576106a26123a6565b906000526020600020906002020160010154898990508660a001516106c791906125fd565b6106d191906125fd565b6106db9190612692565b91506106e7828461267a565b92508460030181815481106106fe576106fe6123a6565b600091825260208220600290910201546040516001600160a01b039091169184156108fc02918591818181858888f19350505050158015610743573d6000803e3d6000fd5b508061074e816126b4565b915050610673565b60a08401516107669088906125fd565b83146107845760405162461bcd60e51b815260040161034d906126cf565b5060005b868110156107d557845460028601546107c3916001600160a01b0316908a8a858181106107b7576107b76123a6565b90506020020135611375565b806107cd816126b4565b915050610788565b505050505050505050565b6040805160a081018252600080825260208201819052918101829052606080820152608081019190915261084a6040518060e00160405280600081526020016000815260200160008152602001600081526020016000815260200160008152602001606081525090565b60008060006007018581548110610863576108636123a6565b600091825260208083206040805160a081018252600590940290910180546001600160a01b039081168552600182015416848401526002810154848301526003810180548351818602810186019094528084529495919460608701949192909184015b8282101561090e576000848152602090819020604080518082019091526002850290910180546001600160a01b031682526001908101548284015290835290920191016108c6565b5050509082525060049182015460ff161515602090910152815160408084015190516364cc98df60e11b8152928301529195508592506001600160a01b039091169063c99931be90602401600060405180830381865afa158015610976573d6000803e3d6000fd5b505050506040513d6000823e601f3d908101601f1916820160405261099e9190810190612534565b949690955092505050565b85610a025760405162461bcd60e51b815260206004820152602360248201527f4d696e746572204d61726b6574706c6163653a204e6f206f66666572732073656044820152626e742160e81b606482015260840161034d565b8582148015610a1057508382145b610a7b5760405162461bcd60e51b815260206004820152603660248201527f4d696e746572204d61726b6574706c6163653a204172726179732073686f756c6044820152750c840d0c2ecca40e8d0ca40e6c2daca40d8cadccee8d60531b606482015260840161034d565b60005b868110156107d557610b4589898984818110610a9c57610a9c6123a6565b90506020020135888885818110610ab557610ab56123a6565b9050602002810190610ac7919061271c565b808060200260200160405190810160405280939291908181526020016000905b82821015610b1357610b0460408302860136819003810190612766565b81526020019060010190610ae7565b5050505050878786818110610b2a57610b2a6123a6565b9050602002016020810190610b3f91906127bd565b86611432565b80610b4f816126b4565b915050610a7e565b600082815260208190526040902060010154610b7381336119f2565b610b7d8383611a56565b505050565b6001600160a01b0381163314610bf25760405162461bcd60e51b815260206004820152602f60248201527f416363657373436f6e74726f6c3a2063616e206f6e6c792072656e6f756e636560448201526e103937b632b9903337b91039b2b63360891b606482015260840161034d565b610bfc8282611aee565b5050565b60075482908110610c235760405162461bcd60e51b815260040161034d90612356565b6000806007018481548110610c3a57610c3a6123a6565b60009182526020909120600590910201600481015490915060ff16610c715760405162461bcd60e51b815260040161034d906123bc565b8054610c85906001600160a01b03166112e4565b610ca15760405162461bcd60e51b815260040161034d90612419565b805460028201546040516364cc98df60e11b815260048101919091526000916001600160a01b03169063c99931be90602401600060405180830381865afa158015610cf0573d6000803e3d6000fd5b505050506040513d6000823e601f3d908101601f19168201604052610d189190810190612534565b509050348160a001511115610d3f5760405162461bcd60e51b815260040161034d9061261c565b60008160a0015134610d519190612663565b1115610d965760a081015133906108fc90610d6c9034612663565b6040518115909202916000818181858888f19350505050158015610d94573d6000803e3d6000fd5b505b600354600090610da79060646125fd565b600554600454610db7919061267a565b8360a00151610dc691906125fd565b610dd09190612692565b60018401546003549192506001600160a01b0316906108fc90610df49060646125fd565b60045460a0860151610e0691906125fd565b610e109190612692565b6040518115909202916000818181858888f19350505050158015610e38573d6000803e3d6000fd5b506006546003546001600160a01b03909116906108fc90610e5a9060646125fd565b60055460a0860151610e6c91906125fd565b610e769190612692565b6040518115909202916000818181858888f19350505050158015610e9e573d6000803e3d6000fd5b506000805b6003850154811015610f7857600354610ebd9060646125fd565b856003018281548110610ed257610ed26123a6565b9060005260206000209060020201600101548560a00151610ef391906125fd565b610efd9190612692565b9150610f09828461267a565b9250846003018181548110610f2057610f206123a6565b600091825260208220600290910201546040516001600160a01b039091169184156108fc02918591818181858888f19350505050158015610f65573d6000803e3d6000fd5b5080610f70816126b4565b915050610ea3565b508260a001518214610f9c5760405162461bcd60e51b815260040161034d906126cf565b83546002850154610fb7916001600160a01b03169088611375565b50505050505050565b6040805160a081018252600080825260208201819052918101829052606080820152608081018290526110296040518060e00160405280600081526020016000815260200160008152602001600081526020016000815260200160008152602001606081525090565b6001600160a01b03851660009081526009602052604081208054829160079188908110611058576110586123a6565b906000526020600020015481548110611073576110736123a6565b600091825260208083206040805160a081018252600590940290910180546001600160a01b039081168552600182015416848401526002810154848301526003810180548351818602810186019094528084529495919460608701949192909184015b8282101561111e576000848152602090819020604080518082019091526002850290910180546001600160a01b031682526001908101548284015290835290920191016110d6565b5050509082525060049182015460ff161515602090910152815160408084015190516364cc98df60e11b8152928301529192506001600160a01b039091169063c99931be90602401600060405180830381865afa158015611183573d6000803e3d6000fd5b505050506040513d6000823e601f3d908101601f191682016040526111ab9190810190612534565b6001600160a01b0389166000908152600960205260409020805492955090935090879081106111dc576111dc6123a6565b906000526020600020015494508093505092959194509250565b600082815260016020526040812061120e9083611b67565b90505b92915050565b6000918252602082815260408084206001600160a01b0393909316845291905290205460ff1690565b61129f86868686808060200260200160405190810160405280939291908181526020016000905b828210156112935761128460408302860136819003810190612766565b81526020019060010190611267565b50505050508585611432565b505050505050565b600081815260016020526040812061121190611b73565b6000828152602081905260409020600101546112da81336119f2565b610b7d8383611aee565b604051632474521560e21b81527ff0887ba65ee2024ea881d91b74c2450ef19e1557f03bed3ea9f16b037cbe2dc960048201523060248201526000906001600160a01b038316906391d1485490604401602060405180830381865afa158015611351573d6000803e3d6000fd5b505050506040513d601f19601f8201168201806040525081019061121191906127da565b60405163e766224360e01b815233600482015260248101839052604481018290526001600160a01b0384169063e766224390606401600060405180830381600087803b1580156113c457600080fd5b505af11580156113d8573d6000803e3d6000fd5b5050604080516001600160a01b0387168152602081018690529081018490523360608201527f6a1a369ef3c3eebe428c993f6eb79fb1438544741070bc7a4388c801fa08463d9250608001905060405180910390a1505050565b604051632474521560e21b81527f3c2519c4487d47714872f92cf90a50c25f5deaec2789dc2a497b1272df611db6600482015233602482015285906001600160a01b038216906391d1485490604401602060405180830381865afa15801561149e573d6000803e3d6000fd5b505050506040513d601f19601f820116820180604052508101906114c291906127da565b6115345760405162461bcd60e51b815260206004820152603d60248201527f4d696e746572204d61726b6574706c6163653a2053656e6465722069736e277460448201527f207468652063726561746f72206f662074686520636f6e747261637421000000606482015260840161034d565b8561153e816112e4565b61155a5760405162461bcd60e51b815260040161034d90612419565b6001600160a01b0387166000908152600860209081526040808320898452909152902054879087901561159f5760405162461bcd60e51b815260040161034d906127f7565b6001600160a01b03821660009081526008602090815260408083208484529091529020541580156115d1575060075415155b1561166257816001600160a01b031660006007016000815481106115f7576115f76123a6565b60009182526020909120600590910201546001600160a01b03161415806116465750806000600701600081548110611631576116316123a6565b90600052602060002090600502016002015414155b6116625760405162461bcd60e51b815260040161034d906127f7565b6007805460018101825560009182526040516364cc98df60e11b815260059091027fa66cc928b5edb82af9bd49922954155ab7b0942694bea4ce44661d9a8736c6880191906001600160a01b038c169063c99931be906116ca908d9060040190815260200190565b600060405180830381865afa1580156116e7573d6000803e3d6000fd5b505050506040513d6000823e601f3d908101601f1916820160405261170f9190810190612534565b509050600081606001511161178c5760405162461bcd60e51b815260206004820152603860248201527f4d696e746572204d61726b6574706c6163653a204f6666657220646f65736e2760448201527f74206861766520746f6b656e7320617661696c61626c65210000000000000000606482015260840161034d565b81546001600160a01b03808d166001600160a01b0319928316178455600184018054918a1691909216179055600282018a9055600480830180548a151560ff1990911617905560055490546000916117e39161267a565b905060005b8a5181101561188d578a8181518110611803576118036123a6565b6020026020010151602001518261181a919061267a565b9150836003018b8281518110611832576118326123a6565b602090810291909101810151825460018082018555600094855293839020825160029092020180546001600160a01b0319166001600160a01b0390921691909117815591015191015580611885816126b4565b9150506117e8565b5060035461189c9060646125fd565b81146119005760405162461bcd60e51b815260206004820152602d60248201527f4d696e746572204d61726b6574706c6163653a204665657320646f6e2774206160448201526c646420757020746f203130302560981b606482015260840161034d565b6001600160a01b038c16600090815260096020526040902060075461192790600190612663565b8154600181810184556000938452602090932001556007546119499190612663565b600060080160008e6001600160a01b03166001600160a01b0316815260200190815260200160002060008d8152602001908152602001600020819055507f26d54df15e8a0d68fa0ae9702cf190da88a0e1d48b0ed4c6b1099610b292f5f78c8c8460c001518560a001518e5160016000600701805490506119ca9190612663565b6040516119dc96959493929190612845565b60405180910390a1505050505050505050505050565b6119fc8282611217565b610bfc57611a14816001600160a01b03166014611b7d565b611a1f836020611b7d565b604051602001611a3092919061288a565b60408051601f198184030181529082905262461bcd60e51b825261034d916004016128ff565b611a608282611217565b610bfc576000828152602081815260408083206001600160a01b03851684529091529020805460ff19166001179055611a963390565b6001600160a01b0316816001600160a01b0316837f2f8788117e7eff1d82e926ec794901d17c78024a50270940304540a733656f0d60405160405180910390a46000828152600160205260409020610b7d9082611d19565b611af88282611217565b15610bfc576000828152602081815260408083206001600160a01b0385168085529252808320805460ff1916905551339285917ff6391f5c32d9c69d2a47ea670b442974b53935d1edc7fd64eb21e047a839171b9190a46000828152600160205260409020610b7d9082611d2e565b600061120e8383611d43565b6000611211825490565b60606000611b8c8360026125fd565b611b9790600261267a565b67ffffffffffffffff811115611baf57611baf61246d565b6040519080825280601f01601f191660200182016040528015611bd9576020820181803683370190505b509050600360fc1b81600081518110611bf457611bf46123a6565b60200101906001600160f81b031916908160001a905350600f60fb1b81600181518110611c2357611c236123a6565b60200101906001600160f81b031916908160001a9053506000611c478460026125fd565b611c5290600161267a565b90505b6001811115611cca576f181899199a1a9b1b9c1cb0b131b232b360811b85600f1660108110611c8657611c866123a6565b1a60f81b828281518110611c9c57611c9c6123a6565b60200101906001600160f81b031916908160001a90535060049490941c93611cc381612912565b9050611c55565b50831561120e5760405162461bcd60e51b815260206004820181905260248201527f537472696e67733a20686578206c656e67746820696e73756666696369656e74604482015260640161034d565b600061120e836001600160a01b038416611d6d565b600061120e836001600160a01b038416611dbc565b6000826000018281548110611d5a57611d5a6123a6565b9060005260206000200154905092915050565b6000818152600183016020526040812054611db457508154600181810184556000848152602080822090930184905584548482528286019093526040902091909155611211565b506000611211565b60008181526001830160205260408120548015611ea5576000611de0600183612663565b8554909150600090611df490600190612663565b9050818114611e59576000866000018281548110611e1457611e146123a6565b9060005260206000200154905080876000018481548110611e3757611e376123a6565b6000918252602080832090910192909255918252600188019052604090208390555b8554869080611e6a57611e6a612929565b600190038181906000526020600020016000905590558560010160008681526020019081526020016000206000905560019350505050611211565b6000915050611211565b60008083601f840112611ec157600080fd5b50813567ffffffffffffffff811115611ed957600080fd5b6020830191508360208260051b8501011115611ef457600080fd5b9250929050565b600080600060408486031215611f1057600080fd5b83359250602084013567ffffffffffffffff811115611f2e57600080fd5b611f3a86828701611eaf565b9497909650939450505050565b600060208284031215611f5957600080fd5b5035919050565b600060a0830160018060a01b0380845116855260208181860151168187015260408086015181880152606086015160a0606089015284815180875260c08a0191508483019650600092505b80831015611fd657865180518716835285015185830152958401956001929092019190830190611fab565b5060808801519550611fec60808a018715159052565b98975050505050505050565b60005b83811015612013578181015183820152602001611ffb565b83811115612022576000848401525b50505050565b60008151808452612040816020860160208601611ff8565b601f01601f19169290920160200192915050565b805182526020810151602083015260408101516040830152606081015160608301526080810151608083015260a081015160a0830152600060c082015160e060c08501526120a560e0850182612028565b949350505050565b6060815260006120c06060830186611f60565b82810360208401526120d28186612054565b915050826040830152949350505050565b80356001600160a01b03811681146120fa57600080fd5b919050565b60008060008060008060008060a0898b03121561211b57600080fd5b612124896120e3565b9750602089013567ffffffffffffffff8082111561214157600080fd5b61214d8c838d01611eaf565b909950975060408b013591508082111561216657600080fd5b6121728c838d01611eaf565b909750955060608b013591508082111561218b57600080fd5b506121988b828c01611eaf565b90945092506121ab905060808a016120e3565b90509295985092959890939650565b600080604083850312156121cd57600080fd5b823591506121dd602084016120e3565b90509250929050565b600080604083850312156121f957600080fd5b50508035926020909101359150565b6000806040838503121561221b57600080fd5b612224836120e3565b946020939093013593505050565b84815260806020820152600061224b6080830186611f60565b828103604084015261225d8186612054565b91505082606083015295945050505050565b801515811461227d57600080fd5b50565b80356120fa8161226f565b60008060008060008060a087890312156122a457600080fd5b6122ad876120e3565b955060208701359450604087013567ffffffffffffffff808211156122d157600080fd5b818901915089601f8301126122e557600080fd5b8135818111156122f457600080fd5b8a60208260061b850101111561230957600080fd5b60208301965080955050505061232160608801612280565b915061232f608088016120e3565b90509295509295509295565b60006020828403121561234d57600080fd5b61120e826120e3565b60208082526030908201527f4d696e74696e67204d61726b6574706c6163653a204d696e74696e67204f666660408201526f195c88191bd95cdb89dd08195e1a5cdd60821b606082015260800190565b634e487b7160e01b600052603260045260246000fd5b60208082526037908201527f4d696e746572204d61726b6574706c6163653a2054686973206f66666572206960408201527f73206e6f7420726561647920746f20626520736f6c6421000000000000000000606082015260800190565b60208082526034908201527f4d696e746572204d61726b6574706c6163653a2054686973204d61726b6574706040820152736c6163652069736e27742061204d696e7465722160601b606082015260800190565b634e487b7160e01b600052604160045260246000fd5b60405160e0810167ffffffffffffffff811182821017156124a6576124a661246d565b60405290565b600082601f8301126124bd57600080fd5b815167ffffffffffffffff808211156124d8576124d861246d565b604051601f8301601f19908116603f011681019082821181831017156125005761250061246d565b8160405283815286602085880101111561251957600080fd5b61252a846020830160208901611ff8565b9695505050505050565b6000806040838503121561254757600080fd5b825167ffffffffffffffff8082111561255f57600080fd5b9084019060e0828703121561257357600080fd5b61257b612483565b825181526020830151602082015260408301516040820152606083015160608201526080830151608082015260a083015160a082015260c0830151828111156125c357600080fd5b6125cf888286016124ac565b60c08301525060209590950151949694955050505050565b634e487b7160e01b600052601160045260246000fd5b6000816000190483118215151615612617576126176125e7565b500290565b60208082526027908201527f4d696e746572204d61726b6574706c6163653a20496e73756666696369656e746040820152662066756e64732160c81b606082015260800190565b600082821015612675576126756125e7565b500390565b6000821982111561268d5761268d6125e7565b500190565b6000826126af57634e487b7160e01b600052601260045260246000fd5b500490565b60006000198214156126c8576126c86125e7565b5060010190565b6020808252602d908201527f4d696e746572204d61726b6574706c6163653a204572726f72207472616e736660408201526c657272696e672066756e64732160981b606082015260800190565b6000808335601e1984360301811261273357600080fd5b83018035915067ffffffffffffffff82111561274e57600080fd5b6020019150600681901b3603821315611ef457600080fd5b60006040828403121561277857600080fd5b6040516040810181811067ffffffffffffffff8211171561279b5761279b61246d565b6040526127a7836120e3565b8152602083013560208201528091505092915050565b6000602082840312156127cf57600080fd5b813561120e8161226f565b6000602082840312156127ec57600080fd5b815161120e8161226f565b6020808252602e908201527f4d696e746572204d61726b6574706c6163653a2052616e676520616c7265616460408201526d3c903430b99030b71037b33332b960911b606082015260800190565b60018060a01b038716815285602082015260c06040820152600061286c60c0830187612028565b606083019590955250608081019290925260a0909101529392505050565b7f416363657373436f6e74726f6c3a206163636f756e74200000000000000000008152600083516128c2816017850160208801611ff8565b7001034b99036b4b9b9b4b733903937b6329607d1b60179184019182015283516128f3816028840160208801611ff8565b01602801949350505050565b60208152600061120e6020830184612028565b600081612921576129216125e7565b506000190190565b634e487b7160e01b600052603160045260246000fdfea264697066735822122051560048307c5de0ee30f5b1c1ea0d2caa90319480df28455cb337862777d79564736f6c634300080b0033",
  "devdoc": {
    "kind": "dev",
    "methods": {},
    "version": 1
  },
  "userdoc": {
    "kind": "user",
    "methods": {},
    "version": 1
  },
  "storageLayout": {
    "storage": [
      {
        "astId": 3551,
        "contract": "contracts/Marketplace/Facets/MintingOffersFacet.sol:MintingOffersFacet",
        "label": "s",
        "offset": 0,
        "slot": "0",
        "type": "t_struct(AppStorage)3533_storage"
      }
    ],
    "types": {
      "t_address": {
        "encoding": "inplace",
        "label": "address",
        "numberOfBytes": "20"
      },
      "t_array(t_bytes32)dyn_storage": {
        "base": "t_bytes32",
        "encoding": "dynamic_array",
        "label": "bytes32[]",
        "numberOfBytes": "32"
      },
      "t_array(t_struct(feeSplits)3477_storage)dyn_storage": {
        "base": "t_struct(feeSplits)3477_storage",
        "encoding": "dynamic_array",
        "label": "struct feeSplits[]",
        "numberOfBytes": "32"
      },
      "t_array(t_struct(mintingOffer)3490_storage)dyn_storage": {
        "base": "t_struct(mintingOffer)3490_storage",
        "encoding": "dynamic_array",
        "label": "struct mintingOffer[]",
        "numberOfBytes": "32"
      },
      "t_array(t_uint256)dyn_storage": {
        "base": "t_uint256",
        "encoding": "dynamic_array",
        "label": "uint256[]",
        "numberOfBytes": "32"
      },
      "t_bool": {
        "encoding": "inplace",
        "label": "bool",
        "numberOfBytes": "1"
      },
      "t_bytes32": {
        "encoding": "inplace",
        "label": "bytes32",
        "numberOfBytes": "32"
      },
      "t_mapping(t_address,t_array(t_uint256)dyn_storage)": {
        "encoding": "mapping",
        "key": "t_address",
        "label": "mapping(address => uint256[])",
        "numberOfBytes": "32",
        "value": "t_array(t_uint256)dyn_storage"
      },
      "t_mapping(t_address,t_bool)": {
        "encoding": "mapping",
        "key": "t_address",
        "label": "mapping(address => bool)",
        "numberOfBytes": "32",
        "value": "t_bool"
      },
      "t_mapping(t_address,t_mapping(t_uint256,t_uint256))": {
        "encoding": "mapping",
        "key": "t_address",
        "label": "mapping(address => mapping(uint256 => uint256))",
        "numberOfBytes": "32",
        "value": "t_mapping(t_uint256,t_uint256)"
      },
      "t_mapping(t_bytes32,t_struct(AddressSet)2428_storage)": {
        "encoding": "mapping",
        "key": "t_bytes32",
        "label": "mapping(bytes32 => struct EnumerableSet.AddressSet)",
        "numberOfBytes": "32",
        "value": "t_struct(AddressSet)2428_storage"
      },
      "t_mapping(t_bytes32,t_struct(RoleData)3497_storage)": {
        "encoding": "mapping",
        "key": "t_bytes32",
        "label": "mapping(bytes32 => struct RoleData)",
        "numberOfBytes": "32",
        "value": "t_struct(RoleData)3497_storage"
      },
      "t_mapping(t_bytes32,t_uint256)": {
        "encoding": "mapping",
        "key": "t_bytes32",
        "label": "mapping(bytes32 => uint256)",
        "numberOfBytes": "32",
        "value": "t_uint256"
      },
      "t_mapping(t_uint256,t_uint256)": {
        "encoding": "mapping",
        "key": "t_uint256",
        "label": "mapping(uint256 => uint256)",
        "numberOfBytes": "32",
        "value": "t_uint256"
      },
      "t_struct(AddressSet)2428_storage": {
        "encoding": "inplace",
        "label": "struct EnumerableSet.AddressSet",
        "members": [
          {
            "astId": 2427,
            "contract": "contracts/Marketplace/Facets/MintingOffersFacet.sol:MintingOffersFacet",
            "label": "_inner",
            "offset": 0,
            "slot": "0",
            "type": "t_struct(Set)2127_storage"
          }
        ],
        "numberOfBytes": "64"
      },
      "t_struct(AppStorage)3533_storage": {
        "encoding": "inplace",
        "label": "struct AppStorage",
        "members": [
          {
            "astId": 3502,
            "contract": "contracts/Marketplace/Facets/MintingOffersFacet.sol:MintingOffersFacet",
            "label": "_roles",
            "offset": 0,
            "slot": "0",
            "type": "t_mapping(t_bytes32,t_struct(RoleData)3497_storage)"
          },
          {
            "astId": 3507,
            "contract": "contracts/Marketplace/Facets/MintingOffersFacet.sol:MintingOffersFacet",
            "label": "_roleMembers",
            "offset": 0,
            "slot": "1",
            "type": "t_mapping(t_bytes32,t_struct(AddressSet)2428_storage)"
          },
          {
            "astId": 3509,
            "contract": "contracts/Marketplace/Facets/MintingOffersFacet.sol:MintingOffersFacet",
            "label": "decimals",
            "offset": 0,
            "slot": "2",
            "type": "t_uint16"
          },
          {
            "astId": 3511,
            "contract": "contracts/Marketplace/Facets/MintingOffersFacet.sol:MintingOffersFacet",
            "label": "decimalPow",
            "offset": 0,
            "slot": "3",
            "type": "t_uint256"
          },
          {
            "astId": 3513,
            "contract": "contracts/Marketplace/Facets/MintingOffersFacet.sol:MintingOffersFacet",
            "label": "nodeFee",
            "offset": 0,
            "slot": "4",
            "type": "t_uint256"
          },
          {
            "astId": 3515,
            "contract": "contracts/Marketplace/Facets/MintingOffersFacet.sol:MintingOffersFacet",
            "label": "treasuryFee",
            "offset": 0,
            "slot": "5",
            "type": "t_uint256"
          },
          {
            "astId": 3517,
            "contract": "contracts/Marketplace/Facets/MintingOffersFacet.sol:MintingOffersFacet",
            "label": "treasuryAddress",
            "offset": 0,
            "slot": "6",
            "type": "t_address"
          },
          {
            "astId": 3521,
            "contract": "contracts/Marketplace/Facets/MintingOffersFacet.sol:MintingOffersFacet",
            "label": "mintingOffers",
            "offset": 0,
            "slot": "7",
            "type": "t_array(t_struct(mintingOffer)3490_storage)dyn_storage"
          },
          {
            "astId": 3527,
            "contract": "contracts/Marketplace/Facets/MintingOffersFacet.sol:MintingOffersFacet",
            "label": "addressToRangeOffer",
            "offset": 0,
            "slot": "8",
            "type": "t_mapping(t_address,t_mapping(t_uint256,t_uint256))"
          },
          {
            "astId": 3532,
            "contract": "contracts/Marketplace/Facets/MintingOffersFacet.sol:MintingOffersFacet",
            "label": "addressToOffers",
            "offset": 0,
            "slot": "9",
            "type": "t_mapping(t_address,t_array(t_uint256)dyn_storage)"
          }
        ],
        "numberOfBytes": "320"
      },
      "t_struct(RoleData)3497_storage": {
        "encoding": "inplace",
        "label": "struct RoleData",
        "members": [
          {
            "astId": 3494,
            "contract": "contracts/Marketplace/Facets/MintingOffersFacet.sol:MintingOffersFacet",
            "label": "members",
            "offset": 0,
            "slot": "0",
            "type": "t_mapping(t_address,t_bool)"
          },
          {
            "astId": 3496,
            "contract": "contracts/Marketplace/Facets/MintingOffersFacet.sol:MintingOffersFacet",
            "label": "adminRole",
            "offset": 0,
            "slot": "1",
            "type": "t_bytes32"
          }
        ],
        "numberOfBytes": "64"
      },
      "t_struct(Set)2127_storage": {
        "encoding": "inplace",
        "label": "struct EnumerableSet.Set",
        "members": [
          {
            "astId": 2122,
            "contract": "contracts/Marketplace/Facets/MintingOffersFacet.sol:MintingOffersFacet",
            "label": "_values",
            "offset": 0,
            "slot": "0",
            "type": "t_array(t_bytes32)dyn_storage"
          },
          {
            "astId": 2126,
            "contract": "contracts/Marketplace/Facets/MintingOffersFacet.sol:MintingOffersFacet",
            "label": "_indexes",
            "offset": 0,
            "slot": "1",
            "type": "t_mapping(t_bytes32,t_uint256)"
          }
        ],
        "numberOfBytes": "64"
      },
      "t_struct(feeSplits)3477_storage": {
        "encoding": "inplace",
        "label": "struct feeSplits",
        "members": [
          {
            "astId": 3474,
            "contract": "contracts/Marketplace/Facets/MintingOffersFacet.sol:MintingOffersFacet",
            "label": "recipient",
            "offset": 0,
            "slot": "0",
            "type": "t_address"
          },
          {
            "astId": 3476,
            "contract": "contracts/Marketplace/Facets/MintingOffersFacet.sol:MintingOffersFacet",
            "label": "percentage",
            "offset": 0,
            "slot": "1",
            "type": "t_uint256"
          }
        ],
        "numberOfBytes": "64"
      },
      "t_struct(mintingOffer)3490_storage": {
        "encoding": "inplace",
        "label": "struct mintingOffer",
        "members": [
          {
            "astId": 3479,
            "contract": "contracts/Marketplace/Facets/MintingOffersFacet.sol:MintingOffersFacet",
            "label": "erc721Address",
            "offset": 0,
            "slot": "0",
            "type": "t_address"
          },
          {
            "astId": 3481,
            "contract": "contracts/Marketplace/Facets/MintingOffersFacet.sol:MintingOffersFacet",
            "label": "nodeAddress",
            "offset": 0,
            "slot": "1",
            "type": "t_address"
          },
          {
            "astId": 3483,
            "contract": "contracts/Marketplace/Facets/MintingOffersFacet.sol:MintingOffersFacet",
            "label": "rangeIndex",
            "offset": 0,
            "slot": "2",
            "type": "t_uint256"
          },
          {
            "astId": 3487,
            "contract": "contracts/Marketplace/Facets/MintingOffersFacet.sol:MintingOffersFacet",
            "label": "fees",
            "offset": 0,
            "slot": "3",
            "type": "t_array(t_struct(feeSplits)3477_storage)dyn_storage"
          },
          {
            "astId": 3489,
            "contract": "contracts/Marketplace/Facets/MintingOffersFacet.sol:MintingOffersFacet",
            "label": "visible",
            "offset": 0,
            "slot": "4",
            "type": "t_bool"
          }
        ],
        "numberOfBytes": "160"
      },
      "t_uint16": {
        "encoding": "inplace",
        "label": "uint16",
        "numberOfBytes": "2"
      },
      "t_uint256": {
        "encoding": "inplace",
        "label": "uint256",
        "numberOfBytes": "32"
      }
    }
  }
}