{
  "address": "0x5D7BCC28bAC732030EC0B5c2BE109dbE74F816ee",
  "abi": [
    {
      "anonymous": false,
      "inputs": [
        {
          "indexed": false,
          "internalType": "address",
          "name": "erc721Address",
          "type": "address"
        },
        {
          "indexed": false,
          "internalType": "uint256",
          "name": "rangeIndex",
          "type": "uint256"
        },
        {
          "indexed": false,
          "internalType": "string",
          "name": "rangeName",
          "type": "string"
        },
        {
          "indexed": false,
          "internalType": "uint256",
          "name": "price",
          "type": "uint256"
        },
        {
          "indexed": false,
          "internalType": "uint256",
          "name": "feeSplitsLength",
          "type": "uint256"
        },
        {
          "indexed": false,
          "internalType": "uint256",
          "name": "offerIndex",
          "type": "uint256"
        }
      ],
      "name": "AddedMintingOffer",
      "type": "event"
    },
    {
      "anonymous": false,
      "inputs": [
        {
          "indexed": true,
          "internalType": "bytes32",
          "name": "role",
          "type": "bytes32"
        },
        {
          "indexed": true,
          "internalType": "bytes32",
          "name": "previousAdminRole",
          "type": "bytes32"
        },
        {
          "indexed": true,
          "internalType": "bytes32",
          "name": "newAdminRole",
          "type": "bytes32"
        }
      ],
      "name": "RoleAdminChanged",
      "type": "event"
    },
    {
      "anonymous": false,
      "inputs": [
        {
          "indexed": true,
          "internalType": "bytes32",
          "name": "role",
          "type": "bytes32"
        },
        {
          "indexed": true,
          "internalType": "address",
          "name": "account",
          "type": "address"
        },
        {
          "indexed": true,
          "internalType": "address",
          "name": "sender",
          "type": "address"
        }
      ],
      "name": "RoleGranted",
      "type": "event"
    },
    {
      "anonymous": false,
      "inputs": [
        {
          "indexed": true,
          "internalType": "bytes32",
          "name": "role",
          "type": "bytes32"
        },
        {
          "indexed": true,
          "internalType": "address",
          "name": "account",
          "type": "address"
        },
        {
          "indexed": true,
          "internalType": "address",
          "name": "sender",
          "type": "address"
        }
      ],
      "name": "RoleRevoked",
      "type": "event"
    },
    {
      "anonymous": false,
      "inputs": [
        {
          "indexed": false,
          "internalType": "address",
          "name": "erc721Address",
          "type": "address"
        },
        {
          "indexed": false,
          "internalType": "uint256",
          "name": "rangeIndex",
          "type": "uint256"
        },
        {
          "indexed": false,
          "internalType": "uint256",
          "name": "tokenIndex",
          "type": "uint256"
        },
        {
          "indexed": false,
          "internalType": "address",
          "name": "buyer",
          "type": "address"
        }
      ],
      "name": "TokenMinted",
      "type": "event"
    },
    {
      "inputs": [
        {
          "internalType": "address",
          "name": "erc721Address_",
          "type": "address"
        },
        {
          "internalType": "uint256",
          "name": "rangeIndex_",
          "type": "uint256"
        },
        {
          "components": [
            {
              "internalType": "address",
              "name": "recipient",
              "type": "address"
            },
            {
              "internalType": "uint256",
              "name": "percentage",
              "type": "uint256"
            }
          ],
          "internalType": "struct feeSplits[]",
          "name": "splits",
          "type": "tuple[]"
        },
        {
          "internalType": "bool",
          "name": "visible_",
          "type": "bool"
        },
        {
          "internalType": "address",
          "name": "nodeAddress_",
          "type": "address"
        }
      ],
      "name": "addMintingOffer",
      "outputs": [],
      "stateMutability": "nonpayable",
      "type": "function"
    },
    {
      "inputs": [
        {
          "internalType": "address",
          "name": "erc721Address_",
          "type": "address"
        },
        {
          "internalType": "uint256[]",
          "name": "rangeIndexes",
          "type": "uint256[]"
        },
        {
          "components": [
            {
              "internalType": "address",
              "name": "recipient",
              "type": "address"
            },
            {
              "internalType": "uint256",
              "name": "percentage",
              "type": "uint256"
            }
          ],
          "internalType": "struct feeSplits[][]",
          "name": "splits",
          "type": "tuple[][]"
        },
        {
          "internalType": "bool[]",
          "name": "visibility",
          "type": "bool[]"
        },
        {
          "internalType": "address",
          "name": "nodeAddress_",
          "type": "address"
        }
      ],
      "name": "addMintingOfferBatch",
      "outputs": [],
      "stateMutability": "nonpayable",
      "type": "function"
    },
    {
      "inputs": [
        {
          "internalType": "uint256",
          "name": "offerIndex_",
          "type": "uint256"
        },
        {
          "internalType": "uint256",
          "name": "tokenIndex_",
          "type": "uint256"
        }
      ],
      "name": "buyMintingOffer",
      "outputs": [],
      "stateMutability": "payable",
      "type": "function"
    },
    {
      "inputs": [
        {
          "internalType": "uint256",
          "name": "offerIndex_",
          "type": "uint256"
        },
        {
          "internalType": "uint256[]",
          "name": "tokenIndexes",
          "type": "uint256[]"
        }
      ],
      "name": "buyMintingOfferBatch",
      "outputs": [],
      "stateMutability": "payable",
      "type": "function"
    },
    {
      "inputs": [
        {
          "internalType": "uint256",
          "name": "offerIndex",
          "type": "uint256"
        }
      ],
      "name": "getOfferInfo",
      "outputs": [
        {
          "components": [
            {
              "internalType": "address",
              "name": "erc721Address",
              "type": "address"
            },
            {
              "internalType": "address",
              "name": "nodeAddress",
              "type": "address"
            },
            {
              "internalType": "uint256",
              "name": "rangeIndex",
              "type": "uint256"
            },
            {
              "components": [
                {
                  "internalType": "address",
                  "name": "recipient",
                  "type": "address"
                },
                {
                  "internalType": "uint256",
                  "name": "percentage",
                  "type": "uint256"
                }
              ],
              "internalType": "struct feeSplits[]",
              "name": "fees",
              "type": "tuple[]"
            },
            {
              "internalType": "bool",
              "name": "visible",
              "type": "bool"
            }
          ],
          "internalType": "struct mintingOffer",
          "name": "mintOffer",
          "type": "tuple"
        },
        {
          "components": [
            {
              "internalType": "uint256",
              "name": "rangeStart",
              "type": "uint256"
            },
            {
              "internalType": "uint256",
              "name": "rangeEnd",
              "type": "uint256"
            },
            {
              "internalType": "uint256",
              "name": "tokensAllowed",
              "type": "uint256"
            },
            {
              "internalType": "uint256",
              "name": "mintableTokens",
              "type": "uint256"
            },
            {
              "internalType": "uint256",
              "name": "lockedTokens",
              "type": "uint256"
            },
            {
              "internalType": "uint256",
              "name": "rangePrice",
              "type": "uint256"
            },
            {
              "internalType": "string",
              "name": "rangeName",
              "type": "string"
            }
          ],
          "internalType": "struct IRAIR721.range",
          "name": "rangeData",
          "type": "tuple"
        }
      ],
      "stateMutability": "view",
      "type": "function"
    },
    {
      "inputs": [
        {
          "internalType": "address",
          "name": "erc721Address",
          "type": "address"
        },
        {
          "internalType": "uint256",
          "name": "rangeIndex",
          "type": "uint256"
        }
      ],
      "name": "getOfferInfoForAddress",
      "outputs": [
        {
          "internalType": "uint256",
          "name": "offerIndex",
          "type": "uint256"
        },
        {
          "components": [
            {
              "internalType": "address",
              "name": "erc721Address",
              "type": "address"
            },
            {
              "internalType": "address",
              "name": "nodeAddress",
              "type": "address"
            },
            {
              "internalType": "uint256",
              "name": "rangeIndex",
              "type": "uint256"
            },
            {
              "components": [
                {
                  "internalType": "address",
                  "name": "recipient",
                  "type": "address"
                },
                {
                  "internalType": "uint256",
                  "name": "percentage",
                  "type": "uint256"
                }
              ],
              "internalType": "struct feeSplits[]",
              "name": "fees",
              "type": "tuple[]"
            },
            {
              "internalType": "bool",
              "name": "visible",
              "type": "bool"
            }
          ],
          "internalType": "struct mintingOffer",
          "name": "mintOffer",
          "type": "tuple"
        },
        {
          "components": [
            {
              "internalType": "uint256",
              "name": "rangeStart",
              "type": "uint256"
            },
            {
              "internalType": "uint256",
              "name": "rangeEnd",
              "type": "uint256"
            },
            {
              "internalType": "uint256",
              "name": "tokensAllowed",
              "type": "uint256"
            },
            {
              "internalType": "uint256",
              "name": "mintableTokens",
              "type": "uint256"
            },
            {
              "internalType": "uint256",
              "name": "lockedTokens",
              "type": "uint256"
            },
            {
              "internalType": "uint256",
              "name": "rangePrice",
              "type": "uint256"
            },
            {
              "internalType": "string",
              "name": "rangeName",
              "type": "string"
            }
          ],
          "internalType": "struct IRAIR721.range",
          "name": "rangeData",
          "type": "tuple"
        }
      ],
      "stateMutability": "view",
      "type": "function"
    },
    {
      "inputs": [
        {
          "internalType": "address",
          "name": "erc721Address",
          "type": "address"
        }
      ],
      "name": "getOffersCountForAddress",
      "outputs": [
        {
          "internalType": "uint256",
          "name": "",
          "type": "uint256"
        }
      ],
      "stateMutability": "view",
      "type": "function"
    },
    {
      "inputs": [
        {
          "internalType": "bytes32",
          "name": "role",
          "type": "bytes32"
        }
      ],
      "name": "getRoleAdmin",
      "outputs": [
        {
          "internalType": "bytes32",
          "name": "",
          "type": "bytes32"
        }
      ],
      "stateMutability": "view",
      "type": "function"
    },
    {
      "inputs": [
        {
          "internalType": "bytes32",
          "name": "role",
          "type": "bytes32"
        },
        {
          "internalType": "uint256",
          "name": "index",
          "type": "uint256"
        }
      ],
      "name": "getRoleMember",
      "outputs": [
        {
          "internalType": "address",
          "name": "",
          "type": "address"
        }
      ],
      "stateMutability": "view",
      "type": "function"
    },
    {
      "inputs": [
        {
          "internalType": "bytes32",
          "name": "role",
          "type": "bytes32"
        }
      ],
      "name": "getRoleMemberCount",
      "outputs": [
        {
          "internalType": "uint256",
          "name": "",
          "type": "uint256"
        }
      ],
      "stateMutability": "view",
      "type": "function"
    },
    {
      "inputs": [
        {
          "internalType": "bytes32",
          "name": "role",
          "type": "bytes32"
        },
        {
          "internalType": "address",
          "name": "account",
          "type": "address"
        }
      ],
      "name": "grantRole",
      "outputs": [],
      "stateMutability": "nonpayable",
      "type": "function"
    },
    {
      "inputs": [
        {
          "internalType": "bytes32",
          "name": "role",
          "type": "bytes32"
        },
        {
          "internalType": "address",
          "name": "account",
          "type": "address"
        }
      ],
      "name": "hasRole",
      "outputs": [
        {
          "internalType": "bool",
          "name": "",
          "type": "bool"
        }
      ],
      "stateMutability": "view",
      "type": "function"
    },
    {
      "inputs": [
        {
          "internalType": "bytes32",
          "name": "role",
          "type": "bytes32"
        },
        {
          "internalType": "address",
          "name": "account",
          "type": "address"
        }
      ],
      "name": "renounceRole",
      "outputs": [],
      "stateMutability": "nonpayable",
      "type": "function"
    },
    {
      "inputs": [
        {
          "internalType": "bytes32",
          "name": "role",
          "type": "bytes32"
        },
        {
          "internalType": "address",
          "name": "account",
          "type": "address"
        }
      ],
      "name": "revokeRole",
      "outputs": [],
      "stateMutability": "nonpayable",
      "type": "function"
    }
  ],
  "transactionHash": "0xca4cc8f02e7eada59840d8567221253664d1245b3484073749ed1ff323e6d296",
  "args": [],
  "numDeployments": 3,
  "solcInputHash": "3b03756934eff78047fdc927674778f5",
  "bytecode": "0x608060405234801561001057600080fd5b5061286c806100206000396000f3fe6080604052600436106100dd5760003560e01c80638b0e2e131161007f5780639c3ac84b116100595780639c3ac84b14610272578063ca15c87314610292578063d547741f146102b2578063df275c6a146102d257600080fd5b80638b0e2e13146101db5780639010d07c1461020a57806391d148541461024257600080fd5b80632a851254116100bb5780632a851254146101685780632f2ff15d1461018857806336568abe146101a857806382ec0663146101c857600080fd5b806308db7184146100e2578063248a9ca3146100f75780632a1da9821461013a575b600080fd5b6100f56100f0366004611e16565b610308565b005b34801561010357600080fd5b50610127610112366004611e62565b60009081526020819052604090206001015490565b6040519081526020015b60405180910390f35b34801561014657600080fd5b5061015a610155366004611e62565b610764565b604051610131929190611fc8565b34801561017457600080fd5b506100f5610183366004612012565b610927565b34801561019457600080fd5b506100f56101a33660046120cd565b610a71565b3480156101b457600080fd5b506100f56101c33660046120cd565b610a9c565b6100f56101d63660046120f9565b610b1a565b3480156101e757600080fd5b506101fb6101f636600461211b565b610ed9565b60405161013193929190612145565b34801561021657600080fd5b5061022a6102253660046120f9565b611112565b6040516001600160a01b039091168152602001610131565b34801561024e57600080fd5b5061026261025d3660046120cd565b611133565b6040519015158152602001610131565b34801561027e57600080fd5b506100f561028d366004612196565b61115c565b34801561029e57600080fd5b506101276102ad366004611e62565b6111c3565b3480156102be57600080fd5b506100f56102cd3660046120cd565b6111da565b3480156102de57600080fd5b506101276102ed366004612246565b6001600160a01b031660009081526009602052604090205490565b600754839081106103345760405162461bcd60e51b815260040161032b90612261565b60405180910390fd5b600080600701858154811061034b5761034b6122b1565b60009182526020909120600590910201600481015490915060ff166103825760405162461bcd60e51b815260040161032b906122c7565b8054610396906001600160a01b0316611200565b6103b25760405162461bcd60e51b815260040161032b90612324565b805460028201546040516364cc98df60e11b815260048101919091526000916001600160a01b03169063c99931be90602401600060405180830381865afa158015610401573d6000803e3d6000fd5b505050506040513d6000823e601f3d908101601f191682016040526104299190810190612435565b60a0810151909150349061043e9086906124f4565b111561045c5760405162461bcd60e51b815260040161032b90612513565b60a081015160009061046f9086906124f4565b610479903461255a565b11156104c95760a081015133906108fc906104959087906124f4565b61049f903461255a565b6040518115909202916000818181858888f193505050501580156104c7573d6000803e3d6000fd5b505b6003546000906104da9060646124f4565b6005546004546104ea9190612571565b60a08401516104fa9088906124f4565b61050491906124f4565b61050e9190612589565b60018401546003549192506001600160a01b0316906108fc906105329060646124f4565b60045460a0860151610545908a906124f4565b61054f91906124f4565b6105599190612589565b6040518115909202916000818181858888f19350505050158015610581573d6000803e3d6000fd5b506006546003546001600160a01b03909116906108fc906105a39060646124f4565b60055460a08601516105b6908a906124f4565b6105c091906124f4565b6105ca9190612589565b6040518115909202916000818181858888f193505050501580156105f2573d6000803e3d6000fd5b506000805b60038501548110156106da576003546106119060646124f4565b856003018281548110610626576106266122b1565b906000526020600020906002020160010154898990508660a0015161064b91906124f4565b61065591906124f4565b61065f9190612589565b915061066b8284612571565b9250846003018181548110610682576106826122b1565b600091825260208220600290910201546040516001600160a01b039091169184156108fc02918591818181858888f193505050501580156106c7573d6000803e3d6000fd5b50806106d2816125ab565b9150506105f7565b60a08401516106ea9088906124f4565b83146107085760405162461bcd60e51b815260040161032b906125c6565b5060005b868110156107595784546002860154610747916001600160a01b0316908a8a8581811061073b5761073b6122b1565b90506020020135611291565b80610751816125ab565b91505061070c565b505050505050505050565b6040805160a08101825260008082526020820181905291810182905260608082015260808101919091526107ce6040518060e00160405280600081526020016000815260200160008152602001600081526020016000815260200160008152602001606081525090565b60008060070184815481106107e5576107e56122b1565b600091825260208083206040805160a081018252600590940290910180546001600160a01b039081168552600182015416848401526002810154848301526003810180548351818602810186019094528084529495919460608701949192909184015b82821015610890576000848152602090819020604080518082019091526002850290910180546001600160a01b03168252600190810154828401529083529092019101610848565b5050509082525060049182015460ff161515602090910152815160408084015190516364cc98df60e11b81529283015291925082916001600160a01b03169063c99931be90602401600060405180830381865afa1580156108f5573d6000803e3d6000fd5b505050506040513d6000823e601f3d908101601f1916820160405261091d9190810190612435565b9250925050915091565b8582146109955760405162461bcd60e51b815260206004820152603660248201527f4d696e746572204d61726b6574706c6163653a204172726179732073686f756c6044820152750c840d0c2ecca40e8d0ca40e6c2daca40d8cadccee8d60531b606482015260840161032b565b60005b8681101561075957610a5f898989848181106109b6576109b66122b1565b905060200201358888858181106109cf576109cf6122b1565b90506020028101906109e19190612613565b808060200260200160405190810160405280939291908181526020016000905b82821015610a2d57610a1e6040830286013681900381019061265d565b81526020019060010190610a01565b5050505050878786818110610a4457610a446122b1565b9050602002016020810190610a5991906126b4565b8661134e565b80610a69816125ab565b915050610998565b600082815260208190526040902060010154610a8d813361190d565b610a978383611971565b505050565b6001600160a01b0381163314610b0c5760405162461bcd60e51b815260206004820152602f60248201527f416363657373436f6e74726f6c3a2063616e206f6e6c792072656e6f756e636560448201526e103937b632b9903337b91039b2b63360891b606482015260840161032b565b610b168282611a09565b5050565b60075482908110610b3d5760405162461bcd60e51b815260040161032b90612261565b6000806007018481548110610b5457610b546122b1565b60009182526020909120600590910201600481015490915060ff16610b8b5760405162461bcd60e51b815260040161032b906122c7565b8054610b9f906001600160a01b0316611200565b610bbb5760405162461bcd60e51b815260040161032b90612324565b805460028201546040516364cc98df60e11b815260048101919091526000916001600160a01b03169063c99931be90602401600060405180830381865afa158015610c0a573d6000803e3d6000fd5b505050506040513d6000823e601f3d908101601f19168201604052610c329190810190612435565b9050348160a001511115610c585760405162461bcd60e51b815260040161032b90612513565b60008160a0015134610c6a919061255a565b1115610caf5760a081015133906108fc90610c85903461255a565b6040518115909202916000818181858888f19350505050158015610cad573d6000803e3d6000fd5b505b600354600090610cc09060646124f4565b600554600454610cd09190612571565b8360a00151610cdf91906124f4565b610ce99190612589565b60018401546003549192506001600160a01b0316906108fc90610d0d9060646124f4565b60045460a0860151610d1f91906124f4565b610d299190612589565b6040518115909202916000818181858888f19350505050158015610d51573d6000803e3d6000fd5b506006546003546001600160a01b03909116906108fc90610d739060646124f4565b60055460a0860151610d8591906124f4565b610d8f9190612589565b6040518115909202916000818181858888f19350505050158015610db7573d6000803e3d6000fd5b506000805b6003850154811015610e9157600354610dd69060646124f4565b856003018281548110610deb57610deb6122b1565b9060005260206000209060020201600101548560a00151610e0c91906124f4565b610e169190612589565b9150610e228284612571565b9250846003018181548110610e3957610e396122b1565b600091825260208220600290910201546040516001600160a01b039091169184156108fc02918591818181858888f19350505050158015610e7e573d6000803e3d6000fd5b5080610e89816125ab565b915050610dbc565b508260a001518214610eb55760405162461bcd60e51b815260040161032b906125c6565b83546002850154610ed0916001600160a01b03169088611291565b50505050505050565b6040805160a08101825260008082526020820181905291810182905260608082015260808101829052610f426040518060e00160405280600081526020016000815260200160008152602001600081526020016000815260200160008152602001606081525090565b6001600160a01b038516600090815260096020526040812080546007919087908110610f7057610f706122b1565b906000526020600020015481548110610f8b57610f8b6122b1565b600091825260208083206040805160a081018252600590940290910180546001600160a01b039081168552600182015416848401526002810154848301526003810180548351818602810186019094528084529495919460608701949192909184015b82821015611036576000848152602090819020604080518082019091526002850290910180546001600160a01b03168252600190810154828401529083529092019101610fee565b505050908252506004919091015460ff1615156020918201526001600160a01b03881660009081526009909152604090208054919250908690811061107d5761107d6122b1565b90600052602060002001548182600001516001600160a01b031663c99931be84604001516040518263ffffffff1660e01b81526004016110bf91815260200190565b600060405180830381865afa1580156110dc573d6000803e3d6000fd5b505050506040513d6000823e601f3d908101601f191682016040526111049190810190612435565b935093509350509250925092565b600082815260016020526040812061112a9083611a82565b90505b92915050565b6000918252602082815260408084206001600160a01b0393909316845291905290205460ff1690565b6111bb86868686808060200260200160405190810160405280939291908181526020016000905b828210156111af576111a06040830286013681900381019061265d565b81526020019060010190611183565b5050505050858561134e565b505050505050565b600081815260016020526040812061112d90611a8e565b6000828152602081905260409020600101546111f6813361190d565b610a978383611a09565b604051632474521560e21b81527ff0887ba65ee2024ea881d91b74c2450ef19e1557f03bed3ea9f16b037cbe2dc960048201523060248201526000906001600160a01b038316906391d1485490604401602060405180830381865afa15801561126d573d6000803e3d6000fd5b505050506040513d601f19601f8201168201806040525081019061112d91906126d1565b60405163e766224360e01b815233600482015260248101839052604481018290526001600160a01b0384169063e766224390606401600060405180830381600087803b1580156112e057600080fd5b505af11580156112f4573d6000803e3d6000fd5b5050604080516001600160a01b0387168152602081018690529081018490523360608201527f6a1a369ef3c3eebe428c993f6eb79fb1438544741070bc7a4388c801fa08463d9250608001905060405180910390a1505050565b604051632474521560e21b81527f3c2519c4487d47714872f92cf90a50c25f5deaec2789dc2a497b1272df611db6600482015233602482015285906001600160a01b038216906391d1485490604401602060405180830381865afa1580156113ba573d6000803e3d6000fd5b505050506040513d601f19601f820116820180604052508101906113de91906126d1565b6114505760405162461bcd60e51b815260206004820152603d60248201527f4d696e746572204d61726b6574706c6163653a2053656e6465722069736e277460448201527f207468652063726561746f72206f662074686520636f6e747261637421000000606482015260840161032b565b8561145a81611200565b6114765760405162461bcd60e51b815260040161032b90612324565b6001600160a01b038716600090815260086020908152604080832089845290915290205487908790156114bb5760405162461bcd60e51b815260040161032b906126ee565b6001600160a01b03821660009081526008602090815260408083208484529091529020541580156114ed575060075415155b1561157e57816001600160a01b03166000600701600081548110611513576115136122b1565b60009182526020909120600590910201546001600160a01b0316141580611562575080600060070160008154811061154d5761154d6122b1565b90600052602060002090600502016002015414155b61157e5760405162461bcd60e51b815260040161032b906126ee565b6007805460018101825560009182526040516364cc98df60e11b815260059091027fa66cc928b5edb82af9bd49922954155ab7b0942694bea4ce44661d9a8736c6880191906001600160a01b038c169063c99931be906115e6908d9060040190815260200190565b600060405180830381865afa158015611603573d6000803e3d6000fd5b505050506040513d6000823e601f3d908101601f1916820160405261162b9190810190612435565b905060008160600151116116a75760405162461bcd60e51b815260206004820152603860248201527f4d696e746572204d61726b6574706c6163653a204f6666657220646f65736e2760448201527f74206861766520746f6b656e7320617661696c61626c65210000000000000000606482015260840161032b565b81546001600160a01b03808d166001600160a01b0319928316178455600184018054918a1691909216179055600282018a9055600480830180548a151560ff1990911617905560055490546000916116fe91612571565b905060005b8a518110156117a8578a818151811061171e5761171e6122b1565b602002602001015160200151826117359190612571565b9150836003018b828151811061174d5761174d6122b1565b602090810291909101810151825460018082018555600094855293839020825160029092020180546001600160a01b0319166001600160a01b03909216919091178155910151910155806117a0816125ab565b915050611703565b506003546117b79060646124f4565b811461181b5760405162461bcd60e51b815260206004820152602d60248201527f4d696e746572204d61726b6574706c6163653a204665657320646f6e2774206160448201526c646420757020746f203130302560981b606482015260840161032b565b6001600160a01b038c1660009081526009602052604090206007546118429060019061255a565b815460018181018455600093845260209093200155600754611864919061255a565b600060080160008e6001600160a01b03166001600160a01b0316815260200190815260200160002060008d8152602001908152602001600020819055507f26d54df15e8a0d68fa0ae9702cf190da88a0e1d48b0ed4c6b1099610b292f5f78c8c8460c001518560a001518e5160016000600701805490506118e5919061255a565b6040516118f79695949392919061273c565b60405180910390a1505050505050505050505050565b6119178282611133565b610b165761192f816001600160a01b03166014611a98565b61193a836020611a98565b60405160200161194b929190612781565b60408051601f198184030181529082905262461bcd60e51b825261032b916004016127f6565b61197b8282611133565b610b16576000828152602081815260408083206001600160a01b03851684529091529020805460ff191660011790556119b13390565b6001600160a01b0316816001600160a01b0316837f2f8788117e7eff1d82e926ec794901d17c78024a50270940304540a733656f0d60405160405180910390a46000828152600160205260409020610a979082611c34565b611a138282611133565b15610b16576000828152602081815260408083206001600160a01b0385168085529252808320805460ff1916905551339285917ff6391f5c32d9c69d2a47ea670b442974b53935d1edc7fd64eb21e047a839171b9190a46000828152600160205260409020610a979082611c49565b600061112a8383611c5e565b600061112d825490565b60606000611aa78360026124f4565b611ab2906002612571565b67ffffffffffffffff811115611aca57611aca612378565b6040519080825280601f01601f191660200182016040528015611af4576020820181803683370190505b509050600360fc1b81600081518110611b0f57611b0f6122b1565b60200101906001600160f81b031916908160001a905350600f60fb1b81600181518110611b3e57611b3e6122b1565b60200101906001600160f81b031916908160001a9053506000611b628460026124f4565b611b6d906001612571565b90505b6001811115611be5576f181899199a1a9b1b9c1cb0b131b232b360811b85600f1660108110611ba157611ba16122b1565b1a60f81b828281518110611bb757611bb76122b1565b60200101906001600160f81b031916908160001a90535060049490941c93611bde81612809565b9050611b70565b50831561112a5760405162461bcd60e51b815260206004820181905260248201527f537472696e67733a20686578206c656e67746820696e73756666696369656e74604482015260640161032b565b600061112a836001600160a01b038416611c88565b600061112a836001600160a01b038416611cd7565b6000826000018281548110611c7557611c756122b1565b9060005260206000200154905092915050565b6000818152600183016020526040812054611ccf5750815460018181018455600084815260208082209093018490558454848252828601909352604090209190915561112d565b50600061112d565b60008181526001830160205260408120548015611dc0576000611cfb60018361255a565b8554909150600090611d0f9060019061255a565b9050818114611d74576000866000018281548110611d2f57611d2f6122b1565b9060005260206000200154905080876000018481548110611d5257611d526122b1565b6000918252602080832090910192909255918252600188019052604090208390555b8554869080611d8557611d85612820565b60019003818190600052602060002001600090559055856001016000868152602001908152602001600020600090556001935050505061112d565b600091505061112d565b60008083601f840112611ddc57600080fd5b50813567ffffffffffffffff811115611df457600080fd5b6020830191508360208260051b8501011115611e0f57600080fd5b9250929050565b600080600060408486031215611e2b57600080fd5b83359250602084013567ffffffffffffffff811115611e4957600080fd5b611e5586828701611dca565b9497909650939450505050565b600060208284031215611e7457600080fd5b5035919050565b600060a0830160018060a01b0380845116855260208181860151168187015260408086015181880152606086015160a0606089015284815180875260c08a0191508483019650600092505b80831015611ef157865180518716835285015185830152958401956001929092019190830190611ec6565b5060808801519550611f0760808a018715159052565b98975050505050505050565b60005b83811015611f2e578181015183820152602001611f16565b83811115611f3d576000848401525b50505050565b60008151808452611f5b816020860160208601611f13565b601f01601f19169290920160200192915050565b805182526020810151602083015260408101516040830152606081015160608301526080810151608083015260a081015160a0830152600060c082015160e060c0850152611fc060e0850182611f43565b949350505050565b604081526000611fdb6040830185611e7b565b8281036020840152611fed8185611f6f565b95945050505050565b80356001600160a01b038116811461200d57600080fd5b919050565b60008060008060008060008060a0898b03121561202e57600080fd5b61203789611ff6565b9750602089013567ffffffffffffffff8082111561205457600080fd5b6120608c838d01611dca565b909950975060408b013591508082111561207957600080fd5b6120858c838d01611dca565b909750955060608b013591508082111561209e57600080fd5b506120ab8b828c01611dca565b90945092506120be905060808a01611ff6565b90509295985092959890939650565b600080604083850312156120e057600080fd5b823591506120f060208401611ff6565b90509250929050565b6000806040838503121561210c57600080fd5b50508035926020909101359150565b6000806040838503121561212e57600080fd5b61213783611ff6565b946020939093013593505050565b83815260606020820152600061215e6060830185611e7b565b82810360408401526121708185611f6f565b9695505050505050565b801515811461218857600080fd5b50565b803561200d8161217a565b60008060008060008060a087890312156121af57600080fd5b6121b887611ff6565b955060208701359450604087013567ffffffffffffffff808211156121dc57600080fd5b818901915089601f8301126121f057600080fd5b8135818111156121ff57600080fd5b8a60208260061b850101111561221457600080fd5b60208301965080955050505061222c6060880161218b565b915061223a60808801611ff6565b90509295509295509295565b60006020828403121561225857600080fd5b61112a82611ff6565b60208082526030908201527f4d696e74696e67204d61726b6574706c6163653a204d696e74696e67204f666660408201526f195c88191bd95cdb89dd08195e1a5cdd60821b606082015260800190565b634e487b7160e01b600052603260045260246000fd5b60208082526037908201527f4d696e746572204d61726b6574706c6163653a2054686973206f66666572206960408201527f73206e6f7420726561647920746f20626520736f6c6421000000000000000000606082015260800190565b60208082526034908201527f4d696e746572204d61726b6574706c6163653a2054686973204d61726b6574706040820152736c6163652069736e27742061204d696e7465722160601b606082015260800190565b634e487b7160e01b600052604160045260246000fd5b60405160e0810167ffffffffffffffff811182821017156123b1576123b1612378565b60405290565b600082601f8301126123c857600080fd5b815167ffffffffffffffff808211156123e3576123e3612378565b604051601f8301601f19908116603f0116810190828211818310171561240b5761240b612378565b8160405283815286602085880101111561242457600080fd5b612170846020830160208901611f13565b60006020828403121561244757600080fd5b815167ffffffffffffffff8082111561245f57600080fd5b9083019060e0828603121561247357600080fd5b61247b61238e565b825181526020830151602082015260408301516040820152606083015160608201526080830151608082015260a083015160a082015260c0830151828111156124c357600080fd5b6124cf878286016123b7565b60c08301525095945050505050565b634e487b7160e01b600052601160045260246000fd5b600081600019048311821515161561250e5761250e6124de565b500290565b60208082526027908201527f4d696e746572204d61726b6574706c6163653a20496e73756666696369656e746040820152662066756e64732160c81b606082015260800190565b60008282101561256c5761256c6124de565b500390565b60008219821115612584576125846124de565b500190565b6000826125a657634e487b7160e01b600052601260045260246000fd5b500490565b60006000198214156125bf576125bf6124de565b5060010190565b6020808252602d908201527f4d696e746572204d61726b6574706c6163653a204572726f72207472616e736660408201526c657272696e672066756e64732160981b606082015260800190565b6000808335601e1984360301811261262a57600080fd5b83018035915067ffffffffffffffff82111561264557600080fd5b6020019150600681901b3603821315611e0f57600080fd5b60006040828403121561266f57600080fd5b6040516040810181811067ffffffffffffffff8211171561269257612692612378565b60405261269e83611ff6565b8152602083013560208201528091505092915050565b6000602082840312156126c657600080fd5b813561112a8161217a565b6000602082840312156126e357600080fd5b815161112a8161217a565b6020808252602e908201527f4d696e746572204d61726b6574706c6163653a2052616e676520616c7265616460408201526d3c903430b99030b71037b33332b960911b606082015260800190565b60018060a01b038716815285602082015260c06040820152600061276360c0830187611f43565b606083019590955250608081019290925260a0909101529392505050565b7f416363657373436f6e74726f6c3a206163636f756e74200000000000000000008152600083516127b9816017850160208801611f13565b7001034b99036b4b9b9b4b733903937b6329607d1b60179184019182015283516127ea816028840160208801611f13565b01602801949350505050565b60208152600061112a6020830184611f43565b600081612818576128186124de565b506000190190565b634e487b7160e01b600052603160045260246000fdfea264697066735822122053c8665fc797cb28c0ff6e3e4265f82e9e56740083d6b3f77bccb7a4d16dd6d264736f6c634300080b0033",
  "devdoc": {
    "kind": "dev",
    "methods": {},
    "version": 1
  },
  "userdoc": {
    "kind": "user",
    "methods": {},
    "version": 1
  },
  "storageLayout": {
    "storage": [
      {
        "astId": 3551,
        "contract": "contracts/Marketplace/Facets/MintingOffersFacet.sol:MintingOffersFacet",
        "label": "s",
        "offset": 0,
        "slot": "0",
        "type": "t_struct(AppStorage)3533_storage"
      }
    ],
    "types": {
      "t_address": {
        "encoding": "inplace",
        "label": "address",
        "numberOfBytes": "20"
      },
      "t_array(t_bytes32)dyn_storage": {
        "base": "t_bytes32",
        "encoding": "dynamic_array",
        "label": "bytes32[]",
        "numberOfBytes": "32"
      },
      "t_array(t_struct(feeSplits)3477_storage)dyn_storage": {
        "base": "t_struct(feeSplits)3477_storage",
        "encoding": "dynamic_array",
        "label": "struct feeSplits[]",
        "numberOfBytes": "32"
      },
      "t_array(t_struct(mintingOffer)3490_storage)dyn_storage": {
        "base": "t_struct(mintingOffer)3490_storage",
        "encoding": "dynamic_array",
        "label": "struct mintingOffer[]",
        "numberOfBytes": "32"
      },
      "t_array(t_uint256)dyn_storage": {
        "base": "t_uint256",
        "encoding": "dynamic_array",
        "label": "uint256[]",
        "numberOfBytes": "32"
      },
      "t_bool": {
        "encoding": "inplace",
        "label": "bool",
        "numberOfBytes": "1"
      },
      "t_bytes32": {
        "encoding": "inplace",
        "label": "bytes32",
        "numberOfBytes": "32"
      },
      "t_mapping(t_address,t_array(t_uint256)dyn_storage)": {
        "encoding": "mapping",
        "key": "t_address",
        "label": "mapping(address => uint256[])",
        "numberOfBytes": "32",
        "value": "t_array(t_uint256)dyn_storage"
      },
      "t_mapping(t_address,t_bool)": {
        "encoding": "mapping",
        "key": "t_address",
        "label": "mapping(address => bool)",
        "numberOfBytes": "32",
        "value": "t_bool"
      },
      "t_mapping(t_address,t_mapping(t_uint256,t_uint256))": {
        "encoding": "mapping",
        "key": "t_address",
        "label": "mapping(address => mapping(uint256 => uint256))",
        "numberOfBytes": "32",
        "value": "t_mapping(t_uint256,t_uint256)"
      },
      "t_mapping(t_bytes32,t_struct(AddressSet)2428_storage)": {
        "encoding": "mapping",
        "key": "t_bytes32",
        "label": "mapping(bytes32 => struct EnumerableSet.AddressSet)",
        "numberOfBytes": "32",
        "value": "t_struct(AddressSet)2428_storage"
      },
      "t_mapping(t_bytes32,t_struct(RoleData)3497_storage)": {
        "encoding": "mapping",
        "key": "t_bytes32",
        "label": "mapping(bytes32 => struct RoleData)",
        "numberOfBytes": "32",
        "value": "t_struct(RoleData)3497_storage"
      },
      "t_mapping(t_bytes32,t_uint256)": {
        "encoding": "mapping",
        "key": "t_bytes32",
        "label": "mapping(bytes32 => uint256)",
        "numberOfBytes": "32",
        "value": "t_uint256"
      },
      "t_mapping(t_uint256,t_uint256)": {
        "encoding": "mapping",
        "key": "t_uint256",
        "label": "mapping(uint256 => uint256)",
        "numberOfBytes": "32",
        "value": "t_uint256"
      },
      "t_struct(AddressSet)2428_storage": {
        "encoding": "inplace",
        "label": "struct EnumerableSet.AddressSet",
        "members": [
          {
            "astId": 2427,
            "contract": "contracts/Marketplace/Facets/MintingOffersFacet.sol:MintingOffersFacet",
            "label": "_inner",
            "offset": 0,
            "slot": "0",
            "type": "t_struct(Set)2127_storage"
          }
        ],
        "numberOfBytes": "64"
      },
      "t_struct(AppStorage)3533_storage": {
        "encoding": "inplace",
        "label": "struct AppStorage",
        "members": [
          {
            "astId": 3502,
            "contract": "contracts/Marketplace/Facets/MintingOffersFacet.sol:MintingOffersFacet",
            "label": "_roles",
            "offset": 0,
            "slot": "0",
            "type": "t_mapping(t_bytes32,t_struct(RoleData)3497_storage)"
          },
          {
            "astId": 3507,
            "contract": "contracts/Marketplace/Facets/MintingOffersFacet.sol:MintingOffersFacet",
            "label": "_roleMembers",
            "offset": 0,
            "slot": "1",
            "type": "t_mapping(t_bytes32,t_struct(AddressSet)2428_storage)"
          },
          {
            "astId": 3509,
            "contract": "contracts/Marketplace/Facets/MintingOffersFacet.sol:MintingOffersFacet",
            "label": "decimals",
            "offset": 0,
            "slot": "2",
            "type": "t_uint16"
          },
          {
            "astId": 3511,
            "contract": "contracts/Marketplace/Facets/MintingOffersFacet.sol:MintingOffersFacet",
            "label": "decimalPow",
            "offset": 0,
            "slot": "3",
            "type": "t_uint256"
          },
          {
            "astId": 3513,
            "contract": "contracts/Marketplace/Facets/MintingOffersFacet.sol:MintingOffersFacet",
            "label": "nodeFee",
            "offset": 0,
            "slot": "4",
            "type": "t_uint256"
          },
          {
            "astId": 3515,
            "contract": "contracts/Marketplace/Facets/MintingOffersFacet.sol:MintingOffersFacet",
            "label": "treasuryFee",
            "offset": 0,
            "slot": "5",
            "type": "t_uint256"
          },
          {
            "astId": 3517,
            "contract": "contracts/Marketplace/Facets/MintingOffersFacet.sol:MintingOffersFacet",
            "label": "treasuryAddress",
            "offset": 0,
            "slot": "6",
            "type": "t_address"
          },
          {
            "astId": 3521,
            "contract": "contracts/Marketplace/Facets/MintingOffersFacet.sol:MintingOffersFacet",
            "label": "mintingOffers",
            "offset": 0,
            "slot": "7",
            "type": "t_array(t_struct(mintingOffer)3490_storage)dyn_storage"
          },
          {
            "astId": 3527,
            "contract": "contracts/Marketplace/Facets/MintingOffersFacet.sol:MintingOffersFacet",
            "label": "addressToRangeOffer",
            "offset": 0,
            "slot": "8",
            "type": "t_mapping(t_address,t_mapping(t_uint256,t_uint256))"
          },
          {
            "astId": 3532,
            "contract": "contracts/Marketplace/Facets/MintingOffersFacet.sol:MintingOffersFacet",
            "label": "addressToOffers",
            "offset": 0,
            "slot": "9",
            "type": "t_mapping(t_address,t_array(t_uint256)dyn_storage)"
          }
        ],
        "numberOfBytes": "320"
      },
      "t_struct(RoleData)3497_storage": {
        "encoding": "inplace",
        "label": "struct RoleData",
        "members": [
          {
            "astId": 3494,
            "contract": "contracts/Marketplace/Facets/MintingOffersFacet.sol:MintingOffersFacet",
            "label": "members",
            "offset": 0,
            "slot": "0",
            "type": "t_mapping(t_address,t_bool)"
          },
          {
            "astId": 3496,
            "contract": "contracts/Marketplace/Facets/MintingOffersFacet.sol:MintingOffersFacet",
            "label": "adminRole",
            "offset": 0,
            "slot": "1",
            "type": "t_bytes32"
          }
        ],
        "numberOfBytes": "64"
      },
      "t_struct(Set)2127_storage": {
        "encoding": "inplace",
        "label": "struct EnumerableSet.Set",
        "members": [
          {
            "astId": 2122,
            "contract": "contracts/Marketplace/Facets/MintingOffersFacet.sol:MintingOffersFacet",
            "label": "_values",
            "offset": 0,
            "slot": "0",
            "type": "t_array(t_bytes32)dyn_storage"
          },
          {
            "astId": 2126,
            "contract": "contracts/Marketplace/Facets/MintingOffersFacet.sol:MintingOffersFacet",
            "label": "_indexes",
            "offset": 0,
            "slot": "1",
            "type": "t_mapping(t_bytes32,t_uint256)"
          }
        ],
        "numberOfBytes": "64"
      },
      "t_struct(feeSplits)3477_storage": {
        "encoding": "inplace",
        "label": "struct feeSplits",
        "members": [
          {
            "astId": 3474,
            "contract": "contracts/Marketplace/Facets/MintingOffersFacet.sol:MintingOffersFacet",
            "label": "recipient",
            "offset": 0,
            "slot": "0",
            "type": "t_address"
          },
          {
            "astId": 3476,
            "contract": "contracts/Marketplace/Facets/MintingOffersFacet.sol:MintingOffersFacet",
            "label": "percentage",
            "offset": 0,
            "slot": "1",
            "type": "t_uint256"
          }
        ],
        "numberOfBytes": "64"
      },
      "t_struct(mintingOffer)3490_storage": {
        "encoding": "inplace",
        "label": "struct mintingOffer",
        "members": [
          {
            "astId": 3479,
            "contract": "contracts/Marketplace/Facets/MintingOffersFacet.sol:MintingOffersFacet",
            "label": "erc721Address",
            "offset": 0,
            "slot": "0",
            "type": "t_address"
          },
          {
            "astId": 3481,
            "contract": "contracts/Marketplace/Facets/MintingOffersFacet.sol:MintingOffersFacet",
            "label": "nodeAddress",
            "offset": 0,
            "slot": "1",
            "type": "t_address"
          },
          {
            "astId": 3483,
            "contract": "contracts/Marketplace/Facets/MintingOffersFacet.sol:MintingOffersFacet",
            "label": "rangeIndex",
            "offset": 0,
            "slot": "2",
            "type": "t_uint256"
          },
          {
            "astId": 3487,
            "contract": "contracts/Marketplace/Facets/MintingOffersFacet.sol:MintingOffersFacet",
            "label": "fees",
            "offset": 0,
            "slot": "3",
            "type": "t_array(t_struct(feeSplits)3477_storage)dyn_storage"
          },
          {
            "astId": 3489,
            "contract": "contracts/Marketplace/Facets/MintingOffersFacet.sol:MintingOffersFacet",
            "label": "visible",
            "offset": 0,
            "slot": "4",
            "type": "t_bool"
          }
        ],
        "numberOfBytes": "160"
      },
      "t_uint16": {
        "encoding": "inplace",
        "label": "uint16",
        "numberOfBytes": "2"
      },
      "t_uint256": {
        "encoding": "inplace",
        "label": "uint256",
        "numberOfBytes": "32"
      }
    }
  }
}