{
  "address": "0x6d4289314C1c5c0d8F94a1cd44E15e20fcCa5B40",
  "abi": [
    {
      "anonymous": false,
      "inputs": [
        {
          "indexed": false,
          "internalType": "address",
          "name": "erc721Address",
          "type": "address"
        },
        {
          "indexed": false,
          "internalType": "uint256",
          "name": "rangeIndex",
          "type": "uint256"
        },
        {
          "indexed": false,
          "internalType": "string",
          "name": "rangeName",
          "type": "string"
        },
        {
          "indexed": false,
          "internalType": "uint256",
          "name": "price",
          "type": "uint256"
        },
        {
          "indexed": false,
          "internalType": "uint256",
          "name": "feeSplitsLength",
          "type": "uint256"
        },
        {
          "indexed": false,
          "internalType": "uint256",
          "name": "offerIndex",
          "type": "uint256"
        }
      ],
      "name": "AddedMintingOffer",
      "type": "event"
    },
    {
      "anonymous": false,
      "inputs": [
        {
          "indexed": true,
          "internalType": "bytes32",
          "name": "role",
          "type": "bytes32"
        },
        {
          "indexed": true,
          "internalType": "bytes32",
          "name": "previousAdminRole",
          "type": "bytes32"
        },
        {
          "indexed": true,
          "internalType": "bytes32",
          "name": "newAdminRole",
          "type": "bytes32"
        }
      ],
      "name": "RoleAdminChanged",
      "type": "event"
    },
    {
      "anonymous": false,
      "inputs": [
        {
          "indexed": true,
          "internalType": "bytes32",
          "name": "role",
          "type": "bytes32"
        },
        {
          "indexed": true,
          "internalType": "address",
          "name": "account",
          "type": "address"
        },
        {
          "indexed": true,
          "internalType": "address",
          "name": "sender",
          "type": "address"
        }
      ],
      "name": "RoleGranted",
      "type": "event"
    },
    {
      "anonymous": false,
      "inputs": [
        {
          "indexed": true,
          "internalType": "bytes32",
          "name": "role",
          "type": "bytes32"
        },
        {
          "indexed": true,
          "internalType": "address",
          "name": "account",
          "type": "address"
        },
        {
          "indexed": true,
          "internalType": "address",
          "name": "sender",
          "type": "address"
        }
      ],
      "name": "RoleRevoked",
      "type": "event"
    },
    {
      "anonymous": false,
      "inputs": [
        {
          "indexed": false,
          "internalType": "address",
          "name": "erc721Address",
          "type": "address"
        },
        {
          "indexed": false,
          "internalType": "uint256",
          "name": "rangeIndex",
          "type": "uint256"
        },
        {
          "indexed": false,
          "internalType": "uint256",
          "name": "tokenIndex",
          "type": "uint256"
        },
        {
          "indexed": false,
          "internalType": "address",
          "name": "buyer",
          "type": "address"
        }
      ],
      "name": "TokenMinted",
      "type": "event"
    },
    {
      "inputs": [
        {
          "internalType": "address",
          "name": "erc721Address_",
          "type": "address"
        },
        {
          "internalType": "uint256",
          "name": "rangeIndex_",
          "type": "uint256"
        },
        {
          "components": [
            {
              "internalType": "address",
              "name": "recipient",
              "type": "address"
            },
            {
              "internalType": "uint256",
              "name": "percentage",
              "type": "uint256"
            }
          ],
          "internalType": "struct feeSplits[]",
          "name": "splits",
          "type": "tuple[]"
        },
        {
          "internalType": "bool",
          "name": "visible_",
          "type": "bool"
        },
        {
          "internalType": "address",
          "name": "nodeAddress_",
          "type": "address"
        }
      ],
      "name": "addMintingOffer",
      "outputs": [],
      "stateMutability": "nonpayable",
      "type": "function"
    },
    {
      "inputs": [
        {
          "internalType": "address",
          "name": "erc721Address_",
          "type": "address"
        },
        {
          "internalType": "uint256[]",
          "name": "rangeIndexes",
          "type": "uint256[]"
        },
        {
          "components": [
            {
              "internalType": "address",
              "name": "recipient",
              "type": "address"
            },
            {
              "internalType": "uint256",
              "name": "percentage",
              "type": "uint256"
            }
          ],
          "internalType": "struct feeSplits[][]",
          "name": "splits",
          "type": "tuple[][]"
        },
        {
          "internalType": "bool[]",
          "name": "visibility",
          "type": "bool[]"
        },
        {
          "internalType": "address",
          "name": "nodeAddress_",
          "type": "address"
        }
      ],
      "name": "addMintingOfferBatch",
      "outputs": [],
      "stateMutability": "nonpayable",
      "type": "function"
    },
    {
      "inputs": [
        {
          "internalType": "uint256",
          "name": "offerIndex_",
          "type": "uint256"
        },
        {
          "internalType": "uint256",
          "name": "tokenIndex_",
          "type": "uint256"
        }
      ],
      "name": "buyMintingOffer",
      "outputs": [],
      "stateMutability": "payable",
      "type": "function"
    },
    {
      "inputs": [
        {
          "internalType": "uint256",
          "name": "offerIndex_",
          "type": "uint256"
        },
        {
          "internalType": "uint256[]",
          "name": "tokenIndexes",
          "type": "uint256[]"
        }
      ],
      "name": "buyMintingOfferBatch",
      "outputs": [],
      "stateMutability": "payable",
      "type": "function"
    },
    {
      "inputs": [
        {
          "internalType": "uint256",
          "name": "offerIndex",
          "type": "uint256"
        }
      ],
      "name": "getOfferInfo",
      "outputs": [
        {
          "components": [
            {
              "internalType": "address",
              "name": "erc721Address",
              "type": "address"
            },
            {
              "internalType": "address",
              "name": "nodeAddress",
              "type": "address"
            },
            {
              "internalType": "uint256",
              "name": "rangeIndex",
              "type": "uint256"
            },
            {
              "components": [
                {
                  "internalType": "address",
                  "name": "recipient",
                  "type": "address"
                },
                {
                  "internalType": "uint256",
                  "name": "percentage",
                  "type": "uint256"
                }
              ],
              "internalType": "struct feeSplits[]",
              "name": "fees",
              "type": "tuple[]"
            },
            {
              "internalType": "bool",
              "name": "visible",
              "type": "bool"
            }
          ],
          "internalType": "struct mintingOffer",
          "name": "mintOffer",
          "type": "tuple"
        },
        {
          "components": [
            {
              "internalType": "uint256",
              "name": "rangeStart",
              "type": "uint256"
            },
            {
              "internalType": "uint256",
              "name": "rangeEnd",
              "type": "uint256"
            },
            {
              "internalType": "uint256",
              "name": "tokensAllowed",
              "type": "uint256"
            },
            {
              "internalType": "uint256",
              "name": "mintableTokens",
              "type": "uint256"
            },
            {
              "internalType": "uint256",
              "name": "lockedTokens",
              "type": "uint256"
            },
            {
              "internalType": "uint256",
              "name": "rangePrice",
              "type": "uint256"
            },
            {
              "internalType": "string",
              "name": "rangeName",
              "type": "string"
            }
          ],
          "internalType": "struct IRAIR721.range",
          "name": "rangeData",
          "type": "tuple"
        }
      ],
      "stateMutability": "view",
      "type": "function"
    },
    {
      "inputs": [
        {
          "internalType": "address",
          "name": "erc721Address",
          "type": "address"
        },
        {
          "internalType": "uint256",
          "name": "rangeIndex",
          "type": "uint256"
        }
      ],
      "name": "getOfferInfoForAddress",
      "outputs": [
        {
          "internalType": "uint256",
          "name": "offerIndex",
          "type": "uint256"
        },
        {
          "components": [
            {
              "internalType": "address",
              "name": "erc721Address",
              "type": "address"
            },
            {
              "internalType": "address",
              "name": "nodeAddress",
              "type": "address"
            },
            {
              "internalType": "uint256",
              "name": "rangeIndex",
              "type": "uint256"
            },
            {
              "components": [
                {
                  "internalType": "address",
                  "name": "recipient",
                  "type": "address"
                },
                {
                  "internalType": "uint256",
                  "name": "percentage",
                  "type": "uint256"
                }
              ],
              "internalType": "struct feeSplits[]",
              "name": "fees",
              "type": "tuple[]"
            },
            {
              "internalType": "bool",
              "name": "visible",
              "type": "bool"
            }
          ],
          "internalType": "struct mintingOffer",
          "name": "mintOffer",
          "type": "tuple"
        },
        {
          "components": [
            {
              "internalType": "uint256",
              "name": "rangeStart",
              "type": "uint256"
            },
            {
              "internalType": "uint256",
              "name": "rangeEnd",
              "type": "uint256"
            },
            {
              "internalType": "uint256",
              "name": "tokensAllowed",
              "type": "uint256"
            },
            {
              "internalType": "uint256",
              "name": "mintableTokens",
              "type": "uint256"
            },
            {
              "internalType": "uint256",
              "name": "lockedTokens",
              "type": "uint256"
            },
            {
              "internalType": "uint256",
              "name": "rangePrice",
              "type": "uint256"
            },
            {
              "internalType": "string",
              "name": "rangeName",
              "type": "string"
            }
          ],
          "internalType": "struct IRAIR721.range",
          "name": "rangeData",
          "type": "tuple"
        }
      ],
      "stateMutability": "view",
      "type": "function"
    },
    {
      "inputs": [
        {
          "internalType": "address",
          "name": "erc721Address",
          "type": "address"
        }
      ],
      "name": "getOffersCountForAddress",
      "outputs": [
        {
          "internalType": "uint256",
          "name": "",
          "type": "uint256"
        }
      ],
      "stateMutability": "view",
      "type": "function"
    },
    {
      "inputs": [
        {
          "internalType": "bytes32",
          "name": "role",
          "type": "bytes32"
        }
      ],
      "name": "getRoleAdmin",
      "outputs": [
        {
          "internalType": "bytes32",
          "name": "",
          "type": "bytes32"
        }
      ],
      "stateMutability": "view",
      "type": "function"
    },
    {
      "inputs": [
        {
          "internalType": "bytes32",
          "name": "role",
          "type": "bytes32"
        },
        {
          "internalType": "uint256",
          "name": "index",
          "type": "uint256"
        }
      ],
      "name": "getRoleMember",
      "outputs": [
        {
          "internalType": "address",
          "name": "",
          "type": "address"
        }
      ],
      "stateMutability": "view",
      "type": "function"
    },
    {
      "inputs": [
        {
          "internalType": "bytes32",
          "name": "role",
          "type": "bytes32"
        }
      ],
      "name": "getRoleMemberCount",
      "outputs": [
        {
          "internalType": "uint256",
          "name": "",
          "type": "uint256"
        }
      ],
      "stateMutability": "view",
      "type": "function"
    },
    {
      "inputs": [],
      "name": "getTotalOfferCount",
      "outputs": [
        {
          "internalType": "uint256",
          "name": "",
          "type": "uint256"
        }
      ],
      "stateMutability": "view",
      "type": "function"
    },
    {
      "inputs": [
        {
          "internalType": "bytes32",
          "name": "role",
          "type": "bytes32"
        },
        {
          "internalType": "address",
          "name": "account",
          "type": "address"
        }
      ],
      "name": "grantRole",
      "outputs": [],
      "stateMutability": "nonpayable",
      "type": "function"
    },
    {
      "inputs": [
        {
          "internalType": "bytes32",
          "name": "role",
          "type": "bytes32"
        },
        {
          "internalType": "address",
          "name": "account",
          "type": "address"
        }
      ],
      "name": "hasRole",
      "outputs": [
        {
          "internalType": "bool",
          "name": "",
          "type": "bool"
        }
      ],
      "stateMutability": "view",
      "type": "function"
    },
    {
      "inputs": [
        {
          "internalType": "bytes32",
          "name": "role",
          "type": "bytes32"
        },
        {
          "internalType": "address",
          "name": "account",
          "type": "address"
        }
      ],
      "name": "renounceRole",
      "outputs": [],
      "stateMutability": "nonpayable",
      "type": "function"
    },
    {
      "inputs": [
        {
          "internalType": "bytes32",
          "name": "role",
          "type": "bytes32"
        },
        {
          "internalType": "address",
          "name": "account",
          "type": "address"
        }
      ],
      "name": "revokeRole",
      "outputs": [],
      "stateMutability": "nonpayable",
      "type": "function"
    }
  ],
  "transactionHash": "0x6a52f9d4ff29bc3cfb8ab68afed8e701a1af0e0fbfcb84e13501129eae7b4d0b",
  "args": [],
  "numDeployments": 4,
  "solcInputHash": "32803e2b247c79b3c9268b86650e01b3",
  "bytecode": "0x608060405234801561001057600080fd5b50612949806100206000396000f3fe6080604052600436106100e85760003560e01c80638b0e2e131161008a5780639c3ac84b116100595780639c3ac84b14610292578063ca15c873146102b2578063d547741f146102d2578063df275c6a146102f257600080fd5b80638b0e2e13146101e65780638bcccedb146102155780639010d07c1461022a57806391d148541461026257600080fd5b80632a851254116100c65780632a851254146101735780632f2ff15d1461019357806336568abe146101b357806382ec0663146101d357600080fd5b806308db7184146100ed578063248a9ca3146101025780632a1da98214610145575b600080fd5b6101006100fb366004611ef3565b610328565b005b34801561010e57600080fd5b5061013261011d366004611f3f565b60009081526020819052604090206001015490565b6040519081526020015b60405180910390f35b34801561015157600080fd5b50610165610160366004611f3f565b6107dd565b60405161013c9291906120a5565b34801561017f57600080fd5b5061010061018e3660046120ef565b6109a0565b34801561019f57600080fd5b506101006101ae3660046121aa565b610b4e565b3480156101bf57600080fd5b506101006101ce3660046121aa565b610b79565b6101006101e13660046121d6565b610bf7565b3480156101f257600080fd5b506102066102013660046121f8565b610fb6565b60405161013c93929190612222565b34801561022157600080fd5b50600754610132565b34801561023657600080fd5b5061024a6102453660046121d6565b6111ef565b6040516001600160a01b03909116815260200161013c565b34801561026e57600080fd5b5061028261027d3660046121aa565b611210565b604051901515815260200161013c565b34801561029e57600080fd5b506101006102ad366004612273565b611239565b3480156102be57600080fd5b506101326102cd366004611f3f565b6112a0565b3480156102de57600080fd5b506101006102ed3660046121aa565b6112b7565b3480156102fe57600080fd5b5061013261030d366004612323565b6001600160a01b031660009081526009602052604090205490565b600754839081106103545760405162461bcd60e51b815260040161034b9061233e565b60405180910390fd5b816103ad5760405162461bcd60e51b815260206004820152602360248201527f4d696e746572204d61726b6574706c6163653a204e6f20746f6b656e732073656044820152626e742160e81b606482015260840161034b565b60008060070185815481106103c4576103c461238e565b60009182526020909120600590910201600481015490915060ff166103fb5760405162461bcd60e51b815260040161034b906123a4565b805461040f906001600160a01b03166112dd565b61042b5760405162461bcd60e51b815260040161034b90612401565b805460028201546040516364cc98df60e11b815260048101919091526000916001600160a01b03169063c99931be90602401600060405180830381865afa15801561047a573d6000803e3d6000fd5b505050506040513d6000823e601f3d908101601f191682016040526104a29190810190612512565b60a081015190915034906104b79086906125d1565b11156104d55760405162461bcd60e51b815260040161034b906125f0565b60a08101516000906104e89086906125d1565b6104f29034612637565b11156105425760a081015133906108fc9061050e9087906125d1565b6105189034612637565b6040518115909202916000818181858888f19350505050158015610540573d6000803e3d6000fd5b505b6003546000906105539060646125d1565b600554600454610563919061264e565b60a08401516105739088906125d1565b61057d91906125d1565b6105879190612666565b60018401546003549192506001600160a01b0316906108fc906105ab9060646125d1565b60045460a08601516105be908a906125d1565b6105c891906125d1565b6105d29190612666565b6040518115909202916000818181858888f193505050501580156105fa573d6000803e3d6000fd5b506006546003546001600160a01b03909116906108fc9061061c9060646125d1565b60055460a086015161062f908a906125d1565b61063991906125d1565b6106439190612666565b6040518115909202916000818181858888f1935050505015801561066b573d6000803e3d6000fd5b506000805b60038501548110156107535760035461068a9060646125d1565b85600301828154811061069f5761069f61238e565b906000526020600020906002020160010154898990508660a001516106c491906125d1565b6106ce91906125d1565b6106d89190612666565b91506106e4828461264e565b92508460030181815481106106fb576106fb61238e565b600091825260208220600290910201546040516001600160a01b039091169184156108fc02918591818181858888f19350505050158015610740573d6000803e3d6000fd5b508061074b81612688565b915050610670565b60a08401516107639088906125d1565b83146107815760405162461bcd60e51b815260040161034b906126a3565b5060005b868110156107d257845460028601546107c0916001600160a01b0316908a8a858181106107b4576107b461238e565b9050602002013561136e565b806107ca81612688565b915050610785565b505050505050505050565b6040805160a08101825260008082526020820181905291810182905260608082015260808101919091526108476040518060e00160405280600081526020016000815260200160008152602001600081526020016000815260200160008152602001606081525090565b600080600701848154811061085e5761085e61238e565b600091825260208083206040805160a081018252600590940290910180546001600160a01b039081168552600182015416848401526002810154848301526003810180548351818602810186019094528084529495919460608701949192909184015b82821015610909576000848152602090819020604080518082019091526002850290910180546001600160a01b031682526001908101548284015290835290920191016108c1565b5050509082525060049182015460ff161515602090910152815160408084015190516364cc98df60e11b81529283015291925082916001600160a01b03169063c99931be90602401600060405180830381865afa15801561096e573d6000803e3d6000fd5b505050506040513d6000823e601f3d908101601f191682016040526109969190810190612512565b9250925050915091565b856109f95760405162461bcd60e51b815260206004820152602360248201527f4d696e746572204d61726b6574706c6163653a204e6f206f66666572732073656044820152626e742160e81b606482015260840161034b565b8582148015610a0757508382145b610a725760405162461bcd60e51b815260206004820152603660248201527f4d696e746572204d61726b6574706c6163653a204172726179732073686f756c6044820152750c840d0c2ecca40e8d0ca40e6c2daca40d8cadccee8d60531b606482015260840161034b565b60005b868110156107d257610b3c89898984818110610a9357610a9361238e565b90506020020135888885818110610aac57610aac61238e565b9050602002810190610abe91906126f0565b808060200260200160405190810160405280939291908181526020016000905b82821015610b0a57610afb6040830286013681900381019061273a565b81526020019060010190610ade565b5050505050878786818110610b2157610b2161238e565b9050602002016020810190610b369190612791565b8661142b565b80610b4681612688565b915050610a75565b600082815260208190526040902060010154610b6a81336119ea565b610b748383611a4e565b505050565b6001600160a01b0381163314610be95760405162461bcd60e51b815260206004820152602f60248201527f416363657373436f6e74726f6c3a2063616e206f6e6c792072656e6f756e636560448201526e103937b632b9903337b91039b2b63360891b606482015260840161034b565b610bf38282611ae6565b5050565b60075482908110610c1a5760405162461bcd60e51b815260040161034b9061233e565b6000806007018481548110610c3157610c3161238e565b60009182526020909120600590910201600481015490915060ff16610c685760405162461bcd60e51b815260040161034b906123a4565b8054610c7c906001600160a01b03166112dd565b610c985760405162461bcd60e51b815260040161034b90612401565b805460028201546040516364cc98df60e11b815260048101919091526000916001600160a01b03169063c99931be90602401600060405180830381865afa158015610ce7573d6000803e3d6000fd5b505050506040513d6000823e601f3d908101601f19168201604052610d0f9190810190612512565b9050348160a001511115610d355760405162461bcd60e51b815260040161034b906125f0565b60008160a0015134610d479190612637565b1115610d8c5760a081015133906108fc90610d629034612637565b6040518115909202916000818181858888f19350505050158015610d8a573d6000803e3d6000fd5b505b600354600090610d9d9060646125d1565b600554600454610dad919061264e565b8360a00151610dbc91906125d1565b610dc69190612666565b60018401546003549192506001600160a01b0316906108fc90610dea9060646125d1565b60045460a0860151610dfc91906125d1565b610e069190612666565b6040518115909202916000818181858888f19350505050158015610e2e573d6000803e3d6000fd5b506006546003546001600160a01b03909116906108fc90610e509060646125d1565b60055460a0860151610e6291906125d1565b610e6c9190612666565b6040518115909202916000818181858888f19350505050158015610e94573d6000803e3d6000fd5b506000805b6003850154811015610f6e57600354610eb39060646125d1565b856003018281548110610ec857610ec861238e565b9060005260206000209060020201600101548560a00151610ee991906125d1565b610ef39190612666565b9150610eff828461264e565b9250846003018181548110610f1657610f1661238e565b600091825260208220600290910201546040516001600160a01b039091169184156108fc02918591818181858888f19350505050158015610f5b573d6000803e3d6000fd5b5080610f6681612688565b915050610e99565b508260a001518214610f925760405162461bcd60e51b815260040161034b906126a3565b83546002850154610fad916001600160a01b0316908861136e565b50505050505050565b6040805160a0810182526000808252602082018190529181018290526060808201526080810182905261101f6040518060e00160405280600081526020016000815260200160008152602001600081526020016000815260200160008152602001606081525090565b6001600160a01b03851660009081526009602052604081208054600791908790811061104d5761104d61238e565b9060005260206000200154815481106110685761106861238e565b600091825260208083206040805160a081018252600590940290910180546001600160a01b039081168552600182015416848401526002810154848301526003810180548351818602810186019094528084529495919460608701949192909184015b82821015611113576000848152602090819020604080518082019091526002850290910180546001600160a01b031682526001908101548284015290835290920191016110cb565b505050908252506004919091015460ff1615156020918201526001600160a01b03881660009081526009909152604090208054919250908690811061115a5761115a61238e565b90600052602060002001548182600001516001600160a01b031663c99931be84604001516040518263ffffffff1660e01b815260040161119c91815260200190565b600060405180830381865afa1580156111b9573d6000803e3d6000fd5b505050506040513d6000823e601f3d908101601f191682016040526111e19190810190612512565b935093509350509250925092565b60008281526001602052604081206112079083611b5f565b90505b92915050565b6000918252602082815260408084206001600160a01b0393909316845291905290205460ff1690565b61129886868686808060200260200160405190810160405280939291908181526020016000905b8282101561128c5761127d6040830286013681900381019061273a565b81526020019060010190611260565b5050505050858561142b565b505050505050565b600081815260016020526040812061120a90611b6b565b6000828152602081905260409020600101546112d381336119ea565b610b748383611ae6565b604051632474521560e21b81527ff0887ba65ee2024ea881d91b74c2450ef19e1557f03bed3ea9f16b037cbe2dc960048201523060248201526000906001600160a01b038316906391d1485490604401602060405180830381865afa15801561134a573d6000803e3d6000fd5b505050506040513d601f19601f8201168201806040525081019061120a91906127ae565b60405163e766224360e01b815233600482015260248101839052604481018290526001600160a01b0384169063e766224390606401600060405180830381600087803b1580156113bd57600080fd5b505af11580156113d1573d6000803e3d6000fd5b5050604080516001600160a01b0387168152602081018690529081018490523360608201527f6a1a369ef3c3eebe428c993f6eb79fb1438544741070bc7a4388c801fa08463d9250608001905060405180910390a1505050565b604051632474521560e21b81527f3c2519c4487d47714872f92cf90a50c25f5deaec2789dc2a497b1272df611db6600482015233602482015285906001600160a01b038216906391d1485490604401602060405180830381865afa158015611497573d6000803e3d6000fd5b505050506040513d601f19601f820116820180604052508101906114bb91906127ae565b61152d5760405162461bcd60e51b815260206004820152603d60248201527f4d696e746572204d61726b6574706c6163653a2053656e6465722069736e277460448201527f207468652063726561746f72206f662074686520636f6e747261637421000000606482015260840161034b565b85611537816112dd565b6115535760405162461bcd60e51b815260040161034b90612401565b6001600160a01b038716600090815260086020908152604080832089845290915290205487908790156115985760405162461bcd60e51b815260040161034b906127cb565b6001600160a01b03821660009081526008602090815260408083208484529091529020541580156115ca575060075415155b1561165b57816001600160a01b031660006007016000815481106115f0576115f061238e565b60009182526020909120600590910201546001600160a01b031614158061163f575080600060070160008154811061162a5761162a61238e565b90600052602060002090600502016002015414155b61165b5760405162461bcd60e51b815260040161034b906127cb565b6007805460018101825560009182526040516364cc98df60e11b815260059091027fa66cc928b5edb82af9bd49922954155ab7b0942694bea4ce44661d9a8736c6880191906001600160a01b038c169063c99931be906116c3908d9060040190815260200190565b600060405180830381865afa1580156116e0573d6000803e3d6000fd5b505050506040513d6000823e601f3d908101601f191682016040526117089190810190612512565b905060008160600151116117845760405162461bcd60e51b815260206004820152603860248201527f4d696e746572204d61726b6574706c6163653a204f6666657220646f65736e2760448201527f74206861766520746f6b656e7320617661696c61626c65210000000000000000606482015260840161034b565b81546001600160a01b03808d166001600160a01b0319928316178455600184018054918a1691909216179055600282018a9055600480830180548a151560ff1990911617905560055490546000916117db9161264e565b905060005b8a51811015611885578a81815181106117fb576117fb61238e565b60200260200101516020015182611812919061264e565b9150836003018b828151811061182a5761182a61238e565b602090810291909101810151825460018082018555600094855293839020825160029092020180546001600160a01b0319166001600160a01b039092169190911781559101519101558061187d81612688565b9150506117e0565b506003546118949060646125d1565b81146118f85760405162461bcd60e51b815260206004820152602d60248201527f4d696e746572204d61726b6574706c6163653a204665657320646f6e2774206160448201526c646420757020746f203130302560981b606482015260840161034b565b6001600160a01b038c16600090815260096020526040902060075461191f90600190612637565b8154600181810184556000938452602090932001556007546119419190612637565b600060080160008e6001600160a01b03166001600160a01b0316815260200190815260200160002060008d8152602001908152602001600020819055507f26d54df15e8a0d68fa0ae9702cf190da88a0e1d48b0ed4c6b1099610b292f5f78c8c8460c001518560a001518e5160016000600701805490506119c29190612637565b6040516119d496959493929190612819565b60405180910390a1505050505050505050505050565b6119f48282611210565b610bf357611a0c816001600160a01b03166014611b75565b611a17836020611b75565b604051602001611a2892919061285e565b60408051601f198184030181529082905262461bcd60e51b825261034b916004016128d3565b611a588282611210565b610bf3576000828152602081815260408083206001600160a01b03851684529091529020805460ff19166001179055611a8e3390565b6001600160a01b0316816001600160a01b0316837f2f8788117e7eff1d82e926ec794901d17c78024a50270940304540a733656f0d60405160405180910390a46000828152600160205260409020610b749082611d11565b611af08282611210565b15610bf3576000828152602081815260408083206001600160a01b0385168085529252808320805460ff1916905551339285917ff6391f5c32d9c69d2a47ea670b442974b53935d1edc7fd64eb21e047a839171b9190a46000828152600160205260409020610b749082611d26565b60006112078383611d3b565b600061120a825490565b60606000611b848360026125d1565b611b8f90600261264e565b67ffffffffffffffff811115611ba757611ba7612455565b6040519080825280601f01601f191660200182016040528015611bd1576020820181803683370190505b509050600360fc1b81600081518110611bec57611bec61238e565b60200101906001600160f81b031916908160001a905350600f60fb1b81600181518110611c1b57611c1b61238e565b60200101906001600160f81b031916908160001a9053506000611c3f8460026125d1565b611c4a90600161264e565b90505b6001811115611cc2576f181899199a1a9b1b9c1cb0b131b232b360811b85600f1660108110611c7e57611c7e61238e565b1a60f81b828281518110611c9457611c9461238e565b60200101906001600160f81b031916908160001a90535060049490941c93611cbb816128e6565b9050611c4d565b5083156112075760405162461bcd60e51b815260206004820181905260248201527f537472696e67733a20686578206c656e67746820696e73756666696369656e74604482015260640161034b565b6000611207836001600160a01b038416611d65565b6000611207836001600160a01b038416611db4565b6000826000018281548110611d5257611d5261238e565b9060005260206000200154905092915050565b6000818152600183016020526040812054611dac5750815460018181018455600084815260208082209093018490558454848252828601909352604090209190915561120a565b50600061120a565b60008181526001830160205260408120548015611e9d576000611dd8600183612637565b8554909150600090611dec90600190612637565b9050818114611e51576000866000018281548110611e0c57611e0c61238e565b9060005260206000200154905080876000018481548110611e2f57611e2f61238e565b6000918252602080832090910192909255918252600188019052604090208390555b8554869080611e6257611e626128fd565b60019003818190600052602060002001600090559055856001016000868152602001908152602001600020600090556001935050505061120a565b600091505061120a565b60008083601f840112611eb957600080fd5b50813567ffffffffffffffff811115611ed157600080fd5b6020830191508360208260051b8501011115611eec57600080fd5b9250929050565b600080600060408486031215611f0857600080fd5b83359250602084013567ffffffffffffffff811115611f2657600080fd5b611f3286828701611ea7565b9497909650939450505050565b600060208284031215611f5157600080fd5b5035919050565b600060a0830160018060a01b0380845116855260208181860151168187015260408086015181880152606086015160a0606089015284815180875260c08a0191508483019650600092505b80831015611fce57865180518716835285015185830152958401956001929092019190830190611fa3565b5060808801519550611fe460808a018715159052565b98975050505050505050565b60005b8381101561200b578181015183820152602001611ff3565b8381111561201a576000848401525b50505050565b60008151808452612038816020860160208601611ff0565b601f01601f19169290920160200192915050565b805182526020810151602083015260408101516040830152606081015160608301526080810151608083015260a081015160a0830152600060c082015160e060c085015261209d60e0850182612020565b949350505050565b6040815260006120b86040830185611f58565b82810360208401526120ca818561204c565b95945050505050565b80356001600160a01b03811681146120ea57600080fd5b919050565b60008060008060008060008060a0898b03121561210b57600080fd5b612114896120d3565b9750602089013567ffffffffffffffff8082111561213157600080fd5b61213d8c838d01611ea7565b909950975060408b013591508082111561215657600080fd5b6121628c838d01611ea7565b909750955060608b013591508082111561217b57600080fd5b506121888b828c01611ea7565b909450925061219b905060808a016120d3565b90509295985092959890939650565b600080604083850312156121bd57600080fd5b823591506121cd602084016120d3565b90509250929050565b600080604083850312156121e957600080fd5b50508035926020909101359150565b6000806040838503121561220b57600080fd5b612214836120d3565b946020939093013593505050565b83815260606020820152600061223b6060830185611f58565b828103604084015261224d818561204c565b9695505050505050565b801515811461226557600080fd5b50565b80356120ea81612257565b60008060008060008060a0878903121561228c57600080fd5b612295876120d3565b955060208701359450604087013567ffffffffffffffff808211156122b957600080fd5b818901915089601f8301126122cd57600080fd5b8135818111156122dc57600080fd5b8a60208260061b85010111156122f157600080fd5b60208301965080955050505061230960608801612268565b9150612317608088016120d3565b90509295509295509295565b60006020828403121561233557600080fd5b611207826120d3565b60208082526030908201527f4d696e74696e67204d61726b6574706c6163653a204d696e74696e67204f666660408201526f195c88191bd95cdb89dd08195e1a5cdd60821b606082015260800190565b634e487b7160e01b600052603260045260246000fd5b60208082526037908201527f4d696e746572204d61726b6574706c6163653a2054686973206f66666572206960408201527f73206e6f7420726561647920746f20626520736f6c6421000000000000000000606082015260800190565b60208082526034908201527f4d696e746572204d61726b6574706c6163653a2054686973204d61726b6574706040820152736c6163652069736e27742061204d696e7465722160601b606082015260800190565b634e487b7160e01b600052604160045260246000fd5b60405160e0810167ffffffffffffffff8111828210171561248e5761248e612455565b60405290565b600082601f8301126124a557600080fd5b815167ffffffffffffffff808211156124c0576124c0612455565b604051601f8301601f19908116603f011681019082821181831017156124e8576124e8612455565b8160405283815286602085880101111561250157600080fd5b61224d846020830160208901611ff0565b60006020828403121561252457600080fd5b815167ffffffffffffffff8082111561253c57600080fd5b9083019060e0828603121561255057600080fd5b61255861246b565b825181526020830151602082015260408301516040820152606083015160608201526080830151608082015260a083015160a082015260c0830151828111156125a057600080fd5b6125ac87828601612494565b60c08301525095945050505050565b634e487b7160e01b600052601160045260246000fd5b60008160001904831182151516156125eb576125eb6125bb565b500290565b60208082526027908201527f4d696e746572204d61726b6574706c6163653a20496e73756666696369656e746040820152662066756e64732160c81b606082015260800190565b600082821015612649576126496125bb565b500390565b60008219821115612661576126616125bb565b500190565b60008261268357634e487b7160e01b600052601260045260246000fd5b500490565b600060001982141561269c5761269c6125bb565b5060010190565b6020808252602d908201527f4d696e746572204d61726b6574706c6163653a204572726f72207472616e736660408201526c657272696e672066756e64732160981b606082015260800190565b6000808335601e1984360301811261270757600080fd5b83018035915067ffffffffffffffff82111561272257600080fd5b6020019150600681901b3603821315611eec57600080fd5b60006040828403121561274c57600080fd5b6040516040810181811067ffffffffffffffff8211171561276f5761276f612455565b60405261277b836120d3565b8152602083013560208201528091505092915050565b6000602082840312156127a357600080fd5b813561120781612257565b6000602082840312156127c057600080fd5b815161120781612257565b6020808252602e908201527f4d696e746572204d61726b6574706c6163653a2052616e676520616c7265616460408201526d3c903430b99030b71037b33332b960911b606082015260800190565b60018060a01b038716815285602082015260c06040820152600061284060c0830187612020565b606083019590955250608081019290925260a0909101529392505050565b7f416363657373436f6e74726f6c3a206163636f756e7420000000000000000000815260008351612896816017850160208801611ff0565b7001034b99036b4b9b9b4b733903937b6329607d1b60179184019182015283516128c7816028840160208801611ff0565b01602801949350505050565b6020815260006112076020830184612020565b6000816128f5576128f56125bb565b506000190190565b634e487b7160e01b600052603160045260246000fdfea26469706673582212206205d97325c2de0fa98282e0f93807eb13f23a829fb302546bc9d28250d11c8d64736f6c634300080b0033",
  "devdoc": {
    "kind": "dev",
    "methods": {},
    "version": 1
  },
  "userdoc": {
    "kind": "user",
    "methods": {},
    "version": 1
  },
  "storageLayout": {
    "storage": [
      {
        "astId": 3551,
        "contract": "contracts/Marketplace/Facets/MintingOffersFacet.sol:MintingOffersFacet",
        "label": "s",
        "offset": 0,
        "slot": "0",
        "type": "t_struct(AppStorage)3533_storage"
      }
    ],
    "types": {
      "t_address": {
        "encoding": "inplace",
        "label": "address",
        "numberOfBytes": "20"
      },
      "t_array(t_bytes32)dyn_storage": {
        "base": "t_bytes32",
        "encoding": "dynamic_array",
        "label": "bytes32[]",
        "numberOfBytes": "32"
      },
      "t_array(t_struct(feeSplits)3477_storage)dyn_storage": {
        "base": "t_struct(feeSplits)3477_storage",
        "encoding": "dynamic_array",
        "label": "struct feeSplits[]",
        "numberOfBytes": "32"
      },
      "t_array(t_struct(mintingOffer)3490_storage)dyn_storage": {
        "base": "t_struct(mintingOffer)3490_storage",
        "encoding": "dynamic_array",
        "label": "struct mintingOffer[]",
        "numberOfBytes": "32"
      },
      "t_array(t_uint256)dyn_storage": {
        "base": "t_uint256",
        "encoding": "dynamic_array",
        "label": "uint256[]",
        "numberOfBytes": "32"
      },
      "t_bool": {
        "encoding": "inplace",
        "label": "bool",
        "numberOfBytes": "1"
      },
      "t_bytes32": {
        "encoding": "inplace",
        "label": "bytes32",
        "numberOfBytes": "32"
      },
      "t_mapping(t_address,t_array(t_uint256)dyn_storage)": {
        "encoding": "mapping",
        "key": "t_address",
        "label": "mapping(address => uint256[])",
        "numberOfBytes": "32",
        "value": "t_array(t_uint256)dyn_storage"
      },
      "t_mapping(t_address,t_bool)": {
        "encoding": "mapping",
        "key": "t_address",
        "label": "mapping(address => bool)",
        "numberOfBytes": "32",
        "value": "t_bool"
      },
      "t_mapping(t_address,t_mapping(t_uint256,t_uint256))": {
        "encoding": "mapping",
        "key": "t_address",
        "label": "mapping(address => mapping(uint256 => uint256))",
        "numberOfBytes": "32",
        "value": "t_mapping(t_uint256,t_uint256)"
      },
      "t_mapping(t_bytes32,t_struct(AddressSet)2428_storage)": {
        "encoding": "mapping",
        "key": "t_bytes32",
        "label": "mapping(bytes32 => struct EnumerableSet.AddressSet)",
        "numberOfBytes": "32",
        "value": "t_struct(AddressSet)2428_storage"
      },
      "t_mapping(t_bytes32,t_struct(RoleData)3497_storage)": {
        "encoding": "mapping",
        "key": "t_bytes32",
        "label": "mapping(bytes32 => struct RoleData)",
        "numberOfBytes": "32",
        "value": "t_struct(RoleData)3497_storage"
      },
      "t_mapping(t_bytes32,t_uint256)": {
        "encoding": "mapping",
        "key": "t_bytes32",
        "label": "mapping(bytes32 => uint256)",
        "numberOfBytes": "32",
        "value": "t_uint256"
      },
      "t_mapping(t_uint256,t_uint256)": {
        "encoding": "mapping",
        "key": "t_uint256",
        "label": "mapping(uint256 => uint256)",
        "numberOfBytes": "32",
        "value": "t_uint256"
      },
      "t_struct(AddressSet)2428_storage": {
        "encoding": "inplace",
        "label": "struct EnumerableSet.AddressSet",
        "members": [
          {
            "astId": 2427,
            "contract": "contracts/Marketplace/Facets/MintingOffersFacet.sol:MintingOffersFacet",
            "label": "_inner",
            "offset": 0,
            "slot": "0",
            "type": "t_struct(Set)2127_storage"
          }
        ],
        "numberOfBytes": "64"
      },
      "t_struct(AppStorage)3533_storage": {
        "encoding": "inplace",
        "label": "struct AppStorage",
        "members": [
          {
            "astId": 3502,
            "contract": "contracts/Marketplace/Facets/MintingOffersFacet.sol:MintingOffersFacet",
            "label": "_roles",
            "offset": 0,
            "slot": "0",
            "type": "t_mapping(t_bytes32,t_struct(RoleData)3497_storage)"
          },
          {
            "astId": 3507,
            "contract": "contracts/Marketplace/Facets/MintingOffersFacet.sol:MintingOffersFacet",
            "label": "_roleMembers",
            "offset": 0,
            "slot": "1",
            "type": "t_mapping(t_bytes32,t_struct(AddressSet)2428_storage)"
          },
          {
            "astId": 3509,
            "contract": "contracts/Marketplace/Facets/MintingOffersFacet.sol:MintingOffersFacet",
            "label": "decimals",
            "offset": 0,
            "slot": "2",
            "type": "t_uint16"
          },
          {
            "astId": 3511,
            "contract": "contracts/Marketplace/Facets/MintingOffersFacet.sol:MintingOffersFacet",
            "label": "decimalPow",
            "offset": 0,
            "slot": "3",
            "type": "t_uint256"
          },
          {
            "astId": 3513,
            "contract": "contracts/Marketplace/Facets/MintingOffersFacet.sol:MintingOffersFacet",
            "label": "nodeFee",
            "offset": 0,
            "slot": "4",
            "type": "t_uint256"
          },
          {
            "astId": 3515,
            "contract": "contracts/Marketplace/Facets/MintingOffersFacet.sol:MintingOffersFacet",
            "label": "treasuryFee",
            "offset": 0,
            "slot": "5",
            "type": "t_uint256"
          },
          {
            "astId": 3517,
            "contract": "contracts/Marketplace/Facets/MintingOffersFacet.sol:MintingOffersFacet",
            "label": "treasuryAddress",
            "offset": 0,
            "slot": "6",
            "type": "t_address"
          },
          {
            "astId": 3521,
            "contract": "contracts/Marketplace/Facets/MintingOffersFacet.sol:MintingOffersFacet",
            "label": "mintingOffers",
            "offset": 0,
            "slot": "7",
            "type": "t_array(t_struct(mintingOffer)3490_storage)dyn_storage"
          },
          {
            "astId": 3527,
            "contract": "contracts/Marketplace/Facets/MintingOffersFacet.sol:MintingOffersFacet",
            "label": "addressToRangeOffer",
            "offset": 0,
            "slot": "8",
            "type": "t_mapping(t_address,t_mapping(t_uint256,t_uint256))"
          },
          {
            "astId": 3532,
            "contract": "contracts/Marketplace/Facets/MintingOffersFacet.sol:MintingOffersFacet",
            "label": "addressToOffers",
            "offset": 0,
            "slot": "9",
            "type": "t_mapping(t_address,t_array(t_uint256)dyn_storage)"
          }
        ],
        "numberOfBytes": "320"
      },
      "t_struct(RoleData)3497_storage": {
        "encoding": "inplace",
        "label": "struct RoleData",
        "members": [
          {
            "astId": 3494,
            "contract": "contracts/Marketplace/Facets/MintingOffersFacet.sol:MintingOffersFacet",
            "label": "members",
            "offset": 0,
            "slot": "0",
            "type": "t_mapping(t_address,t_bool)"
          },
          {
            "astId": 3496,
            "contract": "contracts/Marketplace/Facets/MintingOffersFacet.sol:MintingOffersFacet",
            "label": "adminRole",
            "offset": 0,
            "slot": "1",
            "type": "t_bytes32"
          }
        ],
        "numberOfBytes": "64"
      },
      "t_struct(Set)2127_storage": {
        "encoding": "inplace",
        "label": "struct EnumerableSet.Set",
        "members": [
          {
            "astId": 2122,
            "contract": "contracts/Marketplace/Facets/MintingOffersFacet.sol:MintingOffersFacet",
            "label": "_values",
            "offset": 0,
            "slot": "0",
            "type": "t_array(t_bytes32)dyn_storage"
          },
          {
            "astId": 2126,
            "contract": "contracts/Marketplace/Facets/MintingOffersFacet.sol:MintingOffersFacet",
            "label": "_indexes",
            "offset": 0,
            "slot": "1",
            "type": "t_mapping(t_bytes32,t_uint256)"
          }
        ],
        "numberOfBytes": "64"
      },
      "t_struct(feeSplits)3477_storage": {
        "encoding": "inplace",
        "label": "struct feeSplits",
        "members": [
          {
            "astId": 3474,
            "contract": "contracts/Marketplace/Facets/MintingOffersFacet.sol:MintingOffersFacet",
            "label": "recipient",
            "offset": 0,
            "slot": "0",
            "type": "t_address"
          },
          {
            "astId": 3476,
            "contract": "contracts/Marketplace/Facets/MintingOffersFacet.sol:MintingOffersFacet",
            "label": "percentage",
            "offset": 0,
            "slot": "1",
            "type": "t_uint256"
          }
        ],
        "numberOfBytes": "64"
      },
      "t_struct(mintingOffer)3490_storage": {
        "encoding": "inplace",
        "label": "struct mintingOffer",
        "members": [
          {
            "astId": 3479,
            "contract": "contracts/Marketplace/Facets/MintingOffersFacet.sol:MintingOffersFacet",
            "label": "erc721Address",
            "offset": 0,
            "slot": "0",
            "type": "t_address"
          },
          {
            "astId": 3481,
            "contract": "contracts/Marketplace/Facets/MintingOffersFacet.sol:MintingOffersFacet",
            "label": "nodeAddress",
            "offset": 0,
            "slot": "1",
            "type": "t_address"
          },
          {
            "astId": 3483,
            "contract": "contracts/Marketplace/Facets/MintingOffersFacet.sol:MintingOffersFacet",
            "label": "rangeIndex",
            "offset": 0,
            "slot": "2",
            "type": "t_uint256"
          },
          {
            "astId": 3487,
            "contract": "contracts/Marketplace/Facets/MintingOffersFacet.sol:MintingOffersFacet",
            "label": "fees",
            "offset": 0,
            "slot": "3",
            "type": "t_array(t_struct(feeSplits)3477_storage)dyn_storage"
          },
          {
            "astId": 3489,
            "contract": "contracts/Marketplace/Facets/MintingOffersFacet.sol:MintingOffersFacet",
            "label": "visible",
            "offset": 0,
            "slot": "4",
            "type": "t_bool"
          }
        ],
        "numberOfBytes": "160"
      },
      "t_uint16": {
        "encoding": "inplace",
        "label": "uint16",
        "numberOfBytes": "2"
      },
      "t_uint256": {
        "encoding": "inplace",
        "label": "uint256",
        "numberOfBytes": "32"
      }
    }
  }
}