{
  "_format": "hh-sol-artifact-1",
  "contractName": "RAIR_ERC721",
  "sourceName": "contracts/Tokens/RAIR-ERC721.sol",
  "abi": [
    {
      "inputs": [
        {
          "internalType": "string",
          "name": "_contractName",
          "type": "string"
        },
        {
          "internalType": "address",
          "name": "_creatorAddress",
          "type": "address"
        },
        {
          "internalType": "uint16",
          "name": "_creatorRoyalty",
          "type": "uint16"
        }
      ],
      "stateMutability": "nonpayable",
      "type": "constructor"
    },
    {
      "anonymous": false,
      "inputs": [
        {
          "indexed": true,
          "internalType": "address",
          "name": "owner",
          "type": "address"
        },
        {
          "indexed": true,
          "internalType": "address",
          "name": "approved",
          "type": "address"
        },
        {
          "indexed": true,
          "internalType": "uint256",
          "name": "tokenId",
          "type": "uint256"
        }
      ],
      "name": "Approval",
      "type": "event"
    },
    {
      "anonymous": false,
      "inputs": [
        {
          "indexed": true,
          "internalType": "address",
          "name": "owner",
          "type": "address"
        },
        {
          "indexed": true,
          "internalType": "address",
          "name": "operator",
          "type": "address"
        },
        {
          "indexed": false,
          "internalType": "bool",
          "name": "approved",
          "type": "bool"
        }
      ],
      "name": "ApprovalForAll",
      "type": "event"
    },
    {
      "anonymous": false,
      "inputs": [
        {
          "indexed": false,
          "internalType": "string",
          "name": "newURI",
          "type": "string"
        }
      ],
      "name": "BaseURIChanged",
      "type": "event"
    },
    {
      "anonymous": false,
      "inputs": [
        {
          "indexed": false,
          "internalType": "string",
          "name": "newURI",
          "type": "string"
        }
      ],
      "name": "ContractURIChanged",
      "type": "event"
    },
    {
      "anonymous": false,
      "inputs": [
        {
          "indexed": false,
          "internalType": "string",
          "name": "_value",
          "type": "string"
        },
        {
          "indexed": true,
          "internalType": "uint256",
          "name": "_id",
          "type": "uint256"
        }
      ],
      "name": "PermanentURI",
      "type": "event"
    },
    {
      "anonymous": false,
      "inputs": [
        {
          "indexed": true,
          "internalType": "uint256",
          "name": "id",
          "type": "uint256"
        },
        {
          "indexed": false,
          "internalType": "string",
          "name": "name",
          "type": "string"
        }
      ],
      "name": "ProductCompleted",
      "type": "event"
    },
    {
      "anonymous": false,
      "inputs": [
        {
          "indexed": true,
          "internalType": "uint256",
          "name": "id",
          "type": "uint256"
        },
        {
          "indexed": false,
          "internalType": "string",
          "name": "name",
          "type": "string"
        },
        {
          "indexed": false,
          "internalType": "uint256",
          "name": "startingToken",
          "type": "uint256"
        },
        {
          "indexed": false,
          "internalType": "uint256",
          "name": "length",
          "type": "uint256"
        }
      ],
      "name": "ProductCreated",
      "type": "event"
    },
    {
      "anonymous": false,
      "inputs": [
        {
          "indexed": false,
          "internalType": "uint256",
          "name": "productId",
          "type": "uint256"
        },
        {
          "indexed": false,
          "internalType": "string",
          "name": "newURI",
          "type": "string"
        }
      ],
      "name": "ProductURIChanged",
      "type": "event"
    },
    {
      "anonymous": false,
      "inputs": [
        {
          "indexed": false,
          "internalType": "uint256",
          "name": "productIndex",
          "type": "uint256"
        },
        {
          "indexed": false,
          "internalType": "uint256",
          "name": "startingToken",
          "type": "uint256"
        },
        {
          "indexed": false,
          "internalType": "uint256",
          "name": "endingToken",
          "type": "uint256"
        },
        {
          "indexed": false,
          "internalType": "uint256",
          "name": "tokensLocked",
          "type": "uint256"
        },
        {
          "indexed": false,
          "internalType": "string",
          "name": "productName",
          "type": "string"
        },
        {
          "indexed": false,
          "internalType": "uint256",
          "name": "lockIndex",
          "type": "uint256"
        }
      ],
      "name": "RangeLocked",
      "type": "event"
    },
    {
      "anonymous": false,
      "inputs": [
        {
          "indexed": false,
          "internalType": "uint256",
          "name": "productID",
          "type": "uint256"
        },
        {
          "indexed": false,
          "internalType": "uint256",
          "name": "startingToken",
          "type": "uint256"
        },
        {
          "indexed": false,
          "internalType": "uint256",
          "name": "endingToken",
          "type": "uint256"
        }
      ],
      "name": "RangeUnlocked",
      "type": "event"
    },
    {
      "anonymous": false,
      "inputs": [
        {
          "indexed": true,
          "internalType": "bytes32",
          "name": "role",
          "type": "bytes32"
        },
        {
          "indexed": true,
          "internalType": "bytes32",
          "name": "previousAdminRole",
          "type": "bytes32"
        },
        {
          "indexed": true,
          "internalType": "bytes32",
          "name": "newAdminRole",
          "type": "bytes32"
        }
      ],
      "name": "RoleAdminChanged",
      "type": "event"
    },
    {
      "anonymous": false,
      "inputs": [
        {
          "indexed": true,
          "internalType": "bytes32",
          "name": "role",
          "type": "bytes32"
        },
        {
          "indexed": true,
          "internalType": "address",
          "name": "account",
          "type": "address"
        },
        {
          "indexed": true,
          "internalType": "address",
          "name": "sender",
          "type": "address"
        }
      ],
      "name": "RoleGranted",
      "type": "event"
    },
    {
      "anonymous": false,
      "inputs": [
        {
          "indexed": true,
          "internalType": "bytes32",
          "name": "role",
          "type": "bytes32"
        },
        {
          "indexed": true,
          "internalType": "address",
          "name": "account",
          "type": "address"
        },
        {
          "indexed": true,
          "internalType": "address",
          "name": "sender",
          "type": "address"
        }
      ],
      "name": "RoleRevoked",
      "type": "event"
    },
    {
      "anonymous": false,
      "inputs": [
        {
          "indexed": false,
          "internalType": "uint256",
          "name": "tokenId",
          "type": "uint256"
        },
        {
          "indexed": false,
          "internalType": "string",
          "name": "newURI",
          "type": "string"
        }
      ],
      "name": "TokenURIChanged",
      "type": "event"
    },
    {
      "anonymous": false,
      "inputs": [
        {
          "indexed": true,
          "internalType": "address",
          "name": "from",
          "type": "address"
        },
        {
          "indexed": true,
          "internalType": "address",
          "name": "to",
          "type": "address"
        },
        {
          "indexed": true,
          "internalType": "uint256",
          "name": "tokenId",
          "type": "uint256"
        }
      ],
      "name": "Transfer",
      "type": "event"
    },
    {
      "inputs": [],
      "name": "CREATOR",
      "outputs": [
        {
          "internalType": "bytes32",
          "name": "",
          "type": "bytes32"
        }
      ],
      "stateMutability": "view",
      "type": "function"
    },
    {
      "inputs": [],
      "name": "DEFAULT_ADMIN_ROLE",
      "outputs": [
        {
          "internalType": "bytes32",
          "name": "",
          "type": "bytes32"
        }
      ],
      "stateMutability": "view",
      "type": "function"
    },
    {
      "inputs": [],
      "name": "MINTER",
      "outputs": [
        {
          "internalType": "bytes32",
          "name": "",
          "type": "bytes32"
        }
      ],
      "stateMutability": "view",
      "type": "function"
    },
    {
      "inputs": [],
      "name": "TRADER",
      "outputs": [
        {
          "internalType": "bytes32",
          "name": "",
          "type": "bytes32"
        }
      ],
      "stateMutability": "view",
      "type": "function"
    },
    {
      "inputs": [
        {
          "internalType": "address",
          "name": "to",
          "type": "address"
        },
        {
          "internalType": "uint256",
          "name": "tokenId",
          "type": "uint256"
        }
      ],
      "name": "approve",
      "outputs": [],
      "stateMutability": "nonpayable",
      "type": "function"
    },
    {
      "inputs": [
        {
          "internalType": "address",
          "name": "owner",
          "type": "address"
        }
      ],
      "name": "balanceOf",
      "outputs": [
        {
          "internalType": "uint256",
          "name": "",
          "type": "uint256"
        }
      ],
      "stateMutability": "view",
      "type": "function"
    },
    {
      "inputs": [
        {
          "internalType": "uint256",
          "name": "productIndex",
          "type": "uint256"
        },
        {
          "internalType": "uint256",
          "name": "startingToken",
          "type": "uint256"
        },
        {
          "internalType": "uint256",
          "name": "endingToken",
          "type": "uint256"
        }
      ],
      "name": "canCreateLock",
      "outputs": [
        {
          "internalType": "bool",
          "name": "canCreate",
          "type": "bool"
        }
      ],
      "stateMutability": "view",
      "type": "function"
    },
    {
      "inputs": [],
      "name": "contractURI",
      "outputs": [
        {
          "internalType": "string",
          "name": "",
          "type": "string"
        }
      ],
      "stateMutability": "view",
      "type": "function"
    },
    {
      "inputs": [
        {
          "internalType": "string",
          "name": "_productName",
          "type": "string"
        },
        {
          "internalType": "uint256",
          "name": "_copies",
          "type": "uint256"
        }
      ],
      "name": "createProduct",
      "outputs": [],
      "stateMutability": "nonpayable",
      "type": "function"
    },
    {
      "inputs": [
        {
          "internalType": "uint256",
          "name": "productIndex",
          "type": "uint256"
        },
        {
          "internalType": "uint256",
          "name": "_startingToken",
          "type": "uint256"
        },
        {
          "internalType": "uint256",
          "name": "_endingToken",
          "type": "uint256"
        },
        {
          "internalType": "uint256",
          "name": "_lockedTokens",
          "type": "uint256"
        }
      ],
      "name": "createRangeLock",
      "outputs": [],
      "stateMutability": "nonpayable",
      "type": "function"
    },
    {
      "inputs": [
        {
          "internalType": "uint256",
          "name": "tokenId",
          "type": "uint256"
        }
      ],
      "name": "freezeMetadata",
      "outputs": [],
      "stateMutability": "nonpayable",
      "type": "function"
    },
    {
      "inputs": [
        {
          "internalType": "uint256",
          "name": "tokenId",
          "type": "uint256"
        }
      ],
      "name": "getApproved",
      "outputs": [
        {
          "internalType": "address",
          "name": "",
          "type": "address"
        }
      ],
      "stateMutability": "view",
      "type": "function"
    },
    {
      "inputs": [
        {
          "internalType": "uint256",
          "name": "index",
          "type": "uint256"
        }
      ],
      "name": "getLockedRange",
      "outputs": [
        {
          "internalType": "uint256",
          "name": "startingToken",
          "type": "uint256"
        },
        {
          "internalType": "uint256",
          "name": "endingToken",
          "type": "uint256"
        },
        {
          "internalType": "uint256",
          "name": "countToUnlock",
          "type": "uint256"
        },
        {
          "internalType": "uint256",
          "name": "productIndex",
          "type": "uint256"
        }
      ],
      "stateMutability": "view",
      "type": "function"
    },
    {
      "inputs": [
        {
          "internalType": "uint256",
          "name": "productID",
          "type": "uint256"
        },
        {
          "internalType": "uint256",
          "name": "startingIndex",
          "type": "uint256"
        },
        {
          "internalType": "uint256",
          "name": "endingIndex",
          "type": "uint256"
        }
      ],
      "name": "getNextSequentialIndex",
      "outputs": [
        {
          "internalType": "uint256",
          "name": "nextIndex",
          "type": "uint256"
        }
      ],
      "stateMutability": "view",
      "type": "function"
    },
    {
      "inputs": [
        {
          "internalType": "uint256",
          "name": "index",
          "type": "uint256"
        }
      ],
      "name": "getProduct",
      "outputs": [
        {
          "internalType": "uint256",
          "name": "startingToken",
          "type": "uint256"
        },
        {
          "internalType": "uint256",
          "name": "endingToken",
          "type": "uint256"
        },
        {
          "internalType": "uint256",
          "name": "mintableTokensLeft",
          "type": "uint256"
        },
        {
          "internalType": "string",
          "name": "productName",
          "type": "string"
        },
        {
          "internalType": "uint256[]",
          "name": "locks",
          "type": "uint256[]"
        }
      ],
      "stateMutability": "view",
      "type": "function"
    },
    {
      "inputs": [],
      "name": "getProductCount",
      "outputs": [
        {
          "internalType": "uint256",
          "name": "",
          "type": "uint256"
        }
      ],
      "stateMutability": "view",
      "type": "function"
    },
    {
      "inputs": [
        {
          "internalType": "bytes32",
          "name": "role",
          "type": "bytes32"
        }
      ],
      "name": "getRoleAdmin",
      "outputs": [
        {
          "internalType": "bytes32",
          "name": "",
          "type": "bytes32"
        }
      ],
      "stateMutability": "view",
      "type": "function"
    },
    {
      "inputs": [
        {
          "internalType": "bytes32",
          "name": "role",
          "type": "bytes32"
        },
        {
          "internalType": "uint256",
          "name": "index",
          "type": "uint256"
        }
      ],
      "name": "getRoleMember",
      "outputs": [
        {
          "internalType": "address",
          "name": "",
          "type": "address"
        }
      ],
      "stateMutability": "view",
      "type": "function"
    },
    {
      "inputs": [
        {
          "internalType": "bytes32",
          "name": "role",
          "type": "bytes32"
        }
      ],
      "name": "getRoleMemberCount",
      "outputs": [
        {
          "internalType": "uint256",
          "name": "",
          "type": "uint256"
        }
      ],
      "stateMutability": "view",
      "type": "function"
    },
    {
      "inputs": [
        {
          "internalType": "bytes32",
          "name": "role",
          "type": "bytes32"
        },
        {
          "internalType": "address",
          "name": "account",
          "type": "address"
        }
      ],
      "name": "grantRole",
      "outputs": [],
      "stateMutability": "nonpayable",
      "type": "function"
    },
    {
      "inputs": [
        {
          "internalType": "bytes32",
          "name": "role",
          "type": "bytes32"
        },
        {
          "internalType": "address",
          "name": "account",
          "type": "address"
        }
      ],
      "name": "hasRole",
      "outputs": [
        {
          "internalType": "bool",
          "name": "",
          "type": "bool"
        }
      ],
      "stateMutability": "view",
      "type": "function"
    },
    {
      "inputs": [
        {
          "internalType": "address",
          "name": "userAddress",
          "type": "address"
        },
        {
          "internalType": "uint256",
          "name": "productIndex",
          "type": "uint256"
        },
        {
          "internalType": "uint256",
          "name": "startingToken",
          "type": "uint256"
        },
        {
          "internalType": "uint256",
          "name": "endingToken",
          "type": "uint256"
        }
      ],
      "name": "hasTokenInProduct",
      "outputs": [
        {
          "internalType": "bool",
          "name": "",
          "type": "bool"
        }
      ],
      "stateMutability": "view",
      "type": "function"
    },
    {
      "inputs": [
        {
          "internalType": "address",
          "name": "owner",
          "type": "address"
        },
        {
          "internalType": "address",
          "name": "operator",
          "type": "address"
        }
      ],
      "name": "isApprovedForAll",
      "outputs": [
        {
          "internalType": "bool",
          "name": "",
          "type": "bool"
        }
      ],
      "stateMutability": "view",
      "type": "function"
    },
    {
      "inputs": [
        {
          "internalType": "uint256",
          "name": "_tokenId",
          "type": "uint256"
        }
      ],
      "name": "isTokenLocked",
      "outputs": [
        {
          "internalType": "bool",
          "name": "",
          "type": "bool"
        }
      ],
      "stateMutability": "view",
      "type": "function"
    },
    {
      "inputs": [
        {
          "internalType": "address",
          "name": "to",
          "type": "address"
        },
        {
          "internalType": "uint256",
          "name": "productId",
          "type": "uint256"
        },
        {
          "internalType": "uint256",
          "name": "indexInProduct",
          "type": "uint256"
        }
      ],
      "name": "mint",
      "outputs": [],
      "stateMutability": "nonpayable",
      "type": "function"
    },
    {
      "inputs": [],
      "name": "name",
      "outputs": [
        {
          "internalType": "string",
          "name": "",
          "type": "string"
        }
      ],
      "stateMutability": "view",
      "type": "function"
    },
    {
      "inputs": [
        {
          "internalType": "uint256",
          "name": "tokenId",
          "type": "uint256"
        }
      ],
      "name": "ownerOf",
      "outputs": [
        {
          "internalType": "address",
          "name": "",
          "type": "address"
        }
      ],
      "stateMutability": "view",
      "type": "function"
    },
    {
      "inputs": [
        {
          "internalType": "bytes32",
          "name": "role",
          "type": "bytes32"
        },
        {
          "internalType": "address",
          "name": "account",
          "type": "address"
        }
      ],
      "name": "renounceRole",
      "outputs": [],
      "stateMutability": "nonpayable",
      "type": "function"
    },
    {
      "inputs": [
        {
          "internalType": "bytes32",
          "name": "role",
          "type": "bytes32"
        },
        {
          "internalType": "address",
          "name": "account",
          "type": "address"
        }
      ],
      "name": "revokeRole",
      "outputs": [],
      "stateMutability": "nonpayable",
      "type": "function"
    },
    {
      "inputs": [
        {
          "internalType": "uint256",
          "name": "_tokenId",
          "type": "uint256"
        },
        {
          "internalType": "uint256",
          "name": "_salePrice",
          "type": "uint256"
        }
      ],
      "name": "royaltyInfo",
      "outputs": [
        {
          "internalType": "address",
          "name": "receiver",
          "type": "address"
        },
        {
          "internalType": "uint256",
          "name": "royaltyAmount",
          "type": "uint256"
        }
      ],
      "stateMutability": "view",
      "type": "function"
    },
    {
      "inputs": [
        {
          "internalType": "address",
          "name": "from",
          "type": "address"
        },
        {
          "internalType": "address",
          "name": "to",
          "type": "address"
        },
        {
          "internalType": "uint256",
          "name": "tokenId",
          "type": "uint256"
        }
      ],
      "name": "safeTransferFrom",
      "outputs": [],
      "stateMutability": "nonpayable",
      "type": "function"
    },
    {
      "inputs": [
        {
          "internalType": "address",
          "name": "from",
          "type": "address"
        },
        {
          "internalType": "address",
          "name": "to",
          "type": "address"
        },
        {
          "internalType": "uint256",
          "name": "tokenId",
          "type": "uint256"
        },
        {
          "internalType": "bytes",
          "name": "_data",
          "type": "bytes"
        }
      ],
      "name": "safeTransferFrom",
      "outputs": [],
      "stateMutability": "nonpayable",
      "type": "function"
    },
    {
      "inputs": [
        {
          "internalType": "address",
          "name": "operator",
          "type": "address"
        },
        {
          "internalType": "bool",
          "name": "approved",
          "type": "bool"
        }
      ],
      "name": "setApprovalForAll",
      "outputs": [],
      "stateMutability": "nonpayable",
      "type": "function"
    },
    {
      "inputs": [
        {
          "internalType": "string",
          "name": "newURI",
          "type": "string"
        }
      ],
      "name": "setBaseURI",
      "outputs": [],
      "stateMutability": "nonpayable",
      "type": "function"
    },
    {
      "inputs": [
        {
          "internalType": "string",
          "name": "newURI",
          "type": "string"
        }
      ],
      "name": "setContractURI",
      "outputs": [],
      "stateMutability": "nonpayable",
      "type": "function"
    },
    {
      "inputs": [
        {
          "internalType": "uint256",
          "name": "productId",
          "type": "uint256"
        },
        {
          "internalType": "string",
          "name": "newURI",
          "type": "string"
        }
      ],
      "name": "setProductURI",
      "outputs": [],
      "stateMutability": "nonpayable",
      "type": "function"
    },
    {
      "inputs": [
        {
          "internalType": "uint256",
          "name": "tokenId",
          "type": "uint256"
        },
        {
          "internalType": "string",
          "name": "newURI",
          "type": "string"
        }
      ],
      "name": "setUniqueURI",
      "outputs": [],
      "stateMutability": "nonpayable",
      "type": "function"
    },
    {
      "inputs": [
        {
          "internalType": "uint256[]",
          "name": "tokenIds",
          "type": "uint256[]"
        },
        {
          "internalType": "string[]",
          "name": "newURIs",
          "type": "string[]"
        }
      ],
      "name": "setUniqueURIBatch",
      "outputs": [],
      "stateMutability": "nonpayable",
      "type": "function"
    },
    {
      "inputs": [
        {
          "internalType": "bytes4",
          "name": "interfaceId",
          "type": "bytes4"
        }
      ],
      "name": "supportsInterface",
      "outputs": [
        {
          "internalType": "bool",
          "name": "",
          "type": "bool"
        }
      ],
      "stateMutability": "view",
      "type": "function"
    },
    {
      "inputs": [],
      "name": "symbol",
      "outputs": [
        {
          "internalType": "string",
          "name": "",
          "type": "string"
        }
      ],
      "stateMutability": "view",
      "type": "function"
    },
    {
      "inputs": [
        {
          "internalType": "uint256",
          "name": "index",
          "type": "uint256"
        }
      ],
      "name": "tokenByIndex",
      "outputs": [
        {
          "internalType": "uint256",
          "name": "",
          "type": "uint256"
        }
      ],
      "stateMutability": "view",
      "type": "function"
    },
    {
      "inputs": [
        {
          "internalType": "uint256",
          "name": "productIndex",
          "type": "uint256"
        }
      ],
      "name": "tokenCountByProduct",
      "outputs": [
        {
          "internalType": "uint256",
          "name": "",
          "type": "uint256"
        }
      ],
      "stateMutability": "view",
      "type": "function"
    },
    {
      "inputs": [
        {
          "internalType": "address",
          "name": "owner",
          "type": "address"
        },
        {
          "internalType": "uint256",
          "name": "index",
          "type": "uint256"
        }
      ],
      "name": "tokenOfOwnerByIndex",
      "outputs": [
        {
          "internalType": "uint256",
          "name": "",
          "type": "uint256"
        }
      ],
      "stateMutability": "view",
      "type": "function"
    },
    {
      "inputs": [
        {
          "internalType": "uint256",
          "name": "",
          "type": "uint256"
        }
      ],
      "name": "tokenToProduct",
      "outputs": [
        {
          "internalType": "uint256",
          "name": "",
          "type": "uint256"
        }
      ],
      "stateMutability": "view",
      "type": "function"
    },
    {
      "inputs": [
        {
          "internalType": "uint256",
          "name": "token",
          "type": "uint256"
        }
      ],
      "name": "tokenToProductIndex",
      "outputs": [
        {
          "internalType": "uint256",
          "name": "tokenIndex",
          "type": "uint256"
        }
      ],
      "stateMutability": "view",
      "type": "function"
    },
    {
      "inputs": [
        {
          "internalType": "uint256",
          "name": "tokenId",
          "type": "uint256"
        }
      ],
      "name": "tokenURI",
      "outputs": [
        {
          "internalType": "string",
          "name": "",
          "type": "string"
        }
      ],
      "stateMutability": "view",
      "type": "function"
    },
    {
      "inputs": [
        {
          "internalType": "uint256",
          "name": "",
          "type": "uint256"
        },
        {
          "internalType": "uint256",
          "name": "",
          "type": "uint256"
        }
      ],
      "name": "tokensByProduct",
      "outputs": [
        {
          "internalType": "uint256",
          "name": "",
          "type": "uint256"
        }
      ],
      "stateMutability": "view",
      "type": "function"
    },
    {
      "inputs": [],
      "name": "totalSupply",
      "outputs": [
        {
          "internalType": "uint256",
          "name": "",
          "type": "uint256"
        }
      ],
      "stateMutability": "view",
      "type": "function"
    },
    {
      "inputs": [
        {
          "internalType": "address",
          "name": "from",
          "type": "address"
        },
        {
          "internalType": "address",
          "name": "to",
          "type": "address"
        },
        {
          "internalType": "uint256",
          "name": "tokenId",
          "type": "uint256"
        }
      ],
      "name": "transferFrom",
      "outputs": [],
      "stateMutability": "nonpayable",
      "type": "function"
    }
  ],
  "bytecode": "0x60806040523480156200001157600080fd5b506040516200484f3803806200484f8339810160408190526200003491620003f7565b82604051806040016040528060048152602001632920a4a960e11b81525081600090805190602001906200006a9291906200030b565b508051620000809060019060208401906200030b565b5050601580546001600160b01b0319163361ffff60a01b191617600160a01b61ffff85160217905550620000d36000805160206200480f833981519152600080516020620047ef83398151915262000157565b620000fd6000805160206200482f833981519152600080516020620047ef83398151915262000157565b62000118600080516020620047ef83398151915283620001a2565b620001336000805160206200480f83398151915283620001a2565b6200014e6000805160206200482f83398151915283620001a2565b50505062000537565b6000828152600a6020526040808220600101805490849055905190918391839186917fbd79b86ffe0ab8e8776151514217cd7cacd52c909f66475c3af44e129f0b00ff9190a4505050565b620001b98282620001e560201b620025081760201c565b6000828152600b60209081526040909120620001e091839062002516620001f5821b17901c565b505050565b620001f1828262000215565b5050565b60006200020c836001600160a01b038416620002b9565b90505b92915050565b6000828152600a602090815260408083206001600160a01b038516845290915290205460ff16620001f1576000828152600a602090815260408083206001600160a01b03851684529091529020805460ff19166001179055620002753390565b6001600160a01b0316816001600160a01b0316837f2f8788117e7eff1d82e926ec794901d17c78024a50270940304540a733656f0d60405160405180910390a45050565b600081815260018301602052604081205462000302575081546001818101845560008481526020808220909301849055845484825282860190935260409020919091556200020f565b5060006200020f565b8280546200031990620004fa565b90600052602060002090601f0160209004810192826200033d576000855562000388565b82601f106200035857805160ff191683800117855562000388565b8280016001018555821562000388579182015b82811115620003885782518255916020019190600101906200036b565b50620003969291506200039a565b5090565b5b808211156200039657600081556001016200039b565b634e487b7160e01b600052604160045260246000fd5b80516001600160a01b0381168114620003df57600080fd5b919050565b805161ffff81168114620003df57600080fd5b6000806000606084860312156200040d57600080fd5b83516001600160401b03808211156200042557600080fd5b818601915086601f8301126200043a57600080fd5b8151818111156200044f576200044f620003b1565b604051601f8201601f19908116603f011681019083821181831017156200047a576200047a620003b1565b816040528281526020935089848487010111156200049757600080fd5b600091505b82821015620004bb57848201840151818301850152908301906200049c565b82821115620004cd5760008484830101525b9650620004df915050868201620003c7565b93505050620004f160408501620003e4565b90509250925092565b600181811c908216806200050f57607f821691505b602082108114156200053157634e487b7160e01b600052602260045260246000fd5b50919050565b6142a880620005476000396000f3fe608060405234801561001057600080fd5b50600436106102bb5760003560e01c80636352211e11610182578063bda5ec33116100e9578063d547741f116100a2578063e8a3d4851161007c578063e8a3d485146106ba578063e9300c6c146106c2578063e985e9c5146106d5578063fe6d8124146106e857600080fd5b8063d547741f14610672578063d76bf56614610685578063e4fbb609146106a557600080fd5b8063bda5ec3314610600578063c00b83c514610613578063c1d78b4a14610626578063c87b56dd14610639578063ca15c8731461064c578063d403bf861461065f57600080fd5b8063938e3d7b1161013b578063938e3d7b1461059357806395d89b41146105a6578063a217fddf146105ae578063a22cb465146105b6578063b88d4fde146105c9578063b9db15b4146105dc57600080fd5b80636352211e146105015780636c99dcbf1461051457806370a0823114610527578063876654a01461053a5780639010d07c1461056d57806391d148541461058057600080fd5b8063248a9ca3116102265780633d42f206116101df5780633d42f2061461049a57806342842e0e146104ad5780634a348da9146104c05780634dcf6ad6146104c85780634f6ccce7146104db57806355f804b3146104ee57600080fd5b8063248a9ca3146103f9578063276a28a31461041c5780632a55205a1461042f5780632f2ff15d146104615780632f745c591461047457806336568abe1461048757600080fd5b806315a182411161027857806315a182411461037e578063175c4ef81461039157806318160ddd146103b85780631c899d1a146103c057806323b872dd146103d357806324704bd7146103e657600080fd5b806301ffc9a7146102c05780630301e1e2146102e857806306fdde0314610316578063081812fc1461032b578063095ea7b314610356578063156e29f61461036b575b600080fd5b6102d36102ce36600461376f565b61070f565b60405190151581526020015b60405180910390f35b6103086102f636600461378c565b6000908152600c602052604090205490565b6040519081526020016102df565b61031e61073a565b6040516102df91906137fd565b61033e61033936600461378c565b6107cc565b6040516001600160a01b0390911681526020016102df565b61036961036436600461382c565b610866565b005b610369610379366004613856565b61097c565b61036961038c366004613889565b610cf9565b6103087f872340a532bdd7bb02bea115c1b0f1ba87eac982f5b79b51ac189ffaac1b6fce81565b600854610308565b6103696103ce3660046138fd565b611015565b6103696103e1366004613949565b611089565b6103086103f4366004613985565b6110ba565b61030861040736600461378c565b6000908152600a602052604090206001015490565b6102d361042a36600461378c565b6110eb565b61044261043d366004613985565b611171565b604080516001600160a01b0390931683526020830191909152016102df565b61036961046f3660046139a7565b6111c0565b61030861048236600461382c565b6111e2565b6103696104953660046139a7565b611278565b6102d36104a83660046139d3565b61129a565b6103696104bb366004613949565b6114a0565b601454610308565b6103696104d636600461378c565b6114bb565b6103086104e936600461378c565b611518565b6103696104fc3660046139ff565b6115ab565b61033e61050f36600461378c565b61160f565b6102d3610522366004613a41565b611686565b610308610535366004613a7a565b611862565b61054d61054836600461378c565b6118e9565b6040805194855260208501939093529183015260608201526080016102df565b61033e61057b366004613985565b611ac0565b6102d361058e3660046139a7565b611ad8565b6103696105a13660046139ff565b611b03565b61031e611b5a565b610308600081565b6103696105c4366004613a95565b611b69565b6103696105d7366004613b5d565b611c2e565b6105ef6105ea36600461378c565b611c66565b6040516102df959493929190613bd9565b61030861060e3660046139d3565b611dcf565b61030861062136600461378c565b612010565b610369610634366004613c87565b612051565b61031e61064736600461378c565b612144565b61030861065a36600461378c565b6122e5565b61036961066d3660046138fd565b6122fc565b6103696106803660046139a7565b612362565b61030861069336600461378c565b600d6020526000908152604090205481565b61030860008051602061425383398151915281565b61031e61236c565b6103696106d0366004613cf3565b61237b565b6102d36106e3366004613d4c565b6124a8565b6103087ff0887ba65ee2024ea881d91b74c2450ef19e1557f03bed3ea9f16b037cbe2dc981565b60006001600160e01b03198216632baae9fd60e01b148061073457506107348261252b565b92915050565b60606000805461074990613d76565b80601f016020809104026020016040519081016040528092919081815260200182805461077590613d76565b80156107c25780601f10610797576101008083540402835291602001916107c2565b820191906000526020600020905b8154815290600101906020018083116107a557829003601f168201915b5050505050905090565b6000818152600260205260408120546001600160a01b031661084a5760405162461bcd60e51b815260206004820152602c60248201527f4552433732313a20617070726f76656420717565727920666f72206e6f6e657860448201526b34b9ba32b73a103a37b5b2b760a11b60648201526084015b60405180910390fd5b506000908152600460205260409020546001600160a01b031690565b60006108718261160f565b9050806001600160a01b0316836001600160a01b031614156108df5760405162461bcd60e51b815260206004820152602160248201527f4552433732313a20617070726f76616c20746f2063757272656e74206f776e656044820152603960f91b6064820152608401610841565b336001600160a01b03821614806108fb57506108fb81336124a8565b61096d5760405162461bcd60e51b815260206004820152603860248201527f4552433732313a20617070726f76652063616c6c6572206973206e6f74206f7760448201527f6e6572206e6f7220617070726f76656420666f7220616c6c00000000000000006064820152608401610841565b6109778383612550565b505050565b7ff0887ba65ee2024ea881d91b74c2450ef19e1557f03bed3ea9f16b037cbe2dc96109a781336125be565b601454839081106109ca5760405162461bcd60e51b815260040161084190613db1565b6000601485815481106109df576109df613df4565b9060005260206000209060050201905080600001548160010154610a039190613e20565b841115610a525760405162461bcd60e51b815260206004820181905260248201527f52414952204552433732313a20496e76616c696420746f6b656e20696e6465786044820152606401610841565b610a6b86858360000154610a669190613e37565b612622565b6000858152600c602052604090208154610a86908690613e37565b8154600181018355600092835260208320015581548691600d91610aab908890613e37565b815260200190815260200160002081905550806002016000815480929190610ad290613e4f565b9091555060009050805b6004830154811015610caa578254610af5908790613e37565b6013846004018381548110610b0c57610b0c613df4565b906000526020600020015481548110610b2757610b27613df4565b90600052602060002090600402016000015411158015610b9657508254610b4f908790613e37565b6013846004018381548110610b6657610b66613df4565b906000526020600020015481548110610b8157610b81613df4565b90600052602060002090600402016001015410155b15610c98576013836004018281548110610bb257610bb2613df4565b906000526020600020015481548110610bcd57610bcd613df4565b90600052602060002090600402019150826004018181548110610bf257610bf2613df4565b9060005260206000200154600e6000888660000154610c119190613e37565b8152602081019190915260400160002055600282015415610c9357600282018054906000610c3e83613e4f565b90915550506002820154610c935781546001830154604080518a815260208101939093528201527fd3edbeb94dfb8eadcd8c291774b9ac3cc9b06af829273e295bf3197849934b889060600160405180910390a15b610caa565b80610ca281613e66565b915050610adc565b506002820154610cf057857f7118e1ae63262db55027a75ee525791f482e7fdf6c2ccb6c11528bf1652780e183600301604051610ce79190613f21565b60405180910390a25b50505050505050565b600080516020614253833981519152610d1281336125be565b60145485908110610d355760405162461bcd60e51b815260040161084190613db1565b600060148781548110610d4a57610d4a613df4565b906000526020600020906005020190508060010154858260000154610d6f9190613e37565b1115610dc75760405162461bcd60e51b815260206004820152602160248201527f52414952204552433732313a20496e76616c696420656e64696e6720746f6b656044820152603760f91b6064820152608401610841565b80546001820154610dd89190613e20565b610de28787613e20565b1115610e3a5760405162461bcd60e51b815260206004820152602160248201527f52414952204552433732313a20496e76616c696420746f6b656e206c696d69746044820152607360f81b6064820152608401610841565b83610e458787613e20565b610e50906001613e37565b1015610eb45760405162461bcd60e51b815260206004820152602d60248201527f52414952204552433732313a20496e76616c6964206e756d626572206f66207460448201526c6f6b656e7320746f206c6f636b60981b6064820152608401610841565b610ebf87878761129a565b610f0b5760405162461bcd60e51b815260206004820152601f60248201527f52414952204552433732313a2043616e6e6f7420637265617465206c6f636b006044820152606401610841565b60138054600181018255600091909152815460049091027f66de8ffda797e3de9c05e8fc57b3bf0ec28a930d40b0d285d93c06501cf6a0900190610f50908890613e37565b81558154610f5f908790613e37565b60018083019190915560028201869055600382018990556013546004840191610f8791613e20565b8154600181018355600092835260209092209091015581547f31677189d834d986e226e646cd121f117815e9bf4992c19728ca028f2ee542e6908990610fce908a90613e37565b8454610fdb908a90613e37565b60135489906003880190610ff190600190613e20565b60405161100396959493929190613f34565b60405180910390a15050505050505050565b60008051602061425383398151915261102e81336125be565b6000848152601060205260409020611047908484613649565b507f483621391b5e72d74eb03c7b5715531c486e326fb115ab3bcf34b133041854ce84848460405161107b93929190613f9b565b60405180910390a150505050565b611093338261263c565b6110af5760405162461bcd60e51b815260040161084190613fbe565b61097783838361270b565b600c60205281600052604060002081815481106110d657600080fd5b90600052602060002001600091509150505481565b6000818152600d6020908152604080832054600e90925282205460138054909190811061111a5761111a613df4565b90600052602060002090600402016003015414801561073457506000828152600e602052604081205460138054909190811061115857611158613df4565b9060005260206000209060040201600201541192915050565b60008061118d6000805160206142538339815191526000611ac0565b601554620186a0906111aa90600160a01b900461ffff168661400f565b6111b49190614044565b915091505b9250929050565b6111ca82826128b6565b6000828152600b602052604090206109779082612516565b60006111ed83611862565b821061124f5760405162461bcd60e51b815260206004820152602b60248201527f455243373231456e756d657261626c653a206f776e657220696e646578206f7560448201526a74206f6620626f756e647360a81b6064820152608401610841565b506001600160a01b03919091166000908152600660209081526040808320938352929052205490565b61128282826128dc565b6000828152600b602052604090206109779082612956565b600080601485815481106112b0576112b0613df4565b90600052602060002090600502019050806000015481600101546112d49190613e20565b8411806112f05750805460018201546112ed9190613e20565b83115b156112ff576000915050611499565b60005b600482015481101561149257815461131b908690613e37565b601383600401838154811061133257611332613df4565b90600052602060002001548154811061134d5761134d613df4565b906000526020600020906004020160000154111580156113bc57508154611375908690613e37565b601383600401838154811061138c5761138c613df4565b9060005260206000200154815481106113a7576113a7613df4565b90600052602060002090600402016001015410155b80611470575081546113cf908590613e37565b60138360040183815481106113e6576113e6613df4565b90600052602060002001548154811061140157611401613df4565b9060005260206000209060040201600001541115801561147057508154611429908590613e37565b601383600401838154811061144057611440613df4565b90600052602060002001548154811061145b5761145b613df4565b90600052602060002090600402016001015410155b1561148057600092505050611499565b8061148a81613e66565b915050611302565b5060019150505b9392505050565b61097783838360405180602001604052806000815250611c2e565b6000805160206142538339815191526114d481336125be565b817fa109ba539900bf1b633f956d63c96fc89b814c7287f7aa50a9216d0b556572076114ff84612144565b60405161150c91906137fd565b60405180910390a25050565b600061152360085490565b82106115865760405162461bcd60e51b815260206004820152602c60248201527f455243373231456e756d657261626c653a20676c6f62616c20696e646578206f60448201526b7574206f6620626f756e647360a01b6064820152608401610841565b6008828154811061159957611599613df4565b90600052602060002001549050919050565b6000805160206142538339815191526115c481336125be565b6115d0600f8484613649565b507f5411e8ebf1636d9e83d5fc4900bf80cbac82e8790da2a4c94db4895e889eedf68383604051611602929190614058565b60405180910390a1505050565b6000818152600260205260408120546001600160a01b0316806107345760405162461bcd60e51b815260206004820152602960248201527f4552433732313a206f776e657220717565727920666f72206e6f6e657869737460448201526832b73a103a37b5b2b760b91b6064820152608401610841565b6000806014858154811061169c5761169c613df4565b90600052602060002090600502016040518060a00160405290816000820154815260200160018201548152602001600282015481526020016003820180546116e390613d76565b80601f016020809104026020016040519081016040528092919081815260200182805461170f90613d76565b801561175c5780601f106117315761010080835404028352916020019161175c565b820191906000526020600020905b81548152906001019060200180831161173f57829003601f168201915b50505050508152602001600482018054806020026020016040519081016040528092919081815260200182805480156117b457602002820191906000526020600020905b8154815260200190600101908083116117a0575b505050505081525050905080602001516000146118545760005b6117d787611862565b8110156118525760006117ea88836111e2565b6000818152600d60205260409020549091508714801561181657508251611812908790613e37565b8110155b801561182e5750825161182a908690613e37565b8111155b1561183f576001935050505061185a565b508061184a81613e66565b9150506117ce565b505b60009150505b949350505050565b60006001600160a01b0382166118cd5760405162461bcd60e51b815260206004820152602a60248201527f4552433732313a2062616c616e636520717565727920666f7220746865207a65604482015269726f206164647265737360b01b6064820152608401610841565b506001600160a01b031660009081526003602052604090205490565b60008060008060006013868154811061190457611904613df4565b906000526020600020906004020160405180608001604052908160008201548152602001600182015481526020016002820154815260200160038201548152505090506000601482606001518154811061196057611960613df4565b90600052602060002090600502016040518060a00160405290816000820154815260200160018201548152602001600282015481526020016003820180546119a790613d76565b80601f01602080910402602001604051908101604052809291908181526020018280546119d390613d76565b8015611a205780601f106119f557610100808354040283529160200191611a20565b820191906000526020600020905b815481529060010190602001808311611a0357829003601f168201915b5050505050815260200160048201805480602002602001604051908101604052809291908181526020018280548015611a7857602002820191906000526020600020905b815481526020019060010190808311611a64575b50505091909252505081518451929350611a9492909150613e20565b81516020840151611aa59190613e20565b83604001518460600151955095509550955050509193509193565b6000828152600b60205260408120611499908361296b565b6000918252600a602090815260408084206001600160a01b0393909316845291905290205460ff1690565b600080516020614253833981519152611b1c81336125be565b611b2860128484613649565b507fd5ee5eaf65263bab5d569890714d123ad48a9e54409d35e71d374f3dd300bba08383604051611602929190614058565b60606001805461074990613d76565b6001600160a01b038216331415611bc25760405162461bcd60e51b815260206004820152601960248201527f4552433732313a20617070726f766520746f2063616c6c6572000000000000006044820152606401610841565b3360008181526005602090815260408083206001600160a01b03871680855290835292819020805460ff191686151590811790915590519081529192917f17307eab39ab6107e8899845ad3d59bd9653f200f220920489ca2b5937696c31910160405180910390a35050565b611c38338361263c565b611c545760405162461bcd60e51b815260040161084190613fbe565b611c6084848484612977565b50505050565b6000806000606080600060148781548110611c8357611c83613df4565b90600052602060002090600502016040518060a0016040529081600082015481526020016001820154815260200160028201548152602001600382018054611cca90613d76565b80601f0160208091040260200160405190810160405280929190818152602001828054611cf690613d76565b8015611d435780601f10611d1857610100808354040283529160200191611d43565b820191906000526020600020905b815481529060010190602001808311611d2657829003601f168201915b5050505050815260200160048201805480602002602001604051908101604052809291908181526020018280548015611d9b57602002820191906000526020600020905b815481526020019060010190808311611d87575b5050509190925250508151602083015160408401516060850151608090950151929c919b5099509297509550909350505050565b6000838060148054905011611df65760405162461bcd60e51b815260040161084190613db1565b600060148681548110611e0b57611e0b613df4565b90600052602060002090600502016040518060a0016040529081600082015481526020016001820154815260200160028201548152602001600382018054611e5290613d76565b80601f0160208091040260200160405190810160405280929190818152602001828054611e7e90613d76565b8015611ecb5780601f10611ea057610100808354040283529160200191611ecb565b820191906000526020600020905b815481529060010190602001808311611eae57829003601f168201915b5050505050815260200160048201805480602002602001604051908101604052809291908181526020018280548015611f2357602002820191906000526020600020905b815481526020019060010190808311611f0f575b50505050508152505090506000858260000151611f409190613e37565b90505b8151611f50908690613e37565b8111611f99576000818152600260205260409020546001600160a01b0316611f87578151611f7e9082613e20565b93505050612008565b80611f9181613e66565b915050611f43565b5060405162461bcd60e51b815260206004820152603960248201527f52414952204552433732313a20546865726520617265206e6f20617661696c6160448201527f626c6520746f6b656e7320696e20746869732072616e67652e000000000000006064820152608401610841565b509392505050565b6000818152600d602052604081205460148054909190811061203457612034613df4565b906000526020600020906005020160000154826107349190613e20565b60008051602061425383398151915261206a81336125be565b8382146120df5760405162461bcd60e51b815260206004820152603b60248201527f52414952204552433732313a20546f6b656e2049447320616e6420555249732060448201527f73686f756c642068617665207468652073616d65206c656e67746800000000006064820152608401610841565b60005b8481101561213c5761212a8686838181106120ff576120ff613df4565b9050602002013585858481811061211857612118613df4565b90506020028101906103ce919061406c565b8061213481613e66565b9150506120e2565b505050505050565b60008181526010602052604081208054606092919061216290613d76565b80601f016020809104026020016040519081016040528092919081815260200182805461218e90613d76565b80156121db5780601f106121b0576101008083540402835291602001916121db565b820191906000526020600020905b8154815290600101906020018083116121be57829003601f168201915b505050505090506000815111156121f25792915050565b6000838152600d6020908152604080832054835260119091529020805461221890613d76565b80601f016020809104026020016040519081016040528092919081815260200182805461224490613d76565b80156122915780601f1061226657610100808354040283529160200191612291565b820191906000526020600020905b81548152906001019060200180831161227457829003601f168201915b505050505090506000815111156122dc57806122b46122af85612010565b6129aa565b6040516020016122c59291906140b3565b604051602081830303815290604052915050919050565b61149983612aa8565b6000818152600b6020526040812061073490612b5b565b60008051602061425383398151915261231581336125be565b600084815260116020526040902061232e908484613649565b507f658b273d88cb66d5790b2e0cb1510b48ab78d39cba1c9cad2df51068c42c607c84848460405161107b93929190613f9b565b6112828282612b65565b60606012805461074990613d76565b60008051602061425383398151915261239481336125be565b601454600090156123e257601480546123af90600190613e20565b815481106123bf576123bf613df4565b90600052602060002090600502016001015460016123dd9190613e37565b6123e5565b60005b60148054600181810183556000929092526005027fce6d7b5282bd9a3661ae061feed1dbda4e52ab073b1f9285be6e155d9c38d4ec0182815591925061242b8584613e37565b6124359190613e20565b6001820155845161244f90600383019060208801906136cd565b506002810184905560145461246690600190613e20565b7f8d3d82130aebba03bb48b5d158bc2bbb4647856765b1089e7250507307965af9868487604051612499939291906140e2565b60405180910390a25050505050565b60006124d47f872340a532bdd7bb02bea115c1b0f1ba87eac982f5b79b51ac189ffaac1b6fce83611ad8565b8061149957506001600160a01b0380841660009081526005602090815260408083209386168352929052205460ff16611499565b6125128282612b8b565b5050565b6000611499836001600160a01b038416612c11565b60006001600160e01b03198216635a05180f60e01b1480610734575061073482612c60565b600081815260046020526040902080546001600160a01b0319166001600160a01b03841690811790915581906125858261160f565b6001600160a01b03167f8c5be1e5ebec7d5bd14f71427d1e84f3dd0314c0f7b2291e5b200ac8c7c3b92560405160405180910390a45050565b6125c88282611ad8565b612512576125e0816001600160a01b03166014612c85565b6125eb836020612c85565b6040516020016125fc929190614107565b60408051601f198184030181529082905262461bcd60e51b8252610841916004016137fd565b612512828260405180602001604052806000815250612e21565b6000818152600260205260408120546001600160a01b03166126b55760405162461bcd60e51b815260206004820152602c60248201527f4552433732313a206f70657261746f7220717565727920666f72206e6f6e657860448201526b34b9ba32b73a103a37b5b2b760a11b6064820152608401610841565b60006126c08361160f565b9050806001600160a01b0316846001600160a01b031614806126fb5750836001600160a01b03166126f0846107cc565b6001600160a01b0316145b8061185a575061185a81856124a8565b826001600160a01b031661271e8261160f565b6001600160a01b0316146127865760405162461bcd60e51b815260206004820152602960248201527f4552433732313a207472616e73666572206f6620746f6b656e2074686174206960448201526839903737ba1037bbb760b91b6064820152608401610841565b6001600160a01b0382166127e85760405162461bcd60e51b8152602060048201526024808201527f4552433732313a207472616e7366657220746f20746865207a65726f206164646044820152637265737360e01b6064820152608401610841565b6127f3838383612e54565b6127fe600082612550565b6001600160a01b0383166000908152600360205260408120805460019290612827908490613e20565b90915550506001600160a01b0382166000908152600360205260408120805460019290612855908490613e37565b909155505060008181526002602052604080822080546001600160a01b0319166001600160a01b0386811691821790925591518493918716917fddf252ad1be2c89b69c2b068fc378daa952ba7f163c4a11628f55a4df523b3ef91a4505050565b6000828152600a60205260409020600101546128d281336125be565b6109778383612b8b565b6001600160a01b038116331461294c5760405162461bcd60e51b815260206004820152602f60248201527f416363657373436f6e74726f6c3a2063616e206f6e6c792072656e6f756e636560448201526e103937b632b9903337b91039b2b63360891b6064820152608401610841565b6125128282612fa1565b6000611499836001600160a01b038416613008565b600061149983836130fb565b61298284848461270b565b61298e84848484613125565b611c605760405162461bcd60e51b81526004016108419061417c565b6060816129ce5750506040805180820190915260018152600360fc1b602082015290565b8160005b81156129f857806129e281613e66565b91506129f19050600a83614044565b91506129d2565b60008167ffffffffffffffff811115612a1357612a13613ad1565b6040519080825280601f01601f191660200182016040528015612a3d576020820181803683370190505b5090505b841561185a57612a52600183613e20565b9150612a5f600a866141ce565b612a6a906030613e37565b60f81b818381518110612a7f57612a7f613df4565b60200101906001600160f81b031916908160001a905350612aa1600a86614044565b9450612a41565b6000818152600260205260409020546060906001600160a01b0316612b275760405162461bcd60e51b815260206004820152602f60248201527f4552433732314d657461646174613a2055524920717565727920666f72206e6f60448201526e3732bc34b9ba32b73a103a37b5b2b760891b6064820152608401610841565b6000612b3161322f565b90506000815111612b515760405180602001604052806000815250611499565b806122b4846129aa565b6000610734825490565b6000828152600a6020526040902060010154612b8181336125be565b6109778383612fa1565b612b958282611ad8565b612512576000828152600a602090815260408083206001600160a01b03851684529091529020805460ff19166001179055612bcd3390565b6001600160a01b0316816001600160a01b0316837f2f8788117e7eff1d82e926ec794901d17c78024a50270940304540a733656f0d60405160405180910390a45050565b6000818152600183016020526040812054612c5857508154600181810184556000848152602080822090930184905584548482528286019093526040902091909155610734565b506000610734565b60006001600160e01b03198216637965db0b60e01b148061073457506107348261323e565b60606000612c9483600261400f565b612c9f906002613e37565b67ffffffffffffffff811115612cb757612cb7613ad1565b6040519080825280601f01601f191660200182016040528015612ce1576020820181803683370190505b509050600360fc1b81600081518110612cfc57612cfc613df4565b60200101906001600160f81b031916908160001a905350600f60fb1b81600181518110612d2b57612d2b613df4565b60200101906001600160f81b031916908160001a9053506000612d4f84600261400f565b612d5a906001613e37565b90505b6001811115612dd2576f181899199a1a9b1b9c1cb0b131b232b360811b85600f1660108110612d8e57612d8e613df4565b1a60f81b828281518110612da457612da4613df4565b60200101906001600160f81b031916908160001a90535060049490941c93612dcb81613e4f565b9050612d5d565b5083156114995760405162461bcd60e51b815260206004820181905260248201527f537472696e67733a20686578206c656e67746820696e73756666696369656e746044820152606401610841565b612e2b8383613263565b612e386000848484613125565b6109775760405162461bcd60e51b81526004016108419061417c565b6001600160a01b03831615801590612e7457506001600160a01b03821615155b15612f96576000818152600d6020908152604080832054600e90925290912054601380549091908110612ea957612ea9613df4565b9060005260206000209060040201600301541415612f6c576000818152600e6020526040902054601380549091908110612ee557612ee5613df4565b906000526020600020906004020160020154600014612f6c5760405162461bcd60e51b815260206004820152603a60248201527f52414952204552433732313a205472616e736665727320666f7220746869732060448201527f72616e6765206172652063757272656e746c79206c6f636b65640000000000006064820152608401610841565b612f967f872340a532bdd7bb02bea115c1b0f1ba87eac982f5b79b51ac189ffaac1b6fce336125be565b6109778383836133b1565b612fab8282611ad8565b15612512576000828152600a602090815260408083206001600160a01b0385168085529252808320805460ff1916905551339285917ff6391f5c32d9c69d2a47ea670b442974b53935d1edc7fd64eb21e047a839171b9190a45050565b600081815260018301602052604081205480156130f157600061302c600183613e20565b855490915060009061304090600190613e20565b90508181146130a557600086600001828154811061306057613060613df4565b906000526020600020015490508087600001848154811061308357613083613df4565b6000918252602080832090910192909255918252600188019052604090208390555b85548690806130b6576130b66141e2565b600190038181906000526020600020016000905590558560010160008681526020019081526020016000206000905560019350505050610734565b6000915050610734565b600082600001828154811061311257613112613df4565b9060005260206000200154905092915050565b60006001600160a01b0384163b1561322757604051630a85bd0160e11b81526001600160a01b0385169063150b7a02906131699033908990889088906004016141f8565b602060405180830381600087803b15801561318357600080fd5b505af19250505080156131b3575060408051601f3d908101601f191682019092526131b091810190614235565b60015b61320d573d8080156131e1576040519150601f19603f3d011682016040523d82523d6000602084013e6131e6565b606091505b5080516132055760405162461bcd60e51b81526004016108419061417c565b805181602001fd5b6001600160e01b031916630a85bd0160e11b14905061185a565b50600161185a565b6060600f805461074990613d76565b60006001600160e01b0319821663780e9d6360e01b1480610734575061073482613469565b6001600160a01b0382166132b95760405162461bcd60e51b815260206004820181905260248201527f4552433732313a206d696e7420746f20746865207a65726f20616464726573736044820152606401610841565b6000818152600260205260409020546001600160a01b03161561331e5760405162461bcd60e51b815260206004820152601c60248201527f4552433732313a20746f6b656e20616c7265616479206d696e746564000000006044820152606401610841565b61332a60008383612e54565b6001600160a01b0382166000908152600360205260408120805460019290613353908490613e37565b909155505060008181526002602052604080822080546001600160a01b0319166001600160a01b03861690811790915590518392907fddf252ad1be2c89b69c2b068fc378daa952ba7f163c4a11628f55a4df523b3ef908290a45050565b6001600160a01b03831661340c5761340781600880546000838152600960205260408120829055600182018355919091527ff3f7a9fe364faab93b216da50a3214154f22a0a2b415b23a84c8169e8b636ee30155565b61342f565b816001600160a01b0316836001600160a01b03161461342f5761342f83826134b9565b6001600160a01b0382166134465761097781613556565b826001600160a01b0316826001600160a01b031614610977576109778282613605565b60006001600160e01b031982166380ac58cd60e01b148061349a57506001600160e01b03198216635b5e139f60e01b145b8061073457506301ffc9a760e01b6001600160e01b0319831614610734565b600060016134c684611862565b6134d09190613e20565b600083815260076020526040902054909150808214613523576001600160a01b03841660009081526006602090815260408083208584528252808320548484528184208190558352600790915290208190555b5060009182526007602090815260408084208490556001600160a01b039094168352600681528383209183525290812055565b60085460009061356890600190613e20565b6000838152600960205260408120546008805493945090928490811061359057613590613df4565b9060005260206000200154905080600883815481106135b1576135b1613df4565b60009182526020808320909101929092558281526009909152604080822084905585825281205560088054806135e9576135e96141e2565b6001900381819060005260206000200160009055905550505050565b600061361083611862565b6001600160a01b039093166000908152600660209081526040808320868452825280832085905593825260079052919091209190915550565b82805461365590613d76565b90600052602060002090601f01602090048101928261367757600085556136bd565b82601f106136905782800160ff198235161785556136bd565b828001600101855582156136bd579182015b828111156136bd5782358255916020019190600101906136a2565b506136c9929150613741565b5090565b8280546136d990613d76565b90600052602060002090601f0160209004810192826136fb57600085556136bd565b82601f1061371457805160ff19168380011785556136bd565b828001600101855582156136bd579182015b828111156136bd578251825591602001919060010190613726565b5b808211156136c95760008155600101613742565b6001600160e01b03198116811461376c57600080fd5b50565b60006020828403121561378157600080fd5b813561149981613756565b60006020828403121561379e57600080fd5b5035919050565b60005b838110156137c05781810151838201526020016137a8565b83811115611c605750506000910152565b600081518084526137e98160208601602086016137a5565b601f01601f19169290920160200192915050565b60208152600061149960208301846137d1565b80356001600160a01b038116811461382757600080fd5b919050565b6000806040838503121561383f57600080fd5b61384883613810565b946020939093013593505050565b60008060006060848603121561386b57600080fd5b61387484613810565b95602085013595506040909401359392505050565b6000806000806080858703121561389f57600080fd5b5050823594602084013594506040840135936060013592509050565b60008083601f8401126138cd57600080fd5b50813567ffffffffffffffff8111156138e557600080fd5b6020830191508360208285010111156111b957600080fd5b60008060006040848603121561391257600080fd5b83359250602084013567ffffffffffffffff81111561393057600080fd5b61393c868287016138bb565b9497909650939450505050565b60008060006060848603121561395e57600080fd5b61396784613810565b925061397560208501613810565b9150604084013590509250925092565b6000806040838503121561399857600080fd5b50508035926020909101359150565b600080604083850312156139ba57600080fd5b823591506139ca60208401613810565b90509250929050565b6000806000606084860312156139e857600080fd5b505081359360208301359350604090920135919050565b60008060208385031215613a1257600080fd5b823567ffffffffffffffff811115613a2957600080fd5b613a35858286016138bb565b90969095509350505050565b60008060008060808587031215613a5757600080fd5b613a6085613810565b966020860135965060408601359560600135945092505050565b600060208284031215613a8c57600080fd5b61149982613810565b60008060408385031215613aa857600080fd5b613ab183613810565b915060208301358015158114613ac657600080fd5b809150509250929050565b634e487b7160e01b600052604160045260246000fd5b600067ffffffffffffffff80841115613b0257613b02613ad1565b604051601f8501601f19908116603f01168101908282118183101715613b2a57613b2a613ad1565b81604052809350858152868686011115613b4357600080fd5b858560208301376000602087830101525050509392505050565b60008060008060808587031215613b7357600080fd5b613b7c85613810565b9350613b8a60208601613810565b925060408501359150606085013567ffffffffffffffff811115613bad57600080fd5b8501601f81018713613bbe57600080fd5b613bcd87823560208401613ae7565b91505092959194509250565b85815260006020868184015285604084015260a06060840152613bff60a08401866137d1565b838103608085015284518082528286019183019060005b81811015613c3257835183529284019291840191600101613c16565b50909a9950505050505050505050565b60008083601f840112613c5457600080fd5b50813567ffffffffffffffff811115613c6c57600080fd5b6020830191508360208260051b85010111156111b957600080fd5b60008060008060408587031215613c9d57600080fd5b843567ffffffffffffffff80821115613cb557600080fd5b613cc188838901613c42565b90965094506020870135915080821115613cda57600080fd5b50613ce787828801613c42565b95989497509550505050565b60008060408385031215613d0657600080fd5b823567ffffffffffffffff811115613d1d57600080fd5b8301601f81018513613d2e57600080fd5b613d3d85823560208401613ae7565b95602094909401359450505050565b60008060408385031215613d5f57600080fd5b613d6883613810565b91506139ca60208401613810565b600181811c90821680613d8a57607f821691505b60208210811415613dab57634e487b7160e01b600052602260045260246000fd5b50919050565b60208082526023908201527f52414952204552433732313a2050726f6475637420646f6573206e6f742065786040820152621a5cdd60ea1b606082015260800190565b634e487b7160e01b600052603260045260246000fd5b634e487b7160e01b600052601160045260246000fd5b600082821015613e3257613e32613e0a565b500390565b60008219821115613e4a57613e4a613e0a565b500190565b600081613e5e57613e5e613e0a565b506000190190565b6000600019821415613e7a57613e7a613e0a565b5060010190565b8054600090600181811c9080831680613e9b57607f831692505b6020808410821415613ebd57634e487b7160e01b600052602260045260246000fd5b83885260208801828015613ed85760018114613ee957613f14565b60ff19871682528282019750613f14565b60008981526020902060005b87811015613f0e57815484820152908601908401613ef5565b83019850505b5050505050505092915050565b6020815260006114996020830184613e81565b86815285602082015284604082015283606082015260c060808201526000613f5f60c0830185613e81565b90508260a0830152979650505050505050565b81835281816020850137506000828201602090810191909152601f909101601f19169091010190565b838152604060208201526000613fb5604083018486613f72565b95945050505050565b60208082526031908201527f4552433732313a207472616e736665722063616c6c6572206973206e6f74206f6040820152701ddb995c881b9bdc88185c1c1c9bdd9959607a1b606082015260800190565b600081600019048311821515161561402957614029613e0a565b500290565b634e487b7160e01b600052601260045260246000fd5b6000826140535761405361402e565b500490565b60208152600061185a602083018486613f72565b6000808335601e1984360301811261408357600080fd5b83018035915067ffffffffffffffff82111561409e57600080fd5b6020019150368190038213156111b957600080fd5b600083516140c58184602088016137a5565b8351908301906140d98183602088016137a5565b01949350505050565b6060815260006140f560608301866137d1565b60208301949094525060400152919050565b7f416363657373436f6e74726f6c3a206163636f756e742000000000000000000081526000835161413f8160178501602088016137a5565b7001034b99036b4b9b9b4b733903937b6329607d1b60179184019182015283516141708160288401602088016137a5565b01602801949350505050565b60208082526032908201527f4552433732313a207472616e7366657220746f206e6f6e20455243373231526560408201527131b2b4bb32b91034b6b83632b6b2b73a32b960711b606082015260800190565b6000826141dd576141dd61402e565b500690565b634e487b7160e01b600052603160045260246000fd5b6001600160a01b038581168252841660208201526040810183905260806060820181905260009061422b908301846137d1565b9695505050505050565b60006020828403121561424757600080fd5b81516114998161375656fe3c2519c4487d47714872f92cf90a50c25f5deaec2789dc2a497b1272df611db6a2646970667358221220b8ff4dc21542b4541c182da6327da3caeb5d6ed54955611c722f0dde249e0f0064736f6c634300080900333c2519c4487d47714872f92cf90a50c25f5deaec2789dc2a497b1272df611db6f0887ba65ee2024ea881d91b74c2450ef19e1557f03bed3ea9f16b037cbe2dc9872340a532bdd7bb02bea115c1b0f1ba87eac982f5b79b51ac189ffaac1b6fce",
  "linkReferences": {},
  "deployedLinkReferences": {}
}