{
  "_format": "hh-sol-artifact-1",
  "contractName": "RAIR_ERC721",
  "sourceName": "contracts/Tokens/RAIR-ERC721.sol",
  "abi": [
    {
      "inputs": [
        {
          "internalType": "string",
          "name": "_contractName",
          "type": "string"
        },
        {
          "internalType": "address",
          "name": "_creatorAddress",
          "type": "address"
        },
        {
          "internalType": "uint16",
          "name": "_creatorRoyalty",
          "type": "uint16"
        }
      ],
      "stateMutability": "nonpayable",
      "type": "constructor"
    },
    {
      "anonymous": false,
      "inputs": [
        {
          "indexed": true,
          "internalType": "address",
          "name": "owner",
          "type": "address"
        },
        {
          "indexed": true,
          "internalType": "address",
          "name": "approved",
          "type": "address"
        },
        {
          "indexed": true,
          "internalType": "uint256",
          "name": "tokenId",
          "type": "uint256"
        }
      ],
      "name": "Approval",
      "type": "event"
    },
    {
      "anonymous": false,
      "inputs": [
        {
          "indexed": true,
          "internalType": "address",
          "name": "owner",
          "type": "address"
        },
        {
          "indexed": true,
          "internalType": "address",
          "name": "operator",
          "type": "address"
        },
        {
          "indexed": false,
          "internalType": "bool",
          "name": "approved",
          "type": "bool"
        }
      ],
      "name": "ApprovalForAll",
      "type": "event"
    },
    {
      "anonymous": false,
      "inputs": [
        {
          "indexed": false,
          "internalType": "string",
          "name": "newURI",
          "type": "string"
        }
      ],
      "name": "BaseURIChanged",
      "type": "event"
    },
    {
      "anonymous": false,
      "inputs": [
        {
          "indexed": true,
          "internalType": "uint256",
          "name": "id",
          "type": "uint256"
        },
        {
          "indexed": false,
          "internalType": "string",
          "name": "name",
          "type": "string"
        }
      ],
      "name": "ProductCompleted",
      "type": "event"
    },
    {
      "anonymous": false,
      "inputs": [
        {
          "indexed": true,
          "internalType": "uint256",
          "name": "id",
          "type": "uint256"
        },
        {
          "indexed": false,
          "internalType": "string",
          "name": "name",
          "type": "string"
        },
        {
          "indexed": false,
          "internalType": "uint256",
          "name": "startingToken",
          "type": "uint256"
        },
        {
          "indexed": false,
          "internalType": "uint256",
          "name": "length",
          "type": "uint256"
        }
      ],
      "name": "ProductCreated",
      "type": "event"
    },
    {
      "anonymous": false,
      "inputs": [
        {
          "indexed": false,
          "internalType": "uint256",
          "name": "productId",
          "type": "uint256"
        },
        {
          "indexed": false,
          "internalType": "string",
          "name": "newURI",
          "type": "string"
        }
      ],
      "name": "ProductURIChanged",
      "type": "event"
    },
    {
      "anonymous": false,
      "inputs": [
        {
          "indexed": false,
          "internalType": "uint256",
          "name": "productIndex",
          "type": "uint256"
        },
        {
          "indexed": false,
          "internalType": "uint256",
          "name": "startingToken",
          "type": "uint256"
        },
        {
          "indexed": false,
          "internalType": "uint256",
          "name": "endingToken",
          "type": "uint256"
        },
        {
          "indexed": false,
          "internalType": "uint256",
          "name": "tokensLocked",
          "type": "uint256"
        },
        {
          "indexed": false,
          "internalType": "string",
          "name": "productName",
          "type": "string"
        },
        {
          "indexed": false,
          "internalType": "uint256",
          "name": "lockIndex",
          "type": "uint256"
        }
      ],
      "name": "RangeLocked",
      "type": "event"
    },
    {
      "anonymous": false,
      "inputs": [
        {
          "indexed": false,
          "internalType": "uint256",
          "name": "productID",
          "type": "uint256"
        },
        {
          "indexed": false,
          "internalType": "uint256",
          "name": "startingToken",
          "type": "uint256"
        },
        {
          "indexed": false,
          "internalType": "uint256",
          "name": "endingToken",
          "type": "uint256"
        }
      ],
      "name": "RangeUnlocked",
      "type": "event"
    },
    {
      "anonymous": false,
      "inputs": [
        {
          "indexed": true,
          "internalType": "bytes32",
          "name": "role",
          "type": "bytes32"
        },
        {
          "indexed": true,
          "internalType": "bytes32",
          "name": "previousAdminRole",
          "type": "bytes32"
        },
        {
          "indexed": true,
          "internalType": "bytes32",
          "name": "newAdminRole",
          "type": "bytes32"
        }
      ],
      "name": "RoleAdminChanged",
      "type": "event"
    },
    {
      "anonymous": false,
      "inputs": [
        {
          "indexed": true,
          "internalType": "bytes32",
          "name": "role",
          "type": "bytes32"
        },
        {
          "indexed": true,
          "internalType": "address",
          "name": "account",
          "type": "address"
        },
        {
          "indexed": true,
          "internalType": "address",
          "name": "sender",
          "type": "address"
        }
      ],
      "name": "RoleGranted",
      "type": "event"
    },
    {
      "anonymous": false,
      "inputs": [
        {
          "indexed": true,
          "internalType": "bytes32",
          "name": "role",
          "type": "bytes32"
        },
        {
          "indexed": true,
          "internalType": "address",
          "name": "account",
          "type": "address"
        },
        {
          "indexed": true,
          "internalType": "address",
          "name": "sender",
          "type": "address"
        }
      ],
      "name": "RoleRevoked",
      "type": "event"
    },
    {
      "anonymous": false,
      "inputs": [
        {
          "indexed": false,
          "internalType": "uint256",
          "name": "tokenId",
          "type": "uint256"
        },
        {
          "indexed": false,
          "internalType": "string",
          "name": "newURI",
          "type": "string"
        }
      ],
      "name": "TokenURIChanged",
      "type": "event"
    },
    {
      "anonymous": false,
      "inputs": [
        {
          "indexed": true,
          "internalType": "address",
          "name": "from",
          "type": "address"
        },
        {
          "indexed": true,
          "internalType": "address",
          "name": "to",
          "type": "address"
        },
        {
          "indexed": true,
          "internalType": "uint256",
          "name": "tokenId",
          "type": "uint256"
        }
      ],
      "name": "Transfer",
      "type": "event"
    },
    {
      "inputs": [],
      "name": "CREATOR",
      "outputs": [
        {
          "internalType": "bytes32",
          "name": "",
          "type": "bytes32"
        }
      ],
      "stateMutability": "view",
      "type": "function"
    },
    {
      "inputs": [],
      "name": "DEFAULT_ADMIN_ROLE",
      "outputs": [
        {
          "internalType": "bytes32",
          "name": "",
          "type": "bytes32"
        }
      ],
      "stateMutability": "view",
      "type": "function"
    },
    {
      "inputs": [],
      "name": "MINTER",
      "outputs": [
        {
          "internalType": "bytes32",
          "name": "",
          "type": "bytes32"
        }
      ],
      "stateMutability": "view",
      "type": "function"
    },
    {
      "inputs": [],
      "name": "TRADER",
      "outputs": [
        {
          "internalType": "bytes32",
          "name": "",
          "type": "bytes32"
        }
      ],
      "stateMutability": "view",
      "type": "function"
    },
    {
      "inputs": [
        {
          "internalType": "address",
          "name": "to",
          "type": "address"
        },
        {
          "internalType": "uint256",
          "name": "tokenId",
          "type": "uint256"
        }
      ],
      "name": "approve",
      "outputs": [],
      "stateMutability": "nonpayable",
      "type": "function"
    },
    {
      "inputs": [
        {
          "internalType": "address",
          "name": "owner",
          "type": "address"
        }
      ],
      "name": "balanceOf",
      "outputs": [
        {
          "internalType": "uint256",
          "name": "",
          "type": "uint256"
        }
      ],
      "stateMutability": "view",
      "type": "function"
    },
    {
      "inputs": [
        {
          "internalType": "uint256",
          "name": "productIndex",
          "type": "uint256"
        },
        {
          "internalType": "uint256",
          "name": "startingToken",
          "type": "uint256"
        },
        {
          "internalType": "uint256",
          "name": "endingToken",
          "type": "uint256"
        }
      ],
      "name": "canCreateLock",
      "outputs": [
        {
          "internalType": "bool",
          "name": "canCreate",
          "type": "bool"
        }
      ],
      "stateMutability": "view",
      "type": "function"
    },
    {
      "inputs": [
        {
          "internalType": "string",
          "name": "_productName",
          "type": "string"
        },
        {
          "internalType": "uint256",
          "name": "_copies",
          "type": "uint256"
        }
      ],
      "name": "createProduct",
      "outputs": [],
      "stateMutability": "nonpayable",
      "type": "function"
    },
    {
      "inputs": [
        {
          "internalType": "uint256",
          "name": "productIndex",
          "type": "uint256"
        },
        {
          "internalType": "uint256",
          "name": "_startingToken",
          "type": "uint256"
        },
        {
          "internalType": "uint256",
          "name": "_endingToken",
          "type": "uint256"
        },
        {
          "internalType": "uint256",
          "name": "_lockedTokens",
          "type": "uint256"
        }
      ],
      "name": "createRangeLock",
      "outputs": [],
      "stateMutability": "nonpayable",
      "type": "function"
    },
    {
      "inputs": [
        {
          "internalType": "uint256",
          "name": "tokenId",
          "type": "uint256"
        }
      ],
      "name": "getApproved",
      "outputs": [
        {
          "internalType": "address",
          "name": "",
          "type": "address"
        }
      ],
      "stateMutability": "view",
      "type": "function"
    },
    {
      "inputs": [
        {
          "internalType": "uint256",
          "name": "index",
          "type": "uint256"
        }
      ],
      "name": "getLockedRange",
      "outputs": [
        {
          "internalType": "uint256",
          "name": "startingToken",
          "type": "uint256"
        },
        {
          "internalType": "uint256",
          "name": "endingToken",
          "type": "uint256"
        },
        {
          "internalType": "uint256",
          "name": "countToUnlock",
          "type": "uint256"
        },
        {
          "internalType": "uint256",
          "name": "productIndex",
          "type": "uint256"
        }
      ],
      "stateMutability": "view",
      "type": "function"
    },
    {
      "inputs": [
        {
          "internalType": "uint256",
          "name": "productID",
          "type": "uint256"
        },
        {
          "internalType": "uint256",
          "name": "startingIndex",
          "type": "uint256"
        },
        {
          "internalType": "uint256",
          "name": "endingIndex",
          "type": "uint256"
        }
      ],
      "name": "getNextSequentialIndex",
      "outputs": [
        {
          "internalType": "uint256",
          "name": "nextIndex",
          "type": "uint256"
        }
      ],
      "stateMutability": "view",
      "type": "function"
    },
    {
      "inputs": [
        {
          "internalType": "uint256",
          "name": "index",
          "type": "uint256"
        }
      ],
      "name": "getProduct",
      "outputs": [
        {
          "internalType": "uint256",
          "name": "startingToken",
          "type": "uint256"
        },
        {
          "internalType": "uint256",
          "name": "endingToken",
          "type": "uint256"
        },
        {
          "internalType": "uint256",
          "name": "mintableTokensLeft",
          "type": "uint256"
        },
        {
          "internalType": "string",
          "name": "productName",
          "type": "string"
        },
        {
          "internalType": "uint256[]",
          "name": "locks",
          "type": "uint256[]"
        }
      ],
      "stateMutability": "view",
      "type": "function"
    },
    {
      "inputs": [],
      "name": "getProductCount",
      "outputs": [
        {
          "internalType": "uint256",
          "name": "",
          "type": "uint256"
        }
      ],
      "stateMutability": "view",
      "type": "function"
    },
    {
      "inputs": [
        {
          "internalType": "bytes32",
          "name": "role",
          "type": "bytes32"
        }
      ],
      "name": "getRoleAdmin",
      "outputs": [
        {
          "internalType": "bytes32",
          "name": "",
          "type": "bytes32"
        }
      ],
      "stateMutability": "view",
      "type": "function"
    },
    {
      "inputs": [
        {
          "internalType": "bytes32",
          "name": "role",
          "type": "bytes32"
        },
        {
          "internalType": "uint256",
          "name": "index",
          "type": "uint256"
        }
      ],
      "name": "getRoleMember",
      "outputs": [
        {
          "internalType": "address",
          "name": "",
          "type": "address"
        }
      ],
      "stateMutability": "view",
      "type": "function"
    },
    {
      "inputs": [
        {
          "internalType": "bytes32",
          "name": "role",
          "type": "bytes32"
        }
      ],
      "name": "getRoleMemberCount",
      "outputs": [
        {
          "internalType": "uint256",
          "name": "",
          "type": "uint256"
        }
      ],
      "stateMutability": "view",
      "type": "function"
    },
    {
      "inputs": [
        {
          "internalType": "bytes32",
          "name": "role",
          "type": "bytes32"
        },
        {
          "internalType": "address",
          "name": "account",
          "type": "address"
        }
      ],
      "name": "grantRole",
      "outputs": [],
      "stateMutability": "nonpayable",
      "type": "function"
    },
    {
      "inputs": [
        {
          "internalType": "bytes32",
          "name": "role",
          "type": "bytes32"
        },
        {
          "internalType": "address",
          "name": "account",
          "type": "address"
        }
      ],
      "name": "hasRole",
      "outputs": [
        {
          "internalType": "bool",
          "name": "",
          "type": "bool"
        }
      ],
      "stateMutability": "view",
      "type": "function"
    },
    {
      "inputs": [
        {
          "internalType": "address",
          "name": "userAddress",
          "type": "address"
        },
        {
          "internalType": "uint256",
          "name": "productIndex",
          "type": "uint256"
        },
        {
          "internalType": "uint256",
          "name": "startingToken",
          "type": "uint256"
        },
        {
          "internalType": "uint256",
          "name": "endingToken",
          "type": "uint256"
        }
      ],
      "name": "hasTokenInProduct",
      "outputs": [
        {
          "internalType": "bool",
          "name": "",
          "type": "bool"
        }
      ],
      "stateMutability": "view",
      "type": "function"
    },
    {
      "inputs": [
        {
          "internalType": "address",
          "name": "owner",
          "type": "address"
        },
        {
          "internalType": "address",
          "name": "operator",
          "type": "address"
        }
      ],
      "name": "isApprovedForAll",
      "outputs": [
        {
          "internalType": "bool",
          "name": "",
          "type": "bool"
        }
      ],
      "stateMutability": "view",
      "type": "function"
    },
    {
      "inputs": [
        {
          "internalType": "uint256",
          "name": "_tokenId",
          "type": "uint256"
        }
      ],
      "name": "isTokenLocked",
      "outputs": [
        {
          "internalType": "bool",
          "name": "",
          "type": "bool"
        }
      ],
      "stateMutability": "view",
      "type": "function"
    },
    {
      "inputs": [
        {
          "internalType": "address",
          "name": "to",
          "type": "address"
        },
        {
          "internalType": "uint256",
          "name": "productId",
          "type": "uint256"
        },
        {
          "internalType": "uint256",
          "name": "indexInProduct",
          "type": "uint256"
        }
      ],
      "name": "mint",
      "outputs": [],
      "stateMutability": "nonpayable",
      "type": "function"
    },
    {
      "inputs": [],
      "name": "name",
      "outputs": [
        {
          "internalType": "string",
          "name": "",
          "type": "string"
        }
      ],
      "stateMutability": "view",
      "type": "function"
    },
    {
      "inputs": [
        {
          "internalType": "uint256",
          "name": "tokenId",
          "type": "uint256"
        }
      ],
      "name": "ownerOf",
      "outputs": [
        {
          "internalType": "address",
          "name": "",
          "type": "address"
        }
      ],
      "stateMutability": "view",
      "type": "function"
    },
    {
      "inputs": [
        {
          "internalType": "bytes32",
          "name": "role",
          "type": "bytes32"
        },
        {
          "internalType": "address",
          "name": "account",
          "type": "address"
        }
      ],
      "name": "renounceRole",
      "outputs": [],
      "stateMutability": "nonpayable",
      "type": "function"
    },
    {
      "inputs": [
        {
          "internalType": "bytes32",
          "name": "role",
          "type": "bytes32"
        },
        {
          "internalType": "address",
          "name": "account",
          "type": "address"
        }
      ],
      "name": "revokeRole",
      "outputs": [],
      "stateMutability": "nonpayable",
      "type": "function"
    },
    {
      "inputs": [
        {
          "internalType": "uint256",
          "name": "_tokenId",
          "type": "uint256"
        },
        {
          "internalType": "uint256",
          "name": "_salePrice",
          "type": "uint256"
        }
      ],
      "name": "royaltyInfo",
      "outputs": [
        {
          "internalType": "address",
          "name": "receiver",
          "type": "address"
        },
        {
          "internalType": "uint256",
          "name": "royaltyAmount",
          "type": "uint256"
        }
      ],
      "stateMutability": "view",
      "type": "function"
    },
    {
      "inputs": [
        {
          "internalType": "address",
          "name": "from",
          "type": "address"
        },
        {
          "internalType": "address",
          "name": "to",
          "type": "address"
        },
        {
          "internalType": "uint256",
          "name": "tokenId",
          "type": "uint256"
        }
      ],
      "name": "safeTransferFrom",
      "outputs": [],
      "stateMutability": "nonpayable",
      "type": "function"
    },
    {
      "inputs": [
        {
          "internalType": "address",
          "name": "from",
          "type": "address"
        },
        {
          "internalType": "address",
          "name": "to",
          "type": "address"
        },
        {
          "internalType": "uint256",
          "name": "tokenId",
          "type": "uint256"
        },
        {
          "internalType": "bytes",
          "name": "_data",
          "type": "bytes"
        }
      ],
      "name": "safeTransferFrom",
      "outputs": [],
      "stateMutability": "nonpayable",
      "type": "function"
    },
    {
      "inputs": [
        {
          "internalType": "address",
          "name": "operator",
          "type": "address"
        },
        {
          "internalType": "bool",
          "name": "approved",
          "type": "bool"
        }
      ],
      "name": "setApprovalForAll",
      "outputs": [],
      "stateMutability": "nonpayable",
      "type": "function"
    },
    {
      "inputs": [
        {
          "internalType": "string",
          "name": "newURI",
          "type": "string"
        }
      ],
      "name": "setBaseURI",
      "outputs": [],
      "stateMutability": "nonpayable",
      "type": "function"
    },
    {
      "inputs": [
        {
          "internalType": "uint256",
          "name": "productId",
          "type": "uint256"
        },
        {
          "internalType": "string",
          "name": "newURI",
          "type": "string"
        }
      ],
      "name": "setProductURI",
      "outputs": [],
      "stateMutability": "nonpayable",
      "type": "function"
    },
    {
      "inputs": [
        {
          "internalType": "uint256",
          "name": "tokenId",
          "type": "uint256"
        },
        {
          "internalType": "string",
          "name": "newURI",
          "type": "string"
        }
      ],
      "name": "setUniqueURI",
      "outputs": [],
      "stateMutability": "nonpayable",
      "type": "function"
    },
    {
      "inputs": [
        {
          "internalType": "bytes4",
          "name": "interfaceId",
          "type": "bytes4"
        }
      ],
      "name": "supportsInterface",
      "outputs": [
        {
          "internalType": "bool",
          "name": "",
          "type": "bool"
        }
      ],
      "stateMutability": "view",
      "type": "function"
    },
    {
      "inputs": [],
      "name": "symbol",
      "outputs": [
        {
          "internalType": "string",
          "name": "",
          "type": "string"
        }
      ],
      "stateMutability": "view",
      "type": "function"
    },
    {
      "inputs": [
        {
          "internalType": "uint256",
          "name": "index",
          "type": "uint256"
        }
      ],
      "name": "tokenByIndex",
      "outputs": [
        {
          "internalType": "uint256",
          "name": "",
          "type": "uint256"
        }
      ],
      "stateMutability": "view",
      "type": "function"
    },
    {
      "inputs": [
        {
          "internalType": "uint256",
          "name": "productIndex",
          "type": "uint256"
        }
      ],
      "name": "tokenCountByProduct",
      "outputs": [
        {
          "internalType": "uint256",
          "name": "",
          "type": "uint256"
        }
      ],
      "stateMutability": "view",
      "type": "function"
    },
    {
      "inputs": [
        {
          "internalType": "address",
          "name": "owner",
          "type": "address"
        },
        {
          "internalType": "uint256",
          "name": "index",
          "type": "uint256"
        }
      ],
      "name": "tokenOfOwnerByIndex",
      "outputs": [
        {
          "internalType": "uint256",
          "name": "",
          "type": "uint256"
        }
      ],
      "stateMutability": "view",
      "type": "function"
    },
    {
      "inputs": [
        {
          "internalType": "uint256",
          "name": "",
          "type": "uint256"
        }
      ],
      "name": "tokenToProduct",
      "outputs": [
        {
          "internalType": "uint256",
          "name": "",
          "type": "uint256"
        }
      ],
      "stateMutability": "view",
      "type": "function"
    },
    {
      "inputs": [
        {
          "internalType": "uint256",
          "name": "token",
          "type": "uint256"
        }
      ],
      "name": "tokenToProductIndex",
      "outputs": [
        {
          "internalType": "uint256",
          "name": "tokenIndex",
          "type": "uint256"
        }
      ],
      "stateMutability": "view",
      "type": "function"
    },
    {
      "inputs": [
        {
          "internalType": "uint256",
          "name": "tokenId",
          "type": "uint256"
        }
      ],
      "name": "tokenURI",
      "outputs": [
        {
          "internalType": "string",
          "name": "",
          "type": "string"
        }
      ],
      "stateMutability": "view",
      "type": "function"
    },
    {
      "inputs": [
        {
          "internalType": "uint256",
          "name": "",
          "type": "uint256"
        },
        {
          "internalType": "uint256",
          "name": "",
          "type": "uint256"
        }
      ],
      "name": "tokensByProduct",
      "outputs": [
        {
          "internalType": "uint256",
          "name": "",
          "type": "uint256"
        }
      ],
      "stateMutability": "view",
      "type": "function"
    },
    {
      "inputs": [],
      "name": "totalSupply",
      "outputs": [
        {
          "internalType": "uint256",
          "name": "",
          "type": "uint256"
        }
      ],
      "stateMutability": "view",
      "type": "function"
    },
    {
      "inputs": [
        {
          "internalType": "address",
          "name": "from",
          "type": "address"
        },
        {
          "internalType": "address",
          "name": "to",
          "type": "address"
        },
        {
          "internalType": "uint256",
          "name": "tokenId",
          "type": "uint256"
        }
      ],
      "name": "transferFrom",
      "outputs": [],
      "stateMutability": "nonpayable",
      "type": "function"
    }
  ],
  "bytecode": "0x60806040523480156200001157600080fd5b506040516200453c3803806200453c8339810160408190526200003491620003f7565b82604051806040016040528060048152602001632920a4a960e11b81525081600090805190602001906200006a9291906200030b565b508051620000809060019060208401906200030b565b5050601480546001600160b01b0319163361ffff60a01b191617600160a01b61ffff85160217905550620000d3600080516020620044fc833981519152600080516020620044dc83398151915262000157565b620000fd6000805160206200451c833981519152600080516020620044dc83398151915262000157565b62000118600080516020620044dc83398151915283620001a2565b62000133600080516020620044fc83398151915283620001a2565b6200014e6000805160206200451c83398151915283620001a2565b50505062000537565b6000828152600a6020526040808220600101805490849055905190918391839186917fbd79b86ffe0ab8e8776151514217cd7cacd52c909f66475c3af44e129f0b00ff9190a4505050565b620001b98282620001e560201b620022d51760201c565b6000828152600b60209081526040909120620001e0918390620022e3620001f5821b17901c565b505050565b620001f1828262000215565b5050565b60006200020c836001600160a01b038416620002b9565b90505b92915050565b6000828152600a602090815260408083206001600160a01b038516845290915290205460ff16620001f1576000828152600a602090815260408083206001600160a01b03851684529091529020805460ff19166001179055620002753390565b6001600160a01b0316816001600160a01b0316837f2f8788117e7eff1d82e926ec794901d17c78024a50270940304540a733656f0d60405160405180910390a45050565b600081815260018301602052604081205462000302575081546001818101845560008481526020808220909301849055845484825282860190935260409020919091556200020f565b5060006200020f565b8280546200031990620004fa565b90600052602060002090601f0160209004810192826200033d576000855562000388565b82601f106200035857805160ff191683800117855562000388565b8280016001018555821562000388579182015b82811115620003885782518255916020019190600101906200036b565b50620003969291506200039a565b5090565b5b808211156200039657600081556001016200039b565b634e487b7160e01b600052604160045260246000fd5b80516001600160a01b0381168114620003df57600080fd5b919050565b805161ffff81168114620003df57600080fd5b6000806000606084860312156200040d57600080fd5b83516001600160401b03808211156200042557600080fd5b818601915086601f8301126200043a57600080fd5b8151818111156200044f576200044f620003b1565b604051601f8201601f19908116603f011681019083821181831017156200047a576200047a620003b1565b816040528281526020935089848487010111156200049757600080fd5b600091505b82821015620004bb57848201840151818301850152908301906200049c565b82821115620004cd5760008484830101525b9650620004df915050868201620003c7565b93505050620004f160408501620003e4565b90509250925092565b600181811c908216806200050f57607f821691505b602082108114156200053157634e487b7160e01b600052602260045260246000fd5b50919050565b613f9580620005476000396000f3fe608060405234801561001057600080fd5b506004361061027f5760003560e01c806355f804b31161015c578063b9db15b4116100ce578063d547741f11610087578063d547741f146105fd578063d76bf56614610610578063e4fbb60914610630578063e9300c6c14610645578063e985e9c514610658578063fe6d81241461066b57600080fd5b8063b9db15b41461057a578063bda5ec331461059e578063c00b83c5146105b1578063c87b56dd146105c4578063ca15c873146105d7578063d403bf86146105ea57600080fd5b80639010d07c116101205780639010d07c1461051e57806391d148541461053157806395d89b4114610544578063a217fddf1461054c578063a22cb46514610554578063b88d4fde1461056757600080fd5b806355f804b31461049f5780636352211e146104b25780636c99dcbf146104c557806370a08231146104d8578063876654a0146104eb57600080fd5b806324704bd7116101f55780632f745c59116101b95780632f745c591461043857806336568abe1461044b5780633d42f2061461045e57806342842e0e146104715780634a348da9146104845780634f6ccce71461048c57600080fd5b806324704bd7146103aa578063248a9ca3146103bd578063276a28a3146103e05780632a55205a146103f35780632f2ff15d1461042557600080fd5b8063156e29f611610247578063156e29f61461032f57806315a1824114610342578063175c4ef81461035557806318160ddd1461037c5780631c899d1a1461038457806323b872dd1461039757600080fd5b806301ffc9a7146102845780630301e1e2146102ac57806306fdde03146102da578063081812fc146102ef578063095ea7b31461031a575b600080fd5b610297610292366004613554565b610692565b60405190151581526020015b60405180910390f35b6102cc6102ba366004613571565b6000908152600c602052604090205490565b6040519081526020016102a3565b6102e26106bd565b6040516102a391906135e2565b6103026102fd366004613571565b61074f565b6040516001600160a01b0390911681526020016102a3565b61032d610328366004613611565b6107e9565b005b61032d61033d36600461363b565b6108ff565b61032d61035036600461366e565b610c7c565b6102cc7f872340a532bdd7bb02bea115c1b0f1ba87eac982f5b79b51ac189ffaac1b6fce81565b6008546102cc565b61032d6103923660046136e2565b610f98565b61032d6103a536600461372e565b61100c565b6102cc6103b836600461376a565b61103d565b6102cc6103cb366004613571565b6000908152600a602052604090206001015490565b6102976103ee366004613571565b61106e565b61040661040136600461376a565b6110f4565b604080516001600160a01b0390931683526020830191909152016102a3565b61032d61043336600461378c565b611143565b6102cc610446366004613611565b611165565b61032d61045936600461378c565b6111fb565b61029761046c3660046137b8565b61121d565b61032d61047f36600461372e565b611423565b6013546102cc565b6102cc61049a366004613571565b61143e565b61032d6104ad3660046137e4565b6114d1565b6103026104c0366004613571565b611535565b6102976104d3366004613826565b6115ac565b6102cc6104e636600461385f565b611788565b6104fe6104f9366004613571565b61180f565b6040805194855260208501939093529183015260608201526080016102a3565b61030261052c36600461376a565b6119e6565b61029761053f36600461378c565b6119fe565b6102e2611a29565b6102cc600081565b61032d61056236600461387a565b611a38565b61032d610575366004613942565b611afd565b61058d610588366004613571565b611b35565b6040516102a39594939291906139be565b6102cc6105ac3660046137b8565b611c9e565b6102cc6105bf366004613571565b611edf565b6102e26105d2366004613571565b611f20565b6102cc6105e5366004613571565b6120c1565b61032d6105f83660046136e2565b6120d8565b61032d61060b36600461378c565b61213e565b6102cc61061e366004613571565b600d6020526000908152604090205481565b6102cc600080516020613f4083398151915281565b61032d610653366004613a27565b612148565b610297610666366004613a80565b612275565b6102cc7ff0887ba65ee2024ea881d91b74c2450ef19e1557f03bed3ea9f16b037cbe2dc981565b60006001600160e01b03198216632baae9fd60e01b14806106b757506106b7826122f8565b92915050565b6060600080546106cc90613aaa565b80601f01602080910402602001604051908101604052809291908181526020018280546106f890613aaa565b80156107455780601f1061071a57610100808354040283529160200191610745565b820191906000526020600020905b81548152906001019060200180831161072857829003601f168201915b5050505050905090565b6000818152600260205260408120546001600160a01b03166107cd5760405162461bcd60e51b815260206004820152602c60248201527f4552433732313a20617070726f76656420717565727920666f72206e6f6e657860448201526b34b9ba32b73a103a37b5b2b760a11b60648201526084015b60405180910390fd5b506000908152600460205260409020546001600160a01b031690565b60006107f482611535565b9050806001600160a01b0316836001600160a01b031614156108625760405162461bcd60e51b815260206004820152602160248201527f4552433732313a20617070726f76616c20746f2063757272656e74206f776e656044820152603960f91b60648201526084016107c4565b336001600160a01b038216148061087e575061087e8133612275565b6108f05760405162461bcd60e51b815260206004820152603860248201527f4552433732313a20617070726f76652063616c6c6572206973206e6f74206f7760448201527f6e6572206e6f7220617070726f76656420666f7220616c6c000000000000000060648201526084016107c4565b6108fa838361231d565b505050565b7ff0887ba65ee2024ea881d91b74c2450ef19e1557f03bed3ea9f16b037cbe2dc961092a813361238b565b6013548390811061094d5760405162461bcd60e51b81526004016107c490613ae5565b60006013858154811061096257610962613b28565b90600052602060002090600502019050806000015481600101546109869190613b54565b8411156109d55760405162461bcd60e51b815260206004820181905260248201527f52414952204552433732313a20496e76616c696420746f6b656e20696e64657860448201526064016107c4565b6109ee868583600001546109e99190613b6b565b6123ef565b6000858152600c602052604090208154610a09908690613b6b565b8154600181018355600092835260208320015581548691600d91610a2e908890613b6b565b815260200190815260200160002081905550806002016000815480929190610a5590613b83565b9091555060009050805b6004830154811015610c2d578254610a78908790613b6b565b6012846004018381548110610a8f57610a8f613b28565b906000526020600020015481548110610aaa57610aaa613b28565b90600052602060002090600402016000015411158015610b1957508254610ad2908790613b6b565b6012846004018381548110610ae957610ae9613b28565b906000526020600020015481548110610b0457610b04613b28565b90600052602060002090600402016001015410155b15610c1b576012836004018281548110610b3557610b35613b28565b906000526020600020015481548110610b5057610b50613b28565b90600052602060002090600402019150826004018181548110610b7557610b75613b28565b9060005260206000200154600e6000888660000154610b949190613b6b565b8152602081019190915260400160002055600282015415610c1657600282018054906000610bc183613b83565b90915550506002820154610c165781546001830154604080518a815260208101939093528201527fd3edbeb94dfb8eadcd8c291774b9ac3cc9b06af829273e295bf3197849934b889060600160405180910390a15b610c2d565b80610c2581613b9a565b915050610a5f565b506002820154610c7357857f7118e1ae63262db55027a75ee525791f482e7fdf6c2ccb6c11528bf1652780e183600301604051610c6a9190613c55565b60405180910390a25b50505050505050565b600080516020613f40833981519152610c95813361238b565b60135485908110610cb85760405162461bcd60e51b81526004016107c490613ae5565b600060138781548110610ccd57610ccd613b28565b906000526020600020906005020190508060010154858260000154610cf29190613b6b565b1115610d4a5760405162461bcd60e51b815260206004820152602160248201527f52414952204552433732313a20496e76616c696420656e64696e6720746f6b656044820152603760f91b60648201526084016107c4565b80546001820154610d5b9190613b54565b610d658787613b54565b1115610dbd5760405162461bcd60e51b815260206004820152602160248201527f52414952204552433732313a20496e76616c696420746f6b656e206c696d69746044820152607360f81b60648201526084016107c4565b83610dc88787613b54565b610dd3906001613b6b565b1015610e375760405162461bcd60e51b815260206004820152602d60248201527f52414952204552433732313a20496e76616c6964206e756d626572206f66207460448201526c6f6b656e7320746f206c6f636b60981b60648201526084016107c4565b610e4287878761121d565b610e8e5760405162461bcd60e51b815260206004820152601f60248201527f52414952204552433732313a2043616e6e6f7420637265617465206c6f636b0060448201526064016107c4565b60128054600181018255600091909152815460049091027fbb8a6a4669ba250d26cd7a459eca9d215f8307e33aebe50379bc5a3617ec34440190610ed3908890613b6b565b81558154610ee2908790613b6b565b60018083019190915560028201869055600382018990556012546004840191610f0a91613b54565b8154600181018355600092835260209092209091015581547f31677189d834d986e226e646cd121f117815e9bf4992c19728ca028f2ee542e6908990610f51908a90613b6b565b8454610f5e908a90613b6b565b60125489906003880190610f7490600190613b54565b604051610f8696959493929190613c68565b60405180910390a15050505050505050565b600080516020613f40833981519152610fb1813361238b565b6000848152601060205260409020610fca90848461342e565b507f483621391b5e72d74eb03c7b5715531c486e326fb115ab3bcf34b133041854ce848484604051610ffe93929190613ccf565b60405180910390a150505050565b6110163382612409565b6110325760405162461bcd60e51b81526004016107c490613cf2565b6108fa8383836124d8565b600c602052816000526040600020818154811061105957600080fd5b90600052602060002001600091509150505481565b6000818152600d6020908152604080832054600e90925282205460128054909190811061109d5761109d613b28565b9060005260206000209060040201600301541480156106b757506000828152600e60205260408120546012805490919081106110db576110db613b28565b9060005260206000209060040201600201541192915050565b600080611110600080516020613f4083398151915260006119e6565b601454620186a09061112d90600160a01b900461ffff1686613d43565b6111379190613d78565b915091505b9250929050565b61114d8282612683565b6000828152600b602052604090206108fa90826122e3565b600061117083611788565b82106111d25760405162461bcd60e51b815260206004820152602b60248201527f455243373231456e756d657261626c653a206f776e657220696e646578206f7560448201526a74206f6620626f756e647360a81b60648201526084016107c4565b506001600160a01b03919091166000908152600660209081526040808320938352929052205490565b61120582826126a9565b6000828152600b602052604090206108fa9082612723565b6000806013858154811061123357611233613b28565b90600052602060002090600502019050806000015481600101546112579190613b54565b8411806112735750805460018201546112709190613b54565b83115b1561128257600091505061141c565b60005b600482015481101561141557815461129e908690613b6b565b60128360040183815481106112b5576112b5613b28565b9060005260206000200154815481106112d0576112d0613b28565b9060005260206000209060040201600001541115801561133f575081546112f8908690613b6b565b601283600401838154811061130f5761130f613b28565b90600052602060002001548154811061132a5761132a613b28565b90600052602060002090600402016001015410155b806113f357508154611352908590613b6b565b601283600401838154811061136957611369613b28565b90600052602060002001548154811061138457611384613b28565b906000526020600020906004020160000154111580156113f3575081546113ac908590613b6b565b60128360040183815481106113c3576113c3613b28565b9060005260206000200154815481106113de576113de613b28565b90600052602060002090600402016001015410155b156114035760009250505061141c565b8061140d81613b9a565b915050611285565b5060019150505b9392505050565b6108fa83838360405180602001604052806000815250611afd565b600061144960085490565b82106114ac5760405162461bcd60e51b815260206004820152602c60248201527f455243373231456e756d657261626c653a20676c6f62616c20696e646578206f60448201526b7574206f6620626f756e647360a01b60648201526084016107c4565b600882815481106114bf576114bf613b28565b90600052602060002001549050919050565b600080516020613f408339815191526114ea813361238b565b6114f6600f848461342e565b507f5411e8ebf1636d9e83d5fc4900bf80cbac82e8790da2a4c94db4895e889eedf68383604051611528929190613d8c565b60405180910390a1505050565b6000818152600260205260408120546001600160a01b0316806106b75760405162461bcd60e51b815260206004820152602960248201527f4552433732313a206f776e657220717565727920666f72206e6f6e657869737460448201526832b73a103a37b5b2b760b91b60648201526084016107c4565b600080601385815481106115c2576115c2613b28565b90600052602060002090600502016040518060a001604052908160008201548152602001600182015481526020016002820154815260200160038201805461160990613aaa565b80601f016020809104026020016040519081016040528092919081815260200182805461163590613aaa565b80156116825780601f1061165757610100808354040283529160200191611682565b820191906000526020600020905b81548152906001019060200180831161166557829003601f168201915b50505050508152602001600482018054806020026020016040519081016040528092919081815260200182805480156116da57602002820191906000526020600020905b8154815260200190600101908083116116c6575b5050505050815250509050806020015160001461177a5760005b6116fd87611788565b8110156117785760006117108883611165565b6000818152600d60205260409020549091508714801561173c57508251611738908790613b6b565b8110155b801561175457508251611750908690613b6b565b8111155b156117655760019350505050611780565b508061177081613b9a565b9150506116f4565b505b60009150505b949350505050565b60006001600160a01b0382166117f35760405162461bcd60e51b815260206004820152602a60248201527f4552433732313a2062616c616e636520717565727920666f7220746865207a65604482015269726f206164647265737360b01b60648201526084016107c4565b506001600160a01b031660009081526003602052604090205490565b60008060008060006012868154811061182a5761182a613b28565b906000526020600020906004020160405180608001604052908160008201548152602001600182015481526020016002820154815260200160038201548152505090506000601382606001518154811061188657611886613b28565b90600052602060002090600502016040518060a00160405290816000820154815260200160018201548152602001600282015481526020016003820180546118cd90613aaa565b80601f01602080910402602001604051908101604052809291908181526020018280546118f990613aaa565b80156119465780601f1061191b57610100808354040283529160200191611946565b820191906000526020600020905b81548152906001019060200180831161192957829003601f168201915b505050505081526020016004820180548060200260200160405190810160405280929190818152602001828054801561199e57602002820191906000526020600020905b81548152602001906001019080831161198a575b505050919092525050815184519293506119ba92909150613b54565b815160208401516119cb9190613b54565b83604001518460600151955095509550955050509193509193565b6000828152600b6020526040812061141c9083612738565b6000918252600a602090815260408084206001600160a01b0393909316845291905290205460ff1690565b6060600180546106cc90613aaa565b6001600160a01b038216331415611a915760405162461bcd60e51b815260206004820152601960248201527f4552433732313a20617070726f766520746f2063616c6c65720000000000000060448201526064016107c4565b3360008181526005602090815260408083206001600160a01b03871680855290835292819020805460ff191686151590811790915590519081529192917f17307eab39ab6107e8899845ad3d59bd9653f200f220920489ca2b5937696c31910160405180910390a35050565b611b073383612409565b611b235760405162461bcd60e51b81526004016107c490613cf2565b611b2f84848484612744565b50505050565b6000806000606080600060138781548110611b5257611b52613b28565b90600052602060002090600502016040518060a0016040529081600082015481526020016001820154815260200160028201548152602001600382018054611b9990613aaa565b80601f0160208091040260200160405190810160405280929190818152602001828054611bc590613aaa565b8015611c125780601f10611be757610100808354040283529160200191611c12565b820191906000526020600020905b815481529060010190602001808311611bf557829003601f168201915b5050505050815260200160048201805480602002602001604051908101604052809291908181526020018280548015611c6a57602002820191906000526020600020905b815481526020019060010190808311611c56575b5050509190925250508151602083015160408401516060850151608090950151929c919b5099509297509550909350505050565b6000838060138054905011611cc55760405162461bcd60e51b81526004016107c490613ae5565b600060138681548110611cda57611cda613b28565b90600052602060002090600502016040518060a0016040529081600082015481526020016001820154815260200160028201548152602001600382018054611d2190613aaa565b80601f0160208091040260200160405190810160405280929190818152602001828054611d4d90613aaa565b8015611d9a5780601f10611d6f57610100808354040283529160200191611d9a565b820191906000526020600020905b815481529060010190602001808311611d7d57829003601f168201915b5050505050815260200160048201805480602002602001604051908101604052809291908181526020018280548015611df257602002820191906000526020600020905b815481526020019060010190808311611dde575b50505050508152505090506000858260000151611e0f9190613b6b565b90505b8151611e1f908690613b6b565b8111611e68576000818152600260205260409020546001600160a01b0316611e56578151611e4d9082613b54565b93505050611ed7565b80611e6081613b9a565b915050611e12565b5060405162461bcd60e51b815260206004820152603960248201527f52414952204552433732313a20546865726520617265206e6f20617661696c6160448201527f626c6520746f6b656e7320696e20746869732072616e67652e0000000000000060648201526084016107c4565b509392505050565b6000818152600d6020526040812054601380549091908110611f0357611f03613b28565b906000526020600020906005020160000154826106b79190613b54565b600081815260106020526040812080546060929190611f3e90613aaa565b80601f0160208091040260200160405190810160405280929190818152602001828054611f6a90613aaa565b8015611fb75780601f10611f8c57610100808354040283529160200191611fb7565b820191906000526020600020905b815481529060010190602001808311611f9a57829003601f168201915b50505050509050600081511115611fce5792915050565b6000838152600d60209081526040808320548352601190915290208054611ff490613aaa565b80601f016020809104026020016040519081016040528092919081815260200182805461202090613aaa565b801561206d5780601f106120425761010080835404028352916020019161206d565b820191906000526020600020905b81548152906001019060200180831161205057829003601f168201915b505050505090506000815111156120b8578061209061208b85611edf565b612777565b6040516020016120a1929190613da0565b604051602081830303815290604052915050919050565b61141c83612875565b6000818152600b602052604081206106b790612928565b600080516020613f408339815191526120f1813361238b565b600084815260116020526040902061210a90848461342e565b507f658b273d88cb66d5790b2e0cb1510b48ab78d39cba1c9cad2df51068c42c607c848484604051610ffe93929190613ccf565b6112058282612932565b600080516020613f40833981519152612161813361238b565b601354600090156121af576013805461217c90600190613b54565b8154811061218c5761218c613b28565b90600052602060002090600502016001015460016121aa9190613b6b565b6121b2565b60005b60138054600181810183556000929092526005027f66de8ffda797e3de9c05e8fc57b3bf0ec28a930d40b0d285d93c06501cf6a090018281559192506121f88584613b6b565b6122029190613b54565b6001820155845161221c90600383019060208801906134b2565b506002810184905560135461223390600190613b54565b7f8d3d82130aebba03bb48b5d158bc2bbb4647856765b1089e7250507307965af986848760405161226693929190613dcf565b60405180910390a25050505050565b60006122a17f872340a532bdd7bb02bea115c1b0f1ba87eac982f5b79b51ac189ffaac1b6fce836119fe565b8061141c57506001600160a01b0380841660009081526005602090815260408083209386168352929052205460ff1661141c565b6122df8282612958565b5050565b600061141c836001600160a01b0384166129de565b60006001600160e01b03198216635a05180f60e01b14806106b757506106b782612a2d565b600081815260046020526040902080546001600160a01b0319166001600160a01b038416908117909155819061235282611535565b6001600160a01b03167f8c5be1e5ebec7d5bd14f71427d1e84f3dd0314c0f7b2291e5b200ac8c7c3b92560405160405180910390a45050565b61239582826119fe565b6122df576123ad816001600160a01b03166014612a52565b6123b8836020612a52565b6040516020016123c9929190613df4565b60408051601f198184030181529082905262461bcd60e51b82526107c4916004016135e2565b6122df828260405180602001604052806000815250612bee565b6000818152600260205260408120546001600160a01b03166124825760405162461bcd60e51b815260206004820152602c60248201527f4552433732313a206f70657261746f7220717565727920666f72206e6f6e657860448201526b34b9ba32b73a103a37b5b2b760a11b60648201526084016107c4565b600061248d83611535565b9050806001600160a01b0316846001600160a01b031614806124c85750836001600160a01b03166124bd8461074f565b6001600160a01b0316145b8061178057506117808185612275565b826001600160a01b03166124eb82611535565b6001600160a01b0316146125535760405162461bcd60e51b815260206004820152602960248201527f4552433732313a207472616e73666572206f6620746f6b656e2074686174206960448201526839903737ba1037bbb760b91b60648201526084016107c4565b6001600160a01b0382166125b55760405162461bcd60e51b8152602060048201526024808201527f4552433732313a207472616e7366657220746f20746865207a65726f206164646044820152637265737360e01b60648201526084016107c4565b6125c0838383612c21565b6125cb60008261231d565b6001600160a01b03831660009081526003602052604081208054600192906125f4908490613b54565b90915550506001600160a01b0382166000908152600360205260408120805460019290612622908490613b6b565b909155505060008181526002602052604080822080546001600160a01b0319166001600160a01b0386811691821790925591518493918716917fddf252ad1be2c89b69c2b068fc378daa952ba7f163c4a11628f55a4df523b3ef91a4505050565b6000828152600a602052604090206001015461269f813361238b565b6108fa8383612958565b6001600160a01b03811633146127195760405162461bcd60e51b815260206004820152602f60248201527f416363657373436f6e74726f6c3a2063616e206f6e6c792072656e6f756e636560448201526e103937b632b9903337b91039b2b63360891b60648201526084016107c4565b6122df8282612d86565b600061141c836001600160a01b038416612ded565b600061141c8383612ee0565b61274f8484846124d8565b61275b84848484612f0a565b611b2f5760405162461bcd60e51b81526004016107c490613e69565b60608161279b5750506040805180820190915260018152600360fc1b602082015290565b8160005b81156127c557806127af81613b9a565b91506127be9050600a83613d78565b915061279f565b60008167ffffffffffffffff8111156127e0576127e06138b6565b6040519080825280601f01601f19166020018201604052801561280a576020820181803683370190505b5090505b84156117805761281f600183613b54565b915061282c600a86613ebb565b612837906030613b6b565b60f81b81838151811061284c5761284c613b28565b60200101906001600160f81b031916908160001a90535061286e600a86613d78565b945061280e565b6000818152600260205260409020546060906001600160a01b03166128f45760405162461bcd60e51b815260206004820152602f60248201527f4552433732314d657461646174613a2055524920717565727920666f72206e6f60448201526e3732bc34b9ba32b73a103a37b5b2b760891b60648201526084016107c4565b60006128fe613014565b9050600081511161291e576040518060200160405280600081525061141c565b8061209084612777565b60006106b7825490565b6000828152600a602052604090206001015461294e813361238b565b6108fa8383612d86565b61296282826119fe565b6122df576000828152600a602090815260408083206001600160a01b03851684529091529020805460ff1916600117905561299a3390565b6001600160a01b0316816001600160a01b0316837f2f8788117e7eff1d82e926ec794901d17c78024a50270940304540a733656f0d60405160405180910390a45050565b6000818152600183016020526040812054612a25575081546001818101845560008481526020808220909301849055845484825282860190935260409020919091556106b7565b5060006106b7565b60006001600160e01b03198216637965db0b60e01b14806106b757506106b782613023565b60606000612a61836002613d43565b612a6c906002613b6b565b67ffffffffffffffff811115612a8457612a846138b6565b6040519080825280601f01601f191660200182016040528015612aae576020820181803683370190505b509050600360fc1b81600081518110612ac957612ac9613b28565b60200101906001600160f81b031916908160001a905350600f60fb1b81600181518110612af857612af8613b28565b60200101906001600160f81b031916908160001a9053506000612b1c846002613d43565b612b27906001613b6b565b90505b6001811115612b9f576f181899199a1a9b1b9c1cb0b131b232b360811b85600f1660108110612b5b57612b5b613b28565b1a60f81b828281518110612b7157612b71613b28565b60200101906001600160f81b031916908160001a90535060049490941c93612b9881613b83565b9050612b2a565b50831561141c5760405162461bcd60e51b815260206004820181905260248201527f537472696e67733a20686578206c656e67746820696e73756666696369656e7460448201526064016107c4565b612bf88383613048565b612c056000848484612f0a565b6108fa5760405162461bcd60e51b81526004016107c490613e69565b6001600160a01b03831615801590612c4157506001600160a01b03821615155b15612d7b576000818152600d6020908152604080832054600e90925290912054601280549091908110612c7657612c76613b28565b9060005260206000209060040201600301541415612d39576000818152600e6020526040902054601280549091908110612cb257612cb2613b28565b906000526020600020906004020160020154600014612d395760405162461bcd60e51b815260206004820152603a60248201527f52414952204552433732313a205472616e736665727320666f7220746869732060448201527f72616e6765206172652063757272656e746c79206c6f636b656400000000000060648201526084016107c4565b33612d4382611535565b6001600160a01b031614612d7b57612d7b7f872340a532bdd7bb02bea115c1b0f1ba87eac982f5b79b51ac189ffaac1b6fce3361238b565b6108fa838383613196565b612d9082826119fe565b156122df576000828152600a602090815260408083206001600160a01b0385168085529252808320805460ff1916905551339285917ff6391f5c32d9c69d2a47ea670b442974b53935d1edc7fd64eb21e047a839171b9190a45050565b60008181526001830160205260408120548015612ed6576000612e11600183613b54565b8554909150600090612e2590600190613b54565b9050818114612e8a576000866000018281548110612e4557612e45613b28565b9060005260206000200154905080876000018481548110612e6857612e68613b28565b6000918252602080832090910192909255918252600188019052604090208390555b8554869080612e9b57612e9b613ecf565b6001900381819060005260206000200160009055905585600101600086815260200190815260200160002060009055600193505050506106b7565b60009150506106b7565b6000826000018281548110612ef757612ef7613b28565b9060005260206000200154905092915050565b60006001600160a01b0384163b1561300c57604051630a85bd0160e11b81526001600160a01b0385169063150b7a0290612f4e903390899088908890600401613ee5565b602060405180830381600087803b158015612f6857600080fd5b505af1925050508015612f98575060408051601f3d908101601f19168201909252612f9591810190613f22565b60015b612ff2573d808015612fc6576040519150601f19603f3d011682016040523d82523d6000602084013e612fcb565b606091505b508051612fea5760405162461bcd60e51b81526004016107c490613e69565b805181602001fd5b6001600160e01b031916630a85bd0160e11b149050611780565b506001611780565b6060600f80546106cc90613aaa565b60006001600160e01b0319821663780e9d6360e01b14806106b757506106b78261324e565b6001600160a01b03821661309e5760405162461bcd60e51b815260206004820181905260248201527f4552433732313a206d696e7420746f20746865207a65726f206164647265737360448201526064016107c4565b6000818152600260205260409020546001600160a01b0316156131035760405162461bcd60e51b815260206004820152601c60248201527f4552433732313a20746f6b656e20616c7265616479206d696e7465640000000060448201526064016107c4565b61310f60008383612c21565b6001600160a01b0382166000908152600360205260408120805460019290613138908490613b6b565b909155505060008181526002602052604080822080546001600160a01b0319166001600160a01b03861690811790915590518392907fddf252ad1be2c89b69c2b068fc378daa952ba7f163c4a11628f55a4df523b3ef908290a45050565b6001600160a01b0383166131f1576131ec81600880546000838152600960205260408120829055600182018355919091527ff3f7a9fe364faab93b216da50a3214154f22a0a2b415b23a84c8169e8b636ee30155565b613214565b816001600160a01b0316836001600160a01b03161461321457613214838261329e565b6001600160a01b03821661322b576108fa8161333b565b826001600160a01b0316826001600160a01b0316146108fa576108fa82826133ea565b60006001600160e01b031982166380ac58cd60e01b148061327f57506001600160e01b03198216635b5e139f60e01b145b806106b757506301ffc9a760e01b6001600160e01b03198316146106b7565b600060016132ab84611788565b6132b59190613b54565b600083815260076020526040902054909150808214613308576001600160a01b03841660009081526006602090815260408083208584528252808320548484528184208190558352600790915290208190555b5060009182526007602090815260408084208490556001600160a01b039094168352600681528383209183525290812055565b60085460009061334d90600190613b54565b6000838152600960205260408120546008805493945090928490811061337557613375613b28565b90600052602060002001549050806008838154811061339657613396613b28565b60009182526020808320909101929092558281526009909152604080822084905585825281205560088054806133ce576133ce613ecf565b6001900381819060005260206000200160009055905550505050565b60006133f583611788565b6001600160a01b039093166000908152600660209081526040808320868452825280832085905593825260079052919091209190915550565b82805461343a90613aaa565b90600052602060002090601f01602090048101928261345c57600085556134a2565b82601f106134755782800160ff198235161785556134a2565b828001600101855582156134a2579182015b828111156134a2578235825591602001919060010190613487565b506134ae929150613526565b5090565b8280546134be90613aaa565b90600052602060002090601f0160209004810192826134e057600085556134a2565b82601f106134f957805160ff19168380011785556134a2565b828001600101855582156134a2579182015b828111156134a257825182559160200191906001019061350b565b5b808211156134ae5760008155600101613527565b6001600160e01b03198116811461355157600080fd5b50565b60006020828403121561356657600080fd5b813561141c8161353b565b60006020828403121561358357600080fd5b5035919050565b60005b838110156135a557818101518382015260200161358d565b83811115611b2f5750506000910152565b600081518084526135ce81602086016020860161358a565b601f01601f19169290920160200192915050565b60208152600061141c60208301846135b6565b80356001600160a01b038116811461360c57600080fd5b919050565b6000806040838503121561362457600080fd5b61362d836135f5565b946020939093013593505050565b60008060006060848603121561365057600080fd5b613659846135f5565b95602085013595506040909401359392505050565b6000806000806080858703121561368457600080fd5b5050823594602084013594506040840135936060013592509050565b60008083601f8401126136b257600080fd5b50813567ffffffffffffffff8111156136ca57600080fd5b60208301915083602082850101111561113c57600080fd5b6000806000604084860312156136f757600080fd5b83359250602084013567ffffffffffffffff81111561371557600080fd5b613721868287016136a0565b9497909650939450505050565b60008060006060848603121561374357600080fd5b61374c846135f5565b925061375a602085016135f5565b9150604084013590509250925092565b6000806040838503121561377d57600080fd5b50508035926020909101359150565b6000806040838503121561379f57600080fd5b823591506137af602084016135f5565b90509250929050565b6000806000606084860312156137cd57600080fd5b505081359360208301359350604090920135919050565b600080602083850312156137f757600080fd5b823567ffffffffffffffff81111561380e57600080fd5b61381a858286016136a0565b90969095509350505050565b6000806000806080858703121561383c57600080fd5b613845856135f5565b966020860135965060408601359560600135945092505050565b60006020828403121561387157600080fd5b61141c826135f5565b6000806040838503121561388d57600080fd5b613896836135f5565b9150602083013580151581146138ab57600080fd5b809150509250929050565b634e487b7160e01b600052604160045260246000fd5b600067ffffffffffffffff808411156138e7576138e76138b6565b604051601f8501601f19908116603f0116810190828211818310171561390f5761390f6138b6565b8160405280935085815286868601111561392857600080fd5b858560208301376000602087830101525050509392505050565b6000806000806080858703121561395857600080fd5b613961856135f5565b935061396f602086016135f5565b925060408501359150606085013567ffffffffffffffff81111561399257600080fd5b8501601f810187136139a357600080fd5b6139b2878235602084016138cc565b91505092959194509250565b85815260006020868184015285604084015260a060608401526139e460a08401866135b6565b838103608085015284518082528286019183019060005b81811015613a17578351835292840192918401916001016139fb565b50909a9950505050505050505050565b60008060408385031215613a3a57600080fd5b823567ffffffffffffffff811115613a5157600080fd5b8301601f81018513613a6257600080fd5b613a71858235602084016138cc565b95602094909401359450505050565b60008060408385031215613a9357600080fd5b613a9c836135f5565b91506137af602084016135f5565b600181811c90821680613abe57607f821691505b60208210811415613adf57634e487b7160e01b600052602260045260246000fd5b50919050565b60208082526023908201527f52414952204552433732313a2050726f6475637420646f6573206e6f742065786040820152621a5cdd60ea1b606082015260800190565b634e487b7160e01b600052603260045260246000fd5b634e487b7160e01b600052601160045260246000fd5b600082821015613b6657613b66613b3e565b500390565b60008219821115613b7e57613b7e613b3e565b500190565b600081613b9257613b92613b3e565b506000190190565b6000600019821415613bae57613bae613b3e565b5060010190565b8054600090600181811c9080831680613bcf57607f831692505b6020808410821415613bf157634e487b7160e01b600052602260045260246000fd5b83885260208801828015613c0c5760018114613c1d57613c48565b60ff19871682528282019750613c48565b60008981526020902060005b87811015613c4257815484820152908601908401613c29565b83019850505b5050505050505092915050565b60208152600061141c6020830184613bb5565b86815285602082015284604082015283606082015260c060808201526000613c9360c0830185613bb5565b90508260a0830152979650505050505050565b81835281816020850137506000828201602090810191909152601f909101601f19169091010190565b838152604060208201526000613ce9604083018486613ca6565b95945050505050565b60208082526031908201527f4552433732313a207472616e736665722063616c6c6572206973206e6f74206f6040820152701ddb995c881b9bdc88185c1c1c9bdd9959607a1b606082015260800190565b6000816000190483118215151615613d5d57613d5d613b3e565b500290565b634e487b7160e01b600052601260045260246000fd5b600082613d8757613d87613d62565b500490565b602081526000611780602083018486613ca6565b60008351613db281846020880161358a565b835190830190613dc681836020880161358a565b01949350505050565b606081526000613de260608301866135b6565b60208301949094525060400152919050565b7f416363657373436f6e74726f6c3a206163636f756e7420000000000000000000815260008351613e2c81601785016020880161358a565b7001034b99036b4b9b9b4b733903937b6329607d1b6017918401918201528351613e5d81602884016020880161358a565b01602801949350505050565b60208082526032908201527f4552433732313a207472616e7366657220746f206e6f6e20455243373231526560408201527131b2b4bb32b91034b6b83632b6b2b73a32b960711b606082015260800190565b600082613eca57613eca613d62565b500690565b634e487b7160e01b600052603160045260246000fd5b6001600160a01b0385811682528416602082015260408101839052608060608201819052600090613f18908301846135b6565b9695505050505050565b600060208284031215613f3457600080fd5b815161141c8161353b56fe3c2519c4487d47714872f92cf90a50c25f5deaec2789dc2a497b1272df611db6a26469706673582212205a8c6dec553a3f6db28e3c6e22969d639c360b706b4b1ae06aac01646b52cf3664736f6c634300080900333c2519c4487d47714872f92cf90a50c25f5deaec2789dc2a497b1272df611db6f0887ba65ee2024ea881d91b74c2450ef19e1557f03bed3ea9f16b037cbe2dc9872340a532bdd7bb02bea115c1b0f1ba87eac982f5b79b51ac189ffaac1b6fce",
  "linkReferences": {},
  "deployedLinkReferences": {}
}