{
  "address": "0x49154582715439AaD8aA285bF6E67fC845b2F411",
  "abi": [
    {
      "anonymous": false,
      "inputs": [
        {
          "indexed": true,
          "internalType": "address",
          "name": "owner",
          "type": "address"
        },
        {
          "indexed": true,
          "internalType": "address",
          "name": "approved",
          "type": "address"
        },
        {
          "indexed": true,
          "internalType": "uint256",
          "name": "tokenId",
          "type": "uint256"
        }
      ],
      "name": "Approval",
      "type": "event"
    },
    {
      "anonymous": false,
      "inputs": [
        {
          "indexed": true,
          "internalType": "address",
          "name": "owner",
          "type": "address"
        },
        {
          "indexed": true,
          "internalType": "address",
          "name": "operator",
          "type": "address"
        },
        {
          "indexed": false,
          "internalType": "bool",
          "name": "approved",
          "type": "bool"
        }
      ],
      "name": "ApprovalForAll",
      "type": "event"
    },
    {
      "anonymous": false,
      "inputs": [
        {
          "indexed": true,
          "internalType": "uint256",
          "name": "productIndex",
          "type": "uint256"
        }
      ],
      "name": "ProductCompleted",
      "type": "event"
    },
    {
      "anonymous": false,
      "inputs": [
        {
          "indexed": true,
          "internalType": "uint256",
          "name": "rangeIndex",
          "type": "uint256"
        },
        {
          "indexed": false,
          "internalType": "uint256",
          "name": "productIndex",
          "type": "uint256"
        }
      ],
      "name": "RangeCompleted",
      "type": "event"
    },
    {
      "anonymous": false,
      "inputs": [
        {
          "indexed": true,
          "internalType": "bytes32",
          "name": "role",
          "type": "bytes32"
        },
        {
          "indexed": true,
          "internalType": "bytes32",
          "name": "previousAdminRole",
          "type": "bytes32"
        },
        {
          "indexed": true,
          "internalType": "bytes32",
          "name": "newAdminRole",
          "type": "bytes32"
        }
      ],
      "name": "RoleAdminChanged",
      "type": "event"
    },
    {
      "anonymous": false,
      "inputs": [
        {
          "indexed": true,
          "internalType": "bytes32",
          "name": "role",
          "type": "bytes32"
        },
        {
          "indexed": true,
          "internalType": "address",
          "name": "account",
          "type": "address"
        },
        {
          "indexed": true,
          "internalType": "address",
          "name": "sender",
          "type": "address"
        }
      ],
      "name": "RoleGranted",
      "type": "event"
    },
    {
      "anonymous": false,
      "inputs": [
        {
          "indexed": true,
          "internalType": "bytes32",
          "name": "role",
          "type": "bytes32"
        },
        {
          "indexed": true,
          "internalType": "address",
          "name": "account",
          "type": "address"
        },
        {
          "indexed": true,
          "internalType": "address",
          "name": "sender",
          "type": "address"
        }
      ],
      "name": "RoleRevoked",
      "type": "event"
    },
    {
      "anonymous": false,
      "inputs": [
        {
          "indexed": true,
          "internalType": "uint256",
          "name": "rangeIndex",
          "type": "uint256"
        },
        {
          "indexed": false,
          "internalType": "uint256",
          "name": "from",
          "type": "uint256"
        },
        {
          "indexed": false,
          "internalType": "uint256",
          "name": "to",
          "type": "uint256"
        }
      ],
      "name": "TradingUnlocked",
      "type": "event"
    },
    {
      "anonymous": false,
      "inputs": [
        {
          "indexed": true,
          "internalType": "address",
          "name": "from",
          "type": "address"
        },
        {
          "indexed": true,
          "internalType": "address",
          "name": "to",
          "type": "address"
        },
        {
          "indexed": true,
          "internalType": "uint256",
          "name": "tokenId",
          "type": "uint256"
        }
      ],
      "name": "Transfer",
      "type": "event"
    },
    {
      "inputs": [],
      "name": "CREATOR",
      "outputs": [
        {
          "internalType": "bytes32",
          "name": "",
          "type": "bytes32"
        }
      ],
      "stateMutability": "view",
      "type": "function"
    },
    {
      "inputs": [],
      "name": "MINTER",
      "outputs": [
        {
          "internalType": "bytes32",
          "name": "",
          "type": "bytes32"
        }
      ],
      "stateMutability": "view",
      "type": "function"
    },
    {
      "inputs": [],
      "name": "TRADER",
      "outputs": [
        {
          "internalType": "bytes32",
          "name": "",
          "type": "bytes32"
        }
      ],
      "stateMutability": "view",
      "type": "function"
    },
    {
      "inputs": [
        {
          "internalType": "address",
          "name": "to",
          "type": "address"
        },
        {
          "internalType": "uint256",
          "name": "tokenId",
          "type": "uint256"
        }
      ],
      "name": "approve",
      "outputs": [],
      "stateMutability": "nonpayable",
      "type": "function"
    },
    {
      "inputs": [
        {
          "internalType": "address",
          "name": "owner",
          "type": "address"
        }
      ],
      "name": "balanceOf",
      "outputs": [
        {
          "internalType": "uint256",
          "name": "",
          "type": "uint256"
        }
      ],
      "stateMutability": "view",
      "type": "function"
    },
    {
      "inputs": [
        {
          "internalType": "uint256",
          "name": "tokenId",
          "type": "uint256"
        }
      ],
      "name": "getApproved",
      "outputs": [
        {
          "internalType": "address",
          "name": "",
          "type": "address"
        }
      ],
      "stateMutability": "view",
      "type": "function"
    },
    {
      "inputs": [
        {
          "internalType": "bytes32",
          "name": "role",
          "type": "bytes32"
        }
      ],
      "name": "getRoleAdmin",
      "outputs": [
        {
          "internalType": "bytes32",
          "name": "",
          "type": "bytes32"
        }
      ],
      "stateMutability": "view",
      "type": "function"
    },
    {
      "inputs": [
        {
          "internalType": "bytes32",
          "name": "role",
          "type": "bytes32"
        },
        {
          "internalType": "uint256",
          "name": "index",
          "type": "uint256"
        }
      ],
      "name": "getRoleMember",
      "outputs": [
        {
          "internalType": "address",
          "name": "",
          "type": "address"
        }
      ],
      "stateMutability": "view",
      "type": "function"
    },
    {
      "inputs": [
        {
          "internalType": "bytes32",
          "name": "role",
          "type": "bytes32"
        }
      ],
      "name": "getRoleMemberCount",
      "outputs": [
        {
          "internalType": "uint256",
          "name": "",
          "type": "uint256"
        }
      ],
      "stateMutability": "view",
      "type": "function"
    },
    {
      "inputs": [
        {
          "internalType": "bytes32",
          "name": "role",
          "type": "bytes32"
        },
        {
          "internalType": "address",
          "name": "account",
          "type": "address"
        }
      ],
      "name": "grantRole",
      "outputs": [],
      "stateMutability": "nonpayable",
      "type": "function"
    },
    {
      "inputs": [
        {
          "internalType": "bytes32",
          "name": "role",
          "type": "bytes32"
        },
        {
          "internalType": "address",
          "name": "account",
          "type": "address"
        }
      ],
      "name": "hasRole",
      "outputs": [
        {
          "internalType": "bool",
          "name": "",
          "type": "bool"
        }
      ],
      "stateMutability": "view",
      "type": "function"
    },
    {
      "inputs": [
        {
          "internalType": "address",
          "name": "owner",
          "type": "address"
        },
        {
          "internalType": "address",
          "name": "operator",
          "type": "address"
        }
      ],
      "name": "isApprovedForAll",
      "outputs": [
        {
          "internalType": "bool",
          "name": "",
          "type": "bool"
        }
      ],
      "stateMutability": "view",
      "type": "function"
    },
    {
      "inputs": [
        {
          "internalType": "address",
          "name": "to",
          "type": "address"
        },
        {
          "internalType": "uint256",
          "name": "rangeId",
          "type": "uint256"
        },
        {
          "internalType": "uint256",
          "name": "indexInRange",
          "type": "uint256"
        }
      ],
      "name": "mintFromRange",
      "outputs": [],
      "stateMutability": "nonpayable",
      "type": "function"
    },
    {
      "inputs": [
        {
          "internalType": "address[]",
          "name": "to",
          "type": "address[]"
        },
        {
          "internalType": "uint256",
          "name": "rangeId",
          "type": "uint256"
        },
        {
          "internalType": "uint256[]",
          "name": "indexInRange",
          "type": "uint256[]"
        }
      ],
      "name": "mintFromRangeBatch",
      "outputs": [],
      "stateMutability": "nonpayable",
      "type": "function"
    },
    {
      "inputs": [],
      "name": "name",
      "outputs": [
        {
          "internalType": "string",
          "name": "",
          "type": "string"
        }
      ],
      "stateMutability": "view",
      "type": "function"
    },
    {
      "inputs": [
        {
          "internalType": "uint256",
          "name": "rangeIndex",
          "type": "uint256"
        }
      ],
      "name": "nextMintableTokenInRange",
      "outputs": [
        {
          "internalType": "uint256",
          "name": "",
          "type": "uint256"
        }
      ],
      "stateMutability": "view",
      "type": "function"
    },
    {
      "inputs": [
        {
          "internalType": "uint256",
          "name": "tokenId",
          "type": "uint256"
        }
      ],
      "name": "ownerOf",
      "outputs": [
        {
          "internalType": "address",
          "name": "",
          "type": "address"
        }
      ],
      "stateMutability": "view",
      "type": "function"
    },
    {
      "inputs": [
        {
          "internalType": "bytes32",
          "name": "role",
          "type": "bytes32"
        },
        {
          "internalType": "address",
          "name": "account",
          "type": "address"
        }
      ],
      "name": "renounceRole",
      "outputs": [],
      "stateMutability": "nonpayable",
      "type": "function"
    },
    {
      "inputs": [
        {
          "internalType": "bytes32",
          "name": "role",
          "type": "bytes32"
        },
        {
          "internalType": "address",
          "name": "account",
          "type": "address"
        }
      ],
      "name": "revokeRole",
      "outputs": [],
      "stateMutability": "nonpayable",
      "type": "function"
    },
    {
      "inputs": [
        {
          "internalType": "address",
          "name": "from",
          "type": "address"
        },
        {
          "internalType": "address",
          "name": "to",
          "type": "address"
        },
        {
          "internalType": "uint256",
          "name": "tokenId",
          "type": "uint256"
        }
      ],
      "name": "safeTransferFrom",
      "outputs": [],
      "stateMutability": "nonpayable",
      "type": "function"
    },
    {
      "inputs": [
        {
          "internalType": "address",
          "name": "from",
          "type": "address"
        },
        {
          "internalType": "address",
          "name": "to",
          "type": "address"
        },
        {
          "internalType": "uint256",
          "name": "tokenId",
          "type": "uint256"
        },
        {
          "internalType": "bytes",
          "name": "_data",
          "type": "bytes"
        }
      ],
      "name": "safeTransferFrom",
      "outputs": [],
      "stateMutability": "nonpayable",
      "type": "function"
    },
    {
      "inputs": [
        {
          "internalType": "address",
          "name": "operator",
          "type": "address"
        },
        {
          "internalType": "bool",
          "name": "approved",
          "type": "bool"
        }
      ],
      "name": "setApprovalForAll",
      "outputs": [],
      "stateMutability": "nonpayable",
      "type": "function"
    },
    {
      "inputs": [],
      "name": "symbol",
      "outputs": [
        {
          "internalType": "string",
          "name": "",
          "type": "string"
        }
      ],
      "stateMutability": "view",
      "type": "function"
    },
    {
      "inputs": [
        {
          "internalType": "uint256",
          "name": "index",
          "type": "uint256"
        }
      ],
      "name": "tokenByIndex",
      "outputs": [
        {
          "internalType": "uint256",
          "name": "",
          "type": "uint256"
        }
      ],
      "stateMutability": "view",
      "type": "function"
    },
    {
      "inputs": [
        {
          "internalType": "address",
          "name": "owner",
          "type": "address"
        },
        {
          "internalType": "uint256",
          "name": "index",
          "type": "uint256"
        }
      ],
      "name": "tokenOfOwnerByIndex",
      "outputs": [
        {
          "internalType": "uint256",
          "name": "",
          "type": "uint256"
        }
      ],
      "stateMutability": "view",
      "type": "function"
    },
    {
      "inputs": [],
      "name": "totalSupply",
      "outputs": [
        {
          "internalType": "uint256",
          "name": "",
          "type": "uint256"
        }
      ],
      "stateMutability": "view",
      "type": "function"
    },
    {
      "inputs": [
        {
          "internalType": "address",
          "name": "from",
          "type": "address"
        },
        {
          "internalType": "address",
          "name": "to",
          "type": "address"
        },
        {
          "internalType": "uint256",
          "name": "tokenId",
          "type": "uint256"
        }
      ],
      "name": "transferFrom",
      "outputs": [],
      "stateMutability": "nonpayable",
      "type": "function"
    }
  ],
  "transactionHash": "0x273a34c088d6e1d16c978dabf43da91e597ed6e7404433a768243eab9b5d4b80",
  "args": [],
  "numDeployments": 1,
  "solcInputHash": "dab41e518a34db4157b5822de8d6a702",
  "bytecode": "0x608060405234801561001057600080fd5b50612962806100206000396000f3fe608060405234801561001057600080fd5b50600436106101a95760003560e01c80635e79824d116100f9578063b88d4fde11610097578063e4fbb60911610071578063e4fbb609146103b4578063e7662243146103db578063e985e9c5146103ee578063fe6d81241461040157600080fd5b8063b88d4fde1461037b578063ca15c8731461038e578063d547741f146103a157600080fd5b80639010d07c116100d35780639010d07c1461032a57806391d148541461033d57806395d89b4114610360578063a22cb4651461036857600080fd5b80635e79824d146102f15780636352211e1461030457806370a082311461031757600080fd5b8063248a9ca3116101665780632f745c59116101405780632f745c59146102a557806336568abe146102b857806342842e0e146102cb5780634f6ccce7146102de57600080fd5b8063248a9ca31461025c578063265423701461027f5780632f2ff15d1461029257600080fd5b806306fdde03146101ae578063081812fc146101cc578063095ea7b3146101f7578063175c4ef81461020c57806318160ddd1461024157806323b872dd14610249575b600080fd5b6101b6610428565b6040516101c39190612348565b60405180910390f35b6101df6101da36600461235b565b6104bc565b6040516001600160a01b0390911681526020016101c3565b61020a610205366004612390565b610556565b005b6102337f872340a532bdd7bb02bea115c1b0f1ba87eac982f5b79b51ac189ffaac1b6fce81565b6040519081526020016101c3565b600854610233565b61020a6102573660046123ba565b61066c565b61023361026a36600461235b565b6000908152600a602052604090206001015490565b61020a61028d366004612442565b61069d565b61020a6102a03660046124bc565b6107f0565b6102336102b3366004612390565b610816565b61020a6102c63660046124bc565b6108af565b61020a6102d93660046123ba565b61092d565b6102336102ec36600461235b565b610948565b6102336102ff36600461235b565b6109dc565b6101df61031236600461235b565b610d4e565b6102336103253660046124e8565b610dc5565b6101df610338366004612503565b610e4c565b61035061034b3660046124bc565b610e6b565b60405190151581526020016101c3565b6101b6610e96565b61020a610376366004612525565b610ea8565b61020a610389366004612577565b610eb3565b61023361039c36600461235b565b610eeb565b61020a6103af3660046124bc565b610f02565b6102337f3c2519c4487d47714872f92cf90a50c25f5deaec2789dc2a497b1272df611db681565b61020a6103e9366004612653565b610f28565b6103506103fc366004612686565b610f5e565b6102337ff0887ba65ee2024ea881d91b74c2450ef19e1557f03bed3ea9f16b037cbe2dc981565b6060600080018054610439906126b0565b80601f0160208091040260200160405190810160405280929190818152602001828054610465906126b0565b80156104b25780601f10610487576101008083540402835291602001916104b2565b820191906000526020600020905b81548152906001019060200180831161049557829003601f168201915b5050505050905090565b6000818152600260205260408120546001600160a01b031661053a5760405162461bcd60e51b815260206004820152602c60248201527f4552433732313a20617070726f76656420717565727920666f72206e6f6e657860448201526b34b9ba32b73a103a37b5b2b760a11b60648201526084015b60405180910390fd5b506000908152600460205260409020546001600160a01b031690565b600061056182610d4e565b9050806001600160a01b0316836001600160a01b031614156105cf5760405162461bcd60e51b815260206004820152602160248201527f4552433732313a20617070726f76616c20746f2063757272656e74206f776e656044820152603960f91b6064820152608401610531565b336001600160a01b03821614806105eb57506105eb8133610f5e565b61065d5760405162461bcd60e51b815260206004820152603860248201527f4552433732313a20617070726f76652063616c6c6572206973206e6f74206f7760448201527f6e6572206e6f7220617070726f76656420666f7220616c6c00000000000000006064820152608401610531565b6106678383610fbf565b505050565b610676338261102d565b6106925760405162461bcd60e51b8152600401610531906126eb565b610667838383611104565b7ff0887ba65ee2024ea881d91b74c2450ef19e1557f03bed3ea9f16b037cbe2dc96106c881336112ab565b846107155760405162461bcd60e51b815260206004820152601860248201527f52414952204552433732313a20456d70747920617272617900000000000000006044820152606401610531565b8482146107815760405162461bcd60e51b815260206004820152603460248201527f52414952204552433732313a20426f7468206172726179732073686f756c64206044820152730d0c2ecca40e8d0ca40e6c2daca40d8cadccee8d60631b6064820152608401610531565b60005b858110156107e7576107d58787838181106107a1576107a161273c565b90506020020160208101906107b691906124e8565b868686858181106107c9576107c961273c565b9050602002013561130f565b806107df81612768565b915050610784565b50505050505050565b6000828152600a602052604090206001015461080c81336112ab565b61066783836117c5565b600061082183610dc5565b82106108835760405162461bcd60e51b815260206004820152602b60248201527f455243373231456e756d657261626c653a206f776e657220696e646578206f7560448201526a74206f6620626f756e647360a81b6064820152608401610531565b506001600160a01b03821660009081526006602090815260408083208484529091529020545b92915050565b6001600160a01b038116331461091f5760405162461bcd60e51b815260206004820152602f60248201527f416363657373436f6e74726f6c3a2063616e206f6e6c792072656e6f756e636560448201526e103937b632b9903337b91039b2b63360891b6064820152608401610531565b610929828261185f565b5050565b61066783838360405180602001604052806000815250610eb3565b600061095360085490565b82106109b65760405162461bcd60e51b815260206004820152602c60248201527f455243373231456e756d657261626c653a20676c6f62616c20696e646578206f60448201526b7574206f6620626f756e647360a01b6064820152608401610531565b60088054839081106109ca576109ca61273c565b90600052602060002001549050919050565b600f546000908210610a415760405162461bcd60e51b815260206004820152602860248201527f52414952204552433732312052616e6765733a2052616e676520646f6573206e6044820152671bdd08195e1a5cdd60c21b6064820152608401610531565b600080600f018381548110610a5857610a5861273c565b90600052602060002090600702016040518060e0016040529081600082015481526020016001820154815260200160028201548152602001600382015481526020016004820154815260200160058201548152602001600682018054610abd906126b0565b80601f0160208091040260200160405190810160405280929190818152602001828054610ae9906126b0565b8015610b365780601f10610b0b57610100808354040283529160200191610b36565b820191906000526020600020905b815481529060010190602001808311610b1957829003601f168201915b50505091909252505050600084815260186020526040812054600e805493945091928110610b6657610b6661273c565b90600052602060002090600502016040518060a0016040529081600082015481526020016001820154815260200160028201548152602001600382018054610bad906126b0565b80601f0160208091040260200160405190810160405280929190818152602001828054610bd9906126b0565b8015610c265780601f10610bfb57610100808354040283529160200191610c26565b820191906000526020600020905b815481529060010190602001808311610c0957829003601f168201915b5050505050815260200160048201805480602002602001604051908101604052809291908181526020018280548015610c7e57602002820191906000526020600020905b815481526020019060010190808311610c6a575b5050509190925250508351919250505b8260200151811015610ce6578151610cc890610cab908390612783565b6000908152600260205260409020546001600160a01b0316151590565b610cd457949350505050565b80610cde81612768565b915050610c8e565b5060405162461bcd60e51b815260206004820152603660248201527f52414952204552433732313a20546865726520617265206e6f20746f6b656e7360448201527520617661696c61626c6520666f72206d696e74696e6760501b6064820152608401610531565b6000818152600260205260408120546001600160a01b0316806108a95760405162461bcd60e51b815260206004820152602960248201527f4552433732313a206f776e657220717565727920666f72206e6f6e657869737460448201526832b73a103a37b5b2b760b91b6064820152608401610531565b60006001600160a01b038216610e305760405162461bcd60e51b815260206004820152602a60248201527f4552433732313a2062616c616e636520717565727920666f7220746865207a65604482015269726f206164647265737360b01b6064820152608401610531565b506001600160a01b031660009081526003602052604090205490565b6000828152600b60205260408120610e6490836118da565b9392505050565b6000918252600a602090815260408084206001600160a01b0393909316845291905290205460ff1690565b606060006001018054610439906126b0565b6109293383836118e6565b610ebd338361102d565b610ed95760405162461bcd60e51b8152600401610531906126eb565b610ee5848484846119b5565b50505050565b6000818152600b602052604081206108a9906119e8565b6000828152600a6020526040902060010154610f1e81336112ab565b610667838361185f565b7ff0887ba65ee2024ea881d91b74c2450ef19e1557f03bed3ea9f16b037cbe2dc9610f5381336112ab565b610ee584848461130f565b6000610f8a7f872340a532bdd7bb02bea115c1b0f1ba87eac982f5b79b51ac189ffaac1b6fce83610e6b565b80610e645750506001600160a01b03918216600090815260056020908152604080832093909416825291909152205460ff1690565b600081815260046020526040902080546001600160a01b0319166001600160a01b0384169081179091558190610ff482610d4e565b6001600160a01b03167f8c5be1e5ebec7d5bd14f71427d1e84f3dd0314c0f7b2291e5b200ac8c7c3b92560405160405180910390a45050565b6000818152600260205260408120546001600160a01b03166110a65760405162461bcd60e51b815260206004820152602c60248201527f4552433732313a206f70657261746f7220717565727920666f72206e6f6e657860448201526b34b9ba32b73a103a37b5b2b760a11b6064820152608401610531565b60006110b183610d4e565b9050806001600160a01b0316846001600160a01b031614806110ec5750836001600160a01b03166110e1846104bc565b6001600160a01b0316145b806110fc57506110fc8185610f5e565b949350505050565b826001600160a01b031661111782610d4e565b6001600160a01b03161461117b5760405162461bcd60e51b815260206004820152602560248201527f4552433732313a207472616e736665722066726f6d20696e636f72726563742060448201526437bbb732b960d91b6064820152608401610531565b6001600160a01b0382166111dd5760405162461bcd60e51b8152602060048201526024808201527f4552433732313a207472616e7366657220746f20746865207a65726f206164646044820152637265737360e01b6064820152608401610531565b6111e88383836119f2565b6111f3600082610fbf565b6001600160a01b038316600090815260036020526040812080546001929061121c90849061279b565b90915550506001600160a01b038216600090815260036020526040812080546001929061124a908490612783565b909155505060008181526002602052604080822080546001600160a01b0319166001600160a01b0386811691821790925591518493918716917fddf252ad1be2c89b69c2b068fc378daa952ba7f163c4a11628f55a4df523b3ef91a4505050565b6112b58282610e6b565b610929576112cd816001600160a01b03166014611b98565b6112d8836020611b98565b6040516020016112e99291906127b2565b60408051601f198184030181529082905262461bcd60e51b825261053191600401612348565b600f54821061136a5760405162461bcd60e51b815260206004820152602160248201527f52414952204552433732313a2052616e676520646f6573206e6f7420657869736044820152601d60fa1b6064820152608401610531565b600080600f0183815481106113815761138161273c565b6000918252602080832086845260189091526040832054600e805460079094029092019450909181106113b6576113b661273c565b9060005260206000209060050201905060008160020154116114405760405162461bcd60e51b815260206004820152603760248201527f52414952204552433732313a2043616e6e6f74206d696e74206d6f726520746f60448201527f6b656e732066726f6d20746869732070726f64756374210000000000000000006064820152608401610531565b60008260030154116114b25760405162461bcd60e51b815260206004820152603560248201527f52414952204552433732313a2043616e6e6f74206d696e74206d6f726520746f6044820152746b656e732066726f6d20746869732072616e67652160581b6064820152608401610531565b600082600201541161152c5760405162461bcd60e51b815260206004820152603d60248201527f52414952204552433732313a204e6f7420616c6c6f77656420746f206d696e7460448201527f206d6f726520746f6b656e732066726f6d20746869732072616e6765210000006064820152608401610531565b81548310801590611541575081600101548311155b61158d5760405162461bcd60e51b815260206004820181905260248201527f52414952204552433732313a20496e76616c696420746f6b656e20696e6465786044820152606401610531565b6115b6858483600001546115a19190612783565b60405180602001604052806000815250611d34565b6002820154156115d8576002820180549060006115d283612827565b91905055505b60038201541561164e576003820180549060006115f483612827565b9091555050600382015461164e576000848152601860205260409081902054905185917fc9ab1ba86a360ece15473f1c6edd6402b347ae87bf9bc3c0172518fd811673999161164591815260200190565b60405180910390a25b6004820154156116c15760048201805490600061166a83612827565b909155505060048201546116c1578154600183015460405186927f83d23f069f5730ce94e107a9258bae3b7a0f97184978fd7daa41c8df8ac6c29e926116b892918252602082015260400190565b60405180910390a25b600281015415611723576002810180549060006116dd83612827565b909155505060028101546117235760008481526018602052604080822054905190917fe213303292163b95c0f90623eb8bc1f2c15b6d888051c10cc662e78204ff042291a25b60008481526018602052604081205482549091601091611744908790612783565b815260200190815260200160002081905550836000601101600085846000015461176e9190612783565b81526020808201929092526040908101600090812093909355868352601882528083205483526016909152902081546117a8908590612783565b815460018101835560009283526020909220909101555050505050565b6117cf8282610e6b565b610929576000828152600a602090815260408083206001600160a01b03851684529091529020805460ff191660011790556118073390565b6001600160a01b0316816001600160a01b0316837f2f8788117e7eff1d82e926ec794901d17c78024a50270940304540a733656f0d60405160405180910390a46000828152600b602052604090206106679082611d67565b6118698282610e6b565b15610929576000828152600a602090815260408083206001600160a01b0385168085529252808320805460ff1916905551339285917ff6391f5c32d9c69d2a47ea670b442974b53935d1edc7fd64eb21e047a839171b9190a46000828152600b602052604090206106679082611d7c565b6000610e648383611d91565b816001600160a01b0316836001600160a01b031614156119485760405162461bcd60e51b815260206004820152601960248201527f4552433732313a20617070726f766520746f2063616c6c6572000000000000006044820152606401610531565b6001600160a01b03838116600081815260056020908152604080832094871680845294825291829020805460ff191686151590811790915591519182527f17307eab39ab6107e8899845ad3d59bd9653f200f220920489ca2b5937696c31910160405180910390a3505050565b6119c0848484611104565b6119cc84848484611dbb565b610ee55760405162461bcd60e51b81526004016105319061283e565b60006108a9825490565b6001600160a01b03831615801590611a1257506001600160a01b03821615155b15611ae057611a417f872340a532bdd7bb02bea115c1b0f1ba87eac982f5b79b51ac189ffaac1b6fce336112ab565b600081815260116020526040902054600f80549091908110611a6557611a6561273c565b906000526020600020906007020160040154600014611ae05760405162461bcd60e51b815260206004820152603160248201527f52414952204552433732313a2043616e6e6f74207472616e736665722066726f6044820152706d2061206c6f636b65642072616e67652160781b6064820152608401610531565b6001600160a01b038316611b3b57611b3681600880546000838152600960205260408120829055600182018355919091527ff3f7a9fe364faab93b216da50a3214154f22a0a2b415b23a84c8169e8b636ee30155565b611b5e565b816001600160a01b0316836001600160a01b031614611b5e57611b5e8382611eb9565b6001600160a01b038216611b755761066781611f56565b826001600160a01b0316826001600160a01b031614610667576106678282612008565b60606000611ba7836002612890565b611bb2906002612783565b67ffffffffffffffff811115611bca57611bca612561565b6040519080825280601f01601f191660200182016040528015611bf4576020820181803683370190505b509050600360fc1b81600081518110611c0f57611c0f61273c565b60200101906001600160f81b031916908160001a905350600f60fb1b81600181518110611c3e57611c3e61273c565b60200101906001600160f81b031916908160001a9053506000611c62846002612890565b611c6d906001612783565b90505b6001811115611ce5576f181899199a1a9b1b9c1cb0b131b232b360811b85600f1660108110611ca157611ca161273c565b1a60f81b828281518110611cb757611cb761273c565b60200101906001600160f81b031916908160001a90535060049490941c93611cde81612827565b9050611c70565b508315610e645760405162461bcd60e51b815260206004820181905260248201527f537472696e67733a20686578206c656e67746820696e73756666696369656e746044820152606401610531565b611d3e838361204c565b611d4b6000848484611dbb565b6106675760405162461bcd60e51b81526004016105319061283e565b6000610e64836001600160a01b0384166121ae565b6000610e64836001600160a01b0384166121fd565b6000826000018281548110611da857611da861273c565b9060005260206000200154905092915050565b60006001600160a01b0384163b15611eae57604051630a85bd0160e11b81526001600160a01b0385169063150b7a0290611dff9033908990889088906004016128af565b6020604051808303816000875af1925050508015611e3a575060408051601f3d908101601f19168201909252611e37918101906128ec565b60015b611e94573d808015611e68576040519150601f19603f3d011682016040523d82523d6000602084013e611e6d565b606091505b508051611e8c5760405162461bcd60e51b81526004016105319061283e565b805181602001fd5b6001600160e01b031916630a85bd0160e11b1490506110fc565b506001949350505050565b60006001611ec684610dc5565b611ed0919061279b565b600083815260076020526040902054909150808214611f23576001600160a01b03841660009081526006602090815260408083208584528252808320548484528184208190558352600790915290208190555b5060009182526007602090815260408084208490556001600160a01b039094168352600681528383209183525290812055565b600854600090611f689060019061279b565b60008381526009602052604081205460088054939450909284908110611f9057611f9061273c565b906000526020600020015490508060006008018381548110611fb457611fb461273c565b6000918252602080832090910192909255828152600990915260408082208490558582528120556008805480611fec57611fec612916565b6001900381819060005260206000200160009055905550505050565b600061201383610dc5565b6001600160a01b039093166000908152600660209081526040808320868452825280832085905593825260079052919091209190915550565b6001600160a01b0382166120a25760405162461bcd60e51b815260206004820181905260248201527f4552433732313a206d696e7420746f20746865207a65726f20616464726573736044820152606401610531565b6000818152600260205260409020546001600160a01b0316156121075760405162461bcd60e51b815260206004820152601c60248201527f4552433732313a20746f6b656e20616c7265616479206d696e746564000000006044820152606401610531565b612113600083836119f2565b6001600160a01b038216600090815260036020526040812080546001929061213c908490612783565b9091555050600081815260026020908152604080832080546001600160a01b0319166001600160a01b0387169081179091556019909252808320805460ff19166001179055518392907fddf252ad1be2c89b69c2b068fc378daa952ba7f163c4a11628f55a4df523b3ef908290a45050565b60008181526001830160205260408120546121f5575081546001818101845560008481526020808220909301849055845484825282860190935260409020919091556108a9565b5060006108a9565b600081815260018301602052604081205480156122e657600061222160018361279b565b85549091506000906122359060019061279b565b905081811461229a5760008660000182815481106122555761225561273c565b90600052602060002001549050808760000184815481106122785761227861273c565b6000918252602080832090910192909255918252600188019052604090208390555b85548690806122ab576122ab612916565b6001900381819060005260206000200160009055905585600101600086815260200190815260200160002060009055600193505050506108a9565b60009150506108a9565b60005b8381101561230b5781810151838201526020016122f3565b83811115610ee55750506000910152565b600081518084526123348160208601602086016122f0565b601f01601f19169290920160200192915050565b602081526000610e64602083018461231c565b60006020828403121561236d57600080fd5b5035919050565b80356001600160a01b038116811461238b57600080fd5b919050565b600080604083850312156123a357600080fd5b6123ac83612374565b946020939093013593505050565b6000806000606084860312156123cf57600080fd5b6123d884612374565b92506123e660208501612374565b9150604084013590509250925092565b60008083601f84011261240857600080fd5b50813567ffffffffffffffff81111561242057600080fd5b6020830191508360208260051b850101111561243b57600080fd5b9250929050565b60008060008060006060868803121561245a57600080fd5b853567ffffffffffffffff8082111561247257600080fd5b61247e89838a016123f6565b909750955060208801359450604088013591508082111561249e57600080fd5b506124ab888289016123f6565b969995985093965092949392505050565b600080604083850312156124cf57600080fd5b823591506124df60208401612374565b90509250929050565b6000602082840312156124fa57600080fd5b610e6482612374565b6000806040838503121561251657600080fd5b50508035926020909101359150565b6000806040838503121561253857600080fd5b61254183612374565b91506020830135801515811461255657600080fd5b809150509250929050565b634e487b7160e01b600052604160045260246000fd5b6000806000806080858703121561258d57600080fd5b61259685612374565b93506125a460208601612374565b925060408501359150606085013567ffffffffffffffff808211156125c857600080fd5b818701915087601f8301126125dc57600080fd5b8135818111156125ee576125ee612561565b604051601f8201601f19908116603f0116810190838211818310171561261657612616612561565b816040528281528a602084870101111561262f57600080fd5b82602086016020830137600060208483010152809550505050505092959194509250565b60008060006060848603121561266857600080fd5b61267184612374565b95602085013595506040909401359392505050565b6000806040838503121561269957600080fd5b6126a283612374565b91506124df60208401612374565b600181811c908216806126c457607f821691505b602082108114156126e557634e487b7160e01b600052602260045260246000fd5b50919050565b60208082526031908201527f4552433732313a207472616e736665722063616c6c6572206973206e6f74206f6040820152701ddb995c881b9bdc88185c1c1c9bdd9959607a1b606082015260800190565b634e487b7160e01b600052603260045260246000fd5b634e487b7160e01b600052601160045260246000fd5b600060001982141561277c5761277c612752565b5060010190565b6000821982111561279657612796612752565b500190565b6000828210156127ad576127ad612752565b500390565b7f416363657373436f6e74726f6c3a206163636f756e74200000000000000000008152600083516127ea8160178501602088016122f0565b7001034b99036b4b9b9b4b733903937b6329607d1b601791840191820152835161281b8160288401602088016122f0565b01602801949350505050565b60008161283657612836612752565b506000190190565b60208082526032908201527f4552433732313a207472616e7366657220746f206e6f6e20455243373231526560408201527131b2b4bb32b91034b6b83632b6b2b73a32b960711b606082015260800190565b60008160001904831182151516156128aa576128aa612752565b500290565b6001600160a01b03858116825284166020820152604081018390526080606082018190526000906128e29083018461231c565b9695505050505050565b6000602082840312156128fe57600080fd5b81516001600160e01b031981168114610e6457600080fd5b634e487b7160e01b600052603160045260246000fdfea2646970667358221220ad8997affb12a829fa93e74bd868e23b6e89532254f6e1cc3d2e4dc720f841f564736f6c634300080b0033",
  "devdoc": {
    "kind": "dev",
    "methods": {
      "isApprovedForAll(address,address)": {
        "details": "Overrides the OpenZeppelin standard by allowing anyone with the TRADER role to transfer tokens",
        "params": {
          "operator": "Operator of the tokens.",
          "owner": "Owner of the tokens."
        }
      },
      "safeTransferFrom(address,address,uint256)": {
        "details": "See {IERC721-safeTransferFrom}."
      },
      "safeTransferFrom(address,address,uint256,bytes)": {
        "details": "See {IERC721-safeTransferFrom}."
      }
    },
    "version": 1
  },
  "userdoc": {
    "kind": "user",
    "methods": {
      "isApprovedForAll(address,address)": {
        "notice": "Queries if an operator can act on behalf of an owner on all of their tokens"
      }
    },
    "version": 1
  },
  "storageLayout": {
    "storage": [
      {
        "astId": 7998,
        "contract": "contracts/tokens/RAIR Token Facets/ERC721Facet.sol:ERC721Facet",
        "label": "s",
        "offset": 0,
        "slot": "0",
        "type": "t_struct(AppStorage721)7984_storage"
      }
    ],
    "types": {
      "t_address": {
        "encoding": "inplace",
        "label": "address",
        "numberOfBytes": "20"
      },
      "t_array(t_bytes32)dyn_storage": {
        "base": "t_bytes32",
        "encoding": "dynamic_array",
        "label": "bytes32[]",
        "numberOfBytes": "32"
      },
      "t_array(t_struct(product)7883_storage)dyn_storage": {
        "base": "t_struct(product)7883_storage",
        "encoding": "dynamic_array",
        "label": "struct product[]",
        "numberOfBytes": "32"
      },
      "t_array(t_struct(range)7871_storage)dyn_storage": {
        "base": "t_struct(range)7871_storage",
        "encoding": "dynamic_array",
        "label": "struct range[]",
        "numberOfBytes": "32"
      },
      "t_array(t_uint256)dyn_storage": {
        "base": "t_uint256",
        "encoding": "dynamic_array",
        "label": "uint256[]",
        "numberOfBytes": "32"
      },
      "t_bool": {
        "encoding": "inplace",
        "label": "bool",
        "numberOfBytes": "1"
      },
      "t_bytes32": {
        "encoding": "inplace",
        "label": "bytes32",
        "numberOfBytes": "32"
      },
      "t_mapping(t_address,t_bool)": {
        "encoding": "mapping",
        "key": "t_address",
        "label": "mapping(address => bool)",
        "numberOfBytes": "32",
        "value": "t_bool"
      },
      "t_mapping(t_address,t_mapping(t_address,t_bool))": {
        "encoding": "mapping",
        "key": "t_address",
        "label": "mapping(address => mapping(address => bool))",
        "numberOfBytes": "32",
        "value": "t_mapping(t_address,t_bool)"
      },
      "t_mapping(t_address,t_mapping(t_uint256,t_uint256))": {
        "encoding": "mapping",
        "key": "t_address",
        "label": "mapping(address => mapping(uint256 => uint256))",
        "numberOfBytes": "32",
        "value": "t_mapping(t_uint256,t_uint256)"
      },
      "t_mapping(t_address,t_uint256)": {
        "encoding": "mapping",
        "key": "t_address",
        "label": "mapping(address => uint256)",
        "numberOfBytes": "32",
        "value": "t_uint256"
      },
      "t_mapping(t_bytes32,t_struct(AddressSet)2662_storage)": {
        "encoding": "mapping",
        "key": "t_bytes32",
        "label": "mapping(bytes32 => struct EnumerableSet.AddressSet)",
        "numberOfBytes": "32",
        "value": "t_struct(AddressSet)2662_storage"
      },
      "t_mapping(t_bytes32,t_struct(RoleData)5744_storage)": {
        "encoding": "mapping",
        "key": "t_bytes32",
        "label": "mapping(bytes32 => struct RoleData)",
        "numberOfBytes": "32",
        "value": "t_struct(RoleData)5744_storage"
      },
      "t_mapping(t_bytes32,t_uint256)": {
        "encoding": "mapping",
        "key": "t_bytes32",
        "label": "mapping(bytes32 => uint256)",
        "numberOfBytes": "32",
        "value": "t_uint256"
      },
      "t_mapping(t_uint256,t_address)": {
        "encoding": "mapping",
        "key": "t_uint256",
        "label": "mapping(uint256 => address)",
        "numberOfBytes": "32",
        "value": "t_address"
      },
      "t_mapping(t_uint256,t_array(t_uint256)dyn_storage)": {
        "encoding": "mapping",
        "key": "t_uint256",
        "label": "mapping(uint256 => uint256[])",
        "numberOfBytes": "32",
        "value": "t_array(t_uint256)dyn_storage"
      },
      "t_mapping(t_uint256,t_bool)": {
        "encoding": "mapping",
        "key": "t_uint256",
        "label": "mapping(uint256 => bool)",
        "numberOfBytes": "32",
        "value": "t_bool"
      },
      "t_mapping(t_uint256,t_string_storage)": {
        "encoding": "mapping",
        "key": "t_uint256",
        "label": "mapping(uint256 => string)",
        "numberOfBytes": "32",
        "value": "t_string_storage"
      },
      "t_mapping(t_uint256,t_uint256)": {
        "encoding": "mapping",
        "key": "t_uint256",
        "label": "mapping(uint256 => uint256)",
        "numberOfBytes": "32",
        "value": "t_uint256"
      },
      "t_string_storage": {
        "encoding": "bytes",
        "label": "string",
        "numberOfBytes": "32"
      },
      "t_struct(AddressSet)2662_storage": {
        "encoding": "inplace",
        "label": "struct EnumerableSet.AddressSet",
        "members": [
          {
            "astId": 2661,
            "contract": "contracts/tokens/RAIR Token Facets/ERC721Facet.sol:ERC721Facet",
            "label": "_inner",
            "offset": 0,
            "slot": "0",
            "type": "t_struct(Set)2361_storage"
          }
        ],
        "numberOfBytes": "64"
      },
      "t_struct(AppStorage721)7984_storage": {
        "encoding": "inplace",
        "label": "struct AppStorage721",
        "members": [
          {
            "astId": 7885,
            "contract": "contracts/tokens/RAIR Token Facets/ERC721Facet.sol:ERC721Facet",
            "label": "_name",
            "offset": 0,
            "slot": "0",
            "type": "t_string_storage"
          },
          {
            "astId": 7887,
            "contract": "contracts/tokens/RAIR Token Facets/ERC721Facet.sol:ERC721Facet",
            "label": "_symbol",
            "offset": 0,
            "slot": "1",
            "type": "t_string_storage"
          },
          {
            "astId": 7891,
            "contract": "contracts/tokens/RAIR Token Facets/ERC721Facet.sol:ERC721Facet",
            "label": "_owners",
            "offset": 0,
            "slot": "2",
            "type": "t_mapping(t_uint256,t_address)"
          },
          {
            "astId": 7895,
            "contract": "contracts/tokens/RAIR Token Facets/ERC721Facet.sol:ERC721Facet",
            "label": "_balances",
            "offset": 0,
            "slot": "3",
            "type": "t_mapping(t_address,t_uint256)"
          },
          {
            "astId": 7899,
            "contract": "contracts/tokens/RAIR Token Facets/ERC721Facet.sol:ERC721Facet",
            "label": "_tokenApprovals",
            "offset": 0,
            "slot": "4",
            "type": "t_mapping(t_uint256,t_address)"
          },
          {
            "astId": 7905,
            "contract": "contracts/tokens/RAIR Token Facets/ERC721Facet.sol:ERC721Facet",
            "label": "_operatorApprovals",
            "offset": 0,
            "slot": "5",
            "type": "t_mapping(t_address,t_mapping(t_address,t_bool))"
          },
          {
            "astId": 7911,
            "contract": "contracts/tokens/RAIR Token Facets/ERC721Facet.sol:ERC721Facet",
            "label": "_ownedTokens",
            "offset": 0,
            "slot": "6",
            "type": "t_mapping(t_address,t_mapping(t_uint256,t_uint256))"
          },
          {
            "astId": 7915,
            "contract": "contracts/tokens/RAIR Token Facets/ERC721Facet.sol:ERC721Facet",
            "label": "_ownedTokensIndex",
            "offset": 0,
            "slot": "7",
            "type": "t_mapping(t_uint256,t_uint256)"
          },
          {
            "astId": 7918,
            "contract": "contracts/tokens/RAIR Token Facets/ERC721Facet.sol:ERC721Facet",
            "label": "_allTokens",
            "offset": 0,
            "slot": "8",
            "type": "t_array(t_uint256)dyn_storage"
          },
          {
            "astId": 7922,
            "contract": "contracts/tokens/RAIR Token Facets/ERC721Facet.sol:ERC721Facet",
            "label": "_allTokensIndex",
            "offset": 0,
            "slot": "9",
            "type": "t_mapping(t_uint256,t_uint256)"
          },
          {
            "astId": 7927,
            "contract": "contracts/tokens/RAIR Token Facets/ERC721Facet.sol:ERC721Facet",
            "label": "_roles",
            "offset": 0,
            "slot": "10",
            "type": "t_mapping(t_bytes32,t_struct(RoleData)5744_storage)"
          },
          {
            "astId": 7932,
            "contract": "contracts/tokens/RAIR Token Facets/ERC721Facet.sol:ERC721Facet",
            "label": "_roleMembers",
            "offset": 0,
            "slot": "11",
            "type": "t_mapping(t_bytes32,t_struct(AddressSet)2662_storage)"
          },
          {
            "astId": 7934,
            "contract": "contracts/tokens/RAIR Token Facets/ERC721Facet.sol:ERC721Facet",
            "label": "baseURI",
            "offset": 0,
            "slot": "12",
            "type": "t_string_storage"
          },
          {
            "astId": 7936,
            "contract": "contracts/tokens/RAIR Token Facets/ERC721Facet.sol:ERC721Facet",
            "label": "factoryAddress",
            "offset": 0,
            "slot": "13",
            "type": "t_address"
          },
          {
            "astId": 7938,
            "contract": "contracts/tokens/RAIR Token Facets/ERC721Facet.sol:ERC721Facet",
            "label": "royaltyFee",
            "offset": 20,
            "slot": "13",
            "type": "t_uint16"
          },
          {
            "astId": 7942,
            "contract": "contracts/tokens/RAIR Token Facets/ERC721Facet.sol:ERC721Facet",
            "label": "products",
            "offset": 0,
            "slot": "14",
            "type": "t_array(t_struct(product)7883_storage)dyn_storage"
          },
          {
            "astId": 7946,
            "contract": "contracts/tokens/RAIR Token Facets/ERC721Facet.sol:ERC721Facet",
            "label": "ranges",
            "offset": 0,
            "slot": "15",
            "type": "t_array(t_struct(range)7871_storage)dyn_storage"
          },
          {
            "astId": 7950,
            "contract": "contracts/tokens/RAIR Token Facets/ERC721Facet.sol:ERC721Facet",
            "label": "tokenToProduct",
            "offset": 0,
            "slot": "16",
            "type": "t_mapping(t_uint256,t_uint256)"
          },
          {
            "astId": 7954,
            "contract": "contracts/tokens/RAIR Token Facets/ERC721Facet.sol:ERC721Facet",
            "label": "tokenToRange",
            "offset": 0,
            "slot": "17",
            "type": "t_mapping(t_uint256,t_uint256)"
          },
          {
            "astId": 7958,
            "contract": "contracts/tokens/RAIR Token Facets/ERC721Facet.sol:ERC721Facet",
            "label": "uniqueTokenURI",
            "offset": 0,
            "slot": "18",
            "type": "t_mapping(t_uint256,t_string_storage)"
          },
          {
            "astId": 7962,
            "contract": "contracts/tokens/RAIR Token Facets/ERC721Facet.sol:ERC721Facet",
            "label": "productURI",
            "offset": 0,
            "slot": "19",
            "type": "t_mapping(t_uint256,t_string_storage)"
          },
          {
            "astId": 7966,
            "contract": "contracts/tokens/RAIR Token Facets/ERC721Facet.sol:ERC721Facet",
            "label": "appendTokenIndexToProductURI",
            "offset": 0,
            "slot": "20",
            "type": "t_mapping(t_uint256,t_bool)"
          },
          {
            "astId": 7968,
            "contract": "contracts/tokens/RAIR Token Facets/ERC721Facet.sol:ERC721Facet",
            "label": "appendTokenIndexToBaseURI",
            "offset": 0,
            "slot": "21",
            "type": "t_bool"
          },
          {
            "astId": 7973,
            "contract": "contracts/tokens/RAIR Token Facets/ERC721Facet.sol:ERC721Facet",
            "label": "tokensByProduct",
            "offset": 0,
            "slot": "22",
            "type": "t_mapping(t_uint256,t_array(t_uint256)dyn_storage)"
          },
          {
            "astId": 7975,
            "contract": "contracts/tokens/RAIR Token Facets/ERC721Facet.sol:ERC721Facet",
            "label": "contractMetadataURI",
            "offset": 0,
            "slot": "23",
            "type": "t_string_storage"
          },
          {
            "astId": 7979,
            "contract": "contracts/tokens/RAIR Token Facets/ERC721Facet.sol:ERC721Facet",
            "label": "rangeToProduct",
            "offset": 0,
            "slot": "24",
            "type": "t_mapping(t_uint256,t_uint256)"
          },
          {
            "astId": 7983,
            "contract": "contracts/tokens/RAIR Token Facets/ERC721Facet.sol:ERC721Facet",
            "label": "_minted",
            "offset": 0,
            "slot": "25",
            "type": "t_mapping(t_uint256,t_bool)"
          }
        ],
        "numberOfBytes": "832"
      },
      "t_struct(RoleData)5744_storage": {
        "encoding": "inplace",
        "label": "struct RoleData",
        "members": [
          {
            "astId": 5741,
            "contract": "contracts/tokens/RAIR Token Facets/ERC721Facet.sol:ERC721Facet",
            "label": "members",
            "offset": 0,
            "slot": "0",
            "type": "t_mapping(t_address,t_bool)"
          },
          {
            "astId": 5743,
            "contract": "contracts/tokens/RAIR Token Facets/ERC721Facet.sol:ERC721Facet",
            "label": "adminRole",
            "offset": 0,
            "slot": "1",
            "type": "t_bytes32"
          }
        ],
        "numberOfBytes": "64"
      },
      "t_struct(Set)2361_storage": {
        "encoding": "inplace",
        "label": "struct EnumerableSet.Set",
        "members": [
          {
            "astId": 2356,
            "contract": "contracts/tokens/RAIR Token Facets/ERC721Facet.sol:ERC721Facet",
            "label": "_values",
            "offset": 0,
            "slot": "0",
            "type": "t_array(t_bytes32)dyn_storage"
          },
          {
            "astId": 2360,
            "contract": "contracts/tokens/RAIR Token Facets/ERC721Facet.sol:ERC721Facet",
            "label": "_indexes",
            "offset": 0,
            "slot": "1",
            "type": "t_mapping(t_bytes32,t_uint256)"
          }
        ],
        "numberOfBytes": "64"
      },
      "t_struct(product)7883_storage": {
        "encoding": "inplace",
        "label": "struct product",
        "members": [
          {
            "astId": 7873,
            "contract": "contracts/tokens/RAIR Token Facets/ERC721Facet.sol:ERC721Facet",
            "label": "startingToken",
            "offset": 0,
            "slot": "0",
            "type": "t_uint256"
          },
          {
            "astId": 7875,
            "contract": "contracts/tokens/RAIR Token Facets/ERC721Facet.sol:ERC721Facet",
            "label": "endingToken",
            "offset": 0,
            "slot": "1",
            "type": "t_uint256"
          },
          {
            "astId": 7877,
            "contract": "contracts/tokens/RAIR Token Facets/ERC721Facet.sol:ERC721Facet",
            "label": "mintableTokens",
            "offset": 0,
            "slot": "2",
            "type": "t_uint256"
          },
          {
            "astId": 7879,
            "contract": "contracts/tokens/RAIR Token Facets/ERC721Facet.sol:ERC721Facet",
            "label": "name",
            "offset": 0,
            "slot": "3",
            "type": "t_string_storage"
          },
          {
            "astId": 7882,
            "contract": "contracts/tokens/RAIR Token Facets/ERC721Facet.sol:ERC721Facet",
            "label": "rangeList",
            "offset": 0,
            "slot": "4",
            "type": "t_array(t_uint256)dyn_storage"
          }
        ],
        "numberOfBytes": "160"
      },
      "t_struct(range)7871_storage": {
        "encoding": "inplace",
        "label": "struct range",
        "members": [
          {
            "astId": 7858,
            "contract": "contracts/tokens/RAIR Token Facets/ERC721Facet.sol:ERC721Facet",
            "label": "rangeStart",
            "offset": 0,
            "slot": "0",
            "type": "t_uint256"
          },
          {
            "astId": 7860,
            "contract": "contracts/tokens/RAIR Token Facets/ERC721Facet.sol:ERC721Facet",
            "label": "rangeEnd",
            "offset": 0,
            "slot": "1",
            "type": "t_uint256"
          },
          {
            "astId": 7862,
            "contract": "contracts/tokens/RAIR Token Facets/ERC721Facet.sol:ERC721Facet",
            "label": "tokensAllowed",
            "offset": 0,
            "slot": "2",
            "type": "t_uint256"
          },
          {
            "astId": 7864,
            "contract": "contracts/tokens/RAIR Token Facets/ERC721Facet.sol:ERC721Facet",
            "label": "mintableTokens",
            "offset": 0,
            "slot": "3",
            "type": "t_uint256"
          },
          {
            "astId": 7866,
            "contract": "contracts/tokens/RAIR Token Facets/ERC721Facet.sol:ERC721Facet",
            "label": "lockedTokens",
            "offset": 0,
            "slot": "4",
            "type": "t_uint256"
          },
          {
            "astId": 7868,
            "contract": "contracts/tokens/RAIR Token Facets/ERC721Facet.sol:ERC721Facet",
            "label": "rangePrice",
            "offset": 0,
            "slot": "5",
            "type": "t_uint256"
          },
          {
            "astId": 7870,
            "contract": "contracts/tokens/RAIR Token Facets/ERC721Facet.sol:ERC721Facet",
            "label": "rangeName",
            "offset": 0,
            "slot": "6",
            "type": "t_string_storage"
          }
        ],
        "numberOfBytes": "224"
      },
      "t_uint16": {
        "encoding": "inplace",
        "label": "uint16",
        "numberOfBytes": "2"
      },
      "t_uint256": {
        "encoding": "inplace",
        "label": "uint256",
        "numberOfBytes": "32"
      }
    }
  }
}