{
  "address": "0xbdd7f46541412C8a9FcF39c572909058375ba7EE",
  "abi": [
    {
      "anonymous": false,
      "inputs": [
        {
          "indexed": false,
          "internalType": "address",
          "name": "erc721Address",
          "type": "address"
        },
        {
          "indexed": false,
          "internalType": "uint256",
          "name": "rangeIndex",
          "type": "uint256"
        },
        {
          "indexed": false,
          "internalType": "string",
          "name": "rangeName",
          "type": "string"
        },
        {
          "indexed": false,
          "internalType": "uint256",
          "name": "price",
          "type": "uint256"
        },
        {
          "indexed": false,
          "internalType": "uint256",
          "name": "feeSplitsLength",
          "type": "uint256"
        },
        {
          "indexed": false,
          "internalType": "uint256",
          "name": "offerIndex",
          "type": "uint256"
        }
      ],
      "name": "AddedMintingOffer",
      "type": "event"
    },
    {
      "anonymous": false,
      "inputs": [
        {
          "indexed": true,
          "internalType": "bytes32",
          "name": "role",
          "type": "bytes32"
        },
        {
          "indexed": true,
          "internalType": "bytes32",
          "name": "previousAdminRole",
          "type": "bytes32"
        },
        {
          "indexed": true,
          "internalType": "bytes32",
          "name": "newAdminRole",
          "type": "bytes32"
        }
      ],
      "name": "RoleAdminChanged",
      "type": "event"
    },
    {
      "anonymous": false,
      "inputs": [
        {
          "indexed": true,
          "internalType": "bytes32",
          "name": "role",
          "type": "bytes32"
        },
        {
          "indexed": true,
          "internalType": "address",
          "name": "account",
          "type": "address"
        },
        {
          "indexed": true,
          "internalType": "address",
          "name": "sender",
          "type": "address"
        }
      ],
      "name": "RoleGranted",
      "type": "event"
    },
    {
      "anonymous": false,
      "inputs": [
        {
          "indexed": true,
          "internalType": "bytes32",
          "name": "role",
          "type": "bytes32"
        },
        {
          "indexed": true,
          "internalType": "address",
          "name": "account",
          "type": "address"
        },
        {
          "indexed": true,
          "internalType": "address",
          "name": "sender",
          "type": "address"
        }
      ],
      "name": "RoleRevoked",
      "type": "event"
    },
    {
      "anonymous": false,
      "inputs": [
        {
          "indexed": false,
          "internalType": "address",
          "name": "erc721Address",
          "type": "address"
        },
        {
          "indexed": false,
          "internalType": "uint256",
          "name": "rangeIndex",
          "type": "uint256"
        },
        {
          "indexed": false,
          "internalType": "uint256",
          "name": "tokenIndex",
          "type": "uint256"
        },
        {
          "indexed": false,
          "internalType": "address",
          "name": "buyer",
          "type": "address"
        }
      ],
      "name": "TokenMinted",
      "type": "event"
    },
    {
      "inputs": [
        {
          "internalType": "address",
          "name": "erc721Address_",
          "type": "address"
        },
        {
          "internalType": "uint256",
          "name": "rangeIndex_",
          "type": "uint256"
        },
        {
          "components": [
            {
              "internalType": "address",
              "name": "recipient",
              "type": "address"
            },
            {
              "internalType": "uint256",
              "name": "percentage",
              "type": "uint256"
            }
          ],
          "internalType": "struct feeSplits[]",
          "name": "splits",
          "type": "tuple[]"
        },
        {
          "internalType": "bool",
          "name": "visible_",
          "type": "bool"
        },
        {
          "internalType": "address",
          "name": "nodeAddress_",
          "type": "address"
        }
      ],
      "name": "addMintingOffer",
      "outputs": [],
      "stateMutability": "nonpayable",
      "type": "function"
    },
    {
      "inputs": [
        {
          "internalType": "address",
          "name": "erc721Address_",
          "type": "address"
        },
        {
          "internalType": "uint256[]",
          "name": "rangeIndexes",
          "type": "uint256[]"
        },
        {
          "components": [
            {
              "internalType": "address",
              "name": "recipient",
              "type": "address"
            },
            {
              "internalType": "uint256",
              "name": "percentage",
              "type": "uint256"
            }
          ],
          "internalType": "struct feeSplits[][]",
          "name": "splits",
          "type": "tuple[][]"
        },
        {
          "internalType": "bool[]",
          "name": "visibility",
          "type": "bool[]"
        },
        {
          "internalType": "address",
          "name": "nodeAddress_",
          "type": "address"
        }
      ],
      "name": "addMintingOfferBatch",
      "outputs": [],
      "stateMutability": "nonpayable",
      "type": "function"
    },
    {
      "inputs": [
        {
          "internalType": "uint256",
          "name": "offerIndex_",
          "type": "uint256"
        },
        {
          "internalType": "uint256",
          "name": "tokenIndex_",
          "type": "uint256"
        }
      ],
      "name": "buyMintingOffer",
      "outputs": [],
      "stateMutability": "payable",
      "type": "function"
    },
    {
      "inputs": [
        {
          "internalType": "uint256",
          "name": "offerIndex_",
          "type": "uint256"
        },
        {
          "internalType": "uint256[]",
          "name": "tokenIndexes",
          "type": "uint256[]"
        },
        {
          "internalType": "address[]",
          "name": "recipients",
          "type": "address[]"
        }
      ],
      "name": "buyMintingOfferBatch",
      "outputs": [],
      "stateMutability": "payable",
      "type": "function"
    },
    {
      "inputs": [
        {
          "internalType": "uint256",
          "name": "offerIndex",
          "type": "uint256"
        }
      ],
      "name": "getOfferInfo",
      "outputs": [
        {
          "components": [
            {
              "internalType": "address",
              "name": "erc721Address",
              "type": "address"
            },
            {
              "internalType": "address",
              "name": "nodeAddress",
              "type": "address"
            },
            {
              "internalType": "uint256",
              "name": "rangeIndex",
              "type": "uint256"
            },
            {
              "components": [
                {
                  "internalType": "address",
                  "name": "recipient",
                  "type": "address"
                },
                {
                  "internalType": "uint256",
                  "name": "percentage",
                  "type": "uint256"
                }
              ],
              "internalType": "struct feeSplits[]",
              "name": "fees",
              "type": "tuple[]"
            },
            {
              "internalType": "bool",
              "name": "visible",
              "type": "bool"
            }
          ],
          "internalType": "struct mintingOffer",
          "name": "mintOffer",
          "type": "tuple"
        },
        {
          "components": [
            {
              "internalType": "uint256",
              "name": "rangeStart",
              "type": "uint256"
            },
            {
              "internalType": "uint256",
              "name": "rangeEnd",
              "type": "uint256"
            },
            {
              "internalType": "uint256",
              "name": "tokensAllowed",
              "type": "uint256"
            },
            {
              "internalType": "uint256",
              "name": "mintableTokens",
              "type": "uint256"
            },
            {
              "internalType": "uint256",
              "name": "lockedTokens",
              "type": "uint256"
            },
            {
              "internalType": "uint256",
              "name": "rangePrice",
              "type": "uint256"
            },
            {
              "internalType": "string",
              "name": "rangeName",
              "type": "string"
            }
          ],
          "internalType": "struct IRAIR721.range",
          "name": "rangeData",
          "type": "tuple"
        },
        {
          "internalType": "uint256",
          "name": "productIndex",
          "type": "uint256"
        }
      ],
      "stateMutability": "view",
      "type": "function"
    },
    {
      "inputs": [
        {
          "internalType": "address",
          "name": "erc721Address",
          "type": "address"
        },
        {
          "internalType": "uint256",
          "name": "rangeIndex",
          "type": "uint256"
        }
      ],
      "name": "getOfferInfoForAddress",
      "outputs": [
        {
          "internalType": "uint256",
          "name": "offerIndex",
          "type": "uint256"
        },
        {
          "components": [
            {
              "internalType": "address",
              "name": "erc721Address",
              "type": "address"
            },
            {
              "internalType": "address",
              "name": "nodeAddress",
              "type": "address"
            },
            {
              "internalType": "uint256",
              "name": "rangeIndex",
              "type": "uint256"
            },
            {
              "components": [
                {
                  "internalType": "address",
                  "name": "recipient",
                  "type": "address"
                },
                {
                  "internalType": "uint256",
                  "name": "percentage",
                  "type": "uint256"
                }
              ],
              "internalType": "struct feeSplits[]",
              "name": "fees",
              "type": "tuple[]"
            },
            {
              "internalType": "bool",
              "name": "visible",
              "type": "bool"
            }
          ],
          "internalType": "struct mintingOffer",
          "name": "mintOffer",
          "type": "tuple"
        },
        {
          "components": [
            {
              "internalType": "uint256",
              "name": "rangeStart",
              "type": "uint256"
            },
            {
              "internalType": "uint256",
              "name": "rangeEnd",
              "type": "uint256"
            },
            {
              "internalType": "uint256",
              "name": "tokensAllowed",
              "type": "uint256"
            },
            {
              "internalType": "uint256",
              "name": "mintableTokens",
              "type": "uint256"
            },
            {
              "internalType": "uint256",
              "name": "lockedTokens",
              "type": "uint256"
            },
            {
              "internalType": "uint256",
              "name": "rangePrice",
              "type": "uint256"
            },
            {
              "internalType": "string",
              "name": "rangeName",
              "type": "string"
            }
          ],
          "internalType": "struct IRAIR721.range",
          "name": "rangeData",
          "type": "tuple"
        },
        {
          "internalType": "uint256",
          "name": "productIndex",
          "type": "uint256"
        }
      ],
      "stateMutability": "view",
      "type": "function"
    },
    {
      "inputs": [
        {
          "internalType": "address",
          "name": "erc721Address",
          "type": "address"
        }
      ],
      "name": "getOffersCountForAddress",
      "outputs": [
        {
          "internalType": "uint256",
          "name": "",
          "type": "uint256"
        }
      ],
      "stateMutability": "view",
      "type": "function"
    },
    {
      "inputs": [
        {
          "internalType": "bytes32",
          "name": "role",
          "type": "bytes32"
        }
      ],
      "name": "getRoleAdmin",
      "outputs": [
        {
          "internalType": "bytes32",
          "name": "",
          "type": "bytes32"
        }
      ],
      "stateMutability": "view",
      "type": "function"
    },
    {
      "inputs": [
        {
          "internalType": "bytes32",
          "name": "role",
          "type": "bytes32"
        },
        {
          "internalType": "uint256",
          "name": "index",
          "type": "uint256"
        }
      ],
      "name": "getRoleMember",
      "outputs": [
        {
          "internalType": "address",
          "name": "",
          "type": "address"
        }
      ],
      "stateMutability": "view",
      "type": "function"
    },
    {
      "inputs": [
        {
          "internalType": "bytes32",
          "name": "role",
          "type": "bytes32"
        }
      ],
      "name": "getRoleMemberCount",
      "outputs": [
        {
          "internalType": "uint256",
          "name": "",
          "type": "uint256"
        }
      ],
      "stateMutability": "view",
      "type": "function"
    },
    {
      "inputs": [],
      "name": "getTotalOfferCount",
      "outputs": [
        {
          "internalType": "uint256",
          "name": "",
          "type": "uint256"
        }
      ],
      "stateMutability": "view",
      "type": "function"
    },
    {
      "inputs": [
        {
          "internalType": "bytes32",
          "name": "role",
          "type": "bytes32"
        },
        {
          "internalType": "address",
          "name": "account",
          "type": "address"
        }
      ],
      "name": "grantRole",
      "outputs": [],
      "stateMutability": "nonpayable",
      "type": "function"
    },
    {
      "inputs": [
        {
          "internalType": "bytes32",
          "name": "role",
          "type": "bytes32"
        },
        {
          "internalType": "address",
          "name": "account",
          "type": "address"
        }
      ],
      "name": "hasRole",
      "outputs": [
        {
          "internalType": "bool",
          "name": "",
          "type": "bool"
        }
      ],
      "stateMutability": "view",
      "type": "function"
    },
    {
      "inputs": [
        {
          "internalType": "bytes32",
          "name": "role",
          "type": "bytes32"
        },
        {
          "internalType": "address",
          "name": "account",
          "type": "address"
        }
      ],
      "name": "renounceRole",
      "outputs": [],
      "stateMutability": "nonpayable",
      "type": "function"
    },
    {
      "inputs": [
        {
          "internalType": "bytes32",
          "name": "role",
          "type": "bytes32"
        },
        {
          "internalType": "address",
          "name": "account",
          "type": "address"
        }
      ],
      "name": "revokeRole",
      "outputs": [],
      "stateMutability": "nonpayable",
      "type": "function"
    }
  ],
  "transactionHash": "0xbb7d3721707adfcd99c48d8828afab8ed3ad710185a61c31e670b22004d531c9",
  "args": [],
  "numDeployments": 6,
  "solcInputHash": "3361f4cffaeaaf8d639b72243d33a483",
  "bytecode": "0x608060405234801561001057600080fd5b50612a5b806100206000396000f3fe6080604052600436106100e85760003560e01c80638b0e2e131161008a5780639c3ac84b116100595780639c3ac84b14610294578063ca15c873146102b4578063d547741f146102d4578063df275c6a146102f457600080fd5b80638b0e2e13146101e75780638bcccedb146102175780639010d07c1461022c57806391d148541461026457600080fd5b80632f2ff15d116100c65780632f2ff15d1461018157806334dbcd4a146101a157806336568abe146101b457806382ec0663146101d457600080fd5b8063248a9ca3146100ed5780632a1da982146101305780632a8512541461015f575b600080fd5b3480156100f957600080fd5b5061011d610108366004611f67565b60009081526020819052604090206001015490565b6040519081526020015b60405180910390f35b34801561013c57600080fd5b5061015061014b366004611f67565b61032a565b604051610127939291906120cd565b34801561016b57600080fd5b5061017f61017a36600461216b565b6104f3565b005b34801561018d57600080fd5b5061017f61019c366004612226565b6106b1565b61017f6101af366004612252565b6106dc565b3480156101c057600080fd5b5061017f6101cf366004612226565b610c35565b61017f6101e23660046122cc565b610cb3565b3480156101f357600080fd5b506102076102023660046122ee565b611074565b6040516101279493929190612318565b34801561022357600080fd5b5060075461011d565b34801561023857600080fd5b5061024c6102473660046122cc565b6112aa565b6040516001600160a01b039091168152602001610127565b34801561027057600080fd5b5061028461027f366004612226565b6112cb565b6040519015158152602001610127565b3480156102a057600080fd5b5061017f6102af366004612371565b6112f4565b3480156102c057600080fd5b5061011d6102cf366004611f67565b61135b565b3480156102e057600080fd5b5061017f6102ef366004612226565b611372565b34801561030057600080fd5b5061011d61030f366004612421565b6001600160a01b031660009081526009602052604090205490565b6040805160a08101825260008082526020820181905291810182905260608082015260808101919091526103946040518060e00160405280600081526020016000815260200160008152602001600081526020016000815260200160008152602001606081525090565b600080600060070185815481106103ad576103ad61243c565b600091825260208083206040805160a081018252600590940290910180546001600160a01b039081168552600182015416848401526002810154848301526003810180548351818602810186019094528084529495919460608701949192909184015b82821015610458576000848152602090819020604080518082019091526002850290910180546001600160a01b03168252600190810154828401529083529092019101610410565b5050509082525060049182015460ff161515602090910152815160408084015190516364cc98df60e11b8152928301529195508592506001600160a01b039091169063c99931be90602401600060405180830381865afa1580156104c0573d6000803e3d6000fd5b505050506040513d6000823e601f3d908101601f191682016040526104e89190810190612519565b949690955092505050565b856105515760405162461bcd60e51b815260206004820152602360248201527f4d696e746572204d61726b6574706c6163653a204e6f206f66666572732073656044820152626e742160e81b60648201526084015b60405180910390fd5b858214801561055f57508382145b6105ca5760405162461bcd60e51b815260206004820152603660248201527f4d696e746572204d61726b6574706c6163653a204172726179732073686f756c6044820152750c840d0c2ecca40e8d0ca40e6c2daca40d8cadccee8d60531b6064820152608401610548565b60005b868110156106a657610694898989848181106105eb576105eb61243c565b905060200201358888858181106106045761060461243c565b905060200281019061061691906125cc565b808060200260200160405190810160405280939291908181526020016000905b828210156106625761065360408302860136819003810190612616565b81526020019060010190610636565b50505050508787868181106106795761067961243c565b905060200201602081019061068e919061266d565b86611398565b8061069e816126a0565b9150506105cd565b505050505050505050565b6000828152602081905260409020600101546106cd8133611958565b6106d783836119bc565b505050565b600754859081106106ff5760405162461bcd60e51b8152600401610548906126bb565b836107585760405162461bcd60e51b815260206004820152602360248201527f4d696e746572204d61726b6574706c6163653a204e6f20746f6b656e732073656044820152626e742160e81b6064820152608401610548565b8382146107db5760405162461bcd60e51b8152602060048201526044602482018190527f4d696e746572204d61726b6574706c6163653a20546f6b656e7320616e642041908201527f64647265737365732073686f756c642068617665207468652073616d65206c656064820152630dccee8d60e31b608482015260a401610548565b60008060070187815481106107f2576107f261243c565b60009182526020909120600590910201600481015490915060ff166108295760405162461bcd60e51b81526004016105489061270b565b805461083d906001600160a01b0316611a54565b6108595760405162461bcd60e51b815260040161054890612768565b805460028201546040516364cc98df60e11b815260048101919091526000916001600160a01b03169063c99931be90602401600060405180830381865afa1580156108a8573d6000803e3d6000fd5b505050506040513d6000823e601f3d908101601f191682016040526108d09190810190612519565b5060a081015190915034906108e69088906127bc565b11156109045760405162461bcd60e51b8152600401610548906127db565b60a08101516000906109179088906127bc565b6109219034612822565b11156109715760a081015133906108fc9061093d9089906127bc565b6109479034612822565b6040518115909202916000818181858888f1935050505015801561096f573d6000803e3d6000fd5b505b6003546000906109829060646127bc565b6005546004546109929190612839565b60a08401516109a2908a906127bc565b6109ac91906127bc565b6109b69190612851565b60018401546003549192506001600160a01b0316906108fc906109da9060646127bc565b60045460a08601516109ed908c906127bc565b6109f791906127bc565b610a019190612851565b6040518115909202916000818181858888f19350505050158015610a29573d6000803e3d6000fd5b506006546003546001600160a01b03909116906108fc90610a4b9060646127bc565b60055460a0860151610a5e908c906127bc565b610a6891906127bc565b610a729190612851565b6040518115909202916000818181858888f19350505050158015610a9a573d6000803e3d6000fd5b506000805b6003850154811015610b8257600354610ab99060646127bc565b856003018281548110610ace57610ace61243c565b9060005260206000209060020201600101548b8b90508660a00151610af391906127bc565b610afd91906127bc565b610b079190612851565b9150610b138284612839565b9250846003018181548110610b2a57610b2a61243c565b600091825260208220600290910201546040516001600160a01b039091169184156108fc02918591818181858888f19350505050158015610b6f573d6000803e3d6000fd5b5080610b7a816126a0565b915050610a9f565b60a0840151610b92908a906127bc565b8314610bb05760405162461bcd60e51b815260040161054890612873565b5060005b88811015610c285784546002860154610c16916001600160a01b0316908c8c85818110610be357610be361243c565b905060200201358b8b86818110610bfc57610bfc61243c565b9050602002016020810190610c119190612421565b611ae5565b80610c20816126a0565b915050610bb4565b5050505050505050505050565b6001600160a01b0381163314610ca55760405162461bcd60e51b815260206004820152602f60248201527f416363657373436f6e74726f6c3a2063616e206f6e6c792072656e6f756e636560448201526e103937b632b9903337b91039b2b63360891b6064820152608401610548565b610caf8282611ba6565b5050565b60075482908110610cd65760405162461bcd60e51b8152600401610548906126bb565b6000806007018481548110610ced57610ced61243c565b60009182526020909120600590910201600481015490915060ff16610d245760405162461bcd60e51b81526004016105489061270b565b8054610d38906001600160a01b0316611a54565b610d545760405162461bcd60e51b815260040161054890612768565b805460028201546040516364cc98df60e11b815260048101919091526000916001600160a01b03169063c99931be90602401600060405180830381865afa158015610da3573d6000803e3d6000fd5b505050506040513d6000823e601f3d908101601f19168201604052610dcb9190810190612519565b509050348160a001511115610df25760405162461bcd60e51b8152600401610548906127db565b60008160a0015134610e049190612822565b1115610e495760a081015133906108fc90610e1f9034612822565b6040518115909202916000818181858888f19350505050158015610e47573d6000803e3d6000fd5b505b600354600090610e5a9060646127bc565b600554600454610e6a9190612839565b8360a00151610e7991906127bc565b610e839190612851565b60018401546003549192506001600160a01b0316906108fc90610ea79060646127bc565b60045460a0860151610eb991906127bc565b610ec39190612851565b6040518115909202916000818181858888f19350505050158015610eeb573d6000803e3d6000fd5b506006546003546001600160a01b03909116906108fc90610f0d9060646127bc565b60055460a0860151610f1f91906127bc565b610f299190612851565b6040518115909202916000818181858888f19350505050158015610f51573d6000803e3d6000fd5b506000805b600385015481101561102b57600354610f709060646127bc565b856003018281548110610f8557610f8561243c565b9060005260206000209060020201600101548560a00151610fa691906127bc565b610fb09190612851565b9150610fbc8284612839565b9250846003018181548110610fd357610fd361243c565b600091825260208220600290910201546040516001600160a01b039091169184156108fc02918591818181858888f19350505050158015611018573d6000803e3d6000fd5b5080611023816126a0565b915050610f56565b508260a00151821461104f5760405162461bcd60e51b815260040161054890612873565b8354600285015461106b916001600160a01b0316908833611ae5565b50505050505050565b6040805160a081018252600080825260208201819052918101829052606080820152608081018290526110dd6040518060e00160405280600081526020016000815260200160008152602001600081526020016000815260200160008152602001606081525090565b6001600160a01b0385166000908152600960205260408120805482916007918890811061110c5761110c61243c565b9060005260206000200154815481106111275761112761243c565b600091825260208083206040805160a081018252600590940290910180546001600160a01b039081168552600182015416848401526002810154848301526003810180548351818602810186019094528084529495919460608701949192909184015b828210156111d2576000848152602090819020604080518082019091526002850290910180546001600160a01b0316825260019081015482840152908352909201910161118a565b5050509082525060049182015460ff161515602090910152815160408084015190516364cc98df60e11b8152928301529192506001600160a01b039091169063c99931be90602401600060405180830381865afa158015611237573d6000803e3d6000fd5b505050506040513d6000823e601f3d908101601f1916820160405261125f9190810190612519565b6001600160a01b0389166000908152600960205260409020805492955090935090879081106112905761129061243c565b906000526020600020015494508093505092959194509250565b60008281526001602052604081206112c29083611c1f565b90505b92915050565b6000918252602082815260408084206001600160a01b0393909316845291905290205460ff1690565b61135386868686808060200260200160405190810160405280939291908181526020016000905b828210156113475761133860408302860136819003810190612616565b8152602001906001019061131b565b50505050508585611398565b505050505050565b60008181526001602052604081206112c590611c2b565b60008281526020819052604090206001015461138e8133611958565b6106d78383611ba6565b604051632474521560e21b81527f3c2519c4487d47714872f92cf90a50c25f5deaec2789dc2a497b1272df611db6600482015233602482015285906001600160a01b038216906391d1485490604401602060405180830381865afa158015611404573d6000803e3d6000fd5b505050506040513d601f19601f8201168201806040525081019061142891906128c0565b61149a5760405162461bcd60e51b815260206004820152603d60248201527f4d696e746572204d61726b6574706c6163653a2053656e6465722069736e277460448201527f207468652063726561746f72206f662074686520636f6e7472616374210000006064820152608401610548565b856114a481611a54565b6114c05760405162461bcd60e51b815260040161054890612768565b6001600160a01b038716600090815260086020908152604080832089845290915290205487908790156115055760405162461bcd60e51b8152600401610548906128dd565b6001600160a01b0382166000908152600860209081526040808320848452909152902054158015611537575060075415155b156115c857816001600160a01b0316600060070160008154811061155d5761155d61243c565b60009182526020909120600590910201546001600160a01b03161415806115ac57508060006007016000815481106115975761159761243c565b90600052602060002090600502016002015414155b6115c85760405162461bcd60e51b8152600401610548906128dd565b6007805460018101825560009182526040516364cc98df60e11b815260059091027fa66cc928b5edb82af9bd49922954155ab7b0942694bea4ce44661d9a8736c6880191906001600160a01b038c169063c99931be90611630908d9060040190815260200190565b600060405180830381865afa15801561164d573d6000803e3d6000fd5b505050506040513d6000823e601f3d908101601f191682016040526116759190810190612519565b50905060008160600151116116f25760405162461bcd60e51b815260206004820152603860248201527f4d696e746572204d61726b6574706c6163653a204f6666657220646f65736e2760448201527f74206861766520746f6b656e7320617661696c61626c652100000000000000006064820152608401610548565b81546001600160a01b03808d166001600160a01b0319928316178455600184018054918a1691909216179055600282018a9055600480830180548a151560ff19909116179055600554905460009161174991612839565b905060005b8a518110156117f3578a81815181106117695761176961243c565b602002602001015160200151826117809190612839565b9150836003018b82815181106117985761179861243c565b602090810291909101810151825460018082018555600094855293839020825160029092020180546001600160a01b0319166001600160a01b03909216919091178155910151910155806117eb816126a0565b91505061174e565b506003546118029060646127bc565b81146118665760405162461bcd60e51b815260206004820152602d60248201527f4d696e746572204d61726b6574706c6163653a204665657320646f6e2774206160448201526c646420757020746f203130302560981b6064820152608401610548565b6001600160a01b038c16600090815260096020526040902060075461188d90600190612822565b8154600181810184556000938452602090932001556007546118af9190612822565b600060080160008e6001600160a01b03166001600160a01b0316815260200190815260200160002060008d8152602001908152602001600020819055507f26d54df15e8a0d68fa0ae9702cf190da88a0e1d48b0ed4c6b1099610b292f5f78c8c8460c001518560a001518e5160016000600701805490506119309190612822565b6040516119429695949392919061292b565b60405180910390a1505050505050505050505050565b61196282826112cb565b610caf5761197a816001600160a01b03166014611c35565b611985836020611c35565b604051602001611996929190612970565b60408051601f198184030181529082905262461bcd60e51b8252610548916004016129e5565b6119c682826112cb565b610caf576000828152602081815260408083206001600160a01b03851684529091529020805460ff191660011790556119fc3390565b6001600160a01b0316816001600160a01b0316837f2f8788117e7eff1d82e926ec794901d17c78024a50270940304540a733656f0d60405160405180910390a460008281526001602052604090206106d79082611dd1565b604051632474521560e21b81527ff0887ba65ee2024ea881d91b74c2450ef19e1557f03bed3ea9f16b037cbe2dc960048201523060248201526000906001600160a01b038316906391d1485490604401602060405180830381865afa158015611ac1573d6000803e3d6000fd5b505050506040513d601f19601f820116820180604052508101906112c591906128c0565b60405163e766224360e01b81526001600160a01b038281166004830152602482018590526044820184905285169063e766224390606401600060405180830381600087803b158015611b3657600080fd5b505af1158015611b4a573d6000803e3d6000fd5b5050604080516001600160a01b038881168252602082018890528183018790528516606082015290517f6a1a369ef3c3eebe428c993f6eb79fb1438544741070bc7a4388c801fa08463d9350908190036080019150a150505050565b611bb082826112cb565b15610caf576000828152602081815260408083206001600160a01b0385168085529252808320805460ff1916905551339285917ff6391f5c32d9c69d2a47ea670b442974b53935d1edc7fd64eb21e047a839171b9190a460008281526001602052604090206106d79082611de6565b60006112c28383611dfb565b60006112c5825490565b60606000611c448360026127bc565b611c4f906002612839565b67ffffffffffffffff811115611c6757611c67612452565b6040519080825280601f01601f191660200182016040528015611c91576020820181803683370190505b509050600360fc1b81600081518110611cac57611cac61243c565b60200101906001600160f81b031916908160001a905350600f60fb1b81600181518110611cdb57611cdb61243c565b60200101906001600160f81b031916908160001a9053506000611cff8460026127bc565b611d0a906001612839565b90505b6001811115611d82576f181899199a1a9b1b9c1cb0b131b232b360811b85600f1660108110611d3e57611d3e61243c565b1a60f81b828281518110611d5457611d5461243c565b60200101906001600160f81b031916908160001a90535060049490941c93611d7b816129f8565b9050611d0d565b5083156112c25760405162461bcd60e51b815260206004820181905260248201527f537472696e67733a20686578206c656e67746820696e73756666696369656e746044820152606401610548565b60006112c2836001600160a01b038416611e25565b60006112c2836001600160a01b038416611e74565b6000826000018281548110611e1257611e1261243c565b9060005260206000200154905092915050565b6000818152600183016020526040812054611e6c575081546001818101845560008481526020808220909301849055845484825282860190935260409020919091556112c5565b5060006112c5565b60008181526001830160205260408120548015611f5d576000611e98600183612822565b8554909150600090611eac90600190612822565b9050818114611f11576000866000018281548110611ecc57611ecc61243c565b9060005260206000200154905080876000018481548110611eef57611eef61243c565b6000918252602080832090910192909255918252600188019052604090208390555b8554869080611f2257611f22612a0f565b6001900381819060005260206000200160009055905585600101600086815260200190815260200160002060009055600193505050506112c5565b60009150506112c5565b600060208284031215611f7957600080fd5b5035919050565b600060a0830160018060a01b0380845116855260208181860151168187015260408086015181880152606086015160a0606089015284815180875260c08a0191508483019650600092505b80831015611ff657865180518716835285015185830152958401956001929092019190830190611fcb565b506080880151955061200c60808a018715159052565b98975050505050505050565b60005b8381101561203357818101518382015260200161201b565b83811115612042576000848401525b50505050565b60008151808452612060816020860160208601612018565b601f01601f19169290920160200192915050565b805182526020810151602083015260408101516040830152606081015160608301526080810151608083015260a081015160a0830152600060c082015160e060c08501526120c560e0850182612048565b949350505050565b6060815260006120e06060830186611f80565b82810360208401526120f28186612074565b915050826040830152949350505050565b80356001600160a01b038116811461211a57600080fd5b919050565b60008083601f84011261213157600080fd5b50813567ffffffffffffffff81111561214957600080fd5b6020830191508360208260051b850101111561216457600080fd5b9250929050565b60008060008060008060008060a0898b03121561218757600080fd5b61219089612103565b9750602089013567ffffffffffffffff808211156121ad57600080fd5b6121b98c838d0161211f565b909950975060408b01359150808211156121d257600080fd5b6121de8c838d0161211f565b909750955060608b01359150808211156121f757600080fd5b506122048b828c0161211f565b9094509250612217905060808a01612103565b90509295985092959890939650565b6000806040838503121561223957600080fd5b8235915061224960208401612103565b90509250929050565b60008060008060006060868803121561226a57600080fd5b85359450602086013567ffffffffffffffff8082111561228957600080fd5b61229589838a0161211f565b909650945060408801359150808211156122ae57600080fd5b506122bb8882890161211f565b969995985093965092949392505050565b600080604083850312156122df57600080fd5b50508035926020909101359150565b6000806040838503121561230157600080fd5b61230a83612103565b946020939093013593505050565b8481526080602082015260006123316080830186611f80565b82810360408401526123438186612074565b91505082606083015295945050505050565b801515811461236357600080fd5b50565b803561211a81612355565b60008060008060008060a0878903121561238a57600080fd5b61239387612103565b955060208701359450604087013567ffffffffffffffff808211156123b757600080fd5b818901915089601f8301126123cb57600080fd5b8135818111156123da57600080fd5b8a60208260061b85010111156123ef57600080fd5b60208301965080955050505061240760608801612366565b915061241560808801612103565b90509295509295509295565b60006020828403121561243357600080fd5b6112c282612103565b634e487b7160e01b600052603260045260246000fd5b634e487b7160e01b600052604160045260246000fd5b60405160e0810167ffffffffffffffff8111828210171561248b5761248b612452565b60405290565b600082601f8301126124a257600080fd5b815167ffffffffffffffff808211156124bd576124bd612452565b604051601f8301601f19908116603f011681019082821181831017156124e5576124e5612452565b816040528381528660208588010111156124fe57600080fd5b61250f846020830160208901612018565b9695505050505050565b6000806040838503121561252c57600080fd5b825167ffffffffffffffff8082111561254457600080fd5b9084019060e0828703121561255857600080fd5b612560612468565b825181526020830151602082015260408301516040820152606083015160608201526080830151608082015260a083015160a082015260c0830151828111156125a857600080fd5b6125b488828601612491565b60c08301525060209590950151949694955050505050565b6000808335601e198436030181126125e357600080fd5b83018035915067ffffffffffffffff8211156125fe57600080fd5b6020019150600681901b360382131561216457600080fd5b60006040828403121561262857600080fd5b6040516040810181811067ffffffffffffffff8211171561264b5761264b612452565b60405261265783612103565b8152602083013560208201528091505092915050565b60006020828403121561267f57600080fd5b81356112c281612355565b634e487b7160e01b600052601160045260246000fd5b60006000198214156126b4576126b461268a565b5060010190565b60208082526030908201527f4d696e74696e67204d61726b6574706c6163653a204d696e74696e67204f666660408201526f195c88191bd95cdb89dd08195e1a5cdd60821b606082015260800190565b60208082526037908201527f4d696e746572204d61726b6574706c6163653a2054686973206f66666572206960408201527f73206e6f7420726561647920746f20626520736f6c6421000000000000000000606082015260800190565b60208082526034908201527f4d696e746572204d61726b6574706c6163653a2054686973204d61726b6574706040820152736c6163652069736e27742061204d696e7465722160601b606082015260800190565b60008160001904831182151516156127d6576127d661268a565b500290565b60208082526027908201527f4d696e746572204d61726b6574706c6163653a20496e73756666696369656e746040820152662066756e64732160c81b606082015260800190565b6000828210156128345761283461268a565b500390565b6000821982111561284c5761284c61268a565b500190565b60008261286e57634e487b7160e01b600052601260045260246000fd5b500490565b6020808252602d908201527f4d696e746572204d61726b6574706c6163653a204572726f72207472616e736660408201526c657272696e672066756e64732160981b606082015260800190565b6000602082840312156128d257600080fd5b81516112c281612355565b6020808252602e908201527f4d696e746572204d61726b6574706c6163653a2052616e676520616c7265616460408201526d3c903430b99030b71037b33332b960911b606082015260800190565b60018060a01b038716815285602082015260c06040820152600061295260c0830187612048565b606083019590955250608081019290925260a0909101529392505050565b7f416363657373436f6e74726f6c3a206163636f756e74200000000000000000008152600083516129a8816017850160208801612018565b7001034b99036b4b9b9b4b733903937b6329607d1b60179184019182015283516129d9816028840160208801612018565b01602801949350505050565b6020815260006112c26020830184612048565b600081612a0757612a0761268a565b506000190190565b634e487b7160e01b600052603160045260246000fdfea2646970667358221220ddabd874e2adc39b728c4b7b221656ac008122ebc8d3b9b171bc9b35b0e676e264736f6c634300080b0033",
  "devdoc": {
    "kind": "dev",
    "methods": {},
    "version": 1
  },
  "userdoc": {
    "kind": "user",
    "methods": {},
    "version": 1
  },
  "storageLayout": {
    "storage": [
      {
        "astId": 3551,
        "contract": "contracts/Marketplace/Facets/MintingOffersFacet.sol:MintingOffersFacet",
        "label": "s",
        "offset": 0,
        "slot": "0",
        "type": "t_struct(AppStorage)3533_storage"
      }
    ],
    "types": {
      "t_address": {
        "encoding": "inplace",
        "label": "address",
        "numberOfBytes": "20"
      },
      "t_array(t_bytes32)dyn_storage": {
        "base": "t_bytes32",
        "encoding": "dynamic_array",
        "label": "bytes32[]",
        "numberOfBytes": "32"
      },
      "t_array(t_struct(feeSplits)3477_storage)dyn_storage": {
        "base": "t_struct(feeSplits)3477_storage",
        "encoding": "dynamic_array",
        "label": "struct feeSplits[]",
        "numberOfBytes": "32"
      },
      "t_array(t_struct(mintingOffer)3490_storage)dyn_storage": {
        "base": "t_struct(mintingOffer)3490_storage",
        "encoding": "dynamic_array",
        "label": "struct mintingOffer[]",
        "numberOfBytes": "32"
      },
      "t_array(t_uint256)dyn_storage": {
        "base": "t_uint256",
        "encoding": "dynamic_array",
        "label": "uint256[]",
        "numberOfBytes": "32"
      },
      "t_bool": {
        "encoding": "inplace",
        "label": "bool",
        "numberOfBytes": "1"
      },
      "t_bytes32": {
        "encoding": "inplace",
        "label": "bytes32",
        "numberOfBytes": "32"
      },
      "t_mapping(t_address,t_array(t_uint256)dyn_storage)": {
        "encoding": "mapping",
        "key": "t_address",
        "label": "mapping(address => uint256[])",
        "numberOfBytes": "32",
        "value": "t_array(t_uint256)dyn_storage"
      },
      "t_mapping(t_address,t_bool)": {
        "encoding": "mapping",
        "key": "t_address",
        "label": "mapping(address => bool)",
        "numberOfBytes": "32",
        "value": "t_bool"
      },
      "t_mapping(t_address,t_mapping(t_uint256,t_uint256))": {
        "encoding": "mapping",
        "key": "t_address",
        "label": "mapping(address => mapping(uint256 => uint256))",
        "numberOfBytes": "32",
        "value": "t_mapping(t_uint256,t_uint256)"
      },
      "t_mapping(t_bytes32,t_struct(AddressSet)2428_storage)": {
        "encoding": "mapping",
        "key": "t_bytes32",
        "label": "mapping(bytes32 => struct EnumerableSet.AddressSet)",
        "numberOfBytes": "32",
        "value": "t_struct(AddressSet)2428_storage"
      },
      "t_mapping(t_bytes32,t_struct(RoleData)3497_storage)": {
        "encoding": "mapping",
        "key": "t_bytes32",
        "label": "mapping(bytes32 => struct RoleData)",
        "numberOfBytes": "32",
        "value": "t_struct(RoleData)3497_storage"
      },
      "t_mapping(t_bytes32,t_uint256)": {
        "encoding": "mapping",
        "key": "t_bytes32",
        "label": "mapping(bytes32 => uint256)",
        "numberOfBytes": "32",
        "value": "t_uint256"
      },
      "t_mapping(t_uint256,t_uint256)": {
        "encoding": "mapping",
        "key": "t_uint256",
        "label": "mapping(uint256 => uint256)",
        "numberOfBytes": "32",
        "value": "t_uint256"
      },
      "t_struct(AddressSet)2428_storage": {
        "encoding": "inplace",
        "label": "struct EnumerableSet.AddressSet",
        "members": [
          {
            "astId": 2427,
            "contract": "contracts/Marketplace/Facets/MintingOffersFacet.sol:MintingOffersFacet",
            "label": "_inner",
            "offset": 0,
            "slot": "0",
            "type": "t_struct(Set)2127_storage"
          }
        ],
        "numberOfBytes": "64"
      },
      "t_struct(AppStorage)3533_storage": {
        "encoding": "inplace",
        "label": "struct AppStorage",
        "members": [
          {
            "astId": 3502,
            "contract": "contracts/Marketplace/Facets/MintingOffersFacet.sol:MintingOffersFacet",
            "label": "_roles",
            "offset": 0,
            "slot": "0",
            "type": "t_mapping(t_bytes32,t_struct(RoleData)3497_storage)"
          },
          {
            "astId": 3507,
            "contract": "contracts/Marketplace/Facets/MintingOffersFacet.sol:MintingOffersFacet",
            "label": "_roleMembers",
            "offset": 0,
            "slot": "1",
            "type": "t_mapping(t_bytes32,t_struct(AddressSet)2428_storage)"
          },
          {
            "astId": 3509,
            "contract": "contracts/Marketplace/Facets/MintingOffersFacet.sol:MintingOffersFacet",
            "label": "decimals",
            "offset": 0,
            "slot": "2",
            "type": "t_uint16"
          },
          {
            "astId": 3511,
            "contract": "contracts/Marketplace/Facets/MintingOffersFacet.sol:MintingOffersFacet",
            "label": "decimalPow",
            "offset": 0,
            "slot": "3",
            "type": "t_uint256"
          },
          {
            "astId": 3513,
            "contract": "contracts/Marketplace/Facets/MintingOffersFacet.sol:MintingOffersFacet",
            "label": "nodeFee",
            "offset": 0,
            "slot": "4",
            "type": "t_uint256"
          },
          {
            "astId": 3515,
            "contract": "contracts/Marketplace/Facets/MintingOffersFacet.sol:MintingOffersFacet",
            "label": "treasuryFee",
            "offset": 0,
            "slot": "5",
            "type": "t_uint256"
          },
          {
            "astId": 3517,
            "contract": "contracts/Marketplace/Facets/MintingOffersFacet.sol:MintingOffersFacet",
            "label": "treasuryAddress",
            "offset": 0,
            "slot": "6",
            "type": "t_address"
          },
          {
            "astId": 3521,
            "contract": "contracts/Marketplace/Facets/MintingOffersFacet.sol:MintingOffersFacet",
            "label": "mintingOffers",
            "offset": 0,
            "slot": "7",
            "type": "t_array(t_struct(mintingOffer)3490_storage)dyn_storage"
          },
          {
            "astId": 3527,
            "contract": "contracts/Marketplace/Facets/MintingOffersFacet.sol:MintingOffersFacet",
            "label": "addressToRangeOffer",
            "offset": 0,
            "slot": "8",
            "type": "t_mapping(t_address,t_mapping(t_uint256,t_uint256))"
          },
          {
            "astId": 3532,
            "contract": "contracts/Marketplace/Facets/MintingOffersFacet.sol:MintingOffersFacet",
            "label": "addressToOffers",
            "offset": 0,
            "slot": "9",
            "type": "t_mapping(t_address,t_array(t_uint256)dyn_storage)"
          }
        ],
        "numberOfBytes": "320"
      },
      "t_struct(RoleData)3497_storage": {
        "encoding": "inplace",
        "label": "struct RoleData",
        "members": [
          {
            "astId": 3494,
            "contract": "contracts/Marketplace/Facets/MintingOffersFacet.sol:MintingOffersFacet",
            "label": "members",
            "offset": 0,
            "slot": "0",
            "type": "t_mapping(t_address,t_bool)"
          },
          {
            "astId": 3496,
            "contract": "contracts/Marketplace/Facets/MintingOffersFacet.sol:MintingOffersFacet",
            "label": "adminRole",
            "offset": 0,
            "slot": "1",
            "type": "t_bytes32"
          }
        ],
        "numberOfBytes": "64"
      },
      "t_struct(Set)2127_storage": {
        "encoding": "inplace",
        "label": "struct EnumerableSet.Set",
        "members": [
          {
            "astId": 2122,
            "contract": "contracts/Marketplace/Facets/MintingOffersFacet.sol:MintingOffersFacet",
            "label": "_values",
            "offset": 0,
            "slot": "0",
            "type": "t_array(t_bytes32)dyn_storage"
          },
          {
            "astId": 2126,
            "contract": "contracts/Marketplace/Facets/MintingOffersFacet.sol:MintingOffersFacet",
            "label": "_indexes",
            "offset": 0,
            "slot": "1",
            "type": "t_mapping(t_bytes32,t_uint256)"
          }
        ],
        "numberOfBytes": "64"
      },
      "t_struct(feeSplits)3477_storage": {
        "encoding": "inplace",
        "label": "struct feeSplits",
        "members": [
          {
            "astId": 3474,
            "contract": "contracts/Marketplace/Facets/MintingOffersFacet.sol:MintingOffersFacet",
            "label": "recipient",
            "offset": 0,
            "slot": "0",
            "type": "t_address"
          },
          {
            "astId": 3476,
            "contract": "contracts/Marketplace/Facets/MintingOffersFacet.sol:MintingOffersFacet",
            "label": "percentage",
            "offset": 0,
            "slot": "1",
            "type": "t_uint256"
          }
        ],
        "numberOfBytes": "64"
      },
      "t_struct(mintingOffer)3490_storage": {
        "encoding": "inplace",
        "label": "struct mintingOffer",
        "members": [
          {
            "astId": 3479,
            "contract": "contracts/Marketplace/Facets/MintingOffersFacet.sol:MintingOffersFacet",
            "label": "erc721Address",
            "offset": 0,
            "slot": "0",
            "type": "t_address"
          },
          {
            "astId": 3481,
            "contract": "contracts/Marketplace/Facets/MintingOffersFacet.sol:MintingOffersFacet",
            "label": "nodeAddress",
            "offset": 0,
            "slot": "1",
            "type": "t_address"
          },
          {
            "astId": 3483,
            "contract": "contracts/Marketplace/Facets/MintingOffersFacet.sol:MintingOffersFacet",
            "label": "rangeIndex",
            "offset": 0,
            "slot": "2",
            "type": "t_uint256"
          },
          {
            "astId": 3487,
            "contract": "contracts/Marketplace/Facets/MintingOffersFacet.sol:MintingOffersFacet",
            "label": "fees",
            "offset": 0,
            "slot": "3",
            "type": "t_array(t_struct(feeSplits)3477_storage)dyn_storage"
          },
          {
            "astId": 3489,
            "contract": "contracts/Marketplace/Facets/MintingOffersFacet.sol:MintingOffersFacet",
            "label": "visible",
            "offset": 0,
            "slot": "4",
            "type": "t_bool"
          }
        ],
        "numberOfBytes": "160"
      },
      "t_uint16": {
        "encoding": "inplace",
        "label": "uint16",
        "numberOfBytes": "2"
      },
      "t_uint256": {
        "encoding": "inplace",
        "label": "uint256",
        "numberOfBytes": "32"
      }
    }
  }
}