{
  "address": "0xe1BBd1d2B2B52042CC3B766Fb72AA2804e402B2e",
  "abi": [
    {
      "inputs": [
        {
          "internalType": "uint256",
          "name": "_pricePerToken",
          "type": "uint256"
        },
        {
          "internalType": "address",
          "name": "_rairAddress",
          "type": "address"
        }
      ],
      "stateMutability": "nonpayable",
      "type": "constructor"
    },
    {
      "anonymous": false,
      "inputs": [
        {
          "indexed": false,
          "internalType": "address",
          "name": "owner",
          "type": "address"
        },
        {
          "indexed": false,
          "internalType": "uint256",
          "name": "id",
          "type": "uint256"
        },
        {
          "indexed": false,
          "internalType": "address",
          "name": "token",
          "type": "address"
        },
        {
          "indexed": false,
          "internalType": "string",
          "name": "contractName",
          "type": "string"
        }
      ],
      "name": "NewContractDeployed",
      "type": "event"
    },
    {
      "anonymous": false,
      "inputs": [
        {
          "indexed": false,
          "internalType": "address",
          "name": "erc777",
          "type": "address"
        },
        {
          "indexed": false,
          "internalType": "uint256",
          "name": "priceForNFT",
          "type": "uint256"
        }
      ],
      "name": "NewTokensAccepted",
      "type": "event"
    },
    {
      "anonymous": false,
      "inputs": [
        {
          "indexed": true,
          "internalType": "bytes32",
          "name": "role",
          "type": "bytes32"
        },
        {
          "indexed": true,
          "internalType": "bytes32",
          "name": "previousAdminRole",
          "type": "bytes32"
        },
        {
          "indexed": true,
          "internalType": "bytes32",
          "name": "newAdminRole",
          "type": "bytes32"
        }
      ],
      "name": "RoleAdminChanged",
      "type": "event"
    },
    {
      "anonymous": false,
      "inputs": [
        {
          "indexed": true,
          "internalType": "bytes32",
          "name": "role",
          "type": "bytes32"
        },
        {
          "indexed": true,
          "internalType": "address",
          "name": "account",
          "type": "address"
        },
        {
          "indexed": true,
          "internalType": "address",
          "name": "sender",
          "type": "address"
        }
      ],
      "name": "RoleGranted",
      "type": "event"
    },
    {
      "anonymous": false,
      "inputs": [
        {
          "indexed": true,
          "internalType": "bytes32",
          "name": "role",
          "type": "bytes32"
        },
        {
          "indexed": true,
          "internalType": "address",
          "name": "account",
          "type": "address"
        },
        {
          "indexed": true,
          "internalType": "address",
          "name": "sender",
          "type": "address"
        }
      ],
      "name": "RoleRevoked",
      "type": "event"
    },
    {
      "anonymous": false,
      "inputs": [
        {
          "indexed": false,
          "internalType": "address",
          "name": "erc777",
          "type": "address"
        }
      ],
      "name": "TokenNoLongerAccepted",
      "type": "event"
    },
    {
      "anonymous": false,
      "inputs": [
        {
          "indexed": false,
          "internalType": "address",
          "name": "recipient",
          "type": "address"
        },
        {
          "indexed": false,
          "internalType": "address",
          "name": "erc777",
          "type": "address"
        },
        {
          "indexed": false,
          "internalType": "uint256",
          "name": "amount",
          "type": "uint256"
        }
      ],
      "name": "TokensWithdrawn",
      "type": "event"
    },
    {
      "inputs": [],
      "name": "DEFAULT_ADMIN_ROLE",
      "outputs": [
        {
          "internalType": "bytes32",
          "name": "",
          "type": "bytes32"
        }
      ],
      "stateMutability": "view",
      "type": "function"
    },
    {
      "inputs": [],
      "name": "ERC777",
      "outputs": [
        {
          "internalType": "bytes32",
          "name": "",
          "type": "bytes32"
        }
      ],
      "stateMutability": "view",
      "type": "function"
    },
    {
      "inputs": [],
      "name": "OWNER",
      "outputs": [
        {
          "internalType": "bytes32",
          "name": "",
          "type": "bytes32"
        }
      ],
      "stateMutability": "view",
      "type": "function"
    },
    {
      "inputs": [
        {
          "internalType": "address",
          "name": "_erc777Address",
          "type": "address"
        },
        {
          "internalType": "uint256",
          "name": "_pricePerToken",
          "type": "uint256"
        }
      ],
      "name": "add777Token",
      "outputs": [],
      "stateMutability": "nonpayable",
      "type": "function"
    },
    {
      "inputs": [
        {
          "internalType": "address",
          "name": "",
          "type": "address"
        }
      ],
      "name": "contractToOwner",
      "outputs": [
        {
          "internalType": "address",
          "name": "",
          "type": "address"
        }
      ],
      "stateMutability": "view",
      "type": "function"
    },
    {
      "inputs": [
        {
          "internalType": "uint256",
          "name": "",
          "type": "uint256"
        }
      ],
      "name": "creators",
      "outputs": [
        {
          "internalType": "address",
          "name": "",
          "type": "address"
        }
      ],
      "stateMutability": "view",
      "type": "function"
    },
    {
      "inputs": [
        {
          "internalType": "address",
          "name": "",
          "type": "address"
        }
      ],
      "name": "deploymentCostForERC777",
      "outputs": [
        {
          "internalType": "uint256",
          "name": "",
          "type": "uint256"
        }
      ],
      "stateMutability": "view",
      "type": "function"
    },
    {
      "inputs": [
        {
          "internalType": "address",
          "name": "deployer",
          "type": "address"
        }
      ],
      "name": "getContractCountOf",
      "outputs": [
        {
          "internalType": "uint256",
          "name": "count",
          "type": "uint256"
        }
      ],
      "stateMutability": "view",
      "type": "function"
    },
    {
      "inputs": [],
      "name": "getCreatorsCount",
      "outputs": [
        {
          "internalType": "uint256",
          "name": "count",
          "type": "uint256"
        }
      ],
      "stateMutability": "view",
      "type": "function"
    },
    {
      "inputs": [
        {
          "internalType": "bytes32",
          "name": "role",
          "type": "bytes32"
        }
      ],
      "name": "getRoleAdmin",
      "outputs": [
        {
          "internalType": "bytes32",
          "name": "",
          "type": "bytes32"
        }
      ],
      "stateMutability": "view",
      "type": "function"
    },
    {
      "inputs": [
        {
          "internalType": "bytes32",
          "name": "role",
          "type": "bytes32"
        },
        {
          "internalType": "uint256",
          "name": "index",
          "type": "uint256"
        }
      ],
      "name": "getRoleMember",
      "outputs": [
        {
          "internalType": "address",
          "name": "",
          "type": "address"
        }
      ],
      "stateMutability": "view",
      "type": "function"
    },
    {
      "inputs": [
        {
          "internalType": "bytes32",
          "name": "role",
          "type": "bytes32"
        }
      ],
      "name": "getRoleMemberCount",
      "outputs": [
        {
          "internalType": "uint256",
          "name": "",
          "type": "uint256"
        }
      ],
      "stateMutability": "view",
      "type": "function"
    },
    {
      "inputs": [
        {
          "internalType": "bytes32",
          "name": "role",
          "type": "bytes32"
        },
        {
          "internalType": "address",
          "name": "account",
          "type": "address"
        }
      ],
      "name": "grantRole",
      "outputs": [],
      "stateMutability": "nonpayable",
      "type": "function"
    },
    {
      "inputs": [
        {
          "internalType": "bytes32",
          "name": "role",
          "type": "bytes32"
        },
        {
          "internalType": "address",
          "name": "account",
          "type": "address"
        }
      ],
      "name": "hasRole",
      "outputs": [
        {
          "internalType": "bool",
          "name": "",
          "type": "bool"
        }
      ],
      "stateMutability": "view",
      "type": "function"
    },
    {
      "inputs": [
        {
          "internalType": "address",
          "name": "",
          "type": "address"
        },
        {
          "internalType": "uint256",
          "name": "",
          "type": "uint256"
        }
      ],
      "name": "ownerToContracts",
      "outputs": [
        {
          "internalType": "address",
          "name": "",
          "type": "address"
        }
      ],
      "stateMutability": "view",
      "type": "function"
    },
    {
      "inputs": [
        {
          "internalType": "address",
          "name": "_erc777Address",
          "type": "address"
        }
      ],
      "name": "remove777Token",
      "outputs": [],
      "stateMutability": "nonpayable",
      "type": "function"
    },
    {
      "inputs": [
        {
          "internalType": "bytes32",
          "name": "role",
          "type": "bytes32"
        },
        {
          "internalType": "address",
          "name": "account",
          "type": "address"
        }
      ],
      "name": "renounceRole",
      "outputs": [],
      "stateMutability": "nonpayable",
      "type": "function"
    },
    {
      "inputs": [
        {
          "internalType": "bytes32",
          "name": "role",
          "type": "bytes32"
        },
        {
          "internalType": "address",
          "name": "account",
          "type": "address"
        }
      ],
      "name": "revokeRole",
      "outputs": [],
      "stateMutability": "nonpayable",
      "type": "function"
    },
    {
      "inputs": [
        {
          "internalType": "bytes4",
          "name": "interfaceId",
          "type": "bytes4"
        }
      ],
      "name": "supportsInterface",
      "outputs": [
        {
          "internalType": "bool",
          "name": "",
          "type": "bool"
        }
      ],
      "stateMutability": "view",
      "type": "function"
    },
    {
      "inputs": [
        {
          "internalType": "address",
          "name": "operator",
          "type": "address"
        },
        {
          "internalType": "address",
          "name": "from",
          "type": "address"
        },
        {
          "internalType": "address",
          "name": "to",
          "type": "address"
        },
        {
          "internalType": "uint256",
          "name": "amount",
          "type": "uint256"
        },
        {
          "internalType": "bytes",
          "name": "userData",
          "type": "bytes"
        },
        {
          "internalType": "bytes",
          "name": "operatorData",
          "type": "bytes"
        }
      ],
      "name": "tokensReceived",
      "outputs": [],
      "stateMutability": "nonpayable",
      "type": "function"
    },
    {
      "inputs": [
        {
          "internalType": "address",
          "name": "erc777",
          "type": "address"
        },
        {
          "internalType": "uint256",
          "name": "amount",
          "type": "uint256"
        }
      ],
      "name": "withdrawTokens",
      "outputs": [],
      "stateMutability": "nonpayable",
      "type": "function"
    }
  ],
  "transactionHash": "0xb544c8067b789b132f5f94a93a7d62e8b914564aedd1afe87971fe8dce2b34d8",
  "args": [
    "15000000000000000000",
    "0x0Ce668D271b8016a785Bf146e58739F432300B12"
  ],
  "numDeployments": 2,
  "solcInputHash": "82d4d416061727ee70c0fd2a6acb91a6",
  "bytecode": "0x60806040523480156200001157600080fd5b506040516200618c3803806200618c833981016040819052620000349162000361565b6040516329965a1d60e01b815230600482018190527fb281fc8c12954d22544db45de3159a39272895b169a852b314f9cc762e44c53b60248301526044820152731820a4b7618bde71dce8cdc73aab6c95905fad24906329965a1d90606401600060405180830381600087803b158015620000ae57600080fd5b505af1158015620000c3573d6000803e3d6000fd5b50505050620000e86000805160206200614c83398151915280620001b160201b60201c565b620001126000805160206200616c8339815191526000805160206200614c833981519152620001b1565b6200011f600033620001fc565b6200013a6000805160206200614c83398151915233620001fc565b620001556000805160206200616c83398151915282620001fc565b6001600160a01b038116600081815260046020908152604091829020859055815192835282018490527f3229ffedb9ac4c1136e523cacfdab8c7621a1f1394161e5fa51850fbf4b4079b910160405180910390a15050620003a0565b600082815260208190526040808220600101805490849055905190918391839186917fbd79b86ffe0ab8e8776151514217cd7cacd52c909f66475c3af44e129f0b00ff9190a4505050565b6200020882826200020c565b5050565b6200022382826200024f60201b62000aa41760201c565b60008281526001602090815260409091206200024a91839062000b2c620002ef821b17901c565b505050565b6000828152602081815260408083206001600160a01b038516845290915290205460ff1662000208576000828152602081815260408083206001600160a01b03851684529091529020805460ff19166001179055620002ab3390565b6001600160a01b0316816001600160a01b0316837f2f8788117e7eff1d82e926ec794901d17c78024a50270940304540a733656f0d60405160405180910390a45050565b600062000306836001600160a01b0384166200030f565b90505b92915050565b6000818152600183016020526040812054620003585750815460018181018455600084815260208082209093018490558454848252828601909352604090209190915562000309565b50600062000309565b600080604083850312156200037557600080fd5b825160208401519092506001600160a01b03811681146200039557600080fd5b809150509250929050565b615d9c80620003b06000396000f3fe60806040523480156200001157600080fd5b5060043610620001505760003560e01c8063871797f711620000c7578063aa55ecbc1162000086578063aa55ecbc146200030f578063ca15c8731462000318578063cd53d08e146200032f578063d547741f1462000346578063dbdda1a1146200035d578063f42512ce146200037457600080fd5b8063871797f714620002895780639010d07c14620002ac57806391d1485414620002c3578063956f903814620002da578063a217fddf146200030657600080fd5b8063248a9ca31162000114578063248a9ca314620001ee5780632f2ff15d146200021457806336568abe146200022b578063543a16b114620002425780636a1972bd146200025957600080fd5b806223de29146200015557806301ffc9a7146200016e57806306b091f9146200019a578063117803e314620001b15780631c6ee6a214620001d7575b600080fd5b6200016c6200016636600462001081565b620003a0565b005b620001856200017f36600462001139565b62000632565b60405190151581526020015b60405180910390f35b6200016c620001ab36600462001165565b62000660565b620001c860008051602062005d2783398151915281565b60405190815260200162000191565b6200016c620001e836600462001165565b620007ef565b620001c8620001ff36600462001192565b60009081526020819052604090206001015490565b6200016c62000225366004620011ac565b62000878565b6200016c6200023c366004620011ac565b620008a7565b620001c860008051602062005d4783398151915281565b620002706200026a36600462001165565b62000929565b6040516001600160a01b03909116815260200162000191565b620001c86200029a366004620011db565b60046020526000908152604090205481565b62000270620002bd366004620011f9565b62000962565b62000185620002d4366004620011ac565b62000983565b620001c8620002eb366004620011db565b6001600160a01b031660009081526002602052604090205490565b620001c8600081565b600554620001c8565b620001c86200032936600462001192565b620009ac565b620002706200034036600462001192565b620009c5565b6200016c62000357366004620011ac565b620009f0565b6200016c6200036e366004620011db565b62000a1a565b6200027062000385366004620011db565b6003602052600090815260409020546001600160a01b031681565b60008051602062005d47833981519152620003bc813362000b43565b33600090815260046020526040902054861015620004475760405162461bcd60e51b815260206004820152603960248201527f5241495220466163746f72793a206e6f7420656e6f756768205241495220746f60448201527f6b656e7320746f206465706c6f79206120636f6e74726163740000000000000060648201526084015b60405180910390fd5b3360009081526004602052604081205462000463908862001232565b1115620004e65733600081815260046020526040902054639bd9bbc6908a906200048e908a62001232565b88886040518563ffffffff1660e01b8152600401620004b1949392919062001275565b600060405180830381600087803b158015620004cc57600080fd5b505af1158015620004e1573d6000803e3d6000fd5b505050505b6001600160a01b038816600090815260026020526040902080546200055157600580546001810182556000919091527f036b6384b5eca791c62761152d0c79bb0604c104a5fb6f4eb0703f3154bb3db00180546001600160a01b0319166001600160a01b038b161790555b600086868b61753060405162000567906200100a565b620005769493929190620012a9565b604051809103906000f08015801562000593573d6000803e3d6000fd5b5082546001810184556000848152602080822090920180546001600160a01b03199081166001600160a01b03868116918217909355835260039093526040918290208054909316908e1617909155835490519192507f545d813d4a5a55fa5aa3e0d25319b0460e7954e015ba9786c512950696d5fc5f916200061d918d9185908c908c90620012e4565b60405180910390a15050505050505050505050565b60006001600160e01b03198216635a05180f60e01b14806200065a57506200065a8262000bb2565b92915050565b60008051602062005d278339815191526200067c813362000b43565b6200069760008051602062005d478339815191528462000983565b620007165760405162461bcd60e51b815260206004820152604260248201527f5241495220466163746f72793a2053706563696669656420636f6e747261637460448201527f2069736e277420616e20617070726f7665642065726337373720636f6e74726160648201526118dd60f21b608482015260a4016200043e565b604051634decdde360e11b81523360048201526024810183905260606044820152601060648201526f466163746f727920576974686472617760801b60848201526001600160a01b03841690639bd9bbc69060a401600060405180830381600087803b1580156200078657600080fd5b505af11580156200079b573d6000803e3d6000fd5b5050604080513381526001600160a01b03871660208201529081018590527f6337ed398c0e8467698c581374fdce4db14922df487b5a39483079f5f59b60a4925060600190505b60405180910390a1505050565b60008051602062005d278339815191526200080b813362000b43565b6200082660008051602062005d478339815191528462000878565b6001600160a01b038316600081815260046020908152604091829020859055815192835282018490527f3229ffedb9ac4c1136e523cacfdab8c7621a1f1394161e5fa51850fbf4b4079b9101620007e2565b60008281526020819052604090206001015462000896813362000b43565b620008a2838362000be9565b505050565b6001600160a01b0381163314620009195760405162461bcd60e51b815260206004820152602f60248201527f416363657373436f6e74726f6c3a2063616e206f6e6c792072656e6f756e636560448201526e103937b632b9903337b91039b2b63360891b60648201526084016200043e565b62000925828262000c0f565b5050565b600260205281600052604060002081815481106200094657600080fd5b6000918252602090912001546001600160a01b03169150829050565b60008281526001602052604081206200097c908362000c35565b9392505050565b6000918252602082815260408084206001600160a01b0393909316845291905290205460ff1690565b60008181526001602052604081206200065a9062000c43565b60058181548110620009d657600080fd5b6000918252602090912001546001600160a01b0316905081565b60008281526020819052604090206001015462000a0e813362000b43565b620008a2838362000c0f565b60008051602062005d2783398151915262000a36813362000b43565b62000a5160008051602062005d4783398151915283620009f0565b6001600160a01b03821660008181526004602090815260408083209290925590519182527ffae0368e2524d44fb9cd4e3d7b3c3ef4c00778a55c6121e48e49d11fb38c7e38910160405180910390a15050565b62000ab0828262000983565b62000925576000828152602081815260408083206001600160a01b03851684529091529020805460ff1916600117905562000ae83390565b6001600160a01b0316816001600160a01b0316837f2f8788117e7eff1d82e926ec794901d17c78024a50270940304540a733656f0d60405160405180910390a45050565b60006200097c836001600160a01b03841662000c4e565b62000b4f828262000983565b620009255762000b6a816001600160a01b0316601462000ca0565b62000b7783602062000ca0565b60405160200162000b8a92919062001358565b60408051601f198184030181529082905262461bcd60e51b82526200043e91600401620013d1565b60006001600160e01b03198216637965db0b60e01b14806200065a57506301ffc9a760e01b6001600160e01b03198316146200065a565b62000bf5828262000aa4565b6000828152600160205260409020620008a2908262000b2c565b62000c1b828262000e5a565b6000828152600160205260409020620008a2908262000ec2565b60006200097c838362000ed9565b60006200065a825490565b600081815260018301602052604081205462000c97575081546001818101845560008481526020808220909301849055845484825282860190935260409020919091556200065a565b5060006200065a565b6060600062000cb183600262001406565b62000cbe90600262001428565b67ffffffffffffffff81111562000cd95762000cd962001443565b6040519080825280601f01601f19166020018201604052801562000d04576020820181803683370190505b509050600360fc1b8160008151811062000d225762000d2262001459565b60200101906001600160f81b031916908160001a905350600f60fb1b8160018151811062000d545762000d5462001459565b60200101906001600160f81b031916908160001a905350600062000d7a84600262001406565b62000d8790600162001428565b90505b600181111562000e09576f181899199a1a9b1b9c1cb0b131b232b360811b85600f166010811062000dbf5762000dbf62001459565b1a60f81b82828151811062000dd85762000dd862001459565b60200101906001600160f81b031916908160001a90535060049490941c9362000e01816200146f565b905062000d8a565b5083156200097c5760405162461bcd60e51b815260206004820181905260248201527f537472696e67733a20686578206c656e67746820696e73756666696369656e7460448201526064016200043e565b62000e66828262000983565b1562000925576000828152602081815260408083206001600160a01b0385168085529252808320805460ff1916905551339285917ff6391f5c32d9c69d2a47ea670b442974b53935d1edc7fd64eb21e047a839171b9190a45050565b60006200097c836001600160a01b03841662000f06565b600082600001828154811062000ef35762000ef362001459565b9060005260206000200154905092915050565b6000818152600183016020526040812054801562000fff57600062000f2d60018362001232565b855490915060009062000f439060019062001232565b905081811462000faf57600086600001828154811062000f675762000f6762001459565b906000526020600020015490508087600001848154811062000f8d5762000f8d62001459565b6000918252602080832090910192909255918252600188019052604090208390555b855486908062000fc35762000fc362001489565b6001900381819060005260206000200160009055905585600101600086815260200190815260200160002060009055600193505050506200065a565b60009150506200065a565b61488780620014a083390190565b80356001600160a01b03811681146200103057600080fd5b919050565b60008083601f8401126200104857600080fd5b50813567ffffffffffffffff8111156200106157600080fd5b6020830191508360208285010111156200107a57600080fd5b9250929050565b60008060008060008060008060c0898b0312156200109e57600080fd5b620010a98962001018565b9750620010b960208a0162001018565b9650620010c960408a0162001018565b955060608901359450608089013567ffffffffffffffff80821115620010ee57600080fd5b620010fc8c838d0162001035565b909650945060a08b01359150808211156200111657600080fd5b50620011258b828c0162001035565b999c989b5096995094979396929594505050565b6000602082840312156200114c57600080fd5b81356001600160e01b0319811681146200097c57600080fd5b600080604083850312156200117957600080fd5b620011848362001018565b946020939093013593505050565b600060208284031215620011a557600080fd5b5035919050565b60008060408385031215620011c057600080fd5b82359150620011d26020840162001018565b90509250929050565b600060208284031215620011ee57600080fd5b6200097c8262001018565b600080604083850312156200120d57600080fd5b50508035926020909101359150565b634e487b7160e01b600052601160045260246000fd5b6000828210156200124757620012476200121c565b500390565b81835281816020850137506000828201602090810191909152601f909101601f19169091010190565b60018060a01b03851681528360208201526060604082015260006200129f6060830184866200124c565b9695505050505050565b606081526000620012bf6060830186886200124c565b6001600160a01b039490941660208301525061ffff9190911660409091015292915050565b6001600160a01b03868116825260208201869052841660408201526080606082018190526000906200131a90830184866200124c565b979650505050505050565b60005b838110156200134257818101518382015260200162001328565b8381111562001352576000848401525b50505050565b7f416363657373436f6e74726f6c3a206163636f756e74200000000000000000008152600083516200139281601785016020880162001325565b7001034b99036b4b9b9b4b733903937b6329607d1b6017918401918201528351620013c581602884016020880162001325565b01602801949350505050565b6020815260008251806020840152620013f281604085016020870162001325565b601f01601f19169190910160400192915050565b60008160001904831182151516156200142357620014236200121c565b500290565b600082198211156200143e576200143e6200121c565b500190565b634e487b7160e01b600052604160045260246000fd5b634e487b7160e01b600052603260045260246000fd5b6000816200148157620014816200121c565b506000190190565b634e487b7160e01b600052603160045260246000fdfe60806040523480156200001157600080fd5b5060405162004887380380620048878339810160408190526200003491620003f7565b82604051806040016040528060048152602001632920a4a960e11b81525081600090805190602001906200006a9291906200030b565b508051620000809060019060208401906200030b565b5050601580546001600160b01b0319163361ffff60a01b191617600160a01b61ffff85160217905550620000d3600080516020620048478339815191526000805160206200482783398151915262000157565b620000fd600080516020620048678339815191526000805160206200482783398151915262000157565b620001186000805160206200482783398151915283620001a2565b620001336000805160206200484783398151915283620001a2565b6200014e6000805160206200486783398151915283620001a2565b50505062000537565b6000828152600a6020526040808220600101805490849055905190918391839186917fbd79b86ffe0ab8e8776151514217cd7cacd52c909f66475c3af44e129f0b00ff9190a4505050565b620001ae8282620001b2565b5050565b620001c98282620001f560201b620024f81760201c565b6000828152600b60209081526040909120620001f09183906200257e62000299821b17901c565b505050565b6000828152600a602090815260408083206001600160a01b038516845290915290205460ff16620001ae576000828152600a602090815260408083206001600160a01b03851684529091529020805460ff19166001179055620002553390565b6001600160a01b0316816001600160a01b0316837f2f8788117e7eff1d82e926ec794901d17c78024a50270940304540a733656f0d60405160405180910390a45050565b6000620002b0836001600160a01b038416620002b9565b90505b92915050565b60008181526001830160205260408120546200030257508154600181810184556000848152602080822090930184905584548482528286019093526040902091909155620002b3565b506000620002b3565b8280546200031990620004fa565b90600052602060002090601f0160209004810192826200033d576000855562000388565b82601f106200035857805160ff191683800117855562000388565b8280016001018555821562000388579182015b82811115620003885782518255916020019190600101906200036b565b50620003969291506200039a565b5090565b5b808211156200039657600081556001016200039b565b634e487b7160e01b600052604160045260246000fd5b80516001600160a01b0381168114620003df57600080fd5b919050565b805161ffff81168114620003df57600080fd5b6000806000606084860312156200040d57600080fd5b83516001600160401b03808211156200042557600080fd5b818601915086601f8301126200043a57600080fd5b8151818111156200044f576200044f620003b1565b604051601f8201601f19908116603f011681019083821181831017156200047a576200047a620003b1565b816040528281526020935089848487010111156200049757600080fd5b600091505b82821015620004bb57848201840151818301850152908301906200049c565b82821115620004cd5760008484830101525b9650620004df915050868201620003c7565b93505050620004f160408501620003e4565b90509250925092565b600181811c908216806200050f57607f821691505b602082108114156200053157634e487b7160e01b600052602260045260246000fd5b50919050565b6142e080620005476000396000f3fe608060405234801561001057600080fd5b50600436106102d65760003560e01c80636c99dcbf11610182578063c00b83c5116100e9578063d547741f116100a2578063e8a3d4851161007c578063e8a3d485146106e8578063e9300c6c146106f0578063e985e9c514610703578063fe6d81241461071657600080fd5b8063d547741f146106a0578063d76bf566146106b3578063e4fbb609146106d357600080fd5b8063c00b83c51461062e578063c1d78b4a14610641578063c45a015514610654578063c87b56dd14610667578063ca15c8731461067a578063d403bf861461068d57600080fd5b806395d89b411161013b57806395d89b41146105c1578063a217fddf146105c9578063a22cb465146105d1578063b88d4fde146105e4578063b9db15b4146105f7578063bda5ec331461061b57600080fd5b80636c99dcbf1461052f57806370a0823114610542578063876654a0146105555780639010d07c1461058857806391d148541461059b578063938e3d7b146105ae57600080fd5b8063248a9ca3116102415780633d42f206116101fa5780634dcf6ad6116101d45780634dcf6ad6146104e35780634f6ccce7146104f657806355f804b3146105095780636352211e1461051c57600080fd5b80633d42f206146104b557806342842e0e146104c85780634a348da9146104db57600080fd5b8063248a9ca314610414578063276a28a3146104375780632a55205a1461044a5780632f2ff15d1461047c5780632f745c591461048f57806336568abe146104a257600080fd5b806315a182411161029357806315a1824114610399578063175c4ef8146103ac57806318160ddd146103d35780631c899d1a146103db57806323b872dd146103ee57806324704bd71461040157600080fd5b806301ffc9a7146102db5780630301e1e21461030357806306fdde0314610331578063081812fc14610346578063095ea7b314610371578063156e29f614610386575b600080fd5b6102ee6102e93660046137a7565b61073d565b60405190151581526020015b60405180910390f35b6103236103113660046137c4565b6000908152600c602052604090205490565b6040519081526020016102fa565b610339610768565b6040516102fa9190613835565b6103596103543660046137c4565b6107fa565b6040516001600160a01b0390911681526020016102fa565b61038461037f366004613864565b610894565b005b61038461039436600461388e565b6109aa565b6103846103a73660046138c1565b610d27565b6103237f872340a532bdd7bb02bea115c1b0f1ba87eac982f5b79b51ac189ffaac1b6fce81565b600854610323565b6103846103e9366004613935565b611043565b6103846103fc366004613981565b6110b7565b61032361040f3660046139bd565b6110e8565b6103236104223660046137c4565b6000908152600a602052604090206001015490565b6102ee6104453660046137c4565b611119565b61045d6104583660046139bd565b61119f565b604080516001600160a01b0390931683526020830191909152016102fa565b61038461048a3660046139df565b6111ee565b61032361049d366004613864565b611214565b6103846104b03660046139df565b6112aa565b6102ee6104c3366004613a0b565b611328565b6103846104d6366004613981565b61152e565b601454610323565b6103846104f13660046137c4565b611549565b6103236105043660046137c4565b6115a6565b610384610517366004613a37565b611639565b61035961052a3660046137c4565b61169d565b6102ee61053d366004613a79565b611714565b610323610550366004613ab2565b6118f0565b6105686105633660046137c4565b611977565b6040805194855260208501939093529183015260608201526080016102fa565b6103596105963660046139bd565b611b4e565b6102ee6105a93660046139df565b611b66565b6103846105bc366004613a37565b611b91565b610339611be8565b610323600081565b6103846105df366004613acd565b611bf7565b6103846105f2366004613b95565b611c02565b61060a6106053660046137c4565b611c3a565b6040516102fa959493929190613c11565b610323610629366004613a0b565b611da3565b61032361063c3660046137c4565b611fe4565b61038461064f366004613cbf565b612025565b601554610359906001600160a01b031681565b6103396106753660046137c4565b612118565b6103236106883660046137c4565b6122b9565b61038461069b366004613935565b6122d0565b6103846106ae3660046139df565b612336565b6103236106c13660046137c4565b600d6020526000908152604090205481565b61032360008051602061428b83398151915281565b61033961235c565b6103846106fe366004613d2b565b61236b565b6102ee610711366004613d84565b612498565b6103237ff0887ba65ee2024ea881d91b74c2450ef19e1557f03bed3ea9f16b037cbe2dc981565b60006001600160e01b03198216632baae9fd60e01b1480610762575061076282612593565b92915050565b60606000805461077790613dae565b80601f01602080910402602001604051908101604052809291908181526020018280546107a390613dae565b80156107f05780601f106107c5576101008083540402835291602001916107f0565b820191906000526020600020905b8154815290600101906020018083116107d357829003601f168201915b5050505050905090565b6000818152600260205260408120546001600160a01b03166108785760405162461bcd60e51b815260206004820152602c60248201527f4552433732313a20617070726f76656420717565727920666f72206e6f6e657860448201526b34b9ba32b73a103a37b5b2b760a11b60648201526084015b60405180910390fd5b506000908152600460205260409020546001600160a01b031690565b600061089f8261169d565b9050806001600160a01b0316836001600160a01b0316141561090d5760405162461bcd60e51b815260206004820152602160248201527f4552433732313a20617070726f76616c20746f2063757272656e74206f776e656044820152603960f91b606482015260840161086f565b336001600160a01b038216148061092957506109298133612498565b61099b5760405162461bcd60e51b815260206004820152603860248201527f4552433732313a20617070726f76652063616c6c6572206973206e6f74206f7760448201527f6e6572206e6f7220617070726f76656420666f7220616c6c0000000000000000606482015260840161086f565b6109a583836125b8565b505050565b7ff0887ba65ee2024ea881d91b74c2450ef19e1557f03bed3ea9f16b037cbe2dc96109d58133612626565b601454839081106109f85760405162461bcd60e51b815260040161086f90613de9565b600060148581548110610a0d57610a0d613e2c565b9060005260206000209060050201905080600001548160010154610a319190613e58565b841115610a805760405162461bcd60e51b815260206004820181905260248201527f52414952204552433732313a20496e76616c696420746f6b656e20696e646578604482015260640161086f565b610a9986858360000154610a949190613e6f565b61268a565b6000858152600c602052604090208154610ab4908690613e6f565b8154600181018355600092835260208320015581548691600d91610ad9908890613e6f565b815260200190815260200160002081905550806002016000815480929190610b0090613e87565b9091555060009050805b6004830154811015610cd8578254610b23908790613e6f565b6013846004018381548110610b3a57610b3a613e2c565b906000526020600020015481548110610b5557610b55613e2c565b90600052602060002090600402016000015411158015610bc457508254610b7d908790613e6f565b6013846004018381548110610b9457610b94613e2c565b906000526020600020015481548110610baf57610baf613e2c565b90600052602060002090600402016001015410155b15610cc6576013836004018281548110610be057610be0613e2c565b906000526020600020015481548110610bfb57610bfb613e2c565b90600052602060002090600402019150826004018181548110610c2057610c20613e2c565b9060005260206000200154600e6000888660000154610c3f9190613e6f565b8152602081019190915260400160002055600282015415610cc157600282018054906000610c6c83613e87565b90915550506002820154610cc15781546001830154604080518a815260208101939093528201527fd3edbeb94dfb8eadcd8c291774b9ac3cc9b06af829273e295bf3197849934b889060600160405180910390a15b610cd8565b80610cd081613e9e565b915050610b0a565b506002820154610d1e57857f7118e1ae63262db55027a75ee525791f482e7fdf6c2ccb6c11528bf1652780e183600301604051610d159190613f59565b60405180910390a25b50505050505050565b60008051602061428b833981519152610d408133612626565b60145485908110610d635760405162461bcd60e51b815260040161086f90613de9565b600060148781548110610d7857610d78613e2c565b906000526020600020906005020190508060010154858260000154610d9d9190613e6f565b1115610df55760405162461bcd60e51b815260206004820152602160248201527f52414952204552433732313a20496e76616c696420656e64696e6720746f6b656044820152603760f91b606482015260840161086f565b80546001820154610e069190613e58565b610e108787613e58565b1115610e685760405162461bcd60e51b815260206004820152602160248201527f52414952204552433732313a20496e76616c696420746f6b656e206c696d69746044820152607360f81b606482015260840161086f565b83610e738787613e58565b610e7e906001613e6f565b1015610ee25760405162461bcd60e51b815260206004820152602d60248201527f52414952204552433732313a20496e76616c6964206e756d626572206f66207460448201526c6f6b656e7320746f206c6f636b60981b606482015260840161086f565b610eed878787611328565b610f395760405162461bcd60e51b815260206004820152601f60248201527f52414952204552433732313a2043616e6e6f7420637265617465206c6f636b00604482015260640161086f565b60138054600181018255600091909152815460049091027f66de8ffda797e3de9c05e8fc57b3bf0ec28a930d40b0d285d93c06501cf6a0900190610f7e908890613e6f565b81558154610f8d908790613e6f565b60018083019190915560028201869055600382018990556013546004840191610fb591613e58565b8154600181018355600092835260209092209091015581547f31677189d834d986e226e646cd121f117815e9bf4992c19728ca028f2ee542e6908990610ffc908a90613e6f565b8454611009908a90613e6f565b6013548990600388019061101f90600190613e58565b60405161103196959493929190613f6c565b60405180910390a15050505050505050565b60008051602061428b83398151915261105c8133612626565b6000848152601060205260409020611075908484613681565b507f483621391b5e72d74eb03c7b5715531c486e326fb115ab3bcf34b133041854ce8484846040516110a993929190613fd3565b60405180910390a150505050565b6110c133826126a4565b6110dd5760405162461bcd60e51b815260040161086f90613ff6565b6109a5838383612773565b600c602052816000526040600020818154811061110457600080fd5b90600052602060002001600091509150505481565b6000818152600d6020908152604080832054600e90925282205460138054909190811061114857611148613e2c565b90600052602060002090600402016003015414801561076257506000828152600e602052604081205460138054909190811061118657611186613e2c565b9060005260206000209060040201600201541192915050565b6000806111bb60008051602061428b8339815191526000611b4e565b601554620186a0906111d890600160a01b900461ffff1686614047565b6111e2919061407c565b915091505b9250929050565b6000828152600a602052604090206001015461120a8133612626565b6109a5838361291a565b600061121f836118f0565b82106112815760405162461bcd60e51b815260206004820152602b60248201527f455243373231456e756d657261626c653a206f776e657220696e646578206f7560448201526a74206f6620626f756e647360a81b606482015260840161086f565b506001600160a01b03919091166000908152600660209081526040808320938352929052205490565b6001600160a01b038116331461131a5760405162461bcd60e51b815260206004820152602f60248201527f416363657373436f6e74726f6c3a2063616e206f6e6c792072656e6f756e636560448201526e103937b632b9903337b91039b2b63360891b606482015260840161086f565b611324828261293c565b5050565b6000806014858154811061133e5761133e613e2c565b90600052602060002090600502019050806000015481600101546113629190613e58565b84118061137e57508054600182015461137b9190613e58565b83115b1561138d576000915050611527565b60005b60048201548110156115205781546113a9908690613e6f565b60138360040183815481106113c0576113c0613e2c565b9060005260206000200154815481106113db576113db613e2c565b9060005260206000209060040201600001541115801561144a57508154611403908690613e6f565b601383600401838154811061141a5761141a613e2c565b90600052602060002001548154811061143557611435613e2c565b90600052602060002090600402016001015410155b806114fe5750815461145d908590613e6f565b601383600401838154811061147457611474613e2c565b90600052602060002001548154811061148f5761148f613e2c565b906000526020600020906004020160000154111580156114fe575081546114b7908590613e6f565b60138360040183815481106114ce576114ce613e2c565b9060005260206000200154815481106114e9576114e9613e2c565b90600052602060002090600402016001015410155b1561150e57600092505050611527565b8061151881613e9e565b915050611390565b5060019150505b9392505050565b6109a583838360405180602001604052806000815250611c02565b60008051602061428b8339815191526115628133612626565b817fa109ba539900bf1b633f956d63c96fc89b814c7287f7aa50a9216d0b5565720761158d84612118565b60405161159a9190613835565b60405180910390a25050565b60006115b160085490565b82106116145760405162461bcd60e51b815260206004820152602c60248201527f455243373231456e756d657261626c653a20676c6f62616c20696e646578206f60448201526b7574206f6620626f756e647360a01b606482015260840161086f565b6008828154811061162757611627613e2c565b90600052602060002001549050919050565b60008051602061428b8339815191526116528133612626565b61165e600f8484613681565b507f5411e8ebf1636d9e83d5fc4900bf80cbac82e8790da2a4c94db4895e889eedf68383604051611690929190614090565b60405180910390a1505050565b6000818152600260205260408120546001600160a01b0316806107625760405162461bcd60e51b815260206004820152602960248201527f4552433732313a206f776e657220717565727920666f72206e6f6e657869737460448201526832b73a103a37b5b2b760b91b606482015260840161086f565b6000806014858154811061172a5761172a613e2c565b90600052602060002090600502016040518060a001604052908160008201548152602001600182015481526020016002820154815260200160038201805461177190613dae565b80601f016020809104026020016040519081016040528092919081815260200182805461179d90613dae565b80156117ea5780601f106117bf576101008083540402835291602001916117ea565b820191906000526020600020905b8154815290600101906020018083116117cd57829003601f168201915b505050505081526020016004820180548060200260200160405190810160405280929190818152602001828054801561184257602002820191906000526020600020905b81548152602001906001019080831161182e575b505050505081525050905080602001516000146118e25760005b611865876118f0565b8110156118e05760006118788883611214565b6000818152600d6020526040902054909150871480156118a4575082516118a0908790613e6f565b8110155b80156118bc575082516118b8908690613e6f565b8111155b156118cd57600193505050506118e8565b50806118d881613e9e565b91505061185c565b505b60009150505b949350505050565b60006001600160a01b03821661195b5760405162461bcd60e51b815260206004820152602a60248201527f4552433732313a2062616c616e636520717565727920666f7220746865207a65604482015269726f206164647265737360b01b606482015260840161086f565b506001600160a01b031660009081526003602052604090205490565b60008060008060006013868154811061199257611992613e2c565b90600052602060002090600402016040518060800160405290816000820154815260200160018201548152602001600282015481526020016003820154815250509050600060148260600151815481106119ee576119ee613e2c565b90600052602060002090600502016040518060a0016040529081600082015481526020016001820154815260200160028201548152602001600382018054611a3590613dae565b80601f0160208091040260200160405190810160405280929190818152602001828054611a6190613dae565b8015611aae5780601f10611a8357610100808354040283529160200191611aae565b820191906000526020600020905b815481529060010190602001808311611a9157829003601f168201915b5050505050815260200160048201805480602002602001604051908101604052809291908181526020018280548015611b0657602002820191906000526020600020905b815481526020019060010190808311611af2575b50505091909252505081518451929350611b2292909150613e58565b81516020840151611b339190613e58565b83604001518460600151955095509550955050509193509193565b6000828152600b60205260408120611527908361295e565b6000918252600a602090815260408084206001600160a01b0393909316845291905290205460ff1690565b60008051602061428b833981519152611baa8133612626565b611bb660128484613681565b507fd5ee5eaf65263bab5d569890714d123ad48a9e54409d35e71d374f3dd300bba08383604051611690929190614090565b60606001805461077790613dae565b61132433838361296a565b611c0c33836126a4565b611c285760405162461bcd60e51b815260040161086f90613ff6565b611c3484848484612a39565b50505050565b6000806000606080600060148781548110611c5757611c57613e2c565b90600052602060002090600502016040518060a0016040529081600082015481526020016001820154815260200160028201548152602001600382018054611c9e90613dae565b80601f0160208091040260200160405190810160405280929190818152602001828054611cca90613dae565b8015611d175780601f10611cec57610100808354040283529160200191611d17565b820191906000526020600020905b815481529060010190602001808311611cfa57829003601f168201915b5050505050815260200160048201805480602002602001604051908101604052809291908181526020018280548015611d6f57602002820191906000526020600020905b815481526020019060010190808311611d5b575b5050509190925250508151602083015160408401516060850151608090950151929c919b5099509297509550909350505050565b6000838060148054905011611dca5760405162461bcd60e51b815260040161086f90613de9565b600060148681548110611ddf57611ddf613e2c565b90600052602060002090600502016040518060a0016040529081600082015481526020016001820154815260200160028201548152602001600382018054611e2690613dae565b80601f0160208091040260200160405190810160405280929190818152602001828054611e5290613dae565b8015611e9f5780601f10611e7457610100808354040283529160200191611e9f565b820191906000526020600020905b815481529060010190602001808311611e8257829003601f168201915b5050505050815260200160048201805480602002602001604051908101604052809291908181526020018280548015611ef757602002820191906000526020600020905b815481526020019060010190808311611ee3575b50505050508152505090506000858260000151611f149190613e6f565b90505b8151611f24908690613e6f565b8111611f6d576000818152600260205260409020546001600160a01b0316611f5b578151611f529082613e58565b93505050611fdc565b80611f6581613e9e565b915050611f17565b5060405162461bcd60e51b815260206004820152603960248201527f52414952204552433732313a20546865726520617265206e6f20617661696c6160448201527f626c6520746f6b656e7320696e20746869732072616e67652e00000000000000606482015260840161086f565b509392505050565b6000818152600d602052604081205460148054909190811061200857612008613e2c565b906000526020600020906005020160000154826107629190613e58565b60008051602061428b83398151915261203e8133612626565b8382146120b35760405162461bcd60e51b815260206004820152603b60248201527f52414952204552433732313a20546f6b656e2049447320616e6420555249732060448201527f73686f756c642068617665207468652073616d65206c656e6774680000000000606482015260840161086f565b60005b84811015612110576120fe8686838181106120d3576120d3613e2c565b905060200201358585848181106120ec576120ec613e2c565b90506020028101906103e991906140a4565b8061210881613e9e565b9150506120b6565b505050505050565b60008181526010602052604081208054606092919061213690613dae565b80601f016020809104026020016040519081016040528092919081815260200182805461216290613dae565b80156121af5780601f10612184576101008083540402835291602001916121af565b820191906000526020600020905b81548152906001019060200180831161219257829003601f168201915b505050505090506000815111156121c65792915050565b6000838152600d602090815260408083205483526011909152902080546121ec90613dae565b80601f016020809104026020016040519081016040528092919081815260200182805461221890613dae565b80156122655780601f1061223a57610100808354040283529160200191612265565b820191906000526020600020905b81548152906001019060200180831161224857829003601f168201915b505050505090506000815111156122b0578061228861228385611fe4565b612a6c565b6040516020016122999291906140eb565b604051602081830303815290604052915050919050565b61152783612b6a565b6000818152600b6020526040812061076290612c1d565b60008051602061428b8339815191526122e98133612626565b6000848152601160205260409020612302908484613681565b507f658b273d88cb66d5790b2e0cb1510b48ab78d39cba1c9cad2df51068c42c607c8484846040516110a993929190613fd3565b6000828152600a60205260409020600101546123528133612626565b6109a5838361293c565b60606012805461077790613dae565b60008051602061428b8339815191526123848133612626565b601454600090156123d2576014805461239f90600190613e58565b815481106123af576123af613e2c565b90600052602060002090600502016001015460016123cd9190613e6f565b6123d5565b60005b60148054600181810183556000929092526005027fce6d7b5282bd9a3661ae061feed1dbda4e52ab073b1f9285be6e155d9c38d4ec0182815591925061241b8584613e6f565b6124259190613e58565b6001820155845161243f9060038301906020880190613705565b506002810184905560145461245690600190613e58565b7f8d3d82130aebba03bb48b5d158bc2bbb4647856765b1089e7250507307965af98684876040516124899392919061411a565b60405180910390a25050505050565b60006124c47f872340a532bdd7bb02bea115c1b0f1ba87eac982f5b79b51ac189ffaac1b6fce83611b66565b8061152757506001600160a01b0380841660009081526005602090815260408083209386168352929052205460ff16611527565b6125028282611b66565b611324576000828152600a602090815260408083206001600160a01b03851684529091529020805460ff1916600117905561253a3390565b6001600160a01b0316816001600160a01b0316837f2f8788117e7eff1d82e926ec794901d17c78024a50270940304540a733656f0d60405160405180910390a45050565b6000611527836001600160a01b038416612c27565b60006001600160e01b03198216635a05180f60e01b1480610762575061076282612c76565b600081815260046020526040902080546001600160a01b0319166001600160a01b03841690811790915581906125ed8261169d565b6001600160a01b03167f8c5be1e5ebec7d5bd14f71427d1e84f3dd0314c0f7b2291e5b200ac8c7c3b92560405160405180910390a45050565b6126308282611b66565b61132457612648816001600160a01b03166014612c9b565b612653836020612c9b565b60405160200161266492919061413f565b60408051601f198184030181529082905262461bcd60e51b825261086f91600401613835565b611324828260405180602001604052806000815250612e37565b6000818152600260205260408120546001600160a01b031661271d5760405162461bcd60e51b815260206004820152602c60248201527f4552433732313a206f70657261746f7220717565727920666f72206e6f6e657860448201526b34b9ba32b73a103a37b5b2b760a11b606482015260840161086f565b60006127288361169d565b9050806001600160a01b0316846001600160a01b031614806127635750836001600160a01b0316612758846107fa565b6001600160a01b0316145b806118e857506118e88185612498565b826001600160a01b03166127868261169d565b6001600160a01b0316146127ea5760405162461bcd60e51b815260206004820152602560248201527f4552433732313a207472616e736665722066726f6d20696e636f72726563742060448201526437bbb732b960d91b606482015260840161086f565b6001600160a01b03821661284c5760405162461bcd60e51b8152602060048201526024808201527f4552433732313a207472616e7366657220746f20746865207a65726f206164646044820152637265737360e01b606482015260840161086f565b612857838383612e6a565b6128626000826125b8565b6001600160a01b038316600090815260036020526040812080546001929061288b908490613e58565b90915550506001600160a01b03821660009081526003602052604081208054600192906128b9908490613e6f565b909155505060008181526002602052604080822080546001600160a01b0319166001600160a01b0386811691821790925591518493918716917fddf252ad1be2c89b69c2b068fc378daa952ba7f163c4a11628f55a4df523b3ef91a4505050565b61292482826124f8565b6000828152600b602052604090206109a5908261257e565b6129468282612fc4565b6000828152600b602052604090206109a5908261302b565b60006115278383613040565b816001600160a01b0316836001600160a01b031614156129cc5760405162461bcd60e51b815260206004820152601960248201527f4552433732313a20617070726f766520746f2063616c6c657200000000000000604482015260640161086f565b6001600160a01b03838116600081815260056020908152604080832094871680845294825291829020805460ff191686151590811790915591519182527f17307eab39ab6107e8899845ad3d59bd9653f200f220920489ca2b5937696c31910160405180910390a3505050565b612a44848484612773565b612a508484848461306a565b611c345760405162461bcd60e51b815260040161086f906141b4565b606081612a905750506040805180820190915260018152600360fc1b602082015290565b8160005b8115612aba5780612aa481613e9e565b9150612ab39050600a8361407c565b9150612a94565b60008167ffffffffffffffff811115612ad557612ad5613b09565b6040519080825280601f01601f191660200182016040528015612aff576020820181803683370190505b5090505b84156118e857612b14600183613e58565b9150612b21600a86614206565b612b2c906030613e6f565b60f81b818381518110612b4157612b41613e2c565b60200101906001600160f81b031916908160001a905350612b63600a8661407c565b9450612b03565b6000818152600260205260409020546060906001600160a01b0316612be95760405162461bcd60e51b815260206004820152602f60248201527f4552433732314d657461646174613a2055524920717565727920666f72206e6f60448201526e3732bc34b9ba32b73a103a37b5b2b760891b606482015260840161086f565b6000612bf3613174565b90506000815111612c135760405180602001604052806000815250611527565b8061228884612a6c565b6000610762825490565b6000818152600183016020526040812054612c6e57508154600181810184556000848152602080822090930184905584548482528286019093526040902091909155610762565b506000610762565b60006001600160e01b03198216637965db0b60e01b1480610762575061076282613183565b60606000612caa836002614047565b612cb5906002613e6f565b67ffffffffffffffff811115612ccd57612ccd613b09565b6040519080825280601f01601f191660200182016040528015612cf7576020820181803683370190505b509050600360fc1b81600081518110612d1257612d12613e2c565b60200101906001600160f81b031916908160001a905350600f60fb1b81600181518110612d4157612d41613e2c565b60200101906001600160f81b031916908160001a9053506000612d65846002614047565b612d70906001613e6f565b90505b6001811115612de8576f181899199a1a9b1b9c1cb0b131b232b360811b85600f1660108110612da457612da4613e2c565b1a60f81b828281518110612dba57612dba613e2c565b60200101906001600160f81b031916908160001a90535060049490941c93612de181613e87565b9050612d73565b5083156115275760405162461bcd60e51b815260206004820181905260248201527f537472696e67733a20686578206c656e67746820696e73756666696369656e74604482015260640161086f565b612e4183836131a8565b612e4e600084848461306a565b6109a55760405162461bcd60e51b815260040161086f906141b4565b6001600160a01b03831615801590612e8a57506001600160a01b03821615155b15612fb95760135415801590612edf57506000818152600d6020908152604080832054600e90925290912054601380549091908110612ecb57612ecb613e2c565b906000526020600020906004020160030154145b15612f8f576000818152600e6020526040902054601380549091908110612f0857612f08613e2c565b906000526020600020906004020160020154600014612f8f5760405162461bcd60e51b815260206004820152603a60248201527f52414952204552433732313a205472616e736665727320666f7220746869732060448201527f72616e6765206172652063757272656e746c79206c6f636b6564000000000000606482015260840161086f565b612fb97f872340a532bdd7bb02bea115c1b0f1ba87eac982f5b79b51ac189ffaac1b6fce33612626565b6109a58383836132f6565b612fce8282611b66565b15611324576000828152600a602090815260408083206001600160a01b0385168085529252808320805460ff1916905551339285917ff6391f5c32d9c69d2a47ea670b442974b53935d1edc7fd64eb21e047a839171b9190a45050565b6000611527836001600160a01b0384166133ae565b600082600001828154811061305757613057613e2c565b9060005260206000200154905092915050565b60006001600160a01b0384163b1561316c57604051630a85bd0160e11b81526001600160a01b0385169063150b7a02906130ae90339089908890889060040161421a565b602060405180830381600087803b1580156130c857600080fd5b505af19250505080156130f8575060408051601f3d908101601f191682019092526130f591810190614257565b60015b613152573d808015613126576040519150601f19603f3d011682016040523d82523d6000602084013e61312b565b606091505b50805161314a5760405162461bcd60e51b815260040161086f906141b4565b805181602001fd5b6001600160e01b031916630a85bd0160e11b1490506118e8565b5060016118e8565b6060600f805461077790613dae565b60006001600160e01b0319821663780e9d6360e01b14806107625750610762826134a1565b6001600160a01b0382166131fe5760405162461bcd60e51b815260206004820181905260248201527f4552433732313a206d696e7420746f20746865207a65726f2061646472657373604482015260640161086f565b6000818152600260205260409020546001600160a01b0316156132635760405162461bcd60e51b815260206004820152601c60248201527f4552433732313a20746f6b656e20616c7265616479206d696e74656400000000604482015260640161086f565b61326f60008383612e6a565b6001600160a01b0382166000908152600360205260408120805460019290613298908490613e6f565b909155505060008181526002602052604080822080546001600160a01b0319166001600160a01b03861690811790915590518392907fddf252ad1be2c89b69c2b068fc378daa952ba7f163c4a11628f55a4df523b3ef908290a45050565b6001600160a01b0383166133515761334c81600880546000838152600960205260408120829055600182018355919091527ff3f7a9fe364faab93b216da50a3214154f22a0a2b415b23a84c8169e8b636ee30155565b613374565b816001600160a01b0316836001600160a01b0316146133745761337483826134f1565b6001600160a01b03821661338b576109a58161358e565b826001600160a01b0316826001600160a01b0316146109a5576109a5828261363d565b600081815260018301602052604081205480156134975760006133d2600183613e58565b85549091506000906133e690600190613e58565b905081811461344b57600086600001828154811061340657613406613e2c565b906000526020600020015490508087600001848154811061342957613429613e2c565b6000918252602080832090910192909255918252600188019052604090208390555b855486908061345c5761345c614274565b600190038181906000526020600020016000905590558560010160008681526020019081526020016000206000905560019350505050610762565b6000915050610762565b60006001600160e01b031982166380ac58cd60e01b14806134d257506001600160e01b03198216635b5e139f60e01b145b8061076257506301ffc9a760e01b6001600160e01b0319831614610762565b600060016134fe846118f0565b6135089190613e58565b60008381526007602052604090205490915080821461355b576001600160a01b03841660009081526006602090815260408083208584528252808320548484528184208190558352600790915290208190555b5060009182526007602090815260408084208490556001600160a01b039094168352600681528383209183525290812055565b6008546000906135a090600190613e58565b600083815260096020526040812054600880549394509092849081106135c8576135c8613e2c565b9060005260206000200154905080600883815481106135e9576135e9613e2c565b600091825260208083209091019290925582815260099091526040808220849055858252812055600880548061362157613621614274565b6001900381819060005260206000200160009055905550505050565b6000613648836118f0565b6001600160a01b039093166000908152600660209081526040808320868452825280832085905593825260079052919091209190915550565b82805461368d90613dae565b90600052602060002090601f0160209004810192826136af57600085556136f5565b82601f106136c85782800160ff198235161785556136f5565b828001600101855582156136f5579182015b828111156136f55782358255916020019190600101906136da565b50613701929150613779565b5090565b82805461371190613dae565b90600052602060002090601f01602090048101928261373357600085556136f5565b82601f1061374c57805160ff19168380011785556136f5565b828001600101855582156136f5579182015b828111156136f557825182559160200191906001019061375e565b5b80821115613701576000815560010161377a565b6001600160e01b0319811681146137a457600080fd5b50565b6000602082840312156137b957600080fd5b81356115278161378e565b6000602082840312156137d657600080fd5b5035919050565b60005b838110156137f85781810151838201526020016137e0565b83811115611c345750506000910152565b600081518084526138218160208601602086016137dd565b601f01601f19169290920160200192915050565b6020815260006115276020830184613809565b80356001600160a01b038116811461385f57600080fd5b919050565b6000806040838503121561387757600080fd5b61388083613848565b946020939093013593505050565b6000806000606084860312156138a357600080fd5b6138ac84613848565b95602085013595506040909401359392505050565b600080600080608085870312156138d757600080fd5b5050823594602084013594506040840135936060013592509050565b60008083601f84011261390557600080fd5b50813567ffffffffffffffff81111561391d57600080fd5b6020830191508360208285010111156111e757600080fd5b60008060006040848603121561394a57600080fd5b83359250602084013567ffffffffffffffff81111561396857600080fd5b613974868287016138f3565b9497909650939450505050565b60008060006060848603121561399657600080fd5b61399f84613848565b92506139ad60208501613848565b9150604084013590509250925092565b600080604083850312156139d057600080fd5b50508035926020909101359150565b600080604083850312156139f257600080fd5b82359150613a0260208401613848565b90509250929050565b600080600060608486031215613a2057600080fd5b505081359360208301359350604090920135919050565b60008060208385031215613a4a57600080fd5b823567ffffffffffffffff811115613a6157600080fd5b613a6d858286016138f3565b90969095509350505050565b60008060008060808587031215613a8f57600080fd5b613a9885613848565b966020860135965060408601359560600135945092505050565b600060208284031215613ac457600080fd5b61152782613848565b60008060408385031215613ae057600080fd5b613ae983613848565b915060208301358015158114613afe57600080fd5b809150509250929050565b634e487b7160e01b600052604160045260246000fd5b600067ffffffffffffffff80841115613b3a57613b3a613b09565b604051601f8501601f19908116603f01168101908282118183101715613b6257613b62613b09565b81604052809350858152868686011115613b7b57600080fd5b858560208301376000602087830101525050509392505050565b60008060008060808587031215613bab57600080fd5b613bb485613848565b9350613bc260208601613848565b925060408501359150606085013567ffffffffffffffff811115613be557600080fd5b8501601f81018713613bf657600080fd5b613c0587823560208401613b1f565b91505092959194509250565b85815260006020868184015285604084015260a06060840152613c3760a0840186613809565b838103608085015284518082528286019183019060005b81811015613c6a57835183529284019291840191600101613c4e565b50909a9950505050505050505050565b60008083601f840112613c8c57600080fd5b50813567ffffffffffffffff811115613ca457600080fd5b6020830191508360208260051b85010111156111e757600080fd5b60008060008060408587031215613cd557600080fd5b843567ffffffffffffffff80821115613ced57600080fd5b613cf988838901613c7a565b90965094506020870135915080821115613d1257600080fd5b50613d1f87828801613c7a565b95989497509550505050565b60008060408385031215613d3e57600080fd5b823567ffffffffffffffff811115613d5557600080fd5b8301601f81018513613d6657600080fd5b613d7585823560208401613b1f565b95602094909401359450505050565b60008060408385031215613d9757600080fd5b613da083613848565b9150613a0260208401613848565b600181811c90821680613dc257607f821691505b60208210811415613de357634e487b7160e01b600052602260045260246000fd5b50919050565b60208082526023908201527f52414952204552433732313a2050726f6475637420646f6573206e6f742065786040820152621a5cdd60ea1b606082015260800190565b634e487b7160e01b600052603260045260246000fd5b634e487b7160e01b600052601160045260246000fd5b600082821015613e6a57613e6a613e42565b500390565b60008219821115613e8257613e82613e42565b500190565b600081613e9657613e96613e42565b506000190190565b6000600019821415613eb257613eb2613e42565b5060010190565b8054600090600181811c9080831680613ed357607f831692505b6020808410821415613ef557634e487b7160e01b600052602260045260246000fd5b83885260208801828015613f105760018114613f2157613f4c565b60ff19871682528282019750613f4c565b60008981526020902060005b87811015613f4657815484820152908601908401613f2d565b83019850505b5050505050505092915050565b6020815260006115276020830184613eb9565b86815285602082015284604082015283606082015260c060808201526000613f9760c0830185613eb9565b90508260a0830152979650505050505050565b81835281816020850137506000828201602090810191909152601f909101601f19169091010190565b838152604060208201526000613fed604083018486613faa565b95945050505050565b60208082526031908201527f4552433732313a207472616e736665722063616c6c6572206973206e6f74206f6040820152701ddb995c881b9bdc88185c1c1c9bdd9959607a1b606082015260800190565b600081600019048311821515161561406157614061613e42565b500290565b634e487b7160e01b600052601260045260246000fd5b60008261408b5761408b614066565b500490565b6020815260006118e8602083018486613faa565b6000808335601e198436030181126140bb57600080fd5b83018035915067ffffffffffffffff8211156140d657600080fd5b6020019150368190038213156111e757600080fd5b600083516140fd8184602088016137dd565b8351908301906141118183602088016137dd565b01949350505050565b60608152600061412d6060830186613809565b60208301949094525060400152919050565b7f416363657373436f6e74726f6c3a206163636f756e74200000000000000000008152600083516141778160178501602088016137dd565b7001034b99036b4b9b9b4b733903937b6329607d1b60179184019182015283516141a88160288401602088016137dd565b01602801949350505050565b60208082526032908201527f4552433732313a207472616e7366657220746f206e6f6e20455243373231526560408201527131b2b4bb32b91034b6b83632b6b2b73a32b960711b606082015260800190565b60008261421557614215614066565b500690565b6001600160a01b038581168252841660208201526040810183905260806060820181905260009061424d90830184613809565b9695505050505050565b60006020828403121561426957600080fd5b81516115278161378e565b634e487b7160e01b600052603160045260246000fdfe3c2519c4487d47714872f92cf90a50c25f5deaec2789dc2a497b1272df611db6a26469706673582212207db80d1ad9bee46ccb3461c12ff0039a1fc33f0dbe7c0589d9da56752883717a64736f6c634300080900333c2519c4487d47714872f92cf90a50c25f5deaec2789dc2a497b1272df611db6f0887ba65ee2024ea881d91b74c2450ef19e1557f03bed3ea9f16b037cbe2dc9872340a532bdd7bb02bea115c1b0f1ba87eac982f5b79b51ac189ffaac1b6fce6270edb7c868f86fda4adedba75108201087268ea345934db8bad688e1feb91be33cd123f09d9a4e3b34162dcaba99ee0b73fe748beb8ca15f84a66b0c147230a26469706673582212205bf0601530c5bd4a0cf71899b1f29980b560ca93bafeb082707808ceb7ee761064736f6c634300080900336270edb7c868f86fda4adedba75108201087268ea345934db8bad688e1feb91be33cd123f09d9a4e3b34162dcaba99ee0b73fe748beb8ca15f84a66b0c147230",
  "devdoc": {
    "author": "Juan M. Sanchez M.",
    "details": "Uses AccessControl for the reception of ERC777 tokens!",
    "kind": "dev",
    "methods": {
      "add777Token(address,uint256)": {
        "params": {
          "_erc777Address": "Address of the new Token"
        }
      },
      "constructor": {
        "params": {
          "_pricePerToken": "Tokens required for the deployment",
          "_rairAddress": "Address of the primary ERC777 contract (RAIR contract)"
        }
      },
      "getContractCountOf(address)": {
        "details": "Use alongside ownerToContracts for the full list of tokens ",
        "params": {
          "deployer": "Wallet address to query"
        }
      },
      "getRoleAdmin(bytes32)": {
        "details": "Returns the admin role that controls `role`. See {grantRole} and {revokeRole}. To change a role's admin, use {_setRoleAdmin}."
      },
      "getRoleMember(bytes32,uint256)": {
        "details": "Returns one of the accounts that have `role`. `index` must be a value between 0 and {getRoleMemberCount}, non-inclusive. Role bearers are not sorted in any particular way, and their ordering may change at any point. WARNING: When using {getRoleMember} and {getRoleMemberCount}, make sure you perform all queries on the same block. See the following https://forum.openzeppelin.com/t/iterating-over-elements-on-enumerableset-in-openzeppelin-contracts/2296[forum post] for more information."
      },
      "getRoleMemberCount(bytes32)": {
        "details": "Returns the number of accounts that have `role`. Can be used together with {getRoleMember} to enumerate all bearers of a role."
      },
      "grantRole(bytes32,address)": {
        "details": "Grants `role` to `account`. If `account` had not been already granted `role`, emits a {RoleGranted} event. Requirements: - the caller must have ``role``'s admin role."
      },
      "hasRole(bytes32,address)": {
        "details": "Returns `true` if `account` has been granted `role`."
      },
      "remove777Token(address)": {
        "params": {
          "_erc777Address": "Address of the Token"
        }
      },
      "renounceRole(bytes32,address)": {
        "details": "Revokes `role` from the calling account. Roles are often managed via {grantRole} and {revokeRole}: this function's purpose is to provide a mechanism for accounts to lose their privileges if they are compromised (such as when a trusted device is misplaced). If the calling account had been revoked `role`, emits a {RoleRevoked} event. Requirements: - the caller must be `account`."
      },
      "revokeRole(bytes32,address)": {
        "details": "Revokes `role` from `account`. If `account` had been granted `role`, emits a {RoleRevoked} event. Requirements: - the caller must have ``role``'s admin role."
      },
      "supportsInterface(bytes4)": {
        "details": "See {IERC165-supportsInterface}."
      },
      "tokensReceived(address,address,address,uint256,bytes,bytes)": {
        "details": "This is our deployment mechanism for ERC721 contracts!",
        "params": {
          "amount": "The number of tokens sent",
          "from": "The owner of the tokens",
          "operator": "The ERC777 operator calling the send() function",
          "operatorData": "bytes sent from the operator",
          "to": "The recipient of the tokens",
          "userData": "bytes sent from the send call"
        }
      },
      "withdrawTokens(address,uint256)": {
        "details": "If the contract has less than the amount, the ERC777 contract will revertAccessControl makes sure only an OWNER can withdraw",
        "params": {
          "amount": "Amount of tokens to withdraw",
          "erc777": "Address of the ERC777 contract"
        }
      }
    },
    "title": "RAIR ERC721 Factory",
    "version": 1
  },
  "userdoc": {
    "kind": "user",
    "methods": {
      "add777Token(address,uint256)": {
        "notice": "Adds an address to the list of allowed minters"
      },
      "constructor": {
        "notice": "Factory Constructor"
      },
      "getContractCountOf(address)": {
        "notice": "Returns the number of contracts deployed by an address"
      },
      "getCreatorsCount()": {
        "notice": "Returns the number of addresses that have deployed a contract"
      },
      "remove777Token(address)": {
        "notice": "Removes an address from the list of allowed minters"
      },
      "tokensReceived(address,address,address,uint256,bytes,bytes)": {
        "notice": "Function called by an ERC777 when they send tokens"
      },
      "withdrawTokens(address,uint256)": {
        "notice": "Transfers tokens from the factory to any of the OWNER addresses"
      }
    },
    "notice": "Handles the deployment of ERC721 RAIR Tokens",
    "version": 1
  },
  "storageLayout": {
    "storage": [
      {
        "astId": 24,
        "contract": "contracts/RAIR-ERC721_Factory.sol:RAIR_Token_Factory",
        "label": "_roles",
        "offset": 0,
        "slot": "0",
        "type": "t_mapping(t_bytes32,t_struct(RoleData)19_storage)"
      },
      {
        "astId": 327,
        "contract": "contracts/RAIR-ERC721_Factory.sol:RAIR_Token_Factory",
        "label": "_roleMembers",
        "offset": 0,
        "slot": "1",
        "type": "t_mapping(t_bytes32,t_struct(AddressSet)4430_storage)"
      },
      {
        "astId": 6591,
        "contract": "contracts/RAIR-ERC721_Factory.sol:RAIR_Token_Factory",
        "label": "ownerToContracts",
        "offset": 0,
        "slot": "2",
        "type": "t_mapping(t_address,t_array(t_address)dyn_storage)"
      },
      {
        "astId": 6595,
        "contract": "contracts/RAIR-ERC721_Factory.sol:RAIR_Token_Factory",
        "label": "contractToOwner",
        "offset": 0,
        "slot": "3",
        "type": "t_mapping(t_address,t_address)"
      },
      {
        "astId": 6599,
        "contract": "contracts/RAIR-ERC721_Factory.sol:RAIR_Token_Factory",
        "label": "deploymentCostForERC777",
        "offset": 0,
        "slot": "4",
        "type": "t_mapping(t_address,t_uint256)"
      },
      {
        "astId": 6602,
        "contract": "contracts/RAIR-ERC721_Factory.sol:RAIR_Token_Factory",
        "label": "creators",
        "offset": 0,
        "slot": "5",
        "type": "t_array(t_address)dyn_storage"
      }
    ],
    "types": {
      "t_address": {
        "encoding": "inplace",
        "label": "address",
        "numberOfBytes": "20"
      },
      "t_array(t_address)dyn_storage": {
        "base": "t_address",
        "encoding": "dynamic_array",
        "label": "address[]",
        "numberOfBytes": "32"
      },
      "t_array(t_bytes32)dyn_storage": {
        "base": "t_bytes32",
        "encoding": "dynamic_array",
        "label": "bytes32[]",
        "numberOfBytes": "32"
      },
      "t_bool": {
        "encoding": "inplace",
        "label": "bool",
        "numberOfBytes": "1"
      },
      "t_bytes32": {
        "encoding": "inplace",
        "label": "bytes32",
        "numberOfBytes": "32"
      },
      "t_mapping(t_address,t_address)": {
        "encoding": "mapping",
        "key": "t_address",
        "label": "mapping(address => address)",
        "numberOfBytes": "32",
        "value": "t_address"
      },
      "t_mapping(t_address,t_array(t_address)dyn_storage)": {
        "encoding": "mapping",
        "key": "t_address",
        "label": "mapping(address => address[])",
        "numberOfBytes": "32",
        "value": "t_array(t_address)dyn_storage"
      },
      "t_mapping(t_address,t_bool)": {
        "encoding": "mapping",
        "key": "t_address",
        "label": "mapping(address => bool)",
        "numberOfBytes": "32",
        "value": "t_bool"
      },
      "t_mapping(t_address,t_uint256)": {
        "encoding": "mapping",
        "key": "t_address",
        "label": "mapping(address => uint256)",
        "numberOfBytes": "32",
        "value": "t_uint256"
      },
      "t_mapping(t_bytes32,t_struct(AddressSet)4430_storage)": {
        "encoding": "mapping",
        "key": "t_bytes32",
        "label": "mapping(bytes32 => struct EnumerableSet.AddressSet)",
        "numberOfBytes": "32",
        "value": "t_struct(AddressSet)4430_storage"
      },
      "t_mapping(t_bytes32,t_struct(RoleData)19_storage)": {
        "encoding": "mapping",
        "key": "t_bytes32",
        "label": "mapping(bytes32 => struct AccessControl.RoleData)",
        "numberOfBytes": "32",
        "value": "t_struct(RoleData)19_storage"
      },
      "t_mapping(t_bytes32,t_uint256)": {
        "encoding": "mapping",
        "key": "t_bytes32",
        "label": "mapping(bytes32 => uint256)",
        "numberOfBytes": "32",
        "value": "t_uint256"
      },
      "t_struct(AddressSet)4430_storage": {
        "encoding": "inplace",
        "label": "struct EnumerableSet.AddressSet",
        "members": [
          {
            "astId": 4429,
            "contract": "contracts/RAIR-ERC721_Factory.sol:RAIR_Token_Factory",
            "label": "_inner",
            "offset": 0,
            "slot": "0",
            "type": "t_struct(Set)4129_storage"
          }
        ],
        "numberOfBytes": "64"
      },
      "t_struct(RoleData)19_storage": {
        "encoding": "inplace",
        "label": "struct AccessControl.RoleData",
        "members": [
          {
            "astId": 16,
            "contract": "contracts/RAIR-ERC721_Factory.sol:RAIR_Token_Factory",
            "label": "members",
            "offset": 0,
            "slot": "0",
            "type": "t_mapping(t_address,t_bool)"
          },
          {
            "astId": 18,
            "contract": "contracts/RAIR-ERC721_Factory.sol:RAIR_Token_Factory",
            "label": "adminRole",
            "offset": 0,
            "slot": "1",
            "type": "t_bytes32"
          }
        ],
        "numberOfBytes": "64"
      },
      "t_struct(Set)4129_storage": {
        "encoding": "inplace",
        "label": "struct EnumerableSet.Set",
        "members": [
          {
            "astId": 4124,
            "contract": "contracts/RAIR-ERC721_Factory.sol:RAIR_Token_Factory",
            "label": "_values",
            "offset": 0,
            "slot": "0",
            "type": "t_array(t_bytes32)dyn_storage"
          },
          {
            "astId": 4128,
            "contract": "contracts/RAIR-ERC721_Factory.sol:RAIR_Token_Factory",
            "label": "_indexes",
            "offset": 0,
            "slot": "1",
            "type": "t_mapping(t_bytes32,t_uint256)"
          }
        ],
        "numberOfBytes": "64"
      },
      "t_uint256": {
        "encoding": "inplace",
        "label": "uint256",
        "numberOfBytes": "32"
      }
    }
  }
}