{
  "address": "0xb88af2c5d0f095A8AA093CAe95c9e5e2e158b677",
  "abi": [
    {
      "inputs": [
        {
          "internalType": "address",
          "name": "_treasury",
          "type": "address"
        }
      ],
      "stateMutability": "nonpayable",
      "type": "constructor"
    },
    {
      "anonymous": false,
      "inputs": [
        {
          "indexed": false,
          "internalType": "uint256",
          "name": "newNodeFee",
          "type": "uint256"
        }
      ],
      "name": "ChangedNodeFee",
      "type": "event"
    },
    {
      "anonymous": false,
      "inputs": [
        {
          "indexed": false,
          "internalType": "address",
          "name": "newTreasury",
          "type": "address"
        }
      ],
      "name": "ChangedTreasuryAddress",
      "type": "event"
    },
    {
      "anonymous": false,
      "inputs": [
        {
          "indexed": false,
          "internalType": "address",
          "name": "treasuryAddress",
          "type": "address"
        },
        {
          "indexed": false,
          "internalType": "uint256",
          "name": "newTreasuryFee",
          "type": "uint256"
        }
      ],
      "name": "ChangedTreasuryFee",
      "type": "event"
    },
    {
      "anonymous": false,
      "inputs": [
        {
          "indexed": false,
          "internalType": "address",
          "name": "contractAddress",
          "type": "address"
        },
        {
          "indexed": false,
          "internalType": "uint256",
          "name": "recipients",
          "type": "uint256"
        },
        {
          "indexed": false,
          "internalType": "uint256",
          "name": "remainderForSeller",
          "type": "uint256"
        }
      ],
      "name": "CustomRoyaltiesSet",
      "type": "event"
    },
    {
      "anonymous": false,
      "inputs": [
        {
          "indexed": false,
          "internalType": "address",
          "name": "operator",
          "type": "address"
        },
        {
          "indexed": false,
          "internalType": "address",
          "name": "tokenAddress",
          "type": "address"
        },
        {
          "indexed": false,
          "internalType": "uint256",
          "name": "tokenId",
          "type": "uint256"
        },
        {
          "indexed": false,
          "internalType": "uint256",
          "name": "price",
          "type": "uint256"
        },
        {
          "indexed": false,
          "internalType": "enum Resale_MarketPlace.OfferStatus",
          "name": "status",
          "type": "uint8"
        },
        {
          "indexed": false,
          "internalType": "uint256",
          "name": "tradeid",
          "type": "uint256"
        }
      ],
      "name": "OfferStatusChange",
      "type": "event"
    },
    {
      "anonymous": false,
      "inputs": [
        {
          "indexed": true,
          "internalType": "bytes32",
          "name": "role",
          "type": "bytes32"
        },
        {
          "indexed": true,
          "internalType": "bytes32",
          "name": "previousAdminRole",
          "type": "bytes32"
        },
        {
          "indexed": true,
          "internalType": "bytes32",
          "name": "newAdminRole",
          "type": "bytes32"
        }
      ],
      "name": "RoleAdminChanged",
      "type": "event"
    },
    {
      "anonymous": false,
      "inputs": [
        {
          "indexed": true,
          "internalType": "bytes32",
          "name": "role",
          "type": "bytes32"
        },
        {
          "indexed": true,
          "internalType": "address",
          "name": "account",
          "type": "address"
        },
        {
          "indexed": true,
          "internalType": "address",
          "name": "sender",
          "type": "address"
        }
      ],
      "name": "RoleGranted",
      "type": "event"
    },
    {
      "anonymous": false,
      "inputs": [
        {
          "indexed": true,
          "internalType": "bytes32",
          "name": "role",
          "type": "bytes32"
        },
        {
          "indexed": true,
          "internalType": "address",
          "name": "account",
          "type": "address"
        },
        {
          "indexed": true,
          "internalType": "address",
          "name": "sender",
          "type": "address"
        }
      ],
      "name": "RoleRevoked",
      "type": "event"
    },
    {
      "anonymous": false,
      "inputs": [
        {
          "indexed": false,
          "internalType": "uint256",
          "name": "offerId",
          "type": "uint256"
        },
        {
          "indexed": false,
          "internalType": "uint256",
          "name": "oldPrice",
          "type": "uint256"
        },
        {
          "indexed": false,
          "internalType": "uint256",
          "name": "newPrice",
          "type": "uint256"
        }
      ],
      "name": "UpdatedOfferPrice",
      "type": "event"
    },
    {
      "inputs": [],
      "name": "DEFAULT_ADMIN_ROLE",
      "outputs": [
        {
          "internalType": "bytes32",
          "name": "",
          "type": "bytes32"
        }
      ],
      "stateMutability": "view",
      "type": "function"
    },
    {
      "inputs": [
        {
          "internalType": "uint256",
          "name": "offerIndex",
          "type": "uint256"
        }
      ],
      "name": "buyResaleOffer",
      "outputs": [],
      "stateMutability": "payable",
      "type": "function"
    },
    {
      "inputs": [
        {
          "internalType": "uint256",
          "name": "offerIndex",
          "type": "uint256"
        }
      ],
      "name": "cancelOffer",
      "outputs": [],
      "stateMutability": "nonpayable",
      "type": "function"
    },
    {
      "inputs": [
        {
          "internalType": "uint256",
          "name": "_tokenId",
          "type": "uint256"
        },
        {
          "internalType": "uint256",
          "name": "_price",
          "type": "uint256"
        },
        {
          "internalType": "address",
          "name": "_contractAddress",
          "type": "address"
        },
        {
          "internalType": "address",
          "name": "_nodeAddress",
          "type": "address"
        }
      ],
      "name": "createResaleOffer",
      "outputs": [],
      "stateMutability": "nonpayable",
      "type": "function"
    },
    {
      "inputs": [],
      "name": "feeDecimals",
      "outputs": [
        {
          "internalType": "uint16",
          "name": "",
          "type": "uint16"
        }
      ],
      "stateMutability": "view",
      "type": "function"
    },
    {
      "inputs": [],
      "name": "getAllOnSale",
      "outputs": [
        {
          "components": [
            {
              "internalType": "address",
              "name": "sellerAddress",
              "type": "address"
            },
            {
              "internalType": "address",
              "name": "contractAddress",
              "type": "address"
            },
            {
              "internalType": "uint256",
              "name": "tokenId",
              "type": "uint256"
            },
            {
              "internalType": "uint256",
              "name": "price",
              "type": "uint256"
            },
            {
              "internalType": "enum Resale_MarketPlace.OfferStatus",
              "name": "tradeStatus",
              "type": "uint8"
            },
            {
              "internalType": "address",
              "name": "nodeAddress",
              "type": "address"
            }
          ],
          "internalType": "struct Resale_MarketPlace.Offer[]",
          "name": "",
          "type": "tuple[]"
        }
      ],
      "stateMutability": "view",
      "type": "function"
    },
    {
      "inputs": [
        {
          "internalType": "uint256",
          "name": "offerIndex",
          "type": "uint256"
        }
      ],
      "name": "getOfferInfo",
      "outputs": [
        {
          "components": [
            {
              "internalType": "address",
              "name": "sellerAddress",
              "type": "address"
            },
            {
              "internalType": "address",
              "name": "contractAddress",
              "type": "address"
            },
            {
              "internalType": "uint256",
              "name": "tokenId",
              "type": "uint256"
            },
            {
              "internalType": "uint256",
              "name": "price",
              "type": "uint256"
            },
            {
              "internalType": "enum Resale_MarketPlace.OfferStatus",
              "name": "tradeStatus",
              "type": "uint8"
            },
            {
              "internalType": "address",
              "name": "nodeAddress",
              "type": "address"
            }
          ],
          "internalType": "struct Resale_MarketPlace.Offer",
          "name": "selectedOffer",
          "type": "tuple"
        }
      ],
      "stateMutability": "view",
      "type": "function"
    },
    {
      "inputs": [
        {
          "internalType": "bytes32",
          "name": "role",
          "type": "bytes32"
        }
      ],
      "name": "getRoleAdmin",
      "outputs": [
        {
          "internalType": "bytes32",
          "name": "",
          "type": "bytes32"
        }
      ],
      "stateMutability": "view",
      "type": "function"
    },
    {
      "inputs": [
        {
          "internalType": "address",
          "name": "contractAddress",
          "type": "address"
        },
        {
          "internalType": "uint256",
          "name": "tokenId",
          "type": "uint256"
        }
      ],
      "name": "getTokenIdStatus",
      "outputs": [
        {
          "internalType": "bool",
          "name": "",
          "type": "bool"
        }
      ],
      "stateMutability": "view",
      "type": "function"
    },
    {
      "inputs": [
        {
          "internalType": "address",
          "name": "user",
          "type": "address"
        }
      ],
      "name": "getUserOffers",
      "outputs": [
        {
          "components": [
            {
              "internalType": "address",
              "name": "sellerAddress",
              "type": "address"
            },
            {
              "internalType": "address",
              "name": "contractAddress",
              "type": "address"
            },
            {
              "internalType": "uint256",
              "name": "tokenId",
              "type": "uint256"
            },
            {
              "internalType": "uint256",
              "name": "price",
              "type": "uint256"
            },
            {
              "internalType": "enum Resale_MarketPlace.OfferStatus",
              "name": "tradeStatus",
              "type": "uint8"
            },
            {
              "internalType": "address",
              "name": "nodeAddress",
              "type": "address"
            }
          ],
          "internalType": "struct Resale_MarketPlace.Offer[]",
          "name": "",
          "type": "tuple[]"
        }
      ],
      "stateMutability": "view",
      "type": "function"
    },
    {
      "inputs": [
        {
          "internalType": "bytes32",
          "name": "role",
          "type": "bytes32"
        },
        {
          "internalType": "address",
          "name": "account",
          "type": "address"
        }
      ],
      "name": "grantRole",
      "outputs": [],
      "stateMutability": "nonpayable",
      "type": "function"
    },
    {
      "inputs": [
        {
          "internalType": "bytes32",
          "name": "role",
          "type": "bytes32"
        },
        {
          "internalType": "address",
          "name": "account",
          "type": "address"
        }
      ],
      "name": "hasRole",
      "outputs": [
        {
          "internalType": "bool",
          "name": "",
          "type": "bool"
        }
      ],
      "stateMutability": "view",
      "type": "function"
    },
    {
      "inputs": [],
      "name": "nodeFee",
      "outputs": [
        {
          "internalType": "uint256",
          "name": "",
          "type": "uint256"
        }
      ],
      "stateMutability": "view",
      "type": "function"
    },
    {
      "inputs": [
        {
          "internalType": "bool",
          "name": "_pause",
          "type": "bool"
        }
      ],
      "name": "pauseContract",
      "outputs": [],
      "stateMutability": "nonpayable",
      "type": "function"
    },
    {
      "inputs": [],
      "name": "paused",
      "outputs": [
        {
          "internalType": "bool",
          "name": "",
          "type": "bool"
        }
      ],
      "stateMutability": "view",
      "type": "function"
    },
    {
      "inputs": [
        {
          "internalType": "bytes32",
          "name": "role",
          "type": "bytes32"
        },
        {
          "internalType": "address",
          "name": "account",
          "type": "address"
        }
      ],
      "name": "renounceRole",
      "outputs": [],
      "stateMutability": "nonpayable",
      "type": "function"
    },
    {
      "inputs": [
        {
          "internalType": "bytes32",
          "name": "role",
          "type": "bytes32"
        },
        {
          "internalType": "address",
          "name": "account",
          "type": "address"
        }
      ],
      "name": "revokeRole",
      "outputs": [],
      "stateMutability": "nonpayable",
      "type": "function"
    },
    {
      "inputs": [
        {
          "internalType": "address",
          "name": "contractAddress",
          "type": "address"
        },
        {
          "internalType": "address[]",
          "name": "recipients",
          "type": "address[]"
        },
        {
          "internalType": "uint256[]",
          "name": "percentages",
          "type": "uint256[]"
        }
      ],
      "name": "setCustomRoyalties",
      "outputs": [],
      "stateMutability": "nonpayable",
      "type": "function"
    },
    {
      "inputs": [
        {
          "internalType": "uint256",
          "name": "_newFee",
          "type": "uint256"
        }
      ],
      "name": "setNodeFee",
      "outputs": [],
      "stateMutability": "nonpayable",
      "type": "function"
    },
    {
      "inputs": [
        {
          "internalType": "address",
          "name": "_newTreasury",
          "type": "address"
        }
      ],
      "name": "setTreasuryAddress",
      "outputs": [],
      "stateMutability": "nonpayable",
      "type": "function"
    },
    {
      "inputs": [
        {
          "internalType": "uint256",
          "name": "_newFee",
          "type": "uint256"
        }
      ],
      "name": "setTreasuryFee",
      "outputs": [],
      "stateMutability": "nonpayable",
      "type": "function"
    },
    {
      "inputs": [
        {
          "internalType": "bytes4",
          "name": "interfaceId",
          "type": "bytes4"
        }
      ],
      "name": "supportsInterface",
      "outputs": [
        {
          "internalType": "bool",
          "name": "",
          "type": "bool"
        }
      ],
      "stateMutability": "view",
      "type": "function"
    },
    {
      "inputs": [
        {
          "internalType": "address",
          "name": "",
          "type": "address"
        },
        {
          "internalType": "uint256",
          "name": "",
          "type": "uint256"
        }
      ],
      "name": "tokenOnSale",
      "outputs": [
        {
          "internalType": "bool",
          "name": "",
          "type": "bool"
        }
      ],
      "stateMutability": "view",
      "type": "function"
    },
    {
      "inputs": [],
      "name": "treasuryAddress",
      "outputs": [
        {
          "internalType": "address",
          "name": "",
          "type": "address"
        }
      ],
      "stateMutability": "view",
      "type": "function"
    },
    {
      "inputs": [],
      "name": "treasuryFee",
      "outputs": [
        {
          "internalType": "uint256",
          "name": "",
          "type": "uint256"
        }
      ],
      "stateMutability": "view",
      "type": "function"
    },
    {
      "inputs": [
        {
          "internalType": "uint8",
          "name": "_newDecimals",
          "type": "uint8"
        }
      ],
      "name": "updateFeeDecimals",
      "outputs": [],
      "stateMutability": "nonpayable",
      "type": "function"
    },
    {
      "inputs": [
        {
          "internalType": "uint256",
          "name": "offerIndex",
          "type": "uint256"
        },
        {
          "internalType": "uint256",
          "name": "newPrice",
          "type": "uint256"
        }
      ],
      "name": "updateOffer",
      "outputs": [],
      "stateMutability": "nonpayable",
      "type": "function"
    },
    {
      "inputs": [
        {
          "internalType": "uint256",
          "name": "_amount",
          "type": "uint256"
        }
      ],
      "name": "withdraw",
      "outputs": [],
      "stateMutability": "nonpayable",
      "type": "function"
    }
  ],
  "transactionHash": "0xb872a515bc87f46d8a4af46cbfe3707c2079d97824f385a76d62d98d0d158271",
  "args": [
    "0xEC30759D0A3F3CE0A730920DC29d74e441f492C3"
  ],
  "numDeployments": 1,
  "solcInputHash": "0579444ce499dccb326c08114d047f03",
  "bytecode": "0x60806040526001805461ffff60a01b1916600360a01b1790556103e86002556123286003556007805460ff191690553480156200003b57600080fd5b5060405162002ea338038062002ea38339810160408190526200005e916200012e565b600180546001600160a01b0319166001600160a01b038316179055620000866000336200008d565b5062000160565b6000828152602081815260408083206001600160a01b038516845290915290205460ff166200012a576000828152602081815260408083206001600160a01b03851684529091529020805460ff19166001179055620000e93390565b6001600160a01b0316816001600160a01b0316837f2f8788117e7eff1d82e926ec794901d17c78024a50270940304540a733656f0d60405160405180910390a45b5050565b6000602082840312156200014157600080fd5b81516001600160a01b03811681146200015957600080fd5b9392505050565b612d3380620001706000396000f3fe6080604052600436106101b75760003560e01c8063802c2a00116100ec578063cc0f17861161008a578063e272b89211610064578063e272b89214610546578063ef706adf14610566578063f416253014610586578063fa9543a31461059c57600080fd5b8063cc0f1786146104db578063cc32d17614610510578063d547741f1461052657600080fd5b806391d14854116100c657806391d148541461044e5780639cbd43161461046e578063a217fddf1461048e578063c5f956af146104a357600080fd5b8063802c2a00146103d35780638909331014610419578063908945591461043957600080fd5b80633000831c116101595780636605bfda116101335780636605bfda1461032b578063661d2c2c1461034b57806377e741c71461037857806379a799f11461039857600080fd5b80633000831c146102d157806336568abe146102f15780635c975abb1461031157600080fd5b8063248a9ca311610195578063248a9ca3146102265780632a1da982146102645780632e1a7d4d146102915780632f2ff15d146102b157600080fd5b806301ffc9a7146101bc5780630b7b925b146101f15780631cfb7f1d14610213575b600080fd5b3480156101c857600080fd5b506101dc6101d73660046125cf565b6105bc565b60405190151581526020015b60405180910390f35b3480156101fd57600080fd5b5061021161020c3660046125f9565b6105f3565b005b61021161022136600461261b565b6106e1565b34801561023257600080fd5b5061025661024136600461261b565b60009081526020819052604090206001015490565b6040519081526020016101e8565b34801561027057600080fd5b5061028461027f36600461261b565b610e1d565b6040516101e891906126b8565b34801561029d57600080fd5b506102116102ac36600461261b565b610ec4565b3480156102bd57600080fd5b506102116102cc3660046126db565b610f01565b3480156102dd57600080fd5b506102116102ec36600461270b565b610f26565b3480156102fd57600080fd5b5061021161030c3660046126db565b610f96565b34801561031d57600080fd5b506007546101dc9060ff1681565b34801561033757600080fd5b5061021161034636600461272e565b611014565b34801561035757600080fd5b5061036b61036636600461272e565b6110bd565b6040516101e8919061274b565b34801561038457600080fd5b5061021161039336600461261b565b61127f565b3480156103a457600080fd5b506101dc6103b3366004612799565b600660209081526000928352604080842090915290825290205460ff1681565b3480156103df57600080fd5b506101dc6103ee366004612799565b6001600160a01b03919091166000908152600660209081526040808320938352929052205460ff1690565b34801561042557600080fd5b5061021161043436600461261b565b6112d2565b34801561044557600080fd5b5061036b611312565b34801561045a57600080fd5b506101dc6104693660046126db565b6114e7565b34801561047a57600080fd5b50610211610489366004612811565b611510565b34801561049a57600080fd5b50610256600081565b3480156104af57600080fd5b506001546104c3906001600160a01b031681565b6040516001600160a01b0390911681526020016101e8565b3480156104e757600080fd5b506001546104fd90600160a01b900461ffff1681565b60405161ffff90911681526020016101e8565b34801561051c57600080fd5b5061025660035481565b34801561053257600080fd5b506102116105413660046126db565b611a94565b34801561055257600080fd5b506102116105613660046128a2565b611ab9565b34801561057257600080fd5b5061021161058136600461261b565b611ad8565b34801561059257600080fd5b5061025660025481565b3480156105a857600080fd5b506102116105b73660046128bf565b611c67565b60006001600160e01b03198216637965db0b60e01b14806105ed57506301ffc9a760e01b6001600160e01b03198316145b92915050565b81600080828152600460208190526040909120015460ff16600281111561061c5761061c612634565b146106425760405162461bcd60e51b815260040161063990612909565b60405180910390fd5b60008381526004602052604090206001810154600282015461066d916001600160a01b0316906120e6565b80546001600160a01b0316331461068f5780546001600160a01b031916331781555b6003810180549084905560408051868152602081018390529081018590527f5399720186c19a605e375096cec0c6cc8608c265f13a859e1989ff509f2510f19060600160405180910390a15050505050565b80600080828152600460208190526040909120015460ff16600281111561070a5761070a612634565b146107275760405162461bcd60e51b815260040161063990612909565b60075460ff161561074a5760405162461bcd60e51b815260040161063990612953565b6000828152600460208181526040808420815160c08101835281546001600160a01b03908116825260018301541693810193909352600280820154928401929092526003810154606084015292830154919291608084019160ff909116908111156107b7576107b7612634565b60028111156107c8576107c8612634565b81526004919091015461010090046001600160a01b031660209091015290503315801590610800575080516001600160a01b03163314155b61085a5760405162461bcd60e51b815260206004820152602560248201527f526573616c65204d61726b6574706c6163653a20496e76616c69642061646472604482015264657373657360d81b6064820152608401610639565b80606001513410156108a35760405162461bcd60e51b8152602060048201526012602482015271496e737566696369656e742046756e64732160701b6044820152606401610639565b6001546000906108bf90600160a01b900461ffff16600a612a91565b6108ca906064612aa1565b9050336001600160a01b03166108fc8360600151346108e99190612ac0565b6040518115909202916000818181858888f19350505050158015610911573d6000803e3d6000fd5b5060008160035484606001516109279190612aa1565b6109319190612ad7565b90508260a001516001600160a01b03166108fc8360025486606001516109579190612aa1565b6109619190612ad7565b6040518115909202916000818181858888f19350505050158015610989573d6000803e3d6000fd5b506001546040516001600160a01b039091169082156108fc029083906000818181858888f193505050501580156109c4573d6000803e3d6000fd5b506000818360025486606001516109db9190612aa1565b6109e59190612ad7565b6109ef9190612af9565b6020808601516001600160a01b0316600090815260059091526040902080549192509015610b72576001546002820154600091600160a01b900461ffff1614610aaf575b8154811015610aab57610a78826001018281548110610a5457610a54612b11565b6000918252602090912001546002840154600154600160a01b900461ffff166121c4565b826001018281548110610a8d57610a8d612b11565b60009182526020909120015580610aa381612b27565b915050610a33565b5060005b8154811015610b6c57600085836001018381548110610ad057610ad0612b11565b90600052602060002001548860600151610aea9190612aa1565b610af49190612ad7565b9050826000018281548110610b0b57610b0b612b11565b60009182526020822001546040516001600160a01b039091169183156108fc02918491818181858888f19350505050158015610b4b573d6000803e3d6000fd5b50610b568185612af9565b9350508080610b6490612b27565b915050610aaf565b50610cc0565b60208501516040516301ffc9a760e01b8152632baae9fd60e01b60048201526001600160a01b03909116906301ffc9a790602401602060405180830381865afa158015610bc3573d6000803e3d6000fd5b505050506040513d601f19601f82011682018060405250810190610be79190612b40565b15610cc05760008086602001516001600160a01b0316632a55205a886040015189606001516040518363ffffffff1660e01b8152600401610c32929190918252602082015260400190565b60408051808303816000875af1158015610c50573d6000803e3d6000fd5b505050506040513d601f19601f82011682018060405250810190610c749190612b5d565b9092509050610c838185612af9565b6040519094506001600160a01b0383169082156108fc029083906000818181858888f19350505050158015610cbc573d6000803e3d6000fd5b5050505b6000828660600151610cd29190612ac0565b86516040519192506001600160a01b03169082156108fc029083906000818181858888f19350505050158015610d0c573d6000803e3d6000fd5b50602086015186516040808901519051632142170760e11b81526001600160a01b03928316600482015233602482015260448101919091529116906342842e0e90606401600060405180830381600087803b158015610d6a57600080fd5b505af1158015610d7e573d6000803e3d6000fd5b50505060008981526004602081815260408084209092018054600160ff1991821681179092558b830180516001600160a01b03168652600684528486208d860180518852945294849020805490911690559251905160608b015192517f41e03f4e89bba40e7c697cf5eb205e7c8a3144fee6196d098f985afbc67f91669550610e0b943394918f90612b8b565b60405180910390a15050505050505050565b610e256124e6565b600082815260046020818152604092839020835160c08101855281546001600160a01b039081168252600183015416928101929092526002808201549483019490945260038101546060830152918201549092608084019160ff1690811115610e9057610e90612634565b6002811115610ea157610ea1612634565b81526004919091015461010090046001600160a01b031660209091015292915050565b6000610ecf816121f0565b604051339083156108fc029084906000818181858888f19350505050158015610efc573d6000803e3d6000fd5b505050565b600082815260208190526040902060010154610f1c816121f0565b610efc83836121fd565b6000610f31816121f0565b600354600154610f509190600160a01b900461ffff1660ff85166121c4565b600355600254600154610f729190600160a01b900461ffff1660ff85166121c4565b600255506001805461ffff60a01b191660ff92909216600160a01b02919091179055565b6001600160a01b03811633146110065760405162461bcd60e51b815260206004820152602f60248201527f416363657373436f6e74726f6c3a2063616e206f6e6c792072656e6f756e636560448201526e103937b632b9903337b91039b2b63360891b6064820152608401610639565b6110108282612281565b5050565b600061101f816121f0565b6001600160a01b0382166110675760405162461bcd60e51b815260206004820152600f60248201526e696e76616c6964206164647265737360881b6044820152606401610639565b600180546001600160a01b0319166001600160a01b0384169081179091556040519081527ff8ef33c27d5967a7c9bb579ab89f878b75935e5cf8d3a333efde727a18b928c8906020015b60405180910390a15050565b606060008060005b600854811015611110576000818152600460205260409020546001600160a01b038087169116036110fe57826110fa81612b27565b9350505b8061110881612b27565b9150506110c5565b5060008267ffffffffffffffff81111561112c5761112c612bcf565b60405190808252806020026020018201604052801561116557816020015b6111526124e6565b81526020019060019003908161114a5790505b50905082156112775760005b600854811015611275576000818152600460205260409020546001600160a01b0380881691160361126357600081815260046020818152604092839020835160c08101855281546001600160a01b039081168252600183015416928101929092526002808201549483019490945260038101546060830152918201549092608084019160ff169081111561120757611207612634565b600281111561121857611218612634565b81526004919091015461010090046001600160a01b0316602090910152825183908590811061124957611249612b11565b6020026020010181905250828061125f90612b27565b9350505b8061126d81612b27565b915050611171565b505b949350505050565b600061128a816121f0565b6003829055600154604080516001600160a01b039092168252602082018490527ffee0ffc9a309cc56161d3a44f32c0cdbc08cf4c027745cdcfe8fb92c03fa62f191016110b1565b60006112dd816121f0565b60028290556040518281527f557f3e7358636963c97de23e6756c7058d3a368754ec3d1b497f23e4dd964e79906020016110b1565b606060008060005b60085481101561136f5760008181526004602081905260408220015460ff16600281111561134a5761134a612634565b0361135d578261135981612b27565b9350505b8061136781612b27565b91505061131a565b5060008267ffffffffffffffff81111561138b5761138b612bcf565b6040519080825280602002602001820160405280156113c457816020015b6113b16124e6565b8152602001906001900390816113a95790505b50905082156114e05760005b6008548110156114de5760008181526004602081905260408220015460ff16600281111561140057611400612634565b036114cc57600081815260046020818152604092839020835160c08101855281546001600160a01b039081168252600183015416928101929092526002808201549483019490945260038101546060830152918201549092608084019160ff169081111561147057611470612634565b600281111561148157611481612634565b81526004919091015461010090046001600160a01b031660209091015282518390859081106114b2576114b2612b11565b602002602001018190525082806114c890612b27565b9350505b806114d681612b27565b9150506113d0565b505b9392505050565b6000918252602082815260408084206001600160a01b0393909316845291905290205460ff1690565b6040516301ffc9a760e01b8152632baae9fd60e01b6004820152859081906001600160a01b038216906301ffc9a790602401602060405180830381865afa15801561155f573d6000803e3d6000fd5b505050506040513d601f19601f820116820180604052508101906115839190612b40565b61160d5760405162461bcd60e51b815260206004820152604f60248201527f526573616c65204d61726b6574706c6163653a204f6e6c79207468652045495060448201527f2d323938312072656365697665722063616e206265207265636f676e697a656460648201526e1030b9903a34329031b932b0ba37b960891b608482015260a401610639565b60405163152a902d60e11b8152600060048201819052620186a06024830152906001600160a01b03831690632a55205a9060440160408051808303816000875af115801561165f573d6000803e3d6000fd5b505050506040513d601f19601f820116820180604052508101906116839190612b5d565b5090506001600160a01b0383166116f25760405162461bcd60e51b815260206004820152602d60248201527f526573616c65204d61726b6574706c6163653a20496e76616c6964206164647260448201526c195cdcc81cdc1958da599a5959609a1b6064820152608401610639565b6001600160a01b03811633146117705760405162461bcd60e51b815260206004820152603f60248201527f526573616c65204d61726b6574706c6163653a204f6e6c7920746f6b656e206360448201527f726561746f722063616e2073657420637573746f6d20726f79616c74696573006064820152608401610639565b8584146117f85760405162461bcd60e51b815260206004820152604a60248201527f526573616c65204d61726b6574706c6163653a20526563697069656e7473206160448201527f6e642050657263656e74616765732073686f756c6420686176652074686520736064820152690c2daca40d8cadccee8d60b31b608482015260a401610639565b6000805b878110156119055761183489898381811061181957611819612b11565b905060200201602081019061182e919061272e565b3b151590565b156118cd5760405162461bcd60e51b815260206004820152605860248201527f526573616c65204d61726b6574706c6163653a20466f7220736563757269747960448201527f20726561736f6e7320776520646f6e277420616c6c6f7720736d61727420636f60648201527f6e74726163747320746f20726563656976652066756e64730000000000000000608482015260a401610639565b8686828181106118df576118df612b11565b90506020020135826118f19190612af9565b9150806118fd81612b27565b9150506117fc565b5060035460025460015461192590600160a01b900461ffff16600a612a91565b611930906064612aa1565b61193a9190612ac0565b6119449190612ac0565b81106119a85760405162461bcd60e51b815260206004820152602d60248201527f526573616c65204d61726b6574706c6163653a20526f79616c7469657320657860448201526c6365656420746865203130302560981b6064820152608401610639565b6001600160a01b0389166000908152600560205260409020600154600160a01b900461ffff1660028201556119de818a8a61251c565b506119ed60018201888861257f565b506003546002546001547f8405b689f896a3b88791a33cb30a60fd3911aa903dae9c033b5cb626c21a3c9b928d928c9287929190611a3790600160a01b900461ffff16600a612a91565b611a42906064612aa1565b611a4c9190612ac0565b611a569190612ac0565b611a609190612ac0565b604080516001600160a01b03909416845260208401929092529082015260600160405180910390a150505050505050505050565b600082815260208190526040902060010154611aaf816121f0565b610efc8383612281565b6000611ac4816121f0565b506007805460ff1916911515919091179055565b80600080828152600460208190526040909120015460ff166002811115611b0157611b01612634565b14611b1e5760405162461bcd60e51b815260040161063990612909565b6000828152600460208181526040808420815160c08101835281546001600160a01b03908116825260018301541693810193909352600280820154928401929092526003810154606084015292830154919291608084019160ff90911690811115611b8b57611b8b612634565b6002811115611b9c57611b9c612634565b81526004919091015461010090046001600160a01b03166020918201528101516040820151919250611bcd916120e6565b60008381526004602081815260408084209092018054600260ff19918216811790925585830180516001600160a01b0316865260068452848620878601805188529452948490208054909116905592519051606085015192517f41e03f4e89bba40e7c697cf5eb205e7c8a3144fee6196d098f985afbc67f916694611c5a94339493929091908a90612b8b565b60405180910390a1505050565b6040516331a9108f60e11b8152600481018590528290859082906001600160a01b0382169063e985e9c5908290636352211e90602401602060405180830381865afa158015611cba573d6000803e3d6000fd5b505050506040513d601f19601f82011682018060405250810190611cde9190612be5565b6040516001600160e01b031960e084901b1681526001600160a01b039091166004820152306024820152604401602060405180830381865afa158015611d28573d6000803e3d6000fd5b505050506040513d601f19601f82011682018060405250810190611d4c9190612b40565b80611dc8575060405163020604bf60e21b81526004810183905230906001600160a01b0383169063081812fc90602401602060405180830381865afa158015611d99573d6000803e3d6000fd5b505050506040513d601f19601f82011682018060405250810190611dbd9190612be5565b6001600160a01b0316145b611e2c5760405162461bcd60e51b815260206004820152602f60248201527f526573616c65204d61726b6574706c6163653a204d61726b6574706c6163652060448201526e1a5cc81b9bdd08185c1c1c9bdd9959608a1b6064820152608401610639565b8487611e3882826120e6565b60075460ff1615611e5b5760405162461bcd60e51b815260040161063990612953565b853b15611ed05760405162461bcd60e51b815260206004820152603b60248201527f526573616c65204d61726b6574706c6163653a204e6f6465206164647265737360448201527f2063616e6e6f74206265206120736d61727420636f6e747261637400000000006064820152608401610639565b6001600160a01b03871660009081526006602090815260408083208c845290915290205460ff1615611f595760405162461bcd60e51b815260206004820152602c60248201527f526573616c65204d61726b6574706c6163653a20546f6b656e20697320616c7260448201526b65616479206f6e2073616c6560a01b6064820152608401610639565b6040805160c0810182523381526001600160a01b0389811660208084019182528385018e8152606085018e81526000608087018181528e871660a08901526008548252600494859052979020865181549087166001600160a01b031991821617825594516001808301805492909816919096161790955590516002808601919091559051600385015594519083018054949593949193909260ff199092169190849081111561200a5761200a612634565b021790555060a08201518160040160016101000a8154816001600160a01b0302191690836001600160a01b031602179055509050506001600860008282546120529190612af9565b90915550506001600160a01b03871660009081526006602090815260408083208c84529091528120805460ff191660019081179091556008547f41e03f4e89bba40e7c697cf5eb205e7c8a3144fee6196d098f985afbc67f91669233928b928e928e9290916120c19190612ac0565b6040516120d396959493929190612b8b565b60405180910390a1505050505050505050565b6040516331a9108f60e11b815260048101829052829033906001600160a01b03831690636352211e90602401602060405180830381865afa15801561212f573d6000803e3d6000fd5b505050506040513d601f19601f820116820180604052508101906121539190612be5565b6001600160a01b031614610efc5760405162461bcd60e51b815260206004820152603260248201527f526573616c65204d61726b6574706c6163653a204164647265737320646f6573604482015271103737ba1037bbb7103a3432903a37b5b2b760711b6064820152608401610639565b60006121d183600a612c02565b6121dc83600a612c02565b6121e69086612aa1565b6112779190612ad7565b6121fa81336122e6565b50565b61220782826114e7565b611010576000828152602081815260408083206001600160a01b03851684529091529020805460ff1916600117905561223d3390565b6001600160a01b0316816001600160a01b0316837f2f8788117e7eff1d82e926ec794901d17c78024a50270940304540a733656f0d60405160405180910390a45050565b61228b82826114e7565b15611010576000828152602081815260408083206001600160a01b0385168085529252808320805460ff1916905551339285917ff6391f5c32d9c69d2a47ea670b442974b53935d1edc7fd64eb21e047a839171b9190a45050565b6122f082826114e7565b61101057612308816001600160a01b0316601461234a565b61231383602061234a565b604051602001612324929190612c3e565b60408051601f198184030181529082905262461bcd60e51b825261063991600401612cb3565b60606000612359836002612aa1565b612364906002612af9565b67ffffffffffffffff81111561237c5761237c612bcf565b6040519080825280601f01601f1916602001820160405280156123a6576020820181803683370190505b509050600360fc1b816000815181106123c1576123c1612b11565b60200101906001600160f81b031916908160001a905350600f60fb1b816001815181106123f0576123f0612b11565b60200101906001600160f81b031916908160001a9053506000612414846002612aa1565b61241f906001612af9565b90505b6001811115612497576f181899199a1a9b1b9c1cb0b131b232b360811b85600f166010811061245357612453612b11565b1a60f81b82828151811061246957612469612b11565b60200101906001600160f81b031916908160001a90535060049490941c9361249081612ce6565b9050612422565b5083156114e05760405162461bcd60e51b815260206004820181905260248201527f537472696e67733a20686578206c656e67746820696e73756666696369656e746044820152606401610639565b6040805160c081018252600080825260208201819052918101829052606081018290529060808201908152600060209091015290565b82805482825590600052602060002090810192821561256f579160200282015b8281111561256f5781546001600160a01b0319166001600160a01b0384351617825560209092019160019091019061253c565b5061257b9291506125ba565b5090565b82805482825590600052602060002090810192821561256f579160200282015b8281111561256f57823582559160200191906001019061259f565b5b8082111561257b57600081556001016125bb565b6000602082840312156125e157600080fd5b81356001600160e01b0319811681146114e057600080fd5b6000806040838503121561260c57600080fd5b50508035926020909101359150565b60006020828403121561262d57600080fd5b5035919050565b634e487b7160e01b600052602160045260246000fd5b6003811061266857634e487b7160e01b600052602160045260246000fd5b9052565b60018060a01b03808251168352806020830151166020840152604082015160408401526060820151606084015260808201516126ab608085018261264a565b5060a09182015116910152565b60c081016105ed828461266c565b6001600160a01b03811681146121fa57600080fd5b600080604083850312156126ee57600080fd5b823591506020830135612700816126c6565b809150509250929050565b60006020828403121561271d57600080fd5b813560ff811681146114e057600080fd5b60006020828403121561274057600080fd5b81356114e0816126c6565b6020808252825182820181905260009190848201906040850190845b8181101561278d5761277a83855161266c565b9284019260c09290920191600101612767565b50909695505050505050565b600080604083850312156127ac57600080fd5b82356127b7816126c6565b946020939093013593505050565b60008083601f8401126127d757600080fd5b50813567ffffffffffffffff8111156127ef57600080fd5b6020830191508360208260051b850101111561280a57600080fd5b9250929050565b60008060008060006060868803121561282957600080fd5b8535612834816126c6565b9450602086013567ffffffffffffffff8082111561285157600080fd5b61285d89838a016127c5565b9096509450604088013591508082111561287657600080fd5b50612883888289016127c5565b969995985093965092949392505050565b80151581146121fa57600080fd5b6000602082840312156128b457600080fd5b81356114e081612894565b600080600080608085870312156128d557600080fd5b843593506020850135925060408501356128ee816126c6565b915060608501356128fe816126c6565b939692955090935050565b6020808252602a908201527f526573616c65204d61726b6574706c6163653a204f66666572206973206e6f7460408201526920617661696c61626c6560b01b606082015260800190565b60208082526024908201527f526573616c65204d61726b6574706c6163653a2043757272656e746c792070616040820152631d5cd95960e21b606082015260800190565b634e487b7160e01b600052601160045260246000fd5b600181815b808511156129e85781600019048211156129ce576129ce612997565b808516156129db57918102915b93841c93908002906129b2565b509250929050565b6000826129ff575060016105ed565b81612a0c575060006105ed565b8160018114612a225760028114612a2c57612a48565b60019150506105ed565b60ff841115612a3d57612a3d612997565b50506001821b6105ed565b5060208310610133831016604e8410600b8410161715612a6b575081810a6105ed565b612a7583836129ad565b8060001904821115612a8957612a89612997565b029392505050565b60006114e061ffff8416836129f0565b6000816000190483118215151615612abb57612abb612997565b500290565b600082821015612ad257612ad2612997565b500390565b600082612af457634e487b7160e01b600052601260045260246000fd5b500490565b60008219821115612b0c57612b0c612997565b500190565b634e487b7160e01b600052603260045260246000fd5b600060018201612b3957612b39612997565b5060010190565b600060208284031215612b5257600080fd5b81516114e081612894565b60008060408385031215612b7057600080fd5b8251612b7b816126c6565b6020939093015192949293505050565b6001600160a01b03878116825286166020820152604081018590526060810184905260c08101612bbe608083018561264a565b8260a0830152979650505050505050565b634e487b7160e01b600052604160045260246000fd5b600060208284031215612bf757600080fd5b81516114e0816126c6565b60006114e083836129f0565b60005b83811015612c29578181015183820152602001612c11565b83811115612c38576000848401525b50505050565b7f416363657373436f6e74726f6c3a206163636f756e7420000000000000000000815260008351612c76816017850160208801612c0e565b7001034b99036b4b9b9b4b733903937b6329607d1b6017918401918201528351612ca7816028840160208801612c0e565b01602801949350505050565b6020815260008251806020840152612cd2816040850160208701612c0e565b601f01601f19169190910160400192915050565b600081612cf557612cf5612997565b50600019019056fea2646970667358221220dd5812ae16d395e8d8b0f1d336e4de423467b47257d4acbd3f9530beff40ce3c64736f6c634300080e0033",
  "devdoc": {
    "kind": "dev",
    "methods": {
      "buyResaleOffer(uint256)": {
        "details": "If custom splits exist, it will execute it, if they don't it will try to use the 2981 standard",
        "params": {
          "offerIndex": "Index of the offer on the marketplace"
        }
      },
      "cancelOffer(uint256)": {
        "details": "This doesn't delete the entry, just marks it as CANCELLED",
        "params": {
          "offerIndex": "Index of the offer to be cancelled"
        }
      },
      "constructor": {
        "params": {
          "_treasury": "Address of the treasury"
        }
      },
      "createResaleOffer(uint256,uint256,address,address)": {
        "params": {
          "_contractAddress": "Address of the ERC721 contract",
          "_nodeAddress": "Address of the RAIR node that will receive the node fee",
          "_price": "Price for the NFT to be sold",
          "_tokenId": "Index of the NFT"
        }
      },
      "getAllOnSale()": {
        "details": "This is a view function that uses loops, do not use on any non-view function",
        "returns": {
          "_0": "An array of all open offers on the marketplace"
        }
      },
      "getOfferInfo(uint256)": {
        "params": {
          "offerIndex": "Index of the offer on the marketplace"
        },
        "returns": {
          "selectedOffer": "\tInformation about the offer"
        }
      },
      "getRoleAdmin(bytes32)": {
        "details": "Returns the admin role that controls `role`. See {grantRole} and {revokeRole}. To change a role's admin, use {_setRoleAdmin}."
      },
      "getTokenIdStatus(address,uint256)": {
        "params": {
          "contractAddress": "Address of the ERC721 contract",
          "tokenId": "Index of the NFT"
        },
        "returns": {
          "_0": "Boolean value, true if there is an open offer on the marketplace"
        }
      },
      "getUserOffers(address)": {
        "params": {
          "user": "Address of the seller"
        },
        "returns": {
          "_0": "An array of all offers made by a specific user"
        }
      },
      "grantRole(bytes32,address)": {
        "details": "Grants `role` to `account`. If `account` had not been already granted `role`, emits a {RoleGranted} event. Requirements: - the caller must have ``role``'s admin role."
      },
      "hasRole(bytes32,address)": {
        "details": "Returns `true` if `account` has been granted `role`."
      },
      "pauseContract(bool)": {
        "details": "Only prevents offer creation and executions, the other functions continue as normal",
        "params": {
          "_pause": "Boolean flag to pause (true) or resume (false) the contract"
        }
      },
      "renounceRole(bytes32,address)": {
        "details": "Revokes `role` from the calling account. Roles are often managed via {grantRole} and {revokeRole}: this function's purpose is to provide a mechanism for accounts to lose their privileges if they are compromised (such as when a trusted device is misplaced). If the calling account had been revoked `role`, emits a {RoleRevoked} event. Requirements: - the caller must be `account`."
      },
      "revokeRole(bytes32,address)": {
        "details": "Revokes `role` from `account`. If `account` had been granted `role`, emits a {RoleRevoked} event. Requirements: - the caller must have ``role``'s admin role."
      },
      "setCustomRoyalties(address,address[],uint256[])": {
        "details": "You can send empty arrays to unset the creator royalties!",
        "params": {
          "contractAddress": "Address of the ERC721 contract",
          "percentages": "Array of percentages (represented by integers)",
          "recipients": "Array of addresses where the royalties will be sent, they cannot be smart contracts"
        }
      },
      "setNodeFee(uint256)": {
        "params": {
          "_newFee": "New Fee"
        }
      },
      "setTreasuryAddress(address)": {
        "details": "If the treasury is a contract, make sure it has a receive function",
        "params": {
          "_newTreasury": "New treasury address"
        }
      },
      "setTreasuryFee(uint256)": {
        "params": {
          "_newFee": "New Fee"
        }
      },
      "supportsInterface(bytes4)": {
        "details": "See {IERC165-supportsInterface}."
      },
      "updateFeeDecimals(uint8)": {
        "details": "Automatically updates node and treasury feesSales made before the update will have a special bit of code on sale execution to handle this changeNew sales will be required to follow the new number of decimals",
        "params": {
          "_newDecimals": "New number of decimals"
        }
      },
      "updateOffer(uint256,uint256)": {
        "details": "Price is the only thing that can be updated on any offer",
        "params": {
          "newPrice": "New price for the offer",
          "offerIndex": "Index of the offer"
        }
      },
      "withdraw(uint256)": {
        "details": "There shouldn't be any funds stuck on the resale marketplace",
        "params": {
          "_amount": "Amount of funds to be withdrawn"
        }
      }
    },
    "version": 1
  },
  "userdoc": {
    "kind": "user",
    "methods": {
      "buyResaleOffer(uint256)": {
        "notice": "Executes a sale, sending funds to any royalty recipients and transferring the token to the buyer"
      },
      "cancelOffer(uint256)": {
        "notice": "Cancels an offer on the marketplace"
      },
      "constructor": {
        "notice": "Constructor"
      },
      "createResaleOffer(uint256,uint256,address,address)": {
        "notice": "Creates a resale offer on the marketplace"
      },
      "getAllOnSale()": {
        "notice": "Returns all open offers on the marketplace"
      },
      "getOfferInfo(uint256)": {
        "notice": "Returns information about a specific offer"
      },
      "getTokenIdStatus(address,uint256)": {
        "notice": "Queries the marketplace to find if a token is on sale"
      },
      "getUserOffers(address)": {
        "notice": "Returns all offers made by an user"
      },
      "pauseContract(bool)": {
        "notice": "Pauses / Resumes sales on the contract"
      },
      "setCustomRoyalties(address,address[],uint256[])": {
        "notice": "Sets a custom array of royalties for the entire ERC721 contract"
      },
      "setNodeFee(uint256)": {
        "notice": "Sets the new fee that will be paid to RAIR nodes"
      },
      "setTreasuryAddress(address)": {
        "notice": "Updates the treasury address"
      },
      "setTreasuryFee(uint256)": {
        "notice": "Sets the new treasury fee"
      },
      "updateFeeDecimals(uint8)": {
        "notice": "Updates the precision decimals on percentages and fees"
      },
      "updateOffer(uint256,uint256)": {
        "notice": "Updates the price of an offer"
      },
      "withdraw(uint256)": {
        "notice": "Withdraws any funds stuck on the resale marketplace"
      }
    },
    "version": 1
  },
  "storageLayout": {
    "storage": [
      {
        "astId": 24,
        "contract": "contracts/Marketplaces/MarketplaceResale.sol:Resale_MarketPlace",
        "label": "_roles",
        "offset": 0,
        "slot": "0",
        "type": "t_mapping(t_bytes32,t_struct(RoleData)19_storage)"
      },
      {
        "astId": 6582,
        "contract": "contracts/Marketplaces/MarketplaceResale.sol:Resale_MarketPlace",
        "label": "treasuryAddress",
        "offset": 0,
        "slot": "1",
        "type": "t_address"
      },
      {
        "astId": 6585,
        "contract": "contracts/Marketplaces/MarketplaceResale.sol:Resale_MarketPlace",
        "label": "feeDecimals",
        "offset": 20,
        "slot": "1",
        "type": "t_uint16"
      },
      {
        "astId": 6588,
        "contract": "contracts/Marketplaces/MarketplaceResale.sol:Resale_MarketPlace",
        "label": "nodeFee",
        "offset": 0,
        "slot": "2",
        "type": "t_uint256"
      },
      {
        "astId": 6591,
        "contract": "contracts/Marketplaces/MarketplaceResale.sol:Resale_MarketPlace",
        "label": "treasuryFee",
        "offset": 0,
        "slot": "3",
        "type": "t_uint256"
      },
      {
        "astId": 6596,
        "contract": "contracts/Marketplaces/MarketplaceResale.sol:Resale_MarketPlace",
        "label": "offers",
        "offset": 0,
        "slot": "4",
        "type": "t_mapping(t_uint256,t_struct(Offer)6526_storage)"
      },
      {
        "astId": 6601,
        "contract": "contracts/Marketplaces/MarketplaceResale.sol:Resale_MarketPlace",
        "label": "contractSplits",
        "offset": 0,
        "slot": "5",
        "type": "t_mapping(t_address,t_struct(ContractCustomSplits)6535_storage)"
      },
      {
        "astId": 6607,
        "contract": "contracts/Marketplaces/MarketplaceResale.sol:Resale_MarketPlace",
        "label": "tokenOnSale",
        "offset": 0,
        "slot": "6",
        "type": "t_mapping(t_address,t_mapping(t_uint256,t_bool))"
      },
      {
        "astId": 6610,
        "contract": "contracts/Marketplaces/MarketplaceResale.sol:Resale_MarketPlace",
        "label": "paused",
        "offset": 0,
        "slot": "7",
        "type": "t_bool"
      },
      {
        "astId": 6612,
        "contract": "contracts/Marketplaces/MarketplaceResale.sol:Resale_MarketPlace",
        "label": "tradeCounter",
        "offset": 0,
        "slot": "8",
        "type": "t_uint256"
      },
      {
        "astId": 6614,
        "contract": "contracts/Marketplaces/MarketplaceResale.sol:Resale_MarketPlace",
        "label": "offerCounter",
        "offset": 0,
        "slot": "9",
        "type": "t_uint256"
      }
    ],
    "types": {
      "t_address": {
        "encoding": "inplace",
        "label": "address",
        "numberOfBytes": "20"
      },
      "t_array(t_address)dyn_storage": {
        "base": "t_address",
        "encoding": "dynamic_array",
        "label": "address[]",
        "numberOfBytes": "32"
      },
      "t_array(t_uint256)dyn_storage": {
        "base": "t_uint256",
        "encoding": "dynamic_array",
        "label": "uint256[]",
        "numberOfBytes": "32"
      },
      "t_bool": {
        "encoding": "inplace",
        "label": "bool",
        "numberOfBytes": "1"
      },
      "t_bytes32": {
        "encoding": "inplace",
        "label": "bytes32",
        "numberOfBytes": "32"
      },
      "t_enum(OfferStatus)6512": {
        "encoding": "inplace",
        "label": "enum Resale_MarketPlace.OfferStatus",
        "numberOfBytes": "1"
      },
      "t_mapping(t_address,t_bool)": {
        "encoding": "mapping",
        "key": "t_address",
        "label": "mapping(address => bool)",
        "numberOfBytes": "32",
        "value": "t_bool"
      },
      "t_mapping(t_address,t_mapping(t_uint256,t_bool))": {
        "encoding": "mapping",
        "key": "t_address",
        "label": "mapping(address => mapping(uint256 => bool))",
        "numberOfBytes": "32",
        "value": "t_mapping(t_uint256,t_bool)"
      },
      "t_mapping(t_address,t_struct(ContractCustomSplits)6535_storage)": {
        "encoding": "mapping",
        "key": "t_address",
        "label": "mapping(address => struct Resale_MarketPlace.ContractCustomSplits)",
        "numberOfBytes": "32",
        "value": "t_struct(ContractCustomSplits)6535_storage"
      },
      "t_mapping(t_bytes32,t_struct(RoleData)19_storage)": {
        "encoding": "mapping",
        "key": "t_bytes32",
        "label": "mapping(bytes32 => struct AccessControl.RoleData)",
        "numberOfBytes": "32",
        "value": "t_struct(RoleData)19_storage"
      },
      "t_mapping(t_uint256,t_bool)": {
        "encoding": "mapping",
        "key": "t_uint256",
        "label": "mapping(uint256 => bool)",
        "numberOfBytes": "32",
        "value": "t_bool"
      },
      "t_mapping(t_uint256,t_struct(Offer)6526_storage)": {
        "encoding": "mapping",
        "key": "t_uint256",
        "label": "mapping(uint256 => struct Resale_MarketPlace.Offer)",
        "numberOfBytes": "32",
        "value": "t_struct(Offer)6526_storage"
      },
      "t_struct(ContractCustomSplits)6535_storage": {
        "encoding": "inplace",
        "label": "struct Resale_MarketPlace.ContractCustomSplits",
        "members": [
          {
            "astId": 6529,
            "contract": "contracts/Marketplaces/MarketplaceResale.sol:Resale_MarketPlace",
            "label": "recipients",
            "offset": 0,
            "slot": "0",
            "type": "t_array(t_address)dyn_storage"
          },
          {
            "astId": 6532,
            "contract": "contracts/Marketplaces/MarketplaceResale.sol:Resale_MarketPlace",
            "label": "percentages",
            "offset": 0,
            "slot": "1",
            "type": "t_array(t_uint256)dyn_storage"
          },
          {
            "astId": 6534,
            "contract": "contracts/Marketplaces/MarketplaceResale.sol:Resale_MarketPlace",
            "label": "precisionDecimals",
            "offset": 0,
            "slot": "2",
            "type": "t_uint256"
          }
        ],
        "numberOfBytes": "96"
      },
      "t_struct(Offer)6526_storage": {
        "encoding": "inplace",
        "label": "struct Resale_MarketPlace.Offer",
        "members": [
          {
            "astId": 6514,
            "contract": "contracts/Marketplaces/MarketplaceResale.sol:Resale_MarketPlace",
            "label": "sellerAddress",
            "offset": 0,
            "slot": "0",
            "type": "t_address"
          },
          {
            "astId": 6516,
            "contract": "contracts/Marketplaces/MarketplaceResale.sol:Resale_MarketPlace",
            "label": "contractAddress",
            "offset": 0,
            "slot": "1",
            "type": "t_address"
          },
          {
            "astId": 6518,
            "contract": "contracts/Marketplaces/MarketplaceResale.sol:Resale_MarketPlace",
            "label": "tokenId",
            "offset": 0,
            "slot": "2",
            "type": "t_uint256"
          },
          {
            "astId": 6520,
            "contract": "contracts/Marketplaces/MarketplaceResale.sol:Resale_MarketPlace",
            "label": "price",
            "offset": 0,
            "slot": "3",
            "type": "t_uint256"
          },
          {
            "astId": 6523,
            "contract": "contracts/Marketplaces/MarketplaceResale.sol:Resale_MarketPlace",
            "label": "tradeStatus",
            "offset": 0,
            "slot": "4",
            "type": "t_enum(OfferStatus)6512"
          },
          {
            "astId": 6525,
            "contract": "contracts/Marketplaces/MarketplaceResale.sol:Resale_MarketPlace",
            "label": "nodeAddress",
            "offset": 1,
            "slot": "4",
            "type": "t_address"
          }
        ],
        "numberOfBytes": "160"
      },
      "t_struct(RoleData)19_storage": {
        "encoding": "inplace",
        "label": "struct AccessControl.RoleData",
        "members": [
          {
            "astId": 16,
            "contract": "contracts/Marketplaces/MarketplaceResale.sol:Resale_MarketPlace",
            "label": "members",
            "offset": 0,
            "slot": "0",
            "type": "t_mapping(t_address,t_bool)"
          },
          {
            "astId": 18,
            "contract": "contracts/Marketplaces/MarketplaceResale.sol:Resale_MarketPlace",
            "label": "adminRole",
            "offset": 0,
            "slot": "1",
            "type": "t_bytes32"
          }
        ],
        "numberOfBytes": "64"
      },
      "t_uint16": {
        "encoding": "inplace",
        "label": "uint16",
        "numberOfBytes": "2"
      },
      "t_uint256": {
        "encoding": "inplace",
        "label": "uint256",
        "numberOfBytes": "32"
      }
    }
  }
}