{
   "address": "0xE0c410191B94327DB3FF052Ec85D8E685ca563a6",
   "abi": [
      {
         "inputs": [
            {
               "internalType": "address",
               "name": "_treasury",
               "type": "address"
            },
            {
               "internalType": "address",
               "name": "_nodeAddress",
               "type": "address"
            }
         ],
         "stateMutability": "nonpayable",
         "type": "constructor"
      },
      {
         "anonymous": false,
         "inputs": [
            {
               "indexed": false,
               "internalType": "uint16",
               "name": "newNodeFee",
               "type": "uint16"
            }
         ],
         "name": "ChangedNodeFee",
         "type": "event"
      },
      {
         "anonymous": false,
         "inputs": [
            {
               "indexed": false,
               "internalType": "address",
               "name": "newTreasury",
               "type": "address"
            }
         ],
         "name": "ChangedTreasury",
         "type": "event"
      },
      {
         "anonymous": false,
         "inputs": [
            {
               "indexed": false,
               "internalType": "address",
               "name": "treasury",
               "type": "address"
            },
            {
               "indexed": false,
               "internalType": "uint16",
               "name": "newTreasuryFee",
               "type": "uint16"
            }
         ],
         "name": "ChangedTreasuryFee",
         "type": "event"
      },
      {
         "anonymous": false,
         "inputs": [
            {
               "indexed": true,
               "internalType": "uint256",
               "name": "itemId",
               "type": "uint256"
            },
            {
               "indexed": false,
               "internalType": "uint256",
               "name": "oldPrice",
               "type": "uint256"
            },
            {
               "indexed": false,
               "internalType": "uint256",
               "name": "newPrice",
               "type": "uint256"
            }
         ],
         "name": "PriceChange",
         "type": "event"
      },
      {
         "anonymous": false,
         "inputs": [
            {
               "indexed": true,
               "internalType": "bytes32",
               "name": "role",
               "type": "bytes32"
            },
            {
               "indexed": true,
               "internalType": "bytes32",
               "name": "previousAdminRole",
               "type": "bytes32"
            },
            {
               "indexed": true,
               "internalType": "bytes32",
               "name": "newAdminRole",
               "type": "bytes32"
            }
         ],
         "name": "RoleAdminChanged",
         "type": "event"
      },
      {
         "anonymous": false,
         "inputs": [
            {
               "indexed": true,
               "internalType": "bytes32",
               "name": "role",
               "type": "bytes32"
            },
            {
               "indexed": true,
               "internalType": "address",
               "name": "account",
               "type": "address"
            },
            {
               "indexed": true,
               "internalType": "address",
               "name": "sender",
               "type": "address"
            }
         ],
         "name": "RoleGranted",
         "type": "event"
      },
      {
         "anonymous": false,
         "inputs": [
            {
               "indexed": true,
               "internalType": "bytes32",
               "name": "role",
               "type": "bytes32"
            },
            {
               "indexed": true,
               "internalType": "address",
               "name": "account",
               "type": "address"
            },
            {
               "indexed": true,
               "internalType": "address",
               "name": "sender",
               "type": "address"
            }
         ],
         "name": "RoleRevoked",
         "type": "event"
      },
      {
         "anonymous": false,
         "inputs": [
            {
               "indexed": true,
               "internalType": "address",
               "name": "operator",
               "type": "address"
            },
            {
               "indexed": false,
               "internalType": "address",
               "name": "tokenAddress",
               "type": "address"
            },
            {
               "indexed": true,
               "internalType": "uint256",
               "name": "itemId",
               "type": "uint256"
            },
            {
               "indexed": true,
               "internalType": "uint256",
               "name": "price",
               "type": "uint256"
            },
            {
               "indexed": false,
               "internalType": "uint256",
               "name": "status",
               "type": "uint256"
            },
            {
               "indexed": false,
               "internalType": "uint256",
               "name": "tradeid",
               "type": "uint256"
            }
         ],
         "name": "TradeStatusChange",
         "type": "event"
      },
      {
         "inputs": [],
         "name": "DEFAULT_ADMIN_ROLE",
         "outputs": [
            {
               "internalType": "bytes32",
               "name": "",
               "type": "bytes32"
            }
         ],
         "stateMutability": "view",
         "type": "function"
      },
      {
         "inputs": [
            {
               "internalType": "uint256",
               "name": "_trade",
               "type": "uint256"
            }
         ],
         "name": "cancelTrade",
         "outputs": [],
         "stateMutability": "nonpayable",
         "type": "function"
      },
      {
         "inputs": [
            {
               "internalType": "uint256",
               "name": "_trade",
               "type": "uint256"
            }
         ],
         "name": "executeTrade",
         "outputs": [],
         "stateMutability": "payable",
         "type": "function"
      },
      {
         "inputs": [
            {
               "internalType": "address",
               "name": "owner",
               "type": "address"
            }
         ],
         "name": "getAllByOwner",
         "outputs": [
            {
               "components": [
                  {
                     "internalType": "address payable",
                     "name": "poster",
                     "type": "address"
                  },
                  {
                     "internalType": "address",
                     "name": "tokenAddress",
                     "type": "address"
                  },
                  {
                     "internalType": "address payable",
                     "name": "creator",
                     "type": "address"
                  },
                  {
                     "internalType": "uint256",
                     "name": "itemId",
                     "type": "uint256"
                  },
                  {
                     "internalType": "uint256",
                     "name": "price",
                     "type": "uint256"
                  },
                  {
                     "internalType": "uint256",
                     "name": "status",
                     "type": "uint256"
                  }
               ],
               "internalType": "struct Resale_MarketPlace.Trade[]",
               "name": "",
               "type": "tuple[]"
            }
         ],
         "stateMutability": "view",
         "type": "function"
      },
      {
         "inputs": [],
         "name": "getAllOnSale",
         "outputs": [
            {
               "components": [
                  {
                     "internalType": "address payable",
                     "name": "poster",
                     "type": "address"
                  },
                  {
                     "internalType": "address",
                     "name": "tokenAddress",
                     "type": "address"
                  },
                  {
                     "internalType": "address payable",
                     "name": "creator",
                     "type": "address"
                  },
                  {
                     "internalType": "uint256",
                     "name": "itemId",
                     "type": "uint256"
                  },
                  {
                     "internalType": "uint256",
                     "name": "price",
                     "type": "uint256"
                  },
                  {
                     "internalType": "uint256",
                     "name": "status",
                     "type": "uint256"
                  }
               ],
               "internalType": "struct Resale_MarketPlace.Trade[]",
               "name": "",
               "type": "tuple[]"
            }
         ],
         "stateMutability": "view",
         "type": "function"
      },
      {
         "inputs": [
            {
               "internalType": "bytes32",
               "name": "role",
               "type": "bytes32"
            }
         ],
         "name": "getRoleAdmin",
         "outputs": [
            {
               "internalType": "bytes32",
               "name": "",
               "type": "bytes32"
            }
         ],
         "stateMutability": "view",
         "type": "function"
      },
      {
         "inputs": [
            {
               "internalType": "address",
               "name": "tokenAddress",
               "type": "address"
            },
            {
               "internalType": "uint256",
               "name": "tokenId",
               "type": "uint256"
            }
         ],
         "name": "getTokenIdStatus",
         "outputs": [
            {
               "internalType": "bool",
               "name": "",
               "type": "bool"
            }
         ],
         "stateMutability": "view",
         "type": "function"
      },
      {
         "inputs": [
            {
               "internalType": "uint256",
               "name": "_trade",
               "type": "uint256"
            }
         ],
         "name": "getTrade",
         "outputs": [
            {
               "components": [
                  {
                     "internalType": "address payable",
                     "name": "poster",
                     "type": "address"
                  },
                  {
                     "internalType": "address",
                     "name": "tokenAddress",
                     "type": "address"
                  },
                  {
                     "internalType": "address payable",
                     "name": "creator",
                     "type": "address"
                  },
                  {
                     "internalType": "uint256",
                     "name": "itemId",
                     "type": "uint256"
                  },
                  {
                     "internalType": "uint256",
                     "name": "price",
                     "type": "uint256"
                  },
                  {
                     "internalType": "uint256",
                     "name": "status",
                     "type": "uint256"
                  }
               ],
               "internalType": "struct Resale_MarketPlace.Trade",
               "name": "",
               "type": "tuple"
            }
         ],
         "stateMutability": "view",
         "type": "function"
      },
      {
         "inputs": [
            {
               "internalType": "bytes32",
               "name": "role",
               "type": "bytes32"
            },
            {
               "internalType": "address",
               "name": "account",
               "type": "address"
            }
         ],
         "name": "grantRole",
         "outputs": [],
         "stateMutability": "nonpayable",
         "type": "function"
      },
      {
         "inputs": [
            {
               "internalType": "bytes32",
               "name": "role",
               "type": "bytes32"
            },
            {
               "internalType": "address",
               "name": "account",
               "type": "address"
            }
         ],
         "name": "hasRole",
         "outputs": [
            {
               "internalType": "bool",
               "name": "",
               "type": "bool"
            }
         ],
         "stateMutability": "view",
         "type": "function"
      },
      {
         "inputs": [
            {
               "internalType": "uint256",
               "name": "_trade",
               "type": "uint256"
            },
            {
               "internalType": "uint256",
               "name": "newPrice",
               "type": "uint256"
            }
         ],
         "name": "lowerTokenPrice",
         "outputs": [],
         "stateMutability": "nonpayable",
         "type": "function"
      },
      {
         "inputs": [],
         "name": "nodeAddress",
         "outputs": [
            {
               "internalType": "address",
               "name": "",
               "type": "address"
            }
         ],
         "stateMutability": "view",
         "type": "function"
      },
      {
         "inputs": [],
         "name": "nodeFee",
         "outputs": [
            {
               "internalType": "uint16",
               "name": "",
               "type": "uint16"
            }
         ],
         "stateMutability": "view",
         "type": "function"
      },
      {
         "inputs": [
            {
               "internalType": "address",
               "name": "",
               "type": "address"
            },
            {
               "internalType": "address",
               "name": "",
               "type": "address"
            },
            {
               "internalType": "uint256",
               "name": "",
               "type": "uint256"
            },
            {
               "internalType": "bytes",
               "name": "",
               "type": "bytes"
            }
         ],
         "name": "onERC721Received",
         "outputs": [
            {
               "internalType": "bytes4",
               "name": "",
               "type": "bytes4"
            }
         ],
         "stateMutability": "nonpayable",
         "type": "function"
      },
      {
         "inputs": [
            {
               "internalType": "address",
               "name": "tokenAddress",
               "type": "address"
            },
            {
               "internalType": "address",
               "name": "addr",
               "type": "address"
            },
            {
               "internalType": "uint256",
               "name": "tokenId",
               "type": "uint256"
            }
         ],
         "name": "onlyItemOwner",
         "outputs": [
            {
               "internalType": "bool",
               "name": "",
               "type": "bool"
            }
         ],
         "stateMutability": "view",
         "type": "function"
      },
      {
         "inputs": [
            {
               "internalType": "uint256",
               "name": "_itemId",
               "type": "uint256"
            },
            {
               "internalType": "uint256",
               "name": "_price",
               "type": "uint256"
            },
            {
               "internalType": "address",
               "name": "tokenAddress",
               "type": "address"
            }
         ],
         "name": "openTrade",
         "outputs": [],
         "stateMutability": "nonpayable",
         "type": "function"
      },
      {
         "inputs": [
            {
               "internalType": "bytes32",
               "name": "role",
               "type": "bytes32"
            },
            {
               "internalType": "address",
               "name": "account",
               "type": "address"
            }
         ],
         "name": "renounceRole",
         "outputs": [],
         "stateMutability": "nonpayable",
         "type": "function"
      },
      {
         "inputs": [
            {
               "internalType": "bytes32",
               "name": "role",
               "type": "bytes32"
            },
            {
               "internalType": "address",
               "name": "account",
               "type": "address"
            }
         ],
         "name": "revokeRole",
         "outputs": [],
         "stateMutability": "nonpayable",
         "type": "function"
      },
      {
         "inputs": [
            {
               "internalType": "address",
               "name": "_newNodeAddress",
               "type": "address"
            }
         ],
         "name": "setNodeAddress",
         "outputs": [],
         "stateMutability": "nonpayable",
         "type": "function"
      },
      {
         "inputs": [
            {
               "internalType": "uint16",
               "name": "_newFee",
               "type": "uint16"
            }
         ],
         "name": "setNodeFee",
         "outputs": [],
         "stateMutability": "nonpayable",
         "type": "function"
      },
      {
         "inputs": [
            {
               "internalType": "uint256",
               "name": "trade",
               "type": "uint256"
            },
            {
               "internalType": "address[]",
               "name": "recipients",
               "type": "address[]"
            },
            {
               "internalType": "uint256[]",
               "name": "percentages",
               "type": "uint256[]"
            }
         ],
         "name": "setTradeRoyaltyReceivers",
         "outputs": [],
         "stateMutability": "nonpayable",
         "type": "function"
      },
      {
         "inputs": [
            {
               "internalType": "address",
               "name": "_newTreasury",
               "type": "address"
            }
         ],
         "name": "setTreasuryAddress",
         "outputs": [],
         "stateMutability": "nonpayable",
         "type": "function"
      },
      {
         "inputs": [
            {
               "internalType": "uint16",
               "name": "_newFee",
               "type": "uint16"
            }
         ],
         "name": "setTreasuryFee",
         "outputs": [],
         "stateMutability": "nonpayable",
         "type": "function"
      },
      {
         "inputs": [
            {
               "internalType": "bytes4",
               "name": "interfaceId",
               "type": "bytes4"
            }
         ],
         "name": "supportsInterface",
         "outputs": [
            {
               "internalType": "bool",
               "name": "",
               "type": "bool"
            }
         ],
         "stateMutability": "view",
         "type": "function"
      },
      {
         "inputs": [],
         "name": "treasury",
         "outputs": [
            {
               "internalType": "address",
               "name": "",
               "type": "address"
            }
         ],
         "stateMutability": "view",
         "type": "function"
      },
      {
         "inputs": [],
         "name": "treasuryFee",
         "outputs": [
            {
               "internalType": "uint16",
               "name": "",
               "type": "uint16"
            }
         ],
         "stateMutability": "view",
         "type": "function"
      },
      {
         "inputs": [
            {
               "internalType": "uint256",
               "name": "_amount",
               "type": "uint256"
            }
         ],
         "name": "withdraw",
         "outputs": [],
         "stateMutability": "nonpayable",
         "type": "function"
      }
   ],
   "bytecode": "0x60806040526002805463ffffffff60a01b1916630465007d60a31b1790553480156200002a57600080fd5b5060405162002bd038038062002bd08339810160408190526200004d9162000156565b60006006819055600180546001600160a01b038086166001600160a01b031992831617909255600280549285169290911691909117905562000090903362000098565b50506200018e565b6000828152602081815260408083206001600160a01b038516845290915290205460ff1662000135576000828152602081815260408083206001600160a01b03851684529091529020805460ff19166001179055620000f43390565b6001600160a01b0316816001600160a01b0316837f2f8788117e7eff1d82e926ec794901d17c78024a50270940304540a733656f0d60405160405180910390a45b5050565b80516001600160a01b03811681146200015157600080fd5b919050565b600080604083850312156200016a57600080fd5b620001758362000139565b9150620001856020840162000139565b90509250929050565b612a32806200019e6000396000f3fe60806040526004361061019c5760003560e01c806374047d89116100ec578063a652db491161008a578063d547741f11610064578063d547741f14610524578063e4ccbe6c14610544578063ee292a3014610564578063f41625301461058457600080fd5b8063a652db49146104af578063b4161d81146104cf578063cc32d176146104ef57600080fd5b8063900b04b3116100c6578063900b04b314610438578063908945591461045857806391d148541461047a578063a217fddf1461049a57600080fd5b806374047d89146103b257806376420027146103d2578063802c2a00146103f257600080fd5b80632db25e051161015957806336568abe1161013357806336568abe1461033257806343a8d1ec1461035257806361d027b3146103725780636605bfda1461039257600080fd5b80632db25e05146102c55780632e1a7d4d146102f25780632f2ff15d1461031257600080fd5b806301ffc9a7146101a157806302d2838b146101d657806309ec6cc7146101eb578063150b7a021461020b578063248a9ca31461024f5780632aa8481f1461028d575b600080fd5b3480156101ad57600080fd5b506101c16101bc3660046123a9565b6105a6565b60405190151581526020015b60405180910390f35b6101e96101e43660046123d3565b6105dd565b005b3480156101f757600080fd5b506101e96102063660046123d3565b610c28565b34801561021757600080fd5b50610236610226366004612417565b630a85bd0160e11b949350505050565b6040516001600160e01b031990911681526020016101cd565b34801561025b57600080fd5b5061027f61026a3660046123d3565b60009081526020819052604090206001015490565b6040519081526020016101cd565b34801561029957600080fd5b506002546102ad906001600160a01b031681565b6040516001600160a01b0390911681526020016101cd565b3480156102d157600080fd5b506102e56102e03660046123d3565b610e43565b6040516101cd919061253e565b3480156102fe57600080fd5b506101e961030d3660046123d3565b610eb3565b34801561031e57600080fd5b506101e961032d36600461254c565b610ef0565b34801561033e57600080fd5b506101e961034d36600461254c565b610f15565b34801561035e57600080fd5b506101e961036d36600461257c565b610f93565b34801561037e57600080fd5b506001546102ad906001600160a01b031681565b34801561039e57600080fd5b506101e96103ad3660046125b5565b611451565b3480156103be57600080fd5b506101c16103cd3660046125d2565b6114fa565b3480156103de57600080fd5b506101e96103ed366004612613565b611580565b3480156103fe57600080fd5b506101c161040d366004612635565b6001600160a01b03919091166000908152600560209081526040808320938352929052205460ff1690565b34801561044457600080fd5b506101e96104533660046126ad565b61176a565b34801561046457600080fd5b5061046d611af6565b6040516101cd9190612727565b34801561048657600080fd5b506101c161049536600461254c565b611c74565b3480156104a657600080fd5b5061027f600081565b3480156104bb57600080fd5b506101e96104ca366004612775565b611c9d565b3480156104db57600080fd5b5061046d6104ea3660046125b5565b611d0c565b3480156104fb57600080fd5b5060025461051190600160b01b900461ffff1681565b60405161ffff90911681526020016101cd565b34801561053057600080fd5b506101e961053f36600461254c565b611e9b565b34801561055057600080fd5b506101e961055f366004612775565b611ec0565b34801561057057600080fd5b506101e961057f3660046125b5565b611f1b565b34801561059057600080fd5b5060025461051190600160a01b900461ffff1681565b60006001600160e01b03198216637965db0b60e01b14806105d757506301ffc9a760e01b6001600160e01b03198316145b92915050565b600081815260036020818152604092839020835160c08101855281546001600160a01b039081168252600180840154821694830194909452600283015416948101949094529182015460608401526004820154608084015260059091015460a08301819052146106685760405162461bcd60e51b815260040161065f90612799565b60405180910390fd5b3315801590610681575080516001600160a01b03163314155b6107075760405162461bcd60e51b815260206004820152604b60248201527f4572726f723a206d73672e73656e646572206973207a65726f2061646472657360448201527f73206f7220746865206f776e657220697320747279696e6720746f206275792060648201526a1a1a5cc81bdddb881b999d60aa1b608482015260a40161065f565b80608001513410156107505760405162461bcd60e51b8152602060048201526012602482015271496e737566696369656e742046756e64732160701b604482015260640161065f565b60208101516002546080830151600091620186a09161077a91600160a01b900461ffff16906127e6565b6107849190612805565b90506000620186a0600260169054906101000a900461ffff1661ffff1685608001516107b091906127e6565b6107ba9190612805565b6060850151608086015160405163152a902d60e11b81526004810192909252602482015290915060009081906001600160a01b03861690632a55205a906044016040805180830381865afa158015610816573d6000803e3d6000fd5b505050506040513d601f19601f8201168201806040525081019061083a9190612827565b90925090506108498385612855565b818760800151610859919061286d565b10156108b55760405162461bcd60e51b815260206004820152602560248201527f496e73756666696369656e742046756e6473212045786365737369766520526f60448201526479616c747960d81b606482015260840161065f565b60008781526004602052604090208054156109835760005b815481101561097d576000620186a08360010183815481106108f1576108f1612884565b90600052602060002001548561090791906127e6565b6109119190612805565b905082600001828154811061092857610928612884565b60009182526020822001546040516001600160a01b039091169183156108fc02918491818181858888f19350505050158015610968573d6000803e3d6000fd5b505080806109759061289a565b9150506108cd565b506109bb565b6040516001600160a01b0384169083156108fc029084906000818181858888f193505050501580156109b9573d6000803e3d6000fd5b505b6002546040516001600160a01b039091169086156108fc029087906000818181858888f193505050501580156109f5573d6000803e3d6000fd5b506001546040516001600160a01b039091169085156108fc029086906000818181858888f19350505050158015610a30573d6000803e3d6000fd5b5060008585848a60800151610a45919061286d565b610a4f919061286d565b610a59919061286d565b88516040519192506001600160a01b03169082156108fc029083906000818181858888f19350505050158015610a93573d6000803e3d6000fd5b50608088015133906108fc90610aa9903461286d565b6040518115909202916000818181858888f19350505050158015610ad1573d6000803e3d6000fd5b506060880151604051632142170760e11b815230600482015233602482015260448101919091526001600160a01b038816906342842e0e90606401600060405180830381600087803b158015610b2657600080fd5b505af1158015610b3a573d6000803e3d6000fd5b505050506002600360008b8152602001908152602001600020600501819055506000600560008a602001516001600160a01b03166001600160a01b0316815260200190815260200160002060008a60600151815260200190815260200160002060006101000a81548160ff021916908315150217905550348860600151336001600160a01b03167f7a910edd4a295218b0fd5afc80bdc175be6e49bcbeb9a03761eb2a0b3461fda38b6020015160028e604051610c15939291906001600160a01b039390931683526020830191909152604082015260600190565b60405180910390a4505050505050505050565b600081815260036020818152604092839020835160c08101855281546001600160a01b039081168083526001840154821694830194909452600283015416948101949094529182015460608401526004820154608084015260059091015460a08301523314610cee5760405162461bcd60e51b815260206004820152602c60248201527f4572726f723a2054726164652063616e2062652063616e63656c6c6564206f6e60448201526b363c90313c903837b9ba32b960a11b606482015260840161065f565b8060a00151600114610d125760405162461bcd60e51b815260040161065f90612799565b602081015181516060830151604051632142170760e11b81523060048201526001600160a01b0392831660248201526044810191909152908216906342842e0e90606401600060405180830381600087803b158015610d7057600080fd5b505af1158015610d84573d6000803e3d6000fd5b5050506000848152600360208181526040808420600501929092556004905281209150610db18282612287565b610dbf600183016000612287565b5050602082810180516001600160a01b039081166000908152600584526040808220606080890180518552918752828420805460ff191690559051945182519416845260039584019590955282018790529233917f7a910edd4a295218b0fd5afc80bdc175be6e49bcbeb9a03761eb2a0b3461fda3910160405180910390a4505050565b610e4b6122a5565b50600090815260036020818152604092839020835160c08101855281546001600160a01b03908116825260018301548116938201939093526002820154909216938201939093529082015460608201526004820154608082015260059091015460a082015290565b6000610ebe81611f91565b604051339083156108fc029084906000818181858888f19350505050158015610eeb573d6000803e3d6000fd5b505050565b600082815260208190526040902060010154610f0b81611f91565b610eeb8383611f9e565b6001600160a01b0381163314610f855760405162461bcd60e51b815260206004820152602f60248201527f416363657373436f6e74726f6c3a2063616e206f6e6c792072656e6f756e636560448201526e103937b632b9903337b91039b2b63360891b606482015260840161065f565b610f8f8282612022565b5050565b6040516331a9108f60e11b81526004810184905281908490829033906001600160a01b03831690636352211e90602401602060405180830381865afa158015610fe0573d6000803e3d6000fd5b505050506040513d601f19601f8201168201806040525081019061100491906128b5565b6001600160a01b03161461105a5760405162461bcd60e51b815260206004820152601c60248201527f53656e64657220646f6573206e6f74206f776e20746865206974656d00000000604482015260640161065f565b60405163020604bf60e21b81526004810187905284908790829030906001600160a01b0383169063081812fc90602401602060405180830381865afa1580156110a7573d6000803e3d6000fd5b505050506040513d601f19601f820116820180604052508101906110cb91906128b5565b6001600160a01b0316146110de57600080fd5b6001600160a01b03871660009081526005602090815260408083208c845290915290205460ff16156111785760405162461bcd60e51b815260206004820152603a60248201527f53686f756c646e277420637265617465206f666665727320666f72206120746f60448201527f6b656e2074686174277320616c7265616479206f6e2073616c65000000000000606482015260840161065f565b60405163152a902d60e11b8152600481018a905260248101899052879060009081906001600160a01b03841690632a55205a906044016040805180830381865afa1580156111ca573d6000803e3d6000fd5b505050506040513d601f19601f820116820180604052508101906111ee9190612827565b8092508193505050826001600160a01b031663b88d4fde33308f6040518463ffffffff1660e01b8152600401611261939291906001600160a01b0393841681529190921660208201526040810191909152608060608201819052600490820152630307830360e41b60a082015260c00190565b600060405180830381600087803b15801561127b57600080fd5b505af115801561128f573d6000803e3d6000fd5b505050506040518060c00160405280336001600160a01b031681526020018b6001600160a01b03168152602001836001600160a01b031681526020018d81526020018c8152602001600181525060036000600654815260200190815260200160002060008201518160000160006101000a8154816001600160a01b0302191690836001600160a01b0316021790555060208201518160010160006101000a8154816001600160a01b0302191690836001600160a01b0316021790555060408201518160020160006101000a8154816001600160a01b0302191690836001600160a01b03160217905550606082015181600301556080820151816004015560a082015181600501559050506001600660008282546113ac9190612855565b90915550506001600160a01b038a1660009081526005602090815260408083208f84529091529020805460ff191660019081179091556006548c918e9133917f7a910edd4a295218b0fd5afc80bdc175be6e49bcbeb9a03761eb2a0b3461fda3918f919061141b90829061286d565b604080516001600160a01b03909416845260208401929092529082015260600160405180910390a4505050505050505050505050565b600061145c81611f91565b6001600160a01b0382166114a45760405162461bcd60e51b815260206004820152600f60248201526e696e76616c6964206164647265737360881b604482015260640161065f565b600180546001600160a01b0319166001600160a01b0384169081179091556040519081527f63cc689e9d3377465b51fb094ea4ca5e0a1436b21f1ad30d707c696111c66500906020015b60405180910390a15050565b6040516331a9108f60e11b81526004810182905260009084906001600160a01b038581169190831690636352211e90602401602060405180830381865afa158015611549573d6000803e3d6000fd5b505050506040513d601f19601f8201168201806040525081019061156d91906128b5565b6001600160a01b03161495945050505050565b6000828152600360205260409020546001600160a01b031633146115f55760405162461bcd60e51b815260206004820152602660248201527f4572726f723a2050726963652063616e206f6e6c7920626520736574206279206044820152653837b9ba32b960d11b606482015260840161065f565b6000828152600360205260409020600501546001146116265760405162461bcd60e51b815260040161065f90612799565b6000828152600360205260409020600401548082106117155760405162461bcd60e51b815260206004820152609360248201527f4572726f723a20706c656173652073706563696679206120707269636520766160448201527f6c7565206c657373207468616e20746865206f6c64207072696365206966207960648201527f6f752077616e7420746f20696e637265617365207468652070726963652c206360848201527f616e63656c2074686520747261646520616e64206c69737420616761696e202060a4820152727769746820612068696768657220707269636560681b60c482015260e40161065f565b600083815260036020908152604091829020600401849055815183815290810184905284917f046aa811b2923fd55b4ca06375b4045117d4584c66fc40880a8ab8ee32d88ed1910160405180910390a2505050565b6000858152600360205260409020600101546001600160a01b031680806117d35760405162461bcd60e51b815260206004820152601e60248201527f4572726f723a20496e76616c6964207472616465207370656369666965640000604482015260640161065f565b806001600160a01b03166391d14854826001600160a01b031663e4fbb6096040518163ffffffff1660e01b8152600401602060405180830381865afa158015611820573d6000803e3d6000fd5b505050506040513d601f19601f8201168201806040525081019061184491906128d2565b6040516001600160e01b031960e084901b1681526004810191909152336024820152604401602060405180830381865afa158015611886573d6000803e3d6000fd5b505050506040513d601f19601f820116820180604052508101906118aa91906128eb565b6119105760405162461bcd60e51b815260206004820152603160248201527f4572726f723a204f6e6c7920746f6b656e2063726561746f722063616e2073656044820152707420747261646520726f79616c7469657360781b606482015260840161065f565b8483146119855760405162461bcd60e51b815260206004820152603d60248201527f4572726f723a20526563697069656e747320616e642050657263656e7461676560448201527f732073686f756c642068617665207468652073616d65206c656e677468000000606482015260840161065f565b6000878152600360205260409020600501546001146119e65760405162461bcd60e51b815260206004820181905260248201527f4572726f723a20547261646520737461747573206d757374206265204f70656e604482015260640161065f565b6000805b86811015611a2a57858582818110611a0457611a04612884565b9050602002013582611a169190612855565b915080611a228161289a565b9150506119ea565b5080620186a014611ac25760405162461bcd60e51b815260206004820152605660248201527f4572726f723a2050657263656e74616765732073686f756c642061646420757060448201527f20746f203130302520283130303030302c20696e636c7564696e67206e6f64656064820152752066656520616e64207472656173757279206665652960501b608482015260a40161065f565b6000888152600460205260409020611adb8189896122f6565b50611aea600182018787612359565b50505050505050505050565b606060008060005b600654811015611b425760008181526003602052604090206005015460011415611b305782611b2c8161289a565b9350505b80611b3a8161289a565b915050611afe565b5060008267ffffffffffffffff811115611b5e57611b5e612401565b604051908082528060200260200182016040528015611b9757816020015b611b846122a5565b815260200190600190039081611b7c5790505b5090508215611c6d5760005b600654811015611c6b5760008181526003602052604090206005015460011415611c5957600081815260036020818152604092839020835160c08101855281546001600160a01b03908116825260018301548116938201939093526002820154909216938201939093529082015460608201526004820154608082015260059091015460a08201528251839085908110611c3f57611c3f612884565b60200260200101819052508280611c559061289a565b9350505b80611c638161289a565b915050611ba3565b505b9392505050565b6000918252602082815260408084206001600160a01b0393909316845291905290205460ff1690565b6000611ca881611f91565b6002805461ffff60b01b1916600160b01b61ffff851690810291909117909155600154604080516001600160a01b03909216825260208201929092527f2adb51c26afe364a53c16cd44e82bdf5a52680ad11c64f2dbeb5bdb3764f731d91016114ee565b606060008060005b600654811015611d60576000818152600360205260409020546001600160a01b0386811691161415611d4e5782611d4a8161289a565b9350505b80611d588161289a565b915050611d14565b5060008267ffffffffffffffff811115611d7c57611d7c612401565b604051908082528060200260200182016040528015611db557816020015b611da26122a5565b815260200190600190039081611d9a5790505b5090508215611e935760005b600654811015611e91576000818152600360205260409020546001600160a01b0387811691161415611e7f57600081815260036020818152604092839020835160c08101855281546001600160a01b03908116825260018301548116938201939093526002820154909216938201939093529082015460608201526004820154608082015260059091015460a08201528251839085908110611e6557611e65612884565b60200260200101819052508280611e7b9061289a565b9350505b80611e898161289a565b915050611dc1565b505b949350505050565b600082815260208190526040902060010154611eb681611f91565b610eeb8383612022565b6000611ecb81611f91565b6002805461ffff60a01b1916600160a01b61ffff8516908102919091179091556040519081527f6a6cc0807c3fb0910ab842e5fd4c193307b3cff967f1a7d096538e4961884b70906020016114ee565b6000611f2681611f91565b6001600160a01b038216611f6e5760405162461bcd60e51b815260206004820152600f60248201526e696e76616c6964206164647265737360881b604482015260640161065f565b50600280546001600160a01b0319166001600160a01b0392909216919091179055565b611f9b8133612087565b50565b611fa88282611c74565b610f8f576000828152602081815260408083206001600160a01b03851684529091529020805460ff19166001179055611fde3390565b6001600160a01b0316816001600160a01b0316837f2f8788117e7eff1d82e926ec794901d17c78024a50270940304540a733656f0d60405160405180910390a45050565b61202c8282611c74565b15610f8f576000828152602081815260408083206001600160a01b0385168085529252808320805460ff1916905551339285917ff6391f5c32d9c69d2a47ea670b442974b53935d1edc7fd64eb21e047a839171b9190a45050565b6120918282611c74565b610f8f576120a9816001600160a01b031660146120eb565b6120b48360206120eb565b6040516020016120c592919061293d565b60408051601f198184030181529082905262461bcd60e51b825261065f916004016129b2565b606060006120fa8360026127e6565b612105906002612855565b67ffffffffffffffff81111561211d5761211d612401565b6040519080825280601f01601f191660200182016040528015612147576020820181803683370190505b509050600360fc1b8160008151811061216257612162612884565b60200101906001600160f81b031916908160001a905350600f60fb1b8160018151811061219157612191612884565b60200101906001600160f81b031916908160001a90535060006121b58460026127e6565b6121c0906001612855565b90505b6001811115612238576f181899199a1a9b1b9c1cb0b131b232b360811b85600f16601081106121f4576121f4612884565b1a60f81b82828151811061220a5761220a612884565b60200101906001600160f81b031916908160001a90535060049490941c93612231816129e5565b90506121c3565b508315611c6d5760405162461bcd60e51b815260206004820181905260248201527f537472696e67733a20686578206c656e67746820696e73756666696369656e74604482015260640161065f565b5080546000825590600052602060002090810190611f9b9190612394565b6040518060c0016040528060006001600160a01b0316815260200160006001600160a01b0316815260200160006001600160a01b031681526020016000815260200160008152602001600081525090565b828054828255906000526020600020908101928215612349579160200282015b828111156123495781546001600160a01b0319166001600160a01b03843516178255602090920191600190910190612316565b50612355929150612394565b5090565b828054828255906000526020600020908101928215612349579160200282015b82811115612349578235825591602001919060010190612379565b5b808211156123555760008155600101612395565b6000602082840312156123bb57600080fd5b81356001600160e01b031981168114611c6d57600080fd5b6000602082840312156123e557600080fd5b5035919050565b6001600160a01b0381168114611f9b57600080fd5b634e487b7160e01b600052604160045260246000fd5b6000806000806080858703121561242d57600080fd5b8435612438816123ec565b93506020850135612448816123ec565b925060408501359150606085013567ffffffffffffffff8082111561246c57600080fd5b818701915087601f83011261248057600080fd5b81358181111561249257612492612401565b604051601f8201601f19908116603f011681019083821181831017156124ba576124ba612401565b816040528281528a60208487010111156124d357600080fd5b82602086016020830137600060208483010152809550505050505092959194509250565b80516001600160a01b03908116835260208083015182169084015260408083015190911690830152606080820151908301526080808201519083015260a090810151910152565b60c081016105d782846124f7565b6000806040838503121561255f57600080fd5b823591506020830135612571816123ec565b809150509250929050565b60008060006060848603121561259157600080fd5b833592506020840135915060408401356125aa816123ec565b809150509250925092565b6000602082840312156125c757600080fd5b8135611c6d816123ec565b6000806000606084860312156125e757600080fd5b83356125f2816123ec565b92506020840135612602816123ec565b929592945050506040919091013590565b6000806040838503121561262657600080fd5b50508035926020909101359150565b6000806040838503121561264857600080fd5b8235612653816123ec565b946020939093013593505050565b60008083601f84011261267357600080fd5b50813567ffffffffffffffff81111561268b57600080fd5b6020830191508360208260051b85010111156126a657600080fd5b9250929050565b6000806000806000606086880312156126c557600080fd5b85359450602086013567ffffffffffffffff808211156126e457600080fd5b6126f089838a01612661565b9096509450604088013591508082111561270957600080fd5b5061271688828901612661565b969995985093965092949392505050565b6020808252825182820181905260009190848201906040850190845b81811015612769576127568385516124f7565b9284019260c09290920191600101612743565b50909695505050505050565b60006020828403121561278757600080fd5b813561ffff81168114611c6d57600080fd5b60208082526018908201527f4572726f723a205472616465206973206e6f74204f70656e0000000000000000604082015260600190565b634e487b7160e01b600052601160045260246000fd5b6000816000190483118215151615612800576128006127d0565b500290565b60008261282257634e487b7160e01b600052601260045260246000fd5b500490565b6000806040838503121561283a57600080fd5b8251612845816123ec565b6020939093015192949293505050565b60008219821115612868576128686127d0565b500190565b60008282101561287f5761287f6127d0565b500390565b634e487b7160e01b600052603260045260246000fd5b60006000198214156128ae576128ae6127d0565b5060010190565b6000602082840312156128c757600080fd5b8151611c6d816123ec565b6000602082840312156128e457600080fd5b5051919050565b6000602082840312156128fd57600080fd5b81518015158114611c6d57600080fd5b60005b83811015612928578181015183820152602001612910565b83811115612937576000848401525b50505050565b7f416363657373436f6e74726f6c3a206163636f756e742000000000000000000081526000835161297581601785016020880161290d565b7001034b99036b4b9b9b4b733903937b6329607d1b60179184019182015283516129a681602884016020880161290d565b01602801949350505050565b60208152600082518060208401526129d181604085016020870161290d565b601f01601f19169190910160400192915050565b6000816129f4576129f46127d0565b50600019019056fea2646970667358221220eb005b86cc1b68260cb331f5f9264405f637e50712fead97dd11000f1842f68864736f6c634300080a0033"
}