{
  "address": "0x160a7b40A16fbe0607134770F407ee258B85d7B4",
  "abi": [
    {
      "anonymous": false,
      "inputs": [
        {
          "indexed": true,
          "internalType": "bytes32",
          "name": "role",
          "type": "bytes32"
        },
        {
          "indexed": true,
          "internalType": "bytes32",
          "name": "previousAdminRole",
          "type": "bytes32"
        },
        {
          "indexed": true,
          "internalType": "bytes32",
          "name": "newAdminRole",
          "type": "bytes32"
        }
      ],
      "name": "RoleAdminChanged",
      "type": "event"
    },
    {
      "anonymous": false,
      "inputs": [
        {
          "indexed": true,
          "internalType": "bytes32",
          "name": "role",
          "type": "bytes32"
        },
        {
          "indexed": true,
          "internalType": "address",
          "name": "account",
          "type": "address"
        },
        {
          "indexed": true,
          "internalType": "address",
          "name": "sender",
          "type": "address"
        }
      ],
      "name": "RoleGranted",
      "type": "event"
    },
    {
      "anonymous": false,
      "inputs": [
        {
          "indexed": true,
          "internalType": "bytes32",
          "name": "role",
          "type": "bytes32"
        },
        {
          "indexed": true,
          "internalType": "address",
          "name": "account",
          "type": "address"
        },
        {
          "indexed": true,
          "internalType": "address",
          "name": "sender",
          "type": "address"
        }
      ],
      "name": "RoleRevoked",
      "type": "event"
    },
    {
      "inputs": [
        {
          "internalType": "address",
          "name": "deployedContract",
          "type": "address"
        }
      ],
      "name": "contractToCreator",
      "outputs": [
        {
          "internalType": "address",
          "name": "creator",
          "type": "address"
        }
      ],
      "stateMutability": "view",
      "type": "function"
    },
    {
      "inputs": [
        {
          "internalType": "address",
          "name": "deployer",
          "type": "address"
        },
        {
          "internalType": "uint256",
          "name": "index",
          "type": "uint256"
        }
      ],
      "name": "creatorToContractIndex",
      "outputs": [
        {
          "internalType": "address",
          "name": "deployedContract",
          "type": "address"
        }
      ],
      "stateMutability": "view",
      "type": "function"
    },
    {
      "inputs": [
        {
          "internalType": "address",
          "name": "deployer",
          "type": "address"
        }
      ],
      "name": "creatorToContractList",
      "outputs": [
        {
          "internalType": "address[]",
          "name": "deployedContracts",
          "type": "address[]"
        }
      ],
      "stateMutability": "view",
      "type": "function"
    },
    {
      "inputs": [
        {
          "internalType": "address",
          "name": "deployer",
          "type": "address"
        }
      ],
      "name": "getContractCountOf",
      "outputs": [
        {
          "internalType": "uint256",
          "name": "count",
          "type": "uint256"
        }
      ],
      "stateMutability": "view",
      "type": "function"
    },
    {
      "inputs": [
        {
          "internalType": "uint256",
          "name": "index",
          "type": "uint256"
        }
      ],
      "name": "getCreatorAtIndex",
      "outputs": [
        {
          "internalType": "address",
          "name": "creator",
          "type": "address"
        }
      ],
      "stateMutability": "view",
      "type": "function"
    },
    {
      "inputs": [],
      "name": "getCreatorsCount",
      "outputs": [
        {
          "internalType": "uint256",
          "name": "count",
          "type": "uint256"
        }
      ],
      "stateMutability": "view",
      "type": "function"
    },
    {
      "inputs": [
        {
          "internalType": "bytes32",
          "name": "role",
          "type": "bytes32"
        }
      ],
      "name": "getRoleAdmin",
      "outputs": [
        {
          "internalType": "bytes32",
          "name": "",
          "type": "bytes32"
        }
      ],
      "stateMutability": "view",
      "type": "function"
    },
    {
      "inputs": [
        {
          "internalType": "bytes32",
          "name": "role",
          "type": "bytes32"
        },
        {
          "internalType": "uint256",
          "name": "index",
          "type": "uint256"
        }
      ],
      "name": "getRoleMember",
      "outputs": [
        {
          "internalType": "address",
          "name": "",
          "type": "address"
        }
      ],
      "stateMutability": "view",
      "type": "function"
    },
    {
      "inputs": [
        {
          "internalType": "bytes32",
          "name": "role",
          "type": "bytes32"
        }
      ],
      "name": "getRoleMemberCount",
      "outputs": [
        {
          "internalType": "uint256",
          "name": "",
          "type": "uint256"
        }
      ],
      "stateMutability": "view",
      "type": "function"
    },
    {
      "inputs": [
        {
          "internalType": "bytes32",
          "name": "role",
          "type": "bytes32"
        },
        {
          "internalType": "address",
          "name": "account",
          "type": "address"
        }
      ],
      "name": "grantRole",
      "outputs": [],
      "stateMutability": "nonpayable",
      "type": "function"
    },
    {
      "inputs": [
        {
          "internalType": "bytes32",
          "name": "role",
          "type": "bytes32"
        },
        {
          "internalType": "address",
          "name": "account",
          "type": "address"
        }
      ],
      "name": "hasRole",
      "outputs": [
        {
          "internalType": "bool",
          "name": "",
          "type": "bool"
        }
      ],
      "stateMutability": "view",
      "type": "function"
    },
    {
      "inputs": [
        {
          "internalType": "bytes32",
          "name": "role",
          "type": "bytes32"
        },
        {
          "internalType": "address",
          "name": "account",
          "type": "address"
        }
      ],
      "name": "renounceRole",
      "outputs": [],
      "stateMutability": "nonpayable",
      "type": "function"
    },
    {
      "inputs": [
        {
          "internalType": "bytes32",
          "name": "role",
          "type": "bytes32"
        },
        {
          "internalType": "address",
          "name": "account",
          "type": "address"
        }
      ],
      "name": "revokeRole",
      "outputs": [],
      "stateMutability": "nonpayable",
      "type": "function"
    }
  ],
  "transactionHash": "0xa8873414f4c7c351f824e133fd3f796ffac79b6dd26d02a7f273c55c8bc2504d",
  "args": [],
  "numDeployments": 1,
  "solcInputHash": "879d7dc614fda1753afdda4cb397ed7d",
  "bytecode": "0x608060405234801561001057600080fd5b50610bec806100206000396000f3fe608060405234801561001057600080fd5b50600436106100cf5760003560e01c80639010d07c1161008c578063aa55ecbc11610066578063aa55ecbc146101ef578063ba7c6282146101f7578063ca15c87314610223578063d547741f1461023657600080fd5b80639010d07c1461019057806391d14854146101a3578063956f9038146101c657600080fd5b8063248a9ca3146100d45780632c6a94ec1461010a5780632f2ff15d1461012a57806336568abe1461013f57806366780031146101525780637fbbc0a41461017d575b600080fd5b6100f76100e2366004610929565b60009081526020819052604090206001015490565b6040519081526020015b60405180910390f35b61011d61011836600461095e565b610249565b6040516101019190610979565b61013d6101383660046109c6565b6102bf565b005b61013d61014d3660046109c6565b6102ea565b6101656101603660046109f2565b61036d565b6040516001600160a01b039091168152602001610101565b61016561018b366004610929565b6103b5565b61016561019e366004610a1c565b6103e7565b6101b66101b13660046109c6565b610406565b6040519015158152602001610101565b6100f76101d436600461095e565b6001600160a01b031660009081526004602052604090205490565b6003546100f7565b61016561020536600461095e565b6001600160a01b039081166000908152600560205260409020541690565b6100f7610231366004610929565b61042f565b61013d6102443660046109c6565b610446565b6001600160a01b0381166000908152600460209081526040918290208054835181840281018401909452808452606093928301828280156102b357602002820191906000526020600020905b81546001600160a01b03168152600190910190602001808311610295575b50505050509050919050565b6000828152602081905260409020600101546102db813361046c565b6102e583836104d0565b505050565b6001600160a01b038116331461035f5760405162461bcd60e51b815260206004820152602f60248201527f416363657373436f6e74726f6c3a2063616e206f6e6c792072656e6f756e636560448201526e103937b632b9903337b91039b2b63360891b60648201526084015b60405180910390fd5b6103698282610568565b5050565b6001600160a01b038216600090815260046020526040812080548390811061039757610397610a3e565b6000918252602090912001546001600160a01b031690505b92915050565b60008060030182815481106103cc576103cc610a3e565b6000918252602090912001546001600160a01b031692915050565b60008281526002602052604081206103ff90836105e1565b9392505050565b6000918252602082815260408084206001600160a01b0393909316845291905290205460ff1690565b60008181526002602052604081206103af906105ed565b600082815260208190526040902060010154610462813361046c565b6102e58383610568565b6104768282610406565b6103695761048e816001600160a01b031660146105f7565b6104998360206105f7565b6040516020016104aa929190610a78565b60408051601f198184030181529082905262461bcd60e51b825261035691600401610aed565b6104da8282610406565b610369576000828152602081815260408083206001600160a01b03851684529091529020805460ff191660011790556105103390565b6001600160a01b0316816001600160a01b0316837f2f8788117e7eff1d82e926ec794901d17c78024a50270940304540a733656f0d60405160405180910390a460008281526002602052604090206102e59082610793565b6105728282610406565b15610369576000828152602081815260408083206001600160a01b0385168085529252808320805460ff1916905551339285917ff6391f5c32d9c69d2a47ea670b442974b53935d1edc7fd64eb21e047a839171b9190a460008281526002602052604090206102e590826107a8565b60006103ff83836107bd565b60006103af825490565b60606000610606836002610b36565b610611906002610b4d565b67ffffffffffffffff81111561062957610629610b60565b6040519080825280601f01601f191660200182016040528015610653576020820181803683370190505b509050600360fc1b8160008151811061066e5761066e610a3e565b60200101906001600160f81b031916908160001a905350600f60fb1b8160018151811061069d5761069d610a3e565b60200101906001600160f81b031916908160001a90535060006106c1846002610b36565b6106cc906001610b4d565b90505b6001811115610744576f181899199a1a9b1b9c1cb0b131b232b360811b85600f166010811061070057610700610a3e565b1a60f81b82828151811061071657610716610a3e565b60200101906001600160f81b031916908160001a90535060049490941c9361073d81610b76565b90506106cf565b5083156103ff5760405162461bcd60e51b815260206004820181905260248201527f537472696e67733a20686578206c656e67746820696e73756666696369656e746044820152606401610356565b60006103ff836001600160a01b0384166107e7565b60006103ff836001600160a01b038416610836565b60008260000182815481106107d4576107d4610a3e565b9060005260206000200154905092915050565b600081815260018301602052604081205461082e575081546001818101845560008481526020808220909301849055845484825282860190935260409020919091556103af565b5060006103af565b6000818152600183016020526040812054801561091f57600061085a600183610b8d565b855490915060009061086e90600190610b8d565b90508181146108d357600086600001828154811061088e5761088e610a3e565b90600052602060002001549050808760000184815481106108b1576108b1610a3e565b6000918252602080832090910192909255918252600188019052604090208390555b85548690806108e4576108e4610ba0565b6001900381819060005260206000200160009055905585600101600086815260200190815260200160002060009055600193505050506103af565b60009150506103af565b60006020828403121561093b57600080fd5b5035919050565b80356001600160a01b038116811461095957600080fd5b919050565b60006020828403121561097057600080fd5b6103ff82610942565b6020808252825182820181905260009190848201906040850190845b818110156109ba5783516001600160a01b031683529284019291840191600101610995565b50909695505050505050565b600080604083850312156109d957600080fd5b823591506109e960208401610942565b90509250929050565b60008060408385031215610a0557600080fd5b610a0e83610942565b946020939093013593505050565b60008060408385031215610a2f57600080fd5b50508035926020909101359150565b634e487b7160e01b600052603260045260246000fd5b60005b83811015610a6f578181015183820152602001610a57565b50506000910152565b7f416363657373436f6e74726f6c3a206163636f756e7420000000000000000000815260008351610ab0816017850160208801610a54565b7001034b99036b4b9b9b4b733903937b6329607d1b6017918401918201528351610ae1816028840160208801610a54565b01602801949350505050565b6020815260008251806020840152610b0c816040850160208701610a54565b601f01601f19169190910160400192915050565b634e487b7160e01b600052601160045260246000fd5b80820281158282048414176103af576103af610b20565b808201808211156103af576103af610b20565b634e487b7160e01b600052604160045260246000fd5b600081610b8557610b85610b20565b506000190190565b818103818111156103af576103af610b20565b634e487b7160e01b600052603160045260246000fdfea2646970667358221220c8da36ffc7ef065783d069ab5660ed16dc6fe890beb6b969954ebb1ddab83e6a64736f6c63430008130033",
  "devdoc": {
    "events": {
      "RoleAdminChanged(bytes32,bytes32,bytes32)": {
        "params": {
          "newAdminRole": "Contains the new admin role",
          "previousAdminRole": "Contains the previous admin role",
          "role": "Contains the admin role that we want to use "
        }
      },
      "RoleGranted(bytes32,address,address)": {
        "params": {
          "account": "Contains the account we want to add to a new role",
          "role": "Contains the admin role that we want to use ",
          "sender": "Contains the sender of the role petition"
        }
      },
      "RoleRevoked(bytes32,address,address)": {
        "params": {
          "account": "Contains the account we want to add to a new role",
          "role": "Contains the admin role that we want to use ",
          "sender": "Contains the sender of the role petition"
        }
      }
    },
    "kind": "dev",
    "methods": {
      "contractToCreator(address)": {
        "params": {
          "deployedContract": "Contains the facet addresses and function selectors"
        },
        "returns": {
          "creator": "\tAddress of the contracts creator"
        }
      },
      "creatorToContractIndex(address,uint256)": {
        "params": {
          "deployer": "Contains the facet addresses and function selectors",
          "index": "Contains the facet addresses and function selectors"
        },
        "returns": {
          "deployedContract": "\tAddress of the deployed ERC721"
        }
      },
      "creatorToContractList(address)": {
        "params": {
          "deployer": "Contains the facet addresses and function selectors"
        },
        "returns": {
          "deployedContracts": "\tAddresses of the deployed contracts  "
        }
      },
      "getContractCountOf(address)": {
        "details": "Use alongside creatorToContracts for the full list of tokens ",
        "params": {
          "deployer": "Wallet address to query"
        },
        "returns": {
          "count": "\tNumber of contracts deployed by the deployer"
        }
      },
      "getCreatorAtIndex(uint256)": {
        "params": {
          "index": "number of the index for look inside our array"
        },
        "returns": {
          "creator": "\tAddress of the selected index"
        }
      },
      "getCreatorsCount()": {
        "returns": {
          "count": "with the total of creators of this contract"
        }
      },
      "getRoleAdmin(bytes32)": {
        "details": "Notice that this function override the behavior ofthe getRoleAdmin function inherited from AccessControlEnumerable",
        "params": {
          "role": "Contains the role that we want to check"
        },
        "returns": {
          "_0": "bytes32 the rol that in available to change"
        }
      },
      "getRoleMember(bytes32,uint256)": {
        "details": "Notice that this function override the behavior ofthe getRoleMember function inherited from AccessControlEnumerable",
        "params": {
          "index": "Contains the position of the array that we want to verify",
          "role": "Contains an specific role to check"
        },
        "returns": {
          "_0": "address of the account with that position of the list of the selected role"
        }
      },
      "getRoleMemberCount(bytes32)": {
        "details": "Notice that this function override the behavior ofthe getRoleMemberCount function inherited from AccessControlEnumerable",
        "params": {
          "role": "Contains an specific role to check"
        },
        "returns": {
          "_0": "uint256 answer the cuantity of accounts with that role"
        }
      },
      "grantRole(bytes32,address)": {
        "params": {
          "account": "Contains the account address to use. ",
          "role": "Contains the role that we want to use "
        }
      },
      "hasRole(bytes32,address)": {
        "details": "Notice that this function override the behavior ofthe hasrole function inherited from AccessControlEnumerable",
        "params": {
          "account": "Contains the address to match with the verification ",
          "role": "Contains the role we want to verify"
        },
        "returns": {
          "_0": "bool Answer if the account has the input role or not"
        }
      },
      "renounceRole(bytes32,address)": {
        "params": {
          "account": "Contains the account address to use.    ",
          "role": "Contains the role that we want to use "
        }
      },
      "revokeRole(bytes32,address)": {
        "params": {
          "account": "Contains the account address to use. ",
          "role": "Contains the role that we want to use "
        }
      }
    },
    "title": "Our Facet creators contract",
    "version": 1
  },
  "userdoc": {
    "events": {
      "RoleAdminChanged(bytes32,bytes32,bytes32)": {
        "notice": "This event stores in the blockchain when an admin role changes"
      },
      "RoleGranted(bytes32,address,address)": {
        "notice": "This event stores in the blockchain when a role is granted"
      },
      "RoleRevoked(bytes32,address,address)": {
        "notice": "This event stores in the blockchain when a role is revoked"
      }
    },
    "kind": "user",
    "methods": {
      "contractToCreator(address)": {
        "notice": "Returns the address of the creator given a deployed contract's address"
      },
      "creatorToContractIndex(address,uint256)": {
        "notice": "Necessary view function now that public mappings are not possible"
      },
      "creatorToContractList(address)": {
        "notice": "Returns the whole array of deployed addresses of a creator"
      },
      "getContractCountOf(address)": {
        "notice": "Returns the number of contracts deployed by an address"
      },
      "getCreatorAtIndex(uint256)": {
        "notice": "Returns a single address inside the creators array"
      },
      "getCreatorsCount()": {
        "notice": "Returns the number of addresses that have deployed a contract"
      },
      "getRoleAdmin(bytes32)": {
        "notice": "Allows us to see what role is available to modify with the selected role"
      },
      "getRoleMember(bytes32,uint256)": {
        "notice": "Allow us to use an index position to verify the account that has a role"
      },
      "getRoleMemberCount(bytes32)": {
        "notice": "Allow us to know the total of members that has a role"
      },
      "grantRole(bytes32,address)": {
        "notice": "Allow an admin to asign a new role to an account"
      },
      "hasRole(bytes32,address)": {
        "notice": "This function allow us to know if an user has or not an specific role"
      },
      "renounceRole(bytes32,address)": {
        "notice": "Allow an user to quit an owned roleThe account that sends the petition needs to be the same that will renounce to a role"
      },
      "revokeRole(bytes32,address)": {
        "notice": "Allow an admin to revoke a role to an account"
      }
    },
    "notice": "You can use this contract to view the creator of contracts and the list of contractsdeployed",
    "version": 1
  },
  "storageLayout": {
    "storage": [
      {
        "astId": 4573,
        "contract": "contracts/Factory/facets/creatorsFacet.sol:creatorFacet",
        "label": "s",
        "offset": 0,
        "slot": "0",
        "type": "t_struct(AppStorage)4552_storage"
      }
    ],
    "types": {
      "t_address": {
        "encoding": "inplace",
        "label": "address",
        "numberOfBytes": "20"
      },
      "t_array(t_address)dyn_storage": {
        "base": "t_address",
        "encoding": "dynamic_array",
        "label": "address[]",
        "numberOfBytes": "32"
      },
      "t_array(t_bytes32)dyn_storage": {
        "base": "t_bytes32",
        "encoding": "dynamic_array",
        "label": "bytes32[]",
        "numberOfBytes": "32"
      },
      "t_bool": {
        "encoding": "inplace",
        "label": "bool",
        "numberOfBytes": "1"
      },
      "t_bytes32": {
        "encoding": "inplace",
        "label": "bytes32",
        "numberOfBytes": "32"
      },
      "t_mapping(t_address,t_address)": {
        "encoding": "mapping",
        "key": "t_address",
        "label": "mapping(address => address)",
        "numberOfBytes": "32",
        "value": "t_address"
      },
      "t_mapping(t_address,t_array(t_address)dyn_storage)": {
        "encoding": "mapping",
        "key": "t_address",
        "label": "mapping(address => address[])",
        "numberOfBytes": "32",
        "value": "t_array(t_address)dyn_storage"
      },
      "t_mapping(t_address,t_bool)": {
        "encoding": "mapping",
        "key": "t_address",
        "label": "mapping(address => bool)",
        "numberOfBytes": "32",
        "value": "t_bool"
      },
      "t_mapping(t_address,t_uint256)": {
        "encoding": "mapping",
        "key": "t_address",
        "label": "mapping(address => uint256)",
        "numberOfBytes": "32",
        "value": "t_uint256"
      },
      "t_mapping(t_bytes32,t_struct(AddressSet)3640_storage)": {
        "encoding": "mapping",
        "key": "t_bytes32",
        "label": "mapping(bytes32 => struct EnumerableSet.AddressSet)",
        "numberOfBytes": "32",
        "value": "t_struct(AddressSet)3640_storage"
      },
      "t_mapping(t_bytes32,t_struct(RoleData)7394_storage)": {
        "encoding": "mapping",
        "key": "t_bytes32",
        "label": "mapping(bytes32 => struct RoleData)",
        "numberOfBytes": "32",
        "value": "t_struct(RoleData)7394_storage"
      },
      "t_mapping(t_bytes32,t_uint256)": {
        "encoding": "mapping",
        "key": "t_bytes32",
        "label": "mapping(bytes32 => uint256)",
        "numberOfBytes": "32",
        "value": "t_uint256"
      },
      "t_string_storage": {
        "encoding": "bytes",
        "label": "string",
        "numberOfBytes": "32"
      },
      "t_struct(AddressSet)3640_storage": {
        "encoding": "inplace",
        "label": "struct EnumerableSet.AddressSet",
        "members": [
          {
            "astId": 3639,
            "contract": "contracts/Factory/facets/creatorsFacet.sol:creatorFacet",
            "label": "_inner",
            "offset": 0,
            "slot": "0",
            "type": "t_struct(Set)3325_storage"
          }
        ],
        "numberOfBytes": "64"
      },
      "t_struct(AppStorage)4552_storage": {
        "encoding": "inplace",
        "label": "struct AppStorage",
        "members": [
          {
            "astId": 4528,
            "contract": "contracts/Factory/facets/creatorsFacet.sol:creatorFacet",
            "label": "_roles",
            "offset": 0,
            "slot": "0",
            "type": "t_mapping(t_bytes32,t_struct(RoleData)7394_storage)"
          },
          {
            "astId": 4530,
            "contract": "contracts/Factory/facets/creatorsFacet.sol:creatorFacet",
            "label": "failsafe",
            "offset": 0,
            "slot": "1",
            "type": "t_string_storage"
          },
          {
            "astId": 4535,
            "contract": "contracts/Factory/facets/creatorsFacet.sol:creatorFacet",
            "label": "_roleMembers",
            "offset": 0,
            "slot": "2",
            "type": "t_mapping(t_bytes32,t_struct(AddressSet)3640_storage)"
          },
          {
            "astId": 4538,
            "contract": "contracts/Factory/facets/creatorsFacet.sol:creatorFacet",
            "label": "creators",
            "offset": 0,
            "slot": "3",
            "type": "t_array(t_address)dyn_storage"
          },
          {
            "astId": 4543,
            "contract": "contracts/Factory/facets/creatorsFacet.sol:creatorFacet",
            "label": "creatorToContracts",
            "offset": 0,
            "slot": "4",
            "type": "t_mapping(t_address,t_array(t_address)dyn_storage)"
          },
          {
            "astId": 4547,
            "contract": "contracts/Factory/facets/creatorsFacet.sol:creatorFacet",
            "label": "contractToCreator",
            "offset": 0,
            "slot": "5",
            "type": "t_mapping(t_address,t_address)"
          },
          {
            "astId": 4551,
            "contract": "contracts/Factory/facets/creatorsFacet.sol:creatorFacet",
            "label": "deploymentCostForToken",
            "offset": 0,
            "slot": "6",
            "type": "t_mapping(t_address,t_uint256)"
          }
        ],
        "numberOfBytes": "224"
      },
      "t_struct(RoleData)7394_storage": {
        "encoding": "inplace",
        "label": "struct RoleData",
        "members": [
          {
            "astId": 7391,
            "contract": "contracts/Factory/facets/creatorsFacet.sol:creatorFacet",
            "label": "members",
            "offset": 0,
            "slot": "0",
            "type": "t_mapping(t_address,t_bool)"
          },
          {
            "astId": 7393,
            "contract": "contracts/Factory/facets/creatorsFacet.sol:creatorFacet",
            "label": "adminRole",
            "offset": 0,
            "slot": "1",
            "type": "t_bytes32"
          }
        ],
        "numberOfBytes": "64"
      },
      "t_struct(Set)3325_storage": {
        "encoding": "inplace",
        "label": "struct EnumerableSet.Set",
        "members": [
          {
            "astId": 3320,
            "contract": "contracts/Factory/facets/creatorsFacet.sol:creatorFacet",
            "label": "_values",
            "offset": 0,
            "slot": "0",
            "type": "t_array(t_bytes32)dyn_storage"
          },
          {
            "astId": 3324,
            "contract": "contracts/Factory/facets/creatorsFacet.sol:creatorFacet",
            "label": "_indexes",
            "offset": 0,
            "slot": "1",
            "type": "t_mapping(t_bytes32,t_uint256)"
          }
        ],
        "numberOfBytes": "64"
      },
      "t_uint256": {
        "encoding": "inplace",
        "label": "uint256",
        "numberOfBytes": "32"
      }
    }
  }
}