{
  "address": "0xf4C420d11F206dB683e7742059ba3A8b1f5FC778",
  "abi": [
    {
      "anonymous": false,
      "inputs": [
        {
          "indexed": true,
          "internalType": "bytes32",
          "name": "role",
          "type": "bytes32"
        },
        {
          "indexed": true,
          "internalType": "bytes32",
          "name": "previousAdminRole",
          "type": "bytes32"
        },
        {
          "indexed": true,
          "internalType": "bytes32",
          "name": "newAdminRole",
          "type": "bytes32"
        }
      ],
      "name": "RoleAdminChanged",
      "type": "event"
    },
    {
      "anonymous": false,
      "inputs": [
        {
          "indexed": true,
          "internalType": "bytes32",
          "name": "role",
          "type": "bytes32"
        },
        {
          "indexed": true,
          "internalType": "address",
          "name": "account",
          "type": "address"
        },
        {
          "indexed": true,
          "internalType": "address",
          "name": "sender",
          "type": "address"
        }
      ],
      "name": "RoleGranted",
      "type": "event"
    },
    {
      "anonymous": false,
      "inputs": [
        {
          "indexed": true,
          "internalType": "bytes32",
          "name": "role",
          "type": "bytes32"
        },
        {
          "indexed": true,
          "internalType": "address",
          "name": "account",
          "type": "address"
        },
        {
          "indexed": true,
          "internalType": "address",
          "name": "sender",
          "type": "address"
        }
      ],
      "name": "RoleRevoked",
      "type": "event"
    },
    {
      "inputs": [],
      "name": "ADMINISTRATOR",
      "outputs": [
        {
          "internalType": "bytes32",
          "name": "",
          "type": "bytes32"
        }
      ],
      "stateMutability": "view",
      "type": "function"
    },
    {
      "inputs": [],
      "name": "ALLOWED_ERC777",
      "outputs": [
        {
          "internalType": "bytes32",
          "name": "",
          "type": "bytes32"
        }
      ],
      "stateMutability": "view",
      "type": "function"
    },
    {
      "inputs": [],
      "name": "DEFAULT_ADMIN_ROLE",
      "outputs": [
        {
          "internalType": "bytes32",
          "name": "",
          "type": "bytes32"
        }
      ],
      "stateMutability": "view",
      "type": "function"
    },
    {
      "inputs": [],
      "name": "WITHDRAW_SIGNER",
      "outputs": [
        {
          "internalType": "bytes32",
          "name": "",
          "type": "bytes32"
        }
      ],
      "stateMutability": "view",
      "type": "function"
    },
    {
      "inputs": [
        {
          "internalType": "bytes32",
          "name": "role",
          "type": "bytes32"
        }
      ],
      "name": "getRoleAdmin",
      "outputs": [
        {
          "internalType": "bytes32",
          "name": "",
          "type": "bytes32"
        }
      ],
      "stateMutability": "view",
      "type": "function"
    },
    {
      "inputs": [
        {
          "internalType": "bytes32",
          "name": "role",
          "type": "bytes32"
        },
        {
          "internalType": "uint256",
          "name": "index",
          "type": "uint256"
        }
      ],
      "name": "getRoleMember",
      "outputs": [
        {
          "internalType": "address",
          "name": "",
          "type": "address"
        }
      ],
      "stateMutability": "view",
      "type": "function"
    },
    {
      "inputs": [
        {
          "internalType": "bytes32",
          "name": "role",
          "type": "bytes32"
        }
      ],
      "name": "getRoleMemberCount",
      "outputs": [
        {
          "internalType": "uint256",
          "name": "",
          "type": "uint256"
        }
      ],
      "stateMutability": "view",
      "type": "function"
    },
    {
      "inputs": [
        {
          "internalType": "address",
          "name": "userAddress",
          "type": "address"
        }
      ],
      "name": "getTotalUserCredits",
      "outputs": [
        {
          "internalType": "uint256",
          "name": "balance",
          "type": "uint256"
        }
      ],
      "stateMutability": "view",
      "type": "function"
    },
    {
      "inputs": [
        {
          "internalType": "address",
          "name": "token",
          "type": "address"
        },
        {
          "internalType": "address",
          "name": "userAddress",
          "type": "address"
        }
      ],
      "name": "getUserCredits",
      "outputs": [
        {
          "internalType": "uint256",
          "name": "balance",
          "type": "uint256"
        }
      ],
      "stateMutability": "view",
      "type": "function"
    },
    {
      "inputs": [
        {
          "internalType": "bytes32",
          "name": "role",
          "type": "bytes32"
        },
        {
          "internalType": "address",
          "name": "account",
          "type": "address"
        }
      ],
      "name": "grantRole",
      "outputs": [],
      "stateMutability": "nonpayable",
      "type": "function"
    },
    {
      "inputs": [
        {
          "internalType": "bytes32",
          "name": "role",
          "type": "bytes32"
        },
        {
          "internalType": "address",
          "name": "account",
          "type": "address"
        }
      ],
      "name": "hasRole",
      "outputs": [
        {
          "internalType": "bool",
          "name": "",
          "type": "bool"
        }
      ],
      "stateMutability": "view",
      "type": "function"
    },
    {
      "inputs": [
        {
          "internalType": "bytes32",
          "name": "role",
          "type": "bytes32"
        },
        {
          "internalType": "address",
          "name": "account",
          "type": "address"
        }
      ],
      "name": "renounceRole",
      "outputs": [],
      "stateMutability": "nonpayable",
      "type": "function"
    },
    {
      "inputs": [
        {
          "internalType": "bytes32",
          "name": "role",
          "type": "bytes32"
        },
        {
          "internalType": "address",
          "name": "account",
          "type": "address"
        }
      ],
      "name": "revokeRole",
      "outputs": [],
      "stateMutability": "nonpayable",
      "type": "function"
    }
  ],
  "transactionHash": "0x027dce3eecaf46818cd5aae71d2d8b3c3189a16dd8f0a71c4c661688412e3a04",
  "args": [],
  "numDeployments": 1,
  "solcInputHash": "31f1f7eda7046d20a8185416ef304a26",
  "bytecode": "0x608060405234801561001057600080fd5b50610baf806100206000396000f3fe608060405234801561001057600080fd5b50600436106100cf5760003560e01c806391d148541161008c578063d547741f11610066578063d547741f1461020a578063d7ccbefe1461021d578063ee21c78414610244578063fa2edf101461028c57600080fd5b806391d14854146101cc578063a217fddf146101ef578063ca15c873146101f757600080fd5b8063248a9ca3146100d45780632f2ff15d146100fa57806336568abe1461010f5780633f71a75b1461012257806359fe72791461017a5780639010d07c146101a1575b600080fd5b6100e76100e23660046108f9565b6102b3565b6040519081526020015b60405180910390f35b61010d61010836600461092e565b6102d5565b005b61010d61011d36600461092e565b6102f7565b6100e761013036600461095a565b6001600160a01b0391821660009081527f4450215f052c8f729ef154acb1b5bb971dcf3a8c302f328f6a0a91077b170fb56020908152604080832093909416825291909152205490565b6100e77f5feb4fc8353744df88c070fec2ce0b260201a0f48c15e9c30b74c6772f05987e81565b6101b46101af366004610984565b61037a565b6040516001600160a01b0390911681526020016100f1565b6101df6101da36600461092e565b6103a8565b60405190151581526020016100f1565b6100e7600081565b6100e76102053660046108f9565b6103e0565b61010d61021836600461092e565b610404565b6100e77f632cf005d591a00d863083f41da4ebaf8627023b95d6248039a4445218150dc281565b6100e76102523660046109a6565b6001600160a01b031660009081527f4450215f052c8f729ef154acb1b5bb971dcf3a8c302f328f6a0a91077b170fb6602052604090205490565b6100e77fafba2f79a991a75cf9fb7e6662fd74474d42a18ba3dd347d244fd2e438dfd95b81565b6000908152600080516020610b3a833981519152602052604090206001015490565b6102de826102b3565b6102e88133610421565b6102f28383610485565b505050565b6001600160a01b038116331461036c5760405162461bcd60e51b815260206004820152602f60248201527f416363657373436f6e74726f6c3a2063616e206f6e6c792072656e6f756e636560448201526e103937b632b9903337b91039b2b63360891b60648201526084015b60405180910390fd5b610376828261051c565b5050565b6000828152600080516020610b5a8339815191526020526040812061039f90836105b1565b90505b92915050565b6000918252600080516020610b3a833981519152602090815260408084206001600160a01b0393909316845291905290205460ff1690565b6000818152600080516020610b5a833981519152602052604081206103a2906105bd565b61040d826102b3565b6104178133610421565b6102f2838361051c565b61042b82826103a8565b61037657610443816001600160a01b031660146105c7565b61044e8360206105c7565b60405160200161045f9291906109e5565b60408051601f198184030181529082905262461bcd60e51b825261036391600401610a5a565b61048f82826103a8565b610376576000828152600080516020610b3a833981519152602090815260408083206001600160a01b0385168085529252808320805460ff1916600117905551339285917f2f8788117e7eff1d82e926ec794901d17c78024a50270940304540a733656f0d9190a46000828152600080516020610b5a833981519152602052604090206102f29082610763565b61052682826103a8565b15610376576000828152600080516020610b3a833981519152602090815260408083206001600160a01b0385168085529252808320805460ff1916905551339285917ff6391f5c32d9c69d2a47ea670b442974b53935d1edc7fd64eb21e047a839171b9190a46000828152600080516020610b5a833981519152602052604090206102f29082610778565b600061039f838361078d565b60006103a2825490565b606060006105d6836002610aa3565b6105e1906002610aba565b67ffffffffffffffff8111156105f9576105f9610acd565b6040519080825280601f01601f191660200182016040528015610623576020820181803683370190505b509050600360fc1b8160008151811061063e5761063e610ae3565b60200101906001600160f81b031916908160001a905350600f60fb1b8160018151811061066d5761066d610ae3565b60200101906001600160f81b031916908160001a9053506000610691846002610aa3565b61069c906001610aba565b90505b6001811115610714576f181899199a1a9b1b9c1cb0b131b232b360811b85600f16601081106106d0576106d0610ae3565b1a60f81b8282815181106106e6576106e6610ae3565b60200101906001600160f81b031916908160001a90535060049490941c9361070d81610af9565b905061069f565b50831561039f5760405162461bcd60e51b815260206004820181905260248201527f537472696e67733a20686578206c656e67746820696e73756666696369656e746044820152606401610363565b600061039f836001600160a01b0384166107b7565b600061039f836001600160a01b038416610806565b60008260000182815481106107a4576107a4610ae3565b9060005260206000200154905092915050565b60008181526001830160205260408120546107fe575081546001818101845560008481526020808220909301849055845484825282860190935260409020919091556103a2565b5060006103a2565b600081815260018301602052604081205480156108ef57600061082a600183610b10565b855490915060009061083e90600190610b10565b90508181146108a357600086600001828154811061085e5761085e610ae3565b906000526020600020015490508087600001848154811061088157610881610ae3565b6000918252602080832090910192909255918252600188019052604090208390555b85548690806108b4576108b4610b23565b6001900381819060005260206000200160009055905585600101600086815260200190815260200160002060009055600193505050506103a2565b60009150506103a2565b60006020828403121561090b57600080fd5b5035919050565b80356001600160a01b038116811461092957600080fd5b919050565b6000806040838503121561094157600080fd5b8235915061095160208401610912565b90509250929050565b6000806040838503121561096d57600080fd5b61097683610912565b915061095160208401610912565b6000806040838503121561099757600080fd5b50508035926020909101359150565b6000602082840312156109b857600080fd5b61039f82610912565b60005b838110156109dc5781810151838201526020016109c4565b50506000910152565b7f416363657373436f6e74726f6c3a206163636f756e7420000000000000000000815260008351610a1d8160178501602088016109c1565b7001034b99036b4b9b9b4b733903937b6329607d1b6017918401918201528351610a4e8160288401602088016109c1565b01602801949350505050565b6020815260008251806020840152610a798160408501602087016109c1565b601f01601f19169190910160400192915050565b634e487b7160e01b600052601160045260246000fd5b80820281158282048414176103a2576103a2610a8d565b808201808211156103a2576103a2610a8d565b634e487b7160e01b600052604160045260246000fd5b634e487b7160e01b600052603260045260246000fd5b600081610b0857610b08610a8d565b506000190190565b818103818111156103a2576103a2610a8d565b634e487b7160e01b600052603160045260246000fdfe4f4f658137f4e10317e1a22624c2b114af7563a20fb2e3444ae2ac2342d457d04f4f658137f4e10317e1a22624c2b114af7563a20fb2e3444ae2ac2342d457d1a2646970667358221220c00c713966760955d6149f5f1d904c61dc83048437d36a09d8c88786909400b464736f6c63430008140033",
  "devdoc": {
    "kind": "dev",
    "methods": {},
    "title": "Deposit logic for the credit system",
    "version": 1
  },
  "userdoc": {
    "kind": "user",
    "methods": {},
    "notice": "Uses the ERC777 receiver hook to trigger additional logic",
    "version": 1
  },
  "storageLayout": {
    "storage": [],
    "types": null
  }
}