{
  "address": "0xe4a91d1cb3Dd506436c629f2bC30A989cD488E25",
  "abi": [
    {
      "anonymous": false,
      "inputs": [
        {
          "indexed": false,
          "internalType": "address",
          "name": "userAddress",
          "type": "address"
        },
        {
          "indexed": false,
          "internalType": "address",
          "name": "tokenAddress",
          "type": "address"
        },
        {
          "indexed": false,
          "internalType": "uint256",
          "name": "amount",
          "type": "uint256"
        },
        {
          "indexed": false,
          "internalType": "uint256",
          "name": "totalTokensDeposited",
          "type": "uint256"
        }
      ],
      "name": "ReceivedTokens",
      "type": "event"
    },
    {
      "anonymous": false,
      "inputs": [
        {
          "indexed": true,
          "internalType": "bytes32",
          "name": "role",
          "type": "bytes32"
        },
        {
          "indexed": true,
          "internalType": "bytes32",
          "name": "previousAdminRole",
          "type": "bytes32"
        },
        {
          "indexed": true,
          "internalType": "bytes32",
          "name": "newAdminRole",
          "type": "bytes32"
        }
      ],
      "name": "RoleAdminChanged",
      "type": "event"
    },
    {
      "anonymous": false,
      "inputs": [
        {
          "indexed": true,
          "internalType": "bytes32",
          "name": "role",
          "type": "bytes32"
        },
        {
          "indexed": true,
          "internalType": "address",
          "name": "account",
          "type": "address"
        },
        {
          "indexed": true,
          "internalType": "address",
          "name": "sender",
          "type": "address"
        }
      ],
      "name": "RoleGranted",
      "type": "event"
    },
    {
      "anonymous": false,
      "inputs": [
        {
          "indexed": true,
          "internalType": "bytes32",
          "name": "role",
          "type": "bytes32"
        },
        {
          "indexed": true,
          "internalType": "address",
          "name": "account",
          "type": "address"
        },
        {
          "indexed": true,
          "internalType": "address",
          "name": "sender",
          "type": "address"
        }
      ],
      "name": "RoleRevoked",
      "type": "event"
    },
    {
      "inputs": [],
      "name": "ADMINISTRATOR",
      "outputs": [
        {
          "internalType": "bytes32",
          "name": "",
          "type": "bytes32"
        }
      ],
      "stateMutability": "view",
      "type": "function"
    },
    {
      "inputs": [],
      "name": "ALLOWED_ERC777",
      "outputs": [
        {
          "internalType": "bytes32",
          "name": "",
          "type": "bytes32"
        }
      ],
      "stateMutability": "view",
      "type": "function"
    },
    {
      "inputs": [],
      "name": "DEFAULT_ADMIN_ROLE",
      "outputs": [
        {
          "internalType": "bytes32",
          "name": "",
          "type": "bytes32"
        }
      ],
      "stateMutability": "view",
      "type": "function"
    },
    {
      "inputs": [],
      "name": "WITHDRAW_SIGNER",
      "outputs": [
        {
          "internalType": "bytes32",
          "name": "",
          "type": "bytes32"
        }
      ],
      "stateMutability": "view",
      "type": "function"
    },
    {
      "inputs": [
        {
          "internalType": "bytes32",
          "name": "role",
          "type": "bytes32"
        }
      ],
      "name": "getRoleAdmin",
      "outputs": [
        {
          "internalType": "bytes32",
          "name": "",
          "type": "bytes32"
        }
      ],
      "stateMutability": "view",
      "type": "function"
    },
    {
      "inputs": [
        {
          "internalType": "bytes32",
          "name": "role",
          "type": "bytes32"
        },
        {
          "internalType": "uint256",
          "name": "index",
          "type": "uint256"
        }
      ],
      "name": "getRoleMember",
      "outputs": [
        {
          "internalType": "address",
          "name": "",
          "type": "address"
        }
      ],
      "stateMutability": "view",
      "type": "function"
    },
    {
      "inputs": [
        {
          "internalType": "bytes32",
          "name": "role",
          "type": "bytes32"
        }
      ],
      "name": "getRoleMemberCount",
      "outputs": [
        {
          "internalType": "uint256",
          "name": "",
          "type": "uint256"
        }
      ],
      "stateMutability": "view",
      "type": "function"
    },
    {
      "inputs": [
        {
          "internalType": "bytes32",
          "name": "role",
          "type": "bytes32"
        },
        {
          "internalType": "address",
          "name": "account",
          "type": "address"
        }
      ],
      "name": "grantRole",
      "outputs": [],
      "stateMutability": "nonpayable",
      "type": "function"
    },
    {
      "inputs": [
        {
          "internalType": "bytes32",
          "name": "role",
          "type": "bytes32"
        },
        {
          "internalType": "address",
          "name": "account",
          "type": "address"
        }
      ],
      "name": "hasRole",
      "outputs": [
        {
          "internalType": "bool",
          "name": "",
          "type": "bool"
        }
      ],
      "stateMutability": "view",
      "type": "function"
    },
    {
      "inputs": [
        {
          "internalType": "bytes32",
          "name": "role",
          "type": "bytes32"
        },
        {
          "internalType": "address",
          "name": "account",
          "type": "address"
        }
      ],
      "name": "renounceRole",
      "outputs": [],
      "stateMutability": "nonpayable",
      "type": "function"
    },
    {
      "inputs": [
        {
          "internalType": "bytes32",
          "name": "role",
          "type": "bytes32"
        },
        {
          "internalType": "address",
          "name": "account",
          "type": "address"
        }
      ],
      "name": "revokeRole",
      "outputs": [],
      "stateMutability": "nonpayable",
      "type": "function"
    },
    {
      "inputs": [
        {
          "internalType": "address",
          "name": "operator",
          "type": "address"
        },
        {
          "internalType": "address",
          "name": "from",
          "type": "address"
        },
        {
          "internalType": "address",
          "name": "to",
          "type": "address"
        },
        {
          "internalType": "uint256",
          "name": "amount",
          "type": "uint256"
        },
        {
          "internalType": "bytes",
          "name": "userData",
          "type": "bytes"
        },
        {
          "internalType": "bytes",
          "name": "operatorData",
          "type": "bytes"
        }
      ],
      "name": "tokensReceived",
      "outputs": [],
      "stateMutability": "nonpayable",
      "type": "function"
    }
  ],
  "transactionHash": "0xce822a3f42aebaf57fd3c0f767ceaa7329dd54e82c0683431de808c5bade0575",
  "args": [],
  "numDeployments": 1,
  "solcInputHash": "31f1f7eda7046d20a8185416ef304a26",
  "bytecode": "0x608060405234801561001057600080fd5b50610d3f806100206000396000f3fe608060405234801561001057600080fd5b50600436106100b35760003560e01c806391d148541161007157806391d148541461016b578063a217fddf1461018e578063ca15c87314610196578063d547741f146101a9578063d7ccbefe146101bc578063fa2edf10146101e357600080fd5b806223de29146100b8578063248a9ca3146100cd5780632f2ff15d146100f357806336568abe1461010657806359fe7279146101195780639010d07c14610140575b600080fd5b6100cb6100c6366004610a3f565b61020a565b005b6100e06100db366004610aea565b610399565b6040519081526020015b60405180910390f35b6100cb610101366004610b03565b6103bb565b6100cb610114366004610b03565b6103dd565b6100e07f5feb4fc8353744df88c070fec2ce0b260201a0f48c15e9c30b74c6772f05987e81565b61015361014e366004610b2f565b61045b565b6040516001600160a01b0390911681526020016100ea565b61017e610179366004610b03565b610489565b60405190151581526020016100ea565b6100e0600081565b6100e06101a4366004610aea565b6104c1565b6100cb6101b7366004610b03565b6104e5565b6100e07f632cf005d591a00d863083f41da4ebaf8627023b95d6248039a4445218150dc281565b6100e07fafba2f79a991a75cf9fb7e6662fd74474d42a18ba3dd347d244fd2e438dfd95b81565b7f632cf005d591a00d863083f41da4ebaf8627023b95d6248039a4445218150dc26102358133610502565b6001600160a01b038716301461029e5760405162461bcd60e51b815260206004820152602360248201527f437265646974436f6e73756d65723a20496e76616c69642064657374696e617460448201526234b7b760e91b60648201526084015b60405180910390fd5b3360009081527f4450215f052c8f729ef154acb1b5bb971dcf3a8c302f328f6a0a91077b170fb5602081815260408084206001600160a01b038d16855290915282208054919289926102f1908490610b67565b90915550506001600160a01b038916600090815260018201602052604081208054899290610320908490610b67565b9091555050336000818152602083815260408083206001600160a01b038e1680855290835292819020548151938452918301939093528183018a9052606082015290517fee70738e4859e9b5eaba108c07f5f97459880f7d99f4af4bbbb400a529ed3db29181900360800190a150505050505050505050565b6000908152600080516020610cca833981519152602052604090206001015490565b6103c482610399565b6103ce8133610502565b6103d88383610566565b505050565b6001600160a01b038116331461044d5760405162461bcd60e51b815260206004820152602f60248201527f416363657373436f6e74726f6c3a2063616e206f6e6c792072656e6f756e636560448201526e103937b632b9903337b91039b2b63360891b6064820152608401610295565b61045782826105fd565b5050565b6000828152600080516020610cea833981519152602052604081206104809083610692565b90505b92915050565b6000918252600080516020610cca833981519152602090815260408084206001600160a01b0393909316845291905290205460ff1690565b6000818152600080516020610cea833981519152602052604081206104839061069e565b6104ee82610399565b6104f88133610502565b6103d883836105fd565b61050c8282610489565b61045757610524816001600160a01b031660146106a8565b61052f8360206106a8565b604051602001610540929190610b9e565b60408051601f198184030181529082905262461bcd60e51b825261029591600401610c13565b6105708282610489565b610457576000828152600080516020610cca833981519152602090815260408083206001600160a01b0385168085529252808320805460ff1916600117905551339285917f2f8788117e7eff1d82e926ec794901d17c78024a50270940304540a733656f0d9190a46000828152600080516020610cea833981519152602052604090206103d89082610844565b6106078282610489565b15610457576000828152600080516020610cca833981519152602090815260408083206001600160a01b0385168085529252808320805460ff1916905551339285917ff6391f5c32d9c69d2a47ea670b442974b53935d1edc7fd64eb21e047a839171b9190a46000828152600080516020610cea833981519152602052604090206103d89082610859565b6000610480838361086e565b6000610483825490565b606060006106b7836002610c46565b6106c2906002610b67565b67ffffffffffffffff8111156106da576106da610c5d565b6040519080825280601f01601f191660200182016040528015610704576020820181803683370190505b509050600360fc1b8160008151811061071f5761071f610c73565b60200101906001600160f81b031916908160001a905350600f60fb1b8160018151811061074e5761074e610c73565b60200101906001600160f81b031916908160001a9053506000610772846002610c46565b61077d906001610b67565b90505b60018111156107f5576f181899199a1a9b1b9c1cb0b131b232b360811b85600f16601081106107b1576107b1610c73565b1a60f81b8282815181106107c7576107c7610c73565b60200101906001600160f81b031916908160001a90535060049490941c936107ee81610c89565b9050610780565b5083156104805760405162461bcd60e51b815260206004820181905260248201527f537472696e67733a20686578206c656e67746820696e73756666696369656e746044820152606401610295565b6000610480836001600160a01b038416610898565b6000610480836001600160a01b0384166108e7565b600082600001828154811061088557610885610c73565b9060005260206000200154905092915050565b60008181526001830160205260408120546108df57508154600181810184556000848152602080822090930184905584548482528286019093526040902091909155610483565b506000610483565b600081815260018301602052604081205480156109d057600061090b600183610ca0565b855490915060009061091f90600190610ca0565b905081811461098457600086600001828154811061093f5761093f610c73565b906000526020600020015490508087600001848154811061096257610962610c73565b6000918252602080832090910192909255918252600188019052604090208390555b855486908061099557610995610cb3565b600190038181906000526020600020016000905590558560010160008681526020019081526020016000206000905560019350505050610483565b6000915050610483565b80356001600160a01b03811681146109f157600080fd5b919050565b60008083601f840112610a0857600080fd5b50813567ffffffffffffffff811115610a2057600080fd5b602083019150836020828501011115610a3857600080fd5b9250929050565b60008060008060008060008060c0898b031215610a5b57600080fd5b610a64896109da565b9750610a7260208a016109da565b9650610a8060408a016109da565b955060608901359450608089013567ffffffffffffffff80821115610aa457600080fd5b610ab08c838d016109f6565b909650945060a08b0135915080821115610ac957600080fd5b50610ad68b828c016109f6565b999c989b5096995094979396929594505050565b600060208284031215610afc57600080fd5b5035919050565b60008060408385031215610b1657600080fd5b82359150610b26602084016109da565b90509250929050565b60008060408385031215610b4257600080fd5b50508035926020909101359150565b634e487b7160e01b600052601160045260246000fd5b8082018082111561048357610483610b51565b60005b83811015610b95578181015183820152602001610b7d565b50506000910152565b7f416363657373436f6e74726f6c3a206163636f756e7420000000000000000000815260008351610bd6816017850160208801610b7a565b7001034b99036b4b9b9b4b733903937b6329607d1b6017918401918201528351610c07816028840160208801610b7a565b01602801949350505050565b6020815260008251806020840152610c32816040850160208701610b7a565b601f01601f19169190910160400192915050565b808202811582820484141761048357610483610b51565b634e487b7160e01b600052604160045260246000fd5b634e487b7160e01b600052603260045260246000fd5b600081610c9857610c98610b51565b506000190190565b8181038181111561048357610483610b51565b634e487b7160e01b600052603160045260246000fdfe4f4f658137f4e10317e1a22624c2b114af7563a20fb2e3444ae2ac2342d457d04f4f658137f4e10317e1a22624c2b114af7563a20fb2e3444ae2ac2342d457d1a2646970667358221220ce1ba4ec7ec9f37259336e55f50f515fb318b1feaac38c3c4d6666e1bedc0e3264736f6c63430008140033",
  "devdoc": {
    "events": {
      "ReceivedTokens(address,address,uint256,uint256)": {
        "params": {
          "amount": "Amount of tokens transferred to this contract",
          "tokenAddress": "Address of the ERC777 contract used",
          "totalTokensDeposited": "Total amount of tokens deposited by the user",
          "userAddress": "Public address of the user depositing"
        }
      }
    },
    "kind": "dev",
    "methods": {
      "tokensReceived(address,address,address,uint256,bytes,bytes)": {
        "details": "This is our deposit mechanism",
        "params": {
          "amount": "The number of tokens sent",
          "from": "The owner of the tokens",
          "operator": "The ERC777 operator calling the send() function",
          "operatorData": "bytes sent from the operator",
          "to": "The recipient of the tokens",
          "userData": "bytes sent from the send call"
        }
      }
    },
    "title": "Deposit logic for the credit system",
    "version": 1
  },
  "userdoc": {
    "events": {
      "ReceivedTokens(address,address,uint256,uint256)": {
        "notice": "This event stores the user that deposited tokens into the contract"
      }
    },
    "kind": "user",
    "methods": {
      "tokensReceived(address,address,address,uint256,bytes,bytes)": {
        "notice": "Function called by an ERC777 when they send tokens"
      }
    },
    "notice": "Uses the ERC777 receiver hook to trigger additional logic",
    "version": 1
  },
  "storageLayout": {
    "storage": [],
    "types": null
  }
}