{
  "address": "0x6C9Ca38fFb93756a52f0072B72eA3C6769f87892",
  "abi": [
    {
      "inputs": [
        {
          "internalType": "address",
          "name": "_diamondCut",
          "type": "address"
        }
      ],
      "stateMutability": "nonpayable",
      "type": "constructor"
    },
    {
      "inputs": [
        {
          "internalType": "address",
          "name": "_initializationContractAddress",
          "type": "address"
        },
        {
          "internalType": "bytes",
          "name": "_calldata",
          "type": "bytes"
        }
      ],
      "name": "InitializationFunctionReverted",
      "type": "error"
    },
    {
      "anonymous": false,
      "inputs": [
        {
          "components": [
            {
              "internalType": "address",
              "name": "facetAddress",
              "type": "address"
            },
            {
              "internalType": "enum IDiamondCut.FacetCutAction",
              "name": "action",
              "type": "uint8"
            },
            {
              "internalType": "bytes4[]",
              "name": "functionSelectors",
              "type": "bytes4[]"
            }
          ],
          "indexed": false,
          "internalType": "struct IDiamondCut.FacetCut[]",
          "name": "_diamondCut",
          "type": "tuple[]"
        },
        {
          "indexed": false,
          "internalType": "address",
          "name": "_init",
          "type": "address"
        },
        {
          "indexed": false,
          "internalType": "bytes",
          "name": "_calldata",
          "type": "bytes"
        }
      ],
      "name": "DiamondCut",
      "type": "event"
    },
    {
      "anonymous": false,
      "inputs": [
        {
          "indexed": true,
          "internalType": "address",
          "name": "previousOwner",
          "type": "address"
        },
        {
          "indexed": true,
          "internalType": "address",
          "name": "newOwner",
          "type": "address"
        }
      ],
      "name": "OwnershipTransferred",
      "type": "event"
    },
    {
      "anonymous": false,
      "inputs": [
        {
          "indexed": true,
          "internalType": "bytes32",
          "name": "role",
          "type": "bytes32"
        },
        {
          "indexed": true,
          "internalType": "bytes32",
          "name": "previousAdminRole",
          "type": "bytes32"
        },
        {
          "indexed": true,
          "internalType": "bytes32",
          "name": "newAdminRole",
          "type": "bytes32"
        }
      ],
      "name": "RoleAdminChanged",
      "type": "event"
    },
    {
      "anonymous": false,
      "inputs": [
        {
          "indexed": true,
          "internalType": "bytes32",
          "name": "role",
          "type": "bytes32"
        },
        {
          "indexed": true,
          "internalType": "address",
          "name": "account",
          "type": "address"
        },
        {
          "indexed": true,
          "internalType": "address",
          "name": "sender",
          "type": "address"
        }
      ],
      "name": "RoleGranted",
      "type": "event"
    },
    {
      "anonymous": false,
      "inputs": [
        {
          "indexed": true,
          "internalType": "bytes32",
          "name": "role",
          "type": "bytes32"
        },
        {
          "indexed": true,
          "internalType": "address",
          "name": "account",
          "type": "address"
        },
        {
          "indexed": true,
          "internalType": "address",
          "name": "sender",
          "type": "address"
        }
      ],
      "name": "RoleRevoked",
      "type": "event"
    },
    {
      "stateMutability": "payable",
      "type": "fallback"
    },
    {
      "inputs": [],
      "name": "ADMINISTRATOR",
      "outputs": [
        {
          "internalType": "bytes32",
          "name": "",
          "type": "bytes32"
        }
      ],
      "stateMutability": "view",
      "type": "function"
    },
    {
      "inputs": [],
      "name": "ALLOWED_ERC777",
      "outputs": [
        {
          "internalType": "bytes32",
          "name": "",
          "type": "bytes32"
        }
      ],
      "stateMutability": "view",
      "type": "function"
    },
    {
      "inputs": [],
      "name": "DEFAULT_ADMIN_ROLE",
      "outputs": [
        {
          "internalType": "bytes32",
          "name": "",
          "type": "bytes32"
        }
      ],
      "stateMutability": "view",
      "type": "function"
    },
    {
      "inputs": [],
      "name": "WITHDRAW_SIGNER",
      "outputs": [
        {
          "internalType": "bytes32",
          "name": "",
          "type": "bytes32"
        }
      ],
      "stateMutability": "view",
      "type": "function"
    },
    {
      "inputs": [
        {
          "internalType": "bytes32",
          "name": "role",
          "type": "bytes32"
        }
      ],
      "name": "getRoleAdmin",
      "outputs": [
        {
          "internalType": "bytes32",
          "name": "",
          "type": "bytes32"
        }
      ],
      "stateMutability": "view",
      "type": "function"
    },
    {
      "inputs": [
        {
          "internalType": "bytes32",
          "name": "role",
          "type": "bytes32"
        },
        {
          "internalType": "uint256",
          "name": "index",
          "type": "uint256"
        }
      ],
      "name": "getRoleMember",
      "outputs": [
        {
          "internalType": "address",
          "name": "",
          "type": "address"
        }
      ],
      "stateMutability": "view",
      "type": "function"
    },
    {
      "inputs": [
        {
          "internalType": "bytes32",
          "name": "role",
          "type": "bytes32"
        }
      ],
      "name": "getRoleMemberCount",
      "outputs": [
        {
          "internalType": "uint256",
          "name": "",
          "type": "uint256"
        }
      ],
      "stateMutability": "view",
      "type": "function"
    },
    {
      "inputs": [
        {
          "internalType": "bytes32",
          "name": "role",
          "type": "bytes32"
        },
        {
          "internalType": "address",
          "name": "account",
          "type": "address"
        }
      ],
      "name": "grantRole",
      "outputs": [],
      "stateMutability": "nonpayable",
      "type": "function"
    },
    {
      "inputs": [
        {
          "internalType": "bytes32",
          "name": "role",
          "type": "bytes32"
        },
        {
          "internalType": "address",
          "name": "account",
          "type": "address"
        }
      ],
      "name": "hasRole",
      "outputs": [
        {
          "internalType": "bool",
          "name": "",
          "type": "bool"
        }
      ],
      "stateMutability": "view",
      "type": "function"
    },
    {
      "inputs": [
        {
          "internalType": "bytes32",
          "name": "role",
          "type": "bytes32"
        },
        {
          "internalType": "address",
          "name": "account",
          "type": "address"
        }
      ],
      "name": "renounceRole",
      "outputs": [],
      "stateMutability": "nonpayable",
      "type": "function"
    },
    {
      "inputs": [
        {
          "internalType": "bytes32",
          "name": "role",
          "type": "bytes32"
        },
        {
          "internalType": "address",
          "name": "account",
          "type": "address"
        }
      ],
      "name": "revokeRole",
      "outputs": [],
      "stateMutability": "nonpayable",
      "type": "function"
    },
    {
      "stateMutability": "payable",
      "type": "receive"
    }
  ],
  "transactionHash": "0x3dcfb089eb3e2a992877303722e53832a7bdb8b9e0246fbee7d3192ab2f74b0f",
  "args": [
    "0x9f7EB740659016AC2d386c8ebE3FdAB3264a1C61"
  ],
  "numDeployments": 1,
  "solcInputHash": "31f1f7eda7046d20a8185416ef304a26",
  "bytecode": "0x60806040523480156200001157600080fd5b5060405162001f0d38038062001f0d833981016040819052620000349162000f88565b33816200004182620002b3565b604080516001808252818301909252600091816020015b60408051606080820183526000808352602083015291810191909152815260200190600190039081620000585750506040805160018082528183019092529192506000919060208083019080368337019050509050631f931c1c60e01b81600081518110620000cb57620000cb62000fb3565b6001600160e01b031990921660209283029190910182015260408051606081019091526001600160a01b03851681529081016000815260200182815250826000815181106200011e576200011e62000fb3565b60200260200101819052506200014c826000604051806020016040528060008152506200033760201b60201c565b50506040516329965a1d60e01b815230600482018190527fb281fc8c12954d22544db45de3159a39272895b169a852b314f9cc762e44c53b60248301526044820152731820a4b7618bde71dce8cdc73aab6c95905fad2492506329965a1d9150606401600060405180830381600087803b158015620001ca57600080fd5b505af1158015620001df573d6000803e3d6000fd5b505050506200020460008051602062001ec583398151915280620004c460201b60201c565b6200023f7f632cf005d591a00d863083f41da4ebaf8627023b95d6248039a4445218150dc260008051602062001ec5833981519152620004c4565b6200026960008051602062001ea583398151915260008051602062001ec5833981519152620004c4565b620002766000336200051d565b6200029160008051602062001ec5833981519152336200051d565b620002ac60008051602062001ea5833981519152336200051d565b5062001217565b7fc8fcad8db84d3cc18b4c41d551ea0ee66dd599cde068d998e57d5e09332c132080546001600160a01b031981166001600160a01b0384811691821790935560405160008051602062001e19833981519152939092169182907f8be0079c531659141344cd1fd0a4f28419497f9722a3daafe3b4186f6b6457e090600090a3505050565b7fc8fcad8db84d3cc18b4c41d551ea0ee66dd599cde068d998e57d5e09332c131e5460008051602062001e198339815191529061ffff811690819060009060071615620003965750600381901c60009081526001840160205260409020545b60005b875181101562000432576200041883838a8481518110620003be57620003be62000fb3565b6020026020010151600001518b8581518110620003df57620003df62000fb3565b6020026020010151602001518c868151811062000400576200040062000fb3565b602002602001015160400151620005d260201b60201c565b909350915080620004298162000ff5565b91505062000399565b508282146200044f5760028401805461ffff191661ffff84161790555b60078216156200047257600382901c600090815260018501602052604090208190555b7f8faa70878671ccd212d20771b795c50af8fd3ff6cf27f4bde57e5d4de0aeb673878787604051620004a79392919062001065565b60405180910390a1620004bb868662000de1565b50505050505050565b600082815260008051602062001e398339815191526020526040808220600101805490849055905190918391839186917fbd79b86ffe0ab8e8776151514217cd7cacd52c909f66475c3af44e129f0b00ff9190a4505050565b62000529828262000eb9565b620005ce57600082815260008051602062001e39833981519152602090815260408083206001600160a01b0385168085529252808320805460ff1916600117905551339285917f2f8788117e7eff1d82e926ec794901d17c78024a50270940304540a733656f0d9190a460008281527f4f4f658137f4e10317e1a22624c2b114af7563a20fb2e3444ae2ac2342d457d160205260409020620005cc908262000ef4565b505b5050565b6000808060008051602062001e1983398151915290506000845111620006535760405162461bcd60e51b815260206004820152602b60248201527f4c69624469616d6f6e644375743a204e6f2073656c6563746f727320696e206660448201526a1858d95d081d1bc818dd5d60aa1b60648201526084015b60405180910390fd5b60008560028111156200066a576200066a62000fc9565b03620007f057620006958660405180606001604052806024815260200162001e596024913962000f12565b60005b8451811015620007e9576000858281518110620006b957620006b962000fb3565b6020908102919091018101516001600160e01b03198116600090815291859052604090912054909150606081901c156200075c5760405162461bcd60e51b815260206004820152603560248201527f4c69624469616d6f6e644375743a2043616e2774206164642066756e6374696f60448201527f6e207468617420616c726561647920657869737473000000000000000000000060648201526084016200064a565b6001600160e01b031980831660008181526020879052604090206001600160601b031960608d901b168e17905560e060058e901b811692831c199c909c1690821c179a819003620007c15760038c901c600090815260018601602052604081209b909b555b8b620007cd8162000ff5565b9c50505050508080620007e09062000ff5565b91505062000698565b5062000dd5565b600185600281111562000807576200080762000fc9565b0362000a2057620008328660405180606001604052806028815260200162001ee56028913962000f12565b60005b8451811015620007e957600085828151811062000856576200085662000fb3565b6020908102919091018101516001600160e01b03198116600090815291859052604090912054909150606081901c308103620008ed5760405162461bcd60e51b815260206004820152602f60248201527f4c69624469616d6f6e644375743a2043616e2774207265706c61636520696d6d60448201526e3aba30b1363290333ab731ba34b7b760891b60648201526084016200064a565b896001600160a01b0316816001600160a01b031603620009655760405162461bcd60e51b8152602060048201526038602482015260008051602062001df983398151915260448201527f6374696f6e20776974682073616d652066756e6374696f6e000000000000000060648201526084016200064a565b6001600160a01b038116620009d25760405162461bcd60e51b8152602060048201526038602482015260008051602062001df983398151915260448201527f6374696f6e207468617420646f65736e2774206578697374000000000000000060648201526084016200064a565b506001600160e01b031990911660009081526020849052604090206001600160601b03919091166001600160601b031960608a901b161790558062000a178162000ff5565b91505062000835565b600285600281111562000a375762000a3762000fc9565b0362000d7c576001600160a01b0386161562000abc5760405162461bcd60e51b815260206004820152603660248201527f4c69624469616d6f6e644375743a2052656d6f7665206661636574206164647260448201527f657373206d75737420626520616464726573732830290000000000000000000060648201526084016200064a565b600388901c6007891660005b865181101562000d575760008a900362000b09578262000ae8816200116c565b60008181526001870160205260409020549b5093506007925062000b199050565b8162000b15816200116c565b9250505b6000806000808a858151811062000b345762000b3462000fb3565b6020908102919091018101516001600160e01b031981166000908152918a9052604090912054909150606081901c62000bd65760405162461bcd60e51b815260206004820152603760248201527f4c69624469616d6f6e644375743a2043616e27742072656d6f76652066756e6360448201527f74696f6e207468617420646f65736e277420657869737400000000000000000060648201526084016200064a565b30606082901c0362000c425760405162461bcd60e51b815260206004820152602e60248201527f4c69624469616d6f6e644375743a2043616e27742072656d6f766520696d6d7560448201526d3a30b1363290333ab731ba34b7b760911b60648201526084016200064a565b600587901b8f901b94506001600160e01b03198086169083161462000c94576001600160e01b03198516600090815260208a90526040902080546001600160601b0319166001600160601b0383161790555b6001600160e01b031991909116600090815260208990526040812055600381901c611fff16925060051b60e016905085821462000cfb576000828152600188016020526040902080546001600160e01b031980841c19909116908516831c17905562000d1f565b80836001600160e01b031916901c816001600160e01b031960001b901c198e16179c505b8460000362000d3e57600086815260018801602052604081208190559c505b505050808062000d4e9062000ff5565b91505062000ac8565b508062000d6683600862001186565b62000d729190620011a0565b9950505062000dd5565b60405162461bcd60e51b815260206004820152602760248201527f4c69624469616d6f6e644375743a20496e636f727265637420466163657443756044820152663a20b1ba34b7b760c91b60648201526084016200064a565b50959694955050505050565b6001600160a01b03821662000df4575050565b62000e198260405180606001604052806028815260200162001e7d6028913962000f12565b600080836001600160a01b03168360405162000e369190620011b6565b600060405180830381855af49150503d806000811462000e73576040519150601f19603f3d011682016040523d82523d6000602084013e62000e78565b606091505b50915091508162000eb35780511562000e945780518082602001fd5b838360405163192105d760e01b81526004016200064a929190620011d4565b50505050565b600082815260008051602062001e39833981519152602090815260408083206001600160a01b038516845290915290205460ff165b92915050565b600062000f0b836001600160a01b03841662000f36565b9392505050565b813b818162000eb35760405162461bcd60e51b81526004016200064a919062001202565b600081815260018301602052604081205462000f7f5750815460018181018455600084815260208082209093018490558454848252828601909352604090209190915562000eee565b50600062000eee565b60006020828403121562000f9b57600080fd5b81516001600160a01b038116811462000f0b57600080fd5b634e487b7160e01b600052603260045260246000fd5b634e487b7160e01b600052602160045260246000fd5b634e487b7160e01b600052601160045260246000fd5b6000600182016200100a576200100a62000fdf565b5060010190565b60005b838110156200102e57818101518382015260200162001014565b50506000910152565b600081518084526200105181602086016020860162001011565b601f01601f19169290920160200192915050565b60006060808301818452808751808352608092508286019150828160051b8701016020808b0160005b848110156200113a57898403607f19018652815180516001600160a01b03168552838101518986019060038110620010d657634e487b7160e01b600052602160045260246000fd5b868601526040918201519186018a905281519081905290840190600090898701905b80831015620011245783516001600160e01b0319168252928601926001929092019190860190620010f8565b509785019795505050908201906001016200108e565b50506001600160a01b038a169088015286810360408801526200115e818962001037565b9a9950505050505050505050565b6000816200117e576200117e62000fdf565b506000190190565b808202811582820484141762000eee5762000eee62000fdf565b8082018082111562000eee5762000eee62000fdf565b60008251620011ca81846020870162001011565b9190910192915050565b6001600160a01b0383168152604060208201819052600090620011fa9083018462001037565b949350505050565b60208152600062000f0b602083018462001037565b610bd280620012276000396000f3fe6080604052600436106100a05760003560e01c806391d148541161006457806391d148541461023f578063a217fddf1461026f578063ca15c87314610284578063d547741f146102a4578063d7ccbefe146102c4578063fa2edf10146102f8576100a7565b8063248a9ca3146101605780632f2ff15d1461019357806336568abe146101b357806359fe7279146101d35780639010d07c14610207576100a7565b366100a757005b600080356001600160e01b03191681527fc8fcad8db84d3cc18b4c41d551ea0ee66dd599cde068d998e57d5e09332c131c6020819052604090912054819060601c8061013a5760405162461bcd60e51b815260206004820181905260248201527f4469616d6f6e643a2046756e6374696f6e20646f6573206e6f7420657869737460448201526064015b60405180910390fd5b3660008037600080366000845af43d6000803e808015610159573d6000f35b3d6000fd5b005b34801561016c57600080fd5b5061018061017b36600461096d565b61032c565b6040519081526020015b60405180910390f35b34801561019f57600080fd5b5061015e6101ae366004610986565b61034e565b3480156101bf57600080fd5b5061015e6101ce366004610986565b610370565b3480156101df57600080fd5b506101807f5feb4fc8353744df88c070fec2ce0b260201a0f48c15e9c30b74c6772f05987e81565b34801561021357600080fd5b506102276102223660046109c2565b6103ee565b6040516001600160a01b03909116815260200161018a565b34801561024b57600080fd5b5061025f61025a366004610986565b61041c565b604051901515815260200161018a565b34801561027b57600080fd5b50610180600081565b34801561029057600080fd5b5061018061029f36600461096d565b610454565b3480156102b057600080fd5b5061015e6102bf366004610986565b610478565b3480156102d057600080fd5b506101807f632cf005d591a00d863083f41da4ebaf8627023b95d6248039a4445218150dc281565b34801561030457600080fd5b506101807fafba2f79a991a75cf9fb7e6662fd74474d42a18ba3dd347d244fd2e438dfd95b81565b6000908152600080516020610b5d833981519152602052604090206001015490565b6103578261032c565b6103618133610495565b61036b83836104f9565b505050565b6001600160a01b03811633146103e05760405162461bcd60e51b815260206004820152602f60248201527f416363657373436f6e74726f6c3a2063616e206f6e6c792072656e6f756e636560448201526e103937b632b9903337b91039b2b63360891b6064820152608401610131565b6103ea8282610590565b5050565b6000828152600080516020610b7d833981519152602052604081206104139083610625565b90505b92915050565b6000918252600080516020610b5d833981519152602090815260408084206001600160a01b0393909316845291905290205460ff1690565b6000818152600080516020610b7d8339815191526020526040812061041690610631565b6104818261032c565b61048b8133610495565b61036b8383610590565b61049f828261041c565b6103ea576104b7816001600160a01b0316601461063b565b6104c283602061063b565b6040516020016104d3929190610a08565b60408051601f198184030181529082905262461bcd60e51b825261013191600401610a7d565b610503828261041c565b6103ea576000828152600080516020610b5d833981519152602090815260408083206001600160a01b0385168085529252808320805460ff1916600117905551339285917f2f8788117e7eff1d82e926ec794901d17c78024a50270940304540a733656f0d9190a46000828152600080516020610b7d8339815191526020526040902061036b90826107d7565b61059a828261041c565b156103ea576000828152600080516020610b5d833981519152602090815260408083206001600160a01b0385168085529252808320805460ff1916905551339285917ff6391f5c32d9c69d2a47ea670b442974b53935d1edc7fd64eb21e047a839171b9190a46000828152600080516020610b7d8339815191526020526040902061036b90826107ec565b60006104138383610801565b6000610416825490565b6060600061064a836002610ac6565b610655906002610add565b67ffffffffffffffff81111561066d5761066d610af0565b6040519080825280601f01601f191660200182016040528015610697576020820181803683370190505b509050600360fc1b816000815181106106b2576106b2610b06565b60200101906001600160f81b031916908160001a905350600f60fb1b816001815181106106e1576106e1610b06565b60200101906001600160f81b031916908160001a9053506000610705846002610ac6565b610710906001610add565b90505b6001811115610788576f181899199a1a9b1b9c1cb0b131b232b360811b85600f166010811061074457610744610b06565b1a60f81b82828151811061075a5761075a610b06565b60200101906001600160f81b031916908160001a90535060049490941c9361078181610b1c565b9050610713565b5083156104135760405162461bcd60e51b815260206004820181905260248201527f537472696e67733a20686578206c656e67746820696e73756666696369656e746044820152606401610131565b6000610413836001600160a01b03841661082b565b6000610413836001600160a01b03841661087a565b600082600001828154811061081857610818610b06565b9060005260206000200154905092915050565b600081815260018301602052604081205461087257508154600181810184556000848152602080822090930184905584548482528286019093526040902091909155610416565b506000610416565b6000818152600183016020526040812054801561096357600061089e600183610b33565b85549091506000906108b290600190610b33565b90508181146109175760008660000182815481106108d2576108d2610b06565b90600052602060002001549050808760000184815481106108f5576108f5610b06565b6000918252602080832090910192909255918252600188019052604090208390555b855486908061092857610928610b46565b600190038181906000526020600020016000905590558560010160008681526020019081526020016000206000905560019350505050610416565b6000915050610416565b60006020828403121561097f57600080fd5b5035919050565b6000806040838503121561099957600080fd5b8235915060208301356001600160a01b03811681146109b757600080fd5b809150509250929050565b600080604083850312156109d557600080fd5b50508035926020909101359150565b60005b838110156109ff5781810151838201526020016109e7565b50506000910152565b7f416363657373436f6e74726f6c3a206163636f756e7420000000000000000000815260008351610a408160178501602088016109e4565b7001034b99036b4b9b9b4b733903937b6329607d1b6017918401918201528351610a718160288401602088016109e4565b01602801949350505050565b6020815260008251806020840152610a9c8160408501602087016109e4565b601f01601f19169190910160400192915050565b634e487b7160e01b600052601160045260246000fd5b808202811582820484141761041657610416610ab0565b8082018082111561041657610416610ab0565b634e487b7160e01b600052604160045260246000fd5b634e487b7160e01b600052603260045260246000fd5b600081610b2b57610b2b610ab0565b506000190190565b8181038181111561041657610416610ab0565b634e487b7160e01b600052603160045260246000fdfe4f4f658137f4e10317e1a22624c2b114af7563a20fb2e3444ae2ac2342d457d04f4f658137f4e10317e1a22624c2b114af7563a20fb2e3444ae2ac2342d457d1a26469706673582212206fa0cf0c855e70ae995e0f2b91df7eebb461ad98efe3596086a895ceb7abe75e64736f6c634300081400334c69624469616d6f6e644375743a2043616e2774207265706c6163652066756ec8fcad8db84d3cc18b4c41d551ea0ee66dd599cde068d998e57d5e09332c131c4f4f658137f4e10317e1a22624c2b114af7563a20fb2e3444ae2ac2342d457d04c69624469616d6f6e644375743a2041646420666163657420686173206e6f20636f64654c69624469616d6f6e644375743a205f696e6974206164647265737320686173206e6f20636f6465afba2f79a991a75cf9fb7e6662fd74474d42a18ba3dd347d244fd2e438dfd95b5feb4fc8353744df88c070fec2ce0b260201a0f48c15e9c30b74c6772f05987e4c69624469616d6f6e644375743a205265706c61636520666163657420686173206e6f20636f6465",
  "devdoc": {
    "kind": "dev",
    "methods": {},
    "version": 1
  },
  "userdoc": {
    "kind": "user",
    "methods": {},
    "version": 1
  },
  "storageLayout": {
    "storage": [],
    "types": null
  }
}