{
  "address": "0xB1A91Ba11B92502848c1684517a2806100c6d3C0",
  "abi": [
    {
      "anonymous": false,
      "inputs": [
        {
          "indexed": false,
          "internalType": "address",
          "name": "deployerAddress",
          "type": "address"
        },
        {
          "indexed": false,
          "internalType": "uint256",
          "name": "deploymentIndex",
          "type": "uint256"
        },
        {
          "indexed": false,
          "internalType": "address",
          "name": "deploymentAddress",
          "type": "address"
        },
        {
          "indexed": false,
          "internalType": "string",
          "name": "deploymentName",
          "type": "string"
        }
      ],
      "name": "DeployedContract",
      "type": "event"
    },
    {
      "anonymous": false,
      "inputs": [
        {
          "indexed": true,
          "internalType": "bytes32",
          "name": "role",
          "type": "bytes32"
        },
        {
          "indexed": true,
          "internalType": "bytes32",
          "name": "previousAdminRole",
          "type": "bytes32"
        },
        {
          "indexed": true,
          "internalType": "bytes32",
          "name": "newAdminRole",
          "type": "bytes32"
        }
      ],
      "name": "RoleAdminChanged",
      "type": "event"
    },
    {
      "anonymous": false,
      "inputs": [
        {
          "indexed": true,
          "internalType": "bytes32",
          "name": "role",
          "type": "bytes32"
        },
        {
          "indexed": true,
          "internalType": "address",
          "name": "account",
          "type": "address"
        },
        {
          "indexed": true,
          "internalType": "address",
          "name": "sender",
          "type": "address"
        }
      ],
      "name": "RoleGranted",
      "type": "event"
    },
    {
      "anonymous": false,
      "inputs": [
        {
          "indexed": true,
          "internalType": "bytes32",
          "name": "role",
          "type": "bytes32"
        },
        {
          "indexed": true,
          "internalType": "address",
          "name": "account",
          "type": "address"
        },
        {
          "indexed": true,
          "internalType": "address",
          "name": "sender",
          "type": "address"
        }
      ],
      "name": "RoleRevoked",
      "type": "event"
    },
    {
      "inputs": [
        {
          "internalType": "bytes32",
          "name": "role",
          "type": "bytes32"
        }
      ],
      "name": "getRoleAdmin",
      "outputs": [
        {
          "internalType": "bytes32",
          "name": "",
          "type": "bytes32"
        }
      ],
      "stateMutability": "view",
      "type": "function"
    },
    {
      "inputs": [
        {
          "internalType": "bytes32",
          "name": "role",
          "type": "bytes32"
        },
        {
          "internalType": "uint256",
          "name": "index",
          "type": "uint256"
        }
      ],
      "name": "getRoleMember",
      "outputs": [
        {
          "internalType": "address",
          "name": "",
          "type": "address"
        }
      ],
      "stateMutability": "view",
      "type": "function"
    },
    {
      "inputs": [
        {
          "internalType": "bytes32",
          "name": "role",
          "type": "bytes32"
        }
      ],
      "name": "getRoleMemberCount",
      "outputs": [
        {
          "internalType": "uint256",
          "name": "",
          "type": "uint256"
        }
      ],
      "stateMutability": "view",
      "type": "function"
    },
    {
      "inputs": [
        {
          "internalType": "bytes32",
          "name": "role",
          "type": "bytes32"
        },
        {
          "internalType": "address",
          "name": "account",
          "type": "address"
        }
      ],
      "name": "grantRole",
      "outputs": [],
      "stateMutability": "nonpayable",
      "type": "function"
    },
    {
      "inputs": [
        {
          "internalType": "bytes32",
          "name": "role",
          "type": "bytes32"
        },
        {
          "internalType": "address",
          "name": "account",
          "type": "address"
        }
      ],
      "name": "hasRole",
      "outputs": [
        {
          "internalType": "bool",
          "name": "",
          "type": "bool"
        }
      ],
      "stateMutability": "view",
      "type": "function"
    },
    {
      "inputs": [
        {
          "internalType": "bytes32",
          "name": "role",
          "type": "bytes32"
        },
        {
          "internalType": "address",
          "name": "account",
          "type": "address"
        }
      ],
      "name": "renounceRole",
      "outputs": [],
      "stateMutability": "nonpayable",
      "type": "function"
    },
    {
      "inputs": [
        {
          "internalType": "bytes32",
          "name": "role",
          "type": "bytes32"
        },
        {
          "internalType": "address",
          "name": "account",
          "type": "address"
        }
      ],
      "name": "revokeRole",
      "outputs": [],
      "stateMutability": "nonpayable",
      "type": "function"
    },
    {
      "inputs": [
        {
          "internalType": "address",
          "name": "operator",
          "type": "address"
        },
        {
          "internalType": "address",
          "name": "from",
          "type": "address"
        },
        {
          "internalType": "address",
          "name": "to",
          "type": "address"
        },
        {
          "internalType": "uint256",
          "name": "amount",
          "type": "uint256"
        },
        {
          "internalType": "bytes",
          "name": "userData",
          "type": "bytes"
        },
        {
          "internalType": "bytes",
          "name": "operatorData",
          "type": "bytes"
        }
      ],
      "name": "tokensReceived",
      "outputs": [],
      "stateMutability": "nonpayable",
      "type": "function"
    }
  ],
  "transactionHash": "0x1bb6f805fc61c2cf718e781ee14ac3e16f821ba30919b559578e208119464cf5",
  "args": [],
  "numDeployments": 1,
  "solcInputHash": "879d7dc614fda1753afdda4cb397ed7d",
  "bytecode": "0x608060405234801561001057600080fd5b506121c5806100206000396000f3fe60806040523480156200001157600080fd5b5060043610620000925760003560e01c80639010d07c11620000625780639010d07c146200011757806391d148541462000147578063ca15c873146200016f578063d547741f146200018657600080fd5b806223de291462000097578063248a9ca314620000b05780632f2ff15d14620000e957806336568abe1462000100575b600080fd5b620000ae620000a836600462000b66565b6200019d565b005b620000d6620000c136600462000c1e565b60009081526020819052604090206001015490565b6040519081526020015b60405180910390f35b620000ae620000fa36600462000c38565b620004a0565b620000ae6200011136600462000c38565b620004cf565b6200012e6200012836600462000c67565b62000551565b6040516001600160a01b039091168152602001620000e0565b6200015e6200015836600462000c38565b62000574565b6040519015158152602001620000e0565b620000d66200018036600462000c1e565b6200059d565b620000ae6200019736600462000c38565b620005b6565b7fe33cd123f09d9a4e3b34162dcaba99ee0b73fe748beb8ca15f84a66b0c147230620001ca8133620005e0565b33600090815260066020526040812054871015620002555760405162461bcd60e51b815260206004820152603960248201527f5241495220466163746f72793a206e6f7420656e6f756768205241495220746f60448201527f6b656e7320746f206465706c6f79206120636f6e74726163740000000000000060648201526084015b60405180910390fd5b33600090815260068201602052604081205462000273908962000ca0565b11156200031157336000818152600683016020526040902054639bd9bbc6908b90620002a0908b62000ca0565b6040805180820182526004808252632920a4a960e11b602083015291516001600160e01b031960e087901b168152620002dc9493920162000d0a565b600060405180830381600087803b158015620002f757600080fd5b505af11580156200030c573d6000803e3d6000fd5b505050505b6001600160a01b0389166000908152600482016020526040812080549091036200036657600382018054600181018255600091825260209091200180546001600160a01b0319166001600160a01b038c161790555b600087878c6175306040516200037c9062000aef565b6200038b949392919062000d65565b604051809103906000f080158015620003a8573d6000803e3d6000fd5b50905081819080600181540180825580915050600190039060005260206000200160009091909190916101000a8154816001600160a01b0302191690836001600160a01b031602179055508a836005016000836001600160a01b03166001600160a01b0316815260200190815260200160002060006101000a8154816001600160a01b0302191690836001600160a01b031602179055507fb1bf8414d7fb85ef593239c1db589dffe8753ca97f373e492a269ec8c1e975538b6001848054905062000474919062000ca0565b838b8b6040516200048a95949392919062000da0565b60405180910390a1505050505050505050505050565b600082815260208190526040902060010154620004be8133620005e0565b620004ca83836200064f565b505050565b6001600160a01b0381163314620005415760405162461bcd60e51b815260206004820152602f60248201527f416363657373436f6e74726f6c3a2063616e206f6e6c792072656e6f756e636560448201526e103937b632b9903337b91039b2b63360891b60648201526084016200024c565b6200054d8282620006ed565b5050565b60008281526002602052604081206200056b90836200076b565b90505b92915050565b6000918252602082815260408084206001600160a01b0393909316845291905290205460ff1690565b60008181526002602052604081206200056e9062000779565b600082815260208190526040902060010154620005d48133620005e0565b620004ca8383620006ed565b620005ec828262000574565b6200054d5762000607816001600160a01b0316601462000784565b6200061483602062000784565b6040516020016200062792919062000de1565b60408051601f198184030181529082905262461bcd60e51b82526200024c9160040162000e5a565b6200065b828262000574565b6200054d576000828152602081815260408083206001600160a01b03851684529091529020805460ff19166001179055620006933390565b6001600160a01b0316816001600160a01b0316837f2f8788117e7eff1d82e926ec794901d17c78024a50270940304540a733656f0d60405160405180910390a46000828152600260205260409020620004ca90826200093e565b620006f9828262000574565b156200054d576000828152602081815260408083206001600160a01b0385168085529252808320805460ff1916905551339285917ff6391f5c32d9c69d2a47ea670b442974b53935d1edc7fd64eb21e047a839171b9190a46000828152600260205260409020620004ca908262000955565b60006200056b83836200096c565b60006200056e825490565b606060006200079583600262000e6f565b620007a290600262000e89565b67ffffffffffffffff811115620007bd57620007bd62000e9f565b6040519080825280601f01601f191660200182016040528015620007e8576020820181803683370190505b509050600360fc1b8160008151811062000806576200080662000eb5565b60200101906001600160f81b031916908160001a905350600f60fb1b8160018151811062000838576200083862000eb5565b60200101906001600160f81b031916908160001a90535060006200085e84600262000e6f565b6200086b90600162000e89565b90505b6001811115620008ed576f181899199a1a9b1b9c1cb0b131b232b360811b85600f1660108110620008a357620008a362000eb5565b1a60f81b828281518110620008bc57620008bc62000eb5565b60200101906001600160f81b031916908160001a90535060049490941c93620008e58162000ecb565b90506200086e565b5083156200056b5760405162461bcd60e51b815260206004820181905260248201527f537472696e67733a20686578206c656e67746820696e73756666696369656e7460448201526064016200024c565b60006200056b836001600160a01b03841662000999565b60006200056b836001600160a01b038416620009eb565b600082600001828154811062000986576200098662000eb5565b9060005260206000200154905092915050565b6000818152600183016020526040812054620009e2575081546001818101845560008481526020808220909301849055845484825282860190935260409020919091556200056e565b5060006200056e565b6000818152600183016020526040812054801562000ae457600062000a1260018362000ca0565b855490915060009062000a289060019062000ca0565b905081811462000a9457600086600001828154811062000a4c5762000a4c62000eb5565b906000526020600020015490508087600001848154811062000a725762000a7262000eb5565b6000918252602080832090910192909255918252600188019052604090208390555b855486908062000aa85762000aa862000ee5565b6001900381819060005260206000200160009055905585600101600086815260200190815260200160002060009055600193505050506200056e565b60009150506200056e565b6112948062000efc83390190565b80356001600160a01b038116811462000b1557600080fd5b919050565b60008083601f84011262000b2d57600080fd5b50813567ffffffffffffffff81111562000b4657600080fd5b60208301915083602082850101111562000b5f57600080fd5b9250929050565b60008060008060008060008060c0898b03121562000b8357600080fd5b62000b8e8962000afd565b975062000b9e60208a0162000afd565b965062000bae60408a0162000afd565b955060608901359450608089013567ffffffffffffffff8082111562000bd357600080fd5b62000be18c838d0162000b1a565b909650945060a08b013591508082111562000bfb57600080fd5b5062000c0a8b828c0162000b1a565b999c989b5096995094979396929594505050565b60006020828403121562000c3157600080fd5b5035919050565b6000806040838503121562000c4c57600080fd5b8235915062000c5e6020840162000afd565b90509250929050565b6000806040838503121562000c7b57600080fd5b50508035926020909101359150565b634e487b7160e01b600052601160045260246000fd5b818103818111156200056e576200056e62000c8a565b60005b8381101562000cd357818101518382015260200162000cb9565b50506000910152565b6000815180845262000cf681602086016020860162000cb6565b601f01601f19169290920160200192915050565b60018060a01b038416815282602082015260606040820152600062000d33606083018462000cdc565b95945050505050565b81835281816020850137506000828201602090810191909152601f909101601f19169091010190565b60608152600062000d7b60608301868862000d3c565b6001600160a01b039490941660208301525061ffff9190911660409091015292915050565b6001600160a01b038681168252602082018690528416604082015260806060820181905260009062000dd6908301848662000d3c565b979650505050505050565b7f416363657373436f6e74726f6c3a206163636f756e742000000000000000000081526000835162000e1b81601785016020880162000cb6565b7001034b99036b4b9b9b4b733903937b6329607d1b601791840191820152835162000e4e81602884016020880162000cb6565b01602801949350505050565b6020815260006200056b602083018462000cdc565b80820281158282048414176200056e576200056e62000c8a565b808201808211156200056e576200056e62000c8a565b634e487b7160e01b600052604160045260246000fd5b634e487b7160e01b600052603260045260246000fd5b60008162000edd5762000edd62000c8a565b506000190190565b634e487b7160e01b600052603160045260246000fdfe60806040523480156200001157600080fd5b506040516200129438038062001294833981016040819052620000349162000316565b60006200004284826200049e565b506040805180820190915260048152632920a4a960e11b60208201526001906200006d90826200049e565b50600d80546001600160b01b0319163361ffff60a01b191617600160a01b61ffff841602179055620000be600080516020620012548339815191526000805160206200123483398151915262000142565b620000e8600080516020620012748339815191526000805160206200123483398151915262000142565b6200010360008051602062001234833981519152836200018d565b6200011e60008051602062001254833981519152836200018d565b6200013960008051602062001274833981519152836200018d565b5050506200056a565b6000828152600a6020526040808220600101805490849055905190918391839186917fbd79b86ffe0ab8e8776151514217cd7cacd52c909f66475c3af44e129f0b00ff9190a4505050565b62000199828262000233565b6200022f576000828152600a602090815260408083206001600160a01b03851684529091529020805460ff19166001179055620001d33390565b6001600160a01b0316816001600160a01b0316837f2f8788117e7eff1d82e926ec794901d17c78024a50270940304540a733656f0d60405160405180910390a46000828152600b602052604090206200022d908262000260565b505b5050565b6000828152600a602090815260408083206001600160a01b038516845290915290205460ff165b92915050565b600062000277836001600160a01b0384166200027e565b9392505050565b6000818152600183016020526040812054620002c7575081546001818101845560008481526020808220909301849055845484825282860190935260409020919091556200025a565b5060006200025a565b634e487b7160e01b600052604160045260246000fd5b80516001600160a01b0381168114620002fe57600080fd5b919050565b805161ffff81168114620002fe57600080fd5b6000806000606084860312156200032c57600080fd5b83516001600160401b03808211156200034457600080fd5b818601915086601f8301126200035957600080fd5b8151818111156200036e576200036e620002d0565b604051601f8201601f19908116603f01168101908382118183101715620003995762000399620002d0565b81604052828152602093508984848701011115620003b657600080fd5b600091505b82821015620003da5784820184015181830185015290830190620003bb565b6000848483010152809750505050620003f5818701620002e6565b93505050620004076040850162000303565b90509250925092565b600181811c908216806200042557607f821691505b6020821081036200044657634e487b7160e01b600052602260045260246000fd5b50919050565b601f8211156200022d57600081815260208120601f850160051c81016020861015620004755750805b601f850160051c820191505b81811015620004965782815560010162000481565b505050505050565b81516001600160401b03811115620004ba57620004ba620002d0565b620004d281620004cb845462000410565b846200044c565b602080601f8311600181146200050a5760008415620004f15750858301515b600019600386901b1c1916600185901b17855562000496565b600085815260208120601f198616915b828110156200053b578886015182559484019460019091019084016200051a565b50858210156200055a5787850151600019600388901b60f8161c191681555b5050505050600190811b01905550565b610cba806200057a6000396000f3fe608060405234801561001057600080fd5b50600436106100ea5760003560e01c8063a217fddf1161008c578063d547741f11610066578063d547741f1461029a578063e4fbb609146102ad578063e8a3d485146102d4578063fe6d8124146102e9576100ea565b8063a217fddf1461026e578063a9c2e36c14610276578063ca15c87314610287576100ea565b80632f2ff15d116100c85780632f2ff15d1461020a57806336568abe1461021d5780639010d07c1461023057806391d148541461025b576100ea565b806301ffc9a71461018a578063175c4ef8146101b2578063248a9ca3146101e7575b600d546040516366ffd66360e11b8152600080356001600160e01b0319166004830152916001600160a01b03169063cdffacc690602401602060405180830381865afa15801561013e573d6000803e3d6000fd5b505050506040513d601f19601f820116820180604052508101906101629190610a20565b90503660008037600080366000845af43d6000803e808015610183573d6000f35b3d6000fd5b005b61019d610198366004610a3d565b610310565b60405190151581526020015b60405180910390f35b6101d97f872340a532bdd7bb02bea115c1b0f1ba87eac982f5b79b51ac189ffaac1b6fce81565b6040519081526020016101a9565b6101d96101f5366004610a67565b6000908152600a602052604090206001015490565b610188610218366004610a80565b61037d565b61018861022b366004610a80565b6103a8565b61024361023e366004610ab0565b61042b565b6040516001600160a01b0390911681526020016101a9565b61019d610269366004610a80565b61044a565b6101d9600081565b600d546001600160a01b0316610243565b6101d9610295366004610a67565b610475565b6101886102a8366004610a80565b61048c565b6101d97f3c2519c4487d47714872f92cf90a50c25f5deaec2789dc2a497b1272df611db681565b6102dc6104b2565b6040516101a99190610af6565b6101d97ff0887ba65ee2024ea881d91b74c2450ef19e1557f03bed3ea9f16b037cbe2dc981565b60006001600160e01b031982166380ac58cd60e01b148061034157506001600160e01b03198216635b5e139f60e01b145b8061035c57506001600160e01b0319821663780e9d6360e01b145b8061037757506301ffc9a760e01b6001600160e01b03198316145b92915050565b6000828152600a60205260409020600101546103998133610547565b6103a383836105ab565b505050565b6001600160a01b038116331461041d5760405162461bcd60e51b815260206004820152602f60248201527f416363657373436f6e74726f6c3a2063616e206f6e6c792072656e6f756e636560448201526e103937b632b9903337b91039b2b63360891b60648201526084015b60405180910390fd5b6104278282610645565b5050565b6000828152600b6020526040812061044390836106c0565b9392505050565b6000918252600a602090815260408084206001600160a01b0393909316845291905290205460ff1690565b6000818152600b60205260408120610377906106cc565b6000828152600a60205260409020600101546104a88133610547565b6103a38383610645565b6060600060170180546104c490610b29565b80601f01602080910402602001604051908101604052809291908181526020018280546104f090610b29565b801561053d5780601f106105125761010080835404028352916020019161053d565b820191906000526020600020905b81548152906001019060200180831161052057829003601f168201915b5050505050905090565b610551828261044a565b61042757610569816001600160a01b031660146106d6565b6105748360206106d6565b604051602001610585929190610b63565b60408051601f198184030181529082905262461bcd60e51b825261041491600401610af6565b6105b5828261044a565b610427576000828152600a602090815260408083206001600160a01b03851684529091529020805460ff191660011790556105ed3390565b6001600160a01b0316816001600160a01b0316837f2f8788117e7eff1d82e926ec794901d17c78024a50270940304540a733656f0d60405160405180910390a46000828152600b602052604090206103a39082610872565b61064f828261044a565b15610427576000828152600a602090815260408083206001600160a01b0385168085529252808320805460ff1916905551339285917ff6391f5c32d9c69d2a47ea670b442974b53935d1edc7fd64eb21e047a839171b9190a46000828152600b602052604090206103a39082610887565b6000610443838361089c565b6000610377825490565b606060006106e5836002610bee565b6106f0906002610c05565b67ffffffffffffffff81111561070857610708610c18565b6040519080825280601f01601f191660200182016040528015610732576020820181803683370190505b509050600360fc1b8160008151811061074d5761074d610c2e565b60200101906001600160f81b031916908160001a905350600f60fb1b8160018151811061077c5761077c610c2e565b60200101906001600160f81b031916908160001a90535060006107a0846002610bee565b6107ab906001610c05565b90505b6001811115610823576f181899199a1a9b1b9c1cb0b131b232b360811b85600f16601081106107df576107df610c2e565b1a60f81b8282815181106107f5576107f5610c2e565b60200101906001600160f81b031916908160001a90535060049490941c9361081c81610c44565b90506107ae565b5083156104435760405162461bcd60e51b815260206004820181905260248201527f537472696e67733a20686578206c656e67746820696e73756666696369656e746044820152606401610414565b6000610443836001600160a01b0384166108c6565b6000610443836001600160a01b038416610915565b60008260000182815481106108b3576108b3610c2e565b9060005260206000200154905092915050565b600081815260018301602052604081205461090d57508154600181810184556000848152602080822090930184905584548482528286019093526040902091909155610377565b506000610377565b600081815260018301602052604081205480156109fe576000610939600183610c5b565b855490915060009061094d90600190610c5b565b90508181146109b257600086600001828154811061096d5761096d610c2e565b906000526020600020015490508087600001848154811061099057610990610c2e565b6000918252602080832090910192909255918252600188019052604090208390555b85548690806109c3576109c3610c6e565b600190038181906000526020600020016000905590558560010160008681526020019081526020016000206000905560019350505050610377565b6000915050610377565b6001600160a01b0381168114610a1d57600080fd5b50565b600060208284031215610a3257600080fd5b815161044381610a08565b600060208284031215610a4f57600080fd5b81356001600160e01b03198116811461044357600080fd5b600060208284031215610a7957600080fd5b5035919050565b60008060408385031215610a9357600080fd5b823591506020830135610aa581610a08565b809150509250929050565b60008060408385031215610ac357600080fd5b50508035926020909101359150565b60005b83811015610aed578181015183820152602001610ad5565b50506000910152565b6020815260008251806020840152610b15816040850160208701610ad2565b601f01601f19169190910160400192915050565b600181811c90821680610b3d57607f821691505b602082108103610b5d57634e487b7160e01b600052602260045260246000fd5b50919050565b7f416363657373436f6e74726f6c3a206163636f756e7420000000000000000000815260008351610b9b816017850160208801610ad2565b7001034b99036b4b9b9b4b733903937b6329607d1b6017918401918201528351610bcc816028840160208801610ad2565b01602801949350505050565b634e487b7160e01b600052601160045260246000fd5b808202811582820484141761037757610377610bd8565b8082018082111561037757610377610bd8565b634e487b7160e01b600052604160045260246000fd5b634e487b7160e01b600052603260045260246000fd5b600081610c5357610c53610bd8565b506000190190565b8181038181111561037757610377610bd8565b634e487b7160e01b600052603160045260246000fdfea264697066735822122083d48c2cc5b448827c94b5419003a60a2ec379e0ed1ae2ed26ed47237b92bf7464736f6c634300081300333c2519c4487d47714872f92cf90a50c25f5deaec2789dc2a497b1272df611db6f0887ba65ee2024ea881d91b74c2450ef19e1557f03bed3ea9f16b037cbe2dc9872340a532bdd7bb02bea115c1b0f1ba87eac982f5b79b51ac189ffaac1b6fcea26469706673582212207a5735e317e4fae6c6f59b129ee293495158178ecae3dfb8ad0175ce56bcaaeb64736f6c63430008130033",
  "devdoc": {
    "events": {
      "DeployedContract(address,uint256,address,string)": {
        "params": {
          "deployerAddress": "Contains the address of the deployer of the contract ",
          "deploymentAddress": "Contains the address where the contract was deployed",
          "deploymentIndex": "Contains the corresponding ID for the deployment",
          "deploymentName": "Contains the name of the deployed contract"
        }
      },
      "RoleAdminChanged(bytes32,bytes32,bytes32)": {
        "params": {
          "newAdminRole": "Contains the new admin role",
          "previousAdminRole": "Contains the previous admin role",
          "role": "Contains the admin role that we want to use "
        }
      },
      "RoleGranted(bytes32,address,address)": {
        "params": {
          "account": "Contains the account we want to add to a new role",
          "role": "Contains the admin role that we want to use ",
          "sender": "Contains the sender of the role petition"
        }
      },
      "RoleRevoked(bytes32,address,address)": {
        "params": {
          "account": "Contains the account we want to add to a new role",
          "role": "Contains the admin role that we want to use ",
          "sender": "Contains the sender of the role petition"
        }
      }
    },
    "kind": "dev",
    "methods": {
      "getRoleAdmin(bytes32)": {
        "details": "Notice that this function override the behavior ofthe getRoleAdmin function inherited from AccessControlEnumerable",
        "params": {
          "role": "Contains the role that we want to check"
        },
        "returns": {
          "_0": "bytes32 the rol that in available to change"
        }
      },
      "getRoleMember(bytes32,uint256)": {
        "details": "Notice that this function override the behavior ofthe getRoleMember function inherited from AccessControlEnumerable",
        "params": {
          "index": "Contains the position of the array that we want to verify",
          "role": "Contains an specific role to check"
        },
        "returns": {
          "_0": "address of the account with that position of the list of the selected role"
        }
      },
      "getRoleMemberCount(bytes32)": {
        "details": "Notice that this function override the behavior ofthe getRoleMemberCount function inherited from AccessControlEnumerable",
        "params": {
          "role": "Contains an specific role to check"
        },
        "returns": {
          "_0": "uint256 answer the cuantity of accounts with that role"
        }
      },
      "grantRole(bytes32,address)": {
        "params": {
          "account": "Contains the account address to use. ",
          "role": "Contains the role that we want to use "
        }
      },
      "hasRole(bytes32,address)": {
        "details": "Notice that this function override the behavior ofthe hasrole function inherited from AccessControlEnumerable",
        "params": {
          "account": "Contains the address to match with the verification ",
          "role": "Contains the role we want to verify"
        },
        "returns": {
          "_0": "bool Answer if the account has the input role or not"
        }
      },
      "renounceRole(bytes32,address)": {
        "params": {
          "account": "Contains the account address to use.    ",
          "role": "Contains the role that we want to use "
        }
      },
      "revokeRole(bytes32,address)": {
        "params": {
          "account": "Contains the account address to use. ",
          "role": "Contains the role that we want to use "
        }
      },
      "tokensReceived(address,address,address,uint256,bytes,bytes)": {
        "details": "This is our deployment mechanism for ERC721 contracts!",
        "params": {
          "amount": "The number of tokens sent",
          "from": "The owner of the tokens",
          "operator": "The ERC777 operator calling the send() function",
          "operatorData": "bytes sent from the operator",
          "to": "The recipient of the tokens",
          "userData": "bytes sent from the send call"
        }
      }
    },
    "title": "Our Facet creator for ERC777 contracts",
    "version": 1
  },
  "userdoc": {
    "events": {
      "DeployedContract(address,uint256,address,string)": {
        "notice": "This event stores in the blockchain when a new contract is deployed"
      },
      "RoleAdminChanged(bytes32,bytes32,bytes32)": {
        "notice": "This event stores in the blockchain when an admin role changes"
      },
      "RoleGranted(bytes32,address,address)": {
        "notice": "This event stores in the blockchain when a role is granted"
      },
      "RoleRevoked(bytes32,address,address)": {
        "notice": "This event stores in the blockchain when a role is revoked"
      }
    },
    "kind": "user",
    "methods": {
      "getRoleAdmin(bytes32)": {
        "notice": "Allows us to see what role is available to modify with the selected role"
      },
      "getRoleMember(bytes32,uint256)": {
        "notice": "Allow us to use an index position to verify the account that has a role"
      },
      "getRoleMemberCount(bytes32)": {
        "notice": "Allow us to know the total of members that has a role"
      },
      "grantRole(bytes32,address)": {
        "notice": "Allow an admin to asign a new role to an account"
      },
      "hasRole(bytes32,address)": {
        "notice": "This function allow us to know if an user has or not an specific role"
      },
      "renounceRole(bytes32,address)": {
        "notice": "Allow an user to quit an owned roleThe account that sends the petition needs to be the same that will renounce to a role"
      },
      "revokeRole(bytes32,address)": {
        "notice": "Allow an admin to revoke a role to an account"
      },
      "tokensReceived(address,address,address,uint256,bytes,bytes)": {
        "notice": "Function called by an ERC777 when they send tokens"
      }
    },
    "notice": "You can use this contract to deploy new ERC777 contracts",
    "version": 1
  },
  "storageLayout": {
    "storage": [
      {
        "astId": 4573,
        "contract": "contracts/Factory/facets/ERC777ReceiverFacet.sol:ERC777ReceiverFacet",
        "label": "s",
        "offset": 0,
        "slot": "0",
        "type": "t_struct(AppStorage)4552_storage"
      }
    ],
    "types": {
      "t_address": {
        "encoding": "inplace",
        "label": "address",
        "numberOfBytes": "20"
      },
      "t_array(t_address)dyn_storage": {
        "base": "t_address",
        "encoding": "dynamic_array",
        "label": "address[]",
        "numberOfBytes": "32"
      },
      "t_array(t_bytes32)dyn_storage": {
        "base": "t_bytes32",
        "encoding": "dynamic_array",
        "label": "bytes32[]",
        "numberOfBytes": "32"
      },
      "t_bool": {
        "encoding": "inplace",
        "label": "bool",
        "numberOfBytes": "1"
      },
      "t_bytes32": {
        "encoding": "inplace",
        "label": "bytes32",
        "numberOfBytes": "32"
      },
      "t_mapping(t_address,t_address)": {
        "encoding": "mapping",
        "key": "t_address",
        "label": "mapping(address => address)",
        "numberOfBytes": "32",
        "value": "t_address"
      },
      "t_mapping(t_address,t_array(t_address)dyn_storage)": {
        "encoding": "mapping",
        "key": "t_address",
        "label": "mapping(address => address[])",
        "numberOfBytes": "32",
        "value": "t_array(t_address)dyn_storage"
      },
      "t_mapping(t_address,t_bool)": {
        "encoding": "mapping",
        "key": "t_address",
        "label": "mapping(address => bool)",
        "numberOfBytes": "32",
        "value": "t_bool"
      },
      "t_mapping(t_address,t_uint256)": {
        "encoding": "mapping",
        "key": "t_address",
        "label": "mapping(address => uint256)",
        "numberOfBytes": "32",
        "value": "t_uint256"
      },
      "t_mapping(t_bytes32,t_struct(AddressSet)3640_storage)": {
        "encoding": "mapping",
        "key": "t_bytes32",
        "label": "mapping(bytes32 => struct EnumerableSet.AddressSet)",
        "numberOfBytes": "32",
        "value": "t_struct(AddressSet)3640_storage"
      },
      "t_mapping(t_bytes32,t_struct(RoleData)7394_storage)": {
        "encoding": "mapping",
        "key": "t_bytes32",
        "label": "mapping(bytes32 => struct RoleData)",
        "numberOfBytes": "32",
        "value": "t_struct(RoleData)7394_storage"
      },
      "t_mapping(t_bytes32,t_uint256)": {
        "encoding": "mapping",
        "key": "t_bytes32",
        "label": "mapping(bytes32 => uint256)",
        "numberOfBytes": "32",
        "value": "t_uint256"
      },
      "t_string_storage": {
        "encoding": "bytes",
        "label": "string",
        "numberOfBytes": "32"
      },
      "t_struct(AddressSet)3640_storage": {
        "encoding": "inplace",
        "label": "struct EnumerableSet.AddressSet",
        "members": [
          {
            "astId": 3639,
            "contract": "contracts/Factory/facets/ERC777ReceiverFacet.sol:ERC777ReceiverFacet",
            "label": "_inner",
            "offset": 0,
            "slot": "0",
            "type": "t_struct(Set)3325_storage"
          }
        ],
        "numberOfBytes": "64"
      },
      "t_struct(AppStorage)4552_storage": {
        "encoding": "inplace",
        "label": "struct AppStorage",
        "members": [
          {
            "astId": 4528,
            "contract": "contracts/Factory/facets/ERC777ReceiverFacet.sol:ERC777ReceiverFacet",
            "label": "_roles",
            "offset": 0,
            "slot": "0",
            "type": "t_mapping(t_bytes32,t_struct(RoleData)7394_storage)"
          },
          {
            "astId": 4530,
            "contract": "contracts/Factory/facets/ERC777ReceiverFacet.sol:ERC777ReceiverFacet",
            "label": "failsafe",
            "offset": 0,
            "slot": "1",
            "type": "t_string_storage"
          },
          {
            "astId": 4535,
            "contract": "contracts/Factory/facets/ERC777ReceiverFacet.sol:ERC777ReceiverFacet",
            "label": "_roleMembers",
            "offset": 0,
            "slot": "2",
            "type": "t_mapping(t_bytes32,t_struct(AddressSet)3640_storage)"
          },
          {
            "astId": 4538,
            "contract": "contracts/Factory/facets/ERC777ReceiverFacet.sol:ERC777ReceiverFacet",
            "label": "creators",
            "offset": 0,
            "slot": "3",
            "type": "t_array(t_address)dyn_storage"
          },
          {
            "astId": 4543,
            "contract": "contracts/Factory/facets/ERC777ReceiverFacet.sol:ERC777ReceiverFacet",
            "label": "creatorToContracts",
            "offset": 0,
            "slot": "4",
            "type": "t_mapping(t_address,t_array(t_address)dyn_storage)"
          },
          {
            "astId": 4547,
            "contract": "contracts/Factory/facets/ERC777ReceiverFacet.sol:ERC777ReceiverFacet",
            "label": "contractToCreator",
            "offset": 0,
            "slot": "5",
            "type": "t_mapping(t_address,t_address)"
          },
          {
            "astId": 4551,
            "contract": "contracts/Factory/facets/ERC777ReceiverFacet.sol:ERC777ReceiverFacet",
            "label": "deploymentCostForToken",
            "offset": 0,
            "slot": "6",
            "type": "t_mapping(t_address,t_uint256)"
          }
        ],
        "numberOfBytes": "224"
      },
      "t_struct(RoleData)7394_storage": {
        "encoding": "inplace",
        "label": "struct RoleData",
        "members": [
          {
            "astId": 7391,
            "contract": "contracts/Factory/facets/ERC777ReceiverFacet.sol:ERC777ReceiverFacet",
            "label": "members",
            "offset": 0,
            "slot": "0",
            "type": "t_mapping(t_address,t_bool)"
          },
          {
            "astId": 7393,
            "contract": "contracts/Factory/facets/ERC777ReceiverFacet.sol:ERC777ReceiverFacet",
            "label": "adminRole",
            "offset": 0,
            "slot": "1",
            "type": "t_bytes32"
          }
        ],
        "numberOfBytes": "64"
      },
      "t_struct(Set)3325_storage": {
        "encoding": "inplace",
        "label": "struct EnumerableSet.Set",
        "members": [
          {
            "astId": 3320,
            "contract": "contracts/Factory/facets/ERC777ReceiverFacet.sol:ERC777ReceiverFacet",
            "label": "_values",
            "offset": 0,
            "slot": "0",
            "type": "t_array(t_bytes32)dyn_storage"
          },
          {
            "astId": 3324,
            "contract": "contracts/Factory/facets/ERC777ReceiverFacet.sol:ERC777ReceiverFacet",
            "label": "_indexes",
            "offset": 0,
            "slot": "1",
            "type": "t_mapping(t_bytes32,t_uint256)"
          }
        ],
        "numberOfBytes": "64"
      },
      "t_uint256": {
        "encoding": "inplace",
        "label": "uint256",
        "numberOfBytes": "32"
      }
    }
  }
}