{
  "address": "0x0A80F05f1d75071fD4ad21d8f764DE7444A268F5",
  "abi": [
    {
      "anonymous": false,
      "inputs": [
        {
          "indexed": true,
          "internalType": "bytes32",
          "name": "role",
          "type": "bytes32"
        },
        {
          "indexed": true,
          "internalType": "bytes32",
          "name": "previousAdminRole",
          "type": "bytes32"
        },
        {
          "indexed": true,
          "internalType": "bytes32",
          "name": "newAdminRole",
          "type": "bytes32"
        }
      ],
      "name": "RoleAdminChanged",
      "type": "event"
    },
    {
      "anonymous": false,
      "inputs": [
        {
          "indexed": true,
          "internalType": "bytes32",
          "name": "role",
          "type": "bytes32"
        },
        {
          "indexed": true,
          "internalType": "address",
          "name": "account",
          "type": "address"
        },
        {
          "indexed": true,
          "internalType": "address",
          "name": "sender",
          "type": "address"
        }
      ],
      "name": "RoleGranted",
      "type": "event"
    },
    {
      "anonymous": false,
      "inputs": [
        {
          "indexed": true,
          "internalType": "bytes32",
          "name": "role",
          "type": "bytes32"
        },
        {
          "indexed": true,
          "internalType": "address",
          "name": "account",
          "type": "address"
        },
        {
          "indexed": true,
          "internalType": "address",
          "name": "sender",
          "type": "address"
        }
      ],
      "name": "RoleRevoked",
      "type": "event"
    },
    {
      "anonymous": false,
      "inputs": [
        {
          "indexed": false,
          "internalType": "uint256",
          "name": "decimals",
          "type": "uint256"
        },
        {
          "indexed": false,
          "internalType": "uint256",
          "name": "precalculatedMultiplier",
          "type": "uint256"
        }
      ],
      "name": "UpdatedDecimals",
      "type": "event"
    },
    {
      "anonymous": false,
      "inputs": [
        {
          "indexed": false,
          "internalType": "uint256",
          "name": "decimals",
          "type": "uint256"
        },
        {
          "indexed": false,
          "internalType": "uint256",
          "name": "newPercentage",
          "type": "uint256"
        }
      ],
      "name": "UpdatedNodeFee",
      "type": "event"
    },
    {
      "anonymous": false,
      "inputs": [
        {
          "indexed": false,
          "internalType": "address",
          "name": "newAddress",
          "type": "address"
        }
      ],
      "name": "UpdatedTreasuryAddress",
      "type": "event"
    },
    {
      "anonymous": false,
      "inputs": [
        {
          "indexed": false,
          "internalType": "uint256",
          "name": "decimals",
          "type": "uint256"
        },
        {
          "indexed": false,
          "internalType": "uint256",
          "name": "newPercentage",
          "type": "uint256"
        }
      ],
      "name": "UpdatedTreasuryFee",
      "type": "event"
    },
    {
      "inputs": [],
      "name": "MAINTAINER",
      "outputs": [
        {
          "internalType": "bytes32",
          "name": "",
          "type": "bytes32"
        }
      ],
      "stateMutability": "view",
      "type": "function"
    },
    {
      "inputs": [],
      "name": "getDecimals",
      "outputs": [
        {
          "internalType": "uint16",
          "name": "",
          "type": "uint16"
        }
      ],
      "stateMutability": "view",
      "type": "function"
    },
    {
      "inputs": [],
      "name": "getNodeFee",
      "outputs": [
        {
          "internalType": "uint16",
          "name": "decimals",
          "type": "uint16"
        },
        {
          "internalType": "uint256",
          "name": "nodeFee",
          "type": "uint256"
        }
      ],
      "stateMutability": "view",
      "type": "function"
    },
    {
      "inputs": [
        {
          "internalType": "bytes32",
          "name": "role",
          "type": "bytes32"
        }
      ],
      "name": "getRoleAdmin",
      "outputs": [
        {
          "internalType": "bytes32",
          "name": "",
          "type": "bytes32"
        }
      ],
      "stateMutability": "view",
      "type": "function"
    },
    {
      "inputs": [
        {
          "internalType": "bytes32",
          "name": "role",
          "type": "bytes32"
        },
        {
          "internalType": "uint256",
          "name": "index",
          "type": "uint256"
        }
      ],
      "name": "getRoleMember",
      "outputs": [
        {
          "internalType": "address",
          "name": "",
          "type": "address"
        }
      ],
      "stateMutability": "view",
      "type": "function"
    },
    {
      "inputs": [
        {
          "internalType": "bytes32",
          "name": "role",
          "type": "bytes32"
        }
      ],
      "name": "getRoleMemberCount",
      "outputs": [
        {
          "internalType": "uint256",
          "name": "",
          "type": "uint256"
        }
      ],
      "stateMutability": "view",
      "type": "function"
    },
    {
      "inputs": [],
      "name": "getTreasuryAddress",
      "outputs": [
        {
          "internalType": "address",
          "name": "",
          "type": "address"
        }
      ],
      "stateMutability": "view",
      "type": "function"
    },
    {
      "inputs": [],
      "name": "getTreasuryFee",
      "outputs": [
        {
          "internalType": "uint16",
          "name": "decimals",
          "type": "uint16"
        },
        {
          "internalType": "uint256",
          "name": "treasuryFee",
          "type": "uint256"
        }
      ],
      "stateMutability": "view",
      "type": "function"
    },
    {
      "inputs": [
        {
          "internalType": "bytes32",
          "name": "role",
          "type": "bytes32"
        },
        {
          "internalType": "address",
          "name": "account",
          "type": "address"
        }
      ],
      "name": "grantRole",
      "outputs": [],
      "stateMutability": "nonpayable",
      "type": "function"
    },
    {
      "inputs": [
        {
          "internalType": "bytes32",
          "name": "role",
          "type": "bytes32"
        },
        {
          "internalType": "address",
          "name": "account",
          "type": "address"
        }
      ],
      "name": "hasRole",
      "outputs": [
        {
          "internalType": "bool",
          "name": "",
          "type": "bool"
        }
      ],
      "stateMutability": "view",
      "type": "function"
    },
    {
      "inputs": [
        {
          "internalType": "bytes32",
          "name": "role",
          "type": "bytes32"
        },
        {
          "internalType": "address",
          "name": "account",
          "type": "address"
        }
      ],
      "name": "renounceRole",
      "outputs": [],
      "stateMutability": "nonpayable",
      "type": "function"
    },
    {
      "inputs": [
        {
          "internalType": "bytes32",
          "name": "role",
          "type": "bytes32"
        },
        {
          "internalType": "address",
          "name": "account",
          "type": "address"
        }
      ],
      "name": "revokeRole",
      "outputs": [],
      "stateMutability": "nonpayable",
      "type": "function"
    },
    {
      "inputs": [
        {
          "internalType": "uint16",
          "name": "newDecimals_",
          "type": "uint16"
        }
      ],
      "name": "updateDecimals",
      "outputs": [],
      "stateMutability": "nonpayable",
      "type": "function"
    },
    {
      "inputs": [
        {
          "internalType": "uint256",
          "name": "newFee_",
          "type": "uint256"
        }
      ],
      "name": "updateNodeFee",
      "outputs": [],
      "stateMutability": "nonpayable",
      "type": "function"
    },
    {
      "inputs": [
        {
          "internalType": "address",
          "name": "newAddress_",
          "type": "address"
        }
      ],
      "name": "updateTreasuryAddress",
      "outputs": [],
      "stateMutability": "nonpayable",
      "type": "function"
    },
    {
      "inputs": [
        {
          "internalType": "uint256",
          "name": "newFee_",
          "type": "uint256"
        }
      ],
      "name": "updateTreasuryFee",
      "outputs": [],
      "stateMutability": "nonpayable",
      "type": "function"
    }
  ],
  "transactionHash": "0x89cfb867a56c752ffe614762573b9863be6778e780ca5ae5c9862e7d7579e610",
  "args": [],
  "numDeployments": 1,
  "solcInputHash": "31f1f7eda7046d20a8185416ef304a26",
  "bytecode": "0x608060405234801561001057600080fd5b50610e65806100206000396000f3fe608060405234801561001057600080fd5b50600436106101005760003560e01c80639010d07c11610097578063d547741f11610066578063d547741f14610251578063e002460414610264578063e715013414610275578063f0141d841461028757600080fd5b80639010d07c146101dd57806391d1485414610208578063972328301461022b578063ca15c8731461023e57600080fd5b8063315cf0c6116100d3578063315cf0c61461019157806336568abe146101a4578063841e4561146101b757806389523320146101ca57600080fd5b8063248a9ca31461010557806329070c6d1461013b5780632aabb726146101675780632f2ff15d1461017c575b600080fd5b610128610113366004610ae1565b60009081526020819052604090206001015490565b6040519081526020015b60405180910390f35b61014d60025460055461ffff90911691565b6040805161ffff9093168352602083019190915201610132565b610128600080516020610e1083398151915281565b61018f61018a366004610b16565b61029d565b005b61018f61019f366004610ae1565b6102c8565b61018f6101b2366004610b16565b61038a565b61018f6101c5366004610b42565b610408565b61018f6101d8366004610b5d565b61046f565b6101f06101eb366004610b81565b6104e8565b6040516001600160a01b039091168152602001610132565b61021b610216366004610b16565b610509565b6040519015158152602001610132565b61018f610239366004610ae1565b610532565b61012861024c366004610ae1565b6105e7565b61018f61025f366004610b16565b6105fe565b6006546001600160a01b03166101f0565b61014d60025460045461ffff90911691565b60025460405161ffff9091168152602001610132565b6000828152602081905260409020600101546102b98133610624565b6102c38383610688565b505050565b600080516020610e108339815191526102e18133610624565b6003546102ef906064610bb9565b82111561033f5760405162461bcd60e51b81526020600482015260196024820152784d61726b6574706c6163653a20496e76616c6964204665652160381b60448201526064015b60405180910390fd5b60048290556002546040805161ffff9092168252602082018490527fb8582d3fffc716c83f52a665bd0dbec85808be8edfa626bed1ba1327d188da2791015b60405180910390a15050565b6001600160a01b03811633146103fa5760405162461bcd60e51b815260206004820152602f60248201527f416363657373436f6e74726f6c3a2063616e206f6e6c792072656e6f756e636560448201526e103937b632b9903337b91039b2b63360891b6064820152608401610336565b6104048282610720565b5050565b600080516020610e108339815191526104218133610624565b600680546001600160a01b0319166001600160a01b0384169081179091556040519081527f2e1e696cfb265fa16e1170d24ef04cb2262772bde00ecf34d80bae6722487b7f9060200161037e565b600080516020610e108339815191526104888133610624565b6002805461ffff191661ffff84161790556104a482600a610cb4565b60038190556002546040805161ffff909216825260208201929092527fb350d9c40db627ffac113e845312f87ed74873a5bb80d835f93b6b5b4d1e4e99910161037e565b60008281526001602052604081206105009083610799565b90505b92915050565b6000918252602082815260408084206001600160a01b0393909316845291905290205460ff1690565b600080516020610e1083398151915261054b8133610624565b600354610559906064610bb9565b8211156105a45760405162461bcd60e51b81526020600482015260196024820152784d61726b6574706c6163653a20496e76616c6964204665652160381b6044820152606401610336565b60058290556002546040805161ffff9092168252602082018490527f8e08950ff0d98c076d5f8c9e4d2289e73b9722eae4210998a1aeb6f8666fb3e6910161037e565b6000818152600160205260408120610503906107a5565b60008281526020819052604090206001015461061a8133610624565b6102c38383610720565b61062e8282610509565b61040457610646816001600160a01b031660146107af565b6106518360206107af565b604051602001610662929190610ce8565b60408051601f198184030181529082905262461bcd60e51b825261033691600401610d5d565b6106928282610509565b610404576000828152602081815260408083206001600160a01b03851684529091529020805460ff191660011790556106c83390565b6001600160a01b0316816001600160a01b0316837f2f8788117e7eff1d82e926ec794901d17c78024a50270940304540a733656f0d60405160405180910390a460008281526001602052604090206102c3908261094b565b61072a8282610509565b15610404576000828152602081815260408083206001600160a01b0385168085529252808320805460ff1916905551339285917ff6391f5c32d9c69d2a47ea670b442974b53935d1edc7fd64eb21e047a839171b9190a460008281526001602052604090206102c39082610960565b60006105008383610975565b6000610503825490565b606060006107be836002610bb9565b6107c9906002610d90565b67ffffffffffffffff8111156107e1576107e1610da3565b6040519080825280601f01601f19166020018201604052801561080b576020820181803683370190505b509050600360fc1b8160008151811061082657610826610db9565b60200101906001600160f81b031916908160001a905350600f60fb1b8160018151811061085557610855610db9565b60200101906001600160f81b031916908160001a9053506000610879846002610bb9565b610884906001610d90565b90505b60018111156108fc576f181899199a1a9b1b9c1cb0b131b232b360811b85600f16601081106108b8576108b8610db9565b1a60f81b8282815181106108ce576108ce610db9565b60200101906001600160f81b031916908160001a90535060049490941c936108f581610dcf565b9050610887565b5083156105005760405162461bcd60e51b815260206004820181905260248201527f537472696e67733a20686578206c656e67746820696e73756666696369656e746044820152606401610336565b6000610500836001600160a01b03841661099f565b6000610500836001600160a01b0384166109ee565b600082600001828154811061098c5761098c610db9565b9060005260206000200154905092915050565b60008181526001830160205260408120546109e657508154600181810184556000848152602080822090930184905584548482528286019093526040902091909155610503565b506000610503565b60008181526001830160205260408120548015610ad7576000610a12600183610de6565b8554909150600090610a2690600190610de6565b9050818114610a8b576000866000018281548110610a4657610a46610db9565b9060005260206000200154905080876000018481548110610a6957610a69610db9565b6000918252602080832090910192909255918252600188019052604090208390555b8554869080610a9c57610a9c610df9565b600190038181906000526020600020016000905590558560010160008681526020019081526020016000206000905560019350505050610503565b6000915050610503565b600060208284031215610af357600080fd5b5035919050565b80356001600160a01b0381168114610b1157600080fd5b919050565b60008060408385031215610b2957600080fd5b82359150610b3960208401610afa565b90509250929050565b600060208284031215610b5457600080fd5b61050082610afa565b600060208284031215610b6f57600080fd5b813561ffff8116811461050057600080fd5b60008060408385031215610b9457600080fd5b50508035926020909101359150565b634e487b7160e01b600052601160045260246000fd5b808202811582820484141761050357610503610ba3565b600181815b80851115610c0b578160001904821115610bf157610bf1610ba3565b80851615610bfe57918102915b93841c9390800290610bd5565b509250929050565b600082610c2257506001610503565b81610c2f57506000610503565b8160018114610c455760028114610c4f57610c6b565b6001915050610503565b60ff841115610c6057610c60610ba3565b50506001821b610503565b5060208310610133831016604e8410600b8410161715610c8e575081810a610503565b610c988383610bd0565b8060001904821115610cac57610cac610ba3565b029392505050565b600061050061ffff841683610c13565b60005b83811015610cdf578181015183820152602001610cc7565b50506000910152565b7f416363657373436f6e74726f6c3a206163636f756e7420000000000000000000815260008351610d20816017850160208801610cc4565b7001034b99036b4b9b9b4b733903937b6329607d1b6017918401918201528351610d51816028840160208801610cc4565b01602801949350505050565b6020815260008251806020840152610d7c816040850160208701610cc4565b601f01601f19169190910160400192915050565b8082018082111561050357610503610ba3565b634e487b7160e01b600052604160045260246000fd5b634e487b7160e01b600052603260045260246000fd5b600081610dde57610dde610ba3565b506000190190565b8181038181111561050357610503610ba3565b634e487b7160e01b600052603160045260246000fdfed88b35d7427a01a8e16d8a129535b4cf3150edf8d92c0a44dc1eba73bdaf18cba264697066735822122040abbdfb655a81b30513e4847314400c24d162c8a416d7e11d9a292573bf500464736f6c63430008140033",
  "devdoc": {
    "details": "Notice that this contract is inheriting from AccessControlAppStorageEnumerableMarket",
    "events": {
      "RoleAdminChanged(bytes32,bytes32,bytes32)": {
        "params": {
          "newAdminRole": "contains the new status of the role",
          "previousAdminRole": "contains the previous status of the role",
          "role": "Contains the role we want to update"
        }
      },
      "RoleGranted(bytes32,address,address)": {
        "params": {
          "account": "contains the address that we want to grant the role",
          "role": "Contains the role we want to update",
          "sender": "contains the address that is changing the role of the account"
        }
      },
      "RoleRevoked(bytes32,address,address)": {
        "params": {
          "account": "contains the address that we want to revoke the role",
          "role": "Contains the role we want to update",
          "sender": "contains the address that is changing the role of the account"
        }
      },
      "UpdatedDecimals(uint256,uint256)": {
        "params": {
          "decimals": "Contains the decimals established for the fee",
          "precalculatedMultiplier": "Contains the value of the multiplayer for the fee"
        }
      },
      "UpdatedNodeFee(uint256,uint256)": {
        "params": {
          "decimals": "Contains the decimals established for the fee",
          "newPercentage": "Contains the value of the percentage to calculate the fee"
        }
      },
      "UpdatedTreasuryAddress(address)": {
        "params": {
          "newAddress": "Contains the new address that we set ad treasury"
        }
      },
      "UpdatedTreasuryFee(uint256,uint256)": {
        "params": {
          "decimals": "Contains the decimals established for the fee",
          "newPercentage": "Contains the value of the percentage to calculate the treasury fee"
        }
      }
    },
    "kind": "dev",
    "methods": {
      "getDecimals()": {
        "returns": {
          "_0": "uint16 with the current decimals "
        }
      },
      "getNodeFee()": {
        "returns": {
          "decimals": "\tNumber of decimal spaces in the resulting node fee",
          "nodeFee": "\tPercentage of any minting offer that belongs to the node address"
        }
      },
      "getRoleAdmin(bytes32)": {
        "params": {
          "role": "Contains the role that we want to verify"
        },
        "returns": {
          "_0": "bytes that indicates if an account has or not an admin role"
        }
      },
      "getRoleMember(bytes32,uint256)": {
        "params": {
          "index": "Contains the indexed position to verify inside the role members list",
          "role": "Contains the role that we want to verify"
        },
        "returns": {
          "_0": "address that indicates the address indexed in that position"
        }
      },
      "getRoleMemberCount(bytes32)": {
        "params": {
          "role": "Contains the role that we want to verify"
        },
        "returns": {
          "_0": "uint256 that indicates the total accounts with that role"
        }
      },
      "getTreasuryAddress()": {
        "returns": {
          "_0": "address which contains the treasury contract address"
        }
      },
      "getTreasuryFee()": {
        "returns": {
          "decimals": "containt the current decimals that use the fee",
          "treasuryFee": "constain the current fee of the treasury"
        }
      },
      "grantRole(bytes32,address)": {
        "details": "This function is only available to an account with an Admin role",
        "params": {
          "account": "Contains the account that has the role we want to update",
          "role": "Contains the role that we want to grant"
        }
      },
      "hasRole(bytes32,address)": {
        "params": {
          "account": "Contains the account address thay we want to verify",
          "role": "Contains the role that we want to verify"
        },
        "returns": {
          "_0": "bool that indicates if an account has or not a role"
        }
      },
      "renounceRole(bytes32,address)": {
        "details": "Currently you can only renounce to your own roles",
        "params": {
          "account": "Contains the account that has the role we want to update",
          "role": "Contains the role to remove from our account"
        }
      },
      "revokeRole(bytes32,address)": {
        "details": "This function is only available to an account with an Admin role",
        "params": {
          "account": "Contains the account that has the role we want to update",
          "role": "Contains the role that we want to revoke"
        }
      },
      "updateDecimals(uint16)": {
        "details": "Only a MAINTAINER of the contract is allowed to make this change",
        "params": {
          "newDecimals_": "Contains the value of the new decimals that we want to implement"
        }
      },
      "updateNodeFee(uint256)": {
        "details": "Only a MAINTAINER of the contract is allowed to make this change",
        "params": {
          "newFee_": "establish the new value that we want to set as fee"
        }
      },
      "updateTreasuryAddress(address)": {
        "details": "Only a MAINTAINER he new fee that we want to implement for the treasury",
        "params": {
          "newAddress_": "contains the new address that we want to establish as treasury"
        }
      },
      "updateTreasuryFee(uint256)": {
        "details": "Only a MAINTAINER he new fee that we want to implement for the treasury",
        "params": {
          "newFee_": "establish the new value that we want to set as treasury fee"
        }
      }
    },
    "title": "This is contract to manage the facet fees",
    "version": 1
  },
  "userdoc": {
    "events": {
      "RoleAdminChanged(bytes32,bytes32,bytes32)": {
        "notice": "This event stores in the blockchain when we change an admin role"
      },
      "RoleGranted(bytes32,address,address)": {
        "notice": "This event stores in the blockchain when we grant a role"
      },
      "RoleRevoked(bytes32,address,address)": {
        "notice": "This event stores in the blockchain when we revoke a role"
      },
      "UpdatedDecimals(uint256,uint256)": {
        "notice": "This event stores in the blockchain when we update the decimals of a fee"
      },
      "UpdatedNodeFee(uint256,uint256)": {
        "notice": "This event stores in the blockchain when we update the node fee"
      },
      "UpdatedTreasuryAddress(address)": {
        "notice": "This event stores in the blockchain when we update the decimals of a fee"
      },
      "UpdatedTreasuryFee(uint256,uint256)": {
        "notice": "This event stores in the blockchain when we update the fee of our treasury"
      }
    },
    "kind": "user",
    "methods": {
      "getDecimals()": {
        "notice": "Check the current decimals of the fee"
      },
      "getNodeFee()": {
        "notice": "Allow us to check the value of the fee for the current node"
      },
      "getRoleAdmin(bytes32)": {
        "notice": "Allow us to check the admin role that contains a role"
      },
      "getRoleMember(bytes32,uint256)": {
        "notice": "Allow us to check the address of an indexed position for the role list"
      },
      "getRoleMemberCount(bytes32)": {
        "notice": "Allow us to check total members that has an selected role"
      },
      "getTreasuryAddress()": {
        "notice": "Allow us to check the current Treasury fee"
      },
      "getTreasuryFee()": {
        "notice": "Allow us to check the current Treasury fee"
      },
      "grantRole(bytes32,address)": {
        "notice": "Allow us to grant a role to an account"
      },
      "hasRole(bytes32,address)": {
        "notice": "Allow us to check the if and account has a selected role"
      },
      "renounceRole(bytes32,address)": {
        "notice": "Allow us to renounce to a role"
      },
      "revokeRole(bytes32,address)": {
        "notice": "Allow us to revoke a role to an account"
      },
      "updateDecimals(uint16)": {
        "notice": "Allow us to update the decimals that we use"
      },
      "updateNodeFee(uint256)": {
        "notice": "Allow us to update the current fee of the node"
      },
      "updateTreasuryAddress(address)": {
        "notice": "Allow us to modify the address that we use as treasury"
      },
      "updateTreasuryFee(uint256)": {
        "notice": "Allow us to modify the current treasury fee"
      }
    },
    "notice": "You can use this contract to update the facet and treasury",
    "version": 1
  },
  "storageLayout": {
    "storage": [
      {
        "astId": 5312,
        "contract": "contracts/Marketplace/Facets/FeesFacet.sol:FeesFacet",
        "label": "s",
        "offset": 0,
        "slot": "0",
        "type": "t_struct(AppStorage)5293_storage"
      }
    ],
    "types": {
      "t_address": {
        "encoding": "inplace",
        "label": "address",
        "numberOfBytes": "20"
      },
      "t_array(t_bytes32)dyn_storage": {
        "base": "t_bytes32",
        "encoding": "dynamic_array",
        "label": "bytes32[]",
        "numberOfBytes": "32"
      },
      "t_array(t_struct(feeSplits)5237_storage)dyn_storage": {
        "base": "t_struct(feeSplits)5237_storage",
        "encoding": "dynamic_array",
        "label": "struct feeSplits[]",
        "numberOfBytes": "32"
      },
      "t_array(t_struct(mintingOffer)5250_storage)dyn_storage": {
        "base": "t_struct(mintingOffer)5250_storage",
        "encoding": "dynamic_array",
        "label": "struct mintingOffer[]",
        "numberOfBytes": "32"
      },
      "t_array(t_uint256)dyn_storage": {
        "base": "t_uint256",
        "encoding": "dynamic_array",
        "label": "uint256[]",
        "numberOfBytes": "32"
      },
      "t_bool": {
        "encoding": "inplace",
        "label": "bool",
        "numberOfBytes": "1"
      },
      "t_bytes32": {
        "encoding": "inplace",
        "label": "bytes32",
        "numberOfBytes": "32"
      },
      "t_mapping(t_address,t_array(t_uint256)dyn_storage)": {
        "encoding": "mapping",
        "key": "t_address",
        "label": "mapping(address => uint256[])",
        "numberOfBytes": "32",
        "value": "t_array(t_uint256)dyn_storage"
      },
      "t_mapping(t_address,t_bool)": {
        "encoding": "mapping",
        "key": "t_address",
        "label": "mapping(address => bool)",
        "numberOfBytes": "32",
        "value": "t_bool"
      },
      "t_mapping(t_address,t_mapping(t_uint256,t_uint256))": {
        "encoding": "mapping",
        "key": "t_address",
        "label": "mapping(address => mapping(uint256 => uint256))",
        "numberOfBytes": "32",
        "value": "t_mapping(t_uint256,t_uint256)"
      },
      "t_mapping(t_bytes32,t_struct(AddressSet)3753_storage)": {
        "encoding": "mapping",
        "key": "t_bytes32",
        "label": "mapping(bytes32 => struct EnumerableSet.AddressSet)",
        "numberOfBytes": "32",
        "value": "t_struct(AddressSet)3753_storage"
      },
      "t_mapping(t_bytes32,t_struct(RoleData)5257_storage)": {
        "encoding": "mapping",
        "key": "t_bytes32",
        "label": "mapping(bytes32 => struct RoleData)",
        "numberOfBytes": "32",
        "value": "t_struct(RoleData)5257_storage"
      },
      "t_mapping(t_bytes32,t_uint256)": {
        "encoding": "mapping",
        "key": "t_bytes32",
        "label": "mapping(bytes32 => uint256)",
        "numberOfBytes": "32",
        "value": "t_uint256"
      },
      "t_mapping(t_uint256,t_uint256)": {
        "encoding": "mapping",
        "key": "t_uint256",
        "label": "mapping(uint256 => uint256)",
        "numberOfBytes": "32",
        "value": "t_uint256"
      },
      "t_struct(AddressSet)3753_storage": {
        "encoding": "inplace",
        "label": "struct EnumerableSet.AddressSet",
        "members": [
          {
            "astId": 3752,
            "contract": "contracts/Marketplace/Facets/FeesFacet.sol:FeesFacet",
            "label": "_inner",
            "offset": 0,
            "slot": "0",
            "type": "t_struct(Set)3438_storage"
          }
        ],
        "numberOfBytes": "64"
      },
      "t_struct(AppStorage)5293_storage": {
        "encoding": "inplace",
        "label": "struct AppStorage",
        "members": [
          {
            "astId": 5262,
            "contract": "contracts/Marketplace/Facets/FeesFacet.sol:FeesFacet",
            "label": "_roles",
            "offset": 0,
            "slot": "0",
            "type": "t_mapping(t_bytes32,t_struct(RoleData)5257_storage)"
          },
          {
            "astId": 5267,
            "contract": "contracts/Marketplace/Facets/FeesFacet.sol:FeesFacet",
            "label": "_roleMembers",
            "offset": 0,
            "slot": "1",
            "type": "t_mapping(t_bytes32,t_struct(AddressSet)3753_storage)"
          },
          {
            "astId": 5269,
            "contract": "contracts/Marketplace/Facets/FeesFacet.sol:FeesFacet",
            "label": "decimals",
            "offset": 0,
            "slot": "2",
            "type": "t_uint16"
          },
          {
            "astId": 5271,
            "contract": "contracts/Marketplace/Facets/FeesFacet.sol:FeesFacet",
            "label": "decimalPow",
            "offset": 0,
            "slot": "3",
            "type": "t_uint256"
          },
          {
            "astId": 5273,
            "contract": "contracts/Marketplace/Facets/FeesFacet.sol:FeesFacet",
            "label": "nodeFee",
            "offset": 0,
            "slot": "4",
            "type": "t_uint256"
          },
          {
            "astId": 5275,
            "contract": "contracts/Marketplace/Facets/FeesFacet.sol:FeesFacet",
            "label": "treasuryFee",
            "offset": 0,
            "slot": "5",
            "type": "t_uint256"
          },
          {
            "astId": 5277,
            "contract": "contracts/Marketplace/Facets/FeesFacet.sol:FeesFacet",
            "label": "treasuryAddress",
            "offset": 0,
            "slot": "6",
            "type": "t_address"
          },
          {
            "astId": 5281,
            "contract": "contracts/Marketplace/Facets/FeesFacet.sol:FeesFacet",
            "label": "mintingOffers",
            "offset": 0,
            "slot": "7",
            "type": "t_array(t_struct(mintingOffer)5250_storage)dyn_storage"
          },
          {
            "astId": 5287,
            "contract": "contracts/Marketplace/Facets/FeesFacet.sol:FeesFacet",
            "label": "addressToRangeOffer",
            "offset": 0,
            "slot": "8",
            "type": "t_mapping(t_address,t_mapping(t_uint256,t_uint256))"
          },
          {
            "astId": 5292,
            "contract": "contracts/Marketplace/Facets/FeesFacet.sol:FeesFacet",
            "label": "addressToOffers",
            "offset": 0,
            "slot": "9",
            "type": "t_mapping(t_address,t_array(t_uint256)dyn_storage)"
          }
        ],
        "numberOfBytes": "320"
      },
      "t_struct(RoleData)5257_storage": {
        "encoding": "inplace",
        "label": "struct RoleData",
        "members": [
          {
            "astId": 5254,
            "contract": "contracts/Marketplace/Facets/FeesFacet.sol:FeesFacet",
            "label": "members",
            "offset": 0,
            "slot": "0",
            "type": "t_mapping(t_address,t_bool)"
          },
          {
            "astId": 5256,
            "contract": "contracts/Marketplace/Facets/FeesFacet.sol:FeesFacet",
            "label": "adminRole",
            "offset": 0,
            "slot": "1",
            "type": "t_bytes32"
          }
        ],
        "numberOfBytes": "64"
      },
      "t_struct(Set)3438_storage": {
        "encoding": "inplace",
        "label": "struct EnumerableSet.Set",
        "members": [
          {
            "astId": 3433,
            "contract": "contracts/Marketplace/Facets/FeesFacet.sol:FeesFacet",
            "label": "_values",
            "offset": 0,
            "slot": "0",
            "type": "t_array(t_bytes32)dyn_storage"
          },
          {
            "astId": 3437,
            "contract": "contracts/Marketplace/Facets/FeesFacet.sol:FeesFacet",
            "label": "_indexes",
            "offset": 0,
            "slot": "1",
            "type": "t_mapping(t_bytes32,t_uint256)"
          }
        ],
        "numberOfBytes": "64"
      },
      "t_struct(feeSplits)5237_storage": {
        "encoding": "inplace",
        "label": "struct feeSplits",
        "members": [
          {
            "astId": 5232,
            "contract": "contracts/Marketplace/Facets/FeesFacet.sol:FeesFacet",
            "label": "recipient",
            "offset": 0,
            "slot": "0",
            "type": "t_address"
          },
          {
            "astId": 5234,
            "contract": "contracts/Marketplace/Facets/FeesFacet.sol:FeesFacet",
            "label": "canBeContract",
            "offset": 20,
            "slot": "0",
            "type": "t_bool"
          },
          {
            "astId": 5236,
            "contract": "contracts/Marketplace/Facets/FeesFacet.sol:FeesFacet",
            "label": "percentage",
            "offset": 0,
            "slot": "1",
            "type": "t_uint256"
          }
        ],
        "numberOfBytes": "64"
      },
      "t_struct(mintingOffer)5250_storage": {
        "encoding": "inplace",
        "label": "struct mintingOffer",
        "members": [
          {
            "astId": 5239,
            "contract": "contracts/Marketplace/Facets/FeesFacet.sol:FeesFacet",
            "label": "erc721Address",
            "offset": 0,
            "slot": "0",
            "type": "t_address"
          },
          {
            "astId": 5241,
            "contract": "contracts/Marketplace/Facets/FeesFacet.sol:FeesFacet",
            "label": "nodeAddress",
            "offset": 0,
            "slot": "1",
            "type": "t_address"
          },
          {
            "astId": 5243,
            "contract": "contracts/Marketplace/Facets/FeesFacet.sol:FeesFacet",
            "label": "rangeIndex",
            "offset": 0,
            "slot": "2",
            "type": "t_uint256"
          },
          {
            "astId": 5247,
            "contract": "contracts/Marketplace/Facets/FeesFacet.sol:FeesFacet",
            "label": "fees",
            "offset": 0,
            "slot": "3",
            "type": "t_array(t_struct(feeSplits)5237_storage)dyn_storage"
          },
          {
            "astId": 5249,
            "contract": "contracts/Marketplace/Facets/FeesFacet.sol:FeesFacet",
            "label": "visible",
            "offset": 0,
            "slot": "4",
            "type": "t_bool"
          }
        ],
        "numberOfBytes": "160"
      },
      "t_uint16": {
        "encoding": "inplace",
        "label": "uint16",
        "numberOfBytes": "2"
      },
      "t_uint256": {
        "encoding": "inplace",
        "label": "uint256",
        "numberOfBytes": "32"
      }
    }
  }
}