{
  "address": "0x2b1FE33Cb7264dBa6331F54012f04133395fDe44",
  "abi": [
    {
      "inputs": [
        {
          "internalType": "address",
          "name": "_diamondCut",
          "type": "address"
        }
      ],
      "stateMutability": "nonpayable",
      "type": "constructor"
    },
    {
      "inputs": [
        {
          "internalType": "address",
          "name": "_initializationContractAddress",
          "type": "address"
        },
        {
          "internalType": "bytes",
          "name": "_calldata",
          "type": "bytes"
        }
      ],
      "name": "InitializationFunctionReverted",
      "type": "error"
    },
    {
      "anonymous": false,
      "inputs": [
        {
          "components": [
            {
              "internalType": "address",
              "name": "facetAddress",
              "type": "address"
            },
            {
              "internalType": "enum IDiamondCut.FacetCutAction",
              "name": "action",
              "type": "uint8"
            },
            {
              "internalType": "bytes4[]",
              "name": "functionSelectors",
              "type": "bytes4[]"
            }
          ],
          "indexed": false,
          "internalType": "struct IDiamondCut.FacetCut[]",
          "name": "_diamondCut",
          "type": "tuple[]"
        },
        {
          "indexed": false,
          "internalType": "address",
          "name": "_init",
          "type": "address"
        },
        {
          "indexed": false,
          "internalType": "bytes",
          "name": "_calldata",
          "type": "bytes"
        }
      ],
      "name": "DiamondCut",
      "type": "event"
    },
    {
      "anonymous": false,
      "inputs": [
        {
          "indexed": true,
          "internalType": "address",
          "name": "previousOwner",
          "type": "address"
        },
        {
          "indexed": true,
          "internalType": "address",
          "name": "newOwner",
          "type": "address"
        }
      ],
      "name": "OwnershipTransferred",
      "type": "event"
    },
    {
      "anonymous": false,
      "inputs": [
        {
          "indexed": true,
          "internalType": "bytes32",
          "name": "role",
          "type": "bytes32"
        },
        {
          "indexed": true,
          "internalType": "bytes32",
          "name": "previousAdminRole",
          "type": "bytes32"
        },
        {
          "indexed": true,
          "internalType": "bytes32",
          "name": "newAdminRole",
          "type": "bytes32"
        }
      ],
      "name": "RoleAdminChanged",
      "type": "event"
    },
    {
      "anonymous": false,
      "inputs": [
        {
          "indexed": true,
          "internalType": "bytes32",
          "name": "role",
          "type": "bytes32"
        },
        {
          "indexed": true,
          "internalType": "address",
          "name": "account",
          "type": "address"
        },
        {
          "indexed": true,
          "internalType": "address",
          "name": "sender",
          "type": "address"
        }
      ],
      "name": "RoleGranted",
      "type": "event"
    },
    {
      "anonymous": false,
      "inputs": [
        {
          "indexed": true,
          "internalType": "bytes32",
          "name": "role",
          "type": "bytes32"
        },
        {
          "indexed": true,
          "internalType": "address",
          "name": "account",
          "type": "address"
        },
        {
          "indexed": true,
          "internalType": "address",
          "name": "sender",
          "type": "address"
        }
      ],
      "name": "RoleRevoked",
      "type": "event"
    },
    {
      "stateMutability": "payable",
      "type": "fallback"
    },
    {
      "inputs": [],
      "name": "DEFAULT_ADMIN_ROLE",
      "outputs": [
        {
          "internalType": "bytes32",
          "name": "",
          "type": "bytes32"
        }
      ],
      "stateMutability": "view",
      "type": "function"
    },
    {
      "inputs": [],
      "name": "MAINTAINER",
      "outputs": [
        {
          "internalType": "bytes32",
          "name": "",
          "type": "bytes32"
        }
      ],
      "stateMutability": "view",
      "type": "function"
    },
    {
      "inputs": [
        {
          "internalType": "bytes32",
          "name": "role",
          "type": "bytes32"
        }
      ],
      "name": "getRoleAdmin",
      "outputs": [
        {
          "internalType": "bytes32",
          "name": "",
          "type": "bytes32"
        }
      ],
      "stateMutability": "view",
      "type": "function"
    },
    {
      "inputs": [
        {
          "internalType": "bytes32",
          "name": "role",
          "type": "bytes32"
        },
        {
          "internalType": "uint256",
          "name": "index",
          "type": "uint256"
        }
      ],
      "name": "getRoleMember",
      "outputs": [
        {
          "internalType": "address",
          "name": "",
          "type": "address"
        }
      ],
      "stateMutability": "view",
      "type": "function"
    },
    {
      "inputs": [
        {
          "internalType": "bytes32",
          "name": "role",
          "type": "bytes32"
        }
      ],
      "name": "getRoleMemberCount",
      "outputs": [
        {
          "internalType": "uint256",
          "name": "",
          "type": "uint256"
        }
      ],
      "stateMutability": "view",
      "type": "function"
    },
    {
      "inputs": [
        {
          "internalType": "bytes32",
          "name": "role",
          "type": "bytes32"
        },
        {
          "internalType": "address",
          "name": "account",
          "type": "address"
        }
      ],
      "name": "grantRole",
      "outputs": [],
      "stateMutability": "nonpayable",
      "type": "function"
    },
    {
      "inputs": [
        {
          "internalType": "bytes32",
          "name": "role",
          "type": "bytes32"
        },
        {
          "internalType": "address",
          "name": "account",
          "type": "address"
        }
      ],
      "name": "hasRole",
      "outputs": [
        {
          "internalType": "bool",
          "name": "",
          "type": "bool"
        }
      ],
      "stateMutability": "view",
      "type": "function"
    },
    {
      "inputs": [
        {
          "internalType": "bytes32",
          "name": "role",
          "type": "bytes32"
        },
        {
          "internalType": "address",
          "name": "account",
          "type": "address"
        }
      ],
      "name": "renounceRole",
      "outputs": [],
      "stateMutability": "nonpayable",
      "type": "function"
    },
    {
      "inputs": [
        {
          "internalType": "bytes32",
          "name": "role",
          "type": "bytes32"
        },
        {
          "internalType": "address",
          "name": "account",
          "type": "address"
        }
      ],
      "name": "revokeRole",
      "outputs": [],
      "stateMutability": "nonpayable",
      "type": "function"
    },
    {
      "stateMutability": "payable",
      "type": "receive"
    }
  ],
  "transactionHash": "0x612321ac46ae6a873163aa9659863963f26532b027f13039d07ea9b6a7f1d926",
  "args": [
    "0x9f7EB740659016AC2d386c8ebE3FdAB3264a1C61"
  ],
  "numDeployments": 1,
  "solcInputHash": "3e1b40b6a7b2f9f754f524db46f8292e",
  "bytecode": "0x60806040523480156200001157600080fd5b5060405162001cbf38038062001cbf833981016040819052620000349162000e7c565b33816200004182620001d6565b604080516001808252818301909252600091816020015b60408051606080820183526000808352602083015291810191909152815260200190600190039081620000585750506040805160018082528183019092529192506000919060208083019080368337019050509050631f931c1c60e01b81600081518110620000cb57620000cb62000ea7565b6001600160e01b031990921660209283029190910182015260408051606081019091526001600160a01b03851681529081016000815260200182815250826000815181106200011e576200011e62000ea7565b60200260200101819052506200014c826000604051806020016040528060008152506200025a60201b60201c565b50506002805461ffff191660039081179091556103e8908190556200017692509050600162000ee9565b6004556003546200018990600962000ee9565b600555620001a760008051602062001c7783398151915280620003e7565b620001b460003362000432565b620001cf60008051602062001c778339815191523362000432565b506200110b565b7fc8fcad8db84d3cc18b4c41d551ea0ee66dd599cde068d998e57d5e09332c132080546001600160a01b031981166001600160a01b0384811691821790935560405160008051602062001c0b833981519152939092169182907f8be0079c531659141344cd1fd0a4f28419497f9722a3daafe3b4186f6b6457e090600090a3505050565b7fc8fcad8db84d3cc18b4c41d551ea0ee66dd599cde068d998e57d5e09332c131e5460008051602062001c0b8339815191529061ffff811690819060009060071615620002b95750600381901c60009081526001840160205260409020545b60005b875181101562000355576200033b83838a8481518110620002e157620002e162000ea7565b6020026020010151600001518b858151811062000302576200030262000ea7565b6020026020010151602001518c868151811062000323576200032362000ea7565b602002602001015160400151620004d660201b60201c565b9093509150806200034c8162000f03565b915050620002bc565b50828214620003725760028401805461ffff191661ffff84161790555b60078216156200039557600382901c600090815260018501602052604090208190555b7f8faa70878671ccd212d20771b795c50af8fd3ff6cf27f4bde57e5d4de0aeb673878787604051620003ca9392919062000f73565b60405180910390a1620003de868662000ce5565b50505050505050565b600082815260208190526040808220600101805490849055905190918391839186917fbd79b86ffe0ab8e8776151514217cd7cacd52c909f66475c3af44e129f0b00ff9190a4505050565b6200043e828262000dbd565b620004d2576000828152602081815260408083206001600160a01b03851684529091529020805460ff19166001179055620004763390565b6001600160a01b0316816001600160a01b0316837f2f8788117e7eff1d82e926ec794901d17c78024a50270940304540a733656f0d60405160405180910390a46000828152600160205260409020620004d0908262000de8565b505b5050565b6000808060008051602062001c0b83398151915290506000845111620005575760405162461bcd60e51b815260206004820152602b60248201527f4c69624469616d6f6e644375743a204e6f2073656c6563746f727320696e206660448201526a1858d95d081d1bc818dd5d60aa1b60648201526084015b60405180910390fd5b60008560028111156200056e576200056e62000ebd565b03620006f457620005998660405180606001604052806024815260200162001c2b6024913962000e06565b60005b8451811015620006ed576000858281518110620005bd57620005bd62000ea7565b6020908102919091018101516001600160e01b03198116600090815291859052604090912054909150606081901c15620006605760405162461bcd60e51b815260206004820152603560248201527f4c69624469616d6f6e644375743a2043616e2774206164642066756e6374696f60448201527f6e207468617420616c726561647920657869737473000000000000000000000060648201526084016200054e565b6001600160e01b031980831660008181526020879052604090206001600160601b031960608d901b168e17905560e060058e901b811692831c199c909c1690821c179a819003620006c55760038c901c600090815260018601602052604081209b909b555b8b620006d18162000f03565b9c50505050508080620006e49062000f03565b9150506200059c565b5062000cd9565b60018560028111156200070b576200070b62000ebd565b036200092457620007368660405180606001604052806028815260200162001c976028913962000e06565b60005b8451811015620006ed5760008582815181106200075a576200075a62000ea7565b6020908102919091018101516001600160e01b03198116600090815291859052604090912054909150606081901c308103620007f15760405162461bcd60e51b815260206004820152602f60248201527f4c69624469616d6f6e644375743a2043616e2774207265706c61636520696d6d60448201526e3aba30b1363290333ab731ba34b7b760891b60648201526084016200054e565b896001600160a01b0316816001600160a01b031603620008695760405162461bcd60e51b8152602060048201526038602482015260008051602062001beb83398151915260448201527f6374696f6e20776974682073616d652066756e6374696f6e000000000000000060648201526084016200054e565b6001600160a01b038116620008d65760405162461bcd60e51b8152602060048201526038602482015260008051602062001beb83398151915260448201527f6374696f6e207468617420646f65736e2774206578697374000000000000000060648201526084016200054e565b506001600160e01b031990911660009081526020849052604090206001600160601b03919091166001600160601b031960608a901b16179055806200091b8162000f03565b91505062000739565b60028560028111156200093b576200093b62000ebd565b0362000c80576001600160a01b03861615620009c05760405162461bcd60e51b815260206004820152603660248201527f4c69624469616d6f6e644375743a2052656d6f7665206661636574206164647260448201527f657373206d75737420626520616464726573732830290000000000000000000060648201526084016200054e565b600388901c6007891660005b865181101562000c5b5760008a900362000a0d5782620009ec816200107a565b60008181526001870160205260409020549b5093506007925062000a1d9050565b8162000a19816200107a565b9250505b6000806000808a858151811062000a385762000a3862000ea7565b6020908102919091018101516001600160e01b031981166000908152918a9052604090912054909150606081901c62000ada5760405162461bcd60e51b815260206004820152603760248201527f4c69624469616d6f6e644375743a2043616e27742072656d6f76652066756e6360448201527f74696f6e207468617420646f65736e277420657869737400000000000000000060648201526084016200054e565b30606082901c0362000b465760405162461bcd60e51b815260206004820152602e60248201527f4c69624469616d6f6e644375743a2043616e27742072656d6f766520696d6d7560448201526d3a30b1363290333ab731ba34b7b760911b60648201526084016200054e565b600587901b8f901b94506001600160e01b03198086169083161462000b98576001600160e01b03198516600090815260208a90526040902080546001600160601b0319166001600160601b0383161790555b6001600160e01b031991909116600090815260208990526040812055600381901c611fff16925060051b60e016905085821462000bff576000828152600188016020526040902080546001600160e01b031980841c19909116908516831c17905562000c23565b80836001600160e01b031916901c816001600160e01b031960001b901c198e16179c505b8460000362000c4257600086815260018801602052604081208190559c505b505050808062000c529062000f03565b915050620009cc565b508062000c6a83600862000ee9565b62000c76919062001094565b9950505062000cd9565b60405162461bcd60e51b815260206004820152602760248201527f4c69624469616d6f6e644375743a20496e636f727265637420466163657443756044820152663a20b1ba34b7b760c91b60648201526084016200054e565b50959694955050505050565b6001600160a01b03821662000cf8575050565b62000d1d8260405180606001604052806028815260200162001c4f6028913962000e06565b600080836001600160a01b03168360405162000d3a9190620010aa565b600060405180830381855af49150503d806000811462000d77576040519150601f19603f3d011682016040523d82523d6000602084013e62000d7c565b606091505b50915091508162000db75780511562000d985780518082602001fd5b838360405163192105d760e01b81526004016200054e929190620010c8565b50505050565b6000828152602081815260408083206001600160a01b038516845290915290205460ff165b92915050565b600062000dff836001600160a01b03841662000e2a565b9392505050565b813b818162000db75760405162461bcd60e51b81526004016200054e9190620010f6565b600081815260018301602052604081205462000e735750815460018181018455600084815260208082209093018490558454848252828601909352604090209190915562000de2565b50600062000de2565b60006020828403121562000e8f57600080fd5b81516001600160a01b038116811462000dff57600080fd5b634e487b7160e01b600052603260045260246000fd5b634e487b7160e01b600052602160045260246000fd5b634e487b7160e01b600052601160045260246000fd5b808202811582820484141762000de25762000de262000ed3565b60006001820162000f185762000f1862000ed3565b5060010190565b60005b8381101562000f3c57818101518382015260200162000f22565b50506000910152565b6000815180845262000f5f81602086016020860162000f1f565b601f01601f19169290920160200192915050565b60006060808301818452808751808352608092508286019150828160051b8701016020808b0160005b848110156200104857898403607f19018652815180516001600160a01b0316855283810151898601906003811062000fe457634e487b7160e01b600052602160045260246000fd5b868601526040918201519186018a905281519081905290840190600090898701905b80831015620010325783516001600160e01b031916825292860192600192909201919086019062001006565b5097850197955050509082019060010162000f9c565b50506001600160a01b038a169088015286810360408801526200106c818962000f45565b9a9950505050505050505050565b6000816200108c576200108c62000ed3565b506000190190565b8082018082111562000de25762000de262000ed3565b60008251620010be81846020870162000f1f565b9190910192915050565b6001600160a01b0383168152604060208201819052600090620010ee9083018462000f45565b949350505050565b60208152600062000dff602083018462000f45565b610ad0806200111b6000396000f3fe60806040526004361061008a5760003560e01c80639010d07c116100595780639010d07c1461020157806391d1485414610239578063a217fddf14610269578063ca15c8731461027e578063d547741f1461029e57610091565b8063248a9ca31461014a5780632aabb7261461018d5780632f2ff15d146101c157806336568abe146101e157610091565b3661009157005b600080356001600160e01b03191681527fc8fcad8db84d3cc18b4c41d551ea0ee66dd599cde068d998e57d5e09332c131c6020819052604090912054819060601c806101245760405162461bcd60e51b815260206004820181905260248201527f4469616d6f6e643a2046756e6374696f6e20646f6573206e6f7420657869737460448201526064015b60405180910390fd5b3660008037600080366000845af43d6000803e808015610143573d6000f35b3d6000fd5b005b34801561015657600080fd5b5061017a6101653660046108ab565b60009081526020819052604090206001015490565b6040519081526020015b60405180910390f35b34801561019957600080fd5b5061017a7fd88b35d7427a01a8e16d8a129535b4cf3150edf8d92c0a44dc1eba73bdaf18cb81565b3480156101cd57600080fd5b506101486101dc3660046108c4565b6102be565b3480156101ed57600080fd5b506101486101fc3660046108c4565b6102e9565b34801561020d57600080fd5b5061022161021c366004610900565b610367565b6040516001600160a01b039091168152602001610184565b34801561024557600080fd5b506102596102543660046108c4565b610388565b6040519015158152602001610184565b34801561027557600080fd5b5061017a600081565b34801561028a57600080fd5b5061017a6102993660046108ab565b6103b1565b3480156102aa57600080fd5b506101486102b93660046108c4565b6103c8565b6000828152602081905260409020600101546102da81336103ee565b6102e48383610452565b505050565b6001600160a01b03811633146103595760405162461bcd60e51b815260206004820152602f60248201527f416363657373436f6e74726f6c3a2063616e206f6e6c792072656e6f756e636560448201526e103937b632b9903337b91039b2b63360891b606482015260840161011b565b61036382826104ea565b5050565b600082815260016020526040812061037f9083610563565b90505b92915050565b6000918252602082815260408084206001600160a01b0393909316845291905290205460ff1690565b60008181526001602052604081206103829061056f565b6000828152602081905260409020600101546103e481336103ee565b6102e483836104ea565b6103f88282610388565b61036357610410816001600160a01b03166014610579565b61041b836020610579565b60405160200161042c929190610946565b60408051601f198184030181529082905262461bcd60e51b825261011b916004016109bb565b61045c8282610388565b610363576000828152602081815260408083206001600160a01b03851684529091529020805460ff191660011790556104923390565b6001600160a01b0316816001600160a01b0316837f2f8788117e7eff1d82e926ec794901d17c78024a50270940304540a733656f0d60405160405180910390a460008281526001602052604090206102e49082610715565b6104f48282610388565b15610363576000828152602081815260408083206001600160a01b0385168085529252808320805460ff1916905551339285917ff6391f5c32d9c69d2a47ea670b442974b53935d1edc7fd64eb21e047a839171b9190a460008281526001602052604090206102e4908261072a565b600061037f838361073f565b6000610382825490565b60606000610588836002610a04565b610593906002610a1b565b67ffffffffffffffff8111156105ab576105ab610a2e565b6040519080825280601f01601f1916602001820160405280156105d5576020820181803683370190505b509050600360fc1b816000815181106105f0576105f0610a44565b60200101906001600160f81b031916908160001a905350600f60fb1b8160018151811061061f5761061f610a44565b60200101906001600160f81b031916908160001a9053506000610643846002610a04565b61064e906001610a1b565b90505b60018111156106c6576f181899199a1a9b1b9c1cb0b131b232b360811b85600f166010811061068257610682610a44565b1a60f81b82828151811061069857610698610a44565b60200101906001600160f81b031916908160001a90535060049490941c936106bf81610a5a565b9050610651565b50831561037f5760405162461bcd60e51b815260206004820181905260248201527f537472696e67733a20686578206c656e67746820696e73756666696369656e74604482015260640161011b565b600061037f836001600160a01b038416610769565b600061037f836001600160a01b0384166107b8565b600082600001828154811061075657610756610a44565b9060005260206000200154905092915050565b60008181526001830160205260408120546107b057508154600181810184556000848152602080822090930184905584548482528286019093526040902091909155610382565b506000610382565b600081815260018301602052604081205480156108a15760006107dc600183610a71565b85549091506000906107f090600190610a71565b905081811461085557600086600001828154811061081057610810610a44565b906000526020600020015490508087600001848154811061083357610833610a44565b6000918252602080832090910192909255918252600188019052604090208390555b855486908061086657610866610a84565b600190038181906000526020600020016000905590558560010160008681526020019081526020016000206000905560019350505050610382565b6000915050610382565b6000602082840312156108bd57600080fd5b5035919050565b600080604083850312156108d757600080fd5b8235915060208301356001600160a01b03811681146108f557600080fd5b809150509250929050565b6000806040838503121561091357600080fd5b50508035926020909101359150565b60005b8381101561093d578181015183820152602001610925565b50506000910152565b7f416363657373436f6e74726f6c3a206163636f756e742000000000000000000081526000835161097e816017850160208801610922565b7001034b99036b4b9b9b4b733903937b6329607d1b60179184019182015283516109af816028840160208801610922565b01602801949350505050565b60208152600082518060208401526109da816040850160208701610922565b601f01601f19169190910160400192915050565b634e487b7160e01b600052601160045260246000fd5b8082028115828204841417610382576103826109ee565b80820180821115610382576103826109ee565b634e487b7160e01b600052604160045260246000fd5b634e487b7160e01b600052603260045260246000fd5b600081610a6957610a696109ee565b506000190190565b81810381811115610382576103826109ee565b634e487b7160e01b600052603160045260246000fdfea264697066735822122018c71190aaf4bfcbd2fa676a76fa367dce49edf153893910638cbd28e6683eaf64736f6c634300081400334c69624469616d6f6e644375743a2043616e2774207265706c6163652066756ec8fcad8db84d3cc18b4c41d551ea0ee66dd599cde068d998e57d5e09332c131c4c69624469616d6f6e644375743a2041646420666163657420686173206e6f20636f64654c69624469616d6f6e644375743a205f696e6974206164647265737320686173206e6f20636f6465d88b35d7427a01a8e16d8a129535b4cf3150edf8d92c0a44dc1eba73bdaf18cb4c69624469616d6f6e644375743a205265706c61636520666163657420686173206e6f20636f6465",
  "devdoc": {
    "author": "Juan M. Sanchez M.",
    "details": "Notice this contract is inheriting from Diamond & AccessControlAppStorageEnumerableMarket",
    "events": {
      "RoleAdminChanged(bytes32,bytes32,bytes32)": {
        "params": {
          "newAdminRole": "contains the new status of the role",
          "previousAdminRole": "contains the previous status of the role",
          "role": "Contains the role we want to update"
        }
      },
      "RoleGranted(bytes32,address,address)": {
        "params": {
          "account": "contains the address that we want to grant the role",
          "role": "Contains the role we want to update",
          "sender": "contains the address that is changing the role of the account"
        }
      },
      "RoleRevoked(bytes32,address,address)": {
        "params": {
          "account": "contains the address that we want to revoke the role",
          "role": "Contains the role we want to update",
          "sender": "contains the address that is changing the role of the account"
        }
      }
    },
    "kind": "dev",
    "methods": {
      "getRoleAdmin(bytes32)": {
        "params": {
          "role": "Contains the role that we want to verify"
        },
        "returns": {
          "_0": "bytes that indicates if an account has or not an admin role"
        }
      },
      "getRoleMember(bytes32,uint256)": {
        "params": {
          "index": "Contains the indexed position to verify inside the role members list",
          "role": "Contains the role that we want to verify"
        },
        "returns": {
          "_0": "address that indicates the address indexed in that position"
        }
      },
      "getRoleMemberCount(bytes32)": {
        "params": {
          "role": "Contains the role that we want to verify"
        },
        "returns": {
          "_0": "uint256 that indicates the total accounts with that role"
        }
      },
      "grantRole(bytes32,address)": {
        "details": "This function is only available to an account with an Admin role",
        "params": {
          "account": "Contains the account that has the role we want to update",
          "role": "Contains the role that we want to grant"
        }
      },
      "hasRole(bytes32,address)": {
        "params": {
          "account": "Contains the account address thay we want to verify",
          "role": "Contains the role that we want to verify"
        },
        "returns": {
          "_0": "bool that indicates if an account has or not a role"
        }
      },
      "renounceRole(bytes32,address)": {
        "details": "Currently you can only renounce to your own roles",
        "params": {
          "account": "Contains the account that has the role we want to update",
          "role": "Contains the role to remove from our account"
        }
      },
      "revokeRole(bytes32,address)": {
        "details": "This function is only available to an account with an Admin role",
        "params": {
          "account": "Contains the account that has the role we want to update",
          "role": "Contains the role that we want to revoke"
        }
      }
    },
    "title": "RAIR ERC721 Marketplace Diamond",
    "version": 1
  },
  "userdoc": {
    "events": {
      "RoleAdminChanged(bytes32,bytes32,bytes32)": {
        "notice": "This event stores in the blockchain when we change an admin role"
      },
      "RoleGranted(bytes32,address,address)": {
        "notice": "This event stores in the blockchain when we grant a role"
      },
      "RoleRevoked(bytes32,address,address)": {
        "notice": "This event stores in the blockchain when we revoke a role"
      }
    },
    "kind": "user",
    "methods": {
      "getRoleAdmin(bytes32)": {
        "notice": "Allow us to check the admin role that contains a role"
      },
      "getRoleMember(bytes32,uint256)": {
        "notice": "Allow us to check the address of an indexed position for the role list"
      },
      "getRoleMemberCount(bytes32)": {
        "notice": "Allow us to check total members that has an selected role"
      },
      "grantRole(bytes32,address)": {
        "notice": "Allow us to grant a role to an account"
      },
      "hasRole(bytes32,address)": {
        "notice": "Allow us to check the if and account has a selected role"
      },
      "renounceRole(bytes32,address)": {
        "notice": "Allow us to renounce to a role"
      },
      "revokeRole(bytes32,address)": {
        "notice": "Allow us to revoke a role to an account"
      }
    },
    "notice": "Handles the trading of ERC721 RAIR Tokens",
    "version": 1
  },
  "storageLayout": {
    "storage": [
      {
        "astId": 5312,
        "contract": "contracts/Marketplace/MarketplaceDiamond.sol:MarketplaceDiamond",
        "label": "s",
        "offset": 0,
        "slot": "0",
        "type": "t_struct(AppStorage)5293_storage"
      }
    ],
    "types": {
      "t_address": {
        "encoding": "inplace",
        "label": "address",
        "numberOfBytes": "20"
      },
      "t_array(t_bytes32)dyn_storage": {
        "base": "t_bytes32",
        "encoding": "dynamic_array",
        "label": "bytes32[]",
        "numberOfBytes": "32"
      },
      "t_array(t_struct(feeSplits)5237_storage)dyn_storage": {
        "base": "t_struct(feeSplits)5237_storage",
        "encoding": "dynamic_array",
        "label": "struct feeSplits[]",
        "numberOfBytes": "32"
      },
      "t_array(t_struct(mintingOffer)5250_storage)dyn_storage": {
        "base": "t_struct(mintingOffer)5250_storage",
        "encoding": "dynamic_array",
        "label": "struct mintingOffer[]",
        "numberOfBytes": "32"
      },
      "t_array(t_uint256)dyn_storage": {
        "base": "t_uint256",
        "encoding": "dynamic_array",
        "label": "uint256[]",
        "numberOfBytes": "32"
      },
      "t_bool": {
        "encoding": "inplace",
        "label": "bool",
        "numberOfBytes": "1"
      },
      "t_bytes32": {
        "encoding": "inplace",
        "label": "bytes32",
        "numberOfBytes": "32"
      },
      "t_mapping(t_address,t_array(t_uint256)dyn_storage)": {
        "encoding": "mapping",
        "key": "t_address",
        "label": "mapping(address => uint256[])",
        "numberOfBytes": "32",
        "value": "t_array(t_uint256)dyn_storage"
      },
      "t_mapping(t_address,t_bool)": {
        "encoding": "mapping",
        "key": "t_address",
        "label": "mapping(address => bool)",
        "numberOfBytes": "32",
        "value": "t_bool"
      },
      "t_mapping(t_address,t_mapping(t_uint256,t_uint256))": {
        "encoding": "mapping",
        "key": "t_address",
        "label": "mapping(address => mapping(uint256 => uint256))",
        "numberOfBytes": "32",
        "value": "t_mapping(t_uint256,t_uint256)"
      },
      "t_mapping(t_bytes32,t_struct(AddressSet)3753_storage)": {
        "encoding": "mapping",
        "key": "t_bytes32",
        "label": "mapping(bytes32 => struct EnumerableSet.AddressSet)",
        "numberOfBytes": "32",
        "value": "t_struct(AddressSet)3753_storage"
      },
      "t_mapping(t_bytes32,t_struct(RoleData)5257_storage)": {
        "encoding": "mapping",
        "key": "t_bytes32",
        "label": "mapping(bytes32 => struct RoleData)",
        "numberOfBytes": "32",
        "value": "t_struct(RoleData)5257_storage"
      },
      "t_mapping(t_bytes32,t_uint256)": {
        "encoding": "mapping",
        "key": "t_bytes32",
        "label": "mapping(bytes32 => uint256)",
        "numberOfBytes": "32",
        "value": "t_uint256"
      },
      "t_mapping(t_uint256,t_uint256)": {
        "encoding": "mapping",
        "key": "t_uint256",
        "label": "mapping(uint256 => uint256)",
        "numberOfBytes": "32",
        "value": "t_uint256"
      },
      "t_struct(AddressSet)3753_storage": {
        "encoding": "inplace",
        "label": "struct EnumerableSet.AddressSet",
        "members": [
          {
            "astId": 3752,
            "contract": "contracts/Marketplace/MarketplaceDiamond.sol:MarketplaceDiamond",
            "label": "_inner",
            "offset": 0,
            "slot": "0",
            "type": "t_struct(Set)3438_storage"
          }
        ],
        "numberOfBytes": "64"
      },
      "t_struct(AppStorage)5293_storage": {
        "encoding": "inplace",
        "label": "struct AppStorage",
        "members": [
          {
            "astId": 5262,
            "contract": "contracts/Marketplace/MarketplaceDiamond.sol:MarketplaceDiamond",
            "label": "_roles",
            "offset": 0,
            "slot": "0",
            "type": "t_mapping(t_bytes32,t_struct(RoleData)5257_storage)"
          },
          {
            "astId": 5267,
            "contract": "contracts/Marketplace/MarketplaceDiamond.sol:MarketplaceDiamond",
            "label": "_roleMembers",
            "offset": 0,
            "slot": "1",
            "type": "t_mapping(t_bytes32,t_struct(AddressSet)3753_storage)"
          },
          {
            "astId": 5269,
            "contract": "contracts/Marketplace/MarketplaceDiamond.sol:MarketplaceDiamond",
            "label": "decimals",
            "offset": 0,
            "slot": "2",
            "type": "t_uint16"
          },
          {
            "astId": 5271,
            "contract": "contracts/Marketplace/MarketplaceDiamond.sol:MarketplaceDiamond",
            "label": "decimalPow",
            "offset": 0,
            "slot": "3",
            "type": "t_uint256"
          },
          {
            "astId": 5273,
            "contract": "contracts/Marketplace/MarketplaceDiamond.sol:MarketplaceDiamond",
            "label": "nodeFee",
            "offset": 0,
            "slot": "4",
            "type": "t_uint256"
          },
          {
            "astId": 5275,
            "contract": "contracts/Marketplace/MarketplaceDiamond.sol:MarketplaceDiamond",
            "label": "treasuryFee",
            "offset": 0,
            "slot": "5",
            "type": "t_uint256"
          },
          {
            "astId": 5277,
            "contract": "contracts/Marketplace/MarketplaceDiamond.sol:MarketplaceDiamond",
            "label": "treasuryAddress",
            "offset": 0,
            "slot": "6",
            "type": "t_address"
          },
          {
            "astId": 5281,
            "contract": "contracts/Marketplace/MarketplaceDiamond.sol:MarketplaceDiamond",
            "label": "mintingOffers",
            "offset": 0,
            "slot": "7",
            "type": "t_array(t_struct(mintingOffer)5250_storage)dyn_storage"
          },
          {
            "astId": 5287,
            "contract": "contracts/Marketplace/MarketplaceDiamond.sol:MarketplaceDiamond",
            "label": "addressToRangeOffer",
            "offset": 0,
            "slot": "8",
            "type": "t_mapping(t_address,t_mapping(t_uint256,t_uint256))"
          },
          {
            "astId": 5292,
            "contract": "contracts/Marketplace/MarketplaceDiamond.sol:MarketplaceDiamond",
            "label": "addressToOffers",
            "offset": 0,
            "slot": "9",
            "type": "t_mapping(t_address,t_array(t_uint256)dyn_storage)"
          }
        ],
        "numberOfBytes": "320"
      },
      "t_struct(RoleData)5257_storage": {
        "encoding": "inplace",
        "label": "struct RoleData",
        "members": [
          {
            "astId": 5254,
            "contract": "contracts/Marketplace/MarketplaceDiamond.sol:MarketplaceDiamond",
            "label": "members",
            "offset": 0,
            "slot": "0",
            "type": "t_mapping(t_address,t_bool)"
          },
          {
            "astId": 5256,
            "contract": "contracts/Marketplace/MarketplaceDiamond.sol:MarketplaceDiamond",
            "label": "adminRole",
            "offset": 0,
            "slot": "1",
            "type": "t_bytes32"
          }
        ],
        "numberOfBytes": "64"
      },
      "t_struct(Set)3438_storage": {
        "encoding": "inplace",
        "label": "struct EnumerableSet.Set",
        "members": [
          {
            "astId": 3433,
            "contract": "contracts/Marketplace/MarketplaceDiamond.sol:MarketplaceDiamond",
            "label": "_values",
            "offset": 0,
            "slot": "0",
            "type": "t_array(t_bytes32)dyn_storage"
          },
          {
            "astId": 3437,
            "contract": "contracts/Marketplace/MarketplaceDiamond.sol:MarketplaceDiamond",
            "label": "_indexes",
            "offset": 0,
            "slot": "1",
            "type": "t_mapping(t_bytes32,t_uint256)"
          }
        ],
        "numberOfBytes": "64"
      },
      "t_struct(feeSplits)5237_storage": {
        "encoding": "inplace",
        "label": "struct feeSplits",
        "members": [
          {
            "astId": 5232,
            "contract": "contracts/Marketplace/MarketplaceDiamond.sol:MarketplaceDiamond",
            "label": "recipient",
            "offset": 0,
            "slot": "0",
            "type": "t_address"
          },
          {
            "astId": 5234,
            "contract": "contracts/Marketplace/MarketplaceDiamond.sol:MarketplaceDiamond",
            "label": "canBeContract",
            "offset": 20,
            "slot": "0",
            "type": "t_bool"
          },
          {
            "astId": 5236,
            "contract": "contracts/Marketplace/MarketplaceDiamond.sol:MarketplaceDiamond",
            "label": "percentage",
            "offset": 0,
            "slot": "1",
            "type": "t_uint256"
          }
        ],
        "numberOfBytes": "64"
      },
      "t_struct(mintingOffer)5250_storage": {
        "encoding": "inplace",
        "label": "struct mintingOffer",
        "members": [
          {
            "astId": 5239,
            "contract": "contracts/Marketplace/MarketplaceDiamond.sol:MarketplaceDiamond",
            "label": "erc721Address",
            "offset": 0,
            "slot": "0",
            "type": "t_address"
          },
          {
            "astId": 5241,
            "contract": "contracts/Marketplace/MarketplaceDiamond.sol:MarketplaceDiamond",
            "label": "nodeAddress",
            "offset": 0,
            "slot": "1",
            "type": "t_address"
          },
          {
            "astId": 5243,
            "contract": "contracts/Marketplace/MarketplaceDiamond.sol:MarketplaceDiamond",
            "label": "rangeIndex",
            "offset": 0,
            "slot": "2",
            "type": "t_uint256"
          },
          {
            "astId": 5247,
            "contract": "contracts/Marketplace/MarketplaceDiamond.sol:MarketplaceDiamond",
            "label": "fees",
            "offset": 0,
            "slot": "3",
            "type": "t_array(t_struct(feeSplits)5237_storage)dyn_storage"
          },
          {
            "astId": 5249,
            "contract": "contracts/Marketplace/MarketplaceDiamond.sol:MarketplaceDiamond",
            "label": "visible",
            "offset": 0,
            "slot": "4",
            "type": "t_bool"
          }
        ],
        "numberOfBytes": "160"
      },
      "t_uint16": {
        "encoding": "inplace",
        "label": "uint16",
        "numberOfBytes": "2"
      },
      "t_uint256": {
        "encoding": "inplace",
        "label": "uint256",
        "numberOfBytes": "32"
      }
    }
  }
}