{
  "address": "0x6B3c06b39Aa1ADe73c625b184326d4837c7a2b64",
  "abi": [
    {
      "anonymous": false,
      "inputs": [
        {
          "indexed": false,
          "internalType": "string",
          "name": "_value",
          "type": "string"
        },
        {
          "indexed": true,
          "internalType": "uint256",
          "name": "_id",
          "type": "uint256"
        }
      ],
      "name": "PermanentURI",
      "type": "event"
    },
    {
      "anonymous": false,
      "inputs": [
        {
          "indexed": true,
          "internalType": "bytes32",
          "name": "role",
          "type": "bytes32"
        },
        {
          "indexed": true,
          "internalType": "bytes32",
          "name": "previousAdminRole",
          "type": "bytes32"
        },
        {
          "indexed": true,
          "internalType": "bytes32",
          "name": "newAdminRole",
          "type": "bytes32"
        }
      ],
      "name": "RoleAdminChanged",
      "type": "event"
    },
    {
      "anonymous": false,
      "inputs": [
        {
          "indexed": true,
          "internalType": "bytes32",
          "name": "role",
          "type": "bytes32"
        },
        {
          "indexed": true,
          "internalType": "address",
          "name": "account",
          "type": "address"
        },
        {
          "indexed": true,
          "internalType": "address",
          "name": "sender",
          "type": "address"
        }
      ],
      "name": "RoleGranted",
      "type": "event"
    },
    {
      "anonymous": false,
      "inputs": [
        {
          "indexed": true,
          "internalType": "bytes32",
          "name": "role",
          "type": "bytes32"
        },
        {
          "indexed": true,
          "internalType": "address",
          "name": "account",
          "type": "address"
        },
        {
          "indexed": true,
          "internalType": "address",
          "name": "sender",
          "type": "address"
        }
      ],
      "name": "RoleRevoked",
      "type": "event"
    },
    {
      "anonymous": false,
      "inputs": [
        {
          "indexed": false,
          "internalType": "string",
          "name": "newURI",
          "type": "string"
        },
        {
          "indexed": false,
          "internalType": "bool",
          "name": "appendTokenIndex",
          "type": "bool"
        },
        {
          "indexed": false,
          "internalType": "string",
          "name": "metadataExtension",
          "type": "string"
        }
      ],
      "name": "UpdatedBaseURI",
      "type": "event"
    },
    {
      "anonymous": false,
      "inputs": [
        {
          "indexed": false,
          "internalType": "string",
          "name": "newURI",
          "type": "string"
        }
      ],
      "name": "UpdatedContractURI",
      "type": "event"
    },
    {
      "anonymous": false,
      "inputs": [
        {
          "indexed": false,
          "internalType": "uint256",
          "name": "productId",
          "type": "uint256"
        },
        {
          "indexed": false,
          "internalType": "string",
          "name": "newURI",
          "type": "string"
        },
        {
          "indexed": false,
          "internalType": "bool",
          "name": "appendTokenIndex",
          "type": "bool"
        },
        {
          "indexed": false,
          "internalType": "string",
          "name": "metadataExtension",
          "type": "string"
        }
      ],
      "name": "UpdatedProductURI",
      "type": "event"
    },
    {
      "anonymous": false,
      "inputs": [
        {
          "indexed": false,
          "internalType": "uint256",
          "name": "rangeId",
          "type": "uint256"
        },
        {
          "indexed": false,
          "internalType": "string",
          "name": "newURI",
          "type": "string"
        },
        {
          "indexed": false,
          "internalType": "bool",
          "name": "appendTokenIndex",
          "type": "bool"
        },
        {
          "indexed": false,
          "internalType": "string",
          "name": "metadataExtension",
          "type": "string"
        }
      ],
      "name": "UpdatedRangeURI",
      "type": "event"
    },
    {
      "anonymous": false,
      "inputs": [
        {
          "indexed": false,
          "internalType": "uint256",
          "name": "tokenId",
          "type": "uint256"
        },
        {
          "indexed": false,
          "internalType": "string",
          "name": "newURI",
          "type": "string"
        }
      ],
      "name": "UpdatedTokenURI",
      "type": "event"
    },
    {
      "anonymous": false,
      "inputs": [
        {
          "indexed": false,
          "internalType": "string",
          "name": "newExtension",
          "type": "string"
        }
      ],
      "name": "UpdatedURIExtension",
      "type": "event"
    },
    {
      "inputs": [],
      "name": "CREATOR",
      "outputs": [
        {
          "internalType": "bytes32",
          "name": "",
          "type": "bytes32"
        }
      ],
      "stateMutability": "view",
      "type": "function"
    },
    {
      "inputs": [],
      "name": "contractURI",
      "outputs": [
        {
          "internalType": "string",
          "name": "",
          "type": "string"
        }
      ],
      "stateMutability": "view",
      "type": "function"
    },
    {
      "inputs": [
        {
          "internalType": "uint256",
          "name": "tokenId",
          "type": "uint256"
        }
      ],
      "name": "freezeMetadata",
      "outputs": [],
      "stateMutability": "nonpayable",
      "type": "function"
    },
    {
      "inputs": [
        {
          "internalType": "bytes32",
          "name": "role",
          "type": "bytes32"
        }
      ],
      "name": "getRoleAdmin",
      "outputs": [
        {
          "internalType": "bytes32",
          "name": "",
          "type": "bytes32"
        }
      ],
      "stateMutability": "view",
      "type": "function"
    },
    {
      "inputs": [
        {
          "internalType": "bytes32",
          "name": "role",
          "type": "bytes32"
        },
        {
          "internalType": "uint256",
          "name": "index",
          "type": "uint256"
        }
      ],
      "name": "getRoleMember",
      "outputs": [
        {
          "internalType": "address",
          "name": "",
          "type": "address"
        }
      ],
      "stateMutability": "view",
      "type": "function"
    },
    {
      "inputs": [
        {
          "internalType": "bytes32",
          "name": "role",
          "type": "bytes32"
        }
      ],
      "name": "getRoleMemberCount",
      "outputs": [
        {
          "internalType": "uint256",
          "name": "",
          "type": "uint256"
        }
      ],
      "stateMutability": "view",
      "type": "function"
    },
    {
      "inputs": [
        {
          "internalType": "bytes32",
          "name": "role",
          "type": "bytes32"
        },
        {
          "internalType": "address",
          "name": "account",
          "type": "address"
        }
      ],
      "name": "grantRole",
      "outputs": [],
      "stateMutability": "nonpayable",
      "type": "function"
    },
    {
      "inputs": [
        {
          "internalType": "bytes32",
          "name": "role",
          "type": "bytes32"
        },
        {
          "internalType": "address",
          "name": "account",
          "type": "address"
        }
      ],
      "name": "hasRole",
      "outputs": [
        {
          "internalType": "bool",
          "name": "",
          "type": "bool"
        }
      ],
      "stateMutability": "view",
      "type": "function"
    },
    {
      "inputs": [
        {
          "internalType": "bytes32",
          "name": "role",
          "type": "bytes32"
        },
        {
          "internalType": "address",
          "name": "account",
          "type": "address"
        }
      ],
      "name": "renounceRole",
      "outputs": [],
      "stateMutability": "nonpayable",
      "type": "function"
    },
    {
      "inputs": [
        {
          "internalType": "bytes32",
          "name": "role",
          "type": "bytes32"
        },
        {
          "internalType": "address",
          "name": "account",
          "type": "address"
        }
      ],
      "name": "revokeRole",
      "outputs": [],
      "stateMutability": "nonpayable",
      "type": "function"
    },
    {
      "inputs": [
        {
          "internalType": "string",
          "name": "newURI",
          "type": "string"
        },
        {
          "internalType": "bool",
          "name": "appendTokenIndexToBaseURI",
          "type": "bool"
        }
      ],
      "name": "setBaseURI",
      "outputs": [],
      "stateMutability": "nonpayable",
      "type": "function"
    },
    {
      "inputs": [
        {
          "internalType": "uint256",
          "name": "productId",
          "type": "uint256"
        },
        {
          "internalType": "string",
          "name": "newURI",
          "type": "string"
        },
        {
          "internalType": "bool",
          "name": "appendTokenIndexToProductURI",
          "type": "bool"
        }
      ],
      "name": "setCollectionURI",
      "outputs": [],
      "stateMutability": "nonpayable",
      "type": "function"
    },
    {
      "inputs": [
        {
          "internalType": "string",
          "name": "newURI",
          "type": "string"
        }
      ],
      "name": "setContractURI",
      "outputs": [],
      "stateMutability": "nonpayable",
      "type": "function"
    },
    {
      "inputs": [
        {
          "internalType": "string",
          "name": "extension",
          "type": "string"
        }
      ],
      "name": "setMetadataExtension",
      "outputs": [],
      "stateMutability": "nonpayable",
      "type": "function"
    },
    {
      "inputs": [
        {
          "internalType": "uint256",
          "name": "rangeId",
          "type": "uint256"
        },
        {
          "internalType": "string",
          "name": "newURI",
          "type": "string"
        },
        {
          "internalType": "bool",
          "name": "appendTokenIndex",
          "type": "bool"
        }
      ],
      "name": "setRangeURI",
      "outputs": [],
      "stateMutability": "nonpayable",
      "type": "function"
    },
    {
      "inputs": [
        {
          "internalType": "uint256",
          "name": "tokenId",
          "type": "uint256"
        },
        {
          "internalType": "string",
          "name": "newURI",
          "type": "string"
        }
      ],
      "name": "setUniqueURI",
      "outputs": [],
      "stateMutability": "nonpayable",
      "type": "function"
    },
    {
      "inputs": [
        {
          "internalType": "uint256[]",
          "name": "tokenIds",
          "type": "uint256[]"
        },
        {
          "internalType": "string[]",
          "name": "newURIs",
          "type": "string[]"
        }
      ],
      "name": "setUniqueURIBatch",
      "outputs": [],
      "stateMutability": "nonpayable",
      "type": "function"
    },
    {
      "inputs": [
        {
          "internalType": "uint256",
          "name": "token",
          "type": "uint256"
        }
      ],
      "name": "tokenToCollectionIndex",
      "outputs": [
        {
          "internalType": "uint256",
          "name": "tokenIndex",
          "type": "uint256"
        }
      ],
      "stateMutability": "view",
      "type": "function"
    },
    {
      "inputs": [
        {
          "internalType": "uint256",
          "name": "tokenId",
          "type": "uint256"
        }
      ],
      "name": "tokenURI",
      "outputs": [
        {
          "internalType": "string",
          "name": "",
          "type": "string"
        }
      ],
      "stateMutability": "view",
      "type": "function"
    }
  ],
  "transactionHash": "0xc466dc3478248f17d336ae884a7d995d825c6dd89b6b21c94d5854295a59b239",
  "args": [],
  "numDeployments": 1,
  "solcInputHash": "879d7dc614fda1753afdda4cb397ed7d",
  "bytecode": "0x608060405234801561001057600080fd5b50611b3b806100206000396000f3fe608060405234801561001057600080fd5b50600436106101215760003560e01c80639f6350e6116100ad578063ca15c87311610071578063ca15c8731461028a578063d547741f1461029d578063d6215ace146102b0578063e4fbb609146102c3578063e8a3d485146102d857600080fd5b80639f6350e61461021e578063ab9aae3514610231578063b64b21ca14610244578063c1d78b4a14610257578063c87b56dd1461026a57600080fd5b80634dcf6ad6116100f45780634dcf6ad61461019757806381f460ef146101aa5780639010d07c146101bd57806391d14854146101e8578063938e3d7b1461020b57600080fd5b80631c899d1a14610126578063248a9ca31461013b5780632f2ff15d1461017157806336568abe14610184575b600080fd5b61013961013436600461133e565b6102e0565b005b61015e61014936600461138a565b6000908152600a602052604090206001015490565b6040519081526020015b60405180910390f35b61013961017f3660046113a3565b610354565b6101396101923660046113a3565b61037f565b6101396101a536600461138a565b610402565b6101396101b83660046113f4565b61045f565b6101d06101cb366004611452565b6104f4565b6040516001600160a01b039091168152602001610168565b6101fb6101f63660046113a3565b610515565b6040519015158152602001610168565b610139610219366004611474565b610540565b61013961022c366004611474565b6105a5565b61015e61023f36600461138a565b61068b565b6101396102523660046114b6565b6106cc565b61013961026536600461154f565b610738565b61027d61027836600461138a565b61082b565b60405161016891906115df565b61015e61029836600461138a565b610b71565b6101396102ab3660046113a3565b610b88565b6101396102be3660046113f4565b610bae565b61015e600080516020611ae683398151915281565b61027d610c34565b600080516020611ae68339815191526102f98133610cc9565b60008481526012602052604090206103128385836116a8565b507faab063d4691f636507767c2040fbab0b0e00a684d66a2f9640653ed5e7b859f984848460405161034693929190611792565b60405180910390a150505050565b6000828152600a60205260409020600101546103708133610cc9565b61037a8383610d2d565b505050565b6001600160a01b03811633146103f45760405162461bcd60e51b815260206004820152602f60248201527f416363657373436f6e74726f6c3a2063616e206f6e6c792072656e6f756e636560448201526e103937b632b9903337b91039b2b63360891b60648201526084015b60405180910390fd5b6103fe8282610dc7565b5050565b600080516020611ae683398151915261041b8133610cc9565b817fa109ba539900bf1b633f956d63c96fc89b814c7287f7aa50a9216d0b556572076104468461082b565b60405161045391906115df565b60405180910390a25050565b600080516020611ae68339815191526104788133610cc9565b6000858152601a602052604090206104918486836116a8565b506000858152601b602052604090819020805460ff1916841515179055517f2bb1ada610787986fd4521b4954a78d4f238f7bca767c926c6f07d999a9cda43906104e5908790879087908790601c90611832565b60405180910390a15050505050565b6000828152600b6020526040812061050c9083610e42565b90505b92915050565b6000918252600a602090815260408084206001600160a01b0393909316845291905290205460ff1690565b600080516020611ae68339815191526105598133610cc9565b60176105668385836116a8565b507f64729fba330f29cb50d748098a4dff25d203b0c55833653113fb5e80bcbd16c18383604051610598929190611872565b60405180910390a1505050565b600080516020611ae68339815191526105be8133610cc9565b828260008181106105d1576105d161188e565b9050013560f81c60f81b6001600160f81b031916601760f91b1461064c5760405162461bcd60e51b815260206004820152602c60248201527f52414952204552433732313a20457874656e73696f6e206d757374207374617260448201526b742077697468206120272e2760a01b60648201526084016103eb565b601c6106598385836116a8565b506040517faa320816703c301a5fd8413568c3c1973befd093aa334d16a2414f0019b0f3da9061059890601c906118a4565b600081815260106020526040812054600e805490919081106106af576106af61188e565b9060005260206000209060050201600001548261050f91906118cd565b600080516020611ae68339815191526106e58133610cc9565b600c6106f28486836116a8565b506015805460ff19168315151790556040517f5a46dbcba74fa6a037f659c582371f45be00bed8b34d9edc9ee5ef9eb2571d9d9061034690869086908690601c906118e0565b600080516020611ae68339815191526107518133610cc9565b8382146107c65760405162461bcd60e51b815260206004820152603b60248201527f52414952204552433732313a20546f6b656e2049447320616e6420555249732060448201527f73686f756c642068617665207468652073616d65206c656e677468000000000060648201526084016103eb565b60005b84811015610823576108118686838181106107e6576107e661188e565b905060200201358585848181106107ff576107ff61188e565b90506020028101906101349190611919565b8061081b81611960565b9150506107c9565b505050505050565b60008181526012602052604081208054606092919061084990611628565b80601f016020809104026020016040519081016040528092919081815260200182805461087590611628565b80156108c25780601f10610897576101008083540402835291602001916108c2565b820191906000526020600020905b8154815290600101906020018083116108a557829003601f168201915b505050505090506000815111156108d95792915050565b6000838152601160209081526040808320548352601a909152902080546108ff90611628565b80601f016020809104026020016040519081016040528092919081815260200182805461092b90611628565b80156109785780601f1061094d57610100808354040283529160200191610978565b820191906000526020600020905b81548152906001019060200180831161095b57829003601f168201915b505050505090506000815111156109ea576000838152601160209081526040808320548352601b90915290205460ff161561050f57806109bf6109ba8561068b565b610e4e565b6040516109d3929190601c90602001611979565b604051602081830303815290604052915050919050565b6000838152601060209081526040808320548352601390915290208054610a1090611628565b80601f0160208091040260200160405190810160405280929190818152602001828054610a3c90611628565b8015610a895780601f10610a5e57610100808354040283529160200191610a89565b820191906000526020600020905b815481529060010190602001808311610a6c57829003601f168201915b50505050509050600081511115610acb576000838152601060209081526040808320548352601490915290205460ff161561050f57806109bf6109ba8561068b565b600c8054610ad890611628565b80601f0160208091040260200160405190810160405280929190818152602001828054610b0490611628565b8015610b515780601f10610b2657610100808354040283529160200191610b51565b820191906000526020600020905b815481529060010190602001808311610b3457829003601f168201915b5050601554939450505060ff90911615905061050f57806109bf84610e4e565b6000818152600b6020526040812061050f90610ee1565b6000828152600a6020526040902060010154610ba48133610cc9565b61037a8383610dc7565b600080516020611ae6833981519152610bc78133610cc9565b6000858152601360205260409020610be08486836116a8565b5060008581526014602052604090819020805460ff1916841515179055517ff143691bfd54372ac96096580c7ac8fa560f8c1b3c770db4f16eb1197c8d2f43906104e5908790879087908790601c90611832565b606060006017018054610c4690611628565b80601f0160208091040260200160405190810160405280929190818152602001828054610c7290611628565b8015610cbf5780601f10610c9457610100808354040283529160200191610cbf565b820191906000526020600020905b815481529060010190602001808311610ca257829003601f168201915b5050505050905090565b610cd38282610515565b6103fe57610ceb816001600160a01b03166014610eeb565b610cf6836020610eeb565b604051602001610d07929190611a19565b60408051601f198184030181529082905262461bcd60e51b82526103eb916004016115df565b610d378282610515565b6103fe576000828152600a602090815260408083206001600160a01b03851684529091529020805460ff19166001179055610d6f3390565b6001600160a01b0316816001600160a01b0316837f2f8788117e7eff1d82e926ec794901d17c78024a50270940304540a733656f0d60405160405180910390a46000828152600b6020526040902061037a9082611087565b610dd18282610515565b156103fe576000828152600a602090815260408083206001600160a01b0385168085529252808320805460ff1916905551339285917ff6391f5c32d9c69d2a47ea670b442974b53935d1edc7fd64eb21e047a839171b9190a46000828152600b6020526040902061037a908261109c565b600061050c83836110b1565b60606000610e5b836110db565b600101905060008167ffffffffffffffff811115610e7b57610e7b611612565b6040519080825280601f01601f191660200182016040528015610ea5576020820181803683370190505b5090508181016020015b600019016f181899199a1a9b1b9c1cb0b131b232b360811b600a86061a8153600a8504945084610eaf57509392505050565b600061050f825490565b60606000610efa836002611a8e565b610f05906002611aa5565b67ffffffffffffffff811115610f1d57610f1d611612565b6040519080825280601f01601f191660200182016040528015610f47576020820181803683370190505b509050600360fc1b81600081518110610f6257610f6261188e565b60200101906001600160f81b031916908160001a905350600f60fb1b81600181518110610f9157610f9161188e565b60200101906001600160f81b031916908160001a9053506000610fb5846002611a8e565b610fc0906001611aa5565b90505b6001811115611038576f181899199a1a9b1b9c1cb0b131b232b360811b85600f1660108110610ff457610ff461188e565b1a60f81b82828151811061100a5761100a61188e565b60200101906001600160f81b031916908160001a90535060049490941c9361103181611ab8565b9050610fc3565b50831561050c5760405162461bcd60e51b815260206004820181905260248201527f537472696e67733a20686578206c656e67746820696e73756666696369656e7460448201526064016103eb565b600061050c836001600160a01b0384166111b3565b600061050c836001600160a01b038416611202565b60008260000182815481106110c8576110c861188e565b9060005260206000200154905092915050565b60008072184f03e93ff9f4daa797ed6e38ed64bf6a1f0160401b831061111a5772184f03e93ff9f4daa797ed6e38ed64bf6a1f0160401b830492506040015b6d04ee2d6d415b85acef81000000008310611146576d04ee2d6d415b85acef8100000000830492506020015b662386f26fc10000831061116457662386f26fc10000830492506010015b6305f5e100831061117c576305f5e100830492506008015b612710831061119057612710830492506004015b606483106111a2576064830492506002015b600a831061050f5760010192915050565b60008181526001830160205260408120546111fa5750815460018181018455600084815260208082209093018490558454848252828601909352604090209190915561050f565b50600061050f565b600081815260018301602052604081205480156112eb5760006112266001836118cd565b855490915060009061123a906001906118cd565b905081811461129f57600086600001828154811061125a5761125a61188e565b906000526020600020015490508087600001848154811061127d5761127d61188e565b6000918252602080832090910192909255918252600188019052604090208390555b85548690806112b0576112b0611acf565b60019003818190600052602060002001600090559055856001016000868152602001908152602001600020600090556001935050505061050f565b600091505061050f565b60008083601f84011261130757600080fd5b50813567ffffffffffffffff81111561131f57600080fd5b60208301915083602082850101111561133757600080fd5b9250929050565b60008060006040848603121561135357600080fd5b83359250602084013567ffffffffffffffff81111561137157600080fd5b61137d868287016112f5565b9497909650939450505050565b60006020828403121561139c57600080fd5b5035919050565b600080604083850312156113b657600080fd5b8235915060208301356001600160a01b03811681146113d457600080fd5b809150509250929050565b803580151581146113ef57600080fd5b919050565b6000806000806060858703121561140a57600080fd5b84359350602085013567ffffffffffffffff81111561142857600080fd5b611434878288016112f5565b90945092506114479050604086016113df565b905092959194509250565b6000806040838503121561146557600080fd5b50508035926020909101359150565b6000806020838503121561148757600080fd5b823567ffffffffffffffff81111561149e57600080fd5b6114aa858286016112f5565b90969095509350505050565b6000806000604084860312156114cb57600080fd5b833567ffffffffffffffff8111156114e257600080fd5b6114ee868287016112f5565b90945092506115019050602085016113df565b90509250925092565b60008083601f84011261151c57600080fd5b50813567ffffffffffffffff81111561153457600080fd5b6020830191508360208260051b850101111561133757600080fd5b6000806000806040858703121561156557600080fd5b843567ffffffffffffffff8082111561157d57600080fd5b6115898883890161150a565b909650945060208701359150808211156115a257600080fd5b506115af8782880161150a565b95989497509550505050565b60005b838110156115d65781810151838201526020016115be565b50506000910152565b60208152600082518060208401526115fe8160408501602087016115bb565b601f01601f19169190910160400192915050565b634e487b7160e01b600052604160045260246000fd5b600181811c9082168061163c57607f821691505b60208210810361165c57634e487b7160e01b600052602260045260246000fd5b50919050565b601f82111561037a57600081815260208120601f850160051c810160208610156116895750805b601f850160051c820191505b8181101561082357828155600101611695565b67ffffffffffffffff8311156116c0576116c0611612565b6116d4836116ce8354611628565b83611662565b6000601f84116001811461170857600085156116f05750838201355b600019600387901b1c1916600186901b178355611762565b600083815260209020601f19861690835b828110156117395786850135825560209485019460019092019101611719565b50868210156117565760001960f88860031b161c19848701351681555b505060018560011b0183555b5050505050565b81835281816020850137506000828201602090810191909152601f909101601f19169091010190565b8381526040602082015260006117ac604083018486611769565b95945050505050565b600081546117c281611628565b8085526020600183811680156117df57600181146117f957611827565b60ff1985168884015283151560051b880183019550611827565b866000528260002060005b8581101561181f5781548a8201860152908301908401611804565b890184019650505b505050505092915050565b85815260806020820152600061184c608083018688611769565b8415156040840152828103606084015261186681856117b5565b98975050505050505050565b602081526000611886602083018486611769565b949350505050565b634e487b7160e01b600052603260045260246000fd5b60208152600061050c60208301846117b5565b634e487b7160e01b600052601160045260246000fd5b8181038181111561050f5761050f6118b7565b6060815260006118f4606083018688611769565b8415156020840152828103604084015261190e81856117b5565b979650505050505050565b6000808335601e1984360301811261193057600080fd5b83018035915067ffffffffffffffff82111561194b57600080fd5b60200191503681900382131561133757600080fd5b600060018201611972576119726118b7565b5060010190565b60008451602061198c8285838a016115bb565b85519184019161199f8184848a016115bb565b85549201916000906119b081611628565b600182811680156119c857600181146119dd57611a09565b60ff1984168752821515830287019450611a09565b896000528560002060005b84811015611a01578154898201529083019087016119e8565b505082870194505b50929a9950505050505050505050565b7f416363657373436f6e74726f6c3a206163636f756e7420000000000000000000815260008351611a518160178501602088016115bb565b7001034b99036b4b9b9b4b733903937b6329607d1b6017918401918201528351611a828160288401602088016115bb565b01602801949350505050565b808202811582820484141761050f5761050f6118b7565b8082018082111561050f5761050f6118b7565b600081611ac757611ac76118b7565b506000190190565b634e487b7160e01b600052603160045260246000fdfe3c2519c4487d47714872f92cf90a50c25f5deaec2789dc2a497b1272df611db6a2646970667358221220fe99f596b7b9c7ded9d072ef04c5419801673f0570c270240f11bb9d8c69eba664736f6c63430008130033",
  "devdoc": {
    "author": "Juan M. Sanchez M.",
    "details": "Notice that this contract is inheriting from AccessControlAppStorageEnumerable721",
    "events": {
      "RoleAdminChanged(bytes32,bytes32,bytes32)": {
        "params": {
          "newAdminRole": "contains the new status of the role",
          "previousAdminRole": "contains the previous status of the role",
          "role": "Contains the role we want to update"
        }
      },
      "RoleGranted(bytes32,address,address)": {
        "params": {
          "account": "contains the address that we want to grant the role",
          "role": "Contains the role we want to update",
          "sender": "contains the address that is changing the role of the account"
        }
      },
      "RoleRevoked(bytes32,address,address)": {
        "params": {
          "account": "contains the address that we want to revoke the role",
          "role": "Contains the role we want to update",
          "sender": "contains the address that is changing the role of the account"
        }
      },
      "UpdatedBaseURI(string,bool,string)": {
        "params": {
          "appendTokenIndex": "Contains the index of the tokens appended to the URI",
          "metadataExtension": "File extension (if exists)",
          "newURI": "Contains the new  base identifier for all the tokens"
        }
      },
      "UpdatedContractURI(string)": {
        "params": {
          "newURI": "Contains the new identifier for the contract "
        }
      },
      "UpdatedProductURI(uint256,string,bool,string)": {
        "params": {
          "appendTokenIndex": "Contains the index of the token appended to the URI",
          "metadataExtension": "File extension (if exists)",
          "newURI": "Contains the new identifier for the product",
          "productId": "Contains the index of the product to change"
        }
      },
      "UpdatedRangeURI(uint256,string,bool,string)": {
        "params": {
          "appendTokenIndex": "Contains the index of the token appended to the URI",
          "metadataExtension": "File extension (if exists)",
          "newURI": "Contains the new identifier for the product",
          "rangeId": "Contains the index of the product to change"
        }
      },
      "UpdatedTokenURI(uint256,string)": {
        "params": {
          "newURI": "Contains the new identifier for the token",
          "tokenId": "Contains the index of the token appended to the URI"
        }
      },
      "UpdatedURIExtension(string)": {
        "details": "It will be appended ONLY if the token ID has to also be appended",
        "params": {
          "newExtension": "The new extension for all the URIs"
        }
      }
    },
    "kind": "dev",
    "methods": {
      "contractURI()": {
        "returns": {
          "_0": "string with the URI of the contract "
        }
      },
      "freezeMetadata(uint256)": {
        "details": "This function is only available to an account with a `CREATOR` role",
        "params": {
          "tokenId": "Token Index that will be given an URI"
        }
      },
      "getRoleAdmin(bytes32)": {
        "params": {
          "role": "Contains the role that we want to verify"
        },
        "returns": {
          "_0": "bytes that indicates if an account has or not an admin role"
        }
      },
      "getRoleMember(bytes32,uint256)": {
        "params": {
          "index": "Contains the indexed position to verify inside the role members list",
          "role": "Contains the role that we want to verify"
        },
        "returns": {
          "_0": "address that indicates the address indexed in that position"
        }
      },
      "getRoleMemberCount(bytes32)": {
        "params": {
          "role": "Contains the role that we want to verify"
        },
        "returns": {
          "_0": "uint256 that indicates the total accounts with that role"
        }
      },
      "grantRole(bytes32,address)": {
        "details": "This function is only available to an account with an Admin role",
        "params": {
          "account": "Contains the account that has the role we want to update",
          "role": "Contains the role that we want to grant"
        }
      },
      "hasRole(bytes32,address)": {
        "params": {
          "account": "Contains the account address thay we want to verify",
          "role": "Contains the role that we want to verify"
        },
        "returns": {
          "_0": "bool that indicates if an account has or not a role"
        }
      },
      "renounceRole(bytes32,address)": {
        "details": "Currently you can only renounce to your own roles",
        "params": {
          "account": "Contains the account that has the role we want to update",
          "role": "Contains the role to remove from our account"
        }
      },
      "revokeRole(bytes32,address)": {
        "details": "This function is only available to an account with an Admin role",
        "params": {
          "account": "Contains the account that has the role we want to update",
          "role": "Contains the role that we want to revoke"
        }
      },
      "setBaseURI(string,bool)": {
        "details": "This function is only available to an account with a `CREATOR` roleCan be overriden by the specific token URI",
        "params": {
          "appendTokenIndexToBaseURI": "URI to be used",
          "newURI": "URI to be used"
        }
      },
      "setCollectionURI(uint256,string,bool)": {
        "details": "This function is only available to an account with a `CREATOR` roleEmits an event so there's provenance",
        "params": {
          "appendTokenIndexToProductURI": "If true, it will append the token index to the URI",
          "newURI": "New URI to be given",
          "productId": "Token Index that will be given an URI"
        }
      },
      "setContractURI(string)": {
        "details": "This function is only available to an account with a `CREATOR` role",
        "params": {
          "newURI": "New URI to be given"
        }
      },
      "setMetadataExtension(string)": {
        "details": "Must include the . before the extension",
        "params": {
          "extension": "Extension to be added at the end of all contract wide tokens"
        }
      },
      "setRangeURI(uint256,string,bool)": {
        "details": "Emits an event so there's provenance",
        "params": {
          "appendTokenIndex": "Flag to append the token index at the end of the new URI",
          "newURI": "New URI to be given",
          "rangeId": "Token Index that will be given an URI"
        }
      },
      "setUniqueURI(uint256,string)": {
        "details": "This function is only available to an account with a `CREATOR` roleEmits an event so there's provenance",
        "params": {
          "newURI": "New URI to be given",
          "tokenId": "Token Index that will be given an URI"
        }
      },
      "setUniqueURIBatch(uint256[],string[])": {
        "details": "This function is only available to an account with a `CREATOR` roleUses the single function so it also emits an eventThis function requires that all the tokens have a corresponding URI",
        "params": {
          "newURIs": "New URIs to be set",
          "tokenIds": "Token Indexes that will be given an URI"
        }
      },
      "tokenToCollectionIndex(uint256)": {
        "params": {
          "token": "Token ID to find"
        },
        "returns": {
          "tokenIndex": "which contains the corresponding token index"
        }
      },
      "tokenURI(uint256)": {
        "details": "Will return unique token URI or product URI or contract URI",
        "params": {
          "tokenId": "Token Index to look for"
        },
        "returns": {
          "_0": "string with the URI of the toke that we are using"
        }
      }
    },
    "title": "RAIR Metadata facet contract",
    "version": 1
  },
  "userdoc": {
    "events": {
      "RoleAdminChanged(bytes32,bytes32,bytes32)": {
        "notice": "This event stores in the blockchain when we change an admin role"
      },
      "RoleGranted(bytes32,address,address)": {
        "notice": "This event stores in the blockchain when we grant a role"
      },
      "RoleRevoked(bytes32,address,address)": {
        "notice": "This event stores in the blockchain when we revoke a role"
      },
      "UpdatedBaseURI(string,bool,string)": {
        "notice": "This event stores in the blockchain when the base code of all the tokens has an update in its URI"
      },
      "UpdatedContractURI(string)": {
        "notice": "This event stores in the blockchain when a contract has a change in its URI"
      },
      "UpdatedProductURI(uint256,string,bool,string)": {
        "notice": "This event stores in the blockchain when a product has a change in its URI"
      },
      "UpdatedRangeURI(uint256,string,bool,string)": {
        "notice": "This event stores in the blockchain when a range has a change in its URI"
      },
      "UpdatedTokenURI(uint256,string)": {
        "notice": "This event stores in the blockchain when a token has a change in its URI"
      },
      "UpdatedURIExtension(string)": {
        "notice": "This event informs the new extension all metadata URIs will have appended at the end"
      }
    },
    "kind": "user",
    "methods": {
      "contractURI()": {
        "notice": "This function allow us to see the current URI of the contract"
      },
      "freezeMetadata(uint256)": {
        "notice": "This function use OpenSea's to freeze the metadata"
      },
      "getRoleAdmin(bytes32)": {
        "notice": "Allow us to check the admin role that contains a role"
      },
      "getRoleMember(bytes32,uint256)": {
        "notice": "Allow us to check the address of an indexed position for the role list"
      },
      "getRoleMemberCount(bytes32)": {
        "notice": "Allow us to check total members that has an selected role"
      },
      "grantRole(bytes32,address)": {
        "notice": "Allow us to grant a role to an account"
      },
      "hasRole(bytes32,address)": {
        "notice": "Allow us to check the if and account has a selected role"
      },
      "renounceRole(bytes32,address)": {
        "notice": "Allow us to renounce to a role"
      },
      "revokeRole(bytes32,address)": {
        "notice": "Allow us to revoke a role to an account"
      },
      "setBaseURI(string,bool)": {
        "notice": "Sets the Base URI for ALL tokens"
      },
      "setCollectionURI(uint256,string,bool)": {
        "notice": "Gives an individual token an unique URI"
      },
      "setContractURI(string)": {
        "notice": "This function allow us to set a new contract URI"
      },
      "setMetadataExtension(string)": {
        "notice": "Updates the metadata extension added at the end of all tokens"
      },
      "setRangeURI(uint256,string,bool)": {
        "notice": "Gives all tokens within a range a specific URI"
      },
      "setUniqueURI(uint256,string)": {
        "notice": "Gives an individual token an unique URI"
      },
      "setUniqueURIBatch(uint256[],string[])": {
        "notice": "Updates the unique URI of all the tokens, but in a single transaction"
      },
      "tokenToCollectionIndex(uint256)": {
        "notice": "Returns the token index inside the product"
      },
      "tokenURI(uint256)": {
        "notice": "Returns a token's URI"
      }
    },
    "notice": "You can use this contract to administrate the metadata asociated to the Rair facet",
    "version": 1
  },
  "storageLayout": {
    "storage": [
      {
        "astId": 10261,
        "contract": "contracts/tokens/RAIR Token Facets/RAIRMetadataFacet.sol:RAIRMetadataFacet",
        "label": "s",
        "offset": 0,
        "slot": "0",
        "type": "t_struct(AppStorage721)10245_storage"
      }
    ],
    "types": {
      "t_address": {
        "encoding": "inplace",
        "label": "address",
        "numberOfBytes": "20"
      },
      "t_array(t_bytes32)dyn_storage": {
        "base": "t_bytes32",
        "encoding": "dynamic_array",
        "label": "bytes32[]",
        "numberOfBytes": "32"
      },
      "t_array(t_struct(product)10134_storage)dyn_storage": {
        "base": "t_struct(product)10134_storage",
        "encoding": "dynamic_array",
        "label": "struct product[]",
        "numberOfBytes": "32"
      },
      "t_array(t_struct(range)10122_storage)dyn_storage": {
        "base": "t_struct(range)10122_storage",
        "encoding": "dynamic_array",
        "label": "struct range[]",
        "numberOfBytes": "32"
      },
      "t_array(t_uint256)dyn_storage": {
        "base": "t_uint256",
        "encoding": "dynamic_array",
        "label": "uint256[]",
        "numberOfBytes": "32"
      },
      "t_bool": {
        "encoding": "inplace",
        "label": "bool",
        "numberOfBytes": "1"
      },
      "t_bytes32": {
        "encoding": "inplace",
        "label": "bytes32",
        "numberOfBytes": "32"
      },
      "t_mapping(t_address,t_bool)": {
        "encoding": "mapping",
        "key": "t_address",
        "label": "mapping(address => bool)",
        "numberOfBytes": "32",
        "value": "t_bool"
      },
      "t_mapping(t_address,t_mapping(t_address,t_bool))": {
        "encoding": "mapping",
        "key": "t_address",
        "label": "mapping(address => mapping(address => bool))",
        "numberOfBytes": "32",
        "value": "t_mapping(t_address,t_bool)"
      },
      "t_mapping(t_address,t_mapping(t_uint256,t_uint256))": {
        "encoding": "mapping",
        "key": "t_address",
        "label": "mapping(address => mapping(uint256 => uint256))",
        "numberOfBytes": "32",
        "value": "t_mapping(t_uint256,t_uint256)"
      },
      "t_mapping(t_address,t_uint256)": {
        "encoding": "mapping",
        "key": "t_address",
        "label": "mapping(address => uint256)",
        "numberOfBytes": "32",
        "value": "t_uint256"
      },
      "t_mapping(t_bytes32,t_struct(AddressSet)3640_storage)": {
        "encoding": "mapping",
        "key": "t_bytes32",
        "label": "mapping(bytes32 => struct EnumerableSet.AddressSet)",
        "numberOfBytes": "32",
        "value": "t_struct(AddressSet)3640_storage"
      },
      "t_mapping(t_bytes32,t_struct(RoleData)7394_storage)": {
        "encoding": "mapping",
        "key": "t_bytes32",
        "label": "mapping(bytes32 => struct RoleData)",
        "numberOfBytes": "32",
        "value": "t_struct(RoleData)7394_storage"
      },
      "t_mapping(t_bytes32,t_uint256)": {
        "encoding": "mapping",
        "key": "t_bytes32",
        "label": "mapping(bytes32 => uint256)",
        "numberOfBytes": "32",
        "value": "t_uint256"
      },
      "t_mapping(t_uint256,t_address)": {
        "encoding": "mapping",
        "key": "t_uint256",
        "label": "mapping(uint256 => address)",
        "numberOfBytes": "32",
        "value": "t_address"
      },
      "t_mapping(t_uint256,t_array(t_uint256)dyn_storage)": {
        "encoding": "mapping",
        "key": "t_uint256",
        "label": "mapping(uint256 => uint256[])",
        "numberOfBytes": "32",
        "value": "t_array(t_uint256)dyn_storage"
      },
      "t_mapping(t_uint256,t_bool)": {
        "encoding": "mapping",
        "key": "t_uint256",
        "label": "mapping(uint256 => bool)",
        "numberOfBytes": "32",
        "value": "t_bool"
      },
      "t_mapping(t_uint256,t_string_storage)": {
        "encoding": "mapping",
        "key": "t_uint256",
        "label": "mapping(uint256 => string)",
        "numberOfBytes": "32",
        "value": "t_string_storage"
      },
      "t_mapping(t_uint256,t_uint256)": {
        "encoding": "mapping",
        "key": "t_uint256",
        "label": "mapping(uint256 => uint256)",
        "numberOfBytes": "32",
        "value": "t_uint256"
      },
      "t_string_storage": {
        "encoding": "bytes",
        "label": "string",
        "numberOfBytes": "32"
      },
      "t_struct(AddressSet)3640_storage": {
        "encoding": "inplace",
        "label": "struct EnumerableSet.AddressSet",
        "members": [
          {
            "astId": 3639,
            "contract": "contracts/tokens/RAIR Token Facets/RAIRMetadataFacet.sol:RAIRMetadataFacet",
            "label": "_inner",
            "offset": 0,
            "slot": "0",
            "type": "t_struct(Set)3325_storage"
          }
        ],
        "numberOfBytes": "64"
      },
      "t_struct(AppStorage721)10245_storage": {
        "encoding": "inplace",
        "label": "struct AppStorage721",
        "members": [
          {
            "astId": 10136,
            "contract": "contracts/tokens/RAIR Token Facets/RAIRMetadataFacet.sol:RAIRMetadataFacet",
            "label": "_name",
            "offset": 0,
            "slot": "0",
            "type": "t_string_storage"
          },
          {
            "astId": 10138,
            "contract": "contracts/tokens/RAIR Token Facets/RAIRMetadataFacet.sol:RAIRMetadataFacet",
            "label": "_symbol",
            "offset": 0,
            "slot": "1",
            "type": "t_string_storage"
          },
          {
            "astId": 10142,
            "contract": "contracts/tokens/RAIR Token Facets/RAIRMetadataFacet.sol:RAIRMetadataFacet",
            "label": "_owners",
            "offset": 0,
            "slot": "2",
            "type": "t_mapping(t_uint256,t_address)"
          },
          {
            "astId": 10146,
            "contract": "contracts/tokens/RAIR Token Facets/RAIRMetadataFacet.sol:RAIRMetadataFacet",
            "label": "_balances",
            "offset": 0,
            "slot": "3",
            "type": "t_mapping(t_address,t_uint256)"
          },
          {
            "astId": 10150,
            "contract": "contracts/tokens/RAIR Token Facets/RAIRMetadataFacet.sol:RAIRMetadataFacet",
            "label": "_tokenApprovals",
            "offset": 0,
            "slot": "4",
            "type": "t_mapping(t_uint256,t_address)"
          },
          {
            "astId": 10156,
            "contract": "contracts/tokens/RAIR Token Facets/RAIRMetadataFacet.sol:RAIRMetadataFacet",
            "label": "_operatorApprovals",
            "offset": 0,
            "slot": "5",
            "type": "t_mapping(t_address,t_mapping(t_address,t_bool))"
          },
          {
            "astId": 10162,
            "contract": "contracts/tokens/RAIR Token Facets/RAIRMetadataFacet.sol:RAIRMetadataFacet",
            "label": "_ownedTokens",
            "offset": 0,
            "slot": "6",
            "type": "t_mapping(t_address,t_mapping(t_uint256,t_uint256))"
          },
          {
            "astId": 10166,
            "contract": "contracts/tokens/RAIR Token Facets/RAIRMetadataFacet.sol:RAIRMetadataFacet",
            "label": "_ownedTokensIndex",
            "offset": 0,
            "slot": "7",
            "type": "t_mapping(t_uint256,t_uint256)"
          },
          {
            "astId": 10169,
            "contract": "contracts/tokens/RAIR Token Facets/RAIRMetadataFacet.sol:RAIRMetadataFacet",
            "label": "_allTokens",
            "offset": 0,
            "slot": "8",
            "type": "t_array(t_uint256)dyn_storage"
          },
          {
            "astId": 10173,
            "contract": "contracts/tokens/RAIR Token Facets/RAIRMetadataFacet.sol:RAIRMetadataFacet",
            "label": "_allTokensIndex",
            "offset": 0,
            "slot": "9",
            "type": "t_mapping(t_uint256,t_uint256)"
          },
          {
            "astId": 10178,
            "contract": "contracts/tokens/RAIR Token Facets/RAIRMetadataFacet.sol:RAIRMetadataFacet",
            "label": "_roles",
            "offset": 0,
            "slot": "10",
            "type": "t_mapping(t_bytes32,t_struct(RoleData)7394_storage)"
          },
          {
            "astId": 10183,
            "contract": "contracts/tokens/RAIR Token Facets/RAIRMetadataFacet.sol:RAIRMetadataFacet",
            "label": "_roleMembers",
            "offset": 0,
            "slot": "11",
            "type": "t_mapping(t_bytes32,t_struct(AddressSet)3640_storage)"
          },
          {
            "astId": 10185,
            "contract": "contracts/tokens/RAIR Token Facets/RAIRMetadataFacet.sol:RAIRMetadataFacet",
            "label": "baseURI",
            "offset": 0,
            "slot": "12",
            "type": "t_string_storage"
          },
          {
            "astId": 10187,
            "contract": "contracts/tokens/RAIR Token Facets/RAIRMetadataFacet.sol:RAIRMetadataFacet",
            "label": "factoryAddress",
            "offset": 0,
            "slot": "13",
            "type": "t_address"
          },
          {
            "astId": 10189,
            "contract": "contracts/tokens/RAIR Token Facets/RAIRMetadataFacet.sol:RAIRMetadataFacet",
            "label": "royaltyFee",
            "offset": 20,
            "slot": "13",
            "type": "t_uint16"
          },
          {
            "astId": 10193,
            "contract": "contracts/tokens/RAIR Token Facets/RAIRMetadataFacet.sol:RAIRMetadataFacet",
            "label": "products",
            "offset": 0,
            "slot": "14",
            "type": "t_array(t_struct(product)10134_storage)dyn_storage"
          },
          {
            "astId": 10197,
            "contract": "contracts/tokens/RAIR Token Facets/RAIRMetadataFacet.sol:RAIRMetadataFacet",
            "label": "ranges",
            "offset": 0,
            "slot": "15",
            "type": "t_array(t_struct(range)10122_storage)dyn_storage"
          },
          {
            "astId": 10201,
            "contract": "contracts/tokens/RAIR Token Facets/RAIRMetadataFacet.sol:RAIRMetadataFacet",
            "label": "tokenToProduct",
            "offset": 0,
            "slot": "16",
            "type": "t_mapping(t_uint256,t_uint256)"
          },
          {
            "astId": 10205,
            "contract": "contracts/tokens/RAIR Token Facets/RAIRMetadataFacet.sol:RAIRMetadataFacet",
            "label": "tokenToRange",
            "offset": 0,
            "slot": "17",
            "type": "t_mapping(t_uint256,t_uint256)"
          },
          {
            "astId": 10209,
            "contract": "contracts/tokens/RAIR Token Facets/RAIRMetadataFacet.sol:RAIRMetadataFacet",
            "label": "uniqueTokenURI",
            "offset": 0,
            "slot": "18",
            "type": "t_mapping(t_uint256,t_string_storage)"
          },
          {
            "astId": 10213,
            "contract": "contracts/tokens/RAIR Token Facets/RAIRMetadataFacet.sol:RAIRMetadataFacet",
            "label": "productURI",
            "offset": 0,
            "slot": "19",
            "type": "t_mapping(t_uint256,t_string_storage)"
          },
          {
            "astId": 10217,
            "contract": "contracts/tokens/RAIR Token Facets/RAIRMetadataFacet.sol:RAIRMetadataFacet",
            "label": "appendTokenIndexToProductURI",
            "offset": 0,
            "slot": "20",
            "type": "t_mapping(t_uint256,t_bool)"
          },
          {
            "astId": 10219,
            "contract": "contracts/tokens/RAIR Token Facets/RAIRMetadataFacet.sol:RAIRMetadataFacet",
            "label": "appendTokenIndexToBaseURI",
            "offset": 0,
            "slot": "21",
            "type": "t_bool"
          },
          {
            "astId": 10224,
            "contract": "contracts/tokens/RAIR Token Facets/RAIRMetadataFacet.sol:RAIRMetadataFacet",
            "label": "tokensByProduct",
            "offset": 0,
            "slot": "22",
            "type": "t_mapping(t_uint256,t_array(t_uint256)dyn_storage)"
          },
          {
            "astId": 10226,
            "contract": "contracts/tokens/RAIR Token Facets/RAIRMetadataFacet.sol:RAIRMetadataFacet",
            "label": "contractMetadataURI",
            "offset": 0,
            "slot": "23",
            "type": "t_string_storage"
          },
          {
            "astId": 10230,
            "contract": "contracts/tokens/RAIR Token Facets/RAIRMetadataFacet.sol:RAIRMetadataFacet",
            "label": "rangeToProduct",
            "offset": 0,
            "slot": "24",
            "type": "t_mapping(t_uint256,t_uint256)"
          },
          {
            "astId": 10234,
            "contract": "contracts/tokens/RAIR Token Facets/RAIRMetadataFacet.sol:RAIRMetadataFacet",
            "label": "_minted",
            "offset": 0,
            "slot": "25",
            "type": "t_mapping(t_uint256,t_bool)"
          },
          {
            "astId": 10238,
            "contract": "contracts/tokens/RAIR Token Facets/RAIRMetadataFacet.sol:RAIRMetadataFacet",
            "label": "rangeURI",
            "offset": 0,
            "slot": "26",
            "type": "t_mapping(t_uint256,t_string_storage)"
          },
          {
            "astId": 10242,
            "contract": "contracts/tokens/RAIR Token Facets/RAIRMetadataFacet.sol:RAIRMetadataFacet",
            "label": "appendTokenIndexToRangeURI",
            "offset": 0,
            "slot": "27",
            "type": "t_mapping(t_uint256,t_bool)"
          },
          {
            "astId": 10244,
            "contract": "contracts/tokens/RAIR Token Facets/RAIRMetadataFacet.sol:RAIRMetadataFacet",
            "label": "_metadataExtension",
            "offset": 0,
            "slot": "28",
            "type": "t_string_storage"
          }
        ],
        "numberOfBytes": "928"
      },
      "t_struct(RoleData)7394_storage": {
        "encoding": "inplace",
        "label": "struct RoleData",
        "members": [
          {
            "astId": 7391,
            "contract": "contracts/tokens/RAIR Token Facets/RAIRMetadataFacet.sol:RAIRMetadataFacet",
            "label": "members",
            "offset": 0,
            "slot": "0",
            "type": "t_mapping(t_address,t_bool)"
          },
          {
            "astId": 7393,
            "contract": "contracts/tokens/RAIR Token Facets/RAIRMetadataFacet.sol:RAIRMetadataFacet",
            "label": "adminRole",
            "offset": 0,
            "slot": "1",
            "type": "t_bytes32"
          }
        ],
        "numberOfBytes": "64"
      },
      "t_struct(Set)3325_storage": {
        "encoding": "inplace",
        "label": "struct EnumerableSet.Set",
        "members": [
          {
            "astId": 3320,
            "contract": "contracts/tokens/RAIR Token Facets/RAIRMetadataFacet.sol:RAIRMetadataFacet",
            "label": "_values",
            "offset": 0,
            "slot": "0",
            "type": "t_array(t_bytes32)dyn_storage"
          },
          {
            "astId": 3324,
            "contract": "contracts/tokens/RAIR Token Facets/RAIRMetadataFacet.sol:RAIRMetadataFacet",
            "label": "_indexes",
            "offset": 0,
            "slot": "1",
            "type": "t_mapping(t_bytes32,t_uint256)"
          }
        ],
        "numberOfBytes": "64"
      },
      "t_struct(product)10134_storage": {
        "encoding": "inplace",
        "label": "struct product",
        "members": [
          {
            "astId": 10124,
            "contract": "contracts/tokens/RAIR Token Facets/RAIRMetadataFacet.sol:RAIRMetadataFacet",
            "label": "startingToken",
            "offset": 0,
            "slot": "0",
            "type": "t_uint256"
          },
          {
            "astId": 10126,
            "contract": "contracts/tokens/RAIR Token Facets/RAIRMetadataFacet.sol:RAIRMetadataFacet",
            "label": "endingToken",
            "offset": 0,
            "slot": "1",
            "type": "t_uint256"
          },
          {
            "astId": 10128,
            "contract": "contracts/tokens/RAIR Token Facets/RAIRMetadataFacet.sol:RAIRMetadataFacet",
            "label": "mintableTokens",
            "offset": 0,
            "slot": "2",
            "type": "t_uint256"
          },
          {
            "astId": 10130,
            "contract": "contracts/tokens/RAIR Token Facets/RAIRMetadataFacet.sol:RAIRMetadataFacet",
            "label": "name",
            "offset": 0,
            "slot": "3",
            "type": "t_string_storage"
          },
          {
            "astId": 10133,
            "contract": "contracts/tokens/RAIR Token Facets/RAIRMetadataFacet.sol:RAIRMetadataFacet",
            "label": "rangeList",
            "offset": 0,
            "slot": "4",
            "type": "t_array(t_uint256)dyn_storage"
          }
        ],
        "numberOfBytes": "160"
      },
      "t_struct(range)10122_storage": {
        "encoding": "inplace",
        "label": "struct range",
        "members": [
          {
            "astId": 10109,
            "contract": "contracts/tokens/RAIR Token Facets/RAIRMetadataFacet.sol:RAIRMetadataFacet",
            "label": "rangeStart",
            "offset": 0,
            "slot": "0",
            "type": "t_uint256"
          },
          {
            "astId": 10111,
            "contract": "contracts/tokens/RAIR Token Facets/RAIRMetadataFacet.sol:RAIRMetadataFacet",
            "label": "rangeEnd",
            "offset": 0,
            "slot": "1",
            "type": "t_uint256"
          },
          {
            "astId": 10113,
            "contract": "contracts/tokens/RAIR Token Facets/RAIRMetadataFacet.sol:RAIRMetadataFacet",
            "label": "tokensAllowed",
            "offset": 0,
            "slot": "2",
            "type": "t_uint256"
          },
          {
            "astId": 10115,
            "contract": "contracts/tokens/RAIR Token Facets/RAIRMetadataFacet.sol:RAIRMetadataFacet",
            "label": "mintableTokens",
            "offset": 0,
            "slot": "3",
            "type": "t_uint256"
          },
          {
            "astId": 10117,
            "contract": "contracts/tokens/RAIR Token Facets/RAIRMetadataFacet.sol:RAIRMetadataFacet",
            "label": "lockedTokens",
            "offset": 0,
            "slot": "4",
            "type": "t_uint256"
          },
          {
            "astId": 10119,
            "contract": "contracts/tokens/RAIR Token Facets/RAIRMetadataFacet.sol:RAIRMetadataFacet",
            "label": "rangePrice",
            "offset": 0,
            "slot": "5",
            "type": "t_uint256"
          },
          {
            "astId": 10121,
            "contract": "contracts/tokens/RAIR Token Facets/RAIRMetadataFacet.sol:RAIRMetadataFacet",
            "label": "rangeName",
            "offset": 0,
            "slot": "6",
            "type": "t_string_storage"
          }
        ],
        "numberOfBytes": "224"
      },
      "t_uint16": {
        "encoding": "inplace",
        "label": "uint16",
        "numberOfBytes": "2"
      },
      "t_uint256": {
        "encoding": "inplace",
        "label": "uint256",
        "numberOfBytes": "32"
      }
    }
  }
}