{
  "address": "0xe2a3210AAA0cB75F6c8CcCD132c48Ce9f73F572E",
  "abi": [
    {
      "anonymous": false,
      "inputs": [
        {
          "indexed": true,
          "internalType": "uint256",
          "name": "collectionIndex",
          "type": "uint256"
        },
        {
          "indexed": false,
          "internalType": "string",
          "name": "collectionName",
          "type": "string"
        },
        {
          "indexed": false,
          "internalType": "uint256",
          "name": "startingToken",
          "type": "uint256"
        },
        {
          "indexed": false,
          "internalType": "uint256",
          "name": "collectionLength",
          "type": "uint256"
        }
      ],
      "name": "CreatedCollection",
      "type": "event"
    },
    {
      "anonymous": false,
      "inputs": [
        {
          "indexed": true,
          "internalType": "bytes32",
          "name": "role",
          "type": "bytes32"
        },
        {
          "indexed": true,
          "internalType": "bytes32",
          "name": "previousAdminRole",
          "type": "bytes32"
        },
        {
          "indexed": true,
          "internalType": "bytes32",
          "name": "newAdminRole",
          "type": "bytes32"
        }
      ],
      "name": "RoleAdminChanged",
      "type": "event"
    },
    {
      "anonymous": false,
      "inputs": [
        {
          "indexed": true,
          "internalType": "bytes32",
          "name": "role",
          "type": "bytes32"
        },
        {
          "indexed": true,
          "internalType": "address",
          "name": "account",
          "type": "address"
        },
        {
          "indexed": true,
          "internalType": "address",
          "name": "sender",
          "type": "address"
        }
      ],
      "name": "RoleGranted",
      "type": "event"
    },
    {
      "anonymous": false,
      "inputs": [
        {
          "indexed": true,
          "internalType": "bytes32",
          "name": "role",
          "type": "bytes32"
        },
        {
          "indexed": true,
          "internalType": "address",
          "name": "account",
          "type": "address"
        },
        {
          "indexed": true,
          "internalType": "address",
          "name": "sender",
          "type": "address"
        }
      ],
      "name": "RoleRevoked",
      "type": "event"
    },
    {
      "inputs": [],
      "name": "CREATOR",
      "outputs": [
        {
          "internalType": "bytes32",
          "name": "",
          "type": "bytes32"
        }
      ],
      "stateMutability": "view",
      "type": "function"
    },
    {
      "inputs": [
        {
          "internalType": "address",
          "name": "owner",
          "type": "address"
        }
      ],
      "name": "balanceOf",
      "outputs": [
        {
          "internalType": "uint256",
          "name": "",
          "type": "uint256"
        }
      ],
      "stateMutability": "view",
      "type": "function"
    },
    {
      "inputs": [
        {
          "internalType": "string",
          "name": "_productName",
          "type": "string"
        },
        {
          "internalType": "uint256",
          "name": "_copies",
          "type": "uint256"
        }
      ],
      "name": "createProduct",
      "outputs": [],
      "stateMutability": "nonpayable",
      "type": "function"
    },
    {
      "inputs": [
        {
          "internalType": "uint256",
          "name": "collectionId",
          "type": "uint256"
        },
        {
          "internalType": "uint256",
          "name": "startingIndex",
          "type": "uint256"
        },
        {
          "internalType": "uint256",
          "name": "endingIndex",
          "type": "uint256"
        }
      ],
      "name": "getNextSequentialIndex",
      "outputs": [
        {
          "internalType": "uint256",
          "name": "nextIndex",
          "type": "uint256"
        }
      ],
      "stateMutability": "view",
      "type": "function"
    },
    {
      "inputs": [],
      "name": "getProductCount",
      "outputs": [
        {
          "internalType": "uint256",
          "name": "",
          "type": "uint256"
        }
      ],
      "stateMutability": "view",
      "type": "function"
    },
    {
      "inputs": [
        {
          "internalType": "uint256",
          "name": "productIndex_",
          "type": "uint256"
        }
      ],
      "name": "getProductInfo",
      "outputs": [
        {
          "components": [
            {
              "internalType": "uint256",
              "name": "startingToken",
              "type": "uint256"
            },
            {
              "internalType": "uint256",
              "name": "endingToken",
              "type": "uint256"
            },
            {
              "internalType": "uint256",
              "name": "mintableTokens",
              "type": "uint256"
            },
            {
              "internalType": "string",
              "name": "name",
              "type": "string"
            },
            {
              "internalType": "uint256[]",
              "name": "rangeList",
              "type": "uint256[]"
            }
          ],
          "internalType": "struct product",
          "name": "",
          "type": "tuple"
        }
      ],
      "stateMutability": "view",
      "type": "function"
    },
    {
      "inputs": [
        {
          "internalType": "bytes32",
          "name": "role",
          "type": "bytes32"
        }
      ],
      "name": "getRoleAdmin",
      "outputs": [
        {
          "internalType": "bytes32",
          "name": "",
          "type": "bytes32"
        }
      ],
      "stateMutability": "view",
      "type": "function"
    },
    {
      "inputs": [
        {
          "internalType": "bytes32",
          "name": "role",
          "type": "bytes32"
        },
        {
          "internalType": "uint256",
          "name": "index",
          "type": "uint256"
        }
      ],
      "name": "getRoleMember",
      "outputs": [
        {
          "internalType": "address",
          "name": "",
          "type": "address"
        }
      ],
      "stateMutability": "view",
      "type": "function"
    },
    {
      "inputs": [
        {
          "internalType": "bytes32",
          "name": "role",
          "type": "bytes32"
        }
      ],
      "name": "getRoleMemberCount",
      "outputs": [
        {
          "internalType": "uint256",
          "name": "",
          "type": "uint256"
        }
      ],
      "stateMutability": "view",
      "type": "function"
    },
    {
      "inputs": [
        {
          "internalType": "bytes32",
          "name": "role",
          "type": "bytes32"
        },
        {
          "internalType": "address",
          "name": "account",
          "type": "address"
        }
      ],
      "name": "grantRole",
      "outputs": [],
      "stateMutability": "nonpayable",
      "type": "function"
    },
    {
      "inputs": [
        {
          "internalType": "bytes32",
          "name": "role",
          "type": "bytes32"
        },
        {
          "internalType": "address",
          "name": "account",
          "type": "address"
        }
      ],
      "name": "hasRole",
      "outputs": [
        {
          "internalType": "bool",
          "name": "",
          "type": "bool"
        }
      ],
      "stateMutability": "view",
      "type": "function"
    },
    {
      "inputs": [
        {
          "internalType": "address",
          "name": "userAddress",
          "type": "address"
        },
        {
          "internalType": "uint256",
          "name": "productIndex",
          "type": "uint256"
        },
        {
          "internalType": "uint256",
          "name": "startingToken",
          "type": "uint256"
        },
        {
          "internalType": "uint256",
          "name": "endingToken",
          "type": "uint256"
        }
      ],
      "name": "hasTokenInProduct",
      "outputs": [
        {
          "internalType": "bool",
          "name": "",
          "type": "bool"
        }
      ],
      "stateMutability": "view",
      "type": "function"
    },
    {
      "inputs": [
        {
          "internalType": "uint256",
          "name": "productIndex",
          "type": "uint256"
        }
      ],
      "name": "mintedTokensInProduct",
      "outputs": [
        {
          "internalType": "uint256",
          "name": "length",
          "type": "uint256"
        }
      ],
      "stateMutability": "view",
      "type": "function"
    },
    {
      "inputs": [
        {
          "internalType": "address",
          "name": "find",
          "type": "address"
        },
        {
          "internalType": "uint256",
          "name": "productIndex",
          "type": "uint256"
        }
      ],
      "name": "ownsTokenInProduct",
      "outputs": [
        {
          "internalType": "bool",
          "name": "",
          "type": "bool"
        }
      ],
      "stateMutability": "view",
      "type": "function"
    },
    {
      "inputs": [
        {
          "internalType": "address",
          "name": "find",
          "type": "address"
        },
        {
          "internalType": "uint256",
          "name": "rangeIndex",
          "type": "uint256"
        }
      ],
      "name": "ownsTokenInRange",
      "outputs": [
        {
          "internalType": "bool",
          "name": "",
          "type": "bool"
        }
      ],
      "stateMutability": "view",
      "type": "function"
    },
    {
      "inputs": [
        {
          "internalType": "uint256",
          "name": "productIndex_",
          "type": "uint256"
        },
        {
          "internalType": "uint256",
          "name": "tokenIndex_",
          "type": "uint256"
        }
      ],
      "name": "productToToken",
      "outputs": [
        {
          "internalType": "uint256",
          "name": "",
          "type": "uint256"
        }
      ],
      "stateMutability": "view",
      "type": "function"
    },
    {
      "inputs": [
        {
          "internalType": "bytes32",
          "name": "role",
          "type": "bytes32"
        },
        {
          "internalType": "address",
          "name": "account",
          "type": "address"
        }
      ],
      "name": "renounceRole",
      "outputs": [],
      "stateMutability": "nonpayable",
      "type": "function"
    },
    {
      "inputs": [
        {
          "internalType": "bytes32",
          "name": "role",
          "type": "bytes32"
        },
        {
          "internalType": "address",
          "name": "account",
          "type": "address"
        }
      ],
      "name": "revokeRole",
      "outputs": [],
      "stateMutability": "nonpayable",
      "type": "function"
    },
    {
      "inputs": [
        {
          "internalType": "uint256",
          "name": "productIndex_",
          "type": "uint256"
        },
        {
          "internalType": "uint256",
          "name": "tokenIndex_",
          "type": "uint256"
        }
      ],
      "name": "tokenByProduct",
      "outputs": [
        {
          "internalType": "uint256",
          "name": "",
          "type": "uint256"
        }
      ],
      "stateMutability": "view",
      "type": "function"
    },
    {
      "inputs": [
        {
          "internalType": "address",
          "name": "owner",
          "type": "address"
        },
        {
          "internalType": "uint256",
          "name": "index",
          "type": "uint256"
        }
      ],
      "name": "tokenOfOwnerByIndex",
      "outputs": [
        {
          "internalType": "uint256",
          "name": "",
          "type": "uint256"
        }
      ],
      "stateMutability": "view",
      "type": "function"
    },
    {
      "inputs": [
        {
          "internalType": "uint256",
          "name": "tokenIndex_",
          "type": "uint256"
        }
      ],
      "name": "tokenToProduct",
      "outputs": [
        {
          "internalType": "uint256",
          "name": "productIndex",
          "type": "uint256"
        },
        {
          "internalType": "uint256",
          "name": "rangeIndex",
          "type": "uint256"
        }
      ],
      "stateMutability": "view",
      "type": "function"
    },
    {
      "inputs": [
        {
          "internalType": "uint256",
          "name": "tokenIndex_",
          "type": "uint256"
        }
      ],
      "name": "tokenToProductIndex",
      "outputs": [
        {
          "internalType": "uint256",
          "name": "",
          "type": "uint256"
        }
      ],
      "stateMutability": "view",
      "type": "function"
    }
  ],
  "transactionHash": "0x532126a1a8e79dbc412d005e7d78198ef31d35dd6a8c764080d059e20c696518",
  "args": [],
  "numDeployments": 1,
  "solcInputHash": "597020f27da0c3a6d99dcb42945d060e",
  "bytecode": "0x608060405234801561001057600080fd5b50611ac7806100206000396000f3fe608060405234801561001057600080fd5b50600436106101425760003560e01c806391d14854116100b8578063ca15c8731161007c578063ca15c873146102d3578063d547741f146102e6578063d76bf566146102f9578063e4fbb60914610321578063e5b8501514610348578063e9300c6c1461035b57600080fd5b806391d14854146102745780639716d10114610287578063971b4cc41461029a578063bda5ec33146102ad578063c00b83c5146102c057600080fd5b80634a348da91161010a5780634a348da9146101db578063586704ea146101e35780636c99dcbf1461020357806370a082311461021657806379a85e6c146102295780639010d07c1461024957600080fd5b8063248a9ca3146101475780632f2ff15d1461017d5780632f745c591461019257806336568abe146101a557806336706b41146101b8575b600080fd5b61016a610155366004611497565b6000908152600a602052604090206001015490565b6040519081526020015b60405180910390f35b61019061018b3660046114cc565b61036e565b005b61016a6101a03660046114f8565b610399565b6101906101b33660046114cc565b610437565b6101cb6101c63660046114f8565b6104b5565b6040519015158152602001610174565b600e5461016a565b61016a6101f1366004611497565b60009081526016602052604090205490565b6101cb610211366004611522565b61051e565b61016a61022436600461155b565b6106fd565b61023c610237366004611497565b610784565b60405161017491906115c6565b61025c61025736600461164c565b610917565b6040516001600160a01b039091168152602001610174565b6101cb6102823660046114cc565b610936565b61016a61029536600461164c565b610961565b61016a6102a836600461164c565b6109ba565b61016a6102bb36600461166e565b610a14565b61016a6102ce366004611497565b610c56565b61016a6102e1366004611497565b610cc7565b6101906102f43660046114cc565b610cde565b61030c610307366004611497565b610d04565b60408051928352602083019190915201610174565b61016a7f3c2519c4487d47714872f92cf90a50c25f5deaec2789dc2a497b1272df611db681565b6101cb6103563660046114f8565b610d58565b6101906103693660046116b0565b610e4a565b6000828152600a602052604090206001015461038a8133610f82565b6103948383610fe6565b505050565b60006103a4836106fd565b821061040b5760405162461bcd60e51b815260206004820152602b60248201527f455243373231456e756d657261626c653a206f776e657220696e646578206f7560448201526a74206f6620626f756e647360a81b60648201526084015b60405180910390fd5b506001600160a01b03821660009081526006602090815260408083208484529091529020545b92915050565b6001600160a01b03811633146104a75760405162461bcd60e51b815260206004820152602f60248201527f416363657373436f6e74726f6c3a2063616e206f6e6c792072656e6f756e636560448201526e103937b632b9903337b91039b2b63360891b6064820152608401610402565b6104b18282611080565b5050565b600e54600090829081106104db5760405162461bcd60e51b815260040161040290611765565b600080600e0184815481106104f2576104f26117ab565b9060005260206000209060050201905061051585826000015483600101546110fb565b95945050505050565b6000806000600e018581548110610537576105376117ab565b90600052602060002090600502016040518060a001604052908160008201548152602001600182015481526020016002820154815260200160038201805461057e906117c1565b80601f01602080910402602001604051908101604052809291908181526020018280546105aa906117c1565b80156105f75780601f106105cc576101008083540402835291602001916105f7565b820191906000526020600020905b8154815290600101906020018083116105da57829003601f168201915b505050505081526020016004820180548060200260200160405190810160405280929190818152602001828054801561064f57602002820191906000526020600020905b81548152602001906001019080831161063b575b505050505081525050905080602001516000146106ef5760005b610672876106fd565b8110156106ed5760006106858883610399565b600081815260106020526040902054909150871480156106b1575082516106ad90879061180b565b8110155b80156106c9575082516106c590869061180b565b8111155b156106da57600193505050506106f5565b50806106e58161181e565b915050610669565b505b60009150505b949350505050565b60006001600160a01b0382166107685760405162461bcd60e51b815260206004820152602a60248201527f4552433732313a2062616c616e636520717565727920666f7220746865207a65604482015269726f206164647265737360b01b6064820152608401610402565b506001600160a01b031660009081526003602052604090205490565b6107b66040518060a0016040528060008152602001600081526020016000815260200160608152602001606081525090565b600e54829081106107d95760405162461bcd60e51b815260040161040290611765565b600e8054849081106107ed576107ed6117ab565b90600052602060002090600502016040518060a0016040529081600082015481526020016001820154815260200160028201548152602001600382018054610834906117c1565b80601f0160208091040260200160405190810160405280929190818152602001828054610860906117c1565b80156108ad5780601f10610882576101008083540402835291602001916108ad565b820191906000526020600020905b81548152906001019060200180831161089057829003601f168201915b505050505081526020016004820180548060200260200160405190810160405280929190818152602001828054801561090557602002820191906000526020600020905b8154815260200190600101908083116108f1575b50505050508152505091505b50919050565b6000828152600b6020526040812061092f908361114f565b9392505050565b6000918252600a602090815260408084206001600160a01b0393909316845291905290205460ff1690565b600e54600090839081106109875760405162461bcd60e51b815260040161040290611765565b826000600e01858154811061099e5761099e6117ab565b9060005260206000209060050201600001546106f5919061180b565b600e54600090839081106109e05760405162461bcd60e51b815260040161040290611765565b6000848152601660205260409020805484908110610a0057610a006117ab565b906000526020600020015491505092915050565b600e5460009084908110610a3a5760405162461bcd60e51b815260040161040290611765565b600080600e018681548110610a5157610a516117ab565b90600052602060002090600502016040518060a0016040529081600082015481526020016001820154815260200160028201548152602001600382018054610a98906117c1565b80601f0160208091040260200160405190810160405280929190818152602001828054610ac4906117c1565b8015610b115780601f10610ae657610100808354040283529160200191610b11565b820191906000526020600020905b815481529060010190602001808311610af457829003601f168201915b5050505050815260200160048201805480602002602001604051908101604052809291908181526020018280548015610b6957602002820191906000526020600020905b815481526020019060010190808311610b55575b50505050508152505090506000858260000151610b86919061180b565b90505b8151610b9690869061180b565b8111610bdf576000818152600260205260409020546001600160a01b0316610bcd578151610bc49082611837565b93505050610c4e565b80610bd78161181e565b915050610b89565b5060405162461bcd60e51b815260206004820152603960248201527f52414952204552433732313a20546865726520617265206e6f20617661696c6160448201527f626c6520746f6b656e7320696e20746869732072616e67652e000000000000006064820152608401610402565b509392505050565b600081815260196020526040812054829060ff16610c865760405162461bcd60e51b81526004016104029061184a565b600083815260106020526040902054600e80549091908110610caa57610caa6117ab565b9060005260206000209060050201600001548361092f9190611837565b6000818152600b602052604081206104319061115b565b6000828152600a6020526040902060010154610cfa8133610f82565b6103948383611080565b6000818152601960205260408120548190839060ff16610d365760405162461bcd60e51b81526004016104029061184a565b5050506000908152601060209081526040808320546011909252909120549091565b600f5460009082908110610db85760405162461bcd60e51b815260206004820152602160248201527f52414952204552433732313a2052616e676520646f6573206e6f7420657869736044820152601d60fa1b6064820152608401610402565b600080600f018481548110610dcf57610dcf6117ab565b6000918252602080832087845260189091526040832054600e80546007909402909201945090918110610e0457610e046117ab565b9060005260206000209060050201600001549050610e4086836000015483610e2c919061180b565b6001850154610e3b908561180b565b6110fb565b9695505050505050565b7f3c2519c4487d47714872f92cf90a50c25f5deaec2789dc2a497b1272df611db6610e758133610f82565b600e5460009015610ec357600e8054610e9090600190611837565b81548110610ea057610ea06117ab565b9060005260206000209060050201600101546001610ebe919061180b565b610ec6565b60005b600e8054600181810183556000929092526005027fbb7b4a454dc3493923482f07822329ed19e8244eff582cc204f8554c3620c3fd01828155919250610f0c858461180b565b610f169190611837565b600182015560038101610f2986826118e0565b5060028101849055600e54610f4090600190611837565b7fe318895d3fd44cb3524ca783576b7737ae76b172e344357462ab4258b50c1c22868487604051610f73939291906119a0565b60405180910390a25050505050565b610f8c8282610936565b6104b157610fa4816001600160a01b03166014611165565b610faf836020611165565b604051602001610fc09291906119c5565b60408051601f198184030181529082905262461bcd60e51b825261040291600401611a3a565b610ff08282610936565b6104b1576000828152600a602090815260408083206001600160a01b03851684529091529020805460ff191660011790556110283390565b6001600160a01b0316816001600160a01b0316837f2f8788117e7eff1d82e926ec794901d17c78024a50270940304540a733656f0d60405160405180910390a46000828152600b602052604090206103949082611301565b61108a8282610936565b156104b1576000828152600a602090815260408083206001600160a01b0385168085529252808320805460ff1916905551339285917ff6391f5c32d9c69d2a47ea670b442974b53935d1edc7fd64eb21e047a839171b9190a46000828152600b602052604090206103949082611316565b6000825b82811015611144576000818152600260205260409020546001600160a01b0380871691160361113257600191505061092f565b8061113c8161181e565b9150506110ff565b506000949350505050565b600061092f838361132b565b6000610431825490565b60606000611174836002611a4d565b61117f90600261180b565b67ffffffffffffffff8111156111975761119761169a565b6040519080825280601f01601f1916602001820160405280156111c1576020820181803683370190505b509050600360fc1b816000815181106111dc576111dc6117ab565b60200101906001600160f81b031916908160001a905350600f60fb1b8160018151811061120b5761120b6117ab565b60200101906001600160f81b031916908160001a905350600061122f846002611a4d565b61123a90600161180b565b90505b60018111156112b2576f181899199a1a9b1b9c1cb0b131b232b360811b85600f166010811061126e5761126e6117ab565b1a60f81b828281518110611284576112846117ab565b60200101906001600160f81b031916908160001a90535060049490941c936112ab81611a64565b905061123d565b50831561092f5760405162461bcd60e51b815260206004820181905260248201527f537472696e67733a20686578206c656e67746820696e73756666696369656e746044820152606401610402565b600061092f836001600160a01b038416611355565b600061092f836001600160a01b0384166113a4565b6000826000018281548110611342576113426117ab565b9060005260206000200154905092915050565b600081815260018301602052604081205461139c57508154600181810184556000848152602080822090930184905584548482528286019093526040902091909155610431565b506000610431565b6000818152600183016020526040812054801561148d5760006113c8600183611837565b85549091506000906113dc90600190611837565b90508181146114415760008660000182815481106113fc576113fc6117ab565b906000526020600020015490508087600001848154811061141f5761141f6117ab565b6000918252602080832090910192909255918252600188019052604090208390555b855486908061145257611452611a7b565b600190038181906000526020600020016000905590558560010160008681526020019081526020016000206000905560019350505050610431565b6000915050610431565b6000602082840312156114a957600080fd5b5035919050565b80356001600160a01b03811681146114c757600080fd5b919050565b600080604083850312156114df57600080fd5b823591506114ef602084016114b0565b90509250929050565b6000806040838503121561150b57600080fd5b611514836114b0565b946020939093013593505050565b6000806000806080858703121561153857600080fd5b611541856114b0565b966020860135965060408601359560600135945092505050565b60006020828403121561156d57600080fd5b61092f826114b0565b60005b83811015611591578181015183820152602001611579565b50506000910152565b600081518084526115b2816020860160208601611576565b601f01601f19169290920160200192915050565b6000602080835283518184015280840151604084015260408401516060840152606084015160a060808501526115ff60c085018261159a565b6080860151858203601f190160a0870152805180835290840192506000918401905b808310156116415783518252928401926001929092019190840190611621565b509695505050505050565b6000806040838503121561165f57600080fd5b50508035926020909101359150565b60008060006060848603121561168357600080fd5b505081359360208301359350604090920135919050565b634e487b7160e01b600052604160045260246000fd5b600080604083850312156116c357600080fd5b823567ffffffffffffffff808211156116db57600080fd5b818501915085601f8301126116ef57600080fd5b8135818111156117015761170161169a565b604051601f8201601f19908116603f011681019083821181831017156117295761172961169a565b8160405282815288602084870101111561174257600080fd5b826020860160208301376000602093820184015298969091013596505050505050565b60208082526026908201527f52414952204552433732313a20436f6c6c656374696f6e20646f6573206e6f7460408201526508195e1a5cdd60d21b606082015260800190565b634e487b7160e01b600052603260045260246000fd5b600181811c908216806117d557607f821691505b60208210810361091157634e487b7160e01b600052602260045260246000fd5b634e487b7160e01b600052601160045260246000fd5b80820180821115610431576104316117f5565b600060018201611830576118306117f5565b5060010190565b81810381811115610431576104316117f5565b60208082526028908201527f52414952204552433732313a20517565727920666f72206e6f6e657869737465604082015267373a103a37b5b2b760c11b606082015260800190565b601f82111561039457600081815260208120601f850160051c810160208610156118b95750805b601f850160051c820191505b818110156118d8578281556001016118c5565b505050505050565b815167ffffffffffffffff8111156118fa576118fa61169a565b61190e8161190884546117c1565b84611892565b602080601f831160018114611943576000841561192b5750858301515b600019600386901b1c1916600185901b1785556118d8565b600085815260208120601f198616915b8281101561197257888601518255948401946001909101908401611953565b50858210156119905787850151600019600388901b60f8161c191681555b5050505050600190811b01905550565b6060815260006119b3606083018661159a565b60208301949094525060400152919050565b7f416363657373436f6e74726f6c3a206163636f756e74200000000000000000008152600083516119fd816017850160208801611576565b7001034b99036b4b9b9b4b733903937b6329607d1b6017918401918201528351611a2e816028840160208801611576565b01602801949350505050565b60208152600061092f602083018461159a565b8082028115828204841417610431576104316117f5565b600081611a7357611a736117f5565b506000190190565b634e487b7160e01b600052603160045260246000fdfea2646970667358221220ceb221635480a18d699939bce95ef2872dcf9b12a60aee44f4d20bb98986da1664736f6c63430008130033",
  "devdoc": {
    "author": "Juan M. Sanchez M.",
    "details": "Notice that this contract is inheriting from AccessControlAppStorageEnumerable721",
    "events": {
      "CreatedCollection(uint256,string,uint256,uint256)": {
        "params": {
          "collectionIndex": "Contains the unique id that will be indexed for the collection",
          "collectionLength": "Contains the total of tokens that we want the product to have",
          "collectionName": "Contains the name to identify the collection",
          "startingToken": "Contains the selected NTF token to start the product "
        }
      },
      "RoleAdminChanged(bytes32,bytes32,bytes32)": {
        "params": {
          "newAdminRole": "contains the new status of the role",
          "previousAdminRole": "contains the previous status of the role",
          "role": "Contains the role we want to update"
        }
      },
      "RoleGranted(bytes32,address,address)": {
        "params": {
          "account": "contains the address that we want to grant the role",
          "role": "Contains the role we want to update",
          "sender": "contains the address that is changing the role of the account"
        }
      },
      "RoleRevoked(bytes32,address,address)": {
        "params": {
          "account": "contains the address that we want to revoke the role",
          "role": "Contains the role we want to update",
          "sender": "contains the address that is changing the role of the account"
        }
      }
    },
    "kind": "dev",
    "methods": {
      "balanceOf(address)": {
        "params": {
          "owner": "Contains the address which balance we want to verify"
        },
        "returns": {
          "_0": "uint256 with the current balance of the account"
        }
      },
      "createProduct(string,uint256)": {
        "details": "This function is only available to an account with a `CREATOR` role",
        "params": {
          "_copies": "Amount of tokens inside the product",
          "_productName": "Name of the product to create"
        }
      },
      "getNextSequentialIndex(uint256,uint256,uint256)": {
        "details": "Uses a loop, do not call this from a non-view function!This functions require that the collection exist to properly work ",
        "params": {
          "collectionId": "Index of the collection that we want to loop",
          "endingIndex": "Index of the last token of the product ",
          "startingIndex": "Index of the starting token of the product"
        },
        "returns": {
          "nextIndex": "\tWith the next starting point available for new products"
        }
      },
      "getProductCount()": {
        "details": "Use with get product to list all of the products",
        "returns": {
          "_0": "uint With the total of products"
        }
      },
      "getProductInfo(uint256)": {
        "details": "This function require that the collection exist",
        "params": {
          "productIndex_": "Contains the id of the product that we want to verify"
        },
        "returns": {
          "_0": "product which contain the information of the product"
        }
      },
      "getRoleAdmin(bytes32)": {
        "params": {
          "role": "Contains the role that we want to verify"
        },
        "returns": {
          "_0": "bytes that indicates if an account has or not an admin role"
        }
      },
      "getRoleMember(bytes32,uint256)": {
        "params": {
          "index": "Contains the indexed position to verify inside the role members list",
          "role": "Contains the role that we want to verify"
        },
        "returns": {
          "_0": "address that indicates the address indexed in that position"
        }
      },
      "getRoleMemberCount(bytes32)": {
        "params": {
          "role": "Contains the role that we want to verify"
        },
        "returns": {
          "_0": "uint256 that indicates the total accounts with that role"
        }
      },
      "grantRole(bytes32,address)": {
        "details": "This function is only available to an account with an Admin role",
        "params": {
          "account": "Contains the account that has the role we want to update",
          "role": "Contains the role that we want to grant"
        }
      },
      "hasRole(bytes32,address)": {
        "params": {
          "account": "Contains the account address thay we want to verify",
          "role": "Contains the role that we want to verify"
        },
        "returns": {
          "_0": "bool that indicates if an account has or not a role"
        }
      },
      "hasTokenInProduct(address,uint256,uint256,uint256)": {
        "details": "Loops are expensive in solidity, so don't use this in a function that requires gas",
        "params": {
          "endingToken": "Last token to search ",
          "productIndex": "Index of the collection to search",
          "startingToken": "Starting token to search",
          "userAddress": "Address that will be uses to see the belonging tokens of a product and a range"
        },
        "returns": {
          "_0": "bool \t\t\t\tWhich respond if the tokens belongs or not to a product and a range"
        }
      },
      "mintedTokensInProduct(uint256)": {
        "params": {
          "productIndex": "Product index to verify"
        },
        "returns": {
          "length": " \t \tNumber of tokens already minted"
        }
      },
      "ownsTokenInProduct(address,uint256)": {
        "details": "This function require that the product exist",
        "params": {
          "find": "Address to search",
          "productIndex": "Collection to verify"
        },
        "returns": {
          "_0": "bool \t\t\tFor the existence or not, of the token in the product "
        }
      },
      "ownsTokenInRange(address,uint256)": {
        "details": "This function require that the range exist ",
        "params": {
          "find": "Address to search",
          "rangeIndex": "Range to verify"
        },
        "returns": {
          "_0": "bool \t\tFor the existence or not, of the token in the range "
        }
      },
      "productToToken(uint256,uint256)": {
        "details": "This function require that the collection exist\\",
        "params": {
          "productIndex_": "Contains the index of the collection where is the token",
          "tokenIndex_": "Contains the index of the token inside the collection"
        },
        "returns": {
          "_0": "uint\t\t  With the value of the token in that indexed position "
        }
      },
      "renounceRole(bytes32,address)": {
        "details": "Currently you can only renounce to your own roles",
        "params": {
          "account": "Contains the account that has the role we want to update",
          "role": "Contains the role to remove from our account"
        }
      },
      "revokeRole(bytes32,address)": {
        "details": "This function is only available to an account with an Admin role",
        "params": {
          "account": "Contains the account that has the role we want to update",
          "role": "Contains the role that we want to revoke"
        }
      },
      "tokenByProduct(uint256,uint256)": {
        "details": "This function require that the collection exist",
        "params": {
          "productIndex_": "Contains the index of the collection where is the token",
          "tokenIndex_": "Contains the index of the token inside the collection"
        },
        "returns": {
          "_0": "uint\t\t  With the value of the token in that indexed position "
        }
      },
      "tokenOfOwnerByIndex(address,uint256)": {
        "params": {
          "index": "Contains the position in the owned tokens list",
          "owner": "Contains address of the acount that we want to verify"
        },
        "returns": {
          "_0": "uint with the token that is owned by the account in that position "
        }
      },
      "tokenToProduct(uint256)": {
        "details": "This function require that the token exist",
        "params": {
          "tokenIndex_": "Contains the index of the token which info we want to know "
        },
        "returns": {
          "productIndex": " With the corresponding collection ID for the token",
          "rangeIndex": "  With the corresponding range of the collection "
        }
      },
      "tokenToProductIndex(uint256)": {
        "details": "This function require that the token exist",
        "params": {
          "tokenIndex_": "Contains the index of the token inside the collection"
        },
        "returns": {
          "_0": "uint \t\t Return the ID of the collection "
        }
      }
    },
    "title": "RAIR Product facet contract",
    "version": 1
  },
  "userdoc": {
    "events": {
      "CreatedCollection(uint256,string,uint256,uint256)": {
        "notice": "This event stores in the blockchain when a collection is correctly created"
      },
      "RoleAdminChanged(bytes32,bytes32,bytes32)": {
        "notice": "This event stores in the blockchain when we change an admin role"
      },
      "RoleGranted(bytes32,address,address)": {
        "notice": "This event stores in the blockchain when we grant a role"
      },
      "RoleRevoked(bytes32,address,address)": {
        "notice": "This event stores in the blockchain when we revoke a role"
      }
    },
    "kind": "user",
    "methods": {
      "balanceOf(address)": {
        "notice": "this funtions allow us to know the balance of an account"
      },
      "createProduct(string,uint256)": {
        "notice": "Creates a new product"
      },
      "getNextSequentialIndex(uint256,uint256,uint256)": {
        "notice": "Loops through a range of tokens inside a collection and returns the first token without an owner"
      },
      "getProductCount()": {
        "notice": "Returns the number of products on the contract"
      },
      "getProductInfo(uint256)": {
        "notice": "This function allow us to check the information of a product"
      },
      "getRoleAdmin(bytes32)": {
        "notice": "Allow us to check the admin role that contains a role"
      },
      "getRoleMember(bytes32,uint256)": {
        "notice": "Allow us to check the address of an indexed position for the role list"
      },
      "getRoleMemberCount(bytes32)": {
        "notice": "Allow us to check total members that has an selected role"
      },
      "grantRole(bytes32,address)": {
        "notice": "Allow us to grant a role to an account"
      },
      "hasRole(bytes32,address)": {
        "notice": "Allow us to check the if and account has a selected role"
      },
      "hasTokenInProduct(address,uint256,uint256,uint256)": {
        "notice": "Loops over the user's tokens looking for one that belongs to a product and a specific range"
      },
      "mintedTokensInProduct(uint256)": {
        "notice": "Returns the number of tokens inside a product"
      },
      "ownsTokenInProduct(address,uint256)": {
        "notice": "Wrapper for the validator, searching for the entire product"
      },
      "ownsTokenInRange(address,uint256)": {
        "notice": "Wrapper for the validator, searching for the entire range"
      },
      "productToToken(uint256,uint256)": {
        "notice": "This function will search in a collection for a especific token and return its value"
      },
      "renounceRole(bytes32,address)": {
        "notice": "Allow us to renounce to a role"
      },
      "revokeRole(bytes32,address)": {
        "notice": "Allow us to revoke a role to an account"
      },
      "tokenByProduct(uint256,uint256)": {
        "notice": "This function allow us to see the position of creation of a token"
      },
      "tokenOfOwnerByIndex(address,uint256)": {
        "notice": "This functions allow us to check is a token is owned by an account"
      },
      "tokenToProduct(uint256)": {
        "notice": "This function allow us to locaste the collection & range of a token "
      },
      "tokenToProductIndex(uint256)": {
        "notice": "This function allow us to know the index of the collection that contains the token"
      }
    },
    "notice": "You can use this contract to manage information about the token and the products  ",
    "version": 1
  },
  "storageLayout": {
    "storage": [
      {
        "astId": 10261,
        "contract": "contracts/tokens/RAIR Token Facets/ProductFacet.sol:RAIRProductFacet",
        "label": "s",
        "offset": 0,
        "slot": "0",
        "type": "t_struct(AppStorage721)10245_storage"
      }
    ],
    "types": {
      "t_address": {
        "encoding": "inplace",
        "label": "address",
        "numberOfBytes": "20"
      },
      "t_array(t_bytes32)dyn_storage": {
        "base": "t_bytes32",
        "encoding": "dynamic_array",
        "label": "bytes32[]",
        "numberOfBytes": "32"
      },
      "t_array(t_struct(product)10134_storage)dyn_storage": {
        "base": "t_struct(product)10134_storage",
        "encoding": "dynamic_array",
        "label": "struct product[]",
        "numberOfBytes": "32"
      },
      "t_array(t_struct(range)10122_storage)dyn_storage": {
        "base": "t_struct(range)10122_storage",
        "encoding": "dynamic_array",
        "label": "struct range[]",
        "numberOfBytes": "32"
      },
      "t_array(t_uint256)dyn_storage": {
        "base": "t_uint256",
        "encoding": "dynamic_array",
        "label": "uint256[]",
        "numberOfBytes": "32"
      },
      "t_bool": {
        "encoding": "inplace",
        "label": "bool",
        "numberOfBytes": "1"
      },
      "t_bytes32": {
        "encoding": "inplace",
        "label": "bytes32",
        "numberOfBytes": "32"
      },
      "t_mapping(t_address,t_bool)": {
        "encoding": "mapping",
        "key": "t_address",
        "label": "mapping(address => bool)",
        "numberOfBytes": "32",
        "value": "t_bool"
      },
      "t_mapping(t_address,t_mapping(t_address,t_bool))": {
        "encoding": "mapping",
        "key": "t_address",
        "label": "mapping(address => mapping(address => bool))",
        "numberOfBytes": "32",
        "value": "t_mapping(t_address,t_bool)"
      },
      "t_mapping(t_address,t_mapping(t_uint256,t_uint256))": {
        "encoding": "mapping",
        "key": "t_address",
        "label": "mapping(address => mapping(uint256 => uint256))",
        "numberOfBytes": "32",
        "value": "t_mapping(t_uint256,t_uint256)"
      },
      "t_mapping(t_address,t_uint256)": {
        "encoding": "mapping",
        "key": "t_address",
        "label": "mapping(address => uint256)",
        "numberOfBytes": "32",
        "value": "t_uint256"
      },
      "t_mapping(t_bytes32,t_struct(AddressSet)3640_storage)": {
        "encoding": "mapping",
        "key": "t_bytes32",
        "label": "mapping(bytes32 => struct EnumerableSet.AddressSet)",
        "numberOfBytes": "32",
        "value": "t_struct(AddressSet)3640_storage"
      },
      "t_mapping(t_bytes32,t_struct(RoleData)7394_storage)": {
        "encoding": "mapping",
        "key": "t_bytes32",
        "label": "mapping(bytes32 => struct RoleData)",
        "numberOfBytes": "32",
        "value": "t_struct(RoleData)7394_storage"
      },
      "t_mapping(t_bytes32,t_uint256)": {
        "encoding": "mapping",
        "key": "t_bytes32",
        "label": "mapping(bytes32 => uint256)",
        "numberOfBytes": "32",
        "value": "t_uint256"
      },
      "t_mapping(t_uint256,t_address)": {
        "encoding": "mapping",
        "key": "t_uint256",
        "label": "mapping(uint256 => address)",
        "numberOfBytes": "32",
        "value": "t_address"
      },
      "t_mapping(t_uint256,t_array(t_uint256)dyn_storage)": {
        "encoding": "mapping",
        "key": "t_uint256",
        "label": "mapping(uint256 => uint256[])",
        "numberOfBytes": "32",
        "value": "t_array(t_uint256)dyn_storage"
      },
      "t_mapping(t_uint256,t_bool)": {
        "encoding": "mapping",
        "key": "t_uint256",
        "label": "mapping(uint256 => bool)",
        "numberOfBytes": "32",
        "value": "t_bool"
      },
      "t_mapping(t_uint256,t_string_storage)": {
        "encoding": "mapping",
        "key": "t_uint256",
        "label": "mapping(uint256 => string)",
        "numberOfBytes": "32",
        "value": "t_string_storage"
      },
      "t_mapping(t_uint256,t_uint256)": {
        "encoding": "mapping",
        "key": "t_uint256",
        "label": "mapping(uint256 => uint256)",
        "numberOfBytes": "32",
        "value": "t_uint256"
      },
      "t_string_storage": {
        "encoding": "bytes",
        "label": "string",
        "numberOfBytes": "32"
      },
      "t_struct(AddressSet)3640_storage": {
        "encoding": "inplace",
        "label": "struct EnumerableSet.AddressSet",
        "members": [
          {
            "astId": 3639,
            "contract": "contracts/tokens/RAIR Token Facets/ProductFacet.sol:RAIRProductFacet",
            "label": "_inner",
            "offset": 0,
            "slot": "0",
            "type": "t_struct(Set)3325_storage"
          }
        ],
        "numberOfBytes": "64"
      },
      "t_struct(AppStorage721)10245_storage": {
        "encoding": "inplace",
        "label": "struct AppStorage721",
        "members": [
          {
            "astId": 10136,
            "contract": "contracts/tokens/RAIR Token Facets/ProductFacet.sol:RAIRProductFacet",
            "label": "_name",
            "offset": 0,
            "slot": "0",
            "type": "t_string_storage"
          },
          {
            "astId": 10138,
            "contract": "contracts/tokens/RAIR Token Facets/ProductFacet.sol:RAIRProductFacet",
            "label": "_symbol",
            "offset": 0,
            "slot": "1",
            "type": "t_string_storage"
          },
          {
            "astId": 10142,
            "contract": "contracts/tokens/RAIR Token Facets/ProductFacet.sol:RAIRProductFacet",
            "label": "_owners",
            "offset": 0,
            "slot": "2",
            "type": "t_mapping(t_uint256,t_address)"
          },
          {
            "astId": 10146,
            "contract": "contracts/tokens/RAIR Token Facets/ProductFacet.sol:RAIRProductFacet",
            "label": "_balances",
            "offset": 0,
            "slot": "3",
            "type": "t_mapping(t_address,t_uint256)"
          },
          {
            "astId": 10150,
            "contract": "contracts/tokens/RAIR Token Facets/ProductFacet.sol:RAIRProductFacet",
            "label": "_tokenApprovals",
            "offset": 0,
            "slot": "4",
            "type": "t_mapping(t_uint256,t_address)"
          },
          {
            "astId": 10156,
            "contract": "contracts/tokens/RAIR Token Facets/ProductFacet.sol:RAIRProductFacet",
            "label": "_operatorApprovals",
            "offset": 0,
            "slot": "5",
            "type": "t_mapping(t_address,t_mapping(t_address,t_bool))"
          },
          {
            "astId": 10162,
            "contract": "contracts/tokens/RAIR Token Facets/ProductFacet.sol:RAIRProductFacet",
            "label": "_ownedTokens",
            "offset": 0,
            "slot": "6",
            "type": "t_mapping(t_address,t_mapping(t_uint256,t_uint256))"
          },
          {
            "astId": 10166,
            "contract": "contracts/tokens/RAIR Token Facets/ProductFacet.sol:RAIRProductFacet",
            "label": "_ownedTokensIndex",
            "offset": 0,
            "slot": "7",
            "type": "t_mapping(t_uint256,t_uint256)"
          },
          {
            "astId": 10169,
            "contract": "contracts/tokens/RAIR Token Facets/ProductFacet.sol:RAIRProductFacet",
            "label": "_allTokens",
            "offset": 0,
            "slot": "8",
            "type": "t_array(t_uint256)dyn_storage"
          },
          {
            "astId": 10173,
            "contract": "contracts/tokens/RAIR Token Facets/ProductFacet.sol:RAIRProductFacet",
            "label": "_allTokensIndex",
            "offset": 0,
            "slot": "9",
            "type": "t_mapping(t_uint256,t_uint256)"
          },
          {
            "astId": 10178,
            "contract": "contracts/tokens/RAIR Token Facets/ProductFacet.sol:RAIRProductFacet",
            "label": "_roles",
            "offset": 0,
            "slot": "10",
            "type": "t_mapping(t_bytes32,t_struct(RoleData)7394_storage)"
          },
          {
            "astId": 10183,
            "contract": "contracts/tokens/RAIR Token Facets/ProductFacet.sol:RAIRProductFacet",
            "label": "_roleMembers",
            "offset": 0,
            "slot": "11",
            "type": "t_mapping(t_bytes32,t_struct(AddressSet)3640_storage)"
          },
          {
            "astId": 10185,
            "contract": "contracts/tokens/RAIR Token Facets/ProductFacet.sol:RAIRProductFacet",
            "label": "baseURI",
            "offset": 0,
            "slot": "12",
            "type": "t_string_storage"
          },
          {
            "astId": 10187,
            "contract": "contracts/tokens/RAIR Token Facets/ProductFacet.sol:RAIRProductFacet",
            "label": "factoryAddress",
            "offset": 0,
            "slot": "13",
            "type": "t_address"
          },
          {
            "astId": 10189,
            "contract": "contracts/tokens/RAIR Token Facets/ProductFacet.sol:RAIRProductFacet",
            "label": "royaltyFee",
            "offset": 20,
            "slot": "13",
            "type": "t_uint16"
          },
          {
            "astId": 10193,
            "contract": "contracts/tokens/RAIR Token Facets/ProductFacet.sol:RAIRProductFacet",
            "label": "products",
            "offset": 0,
            "slot": "14",
            "type": "t_array(t_struct(product)10134_storage)dyn_storage"
          },
          {
            "astId": 10197,
            "contract": "contracts/tokens/RAIR Token Facets/ProductFacet.sol:RAIRProductFacet",
            "label": "ranges",
            "offset": 0,
            "slot": "15",
            "type": "t_array(t_struct(range)10122_storage)dyn_storage"
          },
          {
            "astId": 10201,
            "contract": "contracts/tokens/RAIR Token Facets/ProductFacet.sol:RAIRProductFacet",
            "label": "tokenToProduct",
            "offset": 0,
            "slot": "16",
            "type": "t_mapping(t_uint256,t_uint256)"
          },
          {
            "astId": 10205,
            "contract": "contracts/tokens/RAIR Token Facets/ProductFacet.sol:RAIRProductFacet",
            "label": "tokenToRange",
            "offset": 0,
            "slot": "17",
            "type": "t_mapping(t_uint256,t_uint256)"
          },
          {
            "astId": 10209,
            "contract": "contracts/tokens/RAIR Token Facets/ProductFacet.sol:RAIRProductFacet",
            "label": "uniqueTokenURI",
            "offset": 0,
            "slot": "18",
            "type": "t_mapping(t_uint256,t_string_storage)"
          },
          {
            "astId": 10213,
            "contract": "contracts/tokens/RAIR Token Facets/ProductFacet.sol:RAIRProductFacet",
            "label": "productURI",
            "offset": 0,
            "slot": "19",
            "type": "t_mapping(t_uint256,t_string_storage)"
          },
          {
            "astId": 10217,
            "contract": "contracts/tokens/RAIR Token Facets/ProductFacet.sol:RAIRProductFacet",
            "label": "appendTokenIndexToProductURI",
            "offset": 0,
            "slot": "20",
            "type": "t_mapping(t_uint256,t_bool)"
          },
          {
            "astId": 10219,
            "contract": "contracts/tokens/RAIR Token Facets/ProductFacet.sol:RAIRProductFacet",
            "label": "appendTokenIndexToBaseURI",
            "offset": 0,
            "slot": "21",
            "type": "t_bool"
          },
          {
            "astId": 10224,
            "contract": "contracts/tokens/RAIR Token Facets/ProductFacet.sol:RAIRProductFacet",
            "label": "tokensByProduct",
            "offset": 0,
            "slot": "22",
            "type": "t_mapping(t_uint256,t_array(t_uint256)dyn_storage)"
          },
          {
            "astId": 10226,
            "contract": "contracts/tokens/RAIR Token Facets/ProductFacet.sol:RAIRProductFacet",
            "label": "contractMetadataURI",
            "offset": 0,
            "slot": "23",
            "type": "t_string_storage"
          },
          {
            "astId": 10230,
            "contract": "contracts/tokens/RAIR Token Facets/ProductFacet.sol:RAIRProductFacet",
            "label": "rangeToProduct",
            "offset": 0,
            "slot": "24",
            "type": "t_mapping(t_uint256,t_uint256)"
          },
          {
            "astId": 10234,
            "contract": "contracts/tokens/RAIR Token Facets/ProductFacet.sol:RAIRProductFacet",
            "label": "_minted",
            "offset": 0,
            "slot": "25",
            "type": "t_mapping(t_uint256,t_bool)"
          },
          {
            "astId": 10238,
            "contract": "contracts/tokens/RAIR Token Facets/ProductFacet.sol:RAIRProductFacet",
            "label": "rangeURI",
            "offset": 0,
            "slot": "26",
            "type": "t_mapping(t_uint256,t_string_storage)"
          },
          {
            "astId": 10242,
            "contract": "contracts/tokens/RAIR Token Facets/ProductFacet.sol:RAIRProductFacet",
            "label": "appendTokenIndexToRangeURI",
            "offset": 0,
            "slot": "27",
            "type": "t_mapping(t_uint256,t_bool)"
          },
          {
            "astId": 10244,
            "contract": "contracts/tokens/RAIR Token Facets/ProductFacet.sol:RAIRProductFacet",
            "label": "_metadataExtension",
            "offset": 0,
            "slot": "28",
            "type": "t_string_storage"
          }
        ],
        "numberOfBytes": "928"
      },
      "t_struct(RoleData)7394_storage": {
        "encoding": "inplace",
        "label": "struct RoleData",
        "members": [
          {
            "astId": 7391,
            "contract": "contracts/tokens/RAIR Token Facets/ProductFacet.sol:RAIRProductFacet",
            "label": "members",
            "offset": 0,
            "slot": "0",
            "type": "t_mapping(t_address,t_bool)"
          },
          {
            "astId": 7393,
            "contract": "contracts/tokens/RAIR Token Facets/ProductFacet.sol:RAIRProductFacet",
            "label": "adminRole",
            "offset": 0,
            "slot": "1",
            "type": "t_bytes32"
          }
        ],
        "numberOfBytes": "64"
      },
      "t_struct(Set)3325_storage": {
        "encoding": "inplace",
        "label": "struct EnumerableSet.Set",
        "members": [
          {
            "astId": 3320,
            "contract": "contracts/tokens/RAIR Token Facets/ProductFacet.sol:RAIRProductFacet",
            "label": "_values",
            "offset": 0,
            "slot": "0",
            "type": "t_array(t_bytes32)dyn_storage"
          },
          {
            "astId": 3324,
            "contract": "contracts/tokens/RAIR Token Facets/ProductFacet.sol:RAIRProductFacet",
            "label": "_indexes",
            "offset": 0,
            "slot": "1",
            "type": "t_mapping(t_bytes32,t_uint256)"
          }
        ],
        "numberOfBytes": "64"
      },
      "t_struct(product)10134_storage": {
        "encoding": "inplace",
        "label": "struct product",
        "members": [
          {
            "astId": 10124,
            "contract": "contracts/tokens/RAIR Token Facets/ProductFacet.sol:RAIRProductFacet",
            "label": "startingToken",
            "offset": 0,
            "slot": "0",
            "type": "t_uint256"
          },
          {
            "astId": 10126,
            "contract": "contracts/tokens/RAIR Token Facets/ProductFacet.sol:RAIRProductFacet",
            "label": "endingToken",
            "offset": 0,
            "slot": "1",
            "type": "t_uint256"
          },
          {
            "astId": 10128,
            "contract": "contracts/tokens/RAIR Token Facets/ProductFacet.sol:RAIRProductFacet",
            "label": "mintableTokens",
            "offset": 0,
            "slot": "2",
            "type": "t_uint256"
          },
          {
            "astId": 10130,
            "contract": "contracts/tokens/RAIR Token Facets/ProductFacet.sol:RAIRProductFacet",
            "label": "name",
            "offset": 0,
            "slot": "3",
            "type": "t_string_storage"
          },
          {
            "astId": 10133,
            "contract": "contracts/tokens/RAIR Token Facets/ProductFacet.sol:RAIRProductFacet",
            "label": "rangeList",
            "offset": 0,
            "slot": "4",
            "type": "t_array(t_uint256)dyn_storage"
          }
        ],
        "numberOfBytes": "160"
      },
      "t_struct(range)10122_storage": {
        "encoding": "inplace",
        "label": "struct range",
        "members": [
          {
            "astId": 10109,
            "contract": "contracts/tokens/RAIR Token Facets/ProductFacet.sol:RAIRProductFacet",
            "label": "rangeStart",
            "offset": 0,
            "slot": "0",
            "type": "t_uint256"
          },
          {
            "astId": 10111,
            "contract": "contracts/tokens/RAIR Token Facets/ProductFacet.sol:RAIRProductFacet",
            "label": "rangeEnd",
            "offset": 0,
            "slot": "1",
            "type": "t_uint256"
          },
          {
            "astId": 10113,
            "contract": "contracts/tokens/RAIR Token Facets/ProductFacet.sol:RAIRProductFacet",
            "label": "tokensAllowed",
            "offset": 0,
            "slot": "2",
            "type": "t_uint256"
          },
          {
            "astId": 10115,
            "contract": "contracts/tokens/RAIR Token Facets/ProductFacet.sol:RAIRProductFacet",
            "label": "mintableTokens",
            "offset": 0,
            "slot": "3",
            "type": "t_uint256"
          },
          {
            "astId": 10117,
            "contract": "contracts/tokens/RAIR Token Facets/ProductFacet.sol:RAIRProductFacet",
            "label": "lockedTokens",
            "offset": 0,
            "slot": "4",
            "type": "t_uint256"
          },
          {
            "astId": 10119,
            "contract": "contracts/tokens/RAIR Token Facets/ProductFacet.sol:RAIRProductFacet",
            "label": "rangePrice",
            "offset": 0,
            "slot": "5",
            "type": "t_uint256"
          },
          {
            "astId": 10121,
            "contract": "contracts/tokens/RAIR Token Facets/ProductFacet.sol:RAIRProductFacet",
            "label": "rangeName",
            "offset": 0,
            "slot": "6",
            "type": "t_string_storage"
          }
        ],
        "numberOfBytes": "224"
      },
      "t_uint16": {
        "encoding": "inplace",
        "label": "uint16",
        "numberOfBytes": "2"
      },
      "t_uint256": {
        "encoding": "inplace",
        "label": "uint256",
        "numberOfBytes": "32"
      }
    }
  }
}