{
  "address": "0x4a87675A164C18A58DDC4aA6d4486685D7eDD7cA",
  "abi": [
    {
      "anonymous": false,
      "inputs": [
        {
          "indexed": false,
          "internalType": "address",
          "name": "contractAddress",
          "type": "address"
        },
        {
          "indexed": false,
          "internalType": "uint256",
          "name": "priceToDeploy",
          "type": "uint256"
        },
        {
          "indexed": false,
          "internalType": "address",
          "name": "responsible",
          "type": "address"
        }
      ],
      "name": "AcceptedToken",
      "type": "event"
    },
    {
      "anonymous": false,
      "inputs": [
        {
          "indexed": false,
          "internalType": "address",
          "name": "erc777",
          "type": "address"
        },
        {
          "indexed": false,
          "internalType": "address",
          "name": "responsible",
          "type": "address"
        }
      ],
      "name": "RemovedToken",
      "type": "event"
    },
    {
      "anonymous": false,
      "inputs": [
        {
          "indexed": true,
          "internalType": "bytes32",
          "name": "role",
          "type": "bytes32"
        },
        {
          "indexed": true,
          "internalType": "bytes32",
          "name": "previousAdminRole",
          "type": "bytes32"
        },
        {
          "indexed": true,
          "internalType": "bytes32",
          "name": "newAdminRole",
          "type": "bytes32"
        }
      ],
      "name": "RoleAdminChanged",
      "type": "event"
    },
    {
      "anonymous": false,
      "inputs": [
        {
          "indexed": true,
          "internalType": "bytes32",
          "name": "role",
          "type": "bytes32"
        },
        {
          "indexed": true,
          "internalType": "address",
          "name": "account",
          "type": "address"
        },
        {
          "indexed": true,
          "internalType": "address",
          "name": "sender",
          "type": "address"
        }
      ],
      "name": "RoleGranted",
      "type": "event"
    },
    {
      "anonymous": false,
      "inputs": [
        {
          "indexed": true,
          "internalType": "bytes32",
          "name": "role",
          "type": "bytes32"
        },
        {
          "indexed": true,
          "internalType": "address",
          "name": "account",
          "type": "address"
        },
        {
          "indexed": true,
          "internalType": "address",
          "name": "sender",
          "type": "address"
        }
      ],
      "name": "RoleRevoked",
      "type": "event"
    },
    {
      "anonymous": false,
      "inputs": [
        {
          "indexed": false,
          "internalType": "address",
          "name": "recipient",
          "type": "address"
        },
        {
          "indexed": false,
          "internalType": "address",
          "name": "erc777",
          "type": "address"
        },
        {
          "indexed": false,
          "internalType": "uint256",
          "name": "amount",
          "type": "uint256"
        }
      ],
      "name": "WithdrawTokens",
      "type": "event"
    },
    {
      "inputs": [
        {
          "internalType": "address",
          "name": "_erc777Address",
          "type": "address"
        },
        {
          "internalType": "uint256",
          "name": "_priceToDeploy",
          "type": "uint256"
        }
      ],
      "name": "acceptNewToken",
      "outputs": [],
      "stateMutability": "nonpayable",
      "type": "function"
    },
    {
      "inputs": [
        {
          "internalType": "address",
          "name": "erc777",
          "type": "address"
        }
      ],
      "name": "getDeploymentCost",
      "outputs": [
        {
          "internalType": "uint256",
          "name": "price",
          "type": "uint256"
        }
      ],
      "stateMutability": "view",
      "type": "function"
    },
    {
      "inputs": [
        {
          "internalType": "bytes32",
          "name": "role",
          "type": "bytes32"
        }
      ],
      "name": "getRoleAdmin",
      "outputs": [
        {
          "internalType": "bytes32",
          "name": "",
          "type": "bytes32"
        }
      ],
      "stateMutability": "view",
      "type": "function"
    },
    {
      "inputs": [
        {
          "internalType": "bytes32",
          "name": "role",
          "type": "bytes32"
        },
        {
          "internalType": "uint256",
          "name": "index",
          "type": "uint256"
        }
      ],
      "name": "getRoleMember",
      "outputs": [
        {
          "internalType": "address",
          "name": "",
          "type": "address"
        }
      ],
      "stateMutability": "view",
      "type": "function"
    },
    {
      "inputs": [
        {
          "internalType": "bytes32",
          "name": "role",
          "type": "bytes32"
        }
      ],
      "name": "getRoleMemberCount",
      "outputs": [
        {
          "internalType": "uint256",
          "name": "",
          "type": "uint256"
        }
      ],
      "stateMutability": "view",
      "type": "function"
    },
    {
      "inputs": [
        {
          "internalType": "bytes32",
          "name": "role",
          "type": "bytes32"
        },
        {
          "internalType": "address",
          "name": "account",
          "type": "address"
        }
      ],
      "name": "grantRole",
      "outputs": [],
      "stateMutability": "nonpayable",
      "type": "function"
    },
    {
      "inputs": [
        {
          "internalType": "bytes32",
          "name": "role",
          "type": "bytes32"
        },
        {
          "internalType": "address",
          "name": "account",
          "type": "address"
        }
      ],
      "name": "hasRole",
      "outputs": [
        {
          "internalType": "bool",
          "name": "",
          "type": "bool"
        }
      ],
      "stateMutability": "view",
      "type": "function"
    },
    {
      "inputs": [
        {
          "internalType": "address",
          "name": "_erc777Address",
          "type": "address"
        }
      ],
      "name": "removeToken",
      "outputs": [],
      "stateMutability": "nonpayable",
      "type": "function"
    },
    {
      "inputs": [
        {
          "internalType": "bytes32",
          "name": "role",
          "type": "bytes32"
        },
        {
          "internalType": "address",
          "name": "account",
          "type": "address"
        }
      ],
      "name": "renounceRole",
      "outputs": [],
      "stateMutability": "nonpayable",
      "type": "function"
    },
    {
      "inputs": [
        {
          "internalType": "bytes32",
          "name": "role",
          "type": "bytes32"
        },
        {
          "internalType": "address",
          "name": "account",
          "type": "address"
        }
      ],
      "name": "revokeRole",
      "outputs": [],
      "stateMutability": "nonpayable",
      "type": "function"
    },
    {
      "inputs": [
        {
          "internalType": "address",
          "name": "erc777",
          "type": "address"
        },
        {
          "internalType": "uint256",
          "name": "amount",
          "type": "uint256"
        }
      ],
      "name": "withdrawTokens",
      "outputs": [],
      "stateMutability": "nonpayable",
      "type": "function"
    }
  ],
  "transactionHash": "0xe12f3288825c76381494ebdb6e01a27065b7173243dbf939966433b79f815777",
  "args": [],
  "numDeployments": 1,
  "solcInputHash": "597020f27da0c3a6d99dcb42945d060e",
  "bytecode": "0x608060405234801561001057600080fd5b50610d88806100206000396000f3fe608060405234801561001057600080fd5b50600436106100a95760003560e01c80635fa7b584116100715780635fa7b58414610148578063638958dd1461015b5780639010d07c1461016e57806391d1485414610199578063ca15c873146101bc578063d547741f146101cf57600080fd5b806306b091f9146100ae5780631c7d25d1146100c3578063248a9ca3146100ff5780632f2ff15d1461012257806336568abe14610135575b600080fd5b6100c16100bc366004610af2565b6101e2565b005b6100ec6100d1366004610b1c565b6001600160a01b031660009081526006602052604090205490565b6040519081526020015b60405180910390f35b6100ec61010d366004610b37565b60009081526020819052604090206001015490565b6100c1610130366004610b50565b61038f565b6100c1610143366004610b50565b6103ba565b6100c1610156366004610b1c565b610438565b6100c1610169366004610af2565b6104e5565b61018161017c366004610b7c565b610592565b6040516001600160a01b0390911681526020016100f6565b6101ac6101a7366004610b50565b6105b3565b60405190151581526020016100f6565b6100ec6101ca366004610b37565b6105dc565b6100c16101dd366004610b50565b6105f3565b7f6270edb7c868f86fda4adedba75108201087268ea345934db8bad688e1feb91b61020d8133610619565b6102377fe33cd123f09d9a4e3b34162dcaba99ee0b73fe748beb8ca15f84a66b0c147230846105b3565b6102b95760405162461bcd60e51b815260206004820152604260248201527f5241495220466163746f72793a2053706563696669656420636f6e747261637460448201527f2069736e277420616e20617070726f7665642065726337373720636f6e74726160648201526118dd60f21b608482015260a4015b60405180910390fd5b604080518082018252601081526f466163746f727920576974686472617760801b60208201529051634decdde360e11b81526001600160a01b03851691639bd9bbc69161030d913391879190600401610bee565b600060405180830381600087803b15801561032757600080fd5b505af115801561033b573d6000803e3d6000fd5b5050604080513381526001600160a01b03871660208201529081018590527f70082d08c003c5341f2401bec1c2ae1dbcdc29ae17e9cc5633fa617caa8acd4c925060600190505b60405180910390a1505050565b6000828152602081905260409020600101546103ab8133610619565b6103b5838361067d565b505050565b6001600160a01b038116331461042a5760405162461bcd60e51b815260206004820152602f60248201527f416363657373436f6e74726f6c3a2063616e206f6e6c792072656e6f756e636560448201526e103937b632b9903337b91039b2b63360891b60648201526084016102b0565b6104348282610715565b5050565b7f6270edb7c868f86fda4adedba75108201087268ea345934db8bad688e1feb91b6104638133610619565b61048d7fe33cd123f09d9a4e3b34162dcaba99ee0b73fe748beb8ca15f84a66b0c147230836105f3565b6001600160a01b038216600081815260066020908152604080832092909255815192835233908301527f703f7e3f084d5b8dcc12fddcfd9a70d65b6b21ec7659e4608dbaf4419ede3ad0910160405180910390a15050565b7f6270edb7c868f86fda4adedba75108201087268ea345934db8bad688e1feb91b6105108133610619565b61053a7fe33cd123f09d9a4e3b34162dcaba99ee0b73fe748beb8ca15f84a66b0c1472308461038f565b6001600160a01b0383166000818152600660209081526040918290208590558151928352820184905233908201527f1dfbc08fdb736bd9ac2161460c84943a6c681b26e3b4184c9456b3a0530f118f90606001610382565b60008281526002602052604081206105aa908361078e565b90505b92915050565b6000918252602082815260408084206001600160a01b0393909316845291905290205460ff1690565b60008181526002602052604081206105ad9061079a565b60008281526020819052604090206001015461060f8133610619565b6103b58383610715565b61062382826105b3565b6104345761063b816001600160a01b031660146107a4565b6106468360206107a4565b604051602001610657929190610c1e565b60408051601f198184030181529082905262461bcd60e51b82526102b091600401610c93565b61068782826105b3565b610434576000828152602081815260408083206001600160a01b03851684529091529020805460ff191660011790556106bd3390565b6001600160a01b0316816001600160a01b0316837f2f8788117e7eff1d82e926ec794901d17c78024a50270940304540a733656f0d60405160405180910390a460008281526002602052604090206103b59082610940565b61071f82826105b3565b15610434576000828152602081815260408083206001600160a01b0385168085529252808320805460ff1916905551339285917ff6391f5c32d9c69d2a47ea670b442974b53935d1edc7fd64eb21e047a839171b9190a460008281526002602052604090206103b59082610955565b60006105aa838361096a565b60006105ad825490565b606060006107b3836002610cbc565b6107be906002610cd3565b67ffffffffffffffff8111156107d6576107d6610ce6565b6040519080825280601f01601f191660200182016040528015610800576020820181803683370190505b509050600360fc1b8160008151811061081b5761081b610cfc565b60200101906001600160f81b031916908160001a905350600f60fb1b8160018151811061084a5761084a610cfc565b60200101906001600160f81b031916908160001a905350600061086e846002610cbc565b610879906001610cd3565b90505b60018111156108f1576f181899199a1a9b1b9c1cb0b131b232b360811b85600f16601081106108ad576108ad610cfc565b1a60f81b8282815181106108c3576108c3610cfc565b60200101906001600160f81b031916908160001a90535060049490941c936108ea81610d12565b905061087c565b5083156105aa5760405162461bcd60e51b815260206004820181905260248201527f537472696e67733a20686578206c656e67746820696e73756666696369656e7460448201526064016102b0565b60006105aa836001600160a01b038416610994565b60006105aa836001600160a01b0384166109e3565b600082600001828154811061098157610981610cfc565b9060005260206000200154905092915050565b60008181526001830160205260408120546109db575081546001818101845560008481526020808220909301849055845484825282860190935260409020919091556105ad565b5060006105ad565b60008181526001830160205260408120548015610acc576000610a07600183610d29565b8554909150600090610a1b90600190610d29565b9050818114610a80576000866000018281548110610a3b57610a3b610cfc565b9060005260206000200154905080876000018481548110610a5e57610a5e610cfc565b6000918252602080832090910192909255918252600188019052604090208390555b8554869080610a9157610a91610d3c565b6001900381819060005260206000200160009055905585600101600086815260200190815260200160002060009055600193505050506105ad565b60009150506105ad565b80356001600160a01b0381168114610aed57600080fd5b919050565b60008060408385031215610b0557600080fd5b610b0e83610ad6565b946020939093013593505050565b600060208284031215610b2e57600080fd5b6105aa82610ad6565b600060208284031215610b4957600080fd5b5035919050565b60008060408385031215610b6357600080fd5b82359150610b7360208401610ad6565b90509250929050565b60008060408385031215610b8f57600080fd5b50508035926020909101359150565b60005b83811015610bb9578181015183820152602001610ba1565b50506000910152565b60008151808452610bda816020860160208601610b9e565b601f01601f19169290920160200192915050565b60018060a01b0384168152826020820152606060408201526000610c156060830184610bc2565b95945050505050565b7f416363657373436f6e74726f6c3a206163636f756e7420000000000000000000815260008351610c56816017850160208801610b9e565b7001034b99036b4b9b9b4b733903937b6329607d1b6017918401918201528351610c87816028840160208801610b9e565b01602801949350505050565b6020815260006105aa6020830184610bc2565b634e487b7160e01b600052601160045260246000fd5b80820281158282048414176105ad576105ad610ca6565b808201808211156105ad576105ad610ca6565b634e487b7160e01b600052604160045260246000fd5b634e487b7160e01b600052603260045260246000fd5b600081610d2157610d21610ca6565b506000190190565b818103818111156105ad576105ad610ca6565b634e487b7160e01b600052603160045260246000fdfea26469706673582212208b9ce4dd71fb3952f08b166213465f0d911eed5dca720e2c9cce4b3f667900e164736f6c63430008130033",
  "devdoc": {
    "events": {
      "AcceptedToken(address,uint256,address)": {
        "params": {
          "contractAddress": "contains the address of the tokens contract ",
          "priceToDeploy": "contains the deployment cost for the token",
          "responsible": "address of the person that implement the new token"
        }
      },
      "RemovedToken(address,address)": {
        "params": {
          "erc777": "contains the address of the tokens contract to remove",
          "responsible": "address of the person that revokes the token"
        }
      },
      "RoleAdminChanged(bytes32,bytes32,bytes32)": {
        "params": {
          "newAdminRole": "Contains the new admin role",
          "previousAdminRole": "Contains the previous admin role",
          "role": "Contains the admin role that we want to use "
        }
      },
      "RoleGranted(bytes32,address,address)": {
        "params": {
          "account": "Contains the account we want to add to a new role",
          "role": "Contains the admin role that we want to use ",
          "sender": "Contains the sender of the role petition"
        }
      },
      "RoleRevoked(bytes32,address,address)": {
        "params": {
          "account": "Contains the account we want to add to a new role",
          "role": "Contains the admin role that we want to use ",
          "sender": "Contains the sender of the role petition"
        }
      },
      "WithdrawTokens(address,address,uint256)": {
        "params": {
          "amount": "total of tokens to recieve",
          "erc777": "contains the address of the tokens contract to withdraw",
          "recipient": "address who will recieve the tokens"
        }
      }
    },
    "kind": "dev",
    "methods": {
      "acceptNewToken(address,uint256)": {
        "params": {
          "_erc777Address": "Address of the new Token",
          "_priceToDeploy": "Price of deployment for the new Token"
        }
      },
      "getDeploymentCost(address)": {
        "params": {
          "erc777": "Contains the facet addresses and function selectors"
        },
        "returns": {
          "price": "\tShows the price of deployment for the token"
        }
      },
      "getRoleAdmin(bytes32)": {
        "details": "Notice that this function override the behavior ofthe getRoleAdmin function inherited from AccessControlEnumerable",
        "params": {
          "role": "Contains the role that we want to check"
        },
        "returns": {
          "_0": "bytes32 the rol that in available to change"
        }
      },
      "getRoleMember(bytes32,uint256)": {
        "details": "Notice that this function override the behavior ofthe getRoleMember function inherited from AccessControlEnumerable",
        "params": {
          "index": "Contains the position of the array that we want to verify",
          "role": "Contains an specific role to check"
        },
        "returns": {
          "_0": "address of the account with that position of the list of the selected role"
        }
      },
      "getRoleMemberCount(bytes32)": {
        "details": "Notice that this function override the behavior ofthe getRoleMemberCount function inherited from AccessControlEnumerable",
        "params": {
          "role": "Contains an specific role to check"
        },
        "returns": {
          "_0": "uint256 answer the cuantity of accounts with that role"
        }
      },
      "grantRole(bytes32,address)": {
        "params": {
          "account": "Contains the account address to use. ",
          "role": "Contains the role that we want to use "
        }
      },
      "hasRole(bytes32,address)": {
        "details": "Notice that this function override the behavior ofthe hasrole function inherited from AccessControlEnumerable",
        "params": {
          "account": "Contains the address to match with the verification ",
          "role": "Contains the role we want to verify"
        },
        "returns": {
          "_0": "bool Answer if the account has the input role or not"
        }
      },
      "removeToken(address)": {
        "params": {
          "_erc777Address": "Address of the Token"
        }
      },
      "renounceRole(bytes32,address)": {
        "params": {
          "account": "Contains the account address to use.    ",
          "role": "Contains the role that we want to use "
        }
      },
      "revokeRole(bytes32,address)": {
        "params": {
          "account": "Contains the account address to use. ",
          "role": "Contains the role that we want to use "
        }
      },
      "withdrawTokens(address,uint256)": {
        "details": "If the contract has less than the amount, the ERC777 contract will revertAccessControl makes sure only an OWNER can withdraw",
        "params": {
          "amount": "Amount of tokens to withdraw",
          "erc777": "Address of the ERC777 contract"
        }
      }
    },
    "title": "Our Facet creator for tokens",
    "version": 1
  },
  "userdoc": {
    "events": {
      "AcceptedToken(address,uint256,address)": {
        "notice": "This event stores in the blockchain when a new token is indexed as accepted "
      },
      "RemovedToken(address,address)": {
        "notice": "This event stores in the blockchain when a token is revoked"
      },
      "RoleAdminChanged(bytes32,bytes32,bytes32)": {
        "notice": "This event stores in the blockchain when an admin role changes"
      },
      "RoleGranted(bytes32,address,address)": {
        "notice": "This event stores in the blockchain when a role is granted"
      },
      "RoleRevoked(bytes32,address,address)": {
        "notice": "This event stores in the blockchain when a role is revoked"
      },
      "WithdrawTokens(address,address,uint256)": {
        "notice": "This event stores in the blockchain when the tokens are withdrawed from the contract"
      }
    },
    "kind": "user",
    "methods": {
      "acceptNewToken(address,uint256)": {
        "notice": "Adds an address to the list of allowed minters"
      },
      "getDeploymentCost(address)": {
        "notice": "Returns the number of required tokens, given an erc777 address"
      },
      "getRoleAdmin(bytes32)": {
        "notice": "Allows us to see what role is available to modify with the selected role"
      },
      "getRoleMember(bytes32,uint256)": {
        "notice": "Allow us to use an index position to verify the account that has a role"
      },
      "getRoleMemberCount(bytes32)": {
        "notice": "Allow us to know the total of members that has a role"
      },
      "grantRole(bytes32,address)": {
        "notice": "Allow an admin to asign a new role to an account"
      },
      "hasRole(bytes32,address)": {
        "notice": "This function allow us to know if an user has or not an specific role"
      },
      "removeToken(address)": {
        "notice": "Removes an address from the list of allowed minters"
      },
      "renounceRole(bytes32,address)": {
        "notice": "Allow an user to quit an owned roleThe account that sends the petition needs to be the same that will renounce to a role"
      },
      "revokeRole(bytes32,address)": {
        "notice": "Allow an admin to revoke a role to an account"
      },
      "withdrawTokens(address,uint256)": {
        "notice": "Transfers tokens from the factory to any of the OWNER addresses"
      }
    },
    "notice": "You can use this contract to manage the use of tokens",
    "version": 1
  },
  "storageLayout": {
    "storage": [
      {
        "astId": 4573,
        "contract": "contracts/Factory/facets/TokensFacet.sol:TokensFacet",
        "label": "s",
        "offset": 0,
        "slot": "0",
        "type": "t_struct(AppStorage)4552_storage"
      }
    ],
    "types": {
      "t_address": {
        "encoding": "inplace",
        "label": "address",
        "numberOfBytes": "20"
      },
      "t_array(t_address)dyn_storage": {
        "base": "t_address",
        "encoding": "dynamic_array",
        "label": "address[]",
        "numberOfBytes": "32"
      },
      "t_array(t_bytes32)dyn_storage": {
        "base": "t_bytes32",
        "encoding": "dynamic_array",
        "label": "bytes32[]",
        "numberOfBytes": "32"
      },
      "t_bool": {
        "encoding": "inplace",
        "label": "bool",
        "numberOfBytes": "1"
      },
      "t_bytes32": {
        "encoding": "inplace",
        "label": "bytes32",
        "numberOfBytes": "32"
      },
      "t_mapping(t_address,t_address)": {
        "encoding": "mapping",
        "key": "t_address",
        "label": "mapping(address => address)",
        "numberOfBytes": "32",
        "value": "t_address"
      },
      "t_mapping(t_address,t_array(t_address)dyn_storage)": {
        "encoding": "mapping",
        "key": "t_address",
        "label": "mapping(address => address[])",
        "numberOfBytes": "32",
        "value": "t_array(t_address)dyn_storage"
      },
      "t_mapping(t_address,t_bool)": {
        "encoding": "mapping",
        "key": "t_address",
        "label": "mapping(address => bool)",
        "numberOfBytes": "32",
        "value": "t_bool"
      },
      "t_mapping(t_address,t_uint256)": {
        "encoding": "mapping",
        "key": "t_address",
        "label": "mapping(address => uint256)",
        "numberOfBytes": "32",
        "value": "t_uint256"
      },
      "t_mapping(t_bytes32,t_struct(AddressSet)3640_storage)": {
        "encoding": "mapping",
        "key": "t_bytes32",
        "label": "mapping(bytes32 => struct EnumerableSet.AddressSet)",
        "numberOfBytes": "32",
        "value": "t_struct(AddressSet)3640_storage"
      },
      "t_mapping(t_bytes32,t_struct(RoleData)7394_storage)": {
        "encoding": "mapping",
        "key": "t_bytes32",
        "label": "mapping(bytes32 => struct RoleData)",
        "numberOfBytes": "32",
        "value": "t_struct(RoleData)7394_storage"
      },
      "t_mapping(t_bytes32,t_uint256)": {
        "encoding": "mapping",
        "key": "t_bytes32",
        "label": "mapping(bytes32 => uint256)",
        "numberOfBytes": "32",
        "value": "t_uint256"
      },
      "t_string_storage": {
        "encoding": "bytes",
        "label": "string",
        "numberOfBytes": "32"
      },
      "t_struct(AddressSet)3640_storage": {
        "encoding": "inplace",
        "label": "struct EnumerableSet.AddressSet",
        "members": [
          {
            "astId": 3639,
            "contract": "contracts/Factory/facets/TokensFacet.sol:TokensFacet",
            "label": "_inner",
            "offset": 0,
            "slot": "0",
            "type": "t_struct(Set)3325_storage"
          }
        ],
        "numberOfBytes": "64"
      },
      "t_struct(AppStorage)4552_storage": {
        "encoding": "inplace",
        "label": "struct AppStorage",
        "members": [
          {
            "astId": 4528,
            "contract": "contracts/Factory/facets/TokensFacet.sol:TokensFacet",
            "label": "_roles",
            "offset": 0,
            "slot": "0",
            "type": "t_mapping(t_bytes32,t_struct(RoleData)7394_storage)"
          },
          {
            "astId": 4530,
            "contract": "contracts/Factory/facets/TokensFacet.sol:TokensFacet",
            "label": "failsafe",
            "offset": 0,
            "slot": "1",
            "type": "t_string_storage"
          },
          {
            "astId": 4535,
            "contract": "contracts/Factory/facets/TokensFacet.sol:TokensFacet",
            "label": "_roleMembers",
            "offset": 0,
            "slot": "2",
            "type": "t_mapping(t_bytes32,t_struct(AddressSet)3640_storage)"
          },
          {
            "astId": 4538,
            "contract": "contracts/Factory/facets/TokensFacet.sol:TokensFacet",
            "label": "creators",
            "offset": 0,
            "slot": "3",
            "type": "t_array(t_address)dyn_storage"
          },
          {
            "astId": 4543,
            "contract": "contracts/Factory/facets/TokensFacet.sol:TokensFacet",
            "label": "creatorToContracts",
            "offset": 0,
            "slot": "4",
            "type": "t_mapping(t_address,t_array(t_address)dyn_storage)"
          },
          {
            "astId": 4547,
            "contract": "contracts/Factory/facets/TokensFacet.sol:TokensFacet",
            "label": "contractToCreator",
            "offset": 0,
            "slot": "5",
            "type": "t_mapping(t_address,t_address)"
          },
          {
            "astId": 4551,
            "contract": "contracts/Factory/facets/TokensFacet.sol:TokensFacet",
            "label": "deploymentCostForToken",
            "offset": 0,
            "slot": "6",
            "type": "t_mapping(t_address,t_uint256)"
          }
        ],
        "numberOfBytes": "224"
      },
      "t_struct(RoleData)7394_storage": {
        "encoding": "inplace",
        "label": "struct RoleData",
        "members": [
          {
            "astId": 7391,
            "contract": "contracts/Factory/facets/TokensFacet.sol:TokensFacet",
            "label": "members",
            "offset": 0,
            "slot": "0",
            "type": "t_mapping(t_address,t_bool)"
          },
          {
            "astId": 7393,
            "contract": "contracts/Factory/facets/TokensFacet.sol:TokensFacet",
            "label": "adminRole",
            "offset": 0,
            "slot": "1",
            "type": "t_bytes32"
          }
        ],
        "numberOfBytes": "64"
      },
      "t_struct(Set)3325_storage": {
        "encoding": "inplace",
        "label": "struct EnumerableSet.Set",
        "members": [
          {
            "astId": 3320,
            "contract": "contracts/Factory/facets/TokensFacet.sol:TokensFacet",
            "label": "_values",
            "offset": 0,
            "slot": "0",
            "type": "t_array(t_bytes32)dyn_storage"
          },
          {
            "astId": 3324,
            "contract": "contracts/Factory/facets/TokensFacet.sol:TokensFacet",
            "label": "_indexes",
            "offset": 0,
            "slot": "1",
            "type": "t_mapping(t_bytes32,t_uint256)"
          }
        ],
        "numberOfBytes": "64"
      },
      "t_uint256": {
        "encoding": "inplace",
        "label": "uint256",
        "numberOfBytes": "32"
      }
    }
  }
}