{
  "address": "0x92FBe344513e108B581170E73CFA352B729E47EA",
  "abi": [
    {
      "inputs": [
        {
          "internalType": "uint256",
          "name": "value",
          "type": "uint256"
        },
        {
          "internalType": "uint256",
          "name": "length",
          "type": "uint256"
        }
      ],
      "name": "StringsInsufficientHexLength",
      "type": "error"
    },
    {
      "anonymous": false,
      "inputs": [
        {
          "indexed": false,
          "internalType": "string",
          "name": "_value",
          "type": "string"
        },
        {
          "indexed": true,
          "internalType": "uint256",
          "name": "_id",
          "type": "uint256"
        }
      ],
      "name": "PermanentURI",
      "type": "event"
    },
    {
      "anonymous": false,
      "inputs": [
        {
          "indexed": true,
          "internalType": "bytes32",
          "name": "role",
          "type": "bytes32"
        },
        {
          "indexed": true,
          "internalType": "bytes32",
          "name": "previousAdminRole",
          "type": "bytes32"
        },
        {
          "indexed": true,
          "internalType": "bytes32",
          "name": "newAdminRole",
          "type": "bytes32"
        }
      ],
      "name": "RoleAdminChanged",
      "type": "event"
    },
    {
      "anonymous": false,
      "inputs": [
        {
          "indexed": true,
          "internalType": "bytes32",
          "name": "role",
          "type": "bytes32"
        },
        {
          "indexed": true,
          "internalType": "address",
          "name": "account",
          "type": "address"
        },
        {
          "indexed": true,
          "internalType": "address",
          "name": "sender",
          "type": "address"
        }
      ],
      "name": "RoleGranted",
      "type": "event"
    },
    {
      "anonymous": false,
      "inputs": [
        {
          "indexed": true,
          "internalType": "bytes32",
          "name": "role",
          "type": "bytes32"
        },
        {
          "indexed": true,
          "internalType": "address",
          "name": "account",
          "type": "address"
        },
        {
          "indexed": true,
          "internalType": "address",
          "name": "sender",
          "type": "address"
        }
      ],
      "name": "RoleRevoked",
      "type": "event"
    },
    {
      "anonymous": false,
      "inputs": [
        {
          "indexed": false,
          "internalType": "string",
          "name": "newURI",
          "type": "string"
        },
        {
          "indexed": false,
          "internalType": "bool",
          "name": "appendTokenIndex",
          "type": "bool"
        },
        {
          "indexed": false,
          "internalType": "string",
          "name": "metadataExtension",
          "type": "string"
        }
      ],
      "name": "UpdatedBaseURI",
      "type": "event"
    },
    {
      "anonymous": false,
      "inputs": [
        {
          "indexed": false,
          "internalType": "string",
          "name": "newURI",
          "type": "string"
        }
      ],
      "name": "UpdatedContractURI",
      "type": "event"
    },
    {
      "anonymous": false,
      "inputs": [
        {
          "indexed": false,
          "internalType": "uint256",
          "name": "productId",
          "type": "uint256"
        },
        {
          "indexed": false,
          "internalType": "string",
          "name": "newURI",
          "type": "string"
        },
        {
          "indexed": false,
          "internalType": "bool",
          "name": "appendTokenIndex",
          "type": "bool"
        },
        {
          "indexed": false,
          "internalType": "string",
          "name": "metadataExtension",
          "type": "string"
        }
      ],
      "name": "UpdatedProductURI",
      "type": "event"
    },
    {
      "anonymous": false,
      "inputs": [
        {
          "indexed": false,
          "internalType": "uint256",
          "name": "rangeId",
          "type": "uint256"
        },
        {
          "indexed": false,
          "internalType": "string",
          "name": "newURI",
          "type": "string"
        },
        {
          "indexed": false,
          "internalType": "bool",
          "name": "appendTokenIndex",
          "type": "bool"
        },
        {
          "indexed": false,
          "internalType": "string",
          "name": "metadataExtension",
          "type": "string"
        }
      ],
      "name": "UpdatedRangeURI",
      "type": "event"
    },
    {
      "anonymous": false,
      "inputs": [
        {
          "indexed": false,
          "internalType": "uint256",
          "name": "tokenId",
          "type": "uint256"
        },
        {
          "indexed": false,
          "internalType": "string",
          "name": "newURI",
          "type": "string"
        }
      ],
      "name": "UpdatedTokenURI",
      "type": "event"
    },
    {
      "anonymous": false,
      "inputs": [
        {
          "indexed": false,
          "internalType": "string",
          "name": "newExtension",
          "type": "string"
        }
      ],
      "name": "UpdatedURIExtension",
      "type": "event"
    },
    {
      "inputs": [],
      "name": "CREATOR",
      "outputs": [
        {
          "internalType": "bytes32",
          "name": "",
          "type": "bytes32"
        }
      ],
      "stateMutability": "view",
      "type": "function"
    },
    {
      "inputs": [],
      "name": "MINTER",
      "outputs": [
        {
          "internalType": "bytes32",
          "name": "",
          "type": "bytes32"
        }
      ],
      "stateMutability": "view",
      "type": "function"
    },
    {
      "inputs": [],
      "name": "TRADER",
      "outputs": [
        {
          "internalType": "bytes32",
          "name": "",
          "type": "bytes32"
        }
      ],
      "stateMutability": "view",
      "type": "function"
    },
    {
      "inputs": [],
      "name": "contractURI",
      "outputs": [
        {
          "internalType": "string",
          "name": "",
          "type": "string"
        }
      ],
      "stateMutability": "view",
      "type": "function"
    },
    {
      "inputs": [
        {
          "internalType": "uint256",
          "name": "tokenId",
          "type": "uint256"
        }
      ],
      "name": "freezeMetadata",
      "outputs": [],
      "stateMutability": "nonpayable",
      "type": "function"
    },
    {
      "inputs": [
        {
          "internalType": "bytes32",
          "name": "role",
          "type": "bytes32"
        }
      ],
      "name": "getRoleAdmin",
      "outputs": [
        {
          "internalType": "bytes32",
          "name": "",
          "type": "bytes32"
        }
      ],
      "stateMutability": "view",
      "type": "function"
    },
    {
      "inputs": [
        {
          "internalType": "bytes32",
          "name": "role",
          "type": "bytes32"
        },
        {
          "internalType": "uint256",
          "name": "index",
          "type": "uint256"
        }
      ],
      "name": "getRoleMember",
      "outputs": [
        {
          "internalType": "address",
          "name": "",
          "type": "address"
        }
      ],
      "stateMutability": "view",
      "type": "function"
    },
    {
      "inputs": [
        {
          "internalType": "bytes32",
          "name": "role",
          "type": "bytes32"
        }
      ],
      "name": "getRoleMemberCount",
      "outputs": [
        {
          "internalType": "uint256",
          "name": "",
          "type": "uint256"
        }
      ],
      "stateMutability": "view",
      "type": "function"
    },
    {
      "inputs": [
        {
          "internalType": "bytes32",
          "name": "role",
          "type": "bytes32"
        },
        {
          "internalType": "address",
          "name": "account",
          "type": "address"
        }
      ],
      "name": "grantRole",
      "outputs": [],
      "stateMutability": "nonpayable",
      "type": "function"
    },
    {
      "inputs": [
        {
          "internalType": "bytes32",
          "name": "role",
          "type": "bytes32"
        },
        {
          "internalType": "address",
          "name": "account",
          "type": "address"
        }
      ],
      "name": "hasRole",
      "outputs": [
        {
          "internalType": "bool",
          "name": "",
          "type": "bool"
        }
      ],
      "stateMutability": "view",
      "type": "function"
    },
    {
      "inputs": [
        {
          "internalType": "bytes32",
          "name": "role",
          "type": "bytes32"
        },
        {
          "internalType": "address",
          "name": "account",
          "type": "address"
        }
      ],
      "name": "renounceRole",
      "outputs": [],
      "stateMutability": "nonpayable",
      "type": "function"
    },
    {
      "inputs": [
        {
          "internalType": "bytes32",
          "name": "role",
          "type": "bytes32"
        },
        {
          "internalType": "address",
          "name": "account",
          "type": "address"
        }
      ],
      "name": "revokeRole",
      "outputs": [],
      "stateMutability": "nonpayable",
      "type": "function"
    },
    {
      "inputs": [
        {
          "internalType": "string",
          "name": "newURI",
          "type": "string"
        },
        {
          "internalType": "bool",
          "name": "appendTokenIndexToBaseURI",
          "type": "bool"
        }
      ],
      "name": "setBaseURI",
      "outputs": [],
      "stateMutability": "nonpayable",
      "type": "function"
    },
    {
      "inputs": [
        {
          "internalType": "uint256",
          "name": "productId",
          "type": "uint256"
        },
        {
          "internalType": "string",
          "name": "newURI",
          "type": "string"
        },
        {
          "internalType": "bool",
          "name": "appendTokenIndexToProductURI",
          "type": "bool"
        }
      ],
      "name": "setCollectionURI",
      "outputs": [],
      "stateMutability": "nonpayable",
      "type": "function"
    },
    {
      "inputs": [
        {
          "internalType": "string",
          "name": "newURI",
          "type": "string"
        }
      ],
      "name": "setContractURI",
      "outputs": [],
      "stateMutability": "nonpayable",
      "type": "function"
    },
    {
      "inputs": [
        {
          "internalType": "string",
          "name": "extension",
          "type": "string"
        }
      ],
      "name": "setMetadataExtension",
      "outputs": [],
      "stateMutability": "nonpayable",
      "type": "function"
    },
    {
      "inputs": [
        {
          "internalType": "uint256",
          "name": "rangeId",
          "type": "uint256"
        },
        {
          "internalType": "string",
          "name": "newURI",
          "type": "string"
        },
        {
          "internalType": "bool",
          "name": "appendTokenIndex",
          "type": "bool"
        }
      ],
      "name": "setRangeURI",
      "outputs": [],
      "stateMutability": "nonpayable",
      "type": "function"
    },
    {
      "inputs": [
        {
          "internalType": "uint256",
          "name": "tokenId",
          "type": "uint256"
        },
        {
          "internalType": "string",
          "name": "newURI",
          "type": "string"
        }
      ],
      "name": "setUniqueURI",
      "outputs": [],
      "stateMutability": "nonpayable",
      "type": "function"
    },
    {
      "inputs": [
        {
          "internalType": "uint256[]",
          "name": "tokenIds",
          "type": "uint256[]"
        },
        {
          "internalType": "string[]",
          "name": "newURIs",
          "type": "string[]"
        }
      ],
      "name": "setUniqueURIBatch",
      "outputs": [],
      "stateMutability": "nonpayable",
      "type": "function"
    },
    {
      "inputs": [
        {
          "internalType": "uint256",
          "name": "token",
          "type": "uint256"
        }
      ],
      "name": "tokenToCollectionIndex",
      "outputs": [
        {
          "internalType": "uint256",
          "name": "tokenIndex",
          "type": "uint256"
        }
      ],
      "stateMutability": "view",
      "type": "function"
    },
    {
      "inputs": [
        {
          "internalType": "uint256",
          "name": "tokenId",
          "type": "uint256"
        }
      ],
      "name": "tokenURI",
      "outputs": [
        {
          "internalType": "string",
          "name": "",
          "type": "string"
        }
      ],
      "stateMutability": "view",
      "type": "function"
    }
  ],
  "transactionHash": "0xc869a2d7c3ade4e2a24e27bfb5f93f784a3eae3479bb07d7f08fee793e9d3ab8",
  "args": [],
  "numDeployments": 1,
  "solcInputHash": "ba288d747cc1aa4c71ee545a11fd6010",
  "bytecode": "0x6080604052348015600f57600080fd5b50611dc68061001f6000396000f3fe608060405234801561001057600080fd5b50600436106101375760003560e01c80639f6350e6116100b8578063ca15c8731161007c578063ca15c873146102b7578063d547741f146102ca578063d6215ace146102dd578063e4fbb609146102f0578063e8a3d48514610305578063fe6d81241461030d57600080fd5b80639f6350e61461024b578063ab9aae351461025e578063b64b21ca14610271578063c1d78b4a14610284578063c87b56dd1461029757600080fd5b80634dcf6ad6116100ff5780634dcf6ad6146101c457806381f460ef146101d75780639010d07c146101ea57806391d1485414610215578063938e3d7b1461023857600080fd5b8063175c4ef81461013c5780631c899d1a14610176578063248a9ca31461018b5780632f2ff15d1461019e57806336568abe146101b1575b600080fd5b6101637f872340a532bdd7bb02bea115c1b0f1ba87eac982f5b79b51ac189ffaac1b6fce81565b6040519081526020015b60405180910390f35b610189610184366004611585565b610334565b005b6101636101993660046115d1565b6103d8565b6101896101ac3660046115ea565b6103fa565b6101896101bf3660046115ea565b61041c565b6101896101d23660046115d1565b61049f565b6101896101e536600461163b565b6104fc565b6101fd6101f8366004611699565b6105c5565b6040516001600160a01b03909116815260200161016d565b6102286102233660046115ea565b6105f3565b604051901515815260200161016d565b6101896102463660046116bb565b61062b565b6101896102593660046116bb565b6106bf565b61016361026c3660046115d1565b6107d4565b61018961027f3660046116fd565b610868565b610189610292366004611796565b610906565b6102aa6102a53660046115d1565b6109ef565b60405161016d9190611826565b6101636102c53660046115d1565b610d79565b6101896102d83660046115ea565b610d9d565b6101896102eb36600461163b565b610dba565b610163600080516020611d3183398151915281565b6102aa610e73565b6101637ff0887ba65ee2024ea881d91b74c2450ef19e1557f03bed3ea9f16b037cbe2dc981565b600080516020611d3183398151915261034d8133610f15565b60008481527f13fbb056f2602120441ced10c19d8151fd41fd4b17a6646b53bc0f944eb07a4960205260409020600080516020611d71833981519152906103958486836118f1565b507faab063d4691f636507767c2040fbab0b0e00a684d66a2f9640653ed5e7b859f98585856040516103c9939291906119db565b60405180910390a15050505050565b6000908152600080516020611d11833981519152602052604090206001015490565b610403826103d8565b61040d8133610f15565b6104178383610f79565b505050565b6001600160a01b03811633146104915760405162461bcd60e51b815260206004820152602f60248201527f416363657373436f6e74726f6c3a2063616e206f6e6c792072656e6f756e636560448201526e103937b632b9903337b91039b2b63360891b60648201526084015b60405180910390fd5b61049b8282611010565b5050565b600080516020611d318339815191526104b88133610f15565b817fa109ba539900bf1b633f956d63c96fc89b814c7287f7aa50a9216d0b556572076104e3846109ef565b6040516104f09190611826565b60405180910390a25050565b600080516020611d318339815191526105158133610f15565b60008581527f13fbb056f2602120441ced10c19d8151fd41fd4b17a6646b53bc0f944eb07a5160205260409020600080516020611d718339815191529061055d8587836118f1565b50600086815260198201602052604090819020805460ff1916851515179055517f2bb1ada610787986fd4521b4954a78d4f238f7bca767c926c6f07d999a9cda43906105b5908890889088908890601a880190611a7b565b60405180910390a1505050505050565b6000828152600080516020611d51833981519152602052604081206105ea90836110a5565b90505b92915050565b6000918252600080516020611d11833981519152602090815260408084206001600160a01b0393909316845291905290205460ff1690565b600080516020611d318339815191526106448133610f15565b600080516020611d718339815191527f13fbb056f2602120441ced10c19d8151fd41fd4b17a6646b53bc0f944eb07a4e61067f8486836118f1565b507f64729fba330f29cb50d748098a4dff25d203b0c55833653113fb5e80bcbd16c184846040516106b1929190611abb565b60405180910390a150505050565b600080516020611d318339815191526106d88133610f15565b828260008181106106eb576106eb611acf565b9050013560f81c60f81b6001600160f81b031916601760f91b146107665760405162461bcd60e51b815260206004820152602c60248201527f52414952204552433732313a20457874656e73696f6e206d757374207374617260448201526b742077697468206120272e2760a01b6064820152608401610488565b600080516020611d718339815191527f13fbb056f2602120441ced10c19d8151fd41fd4b17a6646b53bc0f944eb07a536107a18486836118f1565b507faa320816703c301a5fd8413568c3c1973befd093aa334d16a2414f0019b0f3da81601a016040516106b19190611ae5565b60008181527f13fbb056f2602120441ced10c19d8151fd41fd4b17a6646b53bc0f944eb07a4760205260408120547f13fbb056f2602120441ced10c19d8151fd41fd4b17a6646b53bc0f944eb07a458054600080516020611d718339815191529290811061084457610844611acf565b906000526020600020906005020160000154836108619190611b0e565b9392505050565b600080516020611d318339815191526108818133610f15565b600080516020611d718339815191527f13fbb056f2602120441ced10c19d8151fd41fd4b17a6646b53bc0f944eb07a436108bc8587836118f1565b5060138101805460ff19168415151790556040517f5a46dbcba74fa6a037f659c582371f45be00bed8b34d9edc9ee5ef9eb2571d9d906103c990879087908790601a870190611b21565b600080516020611d3183398151915261091f8133610f15565b8382146109945760405162461bcd60e51b815260206004820152603b60248201527f52414952204552433732313a20546f6b656e2049447320616e6420555249732060448201527f73686f756c642068617665207468652073616d65206c656e67746800000000006064820152608401610488565b60005b848110156109e7576109df8686838181106109b4576109b4611acf565b905060200201358585848181106109cd576109cd611acf565b90506020028101906101849190611b5a565b600101610997565b505050505050565b60008181527f13fbb056f2602120441ced10c19d8151fd41fd4b17a6646b53bc0f944eb07a49602052604081208054606092600080516020611d71833981519152929091610a3c9061186f565b80601f0160208091040260200160405190810160405280929190818152602001828054610a689061186f565b8015610ab55780601f10610a8a57610100808354040283529160200191610ab5565b820191906000526020600020905b815481529060010190602001808311610a9857829003601f168201915b50505050509050600081511115610acd579392505050565b6000848152600f8301602090815260408083205483526018850190915290208054610af79061186f565b80601f0160208091040260200160405190810160405280929190818152602001828054610b239061186f565b8015610b705780601f10610b4557610100808354040283529160200191610b70565b820191906000526020600020905b815481529060010190602001808311610b5357829003601f168201915b50505050509050600081511115610be9576000848152600f8301602090815260408083205483526019850190915290205460ff16156108615780610bbb610bb6866107d4565b6110b1565b83601a01604051602001610bd193929190611ba1565b60405160208183030381529060405292505050919050565b6000848152600e8301602090815260408083205483526011850190915290208054610c139061186f565b80601f0160208091040260200160405190810160405280929190818152602001828054610c3f9061186f565b8015610c8c5780601f10610c6157610100808354040283529160200191610c8c565b820191906000526020600020905b815481529060010190602001808311610c6f57829003601f168201915b50505050509050600081511115610cd2576000848152600e8301602090815260408083205483526012850190915290205460ff16156108615780610bbb610bb6866107d4565b81600a018054610ce19061186f565b80601f0160208091040260200160405190810160405280929190818152602001828054610d0d9061186f565b8015610d5a5780601f10610d2f57610100808354040283529160200191610d5a565b820191906000526020600020905b815481529060010190602001808311610d3d57829003601f168201915b5050506013850154929350505060ff16156108615780610bbb856110b1565b6000818152600080516020611d51833981519152602052604081206105ed90611144565b610da6826103d8565b610db08133610f15565b6104178383611010565b600080516020611d31833981519152610dd38133610f15565b60008581527f13fbb056f2602120441ced10c19d8151fd41fd4b17a6646b53bc0f944eb07a4a60205260409020600080516020611d7183398151915290610e1b8587836118f1565b50600086815260128201602052604090819020805460ff1916851515179055517ff143691bfd54372ac96096580c7ac8fa560f8c1b3c770db4f16eb1197c8d2f43906105b5908890889088908890601a880190611a7b565b6060600080516020611d718339815191526015018054610e929061186f565b80601f0160208091040260200160405190810160405280929190818152602001828054610ebe9061186f565b8015610f0b5780601f10610ee057610100808354040283529160200191610f0b565b820191906000526020600020905b815481529060010190602001808311610eee57829003601f168201915b5050505050905090565b610f1f82826105f3565b61049b57610f37816001600160a01b0316601461114e565b610f4283602061114e565b604051602001610f53929190611c44565b60408051601f198184030181529082905262461bcd60e51b825261048891600401611826565b610f8382826105f3565b61049b576000828152600080516020611d11833981519152602090815260408083206001600160a01b0385168085529252808320805460ff1916600117905551339285917f2f8788117e7eff1d82e926ec794901d17c78024a50270940304540a733656f0d9190a46000828152600080516020611d518339815191526020526040902061041790826112ce565b61101a82826105f3565b1561049b576000828152600080516020611d11833981519152602090815260408083206001600160a01b0385168085529252808320805460ff1916905551339285917ff6391f5c32d9c69d2a47ea670b442974b53935d1edc7fd64eb21e047a839171b9190a46000828152600080516020611d518339815191526020526040902061041790826112e3565b60006105ea83836112f8565b606060006110be83611322565b600101905060008167ffffffffffffffff8111156110de576110de611859565b6040519080825280601f01601f191660200182016040528015611108576020820181803683370190505b5090508181016020015b600019016f181899199a1a9b1b9c1cb0b131b232b360811b600a86061a8153600a850494508461111257509392505050565b60006105ed825490565b606082600061115e846002611cb9565b611169906002611cd0565b67ffffffffffffffff81111561118157611181611859565b6040519080825280601f01601f1916602001820160405280156111ab576020820181803683370190505b509050600360fc1b816000815181106111c6576111c6611acf565b60200101906001600160f81b031916908160001a905350600f60fb1b816001815181106111f5576111f5611acf565b60200101906001600160f81b031916908160001a9053506000611219856002611cb9565b611224906001611cd0565b90505b600181111561129c576f181899199a1a9b1b9c1cb0b131b232b360811b83600f166010811061125857611258611acf565b1a60f81b82828151811061126e5761126e611acf565b60200101906001600160f81b031916908160001a90535060049290921c9161129581611ce3565b9050611227565b5081156112c65760405163e22e27eb60e01b81526004810186905260248101859052604401610488565b949350505050565b60006105ea836001600160a01b0384166113fa565b60006105ea836001600160a01b038416611449565b600082600001828154811061130f5761130f611acf565b9060005260206000200154905092915050565b60008072184f03e93ff9f4daa797ed6e38ed64bf6a1f0160401b83106113615772184f03e93ff9f4daa797ed6e38ed64bf6a1f0160401b830492506040015b6d04ee2d6d415b85acef8100000000831061138d576d04ee2d6d415b85acef8100000000830492506020015b662386f26fc1000083106113ab57662386f26fc10000830492506010015b6305f5e10083106113c3576305f5e100830492506008015b61271083106113d757612710830492506004015b606483106113e9576064830492506002015b600a83106105ed5760010192915050565b6000818152600183016020526040812054611441575081546001818101845560008481526020808220909301849055845484825282860190935260409020919091556105ed565b5060006105ed565b6000818152600183016020526040812054801561153257600061146d600183611b0e565b855490915060009061148190600190611b0e565b90508082146114e65760008660000182815481106114a1576114a1611acf565b90600052602060002001549050808760000184815481106114c4576114c4611acf565b6000918252602080832090910192909255918252600188019052604090208390555b85548690806114f7576114f7611cfa565b6001900381819060005260206000200160009055905585600101600086815260200190815260200160002060009055600193505050506105ed565b60009150506105ed565b60008083601f84011261154e57600080fd5b50813567ffffffffffffffff81111561156657600080fd5b60208301915083602082850101111561157e57600080fd5b9250929050565b60008060006040848603121561159a57600080fd5b83359250602084013567ffffffffffffffff8111156115b857600080fd5b6115c48682870161153c565b9497909650939450505050565b6000602082840312156115e357600080fd5b5035919050565b600080604083850312156115fd57600080fd5b8235915060208301356001600160a01b038116811461161b57600080fd5b809150509250929050565b8035801515811461163657600080fd5b919050565b6000806000806060858703121561165157600080fd5b84359350602085013567ffffffffffffffff81111561166f57600080fd5b61167b8782880161153c565b909450925061168e905060408601611626565b905092959194509250565b600080604083850312156116ac57600080fd5b50508035926020909101359150565b600080602083850312156116ce57600080fd5b823567ffffffffffffffff8111156116e557600080fd5b6116f18582860161153c565b90969095509350505050565b60008060006040848603121561171257600080fd5b833567ffffffffffffffff81111561172957600080fd5b6117358682870161153c565b9094509250611748905060208501611626565b90509250925092565b60008083601f84011261176357600080fd5b50813567ffffffffffffffff81111561177b57600080fd5b6020830191508360208260051b850101111561157e57600080fd5b600080600080604085870312156117ac57600080fd5b843567ffffffffffffffff808211156117c457600080fd5b6117d088838901611751565b909650945060208701359150808211156117e957600080fd5b506117f687828801611751565b95989497509550505050565b60005b8381101561181d578181015183820152602001611805565b50506000910152565b6020815260008251806020840152611845816040850160208701611802565b601f01601f19169190910160400192915050565b634e487b7160e01b600052604160045260246000fd5b600181811c9082168061188357607f821691505b6020821081036118a357634e487b7160e01b600052602260045260246000fd5b50919050565b601f821115610417576000816000526020600020601f850160051c810160208610156118d25750805b601f850160051c820191505b818110156109e7578281556001016118de565b67ffffffffffffffff83111561190957611909611859565b61191d83611917835461186f565b836118a9565b6000601f84116001811461195157600085156119395750838201355b600019600387901b1c1916600186901b1783556119ab565b600083815260209020601f19861690835b828110156119825786850135825560209485019460019092019101611962565b508682101561199f5760001960f88860031b161c19848701351681555b505060018560011b0183555b5050505050565b81835281816020850137506000828201602090810191909152601f909101601f19169091010190565b8381526040602082015260006119f56040830184866119b2565b95945050505050565b60008154611a0b8161186f565b808552602060018381168015611a285760018114611a4257611a70565b60ff1985168884015283151560051b880183019550611a70565b866000528260002060005b85811015611a685781548a8201860152908301908401611a4d565b890184019650505b505050505092915050565b858152608060208201526000611a956080830186886119b2565b84151560408401528281036060840152611aaf81856119fe565b98975050505050505050565b6020815260006112c66020830184866119b2565b634e487b7160e01b600052603260045260246000fd5b6020815260006105ea60208301846119fe565b634e487b7160e01b600052601160045260246000fd5b818103818111156105ed576105ed611af8565b606081526000611b356060830186886119b2565b84151560208401528281036040840152611b4f81856119fe565b979650505050505050565b6000808335601e19843603018112611b7157600080fd5b83018035915067ffffffffffffffff821115611b8c57600080fd5b60200191503681900382131561157e57600080fd5b600084516020611bb5828560208a01611802565b855191840191611bc9818460208a01611802565b8554920191600090611bda8161186f565b60018281168015611bf25760018114611c0757611c34565b60ff1984168752821515830287019450611c34565b89600052602060002060005b84811015611c2c57815489820152908301908701611c13565b505082870194505b50929a9950505050505050505050565b7f416363657373436f6e74726f6c3a206163636f756e7420000000000000000000815260008351611c7c816017850160208801611802565b7001034b99036b4b9b9b4b733903937b6329607d1b6017918401918201528351611cad816028840160208801611802565b01602801949350505050565b80820281158282048414176105ed576105ed611af8565b808201808211156105ed576105ed611af8565b600081611cf257611cf2611af8565b506000190190565b634e487b7160e01b600052603160045260246000fdfe4f4f658137f4e10317e1a22624c2b114af7563a20fb2e3444ae2ac2342d457d03c2519c4487d47714872f92cf90a50c25f5deaec2789dc2a497b1272df611db64f4f658137f4e10317e1a22624c2b114af7563a20fb2e3444ae2ac2342d457d113fbb056f2602120441ced10c19d8151fd41fd4b17a6646b53bc0f944eb07a39a264697066735822122032a87a435dbef06da9cb2cb2cf336f58d1483da32d095203e13153a3c72c297f64736f6c63430008190033",
  "devdoc": {
    "author": "Juan M. Sanchez M.",
    "details": "Notice that this contract is inheriting from AccessControlAppStorageEnumerable721",
    "errors": {
      "StringsInsufficientHexLength(uint256,uint256)": [
        {
          "details": "The `value` string doesn't fit in the specified `length`."
        }
      ]
    },
    "events": {
      "UpdatedBaseURI(string,bool,string)": {
        "params": {
          "appendTokenIndex": "Contains the index of the tokens appended to the URI",
          "metadataExtension": "File extension (if exists)",
          "newURI": "Contains the new  base identifier for all the tokens"
        }
      },
      "UpdatedContractURI(string)": {
        "params": {
          "newURI": "Contains the new identifier for the contract "
        }
      },
      "UpdatedProductURI(uint256,string,bool,string)": {
        "params": {
          "appendTokenIndex": "Contains the index of the token appended to the URI",
          "metadataExtension": "File extension (if exists)",
          "newURI": "Contains the new identifier for the product",
          "productId": "Contains the index of the product to change"
        }
      },
      "UpdatedRangeURI(uint256,string,bool,string)": {
        "params": {
          "appendTokenIndex": "Contains the index of the token appended to the URI",
          "metadataExtension": "File extension (if exists)",
          "newURI": "Contains the new identifier for the product",
          "rangeId": "Contains the index of the product to change"
        }
      },
      "UpdatedTokenURI(uint256,string)": {
        "params": {
          "newURI": "Contains the new identifier for the token",
          "tokenId": "Contains the index of the token appended to the URI"
        }
      },
      "UpdatedURIExtension(string)": {
        "details": "It will be appended ONLY if the token ID has to also be appended",
        "params": {
          "newExtension": "The new extension for all the URIs"
        }
      }
    },
    "kind": "dev",
    "methods": {
      "contractURI()": {
        "returns": {
          "_0": "string with the URI of the contract "
        }
      },
      "freezeMetadata(uint256)": {
        "details": "This function is only available to an account with a `CREATOR` role",
        "params": {
          "tokenId": "Token Index that will be given an URI"
        }
      },
      "setBaseURI(string,bool)": {
        "details": "This function is only available to an account with a `CREATOR` roleCan be overriden by the specific token URI",
        "params": {
          "appendTokenIndexToBaseURI": "URI to be used",
          "newURI": "URI to be used"
        }
      },
      "setCollectionURI(uint256,string,bool)": {
        "details": "This function is only available to an account with a `CREATOR` roleEmits an event so there's provenance",
        "params": {
          "appendTokenIndexToProductURI": "If true, it will append the token index to the URI",
          "newURI": "New URI to be given",
          "productId": "Token Index that will be given an URI"
        }
      },
      "setContractURI(string)": {
        "details": "This function is only available to an account with a `CREATOR` role",
        "params": {
          "newURI": "New URI to be given"
        }
      },
      "setMetadataExtension(string)": {
        "details": "Must include the . before the extension",
        "params": {
          "extension": "Extension to be added at the end of all contract wide tokens"
        }
      },
      "setRangeURI(uint256,string,bool)": {
        "details": "Emits an event so there's provenance",
        "params": {
          "appendTokenIndex": "Flag to append the token index at the end of the new URI",
          "newURI": "New URI to be given",
          "rangeId": "Token Index that will be given an URI"
        }
      },
      "setUniqueURI(uint256,string)": {
        "details": "This function is only available to an account with a `CREATOR` roleEmits an event so there's provenance",
        "params": {
          "newURI": "New URI to be given",
          "tokenId": "Token Index that will be given an URI"
        }
      },
      "setUniqueURIBatch(uint256[],string[])": {
        "details": "This function is only available to an account with a `CREATOR` roleUses the single function so it also emits an eventThis function requires that all the tokens have a corresponding URI",
        "params": {
          "newURIs": "New URIs to be set",
          "tokenIds": "Token Indexes that will be given an URI"
        }
      },
      "tokenToCollectionIndex(uint256)": {
        "params": {
          "token": "Token ID to find"
        },
        "returns": {
          "tokenIndex": "which contains the corresponding token index"
        }
      },
      "tokenURI(uint256)": {
        "details": "Will return unique token URI or product URI or contract URI",
        "params": {
          "tokenId": "Token Index to look for"
        },
        "returns": {
          "_0": "string with the URI of the toke that we are using"
        }
      }
    },
    "title": "RAIR Metadata facet contract",
    "version": 1
  },
  "userdoc": {
    "events": {
      "UpdatedBaseURI(string,bool,string)": {
        "notice": "This event stores in the blockchain when the base code of all the tokens has an update in its URI"
      },
      "UpdatedContractURI(string)": {
        "notice": "This event stores in the blockchain when a contract has a change in its URI"
      },
      "UpdatedProductURI(uint256,string,bool,string)": {
        "notice": "This event stores in the blockchain when a product has a change in its URI"
      },
      "UpdatedRangeURI(uint256,string,bool,string)": {
        "notice": "This event stores in the blockchain when a range has a change in its URI"
      },
      "UpdatedTokenURI(uint256,string)": {
        "notice": "This event stores in the blockchain when a token has a change in its URI"
      },
      "UpdatedURIExtension(string)": {
        "notice": "This event informs the new extension all metadata URIs will have appended at the end"
      }
    },
    "kind": "user",
    "methods": {
      "contractURI()": {
        "notice": "This function allow us to see the current URI of the contract"
      },
      "freezeMetadata(uint256)": {
        "notice": "This function use OpenSea's to freeze the metadata"
      },
      "setBaseURI(string,bool)": {
        "notice": "Sets the Base URI for ALL tokens"
      },
      "setCollectionURI(uint256,string,bool)": {
        "notice": "Gives an individual token an unique URI"
      },
      "setContractURI(string)": {
        "notice": "This function allow us to set a new contract URI"
      },
      "setMetadataExtension(string)": {
        "notice": "Updates the metadata extension added at the end of all tokens"
      },
      "setRangeURI(uint256,string,bool)": {
        "notice": "Gives all tokens within a range a specific URI"
      },
      "setUniqueURI(uint256,string)": {
        "notice": "Gives an individual token an unique URI"
      },
      "setUniqueURIBatch(uint256[],string[])": {
        "notice": "Updates the unique URI of all the tokens, but in a single transaction"
      },
      "tokenToCollectionIndex(uint256)": {
        "notice": "Returns the token index inside the product"
      },
      "tokenURI(uint256)": {
        "notice": "Returns a token's URI"
      }
    },
    "notice": "You can use this contract to administrate the metadata asociated to the Rair facet",
    "version": 1
  },
  "storageLayout": {
    "storage": [],
    "types": null
  }
}