{
  "_format": "hh-sol-artifact-1",
  "contractName": "Minter_Marketplace",
  "sourceName": "contracts/Marketplaces/MarketplaceMinter.sol",
  "abi": [
    {
      "anonymous": false,
      "inputs": [
        {
          "indexed": false,
          "internalType": "address",
          "name": "contractAddress",
          "type": "address"
        },
        {
          "indexed": false,
          "internalType": "uint256",
          "name": "tokensAllowed",
          "type": "uint256"
        },
        {
          "indexed": false,
          "internalType": "uint256",
          "name": "price",
          "type": "uint256"
        },
        {
          "indexed": false,
          "internalType": "uint256",
          "name": "catalogIndex",
          "type": "uint256"
        }
      ],
      "name": "AddedOffer",
      "type": "event"
    },
    {
      "anonymous": false,
      "inputs": [
        {
          "indexed": false,
          "internalType": "uint16",
          "name": "newNodeFee",
          "type": "uint16"
        }
      ],
      "name": "ChangedNodeFee",
      "type": "event"
    },
    {
      "anonymous": false,
      "inputs": [
        {
          "indexed": false,
          "internalType": "address",
          "name": "newTreasury",
          "type": "address"
        }
      ],
      "name": "ChangedTreasury",
      "type": "event"
    },
    {
      "anonymous": false,
      "inputs": [
        {
          "indexed": false,
          "internalType": "address",
          "name": "treasury",
          "type": "address"
        },
        {
          "indexed": false,
          "internalType": "uint16",
          "name": "newTreasuryFee",
          "type": "uint16"
        }
      ],
      "name": "ChangedTreasuryFee",
      "type": "event"
    },
    {
      "anonymous": false,
      "inputs": [
        {
          "indexed": true,
          "internalType": "address",
          "name": "previousOwner",
          "type": "address"
        },
        {
          "indexed": true,
          "internalType": "address",
          "name": "newOwner",
          "type": "address"
        }
      ],
      "name": "OwnershipTransferred",
      "type": "event"
    },
    {
      "anonymous": false,
      "inputs": [
        {
          "indexed": false,
          "internalType": "address",
          "name": "contractAddress",
          "type": "address"
        },
        {
          "indexed": false,
          "internalType": "uint256",
          "name": "catalogIndex",
          "type": "uint256"
        }
      ],
      "name": "SoldOut",
      "type": "event"
    },
    {
      "anonymous": false,
      "inputs": [
        {
          "indexed": false,
          "internalType": "address",
          "name": "ownerAddress",
          "type": "address"
        },
        {
          "indexed": false,
          "internalType": "uint256",
          "name": "catalogIndex",
          "type": "uint256"
        }
      ],
      "name": "TokenMinted",
      "type": "event"
    },
    {
      "anonymous": false,
      "inputs": [
        {
          "indexed": false,
          "internalType": "address",
          "name": "contractAddress",
          "type": "address"
        },
        {
          "indexed": false,
          "internalType": "uint256",
          "name": "tokensAllowed",
          "type": "uint256"
        },
        {
          "indexed": false,
          "internalType": "uint256",
          "name": "price",
          "type": "uint256"
        },
        {
          "indexed": false,
          "internalType": "uint256",
          "name": "catalogIndex",
          "type": "uint256"
        }
      ],
      "name": "UpdatedOffer",
      "type": "event"
    },
    {
      "inputs": [
        {
          "internalType": "address",
          "name": "_tokenAddress",
          "type": "address"
        },
        {
          "internalType": "uint256",
          "name": "_tokensAllowed",
          "type": "uint256"
        },
        {
          "internalType": "uint256",
          "name": "_collectionIndex",
          "type": "uint256"
        },
        {
          "internalType": "uint256",
          "name": "_tokenPrice",
          "type": "uint256"
        },
        {
          "internalType": "address",
          "name": "_nodeAddress",
          "type": "address"
        }
      ],
      "name": "addOffer",
      "outputs": [],
      "stateMutability": "nonpayable",
      "type": "function"
    },
    {
      "inputs": [
        {
          "internalType": "uint256",
          "name": "_collectionID",
          "type": "uint256"
        },
        {
          "internalType": "uint256",
          "name": "internalIndex",
          "type": "uint256"
        }
      ],
      "name": "buyToken",
      "outputs": [],
      "stateMutability": "payable",
      "type": "function"
    },
    {
      "inputs": [
        {
          "internalType": "address",
          "name": "",
          "type": "address"
        },
        {
          "internalType": "uint256",
          "name": "",
          "type": "uint256"
        }
      ],
      "name": "contractToOffers",
      "outputs": [
        {
          "internalType": "uint256",
          "name": "",
          "type": "uint256"
        }
      ],
      "stateMutability": "view",
      "type": "function"
    },
    {
      "inputs": [],
      "name": "feeDecimals",
      "outputs": [
        {
          "internalType": "uint16",
          "name": "",
          "type": "uint16"
        }
      ],
      "stateMutability": "view",
      "type": "function"
    },
    {
      "inputs": [
        {
          "internalType": "uint256",
          "name": "_index",
          "type": "uint256"
        }
      ],
      "name": "getCollectionInfo",
      "outputs": [
        {
          "internalType": "address",
          "name": "contractAddress",
          "type": "address"
        },
        {
          "internalType": "uint256",
          "name": "collectionIndex",
          "type": "uint256"
        },
        {
          "internalType": "uint256",
          "name": "tokensAllowed",
          "type": "uint256"
        },
        {
          "internalType": "uint256",
          "name": "price",
          "type": "uint256"
        }
      ],
      "stateMutability": "view",
      "type": "function"
    },
    {
      "inputs": [],
      "name": "getOfferCount",
      "outputs": [
        {
          "internalType": "uint256",
          "name": "",
          "type": "uint256"
        }
      ],
      "stateMutability": "view",
      "type": "function"
    },
    {
      "inputs": [
        {
          "internalType": "address",
          "name": "_contract",
          "type": "address"
        }
      ],
      "name": "getOffersFromContract",
      "outputs": [
        {
          "internalType": "uint256[]",
          "name": "",
          "type": "uint256[]"
        }
      ],
      "stateMutability": "view",
      "type": "function"
    },
    {
      "inputs": [
        {
          "internalType": "address",
          "name": "_treasury",
          "type": "address"
        },
        {
          "internalType": "uint16",
          "name": "_treasuryFee",
          "type": "uint16"
        },
        {
          "internalType": "uint16",
          "name": "_nodeFee",
          "type": "uint16"
        }
      ],
      "name": "initialize",
      "outputs": [],
      "stateMutability": "nonpayable",
      "type": "function"
    },
    {
      "inputs": [],
      "name": "nodeFee",
      "outputs": [
        {
          "internalType": "uint16",
          "name": "",
          "type": "uint16"
        }
      ],
      "stateMutability": "view",
      "type": "function"
    },
    {
      "inputs": [],
      "name": "openSales",
      "outputs": [
        {
          "internalType": "uint256",
          "name": "",
          "type": "uint256"
        }
      ],
      "stateMutability": "view",
      "type": "function"
    },
    {
      "inputs": [],
      "name": "owner",
      "outputs": [
        {
          "internalType": "address",
          "name": "",
          "type": "address"
        }
      ],
      "stateMutability": "view",
      "type": "function"
    },
    {
      "inputs": [],
      "name": "renounceOwnership",
      "outputs": [],
      "stateMutability": "nonpayable",
      "type": "function"
    },
    {
      "inputs": [
        {
          "internalType": "uint16",
          "name": "_newFee",
          "type": "uint16"
        }
      ],
      "name": "setNodeFee",
      "outputs": [],
      "stateMutability": "nonpayable",
      "type": "function"
    },
    {
      "inputs": [
        {
          "internalType": "address",
          "name": "_newTreasury",
          "type": "address"
        }
      ],
      "name": "setTreasuryAddress",
      "outputs": [],
      "stateMutability": "nonpayable",
      "type": "function"
    },
    {
      "inputs": [
        {
          "internalType": "uint16",
          "name": "_newFee",
          "type": "uint16"
        }
      ],
      "name": "setTreasuryFee",
      "outputs": [],
      "stateMutability": "nonpayable",
      "type": "function"
    },
    {
      "inputs": [
        {
          "internalType": "address",
          "name": "newOwner",
          "type": "address"
        }
      ],
      "name": "transferOwnership",
      "outputs": [],
      "stateMutability": "nonpayable",
      "type": "function"
    },
    {
      "inputs": [],
      "name": "treasury",
      "outputs": [
        {
          "internalType": "address",
          "name": "",
          "type": "address"
        }
      ],
      "stateMutability": "view",
      "type": "function"
    },
    {
      "inputs": [],
      "name": "treasuryFee",
      "outputs": [
        {
          "internalType": "uint16",
          "name": "",
          "type": "uint16"
        }
      ],
      "stateMutability": "view",
      "type": "function"
    },
    {
      "inputs": [
        {
          "internalType": "uint256",
          "name": "_catalogIndex",
          "type": "uint256"
        },
        {
          "internalType": "uint256",
          "name": "_newTokensAllowed",
          "type": "uint256"
        },
        {
          "internalType": "uint256",
          "name": "_tokenPrice",
          "type": "uint256"
        }
      ],
      "name": "updateOffer",
      "outputs": [],
      "stateMutability": "nonpayable",
      "type": "function"
    }
  ],
  "bytecode": "0x608060405234801561001057600080fd5b50611cbd806100206000396000f3fe6080604052600436106101445760003560e01c8063c4ce8625116100c0578063e4ccbe6c11610074578063f416253011610059578063f41625301461037e578063f7ca892a1461039f578063fb8e317b146103b557600080fd5b8063e4ccbe6c1461033e578063f2fde38b1461035e57600080fd5b8063cc32d176116100a5578063cc32d176146102c4578063d048db37146102df578063d4e4d3dd146102f457600080fd5b8063c4ce86251461026e578063cc0f17861461029c57600080fd5b806361d027b311610117578063715018a6116100fc578063715018a61461021b5780638da5cb5b14610230578063a652db491461024e57600080fd5b806361d027b3146101be5780636605bfda146101fb57600080fd5b8063057466ea146101495780631032c6101461015e5780631c4b995a1461017e57806334422a151461019e575b600080fd5b61015c610157366004611a5c565b6103e2565b005b34801561016a57600080fd5b5061015c610179366004611a7e565b6109d5565b34801561018a57600080fd5b5061015c6101993660046118d1565b610d71565b3480156101aa57600080fd5b5061015c6101b93660046119b0565b610e84565b3480156101ca57600080fd5b506067546101de906001600160a01b031681565b6040516001600160a01b0390911681526020015b60405180910390f35b34801561020757600080fd5b5061015c6102163660046118ad565b611314565b34801561022757600080fd5b5061015c6113d0565b34801561023c57600080fd5b506033546001600160a01b03166101de565b34801561025a57600080fd5b5061015c610269366004611a28565b611436565b34801561027a57600080fd5b5061028e610289366004611916565b6114e8565b6040519081526020016101f2565b3480156102a857600080fd5b506102b1600281565b60405161ffff90911681526020016101f2565b3480156102d057600080fd5b506069546102b19061ffff1681565b3480156102eb57600080fd5b5060665461028e565b34801561030057600080fd5b5061031461030f366004611a43565b611519565b604080516001600160a01b03909516855260208501939093529183015260608201526080016101f2565b34801561034a57600080fd5b5061015c610359366004611a28565b6115a6565b34801561036a57600080fd5b5061015c6103793660046118ad565b61164e565b34801561038a57600080fd5b506069546102b19062010000900461ffff1681565b3480156103ab57600080fd5b5061028e60685481565b3480156103c157600080fd5b506103d56103d03660046118ad565b611730565b6040516101f29190611b18565b6000606683815481106103f7576103f7611c46565b6000918252602090912060059091020180549091506001600160a01b031661048c5760405162461bcd60e51b815260206004820152603160248201527f4d696e74696e67204d61726b6574706c6163653a20496e76616c696420436f6c60448201527f6c656374696f6e2053656c65637465642100000000000000000000000000000060648201526084015b60405180910390fd5b60008160030154116105065760405162461bcd60e51b815260206004820152602d60248201527f4d696e74696e67204d61726b6574706c6163653a2043616e6e6f74206d696e7460448201527f206d6f726520746f6b656e7321000000000000000000000000000000000000006064820152608401610483565b80600401543410156105805760405162461bcd60e51b815260206004820152602760248201527f4d696e74696e67204d61726b6574706c6163653a20496e737566696369656e7460448201527f2046756e647321000000000000000000000000000000000000000000000000006064820152608401610483565b80546040517f01ffc9a70000000000000000000000000000000000000000000000000000000081527fc0aa9aba000000000000000000000000000000000000000000000000000000006004820152600091829182916001600160a01b0316906301ffc9a79060240160206040518083038186803b15801561060057600080fd5b505afa158015610614573d6000803e3d6000fd5b505050506040513d601f19601f820116820180604052508101906106389190611a06565b905080156107875783546004808601546040517fc155531d0000000000000000000000000000000000000000000000000000000081526001600160a01b039093169263c155531d926106a792600092909101918252602082015260606040820181905260009082015260800190565b60006040518083038186803b1580156106bf57600080fd5b505afa1580156106d3573d6000803e3d6000fd5b505050506040513d6000823e601f3d908101601f191682016040526106fb9190810190611942565b5060695491945092506001600160a01b038416906108fc90620186a09061072e9061ffff62010000820481169116611b5c565b61073f9061ffff16620186a0611bc3565b62ffffff1687600401546107539190611ba4565b61075d9190611b82565b6040518115909202916000818181858888f19350505050158015610785573d6000803e3d6000fd5b505b600484015433906108fc9061079c9034611be7565b6040518115909202916000818181858888f193505050501580156107c4573d6000803e3d6000fd5b5060675460695460048601546001600160a01b03909216916108fc91620186a0916107f39161ffff1690611ba4565b6107fd9190611b82565b6040518115909202916000818181858888f19350505050158015610825573d6000803e3d6000fd5b50600184015460695460048601546001600160a01b03909216916108fc91620186a09161085c9162010000900461ffff1690611ba4565b6108669190611b82565b6040518115909202916000818181858888f1935050505015801561088e573d6000803e3d6000fd5b506003840180549060006108a183611bfe565b9091555050600384015461090a57606880549060006108bf83611bfe565b90915550508354604080516001600160a01b039092168252602082018890527f2d4e4d63ac76d303f78859260d3e896cfeeed6cf5e5ecea330cbcfc2f40642a6910160405180910390a15b835460028501546040517f156e29f60000000000000000000000000000000000000000000000000000000081523360048201526024810191909152604481018790526001600160a01b039091169063156e29f690606401600060405180830381600087803b15801561097b57600080fd5b505af115801561098f573d6000803e3d6000fd5b505060408051338152602081018a90527fb9144c96c86541f6fa89c9f2f02495cccf4b08cd6643e26d34ee00aa586558a8935001905060405180910390a1505050505050565b6000606684815481106109ea576109ea611c46565b6000918252602082206005919091020180546002820154604051630b43e78560e31b815260048101919091529193506001600160a01b031690635a1f3c289060240160006040518083038186803b158015610a4457600080fd5b505afa158015610a58573d6000803e3d6000fd5b505050506040513d6000823e601f3d908101601f19168201604052610a809190810190611aaa565b509250505080841115610b215760405162461bcd60e51b815260206004820152605560248201527f4d696e74696e67204d61726b6574706c6163653a204e6577206c696d6974206d60448201527f757374206265206c6f776572206f7220657175616c207468616e20746865207460648201527f6f74616c20616c6c6f77656420746f206d696e74210000000000000000000000608482015260a401610483565b8154604051632474521560e21b81527ff0887ba65ee2024ea881d91b74c2450ef19e1557f03bed3ea9f16b037cbe2dc960048201523060248201526001600160a01b03909116906391d148549060440160206040518083038186803b158015610b8957600080fd5b505afa158015610b9d573d6000803e3d6000fd5b505050506040513d601f19601f82011682018060405250810190610bc19190611a06565b610c335760405162461bcd60e51b815260206004820152603560248201527f4d696e74696e67204d61726b6574706c6163653a2054686973204d61726b657460448201527f706c6163652069736e27742061204d696e7465722100000000000000000000006064820152608401610483565b8154604051632474521560e21b81527f3c2519c4487d47714872f92cf90a50c25f5deaec2789dc2a497b1272df611db660048201523360248201526001600160a01b03909116906391d148549060440160206040518083038186803b158015610c9b57600080fd5b505afa158015610caf573d6000803e3d6000fd5b505050506040513d601f19601f82011682018060405250810190610cd39190611a06565b610cdc57600080fd5b600482018390556003820154158015610cf55750600084115b15610d105760688054906000610d0a83611c15565b91905055505b600382018490558154604080516001600160a01b039092168252602082018690528101849052606081018690527f84c20b29ff412e85083e627148cea1f9982bba5742f63710fff8ba0f0b9153ae9060800160405180910390a15050505050565b600054610100900460ff1680610d8a575060005460ff16155b610dfc5760405162461bcd60e51b815260206004820152602e60248201527f496e697469616c697a61626c653a20636f6e747261637420697320616c72656160448201527f647920696e697469616c697a65640000000000000000000000000000000000006064820152608401610483565b600054610100900460ff16158015610e1e576000805461ffff19166101011790555b606780546001600160a01b03861673ffffffffffffffffffffffffffffffffffffffff199091161790556069805461ffff848116620100000263ffffffff199092169086161717905560006068558015610e7e576000805461ff00191690555b50505050565b604051632474521560e21b81527ff0887ba65ee2024ea881d91b74c2450ef19e1557f03bed3ea9f16b037cbe2dc960048201523060248201526001600160a01b038616906391d148549060440160206040518083038186803b158015610ee957600080fd5b505afa158015610efd573d6000803e3d6000fd5b505050506040513d601f19601f82011682018060405250810190610f219190611a06565b610f935760405162461bcd60e51b815260206004820152603560248201527f4d696e74696e67204d61726b6574706c6163653a2054686973204d61726b657460448201527f706c6163652069736e27742061204d696e7465722100000000000000000000006064820152608401610483565b604051632474521560e21b81527f3c2519c4487d47714872f92cf90a50c25f5deaec2789dc2a497b1272df611db660048201523360248201526001600160a01b038616906391d148549060440160206040518083038186803b158015610ff857600080fd5b505afa15801561100c573d6000803e3d6000fd5b505050506040513d601f19601f820116820180604052508101906110309190611a06565b61103957600080fd5b604051630b43e78560e31b8152600481018490526000906001600160a01b03871690635a1f3c289060240160006040518083038186803b15801561107c57600080fd5b505afa158015611090573d6000803e3d6000fd5b505050506040513d6000823e601f3d908101601f191682016040526110b89190810190611aaa565b5092505050848110156111595760405162461bcd60e51b815260206004820152604660248201527f4d696e74696e67204d61726b6574706c6163653a20436f6c6c656374696f6e2060448201527f646f65736e277420686176652074686174206d616e7920746f6b656e7320746f60648201527f206d696e74210000000000000000000000000000000000000000000000000000608482015260a401610483565b6066805460018101825560009182526005027f46501879b8ca8525e8c2fd519e2fbfcfa2ebea26501294aa02cbfcfb12e94354810180546001600160a01b03808b1673ffffffffffffffffffffffffffffffffffffffff199283161783557f46501879b8ca8525e8c2fd519e2fbfcfa2ebea26501294aa02cbfcfb12e9435584018054918816919092161790557f46501879b8ca8525e8c2fd519e2fbfcfa2ebea26501294aa02cbfcfb12e9435682018790557f46501879b8ca8525e8c2fd519e2fbfcfa2ebea26501294aa02cbfcfb12e9435782018890557f46501879b8ca8525e8c2fd519e2fbfcfa2ebea26501294aa02cbfcfb12e9435890910185905560688054919261126883611c15565b90915550506001600160a01b038716600090815260656020526040902060665461129490600190611be7565b8154600181810184556000938452602090932001556066547f9c82f4230a033475cfb564c6eb24f4ad45139901a657e8edd9a6cd234e354949918991899188916112de9190611be7565b604080516001600160a01b039095168552602085019390935291830152606082015260800160405180910390a150505050505050565b6033546001600160a01b0316331461136e5760405162461bcd60e51b815260206004820181905260248201527f4f776e61626c653a2063616c6c6572206973206e6f7420746865206f776e65726044820152606401610483565b6067805473ffffffffffffffffffffffffffffffffffffffff19166001600160a01b0383169081179091556040519081527f63cc689e9d3377465b51fb094ea4ca5e0a1436b21f1ad30d707c696111c66500906020015b60405180910390a150565b6033546001600160a01b0316331461142a5760405162461bcd60e51b815260206004820181905260248201527f4f776e61626c653a2063616c6c6572206973206e6f7420746865206f776e65726044820152606401610483565b611434600061179c565b565b6033546001600160a01b031633146114905760405162461bcd60e51b815260206004820181905260248201527f4f776e61626c653a2063616c6c6572206973206e6f7420746865206f776e65726044820152606401610483565b6069805461ffff191661ffff8316908117909155606754604080516001600160a01b03909216825260208201929092527f2adb51c26afe364a53c16cd44e82bdf5a52680ad11c64f2dbeb5bdb3764f731d91016113c5565b6065602052816000526040600020818154811061150457600080fd5b90600052602060002001600091509150505481565b60008060008060006066868154811061153457611534611c46565b60009182526020918290206040805160a08101825260059390930290910180546001600160a01b03908116808552600183015490911694840194909452600281015491830182905260038101546060840181905260049091015460809093018390529299909850919650945092505050565b6033546001600160a01b031633146116005760405162461bcd60e51b815260206004820181905260248201527f4f776e61626c653a2063616c6c6572206973206e6f7420746865206f776e65726044820152606401610483565b6069805463ffff000019166201000061ffff8416908102919091179091556040519081527f6a6cc0807c3fb0910ab842e5fd4c193307b3cff967f1a7d096538e4961884b70906020016113c5565b6033546001600160a01b031633146116a85760405162461bcd60e51b815260206004820181905260248201527f4f776e61626c653a2063616c6c6572206973206e6f7420746865206f776e65726044820152606401610483565b6001600160a01b0381166117245760405162461bcd60e51b815260206004820152602660248201527f4f776e61626c653a206e6577206f776e657220697320746865207a65726f206160448201527f64647265737300000000000000000000000000000000000000000000000000006064820152608401610483565b61172d8161179c565b50565b6001600160a01b03811660009081526065602090815260409182902080548351818402810184019094528084526060939283018282801561179057602002820191906000526020600020905b81548152602001906001019080831161177c575b50505050509050919050565b603380546001600160a01b0383811673ffffffffffffffffffffffffffffffffffffffff19831681179093556040519116919082907f8be0079c531659141344cd1fd0a4f28419497f9722a3daafe3b4186f6b6457e090600090a35050565b600067ffffffffffffffff8084111561181657611816611c5c565b604051601f8501601f19908116603f0116810190828211818310171561183e5761183e611c5c565b8160405280935085815286868601111561185757600080fd5b600092505b8583101561187a57828501516020848301015260208301925061185c565b8583111561188c576000602087830101525b5050509392505050565b803561ffff811681146118a857600080fd5b919050565b6000602082840312156118bf57600080fd5b81356118ca81611c72565b9392505050565b6000806000606084860312156118e657600080fd5b83356118f181611c72565b92506118ff60208501611896565b915061190d60408501611896565b90509250925092565b6000806040838503121561192957600080fd5b823561193481611c72565b946020939093013593505050565b60008060006060848603121561195757600080fd5b835161196281611c72565b60208501516040860151919450925067ffffffffffffffff81111561198657600080fd5b8401601f8101861361199757600080fd5b6119a6868251602084016117fb565b9150509250925092565b600080600080600060a086880312156119c857600080fd5b85356119d381611c72565b945060208601359350604086013592506060860135915060808601356119f881611c72565b809150509295509295909350565b600060208284031215611a1857600080fd5b815180151581146118ca57600080fd5b600060208284031215611a3a57600080fd5b6118ca82611896565b600060208284031215611a5557600080fd5b5035919050565b60008060408385031215611a6f57600080fd5b50508035926020909101359150565b600080600060608486031215611a9357600080fd5b505081359360208301359350604090920135919050565b60008060008060808587031215611ac057600080fd5b845193506020850151925060408501519150606085015167ffffffffffffffff811115611aec57600080fd5b8501601f81018713611afd57600080fd5b611b0c878251602084016117fb565b91505092959194509250565b6020808252825182820181905260009190848201906040850190845b81811015611b5057835183529284019291840191600101611b34565b50909695505050505050565b600061ffff808316818516808303821115611b7957611b79611c30565b01949350505050565b600082611b9f57634e487b7160e01b600052601260045260246000fd5b500490565b6000816000190483118215151615611bbe57611bbe611c30565b500290565b600062ffffff83811690831681811015611bdf57611bdf611c30565b039392505050565b600082821015611bf957611bf9611c30565b500390565b600081611c0d57611c0d611c30565b506000190190565b6000600019821415611c2957611c29611c30565b5060010190565b634e487b7160e01b600052601160045260246000fd5b634e487b7160e01b600052603260045260246000fd5b634e487b7160e01b600052604160045260246000fd5b6001600160a01b038116811461172d57600080fdfea2646970667358221220ca213a185ac0520b8815095960fb1569c4f243fd0b21f2f02ffeeeb7da31ab5664736f6c63430008060033",
  "linkReferences": {},
  "deployedLinkReferences": {}
}