{
  "_format": "hh-sol-artifact-1",
  "contractName": "RAIR_ERC721",
  "sourceName": "contracts/Tokens/RAIR-ERC721.sol",
  "abi": [
    {
      "inputs": [
        {
          "internalType": "string",
          "name": "_contractName",
          "type": "string"
        },
        {
          "internalType": "address",
          "name": "_creatorAddress",
          "type": "address"
        },
        {
          "internalType": "uint16",
          "name": "_creatorRoyalty",
          "type": "uint16"
        }
      ],
      "stateMutability": "nonpayable",
      "type": "constructor"
    },
    {
      "anonymous": false,
      "inputs": [
        {
          "indexed": true,
          "internalType": "address",
          "name": "owner",
          "type": "address"
        },
        {
          "indexed": true,
          "internalType": "address",
          "name": "approved",
          "type": "address"
        },
        {
          "indexed": true,
          "internalType": "uint256",
          "name": "tokenId",
          "type": "uint256"
        }
      ],
      "name": "Approval",
      "type": "event"
    },
    {
      "anonymous": false,
      "inputs": [
        {
          "indexed": true,
          "internalType": "address",
          "name": "owner",
          "type": "address"
        },
        {
          "indexed": true,
          "internalType": "address",
          "name": "operator",
          "type": "address"
        },
        {
          "indexed": false,
          "internalType": "bool",
          "name": "approved",
          "type": "bool"
        }
      ],
      "name": "ApprovalForAll",
      "type": "event"
    },
    {
      "anonymous": false,
      "inputs": [
        {
          "indexed": true,
          "internalType": "uint256",
          "name": "id",
          "type": "uint256"
        },
        {
          "indexed": false,
          "internalType": "string",
          "name": "name",
          "type": "string"
        }
      ],
      "name": "CollectionCompleted",
      "type": "event"
    },
    {
      "anonymous": false,
      "inputs": [
        {
          "indexed": true,
          "internalType": "uint256",
          "name": "id",
          "type": "uint256"
        },
        {
          "indexed": false,
          "internalType": "string",
          "name": "name",
          "type": "string"
        },
        {
          "indexed": false,
          "internalType": "uint256",
          "name": "length",
          "type": "uint256"
        }
      ],
      "name": "CollectionCreated",
      "type": "event"
    },
    {
      "anonymous": false,
      "inputs": [
        {
          "indexed": false,
          "internalType": "uint256",
          "name": "collectionIndex",
          "type": "uint256"
        },
        {
          "indexed": false,
          "internalType": "uint256",
          "name": "startingToken",
          "type": "uint256"
        },
        {
          "indexed": false,
          "internalType": "uint256",
          "name": "endingToken",
          "type": "uint256"
        },
        {
          "indexed": false,
          "internalType": "uint256",
          "name": "tokensLocked",
          "type": "uint256"
        },
        {
          "indexed": false,
          "internalType": "string",
          "name": "collectionName",
          "type": "string"
        }
      ],
      "name": "RangeLocked",
      "type": "event"
    },
    {
      "anonymous": false,
      "inputs": [
        {
          "indexed": false,
          "internalType": "uint256",
          "name": "collectionID",
          "type": "uint256"
        },
        {
          "indexed": false,
          "internalType": "uint256",
          "name": "startingToken",
          "type": "uint256"
        },
        {
          "indexed": false,
          "internalType": "uint256",
          "name": "endingToken",
          "type": "uint256"
        }
      ],
      "name": "RangeUnlocked",
      "type": "event"
    },
    {
      "anonymous": false,
      "inputs": [
        {
          "indexed": true,
          "internalType": "bytes32",
          "name": "role",
          "type": "bytes32"
        },
        {
          "indexed": true,
          "internalType": "bytes32",
          "name": "previousAdminRole",
          "type": "bytes32"
        },
        {
          "indexed": true,
          "internalType": "bytes32",
          "name": "newAdminRole",
          "type": "bytes32"
        }
      ],
      "name": "RoleAdminChanged",
      "type": "event"
    },
    {
      "anonymous": false,
      "inputs": [
        {
          "indexed": true,
          "internalType": "bytes32",
          "name": "role",
          "type": "bytes32"
        },
        {
          "indexed": true,
          "internalType": "address",
          "name": "account",
          "type": "address"
        },
        {
          "indexed": true,
          "internalType": "address",
          "name": "sender",
          "type": "address"
        }
      ],
      "name": "RoleGranted",
      "type": "event"
    },
    {
      "anonymous": false,
      "inputs": [
        {
          "indexed": true,
          "internalType": "bytes32",
          "name": "role",
          "type": "bytes32"
        },
        {
          "indexed": true,
          "internalType": "address",
          "name": "account",
          "type": "address"
        },
        {
          "indexed": true,
          "internalType": "address",
          "name": "sender",
          "type": "address"
        }
      ],
      "name": "RoleRevoked",
      "type": "event"
    },
    {
      "anonymous": false,
      "inputs": [
        {
          "indexed": true,
          "internalType": "address",
          "name": "from",
          "type": "address"
        },
        {
          "indexed": true,
          "internalType": "address",
          "name": "to",
          "type": "address"
        },
        {
          "indexed": true,
          "internalType": "uint256",
          "name": "tokenId",
          "type": "uint256"
        }
      ],
      "name": "Transfer",
      "type": "event"
    },
    {
      "inputs": [],
      "name": "CREATOR",
      "outputs": [
        {
          "internalType": "bytes32",
          "name": "",
          "type": "bytes32"
        }
      ],
      "stateMutability": "view",
      "type": "function"
    },
    {
      "inputs": [],
      "name": "DEFAULT_ADMIN_ROLE",
      "outputs": [
        {
          "internalType": "bytes32",
          "name": "",
          "type": "bytes32"
        }
      ],
      "stateMutability": "view",
      "type": "function"
    },
    {
      "inputs": [],
      "name": "MINTER",
      "outputs": [
        {
          "internalType": "bytes32",
          "name": "",
          "type": "bytes32"
        }
      ],
      "stateMutability": "view",
      "type": "function"
    },
    {
      "inputs": [],
      "name": "TRADER",
      "outputs": [
        {
          "internalType": "bytes32",
          "name": "",
          "type": "bytes32"
        }
      ],
      "stateMutability": "view",
      "type": "function"
    },
    {
      "inputs": [
        {
          "internalType": "address",
          "name": "to",
          "type": "address"
        },
        {
          "internalType": "uint256",
          "name": "tokenId",
          "type": "uint256"
        }
      ],
      "name": "approve",
      "outputs": [],
      "stateMutability": "nonpayable",
      "type": "function"
    },
    {
      "inputs": [
        {
          "internalType": "address",
          "name": "owner",
          "type": "address"
        }
      ],
      "name": "balanceOf",
      "outputs": [
        {
          "internalType": "uint256",
          "name": "",
          "type": "uint256"
        }
      ],
      "stateMutability": "view",
      "type": "function"
    },
    {
      "inputs": [
        {
          "internalType": "string",
          "name": "_collectionName",
          "type": "string"
        },
        {
          "internalType": "uint256",
          "name": "_copies",
          "type": "uint256"
        }
      ],
      "name": "createCollection",
      "outputs": [],
      "stateMutability": "nonpayable",
      "type": "function"
    },
    {
      "inputs": [
        {
          "internalType": "uint256",
          "name": "collectionIndex",
          "type": "uint256"
        },
        {
          "internalType": "uint256",
          "name": "_startingToken",
          "type": "uint256"
        },
        {
          "internalType": "uint256",
          "name": "_endingToken",
          "type": "uint256"
        },
        {
          "internalType": "uint256",
          "name": "_lockedTokens",
          "type": "uint256"
        }
      ],
      "name": "createRangeLock",
      "outputs": [],
      "stateMutability": "nonpayable",
      "type": "function"
    },
    {
      "inputs": [
        {
          "internalType": "uint256",
          "name": "tokenId",
          "type": "uint256"
        }
      ],
      "name": "getApproved",
      "outputs": [
        {
          "internalType": "address",
          "name": "",
          "type": "address"
        }
      ],
      "stateMutability": "view",
      "type": "function"
    },
    {
      "inputs": [
        {
          "internalType": "uint256",
          "name": "index",
          "type": "uint256"
        }
      ],
      "name": "getCollection",
      "outputs": [
        {
          "internalType": "uint256",
          "name": "startingToken",
          "type": "uint256"
        },
        {
          "internalType": "uint256",
          "name": "endingToken",
          "type": "uint256"
        },
        {
          "internalType": "uint256",
          "name": "mintableTokensLeft",
          "type": "uint256"
        },
        {
          "internalType": "string",
          "name": "collectionName",
          "type": "string"
        },
        {
          "internalType": "uint256[]",
          "name": "locks",
          "type": "uint256[]"
        }
      ],
      "stateMutability": "view",
      "type": "function"
    },
    {
      "inputs": [],
      "name": "getCollectionCount",
      "outputs": [
        {
          "internalType": "uint256",
          "name": "",
          "type": "uint256"
        }
      ],
      "stateMutability": "view",
      "type": "function"
    },
    {
      "inputs": [
        {
          "internalType": "uint256",
          "name": "index",
          "type": "uint256"
        }
      ],
      "name": "getLockedRange",
      "outputs": [
        {
          "internalType": "uint256",
          "name": "startingToken",
          "type": "uint256"
        },
        {
          "internalType": "uint256",
          "name": "endingToken",
          "type": "uint256"
        },
        {
          "internalType": "uint256",
          "name": "countToUnlock",
          "type": "uint256"
        },
        {
          "internalType": "uint256",
          "name": "collectionIndex",
          "type": "uint256"
        }
      ],
      "stateMutability": "view",
      "type": "function"
    },
    {
      "inputs": [
        {
          "internalType": "uint256",
          "name": "collectionID",
          "type": "uint256"
        },
        {
          "internalType": "uint256",
          "name": "startingIndex",
          "type": "uint256"
        },
        {
          "internalType": "uint256",
          "name": "endingIndex",
          "type": "uint256"
        }
      ],
      "name": "getNextSequentialIndex",
      "outputs": [
        {
          "internalType": "uint256",
          "name": "nextIndex",
          "type": "uint256"
        }
      ],
      "stateMutability": "view",
      "type": "function"
    },
    {
      "inputs": [
        {
          "internalType": "bytes32",
          "name": "role",
          "type": "bytes32"
        }
      ],
      "name": "getRoleAdmin",
      "outputs": [
        {
          "internalType": "bytes32",
          "name": "",
          "type": "bytes32"
        }
      ],
      "stateMutability": "view",
      "type": "function"
    },
    {
      "inputs": [
        {
          "internalType": "bytes32",
          "name": "role",
          "type": "bytes32"
        },
        {
          "internalType": "uint256",
          "name": "index",
          "type": "uint256"
        }
      ],
      "name": "getRoleMember",
      "outputs": [
        {
          "internalType": "address",
          "name": "",
          "type": "address"
        }
      ],
      "stateMutability": "view",
      "type": "function"
    },
    {
      "inputs": [
        {
          "internalType": "bytes32",
          "name": "role",
          "type": "bytes32"
        }
      ],
      "name": "getRoleMemberCount",
      "outputs": [
        {
          "internalType": "uint256",
          "name": "",
          "type": "uint256"
        }
      ],
      "stateMutability": "view",
      "type": "function"
    },
    {
      "inputs": [
        {
          "internalType": "bytes32",
          "name": "role",
          "type": "bytes32"
        },
        {
          "internalType": "address",
          "name": "account",
          "type": "address"
        }
      ],
      "name": "grantRole",
      "outputs": [],
      "stateMutability": "nonpayable",
      "type": "function"
    },
    {
      "inputs": [
        {
          "internalType": "bytes32",
          "name": "role",
          "type": "bytes32"
        },
        {
          "internalType": "address",
          "name": "account",
          "type": "address"
        }
      ],
      "name": "hasRole",
      "outputs": [
        {
          "internalType": "bool",
          "name": "",
          "type": "bool"
        }
      ],
      "stateMutability": "view",
      "type": "function"
    },
    {
      "inputs": [
        {
          "internalType": "address",
          "name": "owner",
          "type": "address"
        },
        {
          "internalType": "uint256",
          "name": "collectionIndex",
          "type": "uint256"
        }
      ],
      "name": "hasTokenInCollection",
      "outputs": [
        {
          "internalType": "bool",
          "name": "",
          "type": "bool"
        }
      ],
      "stateMutability": "view",
      "type": "function"
    },
    {
      "inputs": [
        {
          "internalType": "address",
          "name": "owner",
          "type": "address"
        },
        {
          "internalType": "address",
          "name": "operator",
          "type": "address"
        }
      ],
      "name": "isApprovedForAll",
      "outputs": [
        {
          "internalType": "bool",
          "name": "",
          "type": "bool"
        }
      ],
      "stateMutability": "view",
      "type": "function"
    },
    {
      "inputs": [
        {
          "internalType": "uint256",
          "name": "_tokenId",
          "type": "uint256"
        }
      ],
      "name": "isTokenLocked",
      "outputs": [
        {
          "internalType": "bool",
          "name": "",
          "type": "bool"
        }
      ],
      "stateMutability": "view",
      "type": "function"
    },
    {
      "inputs": [
        {
          "internalType": "address",
          "name": "to",
          "type": "address"
        },
        {
          "internalType": "uint256",
          "name": "collectionID",
          "type": "uint256"
        },
        {
          "internalType": "uint256",
          "name": "indexInCollection",
          "type": "uint256"
        }
      ],
      "name": "mint",
      "outputs": [],
      "stateMutability": "nonpayable",
      "type": "function"
    },
    {
      "inputs": [],
      "name": "name",
      "outputs": [
        {
          "internalType": "string",
          "name": "",
          "type": "string"
        }
      ],
      "stateMutability": "view",
      "type": "function"
    },
    {
      "inputs": [
        {
          "internalType": "uint256",
          "name": "tokenId",
          "type": "uint256"
        }
      ],
      "name": "ownerOf",
      "outputs": [
        {
          "internalType": "address",
          "name": "",
          "type": "address"
        }
      ],
      "stateMutability": "view",
      "type": "function"
    },
    {
      "inputs": [
        {
          "internalType": "bytes32",
          "name": "role",
          "type": "bytes32"
        },
        {
          "internalType": "address",
          "name": "account",
          "type": "address"
        }
      ],
      "name": "renounceRole",
      "outputs": [],
      "stateMutability": "nonpayable",
      "type": "function"
    },
    {
      "inputs": [
        {
          "internalType": "bytes32",
          "name": "role",
          "type": "bytes32"
        },
        {
          "internalType": "address",
          "name": "account",
          "type": "address"
        }
      ],
      "name": "revokeRole",
      "outputs": [],
      "stateMutability": "nonpayable",
      "type": "function"
    },
    {
      "inputs": [
        {
          "internalType": "uint256",
          "name": "_tokenId",
          "type": "uint256"
        },
        {
          "internalType": "uint256",
          "name": "_value",
          "type": "uint256"
        },
        {
          "internalType": "bytes",
          "name": "_data",
          "type": "bytes"
        }
      ],
      "name": "royaltyInfo",
      "outputs": [
        {
          "internalType": "address",
          "name": "_receiver",
          "type": "address"
        },
        {
          "internalType": "uint256",
          "name": "_royaltyAmount",
          "type": "uint256"
        },
        {
          "internalType": "bytes",
          "name": "_royaltyPaymentData",
          "type": "bytes"
        }
      ],
      "stateMutability": "view",
      "type": "function"
    },
    {
      "inputs": [
        {
          "internalType": "address",
          "name": "from",
          "type": "address"
        },
        {
          "internalType": "address",
          "name": "to",
          "type": "address"
        },
        {
          "internalType": "uint256",
          "name": "tokenId",
          "type": "uint256"
        }
      ],
      "name": "safeTransferFrom",
      "outputs": [],
      "stateMutability": "nonpayable",
      "type": "function"
    },
    {
      "inputs": [
        {
          "internalType": "address",
          "name": "from",
          "type": "address"
        },
        {
          "internalType": "address",
          "name": "to",
          "type": "address"
        },
        {
          "internalType": "uint256",
          "name": "tokenId",
          "type": "uint256"
        },
        {
          "internalType": "bytes",
          "name": "_data",
          "type": "bytes"
        }
      ],
      "name": "safeTransferFrom",
      "outputs": [],
      "stateMutability": "nonpayable",
      "type": "function"
    },
    {
      "inputs": [
        {
          "internalType": "address",
          "name": "operator",
          "type": "address"
        },
        {
          "internalType": "bool",
          "name": "approved",
          "type": "bool"
        }
      ],
      "name": "setApprovalForAll",
      "outputs": [],
      "stateMutability": "nonpayable",
      "type": "function"
    },
    {
      "inputs": [
        {
          "internalType": "bytes4",
          "name": "interfaceId",
          "type": "bytes4"
        }
      ],
      "name": "supportsInterface",
      "outputs": [
        {
          "internalType": "bool",
          "name": "",
          "type": "bool"
        }
      ],
      "stateMutability": "view",
      "type": "function"
    },
    {
      "inputs": [],
      "name": "symbol",
      "outputs": [
        {
          "internalType": "string",
          "name": "",
          "type": "string"
        }
      ],
      "stateMutability": "view",
      "type": "function"
    },
    {
      "inputs": [
        {
          "internalType": "uint256",
          "name": "index",
          "type": "uint256"
        }
      ],
      "name": "tokenByIndex",
      "outputs": [
        {
          "internalType": "uint256",
          "name": "",
          "type": "uint256"
        }
      ],
      "stateMutability": "view",
      "type": "function"
    },
    {
      "inputs": [
        {
          "internalType": "address",
          "name": "owner",
          "type": "address"
        },
        {
          "internalType": "uint256",
          "name": "index",
          "type": "uint256"
        }
      ],
      "name": "tokenOfOwnerByIndex",
      "outputs": [
        {
          "internalType": "uint256",
          "name": "",
          "type": "uint256"
        }
      ],
      "stateMutability": "view",
      "type": "function"
    },
    {
      "inputs": [
        {
          "internalType": "uint256",
          "name": "",
          "type": "uint256"
        }
      ],
      "name": "tokenToCollection",
      "outputs": [
        {
          "internalType": "uint256",
          "name": "",
          "type": "uint256"
        }
      ],
      "stateMutability": "view",
      "type": "function"
    },
    {
      "inputs": [
        {
          "internalType": "uint256",
          "name": "token",
          "type": "uint256"
        }
      ],
      "name": "tokenToCollectionIndex",
      "outputs": [
        {
          "internalType": "uint256",
          "name": "tokenIndex",
          "type": "uint256"
        }
      ],
      "stateMutability": "view",
      "type": "function"
    },
    {
      "inputs": [
        {
          "internalType": "uint256",
          "name": "tokenId",
          "type": "uint256"
        }
      ],
      "name": "tokenURI",
      "outputs": [
        {
          "internalType": "string",
          "name": "",
          "type": "string"
        }
      ],
      "stateMutability": "view",
      "type": "function"
    },
    {
      "inputs": [],
      "name": "totalSupply",
      "outputs": [
        {
          "internalType": "uint256",
          "name": "",
          "type": "uint256"
        }
      ],
      "stateMutability": "view",
      "type": "function"
    },
    {
      "inputs": [
        {
          "internalType": "address",
          "name": "from",
          "type": "address"
        },
        {
          "internalType": "address",
          "name": "to",
          "type": "address"
        },
        {
          "internalType": "uint256",
          "name": "tokenId",
          "type": "uint256"
        }
      ],
      "name": "transferFrom",
      "outputs": [],
      "stateMutability": "nonpayable",
      "type": "function"
    }
  ],
  "bytecode": "0x60806040523480156200001157600080fd5b506040516200413d3803806200413d8339810160408190526200003491620003ea565b82604051806040016040528060048152602001632920a4a960e11b81525081600090805190602001906200006a92919062000314565b5080516200008090600190602084019062000314565b5050601080546001600160b01b0319163361ffff60a01b191617600160a01b61ffff85160217905550620000d3600080516020620040fd833981519152600080516020620040dd83398151915262000157565b620000fd6000805160206200411d833981519152600080516020620040dd83398151915262000157565b62000118600080516020620040dd83398151915283620001ab565b62000133600080516020620040fd83398151915283620001ab565b6200014e6000805160206200411d83398151915283620001ab565b50505062000540565b6000828152600a6020526040902060010154819060405184907fbd79b86ffe0ab8e8776151514217cd7cacd52c909f66475c3af44e129f0b00ff90600090a46000918252600a602052604090912060010155565b620001c28282620001ee60201b62001ee71760201c565b6000828152600b60209081526040909120620001e991839062001ef5620001fe821b17901c565b505050565b620001fa82826200021e565b5050565b600062000215836001600160a01b038416620002c2565b90505b92915050565b6000828152600a602090815260408083206001600160a01b038516845290915290205460ff16620001fa576000828152600a602090815260408083206001600160a01b03851684529091529020805460ff191660011790556200027e3390565b6001600160a01b0316816001600160a01b0316837f2f8788117e7eff1d82e926ec794901d17c78024a50270940304540a733656f0d60405160405180910390a45050565b60008181526001830160205260408120546200030b5750815460018181018455600084815260208082209093018490558454848252828601909352604090209190915562000218565b50600062000218565b8280546200032290620004ed565b90600052602060002090601f01602090048101928262000346576000855562000391565b82601f106200036157805160ff191683800117855562000391565b8280016001018555821562000391579182015b828111156200039157825182559160200191906001019062000374565b506200039f929150620003a3565b5090565b5b808211156200039f5760008155600101620003a4565b80516001600160a01b0381168114620003d257600080fd5b919050565b805161ffff81168114620003d257600080fd5b6000806000606084860312156200040057600080fd5b83516001600160401b03808211156200041857600080fd5b818601915086601f8301126200042d57600080fd5b8151818111156200044257620004426200052a565b604051601f8201601f19908116603f011681019083821181831017156200046d576200046d6200052a565b816040528281526020935089848487010111156200048a57600080fd5b600091505b82821015620004ae57848201840151818301850152908301906200048f565b82821115620004c05760008484830101525b9650620004d2915050868201620003ba565b93505050620004e460408501620003d7565b90509250925092565b600181811c908216806200050257607f821691505b602082108114156200052457634e487b7160e01b600052602260045260246000fd5b50919050565b634e487b7160e01b600052604160045260246000fd5b613b8d80620005506000396000f3fe608060405234801561001057600080fd5b50600436106102ad5760003560e01c80636352211e1161017b578063ab9aae35116100d8578063ca15c8731161008c578063e4fbb60911610071578063e4fbb60914610608578063e985e9c51461062f578063fe6d81241461066b57600080fd5b8063ca15c873146105e2578063d547741f146105f557600080fd5b8063bda5ec33116100bd578063bda5ec331461059a578063c155531d146105ad578063c87b56dd146105cf57600080fd5b8063ab9aae3514610574578063b88d4fde1461058757600080fd5b806391d148541161012f57806397099fb21161011457806397099fb214610546578063a217fddf14610559578063a22cb4651461056157600080fd5b806391d148541461050557806395d89b411461053e57600080fd5b806370a082311161016057806370a08231146104ac578063876654a0146104bf5780639010d07c146104f257600080fd5b80636352211e1461048657806364d541511461049957600080fd5b80631c10106f116102295780632f745c59116101dd57806342842e0e116101c257806342842e0e1461043c5780634f6ccce71461044f5780635a1f3c281461046257600080fd5b80632f745c591461041657806336568abe1461042957600080fd5b8063248a9ca31161020e578063248a9ca3146103cd578063276a28a3146103f05780632f2ff15d1461040357600080fd5b80631c10106f146103b257806323b872dd146103ba57600080fd5b8063156e29f611610280578063175c4ef811610265578063175c4ef81461035557806318160ddd1461038a578063195f78ae1461039257600080fd5b8063156e29f61461032f57806315a182411461034257600080fd5b806301ffc9a7146102b257806306fdde03146102da578063081812fc146102ef578063095ea7b31461031a575b600080fd5b6102c56102c0366004613580565b610692565b60405190151581526020015b60405180910390f35b6102e26106d6565b6040516102d191906138da565b6103026102fd366004613522565b610768565b6040516001600160a01b0390911681526020016102d1565b61032d6103283660046134c5565b610802565b005b61032d61033d3660046134ef565b610934565b61032d6103503660046136bf565b610cc5565b61037c7f872340a532bdd7bb02bea115c1b0f1ba87eac982f5b79b51ac189ffaac1b6fce81565b6040519081526020016102d1565b60085461037c565b61037c6103a0366004613522565b600f6020526000908152604090205481565b600e5461037c565b61032d6103c83660046133d1565b611011565b61037c6103db366004613522565b6000908152600a602052604090206001015490565b6102c56103fe366004613522565b611098565b61032d61041136600461353b565b61111e565b61037c6104243660046134c5565b611140565b61032d61043736600461353b565b6111e8565b61032d61044a3660046133d1565b61120a565b61037c61045d366004613522565b611225565b610475610470366004613522565b6112c9565b6040516102d1959493929190613922565b610302610494366004613522565b611432565b61032d6104a73660046135ba565b6114bd565b61037c6104ba366004613383565b6115fa565b6104d26104cd366004613522565b611694565b6040805194855260208501939093529183015260608201526080016102d1565b61030261050036600461355e565b61186b565b6102c561051336600461353b565b6000918252600a602090815260408084206001600160a01b0393909316845291905290205460ff1690565b6102e261188a565b6102c56105543660046134c5565b611899565b61037c600081565b61032d61056f366004613489565b6118f7565b61037c610582366004613522565b6119bc565b61032d61059536600461340d565b6119fd565b61037c6105a8366004613693565b611a8b565b6105c06105bb366004613613565b611d3e565b6040516102d1939291906138a9565b6102e26105dd366004613522565b611dd1565b61037c6105f0366004613522565b611ec6565b61032d61060336600461353b565b611edd565b61037c7f3c2519c4487d47714872f92cf90a50c25f5deaec2789dc2a497b1272df611db681565b6102c561063d36600461339e565b6001600160a01b03918216600090815260056020908152604080832093909416825291909152205460ff1690565b61037c7ff0887ba65ee2024ea881d91b74c2450ef19e1557f03bed3ea9f16b037cbe2dc981565b60006001600160e01b031982167fc0aa9aba0000000000000000000000000000000000000000000000000000000014806106d057506106d082611f0a565b92915050565b6060600080546106e590613a66565b80601f016020809104026020016040519081016040528092919081815260200182805461071190613a66565b801561075e5780601f106107335761010080835404028352916020019161075e565b820191906000526020600020905b81548152906001019060200180831161074157829003601f168201915b5050505050905090565b6000818152600260205260408120546001600160a01b03166107e65760405162461bcd60e51b815260206004820152602c60248201527f4552433732313a20617070726f76656420717565727920666f72206e6f6e657860448201526b34b9ba32b73a103a37b5b2b760a11b60648201526084015b60405180910390fd5b506000908152600460205260409020546001600160a01b031690565b600061080d82611432565b9050806001600160a01b0316836001600160a01b031614156108975760405162461bcd60e51b815260206004820152602160248201527f4552433732313a20617070726f76616c20746f2063757272656e74206f776e6560448201527f720000000000000000000000000000000000000000000000000000000000000060648201526084016107dd565b336001600160a01b03821614806108b357506108b3813361063d565b6109255760405162461bcd60e51b815260206004820152603860248201527f4552433732313a20617070726f76652063616c6c6572206973206e6f74206f7760448201527f6e6572206e6f7220617070726f76656420666f7220616c6c000000000000000060648201526084016107dd565b61092f8383611f48565b505050565b7ff0887ba65ee2024ea881d91b74c2450ef19e1557f03bed3ea9f16b037cbe2dc961095f8133611fc3565b600e54839081106109c15760405162461bcd60e51b815260206004820152602660248201527f52414952204552433732313a20436f6c6c656374696f6e20646f6573206e6f7460448201526508195e1a5cdd60d21b60648201526084016107dd565b6000600e85815481106109d6576109d6613b12565b90600052602060002090600502019050806000015481600101546109fa9190613a0c565b841115610a495760405162461bcd60e51b815260206004820181905260248201527f52414952204552433732313a20496e76616c696420746f6b656e20696e64657860448201526064016107dd565b610a6286858360000154610a5d91906139c1565b612043565b84600f6000868460000154610a7791906139c1565b815260200190815260200160002081905550806002016000815480929190610a9e90613a4f565b9091555060009050805b6004830154811015610c76578254610ac19087906139c1565b600d846004018381548110610ad857610ad8613b12565b906000526020600020015481548110610af357610af3613b12565b90600052602060002090600402016000015411158015610b6257508254610b1b9087906139c1565b600d846004018381548110610b3257610b32613b12565b906000526020600020015481548110610b4d57610b4d613b12565b90600052602060002090600402016001015410155b15610c6457600d836004018281548110610b7e57610b7e613b12565b906000526020600020015481548110610b9957610b99613b12565b90600052602060002090600402019150826004018181548110610bbe57610bbe613b12565b9060005260206000200154600c6000888660000154610bdd91906139c1565b8152602081019190915260400160002055600282015415610c5f57600282018054906000610c0a83613a4f565b90915550506002820154610c5f5781546001830154604080518a815260208101939093528201527fd3edbeb94dfb8eadcd8c291774b9ac3cc9b06af829273e295bf3197849934b889060600160405180910390a15b610c76565b80610c6e81613aa1565b915050610aa8565b506002820154610cbc57857f3ab828a3fee3d542c87fb145e900664325100c3c0b2e2a2cca38685b6de1b27183600301604051610cb3919061390f565b60405180910390a25b50505050505050565b7f3c2519c4487d47714872f92cf90a50c25f5deaec2789dc2a497b1272df611db6610cf08133611fc3565b600e5485908110610d525760405162461bcd60e51b815260206004820152602660248201527f52414952204552433732313a20436f6c6c656374696f6e20646f6573206e6f7460448201526508195e1a5cdd60d21b60648201526084016107dd565b6000600e8781548110610d6757610d67613b12565b906000526020600020906005020190508060010154858260000154610d8c91906139c1565b1115610e005760405162461bcd60e51b815260206004820152602160248201527f52414952204552433732313a20496e76616c696420656e64696e6720746f6b6560448201527f6e0000000000000000000000000000000000000000000000000000000000000060648201526084016107dd565b80546001820154610e119190613a0c565b610e1b8787613a0c565b1115610e8f5760405162461bcd60e51b815260206004820152602160248201527f52414952204552433732313a20496e76616c696420746f6b656e206c696d697460448201527f730000000000000000000000000000000000000000000000000000000000000060648201526084016107dd565b83610e9a8787613a0c565b610ea59060016139c1565b1015610f195760405162461bcd60e51b815260206004820152602d60248201527f52414952204552433732313a20496e76616c6964206e756d626572206f66207460448201527f6f6b656e7320746f206c6f636b0000000000000000000000000000000000000060648201526084016107dd565b600d8054600181018255600091909152815460049091027fd7b6990105719101dabeb77144f2a3385c8033acd3af97e9423a695e81ad1eb50190610f5e9088906139c1565b81558154610f6d9087906139c1565b6001808301919091556002820186905560038201899055600d546004840191610f9591613a0c565b8154600181018355600092835260209092209091015581547f0b8fece546364ce1dcadcf45028659aff64e7a166d735eb32da27050fd520f69908990610fdc908a906139c1565b8454610fe9908a906139c1565b8886600301604051610fff95949392919061398b565b60405180910390a15050505050505050565b61101b338261205d565b61108d5760405162461bcd60e51b815260206004820152603160248201527f4552433732313a207472616e736665722063616c6c6572206973206e6f74206f60448201527f776e6572206e6f7220617070726f76656400000000000000000000000000000060648201526084016107dd565b61092f838383612154565b6000818152600f6020908152604080832054600c909252822054600d805490919081106110c7576110c7613b12565b9060005260206000209060040201600301541480156106d057506000828152600c6020526040812054600d8054909190811061110557611105613b12565b9060005260206000209060040201600201541192915050565b6111288282612339565b6000828152600b6020526040902061092f9082611ef5565b600061114b836115fa565b82106111bf5760405162461bcd60e51b815260206004820152602b60248201527f455243373231456e756d657261626c653a206f776e657220696e646578206f7560448201527f74206f6620626f756e647300000000000000000000000000000000000000000060648201526084016107dd565b506001600160a01b03919091166000908152600660209081526040808320938352929052205490565b6111f2828261235f565b6000828152600b6020526040902061092f90826123e7565b61092f838383604051806020016040528060008152506119fd565b600061123060085490565b82106112a45760405162461bcd60e51b815260206004820152602c60248201527f455243373231456e756d657261626c653a20676c6f62616c20696e646578206f60448201527f7574206f6620626f756e6473000000000000000000000000000000000000000060648201526084016107dd565b600882815481106112b7576112b7613b12565b90600052602060002001549050919050565b60008060006060806000600e87815481106112e6576112e6613b12565b90600052602060002090600502016040518060a001604052908160008201548152602001600182015481526020016002820154815260200160038201805461132d90613a66565b80601f016020809104026020016040519081016040528092919081815260200182805461135990613a66565b80156113a65780601f1061137b576101008083540402835291602001916113a6565b820191906000526020600020905b81548152906001019060200180831161138957829003601f168201915b50505050508152602001600482018054806020026020016040519081016040528092919081815260200182805480156113fe57602002820191906000526020600020905b8154815260200190600101908083116113ea575b5050509190925250508151602083015160408401516060850151608090950151929c919b5099509297509550909350505050565b6000818152600260205260408120546001600160a01b0316806106d05760405162461bcd60e51b815260206004820152602960248201527f4552433732313a206f776e657220717565727920666f72206e6f6e657869737460448201527f656e7420746f6b656e000000000000000000000000000000000000000000000060648201526084016107dd565b7f3c2519c4487d47714872f92cf90a50c25f5deaec2789dc2a497b1272df611db66114e88133611fc3565b600e546000901561153657600e805461150390600190613a0c565b8154811061151357611513613b12565b906000526020600020906005020160010154600161153191906139c1565b611539565b60005b600e8054600181810183556000929092526005027fbb7b4a454dc3493923482f07822329ed19e8244eff582cc204f8554c3620c3fd0182815591925061157f85846139c1565b6115899190613a0c565b600182015584516115a39060038301906020880190613258565b5060028101849055600e546115ba90600190613a0c565b7f9ae7dd5dbfc3938737af70872685a3fb26f364d20134cd30be25108122626a1786866040516115eb9291906138ed565b60405180910390a25050505050565b60006001600160a01b0382166116785760405162461bcd60e51b815260206004820152602a60248201527f4552433732313a2062616c616e636520717565727920666f7220746865207a6560448201527f726f20616464726573730000000000000000000000000000000000000000000060648201526084016107dd565b506001600160a01b031660009081526003602052604090205490565b6000806000806000600d86815481106116af576116af613b12565b906000526020600020906004020160405180608001604052908160008201548152602001600182015481526020016002820154815260200160038201548152505090506000600e82606001518154811061170b5761170b613b12565b90600052602060002090600502016040518060a001604052908160008201548152602001600182015481526020016002820154815260200160038201805461175290613a66565b80601f016020809104026020016040519081016040528092919081815260200182805461177e90613a66565b80156117cb5780601f106117a0576101008083540402835291602001916117cb565b820191906000526020600020905b8154815290600101906020018083116117ae57829003601f168201915b505050505081526020016004820180548060200260200160405190810160405280929190818152602001828054801561182357602002820191906000526020600020905b81548152602001906001019080831161180f575b5050509190925250508151845192935061183f92909150613a0c565b815160208401516118509190613a0c565b83604001518460600151955095509550955050509193509193565b6000828152600b6020526040812061188390836123fc565b9392505050565b6060600180546106e590613a66565b6000805b6118a6846115fa565b8110156118ed5782600f60006118bc8785611140565b81526020019081526020016000205414156118db5760019150506106d0565b806118e581613aa1565b91505061189d565b5060009392505050565b6001600160a01b0382163314156119505760405162461bcd60e51b815260206004820152601960248201527f4552433732313a20617070726f766520746f2063616c6c65720000000000000060448201526064016107dd565b3360008181526005602090815260408083206001600160a01b03871680855290835292819020805460ff191686151590811790915590519081529192917f17307eab39ab6107e8899845ad3d59bd9653f200f220920489ca2b5937696c31910160405180910390a35050565b6000818152600f6020526040812054600e805490919081106119e0576119e0613b12565b906000526020600020906005020160000154826106d09190613a0c565b611a07338361205d565b611a795760405162461bcd60e51b815260206004820152603160248201527f4552433732313a207472616e736665722063616c6c6572206973206e6f74206f60448201527f776e6572206e6f7220617070726f76656400000000000000000000000000000060648201526084016107dd565b611a8584848484612408565b50505050565b60008380600e8054905011611af15760405162461bcd60e51b815260206004820152602660248201527f52414952204552433732313a20436f6c6c656374696f6e20646f6573206e6f7460448201526508195e1a5cdd60d21b60648201526084016107dd565b6000600e8681548110611b0657611b06613b12565b90600052602060002090600502016040518060a0016040529081600082015481526020016001820154815260200160028201548152602001600382018054611b4d90613a66565b80601f0160208091040260200160405190810160405280929190818152602001828054611b7990613a66565b8015611bc65780601f10611b9b57610100808354040283529160200191611bc6565b820191906000526020600020905b815481529060010190602001808311611ba957829003601f168201915b5050505050815260200160048201805480602002602001604051908101604052809291908181526020018280548015611c1e57602002820191906000526020600020905b815481526020019060010190808311611c0a575b50505050508152505090508060400151816000015182602001516001611c4491906139c1565b611c4e9190613a0c565b1415611c5e576000925050611d36565b8051600090611c6e9087906139c1565b90505b8151611c7e9086906139c1565b8111611cc7576000818152600260205260409020546001600160a01b0316611cb5578151611cac9082613a0c565b93505050611d36565b80611cbf81613aa1565b915050611c71565b5060405162461bcd60e51b815260206004820152603960248201527f52414952204552433732313a20546865726520617265206e6f20617661696c6160448201527f626c6520746f6b656e7320696e20746869732072616e67652e0000000000000060648201526084016107dd565b509392505050565b6000806060611d6e7f3c2519c4487d47714872f92cf90a50c25f5deaec2789dc2a497b1272df611db6600061186b565b601054620186a090611d9c9074010000000000000000000000000000000000000000900461ffff16896139ed565b611da691906139d9565b60408051602081018b9052016040516020818303038152906040529250925092509450945094915050565b6000818152600260205260409020546060906001600160a01b0316611e5e5760405162461bcd60e51b815260206004820152602f60248201527f4552433732314d657461646174613a2055524920717565727920666f72206e6f60448201527f6e6578697374656e7420746f6b656e000000000000000000000000000000000060648201526084016107dd565b6000611e7560408051602081019091526000815290565b90506000815111611e955760405180602001604052806000815250611883565b80611e9f84612486565b604051602001611eb09291906137bd565b6040516020818303038152906040529392505050565b6000818152600b602052604081206106d090612584565b6111f2828261258e565b611ef182826125b4565b5050565b6000611883836001600160a01b038416612656565b60006001600160e01b031982167f5a05180f0000000000000000000000000000000000000000000000000000000014806106d057506106d0826126a5565b6000818152600460205260409020805473ffffffffffffffffffffffffffffffffffffffff19166001600160a01b0384169081179091558190611f8a82611432565b6001600160a01b03167f8c5be1e5ebec7d5bd14f71427d1e84f3dd0314c0f7b2291e5b200ac8c7c3b92560405160405180910390a45050565b6000828152600a602090815260408083206001600160a01b038516845290915290205460ff16611ef157612001816001600160a01b031660146126e3565b61200c8360206126e3565b60405160200161201d9291906137ec565b60408051601f198184030181529082905262461bcd60e51b82526107dd916004016138da565b611ef18282604051806020016040528060008152506128a8565b6000818152600260205260408120546001600160a01b03166120d65760405162461bcd60e51b815260206004820152602c60248201527f4552433732313a206f70657261746f7220717565727920666f72206e6f6e657860448201526b34b9ba32b73a103a37b5b2b760a11b60648201526084016107dd565b60006120e183611432565b9050806001600160a01b0316846001600160a01b0316148061211c5750836001600160a01b031661211184610768565b6001600160a01b0316145b8061214c57506001600160a01b0380821660009081526005602090815260408083209388168352929052205460ff165b949350505050565b826001600160a01b031661216782611432565b6001600160a01b0316146121e35760405162461bcd60e51b815260206004820152602960248201527f4552433732313a207472616e73666572206f6620746f6b656e2074686174206960448201527f73206e6f74206f776e000000000000000000000000000000000000000000000060648201526084016107dd565b6001600160a01b03821661225e5760405162461bcd60e51b8152602060048201526024808201527f4552433732313a207472616e7366657220746f20746865207a65726f2061646460448201527f726573730000000000000000000000000000000000000000000000000000000060648201526084016107dd565b612269838383612926565b612274600082611f48565b6001600160a01b038316600090815260036020526040812080546001929061229d908490613a0c565b90915550506001600160a01b03821660009081526003602052604081208054600192906122cb9084906139c1565b9091555050600081815260026020526040808220805473ffffffffffffffffffffffffffffffffffffffff19166001600160a01b0386811691821790925591518493918716917fddf252ad1be2c89b69c2b068fc378daa952ba7f163c4a11628f55a4df523b3ef91a4505050565b6000828152600a60205260409020600101546123558133611fc3565b61092f83836125b4565b6001600160a01b03811633146123dd5760405162461bcd60e51b815260206004820152602f60248201527f416363657373436f6e74726f6c3a2063616e206f6e6c792072656e6f756e636560448201527f20726f6c657320666f722073656c66000000000000000000000000000000000060648201526084016107dd565b611ef18282612a73565b6000611883836001600160a01b038416612af6565b60006118838383612be3565b612413848484612154565b61241f84848484612c84565b611a855760405162461bcd60e51b815260206004820152603260248201527f4552433732313a207472616e7366657220746f206e6f6e20455243373231526560448201527131b2b4bb32b91034b6b83632b6b2b73a32b960711b60648201526084016107dd565b6060816124aa5750506040805180820190915260018152600360fc1b602082015290565b8160005b81156124d457806124be81613aa1565b91506124cd9050600a836139d9565b91506124ae565b60008167ffffffffffffffff8111156124ef576124ef613b28565b6040519080825280601f01601f191660200182016040528015612519576020820181803683370190505b5090505b841561214c5761252e600183613a0c565b915061253b600a86613abc565b6125469060306139c1565b60f81b81838151811061255b5761255b613b12565b60200101906001600160f81b031916908160001a90535061257d600a866139d9565b945061251d565b60006106d0825490565b6000828152600a60205260409020600101546125aa8133611fc3565b61092f8383612a73565b6000828152600a602090815260408083206001600160a01b038516845290915290205460ff16611ef1576000828152600a602090815260408083206001600160a01b03851684529091529020805460ff191660011790556126123390565b6001600160a01b0316816001600160a01b0316837f2f8788117e7eff1d82e926ec794901d17c78024a50270940304540a733656f0d60405160405180910390a45050565b600081815260018301602052604081205461269d575081546001818101845560008481526020808220909301849055845484825282860190935260409020919091556106d0565b5060006106d0565b60006001600160e01b031982167f7965db0b0000000000000000000000000000000000000000000000000000000014806106d057506106d082612ddc565b606060006126f28360026139ed565b6126fd9060026139c1565b67ffffffffffffffff81111561271557612715613b28565b6040519080825280601f01601f19166020018201604052801561273f576020820181803683370190505b509050600360fc1b8160008151811061275a5761275a613b12565b60200101906001600160f81b031916908160001a9053507f7800000000000000000000000000000000000000000000000000000000000000816001815181106127a5576127a5613b12565b60200101906001600160f81b031916908160001a90535060006127c98460026139ed565b6127d49060016139c1565b90505b6001811115612859577f303132333435363738396162636465660000000000000000000000000000000085600f166010811061281557612815613b12565b1a60f81b82828151811061282b5761282b613b12565b60200101906001600160f81b031916908160001a90535060049490941c9361285281613a4f565b90506127d7565b5083156118835760405162461bcd60e51b815260206004820181905260248201527f537472696e67733a20686578206c656e67746820696e73756666696369656e7460448201526064016107dd565b6128b28383612e1a565b6128bf6000848484612c84565b61092f5760405162461bcd60e51b815260206004820152603260248201527f4552433732313a207472616e7366657220746f206e6f6e20455243373231526560448201527131b2b4bb32b91034b6b83632b6b2b73a32b960711b60648201526084016107dd565b6001600160a01b0383161580159061294657506001600160a01b03821615155b15612a68576000818152600f6020908152604080832054600c90925290912054600d8054909190811061297b5761297b613b12565b9060005260206000209060040201600301541415612a3e576000818152600c6020526040902054600d805490919081106129b7576129b7613b12565b906000526020600020906004020160020154600014612a3e5760405162461bcd60e51b815260206004820152603a60248201527f52414952204552433732313a205472616e736665727320666f7220746869732060448201527f72616e6765206172652063757272656e746c79206c6f636b656400000000000060648201526084016107dd565b612a687f872340a532bdd7bb02bea115c1b0f1ba87eac982f5b79b51ac189ffaac1b6fce33611fc3565b61092f838383612f75565b6000828152600a602090815260408083206001600160a01b038516845290915290205460ff1615611ef1576000828152600a602090815260408083206001600160a01b0385168085529252808320805460ff1916905551339285917ff6391f5c32d9c69d2a47ea670b442974b53935d1edc7fd64eb21e047a839171b9190a45050565b60008181526001830160205260408120548015612bd9576000612b1a600183613a0c565b8554909150600090612b2e90600190613a0c565b90506000866000018281548110612b4757612b47613b12565b9060005260206000200154905080876000018481548110612b6a57612b6a613b12565b600091825260208083209091019290925582815260018901909152604090208490558654879080612b9d57612b9d613afc565b600190038181906000526020600020016000905590558660010160008781526020019081526020016000206000905560019450505050506106d0565b60009150506106d0565b81546000908210612c5c5760405162461bcd60e51b815260206004820152602260248201527f456e756d657261626c655365743a20696e646578206f7574206f6620626f756e60448201527f647300000000000000000000000000000000000000000000000000000000000060648201526084016107dd565b826000018281548110612c7157612c71613b12565b9060005260206000200154905092915050565b60006001600160a01b0384163b15612dd157604051630a85bd0160e11b81526001600160a01b0385169063150b7a0290612cc890339089908890889060040161386d565b602060405180830381600087803b158015612ce257600080fd5b505af1925050508015612d12575060408051601f3d908101601f19168201909252612d0f9181019061359d565b60015b612db7573d808015612d40576040519150601f19603f3d011682016040523d82523d6000602084013e612d45565b606091505b508051612daf5760405162461bcd60e51b815260206004820152603260248201527f4552433732313a207472616e7366657220746f206e6f6e20455243373231526560448201527131b2b4bb32b91034b6b83632b6b2b73a32b960711b60648201526084016107dd565b805181602001fd5b6001600160e01b031916630a85bd0160e11b14905061214c565b506001949350505050565b60006001600160e01b031982167f780e9d630000000000000000000000000000000000000000000000000000000014806106d057506106d08261302d565b6001600160a01b038216612e705760405162461bcd60e51b815260206004820181905260248201527f4552433732313a206d696e7420746f20746865207a65726f206164647265737360448201526064016107dd565b6000818152600260205260409020546001600160a01b031615612ed55760405162461bcd60e51b815260206004820152601c60248201527f4552433732313a20746f6b656e20616c7265616479206d696e7465640000000060448201526064016107dd565b612ee160008383612926565b6001600160a01b0382166000908152600360205260408120805460019290612f0a9084906139c1565b9091555050600081815260026020526040808220805473ffffffffffffffffffffffffffffffffffffffff19166001600160a01b03861690811790915590518392907fddf252ad1be2c89b69c2b068fc378daa952ba7f163c4a11628f55a4df523b3ef908290a45050565b6001600160a01b038316612fd057612fcb81600880546000838152600960205260408120829055600182018355919091527ff3f7a9fe364faab93b216da50a3214154f22a0a2b415b23a84c8169e8b636ee30155565b612ff3565b816001600160a01b0316836001600160a01b031614612ff357612ff383826130c8565b6001600160a01b03821661300a5761092f81613165565b826001600160a01b0316826001600160a01b03161461092f5761092f8282613214565b60006001600160e01b031982167f80ac58cd00000000000000000000000000000000000000000000000000000000148061309057506001600160e01b031982167f5b5e139f00000000000000000000000000000000000000000000000000000000145b806106d057507f01ffc9a7000000000000000000000000000000000000000000000000000000006001600160e01b03198316146106d0565b600060016130d5846115fa565b6130df9190613a0c565b600083815260076020526040902054909150808214613132576001600160a01b03841660009081526006602090815260408083208584528252808320548484528184208190558352600790915290208190555b5060009182526007602090815260408084208490556001600160a01b039094168352600681528383209183525290812055565b60085460009061317790600190613a0c565b6000838152600960205260408120546008805493945090928490811061319f5761319f613b12565b9060005260206000200154905080600883815481106131c0576131c0613b12565b60009182526020808320909101929092558281526009909152604080822084905585825281205560088054806131f8576131f8613afc565b6001900381819060005260206000200160009055905550505050565b600061321f836115fa565b6001600160a01b039093166000908152600660209081526040808320868452825280832085905593825260079052919091209190915550565b82805461326490613a66565b90600052602060002090601f01602090048101928261328657600085556132cc565b82601f1061329f57805160ff19168380011785556132cc565b828001600101855582156132cc579182015b828111156132cc5782518255916020019190600101906132b1565b506132d89291506132dc565b5090565b5b808211156132d857600081556001016132dd565b600067ffffffffffffffff8084111561330c5761330c613b28565b604051601f8501601f19908116603f0116810190828211818310171561333457613334613b28565b8160405280935085815286868601111561334d57600080fd5b858560208301376000602087830101525050509392505050565b80356001600160a01b038116811461337e57600080fd5b919050565b60006020828403121561339557600080fd5b61188382613367565b600080604083850312156133b157600080fd5b6133ba83613367565b91506133c860208401613367565b90509250929050565b6000806000606084860312156133e657600080fd5b6133ef84613367565b92506133fd60208501613367565b9150604084013590509250925092565b6000806000806080858703121561342357600080fd5b61342c85613367565b935061343a60208601613367565b925060408501359150606085013567ffffffffffffffff81111561345d57600080fd5b8501601f8101871361346e57600080fd5b61347d878235602084016132f1565b91505092959194509250565b6000806040838503121561349c57600080fd5b6134a583613367565b9150602083013580151581146134ba57600080fd5b809150509250929050565b600080604083850312156134d857600080fd5b6134e183613367565b946020939093013593505050565b60008060006060848603121561350457600080fd5b61350d84613367565b95602085013595506040909401359392505050565b60006020828403121561353457600080fd5b5035919050565b6000806040838503121561354e57600080fd5b823591506133c860208401613367565b6000806040838503121561357157600080fd5b50508035926020909101359150565b60006020828403121561359257600080fd5b813561188381613b3e565b6000602082840312156135af57600080fd5b815161188381613b3e565b600080604083850312156135cd57600080fd5b823567ffffffffffffffff8111156135e457600080fd5b8301601f810185136135f557600080fd5b613604858235602084016132f1565b95602094909401359450505050565b6000806000806060858703121561362957600080fd5b8435935060208501359250604085013567ffffffffffffffff8082111561364f57600080fd5b818701915087601f83011261366357600080fd5b81358181111561367257600080fd5b88602082850101111561368457600080fd5b95989497505060200194505050565b6000806000606084860312156136a857600080fd5b505081359360208301359350604090920135919050565b600080600080608085870312156136d557600080fd5b5050823594602084013594506040840135936060013592509050565b60008151808452613709816020860160208601613a23565b601f01601f19169290920160200192915050565b8054600090600181811c908083168061373757607f831692505b602080841082141561375957634e487b7160e01b600052602260045260246000fd5b838852602088018280156137745760018114613785576137b0565b60ff198716825282820197506137b0565b60008981526020902060005b878110156137aa57815484820152908601908401613791565b83019850505b5050505050505092915050565b600083516137cf818460208801613a23565b8351908301906137e3818360208801613a23565b01949350505050565b7f416363657373436f6e74726f6c3a206163636f756e7420000000000000000000815260008351613824816017850160208801613a23565b7f206973206d697373696e6720726f6c65200000000000000000000000000000006017918401918201528351613861816028840160208801613a23565b01602801949350505050565b60006001600160a01b0380871683528086166020840152508360408301526080606083015261389f60808301846136f1565b9695505050505050565b6001600160a01b03841681528260208201526060604082015260006138d160608301846136f1565b95945050505050565b60208152600061188360208301846136f1565b60408152600061390060408301856136f1565b90508260208301529392505050565b602081526000611883602083018461371d565b85815260006020868184015285604084015260a0606084015261394860a08401866136f1565b838103608085015284518082528286019183019060005b8181101561397b5783518352928401929184019160010161395f565b50909a9950505050505050505050565b85815284602082015283604082015282606082015260a0608082015260006139b660a083018461371d565b979650505050505050565b600082198211156139d4576139d4613ad0565b500190565b6000826139e8576139e8613ae6565b500490565b6000816000190483118215151615613a0757613a07613ad0565b500290565b600082821015613a1e57613a1e613ad0565b500390565b60005b83811015613a3e578181015183820152602001613a26565b83811115611a855750506000910152565b600081613a5e57613a5e613ad0565b506000190190565b600181811c90821680613a7a57607f821691505b60208210811415613a9b57634e487b7160e01b600052602260045260246000fd5b50919050565b6000600019821415613ab557613ab5613ad0565b5060010190565b600082613acb57613acb613ae6565b500690565b634e487b7160e01b600052601160045260246000fd5b634e487b7160e01b600052601260045260246000fd5b634e487b7160e01b600052603160045260246000fd5b634e487b7160e01b600052603260045260246000fd5b634e487b7160e01b600052604160045260246000fd5b6001600160e01b031981168114613b5457600080fd5b5056fea2646970667358221220f22cec07016ca4b2cce903f0519e06cde92a41371d362ac4e6450c000f487b0764736f6c634300080600333c2519c4487d47714872f92cf90a50c25f5deaec2789dc2a497b1272df611db6f0887ba65ee2024ea881d91b74c2450ef19e1557f03bed3ea9f16b037cbe2dc9872340a532bdd7bb02bea115c1b0f1ba87eac982f5b79b51ac189ffaac1b6fce",
  "linkReferences": {},
  "deployedLinkReferences": {}
}