{
  "address": "0x9498b23e964760364435C23c793e9352Ff4E2200",
  "abi": [
    {
      "inputs": [
        {
          "internalType": "uint256",
          "name": "value",
          "type": "uint256"
        },
        {
          "internalType": "uint256",
          "name": "length",
          "type": "uint256"
        }
      ],
      "name": "StringsInsufficientHexLength",
      "type": "error"
    },
    {
      "anonymous": false,
      "inputs": [
        {
          "indexed": false,
          "internalType": "address",
          "name": "deployerAddress",
          "type": "address"
        },
        {
          "indexed": false,
          "internalType": "uint256",
          "name": "deploymentIndex",
          "type": "uint256"
        },
        {
          "indexed": false,
          "internalType": "address",
          "name": "deploymentAddress",
          "type": "address"
        },
        {
          "indexed": false,
          "internalType": "string",
          "name": "deploymentName",
          "type": "string"
        }
      ],
      "name": "DeployedContract",
      "type": "event"
    },
    {
      "anonymous": false,
      "inputs": [
        {
          "indexed": true,
          "internalType": "bytes32",
          "name": "role",
          "type": "bytes32"
        },
        {
          "indexed": true,
          "internalType": "bytes32",
          "name": "previousAdminRole",
          "type": "bytes32"
        },
        {
          "indexed": true,
          "internalType": "bytes32",
          "name": "newAdminRole",
          "type": "bytes32"
        }
      ],
      "name": "RoleAdminChanged",
      "type": "event"
    },
    {
      "anonymous": false,
      "inputs": [
        {
          "indexed": true,
          "internalType": "bytes32",
          "name": "role",
          "type": "bytes32"
        },
        {
          "indexed": true,
          "internalType": "address",
          "name": "account",
          "type": "address"
        },
        {
          "indexed": true,
          "internalType": "address",
          "name": "sender",
          "type": "address"
        }
      ],
      "name": "RoleGranted",
      "type": "event"
    },
    {
      "anonymous": false,
      "inputs": [
        {
          "indexed": true,
          "internalType": "bytes32",
          "name": "role",
          "type": "bytes32"
        },
        {
          "indexed": true,
          "internalType": "address",
          "name": "account",
          "type": "address"
        },
        {
          "indexed": true,
          "internalType": "address",
          "name": "sender",
          "type": "address"
        }
      ],
      "name": "RoleRevoked",
      "type": "event"
    },
    {
      "inputs": [
        {
          "internalType": "string",
          "name": "contractName",
          "type": "string"
        },
        {
          "internalType": "string",
          "name": "contractSymbol",
          "type": "string"
        }
      ],
      "name": "deployContract",
      "outputs": [],
      "stateMutability": "nonpayable",
      "type": "function"
    },
    {
      "inputs": [
        {
          "internalType": "bytes32",
          "name": "role",
          "type": "bytes32"
        }
      ],
      "name": "getRoleAdmin",
      "outputs": [
        {
          "internalType": "bytes32",
          "name": "",
          "type": "bytes32"
        }
      ],
      "stateMutability": "view",
      "type": "function"
    },
    {
      "inputs": [
        {
          "internalType": "bytes32",
          "name": "role",
          "type": "bytes32"
        },
        {
          "internalType": "uint256",
          "name": "index",
          "type": "uint256"
        }
      ],
      "name": "getRoleMember",
      "outputs": [
        {
          "internalType": "address",
          "name": "",
          "type": "address"
        }
      ],
      "stateMutability": "view",
      "type": "function"
    },
    {
      "inputs": [
        {
          "internalType": "bytes32",
          "name": "role",
          "type": "bytes32"
        }
      ],
      "name": "getRoleMemberCount",
      "outputs": [
        {
          "internalType": "uint256",
          "name": "",
          "type": "uint256"
        }
      ],
      "stateMutability": "view",
      "type": "function"
    },
    {
      "inputs": [
        {
          "internalType": "bytes32",
          "name": "role",
          "type": "bytes32"
        },
        {
          "internalType": "address",
          "name": "account",
          "type": "address"
        }
      ],
      "name": "grantRole",
      "outputs": [],
      "stateMutability": "nonpayable",
      "type": "function"
    },
    {
      "inputs": [
        {
          "internalType": "bytes32",
          "name": "role",
          "type": "bytes32"
        },
        {
          "internalType": "address",
          "name": "account",
          "type": "address"
        }
      ],
      "name": "hasRole",
      "outputs": [
        {
          "internalType": "bool",
          "name": "",
          "type": "bool"
        }
      ],
      "stateMutability": "view",
      "type": "function"
    },
    {
      "inputs": [
        {
          "internalType": "bytes32",
          "name": "role",
          "type": "bytes32"
        },
        {
          "internalType": "address",
          "name": "account",
          "type": "address"
        }
      ],
      "name": "renounceRole",
      "outputs": [],
      "stateMutability": "nonpayable",
      "type": "function"
    },
    {
      "inputs": [
        {
          "internalType": "bytes32",
          "name": "role",
          "type": "bytes32"
        },
        {
          "internalType": "address",
          "name": "account",
          "type": "address"
        }
      ],
      "name": "revokeRole",
      "outputs": [],
      "stateMutability": "nonpayable",
      "type": "function"
    }
  ],
  "transactionHash": "0xeb4707ed6ca2cd9d3ae625b6a631bb7de3a32b5baa1c6b61e86670e98fae96ad",
  "args": [],
  "numDeployments": 1,
  "solcInputHash": "ba288d747cc1aa4c71ee545a11fd6010",
  "bytecode": "0x6080604052348015600f57600080fd5b506123218061001f6000396000f3fe608060405234801561001057600080fd5b50600436106100885760003560e01c806391d148541161005b57806391d1485414610106578063ca15c87314610129578063d547741f1461013c578063e0bdf5831461014f57600080fd5b8063248a9ca31461008d5780632f2ff15d146100b357806336568abe146100c85780639010d07c146100db575b600080fd5b6100a061009b366004610b25565b610162565b6040519081526020015b60405180910390f35b6100c66100c1366004610b3e565b610184565b005b6100c66100d6366004610b3e565b6101a6565b6100ee6100e9366004610b7a565b610229565b6040516001600160a01b0390911681526020016100aa565b610119610114366004610b3e565b610257565b60405190151581526020016100aa565b6100a0610137366004610b25565b61028f565b6100c661014a366004610b3e565b6102b3565b6100c661015d366004610be5565b6102d0565b60009081526000805160206122ac833981519152602052604090206001015490565b61018d82610162565b610197813361065c565b6101a183836106c0565b505050565b6001600160a01b038116331461021b5760405162461bcd60e51b815260206004820152602f60248201527f416363657373436f6e74726f6c3a2063616e206f6e6c792072656e6f756e636560448201526e103937b632b9903337b91039b2b63360891b60648201526084015b60405180910390fd5b6102258282610757565b5050565b60008281526000805160206122cc8339815191526020526040812061024e90836107ec565b90505b92915050565b60009182526000805160206122ac833981519152602090815260408084206001600160a01b0393909316845291905290205460ff1690565b60008181526000805160206122cc83398151915260205260408120610251906107f8565b6102bc82610162565b6102c6813361065c565b6101a18383610757565b7f3178d75a97455c722bbe6e3619364b9b8f446a5900d6fbcc8d92ea722276883e546001600160a01b031660008181527f3178d75a97455c722bbe6e3619364b9b8f446a5900d6fbcc8d92ea722276883d6020908152604091829020548251636eb1769f60e11b815233600482015230602482015292517f3178d75a97455c722bbe6e3619364b9b8f446a5900d6fbcc8d92ea722276883a949193919263dd62ed3e92604480820193918290030181865afa158015610393573d6000803e3d6000fd5b505050506040513d601f19601f820116820180604052508101906103b79190610c51565b10156104165760405162461bcd60e51b815260206004820152602860248201527f4465706c6f7965723a204e6f7420616c6c6f77656420746f207472616e7366656044820152677220746f6b656e7360c01b6064820152608401610212565b6004818101546001600160a01b03166000818152600384016020526040908190205490516323b872dd60e01b815233938101939093523060248401526044830152906323b872dd906064016020604051808303816000875af1158015610480573d6000803e3d6000fd5b505050506040513d601f19601f820116820180604052508101906104a49190610c6a565b6104fc5760405162461bcd60e51b815260206004820152602360248201527f4465706c6f7965723a204572726f72207472616e7366657272696e6720746f6b604482015262656e7360e81b6064820152608401610212565b336000818152600183016020908152604080832060048601546001600160a01b031684526003860183528184205494845260068601909252822080549193929091610548908490610ca9565b909155505080546000036105795781546001810183556000838152602090200180546001600160a01b031916331790555b6000868686863361753060405161058f90610b18565b61059e96959493929190610ce5565b604051809103906000f0801580156105ba573d6000803e3d6000fd5b508254600180820185556000858152602080822090930180546001600160a01b03199081166001600160a01b038716908117909255908252600288019093526040902080543393168317905584549293507fb1bf8414d7fb85ef593239c1db589dffe8753ca97f373e492a269ec8c1e97553926106379190610d34565b838a8a60405161064b959493929190610d47565b60405180910390a150505050505050565b6106668282610257565b6102255761067e816001600160a01b03166014610802565b610689836020610802565b60405160200161069a929190610daa565b60408051601f198184030181529082905262461bcd60e51b825261021291600401610e1f565b6106ca8282610257565b6102255760008281526000805160206122ac833981519152602090815260408083206001600160a01b0385168085529252808320805460ff1916600117905551339285917f2f8788117e7eff1d82e926ec794901d17c78024a50270940304540a733656f0d9190a460008281526000805160206122cc833981519152602052604090206101a19082610982565b6107618282610257565b156102255760008281526000805160206122ac833981519152602090815260408083206001600160a01b0385168085529252808320805460ff1916905551339285917ff6391f5c32d9c69d2a47ea670b442974b53935d1edc7fd64eb21e047a839171b9190a460008281526000805160206122cc833981519152602052604090206101a19082610997565b600061024e83836109ac565b6000610251825490565b6060826000610812846002610e52565b61081d906002610ca9565b67ffffffffffffffff81111561083557610835610e69565b6040519080825280601f01601f19166020018201604052801561085f576020820181803683370190505b509050600360fc1b8160008151811061087a5761087a610e7f565b60200101906001600160f81b031916908160001a905350600f60fb1b816001815181106108a9576108a9610e7f565b60200101906001600160f81b031916908160001a90535060006108cd856002610e52565b6108d8906001610ca9565b90505b6001811115610950576f181899199a1a9b1b9c1cb0b131b232b360811b83600f166010811061090c5761090c610e7f565b1a60f81b82828151811061092257610922610e7f565b60200101906001600160f81b031916908160001a90535060049290921c9161094981610e95565b90506108db565b50811561097a5760405163e22e27eb60e01b81526004810186905260248101859052604401610212565b949350505050565b600061024e836001600160a01b0384166109d6565b600061024e836001600160a01b038416610a25565b60008260000182815481106109c3576109c3610e7f565b9060005260206000200154905092915050565b6000818152600183016020526040812054610a1d57508154600181810184556000848152602080822090930184905584548482528286019093526040902091909155610251565b506000610251565b60008181526001830160205260408120548015610b0e576000610a49600183610d34565b8554909150600090610a5d90600190610d34565b9050808214610ac2576000866000018281548110610a7d57610a7d610e7f565b9060005260206000200154905080876000018481548110610aa057610aa0610e7f565b6000918252602080832090910192909255918252600188019052604090208390555b8554869080610ad357610ad3610eac565b600190038181906000526020600020016000905590558560010160008681526020019081526020016000206000905560019350505050610251565b6000915050610251565b6113e980610ec383390190565b600060208284031215610b3757600080fd5b5035919050565b60008060408385031215610b5157600080fd5b8235915060208301356001600160a01b0381168114610b6f57600080fd5b809150509250929050565b60008060408385031215610b8d57600080fd5b50508035926020909101359150565b60008083601f840112610bae57600080fd5b50813567ffffffffffffffff811115610bc657600080fd5b602083019150836020828501011115610bde57600080fd5b9250929050565b60008060008060408587031215610bfb57600080fd5b843567ffffffffffffffff80821115610c1357600080fd5b610c1f88838901610b9c565b90965094506020870135915080821115610c3857600080fd5b50610c4587828801610b9c565b95989497509550505050565b600060208284031215610c6357600080fd5b5051919050565b600060208284031215610c7c57600080fd5b81518015158114610c8c57600080fd5b9392505050565b634e487b7160e01b600052601160045260246000fd5b8082018082111561025157610251610c93565b81835281816020850137506000828201602090810191909152601f909101601f19169091010190565b608081526000610cf960808301888a610cbc565b8281036020840152610d0c818789610cbc565b6001600160a01b03959095166040840152505061ffff91909116606090910152949350505050565b8181038181111561025157610251610c93565b6001600160a01b0386811682526020820186905284166040820152608060608201819052600090610d7b9083018486610cbc565b979650505050505050565b60005b83811015610da1578181015183820152602001610d89565b50506000910152565b7f416363657373436f6e74726f6c3a206163636f756e7420000000000000000000815260008351610de2816017850160208801610d86565b7001034b99036b4b9b9b4b733903937b6329607d1b6017918401918201528351610e13816028840160208801610d86565b01602801949350505050565b6020815260008251806020840152610e3e816040850160208701610d86565b601f01601f19169190910160400192915050565b808202811582820484141761025157610251610c93565b634e487b7160e01b600052604160045260246000fd5b634e487b7160e01b600052603260045260246000fd5b600081610ea457610ea4610c93565b506000190190565b634e487b7160e01b600052603160045260246000fdfe608060405234801561001057600080fd5b506040516113e93803806113e983398101604081905261002f916103ac565b7f13fbb056f2602120441ced10c19d8151fd41fd4b17a6646b53bc0f944eb07a398061005b86826104d4565b506001810161006a85826104d4565b50601b81018054600160ff19909116179055600b810180546001600160b01b0319163361ffff60a01b191617600160a01b61ffff8516021790556100ca6000805160206113a9833981519152600080516020611389833981519152610142565b6100f06000805160206113c9833981519152600080516020611389833981519152610142565b6101086000805160206113898339815191528461019a565b6101206000805160206113a98339815191528461019a565b6101386000805160206113c98339815191528461019a565b5050505050610593565b60008281526000805160206113698339815191526020526040808220600101805490849055905190918391839186917fbd79b86ffe0ab8e8776151514217cd7cacd52c909f66475c3af44e129f0b00ff9190a4505050565b6101a48282610249565b610245576000828152600080516020611369833981519152602090815260408083206001600160a01b0385168085529252808320805460ff1916600117905551339285917f2f8788117e7eff1d82e926ec794901d17c78024a50270940304540a733656f0d9190a460008281527f4f4f658137f4e10317e1a22624c2b114af7563a20fb2e3444ae2ac2342d457d1602052604090206102439082610283565b505b5050565b6000828152600080516020611369833981519152602090815260408083206001600160a01b038516845290915290205460ff165b92915050565b6000610298836001600160a01b03841661029f565b9392505050565b60008181526001830160205260408120546102e65750815460018181018455600084815260208082209093018490558454848252828601909352604090209190915561027d565b50600061027d565b634e487b7160e01b600052604160045260246000fd5b600082601f83011261031557600080fd5b81516001600160401b038082111561032f5761032f6102ee565b604051601f8301601f19908116603f01168101908282118183101715610357576103576102ee565b816040528381526020925086602085880101111561037457600080fd5b600091505b838210156103965785820183015181830184015290820190610379565b6000602085830101528094505050505092915050565b600080600080608085870312156103c257600080fd5b84516001600160401b03808211156103d957600080fd5b6103e588838901610304565b955060208701519150808211156103fb57600080fd5b5061040887828801610304565b604087015190945090506001600160a01b038116811461042757600080fd5b606086015190925061ffff8116811461043f57600080fd5b939692955090935050565b600181811c9082168061045e57607f821691505b60208210810361047e57634e487b7160e01b600052602260045260246000fd5b50919050565b601f821115610243576000816000526020600020601f850160051c810160208610156104ad5750805b601f850160051c820191505b818110156104cc578281556001016104b9565b505050505050565b81516001600160401b038111156104ed576104ed6102ee565b610501816104fb845461044a565b84610484565b602080601f831160018114610536576000841561051e5750858301515b600019600386901b1c1916600185901b1785556104cc565b600085815260208120601f198616915b8281101561056557888601518255948401946001909101908401610546565b50858210156105835787850151600019600388901b60f8161c191681555b5050505050600190811b01905550565b610dc7806105a26000396000f3fe608060405234801561001057600080fd5b50600436106100cf5760003560e01c806391d148541161008c578063d547741f11610066578063d547741f14610316578063e4fbb60914610329578063e8a3d48514610350578063fe6d812414610365576100cf565b806391d14854146102c0578063a9c2e36c146102d3578063ca15c87314610303576100cf565b806301ffc9a7146101ff578063175c4ef814610227578063248a9ca31461025c5780632f2ff15d1461026f57806336568abe146102825780639010d07c14610295575b7f13fbb056f2602120441ced10c19d8151fd41fd4b17a6646b53bc0f944eb07a445460408051631dbb5cf160e31b815290516001600160a01b0390921691600091839163eddae788916004808201926020929091908290030181865afa15801561013d573d6000803e3d6000fd5b505050506040513d601f19601f820116820180604052508101906101619190610aed565b6040516366ffd66360e11b81526001600160e01b03196000351660048201526001600160a01b03919091169063cdffacc690602401602060405180830381865afa1580156101b3573d6000803e3d6000fd5b505050506040513d601f19601f820116820180604052508101906101d79190610aed565b90503660008037600080366000845af43d6000803e8080156101f8573d6000f35b3d6000fd5b005b61021261020d366004610b0a565b61038c565b60405190151581526020015b60405180910390f35b61024e7f872340a532bdd7bb02bea115c1b0f1ba87eac982f5b79b51ac189ffaac1b6fce81565b60405190815260200161021e565b61024e61026a366004610b34565b6103f9565b6101fd61027d366004610b4d565b61041b565b6101fd610290366004610b4d565b61043d565b6102a86102a3366004610b7d565b6104c0565b6040516001600160a01b03909116815260200161021e565b6102126102ce366004610b4d565b6104ec565b7f13fbb056f2602120441ced10c19d8151fd41fd4b17a6646b53bc0f944eb07a44546001600160a01b03166102a8565b61024e610311366004610b34565b610524565b6101fd610324366004610b4d565b610548565b61024e7f3c2519c4487d47714872f92cf90a50c25f5deaec2789dc2a497b1272df611db681565b610358610565565b60405161021e9190610bc3565b61024e7ff0887ba65ee2024ea881d91b74c2450ef19e1557f03bed3ea9f16b037cbe2dc981565b60006001600160e01b031982166380ac58cd60e01b14806103bd57506001600160e01b03198216635b5e139f60e01b145b806103d857506001600160e01b0319821663780e9d6360e01b145b806103f357506301ffc9a760e01b6001600160e01b03198316145b92915050565b6000908152600080516020610d52833981519152602052604090206001015490565b610424826103f9565b61042e8133610619565b610438838361067d565b505050565b6001600160a01b03811633146104b25760405162461bcd60e51b815260206004820152602f60248201527f416363657373436f6e74726f6c3a2063616e206f6e6c792072656e6f756e636560448201526e103937b632b9903337b91039b2b63360891b60648201526084015b60405180910390fd5b6104bc8282610714565b5050565b6000828152600080516020610d72833981519152602052604081206104e590836107a9565b9392505050565b6000918252600080516020610d52833981519152602090815260408084206001600160a01b0393909316845291905290205460ff1690565b6000818152600080516020610d72833981519152602052604081206103f3906107b5565b610551826103f9565b61055b8133610619565b6104388383610714565b60607f13fbb056f2602120441ced10c19d8151fd41fd4b17a6646b53bc0f944eb07a39601501805461059690610bf6565b80601f01602080910402602001604051908101604052809291908181526020018280546105c290610bf6565b801561060f5780601f106105e45761010080835404028352916020019161060f565b820191906000526020600020905b8154815290600101906020018083116105f257829003601f168201915b5050505050905090565b61062382826104ec565b6104bc5761063b816001600160a01b031660146107bf565b6106468360206107bf565b604051602001610657929190610c30565b60408051601f198184030181529082905262461bcd60e51b82526104a991600401610bc3565b61068782826104ec565b6104bc576000828152600080516020610d52833981519152602090815260408083206001600160a01b0385168085529252808320805460ff1916600117905551339285917f2f8788117e7eff1d82e926ec794901d17c78024a50270940304540a733656f0d9190a46000828152600080516020610d7283398151915260205260409020610438908261093f565b61071e82826104ec565b156104bc576000828152600080516020610d52833981519152602090815260408083206001600160a01b0385168085529252808320805460ff1916905551339285917ff6391f5c32d9c69d2a47ea670b442974b53935d1edc7fd64eb21e047a839171b9190a46000828152600080516020610d72833981519152602052604090206104389082610954565b60006104e58383610969565b60006103f3825490565b60608260006107cf846002610cbb565b6107da906002610cd2565b67ffffffffffffffff8111156107f2576107f2610ce5565b6040519080825280601f01601f19166020018201604052801561081c576020820181803683370190505b509050600360fc1b8160008151811061083757610837610cfb565b60200101906001600160f81b031916908160001a905350600f60fb1b8160018151811061086657610866610cfb565b60200101906001600160f81b031916908160001a905350600061088a856002610cbb565b610895906001610cd2565b90505b600181111561090d576f181899199a1a9b1b9c1cb0b131b232b360811b83600f16601081106108c9576108c9610cfb565b1a60f81b8282815181106108df576108df610cfb565b60200101906001600160f81b031916908160001a90535060049290921c9161090681610d11565b9050610898565b5081156109375760405163e22e27eb60e01b815260048101869052602481018590526044016104a9565b949350505050565b60006104e5836001600160a01b038416610993565b60006104e5836001600160a01b0384166109e2565b600082600001828154811061098057610980610cfb565b9060005260206000200154905092915050565b60008181526001830160205260408120546109da575081546001818101845560008481526020808220909301849055845484825282860190935260409020919091556103f3565b5060006103f3565b60008181526001830160205260408120548015610acb576000610a06600183610d28565b8554909150600090610a1a90600190610d28565b9050808214610a7f576000866000018281548110610a3a57610a3a610cfb565b9060005260206000200154905080876000018481548110610a5d57610a5d610cfb565b6000918252602080832090910192909255918252600188019052604090208390555b8554869080610a9057610a90610d3b565b6001900381819060005260206000200160009055905585600101600086815260200190815260200160002060009055600193505050506103f3565b60009150506103f3565b6001600160a01b0381168114610aea57600080fd5b50565b600060208284031215610aff57600080fd5b81516104e581610ad5565b600060208284031215610b1c57600080fd5b81356001600160e01b0319811681146104e557600080fd5b600060208284031215610b4657600080fd5b5035919050565b60008060408385031215610b6057600080fd5b823591506020830135610b7281610ad5565b809150509250929050565b60008060408385031215610b9057600080fd5b50508035926020909101359150565b60005b83811015610bba578181015183820152602001610ba2565b50506000910152565b6020815260008251806020840152610be2816040850160208701610b9f565b601f01601f19169190910160400192915050565b600181811c90821680610c0a57607f821691505b602082108103610c2a57634e487b7160e01b600052602260045260246000fd5b50919050565b7f416363657373436f6e74726f6c3a206163636f756e7420000000000000000000815260008351610c68816017850160208801610b9f565b7001034b99036b4b9b9b4b733903937b6329607d1b6017918401918201528351610c99816028840160208801610b9f565b01602801949350505050565b634e487b7160e01b600052601160045260246000fd5b80820281158282048414176103f3576103f3610ca5565b808201808211156103f3576103f3610ca5565b634e487b7160e01b600052604160045260246000fd5b634e487b7160e01b600052603260045260246000fd5b600081610d2057610d20610ca5565b506000190190565b818103818111156103f3576103f3610ca5565b634e487b7160e01b600052603160045260246000fdfe4f4f658137f4e10317e1a22624c2b114af7563a20fb2e3444ae2ac2342d457d04f4f658137f4e10317e1a22624c2b114af7563a20fb2e3444ae2ac2342d457d1a26469706673582212201e1c6fa32553aa16ca4be57d28116848b5cedef970db987da13f6821b05f921264736f6c634300081900334f4f658137f4e10317e1a22624c2b114af7563a20fb2e3444ae2ac2342d457d03c2519c4487d47714872f92cf90a50c25f5deaec2789dc2a497b1272df611db6f0887ba65ee2024ea881d91b74c2450ef19e1557f03bed3ea9f16b037cbe2dc9872340a532bdd7bb02bea115c1b0f1ba87eac982f5b79b51ac189ffaac1b6fce4f4f658137f4e10317e1a22624c2b114af7563a20fb2e3444ae2ac2342d457d04f4f658137f4e10317e1a22624c2b114af7563a20fb2e3444ae2ac2342d457d1a26469706673582212204d9bf81419d17afa9998ff53ccbf51c4b8d2db6cb6e8a18dcbb8a6713ca1272264736f6c63430008190033",
  "devdoc": {
    "errors": {
      "StringsInsufficientHexLength(uint256,uint256)": [
        {
          "details": "The `value` string doesn't fit in the specified `length`."
        }
      ]
    },
    "events": {
      "DeployedContract(address,uint256,address,string)": {
        "params": {
          "deployerAddress": "Contains the address of the deployer of the contract ",
          "deploymentAddress": "Contains the address where the contract was deployed",
          "deploymentIndex": "Contains the corresponding ID for the deployment",
          "deploymentName": "Contains the name of the deployed contract"
        }
      }
    },
    "kind": "dev",
    "methods": {},
    "title": "ERC721 factory",
    "version": 1
  },
  "userdoc": {
    "events": {
      "DeployedContract(address,uint256,address,string)": {
        "notice": "This event stores in the blockchain when a new contract is deployed"
      }
    },
    "kind": "user",
    "methods": {},
    "notice": "Facet receives ERC777 tokens and deploys an ERC721 smart contract",
    "version": 1
  },
  "storageLayout": {
    "storage": [],
    "types": null
  }
}