{
  "address": "0x1F89Cc515dDc53dA2fac5B0Ca3b322066A71E6BA",
  "abi": [
    {
      "inputs": [
        {
          "internalType": "address",
          "name": "_diamondCut",
          "type": "address"
        }
      ],
      "stateMutability": "nonpayable",
      "type": "constructor"
    },
    {
      "inputs": [
        {
          "internalType": "address",
          "name": "_initializationContractAddress",
          "type": "address"
        },
        {
          "internalType": "bytes",
          "name": "_calldata",
          "type": "bytes"
        }
      ],
      "name": "InitializationFunctionReverted",
      "type": "error"
    },
    {
      "inputs": [
        {
          "internalType": "uint256",
          "name": "value",
          "type": "uint256"
        },
        {
          "internalType": "uint256",
          "name": "length",
          "type": "uint256"
        }
      ],
      "name": "StringsInsufficientHexLength",
      "type": "error"
    },
    {
      "anonymous": false,
      "inputs": [
        {
          "components": [
            {
              "internalType": "address",
              "name": "facetAddress",
              "type": "address"
            },
            {
              "internalType": "enum IDiamondCut.FacetCutAction",
              "name": "action",
              "type": "uint8"
            },
            {
              "internalType": "bytes4[]",
              "name": "functionSelectors",
              "type": "bytes4[]"
            }
          ],
          "indexed": false,
          "internalType": "struct IDiamondCut.FacetCut[]",
          "name": "_diamondCut",
          "type": "tuple[]"
        },
        {
          "indexed": false,
          "internalType": "address",
          "name": "_init",
          "type": "address"
        },
        {
          "indexed": false,
          "internalType": "bytes",
          "name": "_calldata",
          "type": "bytes"
        }
      ],
      "name": "DiamondCut",
      "type": "event"
    },
    {
      "anonymous": false,
      "inputs": [
        {
          "indexed": true,
          "internalType": "address",
          "name": "previousOwner",
          "type": "address"
        },
        {
          "indexed": true,
          "internalType": "address",
          "name": "newOwner",
          "type": "address"
        }
      ],
      "name": "OwnershipTransferred",
      "type": "event"
    },
    {
      "anonymous": false,
      "inputs": [
        {
          "indexed": true,
          "internalType": "bytes32",
          "name": "role",
          "type": "bytes32"
        },
        {
          "indexed": true,
          "internalType": "bytes32",
          "name": "previousAdminRole",
          "type": "bytes32"
        },
        {
          "indexed": true,
          "internalType": "bytes32",
          "name": "newAdminRole",
          "type": "bytes32"
        }
      ],
      "name": "RoleAdminChanged",
      "type": "event"
    },
    {
      "anonymous": false,
      "inputs": [
        {
          "indexed": true,
          "internalType": "bytes32",
          "name": "role",
          "type": "bytes32"
        },
        {
          "indexed": true,
          "internalType": "address",
          "name": "account",
          "type": "address"
        },
        {
          "indexed": true,
          "internalType": "address",
          "name": "sender",
          "type": "address"
        }
      ],
      "name": "RoleGranted",
      "type": "event"
    },
    {
      "anonymous": false,
      "inputs": [
        {
          "indexed": true,
          "internalType": "bytes32",
          "name": "role",
          "type": "bytes32"
        },
        {
          "indexed": true,
          "internalType": "address",
          "name": "account",
          "type": "address"
        },
        {
          "indexed": true,
          "internalType": "address",
          "name": "sender",
          "type": "address"
        }
      ],
      "name": "RoleRevoked",
      "type": "event"
    },
    {
      "stateMutability": "payable",
      "type": "fallback"
    },
    {
      "inputs": [],
      "name": "ADMINISTRATOR",
      "outputs": [
        {
          "internalType": "bytes32",
          "name": "",
          "type": "bytes32"
        }
      ],
      "stateMutability": "view",
      "type": "function"
    },
    {
      "inputs": [],
      "name": "DEFAULT_ADMIN_ROLE",
      "outputs": [
        {
          "internalType": "bytes32",
          "name": "",
          "type": "bytes32"
        }
      ],
      "stateMutability": "view",
      "type": "function"
    },
    {
      "inputs": [],
      "name": "WITHDRAW_SIGNER",
      "outputs": [
        {
          "internalType": "bytes32",
          "name": "",
          "type": "bytes32"
        }
      ],
      "stateMutability": "view",
      "type": "function"
    },
    {
      "inputs": [
        {
          "internalType": "bytes32",
          "name": "role",
          "type": "bytes32"
        }
      ],
      "name": "getRoleAdmin",
      "outputs": [
        {
          "internalType": "bytes32",
          "name": "",
          "type": "bytes32"
        }
      ],
      "stateMutability": "view",
      "type": "function"
    },
    {
      "inputs": [
        {
          "internalType": "bytes32",
          "name": "role",
          "type": "bytes32"
        },
        {
          "internalType": "uint256",
          "name": "index",
          "type": "uint256"
        }
      ],
      "name": "getRoleMember",
      "outputs": [
        {
          "internalType": "address",
          "name": "",
          "type": "address"
        }
      ],
      "stateMutability": "view",
      "type": "function"
    },
    {
      "inputs": [
        {
          "internalType": "bytes32",
          "name": "role",
          "type": "bytes32"
        }
      ],
      "name": "getRoleMemberCount",
      "outputs": [
        {
          "internalType": "uint256",
          "name": "",
          "type": "uint256"
        }
      ],
      "stateMutability": "view",
      "type": "function"
    },
    {
      "inputs": [
        {
          "internalType": "bytes32",
          "name": "role",
          "type": "bytes32"
        },
        {
          "internalType": "address",
          "name": "account",
          "type": "address"
        }
      ],
      "name": "grantRole",
      "outputs": [],
      "stateMutability": "nonpayable",
      "type": "function"
    },
    {
      "inputs": [
        {
          "internalType": "bytes32",
          "name": "role",
          "type": "bytes32"
        },
        {
          "internalType": "address",
          "name": "account",
          "type": "address"
        }
      ],
      "name": "hasRole",
      "outputs": [
        {
          "internalType": "bool",
          "name": "",
          "type": "bool"
        }
      ],
      "stateMutability": "view",
      "type": "function"
    },
    {
      "inputs": [
        {
          "internalType": "bytes32",
          "name": "role",
          "type": "bytes32"
        },
        {
          "internalType": "address",
          "name": "account",
          "type": "address"
        }
      ],
      "name": "renounceRole",
      "outputs": [],
      "stateMutability": "nonpayable",
      "type": "function"
    },
    {
      "inputs": [
        {
          "internalType": "bytes32",
          "name": "role",
          "type": "bytes32"
        },
        {
          "internalType": "address",
          "name": "account",
          "type": "address"
        }
      ],
      "name": "revokeRole",
      "outputs": [],
      "stateMutability": "nonpayable",
      "type": "function"
    },
    {
      "stateMutability": "payable",
      "type": "receive"
    }
  ],
  "transactionHash": "0xece29878934dbd435b181c2f5f2984a65096c2cdb77e1a35ab54d7900233b65c",
  "args": [
    "0x0Ce668D271b8016a785Bf146e58739F432300B12"
  ],
  "numDeployments": 1,
  "solcInputHash": "ba288d747cc1aa4c71ee545a11fd6010",
  "bytecode": "0x608060405234801561001057600080fd5b50604051611d00380380611d0083398101604081905261002f91610df3565b338161003a826101c5565b604080516001808252818301909252600091816020015b604080516060808201835260008083526020830152918101919091528152602001906001900390816100515750506040805160018082528183019092529192506000919060208083019080368337019050509050631f931c1c60e01b816000815181106100c0576100c0610e1c565b6001600160e01b031990921660209283029190910182015260408051606081019091526001600160a01b038516815290810160008152602001828152508260008151811061011057610110610e1c565b602002602001018190525061013c8260006040518060200160405280600081525061024860201b60201c565b5050505061015e600080516020611c98833981519152806103b460201b60201c565b610184600080516020611cb8833981519152600080516020611c988339815191526103b4565b61018f60003361040c565b6101a7600080516020611c988339815191523361040c565b6101bf600080516020611cb88339815191523361040c565b50611066565b7fc8fcad8db84d3cc18b4c41d551ea0ee66dd599cde068d998e57d5e09332c132080546001600160a01b031981166001600160a01b03848116918217909355604051600080516020611c0c833981519152939092169182907f8be0079c531659141344cd1fd0a4f28419497f9722a3daafe3b4186f6b6457e090600090a3505050565b7fc8fcad8db84d3cc18b4c41d551ea0ee66dd599cde068d998e57d5e09332c131e54600080516020611c0c8339815191529061ffff8116908190600090600716156102a55750600381901c60009081526001840160205260409020545b60005b87518110156103285761031b83838a84815181106102c8576102c8610e1c565b6020026020010151600001518b85815181106102e6576102e6610e1c565b6020026020010151602001518c868151811061030457610304610e1c565b6020026020010151604001516104bb60201b60201c565b90935091506001016102a8565b508282146103445760028401805461ffff191661ffff84161790555b600782161561036657600382901c600090815260018501602052604090208190555b7f8faa70878671ccd212d20771b795c50af8fd3ff6cf27f4bde57e5d4de0aeb67387878760405161039993929190610e98565b60405180910390a16103ab8686610c61565b50505050505050565b6000828152600080516020611c2c8339815191526020526040808220600101805490849055905190918391839186917fbd79b86ffe0ab8e8776151514217cd7cacd52c909f66475c3af44e129f0b00ff9190a4505050565b6104168282610d2d565b6104b7576000828152600080516020611c2c833981519152602090815260408083206001600160a01b0385168085529252808320805460ff1916600117905551339285917f2f8788117e7eff1d82e926ec794901d17c78024a50270940304540a733656f0d9190a460008281527f4f4f658137f4e10317e1a22624c2b114af7563a20fb2e3444ae2ac2342d457d1602052604090206104b59082610d67565b505b5050565b60008080600080516020611c0c8339815191529050600084511161053a5760405162461bcd60e51b815260206004820152602b60248201527f4c69624469616d6f6e644375743a204e6f2073656c6563746f727320696e206660448201526a1858d95d081d1bc818dd5d60aa1b60648201526084015b60405180910390fd5b600085600281111561054e5761054e610e32565b036106bc5761057586604051806060016040528060248152602001611c4c60249139610d83565b60005b84518110156106b657600085828151811061059557610595610e1c565b6020908102919091018101516001600160e01b03198116600090815291859052604090912054909150606081901c156106365760405162461bcd60e51b815260206004820152603560248201527f4c69624469616d6f6e644375743a2043616e2774206164642066756e6374696f60448201527f6e207468617420616c72656164792065786973747300000000000000000000006064820152608401610531565b6001600160e01b031980831660008181526020879052604090206001600160601b031960608d901b168e17905560e060058e901b811692831c199c909c1690821c179a81900361069a5760038c901c600090815260018601602052604081209b909b555b8b6106a481610fb1565b9c505060019093019250610578915050565b50610c55565b60018560028111156106d0576106d0610e32565b036108cc576106f786604051806060016040528060288152602001611cd860289139610d83565b60005b84518110156106b657600085828151811061071757610717610e1c565b6020908102919091018101516001600160e01b03198116600090815291859052604090912054909150606081901c3081036107ac5760405162461bcd60e51b815260206004820152602f60248201527f4c69624469616d6f6e644375743a2043616e2774207265706c61636520696d6d60448201526e3aba30b1363290333ab731ba34b7b760891b6064820152608401610531565b896001600160a01b0316816001600160a01b0316036108215760405162461bcd60e51b81526020600482015260386024820152600080516020611bec83398151915260448201527f6374696f6e20776974682073616d652066756e6374696f6e00000000000000006064820152608401610531565b6001600160a01b03811661088b5760405162461bcd60e51b81526020600482015260386024820152600080516020611bec83398151915260448201527f6374696f6e207468617420646f65736e277420657869737400000000000000006064820152608401610531565b506001600160e01b031990911660009081526020849052604090206001600160601b03919091166001600160601b031960608a901b161790556001016106fa565b60028560028111156108e0576108e0610e32565b03610bfd576001600160a01b038616156109625760405162461bcd60e51b815260206004820152603660248201527f4c69624469616d6f6e644375743a2052656d6f7665206661636574206164647260448201527f657373206d7573742062652061646472657373283029000000000000000000006064820152608401610531565b600388901c6007891660005b8651811015610bdd5760008a90036109aa578261098a81610fca565b60008181526001870160205260409020549b509350600792506109b89050565b816109b481610fca565b9250505b6000806000808a85815181106109d0576109d0610e1c565b6020908102919091018101516001600160e01b031981166000908152918a9052604090912054909150606081901c610a705760405162461bcd60e51b815260206004820152603760248201527f4c69624469616d6f6e644375743a2043616e27742072656d6f76652066756e6360448201527f74696f6e207468617420646f65736e27742065786973740000000000000000006064820152608401610531565b30606082901c03610ada5760405162461bcd60e51b815260206004820152602e60248201527f4c69624469616d6f6e644375743a2043616e27742072656d6f766520696d6d7560448201526d3a30b1363290333ab731ba34b7b760911b6064820152608401610531565b600587901b8f901b94506001600160e01b031980861690831614610b2b576001600160e01b03198516600090815260208a90526040902080546001600160601b0319166001600160601b0383161790555b6001600160e01b031991909116600090815260208990526040812055600381901c611fff16925060051b60e0169050858214610b90576000828152600188016020526040902080546001600160e01b031980841c19909116908516831c179055610bb4565b80836001600160e01b031916901c816001600160e01b031960001b901c198e16179c505b84600003610bd257600086815260018801602052604081208190559c505b50505060010161096e565b5080610bea836008610fe1565b610bf49190610ff8565b99505050610c55565b60405162461bcd60e51b815260206004820152602760248201527f4c69624469616d6f6e644375743a20496e636f727265637420466163657443756044820152663a20b1ba34b7b760c91b6064820152608401610531565b50959694955050505050565b6001600160a01b038216610c73575050565b610c9582604051806060016040528060288152602001611c7060289139610d83565b600080836001600160a01b031683604051610cb0919061100b565b600060405180830381855af49150503d8060008114610ceb576040519150601f19603f3d011682016040523d82523d6000602084013e610cf0565b606091505b509150915081610d2757805115610d0a5780518082602001fd5b838360405163192105d760e01b8152600401610531929190611027565b50505050565b6000828152600080516020611c2c833981519152602090815260408083206001600160a01b038516845290915290205460ff165b92915050565b6000610d7c836001600160a01b038416610da4565b9392505050565b813b8181610d275760405162461bcd60e51b81526004016105319190611053565b6000818152600183016020526040812054610deb57508154600181810184556000848152602080822090930184905584548482528286019093526040902091909155610d61565b506000610d61565b600060208284031215610e0557600080fd5b81516001600160a01b0381168114610d7c57600080fd5b634e487b7160e01b600052603260045260246000fd5b634e487b7160e01b600052602160045260246000fd5b60005b83811015610e63578181015183820152602001610e4b565b50506000910152565b60008151808452610e84816020860160208601610e48565b601f01601f19169290920160200192915050565b60006060808301606084528087518083526080925060808601915060808160051b8701016020808b0160005b84811015610f6b57898403607f19018652815180516001600160a01b03168552838101518986019060038110610f0a57634e487b7160e01b600052602160045260246000fd5b868601526040918201519186018a905281519081905290840190600090898701905b80831015610f565783516001600160e01b0319168252928601926001929092019190860190610f2c565b50978501979550505090820190600101610ec4565b50506001600160a01b038a16908801528681036040880152610f8d8189610e6c565b9a9950505050505050505050565b634e487b7160e01b600052601160045260246000fd5b600060018201610fc357610fc3610f9b565b5060010190565b600081610fd957610fd9610f9b565b506000190190565b8082028115828204841417610d6157610d61610f9b565b80820180821115610d6157610d61610f9b565b6000825161101d818460208701610e48565b9190910192915050565b6001600160a01b038316815260406020820181905260009061104b90830184610e6c565b949350505050565b602081526000610d7c6020830184610e6c565b610b77806110756000396000f3fe6080604052600436106100955760003560e01c806391d148541161005957806391d1485414610234578063a217fddf14610264578063ca15c87314610279578063d547741f14610299578063fa2edf10146102b95761009c565b8063248a9ca3146101555780632f2ff15d1461018857806336568abe146101a857806359fe7279146101c85780639010d07c146101fc5761009c565b3661009c57005b600080356001600160e01b03191681527fc8fcad8db84d3cc18b4c41d551ea0ee66dd599cde068d998e57d5e09332c131c6020819052604090912054819060601c8061012f5760405162461bcd60e51b815260206004820181905260248201527f4469616d6f6e643a2046756e6374696f6e20646f6573206e6f7420657869737460448201526064015b60405180910390fd5b3660008037600080366000845af43d6000803e80801561014e573d6000f35b3d6000fd5b005b34801561016157600080fd5b50610175610170366004610912565b6102ed565b6040519081526020015b60405180910390f35b34801561019457600080fd5b506101536101a336600461092b565b61030f565b3480156101b457600080fd5b506101536101c336600461092b565b610331565b3480156101d457600080fd5b506101757f1959792afc6b020af87e178d7b19fcc140aca47290ef021bbdb58aa0b70c0b9f81565b34801561020857600080fd5b5061021c610217366004610967565b6103af565b6040516001600160a01b03909116815260200161017f565b34801561024057600080fd5b5061025461024f36600461092b565b6103dd565b604051901515815260200161017f565b34801561027057600080fd5b50610175600081565b34801561028557600080fd5b50610175610294366004610912565b610415565b3480156102a557600080fd5b506101536102b436600461092b565b610439565b3480156102c557600080fd5b506101757f8a43fb683ea3ec35449b33dd7e81508331a13bd722eaa8ce13ba29cc60084d5681565b6000908152600080516020610b02833981519152602052604090206001015490565b610318826102ed565b6103228133610456565b61032c83836104ba565b505050565b6001600160a01b03811633146103a15760405162461bcd60e51b815260206004820152602f60248201527f416363657373436f6e74726f6c3a2063616e206f6e6c792072656e6f756e636560448201526e103937b632b9903337b91039b2b63360891b6064820152608401610126565b6103ab8282610551565b5050565b6000828152600080516020610b22833981519152602052604081206103d490836105e6565b90505b92915050565b6000918252600080516020610b02833981519152602090815260408084206001600160a01b0393909316845291905290205460ff1690565b6000818152600080516020610b22833981519152602052604081206103d7906105f2565b610442826102ed565b61044c8133610456565b61032c8383610551565b61046082826103dd565b6103ab57610478816001600160a01b031660146105fc565b6104838360206105fc565b6040516020016104949291906109ad565b60408051601f198184030181529082905262461bcd60e51b825261012691600401610a22565b6104c482826103dd565b6103ab576000828152600080516020610b02833981519152602090815260408083206001600160a01b0385168085529252808320805460ff1916600117905551339285917f2f8788117e7eff1d82e926ec794901d17c78024a50270940304540a733656f0d9190a46000828152600080516020610b228339815191526020526040902061032c908261077c565b61055b82826103dd565b156103ab576000828152600080516020610b02833981519152602090815260408083206001600160a01b0385168085529252808320805460ff1916905551339285917ff6391f5c32d9c69d2a47ea670b442974b53935d1edc7fd64eb21e047a839171b9190a46000828152600080516020610b228339815191526020526040902061032c9082610791565b60006103d483836107a6565b60006103d7825490565b606082600061060c846002610a6b565b610617906002610a82565b67ffffffffffffffff81111561062f5761062f610a95565b6040519080825280601f01601f191660200182016040528015610659576020820181803683370190505b509050600360fc1b8160008151811061067457610674610aab565b60200101906001600160f81b031916908160001a905350600f60fb1b816001815181106106a3576106a3610aab565b60200101906001600160f81b031916908160001a90535060006106c7856002610a6b565b6106d2906001610a82565b90505b600181111561074a576f181899199a1a9b1b9c1cb0b131b232b360811b83600f166010811061070657610706610aab565b1a60f81b82828151811061071c5761071c610aab565b60200101906001600160f81b031916908160001a90535060049290921c9161074381610ac1565b90506106d5565b5081156107745760405163e22e27eb60e01b81526004810186905260248101859052604401610126565b949350505050565b60006103d4836001600160a01b0384166107d0565b60006103d4836001600160a01b03841661081f565b60008260000182815481106107bd576107bd610aab565b9060005260206000200154905092915050565b6000818152600183016020526040812054610817575081546001818101845560008481526020808220909301849055845484825282860190935260409020919091556103d7565b5060006103d7565b60008181526001830160205260408120548015610908576000610843600183610ad8565b855490915060009061085790600190610ad8565b90508082146108bc57600086600001828154811061087757610877610aab565b906000526020600020015490508087600001848154811061089a5761089a610aab565b6000918252602080832090910192909255918252600188019052604090208390555b85548690806108cd576108cd610aeb565b6001900381819060005260206000200160009055905585600101600086815260200190815260200160002060009055600193505050506103d7565b60009150506103d7565b60006020828403121561092457600080fd5b5035919050565b6000806040838503121561093e57600080fd5b8235915060208301356001600160a01b038116811461095c57600080fd5b809150509250929050565b6000806040838503121561097a57600080fd5b50508035926020909101359150565b60005b838110156109a457818101518382015260200161098c565b50506000910152565b7f416363657373436f6e74726f6c3a206163636f756e74200000000000000000008152600083516109e5816017850160208801610989565b7001034b99036b4b9b9b4b733903937b6329607d1b6017918401918201528351610a16816028840160208801610989565b01602801949350505050565b6020815260008251806020840152610a41816040850160208701610989565b601f01601f19169190910160400192915050565b634e487b7160e01b600052601160045260246000fd5b80820281158282048414176103d7576103d7610a55565b808201808211156103d7576103d7610a55565b634e487b7160e01b600052604160045260246000fd5b634e487b7160e01b600052603260045260246000fd5b600081610ad057610ad0610a55565b506000190190565b818103818111156103d7576103d7610a55565b634e487b7160e01b600052603160045260246000fdfe4f4f658137f4e10317e1a22624c2b114af7563a20fb2e3444ae2ac2342d457d04f4f658137f4e10317e1a22624c2b114af7563a20fb2e3444ae2ac2342d457d1a2646970667358221220be8882929c404ed9e3a7560343b6decd45a72507073b18a24db50006cb76ddd664736f6c634300081900334c69624469616d6f6e644375743a2043616e2774207265706c6163652066756ec8fcad8db84d3cc18b4c41d551ea0ee66dd599cde068d998e57d5e09332c131c4f4f658137f4e10317e1a22624c2b114af7563a20fb2e3444ae2ac2342d457d04c69624469616d6f6e644375743a2041646420666163657420686173206e6f20636f64654c69624469616d6f6e644375743a205f696e6974206164647265737320686173206e6f20636f64651959792afc6b020af87e178d7b19fcc140aca47290ef021bbdb58aa0b70c0b9f8a43fb683ea3ec35449b33dd7e81508331a13bd722eaa8ce13ba29cc60084d564c69624469616d6f6e644375743a205265706c61636520666163657420686173206e6f20636f6465",
  "devdoc": {
    "author": "Juan M. Sanchez M.",
    "errors": {
      "StringsInsufficientHexLength(uint256,uint256)": [
        {
          "details": "The `value` string doesn't fit in the specified `length`."
        }
      ]
    },
    "kind": "dev",
    "methods": {},
    "title": "RAIR ERC721 Factory",
    "version": 1
  },
  "userdoc": {
    "kind": "user",
    "methods": {},
    "notice": "Handles the deployment of ERC721 RAIR Tokens",
    "version": 1
  },
  "storageLayout": {
    "storage": [],
    "types": null
  }
}