{
  "address": "0x9bB24e68d952Ab872b0421297E0cda8D89B2390B",
  "abi": [
    {
      "inputs": [
        {
          "internalType": "uint256",
          "name": "numerator",
          "type": "uint256"
        },
        {
          "internalType": "uint256",
          "name": "denominator",
          "type": "uint256"
        }
      ],
      "name": "ERC2981InvalidDefaultRoyalty",
      "type": "error"
    },
    {
      "inputs": [
        {
          "internalType": "address",
          "name": "receiver",
          "type": "address"
        }
      ],
      "name": "ERC2981InvalidDefaultRoyaltyReceiver",
      "type": "error"
    },
    {
      "inputs": [
        {
          "internalType": "uint256",
          "name": "tokenId",
          "type": "uint256"
        },
        {
          "internalType": "uint256",
          "name": "numerator",
          "type": "uint256"
        },
        {
          "internalType": "uint256",
          "name": "denominator",
          "type": "uint256"
        }
      ],
      "name": "ERC2981InvalidTokenRoyalty",
      "type": "error"
    },
    {
      "inputs": [
        {
          "internalType": "uint256",
          "name": "tokenId",
          "type": "uint256"
        },
        {
          "internalType": "address",
          "name": "receiver",
          "type": "address"
        }
      ],
      "name": "ERC2981InvalidTokenRoyaltyReceiver",
      "type": "error"
    },
    {
      "inputs": [
        {
          "internalType": "uint256",
          "name": "value",
          "type": "uint256"
        },
        {
          "internalType": "uint256",
          "name": "length",
          "type": "uint256"
        }
      ],
      "name": "StringsInsufficientHexLength",
      "type": "error"
    },
    {
      "anonymous": false,
      "inputs": [
        {
          "indexed": true,
          "internalType": "bytes32",
          "name": "role",
          "type": "bytes32"
        },
        {
          "indexed": true,
          "internalType": "bytes32",
          "name": "previousAdminRole",
          "type": "bytes32"
        },
        {
          "indexed": true,
          "internalType": "bytes32",
          "name": "newAdminRole",
          "type": "bytes32"
        }
      ],
      "name": "RoleAdminChanged",
      "type": "event"
    },
    {
      "anonymous": false,
      "inputs": [
        {
          "indexed": true,
          "internalType": "bytes32",
          "name": "role",
          "type": "bytes32"
        },
        {
          "indexed": true,
          "internalType": "address",
          "name": "account",
          "type": "address"
        },
        {
          "indexed": true,
          "internalType": "address",
          "name": "sender",
          "type": "address"
        }
      ],
      "name": "RoleGranted",
      "type": "event"
    },
    {
      "anonymous": false,
      "inputs": [
        {
          "indexed": true,
          "internalType": "bytes32",
          "name": "role",
          "type": "bytes32"
        },
        {
          "indexed": true,
          "internalType": "address",
          "name": "account",
          "type": "address"
        },
        {
          "indexed": true,
          "internalType": "address",
          "name": "sender",
          "type": "address"
        }
      ],
      "name": "RoleRevoked",
      "type": "event"
    },
    {
      "inputs": [],
      "name": "CREATOR",
      "outputs": [
        {
          "internalType": "bytes32",
          "name": "",
          "type": "bytes32"
        }
      ],
      "stateMutability": "view",
      "type": "function"
    },
    {
      "inputs": [],
      "name": "MINTER",
      "outputs": [
        {
          "internalType": "bytes32",
          "name": "",
          "type": "bytes32"
        }
      ],
      "stateMutability": "view",
      "type": "function"
    },
    {
      "inputs": [],
      "name": "TRADER",
      "outputs": [
        {
          "internalType": "bytes32",
          "name": "",
          "type": "bytes32"
        }
      ],
      "stateMutability": "view",
      "type": "function"
    },
    {
      "inputs": [
        {
          "internalType": "bytes32",
          "name": "role",
          "type": "bytes32"
        }
      ],
      "name": "getRoleAdmin",
      "outputs": [
        {
          "internalType": "bytes32",
          "name": "",
          "type": "bytes32"
        }
      ],
      "stateMutability": "view",
      "type": "function"
    },
    {
      "inputs": [
        {
          "internalType": "bytes32",
          "name": "role",
          "type": "bytes32"
        },
        {
          "internalType": "uint256",
          "name": "index",
          "type": "uint256"
        }
      ],
      "name": "getRoleMember",
      "outputs": [
        {
          "internalType": "address",
          "name": "",
          "type": "address"
        }
      ],
      "stateMutability": "view",
      "type": "function"
    },
    {
      "inputs": [
        {
          "internalType": "bytes32",
          "name": "role",
          "type": "bytes32"
        }
      ],
      "name": "getRoleMemberCount",
      "outputs": [
        {
          "internalType": "uint256",
          "name": "",
          "type": "uint256"
        }
      ],
      "stateMutability": "view",
      "type": "function"
    },
    {
      "inputs": [
        {
          "internalType": "bytes32",
          "name": "role",
          "type": "bytes32"
        },
        {
          "internalType": "address",
          "name": "account",
          "type": "address"
        }
      ],
      "name": "grantRole",
      "outputs": [],
      "stateMutability": "nonpayable",
      "type": "function"
    },
    {
      "inputs": [
        {
          "internalType": "bytes32",
          "name": "role",
          "type": "bytes32"
        },
        {
          "internalType": "address",
          "name": "account",
          "type": "address"
        }
      ],
      "name": "hasRole",
      "outputs": [
        {
          "internalType": "bool",
          "name": "",
          "type": "bool"
        }
      ],
      "stateMutability": "view",
      "type": "function"
    },
    {
      "inputs": [
        {
          "internalType": "bytes32",
          "name": "role",
          "type": "bytes32"
        },
        {
          "internalType": "address",
          "name": "account",
          "type": "address"
        }
      ],
      "name": "renounceRole",
      "outputs": [],
      "stateMutability": "nonpayable",
      "type": "function"
    },
    {
      "inputs": [
        {
          "internalType": "bytes32",
          "name": "role",
          "type": "bytes32"
        },
        {
          "internalType": "address",
          "name": "account",
          "type": "address"
        }
      ],
      "name": "revokeRole",
      "outputs": [],
      "stateMutability": "nonpayable",
      "type": "function"
    },
    {
      "inputs": [],
      "name": "royaltyFee",
      "outputs": [
        {
          "internalType": "uint16",
          "name": "",
          "type": "uint16"
        }
      ],
      "stateMutability": "view",
      "type": "function"
    },
    {
      "inputs": [
        {
          "internalType": "uint256",
          "name": "tokenId",
          "type": "uint256"
        },
        {
          "internalType": "uint256",
          "name": "salePrice",
          "type": "uint256"
        }
      ],
      "name": "royaltyInfo",
      "outputs": [
        {
          "internalType": "address",
          "name": "",
          "type": "address"
        },
        {
          "internalType": "uint256",
          "name": "",
          "type": "uint256"
        }
      ],
      "stateMutability": "view",
      "type": "function"
    },
    {
      "inputs": [
        {
          "internalType": "bytes4",
          "name": "interfaceId",
          "type": "bytes4"
        }
      ],
      "name": "supportsInterface",
      "outputs": [
        {
          "internalType": "bool",
          "name": "",
          "type": "bool"
        }
      ],
      "stateMutability": "view",
      "type": "function"
    }
  ],
  "transactionHash": "0x5efa5a343af85defbbdb7eed727b4c797d16146c3fb2df7ce62e88ec90f4f61d",
  "args": [],
  "numDeployments": 1,
  "solcInputHash": "ba288d747cc1aa4c71ee545a11fd6010",
  "bytecode": "0x6080604052348015600f57600080fd5b50610c218061001f6000396000f3fe608060405234801561001057600080fd5b50600436106100cf5760003560e01c80639010d07c1161008c578063ca15c87311610066578063ca15c8731461021c578063d547741f1461022f578063e4fbb60914610242578063fe6d81241461026957600080fd5b80639010d07c1461019e57806391d14854146101c9578063b8997a97146101dc57600080fd5b806301ffc9a7146100d4578063175c4ef8146100fc578063248a9ca3146101315780632a55205a146101445780632f2ff15d1461017657806336568abe1461018b575b600080fd5b6100e76100e2366004610970565b610290565b60405190151581526020015b60405180910390f35b6101237f872340a532bdd7bb02bea115c1b0f1ba87eac982f5b79b51ac189ffaac1b6fce81565b6040519081526020016100f3565b61012361013f36600461099a565b6102c7565b6101576101523660046109b3565b6102e9565b604080516001600160a01b0390931683526020830191909152016100f3565b6101896101843660046109d5565b61036a565b005b6101896101993660046109d5565b61038c565b6101b16101ac3660046109b3565b61040f565b6040516001600160a01b0390911681526020016100f3565b6100e76101d73660046109d5565b61043b565b7f13fbb056f2602120441ced10c19d8151fd41fd4b17a6646b53bc0f944eb07a4454600160a01b900461ffff1660405161ffff90911681526020016100f3565b61012361022a36600461099a565b610473565b61018961023d3660046109d5565b610497565b6101237f3c2519c4487d47714872f92cf90a50c25f5deaec2789dc2a497b1272df611db681565b6101237ff0887ba65ee2024ea881d91b74c2450ef19e1557f03bed3ea9f16b037cbe2dc981565b60006001600160e01b0319821663152a902d60e11b14806102c157506301ffc9a760e01b6001600160e01b03198316145b92915050565b6000908152600080516020610bac833981519152602052604090206001015490565b6000806103177f3c2519c4487d47714872f92cf90a50c25f5deaec2789dc2a497b1272df611db6600061040f565b620186a07f13fbb056f2602120441ced10c19d8151fd41fd4b17a6646b53bc0f944eb07a39600b015461035590600160a01b900461ffff1686610a27565b61035f9190610a3e565b915091509250929050565b610373826102c7565b61037d81336104b4565b6103878383610518565b505050565b6001600160a01b03811633146104015760405162461bcd60e51b815260206004820152602f60248201527f416363657373436f6e74726f6c3a2063616e206f6e6c792072656e6f756e636560448201526e103937b632b9903337b91039b2b63360891b60648201526084015b60405180910390fd5b61040b82826105af565b5050565b6000828152600080516020610bcc833981519152602052604081206104349083610644565b9392505050565b6000918252600080516020610bac833981519152602090815260408084206001600160a01b0393909316845291905290205460ff1690565b6000818152600080516020610bcc833981519152602052604081206102c190610650565b6104a0826102c7565b6104aa81336104b4565b61038783836105af565b6104be828261043b565b61040b576104d6816001600160a01b0316601461065a565b6104e183602061065a565b6040516020016104f2929190610a84565b60408051601f198184030181529082905262461bcd60e51b82526103f891600401610af9565b610522828261043b565b61040b576000828152600080516020610bac833981519152602090815260408083206001600160a01b0385168085529252808320805460ff1916600117905551339285917f2f8788117e7eff1d82e926ec794901d17c78024a50270940304540a733656f0d9190a46000828152600080516020610bcc8339815191526020526040902061038790826107da565b6105b9828261043b565b1561040b576000828152600080516020610bac833981519152602090815260408083206001600160a01b0385168085529252808320805460ff1916905551339285917ff6391f5c32d9c69d2a47ea670b442974b53935d1edc7fd64eb21e047a839171b9190a46000828152600080516020610bcc8339815191526020526040902061038790826107ef565b60006104348383610804565b60006102c1825490565b606082600061066a846002610a27565b610675906002610b2c565b67ffffffffffffffff81111561068d5761068d610b3f565b6040519080825280601f01601f1916602001820160405280156106b7576020820181803683370190505b509050600360fc1b816000815181106106d2576106d2610b55565b60200101906001600160f81b031916908160001a905350600f60fb1b8160018151811061070157610701610b55565b60200101906001600160f81b031916908160001a9053506000610725856002610a27565b610730906001610b2c565b90505b60018111156107a8576f181899199a1a9b1b9c1cb0b131b232b360811b83600f166010811061076457610764610b55565b1a60f81b82828151811061077a5761077a610b55565b60200101906001600160f81b031916908160001a90535060049290921c916107a181610b6b565b9050610733565b5081156107d25760405163e22e27eb60e01b815260048101869052602481018590526044016103f8565b949350505050565b6000610434836001600160a01b03841661082e565b6000610434836001600160a01b03841661087d565b600082600001828154811061081b5761081b610b55565b9060005260206000200154905092915050565b6000818152600183016020526040812054610875575081546001818101845560008481526020808220909301849055845484825282860190935260409020919091556102c1565b5060006102c1565b600081815260018301602052604081205480156109665760006108a1600183610b82565b85549091506000906108b590600190610b82565b905080821461091a5760008660000182815481106108d5576108d5610b55565b90600052602060002001549050808760000184815481106108f8576108f8610b55565b6000918252602080832090910192909255918252600188019052604090208390555b855486908061092b5761092b610b95565b6001900381819060005260206000200160009055905585600101600086815260200190815260200160002060009055600193505050506102c1565b60009150506102c1565b60006020828403121561098257600080fd5b81356001600160e01b03198116811461043457600080fd5b6000602082840312156109ac57600080fd5b5035919050565b600080604083850312156109c657600080fd5b50508035926020909101359150565b600080604083850312156109e857600080fd5b8235915060208301356001600160a01b0381168114610a0657600080fd5b809150509250929050565b634e487b7160e01b600052601160045260246000fd5b80820281158282048414176102c1576102c1610a11565b600082610a5b57634e487b7160e01b600052601260045260246000fd5b500490565b60005b83811015610a7b578181015183820152602001610a63565b50506000910152565b7f416363657373436f6e74726f6c3a206163636f756e7420000000000000000000815260008351610abc816017850160208801610a60565b7001034b99036b4b9b9b4b733903937b6329607d1b6017918401918201528351610aed816028840160208801610a60565b01602801949350505050565b6020815260008251806020840152610b18816040850160208701610a60565b601f01601f19169190910160400192915050565b808201808211156102c1576102c1610a11565b634e487b7160e01b600052604160045260246000fd5b634e487b7160e01b600052603260045260246000fd5b600081610b7a57610b7a610a11565b506000190190565b818103818111156102c1576102c1610a11565b634e487b7160e01b600052603160045260246000fdfe4f4f658137f4e10317e1a22624c2b114af7563a20fb2e3444ae2ac2342d457d04f4f658137f4e10317e1a22624c2b114af7563a20fb2e3444ae2ac2342d457d1a26469706673582212200002b084c71eff6aa93b19a16482440bf954ef4575fbc13dab2bacfeadabe4c664736f6c63430008190033",
  "devdoc": {
    "author": "Juan M. Sanchez M.",
    "errors": {
      "ERC2981InvalidDefaultRoyalty(uint256,uint256)": [
        {
          "details": "The default royalty set is invalid (eg. (numerator / denominator) >= 1)."
        }
      ],
      "ERC2981InvalidDefaultRoyaltyReceiver(address)": [
        {
          "details": "The default royalty receiver is invalid."
        }
      ],
      "ERC2981InvalidTokenRoyalty(uint256,uint256,uint256)": [
        {
          "details": "The royalty set for an specific `tokenId` is invalid (eg. (numerator / denominator) >= 1)."
        }
      ],
      "ERC2981InvalidTokenRoyaltyReceiver(uint256,address)": [
        {
          "details": "The royalty receiver for `tokenId` is invalid."
        }
      ],
      "StringsInsufficientHexLength(uint256,uint256)": [
        {
          "details": "The `value` string doesn't fit in the specified `length`."
        }
      ]
    },
    "kind": "dev",
    "methods": {
      "royaltyInfo(uint256,uint256)": {
        "params": {
          "salePrice": "the sale price of the NFT asset specified by _tokenId",
          "tokenId": "the NFT asset queried for royalty information"
        },
        "returns": {
          "_0": "address\t\taddress of who should be sent the royalty payment",
          "_1": "uint256\t\tthe royalty payment amount for _salePrice sale price"
        }
      },
      "supportsInterface(bytes4)": {
        "details": "See {IERC165-supportsInterface}."
      }
    },
    "title": "ERC2981 facet for RAIR diamond contracts",
    "version": 1
  },
  "userdoc": {
    "kind": "user",
    "methods": {
      "royaltyInfo(uint256,uint256)": {
        "notice": "Returns the fee for the NFT sale"
      }
    },
    "notice": "Functions needed for royalty standard",
    "version": 1
  },
  "storageLayout": {
    "storage": [
      {
        "astId": 1731,
        "contract": "contracts/tokens/RAIR-721/Facets/RoyaltiesFacet.sol:RAIRRoyaltiesFacet",
        "label": "_defaultRoyaltyInfo",
        "offset": 0,
        "slot": "0",
        "type": "t_struct(RoyaltyInfo)1728_storage"
      },
      {
        "astId": 1736,
        "contract": "contracts/tokens/RAIR-721/Facets/RoyaltiesFacet.sol:RAIRRoyaltiesFacet",
        "label": "_tokenRoyaltyInfo",
        "offset": 0,
        "slot": "1",
        "type": "t_mapping(t_uint256,t_struct(RoyaltyInfo)1728_storage)"
      }
    ],
    "types": {
      "t_address": {
        "encoding": "inplace",
        "label": "address",
        "numberOfBytes": "20"
      },
      "t_mapping(t_uint256,t_struct(RoyaltyInfo)1728_storage)": {
        "encoding": "mapping",
        "key": "t_uint256",
        "label": "mapping(uint256 => struct ERC2981.RoyaltyInfo)",
        "numberOfBytes": "32",
        "value": "t_struct(RoyaltyInfo)1728_storage"
      },
      "t_struct(RoyaltyInfo)1728_storage": {
        "encoding": "inplace",
        "label": "struct ERC2981.RoyaltyInfo",
        "members": [
          {
            "astId": 1725,
            "contract": "contracts/tokens/RAIR-721/Facets/RoyaltiesFacet.sol:RAIRRoyaltiesFacet",
            "label": "receiver",
            "offset": 0,
            "slot": "0",
            "type": "t_address"
          },
          {
            "astId": 1727,
            "contract": "contracts/tokens/RAIR-721/Facets/RoyaltiesFacet.sol:RAIRRoyaltiesFacet",
            "label": "royaltyFraction",
            "offset": 20,
            "slot": "0",
            "type": "t_uint96"
          }
        ],
        "numberOfBytes": "32"
      },
      "t_uint256": {
        "encoding": "inplace",
        "label": "uint256",
        "numberOfBytes": "32"
      },
      "t_uint96": {
        "encoding": "inplace",
        "label": "uint96",
        "numberOfBytes": "12"
      }
    }
  }
}