{
  "address": "0x51eA5316F2A9062e1cAB3c498cCA2924A7AB03b1",
  "abi": [
    {
      "inputs": [
        {
          "internalType": "uint256",
          "name": "value",
          "type": "uint256"
        },
        {
          "internalType": "uint256",
          "name": "length",
          "type": "uint256"
        }
      ],
      "name": "StringsInsufficientHexLength",
      "type": "error"
    },
    {
      "anonymous": false,
      "inputs": [
        {
          "indexed": false,
          "internalType": "address",
          "name": "contractAddress",
          "type": "address"
        },
        {
          "indexed": false,
          "internalType": "uint256",
          "name": "priceToDeploy",
          "type": "uint256"
        },
        {
          "indexed": false,
          "internalType": "address",
          "name": "responsible",
          "type": "address"
        }
      ],
      "name": "ChangedToken",
      "type": "event"
    },
    {
      "anonymous": false,
      "inputs": [
        {
          "indexed": true,
          "internalType": "bytes32",
          "name": "role",
          "type": "bytes32"
        },
        {
          "indexed": true,
          "internalType": "bytes32",
          "name": "previousAdminRole",
          "type": "bytes32"
        },
        {
          "indexed": true,
          "internalType": "bytes32",
          "name": "newAdminRole",
          "type": "bytes32"
        }
      ],
      "name": "RoleAdminChanged",
      "type": "event"
    },
    {
      "anonymous": false,
      "inputs": [
        {
          "indexed": true,
          "internalType": "bytes32",
          "name": "role",
          "type": "bytes32"
        },
        {
          "indexed": true,
          "internalType": "address",
          "name": "account",
          "type": "address"
        },
        {
          "indexed": true,
          "internalType": "address",
          "name": "sender",
          "type": "address"
        }
      ],
      "name": "RoleGranted",
      "type": "event"
    },
    {
      "anonymous": false,
      "inputs": [
        {
          "indexed": true,
          "internalType": "bytes32",
          "name": "role",
          "type": "bytes32"
        },
        {
          "indexed": true,
          "internalType": "address",
          "name": "account",
          "type": "address"
        },
        {
          "indexed": true,
          "internalType": "address",
          "name": "sender",
          "type": "address"
        }
      ],
      "name": "RoleRevoked",
      "type": "event"
    },
    {
      "anonymous": false,
      "inputs": [
        {
          "indexed": false,
          "internalType": "address",
          "name": "recipient",
          "type": "address"
        },
        {
          "indexed": false,
          "internalType": "address",
          "name": "token",
          "type": "address"
        },
        {
          "indexed": false,
          "internalType": "uint256",
          "name": "amount",
          "type": "uint256"
        }
      ],
      "name": "WithdrawTokens",
      "type": "event"
    },
    {
      "inputs": [],
      "name": "ADMINISTRATOR",
      "outputs": [
        {
          "internalType": "bytes32",
          "name": "",
          "type": "bytes32"
        }
      ],
      "stateMutability": "view",
      "type": "function"
    },
    {
      "inputs": [],
      "name": "DEFAULT_ADMIN_ROLE",
      "outputs": [
        {
          "internalType": "bytes32",
          "name": "",
          "type": "bytes32"
        }
      ],
      "stateMutability": "view",
      "type": "function"
    },
    {
      "inputs": [],
      "name": "WITHDRAW_SIGNER",
      "outputs": [
        {
          "internalType": "bytes32",
          "name": "",
          "type": "bytes32"
        }
      ],
      "stateMutability": "view",
      "type": "function"
    },
    {
      "inputs": [
        {
          "internalType": "address",
          "name": "_token",
          "type": "address"
        },
        {
          "internalType": "uint256",
          "name": "_priceToDeploy",
          "type": "uint256"
        }
      ],
      "name": "changeToken",
      "outputs": [],
      "stateMutability": "nonpayable",
      "type": "function"
    },
    {
      "inputs": [],
      "name": "getDeploymentCost",
      "outputs": [
        {
          "internalType": "uint256",
          "name": "price",
          "type": "uint256"
        }
      ],
      "stateMutability": "view",
      "type": "function"
    },
    {
      "inputs": [
        {
          "internalType": "bytes32",
          "name": "role",
          "type": "bytes32"
        }
      ],
      "name": "getRoleAdmin",
      "outputs": [
        {
          "internalType": "bytes32",
          "name": "",
          "type": "bytes32"
        }
      ],
      "stateMutability": "view",
      "type": "function"
    },
    {
      "inputs": [
        {
          "internalType": "bytes32",
          "name": "role",
          "type": "bytes32"
        },
        {
          "internalType": "uint256",
          "name": "index",
          "type": "uint256"
        }
      ],
      "name": "getRoleMember",
      "outputs": [
        {
          "internalType": "address",
          "name": "",
          "type": "address"
        }
      ],
      "stateMutability": "view",
      "type": "function"
    },
    {
      "inputs": [
        {
          "internalType": "bytes32",
          "name": "role",
          "type": "bytes32"
        }
      ],
      "name": "getRoleMemberCount",
      "outputs": [
        {
          "internalType": "uint256",
          "name": "",
          "type": "uint256"
        }
      ],
      "stateMutability": "view",
      "type": "function"
    },
    {
      "inputs": [
        {
          "internalType": "bytes32",
          "name": "role",
          "type": "bytes32"
        },
        {
          "internalType": "address",
          "name": "account",
          "type": "address"
        }
      ],
      "name": "grantRole",
      "outputs": [],
      "stateMutability": "nonpayable",
      "type": "function"
    },
    {
      "inputs": [
        {
          "internalType": "bytes32",
          "name": "role",
          "type": "bytes32"
        },
        {
          "internalType": "address",
          "name": "account",
          "type": "address"
        }
      ],
      "name": "hasRole",
      "outputs": [
        {
          "internalType": "bool",
          "name": "",
          "type": "bool"
        }
      ],
      "stateMutability": "view",
      "type": "function"
    },
    {
      "inputs": [
        {
          "internalType": "bytes32",
          "name": "role",
          "type": "bytes32"
        },
        {
          "internalType": "address",
          "name": "account",
          "type": "address"
        }
      ],
      "name": "renounceRole",
      "outputs": [],
      "stateMutability": "nonpayable",
      "type": "function"
    },
    {
      "inputs": [
        {
          "internalType": "bytes32",
          "name": "role",
          "type": "bytes32"
        },
        {
          "internalType": "address",
          "name": "account",
          "type": "address"
        }
      ],
      "name": "revokeRole",
      "outputs": [],
      "stateMutability": "nonpayable",
      "type": "function"
    },
    {
      "inputs": [
        {
          "internalType": "uint256",
          "name": "amount",
          "type": "uint256"
        }
      ],
      "name": "withdrawTokens",
      "outputs": [],
      "stateMutability": "nonpayable",
      "type": "function"
    }
  ],
  "transactionHash": "0x192cf0a65d30b2ab76ec2faf7fb8947a0ea54b05cfae2b0f3a094b6f9681d2a9",
  "args": [],
  "numDeployments": 1,
  "solcInputHash": "ba288d747cc1aa4c71ee545a11fd6010",
  "bytecode": "0x6080604052348015600f57600080fd5b50610d988061001f6000396000f3fe608060405234801561001057600080fd5b50600436106100cf5760003560e01c806391d148541161008c578063c390711211610066578063c390711214610210578063ca15c87314610223578063d547741f14610236578063fa2edf101461024957600080fd5b806391d148541461018757806397988b33146101aa578063a217fddf1461020857600080fd5b8063248a9ca3146100d45780632f2ff15d146100fa578063315a095d1461010f57806336568abe1461012257806359fe7279146101355780639010d07c1461015c575b600080fd5b6100e76100e2366004610ad4565b610270565b6040519081526020015b60405180910390f35b61010d610108366004610b09565b610292565b005b61010d61011d366004610ad4565b6102b4565b61010d610130366004610b09565b6103ee565b6100e77f1959792afc6b020af87e178d7b19fcc140aca47290ef021bbdb58aa0b70c0b9f81565b61016f61016a366004610b35565b610471565b6040516001600160a01b0390911681526020016100f1565b61019a610195366004610b09565b61049f565b60405190151581526020016100f1565b7f3178d75a97455c722bbe6e3619364b9b8f446a5900d6fbcc8d92ea722276883e546001600160a01b031660009081527f3178d75a97455c722bbe6e3619364b9b8f446a5900d6fbcc8d92ea722276883d60205260409020546100e7565b6100e7600081565b61010d61021e366004610b57565b6104d7565b6100e7610231366004610ad4565b6105d7565b61010d610244366004610b09565b6105fb565b6100e77f8a43fb683ea3ec35449b33dd7e81508331a13bd722eaa8ce13ba29cc60084d5681565b6000908152600080516020610d23833981519152602052604090206001015490565b61029b82610270565b6102a58133610618565b6102af838361067c565b505050565b7f1959792afc6b020af87e178d7b19fcc140aca47290ef021bbdb58aa0b70c0b9f6102df8133610618565b7f3178d75a97455c722bbe6e3619364b9b8f446a5900d6fbcc8d92ea722276883e546040805163a9059cbb60e01b81523360048201526024810185905290517f3178d75a97455c722bbe6e3619364b9b8f446a5900d6fbcc8d92ea722276883a926001600160a01b03169163a9059cbb91604480830192602092919082900301816000875af1158015610376573d6000803e3d6000fd5b505050506040513d601f19601f8201168201806040525081019061039a9190610b81565b506004810154604080513381526001600160a01b03909216602083015281018490527f70082d08c003c5341f2401bec1c2ae1dbcdc29ae17e9cc5633fa617caa8acd4c9060600160405180910390a1505050565b6001600160a01b03811633146104635760405162461bcd60e51b815260206004820152602f60248201527f416363657373436f6e74726f6c3a2063616e206f6e6c792072656e6f756e636560448201526e103937b632b9903337b91039b2b63360891b60648201526084015b60405180910390fd5b61046d8282610713565b5050565b6000828152600080516020610d438339815191526020526040812061049690836107a8565b90505b92915050565b6000918252600080516020610d23833981519152602090815260408084206001600160a01b0393909316845291905290205460ff1690565b7f1959792afc6b020af87e178d7b19fcc140aca47290ef021bbdb58aa0b70c0b9f6105028133610618565b7f3178d75a97455c722bbe6e3619364b9b8f446a5900d6fbcc8d92ea722276883e80546001600160a01b0385166001600160a01b0319909116811790915560008181527f3178d75a97455c722bbe6e3619364b9b8f446a5900d6fbcc8d92ea722276883d6020908152604091829020859055815192835282018490523382820152517f3178d75a97455c722bbe6e3619364b9b8f446a5900d6fbcc8d92ea722276883a917f5d1b0ed72a360e4efd28cfbe25bdff58ffbd7cec19f40742a73ad555c2dc9f41919081900360600190a150505050565b6000818152600080516020610d4383398151915260205260408120610499906107b4565b61060482610270565b61060e8133610618565b6102af8383610713565b610622828261049f565b61046d5761063a816001600160a01b031660146107be565b6106458360206107be565b604051602001610656929190610bce565b60408051601f198184030181529082905262461bcd60e51b825261045a91600401610c43565b610686828261049f565b61046d576000828152600080516020610d23833981519152602090815260408083206001600160a01b0385168085529252808320805460ff1916600117905551339285917f2f8788117e7eff1d82e926ec794901d17c78024a50270940304540a733656f0d9190a46000828152600080516020610d43833981519152602052604090206102af908261093e565b61071d828261049f565b1561046d576000828152600080516020610d23833981519152602090815260408083206001600160a01b0385168085529252808320805460ff1916905551339285917ff6391f5c32d9c69d2a47ea670b442974b53935d1edc7fd64eb21e047a839171b9190a46000828152600080516020610d43833981519152602052604090206102af9082610953565b60006104968383610968565b6000610499825490565b60608260006107ce846002610c8c565b6107d9906002610ca3565b67ffffffffffffffff8111156107f1576107f1610cb6565b6040519080825280601f01601f19166020018201604052801561081b576020820181803683370190505b509050600360fc1b8160008151811061083657610836610ccc565b60200101906001600160f81b031916908160001a905350600f60fb1b8160018151811061086557610865610ccc565b60200101906001600160f81b031916908160001a9053506000610889856002610c8c565b610894906001610ca3565b90505b600181111561090c576f181899199a1a9b1b9c1cb0b131b232b360811b83600f16601081106108c8576108c8610ccc565b1a60f81b8282815181106108de576108de610ccc565b60200101906001600160f81b031916908160001a90535060049290921c9161090581610ce2565b9050610897565b5081156109365760405163e22e27eb60e01b8152600481018690526024810185905260440161045a565b949350505050565b6000610496836001600160a01b038416610992565b6000610496836001600160a01b0384166109e1565b600082600001828154811061097f5761097f610ccc565b9060005260206000200154905092915050565b60008181526001830160205260408120546109d957508154600181810184556000848152602080822090930184905584548482528286019093526040902091909155610499565b506000610499565b60008181526001830160205260408120548015610aca576000610a05600183610cf9565b8554909150600090610a1990600190610cf9565b9050808214610a7e576000866000018281548110610a3957610a39610ccc565b9060005260206000200154905080876000018481548110610a5c57610a5c610ccc565b6000918252602080832090910192909255918252600188019052604090208390555b8554869080610a8f57610a8f610d0c565b600190038181906000526020600020016000905590558560010160008681526020019081526020016000206000905560019350505050610499565b6000915050610499565b600060208284031215610ae657600080fd5b5035919050565b80356001600160a01b0381168114610b0457600080fd5b919050565b60008060408385031215610b1c57600080fd5b82359150610b2c60208401610aed565b90509250929050565b60008060408385031215610b4857600080fd5b50508035926020909101359150565b60008060408385031215610b6a57600080fd5b610b7383610aed565b946020939093013593505050565b600060208284031215610b9357600080fd5b81518015158114610ba357600080fd5b9392505050565b60005b83811015610bc5578181015183820152602001610bad565b50506000910152565b7f416363657373436f6e74726f6c3a206163636f756e7420000000000000000000815260008351610c06816017850160208801610baa565b7001034b99036b4b9b9b4b733903937b6329607d1b6017918401918201528351610c37816028840160208801610baa565b01602801949350505050565b6020815260008251806020840152610c62816040850160208701610baa565b601f01601f19169190910160400192915050565b634e487b7160e01b600052601160045260246000fd5b808202811582820484141761049957610499610c76565b8082018082111561049957610499610c76565b634e487b7160e01b600052604160045260246000fd5b634e487b7160e01b600052603260045260246000fd5b600081610cf157610cf1610c76565b506000190190565b8181038181111561049957610499610c76565b634e487b7160e01b600052603160045260246000fdfe4f4f658137f4e10317e1a22624c2b114af7563a20fb2e3444ae2ac2342d457d04f4f658137f4e10317e1a22624c2b114af7563a20fb2e3444ae2ac2342d457d1a2646970667358221220f239d6c0b48c54c2bf221beb84e7becac079422c855899329968beb02ebd8d9564736f6c63430008190033",
  "devdoc": {
    "errors": {
      "StringsInsufficientHexLength(uint256,uint256)": [
        {
          "details": "The `value` string doesn't fit in the specified `length`."
        }
      ]
    },
    "events": {
      "ChangedToken(address,uint256,address)": {
        "params": {
          "contractAddress": "contains the address of the tokens contract ",
          "priceToDeploy": "contains the deployment cost for the token",
          "responsible": "address of the person that implement the new token"
        }
      },
      "WithdrawTokens(address,address,uint256)": {
        "params": {
          "amount": "total of tokens to recieve",
          "recipient": "address who will recieve the tokens",
          "token": "contains the address of the tokens contract to withdraw"
        }
      }
    },
    "kind": "dev",
    "methods": {
      "changeToken(address,uint256)": {
        "params": {
          "_priceToDeploy": "Price of deployment for the new Token",
          "_token": "Address of the new Token"
        }
      },
      "getDeploymentCost()": {
        "returns": {
          "price": "\tShows the price of deployment for the token"
        }
      },
      "withdrawTokens(uint256)": {
        "details": "AccessControl makes sure only an OWNER can withdraw",
        "params": {
          "amount": "Amount of tokens to withdraw"
        }
      }
    },
    "title": "Our Facet creator for tokens",
    "version": 1
  },
  "userdoc": {
    "events": {
      "ChangedToken(address,uint256,address)": {
        "notice": "Record of a change in accepted tokens"
      },
      "WithdrawTokens(address,address,uint256)": {
        "notice": "This event stores in the blockchain when the tokens are withdrawed from the contract"
      }
    },
    "kind": "user",
    "methods": {
      "changeToken(address,uint256)": {
        "notice": "Adds an address to the list of allowed minters"
      },
      "getDeploymentCost()": {
        "notice": "Returns the number of required tokens to deploy a contract"
      },
      "withdrawTokens(uint256)": {
        "notice": "Transfers tokens from the factory to any of the OWNER addresses"
      }
    },
    "notice": "You can use this contract to manage the use of tokens",
    "version": 1
  },
  "storageLayout": {
    "storage": [],
    "types": null
  }
}