{
  "_format": "hh-sol-artifact-1",
  "contractName": "RAIR_ERC721",
  "sourceName": "contracts/Tokens/RAIR-ERC721.sol",
  "abi": [
    {
      "inputs": [
        {
          "internalType": "string",
          "name": "_contractName",
          "type": "string"
        },
        {
          "internalType": "address",
          "name": "_creatorAddress",
          "type": "address"
        },
        {
          "internalType": "uint16",
          "name": "_creatorRoyalty",
          "type": "uint16"
        }
      ],
      "stateMutability": "nonpayable",
      "type": "constructor"
    },
    {
      "anonymous": false,
      "inputs": [
        {
          "indexed": true,
          "internalType": "address",
          "name": "owner",
          "type": "address"
        },
        {
          "indexed": true,
          "internalType": "address",
          "name": "approved",
          "type": "address"
        },
        {
          "indexed": true,
          "internalType": "uint256",
          "name": "tokenId",
          "type": "uint256"
        }
      ],
      "name": "Approval",
      "type": "event"
    },
    {
      "anonymous": false,
      "inputs": [
        {
          "indexed": true,
          "internalType": "address",
          "name": "owner",
          "type": "address"
        },
        {
          "indexed": true,
          "internalType": "address",
          "name": "operator",
          "type": "address"
        },
        {
          "indexed": false,
          "internalType": "bool",
          "name": "approved",
          "type": "bool"
        }
      ],
      "name": "ApprovalForAll",
      "type": "event"
    },
    {
      "anonymous": false,
      "inputs": [
        {
          "indexed": false,
          "internalType": "string",
          "name": "newURI",
          "type": "string"
        }
      ],
      "name": "BaseURIChanged",
      "type": "event"
    },
    {
      "anonymous": false,
      "inputs": [
        {
          "indexed": true,
          "internalType": "uint256",
          "name": "id",
          "type": "uint256"
        },
        {
          "indexed": false,
          "internalType": "string",
          "name": "name",
          "type": "string"
        }
      ],
      "name": "ProductCompleted",
      "type": "event"
    },
    {
      "anonymous": false,
      "inputs": [
        {
          "indexed": true,
          "internalType": "uint256",
          "name": "id",
          "type": "uint256"
        },
        {
          "indexed": false,
          "internalType": "string",
          "name": "name",
          "type": "string"
        },
        {
          "indexed": false,
          "internalType": "uint256",
          "name": "startingToken",
          "type": "uint256"
        },
        {
          "indexed": false,
          "internalType": "uint256",
          "name": "length",
          "type": "uint256"
        }
      ],
      "name": "ProductCreated",
      "type": "event"
    },
    {
      "anonymous": false,
      "inputs": [
        {
          "indexed": false,
          "internalType": "uint256",
          "name": "productId",
          "type": "uint256"
        },
        {
          "indexed": false,
          "internalType": "string",
          "name": "newURI",
          "type": "string"
        }
      ],
      "name": "ProductURIChanged",
      "type": "event"
    },
    {
      "anonymous": false,
      "inputs": [
        {
          "indexed": false,
          "internalType": "uint256",
          "name": "productIndex",
          "type": "uint256"
        },
        {
          "indexed": false,
          "internalType": "uint256",
          "name": "startingToken",
          "type": "uint256"
        },
        {
          "indexed": false,
          "internalType": "uint256",
          "name": "endingToken",
          "type": "uint256"
        },
        {
          "indexed": false,
          "internalType": "uint256",
          "name": "tokensLocked",
          "type": "uint256"
        },
        {
          "indexed": false,
          "internalType": "string",
          "name": "productName",
          "type": "string"
        }
      ],
      "name": "RangeLocked",
      "type": "event"
    },
    {
      "anonymous": false,
      "inputs": [
        {
          "indexed": false,
          "internalType": "uint256",
          "name": "productID",
          "type": "uint256"
        },
        {
          "indexed": false,
          "internalType": "uint256",
          "name": "startingToken",
          "type": "uint256"
        },
        {
          "indexed": false,
          "internalType": "uint256",
          "name": "endingToken",
          "type": "uint256"
        }
      ],
      "name": "RangeUnlocked",
      "type": "event"
    },
    {
      "anonymous": false,
      "inputs": [
        {
          "indexed": true,
          "internalType": "bytes32",
          "name": "role",
          "type": "bytes32"
        },
        {
          "indexed": true,
          "internalType": "bytes32",
          "name": "previousAdminRole",
          "type": "bytes32"
        },
        {
          "indexed": true,
          "internalType": "bytes32",
          "name": "newAdminRole",
          "type": "bytes32"
        }
      ],
      "name": "RoleAdminChanged",
      "type": "event"
    },
    {
      "anonymous": false,
      "inputs": [
        {
          "indexed": true,
          "internalType": "bytes32",
          "name": "role",
          "type": "bytes32"
        },
        {
          "indexed": true,
          "internalType": "address",
          "name": "account",
          "type": "address"
        },
        {
          "indexed": true,
          "internalType": "address",
          "name": "sender",
          "type": "address"
        }
      ],
      "name": "RoleGranted",
      "type": "event"
    },
    {
      "anonymous": false,
      "inputs": [
        {
          "indexed": true,
          "internalType": "bytes32",
          "name": "role",
          "type": "bytes32"
        },
        {
          "indexed": true,
          "internalType": "address",
          "name": "account",
          "type": "address"
        },
        {
          "indexed": true,
          "internalType": "address",
          "name": "sender",
          "type": "address"
        }
      ],
      "name": "RoleRevoked",
      "type": "event"
    },
    {
      "anonymous": false,
      "inputs": [
        {
          "indexed": false,
          "internalType": "uint256",
          "name": "tokenId",
          "type": "uint256"
        },
        {
          "indexed": false,
          "internalType": "string",
          "name": "newURI",
          "type": "string"
        }
      ],
      "name": "TokenURIChanged",
      "type": "event"
    },
    {
      "anonymous": false,
      "inputs": [
        {
          "indexed": true,
          "internalType": "address",
          "name": "from",
          "type": "address"
        },
        {
          "indexed": true,
          "internalType": "address",
          "name": "to",
          "type": "address"
        },
        {
          "indexed": true,
          "internalType": "uint256",
          "name": "tokenId",
          "type": "uint256"
        }
      ],
      "name": "Transfer",
      "type": "event"
    },
    {
      "inputs": [],
      "name": "CREATOR",
      "outputs": [
        {
          "internalType": "bytes32",
          "name": "",
          "type": "bytes32"
        }
      ],
      "stateMutability": "view",
      "type": "function"
    },
    {
      "inputs": [],
      "name": "DEFAULT_ADMIN_ROLE",
      "outputs": [
        {
          "internalType": "bytes32",
          "name": "",
          "type": "bytes32"
        }
      ],
      "stateMutability": "view",
      "type": "function"
    },
    {
      "inputs": [],
      "name": "MINTER",
      "outputs": [
        {
          "internalType": "bytes32",
          "name": "",
          "type": "bytes32"
        }
      ],
      "stateMutability": "view",
      "type": "function"
    },
    {
      "inputs": [],
      "name": "TRADER",
      "outputs": [
        {
          "internalType": "bytes32",
          "name": "",
          "type": "bytes32"
        }
      ],
      "stateMutability": "view",
      "type": "function"
    },
    {
      "inputs": [
        {
          "internalType": "address",
          "name": "to",
          "type": "address"
        },
        {
          "internalType": "uint256",
          "name": "tokenId",
          "type": "uint256"
        }
      ],
      "name": "approve",
      "outputs": [],
      "stateMutability": "nonpayable",
      "type": "function"
    },
    {
      "inputs": [
        {
          "internalType": "address",
          "name": "owner",
          "type": "address"
        }
      ],
      "name": "balanceOf",
      "outputs": [
        {
          "internalType": "uint256",
          "name": "",
          "type": "uint256"
        }
      ],
      "stateMutability": "view",
      "type": "function"
    },
    {
      "inputs": [
        {
          "internalType": "uint256",
          "name": "productIndex",
          "type": "uint256"
        },
        {
          "internalType": "uint256",
          "name": "startingToken",
          "type": "uint256"
        },
        {
          "internalType": "uint256",
          "name": "endingToken",
          "type": "uint256"
        }
      ],
      "name": "canCreateLock",
      "outputs": [
        {
          "internalType": "bool",
          "name": "canCreate",
          "type": "bool"
        }
      ],
      "stateMutability": "view",
      "type": "function"
    },
    {
      "inputs": [
        {
          "internalType": "string",
          "name": "_productName",
          "type": "string"
        },
        {
          "internalType": "uint256",
          "name": "_copies",
          "type": "uint256"
        }
      ],
      "name": "createProduct",
      "outputs": [],
      "stateMutability": "nonpayable",
      "type": "function"
    },
    {
      "inputs": [
        {
          "internalType": "uint256",
          "name": "productIndex",
          "type": "uint256"
        },
        {
          "internalType": "uint256",
          "name": "_startingToken",
          "type": "uint256"
        },
        {
          "internalType": "uint256",
          "name": "_endingToken",
          "type": "uint256"
        },
        {
          "internalType": "uint256",
          "name": "_lockedTokens",
          "type": "uint256"
        }
      ],
      "name": "createRangeLock",
      "outputs": [],
      "stateMutability": "nonpayable",
      "type": "function"
    },
    {
      "inputs": [
        {
          "internalType": "uint256",
          "name": "tokenId",
          "type": "uint256"
        }
      ],
      "name": "getApproved",
      "outputs": [
        {
          "internalType": "address",
          "name": "",
          "type": "address"
        }
      ],
      "stateMutability": "view",
      "type": "function"
    },
    {
      "inputs": [
        {
          "internalType": "uint256",
          "name": "index",
          "type": "uint256"
        }
      ],
      "name": "getLockedRange",
      "outputs": [
        {
          "internalType": "uint256",
          "name": "startingToken",
          "type": "uint256"
        },
        {
          "internalType": "uint256",
          "name": "endingToken",
          "type": "uint256"
        },
        {
          "internalType": "uint256",
          "name": "countToUnlock",
          "type": "uint256"
        },
        {
          "internalType": "uint256",
          "name": "productIndex",
          "type": "uint256"
        }
      ],
      "stateMutability": "view",
      "type": "function"
    },
    {
      "inputs": [
        {
          "internalType": "uint256",
          "name": "productID",
          "type": "uint256"
        },
        {
          "internalType": "uint256",
          "name": "startingIndex",
          "type": "uint256"
        },
        {
          "internalType": "uint256",
          "name": "endingIndex",
          "type": "uint256"
        }
      ],
      "name": "getNextSequentialIndex",
      "outputs": [
        {
          "internalType": "uint256",
          "name": "nextIndex",
          "type": "uint256"
        }
      ],
      "stateMutability": "view",
      "type": "function"
    },
    {
      "inputs": [
        {
          "internalType": "uint256",
          "name": "index",
          "type": "uint256"
        }
      ],
      "name": "getProduct",
      "outputs": [
        {
          "internalType": "uint256",
          "name": "startingToken",
          "type": "uint256"
        },
        {
          "internalType": "uint256",
          "name": "endingToken",
          "type": "uint256"
        },
        {
          "internalType": "uint256",
          "name": "mintableTokensLeft",
          "type": "uint256"
        },
        {
          "internalType": "string",
          "name": "productName",
          "type": "string"
        },
        {
          "internalType": "uint256[]",
          "name": "locks",
          "type": "uint256[]"
        }
      ],
      "stateMutability": "view",
      "type": "function"
    },
    {
      "inputs": [],
      "name": "getProductCount",
      "outputs": [
        {
          "internalType": "uint256",
          "name": "",
          "type": "uint256"
        }
      ],
      "stateMutability": "view",
      "type": "function"
    },
    {
      "inputs": [
        {
          "internalType": "bytes32",
          "name": "role",
          "type": "bytes32"
        }
      ],
      "name": "getRoleAdmin",
      "outputs": [
        {
          "internalType": "bytes32",
          "name": "",
          "type": "bytes32"
        }
      ],
      "stateMutability": "view",
      "type": "function"
    },
    {
      "inputs": [
        {
          "internalType": "bytes32",
          "name": "role",
          "type": "bytes32"
        },
        {
          "internalType": "uint256",
          "name": "index",
          "type": "uint256"
        }
      ],
      "name": "getRoleMember",
      "outputs": [
        {
          "internalType": "address",
          "name": "",
          "type": "address"
        }
      ],
      "stateMutability": "view",
      "type": "function"
    },
    {
      "inputs": [
        {
          "internalType": "bytes32",
          "name": "role",
          "type": "bytes32"
        }
      ],
      "name": "getRoleMemberCount",
      "outputs": [
        {
          "internalType": "uint256",
          "name": "",
          "type": "uint256"
        }
      ],
      "stateMutability": "view",
      "type": "function"
    },
    {
      "inputs": [
        {
          "internalType": "bytes32",
          "name": "role",
          "type": "bytes32"
        },
        {
          "internalType": "address",
          "name": "account",
          "type": "address"
        }
      ],
      "name": "grantRole",
      "outputs": [],
      "stateMutability": "nonpayable",
      "type": "function"
    },
    {
      "inputs": [
        {
          "internalType": "bytes32",
          "name": "role",
          "type": "bytes32"
        },
        {
          "internalType": "address",
          "name": "account",
          "type": "address"
        }
      ],
      "name": "hasRole",
      "outputs": [
        {
          "internalType": "bool",
          "name": "",
          "type": "bool"
        }
      ],
      "stateMutability": "view",
      "type": "function"
    },
    {
      "inputs": [
        {
          "internalType": "address",
          "name": "userAddress",
          "type": "address"
        },
        {
          "internalType": "uint256",
          "name": "productIndex",
          "type": "uint256"
        },
        {
          "internalType": "uint256",
          "name": "startingToken",
          "type": "uint256"
        },
        {
          "internalType": "uint256",
          "name": "endingToken",
          "type": "uint256"
        }
      ],
      "name": "hasTokenInProduct",
      "outputs": [
        {
          "internalType": "bool",
          "name": "",
          "type": "bool"
        }
      ],
      "stateMutability": "view",
      "type": "function"
    },
    {
      "inputs": [
        {
          "internalType": "address",
          "name": "owner",
          "type": "address"
        },
        {
          "internalType": "address",
          "name": "operator",
          "type": "address"
        }
      ],
      "name": "isApprovedForAll",
      "outputs": [
        {
          "internalType": "bool",
          "name": "",
          "type": "bool"
        }
      ],
      "stateMutability": "view",
      "type": "function"
    },
    {
      "inputs": [
        {
          "internalType": "uint256",
          "name": "_tokenId",
          "type": "uint256"
        }
      ],
      "name": "isTokenLocked",
      "outputs": [
        {
          "internalType": "bool",
          "name": "",
          "type": "bool"
        }
      ],
      "stateMutability": "view",
      "type": "function"
    },
    {
      "inputs": [
        {
          "internalType": "address",
          "name": "to",
          "type": "address"
        },
        {
          "internalType": "uint256",
          "name": "productId",
          "type": "uint256"
        },
        {
          "internalType": "uint256",
          "name": "indexInProduct",
          "type": "uint256"
        }
      ],
      "name": "mint",
      "outputs": [],
      "stateMutability": "nonpayable",
      "type": "function"
    },
    {
      "inputs": [],
      "name": "name",
      "outputs": [
        {
          "internalType": "string",
          "name": "",
          "type": "string"
        }
      ],
      "stateMutability": "view",
      "type": "function"
    },
    {
      "inputs": [
        {
          "internalType": "uint256",
          "name": "tokenId",
          "type": "uint256"
        }
      ],
      "name": "ownerOf",
      "outputs": [
        {
          "internalType": "address",
          "name": "",
          "type": "address"
        }
      ],
      "stateMutability": "view",
      "type": "function"
    },
    {
      "inputs": [
        {
          "internalType": "bytes32",
          "name": "role",
          "type": "bytes32"
        },
        {
          "internalType": "address",
          "name": "account",
          "type": "address"
        }
      ],
      "name": "renounceRole",
      "outputs": [],
      "stateMutability": "nonpayable",
      "type": "function"
    },
    {
      "inputs": [
        {
          "internalType": "bytes32",
          "name": "role",
          "type": "bytes32"
        },
        {
          "internalType": "address",
          "name": "account",
          "type": "address"
        }
      ],
      "name": "revokeRole",
      "outputs": [],
      "stateMutability": "nonpayable",
      "type": "function"
    },
    {
      "inputs": [
        {
          "internalType": "uint256",
          "name": "_tokenId",
          "type": "uint256"
        },
        {
          "internalType": "uint256",
          "name": "_salePrice",
          "type": "uint256"
        }
      ],
      "name": "royaltyInfo",
      "outputs": [
        {
          "internalType": "address",
          "name": "receiver",
          "type": "address"
        },
        {
          "internalType": "uint256",
          "name": "royaltyAmount",
          "type": "uint256"
        }
      ],
      "stateMutability": "view",
      "type": "function"
    },
    {
      "inputs": [
        {
          "internalType": "address",
          "name": "from",
          "type": "address"
        },
        {
          "internalType": "address",
          "name": "to",
          "type": "address"
        },
        {
          "internalType": "uint256",
          "name": "tokenId",
          "type": "uint256"
        }
      ],
      "name": "safeTransferFrom",
      "outputs": [],
      "stateMutability": "nonpayable",
      "type": "function"
    },
    {
      "inputs": [
        {
          "internalType": "address",
          "name": "from",
          "type": "address"
        },
        {
          "internalType": "address",
          "name": "to",
          "type": "address"
        },
        {
          "internalType": "uint256",
          "name": "tokenId",
          "type": "uint256"
        },
        {
          "internalType": "bytes",
          "name": "_data",
          "type": "bytes"
        }
      ],
      "name": "safeTransferFrom",
      "outputs": [],
      "stateMutability": "nonpayable",
      "type": "function"
    },
    {
      "inputs": [
        {
          "internalType": "address",
          "name": "operator",
          "type": "address"
        },
        {
          "internalType": "bool",
          "name": "approved",
          "type": "bool"
        }
      ],
      "name": "setApprovalForAll",
      "outputs": [],
      "stateMutability": "nonpayable",
      "type": "function"
    },
    {
      "inputs": [
        {
          "internalType": "string",
          "name": "newURI",
          "type": "string"
        }
      ],
      "name": "setBaseURI",
      "outputs": [],
      "stateMutability": "nonpayable",
      "type": "function"
    },
    {
      "inputs": [
        {
          "internalType": "uint256",
          "name": "productId",
          "type": "uint256"
        },
        {
          "internalType": "string",
          "name": "newURI",
          "type": "string"
        }
      ],
      "name": "setProductURI",
      "outputs": [],
      "stateMutability": "nonpayable",
      "type": "function"
    },
    {
      "inputs": [
        {
          "internalType": "uint256",
          "name": "tokenId",
          "type": "uint256"
        },
        {
          "internalType": "string",
          "name": "newURI",
          "type": "string"
        }
      ],
      "name": "setUniqueURI",
      "outputs": [],
      "stateMutability": "nonpayable",
      "type": "function"
    },
    {
      "inputs": [
        {
          "internalType": "bytes4",
          "name": "interfaceId",
          "type": "bytes4"
        }
      ],
      "name": "supportsInterface",
      "outputs": [
        {
          "internalType": "bool",
          "name": "",
          "type": "bool"
        }
      ],
      "stateMutability": "view",
      "type": "function"
    },
    {
      "inputs": [],
      "name": "symbol",
      "outputs": [
        {
          "internalType": "string",
          "name": "",
          "type": "string"
        }
      ],
      "stateMutability": "view",
      "type": "function"
    },
    {
      "inputs": [
        {
          "internalType": "uint256",
          "name": "index",
          "type": "uint256"
        }
      ],
      "name": "tokenByIndex",
      "outputs": [
        {
          "internalType": "uint256",
          "name": "",
          "type": "uint256"
        }
      ],
      "stateMutability": "view",
      "type": "function"
    },
    {
      "inputs": [
        {
          "internalType": "uint256",
          "name": "productIndex",
          "type": "uint256"
        }
      ],
      "name": "tokenCountByProduct",
      "outputs": [
        {
          "internalType": "uint256",
          "name": "",
          "type": "uint256"
        }
      ],
      "stateMutability": "view",
      "type": "function"
    },
    {
      "inputs": [
        {
          "internalType": "address",
          "name": "owner",
          "type": "address"
        },
        {
          "internalType": "uint256",
          "name": "index",
          "type": "uint256"
        }
      ],
      "name": "tokenOfOwnerByIndex",
      "outputs": [
        {
          "internalType": "uint256",
          "name": "",
          "type": "uint256"
        }
      ],
      "stateMutability": "view",
      "type": "function"
    },
    {
      "inputs": [
        {
          "internalType": "uint256",
          "name": "",
          "type": "uint256"
        }
      ],
      "name": "tokenToProduct",
      "outputs": [
        {
          "internalType": "uint256",
          "name": "",
          "type": "uint256"
        }
      ],
      "stateMutability": "view",
      "type": "function"
    },
    {
      "inputs": [
        {
          "internalType": "uint256",
          "name": "token",
          "type": "uint256"
        }
      ],
      "name": "tokenToProductIndex",
      "outputs": [
        {
          "internalType": "uint256",
          "name": "tokenIndex",
          "type": "uint256"
        }
      ],
      "stateMutability": "view",
      "type": "function"
    },
    {
      "inputs": [
        {
          "internalType": "uint256",
          "name": "tokenId",
          "type": "uint256"
        }
      ],
      "name": "tokenURI",
      "outputs": [
        {
          "internalType": "string",
          "name": "",
          "type": "string"
        }
      ],
      "stateMutability": "view",
      "type": "function"
    },
    {
      "inputs": [
        {
          "internalType": "uint256",
          "name": "",
          "type": "uint256"
        },
        {
          "internalType": "uint256",
          "name": "",
          "type": "uint256"
        }
      ],
      "name": "tokensByProduct",
      "outputs": [
        {
          "internalType": "uint256",
          "name": "",
          "type": "uint256"
        }
      ],
      "stateMutability": "view",
      "type": "function"
    },
    {
      "inputs": [],
      "name": "totalSupply",
      "outputs": [
        {
          "internalType": "uint256",
          "name": "",
          "type": "uint256"
        }
      ],
      "stateMutability": "view",
      "type": "function"
    },
    {
      "inputs": [
        {
          "internalType": "address",
          "name": "from",
          "type": "address"
        },
        {
          "internalType": "address",
          "name": "to",
          "type": "address"
        },
        {
          "internalType": "uint256",
          "name": "tokenId",
          "type": "uint256"
        }
      ],
      "name": "transferFrom",
      "outputs": [],
      "stateMutability": "nonpayable",
      "type": "function"
    }
  ],
  "bytecode": "0x60806040523480156200001157600080fd5b506040516200450a3803806200450a8339810160408190526200003491620003e1565b82604051806040016040528060048152602001632920a4a960e11b81525081600090805190602001906200006a9291906200030b565b508051620000809060019060208401906200030b565b5050601480546001600160b01b0319163361ffff60a01b191617600160a01b61ffff85160217905550620000d3600080516020620044ca833981519152600080516020620044aa83398151915262000157565b620000fd600080516020620044ea833981519152600080516020620044aa83398151915262000157565b62000118600080516020620044aa83398151915283620001a2565b62000133600080516020620044ca83398151915283620001a2565b6200014e600080516020620044ea83398151915283620001a2565b50505062000537565b6000828152600a6020526040808220600101805490849055905190918391839186917fbd79b86ffe0ab8e8776151514217cd7cacd52c909f66475c3af44e129f0b00ff9190a4505050565b620001b98282620001e560201b620022c31760201c565b6000828152600b60209081526040909120620001e0918390620022d1620001f5821b17901c565b505050565b620001f1828262000215565b5050565b60006200020c836001600160a01b038416620002b9565b90505b92915050565b6000828152600a602090815260408083206001600160a01b038516845290915290205460ff16620001f1576000828152600a602090815260408083206001600160a01b03851684529091529020805460ff19166001179055620002753390565b6001600160a01b0316816001600160a01b0316837f2f8788117e7eff1d82e926ec794901d17c78024a50270940304540a733656f0d60405160405180910390a45050565b600081815260018301602052604081205462000302575081546001818101845560008481526020808220909301849055845484825282860190935260409020919091556200020f565b5060006200020f565b8280546200031990620004e4565b90600052602060002090601f0160209004810192826200033d576000855562000388565b82601f106200035857805160ff191683800117855562000388565b8280016001018555821562000388579182015b82811115620003885782518255916020019190600101906200036b565b50620003969291506200039a565b5090565b5b808211156200039657600081556001016200039b565b80516001600160a01b0381168114620003c957600080fd5b919050565b805161ffff81168114620003c957600080fd5b600080600060608486031215620003f757600080fd5b83516001600160401b03808211156200040f57600080fd5b818601915086601f8301126200042457600080fd5b81518181111562000439576200043962000521565b604051601f8201601f19908116603f0116810190838211818310171562000464576200046462000521565b816040528281526020935089848487010111156200048157600080fd5b600091505b82821015620004a5578482018401518183018501529083019062000486565b82821115620004b75760008484830101525b9650620004c9915050868201620003b1565b93505050620004db60408501620003ce565b90509250925092565b600181811c90821680620004f957607f821691505b602082108114156200051b57634e487b7160e01b600052602260045260246000fd5b50919050565b634e487b7160e01b600052604160045260246000fd5b613f6380620005476000396000f3fe608060405234801561001057600080fd5b506004361061027f5760003560e01c806355f804b31161015c578063b9db15b4116100ce578063d547741f11610087578063d547741f146105fd578063d76bf56614610610578063e4fbb60914610630578063e9300c6c14610645578063e985e9c514610658578063fe6d81241461066b57600080fd5b8063b9db15b41461057a578063bda5ec331461059e578063c00b83c5146105b1578063c87b56dd146105c4578063ca15c873146105d7578063d403bf86146105ea57600080fd5b80639010d07c116101205780639010d07c1461051e57806391d148541461053157806395d89b4114610544578063a217fddf1461054c578063a22cb46514610554578063b88d4fde1461056757600080fd5b806355f804b31461049f5780636352211e146104b25780636c99dcbf146104c557806370a08231146104d8578063876654a0146104eb57600080fd5b806324704bd7116101f55780632f745c59116101b95780632f745c591461043857806336568abe1461044b5780633d42f2061461045e57806342842e0e146104715780634a348da9146104845780634f6ccce71461048c57600080fd5b806324704bd7146103aa578063248a9ca3146103bd578063276a28a3146103e05780632a55205a146103f35780632f2ff15d1461042557600080fd5b8063156e29f611610247578063156e29f61461032f57806315a1824114610342578063175c4ef81461035557806318160ddd1461037c5780631c899d1a1461038457806323b872dd1461039757600080fd5b806301ffc9a7146102845780630301e1e2146102ac57806306fdde03146102da578063081812fc146102ef578063095ea7b31461031a575b600080fd5b61029761029236600461381b565b610692565b60405190151581526020015b60405180910390f35b6102cc6102ba3660046137bd565b6000908152600c602052604090205490565b6040519081526020016102a3565b6102e26106bd565b6040516102a39190613b84565b6103026102fd3660046137bd565b61074f565b6040516001600160a01b0390911681526020016102a3565b61032d610328366004613727565b6107e9565b005b61032d61033d366004613751565b6108ff565b61032d610350366004613968565b610c7c565b6102cc7f872340a532bdd7bb02bea115c1b0f1ba87eac982f5b79b51ac189ffaac1b6fce81565b6008546102cc565b61032d6103923660046138f0565b610f86565b61032d6103a5366004613633565b610ffa565b6102cc6103b83660046137f9565b61102b565b6102cc6103cb3660046137bd565b6000908152600a602052604090206001015490565b6102976103ee3660046137bd565b61105c565b6104066104013660046137f9565b6110e2565b604080516001600160a01b0390931683526020830191909152016102a3565b61032d6104333660046137d6565b611131565b6102cc610446366004613727565b611153565b61032d6104593660046137d6565b6111e9565b61029761046c36600461393c565b61120b565b61032d61047f366004613633565b611411565b6013546102cc565b6102cc61049a3660046137bd565b61142c565b61032d6104ad366004613855565b6114bf565b6103026104c03660046137bd565b611523565b6102976104d3366004613784565b61159a565b6102cc6104e63660046135e5565b611776565b6104fe6104f93660046137bd565b6117fd565b6040805194855260208501939093529183015260608201526080016102a3565b61030261052c3660046137f9565b6119d4565b61029761053f3660046137d6565b6119ec565b6102e2611a17565b6102cc600081565b61032d6105623660046136eb565b611a26565b61032d61057536600461366f565b611aeb565b61058d6105883660046137bd565b611b23565b6040516102a3959493929190613cd8565b6102cc6105ac36600461393c565b611c8c565b6102cc6105bf3660046137bd565b611ecd565b6102e26105d23660046137bd565b611f0e565b6102cc6105e53660046137bd565b6120af565b61032d6105f83660046138f0565b6120c6565b61032d61060b3660046137d6565b61212c565b6102cc61061e3660046137bd565b600d6020526000908152604090205481565b6102cc600080516020613f0e83398151915281565b61032d610653366004613897565b612136565b610297610666366004613600565b612263565b6102cc7ff0887ba65ee2024ea881d91b74c2450ef19e1557f03bed3ea9f16b037cbe2dc981565b60006001600160e01b03198216632baae9fd60e01b14806106b757506106b7826122e6565b92915050565b6060600080546106cc90613e1c565b80601f01602080910402602001604051908101604052809291908181526020018280546106f890613e1c565b80156107455780601f1061071a57610100808354040283529160200191610745565b820191906000526020600020905b81548152906001019060200180831161072857829003601f168201915b5050505050905090565b6000818152600260205260408120546001600160a01b03166107cd5760405162461bcd60e51b815260206004820152602c60248201527f4552433732313a20617070726f76656420717565727920666f72206e6f6e657860448201526b34b9ba32b73a103a37b5b2b760a11b60648201526084015b60405180910390fd5b506000908152600460205260409020546001600160a01b031690565b60006107f482611523565b9050806001600160a01b0316836001600160a01b031614156108625760405162461bcd60e51b815260206004820152602160248201527f4552433732313a20617070726f76616c20746f2063757272656e74206f776e656044820152603960f91b60648201526084016107c4565b336001600160a01b038216148061087e575061087e8133612263565b6108f05760405162461bcd60e51b815260206004820152603860248201527f4552433732313a20617070726f76652063616c6c6572206973206e6f74206f7760448201527f6e6572206e6f7220617070726f76656420666f7220616c6c000000000000000060648201526084016107c4565b6108fa838361230b565b505050565b7ff0887ba65ee2024ea881d91b74c2450ef19e1557f03bed3ea9f16b037cbe2dc961092a8133612379565b6013548390811061094d5760405162461bcd60e51b81526004016107c490613c21565b60006013858154811061096257610962613ec8565b90600052602060002090600502019050806000015481600101546109869190613dc2565b8411156109d55760405162461bcd60e51b815260206004820181905260248201527f52414952204552433732313a20496e76616c696420746f6b656e20696e64657860448201526064016107c4565b6109ee868583600001546109e99190613d77565b6123dd565b6000858152600c602052604090208154610a09908690613d77565b8154600181018355600092835260208320015581548691600d91610a2e908890613d77565b815260200190815260200160002081905550806002016000815480929190610a5590613e05565b9091555060009050805b6004830154811015610c2d578254610a78908790613d77565b6012846004018381548110610a8f57610a8f613ec8565b906000526020600020015481548110610aaa57610aaa613ec8565b90600052602060002090600402016000015411158015610b1957508254610ad2908790613d77565b6012846004018381548110610ae957610ae9613ec8565b906000526020600020015481548110610b0457610b04613ec8565b90600052602060002090600402016001015410155b15610c1b576012836004018281548110610b3557610b35613ec8565b906000526020600020015481548110610b5057610b50613ec8565b90600052602060002090600402019150826004018181548110610b7557610b75613ec8565b9060005260206000200154600e6000888660000154610b949190613d77565b8152602081019190915260400160002055600282015415610c1657600282018054906000610bc183613e05565b90915550506002820154610c165781546001830154604080518a815260208101939093528201527fd3edbeb94dfb8eadcd8c291774b9ac3cc9b06af829273e295bf3197849934b889060600160405180910390a15b610c2d565b80610c2581613e57565b915050610a5f565b506002820154610c7357857f7118e1ae63262db55027a75ee525791f482e7fdf6c2ccb6c11528bf1652780e183600301604051610c6a9190613bbc565b60405180910390a25b50505050505050565b600080516020613f0e833981519152610c958133612379565b60135485908110610cb85760405162461bcd60e51b81526004016107c490613c21565b600060138781548110610ccd57610ccd613ec8565b906000526020600020906005020190508060010154858260000154610cf29190613d77565b1115610d4a5760405162461bcd60e51b815260206004820152602160248201527f52414952204552433732313a20496e76616c696420656e64696e6720746f6b656044820152603760f91b60648201526084016107c4565b80546001820154610d5b9190613dc2565b610d658787613dc2565b1115610dbd5760405162461bcd60e51b815260206004820152602160248201527f52414952204552433732313a20496e76616c696420746f6b656e206c696d69746044820152607360f81b60648201526084016107c4565b83610dc88787613dc2565b610dd3906001613d77565b1015610e375760405162461bcd60e51b815260206004820152602d60248201527f52414952204552433732313a20496e76616c6964206e756d626572206f66207460448201526c6f6b656e7320746f206c6f636b60981b60648201526084016107c4565b610e4287878761120b565b610e8e5760405162461bcd60e51b815260206004820152601f60248201527f52414952204552433732313a2043616e6e6f7420637265617465206c6f636b0060448201526064016107c4565b60128054600181018255600091909152815460049091027fbb8a6a4669ba250d26cd7a459eca9d215f8307e33aebe50379bc5a3617ec34440190610ed3908890613d77565b81558154610ee2908790613d77565b60018083019190915560028201869055600382018990556012546004840191610f0a91613dc2565b8154600181018355600092835260209092209091015581547f0b8fece546364ce1dcadcf45028659aff64e7a166d735eb32da27050fd520f69908990610f51908a90613d77565b8454610f5e908a90613d77565b8886600301604051610f74959493929190613d41565b60405180910390a15050505050505050565b600080516020613f0e833981519152610f9f8133612379565b6000848152601060205260409020610fb8908484613404565b507f483621391b5e72d74eb03c7b5715531c486e326fb115ab3bcf34b133041854ce848484604051610fec93929190613cb5565b60405180910390a150505050565b61100433826123f7565b6110205760405162461bcd60e51b81526004016107c490613c64565b6108fa8383836124c6565b600c602052816000526040600020818154811061104757600080fd5b90600052602060002001600091509150505481565b6000818152600d6020908152604080832054600e90925282205460128054909190811061108b5761108b613ec8565b9060005260206000209060040201600301541480156106b757506000828152600e60205260408120546012805490919081106110c9576110c9613ec8565b9060005260206000209060040201600201541192915050565b6000806110fe600080516020613f0e83398151915260006119d4565b601454620186a09061111b90600160a01b900461ffff1686613da3565b6111259190613d8f565b915091505b9250929050565b61113b8282612671565b6000828152600b602052604090206108fa90826122d1565b600061115e83611776565b82106111c05760405162461bcd60e51b815260206004820152602b60248201527f455243373231456e756d657261626c653a206f776e657220696e646578206f7560448201526a74206f6620626f756e647360a81b60648201526084016107c4565b506001600160a01b03919091166000908152600660209081526040808320938352929052205490565b6111f38282612697565b6000828152600b602052604090206108fa9082612711565b6000806013858154811061122157611221613ec8565b90600052602060002090600502019050806000015481600101546112459190613dc2565b84118061126157508054600182015461125e9190613dc2565b83115b1561127057600091505061140a565b60005b600482015481101561140357815461128c908690613d77565b60128360040183815481106112a3576112a3613ec8565b9060005260206000200154815481106112be576112be613ec8565b9060005260206000209060040201600001541115801561132d575081546112e6908690613d77565b60128360040183815481106112fd576112fd613ec8565b90600052602060002001548154811061131857611318613ec8565b90600052602060002090600402016001015410155b806113e157508154611340908590613d77565b601283600401838154811061135757611357613ec8565b90600052602060002001548154811061137257611372613ec8565b906000526020600020906004020160000154111580156113e15750815461139a908590613d77565b60128360040183815481106113b1576113b1613ec8565b9060005260206000200154815481106113cc576113cc613ec8565b90600052602060002090600402016001015410155b156113f15760009250505061140a565b806113fb81613e57565b915050611273565b5060019150505b9392505050565b6108fa83838360405180602001604052806000815250611aeb565b600061143760085490565b821061149a5760405162461bcd60e51b815260206004820152602c60248201527f455243373231456e756d657261626c653a20676c6f62616c20696e646578206f60448201526b7574206f6620626f756e647360a01b60648201526084016107c4565b600882815481106114ad576114ad613ec8565b90600052602060002001549050919050565b600080516020613f0e8339815191526114d88133612379565b6114e4600f8484613404565b507f5411e8ebf1636d9e83d5fc4900bf80cbac82e8790da2a4c94db4895e889eedf68383604051611516929190613b70565b60405180910390a1505050565b6000818152600260205260408120546001600160a01b0316806106b75760405162461bcd60e51b815260206004820152602960248201527f4552433732313a206f776e657220717565727920666f72206e6f6e657869737460448201526832b73a103a37b5b2b760b91b60648201526084016107c4565b600080601385815481106115b0576115b0613ec8565b90600052602060002090600502016040518060a00160405290816000820154815260200160018201548152602001600282015481526020016003820180546115f790613e1c565b80601f016020809104026020016040519081016040528092919081815260200182805461162390613e1c565b80156116705780601f1061164557610100808354040283529160200191611670565b820191906000526020600020905b81548152906001019060200180831161165357829003601f168201915b50505050508152602001600482018054806020026020016040519081016040528092919081815260200182805480156116c857602002820191906000526020600020905b8154815260200190600101908083116116b4575b505050505081525050905080602001516000146117685760005b6116eb87611776565b8110156117665760006116fe8883611153565b6000818152600d60205260409020549091508714801561172a57508251611726908790613d77565b8110155b80156117425750825161173e908690613d77565b8111155b15611753576001935050505061176e565b508061175e81613e57565b9150506116e2565b505b60009150505b949350505050565b60006001600160a01b0382166117e15760405162461bcd60e51b815260206004820152602a60248201527f4552433732313a2062616c616e636520717565727920666f7220746865207a65604482015269726f206164647265737360b01b60648201526084016107c4565b506001600160a01b031660009081526003602052604090205490565b60008060008060006012868154811061181857611818613ec8565b906000526020600020906004020160405180608001604052908160008201548152602001600182015481526020016002820154815260200160038201548152505090506000601382606001518154811061187457611874613ec8565b90600052602060002090600502016040518060a00160405290816000820154815260200160018201548152602001600282015481526020016003820180546118bb90613e1c565b80601f01602080910402602001604051908101604052809291908181526020018280546118e790613e1c565b80156119345780601f1061190957610100808354040283529160200191611934565b820191906000526020600020905b81548152906001019060200180831161191757829003601f168201915b505050505081526020016004820180548060200260200160405190810160405280929190818152602001828054801561198c57602002820191906000526020600020905b815481526020019060010190808311611978575b505050919092525050815184519293506119a892909150613dc2565b815160208401516119b99190613dc2565b83604001518460600151955095509550955050509193509193565b6000828152600b6020526040812061140a9083612726565b6000918252600a602090815260408084206001600160a01b0393909316845291905290205460ff1690565b6060600180546106cc90613e1c565b6001600160a01b038216331415611a7f5760405162461bcd60e51b815260206004820152601960248201527f4552433732313a20617070726f766520746f2063616c6c65720000000000000060448201526064016107c4565b3360008181526005602090815260408083206001600160a01b03871680855290835292819020805460ff191686151590811790915590519081529192917f17307eab39ab6107e8899845ad3d59bd9653f200f220920489ca2b5937696c31910160405180910390a35050565b611af533836123f7565b611b115760405162461bcd60e51b81526004016107c490613c64565b611b1d84848484612732565b50505050565b6000806000606080600060138781548110611b4057611b40613ec8565b90600052602060002090600502016040518060a0016040529081600082015481526020016001820154815260200160028201548152602001600382018054611b8790613e1c565b80601f0160208091040260200160405190810160405280929190818152602001828054611bb390613e1c565b8015611c005780601f10611bd557610100808354040283529160200191611c00565b820191906000526020600020905b815481529060010190602001808311611be357829003601f168201915b5050505050815260200160048201805480602002602001604051908101604052809291908181526020018280548015611c5857602002820191906000526020600020905b815481526020019060010190808311611c44575b5050509190925250508151602083015160408401516060850151608090950151929c919b5099509297509550909350505050565b6000838060138054905011611cb35760405162461bcd60e51b81526004016107c490613c21565b600060138681548110611cc857611cc8613ec8565b90600052602060002090600502016040518060a0016040529081600082015481526020016001820154815260200160028201548152602001600382018054611d0f90613e1c565b80601f0160208091040260200160405190810160405280929190818152602001828054611d3b90613e1c565b8015611d885780601f10611d5d57610100808354040283529160200191611d88565b820191906000526020600020905b815481529060010190602001808311611d6b57829003601f168201915b5050505050815260200160048201805480602002602001604051908101604052809291908181526020018280548015611de057602002820191906000526020600020905b815481526020019060010190808311611dcc575b50505050508152505090506000858260000151611dfd9190613d77565b90505b8151611e0d908690613d77565b8111611e56576000818152600260205260409020546001600160a01b0316611e44578151611e3b9082613dc2565b93505050611ec5565b80611e4e81613e57565b915050611e00565b5060405162461bcd60e51b815260206004820152603960248201527f52414952204552433732313a20546865726520617265206e6f20617661696c6160448201527f626c6520746f6b656e7320696e20746869732072616e67652e0000000000000060648201526084016107c4565b509392505050565b6000818152600d6020526040812054601380549091908110611ef157611ef1613ec8565b906000526020600020906005020160000154826106b79190613dc2565b600081815260106020526040812080546060929190611f2c90613e1c565b80601f0160208091040260200160405190810160405280929190818152602001828054611f5890613e1c565b8015611fa55780601f10611f7a57610100808354040283529160200191611fa5565b820191906000526020600020905b815481529060010190602001808311611f8857829003601f168201915b50505050509050600081511115611fbc5792915050565b6000838152600d60209081526040808320548352601190915290208054611fe290613e1c565b80601f016020809104026020016040519081016040528092919081815260200182805461200e90613e1c565b801561205b5780601f106120305761010080835404028352916020019161205b565b820191906000526020600020905b81548152906001019060200180831161203e57829003601f168201915b505050505090506000815111156120a6578061207e61207985611ecd565b612765565b60405160200161208f929190613a8f565b604051602081830303815290604052915050919050565b61140a83612863565b6000818152600b602052604081206106b790612916565b600080516020613f0e8339815191526120df8133612379565b60008481526011602052604090206120f8908484613404565b507f658b273d88cb66d5790b2e0cb1510b48ab78d39cba1c9cad2df51068c42c607c848484604051610fec93929190613cb5565b6111f38282612920565b600080516020613f0e83398151915261214f8133612379565b6013546000901561219d576013805461216a90600190613dc2565b8154811061217a5761217a613ec8565b90600052602060002090600502016001015460016121989190613d77565b6121a0565b60005b60138054600181810183556000929092526005027f66de8ffda797e3de9c05e8fc57b3bf0ec28a930d40b0d285d93c06501cf6a090018281559192506121e68584613d77565b6121f09190613dc2565b6001820155845161220a9060038301906020880190613488565b506002810184905560135461222190600190613dc2565b7f8d3d82130aebba03bb48b5d158bc2bbb4647856765b1089e7250507307965af986848760405161225493929190613b97565b60405180910390a25050505050565b600061228f7f872340a532bdd7bb02bea115c1b0f1ba87eac982f5b79b51ac189ffaac1b6fce836119ec565b8061140a57506001600160a01b0380841660009081526005602090815260408083209386168352929052205460ff1661140a565b6122cd8282612946565b5050565b600061140a836001600160a01b0384166129cc565b60006001600160e01b03198216635a05180f60e01b14806106b757506106b782612a1b565b600081815260046020526040902080546001600160a01b0319166001600160a01b038416908117909155819061234082611523565b6001600160a01b03167f8c5be1e5ebec7d5bd14f71427d1e84f3dd0314c0f7b2291e5b200ac8c7c3b92560405160405180910390a45050565b61238382826119ec565b6122cd5761239b816001600160a01b03166014612a40565b6123a6836020612a40565b6040516020016123b7929190613abe565b60408051601f198184030181529082905262461bcd60e51b82526107c491600401613b84565b6122cd828260405180602001604052806000815250612bdc565b6000818152600260205260408120546001600160a01b03166124705760405162461bcd60e51b815260206004820152602c60248201527f4552433732313a206f70657261746f7220717565727920666f72206e6f6e657860448201526b34b9ba32b73a103a37b5b2b760a11b60648201526084016107c4565b600061247b83611523565b9050806001600160a01b0316846001600160a01b031614806124b65750836001600160a01b03166124ab8461074f565b6001600160a01b0316145b8061176e575061176e8185612263565b826001600160a01b03166124d982611523565b6001600160a01b0316146125415760405162461bcd60e51b815260206004820152602960248201527f4552433732313a207472616e73666572206f6620746f6b656e2074686174206960448201526839903737ba1037bbb760b91b60648201526084016107c4565b6001600160a01b0382166125a35760405162461bcd60e51b8152602060048201526024808201527f4552433732313a207472616e7366657220746f20746865207a65726f206164646044820152637265737360e01b60648201526084016107c4565b6125ae838383612c0f565b6125b960008261230b565b6001600160a01b03831660009081526003602052604081208054600192906125e2908490613dc2565b90915550506001600160a01b0382166000908152600360205260408120805460019290612610908490613d77565b909155505060008181526002602052604080822080546001600160a01b0319166001600160a01b0386811691821790925591518493918716917fddf252ad1be2c89b69c2b068fc378daa952ba7f163c4a11628f55a4df523b3ef91a4505050565b6000828152600a602052604090206001015461268d8133612379565b6108fa8383612946565b6001600160a01b03811633146127075760405162461bcd60e51b815260206004820152602f60248201527f416363657373436f6e74726f6c3a2063616e206f6e6c792072656e6f756e636560448201526e103937b632b9903337b91039b2b63360891b60648201526084016107c4565b6122cd8282612d5c565b600061140a836001600160a01b038416612dc3565b600061140a8383612eb6565b61273d8484846124c6565b61274984848484612ee0565b611b1d5760405162461bcd60e51b81526004016107c490613bcf565b6060816127895750506040805180820190915260018152600360fc1b602082015290565b8160005b81156127b3578061279d81613e57565b91506127ac9050600a83613d8f565b915061278d565b60008167ffffffffffffffff8111156127ce576127ce613ede565b6040519080825280601f01601f1916602001820160405280156127f8576020820181803683370190505b5090505b841561176e5761280d600183613dc2565b915061281a600a86613e72565b612825906030613d77565b60f81b81838151811061283a5761283a613ec8565b60200101906001600160f81b031916908160001a90535061285c600a86613d8f565b94506127fc565b6000818152600260205260409020546060906001600160a01b03166128e25760405162461bcd60e51b815260206004820152602f60248201527f4552433732314d657461646174613a2055524920717565727920666f72206e6f60448201526e3732bc34b9ba32b73a103a37b5b2b760891b60648201526084016107c4565b60006128ec612fea565b9050600081511161290c576040518060200160405280600081525061140a565b8061207e84612765565b60006106b7825490565b6000828152600a602052604090206001015461293c8133612379565b6108fa8383612d5c565b61295082826119ec565b6122cd576000828152600a602090815260408083206001600160a01b03851684529091529020805460ff191660011790556129883390565b6001600160a01b0316816001600160a01b0316837f2f8788117e7eff1d82e926ec794901d17c78024a50270940304540a733656f0d60405160405180910390a45050565b6000818152600183016020526040812054612a13575081546001818101845560008481526020808220909301849055845484825282860190935260409020919091556106b7565b5060006106b7565b60006001600160e01b03198216637965db0b60e01b14806106b757506106b782612ff9565b60606000612a4f836002613da3565b612a5a906002613d77565b67ffffffffffffffff811115612a7257612a72613ede565b6040519080825280601f01601f191660200182016040528015612a9c576020820181803683370190505b509050600360fc1b81600081518110612ab757612ab7613ec8565b60200101906001600160f81b031916908160001a905350600f60fb1b81600181518110612ae657612ae6613ec8565b60200101906001600160f81b031916908160001a9053506000612b0a846002613da3565b612b15906001613d77565b90505b6001811115612b8d576f181899199a1a9b1b9c1cb0b131b232b360811b85600f1660108110612b4957612b49613ec8565b1a60f81b828281518110612b5f57612b5f613ec8565b60200101906001600160f81b031916908160001a90535060049490941c93612b8681613e05565b9050612b18565b50831561140a5760405162461bcd60e51b815260206004820181905260248201527f537472696e67733a20686578206c656e67746820696e73756666696369656e7460448201526064016107c4565b612be6838361301e565b612bf36000848484612ee0565b6108fa5760405162461bcd60e51b81526004016107c490613bcf565b6001600160a01b03831615801590612c2f57506001600160a01b03821615155b15612d51576000818152600d6020908152604080832054600e90925290912054601280549091908110612c6457612c64613ec8565b9060005260206000209060040201600301541415612d27576000818152600e6020526040902054601280549091908110612ca057612ca0613ec8565b906000526020600020906004020160020154600014612d275760405162461bcd60e51b815260206004820152603a60248201527f52414952204552433732313a205472616e736665727320666f7220746869732060448201527f72616e6765206172652063757272656e746c79206c6f636b656400000000000060648201526084016107c4565b612d517f872340a532bdd7bb02bea115c1b0f1ba87eac982f5b79b51ac189ffaac1b6fce33612379565b6108fa83838361316c565b612d6682826119ec565b156122cd576000828152600a602090815260408083206001600160a01b0385168085529252808320805460ff1916905551339285917ff6391f5c32d9c69d2a47ea670b442974b53935d1edc7fd64eb21e047a839171b9190a45050565b60008181526001830160205260408120548015612eac576000612de7600183613dc2565b8554909150600090612dfb90600190613dc2565b9050818114612e60576000866000018281548110612e1b57612e1b613ec8565b9060005260206000200154905080876000018481548110612e3e57612e3e613ec8565b6000918252602080832090910192909255918252600188019052604090208390555b8554869080612e7157612e71613eb2565b6001900381819060005260206000200160009055905585600101600086815260200190815260200160002060009055600193505050506106b7565b60009150506106b7565b6000826000018281548110612ecd57612ecd613ec8565b9060005260206000200154905092915050565b60006001600160a01b0384163b15612fe257604051630a85bd0160e11b81526001600160a01b0385169063150b7a0290612f24903390899088908890600401613b33565b602060405180830381600087803b158015612f3e57600080fd5b505af1925050508015612f6e575060408051601f3d908101601f19168201909252612f6b91810190613838565b60015b612fc8573d808015612f9c576040519150601f19603f3d011682016040523d82523d6000602084013e612fa1565b606091505b508051612fc05760405162461bcd60e51b81526004016107c490613bcf565b805181602001fd5b6001600160e01b031916630a85bd0160e11b14905061176e565b50600161176e565b6060600f80546106cc90613e1c565b60006001600160e01b0319821663780e9d6360e01b14806106b757506106b782613224565b6001600160a01b0382166130745760405162461bcd60e51b815260206004820181905260248201527f4552433732313a206d696e7420746f20746865207a65726f206164647265737360448201526064016107c4565b6000818152600260205260409020546001600160a01b0316156130d95760405162461bcd60e51b815260206004820152601c60248201527f4552433732313a20746f6b656e20616c7265616479206d696e7465640000000060448201526064016107c4565b6130e560008383612c0f565b6001600160a01b038216600090815260036020526040812080546001929061310e908490613d77565b909155505060008181526002602052604080822080546001600160a01b0319166001600160a01b03861690811790915590518392907fddf252ad1be2c89b69c2b068fc378daa952ba7f163c4a11628f55a4df523b3ef908290a45050565b6001600160a01b0383166131c7576131c281600880546000838152600960205260408120829055600182018355919091527ff3f7a9fe364faab93b216da50a3214154f22a0a2b415b23a84c8169e8b636ee30155565b6131ea565b816001600160a01b0316836001600160a01b0316146131ea576131ea8382613274565b6001600160a01b038216613201576108fa81613311565b826001600160a01b0316826001600160a01b0316146108fa576108fa82826133c0565b60006001600160e01b031982166380ac58cd60e01b148061325557506001600160e01b03198216635b5e139f60e01b145b806106b757506301ffc9a760e01b6001600160e01b03198316146106b7565b6000600161328184611776565b61328b9190613dc2565b6000838152600760205260409020549091508082146132de576001600160a01b03841660009081526006602090815260408083208584528252808320548484528184208190558352600790915290208190555b5060009182526007602090815260408084208490556001600160a01b039094168352600681528383209183525290812055565b60085460009061332390600190613dc2565b6000838152600960205260408120546008805493945090928490811061334b5761334b613ec8565b90600052602060002001549050806008838154811061336c5761336c613ec8565b60009182526020808320909101929092558281526009909152604080822084905585825281205560088054806133a4576133a4613eb2565b6001900381819060005260206000200160009055905550505050565b60006133cb83611776565b6001600160a01b039093166000908152600660209081526040808320868452825280832085905593825260079052919091209190915550565b82805461341090613e1c565b90600052602060002090601f0160209004810192826134325760008555613478565b82601f1061344b5782800160ff19823516178555613478565b82800160010185558215613478579182015b8281111561347857823582559160200191906001019061345d565b506134849291506134fc565b5090565b82805461349490613e1c565b90600052602060002090601f0160209004810192826134b65760008555613478565b82601f106134cf57805160ff1916838001178555613478565b82800160010185558215613478579182015b828111156134785782518255916020019190600101906134e1565b5b8082111561348457600081556001016134fd565b600067ffffffffffffffff8084111561352c5761352c613ede565b604051601f8501601f19908116603f0116810190828211818310171561355457613554613ede565b8160405280935085815286868601111561356d57600080fd5b858560208301376000602087830101525050509392505050565b80356001600160a01b038116811461359e57600080fd5b919050565b60008083601f8401126135b557600080fd5b50813567ffffffffffffffff8111156135cd57600080fd5b60208301915083602082850101111561112a57600080fd5b6000602082840312156135f757600080fd5b61140a82613587565b6000806040838503121561361357600080fd5b61361c83613587565b915061362a60208401613587565b90509250929050565b60008060006060848603121561364857600080fd5b61365184613587565b925061365f60208501613587565b9150604084013590509250925092565b6000806000806080858703121561368557600080fd5b61368e85613587565b935061369c60208601613587565b925060408501359150606085013567ffffffffffffffff8111156136bf57600080fd5b8501601f810187136136d057600080fd5b6136df87823560208401613511565b91505092959194509250565b600080604083850312156136fe57600080fd5b61370783613587565b91506020830135801515811461371c57600080fd5b809150509250929050565b6000806040838503121561373a57600080fd5b61374383613587565b946020939093013593505050565b60008060006060848603121561376657600080fd5b61376f84613587565b95602085013595506040909401359392505050565b6000806000806080858703121561379a57600080fd5b6137a385613587565b966020860135965060408601359560600135945092505050565b6000602082840312156137cf57600080fd5b5035919050565b600080604083850312156137e957600080fd5b8235915061362a60208401613587565b6000806040838503121561380c57600080fd5b50508035926020909101359150565b60006020828403121561382d57600080fd5b813561140a81613ef4565b60006020828403121561384a57600080fd5b815161140a81613ef4565b6000806020838503121561386857600080fd5b823567ffffffffffffffff81111561387f57600080fd5b61388b858286016135a3565b90969095509350505050565b600080604083850312156138aa57600080fd5b823567ffffffffffffffff8111156138c157600080fd5b8301601f810185136138d257600080fd5b6138e185823560208401613511565b95602094909401359450505050565b60008060006040848603121561390557600080fd5b83359250602084013567ffffffffffffffff81111561392357600080fd5b61392f868287016135a3565b9497909650939450505050565b60008060006060848603121561395157600080fd5b505081359360208301359350604090920135919050565b6000806000806080858703121561397e57600080fd5b5050823594602084013594506040840135936060013592509050565b600081518084526139b2816020860160208601613dd9565b601f01601f19169290920160200192915050565b81835281816020850137506000828201602090810191909152601f909101601f19169091010190565b8054600090600181811c9080831680613a0957607f831692505b6020808410821415613a2b57634e487b7160e01b600052602260045260246000fd5b83885260208801828015613a465760018114613a5757613a82565b60ff19871682528282019750613a82565b60008981526020902060005b87811015613a7c57815484820152908601908401613a63565b83019850505b5050505050505092915050565b60008351613aa1818460208801613dd9565b835190830190613ab5818360208801613dd9565b01949350505050565b7f416363657373436f6e74726f6c3a206163636f756e7420000000000000000000815260008351613af6816017850160208801613dd9565b7001034b99036b4b9b9b4b733903937b6329607d1b6017918401918201528351613b27816028840160208801613dd9565b01602801949350505050565b6001600160a01b0385811682528416602082015260408101839052608060608201819052600090613b669083018461399a565b9695505050505050565b60208152600061176e6020830184866139c6565b60208152600061140a602083018461399a565b606081526000613baa606083018661399a565b60208301949094525060400152919050565b60208152600061140a60208301846139ef565b60208082526032908201527f4552433732313a207472616e7366657220746f206e6f6e20455243373231526560408201527131b2b4bb32b91034b6b83632b6b2b73a32b960711b606082015260800190565b60208082526023908201527f52414952204552433732313a2050726f6475637420646f6573206e6f742065786040820152621a5cdd60ea1b606082015260800190565b60208082526031908201527f4552433732313a207472616e736665722063616c6c6572206973206e6f74206f6040820152701ddb995c881b9bdc88185c1c1c9bdd9959607a1b606082015260800190565b838152604060208201526000613ccf6040830184866139c6565b95945050505050565b85815260006020868184015285604084015260a06060840152613cfe60a084018661399a565b838103608085015284518082528286019183019060005b81811015613d3157835183529284019291840191600101613d15565b50909a9950505050505050505050565b85815284602082015283604082015282606082015260a060808201526000613d6c60a08301846139ef565b979650505050505050565b60008219821115613d8a57613d8a613e86565b500190565b600082613d9e57613d9e613e9c565b500490565b6000816000190483118215151615613dbd57613dbd613e86565b500290565b600082821015613dd457613dd4613e86565b500390565b60005b83811015613df4578181015183820152602001613ddc565b83811115611b1d5750506000910152565b600081613e1457613e14613e86565b506000190190565b600181811c90821680613e3057607f821691505b60208210811415613e5157634e487b7160e01b600052602260045260246000fd5b50919050565b6000600019821415613e6b57613e6b613e86565b5060010190565b600082613e8157613e81613e9c565b500690565b634e487b7160e01b600052601160045260246000fd5b634e487b7160e01b600052601260045260246000fd5b634e487b7160e01b600052603160045260246000fd5b634e487b7160e01b600052603260045260246000fd5b634e487b7160e01b600052604160045260246000fd5b6001600160e01b031981168114613f0a57600080fd5b5056fe3c2519c4487d47714872f92cf90a50c25f5deaec2789dc2a497b1272df611db6a26469706673582212206b6560876b8dfaa18358e25dd14f459100766e83037d9d43efd3e8648bccdb6964736f6c634300080700333c2519c4487d47714872f92cf90a50c25f5deaec2789dc2a497b1272df611db6f0887ba65ee2024ea881d91b74c2450ef19e1557f03bed3ea9f16b037cbe2dc9872340a532bdd7bb02bea115c1b0f1ba87eac982f5b79b51ac189ffaac1b6fce",
  "linkReferences": {},
  "deployedLinkReferences": {}
}