{
  "_format": "hh-sol-artifact-1",
  "contractName": "RAIR_ERC721",
  "sourceName": "contracts/Tokens/RAIR-ERC721.sol",
  "abi": [
    {
      "inputs": [
        {
          "internalType": "string",
          "name": "_contractName",
          "type": "string"
        },
        {
          "internalType": "address",
          "name": "_creatorAddress",
          "type": "address"
        },
        {
          "internalType": "uint16",
          "name": "_creatorRoyalty",
          "type": "uint16"
        }
      ],
      "stateMutability": "nonpayable",
      "type": "constructor"
    },
    {
      "anonymous": false,
      "inputs": [
        {
          "indexed": true,
          "internalType": "address",
          "name": "owner",
          "type": "address"
        },
        {
          "indexed": true,
          "internalType": "address",
          "name": "approved",
          "type": "address"
        },
        {
          "indexed": true,
          "internalType": "uint256",
          "name": "tokenId",
          "type": "uint256"
        }
      ],
      "name": "Approval",
      "type": "event"
    },
    {
      "anonymous": false,
      "inputs": [
        {
          "indexed": true,
          "internalType": "address",
          "name": "owner",
          "type": "address"
        },
        {
          "indexed": true,
          "internalType": "address",
          "name": "operator",
          "type": "address"
        },
        {
          "indexed": false,
          "internalType": "bool",
          "name": "approved",
          "type": "bool"
        }
      ],
      "name": "ApprovalForAll",
      "type": "event"
    },
    {
      "anonymous": false,
      "inputs": [
        {
          "indexed": true,
          "internalType": "uint256",
          "name": "id",
          "type": "uint256"
        },
        {
          "indexed": false,
          "internalType": "string",
          "name": "name",
          "type": "string"
        }
      ],
      "name": "CollectionCompleted",
      "type": "event"
    },
    {
      "anonymous": false,
      "inputs": [
        {
          "indexed": true,
          "internalType": "uint256",
          "name": "id",
          "type": "uint256"
        },
        {
          "indexed": false,
          "internalType": "string",
          "name": "name",
          "type": "string"
        },
        {
          "indexed": false,
          "internalType": "uint256",
          "name": "length",
          "type": "uint256"
        }
      ],
      "name": "CollectionCreated",
      "type": "event"
    },
    {
      "anonymous": false,
      "inputs": [
        {
          "indexed": false,
          "internalType": "uint256",
          "name": "collectionIndex",
          "type": "uint256"
        },
        {
          "indexed": false,
          "internalType": "uint256",
          "name": "startingToken",
          "type": "uint256"
        },
        {
          "indexed": false,
          "internalType": "uint256",
          "name": "endingToken",
          "type": "uint256"
        },
        {
          "indexed": false,
          "internalType": "uint256",
          "name": "tokensLocked",
          "type": "uint256"
        },
        {
          "indexed": false,
          "internalType": "string",
          "name": "collectionName",
          "type": "string"
        }
      ],
      "name": "RangeLocked",
      "type": "event"
    },
    {
      "anonymous": false,
      "inputs": [
        {
          "indexed": false,
          "internalType": "uint256",
          "name": "collectionID",
          "type": "uint256"
        },
        {
          "indexed": false,
          "internalType": "uint256",
          "name": "startingToken",
          "type": "uint256"
        },
        {
          "indexed": false,
          "internalType": "uint256",
          "name": "endingToken",
          "type": "uint256"
        }
      ],
      "name": "RangeUnlocked",
      "type": "event"
    },
    {
      "anonymous": false,
      "inputs": [
        {
          "indexed": true,
          "internalType": "bytes32",
          "name": "role",
          "type": "bytes32"
        },
        {
          "indexed": true,
          "internalType": "bytes32",
          "name": "previousAdminRole",
          "type": "bytes32"
        },
        {
          "indexed": true,
          "internalType": "bytes32",
          "name": "newAdminRole",
          "type": "bytes32"
        }
      ],
      "name": "RoleAdminChanged",
      "type": "event"
    },
    {
      "anonymous": false,
      "inputs": [
        {
          "indexed": true,
          "internalType": "bytes32",
          "name": "role",
          "type": "bytes32"
        },
        {
          "indexed": true,
          "internalType": "address",
          "name": "account",
          "type": "address"
        },
        {
          "indexed": true,
          "internalType": "address",
          "name": "sender",
          "type": "address"
        }
      ],
      "name": "RoleGranted",
      "type": "event"
    },
    {
      "anonymous": false,
      "inputs": [
        {
          "indexed": true,
          "internalType": "bytes32",
          "name": "role",
          "type": "bytes32"
        },
        {
          "indexed": true,
          "internalType": "address",
          "name": "account",
          "type": "address"
        },
        {
          "indexed": true,
          "internalType": "address",
          "name": "sender",
          "type": "address"
        }
      ],
      "name": "RoleRevoked",
      "type": "event"
    },
    {
      "anonymous": false,
      "inputs": [
        {
          "indexed": true,
          "internalType": "address",
          "name": "from",
          "type": "address"
        },
        {
          "indexed": true,
          "internalType": "address",
          "name": "to",
          "type": "address"
        },
        {
          "indexed": true,
          "internalType": "uint256",
          "name": "tokenId",
          "type": "uint256"
        }
      ],
      "name": "Transfer",
      "type": "event"
    },
    {
      "inputs": [],
      "name": "CREATOR",
      "outputs": [
        {
          "internalType": "bytes32",
          "name": "",
          "type": "bytes32"
        }
      ],
      "stateMutability": "view",
      "type": "function"
    },
    {
      "inputs": [],
      "name": "DEFAULT_ADMIN_ROLE",
      "outputs": [
        {
          "internalType": "bytes32",
          "name": "",
          "type": "bytes32"
        }
      ],
      "stateMutability": "view",
      "type": "function"
    },
    {
      "inputs": [],
      "name": "MINTER",
      "outputs": [
        {
          "internalType": "bytes32",
          "name": "",
          "type": "bytes32"
        }
      ],
      "stateMutability": "view",
      "type": "function"
    },
    {
      "inputs": [],
      "name": "TRADER",
      "outputs": [
        {
          "internalType": "bytes32",
          "name": "",
          "type": "bytes32"
        }
      ],
      "stateMutability": "view",
      "type": "function"
    },
    {
      "inputs": [
        {
          "internalType": "address",
          "name": "to",
          "type": "address"
        },
        {
          "internalType": "uint256",
          "name": "tokenId",
          "type": "uint256"
        }
      ],
      "name": "approve",
      "outputs": [],
      "stateMutability": "nonpayable",
      "type": "function"
    },
    {
      "inputs": [
        {
          "internalType": "address",
          "name": "owner",
          "type": "address"
        }
      ],
      "name": "balanceOf",
      "outputs": [
        {
          "internalType": "uint256",
          "name": "",
          "type": "uint256"
        }
      ],
      "stateMutability": "view",
      "type": "function"
    },
    {
      "inputs": [
        {
          "internalType": "uint256",
          "name": "productIndex",
          "type": "uint256"
        },
        {
          "internalType": "uint256",
          "name": "startingToken",
          "type": "uint256"
        },
        {
          "internalType": "uint256",
          "name": "endingToken",
          "type": "uint256"
        }
      ],
      "name": "canCreateLock",
      "outputs": [
        {
          "internalType": "bool",
          "name": "canCreate",
          "type": "bool"
        }
      ],
      "stateMutability": "view",
      "type": "function"
    },
    {
      "inputs": [
        {
          "internalType": "string",
          "name": "_collectionName",
          "type": "string"
        },
        {
          "internalType": "uint256",
          "name": "_copies",
          "type": "uint256"
        }
      ],
      "name": "createCollection",
      "outputs": [],
      "stateMutability": "nonpayable",
      "type": "function"
    },
    {
      "inputs": [
        {
          "internalType": "uint256",
          "name": "collectionIndex",
          "type": "uint256"
        },
        {
          "internalType": "uint256",
          "name": "_startingToken",
          "type": "uint256"
        },
        {
          "internalType": "uint256",
          "name": "_endingToken",
          "type": "uint256"
        },
        {
          "internalType": "uint256",
          "name": "_lockedTokens",
          "type": "uint256"
        }
      ],
      "name": "createRangeLock",
      "outputs": [],
      "stateMutability": "nonpayable",
      "type": "function"
    },
    {
      "inputs": [
        {
          "internalType": "uint256",
          "name": "tokenId",
          "type": "uint256"
        }
      ],
      "name": "getApproved",
      "outputs": [
        {
          "internalType": "address",
          "name": "",
          "type": "address"
        }
      ],
      "stateMutability": "view",
      "type": "function"
    },
    {
      "inputs": [
        {
          "internalType": "uint256",
          "name": "index",
          "type": "uint256"
        }
      ],
      "name": "getCollection",
      "outputs": [
        {
          "internalType": "uint256",
          "name": "startingToken",
          "type": "uint256"
        },
        {
          "internalType": "uint256",
          "name": "endingToken",
          "type": "uint256"
        },
        {
          "internalType": "uint256",
          "name": "mintableTokensLeft",
          "type": "uint256"
        },
        {
          "internalType": "string",
          "name": "collectionName",
          "type": "string"
        },
        {
          "internalType": "uint256[]",
          "name": "locks",
          "type": "uint256[]"
        }
      ],
      "stateMutability": "view",
      "type": "function"
    },
    {
      "inputs": [],
      "name": "getCollectionCount",
      "outputs": [
        {
          "internalType": "uint256",
          "name": "",
          "type": "uint256"
        }
      ],
      "stateMutability": "view",
      "type": "function"
    },
    {
      "inputs": [
        {
          "internalType": "uint256",
          "name": "index",
          "type": "uint256"
        }
      ],
      "name": "getLockedRange",
      "outputs": [
        {
          "internalType": "uint256",
          "name": "startingToken",
          "type": "uint256"
        },
        {
          "internalType": "uint256",
          "name": "endingToken",
          "type": "uint256"
        },
        {
          "internalType": "uint256",
          "name": "countToUnlock",
          "type": "uint256"
        },
        {
          "internalType": "uint256",
          "name": "collectionIndex",
          "type": "uint256"
        }
      ],
      "stateMutability": "view",
      "type": "function"
    },
    {
      "inputs": [
        {
          "internalType": "uint256",
          "name": "collectionID",
          "type": "uint256"
        },
        {
          "internalType": "uint256",
          "name": "startingIndex",
          "type": "uint256"
        },
        {
          "internalType": "uint256",
          "name": "endingIndex",
          "type": "uint256"
        }
      ],
      "name": "getNextSequentialIndex",
      "outputs": [
        {
          "internalType": "uint256",
          "name": "nextIndex",
          "type": "uint256"
        }
      ],
      "stateMutability": "view",
      "type": "function"
    },
    {
      "inputs": [
        {
          "internalType": "bytes32",
          "name": "role",
          "type": "bytes32"
        }
      ],
      "name": "getRoleAdmin",
      "outputs": [
        {
          "internalType": "bytes32",
          "name": "",
          "type": "bytes32"
        }
      ],
      "stateMutability": "view",
      "type": "function"
    },
    {
      "inputs": [
        {
          "internalType": "bytes32",
          "name": "role",
          "type": "bytes32"
        },
        {
          "internalType": "uint256",
          "name": "index",
          "type": "uint256"
        }
      ],
      "name": "getRoleMember",
      "outputs": [
        {
          "internalType": "address",
          "name": "",
          "type": "address"
        }
      ],
      "stateMutability": "view",
      "type": "function"
    },
    {
      "inputs": [
        {
          "internalType": "bytes32",
          "name": "role",
          "type": "bytes32"
        }
      ],
      "name": "getRoleMemberCount",
      "outputs": [
        {
          "internalType": "uint256",
          "name": "",
          "type": "uint256"
        }
      ],
      "stateMutability": "view",
      "type": "function"
    },
    {
      "inputs": [
        {
          "internalType": "bytes32",
          "name": "role",
          "type": "bytes32"
        },
        {
          "internalType": "address",
          "name": "account",
          "type": "address"
        }
      ],
      "name": "grantRole",
      "outputs": [],
      "stateMutability": "nonpayable",
      "type": "function"
    },
    {
      "inputs": [
        {
          "internalType": "bytes32",
          "name": "role",
          "type": "bytes32"
        },
        {
          "internalType": "address",
          "name": "account",
          "type": "address"
        }
      ],
      "name": "hasRole",
      "outputs": [
        {
          "internalType": "bool",
          "name": "",
          "type": "bool"
        }
      ],
      "stateMutability": "view",
      "type": "function"
    },
    {
      "inputs": [
        {
          "internalType": "address",
          "name": "owner",
          "type": "address"
        },
        {
          "internalType": "uint256",
          "name": "collectionIndex",
          "type": "uint256"
        }
      ],
      "name": "hasTokenInCollection",
      "outputs": [
        {
          "internalType": "bool",
          "name": "",
          "type": "bool"
        }
      ],
      "stateMutability": "view",
      "type": "function"
    },
    {
      "inputs": [
        {
          "internalType": "address",
          "name": "owner",
          "type": "address"
        },
        {
          "internalType": "address",
          "name": "operator",
          "type": "address"
        }
      ],
      "name": "isApprovedForAll",
      "outputs": [
        {
          "internalType": "bool",
          "name": "",
          "type": "bool"
        }
      ],
      "stateMutability": "view",
      "type": "function"
    },
    {
      "inputs": [
        {
          "internalType": "uint256",
          "name": "_tokenId",
          "type": "uint256"
        }
      ],
      "name": "isTokenLocked",
      "outputs": [
        {
          "internalType": "bool",
          "name": "",
          "type": "bool"
        }
      ],
      "stateMutability": "view",
      "type": "function"
    },
    {
      "inputs": [
        {
          "internalType": "address",
          "name": "to",
          "type": "address"
        },
        {
          "internalType": "uint256",
          "name": "collectionID",
          "type": "uint256"
        },
        {
          "internalType": "uint256",
          "name": "indexInCollection",
          "type": "uint256"
        }
      ],
      "name": "mint",
      "outputs": [],
      "stateMutability": "nonpayable",
      "type": "function"
    },
    {
      "inputs": [],
      "name": "name",
      "outputs": [
        {
          "internalType": "string",
          "name": "",
          "type": "string"
        }
      ],
      "stateMutability": "view",
      "type": "function"
    },
    {
      "inputs": [
        {
          "internalType": "uint256",
          "name": "tokenId",
          "type": "uint256"
        }
      ],
      "name": "ownerOf",
      "outputs": [
        {
          "internalType": "address",
          "name": "",
          "type": "address"
        }
      ],
      "stateMutability": "view",
      "type": "function"
    },
    {
      "inputs": [
        {
          "internalType": "bytes32",
          "name": "role",
          "type": "bytes32"
        },
        {
          "internalType": "address",
          "name": "account",
          "type": "address"
        }
      ],
      "name": "renounceRole",
      "outputs": [],
      "stateMutability": "nonpayable",
      "type": "function"
    },
    {
      "inputs": [
        {
          "internalType": "bytes32",
          "name": "role",
          "type": "bytes32"
        },
        {
          "internalType": "address",
          "name": "account",
          "type": "address"
        }
      ],
      "name": "revokeRole",
      "outputs": [],
      "stateMutability": "nonpayable",
      "type": "function"
    },
    {
      "inputs": [
        {
          "internalType": "uint256",
          "name": "_tokenId",
          "type": "uint256"
        },
        {
          "internalType": "uint256",
          "name": "_value",
          "type": "uint256"
        },
        {
          "internalType": "bytes",
          "name": "_data",
          "type": "bytes"
        }
      ],
      "name": "royaltyInfo",
      "outputs": [
        {
          "internalType": "address",
          "name": "_receiver",
          "type": "address"
        },
        {
          "internalType": "uint256",
          "name": "_royaltyAmount",
          "type": "uint256"
        },
        {
          "internalType": "bytes",
          "name": "_royaltyPaymentData",
          "type": "bytes"
        }
      ],
      "stateMutability": "view",
      "type": "function"
    },
    {
      "inputs": [
        {
          "internalType": "address",
          "name": "from",
          "type": "address"
        },
        {
          "internalType": "address",
          "name": "to",
          "type": "address"
        },
        {
          "internalType": "uint256",
          "name": "tokenId",
          "type": "uint256"
        }
      ],
      "name": "safeTransferFrom",
      "outputs": [],
      "stateMutability": "nonpayable",
      "type": "function"
    },
    {
      "inputs": [
        {
          "internalType": "address",
          "name": "from",
          "type": "address"
        },
        {
          "internalType": "address",
          "name": "to",
          "type": "address"
        },
        {
          "internalType": "uint256",
          "name": "tokenId",
          "type": "uint256"
        },
        {
          "internalType": "bytes",
          "name": "_data",
          "type": "bytes"
        }
      ],
      "name": "safeTransferFrom",
      "outputs": [],
      "stateMutability": "nonpayable",
      "type": "function"
    },
    {
      "inputs": [
        {
          "internalType": "address",
          "name": "operator",
          "type": "address"
        },
        {
          "internalType": "bool",
          "name": "approved",
          "type": "bool"
        }
      ],
      "name": "setApprovalForAll",
      "outputs": [],
      "stateMutability": "nonpayable",
      "type": "function"
    },
    {
      "inputs": [
        {
          "internalType": "bytes4",
          "name": "interfaceId",
          "type": "bytes4"
        }
      ],
      "name": "supportsInterface",
      "outputs": [
        {
          "internalType": "bool",
          "name": "",
          "type": "bool"
        }
      ],
      "stateMutability": "view",
      "type": "function"
    },
    {
      "inputs": [],
      "name": "symbol",
      "outputs": [
        {
          "internalType": "string",
          "name": "",
          "type": "string"
        }
      ],
      "stateMutability": "view",
      "type": "function"
    },
    {
      "inputs": [
        {
          "internalType": "uint256",
          "name": "index",
          "type": "uint256"
        }
      ],
      "name": "tokenByIndex",
      "outputs": [
        {
          "internalType": "uint256",
          "name": "",
          "type": "uint256"
        }
      ],
      "stateMutability": "view",
      "type": "function"
    },
    {
      "inputs": [
        {
          "internalType": "address",
          "name": "owner",
          "type": "address"
        },
        {
          "internalType": "uint256",
          "name": "index",
          "type": "uint256"
        }
      ],
      "name": "tokenOfOwnerByIndex",
      "outputs": [
        {
          "internalType": "uint256",
          "name": "",
          "type": "uint256"
        }
      ],
      "stateMutability": "view",
      "type": "function"
    },
    {
      "inputs": [
        {
          "internalType": "uint256",
          "name": "",
          "type": "uint256"
        }
      ],
      "name": "tokenToCollection",
      "outputs": [
        {
          "internalType": "uint256",
          "name": "",
          "type": "uint256"
        }
      ],
      "stateMutability": "view",
      "type": "function"
    },
    {
      "inputs": [
        {
          "internalType": "uint256",
          "name": "token",
          "type": "uint256"
        }
      ],
      "name": "tokenToCollectionIndex",
      "outputs": [
        {
          "internalType": "uint256",
          "name": "tokenIndex",
          "type": "uint256"
        }
      ],
      "stateMutability": "view",
      "type": "function"
    },
    {
      "inputs": [
        {
          "internalType": "uint256",
          "name": "tokenId",
          "type": "uint256"
        }
      ],
      "name": "tokenURI",
      "outputs": [
        {
          "internalType": "string",
          "name": "",
          "type": "string"
        }
      ],
      "stateMutability": "view",
      "type": "function"
    },
    {
      "inputs": [],
      "name": "totalSupply",
      "outputs": [
        {
          "internalType": "uint256",
          "name": "",
          "type": "uint256"
        }
      ],
      "stateMutability": "view",
      "type": "function"
    },
    {
      "inputs": [
        {
          "internalType": "address",
          "name": "from",
          "type": "address"
        },
        {
          "internalType": "address",
          "name": "to",
          "type": "address"
        },
        {
          "internalType": "uint256",
          "name": "tokenId",
          "type": "uint256"
        }
      ],
      "name": "transferFrom",
      "outputs": [],
      "stateMutability": "nonpayable",
      "type": "function"
    }
  ],
  "bytecode": "0x60806040523480156200001157600080fd5b50604051620043b4380380620043b48339810160408190526200003491620003ea565b82604051806040016040528060048152602001632920a4a960e11b81525081600090805190602001906200006a92919062000314565b5080516200008090600190602084019062000314565b5050601080546001600160b01b0319163361ffff60a01b191617600160a01b61ffff85160217905550620000d3600080516020620043748339815191526000805160206200435483398151915262000157565b620000fd600080516020620043948339815191526000805160206200435483398151915262000157565b620001186000805160206200435483398151915283620001ab565b620001336000805160206200437483398151915283620001ab565b6200014e6000805160206200439483398151915283620001ab565b50505062000540565b6000828152600a6020526040902060010154819060405184907fbd79b86ffe0ab8e8776151514217cd7cacd52c909f66475c3af44e129f0b00ff90600090a46000918252600a602052604090912060010155565b620001c28282620001ee60201b6200217e1760201c565b6000828152600b60209081526040909120620001e99183906200218c620001fe821b17901c565b505050565b620001fa82826200021e565b5050565b600062000215836001600160a01b038416620002c2565b90505b92915050565b6000828152600a602090815260408083206001600160a01b038516845290915290205460ff16620001fa576000828152600a602090815260408083206001600160a01b03851684529091529020805460ff191660011790556200027e3390565b6001600160a01b0316816001600160a01b0316837f2f8788117e7eff1d82e926ec794901d17c78024a50270940304540a733656f0d60405160405180910390a45050565b60008181526001830160205260408120546200030b5750815460018181018455600084815260208082209093018490558454848252828601909352604090209190915562000218565b50600062000218565b8280546200032290620004ed565b90600052602060002090601f01602090048101928262000346576000855562000391565b82601f106200036157805160ff191683800117855562000391565b8280016001018555821562000391579182015b828111156200039157825182559160200191906001019062000374565b506200039f929150620003a3565b5090565b5b808211156200039f5760008155600101620003a4565b80516001600160a01b0381168114620003d257600080fd5b919050565b805161ffff81168114620003d257600080fd5b6000806000606084860312156200040057600080fd5b83516001600160401b03808211156200041857600080fd5b818601915086601f8301126200042d57600080fd5b8151818111156200044257620004426200052a565b604051601f8201601f19908116603f011681019083821181831017156200046d576200046d6200052a565b816040528281526020935089848487010111156200048a57600080fd5b600091505b82821015620004ae57848201840151818301850152908301906200048f565b82821115620004c05760008484830101525b9650620004d2915050868201620003ba565b93505050620004e460408501620003d7565b90509250925092565b600181811c908216806200050257607f821691505b602082108114156200052457634e487b7160e01b600052602260045260246000fd5b50919050565b634e487b7160e01b600052604160045260246000fd5b613e0480620005506000396000f3fe608060405234801561001057600080fd5b50600436106102c85760003560e01c80636352211e1161017b578063ab9aae35116100d8578063ca15c8731161008c578063e4fbb60911610071578063e4fbb60914610636578063e985e9c51461065d578063fe6d81241461067057600080fd5b8063ca15c87314610610578063d547741f1461062357600080fd5b8063bda5ec33116100bd578063bda5ec33146105c8578063c155531d146105db578063c87b56dd146105fd57600080fd5b8063ab9aae35146105a2578063b88d4fde146105b557600080fd5b806391d148541161012f57806397099fb21161011457806397099fb214610574578063a217fddf14610587578063a22cb4651461058f57600080fd5b806391d148541461053357806395d89b411461056c57600080fd5b806370a082311161016057806370a08231146104da578063876654a0146104ed5780639010d07c1461052057600080fd5b80636352211e146104b457806364d54151146104c757600080fd5b806323b872dd1161022957806336568abe116101dd57806342842e0e116101c257806342842e0e1461046a5780634f6ccce71461047d5780635a1f3c281461049057600080fd5b806336568abe146104445780633d42f2061461045757600080fd5b8063276a28a31161020e578063276a28a31461040b5780632f2ff15d1461041e5780632f745c591461043157600080fd5b806323b872dd146103d5578063248a9ca3146103e857600080fd5b806315a182411161028057806318160ddd1161026557806318160ddd146103a5578063195f78ae146103ad5780631c10106f146103cd57600080fd5b806315a182411461035d578063175c4ef81461037057600080fd5b8063081812fc116102b1578063081812fc1461030a578063095ea7b314610335578063156e29f61461034a57600080fd5b806301ffc9a7146102cd57806306fdde03146102f5575b600080fd5b6102e06102db3660046137f7565b610697565b60405190151581526020015b60405180910390f35b6102fd6106db565b6040516102ec9190613b51565b61031d610318366004613799565b61076d565b6040516001600160a01b0390911681526020016102ec565b61034861034336600461373c565b610807565b005b610348610358366004613766565b610939565b61034861036b366004613936565b610cca565b6103977f872340a532bdd7bb02bea115c1b0f1ba87eac982f5b79b51ac189ffaac1b6fce81565b6040519081526020016102ec565b600854610397565b6103976103bb366004613799565b600f6020526000908152604090205481565b600e54610397565b6103486103e3366004613648565b61106d565b6103976103f6366004613799565b6000908152600a602052604090206001015490565b6102e0610419366004613799565b6110f4565b61034861042c3660046137b2565b61117a565b61039761043f36600461373c565b61119c565b6103486104523660046137b2565b611244565b6102e061046536600461390a565b611266565b610348610478366004613648565b61146c565b61039761048b366004613799565b611487565b6104a361049e366004613799565b61152b565b6040516102ec959493929190613b99565b61031d6104c2366004613799565b611694565b6103486104d5366004613831565b61171f565b6103976104e83660046135fa565b61185c565b6105006104fb366004613799565b6118f6565b6040805194855260208501939093529183015260608201526080016102ec565b61031d61052e3660046137d5565b611acd565b6102e06105413660046137b2565b6000918252600a602090815260408084206001600160a01b0393909316845291905290205460ff1690565b6102fd611ae5565b6102e061058236600461373c565b611af4565b610397600081565b61034861059d366004613700565b611b52565b6103976105b0366004613799565b611c17565b6103486105c3366004613684565b611c58565b6103976105d636600461390a565b611ce6565b6105ee6105e936600461388a565b611f66565b6040516102ec93929190613b20565b6102fd61060b366004613799565b611ff9565b61039761061e366004613799565b6120ee565b6103486106313660046137b2565b612105565b6103977f3c2519c4487d47714872f92cf90a50c25f5deaec2789dc2a497b1272df611db681565b6102e061066b366004613615565b61210f565b6103977ff0887ba65ee2024ea881d91b74c2450ef19e1557f03bed3ea9f16b037cbe2dc981565b60006001600160e01b031982167fc0aa9aba0000000000000000000000000000000000000000000000000000000014806106d557506106d5826121a1565b92915050565b6060600080546106ea90613cdd565b80601f016020809104026020016040519081016040528092919081815260200182805461071690613cdd565b80156107635780601f1061073857610100808354040283529160200191610763565b820191906000526020600020905b81548152906001019060200180831161074657829003601f168201915b5050505050905090565b6000818152600260205260408120546001600160a01b03166107eb5760405162461bcd60e51b815260206004820152602c60248201527f4552433732313a20617070726f76656420717565727920666f72206e6f6e657860448201526b34b9ba32b73a103a37b5b2b760a11b60648201526084015b60405180910390fd5b506000908152600460205260409020546001600160a01b031690565b600061081282611694565b9050806001600160a01b0316836001600160a01b0316141561089c5760405162461bcd60e51b815260206004820152602160248201527f4552433732313a20617070726f76616c20746f2063757272656e74206f776e6560448201527f720000000000000000000000000000000000000000000000000000000000000060648201526084016107e2565b336001600160a01b03821614806108b857506108b8813361210f565b61092a5760405162461bcd60e51b815260206004820152603860248201527f4552433732313a20617070726f76652063616c6c6572206973206e6f74206f7760448201527f6e6572206e6f7220617070726f76656420666f7220616c6c000000000000000060648201526084016107e2565b61093483836121df565b505050565b7ff0887ba65ee2024ea881d91b74c2450ef19e1557f03bed3ea9f16b037cbe2dc9610964813361225a565b600e54839081106109c65760405162461bcd60e51b815260206004820152602660248201527f52414952204552433732313a20436f6c6c656374696f6e20646f6573206e6f7460448201526508195e1a5cdd60d21b60648201526084016107e2565b6000600e85815481106109db576109db613d89565b90600052602060002090600502019050806000015481600101546109ff9190613c83565b841115610a4e5760405162461bcd60e51b815260206004820181905260248201527f52414952204552433732313a20496e76616c696420746f6b656e20696e64657860448201526064016107e2565b610a6786858360000154610a629190613c38565b6122da565b84600f6000868460000154610a7c9190613c38565b815260200190815260200160002081905550806002016000815480929190610aa390613cc6565b9091555060009050805b6004830154811015610c7b578254610ac6908790613c38565b600d846004018381548110610add57610add613d89565b906000526020600020015481548110610af857610af8613d89565b90600052602060002090600402016000015411158015610b6757508254610b20908790613c38565b600d846004018381548110610b3757610b37613d89565b906000526020600020015481548110610b5257610b52613d89565b90600052602060002090600402016001015410155b15610c6957600d836004018281548110610b8357610b83613d89565b906000526020600020015481548110610b9e57610b9e613d89565b90600052602060002090600402019150826004018181548110610bc357610bc3613d89565b9060005260206000200154600c6000888660000154610be29190613c38565b8152602081019190915260400160002055600282015415610c6457600282018054906000610c0f83613cc6565b90915550506002820154610c645781546001830154604080518a815260208101939093528201527fd3edbeb94dfb8eadcd8c291774b9ac3cc9b06af829273e295bf3197849934b889060600160405180910390a15b610c7b565b80610c7381613d18565b915050610aad565b506002820154610cc157857f3ab828a3fee3d542c87fb145e900664325100c3c0b2e2a2cca38685b6de1b27183600301604051610cb89190613b86565b60405180910390a25b50505050505050565b7f3c2519c4487d47714872f92cf90a50c25f5deaec2789dc2a497b1272df611db6610cf5813361225a565b600e5485908110610d575760405162461bcd60e51b815260206004820152602660248201527f52414952204552433732313a20436f6c6c656374696f6e20646f6573206e6f7460448201526508195e1a5cdd60d21b60648201526084016107e2565b6000600e8781548110610d6c57610d6c613d89565b906000526020600020906005020190508060010154858260000154610d919190613c38565b1115610e055760405162461bcd60e51b815260206004820152602160248201527f52414952204552433732313a20496e76616c696420656e64696e6720746f6b6560448201527f6e0000000000000000000000000000000000000000000000000000000000000060648201526084016107e2565b80546001820154610e169190613c83565b610e208787613c83565b1115610e945760405162461bcd60e51b815260206004820152602160248201527f52414952204552433732313a20496e76616c696420746f6b656e206c696d697460448201527f730000000000000000000000000000000000000000000000000000000000000060648201526084016107e2565b83610e9f8787613c83565b610eaa906001613c38565b1015610f1e5760405162461bcd60e51b815260206004820152602d60248201527f52414952204552433732313a20496e76616c6964206e756d626572206f66207460448201527f6f6b656e7320746f206c6f636b0000000000000000000000000000000000000060648201526084016107e2565b610f29878787611266565b610f755760405162461bcd60e51b815260206004820152601f60248201527f52414952204552433732313a2043616e6e6f7420637265617465206c6f636b0060448201526064016107e2565b600d8054600181018255600091909152815460049091027fd7b6990105719101dabeb77144f2a3385c8033acd3af97e9423a695e81ad1eb50190610fba908890613c38565b81558154610fc9908790613c38565b6001808301919091556002820186905560038201899055600d546004840191610ff191613c83565b8154600181018355600092835260209092209091015581547f0b8fece546364ce1dcadcf45028659aff64e7a166d735eb32da27050fd520f69908990611038908a90613c38565b8454611045908a90613c38565b888660030160405161105b959493929190613c02565b60405180910390a15050505050505050565b61107733826122f4565b6110e95760405162461bcd60e51b815260206004820152603160248201527f4552433732313a207472616e736665722063616c6c6572206973206e6f74206f60448201527f776e6572206e6f7220617070726f76656400000000000000000000000000000060648201526084016107e2565b6109348383836123cb565b6000818152600f6020908152604080832054600c909252822054600d8054909190811061112357611123613d89565b9060005260206000209060040201600301541480156106d557506000828152600c6020526040812054600d8054909190811061116157611161613d89565b9060005260206000209060040201600201541192915050565b61118482826125b0565b6000828152600b60205260409020610934908261218c565b60006111a78361185c565b821061121b5760405162461bcd60e51b815260206004820152602b60248201527f455243373231456e756d657261626c653a206f776e657220696e646578206f7560448201527f74206f6620626f756e647300000000000000000000000000000000000000000060648201526084016107e2565b506001600160a01b03919091166000908152600660209081526040808320938352929052205490565b61124e82826125d6565b6000828152600b60205260409020610934908261265e565b600080600e858154811061127c5761127c613d89565b90600052602060002090600502019050806000015481600101546112a09190613c83565b8411806112bc5750805460018201546112b99190613c83565b83115b156112cb576000915050611465565b60005b600482015481101561145e5781546112e7908690613c38565b600d8360040183815481106112fe576112fe613d89565b90600052602060002001548154811061131957611319613d89565b9060005260206000209060040201600001541115801561138857508154611341908690613c38565b600d83600401838154811061135857611358613d89565b90600052602060002001548154811061137357611373613d89565b90600052602060002090600402016001015410155b8061143c5750815461139b908590613c38565b600d8360040183815481106113b2576113b2613d89565b9060005260206000200154815481106113cd576113cd613d89565b9060005260206000209060040201600001541115801561143c575081546113f5908590613c38565b600d83600401838154811061140c5761140c613d89565b90600052602060002001548154811061142757611427613d89565b90600052602060002090600402016001015410155b1561144c57600092505050611465565b8061145681613d18565b9150506112ce565b5060019150505b9392505050565b61093483838360405180602001604052806000815250611c58565b600061149260085490565b82106115065760405162461bcd60e51b815260206004820152602c60248201527f455243373231456e756d657261626c653a20676c6f62616c20696e646578206f60448201527f7574206f6620626f756e6473000000000000000000000000000000000000000060648201526084016107e2565b6008828154811061151957611519613d89565b90600052602060002001549050919050565b60008060006060806000600e878154811061154857611548613d89565b90600052602060002090600502016040518060a001604052908160008201548152602001600182015481526020016002820154815260200160038201805461158f90613cdd565b80601f01602080910402602001604051908101604052809291908181526020018280546115bb90613cdd565b80156116085780601f106115dd57610100808354040283529160200191611608565b820191906000526020600020905b8154815290600101906020018083116115eb57829003601f168201915b505050505081526020016004820180548060200260200160405190810160405280929190818152602001828054801561166057602002820191906000526020600020905b81548152602001906001019080831161164c575b5050509190925250508151602083015160408401516060850151608090950151929c919b5099509297509550909350505050565b6000818152600260205260408120546001600160a01b0316806106d55760405162461bcd60e51b815260206004820152602960248201527f4552433732313a206f776e657220717565727920666f72206e6f6e657869737460448201527f656e7420746f6b656e000000000000000000000000000000000000000000000060648201526084016107e2565b7f3c2519c4487d47714872f92cf90a50c25f5deaec2789dc2a497b1272df611db661174a813361225a565b600e546000901561179857600e805461176590600190613c83565b8154811061177557611775613d89565b90600052602060002090600502016001015460016117939190613c38565b61179b565b60005b600e8054600181810183556000929092526005027fbb7b4a454dc3493923482f07822329ed19e8244eff582cc204f8554c3620c3fd018281559192506117e18584613c38565b6117eb9190613c83565b6001820155845161180590600383019060208801906134cf565b5060028101849055600e5461181c90600190613c83565b7f9ae7dd5dbfc3938737af70872685a3fb26f364d20134cd30be25108122626a17868660405161184d929190613b64565b60405180910390a25050505050565b60006001600160a01b0382166118da5760405162461bcd60e51b815260206004820152602a60248201527f4552433732313a2062616c616e636520717565727920666f7220746865207a6560448201527f726f20616464726573730000000000000000000000000000000000000000000060648201526084016107e2565b506001600160a01b031660009081526003602052604090205490565b6000806000806000600d868154811061191157611911613d89565b906000526020600020906004020160405180608001604052908160008201548152602001600182015481526020016002820154815260200160038201548152505090506000600e82606001518154811061196d5761196d613d89565b90600052602060002090600502016040518060a00160405290816000820154815260200160018201548152602001600282015481526020016003820180546119b490613cdd565b80601f01602080910402602001604051908101604052809291908181526020018280546119e090613cdd565b8015611a2d5780601f10611a0257610100808354040283529160200191611a2d565b820191906000526020600020905b815481529060010190602001808311611a1057829003601f168201915b5050505050815260200160048201805480602002602001604051908101604052809291908181526020018280548015611a8557602002820191906000526020600020905b815481526020019060010190808311611a71575b50505091909252505081518451929350611aa192909150613c83565b81516020840151611ab29190613c83565b83604001518460600151955095509550955050509193509193565b6000828152600b602052604081206114659083612673565b6060600180546106ea90613cdd565b6000805b611b018461185c565b811015611b485782600f6000611b17878561119c565b8152602001908152602001600020541415611b365760019150506106d5565b80611b4081613d18565b915050611af8565b5060009392505050565b6001600160a01b038216331415611bab5760405162461bcd60e51b815260206004820152601960248201527f4552433732313a20617070726f766520746f2063616c6c65720000000000000060448201526064016107e2565b3360008181526005602090815260408083206001600160a01b03871680855290835292819020805460ff191686151590811790915590519081529192917f17307eab39ab6107e8899845ad3d59bd9653f200f220920489ca2b5937696c31910160405180910390a35050565b6000818152600f6020526040812054600e80549091908110611c3b57611c3b613d89565b906000526020600020906005020160000154826106d59190613c83565b611c6233836122f4565b611cd45760405162461bcd60e51b815260206004820152603160248201527f4552433732313a207472616e736665722063616c6c6572206973206e6f74206f60448201527f776e6572206e6f7220617070726f76656400000000000000000000000000000060648201526084016107e2565b611ce08484848461267f565b50505050565b60008380600e8054905011611d4c5760405162461bcd60e51b815260206004820152602660248201527f52414952204552433732313a20436f6c6c656374696f6e20646f6573206e6f7460448201526508195e1a5cdd60d21b60648201526084016107e2565b6000600e8681548110611d6157611d61613d89565b90600052602060002090600502016040518060a0016040529081600082015481526020016001820154815260200160028201548152602001600382018054611da890613cdd565b80601f0160208091040260200160405190810160405280929190818152602001828054611dd490613cdd565b8015611e215780601f10611df657610100808354040283529160200191611e21565b820191906000526020600020905b815481529060010190602001808311611e0457829003601f168201915b5050505050815260200160048201805480602002602001604051908101604052809291908181526020018280548015611e7957602002820191906000526020600020905b815481526020019060010190808311611e65575b50505050508152505090506000858260000151611e969190613c38565b90505b8151611ea6908690613c38565b8111611eef576000818152600260205260409020546001600160a01b0316611edd578151611ed49082613c83565b93505050611f5e565b80611ee781613d18565b915050611e99565b5060405162461bcd60e51b815260206004820152603960248201527f52414952204552433732313a20546865726520617265206e6f20617661696c6160448201527f626c6520746f6b656e7320696e20746869732072616e67652e0000000000000060648201526084016107e2565b509392505050565b6000806060611f967f3c2519c4487d47714872f92cf90a50c25f5deaec2789dc2a497b1272df611db66000611acd565b601054620186a090611fc49074010000000000000000000000000000000000000000900461ffff1689613c64565b611fce9190613c50565b60408051602081018b9052016040516020818303038152906040529250925092509450945094915050565b6000818152600260205260409020546060906001600160a01b03166120865760405162461bcd60e51b815260206004820152602f60248201527f4552433732314d657461646174613a2055524920717565727920666f72206e6f60448201527f6e6578697374656e7420746f6b656e000000000000000000000000000000000060648201526084016107e2565b600061209d60408051602081019091526000815290565b905060008151116120bd5760405180602001604052806000815250611465565b806120c7846126fd565b6040516020016120d8929190613a34565b6040516020818303038152906040529392505050565b6000818152600b602052604081206106d5906127fb565b61124e8282612805565b6001600160a01b03811660009081527f4e6e614aa308bd78bac28541285c453cfb7abbecc03cb60a1e70ec8347070f98602052604081205460ff168061146557506001600160a01b0380841660009081526005602090815260408083209386168352929052205460ff16611465565b612188828261282b565b5050565b6000611465836001600160a01b0384166128cd565b60006001600160e01b031982167f5a05180f0000000000000000000000000000000000000000000000000000000014806106d557506106d58261291c565b6000818152600460205260409020805473ffffffffffffffffffffffffffffffffffffffff19166001600160a01b038416908117909155819061222182611694565b6001600160a01b03167f8c5be1e5ebec7d5bd14f71427d1e84f3dd0314c0f7b2291e5b200ac8c7c3b92560405160405180910390a45050565b6000828152600a602090815260408083206001600160a01b038516845290915290205460ff1661218857612298816001600160a01b0316601461295a565b6122a383602061295a565b6040516020016122b4929190613a63565b60408051601f198184030181529082905262461bcd60e51b82526107e291600401613b51565b612188828260405180602001604052806000815250612b1f565b6000818152600260205260408120546001600160a01b031661236d5760405162461bcd60e51b815260206004820152602c60248201527f4552433732313a206f70657261746f7220717565727920666f72206e6f6e657860448201526b34b9ba32b73a103a37b5b2b760a11b60648201526084016107e2565b600061237883611694565b9050806001600160a01b0316846001600160a01b031614806123b35750836001600160a01b03166123a88461076d565b6001600160a01b0316145b806123c357506123c3818561210f565b949350505050565b826001600160a01b03166123de82611694565b6001600160a01b03161461245a5760405162461bcd60e51b815260206004820152602960248201527f4552433732313a207472616e73666572206f6620746f6b656e2074686174206960448201527f73206e6f74206f776e000000000000000000000000000000000000000000000060648201526084016107e2565b6001600160a01b0382166124d55760405162461bcd60e51b8152602060048201526024808201527f4552433732313a207472616e7366657220746f20746865207a65726f2061646460448201527f726573730000000000000000000000000000000000000000000000000000000060648201526084016107e2565b6124e0838383612b9d565b6124eb6000826121df565b6001600160a01b0383166000908152600360205260408120805460019290612514908490613c83565b90915550506001600160a01b0382166000908152600360205260408120805460019290612542908490613c38565b9091555050600081815260026020526040808220805473ffffffffffffffffffffffffffffffffffffffff19166001600160a01b0386811691821790925591518493918716917fddf252ad1be2c89b69c2b068fc378daa952ba7f163c4a11628f55a4df523b3ef91a4505050565b6000828152600a60205260409020600101546125cc813361225a565b610934838361282b565b6001600160a01b03811633146126545760405162461bcd60e51b815260206004820152602f60248201527f416363657373436f6e74726f6c3a2063616e206f6e6c792072656e6f756e636560448201527f20726f6c657320666f722073656c66000000000000000000000000000000000060648201526084016107e2565b6121888282612cea565b6000611465836001600160a01b038416612d6d565b60006114658383612e5a565b61268a8484846123cb565b61269684848484612efb565b611ce05760405162461bcd60e51b815260206004820152603260248201527f4552433732313a207472616e7366657220746f206e6f6e20455243373231526560448201527131b2b4bb32b91034b6b83632b6b2b73a32b960711b60648201526084016107e2565b6060816127215750506040805180820190915260018152600360fc1b602082015290565b8160005b811561274b578061273581613d18565b91506127449050600a83613c50565b9150612725565b60008167ffffffffffffffff81111561276657612766613d9f565b6040519080825280601f01601f191660200182016040528015612790576020820181803683370190505b5090505b84156123c3576127a5600183613c83565b91506127b2600a86613d33565b6127bd906030613c38565b60f81b8183815181106127d2576127d2613d89565b60200101906001600160f81b031916908160001a9053506127f4600a86613c50565b9450612794565b60006106d5825490565b6000828152600a6020526040902060010154612821813361225a565b6109348383612cea565b6000828152600a602090815260408083206001600160a01b038516845290915290205460ff16612188576000828152600a602090815260408083206001600160a01b03851684529091529020805460ff191660011790556128893390565b6001600160a01b0316816001600160a01b0316837f2f8788117e7eff1d82e926ec794901d17c78024a50270940304540a733656f0d60405160405180910390a45050565b6000818152600183016020526040812054612914575081546001818101845560008481526020808220909301849055845484825282860190935260409020919091556106d5565b5060006106d5565b60006001600160e01b031982167f7965db0b0000000000000000000000000000000000000000000000000000000014806106d557506106d582613053565b60606000612969836002613c64565b612974906002613c38565b67ffffffffffffffff81111561298c5761298c613d9f565b6040519080825280601f01601f1916602001820160405280156129b6576020820181803683370190505b509050600360fc1b816000815181106129d1576129d1613d89565b60200101906001600160f81b031916908160001a9053507f780000000000000000000000000000000000000000000000000000000000000081600181518110612a1c57612a1c613d89565b60200101906001600160f81b031916908160001a9053506000612a40846002613c64565b612a4b906001613c38565b90505b6001811115612ad0577f303132333435363738396162636465660000000000000000000000000000000085600f1660108110612a8c57612a8c613d89565b1a60f81b828281518110612aa257612aa2613d89565b60200101906001600160f81b031916908160001a90535060049490941c93612ac981613cc6565b9050612a4e565b5083156114655760405162461bcd60e51b815260206004820181905260248201527f537472696e67733a20686578206c656e67746820696e73756666696369656e7460448201526064016107e2565b612b298383613091565b612b366000848484612efb565b6109345760405162461bcd60e51b815260206004820152603260248201527f4552433732313a207472616e7366657220746f206e6f6e20455243373231526560448201527131b2b4bb32b91034b6b83632b6b2b73a32b960711b60648201526084016107e2565b6001600160a01b03831615801590612bbd57506001600160a01b03821615155b15612cdf576000818152600f6020908152604080832054600c90925290912054600d80549091908110612bf257612bf2613d89565b9060005260206000209060040201600301541415612cb5576000818152600c6020526040902054600d80549091908110612c2e57612c2e613d89565b906000526020600020906004020160020154600014612cb55760405162461bcd60e51b815260206004820152603a60248201527f52414952204552433732313a205472616e736665727320666f7220746869732060448201527f72616e6765206172652063757272656e746c79206c6f636b656400000000000060648201526084016107e2565b612cdf7f872340a532bdd7bb02bea115c1b0f1ba87eac982f5b79b51ac189ffaac1b6fce3361225a565b6109348383836131ec565b6000828152600a602090815260408083206001600160a01b038516845290915290205460ff1615612188576000828152600a602090815260408083206001600160a01b0385168085529252808320805460ff1916905551339285917ff6391f5c32d9c69d2a47ea670b442974b53935d1edc7fd64eb21e047a839171b9190a45050565b60008181526001830160205260408120548015612e50576000612d91600183613c83565b8554909150600090612da590600190613c83565b90506000866000018281548110612dbe57612dbe613d89565b9060005260206000200154905080876000018481548110612de157612de1613d89565b600091825260208083209091019290925582815260018901909152604090208490558654879080612e1457612e14613d73565b600190038181906000526020600020016000905590558660010160008781526020019081526020016000206000905560019450505050506106d5565b60009150506106d5565b81546000908210612ed35760405162461bcd60e51b815260206004820152602260248201527f456e756d657261626c655365743a20696e646578206f7574206f6620626f756e60448201527f647300000000000000000000000000000000000000000000000000000000000060648201526084016107e2565b826000018281548110612ee857612ee8613d89565b9060005260206000200154905092915050565b60006001600160a01b0384163b1561304857604051630a85bd0160e11b81526001600160a01b0385169063150b7a0290612f3f903390899088908890600401613ae4565b602060405180830381600087803b158015612f5957600080fd5b505af1925050508015612f89575060408051601f3d908101601f19168201909252612f8691810190613814565b60015b61302e573d808015612fb7576040519150601f19603f3d011682016040523d82523d6000602084013e612fbc565b606091505b5080516130265760405162461bcd60e51b815260206004820152603260248201527f4552433732313a207472616e7366657220746f206e6f6e20455243373231526560448201527131b2b4bb32b91034b6b83632b6b2b73a32b960711b60648201526084016107e2565b805181602001fd5b6001600160e01b031916630a85bd0160e11b1490506123c3565b506001949350505050565b60006001600160e01b031982167f780e9d630000000000000000000000000000000000000000000000000000000014806106d557506106d5826132a4565b6001600160a01b0382166130e75760405162461bcd60e51b815260206004820181905260248201527f4552433732313a206d696e7420746f20746865207a65726f206164647265737360448201526064016107e2565b6000818152600260205260409020546001600160a01b03161561314c5760405162461bcd60e51b815260206004820152601c60248201527f4552433732313a20746f6b656e20616c7265616479206d696e7465640000000060448201526064016107e2565b61315860008383612b9d565b6001600160a01b0382166000908152600360205260408120805460019290613181908490613c38565b9091555050600081815260026020526040808220805473ffffffffffffffffffffffffffffffffffffffff19166001600160a01b03861690811790915590518392907fddf252ad1be2c89b69c2b068fc378daa952ba7f163c4a11628f55a4df523b3ef908290a45050565b6001600160a01b0383166132475761324281600880546000838152600960205260408120829055600182018355919091527ff3f7a9fe364faab93b216da50a3214154f22a0a2b415b23a84c8169e8b636ee30155565b61326a565b816001600160a01b0316836001600160a01b03161461326a5761326a838261333f565b6001600160a01b03821661328157610934816133dc565b826001600160a01b0316826001600160a01b03161461093457610934828261348b565b60006001600160e01b031982167f80ac58cd00000000000000000000000000000000000000000000000000000000148061330757506001600160e01b031982167f5b5e139f00000000000000000000000000000000000000000000000000000000145b806106d557507f01ffc9a7000000000000000000000000000000000000000000000000000000006001600160e01b03198316146106d5565b6000600161334c8461185c565b6133569190613c83565b6000838152600760205260409020549091508082146133a9576001600160a01b03841660009081526006602090815260408083208584528252808320548484528184208190558352600790915290208190555b5060009182526007602090815260408084208490556001600160a01b039094168352600681528383209183525290812055565b6008546000906133ee90600190613c83565b6000838152600960205260408120546008805493945090928490811061341657613416613d89565b90600052602060002001549050806008838154811061343757613437613d89565b600091825260208083209091019290925582815260099091526040808220849055858252812055600880548061346f5761346f613d73565b6001900381819060005260206000200160009055905550505050565b60006134968361185c565b6001600160a01b039093166000908152600660209081526040808320868452825280832085905593825260079052919091209190915550565b8280546134db90613cdd565b90600052602060002090601f0160209004810192826134fd5760008555613543565b82601f1061351657805160ff1916838001178555613543565b82800160010185558215613543579182015b82811115613543578251825591602001919060010190613528565b5061354f929150613553565b5090565b5b8082111561354f5760008155600101613554565b600067ffffffffffffffff8084111561358357613583613d9f565b604051601f8501601f19908116603f011681019082821181831017156135ab576135ab613d9f565b816040528093508581528686860111156135c457600080fd5b858560208301376000602087830101525050509392505050565b80356001600160a01b03811681146135f557600080fd5b919050565b60006020828403121561360c57600080fd5b611465826135de565b6000806040838503121561362857600080fd5b613631836135de565b915061363f602084016135de565b90509250929050565b60008060006060848603121561365d57600080fd5b613666846135de565b9250613674602085016135de565b9150604084013590509250925092565b6000806000806080858703121561369a57600080fd5b6136a3856135de565b93506136b1602086016135de565b925060408501359150606085013567ffffffffffffffff8111156136d457600080fd5b8501601f810187136136e557600080fd5b6136f487823560208401613568565b91505092959194509250565b6000806040838503121561371357600080fd5b61371c836135de565b91506020830135801515811461373157600080fd5b809150509250929050565b6000806040838503121561374f57600080fd5b613758836135de565b946020939093013593505050565b60008060006060848603121561377b57600080fd5b613784846135de565b95602085013595506040909401359392505050565b6000602082840312156137ab57600080fd5b5035919050565b600080604083850312156137c557600080fd5b8235915061363f602084016135de565b600080604083850312156137e857600080fd5b50508035926020909101359150565b60006020828403121561380957600080fd5b813561146581613db5565b60006020828403121561382657600080fd5b815161146581613db5565b6000806040838503121561384457600080fd5b823567ffffffffffffffff81111561385b57600080fd5b8301601f8101851361386c57600080fd5b61387b85823560208401613568565b95602094909401359450505050565b600080600080606085870312156138a057600080fd5b8435935060208501359250604085013567ffffffffffffffff808211156138c657600080fd5b818701915087601f8301126138da57600080fd5b8135818111156138e957600080fd5b8860208285010111156138fb57600080fd5b95989497505060200194505050565b60008060006060848603121561391f57600080fd5b505081359360208301359350604090920135919050565b6000806000806080858703121561394c57600080fd5b5050823594602084013594506040840135936060013592509050565b60008151808452613980816020860160208601613c9a565b601f01601f19169290920160200192915050565b8054600090600181811c90808316806139ae57607f831692505b60208084108214156139d057634e487b7160e01b600052602260045260246000fd5b838852602088018280156139eb57600181146139fc57613a27565b60ff19871682528282019750613a27565b60008981526020902060005b87811015613a2157815484820152908601908401613a08565b83019850505b5050505050505092915050565b60008351613a46818460208801613c9a565b835190830190613a5a818360208801613c9a565b01949350505050565b7f416363657373436f6e74726f6c3a206163636f756e7420000000000000000000815260008351613a9b816017850160208801613c9a565b7f206973206d697373696e6720726f6c65200000000000000000000000000000006017918401918201528351613ad8816028840160208801613c9a565b01602801949350505050565b60006001600160a01b03808716835280861660208401525083604083015260806060830152613b166080830184613968565b9695505050505050565b6001600160a01b0384168152826020820152606060408201526000613b486060830184613968565b95945050505050565b6020815260006114656020830184613968565b604081526000613b776040830185613968565b90508260208301529392505050565b6020815260006114656020830184613994565b85815260006020868184015285604084015260a06060840152613bbf60a0840186613968565b838103608085015284518082528286019183019060005b81811015613bf257835183529284019291840191600101613bd6565b50909a9950505050505050505050565b85815284602082015283604082015282606082015260a060808201526000613c2d60a0830184613994565b979650505050505050565b60008219821115613c4b57613c4b613d47565b500190565b600082613c5f57613c5f613d5d565b500490565b6000816000190483118215151615613c7e57613c7e613d47565b500290565b600082821015613c9557613c95613d47565b500390565b60005b83811015613cb5578181015183820152602001613c9d565b83811115611ce05750506000910152565b600081613cd557613cd5613d47565b506000190190565b600181811c90821680613cf157607f821691505b60208210811415613d1257634e487b7160e01b600052602260045260246000fd5b50919050565b6000600019821415613d2c57613d2c613d47565b5060010190565b600082613d4257613d42613d5d565b500690565b634e487b7160e01b600052601160045260246000fd5b634e487b7160e01b600052601260045260246000fd5b634e487b7160e01b600052603160045260246000fd5b634e487b7160e01b600052603260045260246000fd5b634e487b7160e01b600052604160045260246000fd5b6001600160e01b031981168114613dcb57600080fd5b5056fea2646970667358221220bea9992b0ec65cb917ceccd55d54c388a410b7ce1469659536648dfa65f85dc264736f6c634300080600333c2519c4487d47714872f92cf90a50c25f5deaec2789dc2a497b1272df611db6f0887ba65ee2024ea881d91b74c2450ef19e1557f03bed3ea9f16b037cbe2dc9872340a532bdd7bb02bea115c1b0f1ba87eac982f5b79b51ac189ffaac1b6fce",
  "linkReferences": {},
  "deployedLinkReferences": {}
}