{
  "_format": "hh-sol-artifact-1",
  "contractName": "RAIR_ERC721",
  "sourceName": "contracts/Tokens/RAIR-ERC721.sol",
  "abi": [
    {
      "inputs": [
        {
          "internalType": "string",
          "name": "_contractName",
          "type": "string"
        },
        {
          "internalType": "address",
          "name": "_creatorAddress",
          "type": "address"
        },
        {
          "internalType": "uint16",
          "name": "_creatorRoyalty",
          "type": "uint16"
        }
      ],
      "stateMutability": "nonpayable",
      "type": "constructor"
    },
    {
      "anonymous": false,
      "inputs": [
        {
          "indexed": true,
          "internalType": "address",
          "name": "owner",
          "type": "address"
        },
        {
          "indexed": true,
          "internalType": "address",
          "name": "approved",
          "type": "address"
        },
        {
          "indexed": true,
          "internalType": "uint256",
          "name": "tokenId",
          "type": "uint256"
        }
      ],
      "name": "Approval",
      "type": "event"
    },
    {
      "anonymous": false,
      "inputs": [
        {
          "indexed": true,
          "internalType": "address",
          "name": "owner",
          "type": "address"
        },
        {
          "indexed": true,
          "internalType": "address",
          "name": "operator",
          "type": "address"
        },
        {
          "indexed": false,
          "internalType": "bool",
          "name": "approved",
          "type": "bool"
        }
      ],
      "name": "ApprovalForAll",
      "type": "event"
    },
    {
      "anonymous": false,
      "inputs": [
        {
          "indexed": true,
          "internalType": "uint256",
          "name": "id",
          "type": "uint256"
        },
        {
          "indexed": false,
          "internalType": "string",
          "name": "name",
          "type": "string"
        }
      ],
      "name": "CollectionCompleted",
      "type": "event"
    },
    {
      "anonymous": false,
      "inputs": [
        {
          "indexed": true,
          "internalType": "uint256",
          "name": "id",
          "type": "uint256"
        },
        {
          "indexed": false,
          "internalType": "string",
          "name": "name",
          "type": "string"
        },
        {
          "indexed": false,
          "internalType": "uint256",
          "name": "length",
          "type": "uint256"
        }
      ],
      "name": "CollectionCreated",
      "type": "event"
    },
    {
      "anonymous": false,
      "inputs": [
        {
          "indexed": false,
          "internalType": "uint256",
          "name": "collectionIndex",
          "type": "uint256"
        },
        {
          "indexed": false,
          "internalType": "uint256",
          "name": "startingToken",
          "type": "uint256"
        },
        {
          "indexed": false,
          "internalType": "uint256",
          "name": "endingToken",
          "type": "uint256"
        },
        {
          "indexed": false,
          "internalType": "uint256",
          "name": "tokensLocked",
          "type": "uint256"
        },
        {
          "indexed": false,
          "internalType": "string",
          "name": "collectionName",
          "type": "string"
        }
      ],
      "name": "RangeLocked",
      "type": "event"
    },
    {
      "anonymous": false,
      "inputs": [
        {
          "indexed": false,
          "internalType": "uint256",
          "name": "collectionID",
          "type": "uint256"
        },
        {
          "indexed": false,
          "internalType": "uint256",
          "name": "startingToken",
          "type": "uint256"
        },
        {
          "indexed": false,
          "internalType": "uint256",
          "name": "endingToken",
          "type": "uint256"
        }
      ],
      "name": "RangeUnlocked",
      "type": "event"
    },
    {
      "anonymous": false,
      "inputs": [
        {
          "indexed": true,
          "internalType": "bytes32",
          "name": "role",
          "type": "bytes32"
        },
        {
          "indexed": true,
          "internalType": "bytes32",
          "name": "previousAdminRole",
          "type": "bytes32"
        },
        {
          "indexed": true,
          "internalType": "bytes32",
          "name": "newAdminRole",
          "type": "bytes32"
        }
      ],
      "name": "RoleAdminChanged",
      "type": "event"
    },
    {
      "anonymous": false,
      "inputs": [
        {
          "indexed": true,
          "internalType": "bytes32",
          "name": "role",
          "type": "bytes32"
        },
        {
          "indexed": true,
          "internalType": "address",
          "name": "account",
          "type": "address"
        },
        {
          "indexed": true,
          "internalType": "address",
          "name": "sender",
          "type": "address"
        }
      ],
      "name": "RoleGranted",
      "type": "event"
    },
    {
      "anonymous": false,
      "inputs": [
        {
          "indexed": true,
          "internalType": "bytes32",
          "name": "role",
          "type": "bytes32"
        },
        {
          "indexed": true,
          "internalType": "address",
          "name": "account",
          "type": "address"
        },
        {
          "indexed": true,
          "internalType": "address",
          "name": "sender",
          "type": "address"
        }
      ],
      "name": "RoleRevoked",
      "type": "event"
    },
    {
      "anonymous": false,
      "inputs": [
        {
          "indexed": true,
          "internalType": "address",
          "name": "from",
          "type": "address"
        },
        {
          "indexed": true,
          "internalType": "address",
          "name": "to",
          "type": "address"
        },
        {
          "indexed": true,
          "internalType": "uint256",
          "name": "tokenId",
          "type": "uint256"
        }
      ],
      "name": "Transfer",
      "type": "event"
    },
    {
      "inputs": [],
      "name": "CREATOR",
      "outputs": [
        {
          "internalType": "bytes32",
          "name": "",
          "type": "bytes32"
        }
      ],
      "stateMutability": "view",
      "type": "function"
    },
    {
      "inputs": [],
      "name": "DEFAULT_ADMIN_ROLE",
      "outputs": [
        {
          "internalType": "bytes32",
          "name": "",
          "type": "bytes32"
        }
      ],
      "stateMutability": "view",
      "type": "function"
    },
    {
      "inputs": [],
      "name": "MINTER",
      "outputs": [
        {
          "internalType": "bytes32",
          "name": "",
          "type": "bytes32"
        }
      ],
      "stateMutability": "view",
      "type": "function"
    },
    {
      "inputs": [],
      "name": "TRADER",
      "outputs": [
        {
          "internalType": "bytes32",
          "name": "",
          "type": "bytes32"
        }
      ],
      "stateMutability": "view",
      "type": "function"
    },
    {
      "inputs": [
        {
          "internalType": "address",
          "name": "to",
          "type": "address"
        },
        {
          "internalType": "uint256",
          "name": "tokenId",
          "type": "uint256"
        }
      ],
      "name": "approve",
      "outputs": [],
      "stateMutability": "nonpayable",
      "type": "function"
    },
    {
      "inputs": [
        {
          "internalType": "address",
          "name": "owner",
          "type": "address"
        }
      ],
      "name": "balanceOf",
      "outputs": [
        {
          "internalType": "uint256",
          "name": "",
          "type": "uint256"
        }
      ],
      "stateMutability": "view",
      "type": "function"
    },
    {
      "inputs": [
        {
          "internalType": "uint256",
          "name": "productIndex",
          "type": "uint256"
        },
        {
          "internalType": "uint256",
          "name": "startingToken",
          "type": "uint256"
        },
        {
          "internalType": "uint256",
          "name": "endingToken",
          "type": "uint256"
        }
      ],
      "name": "canCreateLock",
      "outputs": [
        {
          "internalType": "bool",
          "name": "canCreate",
          "type": "bool"
        }
      ],
      "stateMutability": "view",
      "type": "function"
    },
    {
      "inputs": [
        {
          "internalType": "string",
          "name": "_collectionName",
          "type": "string"
        },
        {
          "internalType": "uint256",
          "name": "_copies",
          "type": "uint256"
        }
      ],
      "name": "createCollection",
      "outputs": [],
      "stateMutability": "nonpayable",
      "type": "function"
    },
    {
      "inputs": [
        {
          "internalType": "uint256",
          "name": "collectionIndex",
          "type": "uint256"
        },
        {
          "internalType": "uint256",
          "name": "_startingToken",
          "type": "uint256"
        },
        {
          "internalType": "uint256",
          "name": "_endingToken",
          "type": "uint256"
        },
        {
          "internalType": "uint256",
          "name": "_lockedTokens",
          "type": "uint256"
        }
      ],
      "name": "createRangeLock",
      "outputs": [],
      "stateMutability": "nonpayable",
      "type": "function"
    },
    {
      "inputs": [
        {
          "internalType": "uint256",
          "name": "tokenId",
          "type": "uint256"
        }
      ],
      "name": "getApproved",
      "outputs": [
        {
          "internalType": "address",
          "name": "",
          "type": "address"
        }
      ],
      "stateMutability": "view",
      "type": "function"
    },
    {
      "inputs": [
        {
          "internalType": "uint256",
          "name": "index",
          "type": "uint256"
        }
      ],
      "name": "getCollection",
      "outputs": [
        {
          "internalType": "uint256",
          "name": "startingToken",
          "type": "uint256"
        },
        {
          "internalType": "uint256",
          "name": "endingToken",
          "type": "uint256"
        },
        {
          "internalType": "uint256",
          "name": "mintableTokensLeft",
          "type": "uint256"
        },
        {
          "internalType": "string",
          "name": "collectionName",
          "type": "string"
        },
        {
          "internalType": "uint256[]",
          "name": "locks",
          "type": "uint256[]"
        }
      ],
      "stateMutability": "view",
      "type": "function"
    },
    {
      "inputs": [],
      "name": "getCollectionCount",
      "outputs": [
        {
          "internalType": "uint256",
          "name": "",
          "type": "uint256"
        }
      ],
      "stateMutability": "view",
      "type": "function"
    },
    {
      "inputs": [
        {
          "internalType": "uint256",
          "name": "index",
          "type": "uint256"
        }
      ],
      "name": "getLockedRange",
      "outputs": [
        {
          "internalType": "uint256",
          "name": "startingToken",
          "type": "uint256"
        },
        {
          "internalType": "uint256",
          "name": "endingToken",
          "type": "uint256"
        },
        {
          "internalType": "uint256",
          "name": "countToUnlock",
          "type": "uint256"
        },
        {
          "internalType": "uint256",
          "name": "collectionIndex",
          "type": "uint256"
        }
      ],
      "stateMutability": "view",
      "type": "function"
    },
    {
      "inputs": [
        {
          "internalType": "uint256",
          "name": "collectionID",
          "type": "uint256"
        },
        {
          "internalType": "uint256",
          "name": "startingIndex",
          "type": "uint256"
        },
        {
          "internalType": "uint256",
          "name": "endingIndex",
          "type": "uint256"
        }
      ],
      "name": "getNextSequentialIndex",
      "outputs": [
        {
          "internalType": "uint256",
          "name": "nextIndex",
          "type": "uint256"
        }
      ],
      "stateMutability": "view",
      "type": "function"
    },
    {
      "inputs": [
        {
          "internalType": "bytes32",
          "name": "role",
          "type": "bytes32"
        }
      ],
      "name": "getRoleAdmin",
      "outputs": [
        {
          "internalType": "bytes32",
          "name": "",
          "type": "bytes32"
        }
      ],
      "stateMutability": "view",
      "type": "function"
    },
    {
      "inputs": [
        {
          "internalType": "bytes32",
          "name": "role",
          "type": "bytes32"
        },
        {
          "internalType": "uint256",
          "name": "index",
          "type": "uint256"
        }
      ],
      "name": "getRoleMember",
      "outputs": [
        {
          "internalType": "address",
          "name": "",
          "type": "address"
        }
      ],
      "stateMutability": "view",
      "type": "function"
    },
    {
      "inputs": [
        {
          "internalType": "bytes32",
          "name": "role",
          "type": "bytes32"
        }
      ],
      "name": "getRoleMemberCount",
      "outputs": [
        {
          "internalType": "uint256",
          "name": "",
          "type": "uint256"
        }
      ],
      "stateMutability": "view",
      "type": "function"
    },
    {
      "inputs": [
        {
          "internalType": "bytes32",
          "name": "role",
          "type": "bytes32"
        },
        {
          "internalType": "address",
          "name": "account",
          "type": "address"
        }
      ],
      "name": "grantRole",
      "outputs": [],
      "stateMutability": "nonpayable",
      "type": "function"
    },
    {
      "inputs": [
        {
          "internalType": "bytes32",
          "name": "role",
          "type": "bytes32"
        },
        {
          "internalType": "address",
          "name": "account",
          "type": "address"
        }
      ],
      "name": "hasRole",
      "outputs": [
        {
          "internalType": "bool",
          "name": "",
          "type": "bool"
        }
      ],
      "stateMutability": "view",
      "type": "function"
    },
    {
      "inputs": [
        {
          "internalType": "address",
          "name": "owner",
          "type": "address"
        },
        {
          "internalType": "uint256",
          "name": "collectionIndex",
          "type": "uint256"
        }
      ],
      "name": "hasTokenInCollection",
      "outputs": [
        {
          "internalType": "bool",
          "name": "",
          "type": "bool"
        }
      ],
      "stateMutability": "view",
      "type": "function"
    },
    {
      "inputs": [
        {
          "internalType": "address",
          "name": "owner",
          "type": "address"
        },
        {
          "internalType": "address",
          "name": "operator",
          "type": "address"
        }
      ],
      "name": "isApprovedForAll",
      "outputs": [
        {
          "internalType": "bool",
          "name": "",
          "type": "bool"
        }
      ],
      "stateMutability": "view",
      "type": "function"
    },
    {
      "inputs": [
        {
          "internalType": "uint256",
          "name": "_tokenId",
          "type": "uint256"
        }
      ],
      "name": "isTokenLocked",
      "outputs": [
        {
          "internalType": "bool",
          "name": "",
          "type": "bool"
        }
      ],
      "stateMutability": "view",
      "type": "function"
    },
    {
      "inputs": [
        {
          "internalType": "address",
          "name": "to",
          "type": "address"
        },
        {
          "internalType": "uint256",
          "name": "collectionID",
          "type": "uint256"
        },
        {
          "internalType": "uint256",
          "name": "indexInCollection",
          "type": "uint256"
        }
      ],
      "name": "mint",
      "outputs": [],
      "stateMutability": "nonpayable",
      "type": "function"
    },
    {
      "inputs": [],
      "name": "name",
      "outputs": [
        {
          "internalType": "string",
          "name": "",
          "type": "string"
        }
      ],
      "stateMutability": "view",
      "type": "function"
    },
    {
      "inputs": [
        {
          "internalType": "uint256",
          "name": "tokenId",
          "type": "uint256"
        }
      ],
      "name": "ownerOf",
      "outputs": [
        {
          "internalType": "address",
          "name": "",
          "type": "address"
        }
      ],
      "stateMutability": "view",
      "type": "function"
    },
    {
      "inputs": [
        {
          "internalType": "bytes32",
          "name": "role",
          "type": "bytes32"
        },
        {
          "internalType": "address",
          "name": "account",
          "type": "address"
        }
      ],
      "name": "renounceRole",
      "outputs": [],
      "stateMutability": "nonpayable",
      "type": "function"
    },
    {
      "inputs": [
        {
          "internalType": "bytes32",
          "name": "role",
          "type": "bytes32"
        },
        {
          "internalType": "address",
          "name": "account",
          "type": "address"
        }
      ],
      "name": "revokeRole",
      "outputs": [],
      "stateMutability": "nonpayable",
      "type": "function"
    },
    {
      "inputs": [
        {
          "internalType": "uint256",
          "name": "_tokenId",
          "type": "uint256"
        },
        {
          "internalType": "uint256",
          "name": "_salePrice",
          "type": "uint256"
        }
      ],
      "name": "royaltyInfo",
      "outputs": [
        {
          "internalType": "address",
          "name": "receiver",
          "type": "address"
        },
        {
          "internalType": "uint256",
          "name": "royaltyAmount",
          "type": "uint256"
        }
      ],
      "stateMutability": "view",
      "type": "function"
    },
    {
      "inputs": [
        {
          "internalType": "address",
          "name": "from",
          "type": "address"
        },
        {
          "internalType": "address",
          "name": "to",
          "type": "address"
        },
        {
          "internalType": "uint256",
          "name": "tokenId",
          "type": "uint256"
        }
      ],
      "name": "safeTransferFrom",
      "outputs": [],
      "stateMutability": "nonpayable",
      "type": "function"
    },
    {
      "inputs": [
        {
          "internalType": "address",
          "name": "from",
          "type": "address"
        },
        {
          "internalType": "address",
          "name": "to",
          "type": "address"
        },
        {
          "internalType": "uint256",
          "name": "tokenId",
          "type": "uint256"
        },
        {
          "internalType": "bytes",
          "name": "_data",
          "type": "bytes"
        }
      ],
      "name": "safeTransferFrom",
      "outputs": [],
      "stateMutability": "nonpayable",
      "type": "function"
    },
    {
      "inputs": [
        {
          "internalType": "address",
          "name": "operator",
          "type": "address"
        },
        {
          "internalType": "bool",
          "name": "approved",
          "type": "bool"
        }
      ],
      "name": "setApprovalForAll",
      "outputs": [],
      "stateMutability": "nonpayable",
      "type": "function"
    },
    {
      "inputs": [
        {
          "internalType": "bytes4",
          "name": "interfaceId",
          "type": "bytes4"
        }
      ],
      "name": "supportsInterface",
      "outputs": [
        {
          "internalType": "bool",
          "name": "",
          "type": "bool"
        }
      ],
      "stateMutability": "view",
      "type": "function"
    },
    {
      "inputs": [],
      "name": "symbol",
      "outputs": [
        {
          "internalType": "string",
          "name": "",
          "type": "string"
        }
      ],
      "stateMutability": "view",
      "type": "function"
    },
    {
      "inputs": [
        {
          "internalType": "uint256",
          "name": "index",
          "type": "uint256"
        }
      ],
      "name": "tokenByIndex",
      "outputs": [
        {
          "internalType": "uint256",
          "name": "",
          "type": "uint256"
        }
      ],
      "stateMutability": "view",
      "type": "function"
    },
    {
      "inputs": [
        {
          "internalType": "address",
          "name": "owner",
          "type": "address"
        },
        {
          "internalType": "uint256",
          "name": "index",
          "type": "uint256"
        }
      ],
      "name": "tokenOfOwnerByIndex",
      "outputs": [
        {
          "internalType": "uint256",
          "name": "",
          "type": "uint256"
        }
      ],
      "stateMutability": "view",
      "type": "function"
    },
    {
      "inputs": [
        {
          "internalType": "uint256",
          "name": "",
          "type": "uint256"
        }
      ],
      "name": "tokenToCollection",
      "outputs": [
        {
          "internalType": "uint256",
          "name": "",
          "type": "uint256"
        }
      ],
      "stateMutability": "view",
      "type": "function"
    },
    {
      "inputs": [
        {
          "internalType": "uint256",
          "name": "token",
          "type": "uint256"
        }
      ],
      "name": "tokenToCollectionIndex",
      "outputs": [
        {
          "internalType": "uint256",
          "name": "tokenIndex",
          "type": "uint256"
        }
      ],
      "stateMutability": "view",
      "type": "function"
    },
    {
      "inputs": [
        {
          "internalType": "uint256",
          "name": "tokenId",
          "type": "uint256"
        }
      ],
      "name": "tokenURI",
      "outputs": [
        {
          "internalType": "string",
          "name": "",
          "type": "string"
        }
      ],
      "stateMutability": "view",
      "type": "function"
    },
    {
      "inputs": [],
      "name": "totalSupply",
      "outputs": [
        {
          "internalType": "uint256",
          "name": "",
          "type": "uint256"
        }
      ],
      "stateMutability": "view",
      "type": "function"
    },
    {
      "inputs": [
        {
          "internalType": "address",
          "name": "from",
          "type": "address"
        },
        {
          "internalType": "address",
          "name": "to",
          "type": "address"
        },
        {
          "internalType": "uint256",
          "name": "tokenId",
          "type": "uint256"
        }
      ],
      "name": "transferFrom",
      "outputs": [],
      "stateMutability": "nonpayable",
      "type": "function"
    }
  ],
  "bytecode": "0x60806040523480156200001157600080fd5b50604051620042f1380380620042f18339810160408190526200003491620003ea565b82604051806040016040528060048152602001632920a4a960e11b81525081600090805190602001906200006a92919062000314565b5080516200008090600190602084019062000314565b5050601080546001600160b01b0319163361ffff60a01b191617600160a01b61ffff85160217905550620000d3600080516020620042b18339815191526000805160206200429183398151915262000157565b620000fd600080516020620042d18339815191526000805160206200429183398151915262000157565b620001186000805160206200429183398151915283620001ab565b62000133600080516020620042b183398151915283620001ab565b6200014e600080516020620042d183398151915283620001ab565b50505062000540565b6000828152600a6020526040902060010154819060405184907fbd79b86ffe0ab8e8776151514217cd7cacd52c909f66475c3af44e129f0b00ff90600090a46000918252600a602052604090912060010155565b620001c28282620001ee60201b6200216c1760201c565b6000828152600b60209081526040909120620001e99183906200217a620001fe821b17901c565b505050565b620001fa82826200021e565b5050565b600062000215836001600160a01b038416620002c2565b90505b92915050565b6000828152600a602090815260408083206001600160a01b038516845290915290205460ff16620001fa576000828152600a602090815260408083206001600160a01b03851684529091529020805460ff191660011790556200027e3390565b6001600160a01b0316816001600160a01b0316837f2f8788117e7eff1d82e926ec794901d17c78024a50270940304540a733656f0d60405160405180910390a45050565b60008181526001830160205260408120546200030b5750815460018181018455600084815260208082209093018490558454848252828601909352604090209190915562000218565b50600062000218565b8280546200032290620004ed565b90600052602060002090601f01602090048101928262000346576000855562000391565b82601f106200036157805160ff191683800117855562000391565b8280016001018555821562000391579182015b828111156200039157825182559160200191906001019062000374565b506200039f929150620003a3565b5090565b5b808211156200039f5760008155600101620003a4565b80516001600160a01b0381168114620003d257600080fd5b919050565b805161ffff81168114620003d257600080fd5b6000806000606084860312156200040057600080fd5b83516001600160401b03808211156200041857600080fd5b818601915086601f8301126200042d57600080fd5b8151818111156200044257620004426200052a565b604051601f8201601f19908116603f011681019083821181831017156200046d576200046d6200052a565b816040528281526020935089848487010111156200048a57600080fd5b600091505b82821015620004ae57848201840151818301850152908301906200048f565b82821115620004c05760008484830101525b9650620004d2915050868201620003ba565b93505050620004e460408501620003d7565b90509250925092565b600181811c908216806200050257607f821691505b602082108114156200052457634e487b7160e01b600052602260045260246000fd5b50919050565b634e487b7160e01b600052604160045260246000fd5b613d4180620005506000396000f3fe608060405234801561001057600080fd5b50600436106102c85760003560e01c80635a1f3c281161017b578063a22cb465116100d8578063ca15c8731161008c578063e4fbb60911610071578063e4fbb60914610646578063e985e9c51461066d578063fe6d81241461068057600080fd5b8063ca15c87314610620578063d547741f1461063357600080fd5b8063b88d4fde116100bd578063b88d4fde146105e7578063bda5ec33146105fa578063c87b56dd1461060d57600080fd5b8063a22cb465146105c1578063ab9aae35146105d457600080fd5b80639010d07c1161012f57806395d89b411161011457806395d89b411461059e57806397099fb2146105a6578063a217fddf146105b957600080fd5b80639010d07c1461055257806391d148541461056557600080fd5b806364d541511161016057806364d54151146104f957806370a082311461050c578063876654a01461051f57600080fd5b80635a1f3c28146104c25780636352211e146104e657600080fd5b806323b872dd116102295780632f745c59116101dd5780633d42f206116101c25780633d42f2061461048957806342842e0e1461049c5780634f6ccce7146104af57600080fd5b80632f745c591461046357806336568abe1461047657600080fd5b8063276a28a31161020e578063276a28a31461040b5780632a55205a1461041e5780632f2ff15d1461045057600080fd5b806323b872dd146103d5578063248a9ca3146103e857600080fd5b806315a182411161028057806318160ddd1161026557806318160ddd146103a5578063195f78ae146103ad5780631c10106f146103cd57600080fd5b806315a182411461035d578063175c4ef81461037057600080fd5b8063081812fc116102b1578063081812fc1461030a578063095ea7b314610335578063156e29f61461034a57600080fd5b806301ffc9a7146102cd57806306fdde03146102f5575b600080fd5b6102e06102db3660046137e5565b6106a7565b60405190151581526020015b60405180910390f35b6102fd6106eb565b6040516102ec9190613a8e565b61031d610318366004613787565b61077d565b6040516001600160a01b0390911681526020016102ec565b61034861034336600461372a565b610817565b005b610348610358366004613754565b610949565b61034861036b3660046138a4565b610cda565b6103977f872340a532bdd7bb02bea115c1b0f1ba87eac982f5b79b51ac189ffaac1b6fce81565b6040519081526020016102ec565b600854610397565b6103976103bb366004613787565b600f6020526000908152604090205481565b600e54610397565b6103486103e3366004613636565b61107d565b6103976103f6366004613787565b6000908152600a602052604090206001015490565b6102e0610419366004613787565b611104565b61043161042c3660046137c3565b61118a565b604080516001600160a01b0390931683526020830191909152016102ec565b61034861045e3660046137a0565b6111fb565b61039761047136600461372a565b61121d565b6103486104843660046137a0565b6112c5565b6102e0610497366004613878565b6112e7565b6103486104aa366004613636565b6114ed565b6103976104bd366004613787565b611508565b6104d56104d0366004613787565b6115ac565b6040516102ec959493929190613ad6565b61031d6104f4366004613787565b611715565b61034861050736600461381f565b6117a0565b61039761051a3660046135e8565b6118dd565b61053261052d366004613787565b611977565b6040805194855260208501939093529183015260608201526080016102ec565b61031d6105603660046137c3565b611b4e565b6102e06105733660046137a0565b6000918252600a602090815260408084206001600160a01b0393909316845291905290205460ff1690565b6102fd611b66565b6102e06105b436600461372a565b611b75565b610397600081565b6103486105cf3660046136ee565b611bd3565b6103976105e2366004613787565b611c98565b6103486105f5366004613672565b611cd9565b610397610608366004613878565b611d67565b6102fd61061b366004613787565b611fe7565b61039761062e366004613787565b6120dc565b6103486106413660046137a0565b6120f3565b6103977f3c2519c4487d47714872f92cf90a50c25f5deaec2789dc2a497b1272df611db681565b6102e061067b366004613603565b6120fd565b6103977ff0887ba65ee2024ea881d91b74c2450ef19e1557f03bed3ea9f16b037cbe2dc981565b60006001600160e01b031982167f2baae9fd0000000000000000000000000000000000000000000000000000000014806106e557506106e58261218f565b92915050565b6060600080546106fa90613c1a565b80601f016020809104026020016040519081016040528092919081815260200182805461072690613c1a565b80156107735780601f1061074857610100808354040283529160200191610773565b820191906000526020600020905b81548152906001019060200180831161075657829003601f168201915b5050505050905090565b6000818152600260205260408120546001600160a01b03166107fb5760405162461bcd60e51b815260206004820152602c60248201527f4552433732313a20617070726f76656420717565727920666f72206e6f6e657860448201526b34b9ba32b73a103a37b5b2b760a11b60648201526084015b60405180910390fd5b506000908152600460205260409020546001600160a01b031690565b600061082282611715565b9050806001600160a01b0316836001600160a01b031614156108ac5760405162461bcd60e51b815260206004820152602160248201527f4552433732313a20617070726f76616c20746f2063757272656e74206f776e6560448201527f720000000000000000000000000000000000000000000000000000000000000060648201526084016107f2565b336001600160a01b03821614806108c857506108c881336120fd565b61093a5760405162461bcd60e51b815260206004820152603860248201527f4552433732313a20617070726f76652063616c6c6572206973206e6f74206f7760448201527f6e6572206e6f7220617070726f76656420666f7220616c6c000000000000000060648201526084016107f2565b61094483836121cd565b505050565b7ff0887ba65ee2024ea881d91b74c2450ef19e1557f03bed3ea9f16b037cbe2dc96109748133612248565b600e54839081106109d65760405162461bcd60e51b815260206004820152602660248201527f52414952204552433732313a20436f6c6c656374696f6e20646f6573206e6f7460448201526508195e1a5cdd60d21b60648201526084016107f2565b6000600e85815481106109eb576109eb613cc6565b9060005260206000209060050201905080600001548160010154610a0f9190613bc0565b841115610a5e5760405162461bcd60e51b815260206004820181905260248201527f52414952204552433732313a20496e76616c696420746f6b656e20696e64657860448201526064016107f2565b610a7786858360000154610a729190613b75565b6122c8565b84600f6000868460000154610a8c9190613b75565b815260200190815260200160002081905550806002016000815480929190610ab390613c03565b9091555060009050805b6004830154811015610c8b578254610ad6908790613b75565b600d846004018381548110610aed57610aed613cc6565b906000526020600020015481548110610b0857610b08613cc6565b90600052602060002090600402016000015411158015610b7757508254610b30908790613b75565b600d846004018381548110610b4757610b47613cc6565b906000526020600020015481548110610b6257610b62613cc6565b90600052602060002090600402016001015410155b15610c7957600d836004018281548110610b9357610b93613cc6565b906000526020600020015481548110610bae57610bae613cc6565b90600052602060002090600402019150826004018181548110610bd357610bd3613cc6565b9060005260206000200154600c6000888660000154610bf29190613b75565b8152602081019190915260400160002055600282015415610c7457600282018054906000610c1f83613c03565b90915550506002820154610c745781546001830154604080518a815260208101939093528201527fd3edbeb94dfb8eadcd8c291774b9ac3cc9b06af829273e295bf3197849934b889060600160405180910390a15b610c8b565b80610c8381613c55565b915050610abd565b506002820154610cd157857f3ab828a3fee3d542c87fb145e900664325100c3c0b2e2a2cca38685b6de1b27183600301604051610cc89190613ac3565b60405180910390a25b50505050505050565b7f3c2519c4487d47714872f92cf90a50c25f5deaec2789dc2a497b1272df611db6610d058133612248565b600e5485908110610d675760405162461bcd60e51b815260206004820152602660248201527f52414952204552433732313a20436f6c6c656374696f6e20646f6573206e6f7460448201526508195e1a5cdd60d21b60648201526084016107f2565b6000600e8781548110610d7c57610d7c613cc6565b906000526020600020906005020190508060010154858260000154610da19190613b75565b1115610e155760405162461bcd60e51b815260206004820152602160248201527f52414952204552433732313a20496e76616c696420656e64696e6720746f6b6560448201527f6e0000000000000000000000000000000000000000000000000000000000000060648201526084016107f2565b80546001820154610e269190613bc0565b610e308787613bc0565b1115610ea45760405162461bcd60e51b815260206004820152602160248201527f52414952204552433732313a20496e76616c696420746f6b656e206c696d697460448201527f730000000000000000000000000000000000000000000000000000000000000060648201526084016107f2565b83610eaf8787613bc0565b610eba906001613b75565b1015610f2e5760405162461bcd60e51b815260206004820152602d60248201527f52414952204552433732313a20496e76616c6964206e756d626572206f66207460448201527f6f6b656e7320746f206c6f636b0000000000000000000000000000000000000060648201526084016107f2565b610f398787876112e7565b610f855760405162461bcd60e51b815260206004820152601f60248201527f52414952204552433732313a2043616e6e6f7420637265617465206c6f636b0060448201526064016107f2565b600d8054600181018255600091909152815460049091027fd7b6990105719101dabeb77144f2a3385c8033acd3af97e9423a695e81ad1eb50190610fca908890613b75565b81558154610fd9908790613b75565b6001808301919091556002820186905560038201899055600d54600484019161100191613bc0565b8154600181018355600092835260209092209091015581547f0b8fece546364ce1dcadcf45028659aff64e7a166d735eb32da27050fd520f69908990611048908a90613b75565b8454611055908a90613b75565b888660030160405161106b959493929190613b3f565b60405180910390a15050505050505050565b61108733826122e2565b6110f95760405162461bcd60e51b815260206004820152603160248201527f4552433732313a207472616e736665722063616c6c6572206973206e6f74206f60448201527f776e6572206e6f7220617070726f76656400000000000000000000000000000060648201526084016107f2565b6109448383836123b9565b6000818152600f6020908152604080832054600c909252822054600d8054909190811061113357611133613cc6565b9060005260206000209060040201600301541480156106e557506000828152600c6020526040812054600d8054909190811061117157611171613cc6565b9060005260206000209060040201600201541192915050565b6000806111b87f3c2519c4487d47714872f92cf90a50c25f5deaec2789dc2a497b1272df611db66000611b4e565b601054620186a0906111e69074010000000000000000000000000000000000000000900461ffff1686613ba1565b6111f09190613b8d565b915091509250929050565b611205828261259e565b6000828152600b60205260409020610944908261217a565b6000611228836118dd565b821061129c5760405162461bcd60e51b815260206004820152602b60248201527f455243373231456e756d657261626c653a206f776e657220696e646578206f7560448201527f74206f6620626f756e647300000000000000000000000000000000000000000060648201526084016107f2565b506001600160a01b03919091166000908152600660209081526040808320938352929052205490565b6112cf82826125c4565b6000828152600b60205260409020610944908261264c565b600080600e85815481106112fd576112fd613cc6565b90600052602060002090600502019050806000015481600101546113219190613bc0565b84118061133d57508054600182015461133a9190613bc0565b83115b1561134c5760009150506114e6565b60005b60048201548110156114df578154611368908690613b75565b600d83600401838154811061137f5761137f613cc6565b90600052602060002001548154811061139a5761139a613cc6565b90600052602060002090600402016000015411158015611409575081546113c2908690613b75565b600d8360040183815481106113d9576113d9613cc6565b9060005260206000200154815481106113f4576113f4613cc6565b90600052602060002090600402016001015410155b806114bd5750815461141c908590613b75565b600d83600401838154811061143357611433613cc6565b90600052602060002001548154811061144e5761144e613cc6565b906000526020600020906004020160000154111580156114bd57508154611476908590613b75565b600d83600401838154811061148d5761148d613cc6565b9060005260206000200154815481106114a8576114a8613cc6565b90600052602060002090600402016001015410155b156114cd576000925050506114e6565b806114d781613c55565b91505061134f565b5060019150505b9392505050565b61094483838360405180602001604052806000815250611cd9565b600061151360085490565b82106115875760405162461bcd60e51b815260206004820152602c60248201527f455243373231456e756d657261626c653a20676c6f62616c20696e646578206f60448201527f7574206f6620626f756e6473000000000000000000000000000000000000000060648201526084016107f2565b6008828154811061159a5761159a613cc6565b90600052602060002001549050919050565b60008060006060806000600e87815481106115c9576115c9613cc6565b90600052602060002090600502016040518060a001604052908160008201548152602001600182015481526020016002820154815260200160038201805461161090613c1a565b80601f016020809104026020016040519081016040528092919081815260200182805461163c90613c1a565b80156116895780601f1061165e57610100808354040283529160200191611689565b820191906000526020600020905b81548152906001019060200180831161166c57829003601f168201915b50505050508152602001600482018054806020026020016040519081016040528092919081815260200182805480156116e157602002820191906000526020600020905b8154815260200190600101908083116116cd575b5050509190925250508151602083015160408401516060850151608090950151929c919b5099509297509550909350505050565b6000818152600260205260408120546001600160a01b0316806106e55760405162461bcd60e51b815260206004820152602960248201527f4552433732313a206f776e657220717565727920666f72206e6f6e657869737460448201527f656e7420746f6b656e000000000000000000000000000000000000000000000060648201526084016107f2565b7f3c2519c4487d47714872f92cf90a50c25f5deaec2789dc2a497b1272df611db66117cb8133612248565b600e546000901561181957600e80546117e690600190613bc0565b815481106117f6576117f6613cc6565b90600052602060002090600502016001015460016118149190613b75565b61181c565b60005b600e8054600181810183556000929092526005027fbb7b4a454dc3493923482f07822329ed19e8244eff582cc204f8554c3620c3fd018281559192506118628584613b75565b61186c9190613bc0565b6001820155845161188690600383019060208801906134bd565b5060028101849055600e5461189d90600190613bc0565b7f9ae7dd5dbfc3938737af70872685a3fb26f364d20134cd30be25108122626a1786866040516118ce929190613aa1565b60405180910390a25050505050565b60006001600160a01b03821661195b5760405162461bcd60e51b815260206004820152602a60248201527f4552433732313a2062616c616e636520717565727920666f7220746865207a6560448201527f726f20616464726573730000000000000000000000000000000000000000000060648201526084016107f2565b506001600160a01b031660009081526003602052604090205490565b6000806000806000600d868154811061199257611992613cc6565b906000526020600020906004020160405180608001604052908160008201548152602001600182015481526020016002820154815260200160038201548152505090506000600e8260600151815481106119ee576119ee613cc6565b90600052602060002090600502016040518060a0016040529081600082015481526020016001820154815260200160028201548152602001600382018054611a3590613c1a565b80601f0160208091040260200160405190810160405280929190818152602001828054611a6190613c1a565b8015611aae5780601f10611a8357610100808354040283529160200191611aae565b820191906000526020600020905b815481529060010190602001808311611a9157829003601f168201915b5050505050815260200160048201805480602002602001604051908101604052809291908181526020018280548015611b0657602002820191906000526020600020905b815481526020019060010190808311611af2575b50505091909252505081518451929350611b2292909150613bc0565b81516020840151611b339190613bc0565b83604001518460600151955095509550955050509193509193565b6000828152600b602052604081206114e69083612661565b6060600180546106fa90613c1a565b6000805b611b82846118dd565b811015611bc95782600f6000611b98878561121d565b8152602001908152602001600020541415611bb75760019150506106e5565b80611bc181613c55565b915050611b79565b5060009392505050565b6001600160a01b038216331415611c2c5760405162461bcd60e51b815260206004820152601960248201527f4552433732313a20617070726f766520746f2063616c6c65720000000000000060448201526064016107f2565b3360008181526005602090815260408083206001600160a01b03871680855290835292819020805460ff191686151590811790915590519081529192917f17307eab39ab6107e8899845ad3d59bd9653f200f220920489ca2b5937696c31910160405180910390a35050565b6000818152600f6020526040812054600e80549091908110611cbc57611cbc613cc6565b906000526020600020906005020160000154826106e59190613bc0565b611ce333836122e2565b611d555760405162461bcd60e51b815260206004820152603160248201527f4552433732313a207472616e736665722063616c6c6572206973206e6f74206f60448201527f776e6572206e6f7220617070726f76656400000000000000000000000000000060648201526084016107f2565b611d618484848461266d565b50505050565b60008380600e8054905011611dcd5760405162461bcd60e51b815260206004820152602660248201527f52414952204552433732313a20436f6c6c656374696f6e20646f6573206e6f7460448201526508195e1a5cdd60d21b60648201526084016107f2565b6000600e8681548110611de257611de2613cc6565b90600052602060002090600502016040518060a0016040529081600082015481526020016001820154815260200160028201548152602001600382018054611e2990613c1a565b80601f0160208091040260200160405190810160405280929190818152602001828054611e5590613c1a565b8015611ea25780601f10611e7757610100808354040283529160200191611ea2565b820191906000526020600020905b815481529060010190602001808311611e8557829003601f168201915b5050505050815260200160048201805480602002602001604051908101604052809291908181526020018280548015611efa57602002820191906000526020600020905b815481526020019060010190808311611ee6575b50505050508152505090506000858260000151611f179190613b75565b90505b8151611f27908690613b75565b8111611f70576000818152600260205260409020546001600160a01b0316611f5e578151611f559082613bc0565b93505050611fdf565b80611f6881613c55565b915050611f1a565b5060405162461bcd60e51b815260206004820152603960248201527f52414952204552433732313a20546865726520617265206e6f20617661696c6160448201527f626c6520746f6b656e7320696e20746869732072616e67652e0000000000000060648201526084016107f2565b509392505050565b6000818152600260205260409020546060906001600160a01b03166120745760405162461bcd60e51b815260206004820152602f60248201527f4552433732314d657461646174613a2055524920717565727920666f72206e6f60448201527f6e6578697374656e7420746f6b656e000000000000000000000000000000000060648201526084016107f2565b600061208b60408051602081019091526000815290565b905060008151116120ab57604051806020016040528060008152506114e6565b806120b5846126eb565b6040516020016120c69291906139a2565b6040516020818303038152906040529392505050565b6000818152600b602052604081206106e5906127e9565b6112cf82826127f3565b6001600160a01b03811660009081527f4e6e614aa308bd78bac28541285c453cfb7abbecc03cb60a1e70ec8347070f98602052604081205460ff16806114e657506001600160a01b0380841660009081526005602090815260408083209386168352929052205460ff166114e6565b6121768282612819565b5050565b60006114e6836001600160a01b0384166128bb565b60006001600160e01b031982167f5a05180f0000000000000000000000000000000000000000000000000000000014806106e557506106e58261290a565b6000818152600460205260409020805473ffffffffffffffffffffffffffffffffffffffff19166001600160a01b038416908117909155819061220f82611715565b6001600160a01b03167f8c5be1e5ebec7d5bd14f71427d1e84f3dd0314c0f7b2291e5b200ac8c7c3b92560405160405180910390a45050565b6000828152600a602090815260408083206001600160a01b038516845290915290205460ff1661217657612286816001600160a01b03166014612948565b612291836020612948565b6040516020016122a29291906139d1565b60408051601f198184030181529082905262461bcd60e51b82526107f291600401613a8e565b612176828260405180602001604052806000815250612b0d565b6000818152600260205260408120546001600160a01b031661235b5760405162461bcd60e51b815260206004820152602c60248201527f4552433732313a206f70657261746f7220717565727920666f72206e6f6e657860448201526b34b9ba32b73a103a37b5b2b760a11b60648201526084016107f2565b600061236683611715565b9050806001600160a01b0316846001600160a01b031614806123a15750836001600160a01b03166123968461077d565b6001600160a01b0316145b806123b157506123b181856120fd565b949350505050565b826001600160a01b03166123cc82611715565b6001600160a01b0316146124485760405162461bcd60e51b815260206004820152602960248201527f4552433732313a207472616e73666572206f6620746f6b656e2074686174206960448201527f73206e6f74206f776e000000000000000000000000000000000000000000000060648201526084016107f2565b6001600160a01b0382166124c35760405162461bcd60e51b8152602060048201526024808201527f4552433732313a207472616e7366657220746f20746865207a65726f2061646460448201527f726573730000000000000000000000000000000000000000000000000000000060648201526084016107f2565b6124ce838383612b8b565b6124d96000826121cd565b6001600160a01b0383166000908152600360205260408120805460019290612502908490613bc0565b90915550506001600160a01b0382166000908152600360205260408120805460019290612530908490613b75565b9091555050600081815260026020526040808220805473ffffffffffffffffffffffffffffffffffffffff19166001600160a01b0386811691821790925591518493918716917fddf252ad1be2c89b69c2b068fc378daa952ba7f163c4a11628f55a4df523b3ef91a4505050565b6000828152600a60205260409020600101546125ba8133612248565b6109448383612819565b6001600160a01b03811633146126425760405162461bcd60e51b815260206004820152602f60248201527f416363657373436f6e74726f6c3a2063616e206f6e6c792072656e6f756e636560448201527f20726f6c657320666f722073656c66000000000000000000000000000000000060648201526084016107f2565b6121768282612cd8565b60006114e6836001600160a01b038416612d5b565b60006114e68383612e48565b6126788484846123b9565b61268484848484612ee9565b611d615760405162461bcd60e51b815260206004820152603260248201527f4552433732313a207472616e7366657220746f206e6f6e20455243373231526560448201527131b2b4bb32b91034b6b83632b6b2b73a32b960711b60648201526084016107f2565b60608161270f5750506040805180820190915260018152600360fc1b602082015290565b8160005b8115612739578061272381613c55565b91506127329050600a83613b8d565b9150612713565b60008167ffffffffffffffff81111561275457612754613cdc565b6040519080825280601f01601f19166020018201604052801561277e576020820181803683370190505b5090505b84156123b157612793600183613bc0565b91506127a0600a86613c70565b6127ab906030613b75565b60f81b8183815181106127c0576127c0613cc6565b60200101906001600160f81b031916908160001a9053506127e2600a86613b8d565b9450612782565b60006106e5825490565b6000828152600a602052604090206001015461280f8133612248565b6109448383612cd8565b6000828152600a602090815260408083206001600160a01b038516845290915290205460ff16612176576000828152600a602090815260408083206001600160a01b03851684529091529020805460ff191660011790556128773390565b6001600160a01b0316816001600160a01b0316837f2f8788117e7eff1d82e926ec794901d17c78024a50270940304540a733656f0d60405160405180910390a45050565b6000818152600183016020526040812054612902575081546001818101845560008481526020808220909301849055845484825282860190935260409020919091556106e5565b5060006106e5565b60006001600160e01b031982167f7965db0b0000000000000000000000000000000000000000000000000000000014806106e557506106e582613041565b60606000612957836002613ba1565b612962906002613b75565b67ffffffffffffffff81111561297a5761297a613cdc565b6040519080825280601f01601f1916602001820160405280156129a4576020820181803683370190505b509050600360fc1b816000815181106129bf576129bf613cc6565b60200101906001600160f81b031916908160001a9053507f780000000000000000000000000000000000000000000000000000000000000081600181518110612a0a57612a0a613cc6565b60200101906001600160f81b031916908160001a9053506000612a2e846002613ba1565b612a39906001613b75565b90505b6001811115612abe577f303132333435363738396162636465660000000000000000000000000000000085600f1660108110612a7a57612a7a613cc6565b1a60f81b828281518110612a9057612a90613cc6565b60200101906001600160f81b031916908160001a90535060049490941c93612ab781613c03565b9050612a3c565b5083156114e65760405162461bcd60e51b815260206004820181905260248201527f537472696e67733a20686578206c656e67746820696e73756666696369656e7460448201526064016107f2565b612b17838361307f565b612b246000848484612ee9565b6109445760405162461bcd60e51b815260206004820152603260248201527f4552433732313a207472616e7366657220746f206e6f6e20455243373231526560448201527131b2b4bb32b91034b6b83632b6b2b73a32b960711b60648201526084016107f2565b6001600160a01b03831615801590612bab57506001600160a01b03821615155b15612ccd576000818152600f6020908152604080832054600c90925290912054600d80549091908110612be057612be0613cc6565b9060005260206000209060040201600301541415612ca3576000818152600c6020526040902054600d80549091908110612c1c57612c1c613cc6565b906000526020600020906004020160020154600014612ca35760405162461bcd60e51b815260206004820152603a60248201527f52414952204552433732313a205472616e736665727320666f7220746869732060448201527f72616e6765206172652063757272656e746c79206c6f636b656400000000000060648201526084016107f2565b612ccd7f872340a532bdd7bb02bea115c1b0f1ba87eac982f5b79b51ac189ffaac1b6fce33612248565b6109448383836131da565b6000828152600a602090815260408083206001600160a01b038516845290915290205460ff1615612176576000828152600a602090815260408083206001600160a01b0385168085529252808320805460ff1916905551339285917ff6391f5c32d9c69d2a47ea670b442974b53935d1edc7fd64eb21e047a839171b9190a45050565b60008181526001830160205260408120548015612e3e576000612d7f600183613bc0565b8554909150600090612d9390600190613bc0565b90506000866000018281548110612dac57612dac613cc6565b9060005260206000200154905080876000018481548110612dcf57612dcf613cc6565b600091825260208083209091019290925582815260018901909152604090208490558654879080612e0257612e02613cb0565b600190038181906000526020600020016000905590558660010160008781526020019081526020016000206000905560019450505050506106e5565b60009150506106e5565b81546000908210612ec15760405162461bcd60e51b815260206004820152602260248201527f456e756d657261626c655365743a20696e646578206f7574206f6620626f756e60448201527f647300000000000000000000000000000000000000000000000000000000000060648201526084016107f2565b826000018281548110612ed657612ed6613cc6565b9060005260206000200154905092915050565b60006001600160a01b0384163b1561303657604051630a85bd0160e11b81526001600160a01b0385169063150b7a0290612f2d903390899088908890600401613a52565b602060405180830381600087803b158015612f4757600080fd5b505af1925050508015612f77575060408051601f3d908101601f19168201909252612f7491810190613802565b60015b61301c573d808015612fa5576040519150601f19603f3d011682016040523d82523d6000602084013e612faa565b606091505b5080516130145760405162461bcd60e51b815260206004820152603260248201527f4552433732313a207472616e7366657220746f206e6f6e20455243373231526560448201527131b2b4bb32b91034b6b83632b6b2b73a32b960711b60648201526084016107f2565b805181602001fd5b6001600160e01b031916630a85bd0160e11b1490506123b1565b506001949350505050565b60006001600160e01b031982167f780e9d630000000000000000000000000000000000000000000000000000000014806106e557506106e582613292565b6001600160a01b0382166130d55760405162461bcd60e51b815260206004820181905260248201527f4552433732313a206d696e7420746f20746865207a65726f206164647265737360448201526064016107f2565b6000818152600260205260409020546001600160a01b03161561313a5760405162461bcd60e51b815260206004820152601c60248201527f4552433732313a20746f6b656e20616c7265616479206d696e7465640000000060448201526064016107f2565b61314660008383612b8b565b6001600160a01b038216600090815260036020526040812080546001929061316f908490613b75565b9091555050600081815260026020526040808220805473ffffffffffffffffffffffffffffffffffffffff19166001600160a01b03861690811790915590518392907fddf252ad1be2c89b69c2b068fc378daa952ba7f163c4a11628f55a4df523b3ef908290a45050565b6001600160a01b0383166132355761323081600880546000838152600960205260408120829055600182018355919091527ff3f7a9fe364faab93b216da50a3214154f22a0a2b415b23a84c8169e8b636ee30155565b613258565b816001600160a01b0316836001600160a01b03161461325857613258838261332d565b6001600160a01b03821661326f57610944816133ca565b826001600160a01b0316826001600160a01b031614610944576109448282613479565b60006001600160e01b031982167f80ac58cd0000000000000000000000000000000000000000000000000000000014806132f557506001600160e01b031982167f5b5e139f00000000000000000000000000000000000000000000000000000000145b806106e557507f01ffc9a7000000000000000000000000000000000000000000000000000000006001600160e01b03198316146106e5565b6000600161333a846118dd565b6133449190613bc0565b600083815260076020526040902054909150808214613397576001600160a01b03841660009081526006602090815260408083208584528252808320548484528184208190558352600790915290208190555b5060009182526007602090815260408084208490556001600160a01b039094168352600681528383209183525290812055565b6008546000906133dc90600190613bc0565b6000838152600960205260408120546008805493945090928490811061340457613404613cc6565b90600052602060002001549050806008838154811061342557613425613cc6565b600091825260208083209091019290925582815260099091526040808220849055858252812055600880548061345d5761345d613cb0565b6001900381819060005260206000200160009055905550505050565b6000613484836118dd565b6001600160a01b039093166000908152600660209081526040808320868452825280832085905593825260079052919091209190915550565b8280546134c990613c1a565b90600052602060002090601f0160209004810192826134eb5760008555613531565b82601f1061350457805160ff1916838001178555613531565b82800160010185558215613531579182015b82811115613531578251825591602001919060010190613516565b5061353d929150613541565b5090565b5b8082111561353d5760008155600101613542565b600067ffffffffffffffff8084111561357157613571613cdc565b604051601f8501601f19908116603f0116810190828211818310171561359957613599613cdc565b816040528093508581528686860111156135b257600080fd5b858560208301376000602087830101525050509392505050565b80356001600160a01b03811681146135e357600080fd5b919050565b6000602082840312156135fa57600080fd5b6114e6826135cc565b6000806040838503121561361657600080fd5b61361f836135cc565b915061362d602084016135cc565b90509250929050565b60008060006060848603121561364b57600080fd5b613654846135cc565b9250613662602085016135cc565b9150604084013590509250925092565b6000806000806080858703121561368857600080fd5b613691856135cc565b935061369f602086016135cc565b925060408501359150606085013567ffffffffffffffff8111156136c257600080fd5b8501601f810187136136d357600080fd5b6136e287823560208401613556565b91505092959194509250565b6000806040838503121561370157600080fd5b61370a836135cc565b91506020830135801515811461371f57600080fd5b809150509250929050565b6000806040838503121561373d57600080fd5b613746836135cc565b946020939093013593505050565b60008060006060848603121561376957600080fd5b613772846135cc565b95602085013595506040909401359392505050565b60006020828403121561379957600080fd5b5035919050565b600080604083850312156137b357600080fd5b8235915061362d602084016135cc565b600080604083850312156137d657600080fd5b50508035926020909101359150565b6000602082840312156137f757600080fd5b81356114e681613cf2565b60006020828403121561381457600080fd5b81516114e681613cf2565b6000806040838503121561383257600080fd5b823567ffffffffffffffff81111561384957600080fd5b8301601f8101851361385a57600080fd5b61386985823560208401613556565b95602094909401359450505050565b60008060006060848603121561388d57600080fd5b505081359360208301359350604090920135919050565b600080600080608085870312156138ba57600080fd5b5050823594602084013594506040840135936060013592509050565b600081518084526138ee816020860160208601613bd7565b601f01601f19169290920160200192915050565b8054600090600181811c908083168061391c57607f831692505b602080841082141561393e57634e487b7160e01b600052602260045260246000fd5b83885260208801828015613959576001811461396a57613995565b60ff19871682528282019750613995565b60008981526020902060005b8781101561398f57815484820152908601908401613976565b83019850505b5050505050505092915050565b600083516139b4818460208801613bd7565b8351908301906139c8818360208801613bd7565b01949350505050565b7f416363657373436f6e74726f6c3a206163636f756e7420000000000000000000815260008351613a09816017850160208801613bd7565b7f206973206d697373696e6720726f6c65200000000000000000000000000000006017918401918201528351613a46816028840160208801613bd7565b01602801949350505050565b60006001600160a01b03808716835280861660208401525083604083015260806060830152613a8460808301846138d6565b9695505050505050565b6020815260006114e660208301846138d6565b604081526000613ab460408301856138d6565b90508260208301529392505050565b6020815260006114e66020830184613902565b85815260006020868184015285604084015260a06060840152613afc60a08401866138d6565b838103608085015284518082528286019183019060005b81811015613b2f57835183529284019291840191600101613b13565b50909a9950505050505050505050565b85815284602082015283604082015282606082015260a060808201526000613b6a60a0830184613902565b979650505050505050565b60008219821115613b8857613b88613c84565b500190565b600082613b9c57613b9c613c9a565b500490565b6000816000190483118215151615613bbb57613bbb613c84565b500290565b600082821015613bd257613bd2613c84565b500390565b60005b83811015613bf2578181015183820152602001613bda565b83811115611d615750506000910152565b600081613c1257613c12613c84565b506000190190565b600181811c90821680613c2e57607f821691505b60208210811415613c4f57634e487b7160e01b600052602260045260246000fd5b50919050565b6000600019821415613c6957613c69613c84565b5060010190565b600082613c7f57613c7f613c9a565b500690565b634e487b7160e01b600052601160045260246000fd5b634e487b7160e01b600052601260045260246000fd5b634e487b7160e01b600052603160045260246000fd5b634e487b7160e01b600052603260045260246000fd5b634e487b7160e01b600052604160045260246000fd5b6001600160e01b031981168114613d0857600080fd5b5056fea2646970667358221220ba9b72590d2eb9beddd41fbc9a357a4c4db788dc700be9324135b9d65fc7e7cd64736f6c634300080700333c2519c4487d47714872f92cf90a50c25f5deaec2789dc2a497b1272df611db6f0887ba65ee2024ea881d91b74c2450ef19e1557f03bed3ea9f16b037cbe2dc9872340a532bdd7bb02bea115c1b0f1ba87eac982f5b79b51ac189ffaac1b6fce",
  "linkReferences": {},
  "deployedLinkReferences": {}
}