{
  "_format": "hh-sol-artifact-1",
  "contractName": "RAIR_ERC721",
  "sourceName": "contracts/Tokens/RAIR-ERC721.sol",
  "abi": [
    {
      "inputs": [
        {
          "internalType": "string",
          "name": "_contractName",
          "type": "string"
        },
        {
          "internalType": "address",
          "name": "_creatorAddress",
          "type": "address"
        },
        {
          "internalType": "uint16",
          "name": "_creatorRoyalty",
          "type": "uint16"
        }
      ],
      "stateMutability": "nonpayable",
      "type": "constructor"
    },
    {
      "anonymous": false,
      "inputs": [
        {
          "indexed": true,
          "internalType": "address",
          "name": "owner",
          "type": "address"
        },
        {
          "indexed": true,
          "internalType": "address",
          "name": "approved",
          "type": "address"
        },
        {
          "indexed": true,
          "internalType": "uint256",
          "name": "tokenId",
          "type": "uint256"
        }
      ],
      "name": "Approval",
      "type": "event"
    },
    {
      "anonymous": false,
      "inputs": [
        {
          "indexed": true,
          "internalType": "address",
          "name": "owner",
          "type": "address"
        },
        {
          "indexed": true,
          "internalType": "address",
          "name": "operator",
          "type": "address"
        },
        {
          "indexed": false,
          "internalType": "bool",
          "name": "approved",
          "type": "bool"
        }
      ],
      "name": "ApprovalForAll",
      "type": "event"
    },
    {
      "anonymous": false,
      "inputs": [
        {
          "indexed": true,
          "internalType": "uint256",
          "name": "id",
          "type": "uint256"
        },
        {
          "indexed": false,
          "internalType": "string",
          "name": "name",
          "type": "string"
        }
      ],
      "name": "CollectionCompleted",
      "type": "event"
    },
    {
      "anonymous": false,
      "inputs": [
        {
          "indexed": true,
          "internalType": "uint256",
          "name": "id",
          "type": "uint256"
        },
        {
          "indexed": false,
          "internalType": "string",
          "name": "name",
          "type": "string"
        },
        {
          "indexed": false,
          "internalType": "uint256",
          "name": "length",
          "type": "uint256"
        }
      ],
      "name": "CollectionCreated",
      "type": "event"
    },
    {
      "anonymous": false,
      "inputs": [
        {
          "indexed": false,
          "internalType": "uint256",
          "name": "collectionIndex",
          "type": "uint256"
        },
        {
          "indexed": false,
          "internalType": "uint256",
          "name": "startingToken",
          "type": "uint256"
        },
        {
          "indexed": false,
          "internalType": "uint256",
          "name": "endingToken",
          "type": "uint256"
        },
        {
          "indexed": false,
          "internalType": "uint256",
          "name": "tokensLocked",
          "type": "uint256"
        },
        {
          "indexed": false,
          "internalType": "string",
          "name": "collectionName",
          "type": "string"
        }
      ],
      "name": "RangeLocked",
      "type": "event"
    },
    {
      "anonymous": false,
      "inputs": [
        {
          "indexed": false,
          "internalType": "uint256",
          "name": "collectionID",
          "type": "uint256"
        },
        {
          "indexed": false,
          "internalType": "uint256",
          "name": "startingToken",
          "type": "uint256"
        },
        {
          "indexed": false,
          "internalType": "uint256",
          "name": "endingToken",
          "type": "uint256"
        }
      ],
      "name": "RangeUnlocked",
      "type": "event"
    },
    {
      "anonymous": false,
      "inputs": [
        {
          "indexed": true,
          "internalType": "bytes32",
          "name": "role",
          "type": "bytes32"
        },
        {
          "indexed": true,
          "internalType": "bytes32",
          "name": "previousAdminRole",
          "type": "bytes32"
        },
        {
          "indexed": true,
          "internalType": "bytes32",
          "name": "newAdminRole",
          "type": "bytes32"
        }
      ],
      "name": "RoleAdminChanged",
      "type": "event"
    },
    {
      "anonymous": false,
      "inputs": [
        {
          "indexed": true,
          "internalType": "bytes32",
          "name": "role",
          "type": "bytes32"
        },
        {
          "indexed": true,
          "internalType": "address",
          "name": "account",
          "type": "address"
        },
        {
          "indexed": true,
          "internalType": "address",
          "name": "sender",
          "type": "address"
        }
      ],
      "name": "RoleGranted",
      "type": "event"
    },
    {
      "anonymous": false,
      "inputs": [
        {
          "indexed": true,
          "internalType": "bytes32",
          "name": "role",
          "type": "bytes32"
        },
        {
          "indexed": true,
          "internalType": "address",
          "name": "account",
          "type": "address"
        },
        {
          "indexed": true,
          "internalType": "address",
          "name": "sender",
          "type": "address"
        }
      ],
      "name": "RoleRevoked",
      "type": "event"
    },
    {
      "anonymous": false,
      "inputs": [
        {
          "indexed": true,
          "internalType": "address",
          "name": "from",
          "type": "address"
        },
        {
          "indexed": true,
          "internalType": "address",
          "name": "to",
          "type": "address"
        },
        {
          "indexed": true,
          "internalType": "uint256",
          "name": "tokenId",
          "type": "uint256"
        }
      ],
      "name": "Transfer",
      "type": "event"
    },
    {
      "inputs": [],
      "name": "CREATOR",
      "outputs": [
        {
          "internalType": "bytes32",
          "name": "",
          "type": "bytes32"
        }
      ],
      "stateMutability": "view",
      "type": "function"
    },
    {
      "inputs": [],
      "name": "DEFAULT_ADMIN_ROLE",
      "outputs": [
        {
          "internalType": "bytes32",
          "name": "",
          "type": "bytes32"
        }
      ],
      "stateMutability": "view",
      "type": "function"
    },
    {
      "inputs": [],
      "name": "MINTER",
      "outputs": [
        {
          "internalType": "bytes32",
          "name": "",
          "type": "bytes32"
        }
      ],
      "stateMutability": "view",
      "type": "function"
    },
    {
      "inputs": [],
      "name": "TRADER",
      "outputs": [
        {
          "internalType": "bytes32",
          "name": "",
          "type": "bytes32"
        }
      ],
      "stateMutability": "view",
      "type": "function"
    },
    {
      "inputs": [
        {
          "internalType": "address",
          "name": "to",
          "type": "address"
        },
        {
          "internalType": "uint256",
          "name": "tokenId",
          "type": "uint256"
        }
      ],
      "name": "approve",
      "outputs": [],
      "stateMutability": "nonpayable",
      "type": "function"
    },
    {
      "inputs": [
        {
          "internalType": "address",
          "name": "owner",
          "type": "address"
        }
      ],
      "name": "balanceOf",
      "outputs": [
        {
          "internalType": "uint256",
          "name": "",
          "type": "uint256"
        }
      ],
      "stateMutability": "view",
      "type": "function"
    },
    {
      "inputs": [
        {
          "internalType": "uint256",
          "name": "productIndex",
          "type": "uint256"
        },
        {
          "internalType": "uint256",
          "name": "startingToken",
          "type": "uint256"
        },
        {
          "internalType": "uint256",
          "name": "endingToken",
          "type": "uint256"
        }
      ],
      "name": "canCreateLock",
      "outputs": [
        {
          "internalType": "bool",
          "name": "canCreate",
          "type": "bool"
        }
      ],
      "stateMutability": "view",
      "type": "function"
    },
    {
      "inputs": [
        {
          "internalType": "string",
          "name": "_collectionName",
          "type": "string"
        },
        {
          "internalType": "uint256",
          "name": "_copies",
          "type": "uint256"
        }
      ],
      "name": "createCollection",
      "outputs": [],
      "stateMutability": "nonpayable",
      "type": "function"
    },
    {
      "inputs": [
        {
          "internalType": "uint256",
          "name": "collectionIndex",
          "type": "uint256"
        },
        {
          "internalType": "uint256",
          "name": "_startingToken",
          "type": "uint256"
        },
        {
          "internalType": "uint256",
          "name": "_endingToken",
          "type": "uint256"
        },
        {
          "internalType": "uint256",
          "name": "_lockedTokens",
          "type": "uint256"
        }
      ],
      "name": "createRangeLock",
      "outputs": [],
      "stateMutability": "nonpayable",
      "type": "function"
    },
    {
      "inputs": [
        {
          "internalType": "uint256",
          "name": "tokenId",
          "type": "uint256"
        }
      ],
      "name": "getApproved",
      "outputs": [
        {
          "internalType": "address",
          "name": "",
          "type": "address"
        }
      ],
      "stateMutability": "view",
      "type": "function"
    },
    {
      "inputs": [
        {
          "internalType": "uint256",
          "name": "index",
          "type": "uint256"
        }
      ],
      "name": "getCollection",
      "outputs": [
        {
          "internalType": "uint256",
          "name": "startingToken",
          "type": "uint256"
        },
        {
          "internalType": "uint256",
          "name": "endingToken",
          "type": "uint256"
        },
        {
          "internalType": "uint256",
          "name": "mintableTokensLeft",
          "type": "uint256"
        },
        {
          "internalType": "string",
          "name": "collectionName",
          "type": "string"
        },
        {
          "internalType": "uint256[]",
          "name": "locks",
          "type": "uint256[]"
        }
      ],
      "stateMutability": "view",
      "type": "function"
    },
    {
      "inputs": [],
      "name": "getCollectionCount",
      "outputs": [
        {
          "internalType": "uint256",
          "name": "",
          "type": "uint256"
        }
      ],
      "stateMutability": "view",
      "type": "function"
    },
    {
      "inputs": [
        {
          "internalType": "uint256",
          "name": "index",
          "type": "uint256"
        }
      ],
      "name": "getLockedRange",
      "outputs": [
        {
          "internalType": "uint256",
          "name": "startingToken",
          "type": "uint256"
        },
        {
          "internalType": "uint256",
          "name": "endingToken",
          "type": "uint256"
        },
        {
          "internalType": "uint256",
          "name": "countToUnlock",
          "type": "uint256"
        },
        {
          "internalType": "uint256",
          "name": "collectionIndex",
          "type": "uint256"
        }
      ],
      "stateMutability": "view",
      "type": "function"
    },
    {
      "inputs": [
        {
          "internalType": "uint256",
          "name": "collectionID",
          "type": "uint256"
        },
        {
          "internalType": "uint256",
          "name": "startingIndex",
          "type": "uint256"
        },
        {
          "internalType": "uint256",
          "name": "endingIndex",
          "type": "uint256"
        }
      ],
      "name": "getNextSequentialIndex",
      "outputs": [
        {
          "internalType": "uint256",
          "name": "nextIndex",
          "type": "uint256"
        }
      ],
      "stateMutability": "view",
      "type": "function"
    },
    {
      "inputs": [
        {
          "internalType": "bytes32",
          "name": "role",
          "type": "bytes32"
        }
      ],
      "name": "getRoleAdmin",
      "outputs": [
        {
          "internalType": "bytes32",
          "name": "",
          "type": "bytes32"
        }
      ],
      "stateMutability": "view",
      "type": "function"
    },
    {
      "inputs": [
        {
          "internalType": "bytes32",
          "name": "role",
          "type": "bytes32"
        },
        {
          "internalType": "uint256",
          "name": "index",
          "type": "uint256"
        }
      ],
      "name": "getRoleMember",
      "outputs": [
        {
          "internalType": "address",
          "name": "",
          "type": "address"
        }
      ],
      "stateMutability": "view",
      "type": "function"
    },
    {
      "inputs": [
        {
          "internalType": "bytes32",
          "name": "role",
          "type": "bytes32"
        }
      ],
      "name": "getRoleMemberCount",
      "outputs": [
        {
          "internalType": "uint256",
          "name": "",
          "type": "uint256"
        }
      ],
      "stateMutability": "view",
      "type": "function"
    },
    {
      "inputs": [
        {
          "internalType": "bytes32",
          "name": "role",
          "type": "bytes32"
        },
        {
          "internalType": "address",
          "name": "account",
          "type": "address"
        }
      ],
      "name": "grantRole",
      "outputs": [],
      "stateMutability": "nonpayable",
      "type": "function"
    },
    {
      "inputs": [
        {
          "internalType": "bytes32",
          "name": "role",
          "type": "bytes32"
        },
        {
          "internalType": "address",
          "name": "account",
          "type": "address"
        }
      ],
      "name": "hasRole",
      "outputs": [
        {
          "internalType": "bool",
          "name": "",
          "type": "bool"
        }
      ],
      "stateMutability": "view",
      "type": "function"
    },
    {
      "inputs": [
        {
          "internalType": "address",
          "name": "owner",
          "type": "address"
        },
        {
          "internalType": "uint256",
          "name": "collectionIndex",
          "type": "uint256"
        }
      ],
      "name": "hasTokenInCollection",
      "outputs": [
        {
          "internalType": "bool",
          "name": "",
          "type": "bool"
        }
      ],
      "stateMutability": "view",
      "type": "function"
    },
    {
      "inputs": [
        {
          "internalType": "address",
          "name": "owner",
          "type": "address"
        },
        {
          "internalType": "address",
          "name": "operator",
          "type": "address"
        }
      ],
      "name": "isApprovedForAll",
      "outputs": [
        {
          "internalType": "bool",
          "name": "",
          "type": "bool"
        }
      ],
      "stateMutability": "view",
      "type": "function"
    },
    {
      "inputs": [
        {
          "internalType": "uint256",
          "name": "_tokenId",
          "type": "uint256"
        }
      ],
      "name": "isTokenLocked",
      "outputs": [
        {
          "internalType": "bool",
          "name": "",
          "type": "bool"
        }
      ],
      "stateMutability": "view",
      "type": "function"
    },
    {
      "inputs": [
        {
          "internalType": "address",
          "name": "to",
          "type": "address"
        },
        {
          "internalType": "uint256",
          "name": "collectionID",
          "type": "uint256"
        },
        {
          "internalType": "uint256",
          "name": "indexInCollection",
          "type": "uint256"
        }
      ],
      "name": "mint",
      "outputs": [],
      "stateMutability": "nonpayable",
      "type": "function"
    },
    {
      "inputs": [],
      "name": "name",
      "outputs": [
        {
          "internalType": "string",
          "name": "",
          "type": "string"
        }
      ],
      "stateMutability": "view",
      "type": "function"
    },
    {
      "inputs": [
        {
          "internalType": "uint256",
          "name": "tokenId",
          "type": "uint256"
        }
      ],
      "name": "ownerOf",
      "outputs": [
        {
          "internalType": "address",
          "name": "",
          "type": "address"
        }
      ],
      "stateMutability": "view",
      "type": "function"
    },
    {
      "inputs": [
        {
          "internalType": "bytes32",
          "name": "role",
          "type": "bytes32"
        },
        {
          "internalType": "address",
          "name": "account",
          "type": "address"
        }
      ],
      "name": "renounceRole",
      "outputs": [],
      "stateMutability": "nonpayable",
      "type": "function"
    },
    {
      "inputs": [
        {
          "internalType": "bytes32",
          "name": "role",
          "type": "bytes32"
        },
        {
          "internalType": "address",
          "name": "account",
          "type": "address"
        }
      ],
      "name": "revokeRole",
      "outputs": [],
      "stateMutability": "nonpayable",
      "type": "function"
    },
    {
      "inputs": [
        {
          "internalType": "uint256",
          "name": "_tokenId",
          "type": "uint256"
        },
        {
          "internalType": "uint256",
          "name": "_value",
          "type": "uint256"
        },
        {
          "internalType": "bytes",
          "name": "_data",
          "type": "bytes"
        }
      ],
      "name": "royaltyInfo",
      "outputs": [
        {
          "internalType": "address",
          "name": "_receiver",
          "type": "address"
        },
        {
          "internalType": "uint256",
          "name": "_royaltyAmount",
          "type": "uint256"
        },
        {
          "internalType": "bytes",
          "name": "_royaltyPaymentData",
          "type": "bytes"
        }
      ],
      "stateMutability": "view",
      "type": "function"
    },
    {
      "inputs": [
        {
          "internalType": "address",
          "name": "from",
          "type": "address"
        },
        {
          "internalType": "address",
          "name": "to",
          "type": "address"
        },
        {
          "internalType": "uint256",
          "name": "tokenId",
          "type": "uint256"
        }
      ],
      "name": "safeTransferFrom",
      "outputs": [],
      "stateMutability": "nonpayable",
      "type": "function"
    },
    {
      "inputs": [
        {
          "internalType": "address",
          "name": "from",
          "type": "address"
        },
        {
          "internalType": "address",
          "name": "to",
          "type": "address"
        },
        {
          "internalType": "uint256",
          "name": "tokenId",
          "type": "uint256"
        },
        {
          "internalType": "bytes",
          "name": "_data",
          "type": "bytes"
        }
      ],
      "name": "safeTransferFrom",
      "outputs": [],
      "stateMutability": "nonpayable",
      "type": "function"
    },
    {
      "inputs": [
        {
          "internalType": "address",
          "name": "operator",
          "type": "address"
        },
        {
          "internalType": "bool",
          "name": "approved",
          "type": "bool"
        }
      ],
      "name": "setApprovalForAll",
      "outputs": [],
      "stateMutability": "nonpayable",
      "type": "function"
    },
    {
      "inputs": [
        {
          "internalType": "bytes4",
          "name": "interfaceId",
          "type": "bytes4"
        }
      ],
      "name": "supportsInterface",
      "outputs": [
        {
          "internalType": "bool",
          "name": "",
          "type": "bool"
        }
      ],
      "stateMutability": "view",
      "type": "function"
    },
    {
      "inputs": [],
      "name": "symbol",
      "outputs": [
        {
          "internalType": "string",
          "name": "",
          "type": "string"
        }
      ],
      "stateMutability": "view",
      "type": "function"
    },
    {
      "inputs": [
        {
          "internalType": "uint256",
          "name": "index",
          "type": "uint256"
        }
      ],
      "name": "tokenByIndex",
      "outputs": [
        {
          "internalType": "uint256",
          "name": "",
          "type": "uint256"
        }
      ],
      "stateMutability": "view",
      "type": "function"
    },
    {
      "inputs": [
        {
          "internalType": "address",
          "name": "owner",
          "type": "address"
        },
        {
          "internalType": "uint256",
          "name": "index",
          "type": "uint256"
        }
      ],
      "name": "tokenOfOwnerByIndex",
      "outputs": [
        {
          "internalType": "uint256",
          "name": "",
          "type": "uint256"
        }
      ],
      "stateMutability": "view",
      "type": "function"
    },
    {
      "inputs": [
        {
          "internalType": "uint256",
          "name": "",
          "type": "uint256"
        }
      ],
      "name": "tokenToCollection",
      "outputs": [
        {
          "internalType": "uint256",
          "name": "",
          "type": "uint256"
        }
      ],
      "stateMutability": "view",
      "type": "function"
    },
    {
      "inputs": [
        {
          "internalType": "uint256",
          "name": "token",
          "type": "uint256"
        }
      ],
      "name": "tokenToCollectionIndex",
      "outputs": [
        {
          "internalType": "uint256",
          "name": "tokenIndex",
          "type": "uint256"
        }
      ],
      "stateMutability": "view",
      "type": "function"
    },
    {
      "inputs": [
        {
          "internalType": "uint256",
          "name": "tokenId",
          "type": "uint256"
        }
      ],
      "name": "tokenURI",
      "outputs": [
        {
          "internalType": "string",
          "name": "",
          "type": "string"
        }
      ],
      "stateMutability": "view",
      "type": "function"
    },
    {
      "inputs": [],
      "name": "totalSupply",
      "outputs": [
        {
          "internalType": "uint256",
          "name": "",
          "type": "uint256"
        }
      ],
      "stateMutability": "view",
      "type": "function"
    },
    {
      "inputs": [
        {
          "internalType": "address",
          "name": "from",
          "type": "address"
        },
        {
          "internalType": "address",
          "name": "to",
          "type": "address"
        },
        {
          "internalType": "uint256",
          "name": "tokenId",
          "type": "uint256"
        }
      ],
      "name": "transferFrom",
      "outputs": [],
      "stateMutability": "nonpayable",
      "type": "function"
    }
  ],
  "bytecode": "0x60806040523480156200001157600080fd5b506040516200435d3803806200435d8339810160408190526200003491620003ea565b82604051806040016040528060048152602001632920a4a960e11b81525081600090805190602001906200006a92919062000314565b5080516200008090600190602084019062000314565b5050601080546001600160b01b0319163361ffff60a01b191617600160a01b61ffff85160217905550620000d36000805160206200431d833981519152600080516020620042fd83398151915262000157565b620000fd6000805160206200433d833981519152600080516020620042fd83398151915262000157565b62000118600080516020620042fd83398151915283620001ab565b620001336000805160206200431d83398151915283620001ab565b6200014e6000805160206200433d83398151915283620001ab565b50505062000540565b6000828152600a6020526040902060010154819060405184907fbd79b86ffe0ab8e8776151514217cd7cacd52c909f66475c3af44e129f0b00ff90600090a46000918252600a602052604090912060010155565b620001c28282620001ee60201b620021271760201c565b6000828152600b60209081526040909120620001e991839062002135620001fe821b17901c565b505050565b620001fa82826200021e565b5050565b600062000215836001600160a01b038416620002c2565b90505b92915050565b6000828152600a602090815260408083206001600160a01b038516845290915290205460ff16620001fa576000828152600a602090815260408083206001600160a01b03851684529091529020805460ff191660011790556200027e3390565b6001600160a01b0316816001600160a01b0316837f2f8788117e7eff1d82e926ec794901d17c78024a50270940304540a733656f0d60405160405180910390a45050565b60008181526001830160205260408120546200030b5750815460018181018455600084815260208082209093018490558454848252828601909352604090209190915562000218565b50600062000218565b8280546200032290620004ed565b90600052602060002090601f01602090048101928262000346576000855562000391565b82601f106200036157805160ff191683800117855562000391565b8280016001018555821562000391579182015b828111156200039157825182559160200191906001019062000374565b506200039f929150620003a3565b5090565b5b808211156200039f5760008155600101620003a4565b80516001600160a01b0381168114620003d257600080fd5b919050565b805161ffff81168114620003d257600080fd5b6000806000606084860312156200040057600080fd5b83516001600160401b03808211156200041857600080fd5b818601915086601f8301126200042d57600080fd5b8151818111156200044257620004426200052a565b604051601f8201601f19908116603f011681019083821181831017156200046d576200046d6200052a565b816040528281526020935089848487010111156200048a57600080fd5b600091505b82821015620004ae57848201840151818301850152908301906200048f565b82821115620004c05760008484830101525b9650620004d2915050868201620003ba565b93505050620004e460408501620003d7565b90509250925092565b600181811c908216806200050257607f821691505b602082108114156200052457634e487b7160e01b600052602260045260246000fd5b50919050565b634e487b7160e01b600052604160045260246000fd5b613dad80620005506000396000f3fe608060405234801561001057600080fd5b50600436106102c85760003560e01c80636352211e1161017b578063ab9aae35116100d8578063ca15c8731161008c578063e4fbb60911610071578063e4fbb60914610636578063e985e9c51461065d578063fe6d81241461067057600080fd5b8063ca15c87314610610578063d547741f1461062357600080fd5b8063bda5ec33116100bd578063bda5ec33146105c8578063c155531d146105db578063c87b56dd146105fd57600080fd5b8063ab9aae35146105a2578063b88d4fde146105b557600080fd5b806391d148541161012f57806397099fb21161011457806397099fb214610574578063a217fddf14610587578063a22cb4651461058f57600080fd5b806391d148541461053357806395d89b411461056c57600080fd5b806370a082311161016057806370a08231146104da578063876654a0146104ed5780639010d07c1461052057600080fd5b80636352211e146104b457806364d54151146104c757600080fd5b806323b872dd1161022957806336568abe116101dd57806342842e0e116101c257806342842e0e1461046a5780634f6ccce71461047d5780635a1f3c281461049057600080fd5b806336568abe146104445780633d42f2061461045757600080fd5b8063276a28a31161020e578063276a28a31461040b5780632f2ff15d1461041e5780632f745c591461043157600080fd5b806323b872dd146103d5578063248a9ca3146103e857600080fd5b806315a182411161028057806318160ddd1161026557806318160ddd146103a5578063195f78ae146103ad5780631c10106f146103cd57600080fd5b806315a182411461035d578063175c4ef81461037057600080fd5b8063081812fc116102b1578063081812fc1461030a578063095ea7b314610335578063156e29f61461034a57600080fd5b806301ffc9a7146102cd57806306fdde03146102f5575b600080fd5b6102e06102db3660046137a0565b610697565b60405190151581526020015b60405180910390f35b6102fd6106db565b6040516102ec9190613afa565b61031d610318366004613742565b61076d565b6040516001600160a01b0390911681526020016102ec565b6103486103433660046136e5565b610807565b005b61034861035836600461370f565b610939565b61034861036b3660046138df565b610cca565b6103977f872340a532bdd7bb02bea115c1b0f1ba87eac982f5b79b51ac189ffaac1b6fce81565b6040519081526020016102ec565b600854610397565b6103976103bb366004613742565b600f6020526000908152604090205481565b600e54610397565b6103486103e33660046135f1565b611016565b6103976103f6366004613742565b6000908152600a602052604090206001015490565b6102e0610419366004613742565b61109d565b61034861042c36600461375b565b611123565b61039761043f3660046136e5565b611145565b61034861045236600461375b565b6111ed565b6102e06104653660046138b3565b61120f565b6103486104783660046135f1565b611415565b61039761048b366004613742565b611430565b6104a361049e366004613742565b6114d4565b6040516102ec959493929190613b42565b61031d6104c2366004613742565b61163d565b6103486104d53660046137da565b6116c8565b6103976104e83660046135a3565b611805565b6105006104fb366004613742565b61189f565b6040805194855260208501939093529183015260608201526080016102ec565b61031d61052e36600461377e565b611a76565b6102e061054136600461375b565b6000918252600a602090815260408084206001600160a01b0393909316845291905290205460ff1690565b6102fd611a8e565b6102e06105823660046136e5565b611a9d565b610397600081565b61034861059d3660046136a9565b611afb565b6103976105b0366004613742565b611bc0565b6103486105c336600461362d565b611c01565b6103976105d63660046138b3565b611c8f565b6105ee6105e9366004613833565b611f0f565b6040516102ec93929190613ac9565b6102fd61060b366004613742565b611fa2565b61039761061e366004613742565b612097565b61034861063136600461375b565b6120ae565b6103977f3c2519c4487d47714872f92cf90a50c25f5deaec2789dc2a497b1272df611db681565b6102e061066b3660046135be565b6120b8565b6103977ff0887ba65ee2024ea881d91b74c2450ef19e1557f03bed3ea9f16b037cbe2dc981565b60006001600160e01b031982167fc0aa9aba0000000000000000000000000000000000000000000000000000000014806106d557506106d58261214a565b92915050565b6060600080546106ea90613c86565b80601f016020809104026020016040519081016040528092919081815260200182805461071690613c86565b80156107635780601f1061073857610100808354040283529160200191610763565b820191906000526020600020905b81548152906001019060200180831161074657829003601f168201915b5050505050905090565b6000818152600260205260408120546001600160a01b03166107eb5760405162461bcd60e51b815260206004820152602c60248201527f4552433732313a20617070726f76656420717565727920666f72206e6f6e657860448201526b34b9ba32b73a103a37b5b2b760a11b60648201526084015b60405180910390fd5b506000908152600460205260409020546001600160a01b031690565b60006108128261163d565b9050806001600160a01b0316836001600160a01b0316141561089c5760405162461bcd60e51b815260206004820152602160248201527f4552433732313a20617070726f76616c20746f2063757272656e74206f776e6560448201527f720000000000000000000000000000000000000000000000000000000000000060648201526084016107e2565b336001600160a01b03821614806108b857506108b881336120b8565b61092a5760405162461bcd60e51b815260206004820152603860248201527f4552433732313a20617070726f76652063616c6c6572206973206e6f74206f7760448201527f6e6572206e6f7220617070726f76656420666f7220616c6c000000000000000060648201526084016107e2565b6109348383612188565b505050565b7ff0887ba65ee2024ea881d91b74c2450ef19e1557f03bed3ea9f16b037cbe2dc96109648133612203565b600e54839081106109c65760405162461bcd60e51b815260206004820152602660248201527f52414952204552433732313a20436f6c6c656374696f6e20646f6573206e6f7460448201526508195e1a5cdd60d21b60648201526084016107e2565b6000600e85815481106109db576109db613d32565b90600052602060002090600502019050806000015481600101546109ff9190613c2c565b841115610a4e5760405162461bcd60e51b815260206004820181905260248201527f52414952204552433732313a20496e76616c696420746f6b656e20696e64657860448201526064016107e2565b610a6786858360000154610a629190613be1565b612283565b84600f6000868460000154610a7c9190613be1565b815260200190815260200160002081905550806002016000815480929190610aa390613c6f565b9091555060009050805b6004830154811015610c7b578254610ac6908790613be1565b600d846004018381548110610add57610add613d32565b906000526020600020015481548110610af857610af8613d32565b90600052602060002090600402016000015411158015610b6757508254610b20908790613be1565b600d846004018381548110610b3757610b37613d32565b906000526020600020015481548110610b5257610b52613d32565b90600052602060002090600402016001015410155b15610c6957600d836004018281548110610b8357610b83613d32565b906000526020600020015481548110610b9e57610b9e613d32565b90600052602060002090600402019150826004018181548110610bc357610bc3613d32565b9060005260206000200154600c6000888660000154610be29190613be1565b8152602081019190915260400160002055600282015415610c6457600282018054906000610c0f83613c6f565b90915550506002820154610c645781546001830154604080518a815260208101939093528201527fd3edbeb94dfb8eadcd8c291774b9ac3cc9b06af829273e295bf3197849934b889060600160405180910390a15b610c7b565b80610c7381613cc1565b915050610aad565b506002820154610cc157857f3ab828a3fee3d542c87fb145e900664325100c3c0b2e2a2cca38685b6de1b27183600301604051610cb89190613b2f565b60405180910390a25b50505050505050565b7f3c2519c4487d47714872f92cf90a50c25f5deaec2789dc2a497b1272df611db6610cf58133612203565b600e5485908110610d575760405162461bcd60e51b815260206004820152602660248201527f52414952204552433732313a20436f6c6c656374696f6e20646f6573206e6f7460448201526508195e1a5cdd60d21b60648201526084016107e2565b6000600e8781548110610d6c57610d6c613d32565b906000526020600020906005020190508060010154858260000154610d919190613be1565b1115610e055760405162461bcd60e51b815260206004820152602160248201527f52414952204552433732313a20496e76616c696420656e64696e6720746f6b6560448201527f6e0000000000000000000000000000000000000000000000000000000000000060648201526084016107e2565b80546001820154610e169190613c2c565b610e208787613c2c565b1115610e945760405162461bcd60e51b815260206004820152602160248201527f52414952204552433732313a20496e76616c696420746f6b656e206c696d697460448201527f730000000000000000000000000000000000000000000000000000000000000060648201526084016107e2565b83610e9f8787613c2c565b610eaa906001613be1565b1015610f1e5760405162461bcd60e51b815260206004820152602d60248201527f52414952204552433732313a20496e76616c6964206e756d626572206f66207460448201527f6f6b656e7320746f206c6f636b0000000000000000000000000000000000000060648201526084016107e2565b600d8054600181018255600091909152815460049091027fd7b6990105719101dabeb77144f2a3385c8033acd3af97e9423a695e81ad1eb50190610f63908890613be1565b81558154610f72908790613be1565b6001808301919091556002820186905560038201899055600d546004840191610f9a91613c2c565b8154600181018355600092835260209092209091015581547f0b8fece546364ce1dcadcf45028659aff64e7a166d735eb32da27050fd520f69908990610fe1908a90613be1565b8454610fee908a90613be1565b8886600301604051611004959493929190613bab565b60405180910390a15050505050505050565b611020338261229d565b6110925760405162461bcd60e51b815260206004820152603160248201527f4552433732313a207472616e736665722063616c6c6572206973206e6f74206f60448201527f776e6572206e6f7220617070726f76656400000000000000000000000000000060648201526084016107e2565b610934838383612374565b6000818152600f6020908152604080832054600c909252822054600d805490919081106110cc576110cc613d32565b9060005260206000209060040201600301541480156106d557506000828152600c6020526040812054600d8054909190811061110a5761110a613d32565b9060005260206000209060040201600201541192915050565b61112d8282612559565b6000828152600b602052604090206109349082612135565b600061115083611805565b82106111c45760405162461bcd60e51b815260206004820152602b60248201527f455243373231456e756d657261626c653a206f776e657220696e646578206f7560448201527f74206f6620626f756e647300000000000000000000000000000000000000000060648201526084016107e2565b506001600160a01b03919091166000908152600660209081526040808320938352929052205490565b6111f7828261257f565b6000828152600b602052604090206109349082612607565b600080600e858154811061122557611225613d32565b90600052602060002090600502019050806000015481600101546112499190613c2c565b8411806112655750805460018201546112629190613c2c565b83115b1561127457600091505061140e565b60005b6004820154811015611407578154611290908690613be1565b600d8360040183815481106112a7576112a7613d32565b9060005260206000200154815481106112c2576112c2613d32565b90600052602060002090600402016000015411158015611331575081546112ea908690613be1565b600d83600401838154811061130157611301613d32565b90600052602060002001548154811061131c5761131c613d32565b90600052602060002090600402016001015410155b806113e557508154611344908590613be1565b600d83600401838154811061135b5761135b613d32565b90600052602060002001548154811061137657611376613d32565b906000526020600020906004020160000154111580156113e55750815461139e908590613be1565b600d8360040183815481106113b5576113b5613d32565b9060005260206000200154815481106113d0576113d0613d32565b90600052602060002090600402016001015410155b156113f55760009250505061140e565b806113ff81613cc1565b915050611277565b5060019150505b9392505050565b61093483838360405180602001604052806000815250611c01565b600061143b60085490565b82106114af5760405162461bcd60e51b815260206004820152602c60248201527f455243373231456e756d657261626c653a20676c6f62616c20696e646578206f60448201527f7574206f6620626f756e6473000000000000000000000000000000000000000060648201526084016107e2565b600882815481106114c2576114c2613d32565b90600052602060002001549050919050565b60008060006060806000600e87815481106114f1576114f1613d32565b90600052602060002090600502016040518060a001604052908160008201548152602001600182015481526020016002820154815260200160038201805461153890613c86565b80601f016020809104026020016040519081016040528092919081815260200182805461156490613c86565b80156115b15780601f10611586576101008083540402835291602001916115b1565b820191906000526020600020905b81548152906001019060200180831161159457829003601f168201915b505050505081526020016004820180548060200260200160405190810160405280929190818152602001828054801561160957602002820191906000526020600020905b8154815260200190600101908083116115f5575b5050509190925250508151602083015160408401516060850151608090950151929c919b5099509297509550909350505050565b6000818152600260205260408120546001600160a01b0316806106d55760405162461bcd60e51b815260206004820152602960248201527f4552433732313a206f776e657220717565727920666f72206e6f6e657869737460448201527f656e7420746f6b656e000000000000000000000000000000000000000000000060648201526084016107e2565b7f3c2519c4487d47714872f92cf90a50c25f5deaec2789dc2a497b1272df611db66116f38133612203565b600e546000901561174157600e805461170e90600190613c2c565b8154811061171e5761171e613d32565b906000526020600020906005020160010154600161173c9190613be1565b611744565b60005b600e8054600181810183556000929092526005027fbb7b4a454dc3493923482f07822329ed19e8244eff582cc204f8554c3620c3fd0182815591925061178a8584613be1565b6117949190613c2c565b600182015584516117ae9060038301906020880190613478565b5060028101849055600e546117c590600190613c2c565b7f9ae7dd5dbfc3938737af70872685a3fb26f364d20134cd30be25108122626a1786866040516117f6929190613b0d565b60405180910390a25050505050565b60006001600160a01b0382166118835760405162461bcd60e51b815260206004820152602a60248201527f4552433732313a2062616c616e636520717565727920666f7220746865207a6560448201527f726f20616464726573730000000000000000000000000000000000000000000060648201526084016107e2565b506001600160a01b031660009081526003602052604090205490565b6000806000806000600d86815481106118ba576118ba613d32565b906000526020600020906004020160405180608001604052908160008201548152602001600182015481526020016002820154815260200160038201548152505090506000600e82606001518154811061191657611916613d32565b90600052602060002090600502016040518060a001604052908160008201548152602001600182015481526020016002820154815260200160038201805461195d90613c86565b80601f016020809104026020016040519081016040528092919081815260200182805461198990613c86565b80156119d65780601f106119ab576101008083540402835291602001916119d6565b820191906000526020600020905b8154815290600101906020018083116119b957829003601f168201915b5050505050815260200160048201805480602002602001604051908101604052809291908181526020018280548015611a2e57602002820191906000526020600020905b815481526020019060010190808311611a1a575b50505091909252505081518451929350611a4a92909150613c2c565b81516020840151611a5b9190613c2c565b83604001518460600151955095509550955050509193509193565b6000828152600b6020526040812061140e908361261c565b6060600180546106ea90613c86565b6000805b611aaa84611805565b811015611af15782600f6000611ac08785611145565b8152602001908152602001600020541415611adf5760019150506106d5565b80611ae981613cc1565b915050611aa1565b5060009392505050565b6001600160a01b038216331415611b545760405162461bcd60e51b815260206004820152601960248201527f4552433732313a20617070726f766520746f2063616c6c65720000000000000060448201526064016107e2565b3360008181526005602090815260408083206001600160a01b03871680855290835292819020805460ff191686151590811790915590519081529192917f17307eab39ab6107e8899845ad3d59bd9653f200f220920489ca2b5937696c31910160405180910390a35050565b6000818152600f6020526040812054600e80549091908110611be457611be4613d32565b906000526020600020906005020160000154826106d59190613c2c565b611c0b338361229d565b611c7d5760405162461bcd60e51b815260206004820152603160248201527f4552433732313a207472616e736665722063616c6c6572206973206e6f74206f60448201527f776e6572206e6f7220617070726f76656400000000000000000000000000000060648201526084016107e2565b611c8984848484612628565b50505050565b60008380600e8054905011611cf55760405162461bcd60e51b815260206004820152602660248201527f52414952204552433732313a20436f6c6c656374696f6e20646f6573206e6f7460448201526508195e1a5cdd60d21b60648201526084016107e2565b6000600e8681548110611d0a57611d0a613d32565b90600052602060002090600502016040518060a0016040529081600082015481526020016001820154815260200160028201548152602001600382018054611d5190613c86565b80601f0160208091040260200160405190810160405280929190818152602001828054611d7d90613c86565b8015611dca5780601f10611d9f57610100808354040283529160200191611dca565b820191906000526020600020905b815481529060010190602001808311611dad57829003601f168201915b5050505050815260200160048201805480602002602001604051908101604052809291908181526020018280548015611e2257602002820191906000526020600020905b815481526020019060010190808311611e0e575b50505050508152505090506000858260000151611e3f9190613be1565b90505b8151611e4f908690613be1565b8111611e98576000818152600260205260409020546001600160a01b0316611e86578151611e7d9082613c2c565b93505050611f07565b80611e9081613cc1565b915050611e42565b5060405162461bcd60e51b815260206004820152603960248201527f52414952204552433732313a20546865726520617265206e6f20617661696c6160448201527f626c6520746f6b656e7320696e20746869732072616e67652e0000000000000060648201526084016107e2565b509392505050565b6000806060611f3f7f3c2519c4487d47714872f92cf90a50c25f5deaec2789dc2a497b1272df611db66000611a76565b601054620186a090611f6d9074010000000000000000000000000000000000000000900461ffff1689613c0d565b611f779190613bf9565b60408051602081018b9052016040516020818303038152906040529250925092509450945094915050565b6000818152600260205260409020546060906001600160a01b031661202f5760405162461bcd60e51b815260206004820152602f60248201527f4552433732314d657461646174613a2055524920717565727920666f72206e6f60448201527f6e6578697374656e7420746f6b656e000000000000000000000000000000000060648201526084016107e2565b600061204660408051602081019091526000815290565b90506000815111612066576040518060200160405280600081525061140e565b80612070846126a6565b6040516020016120819291906139dd565b6040516020818303038152906040529392505050565b6000818152600b602052604081206106d5906127a4565b6111f782826127ae565b6001600160a01b03811660009081527f4e6e614aa308bd78bac28541285c453cfb7abbecc03cb60a1e70ec8347070f98602052604081205460ff168061140e57506001600160a01b0380841660009081526005602090815260408083209386168352929052205460ff1661140e565b61213182826127d4565b5050565b600061140e836001600160a01b038416612876565b60006001600160e01b031982167f5a05180f0000000000000000000000000000000000000000000000000000000014806106d557506106d5826128c5565b6000818152600460205260409020805473ffffffffffffffffffffffffffffffffffffffff19166001600160a01b03841690811790915581906121ca8261163d565b6001600160a01b03167f8c5be1e5ebec7d5bd14f71427d1e84f3dd0314c0f7b2291e5b200ac8c7c3b92560405160405180910390a45050565b6000828152600a602090815260408083206001600160a01b038516845290915290205460ff1661213157612241816001600160a01b03166014612903565b61224c836020612903565b60405160200161225d929190613a0c565b60408051601f198184030181529082905262461bcd60e51b82526107e291600401613afa565b612131828260405180602001604052806000815250612ac8565b6000818152600260205260408120546001600160a01b03166123165760405162461bcd60e51b815260206004820152602c60248201527f4552433732313a206f70657261746f7220717565727920666f72206e6f6e657860448201526b34b9ba32b73a103a37b5b2b760a11b60648201526084016107e2565b60006123218361163d565b9050806001600160a01b0316846001600160a01b0316148061235c5750836001600160a01b03166123518461076d565b6001600160a01b0316145b8061236c575061236c81856120b8565b949350505050565b826001600160a01b03166123878261163d565b6001600160a01b0316146124035760405162461bcd60e51b815260206004820152602960248201527f4552433732313a207472616e73666572206f6620746f6b656e2074686174206960448201527f73206e6f74206f776e000000000000000000000000000000000000000000000060648201526084016107e2565b6001600160a01b03821661247e5760405162461bcd60e51b8152602060048201526024808201527f4552433732313a207472616e7366657220746f20746865207a65726f2061646460448201527f726573730000000000000000000000000000000000000000000000000000000060648201526084016107e2565b612489838383612b46565b612494600082612188565b6001600160a01b03831660009081526003602052604081208054600192906124bd908490613c2c565b90915550506001600160a01b03821660009081526003602052604081208054600192906124eb908490613be1565b9091555050600081815260026020526040808220805473ffffffffffffffffffffffffffffffffffffffff19166001600160a01b0386811691821790925591518493918716917fddf252ad1be2c89b69c2b068fc378daa952ba7f163c4a11628f55a4df523b3ef91a4505050565b6000828152600a60205260409020600101546125758133612203565b61093483836127d4565b6001600160a01b03811633146125fd5760405162461bcd60e51b815260206004820152602f60248201527f416363657373436f6e74726f6c3a2063616e206f6e6c792072656e6f756e636560448201527f20726f6c657320666f722073656c66000000000000000000000000000000000060648201526084016107e2565b6121318282612c93565b600061140e836001600160a01b038416612d16565b600061140e8383612e03565b612633848484612374565b61263f84848484612ea4565b611c895760405162461bcd60e51b815260206004820152603260248201527f4552433732313a207472616e7366657220746f206e6f6e20455243373231526560448201527131b2b4bb32b91034b6b83632b6b2b73a32b960711b60648201526084016107e2565b6060816126ca5750506040805180820190915260018152600360fc1b602082015290565b8160005b81156126f457806126de81613cc1565b91506126ed9050600a83613bf9565b91506126ce565b60008167ffffffffffffffff81111561270f5761270f613d48565b6040519080825280601f01601f191660200182016040528015612739576020820181803683370190505b5090505b841561236c5761274e600183613c2c565b915061275b600a86613cdc565b612766906030613be1565b60f81b81838151811061277b5761277b613d32565b60200101906001600160f81b031916908160001a90535061279d600a86613bf9565b945061273d565b60006106d5825490565b6000828152600a60205260409020600101546127ca8133612203565b6109348383612c93565b6000828152600a602090815260408083206001600160a01b038516845290915290205460ff16612131576000828152600a602090815260408083206001600160a01b03851684529091529020805460ff191660011790556128323390565b6001600160a01b0316816001600160a01b0316837f2f8788117e7eff1d82e926ec794901d17c78024a50270940304540a733656f0d60405160405180910390a45050565b60008181526001830160205260408120546128bd575081546001818101845560008481526020808220909301849055845484825282860190935260409020919091556106d5565b5060006106d5565b60006001600160e01b031982167f7965db0b0000000000000000000000000000000000000000000000000000000014806106d557506106d582612ffc565b60606000612912836002613c0d565b61291d906002613be1565b67ffffffffffffffff81111561293557612935613d48565b6040519080825280601f01601f19166020018201604052801561295f576020820181803683370190505b509050600360fc1b8160008151811061297a5761297a613d32565b60200101906001600160f81b031916908160001a9053507f7800000000000000000000000000000000000000000000000000000000000000816001815181106129c5576129c5613d32565b60200101906001600160f81b031916908160001a90535060006129e9846002613c0d565b6129f4906001613be1565b90505b6001811115612a79577f303132333435363738396162636465660000000000000000000000000000000085600f1660108110612a3557612a35613d32565b1a60f81b828281518110612a4b57612a4b613d32565b60200101906001600160f81b031916908160001a90535060049490941c93612a7281613c6f565b90506129f7565b50831561140e5760405162461bcd60e51b815260206004820181905260248201527f537472696e67733a20686578206c656e67746820696e73756666696369656e7460448201526064016107e2565b612ad2838361303a565b612adf6000848484612ea4565b6109345760405162461bcd60e51b815260206004820152603260248201527f4552433732313a207472616e7366657220746f206e6f6e20455243373231526560448201527131b2b4bb32b91034b6b83632b6b2b73a32b960711b60648201526084016107e2565b6001600160a01b03831615801590612b6657506001600160a01b03821615155b15612c88576000818152600f6020908152604080832054600c90925290912054600d80549091908110612b9b57612b9b613d32565b9060005260206000209060040201600301541415612c5e576000818152600c6020526040902054600d80549091908110612bd757612bd7613d32565b906000526020600020906004020160020154600014612c5e5760405162461bcd60e51b815260206004820152603a60248201527f52414952204552433732313a205472616e736665727320666f7220746869732060448201527f72616e6765206172652063757272656e746c79206c6f636b656400000000000060648201526084016107e2565b612c887f872340a532bdd7bb02bea115c1b0f1ba87eac982f5b79b51ac189ffaac1b6fce33612203565b610934838383613195565b6000828152600a602090815260408083206001600160a01b038516845290915290205460ff1615612131576000828152600a602090815260408083206001600160a01b0385168085529252808320805460ff1916905551339285917ff6391f5c32d9c69d2a47ea670b442974b53935d1edc7fd64eb21e047a839171b9190a45050565b60008181526001830160205260408120548015612df9576000612d3a600183613c2c565b8554909150600090612d4e90600190613c2c565b90506000866000018281548110612d6757612d67613d32565b9060005260206000200154905080876000018481548110612d8a57612d8a613d32565b600091825260208083209091019290925582815260018901909152604090208490558654879080612dbd57612dbd613d1c565b600190038181906000526020600020016000905590558660010160008781526020019081526020016000206000905560019450505050506106d5565b60009150506106d5565b81546000908210612e7c5760405162461bcd60e51b815260206004820152602260248201527f456e756d657261626c655365743a20696e646578206f7574206f6620626f756e60448201527f647300000000000000000000000000000000000000000000000000000000000060648201526084016107e2565b826000018281548110612e9157612e91613d32565b9060005260206000200154905092915050565b60006001600160a01b0384163b15612ff157604051630a85bd0160e11b81526001600160a01b0385169063150b7a0290612ee8903390899088908890600401613a8d565b602060405180830381600087803b158015612f0257600080fd5b505af1925050508015612f32575060408051601f3d908101601f19168201909252612f2f918101906137bd565b60015b612fd7573d808015612f60576040519150601f19603f3d011682016040523d82523d6000602084013e612f65565b606091505b508051612fcf5760405162461bcd60e51b815260206004820152603260248201527f4552433732313a207472616e7366657220746f206e6f6e20455243373231526560448201527131b2b4bb32b91034b6b83632b6b2b73a32b960711b60648201526084016107e2565b805181602001fd5b6001600160e01b031916630a85bd0160e11b14905061236c565b506001949350505050565b60006001600160e01b031982167f780e9d630000000000000000000000000000000000000000000000000000000014806106d557506106d58261324d565b6001600160a01b0382166130905760405162461bcd60e51b815260206004820181905260248201527f4552433732313a206d696e7420746f20746865207a65726f206164647265737360448201526064016107e2565b6000818152600260205260409020546001600160a01b0316156130f55760405162461bcd60e51b815260206004820152601c60248201527f4552433732313a20746f6b656e20616c7265616479206d696e7465640000000060448201526064016107e2565b61310160008383612b46565b6001600160a01b038216600090815260036020526040812080546001929061312a908490613be1565b9091555050600081815260026020526040808220805473ffffffffffffffffffffffffffffffffffffffff19166001600160a01b03861690811790915590518392907fddf252ad1be2c89b69c2b068fc378daa952ba7f163c4a11628f55a4df523b3ef908290a45050565b6001600160a01b0383166131f0576131eb81600880546000838152600960205260408120829055600182018355919091527ff3f7a9fe364faab93b216da50a3214154f22a0a2b415b23a84c8169e8b636ee30155565b613213565b816001600160a01b0316836001600160a01b0316146132135761321383826132e8565b6001600160a01b03821661322a5761093481613385565b826001600160a01b0316826001600160a01b031614610934576109348282613434565b60006001600160e01b031982167f80ac58cd0000000000000000000000000000000000000000000000000000000014806132b057506001600160e01b031982167f5b5e139f00000000000000000000000000000000000000000000000000000000145b806106d557507f01ffc9a7000000000000000000000000000000000000000000000000000000006001600160e01b03198316146106d5565b600060016132f584611805565b6132ff9190613c2c565b600083815260076020526040902054909150808214613352576001600160a01b03841660009081526006602090815260408083208584528252808320548484528184208190558352600790915290208190555b5060009182526007602090815260408084208490556001600160a01b039094168352600681528383209183525290812055565b60085460009061339790600190613c2c565b600083815260096020526040812054600880549394509092849081106133bf576133bf613d32565b9060005260206000200154905080600883815481106133e0576133e0613d32565b600091825260208083209091019290925582815260099091526040808220849055858252812055600880548061341857613418613d1c565b6001900381819060005260206000200160009055905550505050565b600061343f83611805565b6001600160a01b039093166000908152600660209081526040808320868452825280832085905593825260079052919091209190915550565b82805461348490613c86565b90600052602060002090601f0160209004810192826134a657600085556134ec565b82601f106134bf57805160ff19168380011785556134ec565b828001600101855582156134ec579182015b828111156134ec5782518255916020019190600101906134d1565b506134f89291506134fc565b5090565b5b808211156134f857600081556001016134fd565b600067ffffffffffffffff8084111561352c5761352c613d48565b604051601f8501601f19908116603f0116810190828211818310171561355457613554613d48565b8160405280935085815286868601111561356d57600080fd5b858560208301376000602087830101525050509392505050565b80356001600160a01b038116811461359e57600080fd5b919050565b6000602082840312156135b557600080fd5b61140e82613587565b600080604083850312156135d157600080fd5b6135da83613587565b91506135e860208401613587565b90509250929050565b60008060006060848603121561360657600080fd5b61360f84613587565b925061361d60208501613587565b9150604084013590509250925092565b6000806000806080858703121561364357600080fd5b61364c85613587565b935061365a60208601613587565b925060408501359150606085013567ffffffffffffffff81111561367d57600080fd5b8501601f8101871361368e57600080fd5b61369d87823560208401613511565b91505092959194509250565b600080604083850312156136bc57600080fd5b6136c583613587565b9150602083013580151581146136da57600080fd5b809150509250929050565b600080604083850312156136f857600080fd5b61370183613587565b946020939093013593505050565b60008060006060848603121561372457600080fd5b61372d84613587565b95602085013595506040909401359392505050565b60006020828403121561375457600080fd5b5035919050565b6000806040838503121561376e57600080fd5b823591506135e860208401613587565b6000806040838503121561379157600080fd5b50508035926020909101359150565b6000602082840312156137b257600080fd5b813561140e81613d5e565b6000602082840312156137cf57600080fd5b815161140e81613d5e565b600080604083850312156137ed57600080fd5b823567ffffffffffffffff81111561380457600080fd5b8301601f8101851361381557600080fd5b61382485823560208401613511565b95602094909401359450505050565b6000806000806060858703121561384957600080fd5b8435935060208501359250604085013567ffffffffffffffff8082111561386f57600080fd5b818701915087601f83011261388357600080fd5b81358181111561389257600080fd5b8860208285010111156138a457600080fd5b95989497505060200194505050565b6000806000606084860312156138c857600080fd5b505081359360208301359350604090920135919050565b600080600080608085870312156138f557600080fd5b5050823594602084013594506040840135936060013592509050565b60008151808452613929816020860160208601613c43565b601f01601f19169290920160200192915050565b8054600090600181811c908083168061395757607f831692505b602080841082141561397957634e487b7160e01b600052602260045260246000fd5b8388526020880182801561399457600181146139a5576139d0565b60ff198716825282820197506139d0565b60008981526020902060005b878110156139ca578154848201529086019084016139b1565b83019850505b5050505050505092915050565b600083516139ef818460208801613c43565b835190830190613a03818360208801613c43565b01949350505050565b7f416363657373436f6e74726f6c3a206163636f756e7420000000000000000000815260008351613a44816017850160208801613c43565b7f206973206d697373696e6720726f6c65200000000000000000000000000000006017918401918201528351613a81816028840160208801613c43565b01602801949350505050565b60006001600160a01b03808716835280861660208401525083604083015260806060830152613abf6080830184613911565b9695505050505050565b6001600160a01b0384168152826020820152606060408201526000613af16060830184613911565b95945050505050565b60208152600061140e6020830184613911565b604081526000613b206040830185613911565b90508260208301529392505050565b60208152600061140e602083018461393d565b85815260006020868184015285604084015260a06060840152613b6860a0840186613911565b838103608085015284518082528286019183019060005b81811015613b9b57835183529284019291840191600101613b7f565b50909a9950505050505050505050565b85815284602082015283604082015282606082015260a060808201526000613bd660a083018461393d565b979650505050505050565b60008219821115613bf457613bf4613cf0565b500190565b600082613c0857613c08613d06565b500490565b6000816000190483118215151615613c2757613c27613cf0565b500290565b600082821015613c3e57613c3e613cf0565b500390565b60005b83811015613c5e578181015183820152602001613c46565b83811115611c895750506000910152565b600081613c7e57613c7e613cf0565b506000190190565b600181811c90821680613c9a57607f821691505b60208210811415613cbb57634e487b7160e01b600052602260045260246000fd5b50919050565b6000600019821415613cd557613cd5613cf0565b5060010190565b600082613ceb57613ceb613d06565b500690565b634e487b7160e01b600052601160045260246000fd5b634e487b7160e01b600052601260045260246000fd5b634e487b7160e01b600052603160045260246000fd5b634e487b7160e01b600052603260045260246000fd5b634e487b7160e01b600052604160045260246000fd5b6001600160e01b031981168114613d7457600080fd5b5056fea264697066735822122011e411c590f21d2a44aa8ef8bae13a40b66b38ed84978a7b6de1ac8925ef83d764736f6c634300080600333c2519c4487d47714872f92cf90a50c25f5deaec2789dc2a497b1272df611db6f0887ba65ee2024ea881d91b74c2450ef19e1557f03bed3ea9f16b037cbe2dc9872340a532bdd7bb02bea115c1b0f1ba87eac982f5b79b51ac189ffaac1b6fce",
  "linkReferences": {},
  "deployedLinkReferences": {}
}