{
  "_format": "hh-sol-artifact-1",
  "contractName": "RAIR_ERC721",
  "sourceName": "contracts/Tokens/RAIR-ERC721.sol",
  "abi": [
    {
      "inputs": [
        {
          "internalType": "string",
          "name": "_contractName",
          "type": "string"
        },
        {
          "internalType": "address",
          "name": "_creatorAddress",
          "type": "address"
        },
        {
          "internalType": "uint16",
          "name": "_creatorRoyalty",
          "type": "uint16"
        }
      ],
      "stateMutability": "nonpayable",
      "type": "constructor"
    },
    {
      "anonymous": false,
      "inputs": [
        {
          "indexed": true,
          "internalType": "address",
          "name": "owner",
          "type": "address"
        },
        {
          "indexed": true,
          "internalType": "address",
          "name": "approved",
          "type": "address"
        },
        {
          "indexed": true,
          "internalType": "uint256",
          "name": "tokenId",
          "type": "uint256"
        }
      ],
      "name": "Approval",
      "type": "event"
    },
    {
      "anonymous": false,
      "inputs": [
        {
          "indexed": true,
          "internalType": "address",
          "name": "owner",
          "type": "address"
        },
        {
          "indexed": true,
          "internalType": "address",
          "name": "operator",
          "type": "address"
        },
        {
          "indexed": false,
          "internalType": "bool",
          "name": "approved",
          "type": "bool"
        }
      ],
      "name": "ApprovalForAll",
      "type": "event"
    },
    {
      "anonymous": false,
      "inputs": [
        {
          "indexed": false,
          "internalType": "string",
          "name": "newURI",
          "type": "string"
        }
      ],
      "name": "BaseURIChanged",
      "type": "event"
    },
    {
      "anonymous": false,
      "inputs": [
        {
          "indexed": true,
          "internalType": "uint256",
          "name": "id",
          "type": "uint256"
        },
        {
          "indexed": false,
          "internalType": "string",
          "name": "name",
          "type": "string"
        }
      ],
      "name": "ProductCompleted",
      "type": "event"
    },
    {
      "anonymous": false,
      "inputs": [
        {
          "indexed": true,
          "internalType": "uint256",
          "name": "id",
          "type": "uint256"
        },
        {
          "indexed": false,
          "internalType": "string",
          "name": "name",
          "type": "string"
        },
        {
          "indexed": false,
          "internalType": "uint256",
          "name": "startingToken",
          "type": "uint256"
        },
        {
          "indexed": false,
          "internalType": "uint256",
          "name": "length",
          "type": "uint256"
        }
      ],
      "name": "ProductCreated",
      "type": "event"
    },
    {
      "anonymous": false,
      "inputs": [
        {
          "indexed": false,
          "internalType": "uint256",
          "name": "productId",
          "type": "uint256"
        },
        {
          "indexed": false,
          "internalType": "string",
          "name": "newURI",
          "type": "string"
        }
      ],
      "name": "ProductURIChanged",
      "type": "event"
    },
    {
      "anonymous": false,
      "inputs": [
        {
          "indexed": false,
          "internalType": "uint256",
          "name": "collectionIndex",
          "type": "uint256"
        },
        {
          "indexed": false,
          "internalType": "uint256",
          "name": "startingToken",
          "type": "uint256"
        },
        {
          "indexed": false,
          "internalType": "uint256",
          "name": "endingToken",
          "type": "uint256"
        },
        {
          "indexed": false,
          "internalType": "uint256",
          "name": "tokensLocked",
          "type": "uint256"
        },
        {
          "indexed": false,
          "internalType": "string",
          "name": "collectionName",
          "type": "string"
        }
      ],
      "name": "RangeLocked",
      "type": "event"
    },
    {
      "anonymous": false,
      "inputs": [
        {
          "indexed": false,
          "internalType": "uint256",
          "name": "collectionID",
          "type": "uint256"
        },
        {
          "indexed": false,
          "internalType": "uint256",
          "name": "startingToken",
          "type": "uint256"
        },
        {
          "indexed": false,
          "internalType": "uint256",
          "name": "endingToken",
          "type": "uint256"
        }
      ],
      "name": "RangeUnlocked",
      "type": "event"
    },
    {
      "anonymous": false,
      "inputs": [
        {
          "indexed": true,
          "internalType": "bytes32",
          "name": "role",
          "type": "bytes32"
        },
        {
          "indexed": true,
          "internalType": "bytes32",
          "name": "previousAdminRole",
          "type": "bytes32"
        },
        {
          "indexed": true,
          "internalType": "bytes32",
          "name": "newAdminRole",
          "type": "bytes32"
        }
      ],
      "name": "RoleAdminChanged",
      "type": "event"
    },
    {
      "anonymous": false,
      "inputs": [
        {
          "indexed": true,
          "internalType": "bytes32",
          "name": "role",
          "type": "bytes32"
        },
        {
          "indexed": true,
          "internalType": "address",
          "name": "account",
          "type": "address"
        },
        {
          "indexed": true,
          "internalType": "address",
          "name": "sender",
          "type": "address"
        }
      ],
      "name": "RoleGranted",
      "type": "event"
    },
    {
      "anonymous": false,
      "inputs": [
        {
          "indexed": true,
          "internalType": "bytes32",
          "name": "role",
          "type": "bytes32"
        },
        {
          "indexed": true,
          "internalType": "address",
          "name": "account",
          "type": "address"
        },
        {
          "indexed": true,
          "internalType": "address",
          "name": "sender",
          "type": "address"
        }
      ],
      "name": "RoleRevoked",
      "type": "event"
    },
    {
      "anonymous": false,
      "inputs": [
        {
          "indexed": false,
          "internalType": "uint256",
          "name": "tokenId",
          "type": "uint256"
        },
        {
          "indexed": false,
          "internalType": "string",
          "name": "newURI",
          "type": "string"
        }
      ],
      "name": "TokenURIChanged",
      "type": "event"
    },
    {
      "anonymous": false,
      "inputs": [
        {
          "indexed": true,
          "internalType": "address",
          "name": "from",
          "type": "address"
        },
        {
          "indexed": true,
          "internalType": "address",
          "name": "to",
          "type": "address"
        },
        {
          "indexed": true,
          "internalType": "uint256",
          "name": "tokenId",
          "type": "uint256"
        }
      ],
      "name": "Transfer",
      "type": "event"
    },
    {
      "inputs": [],
      "name": "CREATOR",
      "outputs": [
        {
          "internalType": "bytes32",
          "name": "",
          "type": "bytes32"
        }
      ],
      "stateMutability": "view",
      "type": "function"
    },
    {
      "inputs": [],
      "name": "DEFAULT_ADMIN_ROLE",
      "outputs": [
        {
          "internalType": "bytes32",
          "name": "",
          "type": "bytes32"
        }
      ],
      "stateMutability": "view",
      "type": "function"
    },
    {
      "inputs": [],
      "name": "MINTER",
      "outputs": [
        {
          "internalType": "bytes32",
          "name": "",
          "type": "bytes32"
        }
      ],
      "stateMutability": "view",
      "type": "function"
    },
    {
      "inputs": [],
      "name": "TRADER",
      "outputs": [
        {
          "internalType": "bytes32",
          "name": "",
          "type": "bytes32"
        }
      ],
      "stateMutability": "view",
      "type": "function"
    },
    {
      "inputs": [
        {
          "internalType": "address",
          "name": "to",
          "type": "address"
        },
        {
          "internalType": "uint256",
          "name": "tokenId",
          "type": "uint256"
        }
      ],
      "name": "approve",
      "outputs": [],
      "stateMutability": "nonpayable",
      "type": "function"
    },
    {
      "inputs": [
        {
          "internalType": "address",
          "name": "owner",
          "type": "address"
        }
      ],
      "name": "balanceOf",
      "outputs": [
        {
          "internalType": "uint256",
          "name": "",
          "type": "uint256"
        }
      ],
      "stateMutability": "view",
      "type": "function"
    },
    {
      "inputs": [
        {
          "internalType": "uint256",
          "name": "productIndex",
          "type": "uint256"
        },
        {
          "internalType": "uint256",
          "name": "startingToken",
          "type": "uint256"
        },
        {
          "internalType": "uint256",
          "name": "endingToken",
          "type": "uint256"
        }
      ],
      "name": "canCreateLock",
      "outputs": [
        {
          "internalType": "bool",
          "name": "canCreate",
          "type": "bool"
        }
      ],
      "stateMutability": "view",
      "type": "function"
    },
    {
      "inputs": [
        {
          "internalType": "string",
          "name": "_productName",
          "type": "string"
        },
        {
          "internalType": "uint256",
          "name": "_copies",
          "type": "uint256"
        }
      ],
      "name": "createProduct",
      "outputs": [],
      "stateMutability": "nonpayable",
      "type": "function"
    },
    {
      "inputs": [
        {
          "internalType": "uint256",
          "name": "productIndex",
          "type": "uint256"
        },
        {
          "internalType": "uint256",
          "name": "_startingToken",
          "type": "uint256"
        },
        {
          "internalType": "uint256",
          "name": "_endingToken",
          "type": "uint256"
        },
        {
          "internalType": "uint256",
          "name": "_lockedTokens",
          "type": "uint256"
        }
      ],
      "name": "createRangeLock",
      "outputs": [],
      "stateMutability": "nonpayable",
      "type": "function"
    },
    {
      "inputs": [
        {
          "internalType": "uint256",
          "name": "tokenId",
          "type": "uint256"
        }
      ],
      "name": "getApproved",
      "outputs": [
        {
          "internalType": "address",
          "name": "",
          "type": "address"
        }
      ],
      "stateMutability": "view",
      "type": "function"
    },
    {
      "inputs": [
        {
          "internalType": "uint256",
          "name": "index",
          "type": "uint256"
        }
      ],
      "name": "getLockedRange",
      "outputs": [
        {
          "internalType": "uint256",
          "name": "startingToken",
          "type": "uint256"
        },
        {
          "internalType": "uint256",
          "name": "endingToken",
          "type": "uint256"
        },
        {
          "internalType": "uint256",
          "name": "countToUnlock",
          "type": "uint256"
        },
        {
          "internalType": "uint256",
          "name": "productIndex",
          "type": "uint256"
        }
      ],
      "stateMutability": "view",
      "type": "function"
    },
    {
      "inputs": [
        {
          "internalType": "uint256",
          "name": "productID",
          "type": "uint256"
        },
        {
          "internalType": "uint256",
          "name": "startingIndex",
          "type": "uint256"
        },
        {
          "internalType": "uint256",
          "name": "endingIndex",
          "type": "uint256"
        }
      ],
      "name": "getNextSequentialIndex",
      "outputs": [
        {
          "internalType": "uint256",
          "name": "nextIndex",
          "type": "uint256"
        }
      ],
      "stateMutability": "view",
      "type": "function"
    },
    {
      "inputs": [
        {
          "internalType": "uint256",
          "name": "index",
          "type": "uint256"
        }
      ],
      "name": "getProduct",
      "outputs": [
        {
          "internalType": "uint256",
          "name": "startingToken",
          "type": "uint256"
        },
        {
          "internalType": "uint256",
          "name": "endingToken",
          "type": "uint256"
        },
        {
          "internalType": "uint256",
          "name": "mintableTokensLeft",
          "type": "uint256"
        },
        {
          "internalType": "string",
          "name": "productName",
          "type": "string"
        },
        {
          "internalType": "uint256[]",
          "name": "locks",
          "type": "uint256[]"
        }
      ],
      "stateMutability": "view",
      "type": "function"
    },
    {
      "inputs": [],
      "name": "getProductCount",
      "outputs": [
        {
          "internalType": "uint256",
          "name": "",
          "type": "uint256"
        }
      ],
      "stateMutability": "view",
      "type": "function"
    },
    {
      "inputs": [
        {
          "internalType": "bytes32",
          "name": "role",
          "type": "bytes32"
        }
      ],
      "name": "getRoleAdmin",
      "outputs": [
        {
          "internalType": "bytes32",
          "name": "",
          "type": "bytes32"
        }
      ],
      "stateMutability": "view",
      "type": "function"
    },
    {
      "inputs": [
        {
          "internalType": "bytes32",
          "name": "role",
          "type": "bytes32"
        },
        {
          "internalType": "uint256",
          "name": "index",
          "type": "uint256"
        }
      ],
      "name": "getRoleMember",
      "outputs": [
        {
          "internalType": "address",
          "name": "",
          "type": "address"
        }
      ],
      "stateMutability": "view",
      "type": "function"
    },
    {
      "inputs": [
        {
          "internalType": "bytes32",
          "name": "role",
          "type": "bytes32"
        }
      ],
      "name": "getRoleMemberCount",
      "outputs": [
        {
          "internalType": "uint256",
          "name": "",
          "type": "uint256"
        }
      ],
      "stateMutability": "view",
      "type": "function"
    },
    {
      "inputs": [
        {
          "internalType": "bytes32",
          "name": "role",
          "type": "bytes32"
        },
        {
          "internalType": "address",
          "name": "account",
          "type": "address"
        }
      ],
      "name": "grantRole",
      "outputs": [],
      "stateMutability": "nonpayable",
      "type": "function"
    },
    {
      "inputs": [
        {
          "internalType": "bytes32",
          "name": "role",
          "type": "bytes32"
        },
        {
          "internalType": "address",
          "name": "account",
          "type": "address"
        }
      ],
      "name": "hasRole",
      "outputs": [
        {
          "internalType": "bool",
          "name": "",
          "type": "bool"
        }
      ],
      "stateMutability": "view",
      "type": "function"
    },
    {
      "inputs": [
        {
          "internalType": "address",
          "name": "owner",
          "type": "address"
        },
        {
          "internalType": "uint256",
          "name": "productIndex",
          "type": "uint256"
        }
      ],
      "name": "hasTokenInProduct",
      "outputs": [
        {
          "internalType": "bool",
          "name": "",
          "type": "bool"
        }
      ],
      "stateMutability": "view",
      "type": "function"
    },
    {
      "inputs": [
        {
          "internalType": "address",
          "name": "owner",
          "type": "address"
        },
        {
          "internalType": "address",
          "name": "operator",
          "type": "address"
        }
      ],
      "name": "isApprovedForAll",
      "outputs": [
        {
          "internalType": "bool",
          "name": "",
          "type": "bool"
        }
      ],
      "stateMutability": "view",
      "type": "function"
    },
    {
      "inputs": [
        {
          "internalType": "uint256",
          "name": "_tokenId",
          "type": "uint256"
        }
      ],
      "name": "isTokenLocked",
      "outputs": [
        {
          "internalType": "bool",
          "name": "",
          "type": "bool"
        }
      ],
      "stateMutability": "view",
      "type": "function"
    },
    {
      "inputs": [
        {
          "internalType": "address",
          "name": "to",
          "type": "address"
        },
        {
          "internalType": "uint256",
          "name": "productId",
          "type": "uint256"
        },
        {
          "internalType": "uint256",
          "name": "indexInProduct",
          "type": "uint256"
        }
      ],
      "name": "mint",
      "outputs": [],
      "stateMutability": "nonpayable",
      "type": "function"
    },
    {
      "inputs": [],
      "name": "name",
      "outputs": [
        {
          "internalType": "string",
          "name": "",
          "type": "string"
        }
      ],
      "stateMutability": "view",
      "type": "function"
    },
    {
      "inputs": [
        {
          "internalType": "uint256",
          "name": "tokenId",
          "type": "uint256"
        }
      ],
      "name": "ownerOf",
      "outputs": [
        {
          "internalType": "address",
          "name": "",
          "type": "address"
        }
      ],
      "stateMutability": "view",
      "type": "function"
    },
    {
      "inputs": [
        {
          "internalType": "bytes32",
          "name": "role",
          "type": "bytes32"
        },
        {
          "internalType": "address",
          "name": "account",
          "type": "address"
        }
      ],
      "name": "renounceRole",
      "outputs": [],
      "stateMutability": "nonpayable",
      "type": "function"
    },
    {
      "inputs": [
        {
          "internalType": "bytes32",
          "name": "role",
          "type": "bytes32"
        },
        {
          "internalType": "address",
          "name": "account",
          "type": "address"
        }
      ],
      "name": "revokeRole",
      "outputs": [],
      "stateMutability": "nonpayable",
      "type": "function"
    },
    {
      "inputs": [
        {
          "internalType": "uint256",
          "name": "_tokenId",
          "type": "uint256"
        },
        {
          "internalType": "uint256",
          "name": "_salePrice",
          "type": "uint256"
        }
      ],
      "name": "royaltyInfo",
      "outputs": [
        {
          "internalType": "address",
          "name": "receiver",
          "type": "address"
        },
        {
          "internalType": "uint256",
          "name": "royaltyAmount",
          "type": "uint256"
        }
      ],
      "stateMutability": "view",
      "type": "function"
    },
    {
      "inputs": [
        {
          "internalType": "address",
          "name": "from",
          "type": "address"
        },
        {
          "internalType": "address",
          "name": "to",
          "type": "address"
        },
        {
          "internalType": "uint256",
          "name": "tokenId",
          "type": "uint256"
        }
      ],
      "name": "safeTransferFrom",
      "outputs": [],
      "stateMutability": "nonpayable",
      "type": "function"
    },
    {
      "inputs": [
        {
          "internalType": "address",
          "name": "from",
          "type": "address"
        },
        {
          "internalType": "address",
          "name": "to",
          "type": "address"
        },
        {
          "internalType": "uint256",
          "name": "tokenId",
          "type": "uint256"
        },
        {
          "internalType": "bytes",
          "name": "_data",
          "type": "bytes"
        }
      ],
      "name": "safeTransferFrom",
      "outputs": [],
      "stateMutability": "nonpayable",
      "type": "function"
    },
    {
      "inputs": [
        {
          "internalType": "address",
          "name": "operator",
          "type": "address"
        },
        {
          "internalType": "bool",
          "name": "approved",
          "type": "bool"
        }
      ],
      "name": "setApprovalForAll",
      "outputs": [],
      "stateMutability": "nonpayable",
      "type": "function"
    },
    {
      "inputs": [
        {
          "internalType": "string",
          "name": "newURI",
          "type": "string"
        }
      ],
      "name": "setBaseURI",
      "outputs": [],
      "stateMutability": "nonpayable",
      "type": "function"
    },
    {
      "inputs": [
        {
          "internalType": "uint256",
          "name": "productId",
          "type": "uint256"
        },
        {
          "internalType": "string",
          "name": "newURI",
          "type": "string"
        }
      ],
      "name": "setProductURI",
      "outputs": [],
      "stateMutability": "nonpayable",
      "type": "function"
    },
    {
      "inputs": [
        {
          "internalType": "uint256",
          "name": "tokenId",
          "type": "uint256"
        },
        {
          "internalType": "string",
          "name": "newURI",
          "type": "string"
        }
      ],
      "name": "setUniqueURI",
      "outputs": [],
      "stateMutability": "nonpayable",
      "type": "function"
    },
    {
      "inputs": [
        {
          "internalType": "bytes4",
          "name": "interfaceId",
          "type": "bytes4"
        }
      ],
      "name": "supportsInterface",
      "outputs": [
        {
          "internalType": "bool",
          "name": "",
          "type": "bool"
        }
      ],
      "stateMutability": "view",
      "type": "function"
    },
    {
      "inputs": [],
      "name": "symbol",
      "outputs": [
        {
          "internalType": "string",
          "name": "",
          "type": "string"
        }
      ],
      "stateMutability": "view",
      "type": "function"
    },
    {
      "inputs": [
        {
          "internalType": "uint256",
          "name": "index",
          "type": "uint256"
        }
      ],
      "name": "tokenByIndex",
      "outputs": [
        {
          "internalType": "uint256",
          "name": "",
          "type": "uint256"
        }
      ],
      "stateMutability": "view",
      "type": "function"
    },
    {
      "inputs": [
        {
          "internalType": "uint256",
          "name": "productIndex",
          "type": "uint256"
        }
      ],
      "name": "tokenCountByProduct",
      "outputs": [
        {
          "internalType": "uint256",
          "name": "",
          "type": "uint256"
        }
      ],
      "stateMutability": "view",
      "type": "function"
    },
    {
      "inputs": [
        {
          "internalType": "address",
          "name": "owner",
          "type": "address"
        },
        {
          "internalType": "uint256",
          "name": "index",
          "type": "uint256"
        }
      ],
      "name": "tokenOfOwnerByIndex",
      "outputs": [
        {
          "internalType": "uint256",
          "name": "",
          "type": "uint256"
        }
      ],
      "stateMutability": "view",
      "type": "function"
    },
    {
      "inputs": [
        {
          "internalType": "uint256",
          "name": "",
          "type": "uint256"
        }
      ],
      "name": "tokenToProduct",
      "outputs": [
        {
          "internalType": "uint256",
          "name": "",
          "type": "uint256"
        }
      ],
      "stateMutability": "view",
      "type": "function"
    },
    {
      "inputs": [
        {
          "internalType": "uint256",
          "name": "token",
          "type": "uint256"
        }
      ],
      "name": "tokenToProductIndex",
      "outputs": [
        {
          "internalType": "uint256",
          "name": "tokenIndex",
          "type": "uint256"
        }
      ],
      "stateMutability": "view",
      "type": "function"
    },
    {
      "inputs": [
        {
          "internalType": "uint256",
          "name": "tokenId",
          "type": "uint256"
        }
      ],
      "name": "tokenURI",
      "outputs": [
        {
          "internalType": "string",
          "name": "",
          "type": "string"
        }
      ],
      "stateMutability": "view",
      "type": "function"
    },
    {
      "inputs": [
        {
          "internalType": "uint256",
          "name": "",
          "type": "uint256"
        },
        {
          "internalType": "uint256",
          "name": "",
          "type": "uint256"
        }
      ],
      "name": "tokensByProduct",
      "outputs": [
        {
          "internalType": "uint256",
          "name": "",
          "type": "uint256"
        }
      ],
      "stateMutability": "view",
      "type": "function"
    },
    {
      "inputs": [],
      "name": "totalSupply",
      "outputs": [
        {
          "internalType": "uint256",
          "name": "",
          "type": "uint256"
        }
      ],
      "stateMutability": "view",
      "type": "function"
    },
    {
      "inputs": [
        {
          "internalType": "address",
          "name": "from",
          "type": "address"
        },
        {
          "internalType": "address",
          "name": "to",
          "type": "address"
        },
        {
          "internalType": "uint256",
          "name": "tokenId",
          "type": "uint256"
        }
      ],
      "name": "transferFrom",
      "outputs": [],
      "stateMutability": "nonpayable",
      "type": "function"
    }
  ],
  "bytecode": "0x60806040523480156200001157600080fd5b5060405162004309380380620043098339810160408190526200003491620003e1565b82604051806040016040528060048152602001632920a4a960e11b81525081600090805190602001906200006a9291906200030b565b508051620000809060019060208401906200030b565b5050601480546001600160b01b0319163361ffff60a01b191617600160a01b61ffff85160217905550620000d3600080516020620042c9833981519152600080516020620042a983398151915262000157565b620000fd600080516020620042e9833981519152600080516020620042a983398151915262000157565b62000118600080516020620042a983398151915283620001a2565b62000133600080516020620042c983398151915283620001a2565b6200014e600080516020620042e983398151915283620001a2565b50505062000537565b6000828152600a6020526040808220600101805490849055905190918391839186917fbd79b86ffe0ab8e8776151514217cd7cacd52c909f66475c3af44e129f0b00ff9190a4505050565b620001b98282620001e560201b620020f01760201c565b6000828152600b60209081526040909120620001e0918390620020fe620001f5821b17901c565b505050565b620001f1828262000215565b5050565b60006200020c836001600160a01b038416620002b9565b90505b92915050565b6000828152600a602090815260408083206001600160a01b038516845290915290205460ff16620001f1576000828152600a602090815260408083206001600160a01b03851684529091529020805460ff19166001179055620002753390565b6001600160a01b0316816001600160a01b0316837f2f8788117e7eff1d82e926ec794901d17c78024a50270940304540a733656f0d60405160405180910390a45050565b600081815260018301602052604081205462000302575081546001818101845560008481526020808220909301849055845484825282860190935260409020919091556200020f565b5060006200020f565b8280546200031990620004e4565b90600052602060002090601f0160209004810192826200033d576000855562000388565b82601f106200035857805160ff191683800117855562000388565b8280016001018555821562000388579182015b82811115620003885782518255916020019190600101906200036b565b50620003969291506200039a565b5090565b5b808211156200039657600081556001016200039b565b80516001600160a01b0381168114620003c957600080fd5b919050565b805161ffff81168114620003c957600080fd5b600080600060608486031215620003f757600080fd5b83516001600160401b03808211156200040f57600080fd5b818601915086601f8301126200042457600080fd5b81518181111562000439576200043962000521565b604051601f8201601f19908116603f0116810190838211818310171562000464576200046462000521565b816040528281526020935089848487010111156200048157600080fd5b600091505b82821015620004a5578482018401518183018501529083019062000486565b82821115620004b75760008484830101525b9650620004c9915050868201620003b1565b93505050620004db60408501620003ce565b90509250925092565b600181811c90821680620004f957607f821691505b602082108114156200051b57634e487b7160e01b600052602260045260246000fd5b50919050565b634e487b7160e01b600052604160045260246000fd5b613d6280620005476000396000f3fe608060405234801561001057600080fd5b506004361061027f5760003560e01c806355f804b31161015c578063b9db15b4116100ce578063d547741f11610087578063d547741f146105fd578063d76bf56614610610578063e4fbb60914610630578063e9300c6c14610645578063e985e9c514610658578063fe6d81241461066b57600080fd5b8063b9db15b41461057a578063bda5ec331461059e578063c00b83c5146105b1578063c87b56dd146105c4578063ca15c873146105d7578063d403bf86146105ea57600080fd5b80639010d07c116101205780639010d07c1461051e57806391d148541461053157806395d89b4114610544578063a217fddf1461054c578063a22cb46514610554578063b88d4fde1461056757600080fd5b806355f804b31461049f5780636352211e146104b257806370a08231146104c5578063876654a0146104d85780638a9d7b211461050b57600080fd5b806324704bd7116101f55780632f745c59116101b95780632f745c591461043857806336568abe1461044b5780633d42f2061461045e57806342842e0e146104715780634a348da9146104845780634f6ccce71461048c57600080fd5b806324704bd7146103aa578063248a9ca3146103bd578063276a28a3146103e05780632a55205a146103f35780632f2ff15d1461042557600080fd5b8063156e29f611610247578063156e29f61461032f57806315a1824114610342578063175c4ef81461035557806318160ddd1461037c5780631c899d1a1461038457806323b872dd1461039757600080fd5b806301ffc9a7146102845780630301e1e2146102ac57806306fdde03146102da578063081812fc146102ef578063095ea7b31461031a575b600080fd5b61029761029236600461361a565b610692565b60405190151581526020015b60405180910390f35b6102cc6102ba3660046135bc565b6000908152600c602052604090205490565b6040519081526020016102a3565b6102e26106bd565b6040516102a39190613983565b6103026102fd3660046135bc565b61074f565b6040516001600160a01b0390911681526020016102a3565b61032d61032836600461355f565b6107e9565b005b61032d61033d366004613589565b6108ff565b61032d610350366004613767565b610c7c565b6102cc7f872340a532bdd7bb02bea115c1b0f1ba87eac982f5b79b51ac189ffaac1b6fce81565b6008546102cc565b61032d6103923660046136ef565b610f86565b61032d6103a536600461346b565b610fe0565b6102cc6103b83660046135f8565b611011565b6102cc6103cb3660046135bc565b6000908152600a602052604090206001015490565b6102976103ee3660046135bc565b611042565b6104066104013660046135f8565b6110c8565b604080516001600160a01b0390931683526020830191909152016102a3565b61032d6104333660046135d5565b611117565b6102cc61044636600461355f565b611139565b61032d6104593660046135d5565b6111cf565b61029761046c36600461373b565b6111f1565b61032d61047f36600461346b565b6113f7565b6013546102cc565b6102cc61049a3660046135bc565b611412565b61032d6104ad366004613654565b6114a5565b6103026104c03660046135bc565b6114ef565b6102cc6104d336600461341d565b611566565b6104eb6104e63660046135bc565b6115ed565b6040805194855260208501939093529183015260608201526080016102a3565b61029761051936600461355f565b6117c4565b61030261052c3660046135f8565b611822565b61029761053f3660046135d5565b61183a565b6102e2611865565b6102cc600081565b61032d610562366004613523565b611874565b61032d6105753660046134a7565b611939565b61058d6105883660046135bc565b611971565b6040516102a3959493929190613ad7565b6102cc6105ac36600461373b565b611ada565b6102cc6105bf3660046135bc565b611d1b565b6102e26105d23660046135bc565b611d5c565b6102cc6105e53660046135bc565b611ef5565b61032d6105f83660046136ef565b611f0c565b61032d61060b3660046135d5565b611f59565b6102cc61061e3660046135bc565b600d6020526000908152604090205481565b6102cc600080516020613d0d83398151915281565b61032d610653366004613696565b611f63565b610297610666366004613438565b612090565b6102cc7ff0887ba65ee2024ea881d91b74c2450ef19e1557f03bed3ea9f16b037cbe2dc981565b60006001600160e01b03198216632baae9fd60e01b14806106b757506106b782612113565b92915050565b6060600080546106cc90613c1b565b80601f01602080910402602001604051908101604052809291908181526020018280546106f890613c1b565b80156107455780601f1061071a57610100808354040283529160200191610745565b820191906000526020600020905b81548152906001019060200180831161072857829003601f168201915b5050505050905090565b6000818152600260205260408120546001600160a01b03166107cd5760405162461bcd60e51b815260206004820152602c60248201527f4552433732313a20617070726f76656420717565727920666f72206e6f6e657860448201526b34b9ba32b73a103a37b5b2b760a11b60648201526084015b60405180910390fd5b506000908152600460205260409020546001600160a01b031690565b60006107f4826114ef565b9050806001600160a01b0316836001600160a01b031614156108625760405162461bcd60e51b815260206004820152602160248201527f4552433732313a20617070726f76616c20746f2063757272656e74206f776e656044820152603960f91b60648201526084016107c4565b336001600160a01b038216148061087e575061087e8133612090565b6108f05760405162461bcd60e51b815260206004820152603860248201527f4552433732313a20617070726f76652063616c6c6572206973206e6f74206f7760448201527f6e6572206e6f7220617070726f76656420666f7220616c6c000000000000000060648201526084016107c4565b6108fa8383612138565b505050565b7ff0887ba65ee2024ea881d91b74c2450ef19e1557f03bed3ea9f16b037cbe2dc961092a81336121a6565b6013548390811061094d5760405162461bcd60e51b81526004016107c490613a20565b60006013858154811061096257610962613cc7565b90600052602060002090600502019050806000015481600101546109869190613bc1565b8411156109d55760405162461bcd60e51b815260206004820181905260248201527f52414952204552433732313a20496e76616c696420746f6b656e20696e64657860448201526064016107c4565b6109ee868583600001546109e99190613b76565b61220a565b6000858152600c602052604090208154610a09908690613b76565b8154600181018355600092835260208320015581548691600d91610a2e908890613b76565b815260200190815260200160002081905550806002016000815480929190610a5590613c04565b9091555060009050805b6004830154811015610c2d578254610a78908790613b76565b6012846004018381548110610a8f57610a8f613cc7565b906000526020600020015481548110610aaa57610aaa613cc7565b90600052602060002090600402016000015411158015610b1957508254610ad2908790613b76565b6012846004018381548110610ae957610ae9613cc7565b906000526020600020015481548110610b0457610b04613cc7565b90600052602060002090600402016001015410155b15610c1b576012836004018281548110610b3557610b35613cc7565b906000526020600020015481548110610b5057610b50613cc7565b90600052602060002090600402019150826004018181548110610b7557610b75613cc7565b9060005260206000200154600e6000888660000154610b949190613b76565b8152602081019190915260400160002055600282015415610c1657600282018054906000610bc183613c04565b90915550506002820154610c165781546001830154604080518a815260208101939093528201527fd3edbeb94dfb8eadcd8c291774b9ac3cc9b06af829273e295bf3197849934b889060600160405180910390a15b610c2d565b80610c2581613c56565b915050610a5f565b506002820154610c7357857f7118e1ae63262db55027a75ee525791f482e7fdf6c2ccb6c11528bf1652780e183600301604051610c6a91906139bb565b60405180910390a25b50505050505050565b600080516020613d0d833981519152610c9581336121a6565b60135485908110610cb85760405162461bcd60e51b81526004016107c490613a20565b600060138781548110610ccd57610ccd613cc7565b906000526020600020906005020190508060010154858260000154610cf29190613b76565b1115610d4a5760405162461bcd60e51b815260206004820152602160248201527f52414952204552433732313a20496e76616c696420656e64696e6720746f6b656044820152603760f91b60648201526084016107c4565b80546001820154610d5b9190613bc1565b610d658787613bc1565b1115610dbd5760405162461bcd60e51b815260206004820152602160248201527f52414952204552433732313a20496e76616c696420746f6b656e206c696d69746044820152607360f81b60648201526084016107c4565b83610dc88787613bc1565b610dd3906001613b76565b1015610e375760405162461bcd60e51b815260206004820152602d60248201527f52414952204552433732313a20496e76616c6964206e756d626572206f66207460448201526c6f6b656e7320746f206c6f636b60981b60648201526084016107c4565b610e428787876111f1565b610e8e5760405162461bcd60e51b815260206004820152601f60248201527f52414952204552433732313a2043616e6e6f7420637265617465206c6f636b0060448201526064016107c4565b60128054600181018255600091909152815460049091027fbb8a6a4669ba250d26cd7a459eca9d215f8307e33aebe50379bc5a3617ec34440190610ed3908890613b76565b81558154610ee2908790613b76565b60018083019190915560028201869055600382018990556012546004840191610f0a91613bc1565b8154600181018355600092835260209092209091015581547f0b8fece546364ce1dcadcf45028659aff64e7a166d735eb32da27050fd520f69908990610f51908a90613b76565b8454610f5e908a90613b76565b8886600301604051610f74959493929190613b40565b60405180910390a15050505050505050565b6000838152601060205260409020610f9f90838361323c565b507f483621391b5e72d74eb03c7b5715531c486e326fb115ab3bcf34b133041854ce838383604051610fd393929190613ab4565b60405180910390a1505050565b610fea3382612224565b6110065760405162461bcd60e51b81526004016107c490613a63565b6108fa8383836122fb565b600c602052816000526040600020818154811061102d57600080fd5b90600052602060002001600091509150505481565b6000818152600d6020908152604080832054600e90925282205460128054909190811061107157611071613cc7565b9060005260206000209060040201600301541480156106b757506000828152600e60205260408120546012805490919081106110af576110af613cc7565b9060005260206000209060040201600201541192915050565b6000806110e4600080516020613d0d8339815191526000611822565b601454620186a09061110190600160a01b900461ffff1686613ba2565b61110b9190613b8e565b915091505b9250929050565b61112182826124a6565b6000828152600b602052604090206108fa90826120fe565b600061114483611566565b82106111a65760405162461bcd60e51b815260206004820152602b60248201527f455243373231456e756d657261626c653a206f776e657220696e646578206f7560448201526a74206f6620626f756e647360a81b60648201526084016107c4565b506001600160a01b03919091166000908152600660209081526040808320938352929052205490565b6111d982826124cc565b6000828152600b602052604090206108fa9082612546565b6000806013858154811061120757611207613cc7565b906000526020600020906005020190508060000154816001015461122b9190613bc1565b8411806112475750805460018201546112449190613bc1565b83115b156112565760009150506113f0565b60005b60048201548110156113e9578154611272908690613b76565b601283600401838154811061128957611289613cc7565b9060005260206000200154815481106112a4576112a4613cc7565b90600052602060002090600402016000015411158015611313575081546112cc908690613b76565b60128360040183815481106112e3576112e3613cc7565b9060005260206000200154815481106112fe576112fe613cc7565b90600052602060002090600402016001015410155b806113c757508154611326908590613b76565b601283600401838154811061133d5761133d613cc7565b90600052602060002001548154811061135857611358613cc7565b906000526020600020906004020160000154111580156113c757508154611380908590613b76565b601283600401838154811061139757611397613cc7565b9060005260206000200154815481106113b2576113b2613cc7565b90600052602060002090600402016001015410155b156113d7576000925050506113f0565b806113e181613c56565b915050611259565b5060019150505b9392505050565b6108fa83838360405180602001604052806000815250611939565b600061141d60085490565b82106114805760405162461bcd60e51b815260206004820152602c60248201527f455243373231456e756d657261626c653a20676c6f62616c20696e646578206f60448201526b7574206f6620626f756e647360a01b60648201526084016107c4565b6008828154811061149357611493613cc7565b90600052602060002001549050919050565b6114b1600f838361323c565b507f5411e8ebf1636d9e83d5fc4900bf80cbac82e8790da2a4c94db4895e889eedf682826040516114e392919061396f565b60405180910390a15050565b6000818152600260205260408120546001600160a01b0316806106b75760405162461bcd60e51b815260206004820152602960248201527f4552433732313a206f776e657220717565727920666f72206e6f6e657869737460448201526832b73a103a37b5b2b760b91b60648201526084016107c4565b60006001600160a01b0382166115d15760405162461bcd60e51b815260206004820152602a60248201527f4552433732313a2062616c616e636520717565727920666f7220746865207a65604482015269726f206164647265737360b01b60648201526084016107c4565b506001600160a01b031660009081526003602052604090205490565b60008060008060006012868154811061160857611608613cc7565b906000526020600020906004020160405180608001604052908160008201548152602001600182015481526020016002820154815260200160038201548152505090506000601382606001518154811061166457611664613cc7565b90600052602060002090600502016040518060a00160405290816000820154815260200160018201548152602001600282015481526020016003820180546116ab90613c1b565b80601f01602080910402602001604051908101604052809291908181526020018280546116d790613c1b565b80156117245780601f106116f957610100808354040283529160200191611724565b820191906000526020600020905b81548152906001019060200180831161170757829003601f168201915b505050505081526020016004820180548060200260200160405190810160405280929190818152602001828054801561177c57602002820191906000526020600020905b815481526020019060010190808311611768575b5050509190925250508151845192935061179892909150613bc1565b815160208401516117a99190613bc1565b83604001518460600151955095509550955050509193509193565b6000805b6117d184611566565b8110156118185782600d60006117e78785611139565b81526020019081526020016000205414156118065760019150506106b7565b8061181081613c56565b9150506117c8565b5060009392505050565b6000828152600b602052604081206113f0908361255b565b6000918252600a602090815260408084206001600160a01b0393909316845291905290205460ff1690565b6060600180546106cc90613c1b565b6001600160a01b0382163314156118cd5760405162461bcd60e51b815260206004820152601960248201527f4552433732313a20617070726f766520746f2063616c6c65720000000000000060448201526064016107c4565b3360008181526005602090815260408083206001600160a01b03871680855290835292819020805460ff191686151590811790915590519081529192917f17307eab39ab6107e8899845ad3d59bd9653f200f220920489ca2b5937696c31910160405180910390a35050565b6119433383612224565b61195f5760405162461bcd60e51b81526004016107c490613a63565b61196b84848484612567565b50505050565b600080600060608060006013878154811061198e5761198e613cc7565b90600052602060002090600502016040518060a00160405290816000820154815260200160018201548152602001600282015481526020016003820180546119d590613c1b565b80601f0160208091040260200160405190810160405280929190818152602001828054611a0190613c1b565b8015611a4e5780601f10611a2357610100808354040283529160200191611a4e565b820191906000526020600020905b815481529060010190602001808311611a3157829003601f168201915b5050505050815260200160048201805480602002602001604051908101604052809291908181526020018280548015611aa657602002820191906000526020600020905b815481526020019060010190808311611a92575b5050509190925250508151602083015160408401516060850151608090950151929c919b5099509297509550909350505050565b6000838060138054905011611b015760405162461bcd60e51b81526004016107c490613a20565b600060138681548110611b1657611b16613cc7565b90600052602060002090600502016040518060a0016040529081600082015481526020016001820154815260200160028201548152602001600382018054611b5d90613c1b565b80601f0160208091040260200160405190810160405280929190818152602001828054611b8990613c1b565b8015611bd65780601f10611bab57610100808354040283529160200191611bd6565b820191906000526020600020905b815481529060010190602001808311611bb957829003601f168201915b5050505050815260200160048201805480602002602001604051908101604052809291908181526020018280548015611c2e57602002820191906000526020600020905b815481526020019060010190808311611c1a575b50505050508152505090506000858260000151611c4b9190613b76565b90505b8151611c5b908690613b76565b8111611ca4576000818152600260205260409020546001600160a01b0316611c92578151611c899082613bc1565b93505050611d13565b80611c9c81613c56565b915050611c4e565b5060405162461bcd60e51b815260206004820152603960248201527f52414952204552433732313a20546865726520617265206e6f20617661696c6160448201527f626c6520746f6b656e7320696e20746869732072616e67652e0000000000000060648201526084016107c4565b509392505050565b6000818152600d6020526040812054601380549091908110611d3f57611d3f613cc7565b906000526020600020906005020160000154826106b79190613bc1565b600081815260106020526040812080546060929190611d7a90613c1b565b80601f0160208091040260200160405190810160405280929190818152602001828054611da690613c1b565b8015611df35780601f10611dc857610100808354040283529160200191611df3565b820191906000526020600020905b815481529060010190602001808311611dd657829003601f168201915b50505050509050600081511115611e0a5792915050565b6000838152600d60209081526040808320548352601190915290208054611e3090613c1b565b80601f0160208091040260200160405190810160405280929190818152602001828054611e5c90613c1b565b8015611ea95780601f10611e7e57610100808354040283529160200191611ea9565b820191906000526020600020905b815481529060010190602001808311611e8c57829003601f168201915b50505050509050600081511115611eec5780611ec48461259a565b604051602001611ed592919061388e565b604051602081830303815290604052915050919050565b6113f083612698565b6000818152600b602052604081206106b79061274b565b6000838152601160205260409020611f2590838361323c565b507f658b273d88cb66d5790b2e0cb1510b48ab78d39cba1c9cad2df51068c42c607c838383604051610fd393929190613ab4565b6111d98282612755565b600080516020613d0d833981519152611f7c81336121a6565b60135460009015611fca5760138054611f9790600190613bc1565b81548110611fa757611fa7613cc7565b9060005260206000209060050201600101546001611fc59190613b76565b611fcd565b60005b60138054600181810183556000929092526005027f66de8ffda797e3de9c05e8fc57b3bf0ec28a930d40b0d285d93c06501cf6a090018281559192506120138584613b76565b61201d9190613bc1565b6001820155845161203790600383019060208801906132c0565b506002810184905560135461204e90600190613bc1565b7f8d3d82130aebba03bb48b5d158bc2bbb4647856765b1089e7250507307965af986848760405161208193929190613996565b60405180910390a25050505050565b60006120bc7f872340a532bdd7bb02bea115c1b0f1ba87eac982f5b79b51ac189ffaac1b6fce8361183a565b806113f057506001600160a01b0380841660009081526005602090815260408083209386168352929052205460ff166113f0565b6120fa828261277b565b5050565b60006113f0836001600160a01b038416612801565b60006001600160e01b03198216635a05180f60e01b14806106b757506106b782612850565b600081815260046020526040902080546001600160a01b0319166001600160a01b038416908117909155819061216d826114ef565b6001600160a01b03167f8c5be1e5ebec7d5bd14f71427d1e84f3dd0314c0f7b2291e5b200ac8c7c3b92560405160405180910390a45050565b6121b0828261183a565b6120fa576121c8816001600160a01b03166014612875565b6121d3836020612875565b6040516020016121e49291906138bd565b60408051601f198184030181529082905262461bcd60e51b82526107c491600401613983565b6120fa828260405180602001604052806000815250612a11565b6000818152600260205260408120546001600160a01b031661229d5760405162461bcd60e51b815260206004820152602c60248201527f4552433732313a206f70657261746f7220717565727920666f72206e6f6e657860448201526b34b9ba32b73a103a37b5b2b760a11b60648201526084016107c4565b60006122a8836114ef565b9050806001600160a01b0316846001600160a01b031614806122e35750836001600160a01b03166122d88461074f565b6001600160a01b0316145b806122f357506122f38185612090565b949350505050565b826001600160a01b031661230e826114ef565b6001600160a01b0316146123765760405162461bcd60e51b815260206004820152602960248201527f4552433732313a207472616e73666572206f6620746f6b656e2074686174206960448201526839903737ba1037bbb760b91b60648201526084016107c4565b6001600160a01b0382166123d85760405162461bcd60e51b8152602060048201526024808201527f4552433732313a207472616e7366657220746f20746865207a65726f206164646044820152637265737360e01b60648201526084016107c4565b6123e3838383612a44565b6123ee600082612138565b6001600160a01b0383166000908152600360205260408120805460019290612417908490613bc1565b90915550506001600160a01b0382166000908152600360205260408120805460019290612445908490613b76565b909155505060008181526002602052604080822080546001600160a01b0319166001600160a01b0386811691821790925591518493918716917fddf252ad1be2c89b69c2b068fc378daa952ba7f163c4a11628f55a4df523b3ef91a4505050565b6000828152600a60205260409020600101546124c281336121a6565b6108fa838361277b565b6001600160a01b038116331461253c5760405162461bcd60e51b815260206004820152602f60248201527f416363657373436f6e74726f6c3a2063616e206f6e6c792072656e6f756e636560448201526e103937b632b9903337b91039b2b63360891b60648201526084016107c4565b6120fa8282612b91565b60006113f0836001600160a01b038416612bf8565b60006113f08383612ceb565b6125728484846122fb565b61257e84848484612d15565b61196b5760405162461bcd60e51b81526004016107c4906139ce565b6060816125be5750506040805180820190915260018152600360fc1b602082015290565b8160005b81156125e857806125d281613c56565b91506125e19050600a83613b8e565b91506125c2565b60008167ffffffffffffffff81111561260357612603613cdd565b6040519080825280601f01601f19166020018201604052801561262d576020820181803683370190505b5090505b84156122f357612642600183613bc1565b915061264f600a86613c71565b61265a906030613b76565b60f81b81838151811061266f5761266f613cc7565b60200101906001600160f81b031916908160001a905350612691600a86613b8e565b9450612631565b6000818152600260205260409020546060906001600160a01b03166127175760405162461bcd60e51b815260206004820152602f60248201527f4552433732314d657461646174613a2055524920717565727920666f72206e6f60448201526e3732bc34b9ba32b73a103a37b5b2b760891b60648201526084016107c4565b6000612721612e22565b9050600081511161274157604051806020016040528060008152506113f0565b80611ec48461259a565b60006106b7825490565b6000828152600a602052604090206001015461277181336121a6565b6108fa8383612b91565b612785828261183a565b6120fa576000828152600a602090815260408083206001600160a01b03851684529091529020805460ff191660011790556127bd3390565b6001600160a01b0316816001600160a01b0316837f2f8788117e7eff1d82e926ec794901d17c78024a50270940304540a733656f0d60405160405180910390a45050565b6000818152600183016020526040812054612848575081546001818101845560008481526020808220909301849055845484825282860190935260409020919091556106b7565b5060006106b7565b60006001600160e01b03198216637965db0b60e01b14806106b757506106b782612e31565b60606000612884836002613ba2565b61288f906002613b76565b67ffffffffffffffff8111156128a7576128a7613cdd565b6040519080825280601f01601f1916602001820160405280156128d1576020820181803683370190505b509050600360fc1b816000815181106128ec576128ec613cc7565b60200101906001600160f81b031916908160001a905350600f60fb1b8160018151811061291b5761291b613cc7565b60200101906001600160f81b031916908160001a905350600061293f846002613ba2565b61294a906001613b76565b90505b60018111156129c2576f181899199a1a9b1b9c1cb0b131b232b360811b85600f166010811061297e5761297e613cc7565b1a60f81b82828151811061299457612994613cc7565b60200101906001600160f81b031916908160001a90535060049490941c936129bb81613c04565b905061294d565b5083156113f05760405162461bcd60e51b815260206004820181905260248201527f537472696e67733a20686578206c656e67746820696e73756666696369656e7460448201526064016107c4565b612a1b8383612e56565b612a286000848484612d15565b6108fa5760405162461bcd60e51b81526004016107c4906139ce565b6001600160a01b03831615801590612a6457506001600160a01b03821615155b15612b86576000818152600d6020908152604080832054600e90925290912054601280549091908110612a9957612a99613cc7565b9060005260206000209060040201600301541415612b5c576000818152600e6020526040902054601280549091908110612ad557612ad5613cc7565b906000526020600020906004020160020154600014612b5c5760405162461bcd60e51b815260206004820152603a60248201527f52414952204552433732313a205472616e736665727320666f7220746869732060448201527f72616e6765206172652063757272656e746c79206c6f636b656400000000000060648201526084016107c4565b612b867f872340a532bdd7bb02bea115c1b0f1ba87eac982f5b79b51ac189ffaac1b6fce336121a6565b6108fa838383612fa4565b612b9b828261183a565b156120fa576000828152600a602090815260408083206001600160a01b0385168085529252808320805460ff1916905551339285917ff6391f5c32d9c69d2a47ea670b442974b53935d1edc7fd64eb21e047a839171b9190a45050565b60008181526001830160205260408120548015612ce1576000612c1c600183613bc1565b8554909150600090612c3090600190613bc1565b9050818114612c95576000866000018281548110612c5057612c50613cc7565b9060005260206000200154905080876000018481548110612c7357612c73613cc7565b6000918252602080832090910192909255918252600188019052604090208390555b8554869080612ca657612ca6613cb1565b6001900381819060005260206000200160009055905585600101600086815260200190815260200160002060009055600193505050506106b7565b60009150506106b7565b6000826000018281548110612d0257612d02613cc7565b9060005260206000200154905092915050565b60006001600160a01b0384163b15612e1757604051630a85bd0160e11b81526001600160a01b0385169063150b7a0290612d59903390899088908890600401613932565b602060405180830381600087803b158015612d7357600080fd5b505af1925050508015612da3575060408051601f3d908101601f19168201909252612da091810190613637565b60015b612dfd573d808015612dd1576040519150601f19603f3d011682016040523d82523d6000602084013e612dd6565b606091505b508051612df55760405162461bcd60e51b81526004016107c4906139ce565b805181602001fd5b6001600160e01b031916630a85bd0160e11b1490506122f3565b506001949350505050565b6060600f80546106cc90613c1b565b60006001600160e01b0319821663780e9d6360e01b14806106b757506106b78261305c565b6001600160a01b038216612eac5760405162461bcd60e51b815260206004820181905260248201527f4552433732313a206d696e7420746f20746865207a65726f206164647265737360448201526064016107c4565b6000818152600260205260409020546001600160a01b031615612f115760405162461bcd60e51b815260206004820152601c60248201527f4552433732313a20746f6b656e20616c7265616479206d696e7465640000000060448201526064016107c4565b612f1d60008383612a44565b6001600160a01b0382166000908152600360205260408120805460019290612f46908490613b76565b909155505060008181526002602052604080822080546001600160a01b0319166001600160a01b03861690811790915590518392907fddf252ad1be2c89b69c2b068fc378daa952ba7f163c4a11628f55a4df523b3ef908290a45050565b6001600160a01b038316612fff57612ffa81600880546000838152600960205260408120829055600182018355919091527ff3f7a9fe364faab93b216da50a3214154f22a0a2b415b23a84c8169e8b636ee30155565b613022565b816001600160a01b0316836001600160a01b0316146130225761302283826130ac565b6001600160a01b038216613039576108fa81613149565b826001600160a01b0316826001600160a01b0316146108fa576108fa82826131f8565b60006001600160e01b031982166380ac58cd60e01b148061308d57506001600160e01b03198216635b5e139f60e01b145b806106b757506301ffc9a760e01b6001600160e01b03198316146106b7565b600060016130b984611566565b6130c39190613bc1565b600083815260076020526040902054909150808214613116576001600160a01b03841660009081526006602090815260408083208584528252808320548484528184208190558352600790915290208190555b5060009182526007602090815260408084208490556001600160a01b039094168352600681528383209183525290812055565b60085460009061315b90600190613bc1565b6000838152600960205260408120546008805493945090928490811061318357613183613cc7565b9060005260206000200154905080600883815481106131a4576131a4613cc7565b60009182526020808320909101929092558281526009909152604080822084905585825281205560088054806131dc576131dc613cb1565b6001900381819060005260206000200160009055905550505050565b600061320383611566565b6001600160a01b039093166000908152600660209081526040808320868452825280832085905593825260079052919091209190915550565b82805461324890613c1b565b90600052602060002090601f01602090048101928261326a57600085556132b0565b82601f106132835782800160ff198235161785556132b0565b828001600101855582156132b0579182015b828111156132b0578235825591602001919060010190613295565b506132bc929150613334565b5090565b8280546132cc90613c1b565b90600052602060002090601f0160209004810192826132ee57600085556132b0565b82601f1061330757805160ff19168380011785556132b0565b828001600101855582156132b0579182015b828111156132b0578251825591602001919060010190613319565b5b808211156132bc5760008155600101613335565b600067ffffffffffffffff8084111561336457613364613cdd565b604051601f8501601f19908116603f0116810190828211818310171561338c5761338c613cdd565b816040528093508581528686860111156133a557600080fd5b858560208301376000602087830101525050509392505050565b80356001600160a01b03811681146133d657600080fd5b919050565b60008083601f8401126133ed57600080fd5b50813567ffffffffffffffff81111561340557600080fd5b60208301915083602082850101111561111057600080fd5b60006020828403121561342f57600080fd5b6113f0826133bf565b6000806040838503121561344b57600080fd5b613454836133bf565b9150613462602084016133bf565b90509250929050565b60008060006060848603121561348057600080fd5b613489846133bf565b9250613497602085016133bf565b9150604084013590509250925092565b600080600080608085870312156134bd57600080fd5b6134c6856133bf565b93506134d4602086016133bf565b925060408501359150606085013567ffffffffffffffff8111156134f757600080fd5b8501601f8101871361350857600080fd5b61351787823560208401613349565b91505092959194509250565b6000806040838503121561353657600080fd5b61353f836133bf565b91506020830135801515811461355457600080fd5b809150509250929050565b6000806040838503121561357257600080fd5b61357b836133bf565b946020939093013593505050565b60008060006060848603121561359e57600080fd5b6135a7846133bf565b95602085013595506040909401359392505050565b6000602082840312156135ce57600080fd5b5035919050565b600080604083850312156135e857600080fd5b82359150613462602084016133bf565b6000806040838503121561360b57600080fd5b50508035926020909101359150565b60006020828403121561362c57600080fd5b81356113f081613cf3565b60006020828403121561364957600080fd5b81516113f081613cf3565b6000806020838503121561366757600080fd5b823567ffffffffffffffff81111561367e57600080fd5b61368a858286016133db565b90969095509350505050565b600080604083850312156136a957600080fd5b823567ffffffffffffffff8111156136c057600080fd5b8301601f810185136136d157600080fd5b6136e085823560208401613349565b95602094909401359450505050565b60008060006040848603121561370457600080fd5b83359250602084013567ffffffffffffffff81111561372257600080fd5b61372e868287016133db565b9497909650939450505050565b60008060006060848603121561375057600080fd5b505081359360208301359350604090920135919050565b6000806000806080858703121561377d57600080fd5b5050823594602084013594506040840135936060013592509050565b600081518084526137b1816020860160208601613bd8565b601f01601f19169290920160200192915050565b81835281816020850137506000828201602090810191909152601f909101601f19169091010190565b8054600090600181811c908083168061380857607f831692505b602080841082141561382a57634e487b7160e01b600052602260045260246000fd5b83885260208801828015613845576001811461385657613881565b60ff19871682528282019750613881565b60008981526020902060005b8781101561387b57815484820152908601908401613862565b83019850505b5050505050505092915050565b600083516138a0818460208801613bd8565b8351908301906138b4818360208801613bd8565b01949350505050565b7f416363657373436f6e74726f6c3a206163636f756e74200000000000000000008152600083516138f5816017850160208801613bd8565b7001034b99036b4b9b9b4b733903937b6329607d1b6017918401918201528351613926816028840160208801613bd8565b01602801949350505050565b6001600160a01b038581168252841660208201526040810183905260806060820181905260009061396590830184613799565b9695505050505050565b6020815260006122f36020830184866137c5565b6020815260006113f06020830184613799565b6060815260006139a96060830186613799565b60208301949094525060400152919050565b6020815260006113f060208301846137ee565b60208082526032908201527f4552433732313a207472616e7366657220746f206e6f6e20455243373231526560408201527131b2b4bb32b91034b6b83632b6b2b73a32b960711b606082015260800190565b60208082526023908201527f52414952204552433732313a2050726f6475637420646f6573206e6f742065786040820152621a5cdd60ea1b606082015260800190565b60208082526031908201527f4552433732313a207472616e736665722063616c6c6572206973206e6f74206f6040820152701ddb995c881b9bdc88185c1c1c9bdd9959607a1b606082015260800190565b838152604060208201526000613ace6040830184866137c5565b95945050505050565b85815260006020868184015285604084015260a06060840152613afd60a0840186613799565b838103608085015284518082528286019183019060005b81811015613b3057835183529284019291840191600101613b14565b50909a9950505050505050505050565b85815284602082015283604082015282606082015260a060808201526000613b6b60a08301846137ee565b979650505050505050565b60008219821115613b8957613b89613c85565b500190565b600082613b9d57613b9d613c9b565b500490565b6000816000190483118215151615613bbc57613bbc613c85565b500290565b600082821015613bd357613bd3613c85565b500390565b60005b83811015613bf3578181015183820152602001613bdb565b8381111561196b5750506000910152565b600081613c1357613c13613c85565b506000190190565b600181811c90821680613c2f57607f821691505b60208210811415613c5057634e487b7160e01b600052602260045260246000fd5b50919050565b6000600019821415613c6a57613c6a613c85565b5060010190565b600082613c8057613c80613c9b565b500690565b634e487b7160e01b600052601160045260246000fd5b634e487b7160e01b600052601260045260246000fd5b634e487b7160e01b600052603160045260246000fd5b634e487b7160e01b600052603260045260246000fd5b634e487b7160e01b600052604160045260246000fd5b6001600160e01b031981168114613d0957600080fd5b5056fe3c2519c4487d47714872f92cf90a50c25f5deaec2789dc2a497b1272df611db6a2646970667358221220d2f76fd81e8331490ab587274def64146a3ce111ff66047a999a10d2debb330564736f6c634300080700333c2519c4487d47714872f92cf90a50c25f5deaec2789dc2a497b1272df611db6f0887ba65ee2024ea881d91b74c2450ef19e1557f03bed3ea9f16b037cbe2dc9872340a532bdd7bb02bea115c1b0f1ba87eac982f5b79b51ac189ffaac1b6fce",
  "linkReferences": {},
  "deployedLinkReferences": {}
}