{
  "_format": "hh-sol-artifact-1",
  "contractName": "RAIR_ERC721",
  "sourceName": "contracts/Tokens/RAIR-ERC721.sol",
  "abi": [
    {
      "inputs": [
        {
          "internalType": "string",
          "name": "_contractName",
          "type": "string"
        },
        {
          "internalType": "address",
          "name": "_creatorAddress",
          "type": "address"
        },
        {
          "internalType": "uint16",
          "name": "_creatorRoyalty",
          "type": "uint16"
        }
      ],
      "stateMutability": "nonpayable",
      "type": "constructor"
    },
    {
      "anonymous": false,
      "inputs": [
        {
          "indexed": true,
          "internalType": "address",
          "name": "owner",
          "type": "address"
        },
        {
          "indexed": true,
          "internalType": "address",
          "name": "approved",
          "type": "address"
        },
        {
          "indexed": true,
          "internalType": "uint256",
          "name": "tokenId",
          "type": "uint256"
        }
      ],
      "name": "Approval",
      "type": "event"
    },
    {
      "anonymous": false,
      "inputs": [
        {
          "indexed": true,
          "internalType": "address",
          "name": "owner",
          "type": "address"
        },
        {
          "indexed": true,
          "internalType": "address",
          "name": "operator",
          "type": "address"
        },
        {
          "indexed": false,
          "internalType": "bool",
          "name": "approved",
          "type": "bool"
        }
      ],
      "name": "ApprovalForAll",
      "type": "event"
    },
    {
      "anonymous": false,
      "inputs": [
        {
          "indexed": true,
          "internalType": "uint256",
          "name": "id",
          "type": "uint256"
        },
        {
          "indexed": false,
          "internalType": "string",
          "name": "name",
          "type": "string"
        }
      ],
      "name": "ProductCompleted",
      "type": "event"
    },
    {
      "anonymous": false,
      "inputs": [
        {
          "indexed": true,
          "internalType": "uint256",
          "name": "id",
          "type": "uint256"
        },
        {
          "indexed": false,
          "internalType": "string",
          "name": "name",
          "type": "string"
        },
        {
          "indexed": false,
          "internalType": "uint256",
          "name": "startingToken",
          "type": "uint256"
        },
        {
          "indexed": false,
          "internalType": "uint256",
          "name": "length",
          "type": "uint256"
        }
      ],
      "name": "ProductCreated",
      "type": "event"
    },
    {
      "anonymous": false,
      "inputs": [
        {
          "indexed": false,
          "internalType": "uint256",
          "name": "collectionIndex",
          "type": "uint256"
        },
        {
          "indexed": false,
          "internalType": "uint256",
          "name": "startingToken",
          "type": "uint256"
        },
        {
          "indexed": false,
          "internalType": "uint256",
          "name": "endingToken",
          "type": "uint256"
        },
        {
          "indexed": false,
          "internalType": "uint256",
          "name": "tokensLocked",
          "type": "uint256"
        },
        {
          "indexed": false,
          "internalType": "string",
          "name": "collectionName",
          "type": "string"
        }
      ],
      "name": "RangeLocked",
      "type": "event"
    },
    {
      "anonymous": false,
      "inputs": [
        {
          "indexed": false,
          "internalType": "uint256",
          "name": "collectionID",
          "type": "uint256"
        },
        {
          "indexed": false,
          "internalType": "uint256",
          "name": "startingToken",
          "type": "uint256"
        },
        {
          "indexed": false,
          "internalType": "uint256",
          "name": "endingToken",
          "type": "uint256"
        }
      ],
      "name": "RangeUnlocked",
      "type": "event"
    },
    {
      "anonymous": false,
      "inputs": [
        {
          "indexed": true,
          "internalType": "bytes32",
          "name": "role",
          "type": "bytes32"
        },
        {
          "indexed": true,
          "internalType": "bytes32",
          "name": "previousAdminRole",
          "type": "bytes32"
        },
        {
          "indexed": true,
          "internalType": "bytes32",
          "name": "newAdminRole",
          "type": "bytes32"
        }
      ],
      "name": "RoleAdminChanged",
      "type": "event"
    },
    {
      "anonymous": false,
      "inputs": [
        {
          "indexed": true,
          "internalType": "bytes32",
          "name": "role",
          "type": "bytes32"
        },
        {
          "indexed": true,
          "internalType": "address",
          "name": "account",
          "type": "address"
        },
        {
          "indexed": true,
          "internalType": "address",
          "name": "sender",
          "type": "address"
        }
      ],
      "name": "RoleGranted",
      "type": "event"
    },
    {
      "anonymous": false,
      "inputs": [
        {
          "indexed": true,
          "internalType": "bytes32",
          "name": "role",
          "type": "bytes32"
        },
        {
          "indexed": true,
          "internalType": "address",
          "name": "account",
          "type": "address"
        },
        {
          "indexed": true,
          "internalType": "address",
          "name": "sender",
          "type": "address"
        }
      ],
      "name": "RoleRevoked",
      "type": "event"
    },
    {
      "anonymous": false,
      "inputs": [
        {
          "indexed": true,
          "internalType": "address",
          "name": "from",
          "type": "address"
        },
        {
          "indexed": true,
          "internalType": "address",
          "name": "to",
          "type": "address"
        },
        {
          "indexed": true,
          "internalType": "uint256",
          "name": "tokenId",
          "type": "uint256"
        }
      ],
      "name": "Transfer",
      "type": "event"
    },
    {
      "anonymous": false,
      "inputs": [
        {
          "indexed": false,
          "internalType": "uint256",
          "name": "tokenId",
          "type": "uint256"
        },
        {
          "indexed": false,
          "internalType": "string",
          "name": "newURI",
          "type": "string"
        }
      ],
      "name": "URIChanged",
      "type": "event"
    },
    {
      "inputs": [],
      "name": "CREATOR",
      "outputs": [
        {
          "internalType": "bytes32",
          "name": "",
          "type": "bytes32"
        }
      ],
      "stateMutability": "view",
      "type": "function"
    },
    {
      "inputs": [],
      "name": "DEFAULT_ADMIN_ROLE",
      "outputs": [
        {
          "internalType": "bytes32",
          "name": "",
          "type": "bytes32"
        }
      ],
      "stateMutability": "view",
      "type": "function"
    },
    {
      "inputs": [],
      "name": "MINTER",
      "outputs": [
        {
          "internalType": "bytes32",
          "name": "",
          "type": "bytes32"
        }
      ],
      "stateMutability": "view",
      "type": "function"
    },
    {
      "inputs": [],
      "name": "TRADER",
      "outputs": [
        {
          "internalType": "bytes32",
          "name": "",
          "type": "bytes32"
        }
      ],
      "stateMutability": "view",
      "type": "function"
    },
    {
      "inputs": [
        {
          "internalType": "address",
          "name": "to",
          "type": "address"
        },
        {
          "internalType": "uint256",
          "name": "tokenId",
          "type": "uint256"
        }
      ],
      "name": "approve",
      "outputs": [],
      "stateMutability": "nonpayable",
      "type": "function"
    },
    {
      "inputs": [
        {
          "internalType": "address",
          "name": "owner",
          "type": "address"
        }
      ],
      "name": "balanceOf",
      "outputs": [
        {
          "internalType": "uint256",
          "name": "",
          "type": "uint256"
        }
      ],
      "stateMutability": "view",
      "type": "function"
    },
    {
      "inputs": [
        {
          "internalType": "uint256",
          "name": "productIndex",
          "type": "uint256"
        },
        {
          "internalType": "uint256",
          "name": "startingToken",
          "type": "uint256"
        },
        {
          "internalType": "uint256",
          "name": "endingToken",
          "type": "uint256"
        }
      ],
      "name": "canCreateLock",
      "outputs": [
        {
          "internalType": "bool",
          "name": "canCreate",
          "type": "bool"
        }
      ],
      "stateMutability": "view",
      "type": "function"
    },
    {
      "inputs": [
        {
          "internalType": "string",
          "name": "_productName",
          "type": "string"
        },
        {
          "internalType": "uint256",
          "name": "_copies",
          "type": "uint256"
        }
      ],
      "name": "createProduct",
      "outputs": [],
      "stateMutability": "nonpayable",
      "type": "function"
    },
    {
      "inputs": [
        {
          "internalType": "uint256",
          "name": "productIndex",
          "type": "uint256"
        },
        {
          "internalType": "uint256",
          "name": "_startingToken",
          "type": "uint256"
        },
        {
          "internalType": "uint256",
          "name": "_endingToken",
          "type": "uint256"
        },
        {
          "internalType": "uint256",
          "name": "_lockedTokens",
          "type": "uint256"
        }
      ],
      "name": "createRangeLock",
      "outputs": [],
      "stateMutability": "nonpayable",
      "type": "function"
    },
    {
      "inputs": [
        {
          "internalType": "uint256",
          "name": "tokenId",
          "type": "uint256"
        }
      ],
      "name": "getApproved",
      "outputs": [
        {
          "internalType": "address",
          "name": "",
          "type": "address"
        }
      ],
      "stateMutability": "view",
      "type": "function"
    },
    {
      "inputs": [
        {
          "internalType": "uint256",
          "name": "index",
          "type": "uint256"
        }
      ],
      "name": "getLockedRange",
      "outputs": [
        {
          "internalType": "uint256",
          "name": "startingToken",
          "type": "uint256"
        },
        {
          "internalType": "uint256",
          "name": "endingToken",
          "type": "uint256"
        },
        {
          "internalType": "uint256",
          "name": "countToUnlock",
          "type": "uint256"
        },
        {
          "internalType": "uint256",
          "name": "productIndex",
          "type": "uint256"
        }
      ],
      "stateMutability": "view",
      "type": "function"
    },
    {
      "inputs": [
        {
          "internalType": "uint256",
          "name": "productID",
          "type": "uint256"
        },
        {
          "internalType": "uint256",
          "name": "startingIndex",
          "type": "uint256"
        },
        {
          "internalType": "uint256",
          "name": "endingIndex",
          "type": "uint256"
        }
      ],
      "name": "getNextSequentialIndex",
      "outputs": [
        {
          "internalType": "uint256",
          "name": "nextIndex",
          "type": "uint256"
        }
      ],
      "stateMutability": "view",
      "type": "function"
    },
    {
      "inputs": [
        {
          "internalType": "uint256",
          "name": "index",
          "type": "uint256"
        }
      ],
      "name": "getProduct",
      "outputs": [
        {
          "internalType": "uint256",
          "name": "startingToken",
          "type": "uint256"
        },
        {
          "internalType": "uint256",
          "name": "endingToken",
          "type": "uint256"
        },
        {
          "internalType": "uint256",
          "name": "mintableTokensLeft",
          "type": "uint256"
        },
        {
          "internalType": "string",
          "name": "productName",
          "type": "string"
        },
        {
          "internalType": "uint256[]",
          "name": "locks",
          "type": "uint256[]"
        }
      ],
      "stateMutability": "view",
      "type": "function"
    },
    {
      "inputs": [],
      "name": "getProductCount",
      "outputs": [
        {
          "internalType": "uint256",
          "name": "",
          "type": "uint256"
        }
      ],
      "stateMutability": "view",
      "type": "function"
    },
    {
      "inputs": [
        {
          "internalType": "bytes32",
          "name": "role",
          "type": "bytes32"
        }
      ],
      "name": "getRoleAdmin",
      "outputs": [
        {
          "internalType": "bytes32",
          "name": "",
          "type": "bytes32"
        }
      ],
      "stateMutability": "view",
      "type": "function"
    },
    {
      "inputs": [
        {
          "internalType": "bytes32",
          "name": "role",
          "type": "bytes32"
        },
        {
          "internalType": "uint256",
          "name": "index",
          "type": "uint256"
        }
      ],
      "name": "getRoleMember",
      "outputs": [
        {
          "internalType": "address",
          "name": "",
          "type": "address"
        }
      ],
      "stateMutability": "view",
      "type": "function"
    },
    {
      "inputs": [
        {
          "internalType": "bytes32",
          "name": "role",
          "type": "bytes32"
        }
      ],
      "name": "getRoleMemberCount",
      "outputs": [
        {
          "internalType": "uint256",
          "name": "",
          "type": "uint256"
        }
      ],
      "stateMutability": "view",
      "type": "function"
    },
    {
      "inputs": [
        {
          "internalType": "bytes32",
          "name": "role",
          "type": "bytes32"
        },
        {
          "internalType": "address",
          "name": "account",
          "type": "address"
        }
      ],
      "name": "grantRole",
      "outputs": [],
      "stateMutability": "nonpayable",
      "type": "function"
    },
    {
      "inputs": [
        {
          "internalType": "bytes32",
          "name": "role",
          "type": "bytes32"
        },
        {
          "internalType": "address",
          "name": "account",
          "type": "address"
        }
      ],
      "name": "hasRole",
      "outputs": [
        {
          "internalType": "bool",
          "name": "",
          "type": "bool"
        }
      ],
      "stateMutability": "view",
      "type": "function"
    },
    {
      "inputs": [
        {
          "internalType": "address",
          "name": "owner",
          "type": "address"
        },
        {
          "internalType": "uint256",
          "name": "productIndex",
          "type": "uint256"
        }
      ],
      "name": "hasTokenInProduct",
      "outputs": [
        {
          "internalType": "bool",
          "name": "",
          "type": "bool"
        }
      ],
      "stateMutability": "view",
      "type": "function"
    },
    {
      "inputs": [
        {
          "internalType": "address",
          "name": "owner",
          "type": "address"
        },
        {
          "internalType": "address",
          "name": "operator",
          "type": "address"
        }
      ],
      "name": "isApprovedForAll",
      "outputs": [
        {
          "internalType": "bool",
          "name": "",
          "type": "bool"
        }
      ],
      "stateMutability": "view",
      "type": "function"
    },
    {
      "inputs": [
        {
          "internalType": "uint256",
          "name": "_tokenId",
          "type": "uint256"
        }
      ],
      "name": "isTokenLocked",
      "outputs": [
        {
          "internalType": "bool",
          "name": "",
          "type": "bool"
        }
      ],
      "stateMutability": "view",
      "type": "function"
    },
    {
      "inputs": [
        {
          "internalType": "address",
          "name": "to",
          "type": "address"
        },
        {
          "internalType": "uint256",
          "name": "productId",
          "type": "uint256"
        },
        {
          "internalType": "uint256",
          "name": "indexInProduct",
          "type": "uint256"
        }
      ],
      "name": "mint",
      "outputs": [],
      "stateMutability": "nonpayable",
      "type": "function"
    },
    {
      "inputs": [],
      "name": "name",
      "outputs": [
        {
          "internalType": "string",
          "name": "",
          "type": "string"
        }
      ],
      "stateMutability": "view",
      "type": "function"
    },
    {
      "inputs": [
        {
          "internalType": "uint256",
          "name": "tokenId",
          "type": "uint256"
        }
      ],
      "name": "ownerOf",
      "outputs": [
        {
          "internalType": "address",
          "name": "",
          "type": "address"
        }
      ],
      "stateMutability": "view",
      "type": "function"
    },
    {
      "inputs": [
        {
          "internalType": "bytes32",
          "name": "role",
          "type": "bytes32"
        },
        {
          "internalType": "address",
          "name": "account",
          "type": "address"
        }
      ],
      "name": "renounceRole",
      "outputs": [],
      "stateMutability": "nonpayable",
      "type": "function"
    },
    {
      "inputs": [
        {
          "internalType": "bytes32",
          "name": "role",
          "type": "bytes32"
        },
        {
          "internalType": "address",
          "name": "account",
          "type": "address"
        }
      ],
      "name": "revokeRole",
      "outputs": [],
      "stateMutability": "nonpayable",
      "type": "function"
    },
    {
      "inputs": [
        {
          "internalType": "uint256",
          "name": "_tokenId",
          "type": "uint256"
        },
        {
          "internalType": "uint256",
          "name": "_salePrice",
          "type": "uint256"
        }
      ],
      "name": "royaltyInfo",
      "outputs": [
        {
          "internalType": "address",
          "name": "receiver",
          "type": "address"
        },
        {
          "internalType": "uint256",
          "name": "royaltyAmount",
          "type": "uint256"
        }
      ],
      "stateMutability": "view",
      "type": "function"
    },
    {
      "inputs": [
        {
          "internalType": "address",
          "name": "from",
          "type": "address"
        },
        {
          "internalType": "address",
          "name": "to",
          "type": "address"
        },
        {
          "internalType": "uint256",
          "name": "tokenId",
          "type": "uint256"
        }
      ],
      "name": "safeTransferFrom",
      "outputs": [],
      "stateMutability": "nonpayable",
      "type": "function"
    },
    {
      "inputs": [
        {
          "internalType": "address",
          "name": "from",
          "type": "address"
        },
        {
          "internalType": "address",
          "name": "to",
          "type": "address"
        },
        {
          "internalType": "uint256",
          "name": "tokenId",
          "type": "uint256"
        },
        {
          "internalType": "bytes",
          "name": "_data",
          "type": "bytes"
        }
      ],
      "name": "safeTransferFrom",
      "outputs": [],
      "stateMutability": "nonpayable",
      "type": "function"
    },
    {
      "inputs": [
        {
          "internalType": "address",
          "name": "operator",
          "type": "address"
        },
        {
          "internalType": "bool",
          "name": "approved",
          "type": "bool"
        }
      ],
      "name": "setApprovalForAll",
      "outputs": [],
      "stateMutability": "nonpayable",
      "type": "function"
    },
    {
      "inputs": [
        {
          "internalType": "string",
          "name": "newURI",
          "type": "string"
        }
      ],
      "name": "setBaseURI",
      "outputs": [],
      "stateMutability": "nonpayable",
      "type": "function"
    },
    {
      "inputs": [
        {
          "internalType": "uint256",
          "name": "tokenId",
          "type": "uint256"
        },
        {
          "internalType": "string",
          "name": "newURI",
          "type": "string"
        }
      ],
      "name": "setUniqueURI",
      "outputs": [],
      "stateMutability": "nonpayable",
      "type": "function"
    },
    {
      "inputs": [
        {
          "internalType": "bytes4",
          "name": "interfaceId",
          "type": "bytes4"
        }
      ],
      "name": "supportsInterface",
      "outputs": [
        {
          "internalType": "bool",
          "name": "",
          "type": "bool"
        }
      ],
      "stateMutability": "view",
      "type": "function"
    },
    {
      "inputs": [],
      "name": "symbol",
      "outputs": [
        {
          "internalType": "string",
          "name": "",
          "type": "string"
        }
      ],
      "stateMutability": "view",
      "type": "function"
    },
    {
      "inputs": [
        {
          "internalType": "uint256",
          "name": "index",
          "type": "uint256"
        }
      ],
      "name": "tokenByIndex",
      "outputs": [
        {
          "internalType": "uint256",
          "name": "",
          "type": "uint256"
        }
      ],
      "stateMutability": "view",
      "type": "function"
    },
    {
      "inputs": [
        {
          "internalType": "uint256",
          "name": "productIndex",
          "type": "uint256"
        }
      ],
      "name": "tokenCountByProduct",
      "outputs": [
        {
          "internalType": "uint256",
          "name": "",
          "type": "uint256"
        }
      ],
      "stateMutability": "view",
      "type": "function"
    },
    {
      "inputs": [
        {
          "internalType": "address",
          "name": "owner",
          "type": "address"
        },
        {
          "internalType": "uint256",
          "name": "index",
          "type": "uint256"
        }
      ],
      "name": "tokenOfOwnerByIndex",
      "outputs": [
        {
          "internalType": "uint256",
          "name": "",
          "type": "uint256"
        }
      ],
      "stateMutability": "view",
      "type": "function"
    },
    {
      "inputs": [
        {
          "internalType": "uint256",
          "name": "",
          "type": "uint256"
        }
      ],
      "name": "tokenToProduct",
      "outputs": [
        {
          "internalType": "uint256",
          "name": "",
          "type": "uint256"
        }
      ],
      "stateMutability": "view",
      "type": "function"
    },
    {
      "inputs": [
        {
          "internalType": "uint256",
          "name": "token",
          "type": "uint256"
        }
      ],
      "name": "tokenToProductIndex",
      "outputs": [
        {
          "internalType": "uint256",
          "name": "tokenIndex",
          "type": "uint256"
        }
      ],
      "stateMutability": "view",
      "type": "function"
    },
    {
      "inputs": [
        {
          "internalType": "uint256",
          "name": "tokenId",
          "type": "uint256"
        }
      ],
      "name": "tokenURI",
      "outputs": [
        {
          "internalType": "string",
          "name": "",
          "type": "string"
        }
      ],
      "stateMutability": "view",
      "type": "function"
    },
    {
      "inputs": [
        {
          "internalType": "uint256",
          "name": "",
          "type": "uint256"
        },
        {
          "internalType": "uint256",
          "name": "",
          "type": "uint256"
        }
      ],
      "name": "tokensByProduct",
      "outputs": [
        {
          "internalType": "uint256",
          "name": "",
          "type": "uint256"
        }
      ],
      "stateMutability": "view",
      "type": "function"
    },
    {
      "inputs": [],
      "name": "totalSupply",
      "outputs": [
        {
          "internalType": "uint256",
          "name": "",
          "type": "uint256"
        }
      ],
      "stateMutability": "view",
      "type": "function"
    },
    {
      "inputs": [
        {
          "internalType": "address",
          "name": "from",
          "type": "address"
        },
        {
          "internalType": "address",
          "name": "to",
          "type": "address"
        },
        {
          "internalType": "uint256",
          "name": "tokenId",
          "type": "uint256"
        }
      ],
      "name": "transferFrom",
      "outputs": [],
      "stateMutability": "nonpayable",
      "type": "function"
    }
  ],
  "bytecode": "0x60806040523480156200001157600080fd5b506040516200417b3803806200417b8339810160408190526200003491620003e1565b82604051806040016040528060048152602001632920a4a960e11b81525081600090805190602001906200006a9291906200030b565b508051620000809060019060208401906200030b565b5050601380546001600160b01b0319163361ffff60a01b191617600160a01b61ffff85160217905550620000d36000805160206200413b8339815191526000805160206200411b83398151915262000157565b620000fd6000805160206200415b8339815191526000805160206200411b83398151915262000157565b620001186000805160206200411b83398151915283620001a2565b620001336000805160206200413b83398151915283620001a2565b6200014e6000805160206200415b83398151915283620001a2565b50505062000537565b6000828152600a6020526040808220600101805490849055905190918391839186917fbd79b86ffe0ab8e8776151514217cd7cacd52c909f66475c3af44e129f0b00ff9190a4505050565b620001b98282620001e560201b62001f651760201c565b6000828152600b60209081526040909120620001e091839062001f73620001f5821b17901c565b505050565b620001f1828262000215565b5050565b60006200020c836001600160a01b038416620002b9565b90505b92915050565b6000828152600a602090815260408083206001600160a01b038516845290915290205460ff16620001f1576000828152600a602090815260408083206001600160a01b03851684529091529020805460ff19166001179055620002753390565b6001600160a01b0316816001600160a01b0316837f2f8788117e7eff1d82e926ec794901d17c78024a50270940304540a733656f0d60405160405180910390a45050565b600081815260018301602052604081205462000302575081546001818101845560008481526020808220909301849055845484825282860190935260409020919091556200020f565b5060006200020f565b8280546200031990620004e4565b90600052602060002090601f0160209004810192826200033d576000855562000388565b82601f106200035857805160ff191683800117855562000388565b8280016001018555821562000388579182015b82811115620003885782518255916020019190600101906200036b565b50620003969291506200039a565b5090565b5b808211156200039657600081556001016200039b565b80516001600160a01b0381168114620003c957600080fd5b919050565b805161ffff81168114620003c957600080fd5b600080600060608486031215620003f757600080fd5b83516001600160401b03808211156200040f57600080fd5b818601915086601f8301126200042457600080fd5b81518181111562000439576200043962000521565b604051601f8201601f19908116603f0116810190838211818310171562000464576200046462000521565b816040528281526020935089848487010111156200048157600080fd5b600091505b82821015620004a5578482018401518183018501529083019062000486565b82821115620004b75760008484830101525b9650620004c9915050868201620003b1565b93505050620004db60408501620003ce565b90509250925092565b600181811c90821680620004f957607f821691505b602082108114156200051b57634e487b7160e01b600052602260045260246000fd5b50919050565b634e487b7160e01b600052604160045260246000fd5b613bd480620005476000396000f3fe608060405234801561001057600080fd5b50600436106102745760003560e01c806355f804b311610151578063b9db15b4116100c3578063d547741f11610087578063d547741f146105df578063d76bf566146105f2578063e4fbb60914610612578063e9300c6c14610627578063e985e9c51461063a578063fe6d81241461064d57600080fd5b8063b9db15b41461056f578063bda5ec3314610593578063c00b83c5146105a6578063c87b56dd146105b9578063ca15c873146105cc57600080fd5b80639010d07c116101155780639010d07c1461051357806391d148541461052657806395d89b4114610539578063a217fddf14610541578063a22cb46514610549578063b88d4fde1461055c57600080fd5b806355f804b3146104945780636352211e146104a757806370a08231146104ba578063876654a0146104cd5780638a9d7b211461050057600080fd5b806324704bd7116101ea5780632f745c59116101ae5780632f745c591461042d57806336568abe146104405780633d42f2061461045357806342842e0e146104665780634a348da9146104795780634f6ccce71461048157600080fd5b806324704bd71461039f578063248a9ca3146103b2578063276a28a3146103d55780632a55205a146103e85780632f2ff15d1461041a57600080fd5b8063156e29f61161023c578063156e29f61461032457806315a1824114610337578063175c4ef81461034a57806318160ddd146103715780631c899d1a1461037957806323b872dd1461038c57600080fd5b806301ffc9a7146102795780630301e1e2146102a157806306fdde03146102cf578063081812fc146102e4578063095ea7b31461030f575b600080fd5b61028c6102873660046134b6565b610674565b60405190151581526020015b60405180910390f35b6102c16102af366004613458565b6000908152600c602052604090205490565b604051908152602001610298565b6102d761069f565b60405161029891906137e2565b6102f76102f2366004613458565b610731565b6040516001600160a01b039091168152602001610298565b61032261031d3660046133fb565b6107cb565b005b610322610332366004613425565b6108e1565b610322610345366004613603565b610c5e565b6102c17f872340a532bdd7bb02bea115c1b0f1ba87eac982f5b79b51ac189ffaac1b6fce81565b6008546102c1565b61032261038736600461358b565b610f68565b61032261039a366004613307565b610fc2565b6102c16103ad366004613494565b610ff3565b6102c16103c0366004613458565b6000908152600a602052604090206001015490565b61028c6103e3366004613458565b611024565b6103fb6103f6366004613494565b6110aa565b604080516001600160a01b039093168352602083019190915201610298565b610322610428366004613471565b6110f9565b6102c161043b3660046133fb565b61111b565b61032261044e366004613471565b6111b1565b61028c6104613660046135d7565b6111d3565b610322610474366004613307565b6113d9565b6012546102c1565b6102c161048f366004613458565b6113f4565b6103226104a23660046134f0565b611487565b6102f76104b5366004613458565b611493565b6102c16104c83660046132b9565b61150a565b6104e06104db366004613458565b611591565b604080519485526020850193909352918301526060820152608001610298565b61028c61050e3660046133fb565b611768565b6102f7610521366004613494565b6117c6565b61028c610534366004613471565b6117de565b6102d7611809565b6102c1600081565b6103226105573660046133bf565b611818565b61032261056a366004613343565b6118dd565b61058261057d366004613458565b611915565b604051610298959493929190613949565b6102c16105a13660046135d7565b611a7e565b6102c16105b4366004613458565b611cbf565b6102d76105c7366004613458565b611d00565b6102c16105da366004613458565b611db7565b6103226105ed366004613471565b611dce565b6102c1610600366004613458565b600d6020526000908152604090205481565b6102c1600080516020613b7f83398151915281565b610322610635366004613532565b611dd8565b61028c6106483660046132d4565b611f05565b6102c17ff0887ba65ee2024ea881d91b74c2450ef19e1557f03bed3ea9f16b037cbe2dc981565b60006001600160e01b03198216632baae9fd60e01b1480610699575061069982611f88565b92915050565b6060600080546106ae90613a8d565b80601f01602080910402602001604051908101604052809291908181526020018280546106da90613a8d565b80156107275780601f106106fc57610100808354040283529160200191610727565b820191906000526020600020905b81548152906001019060200180831161070a57829003601f168201915b5050505050905090565b6000818152600260205260408120546001600160a01b03166107af5760405162461bcd60e51b815260206004820152602c60248201527f4552433732313a20617070726f76656420717565727920666f72206e6f6e657860448201526b34b9ba32b73a103a37b5b2b760a11b60648201526084015b60405180910390fd5b506000908152600460205260409020546001600160a01b031690565b60006107d682611493565b9050806001600160a01b0316836001600160a01b031614156108445760405162461bcd60e51b815260206004820152602160248201527f4552433732313a20617070726f76616c20746f2063757272656e74206f776e656044820152603960f91b60648201526084016107a6565b336001600160a01b038216148061086057506108608133611f05565b6108d25760405162461bcd60e51b815260206004820152603860248201527f4552433732313a20617070726f76652063616c6c6572206973206e6f74206f7760448201527f6e6572206e6f7220617070726f76656420666f7220616c6c000000000000000060648201526084016107a6565b6108dc8383611fad565b505050565b7ff0887ba65ee2024ea881d91b74c2450ef19e1557f03bed3ea9f16b037cbe2dc961090c813361201b565b6012548390811061092f5760405162461bcd60e51b81526004016107a69061387f565b60006012858154811061094457610944613b39565b90600052602060002090600502019050806000015481600101546109689190613a33565b8411156109b75760405162461bcd60e51b815260206004820181905260248201527f52414952204552433732313a20496e76616c696420746f6b656e20696e64657860448201526064016107a6565b6109d0868583600001546109cb91906139e8565b61207f565b6000858152600c6020526040902081546109eb9086906139e8565b8154600181018355600092835260208320015581548691600d91610a109088906139e8565b815260200190815260200160002081905550806002016000815480929190610a3790613a76565b9091555060009050805b6004830154811015610c0f578254610a5a9087906139e8565b6011846004018381548110610a7157610a71613b39565b906000526020600020015481548110610a8c57610a8c613b39565b90600052602060002090600402016000015411158015610afb57508254610ab49087906139e8565b6011846004018381548110610acb57610acb613b39565b906000526020600020015481548110610ae657610ae6613b39565b90600052602060002090600402016001015410155b15610bfd576011836004018281548110610b1757610b17613b39565b906000526020600020015481548110610b3257610b32613b39565b90600052602060002090600402019150826004018181548110610b5757610b57613b39565b9060005260206000200154600e6000888660000154610b7691906139e8565b8152602081019190915260400160002055600282015415610bf857600282018054906000610ba383613a76565b90915550506002820154610bf85781546001830154604080518a815260208101939093528201527fd3edbeb94dfb8eadcd8c291774b9ac3cc9b06af829273e295bf3197849934b889060600160405180910390a15b610c0f565b80610c0781613ac8565b915050610a41565b506002820154610c5557857f7118e1ae63262db55027a75ee525791f482e7fdf6c2ccb6c11528bf1652780e183600301604051610c4c919061381a565b60405180910390a25b50505050505050565b600080516020613b7f833981519152610c77813361201b565b60125485908110610c9a5760405162461bcd60e51b81526004016107a69061387f565b600060128781548110610caf57610caf613b39565b906000526020600020906005020190508060010154858260000154610cd491906139e8565b1115610d2c5760405162461bcd60e51b815260206004820152602160248201527f52414952204552433732313a20496e76616c696420656e64696e6720746f6b656044820152603760f91b60648201526084016107a6565b80546001820154610d3d9190613a33565b610d478787613a33565b1115610d9f5760405162461bcd60e51b815260206004820152602160248201527f52414952204552433732313a20496e76616c696420746f6b656e206c696d69746044820152607360f81b60648201526084016107a6565b83610daa8787613a33565b610db59060016139e8565b1015610e195760405162461bcd60e51b815260206004820152602d60248201527f52414952204552433732313a20496e76616c6964206e756d626572206f66207460448201526c6f6b656e7320746f206c6f636b60981b60648201526084016107a6565b610e248787876111d3565b610e705760405162461bcd60e51b815260206004820152601f60248201527f52414952204552433732313a2043616e6e6f7420637265617465206c6f636b0060448201526064016107a6565b60118054600181018255600091909152815460049091027f31ecc21a745e3968a04e9570e4425bc18fa8019c68028196b546d1669c200c680190610eb59088906139e8565b81558154610ec49087906139e8565b60018083019190915560028201869055600382018990556011546004840191610eec91613a33565b8154600181018355600092835260209092209091015581547f0b8fece546364ce1dcadcf45028659aff64e7a166d735eb32da27050fd520f69908990610f33908a906139e8565b8454610f40908a906139e8565b8886600301604051610f569594939291906139b2565b60405180910390a15050505050505050565b6000838152601060205260409020610f819083836130d8565b507f8051ec9b4bf052f916dce66cec71dd11087c900c1997984e3888ed30ffd86235838383604051610fb593929190613913565b60405180910390a1505050565b610fcc3382612099565b610fe85760405162461bcd60e51b81526004016107a6906138c2565b6108dc838383612170565b600c602052816000526040600020818154811061100f57600080fd5b90600052602060002001600091509150505481565b6000818152600d6020908152604080832054600e90925282205460118054909190811061105357611053613b39565b90600052602060002090600402016003015414801561069957506000828152600e602052604081205460118054909190811061109157611091613b39565b9060005260206000209060040201600201541192915050565b6000806110c6600080516020613b7f83398151915260006117c6565b601354620186a0906110e390600160a01b900461ffff1686613a14565b6110ed9190613a00565b915091505b9250929050565b611103828261231b565b6000828152600b602052604090206108dc9082611f73565b60006111268361150a565b82106111885760405162461bcd60e51b815260206004820152602b60248201527f455243373231456e756d657261626c653a206f776e657220696e646578206f7560448201526a74206f6620626f756e647360a81b60648201526084016107a6565b506001600160a01b03919091166000908152600660209081526040808320938352929052205490565b6111bb8282612341565b6000828152600b602052604090206108dc90826123bb565b600080601285815481106111e9576111e9613b39565b906000526020600020906005020190508060000154816001015461120d9190613a33565b8411806112295750805460018201546112269190613a33565b83115b156112385760009150506113d2565b60005b60048201548110156113cb5781546112549086906139e8565b601183600401838154811061126b5761126b613b39565b90600052602060002001548154811061128657611286613b39565b906000526020600020906004020160000154111580156112f5575081546112ae9086906139e8565b60118360040183815481106112c5576112c5613b39565b9060005260206000200154815481106112e0576112e0613b39565b90600052602060002090600402016001015410155b806113a9575081546113089085906139e8565b601183600401838154811061131f5761131f613b39565b90600052602060002001548154811061133a5761133a613b39565b906000526020600020906004020160000154111580156113a9575081546113629085906139e8565b601183600401838154811061137957611379613b39565b90600052602060002001548154811061139457611394613b39565b90600052602060002090600402016001015410155b156113b9576000925050506113d2565b806113c381613ac8565b91505061123b565b5060019150505b9392505050565b6108dc838383604051806020016040528060008152506118dd565b60006113ff60085490565b82106114625760405162461bcd60e51b815260206004820152602c60248201527f455243373231456e756d657261626c653a20676c6f62616c20696e646578206f60448201526b7574206f6620626f756e647360a01b60648201526084016107a6565b6008828154811061147557611475613b39565b90600052602060002001549050919050565b6108dc600f83836130d8565b6000818152600260205260408120546001600160a01b0316806106995760405162461bcd60e51b815260206004820152602960248201527f4552433732313a206f776e657220717565727920666f72206e6f6e657869737460448201526832b73a103a37b5b2b760b91b60648201526084016107a6565b60006001600160a01b0382166115755760405162461bcd60e51b815260206004820152602a60248201527f4552433732313a2062616c616e636520717565727920666f7220746865207a65604482015269726f206164647265737360b01b60648201526084016107a6565b506001600160a01b031660009081526003602052604090205490565b6000806000806000601186815481106115ac576115ac613b39565b906000526020600020906004020160405180608001604052908160008201548152602001600182015481526020016002820154815260200160038201548152505090506000601282606001518154811061160857611608613b39565b90600052602060002090600502016040518060a001604052908160008201548152602001600182015481526020016002820154815260200160038201805461164f90613a8d565b80601f016020809104026020016040519081016040528092919081815260200182805461167b90613a8d565b80156116c85780601f1061169d576101008083540402835291602001916116c8565b820191906000526020600020905b8154815290600101906020018083116116ab57829003601f168201915b505050505081526020016004820180548060200260200160405190810160405280929190818152602001828054801561172057602002820191906000526020600020905b81548152602001906001019080831161170c575b5050509190925250508151845192935061173c92909150613a33565b8151602084015161174d9190613a33565b83604001518460600151955095509550955050509193509193565b6000805b6117758461150a565b8110156117bc5782600d600061178b878561111b565b81526020019081526020016000205414156117aa576001915050610699565b806117b481613ac8565b91505061176c565b5060009392505050565b6000828152600b602052604081206113d290836123d0565b6000918252600a602090815260408084206001600160a01b0393909316845291905290205460ff1690565b6060600180546106ae90613a8d565b6001600160a01b0382163314156118715760405162461bcd60e51b815260206004820152601960248201527f4552433732313a20617070726f766520746f2063616c6c65720000000000000060448201526064016107a6565b3360008181526005602090815260408083206001600160a01b03871680855290835292819020805460ff191686151590811790915590519081529192917f17307eab39ab6107e8899845ad3d59bd9653f200f220920489ca2b5937696c31910160405180910390a35050565b6118e73383612099565b6119035760405162461bcd60e51b81526004016107a6906138c2565b61190f848484846123dc565b50505050565b600080600060608060006012878154811061193257611932613b39565b90600052602060002090600502016040518060a001604052908160008201548152602001600182015481526020016002820154815260200160038201805461197990613a8d565b80601f01602080910402602001604051908101604052809291908181526020018280546119a590613a8d565b80156119f25780601f106119c7576101008083540402835291602001916119f2565b820191906000526020600020905b8154815290600101906020018083116119d557829003601f168201915b5050505050815260200160048201805480602002602001604051908101604052809291908181526020018280548015611a4a57602002820191906000526020600020905b815481526020019060010190808311611a36575b5050509190925250508151602083015160408401516060850151608090950151929c919b5099509297509550909350505050565b6000838060128054905011611aa55760405162461bcd60e51b81526004016107a69061387f565b600060128681548110611aba57611aba613b39565b90600052602060002090600502016040518060a0016040529081600082015481526020016001820154815260200160028201548152602001600382018054611b0190613a8d565b80601f0160208091040260200160405190810160405280929190818152602001828054611b2d90613a8d565b8015611b7a5780601f10611b4f57610100808354040283529160200191611b7a565b820191906000526020600020905b815481529060010190602001808311611b5d57829003601f168201915b5050505050815260200160048201805480602002602001604051908101604052809291908181526020018280548015611bd257602002820191906000526020600020905b815481526020019060010190808311611bbe575b50505050508152505090506000858260000151611bef91906139e8565b90505b8151611bff9086906139e8565b8111611c48576000818152600260205260409020546001600160a01b0316611c36578151611c2d9082613a33565b93505050611cb7565b80611c4081613ac8565b915050611bf2565b5060405162461bcd60e51b815260206004820152603960248201527f52414952204552433732313a20546865726520617265206e6f20617661696c6160448201527f626c6520746f6b656e7320696e20746869732072616e67652e0000000000000060648201526084016107a6565b509392505050565b6000818152600d6020526040812054601280549091908110611ce357611ce3613b39565b906000526020600020906005020160000154826106999190613a33565b600081815260106020526040812080546060929190611d1e90613a8d565b80601f0160208091040260200160405190810160405280929190818152602001828054611d4a90613a8d565b8015611d975780601f10611d6c57610100808354040283529160200191611d97565b820191906000526020600020905b815481529060010190602001808311611d7a57829003601f168201915b50505050509050600081511115611dae5792915050565b6113d28361240f565b6000818152600b60205260408120610699906124e9565b6111bb82826124f3565b600080516020613b7f833981519152611df1813361201b565b60125460009015611e3f5760128054611e0c90600190613a33565b81548110611e1c57611e1c613b39565b9060005260206000209060050201600101546001611e3a91906139e8565b611e42565b60005b60128054600181810183556000929092526005027fbb8a6a4669ba250d26cd7a459eca9d215f8307e33aebe50379bc5a3617ec344401828155919250611e8885846139e8565b611e929190613a33565b60018201558451611eac906003830190602088019061315c565b5060028101849055601254611ec390600190613a33565b7f8d3d82130aebba03bb48b5d158bc2bbb4647856765b1089e7250507307965af9868487604051611ef6939291906137f5565b60405180910390a25050505050565b6000611f317f872340a532bdd7bb02bea115c1b0f1ba87eac982f5b79b51ac189ffaac1b6fce836117de565b806113d257506001600160a01b0380841660009081526005602090815260408083209386168352929052205460ff166113d2565b611f6f8282612519565b5050565b60006113d2836001600160a01b03841661259f565b60006001600160e01b03198216635a05180f60e01b14806106995750610699826125ee565b600081815260046020526040902080546001600160a01b0319166001600160a01b0384169081179091558190611fe282611493565b6001600160a01b03167f8c5be1e5ebec7d5bd14f71427d1e84f3dd0314c0f7b2291e5b200ac8c7c3b92560405160405180910390a45050565b61202582826117de565b611f6f5761203d816001600160a01b03166014612613565b612048836020612613565b604051602001612059929190613730565b60408051601f198184030181529082905262461bcd60e51b82526107a6916004016137e2565b611f6f8282604051806020016040528060008152506127af565b6000818152600260205260408120546001600160a01b03166121125760405162461bcd60e51b815260206004820152602c60248201527f4552433732313a206f70657261746f7220717565727920666f72206e6f6e657860448201526b34b9ba32b73a103a37b5b2b760a11b60648201526084016107a6565b600061211d83611493565b9050806001600160a01b0316846001600160a01b031614806121585750836001600160a01b031661214d84610731565b6001600160a01b0316145b8061216857506121688185611f05565b949350505050565b826001600160a01b031661218382611493565b6001600160a01b0316146121eb5760405162461bcd60e51b815260206004820152602960248201527f4552433732313a207472616e73666572206f6620746f6b656e2074686174206960448201526839903737ba1037bbb760b91b60648201526084016107a6565b6001600160a01b03821661224d5760405162461bcd60e51b8152602060048201526024808201527f4552433732313a207472616e7366657220746f20746865207a65726f206164646044820152637265737360e01b60648201526084016107a6565b6122588383836127e2565b612263600082611fad565b6001600160a01b038316600090815260036020526040812080546001929061228c908490613a33565b90915550506001600160a01b03821660009081526003602052604081208054600192906122ba9084906139e8565b909155505060008181526002602052604080822080546001600160a01b0319166001600160a01b0386811691821790925591518493918716917fddf252ad1be2c89b69c2b068fc378daa952ba7f163c4a11628f55a4df523b3ef91a4505050565b6000828152600a6020526040902060010154612337813361201b565b6108dc8383612519565b6001600160a01b03811633146123b15760405162461bcd60e51b815260206004820152602f60248201527f416363657373436f6e74726f6c3a2063616e206f6e6c792072656e6f756e636560448201526e103937b632b9903337b91039b2b63360891b60648201526084016107a6565b611f6f828261292f565b60006113d2836001600160a01b038416612996565b60006113d28383612a89565b6123e7848484612170565b6123f384848484612ab3565b61190f5760405162461bcd60e51b81526004016107a69061382d565b6000818152600260205260409020546060906001600160a01b031661248e5760405162461bcd60e51b815260206004820152602f60248201527f4552433732314d657461646174613a2055524920717565727920666f72206e6f60448201526e3732bc34b9ba32b73a103a37b5b2b760891b60648201526084016107a6565b6000612498612bc0565b905060008151116124b857604051806020016040528060008152506113d2565b806124c284612bcf565b6040516020016124d3929190613701565b6040516020818303038152906040529392505050565b6000610699825490565b6000828152600a602052604090206001015461250f813361201b565b6108dc838361292f565b61252382826117de565b611f6f576000828152600a602090815260408083206001600160a01b03851684529091529020805460ff1916600117905561255b3390565b6001600160a01b0316816001600160a01b0316837f2f8788117e7eff1d82e926ec794901d17c78024a50270940304540a733656f0d60405160405180910390a45050565b60008181526001830160205260408120546125e657508154600181810184556000848152602080822090930184905584548482528286019093526040902091909155610699565b506000610699565b60006001600160e01b03198216637965db0b60e01b1480610699575061069982612ccd565b60606000612622836002613a14565b61262d9060026139e8565b67ffffffffffffffff81111561264557612645613b4f565b6040519080825280601f01601f19166020018201604052801561266f576020820181803683370190505b509050600360fc1b8160008151811061268a5761268a613b39565b60200101906001600160f81b031916908160001a905350600f60fb1b816001815181106126b9576126b9613b39565b60200101906001600160f81b031916908160001a90535060006126dd846002613a14565b6126e89060016139e8565b90505b6001811115612760576f181899199a1a9b1b9c1cb0b131b232b360811b85600f166010811061271c5761271c613b39565b1a60f81b82828151811061273257612732613b39565b60200101906001600160f81b031916908160001a90535060049490941c9361275981613a76565b90506126eb565b5083156113d25760405162461bcd60e51b815260206004820181905260248201527f537472696e67733a20686578206c656e67746820696e73756666696369656e7460448201526064016107a6565b6127b98383612cf2565b6127c66000848484612ab3565b6108dc5760405162461bcd60e51b81526004016107a69061382d565b6001600160a01b0383161580159061280257506001600160a01b03821615155b15612924576000818152600d6020908152604080832054600e9092529091205460118054909190811061283757612837613b39565b90600052602060002090600402016003015414156128fa576000818152600e602052604090205460118054909190811061287357612873613b39565b9060005260206000209060040201600201546000146128fa5760405162461bcd60e51b815260206004820152603a60248201527f52414952204552433732313a205472616e736665727320666f7220746869732060448201527f72616e6765206172652063757272656e746c79206c6f636b656400000000000060648201526084016107a6565b6129247f872340a532bdd7bb02bea115c1b0f1ba87eac982f5b79b51ac189ffaac1b6fce3361201b565b6108dc838383612e40565b61293982826117de565b15611f6f576000828152600a602090815260408083206001600160a01b0385168085529252808320805460ff1916905551339285917ff6391f5c32d9c69d2a47ea670b442974b53935d1edc7fd64eb21e047a839171b9190a45050565b60008181526001830160205260408120548015612a7f5760006129ba600183613a33565b85549091506000906129ce90600190613a33565b9050818114612a335760008660000182815481106129ee576129ee613b39565b9060005260206000200154905080876000018481548110612a1157612a11613b39565b6000918252602080832090910192909255918252600188019052604090208390555b8554869080612a4457612a44613b23565b600190038181906000526020600020016000905590558560010160008681526020019081526020016000206000905560019350505050610699565b6000915050610699565b6000826000018281548110612aa057612aa0613b39565b9060005260206000200154905092915050565b60006001600160a01b0384163b15612bb557604051630a85bd0160e11b81526001600160a01b0385169063150b7a0290612af79033908990889088906004016137a5565b602060405180830381600087803b158015612b1157600080fd5b505af1925050508015612b41575060408051601f3d908101601f19168201909252612b3e918101906134d3565b60015b612b9b573d808015612b6f576040519150601f19603f3d011682016040523d82523d6000602084013e612b74565b606091505b508051612b935760405162461bcd60e51b81526004016107a69061382d565b805181602001fd5b6001600160e01b031916630a85bd0160e11b149050612168565b506001949350505050565b6060600f80546106ae90613a8d565b606081612bf35750506040805180820190915260018152600360fc1b602082015290565b8160005b8115612c1d5780612c0781613ac8565b9150612c169050600a83613a00565b9150612bf7565b60008167ffffffffffffffff811115612c3857612c38613b4f565b6040519080825280601f01601f191660200182016040528015612c62576020820181803683370190505b5090505b841561216857612c77600183613a33565b9150612c84600a86613ae3565b612c8f9060306139e8565b60f81b818381518110612ca457612ca4613b39565b60200101906001600160f81b031916908160001a905350612cc6600a86613a00565b9450612c66565b60006001600160e01b0319821663780e9d6360e01b1480610699575061069982612ef8565b6001600160a01b038216612d485760405162461bcd60e51b815260206004820181905260248201527f4552433732313a206d696e7420746f20746865207a65726f206164647265737360448201526064016107a6565b6000818152600260205260409020546001600160a01b031615612dad5760405162461bcd60e51b815260206004820152601c60248201527f4552433732313a20746f6b656e20616c7265616479206d696e7465640000000060448201526064016107a6565b612db9600083836127e2565b6001600160a01b0382166000908152600360205260408120805460019290612de29084906139e8565b909155505060008181526002602052604080822080546001600160a01b0319166001600160a01b03861690811790915590518392907fddf252ad1be2c89b69c2b068fc378daa952ba7f163c4a11628f55a4df523b3ef908290a45050565b6001600160a01b038316612e9b57612e9681600880546000838152600960205260408120829055600182018355919091527ff3f7a9fe364faab93b216da50a3214154f22a0a2b415b23a84c8169e8b636ee30155565b612ebe565b816001600160a01b0316836001600160a01b031614612ebe57612ebe8382612f48565b6001600160a01b038216612ed5576108dc81612fe5565b826001600160a01b0316826001600160a01b0316146108dc576108dc8282613094565b60006001600160e01b031982166380ac58cd60e01b1480612f2957506001600160e01b03198216635b5e139f60e01b145b8061069957506301ffc9a760e01b6001600160e01b0319831614610699565b60006001612f558461150a565b612f5f9190613a33565b600083815260076020526040902054909150808214612fb2576001600160a01b03841660009081526006602090815260408083208584528252808320548484528184208190558352600790915290208190555b5060009182526007602090815260408084208490556001600160a01b039094168352600681528383209183525290812055565b600854600090612ff790600190613a33565b6000838152600960205260408120546008805493945090928490811061301f5761301f613b39565b90600052602060002001549050806008838154811061304057613040613b39565b600091825260208083209091019290925582815260099091526040808220849055858252812055600880548061307857613078613b23565b6001900381819060005260206000200160009055905550505050565b600061309f8361150a565b6001600160a01b039093166000908152600660209081526040808320868452825280832085905593825260079052919091209190915550565b8280546130e490613a8d565b90600052602060002090601f016020900481019282613106576000855561314c565b82601f1061311f5782800160ff1982351617855561314c565b8280016001018555821561314c579182015b8281111561314c578235825591602001919060010190613131565b506131589291506131d0565b5090565b82805461316890613a8d565b90600052602060002090601f01602090048101928261318a576000855561314c565b82601f106131a357805160ff191683800117855561314c565b8280016001018555821561314c579182015b8281111561314c5782518255916020019190600101906131b5565b5b8082111561315857600081556001016131d1565b600067ffffffffffffffff8084111561320057613200613b4f565b604051601f8501601f19908116603f0116810190828211818310171561322857613228613b4f565b8160405280935085815286868601111561324157600080fd5b858560208301376000602087830101525050509392505050565b80356001600160a01b038116811461327257600080fd5b919050565b60008083601f84011261328957600080fd5b50813567ffffffffffffffff8111156132a157600080fd5b6020830191508360208285010111156110f257600080fd5b6000602082840312156132cb57600080fd5b6113d28261325b565b600080604083850312156132e757600080fd5b6132f08361325b565b91506132fe6020840161325b565b90509250929050565b60008060006060848603121561331c57600080fd5b6133258461325b565b92506133336020850161325b565b9150604084013590509250925092565b6000806000806080858703121561335957600080fd5b6133628561325b565b93506133706020860161325b565b925060408501359150606085013567ffffffffffffffff81111561339357600080fd5b8501601f810187136133a457600080fd5b6133b3878235602084016131e5565b91505092959194509250565b600080604083850312156133d257600080fd5b6133db8361325b565b9150602083013580151581146133f057600080fd5b809150509250929050565b6000806040838503121561340e57600080fd5b6134178361325b565b946020939093013593505050565b60008060006060848603121561343a57600080fd5b6134438461325b565b95602085013595506040909401359392505050565b60006020828403121561346a57600080fd5b5035919050565b6000806040838503121561348457600080fd5b823591506132fe6020840161325b565b600080604083850312156134a757600080fd5b50508035926020909101359150565b6000602082840312156134c857600080fd5b81356113d281613b65565b6000602082840312156134e557600080fd5b81516113d281613b65565b6000806020838503121561350357600080fd5b823567ffffffffffffffff81111561351a57600080fd5b61352685828601613277565b90969095509350505050565b6000806040838503121561354557600080fd5b823567ffffffffffffffff81111561355c57600080fd5b8301601f8101851361356d57600080fd5b61357c858235602084016131e5565b95602094909401359450505050565b6000806000604084860312156135a057600080fd5b83359250602084013567ffffffffffffffff8111156135be57600080fd5b6135ca86828701613277565b9497909650939450505050565b6000806000606084860312156135ec57600080fd5b505081359360208301359350604090920135919050565b6000806000806080858703121561361957600080fd5b5050823594602084013594506040840135936060013592509050565b6000815180845261364d816020860160208601613a4a565b601f01601f19169290920160200192915050565b8054600090600181811c908083168061367b57607f831692505b602080841082141561369d57634e487b7160e01b600052602260045260246000fd5b838852602088018280156136b857600181146136c9576136f4565b60ff198716825282820197506136f4565b60008981526020902060005b878110156136ee578154848201529086019084016136d5565b83019850505b5050505050505092915050565b60008351613713818460208801613a4a565b835190830190613727818360208801613a4a565b01949350505050565b7f416363657373436f6e74726f6c3a206163636f756e7420000000000000000000815260008351613768816017850160208801613a4a565b7001034b99036b4b9b9b4b733903937b6329607d1b6017918401918201528351613799816028840160208801613a4a565b01602801949350505050565b6001600160a01b03858116825284166020820152604081018390526080606082018190526000906137d890830184613635565b9695505050505050565b6020815260006113d26020830184613635565b6060815260006138086060830186613635565b60208301949094525060400152919050565b6020815260006113d26020830184613661565b60208082526032908201527f4552433732313a207472616e7366657220746f206e6f6e20455243373231526560408201527131b2b4bb32b91034b6b83632b6b2b73a32b960711b606082015260800190565b60208082526023908201527f52414952204552433732313a2050726f6475637420646f6573206e6f742065786040820152621a5cdd60ea1b606082015260800190565b60208082526031908201527f4552433732313a207472616e736665722063616c6c6572206973206e6f74206f6040820152701ddb995c881b9bdc88185c1c1c9bdd9959607a1b606082015260800190565b83815260406020820152816040820152818360608301376000818301606090810191909152601f909201601f1916010192915050565b85815260006020868184015285604084015260a0606084015261396f60a0840186613635565b838103608085015284518082528286019183019060005b818110156139a257835183529284019291840191600101613986565b50909a9950505050505050505050565b85815284602082015283604082015282606082015260a0608082015260006139dd60a0830184613661565b979650505050505050565b600082198211156139fb576139fb613af7565b500190565b600082613a0f57613a0f613b0d565b500490565b6000816000190483118215151615613a2e57613a2e613af7565b500290565b600082821015613a4557613a45613af7565b500390565b60005b83811015613a65578181015183820152602001613a4d565b8381111561190f5750506000910152565b600081613a8557613a85613af7565b506000190190565b600181811c90821680613aa157607f821691505b60208210811415613ac257634e487b7160e01b600052602260045260246000fd5b50919050565b6000600019821415613adc57613adc613af7565b5060010190565b600082613af257613af2613b0d565b500690565b634e487b7160e01b600052601160045260246000fd5b634e487b7160e01b600052601260045260246000fd5b634e487b7160e01b600052603160045260246000fd5b634e487b7160e01b600052603260045260246000fd5b634e487b7160e01b600052604160045260246000fd5b6001600160e01b031981168114613b7b57600080fd5b5056fe3c2519c4487d47714872f92cf90a50c25f5deaec2789dc2a497b1272df611db6a26469706673582212204c13f03ac862c96e789aa775ad533ad47906a81a125c8d01735b414a2490406764736f6c634300080700333c2519c4487d47714872f92cf90a50c25f5deaec2789dc2a497b1272df611db6f0887ba65ee2024ea881d91b74c2450ef19e1557f03bed3ea9f16b037cbe2dc9872340a532bdd7bb02bea115c1b0f1ba87eac982f5b79b51ac189ffaac1b6fce",
  "linkReferences": {},
  "deployedLinkReferences": {}
}