{
  "_format": "hh-sol-artifact-1",
  "contractName": "RAIR_ERC721",
  "sourceName": "contracts/Tokens/RAIR-ERC721.sol",
  "abi": [
    {
      "inputs": [
        {
          "internalType": "string",
          "name": "_contractName",
          "type": "string"
        },
        {
          "internalType": "address",
          "name": "_creatorAddress",
          "type": "address"
        },
        {
          "internalType": "uint16",
          "name": "_creatorRoyalty",
          "type": "uint16"
        }
      ],
      "stateMutability": "nonpayable",
      "type": "constructor"
    },
    {
      "anonymous": false,
      "inputs": [
        {
          "indexed": true,
          "internalType": "address",
          "name": "owner",
          "type": "address"
        },
        {
          "indexed": true,
          "internalType": "address",
          "name": "approved",
          "type": "address"
        },
        {
          "indexed": true,
          "internalType": "uint256",
          "name": "tokenId",
          "type": "uint256"
        }
      ],
      "name": "Approval",
      "type": "event"
    },
    {
      "anonymous": false,
      "inputs": [
        {
          "indexed": true,
          "internalType": "address",
          "name": "owner",
          "type": "address"
        },
        {
          "indexed": true,
          "internalType": "address",
          "name": "operator",
          "type": "address"
        },
        {
          "indexed": false,
          "internalType": "bool",
          "name": "approved",
          "type": "bool"
        }
      ],
      "name": "ApprovalForAll",
      "type": "event"
    },
    {
      "anonymous": false,
      "inputs": [
        {
          "indexed": true,
          "internalType": "uint256",
          "name": "id",
          "type": "uint256"
        },
        {
          "indexed": false,
          "internalType": "string",
          "name": "name",
          "type": "string"
        }
      ],
      "name": "CollectionCompleted",
      "type": "event"
    },
    {
      "anonymous": false,
      "inputs": [
        {
          "indexed": true,
          "internalType": "uint256",
          "name": "id",
          "type": "uint256"
        },
        {
          "indexed": false,
          "internalType": "string",
          "name": "name",
          "type": "string"
        },
        {
          "indexed": false,
          "internalType": "uint256",
          "name": "length",
          "type": "uint256"
        }
      ],
      "name": "CollectionCreated",
      "type": "event"
    },
    {
      "anonymous": false,
      "inputs": [
        {
          "indexed": false,
          "internalType": "uint256",
          "name": "collectionIndex",
          "type": "uint256"
        },
        {
          "indexed": false,
          "internalType": "uint256",
          "name": "startingToken",
          "type": "uint256"
        },
        {
          "indexed": false,
          "internalType": "uint256",
          "name": "endingToken",
          "type": "uint256"
        },
        {
          "indexed": false,
          "internalType": "uint256",
          "name": "tokensLocked",
          "type": "uint256"
        },
        {
          "indexed": false,
          "internalType": "string",
          "name": "collectionName",
          "type": "string"
        }
      ],
      "name": "RangeLocked",
      "type": "event"
    },
    {
      "anonymous": false,
      "inputs": [
        {
          "indexed": false,
          "internalType": "uint256",
          "name": "collectionID",
          "type": "uint256"
        },
        {
          "indexed": false,
          "internalType": "uint256",
          "name": "startingToken",
          "type": "uint256"
        },
        {
          "indexed": false,
          "internalType": "uint256",
          "name": "endingToken",
          "type": "uint256"
        }
      ],
      "name": "RangeUnlocked",
      "type": "event"
    },
    {
      "anonymous": false,
      "inputs": [
        {
          "indexed": true,
          "internalType": "bytes32",
          "name": "role",
          "type": "bytes32"
        },
        {
          "indexed": true,
          "internalType": "bytes32",
          "name": "previousAdminRole",
          "type": "bytes32"
        },
        {
          "indexed": true,
          "internalType": "bytes32",
          "name": "newAdminRole",
          "type": "bytes32"
        }
      ],
      "name": "RoleAdminChanged",
      "type": "event"
    },
    {
      "anonymous": false,
      "inputs": [
        {
          "indexed": true,
          "internalType": "bytes32",
          "name": "role",
          "type": "bytes32"
        },
        {
          "indexed": true,
          "internalType": "address",
          "name": "account",
          "type": "address"
        },
        {
          "indexed": true,
          "internalType": "address",
          "name": "sender",
          "type": "address"
        }
      ],
      "name": "RoleGranted",
      "type": "event"
    },
    {
      "anonymous": false,
      "inputs": [
        {
          "indexed": true,
          "internalType": "bytes32",
          "name": "role",
          "type": "bytes32"
        },
        {
          "indexed": true,
          "internalType": "address",
          "name": "account",
          "type": "address"
        },
        {
          "indexed": true,
          "internalType": "address",
          "name": "sender",
          "type": "address"
        }
      ],
      "name": "RoleRevoked",
      "type": "event"
    },
    {
      "anonymous": false,
      "inputs": [
        {
          "indexed": true,
          "internalType": "address",
          "name": "from",
          "type": "address"
        },
        {
          "indexed": true,
          "internalType": "address",
          "name": "to",
          "type": "address"
        },
        {
          "indexed": true,
          "internalType": "uint256",
          "name": "tokenId",
          "type": "uint256"
        }
      ],
      "name": "Transfer",
      "type": "event"
    },
    {
      "inputs": [],
      "name": "CREATOR",
      "outputs": [
        {
          "internalType": "bytes32",
          "name": "",
          "type": "bytes32"
        }
      ],
      "stateMutability": "view",
      "type": "function"
    },
    {
      "inputs": [],
      "name": "DEFAULT_ADMIN_ROLE",
      "outputs": [
        {
          "internalType": "bytes32",
          "name": "",
          "type": "bytes32"
        }
      ],
      "stateMutability": "view",
      "type": "function"
    },
    {
      "inputs": [],
      "name": "MINTER",
      "outputs": [
        {
          "internalType": "bytes32",
          "name": "",
          "type": "bytes32"
        }
      ],
      "stateMutability": "view",
      "type": "function"
    },
    {
      "inputs": [],
      "name": "TRADER",
      "outputs": [
        {
          "internalType": "bytes32",
          "name": "",
          "type": "bytes32"
        }
      ],
      "stateMutability": "view",
      "type": "function"
    },
    {
      "inputs": [
        {
          "internalType": "address",
          "name": "to",
          "type": "address"
        },
        {
          "internalType": "uint256",
          "name": "tokenId",
          "type": "uint256"
        }
      ],
      "name": "approve",
      "outputs": [],
      "stateMutability": "nonpayable",
      "type": "function"
    },
    {
      "inputs": [
        {
          "internalType": "address",
          "name": "owner",
          "type": "address"
        }
      ],
      "name": "balanceOf",
      "outputs": [
        {
          "internalType": "uint256",
          "name": "",
          "type": "uint256"
        }
      ],
      "stateMutability": "view",
      "type": "function"
    },
    {
      "inputs": [
        {
          "internalType": "string",
          "name": "_collectionName",
          "type": "string"
        },
        {
          "internalType": "uint256",
          "name": "_copies",
          "type": "uint256"
        }
      ],
      "name": "createCollection",
      "outputs": [],
      "stateMutability": "nonpayable",
      "type": "function"
    },
    {
      "inputs": [
        {
          "internalType": "uint256",
          "name": "collectionIndex",
          "type": "uint256"
        },
        {
          "internalType": "uint256",
          "name": "_startingToken",
          "type": "uint256"
        },
        {
          "internalType": "uint256",
          "name": "_endingToken",
          "type": "uint256"
        },
        {
          "internalType": "uint256",
          "name": "_lockedTokens",
          "type": "uint256"
        }
      ],
      "name": "createRangeLock",
      "outputs": [],
      "stateMutability": "nonpayable",
      "type": "function"
    },
    {
      "inputs": [
        {
          "internalType": "uint256",
          "name": "tokenId",
          "type": "uint256"
        }
      ],
      "name": "getApproved",
      "outputs": [
        {
          "internalType": "address",
          "name": "",
          "type": "address"
        }
      ],
      "stateMutability": "view",
      "type": "function"
    },
    {
      "inputs": [
        {
          "internalType": "uint256",
          "name": "index",
          "type": "uint256"
        }
      ],
      "name": "getCollection",
      "outputs": [
        {
          "internalType": "uint256",
          "name": "startingToken",
          "type": "uint256"
        },
        {
          "internalType": "uint256",
          "name": "endingToken",
          "type": "uint256"
        },
        {
          "internalType": "uint256",
          "name": "mintableTokensLeft",
          "type": "uint256"
        },
        {
          "internalType": "string",
          "name": "collectionName",
          "type": "string"
        },
        {
          "internalType": "uint256[]",
          "name": "locks",
          "type": "uint256[]"
        }
      ],
      "stateMutability": "view",
      "type": "function"
    },
    {
      "inputs": [],
      "name": "getCollectionCount",
      "outputs": [
        {
          "internalType": "uint256",
          "name": "",
          "type": "uint256"
        }
      ],
      "stateMutability": "view",
      "type": "function"
    },
    {
      "inputs": [
        {
          "internalType": "uint256",
          "name": "index",
          "type": "uint256"
        }
      ],
      "name": "getLockedRange",
      "outputs": [
        {
          "internalType": "uint256",
          "name": "startingToken",
          "type": "uint256"
        },
        {
          "internalType": "uint256",
          "name": "endingToken",
          "type": "uint256"
        },
        {
          "internalType": "uint256",
          "name": "countToUnlock",
          "type": "uint256"
        },
        {
          "internalType": "uint256",
          "name": "collectionIndex",
          "type": "uint256"
        }
      ],
      "stateMutability": "view",
      "type": "function"
    },
    {
      "inputs": [
        {
          "internalType": "uint256",
          "name": "collectionID",
          "type": "uint256"
        },
        {
          "internalType": "uint256",
          "name": "startingIndex",
          "type": "uint256"
        },
        {
          "internalType": "uint256",
          "name": "endingIndex",
          "type": "uint256"
        }
      ],
      "name": "getNextSequentialIndex",
      "outputs": [
        {
          "internalType": "uint256",
          "name": "nextIndex",
          "type": "uint256"
        }
      ],
      "stateMutability": "view",
      "type": "function"
    },
    {
      "inputs": [
        {
          "internalType": "bytes32",
          "name": "role",
          "type": "bytes32"
        }
      ],
      "name": "getRoleAdmin",
      "outputs": [
        {
          "internalType": "bytes32",
          "name": "",
          "type": "bytes32"
        }
      ],
      "stateMutability": "view",
      "type": "function"
    },
    {
      "inputs": [
        {
          "internalType": "bytes32",
          "name": "role",
          "type": "bytes32"
        },
        {
          "internalType": "uint256",
          "name": "index",
          "type": "uint256"
        }
      ],
      "name": "getRoleMember",
      "outputs": [
        {
          "internalType": "address",
          "name": "",
          "type": "address"
        }
      ],
      "stateMutability": "view",
      "type": "function"
    },
    {
      "inputs": [
        {
          "internalType": "bytes32",
          "name": "role",
          "type": "bytes32"
        }
      ],
      "name": "getRoleMemberCount",
      "outputs": [
        {
          "internalType": "uint256",
          "name": "",
          "type": "uint256"
        }
      ],
      "stateMutability": "view",
      "type": "function"
    },
    {
      "inputs": [
        {
          "internalType": "bytes32",
          "name": "role",
          "type": "bytes32"
        },
        {
          "internalType": "address",
          "name": "account",
          "type": "address"
        }
      ],
      "name": "grantRole",
      "outputs": [],
      "stateMutability": "nonpayable",
      "type": "function"
    },
    {
      "inputs": [
        {
          "internalType": "bytes32",
          "name": "role",
          "type": "bytes32"
        },
        {
          "internalType": "address",
          "name": "account",
          "type": "address"
        }
      ],
      "name": "hasRole",
      "outputs": [
        {
          "internalType": "bool",
          "name": "",
          "type": "bool"
        }
      ],
      "stateMutability": "view",
      "type": "function"
    },
    {
      "inputs": [
        {
          "internalType": "address",
          "name": "owner",
          "type": "address"
        },
        {
          "internalType": "uint256",
          "name": "collectionIndex",
          "type": "uint256"
        }
      ],
      "name": "hasTokenInCollection",
      "outputs": [
        {
          "internalType": "bool",
          "name": "",
          "type": "bool"
        }
      ],
      "stateMutability": "view",
      "type": "function"
    },
    {
      "inputs": [
        {
          "internalType": "address",
          "name": "owner",
          "type": "address"
        },
        {
          "internalType": "address",
          "name": "operator",
          "type": "address"
        }
      ],
      "name": "isApprovedForAll",
      "outputs": [
        {
          "internalType": "bool",
          "name": "",
          "type": "bool"
        }
      ],
      "stateMutability": "view",
      "type": "function"
    },
    {
      "inputs": [
        {
          "internalType": "uint256",
          "name": "_tokenId",
          "type": "uint256"
        }
      ],
      "name": "isTokenLocked",
      "outputs": [
        {
          "internalType": "bool",
          "name": "",
          "type": "bool"
        }
      ],
      "stateMutability": "view",
      "type": "function"
    },
    {
      "inputs": [
        {
          "internalType": "address",
          "name": "to",
          "type": "address"
        },
        {
          "internalType": "uint256",
          "name": "collectionID",
          "type": "uint256"
        },
        {
          "internalType": "uint256",
          "name": "indexInCollection",
          "type": "uint256"
        }
      ],
      "name": "mint",
      "outputs": [],
      "stateMutability": "nonpayable",
      "type": "function"
    },
    {
      "inputs": [],
      "name": "name",
      "outputs": [
        {
          "internalType": "string",
          "name": "",
          "type": "string"
        }
      ],
      "stateMutability": "view",
      "type": "function"
    },
    {
      "inputs": [
        {
          "internalType": "uint256",
          "name": "tokenId",
          "type": "uint256"
        }
      ],
      "name": "ownerOf",
      "outputs": [
        {
          "internalType": "address",
          "name": "",
          "type": "address"
        }
      ],
      "stateMutability": "view",
      "type": "function"
    },
    {
      "inputs": [
        {
          "internalType": "bytes32",
          "name": "role",
          "type": "bytes32"
        },
        {
          "internalType": "address",
          "name": "account",
          "type": "address"
        }
      ],
      "name": "renounceRole",
      "outputs": [],
      "stateMutability": "nonpayable",
      "type": "function"
    },
    {
      "inputs": [
        {
          "internalType": "bytes32",
          "name": "role",
          "type": "bytes32"
        },
        {
          "internalType": "address",
          "name": "account",
          "type": "address"
        }
      ],
      "name": "revokeRole",
      "outputs": [],
      "stateMutability": "nonpayable",
      "type": "function"
    },
    {
      "inputs": [
        {
          "internalType": "uint256",
          "name": "_tokenId",
          "type": "uint256"
        },
        {
          "internalType": "uint256",
          "name": "_value",
          "type": "uint256"
        },
        {
          "internalType": "bytes",
          "name": "_data",
          "type": "bytes"
        }
      ],
      "name": "royaltyInfo",
      "outputs": [
        {
          "internalType": "address",
          "name": "_receiver",
          "type": "address"
        },
        {
          "internalType": "uint256",
          "name": "_royaltyAmount",
          "type": "uint256"
        },
        {
          "internalType": "bytes",
          "name": "_royaltyPaymentData",
          "type": "bytes"
        }
      ],
      "stateMutability": "view",
      "type": "function"
    },
    {
      "inputs": [
        {
          "internalType": "address",
          "name": "from",
          "type": "address"
        },
        {
          "internalType": "address",
          "name": "to",
          "type": "address"
        },
        {
          "internalType": "uint256",
          "name": "tokenId",
          "type": "uint256"
        }
      ],
      "name": "safeTransferFrom",
      "outputs": [],
      "stateMutability": "nonpayable",
      "type": "function"
    },
    {
      "inputs": [
        {
          "internalType": "address",
          "name": "from",
          "type": "address"
        },
        {
          "internalType": "address",
          "name": "to",
          "type": "address"
        },
        {
          "internalType": "uint256",
          "name": "tokenId",
          "type": "uint256"
        },
        {
          "internalType": "bytes",
          "name": "_data",
          "type": "bytes"
        }
      ],
      "name": "safeTransferFrom",
      "outputs": [],
      "stateMutability": "nonpayable",
      "type": "function"
    },
    {
      "inputs": [
        {
          "internalType": "address",
          "name": "operator",
          "type": "address"
        },
        {
          "internalType": "bool",
          "name": "approved",
          "type": "bool"
        }
      ],
      "name": "setApprovalForAll",
      "outputs": [],
      "stateMutability": "nonpayable",
      "type": "function"
    },
    {
      "inputs": [
        {
          "internalType": "bytes4",
          "name": "interfaceId",
          "type": "bytes4"
        }
      ],
      "name": "supportsInterface",
      "outputs": [
        {
          "internalType": "bool",
          "name": "",
          "type": "bool"
        }
      ],
      "stateMutability": "view",
      "type": "function"
    },
    {
      "inputs": [],
      "name": "symbol",
      "outputs": [
        {
          "internalType": "string",
          "name": "",
          "type": "string"
        }
      ],
      "stateMutability": "view",
      "type": "function"
    },
    {
      "inputs": [
        {
          "internalType": "uint256",
          "name": "index",
          "type": "uint256"
        }
      ],
      "name": "tokenByIndex",
      "outputs": [
        {
          "internalType": "uint256",
          "name": "",
          "type": "uint256"
        }
      ],
      "stateMutability": "view",
      "type": "function"
    },
    {
      "inputs": [
        {
          "internalType": "address",
          "name": "owner",
          "type": "address"
        },
        {
          "internalType": "uint256",
          "name": "index",
          "type": "uint256"
        }
      ],
      "name": "tokenOfOwnerByIndex",
      "outputs": [
        {
          "internalType": "uint256",
          "name": "",
          "type": "uint256"
        }
      ],
      "stateMutability": "view",
      "type": "function"
    },
    {
      "inputs": [
        {
          "internalType": "uint256",
          "name": "",
          "type": "uint256"
        }
      ],
      "name": "tokenToCollection",
      "outputs": [
        {
          "internalType": "uint256",
          "name": "",
          "type": "uint256"
        }
      ],
      "stateMutability": "view",
      "type": "function"
    },
    {
      "inputs": [
        {
          "internalType": "uint256",
          "name": "token",
          "type": "uint256"
        }
      ],
      "name": "tokenToCollectionIndex",
      "outputs": [
        {
          "internalType": "uint256",
          "name": "tokenIndex",
          "type": "uint256"
        }
      ],
      "stateMutability": "view",
      "type": "function"
    },
    {
      "inputs": [
        {
          "internalType": "uint256",
          "name": "tokenId",
          "type": "uint256"
        }
      ],
      "name": "tokenURI",
      "outputs": [
        {
          "internalType": "string",
          "name": "",
          "type": "string"
        }
      ],
      "stateMutability": "view",
      "type": "function"
    },
    {
      "inputs": [],
      "name": "totalSupply",
      "outputs": [
        {
          "internalType": "uint256",
          "name": "",
          "type": "uint256"
        }
      ],
      "stateMutability": "view",
      "type": "function"
    },
    {
      "inputs": [
        {
          "internalType": "address",
          "name": "from",
          "type": "address"
        },
        {
          "internalType": "address",
          "name": "to",
          "type": "address"
        },
        {
          "internalType": "uint256",
          "name": "tokenId",
          "type": "uint256"
        }
      ],
      "name": "transferFrom",
      "outputs": [],
      "stateMutability": "nonpayable",
      "type": "function"
    }
  ],
  "bytecode": "0x60806040523480156200001157600080fd5b5060405162004130380380620041308339810160408190526200003491620003ea565b82604051806040016040528060048152602001632920a4a960e11b81525081600090805190602001906200006a92919062000314565b5080516200008090600190602084019062000314565b5050601080546001600160b01b0319163361ffff60a01b191617600160a01b61ffff85160217905550620000d3600080516020620040f0833981519152600080516020620040d083398151915262000157565b620000fd60008051602062004110833981519152600080516020620040d083398151915262000157565b62000118600080516020620040d083398151915283620001ab565b62000133600080516020620040f083398151915283620001ab565b6200014e6000805160206200411083398151915283620001ab565b50505062000540565b6000828152600a6020526040902060010154819060405184907fbd79b86ffe0ab8e8776151514217cd7cacd52c909f66475c3af44e129f0b00ff90600090a46000918252600a602052604090912060010155565b620001c28282620001ee60201b62001efa1760201c565b6000828152600b60209081526040909120620001e991839062001f08620001fe821b17901c565b505050565b620001fa82826200021e565b5050565b600062000215836001600160a01b038416620002c2565b90505b92915050565b6000828152600a602090815260408083206001600160a01b038516845290915290205460ff16620001fa576000828152600a602090815260408083206001600160a01b03851684529091529020805460ff191660011790556200027e3390565b6001600160a01b0316816001600160a01b0316837f2f8788117e7eff1d82e926ec794901d17c78024a50270940304540a733656f0d60405160405180910390a45050565b60008181526001830160205260408120546200030b5750815460018181018455600084815260208082209093018490558454848252828601909352604090209190915562000218565b50600062000218565b8280546200032290620004ed565b90600052602060002090601f01602090048101928262000346576000855562000391565b82601f106200036157805160ff191683800117855562000391565b8280016001018555821562000391579182015b828111156200039157825182559160200191906001019062000374565b506200039f929150620003a3565b5090565b5b808211156200039f5760008155600101620003a4565b80516001600160a01b0381168114620003d257600080fd5b919050565b805161ffff81168114620003d257600080fd5b6000806000606084860312156200040057600080fd5b83516001600160401b03808211156200041857600080fd5b818601915086601f8301126200042d57600080fd5b8151818111156200044257620004426200052a565b604051601f8201601f19908116603f011681019083821181831017156200046d576200046d6200052a565b816040528281526020935089848487010111156200048a57600080fd5b600091505b82821015620004ae57848201840151818301850152908301906200048f565b82821115620004c05760008484830101525b9650620004d2915050868201620003ba565b93505050620004e460408501620003d7565b90509250925092565b600181811c908216806200050257607f821691505b602082108114156200052457634e487b7160e01b600052602260045260246000fd5b50919050565b634e487b7160e01b600052604160045260246000fd5b613b8080620005506000396000f3fe608060405234801561001057600080fd5b50600436106102ad5760003560e01c80636352211e1161017b578063ab9aae35116100d8578063ca15c8731161008c578063e4fbb60911610071578063e4fbb60914610608578063e985e9c51461062f578063fe6d81241461064257600080fd5b8063ca15c873146105e2578063d547741f146105f557600080fd5b8063bda5ec33116100bd578063bda5ec331461059a578063c155531d146105ad578063c87b56dd146105cf57600080fd5b8063ab9aae3514610574578063b88d4fde1461058757600080fd5b806391d148541161012f57806397099fb21161011457806397099fb214610546578063a217fddf14610559578063a22cb4651461056157600080fd5b806391d148541461050557806395d89b411461053e57600080fd5b806370a082311161016057806370a08231146104ac578063876654a0146104bf5780639010d07c146104f257600080fd5b80636352211e1461048657806364d541511461049957600080fd5b80631c10106f116102295780632f745c59116101dd57806342842e0e116101c257806342842e0e1461043c5780634f6ccce71461044f5780635a1f3c281461046257600080fd5b80632f745c591461041657806336568abe1461042957600080fd5b8063248a9ca31161020e578063248a9ca3146103cd578063276a28a3146103f05780632f2ff15d1461040357600080fd5b80631c10106f146103b257806323b872dd146103ba57600080fd5b8063156e29f611610280578063175c4ef811610265578063175c4ef81461035557806318160ddd1461038a578063195f78ae1461039257600080fd5b8063156e29f61461032f57806315a182411461034257600080fd5b806301ffc9a7146102b257806306fdde03146102da578063081812fc146102ef578063095ea7b31461031a575b600080fd5b6102c56102c0366004613573565b610669565b60405190151581526020015b60405180910390f35b6102e26106ad565b6040516102d191906138cd565b6103026102fd366004613515565b61073f565b6040516001600160a01b0390911681526020016102d1565b61032d6103283660046134b8565b6107d9565b005b61032d61033d3660046134e2565b61090b565b61032d6103503660046136b2565b610c9c565b61037c7f872340a532bdd7bb02bea115c1b0f1ba87eac982f5b79b51ac189ffaac1b6fce81565b6040519081526020016102d1565b60085461037c565b61037c6103a0366004613515565b600f6020526000908152604090205481565b600e5461037c565b61032d6103c83660046133c4565b610fe8565b61037c6103db366004613515565b6000908152600a602052604090206001015490565b6102c56103fe366004613515565b61106f565b61032d61041136600461352e565b6110f5565b61037c6104243660046134b8565b611117565b61032d61043736600461352e565b6111bf565b61032d61044a3660046133c4565b6111e1565b61037c61045d366004613515565b6111fc565b610475610470366004613515565b6112a0565b6040516102d1959493929190613915565b610302610494366004613515565b611409565b61032d6104a73660046135ad565b611494565b61037c6104ba366004613376565b6115d1565b6104d26104cd366004613515565b61166b565b6040805194855260208501939093529183015260608201526080016102d1565b610302610500366004613551565b611842565b6102c561051336600461352e565b6000918252600a602090815260408084206001600160a01b0393909316845291905290205460ff1690565b6102e2611861565b6102c56105543660046134b8565b611870565b61037c600081565b61032d61056f36600461347c565b6118ce565b61037c610582366004613515565b611993565b61032d610595366004613400565b6119d4565b61037c6105a8366004613686565b611a62565b6105c06105bb366004613606565b611ce2565b6040516102d19392919061389c565b6102e26105dd366004613515565b611d75565b61037c6105f0366004613515565b611e6a565b61032d61060336600461352e565b611e81565b61037c7f3c2519c4487d47714872f92cf90a50c25f5deaec2789dc2a497b1272df611db681565b6102c561063d366004613391565b611e8b565b61037c7ff0887ba65ee2024ea881d91b74c2450ef19e1557f03bed3ea9f16b037cbe2dc981565b60006001600160e01b031982167fc0aa9aba0000000000000000000000000000000000000000000000000000000014806106a757506106a782611f1d565b92915050565b6060600080546106bc90613a59565b80601f01602080910402602001604051908101604052809291908181526020018280546106e890613a59565b80156107355780601f1061070a57610100808354040283529160200191610735565b820191906000526020600020905b81548152906001019060200180831161071857829003601f168201915b5050505050905090565b6000818152600260205260408120546001600160a01b03166107bd5760405162461bcd60e51b815260206004820152602c60248201527f4552433732313a20617070726f76656420717565727920666f72206e6f6e657860448201526b34b9ba32b73a103a37b5b2b760a11b60648201526084015b60405180910390fd5b506000908152600460205260409020546001600160a01b031690565b60006107e482611409565b9050806001600160a01b0316836001600160a01b0316141561086e5760405162461bcd60e51b815260206004820152602160248201527f4552433732313a20617070726f76616c20746f2063757272656e74206f776e6560448201527f720000000000000000000000000000000000000000000000000000000000000060648201526084016107b4565b336001600160a01b038216148061088a575061088a8133611e8b565b6108fc5760405162461bcd60e51b815260206004820152603860248201527f4552433732313a20617070726f76652063616c6c6572206973206e6f74206f7760448201527f6e6572206e6f7220617070726f76656420666f7220616c6c000000000000000060648201526084016107b4565b6109068383611f5b565b505050565b7ff0887ba65ee2024ea881d91b74c2450ef19e1557f03bed3ea9f16b037cbe2dc96109368133611fd6565b600e54839081106109985760405162461bcd60e51b815260206004820152602660248201527f52414952204552433732313a20436f6c6c656374696f6e20646f6573206e6f7460448201526508195e1a5cdd60d21b60648201526084016107b4565b6000600e85815481106109ad576109ad613b05565b90600052602060002090600502019050806000015481600101546109d191906139ff565b841115610a205760405162461bcd60e51b815260206004820181905260248201527f52414952204552433732313a20496e76616c696420746f6b656e20696e64657860448201526064016107b4565b610a3986858360000154610a3491906139b4565b612056565b84600f6000868460000154610a4e91906139b4565b815260200190815260200160002081905550806002016000815480929190610a7590613a42565b9091555060009050805b6004830154811015610c4d578254610a989087906139b4565b600d846004018381548110610aaf57610aaf613b05565b906000526020600020015481548110610aca57610aca613b05565b90600052602060002090600402016000015411158015610b3957508254610af29087906139b4565b600d846004018381548110610b0957610b09613b05565b906000526020600020015481548110610b2457610b24613b05565b90600052602060002090600402016001015410155b15610c3b57600d836004018281548110610b5557610b55613b05565b906000526020600020015481548110610b7057610b70613b05565b90600052602060002090600402019150826004018181548110610b9557610b95613b05565b9060005260206000200154600c6000888660000154610bb491906139b4565b8152602081019190915260400160002055600282015415610c3657600282018054906000610be183613a42565b90915550506002820154610c365781546001830154604080518a815260208101939093528201527fd3edbeb94dfb8eadcd8c291774b9ac3cc9b06af829273e295bf3197849934b889060600160405180910390a15b610c4d565b80610c4581613a94565b915050610a7f565b506002820154610c9357857f3ab828a3fee3d542c87fb145e900664325100c3c0b2e2a2cca38685b6de1b27183600301604051610c8a9190613902565b60405180910390a25b50505050505050565b7f3c2519c4487d47714872f92cf90a50c25f5deaec2789dc2a497b1272df611db6610cc78133611fd6565b600e5485908110610d295760405162461bcd60e51b815260206004820152602660248201527f52414952204552433732313a20436f6c6c656374696f6e20646f6573206e6f7460448201526508195e1a5cdd60d21b60648201526084016107b4565b6000600e8781548110610d3e57610d3e613b05565b906000526020600020906005020190508060010154858260000154610d6391906139b4565b1115610dd75760405162461bcd60e51b815260206004820152602160248201527f52414952204552433732313a20496e76616c696420656e64696e6720746f6b6560448201527f6e0000000000000000000000000000000000000000000000000000000000000060648201526084016107b4565b80546001820154610de891906139ff565b610df287876139ff565b1115610e665760405162461bcd60e51b815260206004820152602160248201527f52414952204552433732313a20496e76616c696420746f6b656e206c696d697460448201527f730000000000000000000000000000000000000000000000000000000000000060648201526084016107b4565b83610e7187876139ff565b610e7c9060016139b4565b1015610ef05760405162461bcd60e51b815260206004820152602d60248201527f52414952204552433732313a20496e76616c6964206e756d626572206f66207460448201527f6f6b656e7320746f206c6f636b0000000000000000000000000000000000000060648201526084016107b4565b600d8054600181018255600091909152815460049091027fd7b6990105719101dabeb77144f2a3385c8033acd3af97e9423a695e81ad1eb50190610f359088906139b4565b81558154610f449087906139b4565b6001808301919091556002820186905560038201899055600d546004840191610f6c916139ff565b8154600181018355600092835260209092209091015581547f0b8fece546364ce1dcadcf45028659aff64e7a166d735eb32da27050fd520f69908990610fb3908a906139b4565b8454610fc0908a906139b4565b8886600301604051610fd695949392919061397e565b60405180910390a15050505050505050565b610ff23382612070565b6110645760405162461bcd60e51b815260206004820152603160248201527f4552433732313a207472616e736665722063616c6c6572206973206e6f74206f60448201527f776e6572206e6f7220617070726f76656400000000000000000000000000000060648201526084016107b4565b610906838383612147565b6000818152600f6020908152604080832054600c909252822054600d8054909190811061109e5761109e613b05565b9060005260206000209060040201600301541480156106a757506000828152600c6020526040812054600d805490919081106110dc576110dc613b05565b9060005260206000209060040201600201541192915050565b6110ff828261232c565b6000828152600b602052604090206109069082611f08565b6000611122836115d1565b82106111965760405162461bcd60e51b815260206004820152602b60248201527f455243373231456e756d657261626c653a206f776e657220696e646578206f7560448201527f74206f6620626f756e647300000000000000000000000000000000000000000060648201526084016107b4565b506001600160a01b03919091166000908152600660209081526040808320938352929052205490565b6111c98282612352565b6000828152600b6020526040902061090690826123da565b610906838383604051806020016040528060008152506119d4565b600061120760085490565b821061127b5760405162461bcd60e51b815260206004820152602c60248201527f455243373231456e756d657261626c653a20676c6f62616c20696e646578206f60448201527f7574206f6620626f756e6473000000000000000000000000000000000000000060648201526084016107b4565b6008828154811061128e5761128e613b05565b90600052602060002001549050919050565b60008060006060806000600e87815481106112bd576112bd613b05565b90600052602060002090600502016040518060a001604052908160008201548152602001600182015481526020016002820154815260200160038201805461130490613a59565b80601f016020809104026020016040519081016040528092919081815260200182805461133090613a59565b801561137d5780601f106113525761010080835404028352916020019161137d565b820191906000526020600020905b81548152906001019060200180831161136057829003601f168201915b50505050508152602001600482018054806020026020016040519081016040528092919081815260200182805480156113d557602002820191906000526020600020905b8154815260200190600101908083116113c1575b5050509190925250508151602083015160408401516060850151608090950151929c919b5099509297509550909350505050565b6000818152600260205260408120546001600160a01b0316806106a75760405162461bcd60e51b815260206004820152602960248201527f4552433732313a206f776e657220717565727920666f72206e6f6e657869737460448201527f656e7420746f6b656e000000000000000000000000000000000000000000000060648201526084016107b4565b7f3c2519c4487d47714872f92cf90a50c25f5deaec2789dc2a497b1272df611db66114bf8133611fd6565b600e546000901561150d57600e80546114da906001906139ff565b815481106114ea576114ea613b05565b906000526020600020906005020160010154600161150891906139b4565b611510565b60005b600e8054600181810183556000929092526005027fbb7b4a454dc3493923482f07822329ed19e8244eff582cc204f8554c3620c3fd0182815591925061155685846139b4565b61156091906139ff565b6001820155845161157a906003830190602088019061324b565b5060028101849055600e54611591906001906139ff565b7f9ae7dd5dbfc3938737af70872685a3fb26f364d20134cd30be25108122626a1786866040516115c29291906138e0565b60405180910390a25050505050565b60006001600160a01b03821661164f5760405162461bcd60e51b815260206004820152602a60248201527f4552433732313a2062616c616e636520717565727920666f7220746865207a6560448201527f726f20616464726573730000000000000000000000000000000000000000000060648201526084016107b4565b506001600160a01b031660009081526003602052604090205490565b6000806000806000600d868154811061168657611686613b05565b906000526020600020906004020160405180608001604052908160008201548152602001600182015481526020016002820154815260200160038201548152505090506000600e8260600151815481106116e2576116e2613b05565b90600052602060002090600502016040518060a001604052908160008201548152602001600182015481526020016002820154815260200160038201805461172990613a59565b80601f016020809104026020016040519081016040528092919081815260200182805461175590613a59565b80156117a25780601f10611777576101008083540402835291602001916117a2565b820191906000526020600020905b81548152906001019060200180831161178557829003601f168201915b50505050508152602001600482018054806020026020016040519081016040528092919081815260200182805480156117fa57602002820191906000526020600020905b8154815260200190600101908083116117e6575b50505091909252505081518451929350611816929091506139ff565b8151602084015161182791906139ff565b83604001518460600151955095509550955050509193509193565b6000828152600b6020526040812061185a90836123ef565b9392505050565b6060600180546106bc90613a59565b6000805b61187d846115d1565b8110156118c45782600f60006118938785611117565b81526020019081526020016000205414156118b25760019150506106a7565b806118bc81613a94565b915050611874565b5060009392505050565b6001600160a01b0382163314156119275760405162461bcd60e51b815260206004820152601960248201527f4552433732313a20617070726f766520746f2063616c6c65720000000000000060448201526064016107b4565b3360008181526005602090815260408083206001600160a01b03871680855290835292819020805460ff191686151590811790915590519081529192917f17307eab39ab6107e8899845ad3d59bd9653f200f220920489ca2b5937696c31910160405180910390a35050565b6000818152600f6020526040812054600e805490919081106119b7576119b7613b05565b906000526020600020906005020160000154826106a791906139ff565b6119de3383612070565b611a505760405162461bcd60e51b815260206004820152603160248201527f4552433732313a207472616e736665722063616c6c6572206973206e6f74206f60448201527f776e6572206e6f7220617070726f76656400000000000000000000000000000060648201526084016107b4565b611a5c848484846123fb565b50505050565b60008380600e8054905011611ac85760405162461bcd60e51b815260206004820152602660248201527f52414952204552433732313a20436f6c6c656374696f6e20646f6573206e6f7460448201526508195e1a5cdd60d21b60648201526084016107b4565b6000600e8681548110611add57611add613b05565b90600052602060002090600502016040518060a0016040529081600082015481526020016001820154815260200160028201548152602001600382018054611b2490613a59565b80601f0160208091040260200160405190810160405280929190818152602001828054611b5090613a59565b8015611b9d5780601f10611b7257610100808354040283529160200191611b9d565b820191906000526020600020905b815481529060010190602001808311611b8057829003601f168201915b5050505050815260200160048201805480602002602001604051908101604052809291908181526020018280548015611bf557602002820191906000526020600020905b815481526020019060010190808311611be1575b50505050508152505090506000858260000151611c1291906139b4565b90505b8151611c229086906139b4565b8111611c6b576000818152600260205260409020546001600160a01b0316611c59578151611c5090826139ff565b93505050611cda565b80611c6381613a94565b915050611c15565b5060405162461bcd60e51b815260206004820152603960248201527f52414952204552433732313a20546865726520617265206e6f20617661696c6160448201527f626c6520746f6b656e7320696e20746869732072616e67652e0000000000000060648201526084016107b4565b509392505050565b6000806060611d127f3c2519c4487d47714872f92cf90a50c25f5deaec2789dc2a497b1272df611db66000611842565b601054620186a090611d409074010000000000000000000000000000000000000000900461ffff16896139e0565b611d4a91906139cc565b60408051602081018b9052016040516020818303038152906040529250925092509450945094915050565b6000818152600260205260409020546060906001600160a01b0316611e025760405162461bcd60e51b815260206004820152602f60248201527f4552433732314d657461646174613a2055524920717565727920666f72206e6f60448201527f6e6578697374656e7420746f6b656e000000000000000000000000000000000060648201526084016107b4565b6000611e1960408051602081019091526000815290565b90506000815111611e39576040518060200160405280600081525061185a565b80611e4384612479565b604051602001611e549291906137b0565b6040516020818303038152906040529392505050565b6000818152600b602052604081206106a790612577565b6111c98282612581565b6001600160a01b03811660009081527f4e6e614aa308bd78bac28541285c453cfb7abbecc03cb60a1e70ec8347070f98602052604081205460ff168061185a57506001600160a01b0380841660009081526005602090815260408083209386168352929052205460ff1661185a565b611f0482826125a7565b5050565b600061185a836001600160a01b038416612649565b60006001600160e01b031982167f5a05180f0000000000000000000000000000000000000000000000000000000014806106a757506106a782612698565b6000818152600460205260409020805473ffffffffffffffffffffffffffffffffffffffff19166001600160a01b0384169081179091558190611f9d82611409565b6001600160a01b03167f8c5be1e5ebec7d5bd14f71427d1e84f3dd0314c0f7b2291e5b200ac8c7c3b92560405160405180910390a45050565b6000828152600a602090815260408083206001600160a01b038516845290915290205460ff16611f0457612014816001600160a01b031660146126d6565b61201f8360206126d6565b6040516020016120309291906137df565b60408051601f198184030181529082905262461bcd60e51b82526107b4916004016138cd565b611f0482826040518060200160405280600081525061289b565b6000818152600260205260408120546001600160a01b03166120e95760405162461bcd60e51b815260206004820152602c60248201527f4552433732313a206f70657261746f7220717565727920666f72206e6f6e657860448201526b34b9ba32b73a103a37b5b2b760a11b60648201526084016107b4565b60006120f483611409565b9050806001600160a01b0316846001600160a01b0316148061212f5750836001600160a01b03166121248461073f565b6001600160a01b0316145b8061213f575061213f8185611e8b565b949350505050565b826001600160a01b031661215a82611409565b6001600160a01b0316146121d65760405162461bcd60e51b815260206004820152602960248201527f4552433732313a207472616e73666572206f6620746f6b656e2074686174206960448201527f73206e6f74206f776e000000000000000000000000000000000000000000000060648201526084016107b4565b6001600160a01b0382166122515760405162461bcd60e51b8152602060048201526024808201527f4552433732313a207472616e7366657220746f20746865207a65726f2061646460448201527f726573730000000000000000000000000000000000000000000000000000000060648201526084016107b4565b61225c838383612919565b612267600082611f5b565b6001600160a01b03831660009081526003602052604081208054600192906122909084906139ff565b90915550506001600160a01b03821660009081526003602052604081208054600192906122be9084906139b4565b9091555050600081815260026020526040808220805473ffffffffffffffffffffffffffffffffffffffff19166001600160a01b0386811691821790925591518493918716917fddf252ad1be2c89b69c2b068fc378daa952ba7f163c4a11628f55a4df523b3ef91a4505050565b6000828152600a60205260409020600101546123488133611fd6565b61090683836125a7565b6001600160a01b03811633146123d05760405162461bcd60e51b815260206004820152602f60248201527f416363657373436f6e74726f6c3a2063616e206f6e6c792072656e6f756e636560448201527f20726f6c657320666f722073656c66000000000000000000000000000000000060648201526084016107b4565b611f048282612a66565b600061185a836001600160a01b038416612ae9565b600061185a8383612bd6565b612406848484612147565b61241284848484612c77565b611a5c5760405162461bcd60e51b815260206004820152603260248201527f4552433732313a207472616e7366657220746f206e6f6e20455243373231526560448201527131b2b4bb32b91034b6b83632b6b2b73a32b960711b60648201526084016107b4565b60608161249d5750506040805180820190915260018152600360fc1b602082015290565b8160005b81156124c757806124b181613a94565b91506124c09050600a836139cc565b91506124a1565b60008167ffffffffffffffff8111156124e2576124e2613b1b565b6040519080825280601f01601f19166020018201604052801561250c576020820181803683370190505b5090505b841561213f576125216001836139ff565b915061252e600a86613aaf565b6125399060306139b4565b60f81b81838151811061254e5761254e613b05565b60200101906001600160f81b031916908160001a905350612570600a866139cc565b9450612510565b60006106a7825490565b6000828152600a602052604090206001015461259d8133611fd6565b6109068383612a66565b6000828152600a602090815260408083206001600160a01b038516845290915290205460ff16611f04576000828152600a602090815260408083206001600160a01b03851684529091529020805460ff191660011790556126053390565b6001600160a01b0316816001600160a01b0316837f2f8788117e7eff1d82e926ec794901d17c78024a50270940304540a733656f0d60405160405180910390a45050565b6000818152600183016020526040812054612690575081546001818101845560008481526020808220909301849055845484825282860190935260409020919091556106a7565b5060006106a7565b60006001600160e01b031982167f7965db0b0000000000000000000000000000000000000000000000000000000014806106a757506106a782612dcf565b606060006126e58360026139e0565b6126f09060026139b4565b67ffffffffffffffff81111561270857612708613b1b565b6040519080825280601f01601f191660200182016040528015612732576020820181803683370190505b509050600360fc1b8160008151811061274d5761274d613b05565b60200101906001600160f81b031916908160001a9053507f78000000000000000000000000000000000000000000000000000000000000008160018151811061279857612798613b05565b60200101906001600160f81b031916908160001a90535060006127bc8460026139e0565b6127c79060016139b4565b90505b600181111561284c577f303132333435363738396162636465660000000000000000000000000000000085600f166010811061280857612808613b05565b1a60f81b82828151811061281e5761281e613b05565b60200101906001600160f81b031916908160001a90535060049490941c9361284581613a42565b90506127ca565b50831561185a5760405162461bcd60e51b815260206004820181905260248201527f537472696e67733a20686578206c656e67746820696e73756666696369656e7460448201526064016107b4565b6128a58383612e0d565b6128b26000848484612c77565b6109065760405162461bcd60e51b815260206004820152603260248201527f4552433732313a207472616e7366657220746f206e6f6e20455243373231526560448201527131b2b4bb32b91034b6b83632b6b2b73a32b960711b60648201526084016107b4565b6001600160a01b0383161580159061293957506001600160a01b03821615155b15612a5b576000818152600f6020908152604080832054600c90925290912054600d8054909190811061296e5761296e613b05565b9060005260206000209060040201600301541415612a31576000818152600c6020526040902054600d805490919081106129aa576129aa613b05565b906000526020600020906004020160020154600014612a315760405162461bcd60e51b815260206004820152603a60248201527f52414952204552433732313a205472616e736665727320666f7220746869732060448201527f72616e6765206172652063757272656e746c79206c6f636b656400000000000060648201526084016107b4565b612a5b7f872340a532bdd7bb02bea115c1b0f1ba87eac982f5b79b51ac189ffaac1b6fce33611fd6565b610906838383612f68565b6000828152600a602090815260408083206001600160a01b038516845290915290205460ff1615611f04576000828152600a602090815260408083206001600160a01b0385168085529252808320805460ff1916905551339285917ff6391f5c32d9c69d2a47ea670b442974b53935d1edc7fd64eb21e047a839171b9190a45050565b60008181526001830160205260408120548015612bcc576000612b0d6001836139ff565b8554909150600090612b21906001906139ff565b90506000866000018281548110612b3a57612b3a613b05565b9060005260206000200154905080876000018481548110612b5d57612b5d613b05565b600091825260208083209091019290925582815260018901909152604090208490558654879080612b9057612b90613aef565b600190038181906000526020600020016000905590558660010160008781526020019081526020016000206000905560019450505050506106a7565b60009150506106a7565b81546000908210612c4f5760405162461bcd60e51b815260206004820152602260248201527f456e756d657261626c655365743a20696e646578206f7574206f6620626f756e60448201527f647300000000000000000000000000000000000000000000000000000000000060648201526084016107b4565b826000018281548110612c6457612c64613b05565b9060005260206000200154905092915050565b60006001600160a01b0384163b15612dc457604051630a85bd0160e11b81526001600160a01b0385169063150b7a0290612cbb903390899088908890600401613860565b602060405180830381600087803b158015612cd557600080fd5b505af1925050508015612d05575060408051601f3d908101601f19168201909252612d0291810190613590565b60015b612daa573d808015612d33576040519150601f19603f3d011682016040523d82523d6000602084013e612d38565b606091505b508051612da25760405162461bcd60e51b815260206004820152603260248201527f4552433732313a207472616e7366657220746f206e6f6e20455243373231526560448201527131b2b4bb32b91034b6b83632b6b2b73a32b960711b60648201526084016107b4565b805181602001fd5b6001600160e01b031916630a85bd0160e11b14905061213f565b506001949350505050565b60006001600160e01b031982167f780e9d630000000000000000000000000000000000000000000000000000000014806106a757506106a782613020565b6001600160a01b038216612e635760405162461bcd60e51b815260206004820181905260248201527f4552433732313a206d696e7420746f20746865207a65726f206164647265737360448201526064016107b4565b6000818152600260205260409020546001600160a01b031615612ec85760405162461bcd60e51b815260206004820152601c60248201527f4552433732313a20746f6b656e20616c7265616479206d696e7465640000000060448201526064016107b4565b612ed460008383612919565b6001600160a01b0382166000908152600360205260408120805460019290612efd9084906139b4565b9091555050600081815260026020526040808220805473ffffffffffffffffffffffffffffffffffffffff19166001600160a01b03861690811790915590518392907fddf252ad1be2c89b69c2b068fc378daa952ba7f163c4a11628f55a4df523b3ef908290a45050565b6001600160a01b038316612fc357612fbe81600880546000838152600960205260408120829055600182018355919091527ff3f7a9fe364faab93b216da50a3214154f22a0a2b415b23a84c8169e8b636ee30155565b612fe6565b816001600160a01b0316836001600160a01b031614612fe657612fe683826130bb565b6001600160a01b038216612ffd5761090681613158565b826001600160a01b0316826001600160a01b031614610906576109068282613207565b60006001600160e01b031982167f80ac58cd00000000000000000000000000000000000000000000000000000000148061308357506001600160e01b031982167f5b5e139f00000000000000000000000000000000000000000000000000000000145b806106a757507f01ffc9a7000000000000000000000000000000000000000000000000000000006001600160e01b03198316146106a7565b600060016130c8846115d1565b6130d291906139ff565b600083815260076020526040902054909150808214613125576001600160a01b03841660009081526006602090815260408083208584528252808320548484528184208190558352600790915290208190555b5060009182526007602090815260408084208490556001600160a01b039094168352600681528383209183525290812055565b60085460009061316a906001906139ff565b6000838152600960205260408120546008805493945090928490811061319257613192613b05565b9060005260206000200154905080600883815481106131b3576131b3613b05565b60009182526020808320909101929092558281526009909152604080822084905585825281205560088054806131eb576131eb613aef565b6001900381819060005260206000200160009055905550505050565b6000613212836115d1565b6001600160a01b039093166000908152600660209081526040808320868452825280832085905593825260079052919091209190915550565b82805461325790613a59565b90600052602060002090601f01602090048101928261327957600085556132bf565b82601f1061329257805160ff19168380011785556132bf565b828001600101855582156132bf579182015b828111156132bf5782518255916020019190600101906132a4565b506132cb9291506132cf565b5090565b5b808211156132cb57600081556001016132d0565b600067ffffffffffffffff808411156132ff576132ff613b1b565b604051601f8501601f19908116603f0116810190828211818310171561332757613327613b1b565b8160405280935085815286868601111561334057600080fd5b858560208301376000602087830101525050509392505050565b80356001600160a01b038116811461337157600080fd5b919050565b60006020828403121561338857600080fd5b61185a8261335a565b600080604083850312156133a457600080fd5b6133ad8361335a565b91506133bb6020840161335a565b90509250929050565b6000806000606084860312156133d957600080fd5b6133e28461335a565b92506133f06020850161335a565b9150604084013590509250925092565b6000806000806080858703121561341657600080fd5b61341f8561335a565b935061342d6020860161335a565b925060408501359150606085013567ffffffffffffffff81111561345057600080fd5b8501601f8101871361346157600080fd5b613470878235602084016132e4565b91505092959194509250565b6000806040838503121561348f57600080fd5b6134988361335a565b9150602083013580151581146134ad57600080fd5b809150509250929050565b600080604083850312156134cb57600080fd5b6134d48361335a565b946020939093013593505050565b6000806000606084860312156134f757600080fd5b6135008461335a565b95602085013595506040909401359392505050565b60006020828403121561352757600080fd5b5035919050565b6000806040838503121561354157600080fd5b823591506133bb6020840161335a565b6000806040838503121561356457600080fd5b50508035926020909101359150565b60006020828403121561358557600080fd5b813561185a81613b31565b6000602082840312156135a257600080fd5b815161185a81613b31565b600080604083850312156135c057600080fd5b823567ffffffffffffffff8111156135d757600080fd5b8301601f810185136135e857600080fd5b6135f7858235602084016132e4565b95602094909401359450505050565b6000806000806060858703121561361c57600080fd5b8435935060208501359250604085013567ffffffffffffffff8082111561364257600080fd5b818701915087601f83011261365657600080fd5b81358181111561366557600080fd5b88602082850101111561367757600080fd5b95989497505060200194505050565b60008060006060848603121561369b57600080fd5b505081359360208301359350604090920135919050565b600080600080608085870312156136c857600080fd5b5050823594602084013594506040840135936060013592509050565b600081518084526136fc816020860160208601613a16565b601f01601f19169290920160200192915050565b8054600090600181811c908083168061372a57607f831692505b602080841082141561374c57634e487b7160e01b600052602260045260246000fd5b838852602088018280156137675760018114613778576137a3565b60ff198716825282820197506137a3565b60008981526020902060005b8781101561379d57815484820152908601908401613784565b83019850505b5050505050505092915050565b600083516137c2818460208801613a16565b8351908301906137d6818360208801613a16565b01949350505050565b7f416363657373436f6e74726f6c3a206163636f756e7420000000000000000000815260008351613817816017850160208801613a16565b7f206973206d697373696e6720726f6c65200000000000000000000000000000006017918401918201528351613854816028840160208801613a16565b01602801949350505050565b60006001600160a01b0380871683528086166020840152508360408301526080606083015261389260808301846136e4565b9695505050505050565b6001600160a01b03841681528260208201526060604082015260006138c460608301846136e4565b95945050505050565b60208152600061185a60208301846136e4565b6040815260006138f360408301856136e4565b90508260208301529392505050565b60208152600061185a6020830184613710565b85815260006020868184015285604084015260a0606084015261393b60a08401866136e4565b838103608085015284518082528286019183019060005b8181101561396e57835183529284019291840191600101613952565b50909a9950505050505050505050565b85815284602082015283604082015282606082015260a0608082015260006139a960a0830184613710565b979650505050505050565b600082198211156139c7576139c7613ac3565b500190565b6000826139db576139db613ad9565b500490565b60008160001904831182151516156139fa576139fa613ac3565b500290565b600082821015613a1157613a11613ac3565b500390565b60005b83811015613a31578181015183820152602001613a19565b83811115611a5c5750506000910152565b600081613a5157613a51613ac3565b506000190190565b600181811c90821680613a6d57607f821691505b60208210811415613a8e57634e487b7160e01b600052602260045260246000fd5b50919050565b6000600019821415613aa857613aa8613ac3565b5060010190565b600082613abe57613abe613ad9565b500690565b634e487b7160e01b600052601160045260246000fd5b634e487b7160e01b600052601260045260246000fd5b634e487b7160e01b600052603160045260246000fd5b634e487b7160e01b600052603260045260246000fd5b634e487b7160e01b600052604160045260246000fd5b6001600160e01b031981168114613b4757600080fd5b5056fea2646970667358221220fb888a0d97981b2247db25b95097b8b235ff254bd83abb2bae40fd96bb56d0d964736f6c634300080600333c2519c4487d47714872f92cf90a50c25f5deaec2789dc2a497b1272df611db6f0887ba65ee2024ea881d91b74c2450ef19e1557f03bed3ea9f16b037cbe2dc9872340a532bdd7bb02bea115c1b0f1ba87eac982f5b79b51ac189ffaac1b6fce",
  "linkReferences": {},
  "deployedLinkReferences": {}
}