{
  "_format": "hh-sol-artifact-1",
  "contractName": "RAIR_ERC721",
  "sourceName": "contracts/Tokens/RAIR-ERC721.sol",
  "abi": [
    {
      "inputs": [
        {
          "internalType": "string",
          "name": "_contractName",
          "type": "string"
        },
        {
          "internalType": "address",
          "name": "_creatorAddress",
          "type": "address"
        },
        {
          "internalType": "uint16",
          "name": "_creatorRoyalty",
          "type": "uint16"
        }
      ],
      "stateMutability": "nonpayable",
      "type": "constructor"
    },
    {
      "anonymous": false,
      "inputs": [
        {
          "indexed": true,
          "internalType": "address",
          "name": "owner",
          "type": "address"
        },
        {
          "indexed": true,
          "internalType": "address",
          "name": "approved",
          "type": "address"
        },
        {
          "indexed": true,
          "internalType": "uint256",
          "name": "tokenId",
          "type": "uint256"
        }
      ],
      "name": "Approval",
      "type": "event"
    },
    {
      "anonymous": false,
      "inputs": [
        {
          "indexed": true,
          "internalType": "address",
          "name": "owner",
          "type": "address"
        },
        {
          "indexed": true,
          "internalType": "address",
          "name": "operator",
          "type": "address"
        },
        {
          "indexed": false,
          "internalType": "bool",
          "name": "approved",
          "type": "bool"
        }
      ],
      "name": "ApprovalForAll",
      "type": "event"
    },
    {
      "anonymous": false,
      "inputs": [
        {
          "indexed": true,
          "internalType": "uint256",
          "name": "id",
          "type": "uint256"
        },
        {
          "indexed": false,
          "internalType": "string",
          "name": "name",
          "type": "string"
        }
      ],
      "name": "CollectionCompleted",
      "type": "event"
    },
    {
      "anonymous": false,
      "inputs": [
        {
          "indexed": true,
          "internalType": "uint256",
          "name": "id",
          "type": "uint256"
        },
        {
          "indexed": false,
          "internalType": "string",
          "name": "name",
          "type": "string"
        },
        {
          "indexed": false,
          "internalType": "uint256",
          "name": "length",
          "type": "uint256"
        }
      ],
      "name": "CollectionCreated",
      "type": "event"
    },
    {
      "anonymous": false,
      "inputs": [
        {
          "indexed": false,
          "internalType": "uint256",
          "name": "collectionIndex",
          "type": "uint256"
        },
        {
          "indexed": false,
          "internalType": "uint256",
          "name": "startingToken",
          "type": "uint256"
        },
        {
          "indexed": false,
          "internalType": "uint256",
          "name": "endingToken",
          "type": "uint256"
        },
        {
          "indexed": false,
          "internalType": "uint256",
          "name": "tokensLocked",
          "type": "uint256"
        },
        {
          "indexed": false,
          "internalType": "string",
          "name": "collectionName",
          "type": "string"
        }
      ],
      "name": "RangeLocked",
      "type": "event"
    },
    {
      "anonymous": false,
      "inputs": [
        {
          "indexed": false,
          "internalType": "uint256",
          "name": "collectionID",
          "type": "uint256"
        },
        {
          "indexed": false,
          "internalType": "uint256",
          "name": "startingToken",
          "type": "uint256"
        },
        {
          "indexed": false,
          "internalType": "uint256",
          "name": "endingToken",
          "type": "uint256"
        }
      ],
      "name": "RangeUnlocked",
      "type": "event"
    },
    {
      "anonymous": false,
      "inputs": [
        {
          "indexed": true,
          "internalType": "bytes32",
          "name": "role",
          "type": "bytes32"
        },
        {
          "indexed": true,
          "internalType": "bytes32",
          "name": "previousAdminRole",
          "type": "bytes32"
        },
        {
          "indexed": true,
          "internalType": "bytes32",
          "name": "newAdminRole",
          "type": "bytes32"
        }
      ],
      "name": "RoleAdminChanged",
      "type": "event"
    },
    {
      "anonymous": false,
      "inputs": [
        {
          "indexed": true,
          "internalType": "bytes32",
          "name": "role",
          "type": "bytes32"
        },
        {
          "indexed": true,
          "internalType": "address",
          "name": "account",
          "type": "address"
        },
        {
          "indexed": true,
          "internalType": "address",
          "name": "sender",
          "type": "address"
        }
      ],
      "name": "RoleGranted",
      "type": "event"
    },
    {
      "anonymous": false,
      "inputs": [
        {
          "indexed": true,
          "internalType": "bytes32",
          "name": "role",
          "type": "bytes32"
        },
        {
          "indexed": true,
          "internalType": "address",
          "name": "account",
          "type": "address"
        },
        {
          "indexed": true,
          "internalType": "address",
          "name": "sender",
          "type": "address"
        }
      ],
      "name": "RoleRevoked",
      "type": "event"
    },
    {
      "anonymous": false,
      "inputs": [
        {
          "indexed": true,
          "internalType": "address",
          "name": "from",
          "type": "address"
        },
        {
          "indexed": true,
          "internalType": "address",
          "name": "to",
          "type": "address"
        },
        {
          "indexed": true,
          "internalType": "uint256",
          "name": "tokenId",
          "type": "uint256"
        }
      ],
      "name": "Transfer",
      "type": "event"
    },
    {
      "inputs": [],
      "name": "CREATOR",
      "outputs": [
        {
          "internalType": "bytes32",
          "name": "",
          "type": "bytes32"
        }
      ],
      "stateMutability": "view",
      "type": "function"
    },
    {
      "inputs": [],
      "name": "DEFAULT_ADMIN_ROLE",
      "outputs": [
        {
          "internalType": "bytes32",
          "name": "",
          "type": "bytes32"
        }
      ],
      "stateMutability": "view",
      "type": "function"
    },
    {
      "inputs": [],
      "name": "MINTER",
      "outputs": [
        {
          "internalType": "bytes32",
          "name": "",
          "type": "bytes32"
        }
      ],
      "stateMutability": "view",
      "type": "function"
    },
    {
      "inputs": [],
      "name": "TRADER",
      "outputs": [
        {
          "internalType": "bytes32",
          "name": "",
          "type": "bytes32"
        }
      ],
      "stateMutability": "view",
      "type": "function"
    },
    {
      "inputs": [
        {
          "internalType": "address",
          "name": "to",
          "type": "address"
        },
        {
          "internalType": "uint256",
          "name": "tokenId",
          "type": "uint256"
        }
      ],
      "name": "approve",
      "outputs": [],
      "stateMutability": "nonpayable",
      "type": "function"
    },
    {
      "inputs": [
        {
          "internalType": "address",
          "name": "owner",
          "type": "address"
        }
      ],
      "name": "balanceOf",
      "outputs": [
        {
          "internalType": "uint256",
          "name": "",
          "type": "uint256"
        }
      ],
      "stateMutability": "view",
      "type": "function"
    },
    {
      "inputs": [
        {
          "internalType": "uint256",
          "name": "productIndex",
          "type": "uint256"
        },
        {
          "internalType": "uint256",
          "name": "startingToken",
          "type": "uint256"
        },
        {
          "internalType": "uint256",
          "name": "endingToken",
          "type": "uint256"
        }
      ],
      "name": "canCreateLock",
      "outputs": [
        {
          "internalType": "bool",
          "name": "canCreate",
          "type": "bool"
        }
      ],
      "stateMutability": "view",
      "type": "function"
    },
    {
      "inputs": [
        {
          "internalType": "string",
          "name": "_productName",
          "type": "string"
        },
        {
          "internalType": "uint256",
          "name": "_copies",
          "type": "uint256"
        }
      ],
      "name": "createCollection",
      "outputs": [],
      "stateMutability": "nonpayable",
      "type": "function"
    },
    {
      "inputs": [
        {
          "internalType": "uint256",
          "name": "productIndex",
          "type": "uint256"
        },
        {
          "internalType": "uint256",
          "name": "_startingToken",
          "type": "uint256"
        },
        {
          "internalType": "uint256",
          "name": "_endingToken",
          "type": "uint256"
        },
        {
          "internalType": "uint256",
          "name": "_lockedTokens",
          "type": "uint256"
        }
      ],
      "name": "createRangeLock",
      "outputs": [],
      "stateMutability": "nonpayable",
      "type": "function"
    },
    {
      "inputs": [
        {
          "internalType": "uint256",
          "name": "tokenId",
          "type": "uint256"
        }
      ],
      "name": "getApproved",
      "outputs": [
        {
          "internalType": "address",
          "name": "",
          "type": "address"
        }
      ],
      "stateMutability": "view",
      "type": "function"
    },
    {
      "inputs": [
        {
          "internalType": "uint256",
          "name": "index",
          "type": "uint256"
        }
      ],
      "name": "getCollection",
      "outputs": [
        {
          "internalType": "uint256",
          "name": "startingToken",
          "type": "uint256"
        },
        {
          "internalType": "uint256",
          "name": "endingToken",
          "type": "uint256"
        },
        {
          "internalType": "uint256",
          "name": "mintableTokensLeft",
          "type": "uint256"
        },
        {
          "internalType": "string",
          "name": "productName",
          "type": "string"
        },
        {
          "internalType": "uint256[]",
          "name": "locks",
          "type": "uint256[]"
        }
      ],
      "stateMutability": "view",
      "type": "function"
    },
    {
      "inputs": [],
      "name": "getCollectionCount",
      "outputs": [
        {
          "internalType": "uint256",
          "name": "",
          "type": "uint256"
        }
      ],
      "stateMutability": "view",
      "type": "function"
    },
    {
      "inputs": [
        {
          "internalType": "uint256",
          "name": "index",
          "type": "uint256"
        }
      ],
      "name": "getLockedRange",
      "outputs": [
        {
          "internalType": "uint256",
          "name": "startingToken",
          "type": "uint256"
        },
        {
          "internalType": "uint256",
          "name": "endingToken",
          "type": "uint256"
        },
        {
          "internalType": "uint256",
          "name": "countToUnlock",
          "type": "uint256"
        },
        {
          "internalType": "uint256",
          "name": "productIndex",
          "type": "uint256"
        }
      ],
      "stateMutability": "view",
      "type": "function"
    },
    {
      "inputs": [
        {
          "internalType": "uint256",
          "name": "productID",
          "type": "uint256"
        },
        {
          "internalType": "uint256",
          "name": "startingIndex",
          "type": "uint256"
        },
        {
          "internalType": "uint256",
          "name": "endingIndex",
          "type": "uint256"
        }
      ],
      "name": "getNextSequentialIndex",
      "outputs": [
        {
          "internalType": "uint256",
          "name": "nextIndex",
          "type": "uint256"
        }
      ],
      "stateMutability": "view",
      "type": "function"
    },
    {
      "inputs": [
        {
          "internalType": "bytes32",
          "name": "role",
          "type": "bytes32"
        }
      ],
      "name": "getRoleAdmin",
      "outputs": [
        {
          "internalType": "bytes32",
          "name": "",
          "type": "bytes32"
        }
      ],
      "stateMutability": "view",
      "type": "function"
    },
    {
      "inputs": [
        {
          "internalType": "bytes32",
          "name": "role",
          "type": "bytes32"
        },
        {
          "internalType": "uint256",
          "name": "index",
          "type": "uint256"
        }
      ],
      "name": "getRoleMember",
      "outputs": [
        {
          "internalType": "address",
          "name": "",
          "type": "address"
        }
      ],
      "stateMutability": "view",
      "type": "function"
    },
    {
      "inputs": [
        {
          "internalType": "bytes32",
          "name": "role",
          "type": "bytes32"
        }
      ],
      "name": "getRoleMemberCount",
      "outputs": [
        {
          "internalType": "uint256",
          "name": "",
          "type": "uint256"
        }
      ],
      "stateMutability": "view",
      "type": "function"
    },
    {
      "inputs": [
        {
          "internalType": "bytes32",
          "name": "role",
          "type": "bytes32"
        },
        {
          "internalType": "address",
          "name": "account",
          "type": "address"
        }
      ],
      "name": "grantRole",
      "outputs": [],
      "stateMutability": "nonpayable",
      "type": "function"
    },
    {
      "inputs": [
        {
          "internalType": "bytes32",
          "name": "role",
          "type": "bytes32"
        },
        {
          "internalType": "address",
          "name": "account",
          "type": "address"
        }
      ],
      "name": "hasRole",
      "outputs": [
        {
          "internalType": "bool",
          "name": "",
          "type": "bool"
        }
      ],
      "stateMutability": "view",
      "type": "function"
    },
    {
      "inputs": [
        {
          "internalType": "address",
          "name": "owner",
          "type": "address"
        },
        {
          "internalType": "uint256",
          "name": "productIndex",
          "type": "uint256"
        }
      ],
      "name": "hasTokenInCollection",
      "outputs": [
        {
          "internalType": "bool",
          "name": "",
          "type": "bool"
        }
      ],
      "stateMutability": "view",
      "type": "function"
    },
    {
      "inputs": [
        {
          "internalType": "address",
          "name": "owner",
          "type": "address"
        },
        {
          "internalType": "address",
          "name": "operator",
          "type": "address"
        }
      ],
      "name": "isApprovedForAll",
      "outputs": [
        {
          "internalType": "bool",
          "name": "",
          "type": "bool"
        }
      ],
      "stateMutability": "view",
      "type": "function"
    },
    {
      "inputs": [
        {
          "internalType": "uint256",
          "name": "_tokenId",
          "type": "uint256"
        }
      ],
      "name": "isTokenLocked",
      "outputs": [
        {
          "internalType": "bool",
          "name": "",
          "type": "bool"
        }
      ],
      "stateMutability": "view",
      "type": "function"
    },
    {
      "inputs": [
        {
          "internalType": "address",
          "name": "to",
          "type": "address"
        },
        {
          "internalType": "uint256",
          "name": "productId",
          "type": "uint256"
        },
        {
          "internalType": "uint256",
          "name": "indexInCollection",
          "type": "uint256"
        }
      ],
      "name": "mint",
      "outputs": [],
      "stateMutability": "nonpayable",
      "type": "function"
    },
    {
      "inputs": [],
      "name": "name",
      "outputs": [
        {
          "internalType": "string",
          "name": "",
          "type": "string"
        }
      ],
      "stateMutability": "view",
      "type": "function"
    },
    {
      "inputs": [
        {
          "internalType": "uint256",
          "name": "tokenId",
          "type": "uint256"
        }
      ],
      "name": "ownerOf",
      "outputs": [
        {
          "internalType": "address",
          "name": "",
          "type": "address"
        }
      ],
      "stateMutability": "view",
      "type": "function"
    },
    {
      "inputs": [
        {
          "internalType": "bytes32",
          "name": "role",
          "type": "bytes32"
        },
        {
          "internalType": "address",
          "name": "account",
          "type": "address"
        }
      ],
      "name": "renounceRole",
      "outputs": [],
      "stateMutability": "nonpayable",
      "type": "function"
    },
    {
      "inputs": [
        {
          "internalType": "bytes32",
          "name": "role",
          "type": "bytes32"
        },
        {
          "internalType": "address",
          "name": "account",
          "type": "address"
        }
      ],
      "name": "revokeRole",
      "outputs": [],
      "stateMutability": "nonpayable",
      "type": "function"
    },
    {
      "inputs": [
        {
          "internalType": "uint256",
          "name": "_tokenId",
          "type": "uint256"
        },
        {
          "internalType": "uint256",
          "name": "_salePrice",
          "type": "uint256"
        }
      ],
      "name": "royaltyInfo",
      "outputs": [
        {
          "internalType": "address",
          "name": "receiver",
          "type": "address"
        },
        {
          "internalType": "uint256",
          "name": "royaltyAmount",
          "type": "uint256"
        }
      ],
      "stateMutability": "view",
      "type": "function"
    },
    {
      "inputs": [
        {
          "internalType": "address",
          "name": "from",
          "type": "address"
        },
        {
          "internalType": "address",
          "name": "to",
          "type": "address"
        },
        {
          "internalType": "uint256",
          "name": "tokenId",
          "type": "uint256"
        }
      ],
      "name": "safeTransferFrom",
      "outputs": [],
      "stateMutability": "nonpayable",
      "type": "function"
    },
    {
      "inputs": [
        {
          "internalType": "address",
          "name": "from",
          "type": "address"
        },
        {
          "internalType": "address",
          "name": "to",
          "type": "address"
        },
        {
          "internalType": "uint256",
          "name": "tokenId",
          "type": "uint256"
        },
        {
          "internalType": "bytes",
          "name": "_data",
          "type": "bytes"
        }
      ],
      "name": "safeTransferFrom",
      "outputs": [],
      "stateMutability": "nonpayable",
      "type": "function"
    },
    {
      "inputs": [
        {
          "internalType": "address",
          "name": "operator",
          "type": "address"
        },
        {
          "internalType": "bool",
          "name": "approved",
          "type": "bool"
        }
      ],
      "name": "setApprovalForAll",
      "outputs": [],
      "stateMutability": "nonpayable",
      "type": "function"
    },
    {
      "inputs": [
        {
          "internalType": "bytes4",
          "name": "interfaceId",
          "type": "bytes4"
        }
      ],
      "name": "supportsInterface",
      "outputs": [
        {
          "internalType": "bool",
          "name": "",
          "type": "bool"
        }
      ],
      "stateMutability": "view",
      "type": "function"
    },
    {
      "inputs": [],
      "name": "symbol",
      "outputs": [
        {
          "internalType": "string",
          "name": "",
          "type": "string"
        }
      ],
      "stateMutability": "view",
      "type": "function"
    },
    {
      "inputs": [
        {
          "internalType": "uint256",
          "name": "index",
          "type": "uint256"
        }
      ],
      "name": "tokenByIndex",
      "outputs": [
        {
          "internalType": "uint256",
          "name": "",
          "type": "uint256"
        }
      ],
      "stateMutability": "view",
      "type": "function"
    },
    {
      "inputs": [
        {
          "internalType": "uint256",
          "name": "productIndex",
          "type": "uint256"
        }
      ],
      "name": "tokenCountByProduct",
      "outputs": [
        {
          "internalType": "uint256",
          "name": "",
          "type": "uint256"
        }
      ],
      "stateMutability": "view",
      "type": "function"
    },
    {
      "inputs": [
        {
          "internalType": "address",
          "name": "owner",
          "type": "address"
        },
        {
          "internalType": "uint256",
          "name": "index",
          "type": "uint256"
        }
      ],
      "name": "tokenOfOwnerByIndex",
      "outputs": [
        {
          "internalType": "uint256",
          "name": "",
          "type": "uint256"
        }
      ],
      "stateMutability": "view",
      "type": "function"
    },
    {
      "inputs": [
        {
          "internalType": "uint256",
          "name": "",
          "type": "uint256"
        }
      ],
      "name": "tokenToCollection",
      "outputs": [
        {
          "internalType": "uint256",
          "name": "",
          "type": "uint256"
        }
      ],
      "stateMutability": "view",
      "type": "function"
    },
    {
      "inputs": [
        {
          "internalType": "uint256",
          "name": "token",
          "type": "uint256"
        }
      ],
      "name": "tokenToCollectionIndex",
      "outputs": [
        {
          "internalType": "uint256",
          "name": "tokenIndex",
          "type": "uint256"
        }
      ],
      "stateMutability": "view",
      "type": "function"
    },
    {
      "inputs": [
        {
          "internalType": "uint256",
          "name": "tokenId",
          "type": "uint256"
        }
      ],
      "name": "tokenURI",
      "outputs": [
        {
          "internalType": "string",
          "name": "",
          "type": "string"
        }
      ],
      "stateMutability": "view",
      "type": "function"
    },
    {
      "inputs": [
        {
          "internalType": "uint256",
          "name": "",
          "type": "uint256"
        },
        {
          "internalType": "uint256",
          "name": "",
          "type": "uint256"
        }
      ],
      "name": "tokensByProduct",
      "outputs": [
        {
          "internalType": "uint256",
          "name": "",
          "type": "uint256"
        }
      ],
      "stateMutability": "view",
      "type": "function"
    },
    {
      "inputs": [],
      "name": "totalSupply",
      "outputs": [
        {
          "internalType": "uint256",
          "name": "",
          "type": "uint256"
        }
      ],
      "stateMutability": "view",
      "type": "function"
    },
    {
      "inputs": [
        {
          "internalType": "address",
          "name": "from",
          "type": "address"
        },
        {
          "internalType": "address",
          "name": "to",
          "type": "address"
        },
        {
          "internalType": "uint256",
          "name": "tokenId",
          "type": "uint256"
        }
      ],
      "name": "transferFrom",
      "outputs": [],
      "stateMutability": "nonpayable",
      "type": "function"
    }
  ],
  "bytecode": "0x60806040523480156200001157600080fd5b506040516200431c3803806200431c8339810160408190526200003491620003e1565b82604051806040016040528060048152602001632920a4a960e11b81525081600090805190602001906200006a9291906200030b565b508051620000809060019060208401906200030b565b5050601480546001600160b01b0319163361ffff60a01b191617600160a01b61ffff85160217905550620000d3600080516020620042dc833981519152600080516020620042bc83398151915262000157565b620000fd600080516020620042fc833981519152600080516020620042bc83398151915262000157565b62000118600080516020620042bc83398151915283620001a2565b62000133600080516020620042dc83398151915283620001a2565b6200014e600080516020620042fc83398151915283620001a2565b50505062000537565b6000828152600a6020526040808220600101805490849055905190918391839186917fbd79b86ffe0ab8e8776151514217cd7cacd52c909f66475c3af44e129f0b00ff9190a4505050565b620001b98282620001e560201b620022111760201c565b6000828152600b60209081526040909120620001e09183906200221f620001f5821b17901c565b505050565b620001f1828262000215565b5050565b60006200020c836001600160a01b038416620002b9565b90505b92915050565b6000828152600a602090815260408083206001600160a01b038516845290915290205460ff16620001f1576000828152600a602090815260408083206001600160a01b03851684529091529020805460ff19166001179055620002753390565b6001600160a01b0316816001600160a01b0316837f2f8788117e7eff1d82e926ec794901d17c78024a50270940304540a733656f0d60405160405180910390a45050565b600081815260018301602052604081205462000302575081546001818101845560008481526020808220909301849055845484825282860190935260409020919091556200020f565b5060006200020f565b8280546200031990620004e4565b90600052602060002090601f0160209004810192826200033d576000855562000388565b82601f106200035857805160ff191683800117855562000388565b8280016001018555821562000388579182015b82811115620003885782518255916020019190600101906200036b565b50620003969291506200039a565b5090565b5b808211156200039657600081556001016200039b565b80516001600160a01b0381168114620003c957600080fd5b919050565b805161ffff81168114620003c957600080fd5b600080600060608486031215620003f757600080fd5b83516001600160401b03808211156200040f57600080fd5b818601915086601f8301126200042457600080fd5b81518181111562000439576200043962000521565b604051601f8201601f19908116603f0116810190838211818310171562000464576200046462000521565b816040528281526020935089848487010111156200048157600080fd5b600091505b82821015620004a5578482018401518183018501529083019062000486565b82821115620004b75760008484830101525b9650620004c9915050868201620003b1565b93505050620004db60408501620003ce565b90509250925092565b600181811c90821680620004f957607f821691505b602082108114156200051b57634e487b7160e01b600052602260045260246000fd5b50919050565b634e487b7160e01b600052604160045260246000fd5b613d7580620005476000396000f3fe608060405234801561001057600080fd5b50600436106102de5760003560e01c80634f6ccce711610186578063a217fddf116100e3578063c87b56dd11610097578063e4fbb60911610071578063e4fbb6091461068f578063e985e9c5146106b6578063fe6d8124146106c957600080fd5b8063c87b56dd14610656578063ca15c87314610669578063d547741f1461067c57600080fd5b8063ab9aae35116100c8578063ab9aae351461061d578063b88d4fde14610630578063bda5ec331461064357600080fd5b8063a217fddf14610602578063a22cb4651461060a57600080fd5b8063876654a01161013a57806391d148541161011f57806391d14854146105ae57806395d89b41146105e757806397099fb2146105ef57600080fd5b8063876654a0146105685780639010d07c1461059b57600080fd5b80636352211e1161016b5780636352211e1461052f57806364d541511461054257806370a082311461055557600080fd5b80634f6ccce7146104f85780635a1f3c281461050b57600080fd5b80631c10106f1161023f5780632a55205a116101f357806336568abe116101cd57806336568abe146104bf5780633d42f206146104d257806342842e0e146104e557600080fd5b80632a55205a146104675780632f2ff15d146104995780632f745c59146104ac57600080fd5b806324704bd71161022457806324704bd71461041e578063248a9ca314610431578063276a28a31461045457600080fd5b80631c10106f1461040357806323b872dd1461040b57600080fd5b8063156e29f611610296578063175c4ef81161027b578063175c4ef8146103b457806318160ddd146103db578063195f78ae146103e357600080fd5b8063156e29f61461038e57806315a18241146103a157600080fd5b806306fdde03116102c757806306fdde0314610339578063081812fc1461034e578063095ea7b31461037957600080fd5b806301ffc9a7146102e35780630301e1e21461030b575b600080fd5b6102f66102f1366004613819565b6106f0565b60405190151581526020015b60405180910390f35b61032b6103193660046137bb565b6000908152600c602052604090205490565b604051908152602001610302565b610341610734565b6040516103029190613ac2565b61036161035c3660046137bb565b6107c6565b6040516001600160a01b039091168152602001610302565b61038c61038736600461375e565b610860565b005b61038c61039c366004613788565b610992565b61038c6103af3660046138d8565b610d4e565b61032b7f872340a532bdd7bb02bea115c1b0f1ba87eac982f5b79b51ac189ffaac1b6fce81565b60085461032b565b61032b6103f13660046137bb565b600d6020526000908152604090205481565b60135461032b565b61038c61041936600461366a565b6110f1565b61032b61042c3660046137f7565b611178565b61032b61043f3660046137bb565b6000908152600a602052604090206001015490565b6102f66104623660046137bb565b6111a9565b61047a6104753660046137f7565b61122f565b604080516001600160a01b039093168352602083019190915201610302565b61038c6104a73660046137d4565b6112a0565b61032b6104ba36600461375e565b6112c2565b61038c6104cd3660046137d4565b61136a565b6102f66104e03660046138ac565b61138c565b61038c6104f336600461366a565b611592565b61032b6105063660046137bb565b6115ad565b61051e6105193660046137bb565b611651565b604051610302959493929190613b0a565b61036161053d3660046137bb565b6117ba565b61038c610550366004613853565b611845565b61032b61056336600461361c565b611982565b61057b6105763660046137bb565b611a1c565b604080519485526020850193909352918301526060820152608001610302565b6103616105a93660046137f7565b611bf3565b6102f66105bc3660046137d4565b6000918252600a602090815260408084206001600160a01b0393909316845291905290205460ff1690565b610341611c0b565b6102f66105fd36600461375e565b611c1a565b61032b600081565b61038c610618366004613722565b611c78565b61032b61062b3660046137bb565b611d3d565b61038c61063e3660046136a6565b611d7e565b61032b6106513660046138ac565b611e0c565b6103416106643660046137bb565b61208c565b61032b6106773660046137bb565b612181565b61038c61068a3660046137d4565b612198565b61032b7f3c2519c4487d47714872f92cf90a50c25f5deaec2789dc2a497b1272df611db681565b6102f66106c4366004613637565b6121a2565b61032b7ff0887ba65ee2024ea881d91b74c2450ef19e1557f03bed3ea9f16b037cbe2dc981565b60006001600160e01b031982167f2baae9fd00000000000000000000000000000000000000000000000000000000148061072e575061072e82612234565b92915050565b60606000805461074390613c4e565b80601f016020809104026020016040519081016040528092919081815260200182805461076f90613c4e565b80156107bc5780601f10610791576101008083540402835291602001916107bc565b820191906000526020600020905b81548152906001019060200180831161079f57829003601f168201915b5050505050905090565b6000818152600260205260408120546001600160a01b03166108445760405162461bcd60e51b815260206004820152602c60248201527f4552433732313a20617070726f76656420717565727920666f72206e6f6e657860448201526b34b9ba32b73a103a37b5b2b760a11b60648201526084015b60405180910390fd5b506000908152600460205260409020546001600160a01b031690565b600061086b826117ba565b9050806001600160a01b0316836001600160a01b031614156108f55760405162461bcd60e51b815260206004820152602160248201527f4552433732313a20617070726f76616c20746f2063757272656e74206f776e6560448201527f7200000000000000000000000000000000000000000000000000000000000000606482015260840161083b565b336001600160a01b0382161480610911575061091181336121a2565b6109835760405162461bcd60e51b815260206004820152603860248201527f4552433732313a20617070726f76652063616c6c6572206973206e6f74206f7760448201527f6e6572206e6f7220617070726f76656420666f7220616c6c0000000000000000606482015260840161083b565b61098d8383612272565b505050565b7ff0887ba65ee2024ea881d91b74c2450ef19e1557f03bed3ea9f16b037cbe2dc96109bd81336122ed565b60135483908110610a1f5760405162461bcd60e51b815260206004820152602660248201527f52414952204552433732313a20436f6c6c656374696f6e20646f6573206e6f7460448201526508195e1a5cdd60d21b606482015260840161083b565b600060138581548110610a3457610a34613cfa565b9060005260206000209060050201905080600001548160010154610a589190613bf4565b841115610aa75760405162461bcd60e51b815260206004820181905260248201527f52414952204552433732313a20496e76616c696420746f6b656e20696e646578604482015260640161083b565b610ac086858360000154610abb9190613ba9565b61236d565b6000858152600c602052604090208154610adb908690613ba9565b8154600181018355600092835260208320015581548691600d91610b00908890613ba9565b815260200190815260200160002081905550806002016000815480929190610b2790613c37565b9091555060009050805b6004830154811015610cff578254610b4a908790613ba9565b6012846004018381548110610b6157610b61613cfa565b906000526020600020015481548110610b7c57610b7c613cfa565b90600052602060002090600402016000015411158015610beb57508254610ba4908790613ba9565b6012846004018381548110610bbb57610bbb613cfa565b906000526020600020015481548110610bd657610bd6613cfa565b90600052602060002090600402016001015410155b15610ced576012836004018281548110610c0757610c07613cfa565b906000526020600020015481548110610c2257610c22613cfa565b90600052602060002090600402019150826004018181548110610c4757610c47613cfa565b9060005260206000200154600e6000888660000154610c669190613ba9565b8152602081019190915260400160002055600282015415610ce857600282018054906000610c9383613c37565b90915550506002820154610ce85781546001830154604080518a815260208101939093528201527fd3edbeb94dfb8eadcd8c291774b9ac3cc9b06af829273e295bf3197849934b889060600160405180910390a15b610cff565b80610cf781613c89565b915050610b31565b506002820154610d4557857f3ab828a3fee3d542c87fb145e900664325100c3c0b2e2a2cca38685b6de1b27183600301604051610d3c9190613af7565b60405180910390a25b50505050505050565b7f3c2519c4487d47714872f92cf90a50c25f5deaec2789dc2a497b1272df611db6610d7981336122ed565b60135485908110610ddb5760405162461bcd60e51b815260206004820152602660248201527f52414952204552433732313a20436f6c6c656374696f6e20646f6573206e6f7460448201526508195e1a5cdd60d21b606482015260840161083b565b600060138781548110610df057610df0613cfa565b906000526020600020906005020190508060010154858260000154610e159190613ba9565b1115610e895760405162461bcd60e51b815260206004820152602160248201527f52414952204552433732313a20496e76616c696420656e64696e6720746f6b6560448201527f6e00000000000000000000000000000000000000000000000000000000000000606482015260840161083b565b80546001820154610e9a9190613bf4565b610ea48787613bf4565b1115610f185760405162461bcd60e51b815260206004820152602160248201527f52414952204552433732313a20496e76616c696420746f6b656e206c696d697460448201527f7300000000000000000000000000000000000000000000000000000000000000606482015260840161083b565b83610f238787613bf4565b610f2e906001613ba9565b1015610fa25760405162461bcd60e51b815260206004820152602d60248201527f52414952204552433732313a20496e76616c6964206e756d626572206f66207460448201527f6f6b656e7320746f206c6f636b00000000000000000000000000000000000000606482015260840161083b565b610fad87878761138c565b610ff95760405162461bcd60e51b815260206004820152601f60248201527f52414952204552433732313a2043616e6e6f7420637265617465206c6f636b00604482015260640161083b565b60128054600181018255600091909152815460049091027fbb8a6a4669ba250d26cd7a459eca9d215f8307e33aebe50379bc5a3617ec3444019061103e908890613ba9565b8155815461104d908790613ba9565b6001808301919091556002820186905560038201899055601254600484019161107591613bf4565b8154600181018355600092835260209092209091015581547f0b8fece546364ce1dcadcf45028659aff64e7a166d735eb32da27050fd520f699089906110bc908a90613ba9565b84546110c9908a90613ba9565b88866003016040516110df959493929190613b73565b60405180910390a15050505050505050565b6110fb3382612387565b61116d5760405162461bcd60e51b815260206004820152603160248201527f4552433732313a207472616e736665722063616c6c6572206973206e6f74206f60448201527f776e6572206e6f7220617070726f766564000000000000000000000000000000606482015260840161083b565b61098d83838361245e565b600c602052816000526040600020818154811061119457600080fd5b90600052602060002001600091509150505481565b6000818152600d6020908152604080832054600e9092528220546012805490919081106111d8576111d8613cfa565b90600052602060002090600402016003015414801561072e57506000828152600e602052604081205460128054909190811061121657611216613cfa565b9060005260206000209060040201600201541192915050565b60008061125d7f3c2519c4487d47714872f92cf90a50c25f5deaec2789dc2a497b1272df611db66000611bf3565b601454620186a09061128b9074010000000000000000000000000000000000000000900461ffff1686613bd5565b6112959190613bc1565b915091509250929050565b6112aa8282612643565b6000828152600b6020526040902061098d908261221f565b60006112cd83611982565b82106113415760405162461bcd60e51b815260206004820152602b60248201527f455243373231456e756d657261626c653a206f776e657220696e646578206f7560448201527f74206f6620626f756e6473000000000000000000000000000000000000000000606482015260840161083b565b506001600160a01b03919091166000908152600660209081526040808320938352929052205490565b6113748282612669565b6000828152600b6020526040902061098d90826126f1565b600080601385815481106113a2576113a2613cfa565b90600052602060002090600502019050806000015481600101546113c69190613bf4565b8411806113e25750805460018201546113df9190613bf4565b83115b156113f157600091505061158b565b60005b600482015481101561158457815461140d908690613ba9565b601283600401838154811061142457611424613cfa565b90600052602060002001548154811061143f5761143f613cfa565b906000526020600020906004020160000154111580156114ae57508154611467908690613ba9565b601283600401838154811061147e5761147e613cfa565b90600052602060002001548154811061149957611499613cfa565b90600052602060002090600402016001015410155b80611562575081546114c1908590613ba9565b60128360040183815481106114d8576114d8613cfa565b9060005260206000200154815481106114f3576114f3613cfa565b906000526020600020906004020160000154111580156115625750815461151b908590613ba9565b601283600401838154811061153257611532613cfa565b90600052602060002001548154811061154d5761154d613cfa565b90600052602060002090600402016001015410155b156115725760009250505061158b565b8061157c81613c89565b9150506113f4565b5060019150505b9392505050565b61098d83838360405180602001604052806000815250611d7e565b60006115b860085490565b821061162c5760405162461bcd60e51b815260206004820152602c60248201527f455243373231456e756d657261626c653a20676c6f62616c20696e646578206f60448201527f7574206f6620626f756e64730000000000000000000000000000000000000000606482015260840161083b565b6008828154811061163f5761163f613cfa565b90600052602060002001549050919050565b600080600060608060006013878154811061166e5761166e613cfa565b90600052602060002090600502016040518060a00160405290816000820154815260200160018201548152602001600282015481526020016003820180546116b590613c4e565b80601f01602080910402602001604051908101604052809291908181526020018280546116e190613c4e565b801561172e5780601f106117035761010080835404028352916020019161172e565b820191906000526020600020905b81548152906001019060200180831161171157829003601f168201915b505050505081526020016004820180548060200260200160405190810160405280929190818152602001828054801561178657602002820191906000526020600020905b815481526020019060010190808311611772575b5050509190925250508151602083015160408401516060850151608090950151929c919b5099509297509550909350505050565b6000818152600260205260408120546001600160a01b03168061072e5760405162461bcd60e51b815260206004820152602960248201527f4552433732313a206f776e657220717565727920666f72206e6f6e657869737460448201527f656e7420746f6b656e0000000000000000000000000000000000000000000000606482015260840161083b565b7f3c2519c4487d47714872f92cf90a50c25f5deaec2789dc2a497b1272df611db661187081336122ed565b601354600090156118be576013805461188b90600190613bf4565b8154811061189b5761189b613cfa565b90600052602060002090600502016001015460016118b99190613ba9565b6118c1565b60005b60138054600181810183556000929092526005027f66de8ffda797e3de9c05e8fc57b3bf0ec28a930d40b0d285d93c06501cf6a090018281559192506119078584613ba9565b6119119190613bf4565b6001820155845161192b90600383019060208801906134f1565b506002810184905560135461194290600190613bf4565b7f9ae7dd5dbfc3938737af70872685a3fb26f364d20134cd30be25108122626a178686604051611973929190613ad5565b60405180910390a25050505050565b60006001600160a01b038216611a005760405162461bcd60e51b815260206004820152602a60248201527f4552433732313a2062616c616e636520717565727920666f7220746865207a6560448201527f726f206164647265737300000000000000000000000000000000000000000000606482015260840161083b565b506001600160a01b031660009081526003602052604090205490565b600080600080600060128681548110611a3757611a37613cfa565b9060005260206000209060040201604051806080016040529081600082015481526020016001820154815260200160028201548152602001600382015481525050905060006013826060015181548110611a9357611a93613cfa565b90600052602060002090600502016040518060a0016040529081600082015481526020016001820154815260200160028201548152602001600382018054611ada90613c4e565b80601f0160208091040260200160405190810160405280929190818152602001828054611b0690613c4e565b8015611b535780601f10611b2857610100808354040283529160200191611b53565b820191906000526020600020905b815481529060010190602001808311611b3657829003601f168201915b5050505050815260200160048201805480602002602001604051908101604052809291908181526020018280548015611bab57602002820191906000526020600020905b815481526020019060010190808311611b97575b50505091909252505081518451929350611bc792909150613bf4565b81516020840151611bd89190613bf4565b83604001518460600151955095509550955050509193509193565b6000828152600b6020526040812061158b9083612706565b60606001805461074390613c4e565b6000805b611c2784611982565b811015611c6e5782600d6000611c3d87856112c2565b8152602001908152602001600020541415611c5c57600191505061072e565b80611c6681613c89565b915050611c1e565b5060009392505050565b6001600160a01b038216331415611cd15760405162461bcd60e51b815260206004820152601960248201527f4552433732313a20617070726f766520746f2063616c6c657200000000000000604482015260640161083b565b3360008181526005602090815260408083206001600160a01b03871680855290835292819020805460ff191686151590811790915590519081529192917f17307eab39ab6107e8899845ad3d59bd9653f200f220920489ca2b5937696c31910160405180910390a35050565b6000818152600d6020526040812054601380549091908110611d6157611d61613cfa565b9060005260206000209060050201600001548261072e9190613bf4565b611d883383612387565b611dfa5760405162461bcd60e51b815260206004820152603160248201527f4552433732313a207472616e736665722063616c6c6572206973206e6f74206f60448201527f776e6572206e6f7220617070726f766564000000000000000000000000000000606482015260840161083b565b611e0684848484612712565b50505050565b6000838060138054905011611e725760405162461bcd60e51b815260206004820152602660248201527f52414952204552433732313a20436f6c6c656374696f6e20646f6573206e6f7460448201526508195e1a5cdd60d21b606482015260840161083b565b600060138681548110611e8757611e87613cfa565b90600052602060002090600502016040518060a0016040529081600082015481526020016001820154815260200160028201548152602001600382018054611ece90613c4e565b80601f0160208091040260200160405190810160405280929190818152602001828054611efa90613c4e565b8015611f475780601f10611f1c57610100808354040283529160200191611f47565b820191906000526020600020905b815481529060010190602001808311611f2a57829003601f168201915b5050505050815260200160048201805480602002602001604051908101604052809291908181526020018280548015611f9f57602002820191906000526020600020905b815481526020019060010190808311611f8b575b50505050508152505090506000858260000151611fbc9190613ba9565b90505b8151611fcc908690613ba9565b8111612015576000818152600260205260409020546001600160a01b0316612003578151611ffa9082613bf4565b93505050612084565b8061200d81613c89565b915050611fbf565b5060405162461bcd60e51b815260206004820152603960248201527f52414952204552433732313a20546865726520617265206e6f20617661696c6160448201527f626c6520746f6b656e7320696e20746869732072616e67652e00000000000000606482015260840161083b565b509392505050565b6000818152600260205260409020546060906001600160a01b03166121195760405162461bcd60e51b815260206004820152602f60248201527f4552433732314d657461646174613a2055524920717565727920666f72206e6f60448201527f6e6578697374656e7420746f6b656e0000000000000000000000000000000000606482015260840161083b565b600061213060408051602081019091526000815290565b90506000815111612150576040518060200160405280600081525061158b565b8061215a84612790565b60405160200161216b9291906139d6565b6040516020818303038152906040529392505050565b6000818152600b6020526040812061072e9061288e565b6113748282612898565b6001600160a01b03811660009081527f4e6e614aa308bd78bac28541285c453cfb7abbecc03cb60a1e70ec8347070f98602052604081205460ff168061158b57506001600160a01b0380841660009081526005602090815260408083209386168352929052205460ff1661158b565b61221b82826128be565b5050565b600061158b836001600160a01b038416612960565b60006001600160e01b031982167f5a05180f00000000000000000000000000000000000000000000000000000000148061072e575061072e826129af565b6000818152600460205260409020805473ffffffffffffffffffffffffffffffffffffffff19166001600160a01b03841690811790915581906122b4826117ba565b6001600160a01b03167f8c5be1e5ebec7d5bd14f71427d1e84f3dd0314c0f7b2291e5b200ac8c7c3b92560405160405180910390a45050565b6000828152600a602090815260408083206001600160a01b038516845290915290205460ff1661221b5761232b816001600160a01b031660146129ed565b6123368360206129ed565b604051602001612347929190613a05565b60408051601f198184030181529082905262461bcd60e51b825261083b91600401613ac2565b61221b828260405180602001604052806000815250612bb2565b6000818152600260205260408120546001600160a01b03166124005760405162461bcd60e51b815260206004820152602c60248201527f4552433732313a206f70657261746f7220717565727920666f72206e6f6e657860448201526b34b9ba32b73a103a37b5b2b760a11b606482015260840161083b565b600061240b836117ba565b9050806001600160a01b0316846001600160a01b031614806124465750836001600160a01b031661243b846107c6565b6001600160a01b0316145b80612456575061245681856121a2565b949350505050565b826001600160a01b0316612471826117ba565b6001600160a01b0316146124ed5760405162461bcd60e51b815260206004820152602960248201527f4552433732313a207472616e73666572206f6620746f6b656e2074686174206960448201527f73206e6f74206f776e0000000000000000000000000000000000000000000000606482015260840161083b565b6001600160a01b0382166125685760405162461bcd60e51b8152602060048201526024808201527f4552433732313a207472616e7366657220746f20746865207a65726f2061646460448201527f7265737300000000000000000000000000000000000000000000000000000000606482015260840161083b565b612573838383612c30565b61257e600082612272565b6001600160a01b03831660009081526003602052604081208054600192906125a7908490613bf4565b90915550506001600160a01b03821660009081526003602052604081208054600192906125d5908490613ba9565b9091555050600081815260026020526040808220805473ffffffffffffffffffffffffffffffffffffffff19166001600160a01b0386811691821790925591518493918716917fddf252ad1be2c89b69c2b068fc378daa952ba7f163c4a11628f55a4df523b3ef91a4505050565b6000828152600a602052604090206001015461265f81336122ed565b61098d83836128be565b6001600160a01b03811633146126e75760405162461bcd60e51b815260206004820152602f60248201527f416363657373436f6e74726f6c3a2063616e206f6e6c792072656e6f756e636560448201527f20726f6c657320666f722073656c660000000000000000000000000000000000606482015260840161083b565b61221b8282612d7d565b600061158b836001600160a01b038416612e00565b600061158b8383612ef3565b61271d84848461245e565b61272984848484612f1d565b611e065760405162461bcd60e51b815260206004820152603260248201527f4552433732313a207472616e7366657220746f206e6f6e20455243373231526560448201527131b2b4bb32b91034b6b83632b6b2b73a32b960711b606482015260840161083b565b6060816127b45750506040805180820190915260018152600360fc1b602082015290565b8160005b81156127de57806127c881613c89565b91506127d79050600a83613bc1565b91506127b8565b60008167ffffffffffffffff8111156127f9576127f9613d10565b6040519080825280601f01601f191660200182016040528015612823576020820181803683370190505b5090505b841561245657612838600183613bf4565b9150612845600a86613ca4565b612850906030613ba9565b60f81b81838151811061286557612865613cfa565b60200101906001600160f81b031916908160001a905350612887600a86613bc1565b9450612827565b600061072e825490565b6000828152600a60205260409020600101546128b481336122ed565b61098d8383612d7d565b6000828152600a602090815260408083206001600160a01b038516845290915290205460ff1661221b576000828152600a602090815260408083206001600160a01b03851684529091529020805460ff1916600117905561291c3390565b6001600160a01b0316816001600160a01b0316837f2f8788117e7eff1d82e926ec794901d17c78024a50270940304540a733656f0d60405160405180910390a45050565b60008181526001830160205260408120546129a75750815460018181018455600084815260208082209093018490558454848252828601909352604090209190915561072e565b50600061072e565b60006001600160e01b031982167f7965db0b00000000000000000000000000000000000000000000000000000000148061072e575061072e82613075565b606060006129fc836002613bd5565b612a07906002613ba9565b67ffffffffffffffff811115612a1f57612a1f613d10565b6040519080825280601f01601f191660200182016040528015612a49576020820181803683370190505b509050600360fc1b81600081518110612a6457612a64613cfa565b60200101906001600160f81b031916908160001a9053507f780000000000000000000000000000000000000000000000000000000000000081600181518110612aaf57612aaf613cfa565b60200101906001600160f81b031916908160001a9053506000612ad3846002613bd5565b612ade906001613ba9565b90505b6001811115612b63577f303132333435363738396162636465660000000000000000000000000000000085600f1660108110612b1f57612b1f613cfa565b1a60f81b828281518110612b3557612b35613cfa565b60200101906001600160f81b031916908160001a90535060049490941c93612b5c81613c37565b9050612ae1565b50831561158b5760405162461bcd60e51b815260206004820181905260248201527f537472696e67733a20686578206c656e67746820696e73756666696369656e74604482015260640161083b565b612bbc83836130b3565b612bc96000848484612f1d565b61098d5760405162461bcd60e51b815260206004820152603260248201527f4552433732313a207472616e7366657220746f206e6f6e20455243373231526560448201527131b2b4bb32b91034b6b83632b6b2b73a32b960711b606482015260840161083b565b6001600160a01b03831615801590612c5057506001600160a01b03821615155b15612d72576000818152600d6020908152604080832054600e90925290912054601280549091908110612c8557612c85613cfa565b9060005260206000209060040201600301541415612d48576000818152600e6020526040902054601280549091908110612cc157612cc1613cfa565b906000526020600020906004020160020154600014612d485760405162461bcd60e51b815260206004820152603a60248201527f52414952204552433732313a205472616e736665727320666f7220746869732060448201527f72616e6765206172652063757272656e746c79206c6f636b6564000000000000606482015260840161083b565b612d727f872340a532bdd7bb02bea115c1b0f1ba87eac982f5b79b51ac189ffaac1b6fce336122ed565b61098d83838361320e565b6000828152600a602090815260408083206001600160a01b038516845290915290205460ff161561221b576000828152600a602090815260408083206001600160a01b0385168085529252808320805460ff1916905551339285917ff6391f5c32d9c69d2a47ea670b442974b53935d1edc7fd64eb21e047a839171b9190a45050565b60008181526001830160205260408120548015612ee9576000612e24600183613bf4565b8554909150600090612e3890600190613bf4565b9050818114612e9d576000866000018281548110612e5857612e58613cfa565b9060005260206000200154905080876000018481548110612e7b57612e7b613cfa565b6000918252602080832090910192909255918252600188019052604090208390555b8554869080612eae57612eae613ce4565b60019003818190600052602060002001600090559055856001016000868152602001908152602001600020600090556001935050505061072e565b600091505061072e565b6000826000018281548110612f0a57612f0a613cfa565b9060005260206000200154905092915050565b60006001600160a01b0384163b1561306a57604051630a85bd0160e11b81526001600160a01b0385169063150b7a0290612f61903390899088908890600401613a86565b602060405180830381600087803b158015612f7b57600080fd5b505af1925050508015612fab575060408051601f3d908101601f19168201909252612fa891810190613836565b60015b613050573d808015612fd9576040519150601f19603f3d011682016040523d82523d6000602084013e612fde565b606091505b5080516130485760405162461bcd60e51b815260206004820152603260248201527f4552433732313a207472616e7366657220746f206e6f6e20455243373231526560448201527131b2b4bb32b91034b6b83632b6b2b73a32b960711b606482015260840161083b565b805181602001fd5b6001600160e01b031916630a85bd0160e11b149050612456565b506001949350505050565b60006001600160e01b031982167f780e9d6300000000000000000000000000000000000000000000000000000000148061072e575061072e826132c6565b6001600160a01b0382166131095760405162461bcd60e51b815260206004820181905260248201527f4552433732313a206d696e7420746f20746865207a65726f2061646472657373604482015260640161083b565b6000818152600260205260409020546001600160a01b03161561316e5760405162461bcd60e51b815260206004820152601c60248201527f4552433732313a20746f6b656e20616c7265616479206d696e74656400000000604482015260640161083b565b61317a60008383612c30565b6001600160a01b03821660009081526003602052604081208054600192906131a3908490613ba9565b9091555050600081815260026020526040808220805473ffffffffffffffffffffffffffffffffffffffff19166001600160a01b03861690811790915590518392907fddf252ad1be2c89b69c2b068fc378daa952ba7f163c4a11628f55a4df523b3ef908290a45050565b6001600160a01b0383166132695761326481600880546000838152600960205260408120829055600182018355919091527ff3f7a9fe364faab93b216da50a3214154f22a0a2b415b23a84c8169e8b636ee30155565b61328c565b816001600160a01b0316836001600160a01b03161461328c5761328c8382613361565b6001600160a01b0382166132a35761098d816133fe565b826001600160a01b0316826001600160a01b03161461098d5761098d82826134ad565b60006001600160e01b031982167f80ac58cd00000000000000000000000000000000000000000000000000000000148061332957506001600160e01b031982167f5b5e139f00000000000000000000000000000000000000000000000000000000145b8061072e57507f01ffc9a7000000000000000000000000000000000000000000000000000000006001600160e01b031983161461072e565b6000600161336e84611982565b6133789190613bf4565b6000838152600760205260409020549091508082146133cb576001600160a01b03841660009081526006602090815260408083208584528252808320548484528184208190558352600790915290208190555b5060009182526007602090815260408084208490556001600160a01b039094168352600681528383209183525290812055565b60085460009061341090600190613bf4565b6000838152600960205260408120546008805493945090928490811061343857613438613cfa565b90600052602060002001549050806008838154811061345957613459613cfa565b600091825260208083209091019290925582815260099091526040808220849055858252812055600880548061349157613491613ce4565b6001900381819060005260206000200160009055905550505050565b60006134b883611982565b6001600160a01b039093166000908152600660209081526040808320868452825280832085905593825260079052919091209190915550565b8280546134fd90613c4e565b90600052602060002090601f01602090048101928261351f5760008555613565565b82601f1061353857805160ff1916838001178555613565565b82800160010185558215613565579182015b8281111561356557825182559160200191906001019061354a565b50613571929150613575565b5090565b5b808211156135715760008155600101613576565b600067ffffffffffffffff808411156135a5576135a5613d10565b604051601f8501601f19908116603f011681019082821181831017156135cd576135cd613d10565b816040528093508581528686860111156135e657600080fd5b858560208301376000602087830101525050509392505050565b80356001600160a01b038116811461361757600080fd5b919050565b60006020828403121561362e57600080fd5b61158b82613600565b6000806040838503121561364a57600080fd5b61365383613600565b915061366160208401613600565b90509250929050565b60008060006060848603121561367f57600080fd5b61368884613600565b925061369660208501613600565b9150604084013590509250925092565b600080600080608085870312156136bc57600080fd5b6136c585613600565b93506136d360208601613600565b925060408501359150606085013567ffffffffffffffff8111156136f657600080fd5b8501601f8101871361370757600080fd5b6137168782356020840161358a565b91505092959194509250565b6000806040838503121561373557600080fd5b61373e83613600565b91506020830135801515811461375357600080fd5b809150509250929050565b6000806040838503121561377157600080fd5b61377a83613600565b946020939093013593505050565b60008060006060848603121561379d57600080fd5b6137a684613600565b95602085013595506040909401359392505050565b6000602082840312156137cd57600080fd5b5035919050565b600080604083850312156137e757600080fd5b8235915061366160208401613600565b6000806040838503121561380a57600080fd5b50508035926020909101359150565b60006020828403121561382b57600080fd5b813561158b81613d26565b60006020828403121561384857600080fd5b815161158b81613d26565b6000806040838503121561386657600080fd5b823567ffffffffffffffff81111561387d57600080fd5b8301601f8101851361388e57600080fd5b61389d8582356020840161358a565b95602094909401359450505050565b6000806000606084860312156138c157600080fd5b505081359360208301359350604090920135919050565b600080600080608085870312156138ee57600080fd5b5050823594602084013594506040840135936060013592509050565b60008151808452613922816020860160208601613c0b565b601f01601f19169290920160200192915050565b8054600090600181811c908083168061395057607f831692505b602080841082141561397257634e487b7160e01b600052602260045260246000fd5b8388526020880182801561398d576001811461399e576139c9565b60ff198716825282820197506139c9565b60008981526020902060005b878110156139c3578154848201529086019084016139aa565b83019850505b5050505050505092915050565b600083516139e8818460208801613c0b565b8351908301906139fc818360208801613c0b565b01949350505050565b7f416363657373436f6e74726f6c3a206163636f756e7420000000000000000000815260008351613a3d816017850160208801613c0b565b7f206973206d697373696e6720726f6c65200000000000000000000000000000006017918401918201528351613a7a816028840160208801613c0b565b01602801949350505050565b60006001600160a01b03808716835280861660208401525083604083015260806060830152613ab8608083018461390a565b9695505050505050565b60208152600061158b602083018461390a565b604081526000613ae8604083018561390a565b90508260208301529392505050565b60208152600061158b6020830184613936565b85815260006020868184015285604084015260a06060840152613b3060a084018661390a565b838103608085015284518082528286019183019060005b81811015613b6357835183529284019291840191600101613b47565b50909a9950505050505050505050565b85815284602082015283604082015282606082015260a060808201526000613b9e60a0830184613936565b979650505050505050565b60008219821115613bbc57613bbc613cb8565b500190565b600082613bd057613bd0613cce565b500490565b6000816000190483118215151615613bef57613bef613cb8565b500290565b600082821015613c0657613c06613cb8565b500390565b60005b83811015613c26578181015183820152602001613c0e565b83811115611e065750506000910152565b600081613c4657613c46613cb8565b506000190190565b600181811c90821680613c6257607f821691505b60208210811415613c8357634e487b7160e01b600052602260045260246000fd5b50919050565b6000600019821415613c9d57613c9d613cb8565b5060010190565b600082613cb357613cb3613cce565b500690565b634e487b7160e01b600052601160045260246000fd5b634e487b7160e01b600052601260045260246000fd5b634e487b7160e01b600052603160045260246000fd5b634e487b7160e01b600052603260045260246000fd5b634e487b7160e01b600052604160045260246000fd5b6001600160e01b031981168114613d3c57600080fd5b5056fea264697066735822122088d15552cd2fbd3aa351477f4e525be060623073fdd91fffc3964bbdcddff40564736f6c634300080700333c2519c4487d47714872f92cf90a50c25f5deaec2789dc2a497b1272df611db6f0887ba65ee2024ea881d91b74c2450ef19e1557f03bed3ea9f16b037cbe2dc9872340a532bdd7bb02bea115c1b0f1ba87eac982f5b79b51ac189ffaac1b6fce",
  "linkReferences": {},
  "deployedLinkReferences": {}
}