{
  "_format": "hh-sol-artifact-1",
  "contractName": "RAIR_ERC721",
  "sourceName": "contracts/Tokens/RAIR-ERC721.sol",
  "abi": [
    {
      "inputs": [
        {
          "internalType": "string",
          "name": "_contractName",
          "type": "string"
        },
        {
          "internalType": "address",
          "name": "_creatorAddress",
          "type": "address"
        },
        {
          "internalType": "uint16",
          "name": "_creatorRoyalty",
          "type": "uint16"
        }
      ],
      "stateMutability": "nonpayable",
      "type": "constructor"
    },
    {
      "anonymous": false,
      "inputs": [
        {
          "indexed": true,
          "internalType": "address",
          "name": "owner",
          "type": "address"
        },
        {
          "indexed": true,
          "internalType": "address",
          "name": "approved",
          "type": "address"
        },
        {
          "indexed": true,
          "internalType": "uint256",
          "name": "tokenId",
          "type": "uint256"
        }
      ],
      "name": "Approval",
      "type": "event"
    },
    {
      "anonymous": false,
      "inputs": [
        {
          "indexed": true,
          "internalType": "address",
          "name": "owner",
          "type": "address"
        },
        {
          "indexed": true,
          "internalType": "address",
          "name": "operator",
          "type": "address"
        },
        {
          "indexed": false,
          "internalType": "bool",
          "name": "approved",
          "type": "bool"
        }
      ],
      "name": "ApprovalForAll",
      "type": "event"
    },
    {
      "anonymous": false,
      "inputs": [
        {
          "indexed": true,
          "internalType": "uint256",
          "name": "id",
          "type": "uint256"
        },
        {
          "indexed": false,
          "internalType": "string",
          "name": "name",
          "type": "string"
        }
      ],
      "name": "CollectionCompleted",
      "type": "event"
    },
    {
      "anonymous": false,
      "inputs": [
        {
          "indexed": true,
          "internalType": "uint256",
          "name": "id",
          "type": "uint256"
        },
        {
          "indexed": false,
          "internalType": "string",
          "name": "name",
          "type": "string"
        },
        {
          "indexed": false,
          "internalType": "uint256",
          "name": "length",
          "type": "uint256"
        }
      ],
      "name": "CollectionCreated",
      "type": "event"
    },
    {
      "anonymous": false,
      "inputs": [
        {
          "indexed": false,
          "internalType": "uint256",
          "name": "collectionIndex",
          "type": "uint256"
        },
        {
          "indexed": false,
          "internalType": "uint256",
          "name": "startingToken",
          "type": "uint256"
        },
        {
          "indexed": false,
          "internalType": "uint256",
          "name": "endingToken",
          "type": "uint256"
        },
        {
          "indexed": false,
          "internalType": "uint256",
          "name": "tokensLocked",
          "type": "uint256"
        },
        {
          "indexed": false,
          "internalType": "string",
          "name": "collectionName",
          "type": "string"
        }
      ],
      "name": "RangeLocked",
      "type": "event"
    },
    {
      "anonymous": false,
      "inputs": [
        {
          "indexed": false,
          "internalType": "uint256",
          "name": "collectionID",
          "type": "uint256"
        },
        {
          "indexed": false,
          "internalType": "uint256",
          "name": "startingToken",
          "type": "uint256"
        },
        {
          "indexed": false,
          "internalType": "uint256",
          "name": "endingToken",
          "type": "uint256"
        }
      ],
      "name": "RangeUnlocked",
      "type": "event"
    },
    {
      "anonymous": false,
      "inputs": [
        {
          "indexed": true,
          "internalType": "bytes32",
          "name": "role",
          "type": "bytes32"
        },
        {
          "indexed": true,
          "internalType": "bytes32",
          "name": "previousAdminRole",
          "type": "bytes32"
        },
        {
          "indexed": true,
          "internalType": "bytes32",
          "name": "newAdminRole",
          "type": "bytes32"
        }
      ],
      "name": "RoleAdminChanged",
      "type": "event"
    },
    {
      "anonymous": false,
      "inputs": [
        {
          "indexed": true,
          "internalType": "bytes32",
          "name": "role",
          "type": "bytes32"
        },
        {
          "indexed": true,
          "internalType": "address",
          "name": "account",
          "type": "address"
        },
        {
          "indexed": true,
          "internalType": "address",
          "name": "sender",
          "type": "address"
        }
      ],
      "name": "RoleGranted",
      "type": "event"
    },
    {
      "anonymous": false,
      "inputs": [
        {
          "indexed": true,
          "internalType": "bytes32",
          "name": "role",
          "type": "bytes32"
        },
        {
          "indexed": true,
          "internalType": "address",
          "name": "account",
          "type": "address"
        },
        {
          "indexed": true,
          "internalType": "address",
          "name": "sender",
          "type": "address"
        }
      ],
      "name": "RoleRevoked",
      "type": "event"
    },
    {
      "anonymous": false,
      "inputs": [
        {
          "indexed": true,
          "internalType": "address",
          "name": "from",
          "type": "address"
        },
        {
          "indexed": true,
          "internalType": "address",
          "name": "to",
          "type": "address"
        },
        {
          "indexed": true,
          "internalType": "uint256",
          "name": "tokenId",
          "type": "uint256"
        }
      ],
      "name": "Transfer",
      "type": "event"
    },
    {
      "anonymous": false,
      "inputs": [
        {
          "indexed": false,
          "internalType": "uint256",
          "name": "collectionID",
          "type": "uint256"
        },
        {
          "indexed": false,
          "internalType": "uint256",
          "name": "startingToken",
          "type": "uint256"
        },
        {
          "indexed": false,
          "internalType": "uint256",
          "name": "endingToken",
          "type": "uint256"
        }
      ],
      "name": "URIChanged",
      "type": "event"
    },
    {
      "inputs": [],
      "name": "CREATOR",
      "outputs": [
        {
          "internalType": "bytes32",
          "name": "",
          "type": "bytes32"
        }
      ],
      "stateMutability": "view",
      "type": "function"
    },
    {
      "inputs": [],
      "name": "DEFAULT_ADMIN_ROLE",
      "outputs": [
        {
          "internalType": "bytes32",
          "name": "",
          "type": "bytes32"
        }
      ],
      "stateMutability": "view",
      "type": "function"
    },
    {
      "inputs": [],
      "name": "MINTER",
      "outputs": [
        {
          "internalType": "bytes32",
          "name": "",
          "type": "bytes32"
        }
      ],
      "stateMutability": "view",
      "type": "function"
    },
    {
      "inputs": [],
      "name": "TRADER",
      "outputs": [
        {
          "internalType": "bytes32",
          "name": "",
          "type": "bytes32"
        }
      ],
      "stateMutability": "view",
      "type": "function"
    },
    {
      "inputs": [
        {
          "internalType": "address",
          "name": "to",
          "type": "address"
        },
        {
          "internalType": "uint256",
          "name": "tokenId",
          "type": "uint256"
        }
      ],
      "name": "approve",
      "outputs": [],
      "stateMutability": "nonpayable",
      "type": "function"
    },
    {
      "inputs": [
        {
          "internalType": "address",
          "name": "owner",
          "type": "address"
        }
      ],
      "name": "balanceOf",
      "outputs": [
        {
          "internalType": "uint256",
          "name": "",
          "type": "uint256"
        }
      ],
      "stateMutability": "view",
      "type": "function"
    },
    {
      "inputs": [
        {
          "internalType": "uint256",
          "name": "productIndex",
          "type": "uint256"
        },
        {
          "internalType": "uint256",
          "name": "startingToken",
          "type": "uint256"
        },
        {
          "internalType": "uint256",
          "name": "endingToken",
          "type": "uint256"
        }
      ],
      "name": "canCreateLock",
      "outputs": [
        {
          "internalType": "bool",
          "name": "canCreate",
          "type": "bool"
        }
      ],
      "stateMutability": "view",
      "type": "function"
    },
    {
      "inputs": [
        {
          "internalType": "string",
          "name": "_productName",
          "type": "string"
        },
        {
          "internalType": "uint256",
          "name": "_copies",
          "type": "uint256"
        }
      ],
      "name": "createCollection",
      "outputs": [],
      "stateMutability": "nonpayable",
      "type": "function"
    },
    {
      "inputs": [
        {
          "internalType": "uint256",
          "name": "productIndex",
          "type": "uint256"
        },
        {
          "internalType": "uint256",
          "name": "_startingToken",
          "type": "uint256"
        },
        {
          "internalType": "uint256",
          "name": "_endingToken",
          "type": "uint256"
        },
        {
          "internalType": "uint256",
          "name": "_lockedTokens",
          "type": "uint256"
        }
      ],
      "name": "createRangeLock",
      "outputs": [],
      "stateMutability": "nonpayable",
      "type": "function"
    },
    {
      "inputs": [
        {
          "internalType": "uint256",
          "name": "tokenId",
          "type": "uint256"
        }
      ],
      "name": "getApproved",
      "outputs": [
        {
          "internalType": "address",
          "name": "",
          "type": "address"
        }
      ],
      "stateMutability": "view",
      "type": "function"
    },
    {
      "inputs": [
        {
          "internalType": "uint256",
          "name": "index",
          "type": "uint256"
        }
      ],
      "name": "getCollection",
      "outputs": [
        {
          "internalType": "uint256",
          "name": "startingToken",
          "type": "uint256"
        },
        {
          "internalType": "uint256",
          "name": "endingToken",
          "type": "uint256"
        },
        {
          "internalType": "uint256",
          "name": "mintableTokensLeft",
          "type": "uint256"
        },
        {
          "internalType": "string",
          "name": "productName",
          "type": "string"
        },
        {
          "internalType": "uint256[]",
          "name": "locks",
          "type": "uint256[]"
        }
      ],
      "stateMutability": "view",
      "type": "function"
    },
    {
      "inputs": [],
      "name": "getCollectionCount",
      "outputs": [
        {
          "internalType": "uint256",
          "name": "",
          "type": "uint256"
        }
      ],
      "stateMutability": "view",
      "type": "function"
    },
    {
      "inputs": [
        {
          "internalType": "uint256",
          "name": "index",
          "type": "uint256"
        }
      ],
      "name": "getLockedRange",
      "outputs": [
        {
          "internalType": "uint256",
          "name": "startingToken",
          "type": "uint256"
        },
        {
          "internalType": "uint256",
          "name": "endingToken",
          "type": "uint256"
        },
        {
          "internalType": "uint256",
          "name": "countToUnlock",
          "type": "uint256"
        },
        {
          "internalType": "uint256",
          "name": "productIndex",
          "type": "uint256"
        }
      ],
      "stateMutability": "view",
      "type": "function"
    },
    {
      "inputs": [
        {
          "internalType": "uint256",
          "name": "productID",
          "type": "uint256"
        },
        {
          "internalType": "uint256",
          "name": "startingIndex",
          "type": "uint256"
        },
        {
          "internalType": "uint256",
          "name": "endingIndex",
          "type": "uint256"
        }
      ],
      "name": "getNextSequentialIndex",
      "outputs": [
        {
          "internalType": "uint256",
          "name": "nextIndex",
          "type": "uint256"
        }
      ],
      "stateMutability": "view",
      "type": "function"
    },
    {
      "inputs": [
        {
          "internalType": "bytes32",
          "name": "role",
          "type": "bytes32"
        }
      ],
      "name": "getRoleAdmin",
      "outputs": [
        {
          "internalType": "bytes32",
          "name": "",
          "type": "bytes32"
        }
      ],
      "stateMutability": "view",
      "type": "function"
    },
    {
      "inputs": [
        {
          "internalType": "bytes32",
          "name": "role",
          "type": "bytes32"
        },
        {
          "internalType": "uint256",
          "name": "index",
          "type": "uint256"
        }
      ],
      "name": "getRoleMember",
      "outputs": [
        {
          "internalType": "address",
          "name": "",
          "type": "address"
        }
      ],
      "stateMutability": "view",
      "type": "function"
    },
    {
      "inputs": [
        {
          "internalType": "bytes32",
          "name": "role",
          "type": "bytes32"
        }
      ],
      "name": "getRoleMemberCount",
      "outputs": [
        {
          "internalType": "uint256",
          "name": "",
          "type": "uint256"
        }
      ],
      "stateMutability": "view",
      "type": "function"
    },
    {
      "inputs": [
        {
          "internalType": "bytes32",
          "name": "role",
          "type": "bytes32"
        },
        {
          "internalType": "address",
          "name": "account",
          "type": "address"
        }
      ],
      "name": "grantRole",
      "outputs": [],
      "stateMutability": "nonpayable",
      "type": "function"
    },
    {
      "inputs": [
        {
          "internalType": "bytes32",
          "name": "role",
          "type": "bytes32"
        },
        {
          "internalType": "address",
          "name": "account",
          "type": "address"
        }
      ],
      "name": "hasRole",
      "outputs": [
        {
          "internalType": "bool",
          "name": "",
          "type": "bool"
        }
      ],
      "stateMutability": "view",
      "type": "function"
    },
    {
      "inputs": [
        {
          "internalType": "address",
          "name": "owner",
          "type": "address"
        },
        {
          "internalType": "uint256",
          "name": "productIndex",
          "type": "uint256"
        }
      ],
      "name": "hasTokenInCollection",
      "outputs": [
        {
          "internalType": "bool",
          "name": "",
          "type": "bool"
        }
      ],
      "stateMutability": "view",
      "type": "function"
    },
    {
      "inputs": [
        {
          "internalType": "address",
          "name": "owner",
          "type": "address"
        },
        {
          "internalType": "address",
          "name": "operator",
          "type": "address"
        }
      ],
      "name": "isApprovedForAll",
      "outputs": [
        {
          "internalType": "bool",
          "name": "",
          "type": "bool"
        }
      ],
      "stateMutability": "view",
      "type": "function"
    },
    {
      "inputs": [
        {
          "internalType": "uint256",
          "name": "_tokenId",
          "type": "uint256"
        }
      ],
      "name": "isTokenLocked",
      "outputs": [
        {
          "internalType": "bool",
          "name": "",
          "type": "bool"
        }
      ],
      "stateMutability": "view",
      "type": "function"
    },
    {
      "inputs": [
        {
          "internalType": "address",
          "name": "to",
          "type": "address"
        },
        {
          "internalType": "uint256",
          "name": "productId",
          "type": "uint256"
        },
        {
          "internalType": "uint256",
          "name": "indexInCollection",
          "type": "uint256"
        }
      ],
      "name": "mint",
      "outputs": [],
      "stateMutability": "nonpayable",
      "type": "function"
    },
    {
      "inputs": [],
      "name": "name",
      "outputs": [
        {
          "internalType": "string",
          "name": "",
          "type": "string"
        }
      ],
      "stateMutability": "view",
      "type": "function"
    },
    {
      "inputs": [
        {
          "internalType": "uint256",
          "name": "tokenId",
          "type": "uint256"
        }
      ],
      "name": "ownerOf",
      "outputs": [
        {
          "internalType": "address",
          "name": "",
          "type": "address"
        }
      ],
      "stateMutability": "view",
      "type": "function"
    },
    {
      "inputs": [
        {
          "internalType": "bytes32",
          "name": "role",
          "type": "bytes32"
        },
        {
          "internalType": "address",
          "name": "account",
          "type": "address"
        }
      ],
      "name": "renounceRole",
      "outputs": [],
      "stateMutability": "nonpayable",
      "type": "function"
    },
    {
      "inputs": [
        {
          "internalType": "bytes32",
          "name": "role",
          "type": "bytes32"
        },
        {
          "internalType": "address",
          "name": "account",
          "type": "address"
        }
      ],
      "name": "revokeRole",
      "outputs": [],
      "stateMutability": "nonpayable",
      "type": "function"
    },
    {
      "inputs": [
        {
          "internalType": "uint256",
          "name": "_tokenId",
          "type": "uint256"
        },
        {
          "internalType": "uint256",
          "name": "_salePrice",
          "type": "uint256"
        }
      ],
      "name": "royaltyInfo",
      "outputs": [
        {
          "internalType": "address",
          "name": "receiver",
          "type": "address"
        },
        {
          "internalType": "uint256",
          "name": "royaltyAmount",
          "type": "uint256"
        }
      ],
      "stateMutability": "view",
      "type": "function"
    },
    {
      "inputs": [
        {
          "internalType": "address",
          "name": "from",
          "type": "address"
        },
        {
          "internalType": "address",
          "name": "to",
          "type": "address"
        },
        {
          "internalType": "uint256",
          "name": "tokenId",
          "type": "uint256"
        }
      ],
      "name": "safeTransferFrom",
      "outputs": [],
      "stateMutability": "nonpayable",
      "type": "function"
    },
    {
      "inputs": [
        {
          "internalType": "address",
          "name": "from",
          "type": "address"
        },
        {
          "internalType": "address",
          "name": "to",
          "type": "address"
        },
        {
          "internalType": "uint256",
          "name": "tokenId",
          "type": "uint256"
        },
        {
          "internalType": "bytes",
          "name": "_data",
          "type": "bytes"
        }
      ],
      "name": "safeTransferFrom",
      "outputs": [],
      "stateMutability": "nonpayable",
      "type": "function"
    },
    {
      "inputs": [
        {
          "internalType": "address",
          "name": "operator",
          "type": "address"
        },
        {
          "internalType": "bool",
          "name": "approved",
          "type": "bool"
        }
      ],
      "name": "setApprovalForAll",
      "outputs": [],
      "stateMutability": "nonpayable",
      "type": "function"
    },
    {
      "inputs": [
        {
          "internalType": "string",
          "name": "newURI",
          "type": "string"
        }
      ],
      "name": "setBaseURI",
      "outputs": [],
      "stateMutability": "nonpayable",
      "type": "function"
    },
    {
      "inputs": [
        {
          "internalType": "bytes4",
          "name": "interfaceId",
          "type": "bytes4"
        }
      ],
      "name": "supportsInterface",
      "outputs": [
        {
          "internalType": "bool",
          "name": "",
          "type": "bool"
        }
      ],
      "stateMutability": "view",
      "type": "function"
    },
    {
      "inputs": [],
      "name": "symbol",
      "outputs": [
        {
          "internalType": "string",
          "name": "",
          "type": "string"
        }
      ],
      "stateMutability": "view",
      "type": "function"
    },
    {
      "inputs": [
        {
          "internalType": "uint256",
          "name": "index",
          "type": "uint256"
        }
      ],
      "name": "tokenByIndex",
      "outputs": [
        {
          "internalType": "uint256",
          "name": "",
          "type": "uint256"
        }
      ],
      "stateMutability": "view",
      "type": "function"
    },
    {
      "inputs": [
        {
          "internalType": "uint256",
          "name": "productIndex",
          "type": "uint256"
        }
      ],
      "name": "tokenCountByProduct",
      "outputs": [
        {
          "internalType": "uint256",
          "name": "",
          "type": "uint256"
        }
      ],
      "stateMutability": "view",
      "type": "function"
    },
    {
      "inputs": [
        {
          "internalType": "address",
          "name": "owner",
          "type": "address"
        },
        {
          "internalType": "uint256",
          "name": "index",
          "type": "uint256"
        }
      ],
      "name": "tokenOfOwnerByIndex",
      "outputs": [
        {
          "internalType": "uint256",
          "name": "",
          "type": "uint256"
        }
      ],
      "stateMutability": "view",
      "type": "function"
    },
    {
      "inputs": [
        {
          "internalType": "uint256",
          "name": "",
          "type": "uint256"
        }
      ],
      "name": "tokenToCollection",
      "outputs": [
        {
          "internalType": "uint256",
          "name": "",
          "type": "uint256"
        }
      ],
      "stateMutability": "view",
      "type": "function"
    },
    {
      "inputs": [
        {
          "internalType": "uint256",
          "name": "token",
          "type": "uint256"
        }
      ],
      "name": "tokenToCollectionIndex",
      "outputs": [
        {
          "internalType": "uint256",
          "name": "tokenIndex",
          "type": "uint256"
        }
      ],
      "stateMutability": "view",
      "type": "function"
    },
    {
      "inputs": [
        {
          "internalType": "uint256",
          "name": "tokenId",
          "type": "uint256"
        }
      ],
      "name": "tokenURI",
      "outputs": [
        {
          "internalType": "string",
          "name": "",
          "type": "string"
        }
      ],
      "stateMutability": "view",
      "type": "function"
    },
    {
      "inputs": [
        {
          "internalType": "uint256",
          "name": "",
          "type": "uint256"
        },
        {
          "internalType": "uint256",
          "name": "",
          "type": "uint256"
        }
      ],
      "name": "tokensByProduct",
      "outputs": [
        {
          "internalType": "uint256",
          "name": "",
          "type": "uint256"
        }
      ],
      "stateMutability": "view",
      "type": "function"
    },
    {
      "inputs": [],
      "name": "totalSupply",
      "outputs": [
        {
          "internalType": "uint256",
          "name": "",
          "type": "uint256"
        }
      ],
      "stateMutability": "view",
      "type": "function"
    },
    {
      "inputs": [
        {
          "internalType": "address",
          "name": "from",
          "type": "address"
        },
        {
          "internalType": "address",
          "name": "to",
          "type": "address"
        },
        {
          "internalType": "uint256",
          "name": "tokenId",
          "type": "uint256"
        }
      ],
      "name": "transferFrom",
      "outputs": [],
      "stateMutability": "nonpayable",
      "type": "function"
    }
  ],
  "bytecode": "0x60806040523480156200001157600080fd5b506040516200442e3803806200442e8339810160408190526200003491620003e1565b82604051806040016040528060048152602001632920a4a960e11b81525081600090805190602001906200006a9291906200030b565b508051620000809060019060208401906200030b565b5050601280546001600160b01b0319163361ffff60a01b191617600160a01b61ffff85160217905550620000d3600080516020620043ee833981519152600080516020620043ce83398151915262000157565b620000fd6000805160206200440e833981519152600080516020620043ce83398151915262000157565b62000118600080516020620043ce83398151915283620001a2565b62000133600080516020620043ee83398151915283620001a2565b6200014e6000805160206200440e83398151915283620001a2565b50505062000537565b6000828152600a6020526040808220600101805490849055905190918391839186917fbd79b86ffe0ab8e8776151514217cd7cacd52c909f66475c3af44e129f0b00ff9190a4505050565b620001b98282620001e560201b6200222e1760201c565b6000828152600b60209081526040909120620001e09183906200223c620001f5821b17901c565b505050565b620001f1828262000215565b5050565b60006200020c836001600160a01b038416620002b9565b90505b92915050565b6000828152600a602090815260408083206001600160a01b038516845290915290205460ff16620001f1576000828152600a602090815260408083206001600160a01b03851684529091529020805460ff19166001179055620002753390565b6001600160a01b0316816001600160a01b0316837f2f8788117e7eff1d82e926ec794901d17c78024a50270940304540a733656f0d60405160405180910390a45050565b600081815260018301602052604081205462000302575081546001818101845560008481526020808220909301849055845484825282860190935260409020919091556200020f565b5060006200020f565b8280546200031990620004e4565b90600052602060002090601f0160209004810192826200033d576000855562000388565b82601f106200035857805160ff191683800117855562000388565b8280016001018555821562000388579182015b82811115620003885782518255916020019190600101906200036b565b50620003969291506200039a565b5090565b5b808211156200039657600081556001016200039b565b80516001600160a01b0381168114620003c957600080fd5b919050565b805161ffff81168114620003c957600080fd5b600080600060608486031215620003f757600080fd5b83516001600160401b03808211156200040f57600080fd5b818601915086601f8301126200042457600080fd5b81518181111562000439576200043962000521565b604051601f8201601f19908116603f0116810190838211818310171562000464576200046462000521565b816040528281526020935089848487010111156200048157600080fd5b600091505b82821015620004a5578482018401518183018501529083019062000486565b82821115620004b75760008484830101525b9650620004c9915050868201620003b1565b93505050620004db60408501620003ce565b90509250925092565b600181811c90821680620004f957607f821691505b602082108114156200051b57634e487b7160e01b600052602260045260246000fd5b50919050565b634e487b7160e01b600052604160045260246000fd5b613e8780620005476000396000f3fe608060405234801561001057600080fd5b50600436106102e95760003560e01c80634f6ccce711610191578063a217fddf116100e3578063c87b56dd11610097578063e4fbb60911610071578063e4fbb609146106ad578063e985e9c5146106d4578063fe6d8124146106e757600080fd5b8063c87b56dd14610674578063ca15c87314610687578063d547741f1461069a57600080fd5b8063ab9aae35116100c8578063ab9aae351461063b578063b88d4fde1461064e578063bda5ec331461066157600080fd5b8063a217fddf14610620578063a22cb4651461062857600080fd5b806370a082311161014557806391d148541161011f57806391d14854146105cc57806395d89b411461060557806397099fb21461060d57600080fd5b806370a0823114610573578063876654a0146105865780639010d07c146105b957600080fd5b80635a1f3c28116101765780635a1f3c28146105295780636352211e1461054d57806364d541511461056057600080fd5b80634f6ccce71461050357806355f804b31461051657600080fd5b80631c10106f1161024a5780632a55205a116101fe57806336568abe116101d857806336568abe146104ca5780633d42f206146104dd57806342842e0e146104f057600080fd5b80632a55205a146104725780632f2ff15d146104a45780632f745c59146104b757600080fd5b806324704bd71161022f57806324704bd714610429578063248a9ca31461043c578063276a28a31461045f57600080fd5b80631c10106f1461040e57806323b872dd1461041657600080fd5b8063156e29f6116102a1578063175c4ef811610286578063175c4ef8146103bf57806318160ddd146103e6578063195f78ae146103ee57600080fd5b8063156e29f61461039957806315a18241146103ac57600080fd5b806306fdde03116102d257806306fdde0314610344578063081812fc14610359578063095ea7b31461038457600080fd5b806301ffc9a7146102ee5780630301e1e214610316575b600080fd5b6103016102fc3660046138b9565b61070e565b60405190151581526020015b60405180910390f35b61033661032436600461385b565b6000908152600c602052604090205490565b60405190815260200161030d565b61034c610752565b60405161030d9190613bd4565b61036c61036736600461385b565b6107e4565b6040516001600160a01b03909116815260200161030d565b6103976103923660046137fe565b61087e565b005b6103976103a7366004613828565b6109b0565b6103976103ba3660046139ea565b610d6c565b6103367f872340a532bdd7bb02bea115c1b0f1ba87eac982f5b79b51ac189ffaac1b6fce81565b600854610336565b6103366103fc36600461385b565b600d6020526000908152604090205481565b601154610336565b61039761042436600461370a565b61110f565b610336610437366004613897565b611196565b61033661044a36600461385b565b6000908152600a602052604090206001015490565b61030161046d36600461385b565b6111c7565b610485610480366004613897565b61124d565b604080516001600160a01b03909316835260208301919091520161030d565b6103976104b2366004613874565b6112be565b6103366104c53660046137fe565b6112e0565b6103976104d8366004613874565b611388565b6103016104eb3660046139be565b6113aa565b6103976104fe36600461370a565b6115b0565b61033661051136600461385b565b6115cb565b6103976105243660046138f3565b61166f565b61053c61053736600461385b565b61167b565b60405161030d959493929190613c1c565b61036c61055b36600461385b565b6117e4565b61039761056e366004613965565b61186f565b6103366105813660046136bc565b6119ac565b61059961059436600461385b565b611a46565b60408051948552602085019390935291830152606082015260800161030d565b61036c6105c7366004613897565b611c1d565b6103016105da366004613874565b6000918252600a602090815260408084206001600160a01b0393909316845291905290205460ff1690565b61034c611c35565b61030161061b3660046137fe565b611c44565b610336600081565b6103976106363660046137c2565b611ca2565b61033661064936600461385b565b611d67565b61039761065c366004613746565b611da8565b61033661066f3660046139be565b611e36565b61034c61068236600461385b565b6120b6565b61033661069536600461385b565b61219e565b6103976106a8366004613874565b6121b5565b6103367f3c2519c4487d47714872f92cf90a50c25f5deaec2789dc2a497b1272df611db681565b6103016106e23660046136d7565b6121bf565b6103367ff0887ba65ee2024ea881d91b74c2450ef19e1557f03bed3ea9f16b037cbe2dc981565b60006001600160e01b031982167f2baae9fd00000000000000000000000000000000000000000000000000000000148061074c575061074c82612251565b92915050565b60606000805461076190613d60565b80601f016020809104026020016040519081016040528092919081815260200182805461078d90613d60565b80156107da5780601f106107af576101008083540402835291602001916107da565b820191906000526020600020905b8154815290600101906020018083116107bd57829003601f168201915b5050505050905090565b6000818152600260205260408120546001600160a01b03166108625760405162461bcd60e51b815260206004820152602c60248201527f4552433732313a20617070726f76656420717565727920666f72206e6f6e657860448201526b34b9ba32b73a103a37b5b2b760a11b60648201526084015b60405180910390fd5b506000908152600460205260409020546001600160a01b031690565b6000610889826117e4565b9050806001600160a01b0316836001600160a01b031614156109135760405162461bcd60e51b815260206004820152602160248201527f4552433732313a20617070726f76616c20746f2063757272656e74206f776e6560448201527f72000000000000000000000000000000000000000000000000000000000000006064820152608401610859565b336001600160a01b038216148061092f575061092f81336121bf565b6109a15760405162461bcd60e51b815260206004820152603860248201527f4552433732313a20617070726f76652063616c6c6572206973206e6f74206f7760448201527f6e6572206e6f7220617070726f76656420666f7220616c6c00000000000000006064820152608401610859565b6109ab838361228f565b505050565b7ff0887ba65ee2024ea881d91b74c2450ef19e1557f03bed3ea9f16b037cbe2dc96109db813361230a565b60115483908110610a3d5760405162461bcd60e51b815260206004820152602660248201527f52414952204552433732313a20436f6c6c656374696f6e20646f6573206e6f7460448201526508195e1a5cdd60d21b6064820152608401610859565b600060118581548110610a5257610a52613e0c565b9060005260206000209060050201905080600001548160010154610a769190613d06565b841115610ac55760405162461bcd60e51b815260206004820181905260248201527f52414952204552433732313a20496e76616c696420746f6b656e20696e6465786044820152606401610859565b610ade86858360000154610ad99190613cbb565b61238a565b6000858152600c602052604090208154610af9908690613cbb565b8154600181018355600092835260208320015581548691600d91610b1e908890613cbb565b815260200190815260200160002081905550806002016000815480929190610b4590613d49565b9091555060009050805b6004830154811015610d1d578254610b68908790613cbb565b6010846004018381548110610b7f57610b7f613e0c565b906000526020600020015481548110610b9a57610b9a613e0c565b90600052602060002090600402016000015411158015610c0957508254610bc2908790613cbb565b6010846004018381548110610bd957610bd9613e0c565b906000526020600020015481548110610bf457610bf4613e0c565b90600052602060002090600402016001015410155b15610d0b576010836004018281548110610c2557610c25613e0c565b906000526020600020015481548110610c4057610c40613e0c565b90600052602060002090600402019150826004018181548110610c6557610c65613e0c565b9060005260206000200154600e6000888660000154610c849190613cbb565b8152602081019190915260400160002055600282015415610d0657600282018054906000610cb183613d49565b90915550506002820154610d065781546001830154604080518a815260208101939093528201527fd3edbeb94dfb8eadcd8c291774b9ac3cc9b06af829273e295bf3197849934b889060600160405180910390a15b610d1d565b80610d1581613d9b565b915050610b4f565b506002820154610d6357857f3ab828a3fee3d542c87fb145e900664325100c3c0b2e2a2cca38685b6de1b27183600301604051610d5a9190613c09565b60405180910390a25b50505050505050565b7f3c2519c4487d47714872f92cf90a50c25f5deaec2789dc2a497b1272df611db6610d97813361230a565b60115485908110610df95760405162461bcd60e51b815260206004820152602660248201527f52414952204552433732313a20436f6c6c656374696f6e20646f6573206e6f7460448201526508195e1a5cdd60d21b6064820152608401610859565b600060118781548110610e0e57610e0e613e0c565b906000526020600020906005020190508060010154858260000154610e339190613cbb565b1115610ea75760405162461bcd60e51b815260206004820152602160248201527f52414952204552433732313a20496e76616c696420656e64696e6720746f6b6560448201527f6e000000000000000000000000000000000000000000000000000000000000006064820152608401610859565b80546001820154610eb89190613d06565b610ec28787613d06565b1115610f365760405162461bcd60e51b815260206004820152602160248201527f52414952204552433732313a20496e76616c696420746f6b656e206c696d697460448201527f73000000000000000000000000000000000000000000000000000000000000006064820152608401610859565b83610f418787613d06565b610f4c906001613cbb565b1015610fc05760405162461bcd60e51b815260206004820152602d60248201527f52414952204552433732313a20496e76616c6964206e756d626572206f66207460448201527f6f6b656e7320746f206c6f636b000000000000000000000000000000000000006064820152608401610859565b610fcb8787876113aa565b6110175760405162461bcd60e51b815260206004820152601f60248201527f52414952204552433732313a2043616e6e6f7420637265617465206c6f636b006044820152606401610859565b60108054600181018255600091909152815460049091027f1b6847dc741a1b0cd08d278845f9d819d87b734759afb55fe2de5cb82a9ae672019061105c908890613cbb565b8155815461106b908790613cbb565b6001808301919091556002820186905560038201899055601054600484019161109391613d06565b8154600181018355600092835260209092209091015581547f0b8fece546364ce1dcadcf45028659aff64e7a166d735eb32da27050fd520f699089906110da908a90613cbb565b84546110e7908a90613cbb565b88866003016040516110fd959493929190613c85565b60405180910390a15050505050505050565b61111933826123a4565b61118b5760405162461bcd60e51b815260206004820152603160248201527f4552433732313a207472616e736665722063616c6c6572206973206e6f74206f60448201527f776e6572206e6f7220617070726f7665640000000000000000000000000000006064820152608401610859565b6109ab83838361247b565b600c60205281600052604060002081815481106111b257600080fd5b90600052602060002001600091509150505481565b6000818152600d6020908152604080832054600e9092528220546010805490919081106111f6576111f6613e0c565b90600052602060002090600402016003015414801561074c57506000828152600e602052604081205460108054909190811061123457611234613e0c565b9060005260206000209060040201600201541192915050565b60008061127b7f3c2519c4487d47714872f92cf90a50c25f5deaec2789dc2a497b1272df611db66000611c1d565b601254620186a0906112a99074010000000000000000000000000000000000000000900461ffff1686613ce7565b6112b39190613cd3565b915091509250929050565b6112c88282612660565b6000828152600b602052604090206109ab908261223c565b60006112eb836119ac565b821061135f5760405162461bcd60e51b815260206004820152602b60248201527f455243373231456e756d657261626c653a206f776e657220696e646578206f7560448201527f74206f6620626f756e64730000000000000000000000000000000000000000006064820152608401610859565b506001600160a01b03919091166000908152600660209081526040808320938352929052205490565b6113928282612686565b6000828152600b602052604090206109ab908261270e565b600080601185815481106113c0576113c0613e0c565b90600052602060002090600502019050806000015481600101546113e49190613d06565b8411806114005750805460018201546113fd9190613d06565b83115b1561140f5760009150506115a9565b60005b60048201548110156115a257815461142b908690613cbb565b601083600401838154811061144257611442613e0c565b90600052602060002001548154811061145d5761145d613e0c565b906000526020600020906004020160000154111580156114cc57508154611485908690613cbb565b601083600401838154811061149c5761149c613e0c565b9060005260206000200154815481106114b7576114b7613e0c565b90600052602060002090600402016001015410155b80611580575081546114df908590613cbb565b60108360040183815481106114f6576114f6613e0c565b90600052602060002001548154811061151157611511613e0c565b9060005260206000209060040201600001541115801561158057508154611539908590613cbb565b601083600401838154811061155057611550613e0c565b90600052602060002001548154811061156b5761156b613e0c565b90600052602060002090600402016001015410155b15611590576000925050506115a9565b8061159a81613d9b565b915050611412565b5060019150505b9392505050565b6109ab83838360405180602001604052806000815250611da8565b60006115d660085490565b821061164a5760405162461bcd60e51b815260206004820152602c60248201527f455243373231456e756d657261626c653a20676c6f62616c20696e646578206f60448201527f7574206f6620626f756e647300000000000000000000000000000000000000006064820152608401610859565b6008828154811061165d5761165d613e0c565b90600052602060002001549050919050565b6109ab600f838361351d565b600080600060608060006011878154811061169857611698613e0c565b90600052602060002090600502016040518060a00160405290816000820154815260200160018201548152602001600282015481526020016003820180546116df90613d60565b80601f016020809104026020016040519081016040528092919081815260200182805461170b90613d60565b80156117585780601f1061172d57610100808354040283529160200191611758565b820191906000526020600020905b81548152906001019060200180831161173b57829003601f168201915b50505050508152602001600482018054806020026020016040519081016040528092919081815260200182805480156117b057602002820191906000526020600020905b81548152602001906001019080831161179c575b5050509190925250508151602083015160408401516060850151608090950151929c919b5099509297509550909350505050565b6000818152600260205260408120546001600160a01b03168061074c5760405162461bcd60e51b815260206004820152602960248201527f4552433732313a206f776e657220717565727920666f72206e6f6e657869737460448201527f656e7420746f6b656e00000000000000000000000000000000000000000000006064820152608401610859565b7f3c2519c4487d47714872f92cf90a50c25f5deaec2789dc2a497b1272df611db661189a813361230a565b601154600090156118e857601180546118b590600190613d06565b815481106118c5576118c5613e0c565b90600052602060002090600502016001015460016118e39190613cbb565b6118eb565b60005b60118054600181810183556000929092526005027f31ecc21a745e3968a04e9570e4425bc18fa8019c68028196b546d1669c200c68018281559192506119318584613cbb565b61193b9190613d06565b6001820155845161195590600383019060208801906135a1565b506002810184905560115461196c90600190613d06565b7f9ae7dd5dbfc3938737af70872685a3fb26f364d20134cd30be25108122626a17868660405161199d929190613be7565b60405180910390a25050505050565b60006001600160a01b038216611a2a5760405162461bcd60e51b815260206004820152602a60248201527f4552433732313a2062616c616e636520717565727920666f7220746865207a6560448201527f726f2061646472657373000000000000000000000000000000000000000000006064820152608401610859565b506001600160a01b031660009081526003602052604090205490565b600080600080600060108681548110611a6157611a61613e0c565b9060005260206000209060040201604051806080016040529081600082015481526020016001820154815260200160028201548152602001600382015481525050905060006011826060015181548110611abd57611abd613e0c565b90600052602060002090600502016040518060a0016040529081600082015481526020016001820154815260200160028201548152602001600382018054611b0490613d60565b80601f0160208091040260200160405190810160405280929190818152602001828054611b3090613d60565b8015611b7d5780601f10611b5257610100808354040283529160200191611b7d565b820191906000526020600020905b815481529060010190602001808311611b6057829003601f168201915b5050505050815260200160048201805480602002602001604051908101604052809291908181526020018280548015611bd557602002820191906000526020600020905b815481526020019060010190808311611bc1575b50505091909252505081518451929350611bf192909150613d06565b81516020840151611c029190613d06565b83604001518460600151955095509550955050509193509193565b6000828152600b602052604081206115a99083612723565b60606001805461076190613d60565b6000805b611c51846119ac565b811015611c985782600d6000611c6787856112e0565b8152602001908152602001600020541415611c8657600191505061074c565b80611c9081613d9b565b915050611c48565b5060009392505050565b6001600160a01b038216331415611cfb5760405162461bcd60e51b815260206004820152601960248201527f4552433732313a20617070726f766520746f2063616c6c6572000000000000006044820152606401610859565b3360008181526005602090815260408083206001600160a01b03871680855290835292819020805460ff191686151590811790915590519081529192917f17307eab39ab6107e8899845ad3d59bd9653f200f220920489ca2b5937696c31910160405180910390a35050565b6000818152600d6020526040812054601180549091908110611d8b57611d8b613e0c565b9060005260206000209060050201600001548261074c9190613d06565b611db233836123a4565b611e245760405162461bcd60e51b815260206004820152603160248201527f4552433732313a207472616e736665722063616c6c6572206973206e6f74206f60448201527f776e6572206e6f7220617070726f7665640000000000000000000000000000006064820152608401610859565b611e308484848461272f565b50505050565b6000838060118054905011611e9c5760405162461bcd60e51b815260206004820152602660248201527f52414952204552433732313a20436f6c6c656374696f6e20646f6573206e6f7460448201526508195e1a5cdd60d21b6064820152608401610859565b600060118681548110611eb157611eb1613e0c565b90600052602060002090600502016040518060a0016040529081600082015481526020016001820154815260200160028201548152602001600382018054611ef890613d60565b80601f0160208091040260200160405190810160405280929190818152602001828054611f2490613d60565b8015611f715780601f10611f4657610100808354040283529160200191611f71565b820191906000526020600020905b815481529060010190602001808311611f5457829003601f168201915b5050505050815260200160048201805480602002602001604051908101604052809291908181526020018280548015611fc957602002820191906000526020600020905b815481526020019060010190808311611fb5575b50505050508152505090506000858260000151611fe69190613cbb565b90505b8151611ff6908690613cbb565b811161203f576000818152600260205260409020546001600160a01b031661202d5781516120249082613d06565b935050506120ae565b8061203781613d9b565b915050611fe9565b5060405162461bcd60e51b815260206004820152603960248201527f52414952204552433732313a20546865726520617265206e6f20617661696c6160448201527f626c6520746f6b656e7320696e20746869732072616e67652e000000000000006064820152608401610859565b509392505050565b6000818152600260205260409020546060906001600160a01b03166121435760405162461bcd60e51b815260206004820152602f60248201527f4552433732314d657461646174613a2055524920717565727920666f72206e6f60448201527f6e6578697374656e7420746f6b656e00000000000000000000000000000000006064820152608401610859565b600061214d6127ad565b9050600081511161216d57604051806020016040528060008152506115a9565b80612177846127bc565b604051602001612188929190613ae8565b6040516020818303038152906040529392505050565b6000818152600b6020526040812061074c906128ba565b61139282826128c4565b6001600160a01b03811660009081527f4e6e614aa308bd78bac28541285c453cfb7abbecc03cb60a1e70ec8347070f98602052604081205460ff16806115a957506001600160a01b0380841660009081526005602090815260408083209386168352929052205460ff166115a9565b61223882826128ea565b5050565b60006115a9836001600160a01b03841661298c565b60006001600160e01b031982167f5a05180f00000000000000000000000000000000000000000000000000000000148061074c575061074c826129db565b6000818152600460205260409020805473ffffffffffffffffffffffffffffffffffffffff19166001600160a01b03841690811790915581906122d1826117e4565b6001600160a01b03167f8c5be1e5ebec7d5bd14f71427d1e84f3dd0314c0f7b2291e5b200ac8c7c3b92560405160405180910390a45050565b6000828152600a602090815260408083206001600160a01b038516845290915290205460ff1661223857612348816001600160a01b03166014612a19565b612353836020612a19565b604051602001612364929190613b17565b60408051601f198184030181529082905262461bcd60e51b825261085991600401613bd4565b612238828260405180602001604052806000815250612bde565b6000818152600260205260408120546001600160a01b031661241d5760405162461bcd60e51b815260206004820152602c60248201527f4552433732313a206f70657261746f7220717565727920666f72206e6f6e657860448201526b34b9ba32b73a103a37b5b2b760a11b6064820152608401610859565b6000612428836117e4565b9050806001600160a01b0316846001600160a01b031614806124635750836001600160a01b0316612458846107e4565b6001600160a01b0316145b80612473575061247381856121bf565b949350505050565b826001600160a01b031661248e826117e4565b6001600160a01b03161461250a5760405162461bcd60e51b815260206004820152602960248201527f4552433732313a207472616e73666572206f6620746f6b656e2074686174206960448201527f73206e6f74206f776e00000000000000000000000000000000000000000000006064820152608401610859565b6001600160a01b0382166125855760405162461bcd60e51b8152602060048201526024808201527f4552433732313a207472616e7366657220746f20746865207a65726f2061646460448201527f72657373000000000000000000000000000000000000000000000000000000006064820152608401610859565b612590838383612c5c565b61259b60008261228f565b6001600160a01b03831660009081526003602052604081208054600192906125c4908490613d06565b90915550506001600160a01b03821660009081526003602052604081208054600192906125f2908490613cbb565b9091555050600081815260026020526040808220805473ffffffffffffffffffffffffffffffffffffffff19166001600160a01b0386811691821790925591518493918716917fddf252ad1be2c89b69c2b068fc378daa952ba7f163c4a11628f55a4df523b3ef91a4505050565b6000828152600a602052604090206001015461267c813361230a565b6109ab83836128ea565b6001600160a01b03811633146127045760405162461bcd60e51b815260206004820152602f60248201527f416363657373436f6e74726f6c3a2063616e206f6e6c792072656e6f756e636560448201527f20726f6c657320666f722073656c6600000000000000000000000000000000006064820152608401610859565b6122388282612da9565b60006115a9836001600160a01b038416612e2c565b60006115a98383612f1f565b61273a84848461247b565b61274684848484612f49565b611e305760405162461bcd60e51b815260206004820152603260248201527f4552433732313a207472616e7366657220746f206e6f6e20455243373231526560448201527131b2b4bb32b91034b6b83632b6b2b73a32b960711b6064820152608401610859565b6060600f805461076190613d60565b6060816127e05750506040805180820190915260018152600360fc1b602082015290565b8160005b811561280a57806127f481613d9b565b91506128039050600a83613cd3565b91506127e4565b60008167ffffffffffffffff81111561282557612825613e22565b6040519080825280601f01601f19166020018201604052801561284f576020820181803683370190505b5090505b841561247357612864600183613d06565b9150612871600a86613db6565b61287c906030613cbb565b60f81b81838151811061289157612891613e0c565b60200101906001600160f81b031916908160001a9053506128b3600a86613cd3565b9450612853565b600061074c825490565b6000828152600a60205260409020600101546128e0813361230a565b6109ab8383612da9565b6000828152600a602090815260408083206001600160a01b038516845290915290205460ff16612238576000828152600a602090815260408083206001600160a01b03851684529091529020805460ff191660011790556129483390565b6001600160a01b0316816001600160a01b0316837f2f8788117e7eff1d82e926ec794901d17c78024a50270940304540a733656f0d60405160405180910390a45050565b60008181526001830160205260408120546129d35750815460018181018455600084815260208082209093018490558454848252828601909352604090209190915561074c565b50600061074c565b60006001600160e01b031982167f7965db0b00000000000000000000000000000000000000000000000000000000148061074c575061074c826130a1565b60606000612a28836002613ce7565b612a33906002613cbb565b67ffffffffffffffff811115612a4b57612a4b613e22565b6040519080825280601f01601f191660200182016040528015612a75576020820181803683370190505b509050600360fc1b81600081518110612a9057612a90613e0c565b60200101906001600160f81b031916908160001a9053507f780000000000000000000000000000000000000000000000000000000000000081600181518110612adb57612adb613e0c565b60200101906001600160f81b031916908160001a9053506000612aff846002613ce7565b612b0a906001613cbb565b90505b6001811115612b8f577f303132333435363738396162636465660000000000000000000000000000000085600f1660108110612b4b57612b4b613e0c565b1a60f81b828281518110612b6157612b61613e0c565b60200101906001600160f81b031916908160001a90535060049490941c93612b8881613d49565b9050612b0d565b5083156115a95760405162461bcd60e51b815260206004820181905260248201527f537472696e67733a20686578206c656e67746820696e73756666696369656e746044820152606401610859565b612be883836130df565b612bf56000848484612f49565b6109ab5760405162461bcd60e51b815260206004820152603260248201527f4552433732313a207472616e7366657220746f206e6f6e20455243373231526560448201527131b2b4bb32b91034b6b83632b6b2b73a32b960711b6064820152608401610859565b6001600160a01b03831615801590612c7c57506001600160a01b03821615155b15612d9e576000818152600d6020908152604080832054600e90925290912054601080549091908110612cb157612cb1613e0c565b9060005260206000209060040201600301541415612d74576000818152600e6020526040902054601080549091908110612ced57612ced613e0c565b906000526020600020906004020160020154600014612d745760405162461bcd60e51b815260206004820152603a60248201527f52414952204552433732313a205472616e736665727320666f7220746869732060448201527f72616e6765206172652063757272656e746c79206c6f636b65640000000000006064820152608401610859565b612d9e7f872340a532bdd7bb02bea115c1b0f1ba87eac982f5b79b51ac189ffaac1b6fce3361230a565b6109ab83838361323a565b6000828152600a602090815260408083206001600160a01b038516845290915290205460ff1615612238576000828152600a602090815260408083206001600160a01b0385168085529252808320805460ff1916905551339285917ff6391f5c32d9c69d2a47ea670b442974b53935d1edc7fd64eb21e047a839171b9190a45050565b60008181526001830160205260408120548015612f15576000612e50600183613d06565b8554909150600090612e6490600190613d06565b9050818114612ec9576000866000018281548110612e8457612e84613e0c565b9060005260206000200154905080876000018481548110612ea757612ea7613e0c565b6000918252602080832090910192909255918252600188019052604090208390555b8554869080612eda57612eda613df6565b60019003818190600052602060002001600090559055856001016000868152602001908152602001600020600090556001935050505061074c565b600091505061074c565b6000826000018281548110612f3657612f36613e0c565b9060005260206000200154905092915050565b60006001600160a01b0384163b1561309657604051630a85bd0160e11b81526001600160a01b0385169063150b7a0290612f8d903390899088908890600401613b98565b602060405180830381600087803b158015612fa757600080fd5b505af1925050508015612fd7575060408051601f3d908101601f19168201909252612fd4918101906138d6565b60015b61307c573d808015613005576040519150601f19603f3d011682016040523d82523d6000602084013e61300a565b606091505b5080516130745760405162461bcd60e51b815260206004820152603260248201527f4552433732313a207472616e7366657220746f206e6f6e20455243373231526560448201527131b2b4bb32b91034b6b83632b6b2b73a32b960711b6064820152608401610859565b805181602001fd5b6001600160e01b031916630a85bd0160e11b149050612473565b506001949350505050565b60006001600160e01b031982167f780e9d6300000000000000000000000000000000000000000000000000000000148061074c575061074c826132f2565b6001600160a01b0382166131355760405162461bcd60e51b815260206004820181905260248201527f4552433732313a206d696e7420746f20746865207a65726f20616464726573736044820152606401610859565b6000818152600260205260409020546001600160a01b03161561319a5760405162461bcd60e51b815260206004820152601c60248201527f4552433732313a20746f6b656e20616c7265616479206d696e746564000000006044820152606401610859565b6131a660008383612c5c565b6001600160a01b03821660009081526003602052604081208054600192906131cf908490613cbb565b9091555050600081815260026020526040808220805473ffffffffffffffffffffffffffffffffffffffff19166001600160a01b03861690811790915590518392907fddf252ad1be2c89b69c2b068fc378daa952ba7f163c4a11628f55a4df523b3ef908290a45050565b6001600160a01b0383166132955761329081600880546000838152600960205260408120829055600182018355919091527ff3f7a9fe364faab93b216da50a3214154f22a0a2b415b23a84c8169e8b636ee30155565b6132b8565b816001600160a01b0316836001600160a01b0316146132b8576132b8838261338d565b6001600160a01b0382166132cf576109ab8161342a565b826001600160a01b0316826001600160a01b0316146109ab576109ab82826134d9565b60006001600160e01b031982167f80ac58cd00000000000000000000000000000000000000000000000000000000148061335557506001600160e01b031982167f5b5e139f00000000000000000000000000000000000000000000000000000000145b8061074c57507f01ffc9a7000000000000000000000000000000000000000000000000000000006001600160e01b031983161461074c565b6000600161339a846119ac565b6133a49190613d06565b6000838152600760205260409020549091508082146133f7576001600160a01b03841660009081526006602090815260408083208584528252808320548484528184208190558352600790915290208190555b5060009182526007602090815260408084208490556001600160a01b039094168352600681528383209183525290812055565b60085460009061343c90600190613d06565b6000838152600960205260408120546008805493945090928490811061346457613464613e0c565b90600052602060002001549050806008838154811061348557613485613e0c565b60009182526020808320909101929092558281526009909152604080822084905585825281205560088054806134bd576134bd613df6565b6001900381819060005260206000200160009055905550505050565b60006134e4836119ac565b6001600160a01b039093166000908152600660209081526040808320868452825280832085905593825260079052919091209190915550565b82805461352990613d60565b90600052602060002090601f01602090048101928261354b5760008555613591565b82601f106135645782800160ff19823516178555613591565b82800160010185558215613591579182015b82811115613591578235825591602001919060010190613576565b5061359d929150613615565b5090565b8280546135ad90613d60565b90600052602060002090601f0160209004810192826135cf5760008555613591565b82601f106135e857805160ff1916838001178555613591565b82800160010185558215613591579182015b828111156135915782518255916020019190600101906135fa565b5b8082111561359d5760008155600101613616565b600067ffffffffffffffff8084111561364557613645613e22565b604051601f8501601f19908116603f0116810190828211818310171561366d5761366d613e22565b8160405280935085815286868601111561368657600080fd5b858560208301376000602087830101525050509392505050565b80356001600160a01b03811681146136b757600080fd5b919050565b6000602082840312156136ce57600080fd5b6115a9826136a0565b600080604083850312156136ea57600080fd5b6136f3836136a0565b9150613701602084016136a0565b90509250929050565b60008060006060848603121561371f57600080fd5b613728846136a0565b9250613736602085016136a0565b9150604084013590509250925092565b6000806000806080858703121561375c57600080fd5b613765856136a0565b9350613773602086016136a0565b925060408501359150606085013567ffffffffffffffff81111561379657600080fd5b8501601f810187136137a757600080fd5b6137b68782356020840161362a565b91505092959194509250565b600080604083850312156137d557600080fd5b6137de836136a0565b9150602083013580151581146137f357600080fd5b809150509250929050565b6000806040838503121561381157600080fd5b61381a836136a0565b946020939093013593505050565b60008060006060848603121561383d57600080fd5b613846846136a0565b95602085013595506040909401359392505050565b60006020828403121561386d57600080fd5b5035919050565b6000806040838503121561388757600080fd5b82359150613701602084016136a0565b600080604083850312156138aa57600080fd5b50508035926020909101359150565b6000602082840312156138cb57600080fd5b81356115a981613e38565b6000602082840312156138e857600080fd5b81516115a981613e38565b6000806020838503121561390657600080fd5b823567ffffffffffffffff8082111561391e57600080fd5b818501915085601f83011261393257600080fd5b81358181111561394157600080fd5b86602082850101111561395357600080fd5b60209290920196919550909350505050565b6000806040838503121561397857600080fd5b823567ffffffffffffffff81111561398f57600080fd5b8301601f810185136139a057600080fd5b6139af8582356020840161362a565b95602094909401359450505050565b6000806000606084860312156139d357600080fd5b505081359360208301359350604090920135919050565b60008060008060808587031215613a0057600080fd5b5050823594602084013594506040840135936060013592509050565b60008151808452613a34816020860160208601613d1d565b601f01601f19169290920160200192915050565b8054600090600181811c9080831680613a6257607f831692505b6020808410821415613a8457634e487b7160e01b600052602260045260246000fd5b83885260208801828015613a9f5760018114613ab057613adb565b60ff19871682528282019750613adb565b60008981526020902060005b87811015613ad557815484820152908601908401613abc565b83019850505b5050505050505092915050565b60008351613afa818460208801613d1d565b835190830190613b0e818360208801613d1d565b01949350505050565b7f416363657373436f6e74726f6c3a206163636f756e7420000000000000000000815260008351613b4f816017850160208801613d1d565b7f206973206d697373696e6720726f6c65200000000000000000000000000000006017918401918201528351613b8c816028840160208801613d1d565b01602801949350505050565b60006001600160a01b03808716835280861660208401525083604083015260806060830152613bca6080830184613a1c565b9695505050505050565b6020815260006115a96020830184613a1c565b604081526000613bfa6040830185613a1c565b90508260208301529392505050565b6020815260006115a96020830184613a48565b85815260006020868184015285604084015260a06060840152613c4260a0840186613a1c565b838103608085015284518082528286019183019060005b81811015613c7557835183529284019291840191600101613c59565b50909a9950505050505050505050565b85815284602082015283604082015282606082015260a060808201526000613cb060a0830184613a48565b979650505050505050565b60008219821115613cce57613cce613dca565b500190565b600082613ce257613ce2613de0565b500490565b6000816000190483118215151615613d0157613d01613dca565b500290565b600082821015613d1857613d18613dca565b500390565b60005b83811015613d38578181015183820152602001613d20565b83811115611e305750506000910152565b600081613d5857613d58613dca565b506000190190565b600181811c90821680613d7457607f821691505b60208210811415613d9557634e487b7160e01b600052602260045260246000fd5b50919050565b6000600019821415613daf57613daf613dca565b5060010190565b600082613dc557613dc5613de0565b500690565b634e487b7160e01b600052601160045260246000fd5b634e487b7160e01b600052601260045260246000fd5b634e487b7160e01b600052603160045260246000fd5b634e487b7160e01b600052603260045260246000fd5b634e487b7160e01b600052604160045260246000fd5b6001600160e01b031981168114613e4e57600080fd5b5056fea264697066735822122030a1cca2fdbd76f71e09d688688b4f3559e1a36359ec732416254368d0b1860764736f6c634300080700333c2519c4487d47714872f92cf90a50c25f5deaec2789dc2a497b1272df611db6f0887ba65ee2024ea881d91b74c2450ef19e1557f03bed3ea9f16b037cbe2dc9872340a532bdd7bb02bea115c1b0f1ba87eac982f5b79b51ac189ffaac1b6fce",
  "linkReferences": {},
  "deployedLinkReferences": {}
}