{
  "address": "0x3F37dbA0f085064BAc81E0d150df30c0489E95B9",
  "abi": [
    {
      "inputs": [
        {
          "internalType": "address",
          "name": "factoryAddress",
          "type": "address"
        }
      ],
      "stateMutability": "nonpayable",
      "type": "constructor"
    },
    {
      "anonymous": false,
      "inputs": [
        {
          "indexed": true,
          "internalType": "bytes32",
          "name": "role",
          "type": "bytes32"
        },
        {
          "indexed": true,
          "internalType": "bytes32",
          "name": "previousAdminRole",
          "type": "bytes32"
        },
        {
          "indexed": true,
          "internalType": "bytes32",
          "name": "newAdminRole",
          "type": "bytes32"
        }
      ],
      "name": "RoleAdminChanged",
      "type": "event"
    },
    {
      "anonymous": false,
      "inputs": [
        {
          "indexed": true,
          "internalType": "bytes32",
          "name": "role",
          "type": "bytes32"
        },
        {
          "indexed": true,
          "internalType": "address",
          "name": "account",
          "type": "address"
        },
        {
          "indexed": true,
          "internalType": "address",
          "name": "sender",
          "type": "address"
        }
      ],
      "name": "RoleGranted",
      "type": "event"
    },
    {
      "anonymous": false,
      "inputs": [
        {
          "indexed": true,
          "internalType": "bytes32",
          "name": "role",
          "type": "bytes32"
        },
        {
          "indexed": true,
          "internalType": "address",
          "name": "account",
          "type": "address"
        },
        {
          "indexed": true,
          "internalType": "address",
          "name": "sender",
          "type": "address"
        }
      ],
      "name": "RoleRevoked",
      "type": "event"
    },
    {
      "inputs": [],
      "name": "DEFAULT_ADMIN_ROLE",
      "outputs": [
        {
          "internalType": "bytes32",
          "name": "",
          "type": "bytes32"
        }
      ],
      "stateMutability": "view",
      "type": "function"
    },
    {
      "inputs": [],
      "name": "FACTORY",
      "outputs": [
        {
          "internalType": "bytes32",
          "name": "",
          "type": "bytes32"
        }
      ],
      "stateMutability": "view",
      "type": "function"
    },
    {
      "inputs": [],
      "name": "MAINTAINER",
      "outputs": [
        {
          "internalType": "bytes32",
          "name": "",
          "type": "bytes32"
        }
      ],
      "stateMutability": "view",
      "type": "function"
    },
    {
      "inputs": [
        {
          "internalType": "address",
          "name": "creator",
          "type": "address"
        },
        {
          "internalType": "string",
          "name": "title",
          "type": "string"
        }
      ],
      "name": "deployContract",
      "outputs": [
        {
          "internalType": "address",
          "name": "deploymentAddress",
          "type": "address"
        }
      ],
      "stateMutability": "nonpayable",
      "type": "function"
    },
    {
      "inputs": [
        {
          "internalType": "bytes32",
          "name": "role",
          "type": "bytes32"
        }
      ],
      "name": "getRoleAdmin",
      "outputs": [
        {
          "internalType": "bytes32",
          "name": "",
          "type": "bytes32"
        }
      ],
      "stateMutability": "view",
      "type": "function"
    },
    {
      "inputs": [
        {
          "internalType": "bytes32",
          "name": "role",
          "type": "bytes32"
        },
        {
          "internalType": "uint256",
          "name": "index",
          "type": "uint256"
        }
      ],
      "name": "getRoleMember",
      "outputs": [
        {
          "internalType": "address",
          "name": "",
          "type": "address"
        }
      ],
      "stateMutability": "view",
      "type": "function"
    },
    {
      "inputs": [
        {
          "internalType": "bytes32",
          "name": "role",
          "type": "bytes32"
        }
      ],
      "name": "getRoleMemberCount",
      "outputs": [
        {
          "internalType": "uint256",
          "name": "",
          "type": "uint256"
        }
      ],
      "stateMutability": "view",
      "type": "function"
    },
    {
      "inputs": [
        {
          "internalType": "bytes32",
          "name": "role",
          "type": "bytes32"
        },
        {
          "internalType": "address",
          "name": "account",
          "type": "address"
        }
      ],
      "name": "grantRole",
      "outputs": [],
      "stateMutability": "nonpayable",
      "type": "function"
    },
    {
      "inputs": [
        {
          "internalType": "bytes32",
          "name": "role",
          "type": "bytes32"
        },
        {
          "internalType": "address",
          "name": "account",
          "type": "address"
        }
      ],
      "name": "hasRole",
      "outputs": [
        {
          "internalType": "bool",
          "name": "",
          "type": "bool"
        }
      ],
      "stateMutability": "view",
      "type": "function"
    },
    {
      "inputs": [
        {
          "internalType": "bytes32",
          "name": "role",
          "type": "bytes32"
        },
        {
          "internalType": "address",
          "name": "account",
          "type": "address"
        }
      ],
      "name": "renounceRole",
      "outputs": [],
      "stateMutability": "nonpayable",
      "type": "function"
    },
    {
      "inputs": [
        {
          "internalType": "bytes32",
          "name": "role",
          "type": "bytes32"
        },
        {
          "internalType": "address",
          "name": "account",
          "type": "address"
        }
      ],
      "name": "revokeRole",
      "outputs": [],
      "stateMutability": "nonpayable",
      "type": "function"
    },
    {
      "inputs": [
        {
          "internalType": "bytes4",
          "name": "interfaceId",
          "type": "bytes4"
        }
      ],
      "name": "supportsInterface",
      "outputs": [
        {
          "internalType": "bool",
          "name": "",
          "type": "bool"
        }
      ],
      "stateMutability": "view",
      "type": "function"
    }
  ],
  "transactionHash": "0x3aa2cf7e174e44eebbe35b362348f4c6e68dcbfef01859886f3059991e8783f6",
  "args": [
    "0xB6D75f843FC27b9fF564738520e416E7D0eF4bD2"
  ],
  "numDeployments": 2,
  "solcInputHash": "a10d8834c3dca6a288befeb088dc9769",
  "bytecode": "0x60806040523480156200001157600080fd5b50604051620056c6380380620056c6833981016040819052620000349162000273565b6200004f6000805160206200568683398151915280620000c3565b62000079600080516020620056a683398151915260008051602062005686833981519152620000c3565b620000866000336200010e565b620000a160008051602062005686833981519152336200010e565b620000bc600080516020620056a6833981519152826200010e565b50620002a5565b600082815260208190526040808220600101805490849055905190918391839186917fbd79b86ffe0ab8e8776151514217cd7cacd52c909f66475c3af44e129f0b00ff9190a4505050565b6200011a82826200011e565b5050565b6200013582826200016160201b620004231760201c565b60008281526001602090815260409091206200015c918390620004ab62000201821b17901c565b505050565b6000828152602081815260408083206001600160a01b038516845290915290205460ff166200011a576000828152602081815260408083206001600160a01b03851684529091529020805460ff19166001179055620001bd3390565b6001600160a01b0316816001600160a01b0316837f2f8788117e7eff1d82e926ec794901d17c78024a50270940304540a733656f0d60405160405180910390a45050565b600062000218836001600160a01b03841662000221565b90505b92915050565b60008181526001830160205260408120546200026a575081546001818101845560008481526020808220909301849055845484825282860190935260409020919091556200021b565b5060006200021b565b6000602082840312156200028657600080fd5b81516001600160a01b03811681146200029e57600080fd5b9392505050565b6153d180620002b56000396000f3fe60806040523480156200001157600080fd5b5060043610620000c35760003560e01c806364f8f754116200007a57806364f8f75414620001a95780639010d07c14620001d957806391d1485414620001f0578063a217fddf1462000207578063ca15c8731462000210578063d547741f146200022757600080fd5b806301ffc9a714620000c8578063248a9ca314620000f45780632aabb72614620001295780632dd3100014620001515780632f2ff15d146200017957806336568abe1462000192575b600080fd5b620000df620000d9366004620009a6565b6200023e565b60405190151581526020015b60405180910390f35b6200011a62000105366004620009d2565b60009081526020819052604090206001015490565b604051908152602001620000eb565b6200011a7fd88b35d7427a01a8e16d8a129535b4cf3150edf8d92c0a44dc1eba73bdaf18cb81565b6200011a7f547b500e425d72fd0723933cceefc203cef652b4736fd04250c3369b3e1a0a7381565b620001906200018a36600462000a09565b6200026c565b005b62000190620001a336600462000a09565b6200029a565b620001c0620001ba36600462000a38565b62000320565b6040516001600160a01b039091168152602001620000eb565b620001c0620001ea36600462000ac2565b62000397565b620000df6200020136600462000a09565b620003b8565b6200011a600081565b6200011a62000221366004620009d2565b620003e1565b620001906200023836600462000a09565b620003fa565b60006001600160e01b03198216635a05180f60e01b14806200026657506200026682620004c2565b92915050565b6000828152602081905260409020600101546200028981620004f9565b62000295838362000508565b505050565b6001600160a01b0381163314620003105760405162461bcd60e51b815260206004820152602f60248201527f416363657373436f6e74726f6c3a2063616e206f6e6c792072656e6f756e636560448201526e103937b632b9903337b91039b2b63360891b60648201526084015b60405180910390fd5b6200031c82826200052e565b5050565b60007f547b500e425d72fd0723933cceefc203cef652b4736fd04250c3369b3e1a0a736200034e81620004f9565b6000848487604051620003619062000998565b6200036f9392919062000ae5565b604051809103906000f0801580156200038c573d6000803e3d6000fd5b509695505050505050565b6000828152600160205260408120620003b1908362000554565b9392505050565b6000918252602082815260408084206001600160a01b0393909316845291905290205460ff1690565b6000818152600160205260408120620002669062000562565b6000828152602081905260409020600101546200041781620004f9565b6200029583836200052e565b6200042f8282620003b8565b6200031c576000828152602081815260408083206001600160a01b03851684529091529020805460ff19166001179055620004673390565b6001600160a01b0316816001600160a01b0316837f2f8788117e7eff1d82e926ec794901d17c78024a50270940304540a733656f0d60405160405180910390a45050565b6000620003b1836001600160a01b0384166200056d565b60006001600160e01b03198216637965db0b60e01b14806200026657506301ffc9a760e01b6001600160e01b031983161462000266565b620005058133620005bf565b50565b62000514828262000423565b6000828152600160205260409020620002959082620004ab565b6200053a82826200062e565b600082815260016020526040902062000295908262000696565b6000620003b18383620006ad565b600062000266825490565b6000818152600183016020526040812054620005b65750815460018181018455600084815260208082209093018490558454848252828601909352604090209190915562000266565b50600062000266565b620005cb8282620003b8565b6200031c57620005e6816001600160a01b03166014620006da565b620005f3836020620006da565b6040516020016200060692919062000b59565b60408051601f198184030181529082905262461bcd60e51b8252620003079160040162000bd2565b6200063a8282620003b8565b156200031c576000828152602081815260408083206001600160a01b0385168085529252808320805460ff1916905551339285917ff6391f5c32d9c69d2a47ea670b442974b53935d1edc7fd64eb21e047a839171b9190a45050565b6000620003b1836001600160a01b03841662000894565b6000826000018281548110620006c757620006c762000c07565b9060005260206000200154905092915050565b60606000620006eb83600262000c33565b620006f890600262000c55565b67ffffffffffffffff81111562000713576200071362000c70565b6040519080825280601f01601f1916602001820160405280156200073e576020820181803683370190505b509050600360fc1b816000815181106200075c576200075c62000c07565b60200101906001600160f81b031916908160001a905350600f60fb1b816001815181106200078e576200078e62000c07565b60200101906001600160f81b031916908160001a9053506000620007b484600262000c33565b620007c190600162000c55565b90505b600181111562000843576f181899199a1a9b1b9c1cb0b131b232b360811b85600f1660108110620007f957620007f962000c07565b1a60f81b82828151811062000812576200081262000c07565b60200101906001600160f81b031916908160001a90535060049490941c936200083b8162000c86565b9050620007c4565b508315620003b15760405162461bcd60e51b815260206004820181905260248201527f537472696e67733a20686578206c656e67746820696e73756666696369656e74604482015260640162000307565b600081815260018301602052604081205480156200098d576000620008bb60018362000ca0565b8554909150600090620008d19060019062000ca0565b90508181146200093d576000866000018281548110620008f557620008f562000c07565b90600052602060002001549050808760000184815481106200091b576200091b62000c07565b6000918252602080832090910192909255918252600188019052604090208390555b855486908062000951576200095162000cba565b60019003818190600052602060002001600090559055856001016000868152602001908152602001600020600090556001935050505062000266565b600091505062000266565b6146cb8062000cd183390190565b600060208284031215620009b957600080fd5b81356001600160e01b031981168114620003b157600080fd5b600060208284031215620009e557600080fd5b5035919050565b80356001600160a01b038116811462000a0457600080fd5b919050565b6000806040838503121562000a1d57600080fd5b8235915062000a2f60208401620009ec565b90509250929050565b60008060006040848603121562000a4e57600080fd5b62000a5984620009ec565b9250602084013567ffffffffffffffff8082111562000a7757600080fd5b818601915086601f83011262000a8c57600080fd5b81358181111562000a9c57600080fd5b87602082850101111562000aaf57600080fd5b6020830194508093505050509250925092565b6000806040838503121562000ad657600080fd5b50508035926020909101359150565b6040815282604082015282846060830137600060608483018101919091526001600160a01b03929092166020820152601f909201601f191690910101919050565b60005b8381101562000b4357818101518382015260200162000b29565b8381111562000b53576000848401525b50505050565b7f416363657373436f6e74726f6c3a206163636f756e742000000000000000000081526000835162000b9381601785016020880162000b26565b7001034b99036b4b9b9b4b733903937b6329607d1b601791840191820152835162000bc681602884016020880162000b26565b01602801949350505050565b602081526000825180602084015262000bf381604085016020870162000b26565b601f01601f19169190910160400192915050565b634e487b7160e01b600052603260045260246000fd5b634e487b7160e01b600052601160045260246000fd5b600081600019048311821515161562000c505762000c5062000c1d565b500290565b6000821982111562000c6b5762000c6b62000c1d565b500190565b634e487b7160e01b600052604160045260246000fd5b60008162000c985762000c9862000c1d565b506000190190565b60008282101562000cb55762000cb562000c1d565b500390565b634e487b7160e01b600052603160045260246000fdfe60806040523480156200001157600080fd5b50604051620046cb380380620046cb8339810160408190526200003491620002fb565b81604051806040016040528060048152602001632920a4a960e11b81525081600090805190602001906200006a92919062000222565b5080516200008090600190602084019062000222565b5050601380546001600160a01b0319163317905550604080518082019091526004808252632920a4a960e11b6020909201918252620000c29160149162000222565b506015805461ffff1916617530179055620000df6000826200016e565b6200010b7ff0887ba65ee2024ea881d91b74c2450ef19e1557f03bed3ea9f16b037cbe2dc9826200016e565b620001377f872340a532bdd7bb02bea115c1b0f1ba87eac982f5b79b51ac189ffaac1b6fce826200016e565b600f805461ff001916610100179055601280546001600160a01b039092166001600160a01b03199092169190911790555062000428565b6200017a82826200017e565b5050565b60008281526006602090815260408083206001600160a01b038516845290915290205460ff166200017a5760008281526006602090815260408083206001600160a01b03851684529091529020805460ff19166001179055620001de3390565b6001600160a01b0316816001600160a01b0316837f2f8788117e7eff1d82e926ec794901d17c78024a50270940304540a733656f0d60405160405180910390a45050565b8280546200023090620003ec565b90600052602060002090601f0160209004810192826200025457600085556200029f565b82601f106200026f57805160ff19168380011785556200029f565b828001600101855582156200029f579182015b828111156200029f57825182559160200191906001019062000282565b50620002ad929150620002b1565b5090565b5b80821115620002ad5760008155600101620002b2565b634e487b7160e01b600052604160045260246000fd5b80516001600160a01b0381168114620002f657600080fd5b919050565b600080604083850312156200030f57600080fd5b82516001600160401b03808211156200032757600080fd5b818501915085601f8301126200033c57600080fd5b815181811115620003515762000351620002c8565b604051601f8201601f19908116603f011681019083821181831017156200037c576200037c620002c8565b816040528281526020935088848487010111156200039957600080fd5b600091505b82821015620003bd57848201840151818301850152908301906200039e565b82821115620003cf5760008484830101525b9550620003e1915050858201620002de565b925050509250929050565b600181811c908216806200040157607f821691505b6020821081036200042257634e487b7160e01b600052602260045260246000fd5b50919050565b61429380620004386000396000f3fe608060405234801561001057600080fd5b50600436106102d65760003560e01c806391d1485411610182578063c45a0155116100e9578063e7662243116100a2578063e9300c6c1161007c578063e9300c6c146106dd578063e985e9c5146106f0578063f2fde38b1461072c578063fe6d81241461073f57600080fd5b8063e7662243146106af578063e8a3d485146106c2578063e927fc5c146106ca57600080fd5b8063c45a015514610622578063c87b56dd14610635578063c99931be14610648578063d31aa70f14610669578063d547741f14610689578063d6215ace1461069c57600080fd5b8063ac323a1f1161013b578063ac323a1f146105b0578063b64b21ca146105c3578063b88d4fde146105d6578063ba51b1b4146105e9578063bda5ec33146105fc578063c1d78b4a1461060f57600080fd5b806391d1485414610554578063938e3d7b1461056757806395d89b411461057a578063a217fddf14610582578063a22cb4651461058a578063ab9aae351461059d57600080fd5b8063248a9ca31161024157806342842e0e116101fa5780636352211e116101d45780636352211e14610508578063673636b71461051b57806367debfd81461052e57806370a082311461054157600080fd5b806342842e0e146104c25780634dcf6ad6146104d55780635a1f3c28146104e857600080fd5b8063248a9ca314610421578063276a28a3146104445780632a55205a146104575780632f2ff15d1461048957806335755a731461049c57806336568abe146104af57600080fd5b8063175c4ef811610293578063175c4ef814610399578063192e322c146103c0578063195f78ae146103d35780631c10106f146103f35780631c899d1a146103fb57806323b872dd1461040e57600080fd5b806301ffc9a7146102db57806306fdde0314610303578063081812fc14610318578063095ea7b3146103435780630de2689e146103585780630f553d2114610386575b600080fd5b6102ee6102e936600461342a565b610766565b60405190151581526020015b60405180910390f35b61030b610791565b6040516102fa919061349f565b61032b6103263660046134b2565b610823565b6040516001600160a01b0390911681526020016102fa565b6103566103513660046134e7565b6108b0565b005b6103786103663660046134b2565b60086020526000908152604090205481565b6040519081526020016102fa565b610356610394366004613521565b6109c5565b6103787f872340a532bdd7bb02bea115c1b0f1ba87eac982f5b79b51ac189ffaac1b6fce81565b6103566103ce36600461357d565b6109eb565b6103786103e13660046134b2565b60076020526000908152604090205481565b601154610378565b6103566104093660046135f0565b610a33565b61035661041c36600461363b565b610a99565b61037861042f3660046134b2565b60009081526006602052604090206001015490565b6102ee6104523660046134b2565b610aca565b61046a610465366004613677565b610b08565b604080516001600160a01b0390931683526020830191909152016102fa565b610356610497366004613699565b610bb7565b6103566104aa366004613709565b610bdc565b6103566104bd366004613699565b610d54565b6103566104d036600461363b565b610dd2565b6103566104e33660046134b2565b610ded565b6104fb6104f63660046134b2565b610e3c565b6040516102fa9190613747565b61032b6105163660046134b2565b610f98565b61035661052936600461386e565b61100f565b6102ee61053c3660046138cf565b611267565b61037861054f366004613908565b611438565b6102ee610562366004613699565b6114bf565b610356610575366004613923565b6114ea565b61030b611540565b610378600081565b610356610598366004613964565b61154f565b6103786105ab3660046134b2565b61155a565b6103566105be36600461398e565b61159b565b6103566105d13660046139b2565b6115bf565b6103566105e4366004613a05565b611619565b6103566105f7366004613923565b611651565b61037861060a366004613a80565b611668565b61035661061d366004613aac565b6117ec565b60135461032b906001600160a01b031681565b61030b6106433660046134b2565b6118c9565b61065b6106563660046134b2565b611b31565b6040516102fa929190613b17565b6103786106773660046134b2565b60096020526000908152604090205481565b610356610697366004613699565b611cab565b6103566106aa366004613b81565b611cd0565b6103566106bd366004613bde565b611d54565b61030b611ffb565b60125461032b906001600160a01b031681565b6103566106eb366004613c11565b61200a565b6102ee6106fe366004613c55565b6001600160a01b03918216600090815260056020908152604080832093909416825291909152205460ff1690565b61035661073a366004613908565b61211b565b6103787ff0887ba65ee2024ea881d91b74c2450ef19e1557f03bed3ea9f16b037cbe2dc981565b60006001600160e01b03198216632baae9fd60e01b148061078b575061078b82612157565b92915050565b6060600080546107a090613c7f565b80601f01602080910402602001604051908101604052809291908181526020018280546107cc90613c7f565b80156108195780601f106107ee57610100808354040283529160200191610819565b820191906000526020600020905b8154815290600101906020018083116107fc57829003601f168201915b5050505050905090565b600061082e8261217c565b6108945760405162461bcd60e51b815260206004820152602c60248201527f4552433732313a20617070726f76656420717565727920666f72206e6f6e657860448201526b34b9ba32b73a103a37b5b2b760a11b60648201526084015b60405180910390fd5b506000908152600460205260409020546001600160a01b031690565b60006108bb82610f98565b9050806001600160a01b0316836001600160a01b0316036109285760405162461bcd60e51b815260206004820152602160248201527f4552433732313a20617070726f76616c20746f2063757272656e74206f776e656044820152603960f91b606482015260840161088b565b336001600160a01b0382161480610944575061094481336106fe565b6109b65760405162461bcd60e51b815260206004820152603860248201527f4552433732313a20617070726f76652063616c6c6572206973206e6f74206f7760448201527f6e6572206e6f7220617070726f76656420666f7220616c6c0000000000000000606482015260840161088b565b6109c08383612199565b505050565b60006109d081612207565b50600f80549115156101000261ff0019909216919091179055565b60006109f681612207565b60115488908110610a195760405162461bcd60e51b815260040161088b90613cb9565b610a2889898989898989612214565b505050505050505050565b6000610a3e81612207565b6000848152600a60205260409020610a57908484613307565b507faab063d4691f636507767c2040fbab0b0e00a684d66a2f9640653ed5e7b859f9848484604051610a8b93929190613d28565b60405180910390a150505050565b610aa333826125bd565b610abf5760405162461bcd60e51b815260040161088b90613d4b565b6109c08383836126a6565b600081815260086020526040812054601080548392908110610aee57610aee613d9c565b906000526020600020906007020160040154119050919050565b600080610b148461217c565b610b7c5760405162461bcd60e51b815260206004820152603360248201527f52414952204552433732313a20526f79616c747920717565727920666f722061604482015272103737b716b2bc34b9ba34b733903a37b5b2b760691b606482015260840161088b565b6012546015546001600160a01b0390911690620186a090610ba19061ffff1686613dc8565b610bab9190613dfd565b915091505b9250929050565b600082815260066020526040902060010154610bd281612207565b6109c0838361284d565b6000610be781612207565b60115484908110610c0a5760405162461bcd60e51b815260040161088b90613cb9565b82610c575760405162461bcd60e51b815260206004820152601860248201527f52414952204552433732313a20456d7074792061727261790000000000000000604482015260640161088b565b60005b83811015610d4c57610d3a86868684818110610c7857610c78613d9c565b9050602002810190610c8a9190613e11565b35878785818110610c9d57610c9d613d9c565b9050602002810190610caf9190613e11565b60400135888886818110610cc557610cc5613d9c565b9050602002810190610cd79190613e11565b60600135898987818110610ced57610ced613d9c565b9050602002810190610cff9190613e11565b602001358a8a88818110610d1557610d15613d9c565b9050602002810190610d279190613e11565b610d35906080810190613e31565b612214565b80610d4481613e77565b915050610c5a565b505050505050565b6001600160a01b0381163314610dc45760405162461bcd60e51b815260206004820152602f60248201527f416363657373436f6e74726f6c3a2063616e206f6e6c792072656e6f756e636560448201526e103937b632b9903337b91039b2b63360891b606482015260840161088b565b610dce82826128d3565b5050565b6109c083838360405180602001604052806000815250611619565b6000610df881612207565b817fa109ba539900bf1b633f956d63c96fc89b814c7287f7aa50a9216d0b55657207610e23846118c9565b604051610e30919061349f565b60405180910390a25050565b610e676040518060800160405280600081526020016000815260200160608152602001606081525090565b60118281548110610e7a57610e7a613d9c565b90600052602060002090600402016040518060800160405290816000820154815260200160018201548152602001600282018054610eb790613c7f565b80601f0160208091040260200160405190810160405280929190818152602001828054610ee390613c7f565b8015610f305780601f10610f0557610100808354040283529160200191610f30565b820191906000526020600020905b815481529060010190602001808311610f1357829003601f168201915b5050505050815260200160038201805480602002602001604051908101604052809291908181526020018280548015610f8857602002820191906000526020600020905b815481526020019060010190808311610f74575b5050505050815250509050919050565b6000818152600260205260408120546001600160a01b03168061078b5760405162461bcd60e51b815260206004820152602960248201527f4552433732313a206f776e657220717565727920666f72206e6f6e657869737460448201526832b73a103a37b5b2b760b91b606482015260840161088b565b600061101a81612207565b6010548690811061103d5760405162461bcd60e51b815260040161088b90613e90565b60006010888154811061105257611052613d9c565b9060005260206000209060070201905060648610156110835760405162461bcd60e51b815260040161088b90613ed1565b80600301548511156111135760405162461bcd60e51b815260206004820152604d60248201527f52414952204552433732313a20546f6b656e7320616c6c6f7765642073686f7560448201527f6c64206265206c657373207468616e20746865206e756d626572206f66206d6960648201526c6e7461626c6520746f6b656e7360981b608482015260a40161088b565b80600301548411156111a25760405162461bcd60e51b815260206004820152604c60248201527f52414952204552433732313a204c6f636b656420746f6b656e732073686f756c60448201527f64206265206c657373207468616e20746865206e756d626572206f66206d696e60648201526b7461626c6520746f6b656e7360a01b608482015260a40161088b565b6002810185905583156112015780546001820154604080519283526020830191909152810185905288907fd2deaeacc8e325d59c09833f4f8df9c144784d547a7725c7085fae3b644c93e49060600160405180910390a2600481018490555b60058101869055865161121d90600683019060208a019061338b565b507f675fe88181b85cb3612f534abc69fa999ba2e4744dc830488c9de8b25ec6cfd18888888888604051611255959493929190613f1e565b60405180910390a15050505050505050565b6000806011858154811061127d5761127d613d9c565b906000526020600020906004020160405180608001604052908160008201548152602001600182015481526020016002820180546112ba90613c7f565b80601f01602080910402602001604051908101604052809291908181526020018280546112e690613c7f565b80156113335780601f1061130857610100808354040283529160200191611333565b820191906000526020600020905b81548152906001019060200180831161131657829003601f168201915b505050505081526020016003820180548060200260200160405190810160405280929190818152602001828054801561138b57602002820191906000526020600020905b815481526020019060010190808311611377575b505050505081525050905080602001518160000151846113ab9190613f54565b106114095760405162461bcd60e51b815260206004820152602860248201527f524149523732313a20546f6b656e2076616c69646174696f6e206f7574206f6660448201526720626f756e64732160c01b606482015260840161088b565b805161142c90879061141b9087613f54565b83516114279087613f54565b61293a565b9150505b949350505050565b60006001600160a01b0382166114a35760405162461bcd60e51b815260206004820152602a60248201527f4552433732313a2062616c616e636520717565727920666f7220746865207a65604482015269726f206164647265737360b01b606482015260840161088b565b506001600160a01b031660009081526003602052604090205490565b60009182526006602090815260408084206001600160a01b0393909316845291905290205460ff1690565b60006114f581612207565b611501600e8484613307565b507f64729fba330f29cb50d748098a4dff25d203b0c55833653113fb5e80bcbd16c18383604051611533929190613f6c565b60405180910390a1505050565b6060601480546107a090613c7f565b610dce33838361298e565b60008181526007602052604081205460118054909190811061157e5761157e613d9c565b9060005260206000209060040201600001548261078b9190613f80565b60006115a681612207565b506015805461ffff191661ffff92909216919091179055565b60006115ca81612207565b6115d6600d8585613307565b50600f805460ff19168315151790556040517f5de368dcac819bc4d6547633836d64b15fcae63449b7643b7360f2a29783af4c90610a8b90869086908690613f97565b61162333836125bd565b61163f5760405162461bcd60e51b815260040161088b90613d4b565b61164b84848484612a5c565b50505050565b600061165c81612207565b61164b60148484613307565b600083806011805490501161168f5760405162461bcd60e51b815260040161088b90613cb9565b6000601186815481106116a4576116a4613d9c565b906000526020600020906004020160405180608001604052908160008201548152602001600182015481526020016002820180546116e190613c7f565b80601f016020809104026020016040519081016040528092919081815260200182805461170d90613c7f565b801561175a5780601f1061172f5761010080835404028352916020019161175a565b820191906000526020600020905b81548152906001019060200180831161173d57829003601f168201915b50505050508152602001600382018054806020026020016040519081016040528092919081815260200182805480156117b257602002820191906000526020600020905b81548152602001906001019080831161179e575b50505050508152505090506117e28582600001516117d09190613f54565b82516117dd908790613f54565b612a8f565b9695505050505050565b60006117f781612207565b83821461186c5760405162461bcd60e51b815260206004820152603b60248201527f52414952204552433732313a20546f6b656e2049447320616e6420555249732060448201527f73686f756c642068617665207468652073616d65206c656e6774680000000000606482015260840161088b565b60005b84811015610d4c576118b786868381811061188c5761188c613d9c565b905060200201358585848181106118a5576118a5613d9c565b90506020028101906104099190613e31565b806118c181613e77565b91505061186f565b6000818152600a60205260408120805460609291906118e790613c7f565b80601f016020809104026020016040519081016040528092919081815260200182805461191390613c7f565b80156119605780601f1061193557610100808354040283529160200191611960565b820191906000526020600020905b81548152906001019060200180831161194357829003601f168201915b505050505090506000815111156119775792915050565b6000838152600760209081526040808320548352600b9091529020805461199d90613c7f565b80601f01602080910402602001604051908101604052809291908181526020018280546119c990613c7f565b8015611a165780601f106119eb57610100808354040283529160200191611a16565b820191906000526020600020905b8154815290600101906020018083116119f957829003601f168201915b50505050509050600081511115611a85576000838152600760209081526040808320548352600c90915290205460ff161561078b5780611a5d611a588561155a565b612b3a565b604051602001611a6e929190613fbd565b604051602081830303815290604052915050919050565b600d8054611a9290613c7f565b80601f0160208091040260200160405190810160405280929190818152602001828054611abe90613c7f565b8015611b0b5780601f10611ae057610100808354040283529160200191611b0b565b820191906000526020600020905b815481529060010190602001808311611aee57829003601f168201915b5050600f54939450505060ff90911615905061078b57611b2a83612c3a565b9392505050565b611b716040518060e00160405280600081526020016000815260200160008152602001600081526020016000815260200160008152602001606081525090565b6000828060108054905011611b985760405162461bcd60e51b815260040161088b90613e90565b60108481548110611bab57611bab613d9c565b90600052602060002090600702016040518060e0016040529081600082015481526020016001820154815260200160028201548152602001600382015481526020016004820154815260200160058201548152602001600682018054611c1090613c7f565b80601f0160208091040260200160405190810160405280929190818152602001828054611c3c90613c7f565b8015611c895780601f10611c5e57610100808354040283529160200191611c89565b820191906000526020600020905b815481529060010190602001808311611c6c57829003601f168201915b5050509190925250505060009485526009602052604090942054939492505050565b600082815260066020526040902060010154611cc681612207565b6109c083836128d3565b6000611cdb81612207565b6000858152600b60205260409020611cf4908585613307565b506000858152600c602052604090819020805460ff1916841515179055517fe0ef8838c8237d3ed99cc13c05ad833ffd57325e1522b10b58ca130044326b8c90611d45908790879087908790613fec565b60405180910390a15050505050565b7ff0887ba65ee2024ea881d91b74c2450ef19e1557f03bed3ea9f16b037cbe2dc9611d7e81612207565b60105483908110611da15760405162461bcd60e51b815260040161088b90613e90565b600060108581548110611db657611db6613d9c565b9060005260206000209060070201905060006011600960008881526020019081526020016000205481548110611dee57611dee613d9c565b906000526020600020906004020190506000826002015411611e6f5760405162461bcd60e51b815260206004820152603460248201527f52414952204552433732313a2043616e6e6f74206d696e74206d6f726520746f6044820152736b656e732066726f6d20746869732072616e676560601b606482015260840161088b565b8054611e7c908690613f54565b825411801590611e9c575060018201548154611e99908790613f54565b11155b611ee85760405162461bcd60e51b815260206004820181905260248201527f52414952204552433732313a20496e76616c696420746f6b656e20696e646578604482015260640161088b565b611f0187868360000154611efc9190613f54565b612cdd565b8560086000878460000154611f169190613f54565b815260200190815260200160002081905550600960008781526020019081526020016000205460076000878460000154611f509190613f54565b815260200190815260200160002081905550816002016000815480929190611f7790614019565b9091555050600482015415611ff257600482018054906000611f9883614019565b91905055508160040154600003611ff2578154600183015460405188927f83d23f069f5730ce94e107a9258bae3b7a0f97184978fd7daa41c8df8ac6c29e92611fe992918252602082015260400190565b60405180910390a25b50505050505050565b6060600e80546107a090613c7f565b600061201581612207565b60115460009015612061576011805461203090600190613f80565b8154811061204057612040613d9c565b906000526020600020906004020160010154600161205e9190613f54565b90505b60118054600181810183556000929092526004027f31ecc21a745e3968a04e9570e4425bc18fa8019c68028196b546d1669c200c6801828155906120a58584613f54565b6120af9190613f80565b600182015584516120c9906002830190602088019061338b565b506011546120d990600190613f80565b7fe318895d3fd44cb3524ca783576b7737ae76b172e344357462ab4258b50c1c2286848760405161210c93929190614030565b60405180910390a25050505050565b600061212681612207565b61213160008361284d565b601280546001600160a01b0319166001600160a01b038416179055610dce600033610d54565b60006001600160e01b03198216637965db0b60e01b148061078b575061078b82612cf7565b6000908152600260205260409020546001600160a01b0316151590565b600081815260046020526040902080546001600160a01b0319166001600160a01b03841690811790915581906121ce82610f98565b6001600160a01b03167f8c5be1e5ebec7d5bd14f71427d1e84f3dd0314c0f7b2291e5b200ac8c7c3b92560405160405180910390a45050565b6122118133612d47565b50565b60006011888154811061222957612229613d9c565b600091825260209091206004909102018054600382015491925090156122ad576003820180546010919061225f90600190613f80565b8154811061226f5761226f613d9c565b90600052602060002001548154811061228a5761228a613d9c565b906000526020600020906007020160010154905080806122a990613e77565b9150505b600180830154906122be8a84613f54565b6122c89190613f80565b11156123205760405162461bcd60e51b815260206004820152602160248201527f52414952204552433732313a20496e76616c69642072616e6765206c656e67746044820152600d60fb1b606482015260840161088b565b878711156123b25760405162461bcd60e51b815260206004820152605360248201527f52414952204552433732313a204e756d626572206f6620616c6c6f776564207460448201527f6f6b656e73206d757374206265206c657373206f7220657175616c207468616e606482015272040e8d0ca40e4c2dcceca4ee640d8cadccee8d606b1b608482015260a40161088b565b878611156124435760405162461bcd60e51b815260206004820152605260248201527f52414952204552433732313a204e756d626572206f66206c6f636b656420746f60448201527f6b656e73206d757374206265206c657373206f7220657175616c207468616e206064820152710e8d0ca40e4c2dcceca4ee640d8cadccee8d60731b608482015260a40161088b565b60648510156124645760405162461bcd60e51b815260040161088b90613ed1565b60108054600181810183556000929092526007027f1b6847dc741a1b0cd08d278845f9d819d87b734759afb55fe2de5cb82a9ae67201828155906124a88a84613f54565b6124b29190613f80565b6001820155600381018990556002810188905560048101879055600581018690556124e1600682018686613307565b50896009600060016010805490506124f99190613f80565b8152602081019190915260400160002055601054600384019061251e90600190613f80565b90806001815401808255809150506001900390600052602060002001600090919091909150557fc4e232d19c750404428930450f0a050bf4c166f32910679d1b9e52f17bad83478a826000015483600101548460050154856002015486600401548760060160016010805490506125959190613f80565b6040516125a9989796959493929190614055565b60405180910390a150505050505050505050565b60006125c88261217c565b6126295760405162461bcd60e51b815260206004820152602c60248201527f4552433732313a206f70657261746f7220717565727920666f72206e6f6e657860448201526b34b9ba32b73a103a37b5b2b760a11b606482015260840161088b565b600061263483610f98565b9050806001600160a01b0316846001600160a01b0316148061267b57506001600160a01b0380821660009081526005602090815260408083209388168352929052205460ff165b806114305750836001600160a01b031661269484610823565b6001600160a01b031614949350505050565b826001600160a01b03166126b982610f98565b6001600160a01b03161461271d5760405162461bcd60e51b815260206004820152602560248201527f4552433732313a207472616e736665722066726f6d20696e636f72726563742060448201526437bbb732b960d91b606482015260840161088b565b6001600160a01b03821661277f5760405162461bcd60e51b8152602060048201526024808201527f4552433732313a207472616e7366657220746f20746865207a65726f206164646044820152637265737360e01b606482015260840161088b565b61278a838383612dab565b612795600082612199565b6001600160a01b03831660009081526003602052604081208054600192906127be908490613f80565b90915550506001600160a01b03821660009081526003602052604081208054600192906127ec908490613f54565b909155505060008181526002602052604080822080546001600160a01b0319166001600160a01b0386811691821790925591518493918716917fddf252ad1be2c89b69c2b068fc378daa952ba7f163c4a11628f55a4df523b3ef91a4505050565b61285782826114bf565b610dce5760008281526006602090815260408083206001600160a01b03851684529091529020805460ff1916600117905561288f3390565b6001600160a01b0316816001600160a01b0316837f2f8788117e7eff1d82e926ec794901d17c78024a50270940304540a733656f0d60405160405180910390a45050565b6128dd82826114bf565b15610dce5760008281526006602090815260408083206001600160a01b0385168085529252808320805460ff1916905551339285917ff6391f5c32d9c69d2a47ea670b442974b53935d1edc7fd64eb21e047a839171b9190a45050565b6000825b8281101561298357846001600160a01b031661295982610f98565b6001600160a01b031603612971576001915050611b2a565b8061297b81613e77565b91505061293e565b506000949350505050565b816001600160a01b0316836001600160a01b0316036129ef5760405162461bcd60e51b815260206004820152601960248201527f4552433732313a20617070726f766520746f2063616c6c657200000000000000604482015260640161088b565b6001600160a01b03838116600081815260056020908152604080832094871680845294825291829020805460ff191686151590811790915591519182527f17307eab39ab6107e8899845ad3d59bd9653f200f220920489ca2b5937696c31910160405180910390a3505050565b612a678484846126a6565b612a7384848484612eed565b61164b5760405162461bcd60e51b815260040161088b90614132565b815b818111612ab857612aa18161217c565b15612ab85780612ab081613e77565b915050612a91565b808311158015612ac85750818111155b61078b5760405162461bcd60e51b815260206004820152603960248201527f52414952204552433732313a20546865726520617265206e6f20617661696c6160448201527f626c6520746f6b656e7320696e20746869732072616e67652e00000000000000606482015260840161088b565b606081600003612b615750506040805180820190915260018152600360fc1b602082015290565b8160005b8115612b8b5780612b7581613e77565b9150612b849050600a83613dfd565b9150612b65565b6000816001600160401b03811115612ba557612ba56137c3565b6040519080825280601f01601f191660200182016040528015612bcf576020820181803683370190505b5090505b841561143057612be4600183613f80565b9150612bf1600a86614184565b612bfc906030613f54565b60f81b818381518110612c1157612c11613d9c565b60200101906001600160f81b031916908160001a905350612c33600a86613dfd565b9450612bd3565b6060612c458261217c565b612ca95760405162461bcd60e51b815260206004820152602f60248201527f4552433732314d657461646174613a2055524920717565727920666f72206e6f60448201526e3732bc34b9ba32b73a103a37b5b2b760891b606482015260840161088b565b6000612cb3612feb565b90506000815111612cd35760405180602001604052806000815250611b2a565b80611a5d84612b3a565b610dce828260405180602001604052806000815250612ffa565b60006001600160e01b031982166380ac58cd60e01b1480612d2857506001600160e01b03198216635b5e139f60e01b145b8061078b57506301ffc9a760e01b6001600160e01b031983161461078b565b612d5182826114bf565b610dce57612d69816001600160a01b0316601461302d565b612d7483602061302d565b604051602001612d85929190614198565b60408051601f198184030181529082905262461bcd60e51b825261088b9160040161349f565b6001600160a01b03831615801590612dcb57506001600160a01b03821615155b156109c05760105415801590612e03575060008181526007602090815260408083205460088352818420548452600990925290912054145b15612eb357600081815260086020526040902054601080549091908110612e2c57612e2c613d9c565b906000526020600020906007020160040154600014612eb35760405162461bcd60e51b815260206004820152603a60248201527f52414952204552433732313a205472616e736665727320666f7220746869732060448201527f72616e6765206172652063757272656e746c79206c6f636b6564000000000000606482015260840161088b565b600f54610100900460ff16156109c0576109c07f872340a532bdd7bb02bea115c1b0f1ba87eac982f5b79b51ac189ffaac1b6fce33612d47565b60006001600160a01b0384163b15612fe357604051630a85bd0160e11b81526001600160a01b0385169063150b7a0290612f3190339089908890889060040161420d565b6020604051808303816000875af1925050508015612f6c575060408051601f3d908101601f19168201909252612f6991810190614240565b60015b612fc9573d808015612f9a576040519150601f19603f3d011682016040523d82523d6000602084013e612f9f565b606091505b508051600003612fc15760405162461bcd60e51b815260040161088b90614132565b805181602001fd5b6001600160e01b031916630a85bd0160e11b149050611430565b506001611430565b6060600d80546107a090613c7f565b61300483836131c8565b6130116000848484612eed565b6109c05760405162461bcd60e51b815260040161088b90614132565b6060600061303c836002613dc8565b613047906002613f54565b6001600160401b0381111561305e5761305e6137c3565b6040519080825280601f01601f191660200182016040528015613088576020820181803683370190505b509050600360fc1b816000815181106130a3576130a3613d9c565b60200101906001600160f81b031916908160001a905350600f60fb1b816001815181106130d2576130d2613d9c565b60200101906001600160f81b031916908160001a90535060006130f6846002613dc8565b613101906001613f54565b90505b6001811115613179576f181899199a1a9b1b9c1cb0b131b232b360811b85600f166010811061313557613135613d9c565b1a60f81b82828151811061314b5761314b613d9c565b60200101906001600160f81b031916908160001a90535060049490941c9361317281614019565b9050613104565b508315611b2a5760405162461bcd60e51b815260206004820181905260248201527f537472696e67733a20686578206c656e67746820696e73756666696369656e74604482015260640161088b565b6001600160a01b03821661321e5760405162461bcd60e51b815260206004820181905260248201527f4552433732313a206d696e7420746f20746865207a65726f2061646472657373604482015260640161088b565b6132278161217c565b156132745760405162461bcd60e51b815260206004820152601c60248201527f4552433732313a20746f6b656e20616c7265616479206d696e74656400000000604482015260640161088b565b61328060008383612dab565b6001600160a01b03821660009081526003602052604081208054600192906132a9908490613f54565b909155505060008181526002602052604080822080546001600160a01b0319166001600160a01b03861690811790915590518392907fddf252ad1be2c89b69c2b068fc378daa952ba7f163c4a11628f55a4df523b3ef908290a45050565b82805461331390613c7f565b90600052602060002090601f016020900481019282613335576000855561337b565b82601f1061334e5782800160ff1982351617855561337b565b8280016001018555821561337b579182015b8281111561337b578235825591602001919060010190613360565b506133879291506133ff565b5090565b82805461339790613c7f565b90600052602060002090601f0160209004810192826133b9576000855561337b565b82601f106133d257805160ff191683800117855561337b565b8280016001018555821561337b579182015b8281111561337b5782518255916020019190600101906133e4565b5b808211156133875760008155600101613400565b6001600160e01b03198116811461221157600080fd5b60006020828403121561343c57600080fd5b8135611b2a81613414565b60005b8381101561346257818101518382015260200161344a565b8381111561164b5750506000910152565b6000815180845261348b816020860160208601613447565b601f01601f19169290920160200192915050565b602081526000611b2a6020830184613473565b6000602082840312156134c457600080fd5b5035919050565b80356001600160a01b03811681146134e257600080fd5b919050565b600080604083850312156134fa57600080fd5b613503836134cb565b946020939093013593505050565b803580151581146134e257600080fd5b60006020828403121561353357600080fd5b611b2a82613511565b60008083601f84011261354e57600080fd5b5081356001600160401b0381111561356557600080fd5b602083019150836020828501011115610bb057600080fd5b600080600080600080600060c0888a03121561359857600080fd5b873596506020880135955060408801359450606088013593506080880135925060a08801356001600160401b038111156135d157600080fd5b6135dd8a828b0161353c565b989b979a50959850939692959293505050565b60008060006040848603121561360557600080fd5b8335925060208401356001600160401b0381111561362257600080fd5b61362e8682870161353c565b9497909650939450505050565b60008060006060848603121561365057600080fd5b613659846134cb565b9250613667602085016134cb565b9150604084013590509250925092565b6000806040838503121561368a57600080fd5b50508035926020909101359150565b600080604083850312156136ac57600080fd5b823591506136bc602084016134cb565b90509250929050565b60008083601f8401126136d757600080fd5b5081356001600160401b038111156136ee57600080fd5b6020830191508360208260051b8501011115610bb057600080fd5b60008060006040848603121561371e57600080fd5b8335925060208401356001600160401b0381111561373b57600080fd5b61362e868287016136c5565b6000602080835283518184015280840151604084015260408401516080606085015261377660a0850182613473565b6060860151858203601f19016080870152805180835290840192506000918401905b808310156137b85783518252928401926001929092019190840190613798565b509695505050505050565b634e487b7160e01b600052604160045260246000fd5b60006001600160401b03808411156137f3576137f36137c3565b604051601f8501601f19908116603f0116810190828211818310171561381b5761381b6137c3565b8160405280935085815286868601111561383457600080fd5b858560208301376000602087830101525050509392505050565b600082601f83011261385f57600080fd5b611b2a838335602085016137d9565b600080600080600060a0868803121561388657600080fd5b8535945060208601356001600160401b038111156138a357600080fd5b6138af8882890161384e565b959895975050505060408401359360608101359360809091013592509050565b600080600080608085870312156138e557600080fd5b6138ee856134cb565b966020860135965060408601359560600135945092505050565b60006020828403121561391a57600080fd5b611b2a826134cb565b6000806020838503121561393657600080fd5b82356001600160401b0381111561394c57600080fd5b6139588582860161353c565b90969095509350505050565b6000806040838503121561397757600080fd5b613980836134cb565b91506136bc60208401613511565b6000602082840312156139a057600080fd5b813561ffff81168114611b2a57600080fd5b6000806000604084860312156139c757600080fd5b83356001600160401b038111156139dd57600080fd5b6139e98682870161353c565b90945092506139fc905060208501613511565b90509250925092565b60008060008060808587031215613a1b57600080fd5b613a24856134cb565b9350613a32602086016134cb565b92506040850135915060608501356001600160401b03811115613a5457600080fd5b8501601f81018713613a6557600080fd5b613a74878235602084016137d9565b91505092959194509250565b600080600060608486031215613a9557600080fd5b505081359360208301359350604090920135919050565b60008060008060408587031215613ac257600080fd5b84356001600160401b0380821115613ad957600080fd5b613ae5888389016136c5565b90965094506020870135915080821115613afe57600080fd5b50613b0b878288016136c5565b95989497509550505050565b60408152825160408201526020830151606082015260408301516080820152606083015160a0820152608083015160c082015260a083015160e0820152600060c084015160e0610100840152613b71610120840182613473565b9150508260208301529392505050565b60008060008060608587031215613b9757600080fd5b8435935060208501356001600160401b03811115613bb457600080fd5b613bc08782880161353c565b9094509250613bd3905060408601613511565b905092959194509250565b600080600060608486031215613bf357600080fd5b613bfc846134cb565b95602085013595506040909401359392505050565b60008060408385031215613c2457600080fd5b82356001600160401b03811115613c3a57600080fd5b613c468582860161384e565b95602094909401359450505050565b60008060408385031215613c6857600080fd5b613c71836134cb565b91506136bc602084016134cb565b600181811c90821680613c9357607f821691505b602082108103613cb357634e487b7160e01b600052602260045260246000fd5b50919050565b60208082526026908201527f52414952204552433732313a20436f6c6c656374696f6e20646f6573206e6f7460408201526508195e1a5cdd60d21b606082015260800190565b81835281816020850137506000828201602090810191909152601f909101601f19169091010190565b838152604060208201526000613d42604083018486613cff565b95945050505050565b60208082526031908201527f4552433732313a207472616e736665722063616c6c6572206973206e6f74206f6040820152701ddb995c881b9bdc88185c1c1c9bdd9959607a1b606082015260800190565b634e487b7160e01b600052603260045260246000fd5b634e487b7160e01b600052601160045260246000fd5b6000816000190483118215151615613de257613de2613db2565b500290565b634e487b7160e01b600052601260045260246000fd5b600082613e0c57613e0c613de7565b500490565b60008235609e19833603018112613e2757600080fd5b9190910192915050565b6000808335601e19843603018112613e4857600080fd5b8301803591506001600160401b03821115613e6257600080fd5b602001915036819003821315610bb057600080fd5b600060018201613e8957613e89613db2565b5060010190565b60208082526021908201527f52414952204552433732313a2052616e676520646f6573206e6f7420657869736040820152601d60fa1b606082015260800190565b6020808252602d908201527f52414952204552433732313a204d696e696d756d20707269636520666f72206160408201526c02072616e67652069732031303609c1b606082015260800190565b85815260a060208201526000613f3760a0830187613473565b604083019590955250606081019290925260809091015292915050565b60008219821115613f6757613f67613db2565b500190565b602081526000611430602083018486613cff565b600082821015613f9257613f92613db2565b500390565b604081526000613fab604083018587613cff565b90508215156020830152949350505050565b60008351613fcf818460208801613447565b835190830190613fe3818360208801613447565b01949350505050565b848152606060208201526000614006606083018587613cff565b9050821515604083015295945050505050565b60008161402857614028613db2565b506000190190565b6060815260006140436060830186613473565b60208301949094525060400152919050565b60006101008a835260208a818501528960408501528860608501528760808501528660a08501528160c08501526000865481600182811c91508083168061409d57607f831692505b85831081036140ba57634e487b7160e01b85526022600452602485fd5b958801828152602001958080156140d857600181146140e957614114565b60ff19851688528688019550614114565b60008c81526020902060005b8581101561410e5781548a8201529084019088016140f5565b89019650505b50505050508093505050508260e08301529998505050505050505050565b60208082526032908201527f4552433732313a207472616e7366657220746f206e6f6e20455243373231526560408201527131b2b4bb32b91034b6b83632b6b2b73a32b960711b606082015260800190565b60008261419357614193613de7565b500690565b7f416363657373436f6e74726f6c3a206163636f756e74200000000000000000008152600083516141d0816017850160208801613447565b7001034b99036b4b9b9b4b733903937b6329607d1b6017918401918201528351614201816028840160208801613447565b01602801949350505050565b6001600160a01b03858116825284166020820152604081018390526080606082018190526000906117e290830184613473565b60006020828403121561425257600080fd5b8151611b2a8161341456fea264697066735822122000d0d9231039620b8331eb241fe07100cf1317db07aa637abc89eb8679eb92d464736f6c634300080d0033a26469706673582212204559fda594bf33cbba6b3dc63c9e1a7431ed0d5b70b4147971800b6d182ae9af64736f6c634300080d0033d88b35d7427a01a8e16d8a129535b4cf3150edf8d92c0a44dc1eba73bdaf18cb547b500e425d72fd0723933cceefc203cef652b4736fd04250c3369b3e1a0a73",
  "devdoc": {
    "kind": "dev",
    "methods": {
      "constructor": {
        "params": {
          "factoryAddress": "Address of the factory able to call the deploy function"
        }
      },
      "getRoleAdmin(bytes32)": {
        "details": "Returns the admin role that controls `role`. See {grantRole} and {revokeRole}. To change a role's admin, use {_setRoleAdmin}."
      },
      "getRoleMember(bytes32,uint256)": {
        "details": "Returns one of the accounts that have `role`. `index` must be a value between 0 and {getRoleMemberCount}, non-inclusive. Role bearers are not sorted in any particular way, and their ordering may change at any point. WARNING: When using {getRoleMember} and {getRoleMemberCount}, make sure you perform all queries on the same block. See the following https://forum.openzeppelin.com/t/iterating-over-elements-on-enumerableset-in-openzeppelin-contracts/2296[forum post] for more information."
      },
      "getRoleMemberCount(bytes32)": {
        "details": "Returns the number of accounts that have `role`. Can be used together with {getRoleMember} to enumerate all bearers of a role."
      },
      "grantRole(bytes32,address)": {
        "details": "Grants `role` to `account`. If `account` had not been already granted `role`, emits a {RoleGranted} event. Requirements: - the caller must have ``role``'s admin role."
      },
      "hasRole(bytes32,address)": {
        "details": "Returns `true` if `account` has been granted `role`."
      },
      "renounceRole(bytes32,address)": {
        "details": "Revokes `role` from the calling account. Roles are often managed via {grantRole} and {revokeRole}: this function's purpose is to provide a mechanism for accounts to lose their privileges if they are compromised (such as when a trusted device is misplaced). If the calling account had been revoked `role`, emits a {RoleRevoked} event. Requirements: - the caller must be `account`."
      },
      "revokeRole(bytes32,address)": {
        "details": "Revokes `role` from `account`. If `account` had been granted `role`, emits a {RoleRevoked} event. Requirements: - the caller must have ``role``'s admin role."
      },
      "supportsInterface(bytes4)": {
        "details": "See {IERC165-supportsInterface}."
      }
    },
    "version": 1
  },
  "userdoc": {
    "kind": "user",
    "methods": {
      "constructor": {
        "notice": "Factory Constructor"
      }
    },
    "version": 1
  },
  "storageLayout": {
    "storage": [
      {
        "astId": 18844,
        "contract": "contracts/Factory/RAIR721_Deployer.sol:RAIR721_Deployer",
        "label": "_roles",
        "offset": 0,
        "slot": "0",
        "type": "t_mapping(t_bytes32,t_struct(RoleData)18839_storage)"
      },
      {
        "astId": 19158,
        "contract": "contracts/Factory/RAIR721_Deployer.sol:RAIR721_Deployer",
        "label": "_roleMembers",
        "offset": 0,
        "slot": "1",
        "type": "t_mapping(t_bytes32,t_struct(AddressSet)21530_storage)"
      }
    ],
    "types": {
      "t_address": {
        "encoding": "inplace",
        "label": "address",
        "numberOfBytes": "20"
      },
      "t_array(t_bytes32)dyn_storage": {
        "base": "t_bytes32",
        "encoding": "dynamic_array",
        "label": "bytes32[]",
        "numberOfBytes": "32"
      },
      "t_bool": {
        "encoding": "inplace",
        "label": "bool",
        "numberOfBytes": "1"
      },
      "t_bytes32": {
        "encoding": "inplace",
        "label": "bytes32",
        "numberOfBytes": "32"
      },
      "t_mapping(t_address,t_bool)": {
        "encoding": "mapping",
        "key": "t_address",
        "label": "mapping(address => bool)",
        "numberOfBytes": "32",
        "value": "t_bool"
      },
      "t_mapping(t_bytes32,t_struct(AddressSet)21530_storage)": {
        "encoding": "mapping",
        "key": "t_bytes32",
        "label": "mapping(bytes32 => struct EnumerableSet.AddressSet)",
        "numberOfBytes": "32",
        "value": "t_struct(AddressSet)21530_storage"
      },
      "t_mapping(t_bytes32,t_struct(RoleData)18839_storage)": {
        "encoding": "mapping",
        "key": "t_bytes32",
        "label": "mapping(bytes32 => struct AccessControl.RoleData)",
        "numberOfBytes": "32",
        "value": "t_struct(RoleData)18839_storage"
      },
      "t_mapping(t_bytes32,t_uint256)": {
        "encoding": "mapping",
        "key": "t_bytes32",
        "label": "mapping(bytes32 => uint256)",
        "numberOfBytes": "32",
        "value": "t_uint256"
      },
      "t_struct(AddressSet)21530_storage": {
        "encoding": "inplace",
        "label": "struct EnumerableSet.AddressSet",
        "members": [
          {
            "astId": 21529,
            "contract": "contracts/Factory/RAIR721_Deployer.sol:RAIR721_Deployer",
            "label": "_inner",
            "offset": 0,
            "slot": "0",
            "type": "t_struct(Set)21229_storage"
          }
        ],
        "numberOfBytes": "64"
      },
      "t_struct(RoleData)18839_storage": {
        "encoding": "inplace",
        "label": "struct AccessControl.RoleData",
        "members": [
          {
            "astId": 18836,
            "contract": "contracts/Factory/RAIR721_Deployer.sol:RAIR721_Deployer",
            "label": "members",
            "offset": 0,
            "slot": "0",
            "type": "t_mapping(t_address,t_bool)"
          },
          {
            "astId": 18838,
            "contract": "contracts/Factory/RAIR721_Deployer.sol:RAIR721_Deployer",
            "label": "adminRole",
            "offset": 0,
            "slot": "1",
            "type": "t_bytes32"
          }
        ],
        "numberOfBytes": "64"
      },
      "t_struct(Set)21229_storage": {
        "encoding": "inplace",
        "label": "struct EnumerableSet.Set",
        "members": [
          {
            "astId": 21224,
            "contract": "contracts/Factory/RAIR721_Deployer.sol:RAIR721_Deployer",
            "label": "_values",
            "offset": 0,
            "slot": "0",
            "type": "t_array(t_bytes32)dyn_storage"
          },
          {
            "astId": 21228,
            "contract": "contracts/Factory/RAIR721_Deployer.sol:RAIR721_Deployer",
            "label": "_indexes",
            "offset": 0,
            "slot": "1",
            "type": "t_mapping(t_bytes32,t_uint256)"
          }
        ],
        "numberOfBytes": "64"
      },
      "t_uint256": {
        "encoding": "inplace",
        "label": "uint256",
        "numberOfBytes": "32"
      }
    }
  }
}