{
    "address": "0xE71E90841a7f9331949e2d0ef40e0f93cf171863",
    "abi": [
        {
            "inputs": [
                {
                    "internalType": "address",
                    "name": "erc20",
                    "type": "address"
                }
            ],
            "stateMutability": "nonpayable",
            "type": "constructor"
        },
        {
            "inputs": [],
            "name": "AccessControlBadConfirmation",
            "type": "error"
        },
        {
            "inputs": [
                {
                    "internalType": "address",
                    "name": "account",
                    "type": "address"
                },
                {
                    "internalType": "bytes32",
                    "name": "neededRole",
                    "type": "bytes32"
                }
            ],
            "name": "AccessControlUnauthorizedAccount",
            "type": "error"
        },
        {
            "inputs": [
                {
                    "internalType": "address",
                    "name": "sender",
                    "type": "address"
                },
                {
                    "internalType": "uint256",
                    "name": "tokenId",
                    "type": "uint256"
                },
                {
                    "internalType": "address",
                    "name": "owner",
                    "type": "address"
                }
            ],
            "name": "ERC721IncorrectOwner",
            "type": "error"
        },
        {
            "inputs": [
                {
                    "internalType": "address",
                    "name": "operator",
                    "type": "address"
                },
                {
                    "internalType": "uint256",
                    "name": "tokenId",
                    "type": "uint256"
                }
            ],
            "name": "ERC721InsufficientApproval",
            "type": "error"
        },
        {
            "inputs": [
                {
                    "internalType": "address",
                    "name": "approver",
                    "type": "address"
                }
            ],
            "name": "ERC721InvalidApprover",
            "type": "error"
        },
        {
            "inputs": [
                {
                    "internalType": "address",
                    "name": "operator",
                    "type": "address"
                }
            ],
            "name": "ERC721InvalidOperator",
            "type": "error"
        },
        {
            "inputs": [
                {
                    "internalType": "address",
                    "name": "owner",
                    "type": "address"
                }
            ],
            "name": "ERC721InvalidOwner",
            "type": "error"
        },
        {
            "inputs": [
                {
                    "internalType": "address",
                    "name": "receiver",
                    "type": "address"
                }
            ],
            "name": "ERC721InvalidReceiver",
            "type": "error"
        },
        {
            "inputs": [
                {
                    "internalType": "address",
                    "name": "sender",
                    "type": "address"
                }
            ],
            "name": "ERC721InvalidSender",
            "type": "error"
        },
        {
            "inputs": [
                {
                    "internalType": "uint256",
                    "name": "tokenId",
                    "type": "uint256"
                }
            ],
            "name": "ERC721NonexistentToken",
            "type": "error"
        },
        {
            "anonymous": false,
            "inputs": [
                {
                    "indexed": true,
                    "internalType": "address",
                    "name": "owner",
                    "type": "address"
                },
                {
                    "indexed": true,
                    "internalType": "address",
                    "name": "approved",
                    "type": "address"
                },
                {
                    "indexed": true,
                    "internalType": "uint256",
                    "name": "tokenId",
                    "type": "uint256"
                }
            ],
            "name": "Approval",
            "type": "event"
        },
        {
            "anonymous": false,
            "inputs": [
                {
                    "indexed": true,
                    "internalType": "address",
                    "name": "owner",
                    "type": "address"
                },
                {
                    "indexed": true,
                    "internalType": "address",
                    "name": "operator",
                    "type": "address"
                },
                {
                    "indexed": false,
                    "internalType": "bool",
                    "name": "approved",
                    "type": "bool"
                }
            ],
            "name": "ApprovalForAll",
            "type": "event"
        },
        {
            "anonymous": false,
            "inputs": [
                {
                    "indexed": true,
                    "internalType": "bytes32",
                    "name": "role",
                    "type": "bytes32"
                },
                {
                    "indexed": true,
                    "internalType": "bytes32",
                    "name": "previousAdminRole",
                    "type": "bytes32"
                },
                {
                    "indexed": true,
                    "internalType": "bytes32",
                    "name": "newAdminRole",
                    "type": "bytes32"
                }
            ],
            "name": "RoleAdminChanged",
            "type": "event"
        },
        {
            "anonymous": false,
            "inputs": [
                {
                    "indexed": true,
                    "internalType": "bytes32",
                    "name": "role",
                    "type": "bytes32"
                },
                {
                    "indexed": true,
                    "internalType": "address",
                    "name": "account",
                    "type": "address"
                },
                {
                    "indexed": true,
                    "internalType": "address",
                    "name": "sender",
                    "type": "address"
                }
            ],
            "name": "RoleGranted",
            "type": "event"
        },
        {
            "anonymous": false,
            "inputs": [
                {
                    "indexed": true,
                    "internalType": "bytes32",
                    "name": "role",
                    "type": "bytes32"
                },
                {
                    "indexed": true,
                    "internalType": "address",
                    "name": "account",
                    "type": "address"
                },
                {
                    "indexed": true,
                    "internalType": "address",
                    "name": "sender",
                    "type": "address"
                }
            ],
            "name": "RoleRevoked",
            "type": "event"
        },
        {
            "anonymous": false,
            "inputs": [
                {
                    "indexed": true,
                    "internalType": "address",
                    "name": "from",
                    "type": "address"
                },
                {
                    "indexed": true,
                    "internalType": "address",
                    "name": "to",
                    "type": "address"
                },
                {
                    "indexed": true,
                    "internalType": "uint256",
                    "name": "tokenId",
                    "type": "uint256"
                }
            ],
            "name": "Transfer",
            "type": "event"
        },
        {
            "inputs": [],
            "name": "ADMIN",
            "outputs": [
                {
                    "internalType": "bytes32",
                    "name": "",
                    "type": "bytes32"
                }
            ],
            "stateMutability": "view",
            "type": "function"
        },
        {
            "inputs": [],
            "name": "DEFAULT_ADMIN_ROLE",
            "outputs": [
                {
                    "internalType": "bytes32",
                    "name": "",
                    "type": "bytes32"
                }
            ],
            "stateMutability": "view",
            "type": "function"
        },
        {
            "inputs": [
                {
                    "internalType": "address",
                    "name": "to",
                    "type": "address"
                },
                {
                    "internalType": "uint256",
                    "name": "tokenId",
                    "type": "uint256"
                }
            ],
            "name": "approve",
            "outputs": [],
            "stateMutability": "nonpayable",
            "type": "function"
        },
        {
            "inputs": [
                {
                    "internalType": "address",
                    "name": "owner",
                    "type": "address"
                }
            ],
            "name": "balanceOf",
            "outputs": [
                {
                    "internalType": "uint256",
                    "name": "",
                    "type": "uint256"
                }
            ],
            "stateMutability": "view",
            "type": "function"
        },
        {
            "inputs": [
                {
                    "internalType": "uint256",
                    "name": "index",
                    "type": "uint256"
                },
                {
                    "internalType": "address",
                    "name": "buyer",
                    "type": "address"
                },
                {
                    "internalType": "uint256",
                    "name": "erc20Price",
                    "type": "uint256"
                }
            ],
            "name": "generateLicenseHash",
            "outputs": [
                {
                    "internalType": "bytes32",
                    "name": "",
                    "type": "bytes32"
                }
            ],
            "stateMutability": "view",
            "type": "function"
        },
        {
            "inputs": [
                {
                    "internalType": "uint256",
                    "name": "tokenId",
                    "type": "uint256"
                }
            ],
            "name": "getApproved",
            "outputs": [
                {
                    "internalType": "address",
                    "name": "",
                    "type": "address"
                }
            ],
            "stateMutability": "view",
            "type": "function"
        },
        {
            "inputs": [
                {
                    "internalType": "bytes32",
                    "name": "role",
                    "type": "bytes32"
                }
            ],
            "name": "getRoleAdmin",
            "outputs": [
                {
                    "internalType": "bytes32",
                    "name": "",
                    "type": "bytes32"
                }
            ],
            "stateMutability": "view",
            "type": "function"
        },
        {
            "inputs": [
                {
                    "internalType": "bytes32",
                    "name": "role",
                    "type": "bytes32"
                },
                {
                    "internalType": "address",
                    "name": "account",
                    "type": "address"
                }
            ],
            "name": "grantRole",
            "outputs": [],
            "stateMutability": "nonpayable",
            "type": "function"
        },
        {
            "inputs": [
                {
                    "internalType": "bytes32",
                    "name": "role",
                    "type": "bytes32"
                },
                {
                    "internalType": "address",
                    "name": "account",
                    "type": "address"
                }
            ],
            "name": "hasRole",
            "outputs": [
                {
                    "internalType": "bool",
                    "name": "",
                    "type": "bool"
                }
            ],
            "stateMutability": "view",
            "type": "function"
        },
        {
            "inputs": [
                {
                    "internalType": "address",
                    "name": "owner",
                    "type": "address"
                },
                {
                    "internalType": "address",
                    "name": "operator",
                    "type": "address"
                }
            ],
            "name": "isApprovedForAll",
            "outputs": [
                {
                    "internalType": "bool",
                    "name": "",
                    "type": "bool"
                }
            ],
            "stateMutability": "view",
            "type": "function"
        },
        {
            "inputs": [
                {
                    "internalType": "string",
                    "name": "uri",
                    "type": "string"
                },
                {
                    "internalType": "string",
                    "name": "extension",
                    "type": "string"
                }
            ],
            "name": "metadataConfig",
            "outputs": [],
            "stateMutability": "nonpayable",
            "type": "function"
        },
        {
            "inputs": [
                {
                    "internalType": "uint256",
                    "name": "index",
                    "type": "uint256"
                },
                {
                    "internalType": "uint256",
                    "name": "erc20Price",
                    "type": "uint256"
                },
                {
                    "internalType": "bytes",
                    "name": "licenseHash",
                    "type": "bytes"
                }
            ],
            "name": "mint",
            "outputs": [],
            "stateMutability": "nonpayable",
            "type": "function"
        },
        {
            "inputs": [],
            "name": "name",
            "outputs": [
                {
                    "internalType": "string",
                    "name": "",
                    "type": "string"
                }
            ],
            "stateMutability": "view",
            "type": "function"
        },
        {
            "inputs": [
                {
                    "internalType": "uint256",
                    "name": "tokenId",
                    "type": "uint256"
                }
            ],
            "name": "ownerOf",
            "outputs": [
                {
                    "internalType": "address",
                    "name": "",
                    "type": "address"
                }
            ],
            "stateMutability": "view",
            "type": "function"
        },
        {
            "inputs": [
                {
                    "internalType": "bytes32",
                    "name": "role",
                    "type": "bytes32"
                },
                {
                    "internalType": "address",
                    "name": "callerConfirmation",
                    "type": "address"
                }
            ],
            "name": "renounceRole",
            "outputs": [],
            "stateMutability": "nonpayable",
            "type": "function"
        },
        {
            "inputs": [
                {
                    "internalType": "bytes32",
                    "name": "role",
                    "type": "bytes32"
                },
                {
                    "internalType": "address",
                    "name": "account",
                    "type": "address"
                }
            ],
            "name": "revokeRole",
            "outputs": [],
            "stateMutability": "nonpayable",
            "type": "function"
        },
        {
            "inputs": [
                {
                    "internalType": "address",
                    "name": "from",
                    "type": "address"
                },
                {
                    "internalType": "address",
                    "name": "to",
                    "type": "address"
                },
                {
                    "internalType": "uint256",
                    "name": "tokenId",
                    "type": "uint256"
                }
            ],
            "name": "safeTransferFrom",
            "outputs": [],
            "stateMutability": "nonpayable",
            "type": "function"
        },
        {
            "inputs": [
                {
                    "internalType": "address",
                    "name": "from",
                    "type": "address"
                },
                {
                    "internalType": "address",
                    "name": "to",
                    "type": "address"
                },
                {
                    "internalType": "uint256",
                    "name": "tokenId",
                    "type": "uint256"
                },
                {
                    "internalType": "bytes",
                    "name": "data",
                    "type": "bytes"
                }
            ],
            "name": "safeTransferFrom",
            "outputs": [],
            "stateMutability": "nonpayable",
            "type": "function"
        },
        {
            "inputs": [
                {
                    "internalType": "address",
                    "name": "operator",
                    "type": "address"
                },
                {
                    "internalType": "bool",
                    "name": "approved",
                    "type": "bool"
                }
            ],
            "name": "setApprovalForAll",
            "outputs": [],
            "stateMutability": "nonpayable",
            "type": "function"
        },
        {
            "inputs": [
                {
                    "internalType": "uint256",
                    "name": "newTime",
                    "type": "uint256"
                }
            ],
            "name": "setPurchasePeriod",
            "outputs": [],
            "stateMutability": "nonpayable",
            "type": "function"
        },
        {
            "inputs": [
                {
                    "internalType": "bytes4",
                    "name": "interfaceId",
                    "type": "bytes4"
                }
            ],
            "name": "supportsInterface",
            "outputs": [
                {
                    "internalType": "bool",
                    "name": "",
                    "type": "bool"
                }
            ],
            "stateMutability": "view",
            "type": "function"
        },
        {
            "inputs": [],
            "name": "symbol",
            "outputs": [
                {
                    "internalType": "string",
                    "name": "",
                    "type": "string"
                }
            ],
            "stateMutability": "view",
            "type": "function"
        },
        {
            "inputs": [
                {
                    "internalType": "uint256",
                    "name": "tokenId",
                    "type": "uint256"
                }
            ],
            "name": "tokenURI",
            "outputs": [
                {
                    "internalType": "string",
                    "name": "",
                    "type": "string"
                }
            ],
            "stateMutability": "view",
            "type": "function"
        },
        {
            "inputs": [
                {
                    "internalType": "address",
                    "name": "from",
                    "type": "address"
                },
                {
                    "internalType": "address",
                    "name": "to",
                    "type": "address"
                },
                {
                    "internalType": "uint256",
                    "name": "tokenId",
                    "type": "uint256"
                }
            ],
            "name": "transferFrom",
            "outputs": [],
            "stateMutability": "nonpayable",
            "type": "function"
        },
        {
            "inputs": [
                {
                    "internalType": "address",
                    "name": "erc20address",
                    "type": "address"
                }
            ],
            "name": "updateERC20Address",
            "outputs": [],
            "stateMutability": "nonpayable",
            "type": "function"
        }
    ],
    "transactionHash": "0x6590b40a868626db2f45516bb967b1a32c72f6246eebcf4f94dc2c0769fa49a3",
    "args": [
        "0x2b0fFbF00388f9078d5512256c43B983BB805eF8"
    ],
    "numDeployments": 1,
    "solcInputHash": "ce080efbad919343ea19f6e952e96ff1",
    "bytecode": "0x608060405234801561001057600080fd5b50604051611d80380380611d8083398101604081905261002f916101f5565b6040518060400160405280600c81526020016b149052549c1c9bdd1bd8dbdb60a21b815250604051806040016040528060068152602001654e4f5449434560d01b815250816000908161008291906102c6565b50600161008f82826102c6565b5050506100b0600080516020611d60833981519152806100fa60201b60201c565b6100bb600033610145565b506100d4600080516020611d6083398151915233610145565b50600780546001600160a01b0319166001600160a01b0392909216919091179055610385565b600082815260066020526040808220600101805490849055905190918391839186917fbd79b86ffe0ab8e8776151514217cd7cacd52c909f66475c3af44e129f0b00ff9190a4505050565b60008281526006602090815260408083206001600160a01b038516845290915281205460ff166101eb5760008381526006602090815260408083206001600160a01b03861684529091529020805460ff191660011790556101a33390565b6001600160a01b0316826001600160a01b0316847f2f8788117e7eff1d82e926ec794901d17c78024a50270940304540a733656f0d60405160405180910390a45060016101ef565b5060005b92915050565b60006020828403121561020757600080fd5b81516001600160a01b038116811461021e57600080fd5b9392505050565b634e487b7160e01b600052604160045260246000fd5b600181811c9082168061024f57607f821691505b60208210810361026f57634e487b7160e01b600052602260045260246000fd5b50919050565b601f8211156102c1576000816000526020600020601f850160051c8101602086101561029e5750805b601f850160051c820191505b818110156102bd578281556001016102aa565b5050505b505050565b81516001600160401b038111156102df576102df610225565b6102f3816102ed845461023b565b84610275565b602080601f83116001811461032857600084156103105750858301515b600019600386901b1c1916600185901b1785556102bd565b600085815260208120601f198616915b8281101561035757888601518255948401946001909101908401610338565b50858210156103755787850151600019600388901b60f8161c191681555b5050505050600190811b01905550565b6119cc806103946000396000f3fe608060405234801561001057600080fd5b50600436106101735760003560e01c80636352211e116100de57806395d89b4111610097578063b88d4fde11610071578063b88d4fde14610342578063c87b56dd14610355578063d547741f14610368578063e985e9c51461037b57600080fd5b806395d89b411461031f578063a217fddf14610327578063a22cb4651461032f57600080fd5b80636352211e146102ad5780636648cb52146102c05780636f879723146102d357806370a08231146102e65780637719cbf1146102f957806391d148541461030c57600080fd5b806323b872dd1161013057806323b872dd1461021b578063248a9ca31461022e5780632a0acc6a1461025f5780632f2ff15d1461027457806336568abe1461028757806342842e0e1461029a57600080fd5b806301ffc9a71461017857806306fdde03146101a0578063081812fc146101b557806308dc9f42146101e0578063095ea7b3146101f55780631b017fde14610208575b600080fd5b61018b6101863660046112f1565b61038e565b60405190151581526020015b60405180910390f35b6101a861039f565b6040516101979190611365565b6101c86101c3366004611378565b610431565b6040516001600160a01b039091168152602001610197565b6101f36101ee366004611434565b61045a565b005b6101f36102033660046114a0565b6105be565b6101f36102163660046114ca565b6105cd565b6101f36102293660046114e5565b610608565b61025161023c366004611378565b60009081526006602052604090206001015490565b604051908152602001610197565b61025160008051602061197783398151915281565b6101f3610282366004611521565b610693565b6101f3610295366004611521565b6106b8565b6101f36102a83660046114e5565b6106f0565b6101c86102bb366004611378565b61070b565b6101f36102ce366004611378565b610716565b6102516102e136600461154d565b610734565b6102516102f43660046114ca565b61079b565b6101f3610307366004611572565b6107e3565b61018b61031a366004611521565b610814565b6101a861083f565b610251600081565b6101f361033d3660046115e4565b61084e565b6101f361035036600461161b565b610859565b6101a8610363366004611378565b610870565b6101f3610376366004611521565b6108db565b61018b610389366004611683565b610900565b60006103998261092e565b92915050565b6060600080546103ae906116ad565b80601f01602080910402602001604051908101604052809291908181526020018280546103da906116ad565b80156104275780601f106103fc57610100808354040283529160200191610427565b820191906000526020600020905b81548152906001019060200180831161040a57829003601f168201915b5050505050905090565b600061043c82610953565b506000828152600460205260409020546001600160a01b0316610399565b6000610467843385610734565b905060006104c2826040517f19457468657265756d205369676e6564204d6573736167653a0a3332000000006020820152603c8101829052600090605c01604051602081830303815290604052805190602001209050919050565b90506104e060008051602061197783398151915261031a838661098c565b6105315760405162461bcd60e51b815260206004820152601f60248201527f4c6963656e7365204d696e743a20496e76616c6964207369676e61747572650060448201526064015b60405180910390fd5b6007546040516323b872dd60e01b8152336004820152306024820152604481018690526001600160a01b03909116906323b872dd906064016020604051808303816000875af1158015610588573d6000803e3d6000fd5b505050506040513d601f19601f820116820180604052508101906105ac91906116e7565b506105b73386610a0b565b5050505050565b6105c9828233610a25565b5050565b6000805160206119778339815191526105e581610a32565b50600780546001600160a01b0319166001600160a01b0392909216919091179055565b6001600160a01b03821661063257604051633250574960e11b815260006004820152602401610528565b600061063f838333610a3f565b9050836001600160a01b0316816001600160a01b03161461068d576040516364283d7b60e01b81526001600160a01b0380861660048301526024820184905282166044820152606401610528565b50505050565b6000828152600660205260409020600101546106ae81610a32565b61068d8383610b38565b6001600160a01b03811633146106e15760405163334bd91960e11b815260040160405180910390fd5b6106eb8282610bcc565b505050565b6106eb83838360405180602001604052806000815250610859565b600061039982610953565b60008051602061197783398151915261072e81610a32565b50600855565b6000838383610741610c39565b60405160200161077c949392919093845260609290921b6bffffffffffffffffffffffff191660208401526034830152605482015260740190565b6040516020818303038152906040528051906020012090509392505050565b60006001600160a01b0382166107c7576040516322718ad960e21b815260006004820152602401610528565b506001600160a01b031660009081526003602052604090205490565b6000805160206119778339815191526107fb81610a32565b60096108078482611754565b50600a61068d8382611754565b60009182526006602090815260408084206001600160a01b0393909316845291905290205460ff1690565b6060600180546103ae906116ad565b6105c9338383610c66565b610864848484610608565b61068d84848484610d05565b606061087b82610953565b5060006009805461088b906116ad565b9050116108a75760405180602001604052806000815250610399565b60096108b283610e27565b600a6040516020016108c693929190611887565b60405160208183030381529060405292915050565b6000828152600660205260409020600101546108f681610a32565b61068d8383610bcc565b6001600160a01b03918216600090815260056020908152604080832093909416825291909152205460ff1690565b60006001600160e01b03198216637965db0b60e01b1480610399575061039982610eba565b6000818152600260205260408120546001600160a01b03168061039957604051637e27328960e01b815260048101849052602401610528565b60008060008061099b85610f0a565b6040805160008152602081018083528b905260ff8316918101919091526060810184905260808101839052929550909350915060019060a0016020604051602081039080840390855afa1580156109f6573d6000803e3d6000fd5b5050604051601f190151979650505050505050565b6105c9828260405180602001604052806000815250610f7e565b6106eb8383836001610f95565b610a3c813361109b565b50565b6000828152600260205260408120546001600160a01b0390811690831615610a6c57610a6c8184866110d4565b6001600160a01b03811615610aaa57610a89600085600080610f95565b6001600160a01b038116600090815260036020526040902080546000190190555b6001600160a01b03851615610ad9576001600160a01b0385166000908152600360205260409020805460010190555b60008481526002602052604080822080546001600160a01b0319166001600160a01b0389811691821790925591518793918516917fddf252ad1be2c89b69c2b068fc378daa952ba7f163c4a11628f55a4df523b3ef91a4949350505050565b6000610b448383610814565b610bc45760008381526006602090815260408083206001600160a01b03861684529091529020805460ff19166001179055610b7c3390565b6001600160a01b0316826001600160a01b0316847f2f8788117e7eff1d82e926ec794901d17c78024a50270940304540a733656f0d60405160405180910390a4506001610399565b506000610399565b6000610bd88383610814565b15610bc45760008381526006602090815260408083206001600160a01b0386168085529252808320805460ff1916905551339286917ff6391f5c32d9c69d2a47ea670b442974b53935d1edc7fd64eb21e047a839171b9190a4506001610399565b6000610c466064426118d0565b610c519060646118f2565b905060085481610c619190611909565b905090565b6001600160a01b038216610c9857604051630b61174360e31b81526001600160a01b0383166004820152602401610528565b6001600160a01b03838116600081815260056020908152604080832094871680845294825291829020805460ff191686151590811790915591519182527f17307eab39ab6107e8899845ad3d59bd9653f200f220920489ca2b5937696c31910160405180910390a3505050565b6001600160a01b0383163b1561068d57604051630a85bd0160e11b81526001600160a01b0384169063150b7a0290610d4790339088908790879060040161191c565b6020604051808303816000875af1925050508015610d82575060408051601f3d908101601f19168201909252610d7f91810190611959565b60015b610deb573d808015610db0576040519150601f19603f3d011682016040523d82523d6000602084013e610db5565b606091505b508051600003610de357604051633250574960e11b81526001600160a01b0385166004820152602401610528565b805181602001fd5b6001600160e01b03198116630a85bd0160e11b146105b757604051633250574960e11b81526001600160a01b0385166004820152602401610528565b60606000610e3483611138565b600101905060008167ffffffffffffffff811115610e5457610e54611391565b6040519080825280601f01601f191660200182016040528015610e7e576020820181803683370190505b5090508181016020015b600019016f181899199a1a9b1b9c1cb0b131b232b360811b600a86061a8153600a8504945084610e8857509392505050565b60006001600160e01b031982166380ac58cd60e01b1480610eeb57506001600160e01b03198216635b5e139f60e01b145b8061039957506301ffc9a760e01b6001600160e01b0319831614610399565b60008060008351604114610f605760405162461bcd60e51b815260206004820181905260248201527f526573616c653a20696e76616c6964207369676e6174757265206c656e6774686044820152606401610528565b50505060208101516040820151606090920151909260009190911a90565b610f888383611210565b6106eb6000848484610d05565b8080610fa957506001600160a01b03821615155b1561106b576000610fb984610953565b90506001600160a01b03831615801590610fe55750826001600160a01b0316816001600160a01b031614155b8015610ff85750610ff68184610900565b155b156110215760405163a9fbf51f60e01b81526001600160a01b0384166004820152602401610528565b81156110695783856001600160a01b0316826001600160a01b03167f8c5be1e5ebec7d5bd14f71427d1e84f3dd0314c0f7b2291e5b200ac8c7c3b92560405160405180910390a45b505b5050600090815260046020526040902080546001600160a01b0319166001600160a01b0392909216919091179055565b6110a58282610814565b6105c95760405163e2517d3f60e01b81526001600160a01b038216600482015260248101839052604401610528565b6110df838383611275565b6106eb576001600160a01b03831661110d57604051637e27328960e01b815260048101829052602401610528565b60405163177e802f60e01b81526001600160a01b038316600482015260248101829052604401610528565b60008072184f03e93ff9f4daa797ed6e38ed64bf6a1f0160401b83106111775772184f03e93ff9f4daa797ed6e38ed64bf6a1f0160401b830492506040015b6d04ee2d6d415b85acef810000000083106111a3576d04ee2d6d415b85acef8100000000830492506020015b662386f26fc1000083106111c157662386f26fc10000830492506010015b6305f5e10083106111d9576305f5e100830492506008015b61271083106111ed57612710830492506004015b606483106111ff576064830492506002015b600a83106103995760010192915050565b6001600160a01b03821661123a57604051633250574960e11b815260006004820152602401610528565b600061124883836000610a3f565b90506001600160a01b038116156106eb576040516339e3563760e11b815260006004820152602401610528565b60006001600160a01b038316158015906112d35750826001600160a01b0316846001600160a01b031614806112af57506112af8484610900565b806112d357506000828152600460205260409020546001600160a01b038481169116145b949350505050565b6001600160e01b031981168114610a3c57600080fd5b60006020828403121561130357600080fd5b813561130e816112db565b9392505050565b60005b83811015611330578181015183820152602001611318565b50506000910152565b60008151808452611351816020860160208601611315565b601f01601f19169290920160200192915050565b60208152600061130e6020830184611339565b60006020828403121561138a57600080fd5b5035919050565b634e487b7160e01b600052604160045260246000fd5b600082601f8301126113b857600080fd5b813567ffffffffffffffff808211156113d3576113d3611391565b604051601f8301601f19908116603f011681019082821181831017156113fb576113fb611391565b8160405283815286602085880101111561141457600080fd5b836020870160208301376000602085830101528094505050505092915050565b60008060006060848603121561144957600080fd5b8335925060208401359150604084013567ffffffffffffffff81111561146e57600080fd5b61147a868287016113a7565b9150509250925092565b80356001600160a01b038116811461149b57600080fd5b919050565b600080604083850312156114b357600080fd5b6114bc83611484565b946020939093013593505050565b6000602082840312156114dc57600080fd5b61130e82611484565b6000806000606084860312156114fa57600080fd5b61150384611484565b925061151160208501611484565b9150604084013590509250925092565b6000806040838503121561153457600080fd5b8235915061154460208401611484565b90509250929050565b60008060006060848603121561156257600080fd5b8335925061151160208501611484565b6000806040838503121561158557600080fd5b823567ffffffffffffffff8082111561159d57600080fd5b6115a9868387016113a7565b935060208501359150808211156115bf57600080fd5b506115cc858286016113a7565b9150509250929050565b8015158114610a3c57600080fd5b600080604083850312156115f757600080fd5b61160083611484565b91506020830135611610816115d6565b809150509250929050565b6000806000806080858703121561163157600080fd5b61163a85611484565b935061164860208601611484565b925060408501359150606085013567ffffffffffffffff81111561166b57600080fd5b611677878288016113a7565b91505092959194509250565b6000806040838503121561169657600080fd5b61169f83611484565b915061154460208401611484565b600181811c908216806116c157607f821691505b6020821081036116e157634e487b7160e01b600052602260045260246000fd5b50919050565b6000602082840312156116f957600080fd5b815161130e816115d6565b601f8211156106eb576000816000526020600020601f850160051c8101602086101561172d5750805b601f850160051c820191505b8181101561174c57828155600101611739565b505050505050565b815167ffffffffffffffff81111561176e5761176e611391565b6117828161177c84546116ad565b84611704565b602080601f8311600181146117b7576000841561179f5750858301515b600019600386901b1c1916600185901b17855561174c565b600085815260208120601f198616915b828110156117e6578886015182559484019460019091019084016117c7565b50858210156118045787850151600019600388901b60f8161c191681555b5050505050600190811b01905550565b60008154611821816116ad565b60018281168015611839576001811461184e5761187d565b60ff198416875282151583028701945061187d565b8560005260208060002060005b858110156118745781548a82015290840190820161185b565b50505082870194505b5050505092915050565b60006118938286611814565b84516118a3818360208901611315565b6118af81830186611814565b979650505050505050565b634e487b7160e01b600052601160045260246000fd5b6000826118ed57634e487b7160e01b600052601260045260246000fd5b500490565b8082028115828204841417610399576103996118ba565b80820180821115610399576103996118ba565b6001600160a01b038581168252841660208201526040810183905260806060820181905260009061194f90830184611339565b9695505050505050565b60006020828403121561196b57600080fd5b815161130e816112db56fe172090ac4547977076dba7ab757213eddca36f42fa2393f62513c4f7e1aad55aa26469706673582212203c25c6fcba6fd0af9ab5c846f773e8c9c82dd2dfbfe8b24587e2fbde07deae9864736f6c63430008190033172090ac4547977076dba7ab757213eddca36f42fa2393f62513c4f7e1aad55a",
    "devdoc": {
        "errors": {
            "AccessControlBadConfirmation()": [
                {
                    "details": "The caller of a function is not the expected one. NOTE: Don't confuse with {AccessControlUnauthorizedAccount}."
                }
            ],
            "AccessControlUnauthorizedAccount(address,bytes32)": [
                {
                    "details": "The `account` is missing a role."
                }
            ],
            "ERC721IncorrectOwner(address,uint256,address)": [
                {
                    "details": "Indicates an error related to the ownership over a particular token. Used in transfers.",
                    "params": {
                        "owner": "Address of the current owner of a token.",
                        "sender": "Address whose tokens are being transferred.",
                        "tokenId": "Identifier number of a token."
                    }
                }
            ],
            "ERC721InsufficientApproval(address,uint256)": [
                {
                    "details": "Indicates a failure with the `operator`s approval. Used in transfers.",
                    "params": {
                        "operator": "Address that may be allowed to operate on tokens without being their owner.",
                        "tokenId": "Identifier number of a token."
                    }
                }
            ],
            "ERC721InvalidApprover(address)": [
                {
                    "details": "Indicates a failure with the `approver` of a token to be approved. Used in approvals.",
                    "params": {
                        "approver": "Address initiating an approval operation."
                    }
                }
            ],
            "ERC721InvalidOperator(address)": [
                {
                    "details": "Indicates a failure with the `operator` to be approved. Used in approvals.",
                    "params": {
                        "operator": "Address that may be allowed to operate on tokens without being their owner."
                    }
                }
            ],
            "ERC721InvalidOwner(address)": [
                {
                    "details": "Indicates that an address can't be an owner. For example, `address(0)` is a forbidden owner in EIP-20. Used in balance queries.",
                    "params": {
                        "owner": "Address of the current owner of a token."
                    }
                }
            ],
            "ERC721InvalidReceiver(address)": [
                {
                    "details": "Indicates a failure with the token `receiver`. Used in transfers.",
                    "params": {
                        "receiver": "Address to which tokens are being transferred."
                    }
                }
            ],
            "ERC721InvalidSender(address)": [
                {
                    "details": "Indicates a failure with the token `sender`. Used in transfers.",
                    "params": {
                        "sender": "Address whose tokens are being transferred."
                    }
                }
            ],
            "ERC721NonexistentToken(uint256)": [
                {
                    "details": "Indicates a `tokenId` whose `owner` is the zero address.",
                    "params": {
                        "tokenId": "Identifier number of a token."
                    }
                }
            ]
        },
        "events": {
            "Approval(address,address,uint256)": {
                "details": "Emitted when `owner` enables `approved` to manage the `tokenId` token."
            },
            "ApprovalForAll(address,address,bool)": {
                "details": "Emitted when `owner` enables or disables (`approved`) `operator` to manage all of its assets."
            },
            "RoleAdminChanged(bytes32,bytes32,bytes32)": {
                "details": "Emitted when `newAdminRole` is set as ``role``'s admin role, replacing `previousAdminRole` `DEFAULT_ADMIN_ROLE` is the starting admin for all roles, despite {RoleAdminChanged} not being emitted signaling this."
            },
            "RoleGranted(bytes32,address,address)": {
                "details": "Emitted when `account` is granted `role`. `sender` is the account that originated the contract call, an admin role bearer except when using {AccessControl-_setupRole}."
            },
            "RoleRevoked(bytes32,address,address)": {
                "details": "Emitted when `account` is revoked `role`. `sender` is the account that originated the contract call:   - if using `revokeRole`, it is the admin role bearer   - if using `renounceRole`, it is the role bearer (i.e. `account`)"
            },
            "Transfer(address,address,uint256)": {
                "details": "Emitted when `tokenId` token is transferred from `from` to `to`."
            }
        },
        "kind": "dev",
        "methods": {
            "approve(address,uint256)": {
                "details": "See {IERC721-approve}."
            },
            "balanceOf(address)": {
                "details": "See {IERC721-balanceOf}."
            },
            "getApproved(uint256)": {
                "details": "See {IERC721-getApproved}."
            },
            "getRoleAdmin(bytes32)": {
                "details": "Returns the admin role that controls `role`. See {grantRole} and {revokeRole}. To change a role's admin, use {_setRoleAdmin}."
            },
            "grantRole(bytes32,address)": {
                "details": "Grants `role` to `account`. If `account` had not been already granted `role`, emits a {RoleGranted} event. Requirements: - the caller must have ``role``'s admin role. May emit a {RoleGranted} event."
            },
            "hasRole(bytes32,address)": {
                "details": "Returns `true` if `account` has been granted `role`."
            },
            "isApprovedForAll(address,address)": {
                "details": "See {IERC721-isApprovedForAll}."
            },
            "name()": {
                "details": "See {IERC721Metadata-name}."
            },
            "ownerOf(uint256)": {
                "details": "See {IERC721-ownerOf}."
            },
            "renounceRole(bytes32,address)": {
                "details": "Revokes `role` from the calling account. Roles are often managed via {grantRole} and {revokeRole}: this function's purpose is to provide a mechanism for accounts to lose their privileges if they are compromised (such as when a trusted device is misplaced). If the calling account had been revoked `role`, emits a {RoleRevoked} event. Requirements: - the caller must be `callerConfirmation`. May emit a {RoleRevoked} event."
            },
            "revokeRole(bytes32,address)": {
                "details": "Revokes `role` from `account`. If `account` had been granted `role`, emits a {RoleRevoked} event. Requirements: - the caller must have ``role``'s admin role. May emit a {RoleRevoked} event."
            },
            "safeTransferFrom(address,address,uint256)": {
                "details": "See {IERC721-safeTransferFrom}."
            },
            "safeTransferFrom(address,address,uint256,bytes)": {
                "details": "See {IERC721-safeTransferFrom}."
            },
            "setApprovalForAll(address,bool)": {
                "details": "See {IERC721-setApprovalForAll}."
            },
            "symbol()": {
                "details": "See {IERC721Metadata-symbol}."
            },
            "tokenURI(uint256)": {
                "details": "See {IERC721Metadata-tokenURI}."
            },
            "transferFrom(address,address,uint256)": {
                "details": "See {IERC721-transferFrom}."
            }
        },
        "version": 1
    },
    "userdoc": {
        "kind": "user",
        "methods": {},
        "version": 1
    },
    "storageLayout": {
        "storage": [
            {
                "astId": 626,
                "contract": "contracts/exchange/ERC20Exchange.sol:ERC20Exchange",
                "label": "_name",
                "offset": 0,
                "slot": "0",
                "type": "t_string_storage"
            },
            {
                "astId": 628,
                "contract": "contracts/exchange/ERC20Exchange.sol:ERC20Exchange",
                "label": "_symbol",
                "offset": 0,
                "slot": "1",
                "type": "t_string_storage"
            },
            {
                "astId": 632,
                "contract": "contracts/exchange/ERC20Exchange.sol:ERC20Exchange",
                "label": "_owners",
                "offset": 0,
                "slot": "2",
                "type": "t_mapping(t_uint256,t_address)"
            },
            {
                "astId": 636,
                "contract": "contracts/exchange/ERC20Exchange.sol:ERC20Exchange",
                "label": "_balances",
                "offset": 0,
                "slot": "3",
                "type": "t_mapping(t_address,t_uint256)"
            },
            {
                "astId": 640,
                "contract": "contracts/exchange/ERC20Exchange.sol:ERC20Exchange",
                "label": "_tokenApprovals",
                "offset": 0,
                "slot": "4",
                "type": "t_mapping(t_uint256,t_address)"
            },
            {
                "astId": 646,
                "contract": "contracts/exchange/ERC20Exchange.sol:ERC20Exchange",
                "label": "_operatorApprovals",
                "offset": 0,
                "slot": "5",
                "type": "t_mapping(t_address,t_mapping(t_address,t_bool))"
            },
            {
                "astId": 26,
                "contract": "contracts/exchange/ERC20Exchange.sol:ERC20Exchange",
                "label": "_roles",
                "offset": 0,
                "slot": "6",
                "type": "t_mapping(t_bytes32,t_struct(RoleData)21_storage)"
            },
            {
                "astId": 3340,
                "contract": "contracts/exchange/ERC20Exchange.sol:ERC20Exchange",
                "label": "currentERC20",
                "offset": 0,
                "slot": "7",
                "type": "t_address"
            },
            {
                "astId": 3342,
                "contract": "contracts/exchange/ERC20Exchange.sol:ERC20Exchange",
                "label": "purchasePeriod",
                "offset": 0,
                "slot": "8",
                "type": "t_uint256"
            },
            {
                "astId": 3344,
                "contract": "contracts/exchange/ERC20Exchange.sol:ERC20Exchange",
                "label": "baseURI",
                "offset": 0,
                "slot": "9",
                "type": "t_string_storage"
            },
            {
                "astId": 3346,
                "contract": "contracts/exchange/ERC20Exchange.sol:ERC20Exchange",
                "label": "metadataExtension",
                "offset": 0,
                "slot": "10",
                "type": "t_string_storage"
            }
        ],
        "types": {
            "t_address": {
                "encoding": "inplace",
                "label": "address",
                "numberOfBytes": "20"
            },
            "t_bool": {
                "encoding": "inplace",
                "label": "bool",
                "numberOfBytes": "1"
            },
            "t_bytes32": {
                "encoding": "inplace",
                "label": "bytes32",
                "numberOfBytes": "32"
            },
            "t_mapping(t_address,t_bool)": {
                "encoding": "mapping",
                "key": "t_address",
                "label": "mapping(address => bool)",
                "numberOfBytes": "32",
                "value": "t_bool"
            },
            "t_mapping(t_address,t_mapping(t_address,t_bool))": {
                "encoding": "mapping",
                "key": "t_address",
                "label": "mapping(address => mapping(address => bool))",
                "numberOfBytes": "32",
                "value": "t_mapping(t_address,t_bool)"
            },
            "t_mapping(t_address,t_uint256)": {
                "encoding": "mapping",
                "key": "t_address",
                "label": "mapping(address => uint256)",
                "numberOfBytes": "32",
                "value": "t_uint256"
            },
            "t_mapping(t_bytes32,t_struct(RoleData)21_storage)": {
                "encoding": "mapping",
                "key": "t_bytes32",
                "label": "mapping(bytes32 => struct AccessControl.RoleData)",
                "numberOfBytes": "32",
                "value": "t_struct(RoleData)21_storage"
            },
            "t_mapping(t_uint256,t_address)": {
                "encoding": "mapping",
                "key": "t_uint256",
                "label": "mapping(uint256 => address)",
                "numberOfBytes": "32",
                "value": "t_address"
            },
            "t_string_storage": {
                "encoding": "bytes",
                "label": "string",
                "numberOfBytes": "32"
            },
            "t_struct(RoleData)21_storage": {
                "encoding": "inplace",
                "label": "struct AccessControl.RoleData",
                "members": [
                    {
                        "astId": 18,
                        "contract": "contracts/exchange/ERC20Exchange.sol:ERC20Exchange",
                        "label": "hasRole",
                        "offset": 0,
                        "slot": "0",
                        "type": "t_mapping(t_address,t_bool)"
                    },
                    {
                        "astId": 20,
                        "contract": "contracts/exchange/ERC20Exchange.sol:ERC20Exchange",
                        "label": "adminRole",
                        "offset": 0,
                        "slot": "1",
                        "type": "t_bytes32"
                    }
                ],
                "numberOfBytes": "64"
            },
            "t_uint256": {
                "encoding": "inplace",
                "label": "uint256",
                "numberOfBytes": "32"
            }
        }
    }
}