{
  "address": "0xcBA6014452e82eBF98fA2748BBD46f1733a13AdD",
  "abi": [
    {
      "inputs": [
        {
          "internalType": "address",
          "name": "_treasury",
          "type": "address"
        },
        {
          "internalType": "uint16",
          "name": "_treasuryFee",
          "type": "uint16"
        },
        {
          "internalType": "uint16",
          "name": "_nodeFee",
          "type": "uint16"
        }
      ],
      "stateMutability": "nonpayable",
      "type": "constructor"
    },
    {
      "anonymous": false,
      "inputs": [
        {
          "indexed": false,
          "internalType": "address",
          "name": "contractAddress",
          "type": "address"
        },
        {
          "indexed": false,
          "internalType": "uint256",
          "name": "productIndex",
          "type": "uint256"
        },
        {
          "indexed": false,
          "internalType": "uint256",
          "name": "rangesCreated",
          "type": "uint256"
        },
        {
          "indexed": false,
          "internalType": "uint256",
          "name": "catalogIndex",
          "type": "uint256"
        }
      ],
      "name": "AddedOffer",
      "type": "event"
    },
    {
      "anonymous": false,
      "inputs": [
        {
          "indexed": false,
          "internalType": "address",
          "name": "contractAddress",
          "type": "address"
        },
        {
          "indexed": false,
          "internalType": "uint256",
          "name": "productIndex",
          "type": "uint256"
        },
        {
          "indexed": false,
          "internalType": "uint256",
          "name": "offerIndex",
          "type": "uint256"
        },
        {
          "indexed": false,
          "internalType": "uint256",
          "name": "rangeIndex",
          "type": "uint256"
        },
        {
          "indexed": false,
          "internalType": "uint256",
          "name": "startToken",
          "type": "uint256"
        },
        {
          "indexed": false,
          "internalType": "uint256",
          "name": "endToken",
          "type": "uint256"
        },
        {
          "indexed": false,
          "internalType": "uint256",
          "name": "price",
          "type": "uint256"
        },
        {
          "indexed": false,
          "internalType": "string",
          "name": "name",
          "type": "string"
        }
      ],
      "name": "AppendedRange",
      "type": "event"
    },
    {
      "anonymous": false,
      "inputs": [
        {
          "indexed": false,
          "internalType": "uint16",
          "name": "newNodeFee",
          "type": "uint16"
        }
      ],
      "name": "ChangedNodeFee",
      "type": "event"
    },
    {
      "anonymous": false,
      "inputs": [
        {
          "indexed": false,
          "internalType": "address",
          "name": "newTreasury",
          "type": "address"
        }
      ],
      "name": "ChangedTreasury",
      "type": "event"
    },
    {
      "anonymous": false,
      "inputs": [
        {
          "indexed": false,
          "internalType": "address",
          "name": "treasury",
          "type": "address"
        },
        {
          "indexed": false,
          "internalType": "uint16",
          "name": "newTreasuryFee",
          "type": "uint16"
        }
      ],
      "name": "ChangedTreasuryFee",
      "type": "event"
    },
    {
      "anonymous": false,
      "inputs": [
        {
          "indexed": false,
          "internalType": "uint256",
          "name": "catalogIndex",
          "type": "uint256"
        },
        {
          "indexed": false,
          "internalType": "address[]",
          "name": "recipients",
          "type": "address[]"
        },
        {
          "indexed": false,
          "internalType": "uint256[]",
          "name": "percentages",
          "type": "uint256[]"
        }
      ],
      "name": "CustomPaymentSet",
      "type": "event"
    },
    {
      "anonymous": false,
      "inputs": [
        {
          "indexed": true,
          "internalType": "address",
          "name": "previousOwner",
          "type": "address"
        },
        {
          "indexed": true,
          "internalType": "address",
          "name": "newOwner",
          "type": "address"
        }
      ],
      "name": "OwnershipTransferred",
      "type": "event"
    },
    {
      "anonymous": false,
      "inputs": [
        {
          "indexed": false,
          "internalType": "address",
          "name": "contractAddress",
          "type": "address"
        },
        {
          "indexed": false,
          "internalType": "uint256",
          "name": "catalogIndex",
          "type": "uint256"
        },
        {
          "indexed": false,
          "internalType": "uint256",
          "name": "rangeIndex",
          "type": "uint256"
        }
      ],
      "name": "SoldOut",
      "type": "event"
    },
    {
      "anonymous": false,
      "inputs": [
        {
          "indexed": false,
          "internalType": "address",
          "name": "ownerAddress",
          "type": "address"
        },
        {
          "indexed": false,
          "internalType": "address",
          "name": "contractAddress",
          "type": "address"
        },
        {
          "indexed": false,
          "internalType": "uint256",
          "name": "catalogIndex",
          "type": "uint256"
        },
        {
          "indexed": false,
          "internalType": "uint256",
          "name": "rangeIndex",
          "type": "uint256"
        },
        {
          "indexed": false,
          "internalType": "uint256",
          "name": "tokenIndex",
          "type": "uint256"
        }
      ],
      "name": "TokenMinted",
      "type": "event"
    },
    {
      "anonymous": false,
      "inputs": [
        {
          "indexed": false,
          "internalType": "address",
          "name": "contractAddress",
          "type": "address"
        },
        {
          "indexed": false,
          "internalType": "uint256",
          "name": "offerIndex",
          "type": "uint256"
        },
        {
          "indexed": false,
          "internalType": "uint256",
          "name": "rangeIndex",
          "type": "uint256"
        },
        {
          "indexed": false,
          "internalType": "uint256",
          "name": "tokens",
          "type": "uint256"
        },
        {
          "indexed": false,
          "internalType": "uint256",
          "name": "price",
          "type": "uint256"
        },
        {
          "indexed": false,
          "internalType": "string",
          "name": "name",
          "type": "string"
        }
      ],
      "name": "UpdatedOffer",
      "type": "event"
    },
    {
      "inputs": [
        {
          "internalType": "address",
          "name": "_tokenAddress",
          "type": "address"
        },
        {
          "internalType": "uint256",
          "name": "_productIndex",
          "type": "uint256"
        },
        {
          "internalType": "uint256[]",
          "name": "_rangeStartToken",
          "type": "uint256[]"
        },
        {
          "internalType": "uint256[]",
          "name": "_rangeEndToken",
          "type": "uint256[]"
        },
        {
          "internalType": "uint256[]",
          "name": "_rangePrice",
          "type": "uint256[]"
        },
        {
          "internalType": "string[]",
          "name": "_rangeName",
          "type": "string[]"
        },
        {
          "internalType": "address",
          "name": "_nodeAddress",
          "type": "address"
        }
      ],
      "name": "addOffer",
      "outputs": [],
      "stateMutability": "nonpayable",
      "type": "function"
    },
    {
      "inputs": [
        {
          "internalType": "uint256",
          "name": "offerIndex",
          "type": "uint256"
        },
        {
          "internalType": "uint256",
          "name": "startToken",
          "type": "uint256"
        },
        {
          "internalType": "uint256",
          "name": "endToken",
          "type": "uint256"
        },
        {
          "internalType": "uint256",
          "name": "price",
          "type": "uint256"
        },
        {
          "internalType": "string",
          "name": "name",
          "type": "string"
        }
      ],
      "name": "appendOfferRange",
      "outputs": [],
      "stateMutability": "nonpayable",
      "type": "function"
    },
    {
      "inputs": [
        {
          "internalType": "uint256",
          "name": "offerIndex",
          "type": "uint256"
        },
        {
          "internalType": "uint256[]",
          "name": "startTokens",
          "type": "uint256[]"
        },
        {
          "internalType": "uint256[]",
          "name": "endTokens",
          "type": "uint256[]"
        },
        {
          "internalType": "uint256[]",
          "name": "prices",
          "type": "uint256[]"
        },
        {
          "internalType": "string[]",
          "name": "names",
          "type": "string[]"
        }
      ],
      "name": "appendOfferRangeBatch",
      "outputs": [],
      "stateMutability": "nonpayable",
      "type": "function"
    },
    {
      "inputs": [
        {
          "internalType": "uint256",
          "name": "catalogIndex",
          "type": "uint256"
        },
        {
          "internalType": "uint256",
          "name": "rangeIndex",
          "type": "uint256"
        },
        {
          "internalType": "uint256",
          "name": "internalTokenIndex",
          "type": "uint256"
        }
      ],
      "name": "buyToken",
      "outputs": [],
      "stateMutability": "payable",
      "type": "function"
    },
    {
      "inputs": [
        {
          "internalType": "uint256",
          "name": "catalogIndex",
          "type": "uint256"
        },
        {
          "internalType": "uint256",
          "name": "rangeIndex",
          "type": "uint256"
        },
        {
          "internalType": "uint256[]",
          "name": "tokenIndexes",
          "type": "uint256[]"
        },
        {
          "internalType": "address[]",
          "name": "recipients",
          "type": "address[]"
        }
      ],
      "name": "buyTokenBatch",
      "outputs": [],
      "stateMutability": "payable",
      "type": "function"
    },
    {
      "inputs": [
        {
          "internalType": "address",
          "name": "erc721Address",
          "type": "address"
        },
        {
          "internalType": "uint256",
          "name": "productIndex",
          "type": "uint256"
        }
      ],
      "name": "contractToOfferRange",
      "outputs": [
        {
          "internalType": "uint256",
          "name": "offerIndex",
          "type": "uint256"
        }
      ],
      "stateMutability": "view",
      "type": "function"
    },
    {
      "inputs": [],
      "name": "feeDecimals",
      "outputs": [
        {
          "internalType": "uint16",
          "name": "",
          "type": "uint16"
        }
      ],
      "stateMutability": "view",
      "type": "function"
    },
    {
      "inputs": [],
      "name": "getOfferCount",
      "outputs": [
        {
          "internalType": "uint256",
          "name": "",
          "type": "uint256"
        }
      ],
      "stateMutability": "view",
      "type": "function"
    },
    {
      "inputs": [
        {
          "internalType": "uint256",
          "name": "_index",
          "type": "uint256"
        }
      ],
      "name": "getOfferInfo",
      "outputs": [
        {
          "internalType": "address",
          "name": "contractAddress",
          "type": "address"
        },
        {
          "internalType": "uint256",
          "name": "productIndex",
          "type": "uint256"
        },
        {
          "internalType": "address",
          "name": "nodeAddress",
          "type": "address"
        },
        {
          "internalType": "uint256",
          "name": "availableRanges",
          "type": "uint256"
        }
      ],
      "stateMutability": "view",
      "type": "function"
    },
    {
      "inputs": [
        {
          "internalType": "uint256",
          "name": "offerIndex",
          "type": "uint256"
        },
        {
          "internalType": "uint256",
          "name": "rangeIndex",
          "type": "uint256"
        }
      ],
      "name": "getOfferRangeInfo",
      "outputs": [
        {
          "internalType": "address",
          "name": "contractAddress",
          "type": "address"
        },
        {
          "internalType": "uint256",
          "name": "collectionIndex",
          "type": "uint256"
        },
        {
          "internalType": "uint256",
          "name": "tokenStart",
          "type": "uint256"
        },
        {
          "internalType": "uint256",
          "name": "tokenEnd",
          "type": "uint256"
        },
        {
          "internalType": "uint256",
          "name": "tokensAllowed",
          "type": "uint256"
        },
        {
          "internalType": "uint256",
          "name": "price",
          "type": "uint256"
        },
        {
          "internalType": "string",
          "name": "name",
          "type": "string"
        }
      ],
      "stateMutability": "view",
      "type": "function"
    },
    {
      "inputs": [],
      "name": "nodeFee",
      "outputs": [
        {
          "internalType": "uint16",
          "name": "",
          "type": "uint16"
        }
      ],
      "stateMutability": "view",
      "type": "function"
    },
    {
      "inputs": [],
      "name": "openSales",
      "outputs": [
        {
          "internalType": "uint256",
          "name": "",
          "type": "uint256"
        }
      ],
      "stateMutability": "view",
      "type": "function"
    },
    {
      "inputs": [],
      "name": "owner",
      "outputs": [
        {
          "internalType": "address",
          "name": "",
          "type": "address"
        }
      ],
      "stateMutability": "view",
      "type": "function"
    },
    {
      "inputs": [],
      "name": "renounceOwnership",
      "outputs": [],
      "stateMutability": "nonpayable",
      "type": "function"
    },
    {
      "inputs": [
        {
          "internalType": "uint256",
          "name": "catalogIndex",
          "type": "uint256"
        },
        {
          "internalType": "address[]",
          "name": "recipients",
          "type": "address[]"
        },
        {
          "internalType": "uint256[]",
          "name": "percentages",
          "type": "uint256[]"
        }
      ],
      "name": "setCustomPayment",
      "outputs": [],
      "stateMutability": "nonpayable",
      "type": "function"
    },
    {
      "inputs": [
        {
          "internalType": "uint16",
          "name": "_newFee",
          "type": "uint16"
        }
      ],
      "name": "setNodeFee",
      "outputs": [],
      "stateMutability": "nonpayable",
      "type": "function"
    },
    {
      "inputs": [
        {
          "internalType": "address",
          "name": "_newTreasury",
          "type": "address"
        }
      ],
      "name": "setTreasuryAddress",
      "outputs": [],
      "stateMutability": "nonpayable",
      "type": "function"
    },
    {
      "inputs": [
        {
          "internalType": "uint16",
          "name": "_newFee",
          "type": "uint16"
        }
      ],
      "name": "setTreasuryFee",
      "outputs": [],
      "stateMutability": "nonpayable",
      "type": "function"
    },
    {
      "inputs": [
        {
          "internalType": "address",
          "name": "newOwner",
          "type": "address"
        }
      ],
      "name": "transferOwnership",
      "outputs": [],
      "stateMutability": "nonpayable",
      "type": "function"
    },
    {
      "inputs": [],
      "name": "treasury",
      "outputs": [
        {
          "internalType": "address",
          "name": "",
          "type": "address"
        }
      ],
      "stateMutability": "view",
      "type": "function"
    },
    {
      "inputs": [],
      "name": "treasuryFee",
      "outputs": [
        {
          "internalType": "uint16",
          "name": "",
          "type": "uint16"
        }
      ],
      "stateMutability": "view",
      "type": "function"
    },
    {
      "inputs": [
        {
          "internalType": "uint256",
          "name": "offerIndex",
          "type": "uint256"
        },
        {
          "internalType": "uint256",
          "name": "rangeIndex",
          "type": "uint256"
        },
        {
          "internalType": "uint256",
          "name": "startToken",
          "type": "uint256"
        },
        {
          "internalType": "uint256",
          "name": "endToken",
          "type": "uint256"
        },
        {
          "internalType": "uint256",
          "name": "price",
          "type": "uint256"
        },
        {
          "internalType": "string",
          "name": "name",
          "type": "string"
        }
      ],
      "name": "updateOfferRange",
      "outputs": [],
      "stateMutability": "nonpayable",
      "type": "function"
    },
    {
      "inputs": [
        {
          "internalType": "address",
          "name": "tokenAddress",
          "type": "address"
        }
      ],
      "name": "validateRoles",
      "outputs": [
        {
          "internalType": "bool",
          "name": "canOffer",
          "type": "bool"
        }
      ],
      "stateMutability": "view",
      "type": "function"
    }
  ],
  "transactionHash": "0xca81761ee280436c21eed9fca5b2ad2b8fa2ca1d4f5b3bd9d67adf00d996bc32",
  "args": [
    "0x3fD4268B03cce553f180E77dfC14fde00271F9B7",
    9000,
    1000
  ],
  "solcInputHash": "e73b04e42aa5c912061f9c99ac4780a8",
  "bytecode": "0x60806040523480156200001157600080fd5b506040516200456d3803806200456d8339810160408190526200003491620000f7565b6200003f336200008f565b600480546001600160a01b039094166001600160a01b0319909416939093179092556006805461ffff938416620100000263ffffffff19909116939092169290921717905560006005556200014e565b600080546001600160a01b038381166001600160a01b0319831681178455604051919092169283917f8be0079c531659141344cd1fd0a4f28419497f9722a3daafe3b4186f6b6457e09190a35050565b805161ffff81168114620000f257600080fd5b919050565b6000806000606084860312156200010d57600080fd5b83516001600160a01b03811681146200012557600080fd5b92506200013560208501620000df565b91506200014560408501620000df565b90509250925092565b61440f806200015e6000396000f3fe6080604052600436106101405760003560e01c80639c13108c116100b6578063d048db371161006f578063d048db37146103d7578063de2d554b146103ec578063e4ccbe6c146103ff578063f2fde38b1461041f578063f41625301461043f578063f7ca892a1461046057600080fd5b80639c13108c146102f3578063a652db4914610321578063b430029514610341578063ca3dba5d14610361578063cc0f178614610394578063cc32d176146103bc57600080fd5b806361d027b31161010857806361d027b3146102285780636605bfda14610260578063665b64dd14610280578063715018a6146102a057806375cb00ea146102b55780638da5cb5b146102d557600080fd5b806326502ed7146101455780632a1da9821461015a5780633539a52c146101b857806338b2c833146101d8578063607814b2146101f8575b600080fd5b61015861015336600461363c565b610476565b005b34801561016657600080fd5b5061017a6101753660046136be565b610db1565b6040516101af94939291906001600160a01b039485168152602081019390935292166040820152606081019190915260800190565b60405180910390f35b3480156101c457600080fd5b506101586101d3366004613718565b611066565b3480156101e457600080fd5b506101586101f336600461386a565b6111f6565b34801561020457600080fd5b50610218610213366004613a00565b61141a565b60405190151581526020016101af565b34801561023457600080fd5b50600454610248906001600160a01b031681565b6040516001600160a01b0390911681526020016101af565b34801561026c57600080fd5b5061015861027b366004613a00565b61162c565b34801561028c57600080fd5b5061015861029b366004613a24565b6116ab565b3480156102ac57600080fd5b50610158611ba6565b3480156102c157600080fd5b506101586102d0366004613b16565b611bdc565b3480156102e157600080fd5b506000546001600160a01b0316610248565b3480156102ff57600080fd5b5061031361030e366004613b89565b611f56565b6040519081526020016101af565b34801561032d57600080fd5b5061015861033c366004613bb5565b61218e565b34801561034d57600080fd5b5061015861035c366004613bd9565b612210565b34801561036d57600080fd5b5061038161037c366004613c52565b61259d565b6040516101af9796959493929190613ccc565b3480156103a057600080fd5b506103a9600381565b60405161ffff90911681526020016101af565b3480156103c857600080fd5b506006546103a99061ffff1681565b3480156103e357600080fd5b50600354610313565b6101586103fa366004613d18565b6128f2565b34801561040b57600080fd5b5061015861041a366004613bb5565b61305c565b34801561042b57600080fd5b5061015861043a366004613a00565b6130d4565b34801561044b57600080fd5b506006546103a99062010000900461ffff1681565b34801561046c57600080fd5b5061031360055481565b60006003878154811061048b5761048b613d44565b6000918252602090912060089091020180549091506001600160a01b03166104ce5760405162461bcd60e51b81526004016104c590613d5a565b60405180910390fd5b600581015486106104f15760405162461bcd60e51b81526004016104c590613da8565b8484905081600501878154811061050a5761050a613d44565b906000526020600020015410156105935760405162461bcd60e51b815260206004820152604160248201527f4d696e74696e67204d61726b6574706c6163653a2043616e6e6f74206d696e7460448201527f2074686174206d616e7920746f6b656e7320666f7220746869732072616e67656064820152602160f81b608482015260a4016104c5565b848490508160060187815481106105ac576105ac613d44565b90600052602060002001546105c19190613e01565b3410156105e05760405162461bcd60e51b81526004016104c590613e20565b83821461066b5760405162461bcd60e51b815260206004820152604d60248201527f4d696e74696e67204d61726b6574706c6163653a20546f6b656e20496e64657860448201527f657320616e6420526563697069656e74732073686f756c64206861766520746860648201526c0ca40e6c2daca40d8cadccee8d609b1b608482015260a4016104c5565b60008781526002602052604090208054156107655760005b815481101561075f578160000181815481106106a1576106a1613d44565b6000918252602090912001546001830180546001600160a01b03909216916108fc918991620186a09190869081106106db576106db613d44565b9060005260206000200154876006018d815481106106fb576106fb613d44565b90600052602060002001546107109190613e01565b61071a9190613e67565b6107249190613e01565b6040518115909202916000818181858888f1935050505015801561074c573d6000803e3d6000fd5b508061075781613e89565b915050610683565b50610956565b81546040516301ffc9a760e01b8152632baae9fd60e01b6004820152600091829182916001600160a01b0316906301ffc9a79060240160206040518083038186803b1580156107b357600080fd5b505afa1580156107c7573d6000803e3d6000fd5b505050506040513d601f19601f820116820180604052508101906107eb9190613ea4565b905080156109525784546006860180546001600160a01b0390921691632a55205a916000918e90811061082057610820613d44565b90600052602060002001546040518363ffffffff1660e01b8152600401610851929190918252602082015260400190565b604080518083038186803b15801561086857600080fd5b505afa15801561087c573d6000803e3d6000fd5b505050506040513d601f19601f820116820180604052508101906108a09190613ec6565b60065491945092506001600160a01b038416906108fc908a90620186a0906108d49061ffff62010000820481169116613ef4565b6108e59061ffff16620186a0613f1a565b62ffffff16896006018f815481106108ff576108ff613d44565b90600052602060002001546109149190613e01565b61091e9190613e67565b6109289190613e01565b6040518115909202916000818181858888f19350505050158015610950573d6000803e3d6000fd5b505b5050505b336001600160a01b03166108fc87879050846006018a8154811061097c5761097c613d44565b90600052602060002001546109919190613e01565b61099b9034613f3e565b6040518115909202916000818181858888f193505050501580156109c3573d6000803e3d6000fd5b506004546006805490840180546001600160a01b03909316926108fc928992620186a09261ffff909216918d9081106109fe576109fe613d44565b9060005260206000200154610a139190613e01565b610a1d9190613e67565b610a279190613e01565b6040518115909202916000818181858888f19350505050158015610a4f573d6000803e3d6000fd5b5060018201546006805490840180546001600160a01b03909316926108fc928992620186a0926201000090920461ffff16918d908110610a9157610a91613d44565b9060005260206000200154610aa69190613e01565b610ab09190613e67565b610aba9190613e01565b6040518115909202916000818181858888f19350505050158015610ae2573d6000803e3d6000fd5b5085859050826005018881548110610afc57610afc613d44565b906000526020600020016000828254610b159190613f3e565b909155505060058201805488908110610b3057610b30613d44565b906000526020600020015460001415610ba15760058054906000610b5383613f55565b909155505081546040517fd7597aa2d6438f91b7d71e7d13764734af94bc7db28326e194bfab67236e58c191610b98916001600160a01b03909116908b908b90613f6c565b60405180910390a15b60005b85811015610da657868682818110610bbe57610bbe613d44565b90506020020135836003018981548110610bda57610bda613d44565b906000526020600020015411158015610c2a5750826004018881548110610c0357610c03613d44565b9060005260206000200154878783818110610c2057610c20613d44565b9050602002013511155b610c465760405162461bcd60e51b81526004016104c590613f8d565b82546001600160a01b031663156e29f6868684818110610c6857610c68613d44565b9050602002016020810190610c7d9190613a00565b85600201548a8a86818110610c9457610c94613d44565b905060200201356040518463ffffffff1660e01b8152600401610cb993929190613f6c565b600060405180830381600087803b158015610cd357600080fd5b505af1158015610ce7573d6000803e3d6000fd5b505050507f188c6e7ce5cf6a45f5d4441da49a243005c388c7f4f00137378ba3d058baf01d858583818110610d1e57610d1e613d44565b9050602002016020810190610d339190613a00565b84546001600160a01b03168b8b8b8b87818110610d5257610d52613d44565b604080516001600160a01b039889168152979096166020888101919091529587019490945250606085019190915291020135608082015260a00160405180910390a180610d9e81613e89565b915050610ba4565b505050505050505050565b600080600080600060038681548110610dcc57610dcc613d44565b60009182526020918290206040805161010081018252600890930290910180546001600160a01b0390811684526001820154168385015260028101548383015260038101805483518187028101870190945280845293949193606086019392830182828015610e5a57602002820191906000526020600020905b815481526020019060010190808311610e46575b5050505050815260200160048201805480602002602001604051908101604052809291908181526020018280548015610eb257602002820191906000526020600020905b815481526020019060010190808311610e9e575b5050505050815260200160058201805480602002602001604051908101604052809291908181526020018280548015610f0a57602002820191906000526020600020905b815481526020019060010190808311610ef6575b5050505050815260200160068201805480602002602001604051908101604052809291908181526020018280548015610f6257602002820191906000526020600020905b815481526020019060010190808311610f4e575b5050505050815260200160078201805480602002602001604051908101604052809291908181526020016000905b8282101561103c578382906000526020600020018054610faf90613fea565b80601f0160208091040260200160405190810160405280929190818152602001828054610fdb90613fea565b80156110285780601f10610ffd57610100808354040283529160200191611028565b820191906000526020600020905b81548152906001019060200180831161100b57829003601f168201915b505050505081526020019060010190610f90565b5050509152505080516040820151602083015160e090930151519199909850919650945092505050565b61109b6003878154811061107c5761107c613d44565b60009182526020909120600890910201546001600160a01b031661141a565b506110c060405180606001604052806000815260200160008152602001600081525090565b600387815481106110d3576110d3613d44565b6000918252602090912060089091020154600380546001600160a01b039092169163b9db15b491908a90811061110b5761110b613d44565b9060005260206000209060080201600201546040518263ffffffff1660e01b815260040161113b91815260200190565b60006040518083038186803b15801561115357600080fd5b505afa158015611167573d6000803e3d6000fd5b505050506040513d6000823e601f3d908101601f1916820160405261118f9190810190614080565b505050602083018190528183526111aa91889188919061316f565b6111ed8787878787878080601f0160208091040260200160405190810160405280939291908181526020018383808284376000920191909152506132c192505050565b50505050505050565b82518451148015611208575083518251145b8015611215575081518151145b6112315760405162461bcd60e51b81526004016104c59061413e565b6112476003868154811061107c5761107c613d44565b5061126c60405180606001604052806000815260200160008152602001600081525090565b6003868154811061127f5761127f613d44565b6000918252602090912060089091020154600380546001600160a01b039092169163b9db15b49190899081106112b7576112b7613d44565b9060005260206000209060080201600201546040518263ffffffff1660e01b81526004016112e791815260200190565b60006040518083038186803b1580156112ff57600080fd5b505afa158015611313573d6000803e3d6000fd5b505050506040513d6000823e601f3d908101601f1916820160405261133b9190810190614080565b5050506020830152815260005b82518110156111ed5761139786828151811061136657611366613d44565b602002602001015186838151811061138057611380613d44565b60200260200101518460000151856020015161316f565b611408878783815181106113ad576113ad613d44565b60200260200101518784815181106113c7576113c7613d44565b60200260200101518785815181106113e1576113e1613d44565b60200260200101518786815181106113fb576113fb613d44565b60200260200101516132c1565b8061141281613e89565b915050611348565b604051632474521560e21b81527ff0887ba65ee2024ea881d91b74c2450ef19e1557f03bed3ea9f16b037cbe2dc960048201523060248201526000906001600160a01b038316906391d148549060440160206040518083038186803b15801561148257600080fd5b505afa158015611496573d6000803e3d6000fd5b505050506040513d601f19601f820116820180604052508101906114ba9190613ea4565b6115245760405162461bcd60e51b815260206004820152603560248201527f4d696e74696e67204d61726b6574706c6163653a2054686973204d61726b6574604482015274706c6163652069736e27742061204d696e7465722160581b60648201526084016104c5565b604051632474521560e21b81527f3c2519c4487d47714872f92cf90a50c25f5deaec2789dc2a497b1272df611db660048201523360248201526001600160a01b038316906391d148549060440160206040518083038186803b15801561158957600080fd5b505afa15801561159d573d6000803e3d6000fd5b505050506040513d601f19601f820116820180604052508101906115c19190613ea4565b6116245760405162461bcd60e51b815260206004820152602e60248201527f4d696e74696e67204d61726b6574706c6163653a2053656e6465722069736e2760448201526d74207468652063726561746f722160901b60648201526084016104c5565b506001919050565b6000546001600160a01b031633146116565760405162461bcd60e51b81526004016104c59061419c565b600480546001600160a01b0319166001600160a01b0383169081179091556040519081527f63cc689e9d3377465b51fb094ea4ca5e0a1436b21f1ad30d707c696111c66500906020015b60405180910390a150565b6116b48b61141a565b5087861480156116c357508388145b80156116ce57508184145b6116ea5760405162461bcd60e51b81526004016104c59061413e565b60035415611825576001600160a01b038b1660009081526001602090815260408083208d84529091529020546117e4576001600160a01b038b1660008181526001602090815260408083208e845290915290205460038054909190811061175357611753613d44565b60009182526020909120600890910201546001600160a01b03161415806117c357506001600160a01b038b1660009081526001602090815260408083208d8452909152902054600380548c929081106117ae576117ae613d44565b90600052602060002090600802016002015414155b6117df5760405162461bcd60e51b81526004016104c5906141d1565b611825565b6001600160a01b038b1660009081526001602090815260408083208d8452909152902054156118255760405162461bcd60e51b81526004016104c5906141d1565b61184960405180606001604052806000815260200160008152602001600081525090565b604051632e76c56d60e21b8152600481018c90526001600160a01b038d169063b9db15b49060240160006040518083038186803b15801561188957600080fd5b505afa15801561189d573d6000803e3d6000fd5b505050506040513d6000823e601f3d908101601f191682016040526118c59190810190614080565b505060408401819052602084019190915290825261194b5760405162461bcd60e51b815260206004820152603f60248201527f4d696e74696e67204d61726b6574706c6163653a2043616e6e6f74206d696e7460448201527f206d6f726520746f6b656e732066726f6d20746869732050726f64756374210060648201526084016104c5565b6000600360018160018154018082558091505003906000526020600020906008020190508c8160000160006101000a8154816001600160a01b0302191690836001600160a01b03160217905550828160010160006101000a8154816001600160a01b0302191690836001600160a01b031602179055508b816002018190555060005b84811015611ae757611a198c8c838181106119ea576119ea613d44565b905060200201358b8b84818110611a0357611a03613d44565b905060200201358560000151866020015161316f565b600354611ad590611a2c90600190613f3e565b8d8d84818110611a3e57611a3e613d44565b905060200201358c8c85818110611a5757611a57613d44565b905060200201358b8b86818110611a7057611a70613d44565b905060200201358a8a87818110611a8957611a89613d44565b9050602002810190611a9b9190614241565b8080601f0160208091040260200160405190810160405280939291908181526020018383808284376000920191909152506132c192505050565b80611adf81613e89565b9150506119cd565b50600354611af790600190613f3e565b600160008f6001600160a01b03166001600160a01b0316815260200190815260200160002060008e8152602001908152602001600020819055507f9c82f4230a033475cfb564c6eb24f4ad45139901a657e8edd9a6cd234e3549498d8d878790506001600380549050611b6a9190613f3e565b604080516001600160a01b039095168552602085019390935291830152606082015260800160405180910390a150505050505050505050505050565b6000546001600160a01b03163314611bd05760405162461bcd60e51b81526004016104c59061419c565b611bda6000613407565b565b600060038881548110611bf157611bf1613d44565b90600052602060002090600802019050806004018781548110611c1657611c16613d44565b90600052602060002001548511158015611c4f5750806003018781548110611c4057611c40613d44565b90600052602060002001548610155b611ccd5760405162461bcd60e51b815260206004820152604360248201527f4d696e74696e67204d61726b6574706c6163653a204e6577206c696d6974732060448201527f6d7573742062652077697468696e207468652070726576696f7573206c696d6960648201526274732160e81b608482015260a4016104c5565b8054611ce1906001600160a01b031661141a565b50611d0660405180606001604052806000815260200160008152602001600081525090565b81546002830154604051632e76c56d60e21b81526001600160a01b039092169163b9db15b491611d3c9160040190815260200190565b60006040518083038186803b158015611d5457600080fd5b505afa158015611d68573d6000803e3d6000fd5b505050506040513d6000823e601f3d908101601f19168201604052611d909190810190614080565b50505060208301819052818352611dab91899189919061316f565b611db58787613f3e565b826003018981548110611dca57611dca613d44565b9060005260206000200154836004018a81548110611dea57611dea613d44565b9060005260206000200154611dff9190613f3e565b611e099190613f3e565b826005018981548110611e1e57611e1e613d44565b906000526020600020016000828254611e379190613f3e565b9250508190555086826003018981548110611e5457611e54613d44565b906000526020600020018190555085826004018981548110611e7857611e78613d44565b906000526020600020018190555084826006018981548110611e9c57611e9c613d44565b90600052602060002001819055508383836007018a81548110611ec157611ec1613d44565b906000526020600020019190611ed8929190613457565b5081546005830180547fd99934f5b053ba28c54ae74875195b688f9367ba5b0c50f5233e692eb91549c8926001600160a01b0316918c918c919082908110611f2257611f22613d44565b9060005260206000200154898989604051611f439796959493929190614287565b60405180910390a1505050505050505050565b600354600090611fc45760405162461bcd60e51b815260206004820152603360248201527f4d696e74696e67204d61726b6574706c6163653a20546865726520617265206e6044820152721bc81bd999995c9cc81c9959da5cdd195c9959606a1b60648201526084016104c5565b6001600160a01b0383166000818152600160209081526040808320868452909152902054600380549091908110611ffd57611ffd613d44565b60009182526020909120600890910201546001600160a01b0316146120985760405162461bcd60e51b8152602060048201526044602482018190527f4d696e74696e67204d61726b6574706c6163653a20546865726520617265206e908201527f6f206f6666657273207265676973746572656420666f722074686174206164646064820152637265737360e01b608482015260a4016104c5565b6001600160a01b03831660009081526001602090815260408083208584529091529020546003805484929081106120d1576120d1613d44565b906000526020600020906008020160020154146121655760405162461bcd60e51b815260206004820152604660248201527f4d696e74696e67204d61726b6574706c6163653a20546865726520617265206960448201527f73206e6f206f66666572207265676973746572656420666f72207468617420706064820152651c9bd91d58dd60d21b608482015260a4016104c5565b506001600160a01b03919091166000908152600160209081526040808320938352929052205490565b6000546001600160a01b031633146121b85760405162461bcd60e51b81526004016104c59061419c565b6006805461ffff191661ffff8316908117909155600454604080516001600160a01b03909216825260208201929092527f2adb51c26afe364a53c16cd44e82bdf5a52680ad11c64f2dbeb5bdb3764f731d91016116a0565b8281146122995760405162461bcd60e51b815260206004820152604b60248201527f4d696e74696e67204d61726b6574706c6163653a20526563697069656e74732060448201527f616e642050657263656e74616765732073686f756c642068617665207468652060648201526a0e6c2daca40d8cadccee8d60ab1b608482015260a4016104c5565b6003546122fe5760405162461bcd60e51b815260206004820152602d60248201527f4d696e74696e67204d61726b6574706c6163653a20546865726520617265206e60448201526c6f206f6666657220706f6f6c7360981b60648201526084016104c5565b6003548511156123665760405162461bcd60e51b815260206004820152602d60248201527f4d696e74696e67204d61726b6574706c6163653a204f6666657220506f6f6c2060448201526c191bd95cdb89dd08195e1a5cdd609a1b60648201526084016104c5565b60006001600160a01b03166003868154811061238457612384613d44565b60009182526020909120600890910201546001600160a01b031614156124015760405162461bcd60e51b815260206004820152602c60248201527f4d696e74696e67204d61726b6574706c6163653a20496e76616c6964206f666660448201526b657220706f6f6c206461746160a01b60648201526084016104c5565b6124176003868154811061107c5761107c613d44565b506000805b8481101561245c5783838281811061243657612436613d44565b905060200201358261244891906142e1565b91508061245481613e89565b91505061241c565b5060065461ffff6201000082048116916124779116836142e1565b61248191906142e1565b620186a01461252c5760405162461bcd60e51b8152602060048201526064602482018190527f4d696e74696e67204d61726b6574706c6163653a2050657263656e746167657360448301527f2073686f756c642061646420757020746f203130302520283130303030302c20908201527f696e636c7564696e67206e6f64652066656520616e64207472656173757279206084820152636665652960e01b60a482015260c4016104c5565b60008681526002602052604090206125458187876134db565b5061255460018201858561352e565b507f40a049f3fdcbf6879c736779d7d3043e94267127987fd5a0e13a7284a6a46dc9878787878760405161258c9594939291906142f9565b60405180910390a150505050505050565b6000806000806000806060600060038a815481106125bd576125bd613d44565b60009182526020918290206040805161010081018252600890930290910180546001600160a01b039081168452600182015416838501526002810154838301526003810180548351818702810187019094528084529394919360608601939283018282801561264b57602002820191906000526020600020905b815481526020019060010190808311612637575b50505050508152602001600482018054806020026020016040519081016040528092919081815260200182805480156126a357602002820191906000526020600020905b81548152602001906001019080831161268f575b50505050508152602001600582018054806020026020016040519081016040528092919081815260200182805480156126fb57602002820191906000526020600020905b8154815260200190600101908083116126e7575b505050505081526020016006820180548060200260200160405190810160405280929190818152602001828054801561275357602002820191906000526020600020905b81548152602001906001019080831161273f575b5050505050815260200160078201805480602002602001604051908101604052809291908181526020016000905b8282101561282d5783829060005260206000200180546127a090613fea565b80601f01602080910402602001604051908101604052809291908181526020018280546127cc90613fea565b80156128195780601f106127ee57610100808354040283529160200191612819565b820191906000526020600020905b8154815290600101906020018083116127fc57829003601f168201915b505050505081526020019060010190612781565b505050508152505090508060000151816040015182606001518b8151811061285757612857613d44565b602002602001015183608001518c8151811061287557612875613d44565b60200260200101518460a001518d8151811061289357612893613d44565b60200260200101518560c001518e815181106128b1576128b1613d44565b60200260200101518660e001518f815181106128cf576128cf613d44565b602002602001015197509750975097509750975097505092959891949750929550565b60006003848154811061290757612907613d44565b6000918252602090912060089091020180549091506001600160a01b03166129415760405162461bcd60e51b81526004016104c590613d5a565b600581015483106129645760405162461bcd60e51b81526004016104c590613da8565b600081600501848154811061297b5761297b613d44565b9060005260206000200154116129f95760405162461bcd60e51b815260206004820152603c60248201527f4d696e74696e67204d61726b6574706c6163653a2043616e6e6f74206d696e7460448201527f206d6f726520746f6b656e7320666f7220746869732072616e6765210000000060648201526084016104c5565b81816003018481548110612a0f57612a0f613d44565b906000526020600020015411158015612a475750806004018381548110612a3857612a38613d44565b90600052602060002001548211155b612a635760405162461bcd60e51b81526004016104c590613f8d565b806006018381548110612a7857612a78613d44565b9060005260206000200154341015612aa25760405162461bcd60e51b81526004016104c590613e20565b6000848152600260205260409020805415612b8f5760005b8154811015612b8957816000018181548110612ad857612ad8613d44565b6000918252602090912001546001830180546001600160a01b03909216916108fc91620186a09185908110612b0f57612b0f613d44565b9060005260206000200154866006018981548110612b2f57612b2f613d44565b9060005260206000200154612b449190613e01565b612b4e9190613e67565b6040518115909202916000818181858888f19350505050158015612b76573d6000803e3d6000fd5b5080612b8181613e89565b915050612aba565b50612d74565b81546040516301ffc9a760e01b8152632baae9fd60e01b6004820152600091829182916001600160a01b0316906301ffc9a79060240160206040518083038186803b158015612bdd57600080fd5b505afa158015612bf1573d6000803e3d6000fd5b505050506040513d601f19601f82011682018060405250810190612c159190613ea4565b90508015612d705784546006860180546001600160a01b0390921691632a55205a916000918b908110612c4a57612c4a613d44565b90600052602060002001546040518363ffffffff1660e01b8152600401612c7b929190918252602082015260400190565b604080518083038186803b158015612c9257600080fd5b505afa158015612ca6573d6000803e3d6000fd5b505050506040513d601f19601f82011682018060405250810190612cca9190613ec6565b60065491945092506001600160a01b038416906108fc90620186a090612cfc9061ffff62010000820481169116613ef4565b612d0d9061ffff16620186a0613f1a565b62ffffff16886006018b81548110612d2757612d27613d44565b9060005260206000200154612d3c9190613e01565b612d469190613e67565b6040518115909202916000818181858888f19350505050158015612d6e573d6000803e3d6000fd5b505b5050505b336001600160a01b03166108fc836006018681548110612d9657612d96613d44565b906000526020600020015434612dac9190613f3e565b6040518115909202916000818181858888f19350505050158015612dd4573d6000803e3d6000fd5b506004546006805490840180546001600160a01b03909316926108fc92620186a09261ffff9091169189908110612e0d57612e0d613d44565b9060005260206000200154612e229190613e01565b612e2c9190613e67565b6040518115909202916000818181858888f19350505050158015612e54573d6000803e3d6000fd5b5060018201546006805490840180546001600160a01b03909316926108fc92620186a0926201000090910461ffff169189908110612e9457612e94613d44565b9060005260206000200154612ea99190613e01565b612eb39190613e67565b6040518115909202916000818181858888f19350505050158015612edb573d6000803e3d6000fd5b50816005018481548110612ef157612ef1613d44565b60009182526020822001805491612f0783613f55565b9190505550816005018481548110612f2157612f21613d44565b906000526020600020015460001415612f925760058054906000612f4483613f55565b909155505081546040517fd7597aa2d6438f91b7d71e7d13764734af94bc7db28326e194bfab67236e58c191612f89916001600160a01b039091169088908890613f6c565b60405180910390a15b81546002830154604051630ab714fb60e11b81526001600160a01b039092169163156e29f691612fc9913391908890600401613f6c565b600060405180830381600087803b158015612fe357600080fd5b505af1158015612ff7573d6000803e3d6000fd5b50508354604080513381526001600160a01b039092166020830152810188905260608101879052608081018690527f188c6e7ce5cf6a45f5d4441da49a243005c388c7f4f00137378ba3d058baf01d925060a001905060405180910390a15050505050565b6000546001600160a01b031633146130865760405162461bcd60e51b81526004016104c59061419c565b6006805463ffff000019166201000061ffff8416908102919091179091556040519081527f6a6cc0807c3fb0910ab842e5fd4c193307b3cff967f1a7d096538e4961884b70906020016116a0565b6000546001600160a01b031633146130fe5760405162461bcd60e51b81526004016104c59061419c565b6001600160a01b0381166131635760405162461bcd60e51b815260206004820152602660248201527f4f776e61626c653a206e6577206f776e657220697320746865207a65726f206160448201526564647265737360d01b60648201526084016104c5565b61316c81613407565b50565b8284111561320b5760405162461bcd60e51b815260206004820152605960248201527f4d696e74696e67204d61726b6574706c6163653a2052616e676527732073746160448201527f7274696e6720746f6b656e2068617320746f206265206c657373207468616e2060648201527f7468652072616e6765277320656e64696e6720746f6b656e2100000000000000608482015260a4016104c5565b8061321684846142e1565b11156132bb5760405162461bcd60e51b815260206004820152606260248201527f4d696e74696e67204d61726b6574706c6163653a2052616e6765277320656e6460448201527f696e6720746f6b656e2068617320746f206265206c657373206f72206571756160648201527f6c207468616e207468652070726f64756374277320656e64696e6720746f6b656084820152616e2160f01b60a482015260c4016104c5565b50505050565b6000600386815481106132d6576132d6613d44565b600091825260208083206003600890930201918201805460018181018355918552828520018990556004830180548083018255908552828520018890556006830180549182018155845292209091018490559050600581016133388686613f3e565b6133439060016142e1565b81546001818101845560009384526020808520909201929092556007840180549283018155835291829020845161338293919092019190850190613568565b508054600282015460078301547f5fb7e8962f72a7aa133e869363451a963b669f4833ca29bc394ebd53f121b98f926001600160a01b0316919089906133ca90600190613f3e565b898989896040516133e2989796959493929190614384565b60405180910390a1600580549060006133fa83613e89565b9190505550505050505050565b600080546001600160a01b038381166001600160a01b0319831681178455604051919092169283917f8be0079c531659141344cd1fd0a4f28419497f9722a3daafe3b4186f6b6457e09190a35050565b82805461346390613fea565b90600052602060002090601f01602090048101928261348557600085556134cb565b82601f1061349e5782800160ff198235161785556134cb565b828001600101855582156134cb579182015b828111156134cb5782358255916020019190600101906134b0565b506134d79291506135dc565b5090565b8280548282559060005260206000209081019282156134cb579160200282015b828111156134cb5781546001600160a01b0319166001600160a01b038435161782556020909201916001909101906134fb565b8280548282559060005260206000209081019282156134cb57916020028201828111156134cb5782358255916020019190600101906134b0565b82805461357490613fea565b90600052602060002090601f01602090048101928261359657600085556134cb565b82601f106135af57805160ff19168380011785556134cb565b828001600101855582156134cb579182015b828111156134cb5782518255916020019190600101906135c1565b5b808211156134d757600081556001016135dd565b60008083601f84011261360357600080fd5b5081356001600160401b0381111561361a57600080fd5b6020830191508360208260051b850101111561363557600080fd5b9250929050565b6000806000806000806080878903121561365557600080fd5b863595506020870135945060408701356001600160401b038082111561367a57600080fd5b6136868a838b016135f1565b9096509450606089013591508082111561369f57600080fd5b506136ac89828a016135f1565b979a9699509497509295939492505050565b6000602082840312156136d057600080fd5b5035919050565b60008083601f8401126136e957600080fd5b5081356001600160401b0381111561370057600080fd5b60208301915083602082850101111561363557600080fd5b60008060008060008060a0878903121561373157600080fd5b8635955060208701359450604087013593506060870135925060808701356001600160401b0381111561376357600080fd5b6136ac89828a016136d7565b634e487b7160e01b600052604160045260246000fd5b604051601f8201601f191681016001600160401b03811182821017156137ad576137ad61376f565b604052919050565b60006001600160401b038211156137ce576137ce61376f565b5060051b60200190565b600082601f8301126137e957600080fd5b813560206137fe6137f9836137b5565b613785565b82815260059290921b8401810191818101908684111561381d57600080fd5b8286015b848110156138385780358352918301918301613821565b509695505050505050565b60006001600160401b0382111561385c5761385c61376f565b50601f01601f191660200190565b600080600080600060a0868803121561388257600080fd5b8535945060208601356001600160401b03808211156138a057600080fd5b6138ac89838a016137d8565b955060408801359150808211156138c257600080fd5b6138ce89838a016137d8565b945060608801359150808211156138e457600080fd5b6138f089838a016137d8565b9350608088013591508082111561390657600080fd5b818801915088601f83011261391a57600080fd5b81356139286137f9826137b5565b8082825260208201915060208360051b86010192508b83111561394a57600080fd5b602085015b838110156139c857848135111561396557600080fd5b803586018d603f82011261397857600080fd5b60208101356139896137f982613843565b8181528f604083850101111561399e57600080fd5b8160408401602083013760006020838301015280865250505060208301925060208101905061394f565b5080955050505050509295509295909350565b6001600160a01b038116811461316c57600080fd5b80356139fb816139db565b919050565b600060208284031215613a1257600080fd5b8135613a1d816139db565b9392505050565b600080600080600080600080600080600060e08c8e031215613a4557600080fd5b613a4e8c6139f0565b9a5060208c013599506001600160401b038060408e01351115613a7057600080fd5b613a808e60408f01358f016135f1565b909a50985060608d0135811015613a9657600080fd5b613aa68e60608f01358f016135f1565b909850965060808d0135811015613abc57600080fd5b613acc8e60808f01358f016135f1565b909650945060a08d0135811015613ae257600080fd5b50613af38d60a08e01358e016135f1565b9093509150613b0460c08d016139f0565b90509295989b509295989b9093969950565b600080600080600080600060c0888a031215613b3157600080fd5b873596506020880135955060408801359450606088013593506080880135925060a08801356001600160401b03811115613b6a57600080fd5b613b768a828b016136d7565b989b979a50959850939692959293505050565b60008060408385031215613b9c57600080fd5b8235613ba7816139db565b946020939093013593505050565b600060208284031215613bc757600080fd5b813561ffff81168114613a1d57600080fd5b600080600080600060608688031215613bf157600080fd5b8535945060208601356001600160401b0380821115613c0f57600080fd5b613c1b89838a016135f1565b90965094506040880135915080821115613c3457600080fd5b50613c41888289016135f1565b969995985093965092949392505050565b60008060408385031215613c6557600080fd5b50508035926020909101359150565b60005b83811015613c8f578181015183820152602001613c77565b838111156132bb5750506000910152565b60008151808452613cb8816020860160208601613c74565b601f01601f19169290920160200192915050565b60018060a01b03881681528660208201528560408201528460608201528360808201528260a082015260e060c08201526000613d0b60e0830184613ca0565b9998505050505050505050565b600080600060608486031215613d2d57600080fd5b505081359360208301359350604090920135919050565b634e487b7160e01b600052603260045260246000fd5b6020808252602e908201527f4d696e74696e67204d61726b6574706c6163653a20496e76616c69642050726f60408201526d647563742053656c65637465642160901b606082015260800190565b60208082526023908201527f4d696e74696e67204d61726b6574706c6163653a20496e76616c69642072616e60408201526267652160e81b606082015260800190565b634e487b7160e01b600052601160045260246000fd5b6000816000190483118215151615613e1b57613e1b613deb565b500290565b60208082526027908201527f4d696e74696e67204d61726b6574706c6163653a20496e737566696369656e746040820152662046756e64732160c81b606082015260800190565b600082613e8457634e487b7160e01b600052601260045260246000fd5b500490565b6000600019821415613e9d57613e9d613deb565b5060010190565b600060208284031215613eb657600080fd5b81518015158114613a1d57600080fd5b60008060408385031215613ed957600080fd5b8251613ee4816139db565b6020939093015192949293505050565b600061ffff808316818516808303821115613f1157613f11613deb565b01949350505050565b600062ffffff83811690831681811015613f3657613f36613deb565b039392505050565b600082821015613f5057613f50613deb565b500390565b600081613f6457613f64613deb565b506000190190565b6001600160a01b039390931683526020830191909152604082015260600190565b6020808252603e908201527f4d696e74696e67204d61726b6574706c6163653a20546f6b656e20646f65736e60408201527f27742062656c6f6e6720696e2074686174206f666665722072616e6765210000606082015260800190565b600181811c90821680613ffe57607f821691505b6020821081141561401f57634e487b7160e01b600052602260045260246000fd5b50919050565b600082601f83011261403657600080fd5b815160206140466137f9836137b5565b82815260059290921b8401810191818101908684111561406557600080fd5b8286015b848110156138385780518352918301918301614069565b600080600080600060a0868803121561409857600080fd5b85519450602086015193506040860151925060608601516001600160401b03808211156140c457600080fd5b818801915088601f8301126140d857600080fd5b81516140e66137f982613843565b8181528a60208386010111156140fb57600080fd5b61410c826020830160208701613c74565b60808a01519095509250508082111561412457600080fd5b5061413188828901614025565b9150509295509295909350565b602080825260409082018190527f4d696e74696e67204d61726b6574706c6163653a204f6666657227732072616e908201527f6765732073686f756c642068617665207468652073616d65206c656e67746821606082015260800190565b6020808252818101527f4f776e61626c653a2063616c6c6572206973206e6f7420746865206f776e6572604082015260600190565b6020808252604a908201527f4d696e74696e67204d61726b6574706c6163653a20416e206f6666657220616c60408201527f72656164792065786973747320666f72207468697320636f6e747261637420616060820152691b99081c1c9bd91d58dd60b21b608082015260a00190565b6000808335601e1984360301811261425857600080fd5b8301803591506001600160401b0382111561427257600080fd5b60200191503681900382131561363557600080fd5b60018060a01b038816815286602082015285604082015284606082015283608082015260c060a08201528160c0820152818360e0830137600081830160e090810191909152601f909201601f191601019695505050505050565b600082198211156142f4576142f4613deb565b500190565b85815260606020808301829052908201859052600090869060808401835b8881101561434557833561432a816139db565b6001600160a01b031682529282019290820190600101614317565b5084810360408601528581526001600160fb1b0386111561436557600080fd5b8560051b92508287838301376000920101908152979650505050505050565b600061010060018060a01b038b1683528960208401528860408401528760608401528660808401528560a08401528460c08401528060e08401526143ca81840185613ca0565b9b9a505050505050505050505056fea2646970667358221220d31eec8aaa9e95bfb0dfe01df1388a337957a649ee8e380ef7873ca88eda833764736f6c63430008090033",
  "devdoc": {
    "author": "Juan M. Sanchez M.",
    "details": "Uses AccessControl for the minting mechanisms on other tokens!",
    "kind": "dev",
    "methods": {
      "addOffer(address,uint256,uint256[],uint256[],uint256[],string[],address)": {
        "details": "It validates that the collection has mintable tokens leftIt validates that the number of tokens allowed to sell is less or equal than the number of mintable tokens",
        "params": {
          "_nodeAddress": "Address of the node to be paid",
          "_productIndex": "Index of the collection inside the ERC721",
          "_rangeEndToken": "Ending token inside the ERC721 (for each range)",
          "_rangeName": "Name (for each range)",
          "_rangePrice": "Price of each range (for each range)",
          "_rangeStartToken": "Starting token inside the ERC721 (for each range)",
          "_tokenAddress": "Address of the ERC721"
        }
      },
      "buyToken(uint256,uint256,uint256)": {
        "details": "It validates that the Marketplace is still a minterIt splits the funds in 3 waysIt validates that the ERC721 token supports the interface for royalties and only then, it will give the funds to the creatorIf the ERC721 collection doesn't have any mintable tokens left, it will revert using the ERC721 error, not in the marketplace!",
        "params": {
          "catalogIndex": "Index of the sale within the catalog",
          "internalTokenIndex": "Index of the token within the range",
          "rangeIndex": "Index of the range within the offer"
        }
      },
      "constructor": {
        "details": "Should start up with the treasury, node and treasury fee",
        "params": {
          "_nodeFee": "Fee given to the node on every sale (Recommended default: 1%)",
          "_treasury": "The address of the Treasury",
          "_treasuryFee": "Fee given to the treasury every sale (Recommended default: 9%)"
        }
      },
      "contractToOfferRange(address,uint256)": {
        "params": {
          "erc721Address": "Address of the RAIR Token contract",
          "offerIndex": "Index of the offer with all the ranges",
          "productIndex": "Index of the product"
        }
      },
      "getOfferCount()": {
        "details": "Includes completed collections though"
      },
      "getOfferInfo(uint256)": {
        "details": "Translates the internal offer schema to individual values",
        "params": {
          "_index": "Index of the offer in this contract"
        }
      },
      "getOfferRangeInfo(uint256,uint256)": {
        "details": "Translates the internal offer schema to individual values",
        "params": {
          "offerIndex": "Index of the offer in this contract",
          "rangeIndex": "Index of the range inside the contract"
        }
      },
      "owner()": {
        "details": "Returns the address of the current owner."
      },
      "renounceOwnership()": {
        "details": "Leaves the contract without owner. It will not be possible to call `onlyOwner` functions anymore. Can only be called by the current owner. NOTE: Renouncing ownership will leave the contract without an owner, thereby removing any functionality that is only available to the owner."
      },
      "setNodeFee(uint16)": {
        "params": {
          "_newFee": "New Fee"
        }
      },
      "setTreasuryAddress(address)": {
        "details": "Make sure the treasury is a wallet address!If the treasury is a contract, make sure it has a receive function!",
        "params": {
          "_newTreasury": "New address"
        }
      },
      "setTreasuryFee(uint16)": {
        "params": {
          "_newFee": "New Fee"
        }
      },
      "transferOwnership(address)": {
        "details": "Transfers ownership of the contract to a new account (`newOwner`). Can only be called by the current owner."
      },
      "validateRoles(address)": {
        "details": "Doubles as a view function for anyone wondering if they can mint or if they need to approve the marketplace",
        "params": {
          "tokenAddress": "Address of the token to validate"
        }
      }
    },
    "title": "Minter Marketplace ",
    "version": 1
  },
  "userdoc": {
    "kind": "user",
    "methods": {
      "addOffer(address,uint256,uint256[],uint256[],uint256[],string[],address)": {
        "notice": "Adds an offer to the market's catalog"
      },
      "buyToken(uint256,uint256,uint256)": {
        "notice": "Receives funds and mints a new token for the sender"
      },
      "constructor": {
        "notice": "Constructor"
      },
      "contractToOfferRange(address,uint256)": {
        "notice": "View function that returns the offer given a contract address and a product index"
      },
      "getOfferCount()": {
        "notice": "Returns the number of collections on the market"
      },
      "getOfferInfo(uint256)": {
        "notice": "Returns the basic information about an offer"
      },
      "getOfferRangeInfo(uint256,uint256)": {
        "notice": "Returns the information about an offer's range"
      },
      "setNodeFee(uint16)": {
        "notice": "Sets the new fee paid to nodes"
      },
      "setTreasuryAddress(address)": {
        "notice": "Sets the new treasury address"
      },
      "setTreasuryFee(uint16)": {
        "notice": "Sets the new treasury fee"
      },
      "validateRoles(address)": {
        "notice": "Validates that the Minter Marketplace and the message sender have the correct roles inside the ERC721"
      }
    },
    "notice": "Handles the minting of ERC721 RAIR Tokens",
    "version": 1
  },
  "storageLayout": {
    "storage": [
      {
        "astId": 591,
        "contract": "contracts/Marketplaces/MarketplaceMinter.sol:Minter_Marketplace",
        "label": "_owner",
        "offset": 0,
        "slot": "0",
        "type": "t_address"
      },
      {
        "astId": 4749,
        "contract": "contracts/Marketplaces/MarketplaceMinter.sol:Minter_Marketplace",
        "label": "_contractToOffers",
        "offset": 0,
        "slot": "1",
        "type": "t_mapping(t_address,t_mapping(t_uint256,t_uint256))"
      },
      {
        "astId": 4754,
        "contract": "contracts/Marketplaces/MarketplaceMinter.sol:Minter_Marketplace",
        "label": "customPayments",
        "offset": 0,
        "slot": "2",
        "type": "t_mapping(t_uint256,t_struct(customPayment)4740_storage)"
      },
      {
        "astId": 4758,
        "contract": "contracts/Marketplaces/MarketplaceMinter.sol:Minter_Marketplace",
        "label": "offerCatalog",
        "offset": 0,
        "slot": "3",
        "type": "t_array(t_struct(offer)4726_storage)dyn_storage"
      },
      {
        "astId": 4760,
        "contract": "contracts/Marketplaces/MarketplaceMinter.sol:Minter_Marketplace",
        "label": "treasury",
        "offset": 0,
        "slot": "4",
        "type": "t_address"
      },
      {
        "astId": 4762,
        "contract": "contracts/Marketplaces/MarketplaceMinter.sol:Minter_Marketplace",
        "label": "openSales",
        "offset": 0,
        "slot": "5",
        "type": "t_uint256"
      },
      {
        "astId": 4764,
        "contract": "contracts/Marketplaces/MarketplaceMinter.sol:Minter_Marketplace",
        "label": "treasuryFee",
        "offset": 0,
        "slot": "6",
        "type": "t_uint16"
      },
      {
        "astId": 4766,
        "contract": "contracts/Marketplaces/MarketplaceMinter.sol:Minter_Marketplace",
        "label": "nodeFee",
        "offset": 2,
        "slot": "6",
        "type": "t_uint16"
      }
    ],
    "types": {
      "t_address": {
        "encoding": "inplace",
        "label": "address",
        "numberOfBytes": "20"
      },
      "t_array(t_address)dyn_storage": {
        "base": "t_address",
        "encoding": "dynamic_array",
        "label": "address[]",
        "numberOfBytes": "32"
      },
      "t_array(t_string_storage)dyn_storage": {
        "base": "t_string_storage",
        "encoding": "dynamic_array",
        "label": "string[]",
        "numberOfBytes": "32"
      },
      "t_array(t_struct(offer)4726_storage)dyn_storage": {
        "base": "t_struct(offer)4726_storage",
        "encoding": "dynamic_array",
        "label": "struct Minter_Marketplace.offer[]",
        "numberOfBytes": "32"
      },
      "t_array(t_uint256)dyn_storage": {
        "base": "t_uint256",
        "encoding": "dynamic_array",
        "label": "uint256[]",
        "numberOfBytes": "32"
      },
      "t_mapping(t_address,t_mapping(t_uint256,t_uint256))": {
        "encoding": "mapping",
        "key": "t_address",
        "label": "mapping(address => mapping(uint256 => uint256))",
        "numberOfBytes": "32",
        "value": "t_mapping(t_uint256,t_uint256)"
      },
      "t_mapping(t_uint256,t_struct(customPayment)4740_storage)": {
        "encoding": "mapping",
        "key": "t_uint256",
        "label": "mapping(uint256 => struct Minter_Marketplace.customPayment)",
        "numberOfBytes": "32",
        "value": "t_struct(customPayment)4740_storage"
      },
      "t_mapping(t_uint256,t_uint256)": {
        "encoding": "mapping",
        "key": "t_uint256",
        "label": "mapping(uint256 => uint256)",
        "numberOfBytes": "32",
        "value": "t_uint256"
      },
      "t_string_storage": {
        "encoding": "bytes",
        "label": "string",
        "numberOfBytes": "32"
      },
      "t_struct(customPayment)4740_storage": {
        "encoding": "inplace",
        "label": "struct Minter_Marketplace.customPayment",
        "members": [
          {
            "astId": 4736,
            "contract": "contracts/Marketplaces/MarketplaceMinter.sol:Minter_Marketplace",
            "label": "recipients",
            "offset": 0,
            "slot": "0",
            "type": "t_array(t_address)dyn_storage"
          },
          {
            "astId": 4739,
            "contract": "contracts/Marketplaces/MarketplaceMinter.sol:Minter_Marketplace",
            "label": "percentages",
            "offset": 0,
            "slot": "1",
            "type": "t_array(t_uint256)dyn_storage"
          }
        ],
        "numberOfBytes": "64"
      },
      "t_struct(offer)4726_storage": {
        "encoding": "inplace",
        "label": "struct Minter_Marketplace.offer",
        "members": [
          {
            "astId": 4706,
            "contract": "contracts/Marketplaces/MarketplaceMinter.sol:Minter_Marketplace",
            "label": "contractAddress",
            "offset": 0,
            "slot": "0",
            "type": "t_address"
          },
          {
            "astId": 4708,
            "contract": "contracts/Marketplaces/MarketplaceMinter.sol:Minter_Marketplace",
            "label": "nodeAddress",
            "offset": 0,
            "slot": "1",
            "type": "t_address"
          },
          {
            "astId": 4710,
            "contract": "contracts/Marketplaces/MarketplaceMinter.sol:Minter_Marketplace",
            "label": "productIndex",
            "offset": 0,
            "slot": "2",
            "type": "t_uint256"
          },
          {
            "astId": 4713,
            "contract": "contracts/Marketplaces/MarketplaceMinter.sol:Minter_Marketplace",
            "label": "tokenRangeStart",
            "offset": 0,
            "slot": "3",
            "type": "t_array(t_uint256)dyn_storage"
          },
          {
            "astId": 4716,
            "contract": "contracts/Marketplaces/MarketplaceMinter.sol:Minter_Marketplace",
            "label": "tokenRangeEnd",
            "offset": 0,
            "slot": "4",
            "type": "t_array(t_uint256)dyn_storage"
          },
          {
            "astId": 4719,
            "contract": "contracts/Marketplaces/MarketplaceMinter.sol:Minter_Marketplace",
            "label": "tokensAllowed",
            "offset": 0,
            "slot": "5",
            "type": "t_array(t_uint256)dyn_storage"
          },
          {
            "astId": 4722,
            "contract": "contracts/Marketplaces/MarketplaceMinter.sol:Minter_Marketplace",
            "label": "rangePrice",
            "offset": 0,
            "slot": "6",
            "type": "t_array(t_uint256)dyn_storage"
          },
          {
            "astId": 4725,
            "contract": "contracts/Marketplaces/MarketplaceMinter.sol:Minter_Marketplace",
            "label": "rangeName",
            "offset": 0,
            "slot": "7",
            "type": "t_array(t_string_storage)dyn_storage"
          }
        ],
        "numberOfBytes": "256"
      },
      "t_uint16": {
        "encoding": "inplace",
        "label": "uint16",
        "numberOfBytes": "2"
      },
      "t_uint256": {
        "encoding": "inplace",
        "label": "uint256",
        "numberOfBytes": "32"
      }
    }
  }
}