{
  "address": "0x9dCbe7021803eBb3153412Ed719A2d0B887afB8e",
  "abi": [
    {
      "inputs": [
        {
          "internalType": "address",
          "name": "erc777Address",
          "type": "address"
        }
      ],
      "stateMutability": "nonpayable",
      "type": "constructor"
    },
    {
      "inputs": [
        {
          "internalType": "uint256",
          "name": "invalidAmount",
          "type": "uint256"
        }
      ],
      "name": "InvalidEthValue",
      "type": "error"
    },
    {
      "anonymous": false,
      "inputs": [
        {
          "indexed": true,
          "internalType": "bytes32",
          "name": "role",
          "type": "bytes32"
        },
        {
          "indexed": true,
          "internalType": "bytes32",
          "name": "previousAdminRole",
          "type": "bytes32"
        },
        {
          "indexed": true,
          "internalType": "bytes32",
          "name": "newAdminRole",
          "type": "bytes32"
        }
      ],
      "name": "RoleAdminChanged",
      "type": "event"
    },
    {
      "anonymous": false,
      "inputs": [
        {
          "indexed": true,
          "internalType": "bytes32",
          "name": "role",
          "type": "bytes32"
        },
        {
          "indexed": true,
          "internalType": "address",
          "name": "account",
          "type": "address"
        },
        {
          "indexed": true,
          "internalType": "address",
          "name": "sender",
          "type": "address"
        }
      ],
      "name": "RoleGranted",
      "type": "event"
    },
    {
      "anonymous": false,
      "inputs": [
        {
          "indexed": true,
          "internalType": "bytes32",
          "name": "role",
          "type": "bytes32"
        },
        {
          "indexed": true,
          "internalType": "address",
          "name": "account",
          "type": "address"
        },
        {
          "indexed": true,
          "internalType": "address",
          "name": "sender",
          "type": "address"
        }
      ],
      "name": "RoleRevoked",
      "type": "event"
    },
    {
      "anonymous": false,
      "inputs": [
        {
          "indexed": false,
          "internalType": "address",
          "name": "operator",
          "type": "address"
        },
        {
          "indexed": false,
          "internalType": "uint256",
          "name": "amount",
          "type": "uint256"
        }
      ],
      "name": "rairTokensAdded",
      "type": "event"
    },
    {
      "anonymous": false,
      "inputs": [
        {
          "indexed": false,
          "internalType": "address",
          "name": "buyer",
          "type": "address"
        },
        {
          "indexed": false,
          "internalType": "uint256",
          "name": "amount",
          "type": "uint256"
        }
      ],
      "name": "rairTokensPurchased",
      "type": "event"
    },
    {
      "inputs": [],
      "name": "ADMINISTRATOR",
      "outputs": [
        {
          "internalType": "bytes32",
          "name": "",
          "type": "bytes32"
        }
      ],
      "stateMutability": "view",
      "type": "function"
    },
    {
      "inputs": [],
      "name": "DEFAULT_ADMIN_ROLE",
      "outputs": [
        {
          "internalType": "bytes32",
          "name": "",
          "type": "bytes32"
        }
      ],
      "stateMutability": "view",
      "type": "function"
    },
    {
      "inputs": [],
      "name": "ERC777",
      "outputs": [
        {
          "internalType": "bytes32",
          "name": "",
          "type": "bytes32"
        }
      ],
      "stateMutability": "view",
      "type": "function"
    },
    {
      "inputs": [],
      "name": "getExhangeRates",
      "outputs": [
        {
          "internalType": "uint256[]",
          "name": "",
          "type": "uint256[]"
        },
        {
          "internalType": "uint256[]",
          "name": "",
          "type": "uint256[]"
        }
      ],
      "stateMutability": "view",
      "type": "function"
    },
    {
      "inputs": [],
      "name": "getRAIR",
      "outputs": [],
      "stateMutability": "payable",
      "type": "function"
    },
    {
      "inputs": [
        {
          "internalType": "bytes32",
          "name": "role",
          "type": "bytes32"
        }
      ],
      "name": "getRoleAdmin",
      "outputs": [
        {
          "internalType": "bytes32",
          "name": "",
          "type": "bytes32"
        }
      ],
      "stateMutability": "view",
      "type": "function"
    },
    {
      "inputs": [
        {
          "internalType": "bytes32",
          "name": "role",
          "type": "bytes32"
        },
        {
          "internalType": "address",
          "name": "account",
          "type": "address"
        }
      ],
      "name": "grantRole",
      "outputs": [],
      "stateMutability": "nonpayable",
      "type": "function"
    },
    {
      "inputs": [
        {
          "internalType": "bytes32",
          "name": "role",
          "type": "bytes32"
        },
        {
          "internalType": "address",
          "name": "account",
          "type": "address"
        }
      ],
      "name": "hasRole",
      "outputs": [
        {
          "internalType": "bool",
          "name": "",
          "type": "bool"
        }
      ],
      "stateMutability": "view",
      "type": "function"
    },
    {
      "inputs": [
        {
          "internalType": "bytes32",
          "name": "role",
          "type": "bytes32"
        },
        {
          "internalType": "address",
          "name": "account",
          "type": "address"
        }
      ],
      "name": "renounceRole",
      "outputs": [],
      "stateMutability": "nonpayable",
      "type": "function"
    },
    {
      "inputs": [
        {
          "internalType": "bytes32",
          "name": "role",
          "type": "bytes32"
        },
        {
          "internalType": "address",
          "name": "account",
          "type": "address"
        }
      ],
      "name": "revokeRole",
      "outputs": [],
      "stateMutability": "nonpayable",
      "type": "function"
    },
    {
      "inputs": [
        {
          "internalType": "address",
          "name": "newAddress",
          "type": "address"
        }
      ],
      "name": "set777Address",
      "outputs": [],
      "stateMutability": "nonpayable",
      "type": "function"
    },
    {
      "inputs": [
        {
          "internalType": "uint256[]",
          "name": "newRairPrices",
          "type": "uint256[]"
        },
        {
          "internalType": "uint256[]",
          "name": "newEthPrices",
          "type": "uint256[]"
        }
      ],
      "name": "setPrices",
      "outputs": [],
      "stateMutability": "nonpayable",
      "type": "function"
    },
    {
      "inputs": [
        {
          "internalType": "bytes4",
          "name": "interfaceId",
          "type": "bytes4"
        }
      ],
      "name": "supportsInterface",
      "outputs": [
        {
          "internalType": "bool",
          "name": "",
          "type": "bool"
        }
      ],
      "stateMutability": "view",
      "type": "function"
    },
    {
      "inputs": [
        {
          "internalType": "address",
          "name": "operator",
          "type": "address"
        },
        {
          "internalType": "address",
          "name": "from",
          "type": "address"
        },
        {
          "internalType": "address",
          "name": "to",
          "type": "address"
        },
        {
          "internalType": "uint256",
          "name": "amount",
          "type": "uint256"
        },
        {
          "internalType": "bytes",
          "name": "userData",
          "type": "bytes"
        },
        {
          "internalType": "bytes",
          "name": "operatorData",
          "type": "bytes"
        }
      ],
      "name": "tokensReceived",
      "outputs": [],
      "stateMutability": "nonpayable",
      "type": "function"
    },
    {
      "inputs": [],
      "name": "withdrawAllETH",
      "outputs": [],
      "stateMutability": "nonpayable",
      "type": "function"
    },
    {
      "inputs": [
        {
          "internalType": "uint256",
          "name": "amount",
          "type": "uint256"
        }
      ],
      "name": "withdrawRAIR",
      "outputs": [],
      "stateMutability": "nonpayable",
      "type": "function"
    }
  ],
  "transactionHash": "0x9a7fdcd48560f9583b0fa455403945adbfdc3e8b7e54c160f6b30f1209e45a39",
  "args": [
    "0x4e6a5B076730954d80e55dDb2d2e7E732B5bAb70"
  ],
  "numDeployments": 2,
  "solcInputHash": "65234b2831b48ee0eb06e2e53b5fb21a",
  "bytecode": "0x60806040523480156200001157600080fd5b506040516200159938038062001599833981016040819052620000349162000239565b6040516329965a1d60e01b815230600482018190527fb281fc8c12954d22544db45de3159a39272895b169a852b314f9cc762e44c53b60248301526044820152731820a4b7618bde71dce8cdc73aab6c95905fad24906329965a1d90606401600060405180830381600087803b158015620000ae57600080fd5b505af1158015620000c3573d6000803e3d6000fd5b5050600680546001600160a01b0319166001600160a01b03851617905550620000ff90506000805160206200157983398151915260006200014d565b6200011a600080516020620015798339815191523362000198565b620001467fe33cd123f09d9a4e3b34162dcaba99ee0b73fe748beb8ca15f84a66b0c1472308262000198565b506200026b565b600082815260208190526040808220600101805490849055905190918391839186917fbd79b86ffe0ab8e8776151514217cd7cacd52c909f66475c3af44e129f0b00ff9190a4505050565b6000828152602081815260408083206001600160a01b038516845290915290205460ff1662000235576000828152602081815260408083206001600160a01b03851684529091529020805460ff19166001179055620001f43390565b6001600160a01b0316816001600160a01b0316837f2f8788117e7eff1d82e926ec794901d17c78024a50270940304540a733656f0d60405160405180910390a45b5050565b6000602082840312156200024c57600080fd5b81516001600160a01b03811681146200026457600080fd5b9392505050565b6112fe806200027b6000396000f3fe6080604052600436106100f25760003560e01c806359fe72791161008a57806391d148541161005957806391d1485414610290578063a217fddf146102b0578063d05eaae0146102c5578063d547741f146102e557600080fd5b806359fe7279146102315780635ece4604146102535780638dcaf5c91461027357806390386bbf1461027b57600080fd5b8063248a9ca3116100c6578063248a9ca3146101915780632f2ff15d146101cf57806336568abe146101ef578063543a16b11461020f57600080fd5b806223de29146100f757806301ffc9a714610119578063104606fb1461014e5780631c1c69f01461016e575b600080fd5b34801561010357600080fd5b50610117610112366004610ebe565b610305565b005b34801561012557600080fd5b50610139610134366004610f69565b6103ea565b60405190151581526020015b60405180910390f35b34801561015a57600080fd5b50610117610169366004610f93565b610421565b34801561017a57600080fd5b506101836104df565b604051610145929190610fe7565b34801561019d57600080fd5b506101c16101ac366004610f93565b60009081526020819052604090206001015490565b604051908152602001610145565b3480156101db57600080fd5b506101176101ea366004611015565b610592565b3480156101fb57600080fd5b5061011761020a366004611015565b6105bc565b34801561021b57600080fd5b506101c16000805160206112a983398151915281565b34801561023d57600080fd5b506101c160008051602061128983398151915281565b34801561025f57600080fd5b5061011761026e366004611041565b61063a565b6101176106ae565b34801561028757600080fd5b506101176108b2565b34801561029c57600080fd5b506101396102ab366004611015565b6108f6565b3480156102bc57600080fd5b506101c1600081565b3480156102d157600080fd5b506101176102e03660046110a1565b61091f565b3480156102f157600080fd5b50610117610300366004611015565b610ad7565b6000805160206112a983398151915261031d81610afc565b6001600160a01b03871630146103865760405162461bcd60e51b8152602060048201526024808201527f546f6b656e732077657265206e6f742073656e7420746f2074686973206164646044820152637265737360e01b60648201526084015b60405180910390fd5b85600560008282546103989190611123565b9091555050604080516001600160a01b038b168152602081018890527f8ebcb272b88763ef1f0e97c97c7833b1ba39f1b4739f0e40db30d73d6db41634910160405180910390a1505050505050505050565b60006001600160e01b03198216637965db0b60e01b148061041b57506301ffc9a760e01b6001600160e01b03198316145b92915050565b60008051602061128983398151915261043981610afc565b600654604051634decdde360e11b81523360048201526024810184905260606044820152600d60648201526c5241495220576974686472617760981b60848201526001600160a01b03909116908190639bd9bbc69060a401600060405180830381600087803b1580156104ab57600080fd5b505af11580156104bf573d6000803e3d6000fd5b5050505082600560008282546104d59190611136565b9091555050505050565b606080600460038180548060200260200160405190810160405280929190818152602001828054801561053157602002820191906000526020600020905b81548152602001906001019080831161051d575b505050505091508080548060200260200160405190810160405280929190818152602001828054801561058357602002820191906000526020600020905b81548152602001906001019080831161056f575b50505050509050915091509091565b6000828152602081905260409020600101546105ad81610afc565b6105b78383610b09565b505050565b6001600160a01b038116331461062c5760405162461bcd60e51b815260206004820152602f60248201527f416363657373436f6e74726f6c3a2063616e206f6e6c792072656e6f756e636560448201526e103937b632b9903337b91039b2b63360891b606482015260840161037d565b6106368282610b8d565b5050565b60008051602061128983398151915261065281610afc565b600654610677906000805160206112a9833981519152906001600160a01b0316610ad7565b600680546001600160a01b0319166001600160a01b038416908117909155610636906000805160206112a983398151915290610592565b3460009081526002602052604090205460ff166106e0576040516309e1500760e01b815234600482015260240161037d565b6003546107225760405162461bcd60e51b815260206004820152601060248201526f4e6f2065786368616e6765206461746160801b604482015260640161037d565b3460009081526001602052604081205460038054909190811061074757610747611149565b90600052602060002001549050600081116107945760405162461bcd60e51b815260206004820152600d60248201526c496e76616c69642076616c756560981b604482015260640161037d565b6006546001600160a01b03166107e45760405162461bcd60e51b8152602060048201526015602482015274496e76616c696420746f6b656e206164647265737360581b604482015260640161037d565b600654604051634decdde360e11b8152336004820152602481018390526060604482015260136064820152725241495220546f6b656e20507572636861736560681b60848201526001600160a01b03909116908190639bd9bbc69060a401600060405180830381600087803b15801561085c57600080fd5b505af1158015610870573d6000803e3d6000fd5b505060408051338152602081018690527fb46b0e53b3be3120ddd13d289220ae3e973c8262d40d888a134390ede0b4107f935001905060405180910390a15050565b6000805160206112898339815191526108ca81610afc565b60405133904780156108fc02916000818181858888f19350505050158015610636573d6000803e3d6000fd5b6000918252602082815260408084206001600160a01b0393909316845291905290205460ff1690565b60008051602061128983398151915261093781610afc565b83821461097d5760405162461bcd60e51b8152602060048201526014602482015273098cadccee8d0e640e6d0deead8c840dac2e8c6d60631b604482015260640161037d565b60005b600354811015610a1c57600060016000600484815481106109a3576109a3611149565b9060005260206000200154815260200190815260200160002081905550600060026000600484815481106109d9576109d9611149565b9060005260206000200154815260200190815260200160002060006101000a81548160ff0219169083151502179055508080610a149061115f565b915050610980565b610a2860038787610df9565b50610a3560048585610df9565b50600090505b84811015610acf578060016000868685818110610a5a57610a5a611149565b9050602002013581526020019081526020016000208190555060016002600060048481548110610a8c57610a8c611149565b9060005260206000200154815260200190815260200160002060006101000a81548160ff0219169083151502179055508080610ac79061115f565b915050610a3b565b505050505050565b600082815260208190526040902060010154610af281610afc565b6105b78383610b8d565b610b068133610bf2565b50565b610b1382826108f6565b610636576000828152602081815260408083206001600160a01b03851684529091529020805460ff19166001179055610b493390565b6001600160a01b0316816001600160a01b0316837f2f8788117e7eff1d82e926ec794901d17c78024a50270940304540a733656f0d60405160405180910390a45050565b610b9782826108f6565b15610636576000828152602081815260408083206001600160a01b0385168085529252808320805460ff1916905551339285917ff6391f5c32d9c69d2a47ea670b442974b53935d1edc7fd64eb21e047a839171b9190a45050565b610bfc82826108f6565b61063657610c14816001600160a01b03166014610c56565b610c1f836020610c56565b604051602001610c3092919061119c565b60408051601f198184030181529082905262461bcd60e51b825261037d91600401611211565b60606000610c65836002611244565b610c70906002611123565b67ffffffffffffffff811115610c8857610c8861125b565b6040519080825280601f01601f191660200182016040528015610cb2576020820181803683370190505b509050600360fc1b81600081518110610ccd57610ccd611149565b60200101906001600160f81b031916908160001a905350600f60fb1b81600181518110610cfc57610cfc611149565b60200101906001600160f81b031916908160001a9053506000610d20846002611244565b610d2b906001611123565b90505b6001811115610da3576f181899199a1a9b1b9c1cb0b131b232b360811b85600f1660108110610d5f57610d5f611149565b1a60f81b828281518110610d7557610d75611149565b60200101906001600160f81b031916908160001a90535060049490941c93610d9c81611271565b9050610d2e565b508315610df25760405162461bcd60e51b815260206004820181905260248201527f537472696e67733a20686578206c656e67746820696e73756666696369656e74604482015260640161037d565b9392505050565b828054828255906000526020600020908101928215610e34579160200282015b82811115610e34578235825591602001919060010190610e19565b50610e40929150610e44565b5090565b5b80821115610e405760008155600101610e45565b80356001600160a01b0381168114610e7057600080fd5b919050565b60008083601f840112610e8757600080fd5b50813567ffffffffffffffff811115610e9f57600080fd5b602083019150836020828501011115610eb757600080fd5b9250929050565b60008060008060008060008060c0898b031215610eda57600080fd5b610ee389610e59565b9750610ef160208a01610e59565b9650610eff60408a01610e59565b955060608901359450608089013567ffffffffffffffff80821115610f2357600080fd5b610f2f8c838d01610e75565b909650945060a08b0135915080821115610f4857600080fd5b50610f558b828c01610e75565b999c989b5096995094979396929594505050565b600060208284031215610f7b57600080fd5b81356001600160e01b031981168114610df257600080fd5b600060208284031215610fa557600080fd5b5035919050565b600081518084526020808501945080840160005b83811015610fdc57815187529582019590820190600101610fc0565b509495945050505050565b604081526000610ffa6040830185610fac565b828103602084015261100c8185610fac565b95945050505050565b6000806040838503121561102857600080fd5b8235915061103860208401610e59565b90509250929050565b60006020828403121561105357600080fd5b610df282610e59565b60008083601f84011261106e57600080fd5b50813567ffffffffffffffff81111561108657600080fd5b6020830191508360208260051b8501011115610eb757600080fd5b600080600080604085870312156110b757600080fd5b843567ffffffffffffffff808211156110cf57600080fd5b6110db8883890161105c565b909650945060208701359150808211156110f457600080fd5b506111018782880161105c565b95989497509550505050565b634e487b7160e01b600052601160045260246000fd5b8082018082111561041b5761041b61110d565b8181038181111561041b5761041b61110d565b634e487b7160e01b600052603260045260246000fd5b6000600182016111715761117161110d565b5060010190565b60005b8381101561119357818101518382015260200161117b565b50506000910152565b7f416363657373436f6e74726f6c3a206163636f756e74200000000000000000008152600083516111d4816017850160208801611178565b7001034b99036b4b9b9b4b733903937b6329607d1b6017918401918201528351611205816028840160208801611178565b01602801949350505050565b6020815260008251806020840152611230816040850160208701611178565b601f01601f19169190910160400192915050565b808202811582820484141761041b5761041b61110d565b634e487b7160e01b600052604160045260246000fd5b6000816112805761128061110d565b50600019019056feb346b2ddc13f08bd9685b83a95304a79a2caac0aa7aa64129e1ae9f4361b4661e33cd123f09d9a4e3b34162dcaba99ee0b73fe748beb8ca15f84a66b0c147230a26469706673582212208097489e5e2873e993d3ed82e5820c49e007d546adaabcef5921e70c83ef814a64736f6c63430008110033b346b2ddc13f08bd9685b83a95304a79a2caac0aa7aa64129e1ae9f4361b4661",
  "devdoc": {
    "kind": "dev",
    "methods": {
      "getRoleAdmin(bytes32)": {
        "details": "Returns the admin role that controls `role`. See {grantRole} and {revokeRole}. To change a role's admin, use {_setRoleAdmin}."
      },
      "grantRole(bytes32,address)": {
        "details": "Grants `role` to `account`. If `account` had not been already granted `role`, emits a {RoleGranted} event. Requirements: - the caller must have ``role``'s admin role. May emit a {RoleGranted} event."
      },
      "hasRole(bytes32,address)": {
        "details": "Returns `true` if `account` has been granted `role`."
      },
      "renounceRole(bytes32,address)": {
        "details": "Revokes `role` from the calling account. Roles are often managed via {grantRole} and {revokeRole}: this function's purpose is to provide a mechanism for accounts to lose their privileges if they are compromised (such as when a trusted device is misplaced). If the calling account had been revoked `role`, emits a {RoleRevoked} event. Requirements: - the caller must be `account`. May emit a {RoleRevoked} event."
      },
      "revokeRole(bytes32,address)": {
        "details": "Revokes `role` from `account`. If `account` had been granted `role`, emits a {RoleRevoked} event. Requirements: - the caller must have ``role``'s admin role. May emit a {RoleRevoked} event."
      },
      "supportsInterface(bytes4)": {
        "details": "See {IERC165-supportsInterface}."
      }
    },
    "version": 1
  },
  "userdoc": {
    "kind": "user",
    "methods": {},
    "version": 1
  },
  "storageLayout": {
    "storage": [
      {
        "astId": 409,
        "contract": "contracts/Utilities/erc777Seller.sol:RAIR_Token_Purchaser",
        "label": "_roles",
        "offset": 0,
        "slot": "0",
        "type": "t_mapping(t_bytes32,t_struct(RoleData)404_storage)"
      },
      {
        "astId": 27,
        "contract": "contracts/Utilities/erc777Seller.sol:RAIR_Token_Purchaser",
        "label": "indexOfPrice",
        "offset": 0,
        "slot": "1",
        "type": "t_mapping(t_uint256,t_uint256)"
      },
      {
        "astId": 31,
        "contract": "contracts/Utilities/erc777Seller.sol:RAIR_Token_Purchaser",
        "label": "validEthPrice",
        "offset": 0,
        "slot": "2",
        "type": "t_mapping(t_uint256,t_bool)"
      },
      {
        "astId": 34,
        "contract": "contracts/Utilities/erc777Seller.sol:RAIR_Token_Purchaser",
        "label": "rairPrices",
        "offset": 0,
        "slot": "3",
        "type": "t_array(t_uint256)dyn_storage"
      },
      {
        "astId": 37,
        "contract": "contracts/Utilities/erc777Seller.sol:RAIR_Token_Purchaser",
        "label": "ethPrices",
        "offset": 0,
        "slot": "4",
        "type": "t_array(t_uint256)dyn_storage"
      },
      {
        "astId": 39,
        "contract": "contracts/Utilities/erc777Seller.sol:RAIR_Token_Purchaser",
        "label": "rairBalance",
        "offset": 0,
        "slot": "5",
        "type": "t_uint256"
      },
      {
        "astId": 41,
        "contract": "contracts/Utilities/erc777Seller.sol:RAIR_Token_Purchaser",
        "label": "rair777Address",
        "offset": 0,
        "slot": "6",
        "type": "t_address"
      }
    ],
    "types": {
      "t_address": {
        "encoding": "inplace",
        "label": "address",
        "numberOfBytes": "20"
      },
      "t_array(t_uint256)dyn_storage": {
        "base": "t_uint256",
        "encoding": "dynamic_array",
        "label": "uint256[]",
        "numberOfBytes": "32"
      },
      "t_bool": {
        "encoding": "inplace",
        "label": "bool",
        "numberOfBytes": "1"
      },
      "t_bytes32": {
        "encoding": "inplace",
        "label": "bytes32",
        "numberOfBytes": "32"
      },
      "t_mapping(t_address,t_bool)": {
        "encoding": "mapping",
        "key": "t_address",
        "label": "mapping(address => bool)",
        "numberOfBytes": "32",
        "value": "t_bool"
      },
      "t_mapping(t_bytes32,t_struct(RoleData)404_storage)": {
        "encoding": "mapping",
        "key": "t_bytes32",
        "label": "mapping(bytes32 => struct AccessControl.RoleData)",
        "numberOfBytes": "32",
        "value": "t_struct(RoleData)404_storage"
      },
      "t_mapping(t_uint256,t_bool)": {
        "encoding": "mapping",
        "key": "t_uint256",
        "label": "mapping(uint256 => bool)",
        "numberOfBytes": "32",
        "value": "t_bool"
      },
      "t_mapping(t_uint256,t_uint256)": {
        "encoding": "mapping",
        "key": "t_uint256",
        "label": "mapping(uint256 => uint256)",
        "numberOfBytes": "32",
        "value": "t_uint256"
      },
      "t_struct(RoleData)404_storage": {
        "encoding": "inplace",
        "label": "struct AccessControl.RoleData",
        "members": [
          {
            "astId": 401,
            "contract": "contracts/Utilities/erc777Seller.sol:RAIR_Token_Purchaser",
            "label": "members",
            "offset": 0,
            "slot": "0",
            "type": "t_mapping(t_address,t_bool)"
          },
          {
            "astId": 403,
            "contract": "contracts/Utilities/erc777Seller.sol:RAIR_Token_Purchaser",
            "label": "adminRole",
            "offset": 0,
            "slot": "1",
            "type": "t_bytes32"
          }
        ],
        "numberOfBytes": "64"
      },
      "t_uint256": {
        "encoding": "inplace",
        "label": "uint256",
        "numberOfBytes": "32"
      }
    }
  }
}