{
  "address": "0x1CDd47E43eb425b4eD9C7bC7a8131Cdc5c6039aa",
  "abi": [
    {
      "inputs": [
        {
          "internalType": "address",
          "name": "factoryAddress",
          "type": "address"
        }
      ],
      "stateMutability": "nonpayable",
      "type": "constructor"
    },
    {
      "anonymous": false,
      "inputs": [
        {
          "indexed": true,
          "internalType": "bytes32",
          "name": "role",
          "type": "bytes32"
        },
        {
          "indexed": true,
          "internalType": "bytes32",
          "name": "previousAdminRole",
          "type": "bytes32"
        },
        {
          "indexed": true,
          "internalType": "bytes32",
          "name": "newAdminRole",
          "type": "bytes32"
        }
      ],
      "name": "RoleAdminChanged",
      "type": "event"
    },
    {
      "anonymous": false,
      "inputs": [
        {
          "indexed": true,
          "internalType": "bytes32",
          "name": "role",
          "type": "bytes32"
        },
        {
          "indexed": true,
          "internalType": "address",
          "name": "account",
          "type": "address"
        },
        {
          "indexed": true,
          "internalType": "address",
          "name": "sender",
          "type": "address"
        }
      ],
      "name": "RoleGranted",
      "type": "event"
    },
    {
      "anonymous": false,
      "inputs": [
        {
          "indexed": true,
          "internalType": "bytes32",
          "name": "role",
          "type": "bytes32"
        },
        {
          "indexed": true,
          "internalType": "address",
          "name": "account",
          "type": "address"
        },
        {
          "indexed": true,
          "internalType": "address",
          "name": "sender",
          "type": "address"
        }
      ],
      "name": "RoleRevoked",
      "type": "event"
    },
    {
      "inputs": [],
      "name": "DEFAULT_ADMIN_ROLE",
      "outputs": [
        {
          "internalType": "bytes32",
          "name": "",
          "type": "bytes32"
        }
      ],
      "stateMutability": "view",
      "type": "function"
    },
    {
      "inputs": [],
      "name": "FACTORY",
      "outputs": [
        {
          "internalType": "bytes32",
          "name": "",
          "type": "bytes32"
        }
      ],
      "stateMutability": "view",
      "type": "function"
    },
    {
      "inputs": [],
      "name": "MAINTAINER",
      "outputs": [
        {
          "internalType": "bytes32",
          "name": "",
          "type": "bytes32"
        }
      ],
      "stateMutability": "view",
      "type": "function"
    },
    {
      "inputs": [
        {
          "internalType": "address",
          "name": "creator",
          "type": "address"
        },
        {
          "internalType": "string",
          "name": "title",
          "type": "string"
        }
      ],
      "name": "deployContract",
      "outputs": [
        {
          "internalType": "address",
          "name": "deploymentAddress",
          "type": "address"
        }
      ],
      "stateMutability": "nonpayable",
      "type": "function"
    },
    {
      "inputs": [
        {
          "internalType": "bytes32",
          "name": "role",
          "type": "bytes32"
        }
      ],
      "name": "getRoleAdmin",
      "outputs": [
        {
          "internalType": "bytes32",
          "name": "",
          "type": "bytes32"
        }
      ],
      "stateMutability": "view",
      "type": "function"
    },
    {
      "inputs": [
        {
          "internalType": "bytes32",
          "name": "role",
          "type": "bytes32"
        },
        {
          "internalType": "uint256",
          "name": "index",
          "type": "uint256"
        }
      ],
      "name": "getRoleMember",
      "outputs": [
        {
          "internalType": "address",
          "name": "",
          "type": "address"
        }
      ],
      "stateMutability": "view",
      "type": "function"
    },
    {
      "inputs": [
        {
          "internalType": "bytes32",
          "name": "role",
          "type": "bytes32"
        }
      ],
      "name": "getRoleMemberCount",
      "outputs": [
        {
          "internalType": "uint256",
          "name": "",
          "type": "uint256"
        }
      ],
      "stateMutability": "view",
      "type": "function"
    },
    {
      "inputs": [
        {
          "internalType": "bytes32",
          "name": "role",
          "type": "bytes32"
        },
        {
          "internalType": "address",
          "name": "account",
          "type": "address"
        }
      ],
      "name": "grantRole",
      "outputs": [],
      "stateMutability": "nonpayable",
      "type": "function"
    },
    {
      "inputs": [
        {
          "internalType": "bytes32",
          "name": "role",
          "type": "bytes32"
        },
        {
          "internalType": "address",
          "name": "account",
          "type": "address"
        }
      ],
      "name": "hasRole",
      "outputs": [
        {
          "internalType": "bool",
          "name": "",
          "type": "bool"
        }
      ],
      "stateMutability": "view",
      "type": "function"
    },
    {
      "inputs": [
        {
          "internalType": "bytes32",
          "name": "role",
          "type": "bytes32"
        },
        {
          "internalType": "address",
          "name": "account",
          "type": "address"
        }
      ],
      "name": "renounceRole",
      "outputs": [],
      "stateMutability": "nonpayable",
      "type": "function"
    },
    {
      "inputs": [
        {
          "internalType": "bytes32",
          "name": "role",
          "type": "bytes32"
        },
        {
          "internalType": "address",
          "name": "account",
          "type": "address"
        }
      ],
      "name": "revokeRole",
      "outputs": [],
      "stateMutability": "nonpayable",
      "type": "function"
    },
    {
      "inputs": [
        {
          "internalType": "bytes4",
          "name": "interfaceId",
          "type": "bytes4"
        }
      ],
      "name": "supportsInterface",
      "outputs": [
        {
          "internalType": "bool",
          "name": "",
          "type": "bool"
        }
      ],
      "stateMutability": "view",
      "type": "function"
    }
  ],
  "transactionHash": "0x668dd5001c21a31213a6cca9366630f5236a77f60f0ffcbad3f3f28a53530a57",
  "args": [
    "0x74278C22BfB1DCcc3d42F8b71280C25691E8C157"
  ],
  "numDeployments": 1,
  "solcInputHash": "7088d836d809f5bc7a61f306620ebc94",
  "bytecode": "0x60806040523480156200001157600080fd5b5060405162005b5a38038062005b5a833981016040819052620000349162000273565b6200004f60008051602062005b1a83398151915280620000c3565b6200007960008051602062005b3a83398151915260008051602062005b1a833981519152620000c3565b620000866000336200010e565b620000a160008051602062005b1a833981519152336200010e565b620000bc60008051602062005b3a833981519152826200010e565b50620002a5565b600082815260208190526040808220600101805490849055905190918391839186917fbd79b86ffe0ab8e8776151514217cd7cacd52c909f66475c3af44e129f0b00ff9190a4505050565b6200011a82826200011e565b5050565b6200013582826200016160201b620004231760201c565b60008281526001602090815260409091206200015c918390620004ab62000201821b17901c565b505050565b6000828152602081815260408083206001600160a01b038516845290915290205460ff166200011a576000828152602081815260408083206001600160a01b03851684529091529020805460ff19166001179055620001bd3390565b6001600160a01b0316816001600160a01b0316837f2f8788117e7eff1d82e926ec794901d17c78024a50270940304540a733656f0d60405160405180910390a45050565b600062000218836001600160a01b03841662000221565b90505b92915050565b60008181526001830160205260408120546200026a575081546001818101845560008481526020808220909301849055845484825282860190935260409020919091556200021b565b5060006200021b565b6000602082840312156200028657600080fd5b81516001600160a01b03811681146200029e57600080fd5b9392505050565b61586580620002b56000396000f3fe60806040523480156200001157600080fd5b5060043610620000c35760003560e01c806364f8f754116200007a57806364f8f75414620001a95780639010d07c14620001d957806391d1485414620001f0578063a217fddf1462000207578063ca15c8731462000210578063d547741f146200022757600080fd5b806301ffc9a714620000c8578063248a9ca314620000f45780632aabb72614620001295780632dd3100014620001515780632f2ff15d146200017957806336568abe1462000192575b600080fd5b620000df620000d9366004620009a6565b6200023e565b60405190151581526020015b60405180910390f35b6200011a62000105366004620009d2565b60009081526020819052604090206001015490565b604051908152602001620000eb565b6200011a7fd88b35d7427a01a8e16d8a129535b4cf3150edf8d92c0a44dc1eba73bdaf18cb81565b6200011a7f547b500e425d72fd0723933cceefc203cef652b4736fd04250c3369b3e1a0a7381565b620001906200018a36600462000a09565b6200026c565b005b62000190620001a336600462000a09565b6200029a565b620001c0620001ba36600462000a38565b62000320565b6040516001600160a01b039091168152602001620000eb565b620001c0620001ea36600462000ac2565b62000397565b620000df6200020136600462000a09565b620003b8565b6200011a600081565b6200011a62000221366004620009d2565b620003e1565b620001906200023836600462000a09565b620003fa565b60006001600160e01b03198216635a05180f60e01b14806200026657506200026682620004c2565b92915050565b6000828152602081905260409020600101546200028981620004f9565b62000295838362000508565b505050565b6001600160a01b0381163314620003105760405162461bcd60e51b815260206004820152602f60248201527f416363657373436f6e74726f6c3a2063616e206f6e6c792072656e6f756e636560448201526e103937b632b9903337b91039b2b63360891b60648201526084015b60405180910390fd5b6200031c82826200052e565b5050565b60007f547b500e425d72fd0723933cceefc203cef652b4736fd04250c3369b3e1a0a736200034e81620004f9565b6000848487604051620003619062000998565b6200036f9392919062000ae5565b604051809103906000f0801580156200038c573d6000803e3d6000fd5b509695505050505050565b6000828152600160205260408120620003b1908362000554565b9392505050565b6000918252602082815260408084206001600160a01b0393909316845291905290205460ff1690565b6000818152600160205260408120620002669062000562565b6000828152602081905260409020600101546200041781620004f9565b6200029583836200052e565b6200042f8282620003b8565b6200031c576000828152602081815260408083206001600160a01b03851684529091529020805460ff19166001179055620004673390565b6001600160a01b0316816001600160a01b0316837f2f8788117e7eff1d82e926ec794901d17c78024a50270940304540a733656f0d60405160405180910390a45050565b6000620003b1836001600160a01b0384166200056d565b60006001600160e01b03198216637965db0b60e01b14806200026657506301ffc9a760e01b6001600160e01b031983161462000266565b620005058133620005bf565b50565b62000514828262000423565b6000828152600160205260409020620002959082620004ab565b6200053a82826200062e565b600082815260016020526040902062000295908262000696565b6000620003b18383620006ad565b600062000266825490565b6000818152600183016020526040812054620005b65750815460018181018455600084815260208082209093018490558454848252828601909352604090209190915562000266565b50600062000266565b620005cb8282620003b8565b6200031c57620005e6816001600160a01b03166014620006da565b620005f3836020620006da565b6040516020016200060692919062000b59565b60408051601f198184030181529082905262461bcd60e51b8252620003079160040162000bd2565b6200063a8282620003b8565b156200031c576000828152602081815260408083206001600160a01b0385168085529252808320805460ff1916905551339285917ff6391f5c32d9c69d2a47ea670b442974b53935d1edc7fd64eb21e047a839171b9190a45050565b6000620003b1836001600160a01b03841662000894565b6000826000018281548110620006c757620006c762000c07565b9060005260206000200154905092915050565b60606000620006eb83600262000c33565b620006f890600262000c55565b67ffffffffffffffff81111562000713576200071362000c70565b6040519080825280601f01601f1916602001820160405280156200073e576020820181803683370190505b509050600360fc1b816000815181106200075c576200075c62000c07565b60200101906001600160f81b031916908160001a905350600f60fb1b816001815181106200078e576200078e62000c07565b60200101906001600160f81b031916908160001a9053506000620007b484600262000c33565b620007c190600162000c55565b90505b600181111562000843576f181899199a1a9b1b9c1cb0b131b232b360811b85600f1660108110620007f957620007f962000c07565b1a60f81b82828151811062000812576200081262000c07565b60200101906001600160f81b031916908160001a90535060049490941c936200083b8162000c86565b9050620007c4565b508315620003b15760405162461bcd60e51b815260206004820181905260248201527f537472696e67733a20686578206c656e67746820696e73756666696369656e74604482015260640162000307565b600081815260018301602052604081205480156200098d576000620008bb60018362000ca0565b8554909150600090620008d19060019062000ca0565b90508181146200093d576000866000018281548110620008f557620008f562000c07565b90600052602060002001549050808760000184815481106200091b576200091b62000c07565b6000918252602080832090910192909255918252600188019052604090208390555b855486908062000951576200095162000cba565b60019003818190600052602060002001600090559055856001016000868152602001908152602001600020600090556001935050505062000266565b600091505062000266565b614b5f8062000cd183390190565b600060208284031215620009b957600080fd5b81356001600160e01b031981168114620003b157600080fd5b600060208284031215620009e557600080fd5b5035919050565b80356001600160a01b038116811462000a0457600080fd5b919050565b6000806040838503121562000a1d57600080fd5b8235915062000a2f60208401620009ec565b90509250929050565b60008060006040848603121562000a4e57600080fd5b62000a5984620009ec565b9250602084013567ffffffffffffffff8082111562000a7757600080fd5b818601915086601f83011262000a8c57600080fd5b81358181111562000a9c57600080fd5b87602082850101111562000aaf57600080fd5b6020830194508093505050509250925092565b6000806040838503121562000ad657600080fd5b50508035926020909101359150565b6040815282604082015282846060830137600060608483018101919091526001600160a01b03929092166020820152601f909201601f191690910101919050565b60005b8381101562000b4357818101518382015260200162000b29565b8381111562000b53576000848401525b50505050565b7f416363657373436f6e74726f6c3a206163636f756e742000000000000000000081526000835162000b9381601785016020880162000b26565b7001034b99036b4b9b9b4b733903937b6329607d1b601791840191820152835162000bc681602884016020880162000b26565b01602801949350505050565b602081526000825180602084015262000bf381604085016020870162000b26565b601f01601f19169190910160400192915050565b634e487b7160e01b600052603260045260246000fd5b634e487b7160e01b600052601160045260246000fd5b600081600019048311821515161562000c505762000c5062000c1d565b500290565b6000821982111562000c6b5762000c6b62000c1d565b500190565b634e487b7160e01b600052604160045260246000fd5b60008162000c985762000c9862000c1d565b506000190190565b60008282101562000cb55762000cb562000c1d565b500390565b634e487b7160e01b600052603160045260246000fdfe60806040523480156200001157600080fd5b5060405162004b5f38038062004b5f833981016040819052620000349162000245565b6040805180820190915260048152632920a4a960e11b6020820152829060006200005f8382620003c5565b5060016200006e8282620003c5565b5050600160075550601580546001600160a01b031916331790556040805180820190915260048152632920a4a960e11b6020820152601690620000b29082620003c5565b506017805461ffff1916617530179055620000cf6000826200015e565b620000fb7ff0887ba65ee2024ea881d91b74c2450ef19e1557f03bed3ea9f16b037cbe2dc9826200015e565b620001277f872340a532bdd7bb02bea115c1b0f1ba87eac982f5b79b51ac189ffaac1b6fce826200015e565b6011805461ff001916610100179055601480546001600160a01b039092166001600160a01b03199092169190911790555062000491565b6200016a82826200016e565b5050565b60008281526006602090815260408083206001600160a01b038516845290915290205460ff166200016a5760008281526006602090815260408083206001600160a01b03851684529091529020805460ff19166001179055620001ce3390565b6001600160a01b0316816001600160a01b0316837f2f8788117e7eff1d82e926ec794901d17c78024a50270940304540a733656f0d60405160405180910390a45050565b634e487b7160e01b600052604160045260246000fd5b80516001600160a01b03811681146200024057600080fd5b919050565b600080604083850312156200025957600080fd5b82516001600160401b03808211156200027157600080fd5b818501915085601f8301126200028657600080fd5b8151818111156200029b576200029b62000212565b604051601f8201601f19908116603f01168101908382118183101715620002c657620002c662000212565b81604052828152602093508884848701011115620002e357600080fd5b600091505b82821015620003075784820184015181830185015290830190620002e8565b82821115620003195760008484830101525b95506200032b91505085820162000228565b925050509250929050565b600181811c908216806200034b57607f821691505b6020821081036200036c57634e487b7160e01b600052602260045260246000fd5b50919050565b601f821115620003c057600081815260208120601f850160051c810160208610156200039b5750805b601f850160051c820191505b81811015620003bc57828155600101620003a7565b5050505b505050565b81516001600160401b03811115620003e157620003e162000212565b620003f981620003f2845462000336565b8462000372565b602080601f831160018114620004315760008415620004185750858301515b600019600386901b1c1916600185901b178555620003bc565b600085815260208120601f198616915b82811015620004625788860151825594840194600190910190840162000441565b5085821015620004815787850151600019600388901b60f8161c191681555b5050505050600190811b01905550565b6146be80620004a16000396000f3fe608060405234801561001057600080fd5b50600436106102f15760003560e01c8063938e3d7b1161019d578063c45a0155116100e9578063e7662243116100a2578063e9300c6c1161007c578063e9300c6c146106fe578063e985e9c514610711578063f2fde38b1461074d578063fe6d81241461076057600080fd5b8063e7662243146106d0578063e8a3d485146106e3578063e927fc5c146106eb57600080fd5b8063c45a015514610643578063c87b56dd14610656578063c99931be14610669578063d31aa70f1461068a578063d547741f146106aa578063d6215ace146106bd57600080fd5b8063ab9aae3511610156578063b88d4fde11610130578063b88d4fde146105f7578063ba51b1b41461060a578063bda5ec331461061d578063c1d78b4a1461063057600080fd5b8063ab9aae35146105be578063ac323a1f146105d1578063b64b21ca146105e457600080fd5b8063938e3d7b14610562578063956711ac1461057557806395d89b41146105885780639f6350e614610590578063a217fddf146105a3578063a22cb465146105ab57600080fd5b80632a55205a1161025c5780635a1f3c28116102155780636c99dcbf116101ef5780636c99dcbf1461051657806370a082311461052957806381f460ef1461053c57806391d148541461054f57600080fd5b80635a1f3c28146104d05780636352211e146104f0578063673636b71461050357600080fd5b80632a55205a1461043f5780632e900374146104715780632f2ff15d1461048457806335755a731461049757806336568abe146104aa57806342842e0e146104bd57600080fd5b8063192e322c116102ae578063192e322c146103c85780631c10106f146103db5780631c899d1a146103e357806323b872dd146103f6578063248a9ca314610409578063276a28a31461042c57600080fd5b806301ffc9a7146102f657806306fdde031461031e578063081812fc14610333578063095ea7b31461035e5780630de2689e14610373578063175c4ef8146103a1575b600080fd5b6103096103043660046135fc565b610787565b60405190151581526020015b60405180910390f35b6103266107b2565b6040516103159190613671565b610346610341366004613684565b610844565b6040516001600160a01b039091168152602001610315565b61037161036c3660046136b9565b61086b565b005b610393610381366004613684565b60086020526000908152604090205481565b604051908152602001610315565b6103937f872340a532bdd7bb02bea115c1b0f1ba87eac982f5b79b51ac189ffaac1b6fce81565b6103716103d6366004613724565b610985565b601354610393565b6103716103f1366004613797565b6109f4565b6103716104043660046137e2565b610a5a565b610393610417366004613684565b60009081526006602052604090206001015490565b61030961043a366004613684565b610a8b565b61045261044d36600461381e565b610ac9565b604080516001600160a01b039093168352602083019190915201610315565b61037161047f366004613684565b610b86565b610371610492366004613840565b610bd5565b6103716104a53660046138b0565b610bfa565b6103716104b8366004613840565b610d99565b6103716104cb3660046137e2565b610e17565b6104e36104de366004613684565b610e32565b60405161031591906138ee565b6103466104fe366004613684565b610f8e565b610371610511366004613a15565b610fee565b610309610524366004613a76565b61129e565b610393610537366004613aaf565b611533565b61037161054a366004613ada565b6115b9565b61030961055d366004613840565b611640565b610371610570366004613b37565b61166b565b610371610583366004613b78565b6116c2565b6103266116e8565b61037161059e366004613b37565b6116f7565b610393600081565b6103716105b9366004613b93565b6117ce565b6103936105cc366004613684565b6117d9565b6103716105df366004613bbd565b611825565b6103716105f2366004613be1565b611849565b610371610605366004613c34565b6118a7565b610371610618366004613b37565b6118df565b61039361062b366004613caf565b6118f7565b61037161063e366004613cdb565b611a7b565b601554610346906001600160a01b031681565b610326610664366004613684565b611b60565b61067c610677366004613684565b611eba565b604051610315929190613d46565b610393610698366004613684565b60096020526000908152604090205481565b6103716106b8366004613840565b612034565b6103716106cb366004613ada565b612059565b6103716106de366004613db0565b6120d1565b610326612132565b601454610346906001600160a01b031681565b61037161070c366004613de3565b612141565b61030961071f366004613e27565b6001600160a01b03918216600090815260056020908152604080832093909416825291909152205460ff1690565b61037161075b366004613aaf565b61224b565b6103937ff0887ba65ee2024ea881d91b74c2450ef19e1557f03bed3ea9f16b037cbe2dc981565b60006001600160e01b03198216632baae9fd60e01b14806107ac57506107ac82612287565b92915050565b6060600080546107c190613e51565b80601f01602080910402602001604051908101604052809291908181526020018280546107ed90613e51565b801561083a5780601f1061080f5761010080835404028352916020019161083a565b820191906000526020600020905b81548152906001019060200180831161081d57829003601f168201915b5050505050905090565b600061084f826122ac565b506000908152600460205260409020546001600160a01b031690565b600061087682610f8e565b9050806001600160a01b0316836001600160a01b0316036108e85760405162461bcd60e51b815260206004820152602160248201527f4552433732313a20617070726f76616c20746f2063757272656e74206f776e656044820152603960f91b60648201526084015b60405180910390fd5b336001600160a01b03821614806109045750610904813361071f565b6109765760405162461bcd60e51b815260206004820152603e60248201527f4552433732313a20617070726f76652063616c6c6572206973206e6f7420746f60448201527f6b656e206f776e6572206e6f7220617070726f76656420666f7220616c6c000060648201526084016108df565b610980838361230e565b505050565b60006109908161237c565b601354889081106109b35760405162461bcd60e51b81526004016108df90613e8b565b600060138a815481106109c8576109c8613ed1565b906000526020600020906004020190506109e88a8a8a8a8a8a8a88612386565b50505050505050505050565b60006109ff8161237c565b6000848152600a60205260409020610a18838583613f2d565b507faab063d4691f636507767c2040fbab0b0e00a684d66a2f9640653ed5e7b859f9848484604051610a4c93929190614015565b60405180910390a150505050565b610a643382612707565b610a805760405162461bcd60e51b81526004016108df90614038565b610980838383612786565b600081815260086020526040812054601280548392908110610aaf57610aaf613ed1565b906000526020600020906007020160040154119050919050565b60008281526002602052604081205481906001600160a01b0316610b4b5760405162461bcd60e51b815260206004820152603360248201527f52414952204552433732313a20526f79616c747920717565727920666f722061604482015272103737b716b2bc34b9ba34b733903a37b5b2b760691b60648201526084016108df565b6014546017546001600160a01b0390911690620186a090610b709061ffff168661409c565b610b7a91906140d1565b915091505b9250929050565b6000610b918161237c565b817fa109ba539900bf1b633f956d63c96fc89b814c7287f7aa50a9216d0b55657207610bbc84611b60565b604051610bc99190613671565b60405180910390a25050565b600082815260066020526040902060010154610bf08161237c565b610980838361292d565b6000610c058161237c565b60135484908110610c285760405162461bcd60e51b81526004016108df90613e8b565b82610c755760405162461bcd60e51b815260206004820152601860248201527f52414952204552433732313a20456d707479206172726179000000000000000060448201526064016108df565b600060138681548110610c8a57610c8a613ed1565b9060005260206000209060040201905060005b84811015610d9057610d7e87878784818110610cbb57610cbb613ed1565b9050602002810190610ccd91906140e5565b35888885818110610ce057610ce0613ed1565b9050602002810190610cf291906140e5565b60400135898986818110610d0857610d08613ed1565b9050602002810190610d1a91906140e5565b606001358a8a87818110610d3057610d30613ed1565b9050602002810190610d4291906140e5565b602001358b8b88818110610d5857610d58613ed1565b9050602002810190610d6a91906140e5565b610d78906080810190614105565b89612386565b80610d888161414b565b915050610c9d565b50505050505050565b6001600160a01b0381163314610e095760405162461bcd60e51b815260206004820152602f60248201527f416363657373436f6e74726f6c3a2063616e206f6e6c792072656e6f756e636560448201526e103937b632b9903337b91039b2b63360891b60648201526084016108df565b610e1382826129b3565b5050565b610980838383604051806020016040528060008152506118a7565b610e5d6040518060800160405280600081526020016000815260200160608152602001606081525090565b60138281548110610e7057610e70613ed1565b90600052602060002090600402016040518060800160405290816000820154815260200160018201548152602001600282018054610ead90613e51565b80601f0160208091040260200160405190810160405280929190818152602001828054610ed990613e51565b8015610f265780601f10610efb57610100808354040283529160200191610f26565b820191906000526020600020905b815481529060010190602001808311610f0957829003601f168201915b5050505050815260200160038201805480602002602001604051908101604052809291908181526020018280548015610f7e57602002820191906000526020600020905b815481526020019060010190808311610f6a575b5050505050815250509050919050565b6000818152600260205260408120546001600160a01b0316806107ac5760405162461bcd60e51b8152602060048201526018602482015277115490cdcc8c4e881a5b9d985b1a59081d1bdad95b88125160421b60448201526064016108df565b6000610ff98161237c565b6012548690811061101c5760405162461bcd60e51b81526004016108df90614164565b60026007540361106e5760405162461bcd60e51b815260206004820152601f60248201527f5265656e7472616e637947756172643a207265656e7472616e742063616c6c0060448201526064016108df565b600260078190555060006012888154811061108b5761108b613ed1565b9060005260206000209060070201905060648610156110bc5760405162461bcd60e51b81526004016108df906141a5565b806003015485111561114c5760405162461bcd60e51b815260206004820152604d60248201527f52414952204552433732313a20546f6b656e7320616c6c6f7765642073686f7560448201527f6c64206265206c657373207468616e20746865206e756d626572206f66206d6960648201526c6e7461626c6520746f6b656e7360981b608482015260a4016108df565b80600301548411156111db5760405162461bcd60e51b815260206004820152604c60248201527f52414952204552433732313a204c6f636b656420746f6b656e732073686f756c60448201527f64206265206c657373207468616e20746865206e756d626572206f66206d696e60648201526b7461626c6520746f6b656e7360a01b608482015260a4016108df565b60028101859055831561123a5780546001820154604080519283526020830191909152810185905288907fd2deaeacc8e325d59c09833f4f8df9c144784d547a7725c7085fae3b644c93e49060600160405180910390a2600481018490555b600581018690556006810161124f88826141f2565b507f675fe88181b85cb3612f534abc69fa999ba2e4744dc830488c9de8b25ec6cfd188888888886040516112879594939291906142b1565b60405180910390a150506001600755505050505050565b60008380601380549050116112c55760405162461bcd60e51b81526004016108df90613e8b565b6000601386815481106112da576112da613ed1565b9060005260206000209060040201604051806080016040529081600082015481526020016001820154815260200160028201805461131790613e51565b80601f016020809104026020016040519081016040528092919081815260200182805461134390613e51565b80156113905780601f1061136557610100808354040283529160200191611390565b820191906000526020600020905b81548152906001019060200180831161137357829003601f168201915b50505050508152602001600382018054806020026020016040519081016040528092919081815260200182805480156113e857602002820191906000526020600020905b8154815260200190600101908083116113d4575b5050505050815250509050848160000151826020015161140891906142e7565b6114139060016142fe565b11801561143a575080516020820151859161142d916142e7565b6114389060016142fe565b115b6114865760405162461bcd60e51b815260206004820152601f60248201527f52414952204552433732313a20496e76616c696420706172616d65746572730060448201526064016108df565b6020810151156115245780516000906114a09086906142fe565b905060008683600001516114b491906142fe565b90505b81811015611521576000818152600260205260409020546001600160a01b0316151580156114fe5750886001600160a01b03166114f382610f8e565b6001600160a01b0316145b1561150f576001945050505061152a565b806115198161414b565b9150506114b7565b50505b60009250505b50949350505050565b60006001600160a01b03821661159d5760405162461bcd60e51b815260206004820152602960248201527f4552433732313a2061646472657373207a65726f206973206e6f7420612076616044820152683634b21037bbb732b960b91b60648201526084016108df565b506001600160a01b031660009081526003602052604090205490565b60006115c48161237c565b6000858152600c602052604090206115dd848683613f2d565b506000858152600e602052604090819020805460ff1916841515179055517f2bb1ada610787986fd4521b4954a78d4f238f7bca767c926c6f07d999a9cda4390611631908790879087908790601890614393565b60405180910390a15050505050565b60009182526006602090815260408084206001600160a01b0393909316845291905290205460ff1690565b60006116768161237c565b6010611683838583613f2d565b507f64729fba330f29cb50d748098a4dff25d203b0c55833653113fb5e80bcbd16c183836040516116b59291906143d3565b60405180910390a1505050565b60006116cd8161237c565b50601180549115156101000261ff0019909216919091179055565b6060601680546107c190613e51565b60006117028161237c565b8282600081811061171557611715613ed1565b9050013560f81c60f81b6001600160f81b031916601760f91b146117905760405162461bcd60e51b815260206004820152602c60248201527f52414952204552433732313a20457874656e73696f6e206d757374207374617260448201526b742077697468206120272e2760a01b60648201526084016108df565b601861179d838583613f2d565b507faa320816703c301a5fd8413568c3c1973befd093aa334d16a2414f0019b0f3da60186040516116b591906143e7565b610e13338383612a1a565b600081815260086020908152604080832054835260099091528120546013908154811061180857611808613ed1565b906000526020600020906004020160000154826107ac91906142e7565b60006118308161237c565b506017805461ffff191661ffff92909216919091179055565b60006118548161237c565b600f611861848683613f2d565b506011805460ff19168315151790556040517f5a46dbcba74fa6a037f659c582371f45be00bed8b34d9edc9ee5ef9eb2571d9d90610a4c908690869086906018906143fa565b6118b13383612707565b6118cd5760405162461bcd60e51b81526004016108df90614038565b6118d984848484612ae8565b50505050565b60006118ea8161237c565b60166118d9838583613f2d565b600083806013805490501161191e5760405162461bcd60e51b81526004016108df90613e8b565b60006013868154811061193357611933613ed1565b9060005260206000209060040201604051806080016040529081600082015481526020016001820154815260200160028201805461197090613e51565b80601f016020809104026020016040519081016040528092919081815260200182805461199c90613e51565b80156119e95780601f106119be576101008083540402835291602001916119e9565b820191906000526020600020905b8154815290600101906020018083116119cc57829003601f168201915b5050505050815260200160038201805480602002602001604051908101604052809291908181526020018280548015611a4157602002820191906000526020600020905b815481526020019060010190808311611a2d575b5050505050815250509050611a71858260000151611a5f91906142fe565b8251611a6c9087906142fe565b612b1b565b9695505050505050565b6000611a868161237c565b838214611afb5760405162461bcd60e51b815260206004820152603b60248201527f52414952204552433732313a20546f6b656e2049447320616e6420555249732060448201527f73686f756c642068617665207468652073616d65206c656e677468000000000060648201526084016108df565b60005b84811015611b5857611b46868683818110611b1b57611b1b613ed1565b90506020020135858584818110611b3457611b34613ed1565b90506020028101906103f19190614105565b80611b508161414b565b915050611afe565b505050505050565b6000818152600a6020526040812080546060929190611b7e90613e51565b80601f0160208091040260200160405190810160405280929190818152602001828054611baa90613e51565b8015611bf75780601f10611bcc57610100808354040283529160200191611bf7565b820191906000526020600020905b815481529060010190602001808311611bda57829003601f168201915b50505050509050600081511115611c0e5792915050565b6000838152600860209081526040808320548352600c90915290208054611c3490613e51565b80601f0160208091040260200160405190810160405280929190818152602001828054611c6090613e51565b8015611cad5780601f10611c8257610100808354040283529160200191611cad565b820191906000526020600020905b815481529060010190602001808311611c9057829003601f168201915b50505050509050600081511115611d1f576000838152600860209081526040808320548352600e90915290205460ff16156107ac5780611cf4611cef856117d9565b612bd5565b6018604051602001611d0893929190614433565b604051602081830303815290604052915050919050565b600083815260086020908152604080832054835260098252808320548352600b90915290208054611d4f90613e51565b80601f0160208091040260200160405190810160405280929190818152602001828054611d7b90613e51565b8015611dc85780601f10611d9d57610100808354040283529160200191611dc8565b820191906000526020600020905b815481529060010190602001808311611dab57829003601f168201915b50505050509050600081511115611e1457600083815260086020908152604080832054835260098252808320548352600d90915290205460ff16156107ac5780611cf4611cef856117d9565b600f8054611e2190613e51565b80601f0160208091040260200160405190810160405280929190818152602001828054611e4d90613e51565b8015611e9a5780601f10611e6f57610100808354040283529160200191611e9a565b820191906000526020600020905b815481529060010190602001808311611e7d57829003601f168201915b5050601154939450505060ff9091161590506107ac5780611cf484612bd5565b611efa6040518060e00160405280600081526020016000815260200160008152602001600081526020016000815260200160008152602001606081525090565b6000828060128054905011611f215760405162461bcd60e51b81526004016108df90614164565b60128481548110611f3457611f34613ed1565b90600052602060002090600702016040518060e0016040529081600082015481526020016001820154815260200160028201548152602001600382015481526020016004820154815260200160058201548152602001600682018054611f9990613e51565b80601f0160208091040260200160405190810160405280929190818152602001828054611fc590613e51565b80156120125780601f10611fe757610100808354040283529160200191612012565b820191906000526020600020905b815481529060010190602001808311611ff557829003601f168201915b5050509190925250505060009485526009602052604090942054939492505050565b60008281526006602052604090206001015461204f8161237c565b61098083836129b3565b60006120648161237c565b6000858152600b6020526040902061207d848683613f2d565b506000858152600d602052604090819020805460ff1916841515179055517ff143691bfd54372ac96096580c7ac8fa560f8c1b3c770db4f16eb1197c8d2f4390611631908790879087908790601890614393565b7ff0887ba65ee2024ea881d91b74c2450ef19e1557f03bed3ea9f16b037cbe2dc96120fb8161237c565b6012548390811061211e5760405162461bcd60e51b81526004016108df90614164565b61212b8585856001612cd5565b5050505050565b6060601080546107c190613e51565b600061214c8161237c565b601354600090156121985760138054612167906001906142e7565b8154811061217757612177613ed1565b906000526020600020906004020160010154600161219591906142fe565b90505b60138054600181810183556000929092526004027f66de8ffda797e3de9c05e8fc57b3bf0ec28a930d40b0d285d93c06501cf6a09001828155906121dc85846142fe565b6121e691906142e7565b6001820155600281016121f986826141f2565b50601354612209906001906142e7565b7fe318895d3fd44cb3524ca783576b7737ae76b172e344357462ab4258b50c1c2286848760405161223c939291906144d3565b60405180910390a25050505050565b60006122568161237c565b61226160008361292d565b601480546001600160a01b0319166001600160a01b038416179055610e13600033610d99565b60006001600160e01b03198216637965db0b60e01b14806107ac57506107ac82612f5d565b6000818152600260205260409020546001600160a01b031661230b5760405162461bcd60e51b8152602060048201526018602482015277115490cdcc8c4e881a5b9d985b1a59081d1bdad95b88125160421b60448201526064016108df565b50565b600081815260046020526040902080546001600160a01b0319166001600160a01b038416908117909155819061234382610f8e565b6001600160a01b03167f8c5be1e5ebec7d5bd14f71427d1e84f3dd0314c0f7b2291e5b200ac8c7c3b92560405160405180910390a45050565b61230b8133612fad565b80546003820154156123f657600382018054601291906123a8906001906142e7565b815481106123b8576123b8613ed1565b9060005260206000200154815481106123d3576123d3613ed1565b906000526020600020906007020160010154905080806123f29061414b565b9150505b600180830154906124078a846142fe565b61241191906142e7565b11156124695760405162461bcd60e51b815260206004820152602160248201527f52414952204552433732313a20496e76616c69642072616e6765206c656e67746044820152600d60fb1b60648201526084016108df565b878711156124fb5760405162461bcd60e51b815260206004820152605360248201527f52414952204552433732313a204e756d626572206f6620616c6c6f776564207460448201527f6f6b656e73206d757374206265206c657373206f7220657175616c207468616e606482015272040e8d0ca40e4c2dcceca4ee640d8cadccee8d606b1b608482015260a4016108df565b8786111561258c5760405162461bcd60e51b815260206004820152605260248201527f52414952204552433732313a204e756d626572206f66206c6f636b656420746f60448201527f6b656e73206d757374206265206c657373206f7220657175616c207468616e206064820152710e8d0ca40e4c2dcceca4ee640d8cadccee8d60731b608482015260a4016108df565b60648510156125ad5760405162461bcd60e51b81526004016108df906141a5565b60128054600181810183556000929092526007027fbb8a6a4669ba250d26cd7a459eca9d215f8307e33aebe50379bc5a3617ec344401828155906125f18a846142fe565b6125fb91906142e7565b6001820155600381018990556002810188905560048101879055600581018690556006810161262b858783613f2d565b508960096000600160128054905061264391906142e7565b81526020810191909152604001600020556012546003840190612668906001906142e7565b90806001815401808255809150506001900390600052602060002001600090919091909150557fc4e232d19c750404428930450f0a050bf4c166f32910679d1b9e52f17bad83478a826000015483600101548460050154856002015486600401548760060160016012805490506126df91906142e7565b6040516126f39897969594939291906144f8565b60405180910390a150505050505050505050565b60008061271383610f8e565b9050806001600160a01b0316846001600160a01b0316148061275a57506001600160a01b0380821660009081526005602090815260408083209388168352929052205460ff165b8061277e5750836001600160a01b031661277384610844565b6001600160a01b0316145b949350505050565b826001600160a01b031661279982610f8e565b6001600160a01b0316146127fd5760405162461bcd60e51b815260206004820152602560248201527f4552433732313a207472616e736665722066726f6d20696e636f72726563742060448201526437bbb732b960d91b60648201526084016108df565b6001600160a01b03821661285f5760405162461bcd60e51b8152602060048201526024808201527f4552433732313a207472616e7366657220746f20746865207a65726f206164646044820152637265737360e01b60648201526084016108df565b61286a838383613011565b61287560008261230e565b6001600160a01b038316600090815260036020526040812080546001929061289e9084906142e7565b90915550506001600160a01b03821660009081526003602052604081208054600192906128cc9084906142fe565b909155505060008181526002602052604080822080546001600160a01b0319166001600160a01b0386811691821790925591518493918716917fddf252ad1be2c89b69c2b068fc378daa952ba7f163c4a11628f55a4df523b3ef91a4505050565b6129378282611640565b610e135760008281526006602090815260408083206001600160a01b03851684529091529020805460ff1916600117905561296f3390565b6001600160a01b0316816001600160a01b0316837f2f8788117e7eff1d82e926ec794901d17c78024a50270940304540a733656f0d60405160405180910390a45050565b6129bd8282611640565b15610e135760008281526006602090815260408083206001600160a01b0385168085529252808320805460ff1916905551339285917ff6391f5c32d9c69d2a47ea670b442974b53935d1edc7fd64eb21e047a839171b9190a45050565b816001600160a01b0316836001600160a01b031603612a7b5760405162461bcd60e51b815260206004820152601960248201527f4552433732313a20617070726f766520746f2063616c6c65720000000000000060448201526064016108df565b6001600160a01b03838116600081815260056020908152604080832094871680845294825291829020805460ff191686151590811790915591519182527f17307eab39ab6107e8899845ad3d59bd9653f200f220920489ca2b5937696c31910160405180910390a3505050565b612af3848484612786565b612aff848484846131a8565b6118d95760405162461bcd60e51b81526004016108df90614546565b815b818111612b53576000818152600260205260409020546001600160a01b031615612b535780612b4b8161414b565b915050612b1d565b808311158015612b635750818111155b6107ac5760405162461bcd60e51b815260206004820152603960248201527f52414952204552433732313a20546865726520617265206e6f20617661696c6160448201527f626c6520746f6b656e7320696e20746869732072616e67652e0000000000000060648201526084016108df565b606081600003612bfc5750506040805180820190915260018152600360fc1b602082015290565b8160005b8115612c265780612c108161414b565b9150612c1f9050600a836140d1565b9150612c00565b6000816001600160401b03811115612c4057612c4061396a565b6040519080825280601f01601f191660200182016040528015612c6a576020820181803683370190505b5090505b841561277e57612c7f6001836142e7565b9150612c8c600a86614598565b612c979060306142fe565b60f81b818381518110612cac57612cac613ed1565b60200101906001600160f81b031916908160001a905350612cce600a866140d1565b9450612c6e565b600060128481548110612cea57612cea613ed1565b9060005260206000209060070201905060006013600960008781526020019081526020016000205481548110612d2257612d22613ed1565b906000526020600020906004020190508282600201541015612da35760405162461bcd60e51b815260206004820152603460248201527f52414952204552433732313a2043616e6e6f74206d696e74206d6f726520746f6044820152736b656e732066726f6d20746869732072616e676560601b60648201526084016108df565b8054612db09085906142fe565b825411801590612ddc5750600182015481548490612dcf9087906142fe565b612dd991906142fe565b11155b612e285760405162461bcd60e51b815260206004820181905260248201527f52414952204552433732313a20496e76616c696420746f6b656e20696e64657860448201526064016108df565b8215612ead57612e5e86600185878560000154612e4591906142fe565b612e4f91906142fe565b612e5991906142e7565b6132a9565b8460086000600186888660000154612e7691906142fe565b612e8091906142fe565b612e8a91906142e7565b815260208101919091526040016000205582612ea5816145ac565b935050612e28565b82826002016000828254612ec191906142e7565b9091555050600482015415611b585782826004015411612ee75760006004830155612f01565b82826004016000828254612efb91906142e7565b90915550505b8160040154600003611b58578154600183015460405187927f83d23f069f5730ce94e107a9258bae3b7a0f97184978fd7daa41c8df8ac6c29e92612f4d92918252602082015260400190565b60405180910390a2505050505050565b60006001600160e01b031982166380ac58cd60e01b1480612f8e57506001600160e01b03198216635b5e139f60e01b145b806107ac57506301ffc9a760e01b6001600160e01b03198316146107ac565b612fb78282611640565b610e1357612fcf816001600160a01b031660146132c3565b612fda8360206132c3565b604051602001612feb9291906145c3565b60408051601f198184030181529082905262461bcd60e51b82526108df91600401613671565b6002600754036130635760405162461bcd60e51b815260206004820152601f60248201527f5265656e7472616e637947756172643a207265656e7472616e742063616c6c0060448201526064016108df565b60026007556001600160a01b0383161580159061308857506001600160a01b03821615155b1561319e57601254158015906130b4575060008181526008602090815260408220549091526009905260015b15613164576000818152600860205260409020546012805490919081106130dd576130dd613ed1565b9060005260206000209060070201600401546000146131645760405162461bcd60e51b815260206004820152603a60248201527f52414952204552433732313a205472616e736665727320666f7220746869732060448201527f72616e6765206172652063757272656e746c79206c6f636b656400000000000060648201526084016108df565b601154610100900460ff161561319e5761319e7f872340a532bdd7bb02bea115c1b0f1ba87eac982f5b79b51ac189ffaac1b6fce33612fad565b5050600160075550565b60006001600160a01b0384163b1561329e57604051630a85bd0160e11b81526001600160a01b0385169063150b7a02906131ec903390899088908890600401614638565b6020604051808303816000875af1925050508015613227575060408051601f3d908101601f191682019092526132249181019061466b565b60015b613284573d808015613255576040519150601f19603f3d011682016040523d82523d6000602084013e61325a565b606091505b50805160000361327c5760405162461bcd60e51b81526004016108df90614546565b805181602001fd5b6001600160e01b031916630a85bd0160e11b14905061277e565b506001949350505050565b610e13828260405180602001604052806000815250613465565b606060006132d283600261409c565b6132dd9060026142fe565b6001600160401b038111156132f4576132f461396a565b6040519080825280601f01601f19166020018201604052801561331e576020820181803683370190505b509050600360fc1b8160008151811061333957613339613ed1565b60200101906001600160f81b031916908160001a905350600f60fb1b8160018151811061336857613368613ed1565b60200101906001600160f81b031916908160001a905350600061338c84600261409c565b6133979060016142fe565b90505b600181111561340f576f181899199a1a9b1b9c1cb0b131b232b360811b85600f16601081106133cb576133cb613ed1565b1a60f81b8282815181106133e1576133e1613ed1565b60200101906001600160f81b031916908160001a90535060049490941c93613408816145ac565b905061339a565b50831561345e5760405162461bcd60e51b815260206004820181905260248201527f537472696e67733a20686578206c656e67746820696e73756666696369656e7460448201526064016108df565b9392505050565b61346f8383613498565b61347c60008484846131a8565b6109805760405162461bcd60e51b81526004016108df90614546565b6001600160a01b0382166134ee5760405162461bcd60e51b815260206004820181905260248201527f4552433732313a206d696e7420746f20746865207a65726f206164647265737360448201526064016108df565b6000818152600260205260409020546001600160a01b0316156135535760405162461bcd60e51b815260206004820152601c60248201527f4552433732313a20746f6b656e20616c7265616479206d696e7465640000000060448201526064016108df565b61355f60008383613011565b6001600160a01b03821660009081526003602052604081208054600192906135889084906142fe565b909155505060008181526002602052604080822080546001600160a01b0319166001600160a01b03861690811790915590518392907fddf252ad1be2c89b69c2b068fc378daa952ba7f163c4a11628f55a4df523b3ef908290a45050565b6001600160e01b03198116811461230b57600080fd5b60006020828403121561360e57600080fd5b813561345e816135e6565b60005b8381101561363457818101518382015260200161361c565b838111156118d95750506000910152565b6000815180845261365d816020860160208601613619565b601f01601f19169290920160200192915050565b60208152600061345e6020830184613645565b60006020828403121561369657600080fd5b5035919050565b80356001600160a01b03811681146136b457600080fd5b919050565b600080604083850312156136cc57600080fd5b6136d58361369d565b946020939093013593505050565b60008083601f8401126136f557600080fd5b5081356001600160401b0381111561370c57600080fd5b602083019150836020828501011115610b7f57600080fd5b600080600080600080600060c0888a03121561373f57600080fd5b873596506020880135955060408801359450606088013593506080880135925060a08801356001600160401b0381111561377857600080fd5b6137848a828b016136e3565b989b979a50959850939692959293505050565b6000806000604084860312156137ac57600080fd5b8335925060208401356001600160401b038111156137c957600080fd5b6137d5868287016136e3565b9497909650939450505050565b6000806000606084860312156137f757600080fd5b6138008461369d565b925061380e6020850161369d565b9150604084013590509250925092565b6000806040838503121561383157600080fd5b50508035926020909101359150565b6000806040838503121561385357600080fd5b823591506138636020840161369d565b90509250929050565b60008083601f84011261387e57600080fd5b5081356001600160401b0381111561389557600080fd5b6020830191508360208260051b8501011115610b7f57600080fd5b6000806000604084860312156138c557600080fd5b8335925060208401356001600160401b038111156138e257600080fd5b6137d58682870161386c565b6000602080835283518184015280840151604084015260408401516080606085015261391d60a0850182613645565b6060860151858203601f19016080870152805180835290840192506000918401905b8083101561395f578351825292840192600192909201919084019061393f565b509695505050505050565b634e487b7160e01b600052604160045260246000fd5b60006001600160401b038084111561399a5761399a61396a565b604051601f8501601f19908116603f011681019082821181831017156139c2576139c261396a565b816040528093508581528686860111156139db57600080fd5b858560208301376000602087830101525050509392505050565b600082601f830112613a0657600080fd5b61345e83833560208501613980565b600080600080600060a08688031215613a2d57600080fd5b8535945060208601356001600160401b03811115613a4a57600080fd5b613a56888289016139f5565b959895975050505060408401359360608101359360809091013592509050565b60008060008060808587031215613a8c57600080fd5b613a958561369d565b966020860135965060408601359560600135945092505050565b600060208284031215613ac157600080fd5b61345e8261369d565b803580151581146136b457600080fd5b60008060008060608587031215613af057600080fd5b8435935060208501356001600160401b03811115613b0d57600080fd5b613b19878288016136e3565b9094509250613b2c905060408601613aca565b905092959194509250565b60008060208385031215613b4a57600080fd5b82356001600160401b03811115613b6057600080fd5b613b6c858286016136e3565b90969095509350505050565b600060208284031215613b8a57600080fd5b61345e82613aca565b60008060408385031215613ba657600080fd5b613baf8361369d565b915061386360208401613aca565b600060208284031215613bcf57600080fd5b813561ffff8116811461345e57600080fd5b600080600060408486031215613bf657600080fd5b83356001600160401b03811115613c0c57600080fd5b613c18868287016136e3565b9094509250613c2b905060208501613aca565b90509250925092565b60008060008060808587031215613c4a57600080fd5b613c538561369d565b9350613c616020860161369d565b92506040850135915060608501356001600160401b03811115613c8357600080fd5b8501601f81018713613c9457600080fd5b613ca387823560208401613980565b91505092959194509250565b600080600060608486031215613cc457600080fd5b505081359360208301359350604090920135919050565b60008060008060408587031215613cf157600080fd5b84356001600160401b0380821115613d0857600080fd5b613d148883890161386c565b90965094506020870135915080821115613d2d57600080fd5b50613d3a8782880161386c565b95989497509550505050565b60408152825160408201526020830151606082015260408301516080820152606083015160a0820152608083015160c082015260a083015160e0820152600060c084015160e0610100840152613da0610120840182613645565b9150508260208301529392505050565b600080600060608486031215613dc557600080fd5b613dce8461369d565b95602085013595506040909401359392505050565b60008060408385031215613df657600080fd5b82356001600160401b03811115613e0c57600080fd5b613e18858286016139f5565b95602094909401359450505050565b60008060408385031215613e3a57600080fd5b613e438361369d565b91506138636020840161369d565b600181811c90821680613e6557607f821691505b602082108103613e8557634e487b7160e01b600052602260045260246000fd5b50919050565b60208082526026908201527f52414952204552433732313a20436f6c6c656374696f6e20646f6573206e6f7460408201526508195e1a5cdd60d21b606082015260800190565b634e487b7160e01b600052603260045260246000fd5b601f82111561098057600081815260208120601f850160051c81016020861015613f0e5750805b601f850160051c820191505b81811015611b5857828155600101613f1a565b6001600160401b03831115613f4457613f4461396a565b613f5883613f528354613e51565b83613ee7565b6000601f841160018114613f8c5760008515613f745750838201355b600019600387901b1c1916600186901b17835561212b565b600083815260209020601f19861690835b82811015613fbd5786850135825560209485019460019092019101613f9d565b5086821015613fda5760001960f88860031b161c19848701351681555b505060018560011b0183555050505050565b81835281816020850137506000828201602090810191909152601f909101601f19169091010190565b83815260406020820152600061402f604083018486613fec565b95945050505050565b6020808252602e908201527f4552433732313a2063616c6c6572206973206e6f7420746f6b656e206f776e6560408201526d1c881b9bdc88185c1c1c9bdd995960921b606082015260800190565b634e487b7160e01b600052601160045260246000fd5b60008160001904831182151516156140b6576140b6614086565b500290565b634e487b7160e01b600052601260045260246000fd5b6000826140e0576140e06140bb565b500490565b60008235609e198336030181126140fb57600080fd5b9190910192915050565b6000808335601e1984360301811261411c57600080fd5b8301803591506001600160401b0382111561413657600080fd5b602001915036819003821315610b7f57600080fd5b60006001820161415d5761415d614086565b5060010190565b60208082526021908201527f52414952204552433732313a2052616e676520646f6573206e6f7420657869736040820152601d60fa1b606082015260800190565b6020808252602d908201527f52414952204552433732313a204d696e696d756d20707269636520666f72206160408201526c02072616e67652069732031303609c1b606082015260800190565b81516001600160401b0381111561420b5761420b61396a565b61421f816142198454613e51565b84613ee7565b602080601f831160018114614254576000841561423c5750858301515b600019600386901b1c1916600185901b178555611b58565b600085815260208120601f198616915b8281101561428357888601518255948401946001909101908401614264565b50858210156142a15787850151600019600388901b60f8161c191681555b5050505050600190811b01905550565b85815260a0602082015260006142ca60a0830187613645565b604083019590955250606081019290925260809091015292915050565b6000828210156142f9576142f9614086565b500390565b6000821982111561431157614311614086565b500190565b6000815461432381613e51565b808552602060018381168015614340576001811461435a57614388565b60ff1985168884015283151560051b880183019550614388565b866000528260002060005b858110156143805781548a8201860152908301908401614365565b890184019650505b505050505092915050565b8581526080602082015260006143ad608083018688613fec565b841515604084015282810360608401526143c78185614316565b98975050505050505050565b60208152600061277e602083018486613fec565b60208152600061345e6020830184614316565b60608152600061440e606083018688613fec565b841515602084015282810360408401526144288185614316565b979650505050505050565b6000845160206144468285838a01613619565b8551918401916144598184848a01613619565b855492019160009061446a81613e51565b600182811680156144825760018114614497576144c3565b60ff19841687528215158302870194506144c3565b896000528560002060005b848110156144bb578154898201529083019087016144a2565b505082870194505b50929a9950505050505050505050565b6060815260006144e66060830186613645565b60208301949094525060400152919050565b60006101008a83528960208401528860408401528760608401528660808401528560a08401528060c084015261453081840186614316565b9150508260e08301529998505050505050505050565b60208082526032908201527f4552433732313a207472616e7366657220746f206e6f6e20455243373231526560408201527131b2b4bb32b91034b6b83632b6b2b73a32b960711b606082015260800190565b6000826145a7576145a76140bb565b500690565b6000816145bb576145bb614086565b506000190190565b7f416363657373436f6e74726f6c3a206163636f756e74200000000000000000008152600083516145fb816017850160208801613619565b7001034b99036b4b9b9b4b733903937b6329607d1b601791840191820152835161462c816028840160208801613619565b01602801949350505050565b6001600160a01b0385811682528416602082015260408101839052608060608201819052600090611a7190830184613645565b60006020828403121561467d57600080fd5b815161345e816135e656fea2646970667358221220301076587127351ddd1b9f554d05bb8059596837ce9c08f7814b41f30c88bbe864736f6c634300080f0033a2646970667358221220c6d56f997febe73b20f4d05c639419d0d0f79de35e0992c1ea059583b5c8298364736f6c634300080f0033d88b35d7427a01a8e16d8a129535b4cf3150edf8d92c0a44dc1eba73bdaf18cb547b500e425d72fd0723933cceefc203cef652b4736fd04250c3369b3e1a0a73",
  "devdoc": {
    "kind": "dev",
    "methods": {
      "constructor": {
        "params": {
          "factoryAddress": "Address of the factory able to call the deploy function"
        }
      },
      "getRoleAdmin(bytes32)": {
        "details": "Returns the admin role that controls `role`. See {grantRole} and {revokeRole}. To change a role's admin, use {_setRoleAdmin}."
      },
      "getRoleMember(bytes32,uint256)": {
        "details": "Returns one of the accounts that have `role`. `index` must be a value between 0 and {getRoleMemberCount}, non-inclusive. Role bearers are not sorted in any particular way, and their ordering may change at any point. WARNING: When using {getRoleMember} and {getRoleMemberCount}, make sure you perform all queries on the same block. See the following https://forum.openzeppelin.com/t/iterating-over-elements-on-enumerableset-in-openzeppelin-contracts/2296[forum post] for more information."
      },
      "getRoleMemberCount(bytes32)": {
        "details": "Returns the number of accounts that have `role`. Can be used together with {getRoleMember} to enumerate all bearers of a role."
      },
      "grantRole(bytes32,address)": {
        "details": "Grants `role` to `account`. If `account` had not been already granted `role`, emits a {RoleGranted} event. Requirements: - the caller must have ``role``'s admin role. May emit a {RoleGranted} event."
      },
      "hasRole(bytes32,address)": {
        "details": "Returns `true` if `account` has been granted `role`."
      },
      "renounceRole(bytes32,address)": {
        "details": "Revokes `role` from the calling account. Roles are often managed via {grantRole} and {revokeRole}: this function's purpose is to provide a mechanism for accounts to lose their privileges if they are compromised (such as when a trusted device is misplaced). If the calling account had been revoked `role`, emits a {RoleRevoked} event. Requirements: - the caller must be `account`. May emit a {RoleRevoked} event."
      },
      "revokeRole(bytes32,address)": {
        "details": "Revokes `role` from `account`. If `account` had been granted `role`, emits a {RoleRevoked} event. Requirements: - the caller must have ``role``'s admin role. May emit a {RoleRevoked} event."
      },
      "supportsInterface(bytes4)": {
        "details": "See {IERC165-supportsInterface}."
      }
    },
    "version": 1
  },
  "userdoc": {
    "kind": "user",
    "methods": {
      "constructor": {
        "notice": "Factory Constructor"
      }
    },
    "version": 1
  },
  "storageLayout": {
    "storage": [
      {
        "astId": 12491,
        "contract": "contracts/Factory/RAIR721_Deployer.sol:RAIR721_Deployer",
        "label": "_roles",
        "offset": 0,
        "slot": "0",
        "type": "t_mapping(t_bytes32,t_struct(RoleData)12486_storage)"
      },
      {
        "astId": 12805,
        "contract": "contracts/Factory/RAIR721_Deployer.sol:RAIR721_Deployer",
        "label": "_roleMembers",
        "offset": 0,
        "slot": "1",
        "type": "t_mapping(t_bytes32,t_struct(AddressSet)15201_storage)"
      }
    ],
    "types": {
      "t_address": {
        "encoding": "inplace",
        "label": "address",
        "numberOfBytes": "20"
      },
      "t_array(t_bytes32)dyn_storage": {
        "base": "t_bytes32",
        "encoding": "dynamic_array",
        "label": "bytes32[]",
        "numberOfBytes": "32"
      },
      "t_bool": {
        "encoding": "inplace",
        "label": "bool",
        "numberOfBytes": "1"
      },
      "t_bytes32": {
        "encoding": "inplace",
        "label": "bytes32",
        "numberOfBytes": "32"
      },
      "t_mapping(t_address,t_bool)": {
        "encoding": "mapping",
        "key": "t_address",
        "label": "mapping(address => bool)",
        "numberOfBytes": "32",
        "value": "t_bool"
      },
      "t_mapping(t_bytes32,t_struct(AddressSet)15201_storage)": {
        "encoding": "mapping",
        "key": "t_bytes32",
        "label": "mapping(bytes32 => struct EnumerableSet.AddressSet)",
        "numberOfBytes": "32",
        "value": "t_struct(AddressSet)15201_storage"
      },
      "t_mapping(t_bytes32,t_struct(RoleData)12486_storage)": {
        "encoding": "mapping",
        "key": "t_bytes32",
        "label": "mapping(bytes32 => struct AccessControl.RoleData)",
        "numberOfBytes": "32",
        "value": "t_struct(RoleData)12486_storage"
      },
      "t_mapping(t_bytes32,t_uint256)": {
        "encoding": "mapping",
        "key": "t_bytes32",
        "label": "mapping(bytes32 => uint256)",
        "numberOfBytes": "32",
        "value": "t_uint256"
      },
      "t_struct(AddressSet)15201_storage": {
        "encoding": "inplace",
        "label": "struct EnumerableSet.AddressSet",
        "members": [
          {
            "astId": 15200,
            "contract": "contracts/Factory/RAIR721_Deployer.sol:RAIR721_Deployer",
            "label": "_inner",
            "offset": 0,
            "slot": "0",
            "type": "t_struct(Set)14900_storage"
          }
        ],
        "numberOfBytes": "64"
      },
      "t_struct(RoleData)12486_storage": {
        "encoding": "inplace",
        "label": "struct AccessControl.RoleData",
        "members": [
          {
            "astId": 12483,
            "contract": "contracts/Factory/RAIR721_Deployer.sol:RAIR721_Deployer",
            "label": "members",
            "offset": 0,
            "slot": "0",
            "type": "t_mapping(t_address,t_bool)"
          },
          {
            "astId": 12485,
            "contract": "contracts/Factory/RAIR721_Deployer.sol:RAIR721_Deployer",
            "label": "adminRole",
            "offset": 0,
            "slot": "1",
            "type": "t_bytes32"
          }
        ],
        "numberOfBytes": "64"
      },
      "t_struct(Set)14900_storage": {
        "encoding": "inplace",
        "label": "struct EnumerableSet.Set",
        "members": [
          {
            "astId": 14895,
            "contract": "contracts/Factory/RAIR721_Deployer.sol:RAIR721_Deployer",
            "label": "_values",
            "offset": 0,
            "slot": "0",
            "type": "t_array(t_bytes32)dyn_storage"
          },
          {
            "astId": 14899,
            "contract": "contracts/Factory/RAIR721_Deployer.sol:RAIR721_Deployer",
            "label": "_indexes",
            "offset": 0,
            "slot": "1",
            "type": "t_mapping(t_bytes32,t_uint256)"
          }
        ],
        "numberOfBytes": "64"
      },
      "t_uint256": {
        "encoding": "inplace",
        "label": "uint256",
        "numberOfBytes": "32"
      }
    }
  }
}