{
  "address": "0x1AeAb89553233D1045b506e8DCBFa3df76E18896",
  "abi": [
    {
      "inputs": [
        {
          "internalType": "uint256",
          "name": "initialSupply",
          "type": "uint256"
        },
        {
          "internalType": "uint256",
          "name": "maximumSupply_",
          "type": "uint256"
        },
        {
          "internalType": "address",
          "name": "owner",
          "type": "address"
        },
        {
          "internalType": "address[]",
          "name": "_defaultOperators",
          "type": "address[]"
        }
      ],
      "stateMutability": "nonpayable",
      "type": "constructor"
    },
    {
      "anonymous": false,
      "inputs": [
        {
          "indexed": true,
          "internalType": "address",
          "name": "owner",
          "type": "address"
        },
        {
          "indexed": true,
          "internalType": "address",
          "name": "spender",
          "type": "address"
        },
        {
          "indexed": false,
          "internalType": "uint256",
          "name": "value",
          "type": "uint256"
        }
      ],
      "name": "Approval",
      "type": "event"
    },
    {
      "anonymous": false,
      "inputs": [
        {
          "indexed": true,
          "internalType": "address",
          "name": "operator",
          "type": "address"
        },
        {
          "indexed": true,
          "internalType": "address",
          "name": "tokenHolder",
          "type": "address"
        }
      ],
      "name": "AuthorizedOperator",
      "type": "event"
    },
    {
      "anonymous": false,
      "inputs": [
        {
          "indexed": true,
          "internalType": "address",
          "name": "operator",
          "type": "address"
        },
        {
          "indexed": true,
          "internalType": "address",
          "name": "from",
          "type": "address"
        },
        {
          "indexed": false,
          "internalType": "uint256",
          "name": "amount",
          "type": "uint256"
        },
        {
          "indexed": false,
          "internalType": "bytes",
          "name": "data",
          "type": "bytes"
        },
        {
          "indexed": false,
          "internalType": "bytes",
          "name": "operatorData",
          "type": "bytes"
        }
      ],
      "name": "Burned",
      "type": "event"
    },
    {
      "anonymous": false,
      "inputs": [
        {
          "indexed": true,
          "internalType": "address",
          "name": "operator",
          "type": "address"
        },
        {
          "indexed": true,
          "internalType": "address",
          "name": "to",
          "type": "address"
        },
        {
          "indexed": false,
          "internalType": "uint256",
          "name": "amount",
          "type": "uint256"
        },
        {
          "indexed": false,
          "internalType": "bytes",
          "name": "data",
          "type": "bytes"
        },
        {
          "indexed": false,
          "internalType": "bytes",
          "name": "operatorData",
          "type": "bytes"
        }
      ],
      "name": "Minted",
      "type": "event"
    },
    {
      "anonymous": false,
      "inputs": [
        {
          "indexed": true,
          "internalType": "address",
          "name": "operator",
          "type": "address"
        },
        {
          "indexed": true,
          "internalType": "address",
          "name": "tokenHolder",
          "type": "address"
        }
      ],
      "name": "RevokedOperator",
      "type": "event"
    },
    {
      "anonymous": false,
      "inputs": [
        {
          "indexed": true,
          "internalType": "bytes32",
          "name": "role",
          "type": "bytes32"
        },
        {
          "indexed": true,
          "internalType": "bytes32",
          "name": "previousAdminRole",
          "type": "bytes32"
        },
        {
          "indexed": true,
          "internalType": "bytes32",
          "name": "newAdminRole",
          "type": "bytes32"
        }
      ],
      "name": "RoleAdminChanged",
      "type": "event"
    },
    {
      "anonymous": false,
      "inputs": [
        {
          "indexed": true,
          "internalType": "bytes32",
          "name": "role",
          "type": "bytes32"
        },
        {
          "indexed": true,
          "internalType": "address",
          "name": "account",
          "type": "address"
        },
        {
          "indexed": true,
          "internalType": "address",
          "name": "sender",
          "type": "address"
        }
      ],
      "name": "RoleGranted",
      "type": "event"
    },
    {
      "anonymous": false,
      "inputs": [
        {
          "indexed": true,
          "internalType": "bytes32",
          "name": "role",
          "type": "bytes32"
        },
        {
          "indexed": true,
          "internalType": "address",
          "name": "account",
          "type": "address"
        },
        {
          "indexed": true,
          "internalType": "address",
          "name": "sender",
          "type": "address"
        }
      ],
      "name": "RoleRevoked",
      "type": "event"
    },
    {
      "anonymous": false,
      "inputs": [
        {
          "indexed": true,
          "internalType": "address",
          "name": "operator",
          "type": "address"
        },
        {
          "indexed": true,
          "internalType": "address",
          "name": "from",
          "type": "address"
        },
        {
          "indexed": true,
          "internalType": "address",
          "name": "to",
          "type": "address"
        },
        {
          "indexed": false,
          "internalType": "uint256",
          "name": "amount",
          "type": "uint256"
        },
        {
          "indexed": false,
          "internalType": "bytes",
          "name": "data",
          "type": "bytes"
        },
        {
          "indexed": false,
          "internalType": "bytes",
          "name": "operatorData",
          "type": "bytes"
        }
      ],
      "name": "Sent",
      "type": "event"
    },
    {
      "anonymous": false,
      "inputs": [
        {
          "indexed": true,
          "internalType": "address",
          "name": "from",
          "type": "address"
        },
        {
          "indexed": true,
          "internalType": "address",
          "name": "to",
          "type": "address"
        },
        {
          "indexed": false,
          "internalType": "uint256",
          "name": "value",
          "type": "uint256"
        }
      ],
      "name": "Transfer",
      "type": "event"
    },
    {
      "inputs": [],
      "name": "DEFAULT_ADMIN_ROLE",
      "outputs": [
        {
          "internalType": "bytes32",
          "name": "",
          "type": "bytes32"
        }
      ],
      "stateMutability": "view",
      "type": "function"
    },
    {
      "inputs": [],
      "name": "MINTER",
      "outputs": [
        {
          "internalType": "bytes32",
          "name": "",
          "type": "bytes32"
        }
      ],
      "stateMutability": "view",
      "type": "function"
    },
    {
      "inputs": [
        {
          "internalType": "address",
          "name": "holder",
          "type": "address"
        },
        {
          "internalType": "address",
          "name": "spender",
          "type": "address"
        }
      ],
      "name": "allowance",
      "outputs": [
        {
          "internalType": "uint256",
          "name": "",
          "type": "uint256"
        }
      ],
      "stateMutability": "view",
      "type": "function"
    },
    {
      "inputs": [
        {
          "internalType": "address",
          "name": "spender",
          "type": "address"
        },
        {
          "internalType": "uint256",
          "name": "value",
          "type": "uint256"
        }
      ],
      "name": "approve",
      "outputs": [
        {
          "internalType": "bool",
          "name": "",
          "type": "bool"
        }
      ],
      "stateMutability": "nonpayable",
      "type": "function"
    },
    {
      "inputs": [
        {
          "internalType": "address",
          "name": "operator",
          "type": "address"
        }
      ],
      "name": "authorizeOperator",
      "outputs": [],
      "stateMutability": "nonpayable",
      "type": "function"
    },
    {
      "inputs": [
        {
          "internalType": "address",
          "name": "tokenHolder",
          "type": "address"
        }
      ],
      "name": "balanceOf",
      "outputs": [
        {
          "internalType": "uint256",
          "name": "",
          "type": "uint256"
        }
      ],
      "stateMutability": "view",
      "type": "function"
    },
    {
      "inputs": [
        {
          "internalType": "uint256",
          "name": "amount",
          "type": "uint256"
        },
        {
          "internalType": "bytes",
          "name": "data",
          "type": "bytes"
        }
      ],
      "name": "burn",
      "outputs": [],
      "stateMutability": "nonpayable",
      "type": "function"
    },
    {
      "inputs": [],
      "name": "decimals",
      "outputs": [
        {
          "internalType": "uint8",
          "name": "",
          "type": "uint8"
        }
      ],
      "stateMutability": "pure",
      "type": "function"
    },
    {
      "inputs": [],
      "name": "defaultOperators",
      "outputs": [
        {
          "internalType": "address[]",
          "name": "",
          "type": "address[]"
        }
      ],
      "stateMutability": "view",
      "type": "function"
    },
    {
      "inputs": [
        {
          "internalType": "bytes32",
          "name": "role",
          "type": "bytes32"
        }
      ],
      "name": "getRoleAdmin",
      "outputs": [
        {
          "internalType": "bytes32",
          "name": "",
          "type": "bytes32"
        }
      ],
      "stateMutability": "view",
      "type": "function"
    },
    {
      "inputs": [
        {
          "internalType": "bytes32",
          "name": "role",
          "type": "bytes32"
        },
        {
          "internalType": "uint256",
          "name": "index",
          "type": "uint256"
        }
      ],
      "name": "getRoleMember",
      "outputs": [
        {
          "internalType": "address",
          "name": "",
          "type": "address"
        }
      ],
      "stateMutability": "view",
      "type": "function"
    },
    {
      "inputs": [
        {
          "internalType": "bytes32",
          "name": "role",
          "type": "bytes32"
        }
      ],
      "name": "getRoleMemberCount",
      "outputs": [
        {
          "internalType": "uint256",
          "name": "",
          "type": "uint256"
        }
      ],
      "stateMutability": "view",
      "type": "function"
    },
    {
      "inputs": [
        {
          "internalType": "bytes32",
          "name": "role",
          "type": "bytes32"
        },
        {
          "internalType": "address",
          "name": "account",
          "type": "address"
        }
      ],
      "name": "grantRole",
      "outputs": [],
      "stateMutability": "nonpayable",
      "type": "function"
    },
    {
      "inputs": [],
      "name": "granularity",
      "outputs": [
        {
          "internalType": "uint256",
          "name": "",
          "type": "uint256"
        }
      ],
      "stateMutability": "view",
      "type": "function"
    },
    {
      "inputs": [
        {
          "internalType": "bytes32",
          "name": "role",
          "type": "bytes32"
        },
        {
          "internalType": "address",
          "name": "account",
          "type": "address"
        }
      ],
      "name": "hasRole",
      "outputs": [
        {
          "internalType": "bool",
          "name": "",
          "type": "bool"
        }
      ],
      "stateMutability": "view",
      "type": "function"
    },
    {
      "inputs": [
        {
          "internalType": "address",
          "name": "operator",
          "type": "address"
        },
        {
          "internalType": "address",
          "name": "tokenHolder",
          "type": "address"
        }
      ],
      "name": "isOperatorFor",
      "outputs": [
        {
          "internalType": "bool",
          "name": "",
          "type": "bool"
        }
      ],
      "stateMutability": "view",
      "type": "function"
    },
    {
      "inputs": [],
      "name": "maximumSupply",
      "outputs": [
        {
          "internalType": "uint256",
          "name": "",
          "type": "uint256"
        }
      ],
      "stateMutability": "view",
      "type": "function"
    },
    {
      "inputs": [
        {
          "internalType": "uint256",
          "name": "amount",
          "type": "uint256"
        },
        {
          "internalType": "address",
          "name": "recipient",
          "type": "address"
        }
      ],
      "name": "mint",
      "outputs": [],
      "stateMutability": "nonpayable",
      "type": "function"
    },
    {
      "inputs": [],
      "name": "name",
      "outputs": [
        {
          "internalType": "string",
          "name": "",
          "type": "string"
        }
      ],
      "stateMutability": "view",
      "type": "function"
    },
    {
      "inputs": [
        {
          "internalType": "address",
          "name": "account",
          "type": "address"
        },
        {
          "internalType": "uint256",
          "name": "amount",
          "type": "uint256"
        },
        {
          "internalType": "bytes",
          "name": "data",
          "type": "bytes"
        },
        {
          "internalType": "bytes",
          "name": "operatorData",
          "type": "bytes"
        }
      ],
      "name": "operatorBurn",
      "outputs": [],
      "stateMutability": "nonpayable",
      "type": "function"
    },
    {
      "inputs": [
        {
          "internalType": "address",
          "name": "sender",
          "type": "address"
        },
        {
          "internalType": "address",
          "name": "recipient",
          "type": "address"
        },
        {
          "internalType": "uint256",
          "name": "amount",
          "type": "uint256"
        },
        {
          "internalType": "bytes",
          "name": "data",
          "type": "bytes"
        },
        {
          "internalType": "bytes",
          "name": "operatorData",
          "type": "bytes"
        }
      ],
      "name": "operatorSend",
      "outputs": [],
      "stateMutability": "nonpayable",
      "type": "function"
    },
    {
      "inputs": [
        {
          "internalType": "bytes32",
          "name": "role",
          "type": "bytes32"
        },
        {
          "internalType": "address",
          "name": "account",
          "type": "address"
        }
      ],
      "name": "renounceRole",
      "outputs": [],
      "stateMutability": "nonpayable",
      "type": "function"
    },
    {
      "inputs": [
        {
          "internalType": "address",
          "name": "operator",
          "type": "address"
        }
      ],
      "name": "revokeOperator",
      "outputs": [],
      "stateMutability": "nonpayable",
      "type": "function"
    },
    {
      "inputs": [
        {
          "internalType": "bytes32",
          "name": "role",
          "type": "bytes32"
        },
        {
          "internalType": "address",
          "name": "account",
          "type": "address"
        }
      ],
      "name": "revokeRole",
      "outputs": [],
      "stateMutability": "nonpayable",
      "type": "function"
    },
    {
      "inputs": [
        {
          "internalType": "address",
          "name": "recipient",
          "type": "address"
        },
        {
          "internalType": "uint256",
          "name": "amount",
          "type": "uint256"
        },
        {
          "internalType": "bytes",
          "name": "data",
          "type": "bytes"
        }
      ],
      "name": "send",
      "outputs": [],
      "stateMutability": "nonpayable",
      "type": "function"
    },
    {
      "inputs": [
        {
          "internalType": "bytes4",
          "name": "interfaceId",
          "type": "bytes4"
        }
      ],
      "name": "supportsInterface",
      "outputs": [
        {
          "internalType": "bool",
          "name": "",
          "type": "bool"
        }
      ],
      "stateMutability": "view",
      "type": "function"
    },
    {
      "inputs": [],
      "name": "symbol",
      "outputs": [
        {
          "internalType": "string",
          "name": "",
          "type": "string"
        }
      ],
      "stateMutability": "view",
      "type": "function"
    },
    {
      "inputs": [],
      "name": "totalSupply",
      "outputs": [
        {
          "internalType": "uint256",
          "name": "",
          "type": "uint256"
        }
      ],
      "stateMutability": "view",
      "type": "function"
    },
    {
      "inputs": [
        {
          "internalType": "address",
          "name": "recipient",
          "type": "address"
        },
        {
          "internalType": "uint256",
          "name": "amount",
          "type": "uint256"
        }
      ],
      "name": "transfer",
      "outputs": [
        {
          "internalType": "bool",
          "name": "",
          "type": "bool"
        }
      ],
      "stateMutability": "nonpayable",
      "type": "function"
    },
    {
      "inputs": [
        {
          "internalType": "address",
          "name": "holder",
          "type": "address"
        },
        {
          "internalType": "address",
          "name": "recipient",
          "type": "address"
        },
        {
          "internalType": "uint256",
          "name": "amount",
          "type": "uint256"
        }
      ],
      "name": "transferFrom",
      "outputs": [
        {
          "internalType": "bool",
          "name": "",
          "type": "bool"
        }
      ],
      "stateMutability": "nonpayable",
      "type": "function"
    },
    {
      "stateMutability": "payable",
      "type": "receive"
    }
  ],
  "transactionHash": "0xfb69b4eef6271c1de30b7c3e666808aace33f6e58e90b2579f888c6088bfd929",
  "args": [
    "222000000000000000000000000",
    "400000000000000000000000000",
    "0xEC30759D0A3F3CE0A730920DC29d74e441f492C3",
    [
      "0xEC30759D0A3F3CE0A730920DC29d74e441f492C3",
      "0xf3FC93b77A1A39610aa800734dfD017Ca293e53d",
      "0xF31263051C09BCC2853DaC78185E1e5C59f4Ee56"
    ]
  ],
  "numDeployments": 2,
  "solcInputHash": "754cc39fc6a90c79b638ffd956cafc07",
  "bytecode": "0x60806040523480156200001157600080fd5b50604051620030b7380380620030b78339810160408190526200003491620008f7565b6040805180820182526004808252632920a4a960e11b6020808401828152855180870190965292855284015281519192918491620000769160029190620007c6565b5081516200008c906003906020850190620007c6565b508051620000a290600490602084019062000855565b5060005b81518110156200011257600160056000848481518110620000cb57620000cb620009f0565b6020908102919091018101516001600160a01b03168252810191909152604001600020805460ff191691151591909117905580620001098162000a1c565b915050620000a6565b506040516329965a1d60e01b815230600482018190527fac7fbab5f54a3ca8194167523c6753bfeb96a445279294b6125b68cce217705460248301526044820152731820a4b7618bde71dce8cdc73aab6c95905fad24906329965a1d90606401600060405180830381600087803b1580156200018d57600080fd5b505af1158015620001a2573d6000803e3d6000fd5b50506040516329965a1d60e01b815230600482018190527faea199e31a596269b42cdafd93407f14436db6e4cad65417994c2eb37381e05a60248301526044820152731820a4b7618bde71dce8cdc73aab6c95905fad2492506329965a1d9150606401600060405180830381600087803b1580156200022057600080fd5b505af115801562000235573d6000803e3d6000fd5b505050600b879055506200027192507ff0887ba65ee2024ea881d91b74c2450ef19e1557f03bed3ea9f16b037cbe2dc9915060009050620002ba565b6200027e60008362000305565b620002b0828560405180602001604052806000815250604051806020016040528060008152506200034860201b60201c565b5050505062000b97565b600082815260096020526040808220600101805490849055905190918391839186917fbd79b86ffe0ab8e8776151514217cd7cacd52c909f66475c3af44e129f0b00ff9190a4505050565b6200031c82826200035e60201b62000f411760201c565b6000828152600a602090815260409091206200034391839062000fc762000403821b17901c565b505050565b6200035884848484600162000423565b50505050565b60008281526009602090815260408083206001600160a01b038516845290915290205460ff16620003ff5760008281526009602090815260408083206001600160a01b03851684529091529020805460ff19166001179055620003be3390565b6001600160a01b0316816001600160a01b0316837f2f8788117e7eff1d82e926ec794901d17c78024a50270940304540a733656f0d60405160405180910390a45b5050565b60006200041a836001600160a01b03841662000579565b90505b92915050565b6001600160a01b0385166200047f5760405162461bcd60e51b815260206004820181905260248201527f4552433737373a206d696e7420746f20746865207a65726f206164647265737360448201526064015b60405180910390fd5b6000339050846001600082825462000498919062000a3a565b90915550506001600160a01b03861660009081526020819052604081208054879290620004c790849062000a3a565b90915550620004df90508160008888888888620005cb565b856001600160a01b0316816001600160a01b03167f2fe5be0146f74c5bce36c0b80911af6c7d86ff27e89d5cfa61fc681327954e5d878787604051620005289392919062000aa5565b60405180910390a36040518581526001600160a01b038716906000907fddf252ad1be2c89b69c2b068fc378daa952ba7f163c4a11628f55a4df523b3ef9060200160405180910390a3505050505050565b6000818152600183016020526040812054620005c2575081546001818101845560008481526020808220909301849055845484825282860190935260409020919091556200041d565b5060006200041d565b60405163555ddc6560e11b81526001600160a01b03861660048201527fb281fc8c12954d22544db45de3159a39272895b169a852b314f9cc762e44c53b6024820152600090731820a4b7618bde71dce8cdc73aab6c95905fad249063aabbb8ca9060440160206040518083038186803b1580156200064857600080fd5b505afa1580156200065d573d6000803e3d6000fd5b505050506040513d601f19601f8201168201806040525081019062000683919062000ade565b90506001600160a01b0381161562000705576040516223de2960e01b81526001600160a01b038216906223de2990620006cb908b908b908b908b908b908b9060040162000afc565b600060405180830381600087803b158015620006e657600080fd5b505af1158015620006fb573d6000803e3d6000fd5b50505050620007b6565b8115620007b6576200072b866001600160a01b0316620007c060201b62000fdc1760201c565b15620007b65760405162461bcd60e51b815260206004820152604d60248201527f4552433737373a20746f6b656e20726563697069656e7420636f6e747261637460448201527f20686173206e6f20696d706c656d656e74657220666f7220455243373737546f60648201526c1ad95b9cd49958da5c1a595b9d609a1b608482015260a40162000476565b5050505050505050565b3b151590565b828054620007d49062000b5a565b90600052602060002090601f016020900481019282620007f8576000855562000843565b82601f106200081357805160ff191683800117855562000843565b8280016001018555821562000843579182015b828111156200084357825182559160200191906001019062000826565b5062000851929150620008ad565b5090565b82805482825590600052602060002090810192821562000843579160200282015b828111156200084357825182546001600160a01b0319166001600160a01b0390911617825560209092019160019091019062000876565b5b80821115620008515760008155600101620008ae565b80516001600160a01b0381168114620008dc57600080fd5b919050565b634e487b7160e01b600052604160045260246000fd5b600080600080608085870312156200090e57600080fd5b8451935060208086015193506200092860408701620008c4565b60608701519093506001600160401b03808211156200094657600080fd5b818801915088601f8301126200095b57600080fd5b815181811115620009705762000970620008e1565b8060051b604051601f19603f83011681018181108582111715620009985762000998620008e1565b60405291825284820192508381018501918b831115620009b757600080fd5b938501935b82851015620009e057620009d085620008c4565b84529385019392850192620009bc565b989b979a50959850505050505050565b634e487b7160e01b600052603260045260246000fd5b634e487b7160e01b600052601160045260246000fd5b600060001982141562000a335762000a3362000a06565b5060010190565b6000821982111562000a505762000a5062000a06565b500190565b6000815180845260005b8181101562000a7d5760208185018101518683018201520162000a5f565b8181111562000a90576000602083870101525b50601f01601f19169290920160200192915050565b83815260606020820152600062000ac0606083018562000a55565b828103604084015262000ad4818562000a55565b9695505050505050565b60006020828403121562000af157600080fd5b6200041a82620008c4565b6001600160a01b0387811682528681166020830152851660408201526060810184905260c06080820181905260009062000b399083018562000a55565b82810360a084015262000b4d818562000a55565b9998505050505050505050565b600181811c9082168062000b6f57607f821691505b6020821081141562000b9157634e487b7160e01b600052602260045260246000fd5b50919050565b6125108062000ba76000396000f3fe6080604052600436106101d15760003560e01c806391d14854116100f7578063ca15c87311610095578063fad8b32a11610064578063fad8b32a1461056f578063fc673c4f1461058f578063fe6d8124146105af578063fe9d9303146105e357600080fd5b8063ca15c873146104c9578063d547741f146104e9578063d95b637114610509578063dd62ed3e1461052957600080fd5b806395d89b41116100d157806395d89b411461045f5780639bd9bbc614610474578063a217fddf14610494578063a9059cbb146104a957600080fd5b806391d14854146103ff57806394bf804d1461041f578063959b8c3f1461043f57600080fd5b8063248a9ca31161016f578063556f0dc71161013e578063556f0dc71461035d57806362ad1b831461037157806370a08231146103915780639010d07c146103c757600080fd5b8063248a9ca3146102cf5780632f2ff15d146102ff578063313ce5671461032157806336568abe1461033d57600080fd5b806306fdde03116101ab57806306fdde0314610258578063095ea7b31461027a57806318160ddd1461029a57806323b872dd146102af57600080fd5b806301ffc9a7146101dd5780630480e58b1461021257806306e485381461023657600080fd5b366101d857005b600080fd5b3480156101e957600080fd5b506101fd6101f8366004611dd4565b610603565b60405190151581526020015b60405180910390f35b34801561021e57600080fd5b50610228600b5481565b604051908152602001610209565b34801561024257600080fd5b5061024b61062e565b6040516102099190611dfe565b34801561026457600080fd5b5061026d610690565b6040516102099190611ea3565b34801561028657600080fd5b506101fd610295366004611ece565b610719565b3480156102a657600080fd5b50600154610228565b3480156102bb57600080fd5b506101fd6102ca366004611efa565b610731565b3480156102db57600080fd5b506102286102ea366004611f3b565b60009081526009602052604090206001015490565b34801561030b57600080fd5b5061031f61031a366004611f54565b6108fa565b005b34801561032d57600080fd5b5060405160128152602001610209565b34801561034957600080fd5b5061031f610358366004611f54565b610925565b34801561036957600080fd5b506001610228565b34801561037d57600080fd5b5061031f61038c366004612027565b6109a3565b34801561039d57600080fd5b506102286103ac3660046120ba565b6001600160a01b031660009081526020819052604090205490565b3480156103d357600080fd5b506103e76103e23660046120d7565b6109df565b6040516001600160a01b039091168152602001610209565b34801561040b57600080fd5b506101fd61041a366004611f54565b6109fe565b34801561042b57600080fd5b5061031f61043a366004611f54565b610a29565b34801561044b57600080fd5b5061031f61045a3660046120ba565b610af6565b34801561046b57600080fd5b5061026d610c14565b34801561048057600080fd5b5061031f61048f3660046120f9565b610c23565b3480156104a057600080fd5b50610228600081565b3480156104b557600080fd5b506101fd6104c4366004611ece565b610c41565b3480156104d557600080fd5b506102286104e4366004611f3b565b610cf4565b3480156104f557600080fd5b5061031f610504366004611f54565b610d0b565b34801561051557600080fd5b506101fd610524366004612152565b610d31565b34801561053557600080fd5b50610228610544366004612152565b6001600160a01b03918216600090815260086020908152604080832093909416825291909152205490565b34801561057b57600080fd5b5061031f61058a3660046120ba565b610dd2565b34801561059b57600080fd5b5061031f6105aa366004612180565b610eee565b3480156105bb57600080fd5b506102287ff0887ba65ee2024ea881d91b74c2450ef19e1557f03bed3ea9f16b037cbe2dc981565b3480156105ef57600080fd5b5061031f6105fe366004612200565b610f26565b60006001600160e01b03198216635a05180f60e01b1480610628575061062882610fe2565b92915050565b6060600480548060200260200160405190810160405280929190818152602001828054801561068657602002820191906000526020600020905b81546001600160a01b03168152600190910190602001808311610668575b5050505050905090565b60606002805461069f90612247565b80601f01602080910402602001604051908101604052809291908181526020018280546106cb90612247565b80156106865780601f106106ed57610100808354040283529160200191610686565b820191906000526020600020905b8154815290600101906020018083116106fb57509395945050505050565b600033610727818585611017565b5060019392505050565b60006001600160a01b0383166107625760405162461bcd60e51b815260040161075990612282565b60405180910390fd5b6001600160a01b0384166107c75760405162461bcd60e51b815260206004820152602660248201527f4552433737373a207472616e736665722066726f6d20746865207a65726f206160448201526564647265737360d01b6064820152608401610759565b60003390506107f881868686604051806020016040528060008152506040518060200160405280600081525061113e565b610824818686866040518060200160405280600081525060405180602001604052806000815250611275565b6001600160a01b03808616600090815260086020908152604080832093851683529290522054838110156108ac5760405162461bcd60e51b815260206004820152602960248201527f4552433737373a207472616e7366657220616d6f756e74206578636565647320604482015268616c6c6f77616e636560b81b6064820152608401610759565b6108c086836108bb87856122dc565b611017565b6108ee82878787604051806020016040528060008152506040518060200160405280600081525060006113db565b50600195945050505050565b60008281526009602052604090206001015461091681336115af565b6109208383611613565b505050565b6001600160a01b03811633146109955760405162461bcd60e51b815260206004820152602f60248201527f416363657373436f6e74726f6c3a2063616e206f6e6c792072656e6f756e636560448201526e103937b632b9903337b91039b2b63360891b6064820152608401610759565b61099f8282611635565b5050565b6109ad3386610d31565b6109c95760405162461bcd60e51b8152600401610759906122f3565b6109d885858585856001611657565b5050505050565b6000828152600a602052604081206109f7908361173a565b9392505050565b60009182526009602090815260408084206001600160a01b0393909316845291905290205460ff1690565b7ff0887ba65ee2024ea881d91b74c2450ef19e1557f03bed3ea9f16b037cbe2dc9610a5481336115af565b600b5483610a6160015490565b610a6b919061233f565b1115610acc5760405162461bcd60e51b815260206004820152602a60248201527f52414952203737373a2043616e6e6f74206d696e742074686520726571756972604482015269656420616d6f756e742160b01b6064820152608401610759565b61092082846040518060200160405280600081525060405180602001604052806000815250611746565b336001600160a01b0382161415610b5b5760405162461bcd60e51b8152602060048201526024808201527f4552433737373a20617574686f72697a696e672073656c66206173206f70657260448201526330ba37b960e11b6064820152608401610759565b6001600160a01b03811660009081526005602052604090205460ff1615610bac573360009081526007602090815260408083206001600160a01b03851684529091529020805460ff19169055610bdb565b3360009081526006602090815260408083206001600160a01b03851684529091529020805460ff191660011790555b60405133906001600160a01b038316907ff4caeb2d6ca8932a215a353d0703c326ec2d81fc68170f320eb2ab49e9df61f990600090a350565b60606003805461069f90612247565b61092033848484604051806020016040528060008152506001611657565b60006001600160a01b038316610c695760405162461bcd60e51b815260040161075990612282565b6000339050610c9a81828686604051806020016040528060008152506040518060200160405280600081525061113e565b610cc6818286866040518060200160405280600081525060405180602001604052806000815250611275565b61072781828686604051806020016040528060008152506040518060200160405280600081525060006113db565b6000818152600a6020526040812061062890611754565b600082815260096020526040902060010154610d2781336115af565b6109208383611635565b6000816001600160a01b0316836001600160a01b03161480610d9c57506001600160a01b03831660009081526005602052604090205460ff168015610d9c57506001600160a01b0380831660009081526007602090815260408083209387168352929052205460ff16155b806109f75750506001600160a01b0390811660009081526006602090815260408083209490931682529290925290205460ff1690565b6001600160a01b038116331415610e355760405162461bcd60e51b815260206004820152602160248201527f4552433737373a207265766f6b696e672073656c66206173206f70657261746f6044820152603960f91b6064820152608401610759565b6001600160a01b03811660009081526005602052604090205460ff1615610e89573360009081526007602090815260408083206001600160a01b03851684529091529020805460ff19166001179055610eb5565b3360009081526006602090815260408083206001600160a01b03851684529091529020805460ff191690555b60405133906001600160a01b038316907f50546e66e5f44d728365dc3908c63bc5cfeeab470722c1677e3073a6ac294aa190600090a350565b610ef83385610d31565b610f145760405162461bcd60e51b8152600401610759906122f3565b610f208484848461175e565b50505050565b61099f3383836040518060200160405280600081525061175e565b610f4b82826109fe565b61099f5760008281526009602090815260408083206001600160a01b03851684529091529020805460ff19166001179055610f833390565b6001600160a01b0316816001600160a01b0316837f2f8788117e7eff1d82e926ec794901d17c78024a50270940304540a733656f0d60405160405180910390a45050565b60006109f7836001600160a01b038416611913565b3b151590565b60006001600160e01b03198216637965db0b60e01b148061062857506301ffc9a760e01b6001600160e01b0319831614610628565b6001600160a01b03831661107b5760405162461bcd60e51b815260206004820152602560248201527f4552433737373a20617070726f76652066726f6d20746865207a65726f206164604482015264647265737360d81b6064820152608401610759565b6001600160a01b0382166110dd5760405162461bcd60e51b815260206004820152602360248201527f4552433737373a20617070726f766520746f20746865207a65726f206164647260448201526265737360e81b6064820152608401610759565b6001600160a01b0383811660008181526008602090815260408083209487168084529482529182902085905590518481527f8c5be1e5ebec7d5bd14f71427d1e84f3dd0314c0f7b2291e5b200ac8c7c3b925910160405180910390a3505050565b60405163555ddc6560e11b81526001600160a01b03861660048201527f29ddb589b1fb5fc7cf394961c1adf5f8c6454761adf795e67fe149f658abe8956024820152600090731820a4b7618bde71dce8cdc73aab6c95905fad249063aabbb8ca9060440160206040518083038186803b1580156111ba57600080fd5b505afa1580156111ce573d6000803e3d6000fd5b505050506040513d601f19601f820116820180604052508101906111f29190612357565b90506001600160a01b0381161561126c57604051633ad5cbc160e11b81526001600160a01b038216906375ab978290611239908a908a908a908a908a908a90600401612374565b600060405180830381600087803b15801561125357600080fd5b505af1158015611267573d6000803e3d6000fd5b505050505b50505050505050565b6001600160a01b038516600090815260208190526040902054838110156112ee5760405162461bcd60e51b815260206004820152602760248201527f4552433737373a207472616e7366657220616d6f756e7420657863656564732060448201526662616c616e636560c81b6064820152608401610759565b6001600160a01b0380871660009081526020819052604080822087850390559187168152908120805486929061132590849061233f565b92505081905550846001600160a01b0316866001600160a01b0316886001600160a01b03167f06b541ddaa720db2b10a4d0cdac39b8d360425fc073085fac19bc8261467798787878760405161137d939291906123ce565b60405180910390a4846001600160a01b0316866001600160a01b03167fddf252ad1be2c89b69c2b068fc378daa952ba7f163c4a11628f55a4df523b3ef866040516113ca91815260200190565b60405180910390a350505050505050565b60405163555ddc6560e11b81526001600160a01b03861660048201527fb281fc8c12954d22544db45de3159a39272895b169a852b314f9cc762e44c53b6024820152600090731820a4b7618bde71dce8cdc73aab6c95905fad249063aabbb8ca9060440160206040518083038186803b15801561145757600080fd5b505afa15801561146b573d6000803e3d6000fd5b505050506040513d601f19601f8201168201806040525081019061148f9190612357565b90506001600160a01b0381161561150b576040516223de2960e01b81526001600160a01b038216906223de29906114d4908b908b908b908b908b908b90600401612374565b600060405180830381600087803b1580156114ee57600080fd5b505af1158015611502573d6000803e3d6000fd5b505050506115a5565b81156115a5576001600160a01b0386163b156115a55760405162461bcd60e51b815260206004820152604d60248201527f4552433737373a20746f6b656e20726563697069656e7420636f6e747261637460448201527f20686173206e6f20696d706c656d656e74657220666f7220455243373737546f60648201526c1ad95b9cd49958da5c1a595b9d609a1b608482015260a401610759565b5050505050505050565b6115b982826109fe565b61099f576115d1816001600160a01b03166014611962565b6115dc836020611962565b6040516020016115ed929190612403565b60408051601f198184030181529082905262461bcd60e51b825261075991600401611ea3565b61161d8282610f41565b6000828152600a602052604090206109209082610fc7565b61163f8282611afe565b6000828152600a602052604090206109209082611b65565b6001600160a01b0386166116b85760405162461bcd60e51b815260206004820152602260248201527f4552433737373a2073656e642066726f6d20746865207a65726f206164647265604482015261737360f01b6064820152608401610759565b6001600160a01b03851661170e5760405162461bcd60e51b815260206004820181905260248201527f4552433737373a2073656e6420746f20746865207a65726f20616464726573736044820152606401610759565b3361171d81888888888861113e565b61172b818888888888611275565b61126c818888888888886113db565b60006109f78383611b7a565b610f20848484846001611ba4565b6000610628825490565b6001600160a01b0384166117bf5760405162461bcd60e51b815260206004820152602260248201527f4552433737373a206275726e2066726f6d20746865207a65726f206164647265604482015261737360f01b6064820152608401610759565b336117cf8186600087878761113e565b6001600160a01b038516600090815260208190526040902054848110156118445760405162461bcd60e51b815260206004820152602360248201527f4552433737373a206275726e20616d6f756e7420657863656564732062616c616044820152626e636560e81b6064820152608401610759565b6001600160a01b03861660009081526020819052604081208683039055600180548792906118739084906122dc565b92505081905550856001600160a01b0316826001600160a01b03167fa78a9be3a7b862d26933ad85fb11d80ef66b8f972d7cbba06621d583943a40988787876040516118c1939291906123ce565b60405180910390a36040518581526000906001600160a01b038816907fddf252ad1be2c89b69c2b068fc378daa952ba7f163c4a11628f55a4df523b3ef906020015b60405180910390a3505050505050565b600081815260018301602052604081205461195a57508154600181810184556000848152602080822090930184905584548482528286019093526040902091909155610628565b506000610628565b60606000611971836002612478565b61197c90600261233f565b67ffffffffffffffff81111561199457611994611f84565b6040519080825280601f01601f1916602001820160405280156119be576020820181803683370190505b509050600360fc1b816000815181106119d9576119d9612497565b60200101906001600160f81b031916908160001a905350600f60fb1b81600181518110611a0857611a08612497565b60200101906001600160f81b031916908160001a9053506000611a2c846002612478565b611a3790600161233f565b90505b6001811115611aaf576f181899199a1a9b1b9c1cb0b131b232b360811b85600f1660108110611a6b57611a6b612497565b1a60f81b828281518110611a8157611a81612497565b60200101906001600160f81b031916908160001a90535060049490941c93611aa8816124ad565b9050611a3a565b5083156109f75760405162461bcd60e51b815260206004820181905260248201527f537472696e67733a20686578206c656e67746820696e73756666696369656e746044820152606401610759565b611b0882826109fe565b1561099f5760008281526009602090815260408083206001600160a01b0385168085529252808320805460ff1916905551339285917ff6391f5c32d9c69d2a47ea670b442974b53935d1edc7fd64eb21e047a839171b9190a45050565b60006109f7836001600160a01b038416611ce1565b6000826000018281548110611b9157611b91612497565b9060005260206000200154905092915050565b6001600160a01b038516611bfa5760405162461bcd60e51b815260206004820181905260248201527f4552433737373a206d696e7420746f20746865207a65726f20616464726573736044820152606401610759565b60003390508460016000828254611c11919061233f565b90915550506001600160a01b03861660009081526020819052604081208054879290611c3e90849061233f565b90915550611c54905081600088888888886113db565b856001600160a01b0316816001600160a01b03167f2fe5be0146f74c5bce36c0b80911af6c7d86ff27e89d5cfa61fc681327954e5d878787604051611c9b939291906123ce565b60405180910390a36040518581526001600160a01b038716906000907fddf252ad1be2c89b69c2b068fc378daa952ba7f163c4a11628f55a4df523b3ef90602001611903565b60008181526001830160205260408120548015611dca576000611d056001836122dc565b8554909150600090611d19906001906122dc565b9050818114611d7e576000866000018281548110611d3957611d39612497565b9060005260206000200154905080876000018481548110611d5c57611d5c612497565b6000918252602080832090910192909255918252600188019052604090208390555b8554869080611d8f57611d8f6124c4565b600190038181906000526020600020016000905590558560010160008681526020019081526020016000206000905560019350505050610628565b6000915050610628565b600060208284031215611de657600080fd5b81356001600160e01b0319811681146109f757600080fd5b6020808252825182820181905260009190848201906040850190845b81811015611e3f5783516001600160a01b031683529284019291840191600101611e1a565b50909695505050505050565b60005b83811015611e66578181015183820152602001611e4e565b83811115610f205750506000910152565b60008151808452611e8f816020860160208601611e4b565b601f01601f19169290920160200192915050565b6020815260006109f76020830184611e77565b6001600160a01b0381168114611ecb57600080fd5b50565b60008060408385031215611ee157600080fd5b8235611eec81611eb6565b946020939093013593505050565b600080600060608486031215611f0f57600080fd5b8335611f1a81611eb6565b92506020840135611f2a81611eb6565b929592945050506040919091013590565b600060208284031215611f4d57600080fd5b5035919050565b60008060408385031215611f6757600080fd5b823591506020830135611f7981611eb6565b809150509250929050565b634e487b7160e01b600052604160045260246000fd5b600082601f830112611fab57600080fd5b813567ffffffffffffffff80821115611fc657611fc6611f84565b604051601f8301601f19908116603f01168101908282118183101715611fee57611fee611f84565b8160405283815286602085880101111561200757600080fd5b836020870160208301376000602085830101528094505050505092915050565b600080600080600060a0868803121561203f57600080fd5b853561204a81611eb6565b9450602086013561205a81611eb6565b935060408601359250606086013567ffffffffffffffff8082111561207e57600080fd5b61208a89838a01611f9a565b935060808801359150808211156120a057600080fd5b506120ad88828901611f9a565b9150509295509295909350565b6000602082840312156120cc57600080fd5b81356109f781611eb6565b600080604083850312156120ea57600080fd5b50508035926020909101359150565b60008060006060848603121561210e57600080fd5b833561211981611eb6565b925060208401359150604084013567ffffffffffffffff81111561213c57600080fd5b61214886828701611f9a565b9150509250925092565b6000806040838503121561216557600080fd5b823561217081611eb6565b91506020830135611f7981611eb6565b6000806000806080858703121561219657600080fd5b84356121a181611eb6565b935060208501359250604085013567ffffffffffffffff808211156121c557600080fd5b6121d188838901611f9a565b935060608701359150808211156121e757600080fd5b506121f487828801611f9a565b91505092959194509250565b6000806040838503121561221357600080fd5b82359150602083013567ffffffffffffffff81111561223157600080fd5b61223d85828601611f9a565b9150509250929050565b600181811c9082168061225b57607f821691505b6020821081141561227c57634e487b7160e01b600052602260045260246000fd5b50919050565b60208082526024908201527f4552433737373a207472616e7366657220746f20746865207a65726f206164646040820152637265737360e01b606082015260800190565b634e487b7160e01b600052601160045260246000fd5b6000828210156122ee576122ee6122c6565b500390565b6020808252602c908201527f4552433737373a2063616c6c6572206973206e6f7420616e206f70657261746f60408201526b39103337b9103437b63232b960a11b606082015260800190565b60008219821115612352576123526122c6565b500190565b60006020828403121561236957600080fd5b81516109f781611eb6565b6001600160a01b0387811682528681166020830152851660408201526060810184905260c0608082018190526000906123af90830185611e77565b82810360a08401526123c18185611e77565b9998505050505050505050565b8381526060602082015260006123e76060830185611e77565b82810360408401526123f98185611e77565b9695505050505050565b7f416363657373436f6e74726f6c3a206163636f756e742000000000000000000081526000835161243b816017850160208801611e4b565b7001034b99036b4b9b9b4b733903937b6329607d1b601791840191820152835161246c816028840160208801611e4b565b01602801949350505050565b6000816000190483118215151615612492576124926122c6565b500290565b634e487b7160e01b600052603260045260246000fd5b6000816124bc576124bc6122c6565b506000190190565b634e487b7160e01b600052603160045260246000fdfea264697066735822122096ef015ced710aec06304b4cd5cc821ac526538545142d985f2e74493db45a2164736f6c63430008090033",
  "devdoc": {
    "kind": "dev",
    "methods": {
      "allowance(address,address)": {
        "details": "See {IERC20-allowance}. Note that operator and allowance concepts are orthogonal: operators may not have allowance, and accounts with allowance may not be operators themselves."
      },
      "approve(address,uint256)": {
        "details": "See {IERC20-approve}. Note that accounts cannot have allowance issued by their operators."
      },
      "authorizeOperator(address)": {
        "details": "See {IERC777-authorizeOperator}."
      },
      "balanceOf(address)": {
        "details": "Returns the amount of tokens owned by an account (`tokenHolder`)."
      },
      "burn(uint256,bytes)": {
        "details": "See {IERC777-burn}. Also emits a {IERC20-Transfer} event for ERC20 compatibility."
      },
      "decimals()": {
        "details": "See {ERC20-decimals}. Always returns 18, as per the [ERC777 EIP](https://eips.ethereum.org/EIPS/eip-777#backward-compatibility)."
      },
      "defaultOperators()": {
        "details": "See {IERC777-defaultOperators}."
      },
      "getRoleAdmin(bytes32)": {
        "details": "Returns the admin role that controls `role`. See {grantRole} and {revokeRole}. To change a role's admin, use {_setRoleAdmin}."
      },
      "getRoleMember(bytes32,uint256)": {
        "details": "Returns one of the accounts that have `role`. `index` must be a value between 0 and {getRoleMemberCount}, non-inclusive. Role bearers are not sorted in any particular way, and their ordering may change at any point. WARNING: When using {getRoleMember} and {getRoleMemberCount}, make sure you perform all queries on the same block. See the following https://forum.openzeppelin.com/t/iterating-over-elements-on-enumerableset-in-openzeppelin-contracts/2296[forum post] for more information."
      },
      "getRoleMemberCount(bytes32)": {
        "details": "Returns the number of accounts that have `role`. Can be used together with {getRoleMember} to enumerate all bearers of a role."
      },
      "grantRole(bytes32,address)": {
        "details": "Grants `role` to `account`. If `account` had not been already granted `role`, emits a {RoleGranted} event. Requirements: - the caller must have ``role``'s admin role."
      },
      "granularity()": {
        "details": "See {IERC777-granularity}. This implementation always returns `1`."
      },
      "hasRole(bytes32,address)": {
        "details": "Returns `true` if `account` has been granted `role`."
      },
      "isOperatorFor(address,address)": {
        "details": "See {IERC777-isOperatorFor}."
      },
      "name()": {
        "details": "See {IERC777-name}."
      },
      "operatorBurn(address,uint256,bytes,bytes)": {
        "details": "See {IERC777-operatorBurn}. Emits {Burned} and {IERC20-Transfer} events."
      },
      "operatorSend(address,address,uint256,bytes,bytes)": {
        "details": "See {IERC777-operatorSend}. Emits {Sent} and {IERC20-Transfer} events."
      },
      "renounceRole(bytes32,address)": {
        "details": "Revokes `role` from the calling account. Roles are often managed via {grantRole} and {revokeRole}: this function's purpose is to provide a mechanism for accounts to lose their privileges if they are compromised (such as when a trusted device is misplaced). If the calling account had been revoked `role`, emits a {RoleRevoked} event. Requirements: - the caller must be `account`."
      },
      "revokeOperator(address)": {
        "details": "See {IERC777-revokeOperator}."
      },
      "revokeRole(bytes32,address)": {
        "details": "Revokes `role` from `account`. If `account` had been granted `role`, emits a {RoleRevoked} event. Requirements: - the caller must have ``role``'s admin role."
      },
      "send(address,uint256,bytes)": {
        "details": "See {IERC777-send}. Also emits a {IERC20-Transfer} event for ERC20 compatibility."
      },
      "supportsInterface(bytes4)": {
        "details": "See {IERC165-supportsInterface}."
      },
      "symbol()": {
        "details": "See {IERC777-symbol}."
      },
      "totalSupply()": {
        "details": "See {IERC777-totalSupply}."
      },
      "transfer(address,uint256)": {
        "details": "See {IERC20-transfer}. Unlike `send`, `recipient` is _not_ required to implement the {IERC777Recipient} interface if it is a contract. Also emits a {Sent} event."
      },
      "transferFrom(address,address,uint256)": {
        "details": "See {IERC20-transferFrom}. Note that operator and allowance concepts are orthogonal: operators cannot call `transferFrom` (unless they have allowance), and accounts with allowance cannot call `operatorSend` (unless they are operators). Emits {Sent}, {IERC20-Transfer} and {IERC20-Approval} events."
      }
    },
    "version": 1
  },
  "userdoc": {
    "kind": "user",
    "methods": {},
    "version": 1
  },
  "storageLayout": {
    "storage": [
      {
        "astId": 2104,
        "contract": "contracts/Tokens/RAIR-ERC777.sol:RAIR777",
        "label": "_balances",
        "offset": 0,
        "slot": "0",
        "type": "t_mapping(t_address,t_uint256)"
      },
      {
        "astId": 2106,
        "contract": "contracts/Tokens/RAIR-ERC777.sol:RAIR777",
        "label": "_totalSupply",
        "offset": 0,
        "slot": "1",
        "type": "t_uint256"
      },
      {
        "astId": 2108,
        "contract": "contracts/Tokens/RAIR-ERC777.sol:RAIR777",
        "label": "_name",
        "offset": 0,
        "slot": "2",
        "type": "t_string_storage"
      },
      {
        "astId": 2110,
        "contract": "contracts/Tokens/RAIR-ERC777.sol:RAIR777",
        "label": "_symbol",
        "offset": 0,
        "slot": "3",
        "type": "t_string_storage"
      },
      {
        "astId": 2123,
        "contract": "contracts/Tokens/RAIR-ERC777.sol:RAIR777",
        "label": "_defaultOperatorsArray",
        "offset": 0,
        "slot": "4",
        "type": "t_array(t_address)dyn_storage"
      },
      {
        "astId": 2127,
        "contract": "contracts/Tokens/RAIR-ERC777.sol:RAIR777",
        "label": "_defaultOperators",
        "offset": 0,
        "slot": "5",
        "type": "t_mapping(t_address,t_bool)"
      },
      {
        "astId": 2133,
        "contract": "contracts/Tokens/RAIR-ERC777.sol:RAIR777",
        "label": "_operators",
        "offset": 0,
        "slot": "6",
        "type": "t_mapping(t_address,t_mapping(t_address,t_bool))"
      },
      {
        "astId": 2139,
        "contract": "contracts/Tokens/RAIR-ERC777.sol:RAIR777",
        "label": "_revokedDefaultOperators",
        "offset": 0,
        "slot": "7",
        "type": "t_mapping(t_address,t_mapping(t_address,t_bool))"
      },
      {
        "astId": 2145,
        "contract": "contracts/Tokens/RAIR-ERC777.sol:RAIR777",
        "label": "_allowances",
        "offset": 0,
        "slot": "8",
        "type": "t_mapping(t_address,t_mapping(t_address,t_uint256))"
      },
      {
        "astId": 24,
        "contract": "contracts/Tokens/RAIR-ERC777.sol:RAIR777",
        "label": "_roles",
        "offset": 0,
        "slot": "9",
        "type": "t_mapping(t_bytes32,t_struct(RoleData)19_storage)"
      },
      {
        "astId": 327,
        "contract": "contracts/Tokens/RAIR-ERC777.sol:RAIR777",
        "label": "_roleMembers",
        "offset": 0,
        "slot": "10",
        "type": "t_mapping(t_bytes32,t_struct(AddressSet)4371_storage)"
      },
      {
        "astId": 8347,
        "contract": "contracts/Tokens/RAIR-ERC777.sol:RAIR777",
        "label": "maximumSupply",
        "offset": 0,
        "slot": "11",
        "type": "t_uint256"
      }
    ],
    "types": {
      "t_address": {
        "encoding": "inplace",
        "label": "address",
        "numberOfBytes": "20"
      },
      "t_array(t_address)dyn_storage": {
        "base": "t_address",
        "encoding": "dynamic_array",
        "label": "address[]",
        "numberOfBytes": "32"
      },
      "t_array(t_bytes32)dyn_storage": {
        "base": "t_bytes32",
        "encoding": "dynamic_array",
        "label": "bytes32[]",
        "numberOfBytes": "32"
      },
      "t_bool": {
        "encoding": "inplace",
        "label": "bool",
        "numberOfBytes": "1"
      },
      "t_bytes32": {
        "encoding": "inplace",
        "label": "bytes32",
        "numberOfBytes": "32"
      },
      "t_mapping(t_address,t_bool)": {
        "encoding": "mapping",
        "key": "t_address",
        "label": "mapping(address => bool)",
        "numberOfBytes": "32",
        "value": "t_bool"
      },
      "t_mapping(t_address,t_mapping(t_address,t_bool))": {
        "encoding": "mapping",
        "key": "t_address",
        "label": "mapping(address => mapping(address => bool))",
        "numberOfBytes": "32",
        "value": "t_mapping(t_address,t_bool)"
      },
      "t_mapping(t_address,t_mapping(t_address,t_uint256))": {
        "encoding": "mapping",
        "key": "t_address",
        "label": "mapping(address => mapping(address => uint256))",
        "numberOfBytes": "32",
        "value": "t_mapping(t_address,t_uint256)"
      },
      "t_mapping(t_address,t_uint256)": {
        "encoding": "mapping",
        "key": "t_address",
        "label": "mapping(address => uint256)",
        "numberOfBytes": "32",
        "value": "t_uint256"
      },
      "t_mapping(t_bytes32,t_struct(AddressSet)4371_storage)": {
        "encoding": "mapping",
        "key": "t_bytes32",
        "label": "mapping(bytes32 => struct EnumerableSet.AddressSet)",
        "numberOfBytes": "32",
        "value": "t_struct(AddressSet)4371_storage"
      },
      "t_mapping(t_bytes32,t_struct(RoleData)19_storage)": {
        "encoding": "mapping",
        "key": "t_bytes32",
        "label": "mapping(bytes32 => struct AccessControl.RoleData)",
        "numberOfBytes": "32",
        "value": "t_struct(RoleData)19_storage"
      },
      "t_mapping(t_bytes32,t_uint256)": {
        "encoding": "mapping",
        "key": "t_bytes32",
        "label": "mapping(bytes32 => uint256)",
        "numberOfBytes": "32",
        "value": "t_uint256"
      },
      "t_string_storage": {
        "encoding": "bytes",
        "label": "string",
        "numberOfBytes": "32"
      },
      "t_struct(AddressSet)4371_storage": {
        "encoding": "inplace",
        "label": "struct EnumerableSet.AddressSet",
        "members": [
          {
            "astId": 4370,
            "contract": "contracts/Tokens/RAIR-ERC777.sol:RAIR777",
            "label": "_inner",
            "offset": 0,
            "slot": "0",
            "type": "t_struct(Set)4070_storage"
          }
        ],
        "numberOfBytes": "64"
      },
      "t_struct(RoleData)19_storage": {
        "encoding": "inplace",
        "label": "struct AccessControl.RoleData",
        "members": [
          {
            "astId": 16,
            "contract": "contracts/Tokens/RAIR-ERC777.sol:RAIR777",
            "label": "members",
            "offset": 0,
            "slot": "0",
            "type": "t_mapping(t_address,t_bool)"
          },
          {
            "astId": 18,
            "contract": "contracts/Tokens/RAIR-ERC777.sol:RAIR777",
            "label": "adminRole",
            "offset": 0,
            "slot": "1",
            "type": "t_bytes32"
          }
        ],
        "numberOfBytes": "64"
      },
      "t_struct(Set)4070_storage": {
        "encoding": "inplace",
        "label": "struct EnumerableSet.Set",
        "members": [
          {
            "astId": 4065,
            "contract": "contracts/Tokens/RAIR-ERC777.sol:RAIR777",
            "label": "_values",
            "offset": 0,
            "slot": "0",
            "type": "t_array(t_bytes32)dyn_storage"
          },
          {
            "astId": 4069,
            "contract": "contracts/Tokens/RAIR-ERC777.sol:RAIR777",
            "label": "_indexes",
            "offset": 0,
            "slot": "1",
            "type": "t_mapping(t_bytes32,t_uint256)"
          }
        ],
        "numberOfBytes": "64"
      },
      "t_uint256": {
        "encoding": "inplace",
        "label": "uint256",
        "numberOfBytes": "32"
      }
    }
  }
}