{
  "address": "0x0D15d816e3fe75F273ED0B737883FeBBD5fe3Ad4",
  "abi": [
    {
      "inputs": [
        {
          "internalType": "uint256",
          "name": "_pricePerToken",
          "type": "uint256"
        },
        {
          "internalType": "address",
          "name": "_rairAddress",
          "type": "address"
        }
      ],
      "stateMutability": "nonpayable",
      "type": "constructor"
    },
    {
      "anonymous": false,
      "inputs": [
        {
          "indexed": false,
          "internalType": "address",
          "name": "deployerAddress",
          "type": "address"
        },
        {
          "indexed": false,
          "internalType": "uint256",
          "name": "deploymentIndex",
          "type": "uint256"
        },
        {
          "indexed": false,
          "internalType": "address",
          "name": "deploymentAddress",
          "type": "address"
        },
        {
          "indexed": false,
          "internalType": "string",
          "name": "deploymentName",
          "type": "string"
        }
      ],
      "name": "DeployedContract",
      "type": "event"
    },
    {
      "anonymous": false,
      "inputs": [
        {
          "indexed": false,
          "internalType": "address",
          "name": "erc777",
          "type": "address"
        },
        {
          "indexed": false,
          "internalType": "uint256",
          "name": "priceToDeploy",
          "type": "uint256"
        }
      ],
      "name": "DeploymentPriceUpdated",
      "type": "event"
    },
    {
      "anonymous": false,
      "inputs": [
        {
          "indexed": false,
          "internalType": "address",
          "name": "owner",
          "type": "address"
        },
        {
          "indexed": false,
          "internalType": "uint256",
          "name": "id",
          "type": "uint256"
        },
        {
          "indexed": false,
          "internalType": "address",
          "name": "token",
          "type": "address"
        },
        {
          "indexed": false,
          "internalType": "string",
          "name": "contractName",
          "type": "string"
        }
      ],
      "name": "NewContractDeployed",
      "type": "event"
    },
    {
      "anonymous": false,
      "inputs": [
        {
          "indexed": false,
          "internalType": "address",
          "name": "erc777",
          "type": "address"
        },
        {
          "indexed": false,
          "internalType": "uint256",
          "name": "priceForNFT",
          "type": "uint256"
        }
      ],
      "name": "NewTokensAccepted",
      "type": "event"
    },
    {
      "anonymous": false,
      "inputs": [
        {
          "indexed": true,
          "internalType": "bytes32",
          "name": "role",
          "type": "bytes32"
        },
        {
          "indexed": true,
          "internalType": "bytes32",
          "name": "previousAdminRole",
          "type": "bytes32"
        },
        {
          "indexed": true,
          "internalType": "bytes32",
          "name": "newAdminRole",
          "type": "bytes32"
        }
      ],
      "name": "RoleAdminChanged",
      "type": "event"
    },
    {
      "anonymous": false,
      "inputs": [
        {
          "indexed": true,
          "internalType": "bytes32",
          "name": "role",
          "type": "bytes32"
        },
        {
          "indexed": true,
          "internalType": "address",
          "name": "account",
          "type": "address"
        },
        {
          "indexed": true,
          "internalType": "address",
          "name": "sender",
          "type": "address"
        }
      ],
      "name": "RoleGranted",
      "type": "event"
    },
    {
      "anonymous": false,
      "inputs": [
        {
          "indexed": true,
          "internalType": "bytes32",
          "name": "role",
          "type": "bytes32"
        },
        {
          "indexed": true,
          "internalType": "address",
          "name": "account",
          "type": "address"
        },
        {
          "indexed": true,
          "internalType": "address",
          "name": "sender",
          "type": "address"
        }
      ],
      "name": "RoleRevoked",
      "type": "event"
    },
    {
      "anonymous": false,
      "inputs": [
        {
          "indexed": false,
          "internalType": "address",
          "name": "erc777",
          "type": "address"
        }
      ],
      "name": "TokenNoLongerAccepted",
      "type": "event"
    },
    {
      "anonymous": false,
      "inputs": [
        {
          "indexed": false,
          "internalType": "address",
          "name": "recipient",
          "type": "address"
        },
        {
          "indexed": false,
          "internalType": "address",
          "name": "erc777",
          "type": "address"
        },
        {
          "indexed": false,
          "internalType": "uint256",
          "name": "amount",
          "type": "uint256"
        }
      ],
      "name": "TokensWithdrawn",
      "type": "event"
    },
    {
      "inputs": [],
      "name": "DEFAULT_ADMIN_ROLE",
      "outputs": [
        {
          "internalType": "bytes32",
          "name": "",
          "type": "bytes32"
        }
      ],
      "stateMutability": "view",
      "type": "function"
    },
    {
      "inputs": [],
      "name": "ERC777",
      "outputs": [
        {
          "internalType": "bytes32",
          "name": "",
          "type": "bytes32"
        }
      ],
      "stateMutability": "view",
      "type": "function"
    },
    {
      "inputs": [],
      "name": "OWNER",
      "outputs": [
        {
          "internalType": "bytes32",
          "name": "",
          "type": "bytes32"
        }
      ],
      "stateMutability": "view",
      "type": "function"
    },
    {
      "inputs": [
        {
          "internalType": "address",
          "name": "_erc777Address",
          "type": "address"
        },
        {
          "internalType": "uint256",
          "name": "_pricePerToken",
          "type": "uint256"
        }
      ],
      "name": "add777Token",
      "outputs": [],
      "stateMutability": "nonpayable",
      "type": "function"
    },
    {
      "inputs": [
        {
          "internalType": "address",
          "name": "",
          "type": "address"
        }
      ],
      "name": "contractToOwner",
      "outputs": [
        {
          "internalType": "address",
          "name": "",
          "type": "address"
        }
      ],
      "stateMutability": "view",
      "type": "function"
    },
    {
      "inputs": [
        {
          "internalType": "uint256",
          "name": "",
          "type": "uint256"
        }
      ],
      "name": "creators",
      "outputs": [
        {
          "internalType": "address",
          "name": "",
          "type": "address"
        }
      ],
      "stateMutability": "view",
      "type": "function"
    },
    {
      "inputs": [],
      "name": "deployerAddress",
      "outputs": [
        {
          "internalType": "address",
          "name": "",
          "type": "address"
        }
      ],
      "stateMutability": "view",
      "type": "function"
    },
    {
      "inputs": [
        {
          "internalType": "address",
          "name": "",
          "type": "address"
        }
      ],
      "name": "deploymentCostForERC777",
      "outputs": [
        {
          "internalType": "uint256",
          "name": "",
          "type": "uint256"
        }
      ],
      "stateMutability": "view",
      "type": "function"
    },
    {
      "inputs": [
        {
          "internalType": "address",
          "name": "deployer",
          "type": "address"
        }
      ],
      "name": "getContractCountOf",
      "outputs": [
        {
          "internalType": "uint256",
          "name": "count",
          "type": "uint256"
        }
      ],
      "stateMutability": "view",
      "type": "function"
    },
    {
      "inputs": [],
      "name": "getCreatorsCount",
      "outputs": [
        {
          "internalType": "uint256",
          "name": "count",
          "type": "uint256"
        }
      ],
      "stateMutability": "view",
      "type": "function"
    },
    {
      "inputs": [
        {
          "internalType": "bytes32",
          "name": "role",
          "type": "bytes32"
        }
      ],
      "name": "getRoleAdmin",
      "outputs": [
        {
          "internalType": "bytes32",
          "name": "",
          "type": "bytes32"
        }
      ],
      "stateMutability": "view",
      "type": "function"
    },
    {
      "inputs": [
        {
          "internalType": "bytes32",
          "name": "role",
          "type": "bytes32"
        },
        {
          "internalType": "uint256",
          "name": "index",
          "type": "uint256"
        }
      ],
      "name": "getRoleMember",
      "outputs": [
        {
          "internalType": "address",
          "name": "",
          "type": "address"
        }
      ],
      "stateMutability": "view",
      "type": "function"
    },
    {
      "inputs": [
        {
          "internalType": "bytes32",
          "name": "role",
          "type": "bytes32"
        }
      ],
      "name": "getRoleMemberCount",
      "outputs": [
        {
          "internalType": "uint256",
          "name": "",
          "type": "uint256"
        }
      ],
      "stateMutability": "view",
      "type": "function"
    },
    {
      "inputs": [
        {
          "internalType": "bytes32",
          "name": "role",
          "type": "bytes32"
        },
        {
          "internalType": "address",
          "name": "account",
          "type": "address"
        }
      ],
      "name": "grantRole",
      "outputs": [],
      "stateMutability": "nonpayable",
      "type": "function"
    },
    {
      "inputs": [
        {
          "internalType": "bytes32",
          "name": "role",
          "type": "bytes32"
        },
        {
          "internalType": "address",
          "name": "account",
          "type": "address"
        }
      ],
      "name": "hasRole",
      "outputs": [
        {
          "internalType": "bool",
          "name": "",
          "type": "bool"
        }
      ],
      "stateMutability": "view",
      "type": "function"
    },
    {
      "inputs": [
        {
          "internalType": "address",
          "name": "factoryAddress",
          "type": "address"
        },
        {
          "internalType": "bool",
          "name": "diamond",
          "type": "bool"
        }
      ],
      "name": "importData",
      "outputs": [],
      "stateMutability": "nonpayable",
      "type": "function"
    },
    {
      "inputs": [
        {
          "internalType": "address",
          "name": "",
          "type": "address"
        },
        {
          "internalType": "uint256",
          "name": "",
          "type": "uint256"
        }
      ],
      "name": "ownerToContracts",
      "outputs": [
        {
          "internalType": "address",
          "name": "",
          "type": "address"
        }
      ],
      "stateMutability": "view",
      "type": "function"
    },
    {
      "inputs": [
        {
          "internalType": "address",
          "name": "_erc777Address",
          "type": "address"
        }
      ],
      "name": "remove777Token",
      "outputs": [],
      "stateMutability": "nonpayable",
      "type": "function"
    },
    {
      "inputs": [
        {
          "internalType": "bytes32",
          "name": "role",
          "type": "bytes32"
        },
        {
          "internalType": "address",
          "name": "account",
          "type": "address"
        }
      ],
      "name": "renounceRole",
      "outputs": [],
      "stateMutability": "nonpayable",
      "type": "function"
    },
    {
      "inputs": [
        {
          "internalType": "bytes32",
          "name": "role",
          "type": "bytes32"
        },
        {
          "internalType": "address",
          "name": "account",
          "type": "address"
        }
      ],
      "name": "revokeRole",
      "outputs": [],
      "stateMutability": "nonpayable",
      "type": "function"
    },
    {
      "inputs": [
        {
          "internalType": "address",
          "name": "deployerAddress_",
          "type": "address"
        }
      ],
      "name": "setDeployerAddress",
      "outputs": [],
      "stateMutability": "nonpayable",
      "type": "function"
    },
    {
      "inputs": [
        {
          "internalType": "bytes4",
          "name": "interfaceId",
          "type": "bytes4"
        }
      ],
      "name": "supportsInterface",
      "outputs": [
        {
          "internalType": "bool",
          "name": "",
          "type": "bool"
        }
      ],
      "stateMutability": "view",
      "type": "function"
    },
    {
      "inputs": [
        {
          "internalType": "address",
          "name": "operator",
          "type": "address"
        },
        {
          "internalType": "address",
          "name": "from",
          "type": "address"
        },
        {
          "internalType": "address",
          "name": "to",
          "type": "address"
        },
        {
          "internalType": "uint256",
          "name": "amount",
          "type": "uint256"
        },
        {
          "internalType": "bytes",
          "name": "userData",
          "type": "bytes"
        },
        {
          "internalType": "bytes",
          "name": "operatorData",
          "type": "bytes"
        }
      ],
      "name": "tokensReceived",
      "outputs": [],
      "stateMutability": "nonpayable",
      "type": "function"
    },
    {
      "inputs": [
        {
          "internalType": "address",
          "name": "_erc777Address",
          "type": "address"
        },
        {
          "internalType": "uint256",
          "name": "_deploymentPrice",
          "type": "uint256"
        }
      ],
      "name": "updateDeploymentPrice",
      "outputs": [],
      "stateMutability": "nonpayable",
      "type": "function"
    },
    {
      "inputs": [
        {
          "internalType": "address",
          "name": "erc777",
          "type": "address"
        },
        {
          "internalType": "uint256",
          "name": "amount",
          "type": "uint256"
        }
      ],
      "name": "withdrawTokens",
      "outputs": [],
      "stateMutability": "nonpayable",
      "type": "function"
    }
  ],
  "transactionHash": "0xe6b595450dafcf9e096d7e45131c8efa71983c4dcc84584d279517df61b31a30",
  "args": [
    "15000000000000000000",
    "0x1AeAb89553233D1045b506e8DCBFa3df76E18896"
  ],
  "numDeployments": 3,
  "solcInputHash": "a10d8834c3dca6a288befeb088dc9769",
  "bytecode": "0x60806040523480156200001157600080fd5b506040516200209638038062002096833981016040819052620000349162000361565b6040516329965a1d60e01b815230600482018190527fb281fc8c12954d22544db45de3159a39272895b169a852b314f9cc762e44c53b60248301526044820152731820a4b7618bde71dce8cdc73aab6c95905fad24906329965a1d90606401600060405180830381600087803b158015620000ae57600080fd5b505af1158015620000c3573d6000803e3d6000fd5b50505050620000e86000805160206200205683398151915280620001b160201b60201c565b620001126000805160206200207683398151915260008051602062002056833981519152620001b1565b6200011f600033620001fc565b6200013a6000805160206200205683398151915233620001fc565b620001556000805160206200207683398151915282620001fc565b6001600160a01b038116600081815260046020908152604091829020859055815192835282018490527f3229ffedb9ac4c1136e523cacfdab8c7621a1f1394161e5fa51850fbf4b4079b910160405180910390a15050620003a0565b600082815260208190526040808220600101805490849055905190918391839186917fbd79b86ffe0ab8e8776151514217cd7cacd52c909f66475c3af44e129f0b00ff9190a4505050565b6200020882826200020c565b5050565b6200022382826200024f60201b620011681760201c565b60008281526001602090815260409091206200024a918390620011ec620002ef821b17901c565b505050565b6000828152602081815260408083206001600160a01b038516845290915290205460ff1662000208576000828152602081815260408083206001600160a01b03851684529091529020805460ff19166001179055620002ab3390565b6001600160a01b0316816001600160a01b0316837f2f8788117e7eff1d82e926ec794901d17c78024a50270940304540a733656f0d60405160405180910390a45050565b600062000306836001600160a01b0384166200030f565b90505b92915050565b6000818152600183016020526040812054620003585750815460018181018455600084815260208082209093018490558454848252828601909352604090209190915562000309565b50600062000309565b600080604083850312156200037557600080fd5b825160208401519092506001600160a01b03811681146200039557600080fd5b809150509250929050565b611ca680620003b06000396000f3fe608060405234801561001057600080fd5b50600436106101725760003560e01c8063871797f7116100de578063aa55ecbc11610097578063d547741f11610071578063d547741f14610364578063dbdda1a114610377578063efdee94f1461038a578063f42512ce1461039d57600080fd5b8063aa55ecbc14610336578063ca15c8731461033e578063cd53d08e1461035157600080fd5b8063871797f7146102ac5780639010d07c146102cc57806391d14854146102df57806392152f18146102f2578063956f903814610305578063a217fddf1461032e57600080fd5b80632f2ff15d116101305780632f2ff15d1461022057806336568abe14610233578063543a16b114610246578063662c61631461025b5780636a1972bd1461026e5780636e661cca1461029957600080fd5b806223de291461017757806301ffc9a71461018c57806306b091f9146101b4578063117803e3146101c75780631c6ee6a2146101ea578063248a9ca3146101fd575b600080fd5b61018a6101853660046116e1565b6103c6565b005b61019f61019a366004611792565b6107ca565b60405190151581526020015b60405180910390f35b61018a6101c23660046117bc565b6107f5565b6101dc600080516020611c3183398151915281565b6040519081526020016101ab565b61018a6101f83660046117bc565b610979565b6101dc61020b3660046117e8565b60009081526020819052604090206001015490565b61018a61022e366004611801565b6109fa565b61018a610241366004611801565b610a24565b6101dc600080516020611c5183398151915281565b61018a6102693660046117bc565b610aa2565b61028161027c3660046117bc565b610b23565b6040516001600160a01b0390911681526020016101ab565b61018a6102a7366004611831565b610b5b565b6101dc6102ba366004611864565b60046020526000908152604090205481565b6102816102da366004611881565b610ffc565b61019f6102ed366004611801565b61101b565b61018a610300366004611864565b611044565b6101dc610313366004611864565b6001600160a01b031660009081526002602052604090205490565b6101dc600081565b6006546101dc565b6101dc61034c3660046117e8565b61107f565b61028161035f3660046117e8565b611096565b61018a610372366004611801565b6110c0565b61018a610385366004611864565b6110e5565b600554610281906001600160a01b031681565b6102816103ab366004611864565b6003602052600090815260409020546001600160a01b031681565b600080516020611c518339815191526103de81611201565b6001600160a01b03871630146104545760405162461bcd60e51b815260206004820152603060248201527f5241495220466163746f72793a20546f6b656e2072656365697665642069732060448201526f6e6f742074686973206164647265737360801b60648201526084015b60405180910390fd5b336000908152600460205260409020546104d65760405162461bcd60e51b815260206004820152603f60248201527f5241495220466163746f72793a204465706c6f796d656e747320666f7220746860448201527f697320746f6b656e206172652063757272656e746c792064697361626c656400606482015260840161044b565b3360009081526004602052604090205486101561055b5760405162461bcd60e51b815260206004820152603960248201527f5241495220466163746f72793a206e6f7420656e6f756768205241495220746f60448201527f6b656e7320746f206465706c6f79206120636f6e747261637400000000000000606482015260840161044b565b6005546001600160a01b03166105b35760405162461bcd60e51b815260206004820181905260248201527f5241495220466163746f72793a204e6f206465706c6f79657220666f756e6421604482015260640161044b565b336000908152600460205260408120546105cd90886118b9565b11156106495733600081815260046020526040902054639bd9bbc6908a906105f5908a6118b9565b88886040518563ffffffff1660e01b815260040161061694939291906118f9565b600060405180830381600087803b15801561063057600080fd5b505af1158015610644573d6000803e3d6000fd5b505050505b6001600160a01b038816600090815260026020526040812080549091036106b657600680546001810182556000919091527ff652222313e28459528d920b65115c16c04f3efc82aaedc97be59f3f377c0d3f0180546001600160a01b0319166001600160a01b038b161790555b60055460405163193e3dd560e21b81526000916001600160a01b0316906364f8f754906106eb908d908b908b9060040161192b565b6020604051808303816000875af115801561070a573d6000803e3d6000fd5b505050506040513d601f19601f8201168201806040525081019061072e9190611959565b82546001810184556000848152602080822090920180546001600160a01b03199081166001600160a01b03868116918217909355835260039093526040918290208054909316908e1617909155835490519192507fb1bf8414d7fb85ef593239c1db589dffe8753ca97f373e492a269ec8c1e97553916107b5918d9185908c908c90611976565b60405180910390a15050505050505050505050565b60006001600160e01b03198216635a05180f60e01b14806107ef57506107ef8261120e565b92915050565b600080516020611c3183398151915261080d81611201565b610825600080516020611c518339815191528461101b565b6108a25760405162461bcd60e51b815260206004820152604260248201527f5241495220466163746f72793a2053706563696669656420636f6e747261637460448201527f2069736e277420616e20617070726f7665642065726337373720636f6e74726160648201526118dd60f21b608482015260a40161044b565b604051634decdde360e11b81523360048201526024810183905260606044820152601060648201526f466163746f727920576974686472617760801b60848201526001600160a01b03841690639bd9bbc69060a401600060405180830381600087803b15801561091157600080fd5b505af1158015610925573d6000803e3d6000fd5b5050604080513381526001600160a01b03871660208201529081018590527f6337ed398c0e8467698c581374fdce4db14922df487b5a39483079f5f59b60a4925060600190505b60405180910390a1505050565b600080516020611c3183398151915261099181611201565b6109a9600080516020611c51833981519152846109fa565b6001600160a01b038316600081815260046020908152604091829020859055815192835282018490527f3229ffedb9ac4c1136e523cacfdab8c7621a1f1394161e5fa51850fbf4b4079b910161096c565b600082815260208190526040902060010154610a1581611201565b610a1f8383611243565b505050565b6001600160a01b0381163314610a945760405162461bcd60e51b815260206004820152602f60248201527f416363657373436f6e74726f6c3a2063616e206f6e6c792072656e6f756e636560448201526e103937b632b9903337b91039b2b63360891b606482015260840161044b565b610a9e8282611265565b5050565b600080516020611c31833981519152610aba81611201565b610ad2600080516020611c5183398151915284611287565b6001600160a01b038316600081815260046020908152604091829020859055815192835282018490527f5ecf283b0c61f805459f7d67227fd1ab13d29464fe98e69ef25ff48f072eec0e910161096c565b60026020528160005260406000208181548110610b3f57600080fd5b6000918252602090912001546001600160a01b03169150829050565b600080516020611c31833981519152610b7381611201565b60008390506000816001600160a01b031663aa55ecbc6040518163ffffffff1660e01b8152600401602060405180830381865afa158015610bb8573d6000803e3d6000fd5b505050506040513d601f19601f82011682018060405250810190610bdc91906119b5565b905060005b81811015610ff4576040516366a9e84760e11b8152600481018290526000906001600160a01b0385169063cd53d08e906024016020604051808303816000875af1158015610c33573d6000803e3d6000fd5b505050506040513d601f19601f82011682018060405250810190610c579190611959565b6040516312adf20760e31b81526001600160a01b03808316600483015291925060009186169063956f903890602401602060405180830381865afa158015610ca3573d6000803e3d6000fd5b505050506040513d601f19601f82011682018060405250810190610cc791906119b5565b905060005b81811015610fde57604051636a1972bd60e01b81526001600160a01b0384811660048301526024820183905260009190881690636a1972bd906044016020604051808303816000875af1158015610d27573d6000803e3d6000fd5b505050506040513d601f19601f82011682018060405250810190610d4b9190611959565b6001600160a01b03851660009081526002602052604081205491925003610db857600680546001810182556000919091527ff652222313e28459528d920b65115c16c04f3efc82aaedc97be59f3f377c0d3f0180546001600160a01b0319166001600160a01b0386161790555b6001600160a01b0381811660009081526003602052604090205416610fcb576001600160a01b0380821660008181526003602090815260408083208054958a166001600160a01b031996871681179091558352600282528220805460018101825590835291200180549092161790558815610efe577fb1bf8414d7fb85ef593239c1db589dffe8753ca97f373e492a269ec8c1e975538460026000876001600160a01b03166001600160a01b031681526020019081526020016000208054905083846001600160a01b03166306fdde036040518163ffffffff1660e01b81526004016000604051808303816000875af1158015610eb9573d6000803e3d6000fd5b505050506040513d6000823e601f3d908101601f19168201604052610ee19190810190611a14565b604051610ef19493929190611ae2565b60405180910390a1610fcb565b7f545d813d4a5a55fa5aa3e0d25319b0460e7954e015ba9786c512950696d5fc5f8460026000876001600160a01b03166001600160a01b031681526020019081526020016000208054905083846001600160a01b03166306fdde036040518163ffffffff1660e01b81526004016000604051808303816000875af1158015610f8a573d6000803e3d6000fd5b505050506040513d6000823e601f3d908101601f19168201604052610fb29190810190611a14565b604051610fc29493929190611ae2565b60405180910390a15b5080610fd681611b15565b915050610ccc565b5050508080610fec90611b15565b915050610be1565b505050505050565b600082815260016020526040812061101490836112eb565b9392505050565b6000918252602082815260408084206001600160a01b0393909316845291905290205460ff1690565b600080516020611c3183398151915261105c81611201565b50600580546001600160a01b0319166001600160a01b0392909216919091179055565b60008181526001602052604081206107ef906112f7565b600681815481106110a657600080fd5b6000918252602090912001546001600160a01b0316905081565b6000828152602081905260409020600101546110db81611201565b610a1f8383611265565b600080516020611c318339815191526110fd81611201565b611115600080516020611c51833981519152836110c0565b6001600160a01b03821660008181526004602090815260408083209290925590519182527ffae0368e2524d44fb9cd4e3d7b3c3ef4c00778a55c6121e48e49d11fb38c7e38910160405180910390a15050565b611172828261101b565b610a9e576000828152602081815260408083206001600160a01b03851684529091529020805460ff191660011790556111a83390565b6001600160a01b0316816001600160a01b0316837f2f8788117e7eff1d82e926ec794901d17c78024a50270940304540a733656f0d60405160405180910390a45050565b6000611014836001600160a01b038416611301565b61120b8133611287565b50565b60006001600160e01b03198216637965db0b60e01b14806107ef57506301ffc9a760e01b6001600160e01b03198316146107ef565b61124d8282611168565b6000828152600160205260409020610a1f90826111ec565b61126f8282611350565b6000828152600160205260409020610a1f90826113b5565b611291828261101b565b610a9e576112a9816001600160a01b031660146113ca565b6112b48360206113ca565b6040516020016112c5929190611b2e565b60408051601f198184030181529082905262461bcd60e51b825261044b91600401611ba3565b60006110148383611566565b60006107ef825490565b6000818152600183016020526040812054611348575081546001818101845560008481526020808220909301849055845484825282860190935260409020919091556107ef565b5060006107ef565b61135a828261101b565b15610a9e576000828152602081815260408083206001600160a01b0385168085529252808320805460ff1916905551339285917ff6391f5c32d9c69d2a47ea670b442974b53935d1edc7fd64eb21e047a839171b9190a45050565b6000611014836001600160a01b038416611590565b606060006113d9836002611bb6565b6113e4906002611bd5565b67ffffffffffffffff8111156113fc576113fc6119ce565b6040519080825280601f01601f191660200182016040528015611426576020820181803683370190505b509050600360fc1b8160008151811061144157611441611bed565b60200101906001600160f81b031916908160001a905350600f60fb1b8160018151811061147057611470611bed565b60200101906001600160f81b031916908160001a9053506000611494846002611bb6565b61149f906001611bd5565b90505b6001811115611517576f181899199a1a9b1b9c1cb0b131b232b360811b85600f16601081106114d3576114d3611bed565b1a60f81b8282815181106114e9576114e9611bed565b60200101906001600160f81b031916908160001a90535060049490941c9361151081611c03565b90506114a2565b5083156110145760405162461bcd60e51b815260206004820181905260248201527f537472696e67733a20686578206c656e67746820696e73756666696369656e74604482015260640161044b565b600082600001828154811061157d5761157d611bed565b9060005260206000200154905092915050565b600081815260018301602052604081205480156116795760006115b46001836118b9565b85549091506000906115c8906001906118b9565b905081811461162d5760008660000182815481106115e8576115e8611bed565b906000526020600020015490508087600001848154811061160b5761160b611bed565b6000918252602080832090910192909255918252600188019052604090208390555b855486908061163e5761163e611c1a565b6001900381819060005260206000200160009055905585600101600086815260200190815260200160002060009055600193505050506107ef565b60009150506107ef565b6001600160a01b038116811461120b57600080fd5b60008083601f8401126116aa57600080fd5b50813567ffffffffffffffff8111156116c257600080fd5b6020830191508360208285010111156116da57600080fd5b9250929050565b60008060008060008060008060c0898b0312156116fd57600080fd5b883561170881611683565b9750602089013561171881611683565b9650604089013561172881611683565b955060608901359450608089013567ffffffffffffffff8082111561174c57600080fd5b6117588c838d01611698565b909650945060a08b013591508082111561177157600080fd5b5061177e8b828c01611698565b999c989b5096995094979396929594505050565b6000602082840312156117a457600080fd5b81356001600160e01b03198116811461101457600080fd5b600080604083850312156117cf57600080fd5b82356117da81611683565b946020939093013593505050565b6000602082840312156117fa57600080fd5b5035919050565b6000806040838503121561181457600080fd5b82359150602083013561182681611683565b809150509250929050565b6000806040838503121561184457600080fd5b823561184f81611683565b91506020830135801515811461182657600080fd5b60006020828403121561187657600080fd5b813561101481611683565b6000806040838503121561189457600080fd5b50508035926020909101359150565b634e487b7160e01b600052601160045260246000fd5b6000828210156118cb576118cb6118a3565b500390565b81835281816020850137506000828201602090810191909152601f909101601f19169091010190565b60018060a01b03851681528360208201526060604082015260006119216060830184866118d0565b9695505050505050565b6001600160a01b038416815260406020820181905260009061195090830184866118d0565b95945050505050565b60006020828403121561196b57600080fd5b815161101481611683565b6001600160a01b03868116825260208201869052841660408201526080606082018190526000906119aa90830184866118d0565b979650505050505050565b6000602082840312156119c757600080fd5b5051919050565b634e487b7160e01b600052604160045260246000fd5b60005b838110156119ff5781810151838201526020016119e7565b83811115611a0e576000848401525b50505050565b600060208284031215611a2657600080fd5b815167ffffffffffffffff80821115611a3e57600080fd5b818401915084601f830112611a5257600080fd5b815181811115611a6457611a646119ce565b604051601f8201601f19908116603f01168101908382118183101715611a8c57611a8c6119ce565b81604052828152876020848701011115611aa557600080fd5b6119aa8360208301602088016119e4565b60008151808452611ace8160208601602086016119e4565b601f01601f19169290920160200192915050565b6001600160a01b038581168252602082018590528316604082015260806060820181905260009061192190830184611ab6565b600060018201611b2757611b276118a3565b5060010190565b7f416363657373436f6e74726f6c3a206163636f756e7420000000000000000000815260008351611b668160178501602088016119e4565b7001034b99036b4b9b9b4b733903937b6329607d1b6017918401918201528351611b978160288401602088016119e4565b01602801949350505050565b6020815260006110146020830184611ab6565b6000816000190483118215151615611bd057611bd06118a3565b500290565b60008219821115611be857611be86118a3565b500190565b634e487b7160e01b600052603260045260246000fd5b600081611c1257611c126118a3565b506000190190565b634e487b7160e01b600052603160045260246000fdfe6270edb7c868f86fda4adedba75108201087268ea345934db8bad688e1feb91be33cd123f09d9a4e3b34162dcaba99ee0b73fe748beb8ca15f84a66b0c147230a2646970667358221220bafe83f9513e7ada0d07823639061e7eb7a931ecaedb1f2ff5f9006b2f8659d664736f6c634300080d00336270edb7c868f86fda4adedba75108201087268ea345934db8bad688e1feb91be33cd123f09d9a4e3b34162dcaba99ee0b73fe748beb8ca15f84a66b0c147230",
  "devdoc": {
    "author": "Juan M. Sanchez M.",
    "details": "Uses AccessControl for the reception of ERC777 tokens!",
    "kind": "dev",
    "methods": {
      "add777Token(address,uint256)": {
        "params": {
          "_erc777Address": "Address of the new Token"
        }
      },
      "constructor": {
        "params": {
          "_pricePerToken": "Tokens required for the deployment",
          "_rairAddress": "Address of the primary ERC777 contract (RAIR contract)"
        }
      },
      "getContractCountOf(address)": {
        "details": "Use alongside ownerToContracts for the full list of tokens ",
        "params": {
          "deployer": "Wallet address to query"
        }
      },
      "getRoleAdmin(bytes32)": {
        "details": "Returns the admin role that controls `role`. See {grantRole} and {revokeRole}. To change a role's admin, use {_setRoleAdmin}."
      },
      "getRoleMember(bytes32,uint256)": {
        "details": "Returns one of the accounts that have `role`. `index` must be a value between 0 and {getRoleMemberCount}, non-inclusive. Role bearers are not sorted in any particular way, and their ordering may change at any point. WARNING: When using {getRoleMember} and {getRoleMemberCount}, make sure you perform all queries on the same block. See the following https://forum.openzeppelin.com/t/iterating-over-elements-on-enumerableset-in-openzeppelin-contracts/2296[forum post] for more information."
      },
      "getRoleMemberCount(bytes32)": {
        "details": "Returns the number of accounts that have `role`. Can be used together with {getRoleMember} to enumerate all bearers of a role."
      },
      "grantRole(bytes32,address)": {
        "details": "Grants `role` to `account`. If `account` had not been already granted `role`, emits a {RoleGranted} event. Requirements: - the caller must have ``role``'s admin role."
      },
      "hasRole(bytes32,address)": {
        "details": "Returns `true` if `account` has been granted `role`."
      },
      "importData(address,bool)": {
        "details": "This way we can recover data in case of an update / bugfixWe are not removing data from the imported factories, so don't run this twice!",
        "params": {
          "factoryAddress": "Address of the factory to import"
        }
      },
      "remove777Token(address)": {
        "params": {
          "_erc777Address": "Address of the Token"
        }
      },
      "renounceRole(bytes32,address)": {
        "details": "Revokes `role` from the calling account. Roles are often managed via {grantRole} and {revokeRole}: this function's purpose is to provide a mechanism for accounts to lose their privileges if they are compromised (such as when a trusted device is misplaced). If the calling account had been revoked `role`, emits a {RoleRevoked} event. Requirements: - the caller must be `account`."
      },
      "revokeRole(bytes32,address)": {
        "details": "Revokes `role` from `account`. If `account` had been granted `role`, emits a {RoleRevoked} event. Requirements: - the caller must have ``role``'s admin role."
      },
      "supportsInterface(bytes4)": {
        "details": "See {IERC165-supportsInterface}."
      },
      "tokensReceived(address,address,address,uint256,bytes,bytes)": {
        "details": "This is our deployment mechanism for ERC721 contracts!",
        "params": {
          "amount": "The number of tokens sent",
          "from": "The owner of the tokens",
          "operator": "The operator calling the send() function",
          "operatorData": "bytes sent from the operator",
          "to": "The recipient of the tokens",
          "userData": "bytes sent from the send call"
        }
      },
      "withdrawTokens(address,uint256)": {
        "details": "If the contract has less than the amount, the ERC777 contract will revertAccessControl makes sure only an OWNER can withdraw",
        "params": {
          "amount": "Amount of tokens to withdraw",
          "erc777": "Address of the ERC777 contract"
        }
      }
    },
    "title": "RAIR ERC721 Factory",
    "version": 1
  },
  "userdoc": {
    "kind": "user",
    "methods": {
      "add777Token(address,uint256)": {
        "notice": "Adds an address to the list of allowed minters"
      },
      "constructor": {
        "notice": "Factory Constructor"
      },
      "getContractCountOf(address)": {
        "notice": "Returns the number of contracts deployed by an address"
      },
      "getCreatorsCount()": {
        "notice": "Returns the number of addresses that have deployed a contract"
      },
      "importData(address,bool)": {
        "notice": "Imports deployment data from previous factories"
      },
      "remove777Token(address)": {
        "notice": "Removes an address from the list of allowed minters"
      },
      "tokensReceived(address,address,address,uint256,bytes,bytes)": {
        "notice": "Function called by an ERC777 when they send tokens"
      },
      "withdrawTokens(address,uint256)": {
        "notice": "Transfers tokens from the factory to any of the OWNER addresses"
      }
    },
    "notice": "Handles the deployment of ERC721 RAIR Tokens",
    "version": 1
  },
  "storageLayout": {
    "storage": [
      {
        "astId": 18844,
        "contract": "contracts/Factory/RAIR721_Master_Factory.sol:RAIR721_Master_Factory",
        "label": "_roles",
        "offset": 0,
        "slot": "0",
        "type": "t_mapping(t_bytes32,t_struct(RoleData)18839_storage)"
      },
      {
        "astId": 19158,
        "contract": "contracts/Factory/RAIR721_Master_Factory.sol:RAIR721_Master_Factory",
        "label": "_roleMembers",
        "offset": 0,
        "slot": "1",
        "type": "t_mapping(t_bytes32,t_struct(AddressSet)21530_storage)"
      },
      {
        "astId": 4821,
        "contract": "contracts/Factory/RAIR721_Master_Factory.sol:RAIR721_Master_Factory",
        "label": "ownerToContracts",
        "offset": 0,
        "slot": "2",
        "type": "t_mapping(t_address,t_array(t_address)dyn_storage)"
      },
      {
        "astId": 4825,
        "contract": "contracts/Factory/RAIR721_Master_Factory.sol:RAIR721_Master_Factory",
        "label": "contractToOwner",
        "offset": 0,
        "slot": "3",
        "type": "t_mapping(t_address,t_address)"
      },
      {
        "astId": 4829,
        "contract": "contracts/Factory/RAIR721_Master_Factory.sol:RAIR721_Master_Factory",
        "label": "deploymentCostForERC777",
        "offset": 0,
        "slot": "4",
        "type": "t_mapping(t_address,t_uint256)"
      },
      {
        "astId": 4831,
        "contract": "contracts/Factory/RAIR721_Master_Factory.sol:RAIR721_Master_Factory",
        "label": "deployerAddress",
        "offset": 0,
        "slot": "5",
        "type": "t_address"
      },
      {
        "astId": 4834,
        "contract": "contracts/Factory/RAIR721_Master_Factory.sol:RAIR721_Master_Factory",
        "label": "creators",
        "offset": 0,
        "slot": "6",
        "type": "t_array(t_address)dyn_storage"
      }
    ],
    "types": {
      "t_address": {
        "encoding": "inplace",
        "label": "address",
        "numberOfBytes": "20"
      },
      "t_array(t_address)dyn_storage": {
        "base": "t_address",
        "encoding": "dynamic_array",
        "label": "address[]",
        "numberOfBytes": "32"
      },
      "t_array(t_bytes32)dyn_storage": {
        "base": "t_bytes32",
        "encoding": "dynamic_array",
        "label": "bytes32[]",
        "numberOfBytes": "32"
      },
      "t_bool": {
        "encoding": "inplace",
        "label": "bool",
        "numberOfBytes": "1"
      },
      "t_bytes32": {
        "encoding": "inplace",
        "label": "bytes32",
        "numberOfBytes": "32"
      },
      "t_mapping(t_address,t_address)": {
        "encoding": "mapping",
        "key": "t_address",
        "label": "mapping(address => address)",
        "numberOfBytes": "32",
        "value": "t_address"
      },
      "t_mapping(t_address,t_array(t_address)dyn_storage)": {
        "encoding": "mapping",
        "key": "t_address",
        "label": "mapping(address => address[])",
        "numberOfBytes": "32",
        "value": "t_array(t_address)dyn_storage"
      },
      "t_mapping(t_address,t_bool)": {
        "encoding": "mapping",
        "key": "t_address",
        "label": "mapping(address => bool)",
        "numberOfBytes": "32",
        "value": "t_bool"
      },
      "t_mapping(t_address,t_uint256)": {
        "encoding": "mapping",
        "key": "t_address",
        "label": "mapping(address => uint256)",
        "numberOfBytes": "32",
        "value": "t_uint256"
      },
      "t_mapping(t_bytes32,t_struct(AddressSet)21530_storage)": {
        "encoding": "mapping",
        "key": "t_bytes32",
        "label": "mapping(bytes32 => struct EnumerableSet.AddressSet)",
        "numberOfBytes": "32",
        "value": "t_struct(AddressSet)21530_storage"
      },
      "t_mapping(t_bytes32,t_struct(RoleData)18839_storage)": {
        "encoding": "mapping",
        "key": "t_bytes32",
        "label": "mapping(bytes32 => struct AccessControl.RoleData)",
        "numberOfBytes": "32",
        "value": "t_struct(RoleData)18839_storage"
      },
      "t_mapping(t_bytes32,t_uint256)": {
        "encoding": "mapping",
        "key": "t_bytes32",
        "label": "mapping(bytes32 => uint256)",
        "numberOfBytes": "32",
        "value": "t_uint256"
      },
      "t_struct(AddressSet)21530_storage": {
        "encoding": "inplace",
        "label": "struct EnumerableSet.AddressSet",
        "members": [
          {
            "astId": 21529,
            "contract": "contracts/Factory/RAIR721_Master_Factory.sol:RAIR721_Master_Factory",
            "label": "_inner",
            "offset": 0,
            "slot": "0",
            "type": "t_struct(Set)21229_storage"
          }
        ],
        "numberOfBytes": "64"
      },
      "t_struct(RoleData)18839_storage": {
        "encoding": "inplace",
        "label": "struct AccessControl.RoleData",
        "members": [
          {
            "astId": 18836,
            "contract": "contracts/Factory/RAIR721_Master_Factory.sol:RAIR721_Master_Factory",
            "label": "members",
            "offset": 0,
            "slot": "0",
            "type": "t_mapping(t_address,t_bool)"
          },
          {
            "astId": 18838,
            "contract": "contracts/Factory/RAIR721_Master_Factory.sol:RAIR721_Master_Factory",
            "label": "adminRole",
            "offset": 0,
            "slot": "1",
            "type": "t_bytes32"
          }
        ],
        "numberOfBytes": "64"
      },
      "t_struct(Set)21229_storage": {
        "encoding": "inplace",
        "label": "struct EnumerableSet.Set",
        "members": [
          {
            "astId": 21224,
            "contract": "contracts/Factory/RAIR721_Master_Factory.sol:RAIR721_Master_Factory",
            "label": "_values",
            "offset": 0,
            "slot": "0",
            "type": "t_array(t_bytes32)dyn_storage"
          },
          {
            "astId": 21228,
            "contract": "contracts/Factory/RAIR721_Master_Factory.sol:RAIR721_Master_Factory",
            "label": "_indexes",
            "offset": 0,
            "slot": "1",
            "type": "t_mapping(t_bytes32,t_uint256)"
          }
        ],
        "numberOfBytes": "64"
      },
      "t_uint256": {
        "encoding": "inplace",
        "label": "uint256",
        "numberOfBytes": "32"
      }
    }
  }
}