{
  "_format": "hh-sol-artifact-1",
  "contractName": "Minter_Marketplace",
  "sourceName": "contracts/Marketplaces/MarketplaceMinter.sol",
  "abi": [
    {
      "anonymous": false,
      "inputs": [
        {
          "indexed": false,
          "internalType": "address",
          "name": "contractAddress",
          "type": "address"
        },
        {
          "indexed": false,
          "internalType": "uint256",
          "name": "productIndex",
          "type": "uint256"
        },
        {
          "indexed": false,
          "internalType": "uint256",
          "name": "rangesCreated",
          "type": "uint256"
        },
        {
          "indexed": false,
          "internalType": "uint256",
          "name": "catalogIndex",
          "type": "uint256"
        }
      ],
      "name": "AddedOffer",
      "type": "event"
    },
    {
      "anonymous": false,
      "inputs": [
        {
          "indexed": false,
          "internalType": "address",
          "name": "contractAddress",
          "type": "address"
        },
        {
          "indexed": false,
          "internalType": "uint256",
          "name": "productIndex",
          "type": "uint256"
        },
        {
          "indexed": false,
          "internalType": "uint256",
          "name": "offerIndex",
          "type": "uint256"
        },
        {
          "indexed": false,
          "internalType": "uint256",
          "name": "rangeIndex",
          "type": "uint256"
        },
        {
          "indexed": false,
          "internalType": "uint256",
          "name": "startToken",
          "type": "uint256"
        },
        {
          "indexed": false,
          "internalType": "uint256",
          "name": "endToken",
          "type": "uint256"
        },
        {
          "indexed": false,
          "internalType": "uint256",
          "name": "price",
          "type": "uint256"
        },
        {
          "indexed": false,
          "internalType": "string",
          "name": "name",
          "type": "string"
        }
      ],
      "name": "AppendedRange",
      "type": "event"
    },
    {
      "anonymous": false,
      "inputs": [
        {
          "indexed": false,
          "internalType": "uint16",
          "name": "newNodeFee",
          "type": "uint16"
        }
      ],
      "name": "ChangedNodeFee",
      "type": "event"
    },
    {
      "anonymous": false,
      "inputs": [
        {
          "indexed": false,
          "internalType": "address",
          "name": "newTreasury",
          "type": "address"
        }
      ],
      "name": "ChangedTreasury",
      "type": "event"
    },
    {
      "anonymous": false,
      "inputs": [
        {
          "indexed": false,
          "internalType": "address",
          "name": "treasury",
          "type": "address"
        },
        {
          "indexed": false,
          "internalType": "uint16",
          "name": "newTreasuryFee",
          "type": "uint16"
        }
      ],
      "name": "ChangedTreasuryFee",
      "type": "event"
    },
    {
      "anonymous": false,
      "inputs": [
        {
          "indexed": true,
          "internalType": "address",
          "name": "previousOwner",
          "type": "address"
        },
        {
          "indexed": true,
          "internalType": "address",
          "name": "newOwner",
          "type": "address"
        }
      ],
      "name": "OwnershipTransferred",
      "type": "event"
    },
    {
      "anonymous": false,
      "inputs": [
        {
          "indexed": false,
          "internalType": "address",
          "name": "contractAddress",
          "type": "address"
        },
        {
          "indexed": false,
          "internalType": "uint256",
          "name": "catalogIndex",
          "type": "uint256"
        },
        {
          "indexed": false,
          "internalType": "uint256",
          "name": "rangeIndex",
          "type": "uint256"
        }
      ],
      "name": "SoldOut",
      "type": "event"
    },
    {
      "anonymous": false,
      "inputs": [
        {
          "indexed": false,
          "internalType": "address",
          "name": "ownerAddress",
          "type": "address"
        },
        {
          "indexed": false,
          "internalType": "address",
          "name": "contractAddress",
          "type": "address"
        },
        {
          "indexed": false,
          "internalType": "uint256",
          "name": "catalogIndex",
          "type": "uint256"
        },
        {
          "indexed": false,
          "internalType": "uint256",
          "name": "rangeIndex",
          "type": "uint256"
        },
        {
          "indexed": false,
          "internalType": "uint256",
          "name": "tokenIndex",
          "type": "uint256"
        }
      ],
      "name": "TokenMinted",
      "type": "event"
    },
    {
      "anonymous": false,
      "inputs": [
        {
          "indexed": false,
          "internalType": "address",
          "name": "contractAddress",
          "type": "address"
        },
        {
          "indexed": false,
          "internalType": "uint256",
          "name": "offerIndex",
          "type": "uint256"
        },
        {
          "indexed": false,
          "internalType": "uint256",
          "name": "rangeIndex",
          "type": "uint256"
        },
        {
          "indexed": false,
          "internalType": "uint256",
          "name": "tokens",
          "type": "uint256"
        },
        {
          "indexed": false,
          "internalType": "uint256",
          "name": "price",
          "type": "uint256"
        },
        {
          "indexed": false,
          "internalType": "string",
          "name": "name",
          "type": "string"
        }
      ],
      "name": "UpdatedOffer",
      "type": "event"
    },
    {
      "inputs": [
        {
          "internalType": "address",
          "name": "_tokenAddress",
          "type": "address"
        },
        {
          "internalType": "uint256",
          "name": "_productIndex",
          "type": "uint256"
        },
        {
          "internalType": "uint256[]",
          "name": "_rangeStartToken",
          "type": "uint256[]"
        },
        {
          "internalType": "uint256[]",
          "name": "_rangeEndToken",
          "type": "uint256[]"
        },
        {
          "internalType": "uint256[]",
          "name": "_rangePrice",
          "type": "uint256[]"
        },
        {
          "internalType": "string[]",
          "name": "_rangeName",
          "type": "string[]"
        },
        {
          "internalType": "address",
          "name": "_nodeAddress",
          "type": "address"
        }
      ],
      "name": "addOffer",
      "outputs": [],
      "stateMutability": "nonpayable",
      "type": "function"
    },
    {
      "inputs": [
        {
          "internalType": "uint256",
          "name": "offerIndex",
          "type": "uint256"
        },
        {
          "internalType": "uint256",
          "name": "startToken",
          "type": "uint256"
        },
        {
          "internalType": "uint256",
          "name": "endToken",
          "type": "uint256"
        },
        {
          "internalType": "uint256",
          "name": "price",
          "type": "uint256"
        },
        {
          "internalType": "string",
          "name": "name",
          "type": "string"
        }
      ],
      "name": "appendOfferRange",
      "outputs": [],
      "stateMutability": "nonpayable",
      "type": "function"
    },
    {
      "inputs": [
        {
          "internalType": "uint256",
          "name": "offerIndex",
          "type": "uint256"
        },
        {
          "internalType": "uint256[]",
          "name": "startTokens",
          "type": "uint256[]"
        },
        {
          "internalType": "uint256[]",
          "name": "endTokens",
          "type": "uint256[]"
        },
        {
          "internalType": "uint256[]",
          "name": "prices",
          "type": "uint256[]"
        },
        {
          "internalType": "string[]",
          "name": "names",
          "type": "string[]"
        }
      ],
      "name": "appendOfferRangeBatch",
      "outputs": [],
      "stateMutability": "nonpayable",
      "type": "function"
    },
    {
      "inputs": [
        {
          "internalType": "uint256",
          "name": "catalogIndex",
          "type": "uint256"
        },
        {
          "internalType": "uint256",
          "name": "rangeIndex",
          "type": "uint256"
        },
        {
          "internalType": "uint256",
          "name": "internalTokenIndex",
          "type": "uint256"
        }
      ],
      "name": "buyToken",
      "outputs": [],
      "stateMutability": "payable",
      "type": "function"
    },
    {
      "inputs": [
        {
          "internalType": "uint256",
          "name": "catalogIndex",
          "type": "uint256"
        },
        {
          "internalType": "uint256",
          "name": "rangeIndex",
          "type": "uint256"
        },
        {
          "internalType": "uint256[]",
          "name": "tokenIndexes",
          "type": "uint256[]"
        },
        {
          "internalType": "address[]",
          "name": "recipients",
          "type": "address[]"
        }
      ],
      "name": "buyTokenBatch",
      "outputs": [],
      "stateMutability": "payable",
      "type": "function"
    },
    {
      "inputs": [
        {
          "internalType": "address",
          "name": "erc721Address",
          "type": "address"
        },
        {
          "internalType": "uint256",
          "name": "productIndex",
          "type": "uint256"
        }
      ],
      "name": "contractToOfferRange",
      "outputs": [
        {
          "internalType": "uint256",
          "name": "offerIndex",
          "type": "uint256"
        }
      ],
      "stateMutability": "view",
      "type": "function"
    },
    {
      "inputs": [],
      "name": "feeDecimals",
      "outputs": [
        {
          "internalType": "uint16",
          "name": "",
          "type": "uint16"
        }
      ],
      "stateMutability": "view",
      "type": "function"
    },
    {
      "inputs": [],
      "name": "getOfferCount",
      "outputs": [
        {
          "internalType": "uint256",
          "name": "",
          "type": "uint256"
        }
      ],
      "stateMutability": "view",
      "type": "function"
    },
    {
      "inputs": [
        {
          "internalType": "uint256",
          "name": "_index",
          "type": "uint256"
        }
      ],
      "name": "getOfferInfo",
      "outputs": [
        {
          "internalType": "address",
          "name": "contractAddress",
          "type": "address"
        },
        {
          "internalType": "uint256",
          "name": "productIndex",
          "type": "uint256"
        },
        {
          "internalType": "address",
          "name": "nodeAddress",
          "type": "address"
        },
        {
          "internalType": "uint256",
          "name": "availableRanges",
          "type": "uint256"
        }
      ],
      "stateMutability": "view",
      "type": "function"
    },
    {
      "inputs": [
        {
          "internalType": "uint256",
          "name": "offerIndex",
          "type": "uint256"
        },
        {
          "internalType": "uint256",
          "name": "rangeIndex",
          "type": "uint256"
        }
      ],
      "name": "getOfferRangeInfo",
      "outputs": [
        {
          "internalType": "address",
          "name": "contractAddress",
          "type": "address"
        },
        {
          "internalType": "uint256",
          "name": "collectionIndex",
          "type": "uint256"
        },
        {
          "internalType": "uint256",
          "name": "tokenStart",
          "type": "uint256"
        },
        {
          "internalType": "uint256",
          "name": "tokenEnd",
          "type": "uint256"
        },
        {
          "internalType": "uint256",
          "name": "tokensAllowed",
          "type": "uint256"
        },
        {
          "internalType": "uint256",
          "name": "price",
          "type": "uint256"
        },
        {
          "internalType": "string",
          "name": "name",
          "type": "string"
        }
      ],
      "stateMutability": "view",
      "type": "function"
    },
    {
      "inputs": [
        {
          "internalType": "address",
          "name": "_treasury",
          "type": "address"
        },
        {
          "internalType": "uint16",
          "name": "_treasuryFee",
          "type": "uint16"
        },
        {
          "internalType": "uint16",
          "name": "_nodeFee",
          "type": "uint16"
        }
      ],
      "name": "initialize",
      "outputs": [],
      "stateMutability": "nonpayable",
      "type": "function"
    },
    {
      "inputs": [],
      "name": "nodeFee",
      "outputs": [
        {
          "internalType": "uint16",
          "name": "",
          "type": "uint16"
        }
      ],
      "stateMutability": "view",
      "type": "function"
    },
    {
      "inputs": [],
      "name": "openSales",
      "outputs": [
        {
          "internalType": "uint256",
          "name": "",
          "type": "uint256"
        }
      ],
      "stateMutability": "view",
      "type": "function"
    },
    {
      "inputs": [],
      "name": "owner",
      "outputs": [
        {
          "internalType": "address",
          "name": "",
          "type": "address"
        }
      ],
      "stateMutability": "view",
      "type": "function"
    },
    {
      "inputs": [],
      "name": "renounceOwnership",
      "outputs": [],
      "stateMutability": "nonpayable",
      "type": "function"
    },
    {
      "inputs": [
        {
          "internalType": "uint16",
          "name": "_newFee",
          "type": "uint16"
        }
      ],
      "name": "setNodeFee",
      "outputs": [],
      "stateMutability": "nonpayable",
      "type": "function"
    },
    {
      "inputs": [
        {
          "internalType": "address",
          "name": "_newTreasury",
          "type": "address"
        }
      ],
      "name": "setTreasuryAddress",
      "outputs": [],
      "stateMutability": "nonpayable",
      "type": "function"
    },
    {
      "inputs": [
        {
          "internalType": "uint16",
          "name": "_newFee",
          "type": "uint16"
        }
      ],
      "name": "setTreasuryFee",
      "outputs": [],
      "stateMutability": "nonpayable",
      "type": "function"
    },
    {
      "inputs": [
        {
          "internalType": "address",
          "name": "newOwner",
          "type": "address"
        }
      ],
      "name": "transferOwnership",
      "outputs": [],
      "stateMutability": "nonpayable",
      "type": "function"
    },
    {
      "inputs": [],
      "name": "treasury",
      "outputs": [
        {
          "internalType": "address",
          "name": "",
          "type": "address"
        }
      ],
      "stateMutability": "view",
      "type": "function"
    },
    {
      "inputs": [],
      "name": "treasuryFee",
      "outputs": [
        {
          "internalType": "uint16",
          "name": "",
          "type": "uint16"
        }
      ],
      "stateMutability": "view",
      "type": "function"
    },
    {
      "inputs": [
        {
          "internalType": "uint256",
          "name": "offerIndex",
          "type": "uint256"
        },
        {
          "internalType": "uint256",
          "name": "rangeIndex",
          "type": "uint256"
        },
        {
          "internalType": "uint256",
          "name": "startToken",
          "type": "uint256"
        },
        {
          "internalType": "uint256",
          "name": "endToken",
          "type": "uint256"
        },
        {
          "internalType": "uint256",
          "name": "price",
          "type": "uint256"
        },
        {
          "internalType": "string",
          "name": "name",
          "type": "string"
        }
      ],
      "name": "updateOfferRange",
      "outputs": [],
      "stateMutability": "nonpayable",
      "type": "function"
    },
    {
      "inputs": [
        {
          "internalType": "address",
          "name": "tokenAddress",
          "type": "address"
        }
      ],
      "name": "validateRoles",
      "outputs": [
        {
          "internalType": "bool",
          "name": "canOffer",
          "type": "bool"
        }
      ],
      "stateMutability": "view",
      "type": "function"
    }
  ],
  "bytecode": "0x608060405234801561001057600080fd5b50613e5e806100206000396000f3fe6080604052600436106101405760003560e01c80638da5cb5b116100b6578063d048db371161006f578063d048db37146103d7578063de2d554b146103ec578063e4ccbe6c146103ff578063f2fde38b1461041f578063f41625301461043f578063f7ca892a1461046057600080fd5b80638da5cb5b146102f55780639c13108c14610313578063a652db4914610341578063ca3dba5d14610361578063cc0f178614610394578063cc32d176146103bc57600080fd5b8063607814b211610108578063607814b21461021857806361d027b3146102485780636605bfda14610280578063665b64dd146102a0578063715018a6146102c057806375cb00ea146102d557600080fd5b80631c4b995a1461014557806326502ed7146101675780632a1da9821461017a5780633539a52c146101d857806338b2c833146101f8575b600080fd5b34801561015157600080fd5b50610165610160366004613281565b610476565b005b610165610175366004613600565b610572565b34801561018657600080fd5b5061019a610195366004613450565b610da8565b6040516101cf94939291906001600160a01b039485168152602081019390935292166040820152606081019190915260800190565b60405180910390f35b3480156101e457600080fd5b506101656101f336600461376e565b61105d565b34801561020457600080fd5b50610165610213366004613469565b6111ed565b34801561022457600080fd5b5061023861023336600461325d565b611411565b60405190151581526020016101cf565b34801561025457600080fd5b50606754610268906001600160a01b031681565b6040516001600160a01b0390911681526020016101cf565b34801561028c57600080fd5b5061016561029b36600461325d565b611623565b3480156102ac57600080fd5b506101656102bb366004613320565b6116a2565b3480156102cc57600080fd5b50610165611b9d565b3480156102e157600080fd5b506101656102f03660046137c6565b611bd3565b34801561030157600080fd5b506033546001600160a01b0316610268565b34801561031f57600080fd5b5061033361032e3660046132c6565b611f4d565b6040519081526020016101cf565b34801561034d57600080fd5b5061016561035c366004613435565b612185565b34801561036d57600080fd5b5061038161037c3660046135de565b612207565b6040516101cf97969594939291906138e1565b3480156103a057600080fd5b506103a9600281565b60405161ffff90911681526020016101cf565b3480156103c857600080fd5b506069546103a99061ffff1681565b3480156103e357600080fd5b50606654610333565b6101656103fa366004613683565b61255c565b34801561040b57600080fd5b5061016561041a366004613435565b612bd7565b34801561042b57600080fd5b5061016561043a36600461325d565b612c4f565b34801561044b57600080fd5b506069546103a99062010000900461ffff1681565b34801561046c57600080fd5b5061033360685481565b600054610100900460ff168061048f575060005460ff16155b6104f75760405162461bcd60e51b815260206004820152602e60248201527f496e697469616c697a61626c653a20636f6e747261637420697320616c72656160448201526d191e481a5b9a5d1a585b1a5e995960921b60648201526084015b60405180910390fd5b600054610100900460ff16158015610519576000805461ffff19166101011790555b606780546001600160a01b0386166001600160a01b03199091161790556069805461ffff848116620100000263ffffffff19909216908616171790556000606855801561056c576000805461ff00191690555b50505050565b60006066878154811061058757610587613de7565b6000918252602090912060089091020180549091506001600160a01b03166105c15760405162461bcd60e51b81526004016104ee90613b6c565b600581015486106105e45760405162461bcd60e51b81526004016104ee90613a97565b848490508160050187815481106105fd576105fd613de7565b906000526020600020015410156106865760405162461bcd60e51b815260206004820152604160248201527f4d696e74696e67204d61726b6574706c6163653a2043616e6e6f74206d696e7460448201527f2074686174206d616e7920746f6b656e7320666f7220746869732072616e67656064820152602160f81b608482015260a4016104ee565b8484905081600601878154811061069f5761069f613de7565b90600052602060002001546106b49190613cde565b3410156106d35760405162461bcd60e51b81526004016104ee90613982565b83821461075e5760405162461bcd60e51b815260206004820152604d60248201527f4d696e74696e67204d61726b6574706c6163653a20546f6b656e20496e64657860448201527f657320616e6420526563697069656e74732073686f756c64206861766520746860648201526c0ca40e6c2daca40d8cadccee8d609b1b608482015260a4016104ee565b80546040516301ffc9a760e01b8152632baae9fd60e01b6004820152600091829182916001600160a01b0316906301ffc9a79060240160206040518083038186803b1580156107ac57600080fd5b505afa1580156107c0573d6000803e3d6000fd5b505050506040513d601f19601f820116820180604052508101906107e49190613413565b9050336001600160a01b03166108fc89899050866006018c8154811061080c5761080c613de7565b90600052602060002001546108219190613cde565b61082b9034613d21565b6040518115909202916000818181858888f19350505050158015610853573d6000803e3d6000fd5b5080156109b95783546006850180546001600160a01b0390921691632a55205a916000918d90811061088757610887613de7565b90600052602060002001546040518363ffffffff1660e01b81526004016108b8929190918252602082015260400190565b604080518083038186803b1580156108cf57600080fd5b505afa1580156108e3573d6000803e3d6000fd5b505050506040513d601f19601f8201168201806040525081019061090791906132f2565b60695491945092506001600160a01b038416906108fc908990620186a09061093b9061ffff62010000820481169116613c7e565b61094c9061ffff16620186a0613cfd565b62ffffff16886006018e8154811061096657610966613de7565b906000526020600020015461097b9190613cde565b6109859190613cbc565b61098f9190613cde565b6040518115909202916000818181858888f193505050501580156109b7573d6000803e3d6000fd5b505b6067546069546006860180546001600160a01b03909316926108fc928b92620186a09261ffff909216918f9081106109f3576109f3613de7565b9060005260206000200154610a089190613cde565b610a129190613cbc565b610a1c9190613cde565b6040518115909202916000818181858888f19350505050158015610a44573d6000803e3d6000fd5b5060018401546069546006860180546001600160a01b03909316926108fc928b92620186a0926201000090920461ffff16918f908110610a8657610a86613de7565b9060005260206000200154610a9b9190613cde565b610aa59190613cbc565b610aaf9190613cde565b6040518115909202916000818181858888f19350505050158015610ad7573d6000803e3d6000fd5b5087879050846005018a81548110610af157610af1613de7565b906000526020600020016000828254610b0a9190613d21565b90915550506005840180548a908110610b2557610b25613de7565b906000526020600020015460001415610b965760688054906000610b4883613d64565b909155505083546040517fd7597aa2d6438f91b7d71e7d13764734af94bc7db28326e194bfab67236e58c191610b8d916001600160a01b03909116908d908d90613866565b60405180910390a15b60005b87811015610d9b57888882818110610bb357610bb3613de7565b90506020020135856003018b81548110610bcf57610bcf613de7565b906000526020600020015411158015610c1f5750846004018a81548110610bf857610bf8613de7565b9060005260206000200154898983818110610c1557610c15613de7565b9050602002013511155b610c3b5760405162461bcd60e51b81526004016104ee90613ada565b84546001600160a01b031663156e29f6888884818110610c5d57610c5d613de7565b9050602002016020810190610c72919061325d565b87600201548c8c86818110610c8957610c89613de7565b905060200201356040518463ffffffff1660e01b8152600401610cae93929190613866565b600060405180830381600087803b158015610cc857600080fd5b505af1158015610cdc573d6000803e3d6000fd5b505050507f188c6e7ce5cf6a45f5d4441da49a243005c388c7f4f00137378ba3d058baf01d878783818110610d1357610d13613de7565b9050602002016020810190610d28919061325d565b86546001600160a01b03168d8d8d8d87818110610d4757610d47613de7565b604080516001600160a01b039889168152979096166020888101919091529587019490945250606085019190915291020135608082015260a00160405180910390a180610d9381613db6565b915050610b99565b5050505050505050505050565b600080600080600060668681548110610dc357610dc3613de7565b60009182526020918290206040805161010081018252600890930290910180546001600160a01b0390811684526001820154168385015260028101548383015260038101805483518187028101870190945280845293949193606086019392830182828015610e5157602002820191906000526020600020905b815481526020019060010190808311610e3d575b5050505050815260200160048201805480602002602001604051908101604052809291908181526020018280548015610ea957602002820191906000526020600020905b815481526020019060010190808311610e95575b5050505050815260200160058201805480602002602001604051908101604052809291908181526020018280548015610f0157602002820191906000526020600020905b815481526020019060010190808311610eed575b5050505050815260200160068201805480602002602001604051908101604052809291908181526020018280548015610f5957602002820191906000526020600020905b815481526020019060010190808311610f45575b5050505050815260200160078201805480602002602001604051908101604052809291908181526020016000905b82821015611033578382906000526020600020018054610fa690613d7b565b80601f0160208091040260200160405190810160405280929190818152602001828054610fd290613d7b565b801561101f5780601f10610ff45761010080835404028352916020019161101f565b820191906000526020600020905b81548152906001019060200180831161100257829003601f168201915b505050505081526020019060010190610f87565b5050509152505080516040820151602083015160e090930151519199909850919650945092505050565b6110926066878154811061107357611073613de7565b60009182526020909120600890910201546001600160a01b0316611411565b506110b760405180606001604052806000815260200160008152602001600081525090565b606687815481106110ca576110ca613de7565b6000918252602090912060089091020154606680546001600160a01b039092169163b9db15b491908a90811061110257611102613de7565b9060005260206000209060080201600201546040518263ffffffff1660e01b815260040161113291815260200190565b60006040518083038186803b15801561114a57600080fd5b505afa15801561115e573d6000803e3d6000fd5b505050506040513d6000823e601f3d908101601f1916820160405261118691908101906136af565b505050602083018190528183526111a1918891889190612cea565b6111e48787878787878080601f016020809104026020016040519081016040528093929190818152602001838380828437600092019190915250612e3692505050565b50505050505050565b825184511480156111ff575083518251145b801561120c575081518151145b6112285760405162461bcd60e51b81526004016104ee90613a39565b61123e6066868154811061107357611073613de7565b5061126360405180606001604052806000815260200160008152602001600081525090565b6066868154811061127657611276613de7565b6000918252602090912060089091020154606680546001600160a01b039092169163b9db15b49190899081106112ae576112ae613de7565b9060005260206000209060080201600201546040518263ffffffff1660e01b81526004016112de91815260200190565b60006040518083038186803b1580156112f657600080fd5b505afa15801561130a573d6000803e3d6000fd5b505050506040513d6000823e601f3d908101601f1916820160405261133291908101906136af565b5050506020830152815260005b82518110156111e45761138e86828151811061135d5761135d613de7565b602002602001015186838151811061137757611377613de7565b602002602001015184600001518560200151612cea565b6113ff878783815181106113a4576113a4613de7565b60200260200101518784815181106113be576113be613de7565b60200260200101518785815181106113d8576113d8613de7565b60200260200101518786815181106113f2576113f2613de7565b6020026020010151612e36565b8061140981613db6565b91505061133f565b604051632474521560e21b81527ff0887ba65ee2024ea881d91b74c2450ef19e1557f03bed3ea9f16b037cbe2dc960048201523060248201526000906001600160a01b038316906391d148549060440160206040518083038186803b15801561147957600080fd5b505afa15801561148d573d6000803e3d6000fd5b505050506040513d601f19601f820116820180604052508101906114b19190613413565b61151b5760405162461bcd60e51b815260206004820152603560248201527f4d696e74696e67204d61726b6574706c6163653a2054686973204d61726b6574604482015274706c6163652069736e27742061204d696e7465722160581b60648201526084016104ee565b604051632474521560e21b81527f3c2519c4487d47714872f92cf90a50c25f5deaec2789dc2a497b1272df611db660048201523360248201526001600160a01b038316906391d148549060440160206040518083038186803b15801561158057600080fd5b505afa158015611594573d6000803e3d6000fd5b505050506040513d601f19601f820116820180604052508101906115b89190613413565b61161b5760405162461bcd60e51b815260206004820152602e60248201527f4d696e74696e67204d61726b6574706c6163653a2053656e6465722069736e2760448201526d74207468652063726561746f722160901b60648201526084016104ee565b506001919050565b6033546001600160a01b0316331461164d5760405162461bcd60e51b81526004016104ee90613b37565b606780546001600160a01b0319166001600160a01b0383169081179091556040519081527f63cc689e9d3377465b51fb094ea4ca5e0a1436b21f1ad30d707c696111c66500906020015b60405180910390a150565b6116ab8b611411565b5087861480156116ba57508388145b80156116c557508184145b6116e15760405162461bcd60e51b81526004016104ee90613a39565b6066541561181c576001600160a01b038b1660009081526065602090815260408083208d84529091529020546117db576001600160a01b038b1660008181526065602090815260408083208e845290915290205460668054909190811061174a5761174a613de7565b60009182526020909120600890910201546001600160a01b03161415806117ba57506001600160a01b038b1660009081526065602090815260408083208d8452909152902054606680548c929081106117a5576117a5613de7565b90600052602060002090600802016002015414155b6117d65760405162461bcd60e51b81526004016104ee906139c9565b61181c565b6001600160a01b038b1660009081526065602090815260408083208d84529091529020541561181c5760405162461bcd60e51b81526004016104ee906139c9565b61184060405180606001604052806000815260200160008152602001600081525090565b604051632e76c56d60e21b8152600481018c90526001600160a01b038d169063b9db15b49060240160006040518083038186803b15801561188057600080fd5b505afa158015611894573d6000803e3d6000fd5b505050506040513d6000823e601f3d908101601f191682016040526118bc91908101906136af565b50506040840181905260208401919091529082526119425760405162461bcd60e51b815260206004820152603f60248201527f4d696e74696e67204d61726b6574706c6163653a2043616e6e6f74206d696e7460448201527f206d6f726520746f6b656e732066726f6d20746869732050726f64756374210060648201526084016104ee565b6000606660018160018154018082558091505003906000526020600020906008020190508c8160000160006101000a8154816001600160a01b0302191690836001600160a01b03160217905550828160010160006101000a8154816001600160a01b0302191690836001600160a01b031602179055508b816002018190555060005b84811015611ade57611a108c8c838181106119e1576119e1613de7565b905060200201358b8b848181106119fa576119fa613de7565b9050602002013585600001518660200151612cea565b606654611acc90611a2390600190613d21565b8d8d84818110611a3557611a35613de7565b905060200201358c8c85818110611a4e57611a4e613de7565b905060200201358b8b86818110611a6757611a67613de7565b905060200201358a8a87818110611a8057611a80613de7565b9050602002810190611a929190613bba565b8080601f016020809104026020016040519081016040528093929190818152602001838380828437600092019190915250612e3692505050565b80611ad681613db6565b9150506119c4565b50606654611aee90600190613d21565b606560008f6001600160a01b03166001600160a01b0316815260200190815260200160002060008e8152602001908152602001600020819055507f9c82f4230a033475cfb564c6eb24f4ad45139901a657e8edd9a6cd234e3549498d8d878790506001606680549050611b619190613d21565b604080516001600160a01b039095168552602085019390935291830152606082015260800160405180910390a150505050505050505050505050565b6033546001600160a01b03163314611bc75760405162461bcd60e51b81526004016104ee90613b37565b611bd16000612f7c565b565b600060668881548110611be857611be8613de7565b90600052602060002090600802019050806004018781548110611c0d57611c0d613de7565b90600052602060002001548511158015611c465750806003018781548110611c3757611c37613de7565b90600052602060002001548610155b611cc45760405162461bcd60e51b815260206004820152604360248201527f4d696e74696e67204d61726b6574706c6163653a204e6577206c696d6974732060448201527f6d7573742062652077697468696e207468652070726576696f7573206c696d6960648201526274732160e81b608482015260a4016104ee565b8054611cd8906001600160a01b0316611411565b50611cfd60405180606001604052806000815260200160008152602001600081525090565b81546002830154604051632e76c56d60e21b81526001600160a01b039092169163b9db15b491611d339160040190815260200190565b60006040518083038186803b158015611d4b57600080fd5b505afa158015611d5f573d6000803e3d6000fd5b505050506040513d6000823e601f3d908101601f19168201604052611d8791908101906136af565b50505060208301819052818352611da2918991899190612cea565b611dac8787613d21565b826003018981548110611dc157611dc1613de7565b9060005260206000200154836004018a81548110611de157611de1613de7565b9060005260206000200154611df69190613d21565b611e009190613d21565b826005018981548110611e1557611e15613de7565b906000526020600020016000828254611e2e9190613d21565b9250508190555086826003018981548110611e4b57611e4b613de7565b906000526020600020018190555085826004018981548110611e6f57611e6f613de7565b906000526020600020018190555084826006018981548110611e9357611e93613de7565b90600052602060002001819055508383836007018a81548110611eb857611eb8613de7565b906000526020600020019190611ecf929190612fce565b5081546005830180547fd99934f5b053ba28c54ae74875195b688f9367ba5b0c50f5233e692eb91549c8926001600160a01b0316918c918c919082908110611f1957611f19613de7565b9060005260206000200154898989604051611f3a9796959493929190613887565b60405180910390a1505050505050505050565b606654600090611fbb5760405162461bcd60e51b815260206004820152603360248201527f4d696e74696e67204d61726b6574706c6163653a20546865726520617265206e6044820152721bc81bd999995c9cc81c9959da5cdd195c9959606a1b60648201526084016104ee565b6001600160a01b0383166000818152606560209081526040808320868452909152902054606680549091908110611ff457611ff4613de7565b60009182526020909120600890910201546001600160a01b03161461208f5760405162461bcd60e51b8152602060048201526044602482018190527f4d696e74696e67204d61726b6574706c6163653a20546865726520617265206e908201527f6f206f6666657273207265676973746572656420666f722074686174206164646064820152637265737360e01b608482015260a4016104ee565b6001600160a01b03831660009081526065602090815260408083208584529091529020546066805484929081106120c8576120c8613de7565b9060005260206000209060080201600201541461215c5760405162461bcd60e51b815260206004820152604660248201527f4d696e74696e67204d61726b6574706c6163653a20546865726520617265206960448201527f73206e6f206f66666572207265676973746572656420666f72207468617420706064820152651c9bd91d58dd60d21b608482015260a4016104ee565b506001600160a01b03919091166000908152606560209081526040808320938352929052205490565b6033546001600160a01b031633146121af5760405162461bcd60e51b81526004016104ee90613b37565b6069805461ffff191661ffff8316908117909155606754604080516001600160a01b03909216825260208201929092527f2adb51c26afe364a53c16cd44e82bdf5a52680ad11c64f2dbeb5bdb3764f731d9101611697565b6000806000806000806060600060668a8154811061222757612227613de7565b60009182526020918290206040805161010081018252600890930290910180546001600160a01b03908116845260018201541683850152600281015483830152600381018054835181870281018701909452808452939491936060860193928301828280156122b557602002820191906000526020600020905b8154815260200190600101908083116122a1575b505050505081526020016004820180548060200260200160405190810160405280929190818152602001828054801561230d57602002820191906000526020600020905b8154815260200190600101908083116122f9575b505050505081526020016005820180548060200260200160405190810160405280929190818152602001828054801561236557602002820191906000526020600020905b815481526020019060010190808311612351575b50505050508152602001600682018054806020026020016040519081016040528092919081815260200182805480156123bd57602002820191906000526020600020905b8154815260200190600101908083116123a9575b5050505050815260200160078201805480602002602001604051908101604052809291908181526020016000905b8282101561249757838290600052602060002001805461240a90613d7b565b80601f016020809104026020016040519081016040528092919081815260200182805461243690613d7b565b80156124835780601f1061245857610100808354040283529160200191612483565b820191906000526020600020905b81548152906001019060200180831161246657829003601f168201915b5050505050815260200190600101906123eb565b505050508152505090508060000151816040015182606001518b815181106124c1576124c1613de7565b602002602001015183608001518c815181106124df576124df613de7565b60200260200101518460a001518d815181106124fd576124fd613de7565b60200260200101518560c001518e8151811061251b5761251b613de7565b60200260200101518660e001518f8151811061253957612539613de7565b602002602001015197509750975097509750975097505092959891949750929550565b60006066848154811061257157612571613de7565b6000918252602090912060089091020180549091506001600160a01b03166125ab5760405162461bcd60e51b81526004016104ee90613b6c565b600581015483106125ce5760405162461bcd60e51b81526004016104ee90613a97565b60008160050184815481106125e5576125e5613de7565b9060005260206000200154116126635760405162461bcd60e51b815260206004820152603c60248201527f4d696e74696e67204d61726b6574706c6163653a2043616e6e6f74206d696e7460448201527f206d6f726520746f6b656e7320666f7220746869732072616e6765210000000060648201526084016104ee565b8181600301848154811061267957612679613de7565b9060005260206000200154111580156126b157508060040183815481106126a2576126a2613de7565b90600052602060002001548211155b6126cd5760405162461bcd60e51b81526004016104ee90613ada565b8060060183815481106126e2576126e2613de7565b906000526020600020015434101561270c5760405162461bcd60e51b81526004016104ee90613982565b80546040516301ffc9a760e01b8152632baae9fd60e01b6004820152600091829182916001600160a01b0316906301ffc9a79060240160206040518083038186803b15801561275a57600080fd5b505afa15801561276e573d6000803e3d6000fd5b505050506040513d601f19601f820116820180604052508101906127929190613413565b905080156128ed5783546006850180546001600160a01b0390921691632a55205a916000918a9081106127c7576127c7613de7565b90600052602060002001546040518363ffffffff1660e01b81526004016127f8929190918252602082015260400190565b604080518083038186803b15801561280f57600080fd5b505afa158015612823573d6000803e3d6000fd5b505050506040513d601f19601f8201168201806040525081019061284791906132f2565b60695491945092506001600160a01b038416906108fc90620186a0906128799061ffff62010000820481169116613c7e565b61288a9061ffff16620186a0613cfd565b62ffffff16876006018a815481106128a4576128a4613de7565b90600052602060002001546128b99190613cde565b6128c39190613cbc565b6040518115909202916000818181858888f193505050501580156128eb573d6000803e3d6000fd5b505b336001600160a01b03166108fc85600601888154811061290f5761290f613de7565b9060005260206000200154346129259190613d21565b6040518115909202916000818181858888f1935050505015801561294d573d6000803e3d6000fd5b506067546069546006860180546001600160a01b03909316926108fc92620186a09261ffff909116918b90811061298657612986613de7565b906000526020600020015461299b9190613cde565b6129a59190613cbc565b6040518115909202916000818181858888f193505050501580156129cd573d6000803e3d6000fd5b5060018401546069546006860180546001600160a01b03909316926108fc92620186a0926201000090910461ffff16918b908110612a0d57612a0d613de7565b9060005260206000200154612a229190613cde565b612a2c9190613cbc565b6040518115909202916000818181858888f19350505050158015612a54573d6000803e3d6000fd5b50836005018681548110612a6a57612a6a613de7565b60009182526020822001805491612a8083613d64565b9190505550836005018681548110612a9a57612a9a613de7565b906000526020600020015460001415612b0b5760688054906000612abd83613d64565b909155505083546040517fd7597aa2d6438f91b7d71e7d13764734af94bc7db28326e194bfab67236e58c191612b02916001600160a01b03909116908a908a90613866565b60405180910390a15b83546002850154604051630ab714fb60e11b81526001600160a01b039092169163156e29f691612b42913391908a90600401613866565b600060405180830381600087803b158015612b5c57600080fd5b505af1158015612b70573d6000803e3d6000fd5b50508554604080513381526001600160a01b03909216602083015281018a905260608101899052608081018890527f188c6e7ce5cf6a45f5d4441da49a243005c388c7f4f00137378ba3d058baf01d925060a001905060405180910390a150505050505050565b6033546001600160a01b03163314612c015760405162461bcd60e51b81526004016104ee90613b37565b6069805463ffff000019166201000061ffff8416908102919091179091556040519081527f6a6cc0807c3fb0910ab842e5fd4c193307b3cff967f1a7d096538e4961884b7090602001611697565b6033546001600160a01b03163314612c795760405162461bcd60e51b81526004016104ee90613b37565b6001600160a01b038116612cde5760405162461bcd60e51b815260206004820152602660248201527f4f776e61626c653a206e6577206f776e657220697320746865207a65726f206160448201526564647265737360d01b60648201526084016104ee565b612ce781612f7c565b50565b82841115612d865760405162461bcd60e51b815260206004820152605960248201527f4d696e74696e67204d61726b6574706c6163653a2052616e676527732073746160448201527f7274696e6720746f6b656e2068617320746f206265206c657373207468616e2060648201527f7468652072616e6765277320656e64696e6720746f6b656e2100000000000000608482015260a4016104ee565b80612d918484613ca4565b111561056c5760405162461bcd60e51b815260206004820152606260248201527f4d696e74696e67204d61726b6574706c6163653a2052616e6765277320656e6460448201527f696e6720746f6b656e2068617320746f206265206c657373206f72206571756160648201527f6c207468616e207468652070726f64756374277320656e64696e6720746f6b656084820152616e2160f01b60a482015260c4016104ee565b600060668681548110612e4b57612e4b613de7565b60009182526020808320600360089093020191820180546001818101835591855282852001899055600483018054808301825590855282852001889055600683018054918201815584529220909101849055905060058101612ead8686613d21565b612eb8906001613ca4565b815460018181018455600093845260208085209092019290925560078401805492830181558352918290208451612ef793919092019190850190613052565b508054600282015460078301547f5fb7e8962f72a7aa133e869363451a963b669f4833ca29bc394ebd53f121b98f926001600160a01b031691908990612f3f90600190613d21565b89898989604051612f5798979695949392919061392d565b60405180910390a160688054906000612f6f83613db6565b9190505550505050505050565b603380546001600160a01b038381166001600160a01b0319831681179093556040519116919082907f8be0079c531659141344cd1fd0a4f28419497f9722a3daafe3b4186f6b6457e090600090a35050565b828054612fda90613d7b565b90600052602060002090601f016020900481019282612ffc5760008555613042565b82601f106130155782800160ff19823516178555613042565b82800160010185558215613042579182015b82811115613042578235825591602001919060010190613027565b5061304e9291506130c6565b5090565b82805461305e90613d7b565b90600052602060002090601f0160209004810192826130805760008555613042565b82601f1061309957805160ff1916838001178555613042565b82800160010185558215613042579182015b828111156130425782518255916020019190600101906130ab565b5b8082111561304e57600081556001016130c7565b80356130e681613e13565b919050565b60008083601f8401126130fd57600080fd5b50813567ffffffffffffffff81111561311557600080fd5b6020830191508360208260051b850101111561313057600080fd5b9250929050565b600082601f83011261314857600080fd5b8135602061315d61315883613c32565b613c01565b80838252828201915082860187848660051b890101111561317d57600080fd5b60005b8581101561319c57813584529284019290840190600101613180565b5090979650505050505050565b600082601f8301126131ba57600080fd5b815160206131ca61315883613c32565b80838252828201915082860187848660051b89010111156131ea57600080fd5b60005b8581101561319c578151845292840192908401906001016131ed565b60008083601f84011261321b57600080fd5b50813567ffffffffffffffff81111561323357600080fd5b60208301915083602082850101111561313057600080fd5b803561ffff811681146130e657600080fd5b60006020828403121561326f57600080fd5b813561327a81613e13565b9392505050565b60008060006060848603121561329657600080fd5b83356132a181613e13565b92506132af6020850161324b565b91506132bd6040850161324b565b90509250925092565b600080604083850312156132d957600080fd5b82356132e481613e13565b946020939093013593505050565b6000806040838503121561330557600080fd5b825161331081613e13565b6020939093015192949293505050565b600080600080600080600080600080600060e08c8e03121561334157600080fd5b61334a8c6130db565b9a5060208c0135995067ffffffffffffffff8060408e0135111561336d57600080fd5b61337d8e60408f01358f016130eb565b909a50985060608d013581101561339357600080fd5b6133a38e60608f01358f016130eb565b909850965060808d01358110156133b957600080fd5b6133c98e60808f01358f016130eb565b909650945060a08d01358110156133df57600080fd5b506133f08d60a08e01358e016130eb565b909350915061340160c08d016130db565b90509295989b509295989b9093969950565b60006020828403121561342557600080fd5b8151801515811461327a57600080fd5b60006020828403121561344757600080fd5b61327a8261324b565b60006020828403121561346257600080fd5b5035919050565b600080600080600060a0868803121561348157600080fd5b8535945067ffffffffffffffff806020880135111561349f57600080fd5b6134af8860208901358901613137565b945080604088013511156134c257600080fd5b6134d28860408901358901613137565b935080606088013511156134e557600080fd5b6134f58860608901358901613137565b9250806080880135111561350857600080fd5b6080870135870188601f82011261351e57600080fd5b61352b6131588235613c32565b8082358252602082019150602083018b6020853560051b860101111561355057600080fd5b60005b84358110156135cb57858235111561356a57600080fd5b813585018d603f82011261357d57600080fd5b602081013561358e61315882613c56565b8181528f60408385010111156135a357600080fd5b8160408401602083013760006020928201830152865294850194929092019150600101613553565b5050809450505050509295509295909350565b600080604083850312156135f157600080fd5b50508035926020909101359150565b6000806000806000806080878903121561361957600080fd5b8635955060208701359450604087013567ffffffffffffffff8082111561363f57600080fd5b61364b8a838b016130eb565b9096509450606089013591508082111561366457600080fd5b5061367189828a016130eb565b979a9699509497509295939492505050565b60008060006060848603121561369857600080fd5b505081359360208301359350604090920135919050565b600080600080600060a086880312156136c757600080fd5b855194506020860151935060408601519250606086015167ffffffffffffffff808211156136f457600080fd5b818801915088601f83011261370857600080fd5b815161371661315882613c56565b8181528a602083860101111561372b57600080fd5b61373c826020830160208701613d38565b60808a01519095509250508082111561375457600080fd5b50613761888289016131a9565b9150509295509295909350565b60008060008060008060a0878903121561378757600080fd5b86359550602087013594506040870135935060608701359250608087013567ffffffffffffffff8111156137ba57600080fd5b61367189828a01613209565b600080600080600080600060c0888a0312156137e157600080fd5b873596506020880135955060408801359450606088013593506080880135925060a088013567ffffffffffffffff81111561381b57600080fd5b6138278a828b01613209565b989b979a50959850939692959293505050565b60008151808452613852816020860160208601613d38565b601f01601f19169290920160200192915050565b6001600160a01b039390931683526020830191909152604082015260600190565b60018060a01b038816815286602082015285604082015284606082015283608082015260c060a08201528160c0820152818360e0830137600081830160e090810191909152601f909201601f191601019695505050505050565b60018060a01b03881681528660208201528560408201528460608201528360808201528260a082015260e060c0820152600061392060e083018461383a565b9998505050505050505050565b600061010060018060a01b038b1683528960208401528860408401528760608401528660808401528560a08401528460c08401528060e08401526139738184018561383a565b9b9a5050505050505050505050565b60208082526027908201527f4d696e74696e67204d61726b6574706c6163653a20496e737566696369656e746040820152662046756e64732160c81b606082015260800190565b6020808252604a908201527f4d696e74696e67204d61726b6574706c6163653a20416e206f6666657220616c60408201527f72656164792065786973747320666f72207468697320636f6e747261637420616060820152691b99081c1c9bd91d58dd60b21b608082015260a00190565b602080825260409082018190527f4d696e74696e67204d61726b6574706c6163653a204f6666657227732072616e908201527f6765732073686f756c642068617665207468652073616d65206c656e67746821606082015260800190565b60208082526023908201527f4d696e74696e67204d61726b6574706c6163653a20496e76616c69642072616e60408201526267652160e81b606082015260800190565b6020808252603e908201527f4d696e74696e67204d61726b6574706c6163653a20546f6b656e20646f65736e60408201527f27742062656c6f6e6720696e2074686174206f666665722072616e6765210000606082015260800190565b6020808252818101527f4f776e61626c653a2063616c6c6572206973206e6f7420746865206f776e6572604082015260600190565b6020808252602e908201527f4d696e74696e67204d61726b6574706c6163653a20496e76616c69642050726f60408201526d647563742053656c65637465642160901b606082015260800190565b6000808335601e19843603018112613bd157600080fd5b83018035915067ffffffffffffffff821115613bec57600080fd5b60200191503681900382131561313057600080fd5b604051601f8201601f1916810167ffffffffffffffff81118282101715613c2a57613c2a613dfd565b604052919050565b600067ffffffffffffffff821115613c4c57613c4c613dfd565b5060051b60200190565b600067ffffffffffffffff821115613c7057613c70613dfd565b50601f01601f191660200190565b600061ffff808316818516808303821115613c9b57613c9b613dd1565b01949350505050565b60008219821115613cb757613cb7613dd1565b500190565b600082613cd957634e487b7160e01b600052601260045260246000fd5b500490565b6000816000190483118215151615613cf857613cf8613dd1565b500290565b600062ffffff83811690831681811015613d1957613d19613dd1565b039392505050565b600082821015613d3357613d33613dd1565b500390565b60005b83811015613d53578181015183820152602001613d3b565b8381111561056c5750506000910152565b600081613d7357613d73613dd1565b506000190190565b600181811c90821680613d8f57607f821691505b60208210811415613db057634e487b7160e01b600052602260045260246000fd5b50919050565b6000600019821415613dca57613dca613dd1565b5060010190565b634e487b7160e01b600052601160045260246000fd5b634e487b7160e01b600052603260045260246000fd5b634e487b7160e01b600052604160045260246000fd5b6001600160a01b0381168114612ce757600080fdfea2646970667358221220aeb2899edad2a119f36df2399e060004a7dfa680e4ac48bc1e67270a30a2fab064736f6c63430008070033",
  "linkReferences": {},
  "deployedLinkReferences": {}
}