{
  "_format": "hh-sol-artifact-1",
  "contractName": "Minter_Marketplace",
  "sourceName": "contracts/Marketplaces/MarketplaceMinter.sol",
  "abi": [
    {
      "inputs": [
        {
          "internalType": "address",
          "name": "_treasury",
          "type": "address"
        },
        {
          "internalType": "uint16",
          "name": "_treasuryFee",
          "type": "uint16"
        },
        {
          "internalType": "uint16",
          "name": "_nodeFee",
          "type": "uint16"
        }
      ],
      "stateMutability": "nonpayable",
      "type": "constructor"
    },
    {
      "anonymous": false,
      "inputs": [
        {
          "indexed": false,
          "internalType": "address",
          "name": "contractAddress",
          "type": "address"
        },
        {
          "indexed": false,
          "internalType": "uint256",
          "name": "productIndex",
          "type": "uint256"
        },
        {
          "indexed": false,
          "internalType": "uint256",
          "name": "rangesCreated",
          "type": "uint256"
        },
        {
          "indexed": false,
          "internalType": "uint256",
          "name": "catalogIndex",
          "type": "uint256"
        }
      ],
      "name": "AddedOffer",
      "type": "event"
    },
    {
      "anonymous": false,
      "inputs": [
        {
          "indexed": false,
          "internalType": "address",
          "name": "contractAddress",
          "type": "address"
        },
        {
          "indexed": false,
          "internalType": "uint256",
          "name": "productIndex",
          "type": "uint256"
        },
        {
          "indexed": false,
          "internalType": "uint256",
          "name": "offerIndex",
          "type": "uint256"
        },
        {
          "indexed": false,
          "internalType": "uint256",
          "name": "rangeIndex",
          "type": "uint256"
        },
        {
          "indexed": false,
          "internalType": "uint256",
          "name": "startToken",
          "type": "uint256"
        },
        {
          "indexed": false,
          "internalType": "uint256",
          "name": "endToken",
          "type": "uint256"
        },
        {
          "indexed": false,
          "internalType": "uint256",
          "name": "price",
          "type": "uint256"
        },
        {
          "indexed": false,
          "internalType": "string",
          "name": "name",
          "type": "string"
        }
      ],
      "name": "AppendedRange",
      "type": "event"
    },
    {
      "anonymous": false,
      "inputs": [
        {
          "indexed": false,
          "internalType": "uint16",
          "name": "newNodeFee",
          "type": "uint16"
        }
      ],
      "name": "ChangedNodeFee",
      "type": "event"
    },
    {
      "anonymous": false,
      "inputs": [
        {
          "indexed": false,
          "internalType": "address",
          "name": "newTreasury",
          "type": "address"
        }
      ],
      "name": "ChangedTreasury",
      "type": "event"
    },
    {
      "anonymous": false,
      "inputs": [
        {
          "indexed": false,
          "internalType": "address",
          "name": "treasury",
          "type": "address"
        },
        {
          "indexed": false,
          "internalType": "uint16",
          "name": "newTreasuryFee",
          "type": "uint16"
        }
      ],
      "name": "ChangedTreasuryFee",
      "type": "event"
    },
    {
      "anonymous": false,
      "inputs": [
        {
          "indexed": true,
          "internalType": "address",
          "name": "previousOwner",
          "type": "address"
        },
        {
          "indexed": true,
          "internalType": "address",
          "name": "newOwner",
          "type": "address"
        }
      ],
      "name": "OwnershipTransferred",
      "type": "event"
    },
    {
      "anonymous": false,
      "inputs": [
        {
          "indexed": false,
          "internalType": "address",
          "name": "contractAddress",
          "type": "address"
        },
        {
          "indexed": false,
          "internalType": "uint256",
          "name": "catalogIndex",
          "type": "uint256"
        },
        {
          "indexed": false,
          "internalType": "uint256",
          "name": "rangeIndex",
          "type": "uint256"
        }
      ],
      "name": "SoldOut",
      "type": "event"
    },
    {
      "anonymous": false,
      "inputs": [
        {
          "indexed": false,
          "internalType": "address",
          "name": "ownerAddress",
          "type": "address"
        },
        {
          "indexed": false,
          "internalType": "address",
          "name": "contractAddress",
          "type": "address"
        },
        {
          "indexed": false,
          "internalType": "uint256",
          "name": "catalogIndex",
          "type": "uint256"
        },
        {
          "indexed": false,
          "internalType": "uint256",
          "name": "rangeIndex",
          "type": "uint256"
        },
        {
          "indexed": false,
          "internalType": "uint256",
          "name": "tokenIndex",
          "type": "uint256"
        }
      ],
      "name": "TokenMinted",
      "type": "event"
    },
    {
      "anonymous": false,
      "inputs": [
        {
          "indexed": false,
          "internalType": "address",
          "name": "contractAddress",
          "type": "address"
        },
        {
          "indexed": false,
          "internalType": "uint256",
          "name": "offerIndex",
          "type": "uint256"
        },
        {
          "indexed": false,
          "internalType": "uint256",
          "name": "rangeIndex",
          "type": "uint256"
        },
        {
          "indexed": false,
          "internalType": "uint256",
          "name": "tokens",
          "type": "uint256"
        },
        {
          "indexed": false,
          "internalType": "uint256",
          "name": "price",
          "type": "uint256"
        },
        {
          "indexed": false,
          "internalType": "string",
          "name": "name",
          "type": "string"
        }
      ],
      "name": "UpdatedOffer",
      "type": "event"
    },
    {
      "inputs": [
        {
          "internalType": "address",
          "name": "_tokenAddress",
          "type": "address"
        },
        {
          "internalType": "uint256",
          "name": "_productIndex",
          "type": "uint256"
        },
        {
          "internalType": "uint256[]",
          "name": "_rangeStartToken",
          "type": "uint256[]"
        },
        {
          "internalType": "uint256[]",
          "name": "_rangeEndToken",
          "type": "uint256[]"
        },
        {
          "internalType": "uint256[]",
          "name": "_rangePrice",
          "type": "uint256[]"
        },
        {
          "internalType": "string[]",
          "name": "_rangeName",
          "type": "string[]"
        },
        {
          "internalType": "address",
          "name": "_nodeAddress",
          "type": "address"
        }
      ],
      "name": "addOffer",
      "outputs": [],
      "stateMutability": "nonpayable",
      "type": "function"
    },
    {
      "inputs": [
        {
          "internalType": "uint256",
          "name": "offerIndex",
          "type": "uint256"
        },
        {
          "internalType": "uint256",
          "name": "startToken",
          "type": "uint256"
        },
        {
          "internalType": "uint256",
          "name": "endToken",
          "type": "uint256"
        },
        {
          "internalType": "uint256",
          "name": "price",
          "type": "uint256"
        },
        {
          "internalType": "string",
          "name": "name",
          "type": "string"
        }
      ],
      "name": "appendOfferRange",
      "outputs": [],
      "stateMutability": "nonpayable",
      "type": "function"
    },
    {
      "inputs": [
        {
          "internalType": "uint256",
          "name": "offerIndex",
          "type": "uint256"
        },
        {
          "internalType": "uint256[]",
          "name": "startTokens",
          "type": "uint256[]"
        },
        {
          "internalType": "uint256[]",
          "name": "endTokens",
          "type": "uint256[]"
        },
        {
          "internalType": "uint256[]",
          "name": "prices",
          "type": "uint256[]"
        },
        {
          "internalType": "string[]",
          "name": "names",
          "type": "string[]"
        }
      ],
      "name": "appendOfferRangeBatch",
      "outputs": [],
      "stateMutability": "nonpayable",
      "type": "function"
    },
    {
      "inputs": [
        {
          "internalType": "uint256",
          "name": "catalogIndex",
          "type": "uint256"
        },
        {
          "internalType": "uint256",
          "name": "rangeIndex",
          "type": "uint256"
        },
        {
          "internalType": "uint256",
          "name": "internalTokenIndex",
          "type": "uint256"
        }
      ],
      "name": "buyToken",
      "outputs": [],
      "stateMutability": "payable",
      "type": "function"
    },
    {
      "inputs": [
        {
          "internalType": "uint256",
          "name": "catalogIndex",
          "type": "uint256"
        },
        {
          "internalType": "uint256",
          "name": "rangeIndex",
          "type": "uint256"
        },
        {
          "internalType": "uint256[]",
          "name": "tokenIndexes",
          "type": "uint256[]"
        },
        {
          "internalType": "address[]",
          "name": "recipients",
          "type": "address[]"
        }
      ],
      "name": "buyTokenBatch",
      "outputs": [],
      "stateMutability": "payable",
      "type": "function"
    },
    {
      "inputs": [
        {
          "internalType": "address",
          "name": "erc721Address",
          "type": "address"
        },
        {
          "internalType": "uint256",
          "name": "productIndex",
          "type": "uint256"
        }
      ],
      "name": "contractToOfferRange",
      "outputs": [
        {
          "internalType": "uint256",
          "name": "offerIndex",
          "type": "uint256"
        }
      ],
      "stateMutability": "view",
      "type": "function"
    },
    {
      "inputs": [],
      "name": "feeDecimals",
      "outputs": [
        {
          "internalType": "uint16",
          "name": "",
          "type": "uint16"
        }
      ],
      "stateMutability": "view",
      "type": "function"
    },
    {
      "inputs": [],
      "name": "getOfferCount",
      "outputs": [
        {
          "internalType": "uint256",
          "name": "",
          "type": "uint256"
        }
      ],
      "stateMutability": "view",
      "type": "function"
    },
    {
      "inputs": [
        {
          "internalType": "uint256",
          "name": "_index",
          "type": "uint256"
        }
      ],
      "name": "getOfferInfo",
      "outputs": [
        {
          "internalType": "address",
          "name": "contractAddress",
          "type": "address"
        },
        {
          "internalType": "uint256",
          "name": "productIndex",
          "type": "uint256"
        },
        {
          "internalType": "address",
          "name": "nodeAddress",
          "type": "address"
        },
        {
          "internalType": "uint256",
          "name": "availableRanges",
          "type": "uint256"
        }
      ],
      "stateMutability": "view",
      "type": "function"
    },
    {
      "inputs": [
        {
          "internalType": "uint256",
          "name": "offerIndex",
          "type": "uint256"
        },
        {
          "internalType": "uint256",
          "name": "rangeIndex",
          "type": "uint256"
        }
      ],
      "name": "getOfferRangeInfo",
      "outputs": [
        {
          "internalType": "address",
          "name": "contractAddress",
          "type": "address"
        },
        {
          "internalType": "uint256",
          "name": "collectionIndex",
          "type": "uint256"
        },
        {
          "internalType": "uint256",
          "name": "tokenStart",
          "type": "uint256"
        },
        {
          "internalType": "uint256",
          "name": "tokenEnd",
          "type": "uint256"
        },
        {
          "internalType": "uint256",
          "name": "tokensAllowed",
          "type": "uint256"
        },
        {
          "internalType": "uint256",
          "name": "price",
          "type": "uint256"
        },
        {
          "internalType": "string",
          "name": "name",
          "type": "string"
        }
      ],
      "stateMutability": "view",
      "type": "function"
    },
    {
      "inputs": [],
      "name": "nodeFee",
      "outputs": [
        {
          "internalType": "uint16",
          "name": "",
          "type": "uint16"
        }
      ],
      "stateMutability": "view",
      "type": "function"
    },
    {
      "inputs": [],
      "name": "openSales",
      "outputs": [
        {
          "internalType": "uint256",
          "name": "",
          "type": "uint256"
        }
      ],
      "stateMutability": "view",
      "type": "function"
    },
    {
      "inputs": [],
      "name": "owner",
      "outputs": [
        {
          "internalType": "address",
          "name": "",
          "type": "address"
        }
      ],
      "stateMutability": "view",
      "type": "function"
    },
    {
      "inputs": [],
      "name": "renounceOwnership",
      "outputs": [],
      "stateMutability": "nonpayable",
      "type": "function"
    },
    {
      "inputs": [
        {
          "internalType": "uint16",
          "name": "_newFee",
          "type": "uint16"
        }
      ],
      "name": "setNodeFee",
      "outputs": [],
      "stateMutability": "nonpayable",
      "type": "function"
    },
    {
      "inputs": [
        {
          "internalType": "address",
          "name": "_newTreasury",
          "type": "address"
        }
      ],
      "name": "setTreasuryAddress",
      "outputs": [],
      "stateMutability": "nonpayable",
      "type": "function"
    },
    {
      "inputs": [
        {
          "internalType": "uint16",
          "name": "_newFee",
          "type": "uint16"
        }
      ],
      "name": "setTreasuryFee",
      "outputs": [],
      "stateMutability": "nonpayable",
      "type": "function"
    },
    {
      "inputs": [
        {
          "internalType": "address",
          "name": "newOwner",
          "type": "address"
        }
      ],
      "name": "transferOwnership",
      "outputs": [],
      "stateMutability": "nonpayable",
      "type": "function"
    },
    {
      "inputs": [],
      "name": "treasury",
      "outputs": [
        {
          "internalType": "address",
          "name": "",
          "type": "address"
        }
      ],
      "stateMutability": "view",
      "type": "function"
    },
    {
      "inputs": [],
      "name": "treasuryFee",
      "outputs": [
        {
          "internalType": "uint16",
          "name": "",
          "type": "uint16"
        }
      ],
      "stateMutability": "view",
      "type": "function"
    },
    {
      "inputs": [
        {
          "internalType": "uint256",
          "name": "offerIndex",
          "type": "uint256"
        },
        {
          "internalType": "uint256",
          "name": "rangeIndex",
          "type": "uint256"
        },
        {
          "internalType": "uint256",
          "name": "startToken",
          "type": "uint256"
        },
        {
          "internalType": "uint256",
          "name": "endToken",
          "type": "uint256"
        },
        {
          "internalType": "uint256",
          "name": "price",
          "type": "uint256"
        },
        {
          "internalType": "string",
          "name": "name",
          "type": "string"
        }
      ],
      "name": "updateOfferRange",
      "outputs": [],
      "stateMutability": "nonpayable",
      "type": "function"
    },
    {
      "inputs": [
        {
          "internalType": "address",
          "name": "tokenAddress",
          "type": "address"
        }
      ],
      "name": "validateRoles",
      "outputs": [
        {
          "internalType": "bool",
          "name": "canOffer",
          "type": "bool"
        }
      ],
      "stateMutability": "view",
      "type": "function"
    }
  ],
  "bytecode": "0x60806040523480156200001157600080fd5b5060405162003df738038062003df783398101604081905262000034916200009c565b606780546001600160a01b039094166001600160a01b0319909416939093179092556069805461ffff938416620100000263ffffffff1990911693909216929092171790556000606855620000f3565b805161ffff811681146200009757600080fd5b919050565b600080600060608486031215620000b257600080fd5b83516001600160a01b0381168114620000ca57600080fd5b9250620000da6020850162000084565b9150620000ea6040850162000084565b90509250925092565b613cf480620001036000396000f3fe6080604052600436106101355760003560e01c80639c13108c116100ab578063d048db371161006f578063d048db37146103ac578063de2d554b146103c1578063e4ccbe6c146103d4578063f2fde38b146103f4578063f416253014610414578063f7ca892a1461043557600080fd5b80639c13108c146102e8578063a652db4914610316578063ca3dba5d14610336578063cc0f178614610369578063cc32d1761461039157600080fd5b806361d027b3116100fd57806361d027b31461021d5780636605bfda14610255578063665b64dd14610275578063715018a61461029557806375cb00ea146102aa5780638da5cb5b146102ca57600080fd5b806326502ed71461013a5780632a1da9821461014f5780633539a52c146101ad57806338b2c833146101cd578063607814b2146101ed575b600080fd5b61014d610148366004613496565b61044b565b005b34801561015b57600080fd5b5061016f61016a3660046132ea565b610c8a565b6040516101a494939291906001600160a01b039485168152602081019390935292166040820152606081019190915260800190565b60405180910390f35b3480156101b957600080fd5b5061014d6101c8366004613604565b610f3f565b3480156101d957600080fd5b5061014d6101e8366004613303565b6110cf565b3480156101f957600080fd5b5061020d610208366004613133565b6112f3565b60405190151581526020016101a4565b34801561022957600080fd5b5060675461023d906001600160a01b031681565b6040516001600160a01b0390911681526020016101a4565b34801561026157600080fd5b5061014d610270366004613133565b611505565b34801561028157600080fd5b5061014d6102903660046131b1565b611584565b3480156102a157600080fd5b5061014d611a7f565b3480156102b657600080fd5b5061014d6102c536600461365c565b611ab5565b3480156102d657600080fd5b506033546001600160a01b031661023d565b3480156102f457600080fd5b50610308610303366004613157565b611e2f565b6040519081526020016101a4565b34801561032257600080fd5b5061014d6103313660046132c6565b612067565b34801561034257600080fd5b50610356610351366004613474565b6120e9565b6040516101a49796959493929190613777565b34801561037557600080fd5b5061037e600281565b60405161ffff90911681526020016101a4565b34801561039d57600080fd5b5060695461037e9061ffff1681565b3480156103b857600080fd5b50606654610308565b61014d6103cf366004613519565b61243e565b3480156103e057600080fd5b5061014d6103ef3660046132c6565b612ab9565b34801561040057600080fd5b5061014d61040f366004613133565b612b31565b34801561042057600080fd5b5060695461037e9062010000900461ffff1681565b34801561044157600080fd5b5061030860685481565b60006066878154811061046057610460613c7d565b6000918252602090912060089091020180549091506001600160a01b03166104a35760405162461bcd60e51b815260040161049a90613a02565b60405180910390fd5b600581015486106104c65760405162461bcd60e51b815260040161049a9061392d565b848490508160050187815481106104df576104df613c7d565b906000526020600020015410156105685760405162461bcd60e51b815260206004820152604160248201527f4d696e74696e67204d61726b6574706c6163653a2043616e6e6f74206d696e7460448201527f2074686174206d616e7920746f6b656e7320666f7220746869732072616e67656064820152602160f81b608482015260a40161049a565b8484905081600601878154811061058157610581613c7d565b90600052602060002001546105969190613b74565b3410156105b55760405162461bcd60e51b815260040161049a90613818565b8382146106405760405162461bcd60e51b815260206004820152604d60248201527f4d696e74696e67204d61726b6574706c6163653a20546f6b656e20496e64657860448201527f657320616e6420526563697069656e74732073686f756c64206861766520746860648201526c0ca40e6c2daca40d8cadccee8d609b1b608482015260a40161049a565b80546040516301ffc9a760e01b8152632baae9fd60e01b6004820152600091829182916001600160a01b0316906301ffc9a79060240160206040518083038186803b15801561068e57600080fd5b505afa1580156106a2573d6000803e3d6000fd5b505050506040513d601f19601f820116820180604052508101906106c691906132a4565b9050336001600160a01b03166108fc89899050866006018c815481106106ee576106ee613c7d565b90600052602060002001546107039190613b74565b61070d9034613bb7565b6040518115909202916000818181858888f19350505050158015610735573d6000803e3d6000fd5b50801561089b5783546006850180546001600160a01b0390921691632a55205a916000918d90811061076957610769613c7d565b90600052602060002001546040518363ffffffff1660e01b815260040161079a929190918252602082015260400190565b604080518083038186803b1580156107b157600080fd5b505afa1580156107c5573d6000803e3d6000fd5b505050506040513d601f19601f820116820180604052508101906107e99190613183565b60695491945092506001600160a01b038416906108fc908990620186a09061081d9061ffff62010000820481169116613b14565b61082e9061ffff16620186a0613b93565b62ffffff16886006018e8154811061084857610848613c7d565b906000526020600020015461085d9190613b74565b6108679190613b52565b6108719190613b74565b6040518115909202916000818181858888f19350505050158015610899573d6000803e3d6000fd5b505b6067546069546006860180546001600160a01b03909316926108fc928b92620186a09261ffff909216918f9081106108d5576108d5613c7d565b90600052602060002001546108ea9190613b74565b6108f49190613b52565b6108fe9190613b74565b6040518115909202916000818181858888f19350505050158015610926573d6000803e3d6000fd5b5060018401546069546006860180546001600160a01b03909316926108fc928b92620186a0926201000090920461ffff16918f90811061096857610968613c7d565b906000526020600020015461097d9190613b74565b6109879190613b52565b6109919190613b74565b6040518115909202916000818181858888f193505050501580156109b9573d6000803e3d6000fd5b5087879050846005018a815481106109d3576109d3613c7d565b9060005260206000200160008282546109ec9190613bb7565b90915550506005840180548a908110610a0757610a07613c7d565b906000526020600020015460001415610a785760688054906000610a2a83613bfa565b909155505083546040517fd7597aa2d6438f91b7d71e7d13764734af94bc7db28326e194bfab67236e58c191610a6f916001600160a01b03909116908d908d906136fc565b60405180910390a15b60005b87811015610c7d57888882818110610a9557610a95613c7d565b90506020020135856003018b81548110610ab157610ab1613c7d565b906000526020600020015411158015610b015750846004018a81548110610ada57610ada613c7d565b9060005260206000200154898983818110610af757610af7613c7d565b9050602002013511155b610b1d5760405162461bcd60e51b815260040161049a90613970565b84546001600160a01b031663156e29f6888884818110610b3f57610b3f613c7d565b9050602002016020810190610b549190613133565b87600201548c8c86818110610b6b57610b6b613c7d565b905060200201356040518463ffffffff1660e01b8152600401610b90939291906136fc565b600060405180830381600087803b158015610baa57600080fd5b505af1158015610bbe573d6000803e3d6000fd5b505050507f188c6e7ce5cf6a45f5d4441da49a243005c388c7f4f00137378ba3d058baf01d878783818110610bf557610bf5613c7d565b9050602002016020810190610c0a9190613133565b86546001600160a01b03168d8d8d8d87818110610c2957610c29613c7d565b604080516001600160a01b039889168152979096166020888101919091529587019490945250606085019190915291020135608082015260a00160405180910390a180610c7581613c4c565b915050610a7b565b5050505050505050505050565b600080600080600060668681548110610ca557610ca5613c7d565b60009182526020918290206040805161010081018252600890930290910180546001600160a01b0390811684526001820154168385015260028101548383015260038101805483518187028101870190945280845293949193606086019392830182828015610d3357602002820191906000526020600020905b815481526020019060010190808311610d1f575b5050505050815260200160048201805480602002602001604051908101604052809291908181526020018280548015610d8b57602002820191906000526020600020905b815481526020019060010190808311610d77575b5050505050815260200160058201805480602002602001604051908101604052809291908181526020018280548015610de357602002820191906000526020600020905b815481526020019060010190808311610dcf575b5050505050815260200160068201805480602002602001604051908101604052809291908181526020018280548015610e3b57602002820191906000526020600020905b815481526020019060010190808311610e27575b5050505050815260200160078201805480602002602001604051908101604052809291908181526020016000905b82821015610f15578382906000526020600020018054610e8890613c11565b80601f0160208091040260200160405190810160405280929190818152602001828054610eb490613c11565b8015610f015780601f10610ed657610100808354040283529160200191610f01565b820191906000526020600020905b815481529060010190602001808311610ee457829003601f168201915b505050505081526020019060010190610e69565b5050509152505080516040820151602083015160e090930151519199909850919650945092505050565b610f7460668781548110610f5557610f55613c7d565b60009182526020909120600890910201546001600160a01b03166112f3565b50610f9960405180606001604052806000815260200160008152602001600081525090565b60668781548110610fac57610fac613c7d565b6000918252602090912060089091020154606680546001600160a01b039092169163b9db15b491908a908110610fe457610fe4613c7d565b9060005260206000209060080201600201546040518263ffffffff1660e01b815260040161101491815260200190565b60006040518083038186803b15801561102c57600080fd5b505afa158015611040573d6000803e3d6000fd5b505050506040513d6000823e601f3d908101601f191682016040526110689190810190613545565b50505060208301819052818352611083918891889190612bcc565b6110c68787878787878080601f016020809104026020016040519081016040528093929190818152602001838380828437600092019190915250612d1e92505050565b50505050505050565b825184511480156110e1575083518251145b80156110ee575081518151145b61110a5760405162461bcd60e51b815260040161049a906138cf565b61112060668681548110610f5557610f55613c7d565b5061114560405180606001604052806000815260200160008152602001600081525090565b6066868154811061115857611158613c7d565b6000918252602090912060089091020154606680546001600160a01b039092169163b9db15b491908990811061119057611190613c7d565b9060005260206000209060080201600201546040518263ffffffff1660e01b81526004016111c091815260200190565b60006040518083038186803b1580156111d857600080fd5b505afa1580156111ec573d6000803e3d6000fd5b505050506040513d6000823e601f3d908101601f191682016040526112149190810190613545565b5050506020830152815260005b82518110156110c65761127086828151811061123f5761123f613c7d565b602002602001015186838151811061125957611259613c7d565b602002602001015184600001518560200151612bcc565b6112e18787838151811061128657611286613c7d565b60200260200101518784815181106112a0576112a0613c7d565b60200260200101518785815181106112ba576112ba613c7d565b60200260200101518786815181106112d4576112d4613c7d565b6020026020010151612d1e565b806112eb81613c4c565b915050611221565b604051632474521560e21b81527ff0887ba65ee2024ea881d91b74c2450ef19e1557f03bed3ea9f16b037cbe2dc960048201523060248201526000906001600160a01b038316906391d148549060440160206040518083038186803b15801561135b57600080fd5b505afa15801561136f573d6000803e3d6000fd5b505050506040513d601f19601f8201168201806040525081019061139391906132a4565b6113fd5760405162461bcd60e51b815260206004820152603560248201527f4d696e74696e67204d61726b6574706c6163653a2054686973204d61726b6574604482015274706c6163652069736e27742061204d696e7465722160581b606482015260840161049a565b604051632474521560e21b81527f3c2519c4487d47714872f92cf90a50c25f5deaec2789dc2a497b1272df611db660048201523360248201526001600160a01b038316906391d148549060440160206040518083038186803b15801561146257600080fd5b505afa158015611476573d6000803e3d6000fd5b505050506040513d601f19601f8201168201806040525081019061149a91906132a4565b6114fd5760405162461bcd60e51b815260206004820152602e60248201527f4d696e74696e67204d61726b6574706c6163653a2053656e6465722069736e2760448201526d74207468652063726561746f722160901b606482015260840161049a565b506001919050565b6033546001600160a01b0316331461152f5760405162461bcd60e51b815260040161049a906139cd565b606780546001600160a01b0319166001600160a01b0383169081179091556040519081527f63cc689e9d3377465b51fb094ea4ca5e0a1436b21f1ad30d707c696111c66500906020015b60405180910390a150565b61158d8b6112f3565b50878614801561159c57508388145b80156115a757508184145b6115c35760405162461bcd60e51b815260040161049a906138cf565b606654156116fe576001600160a01b038b1660009081526065602090815260408083208d84529091529020546116bd576001600160a01b038b1660008181526065602090815260408083208e845290915290205460668054909190811061162c5761162c613c7d565b60009182526020909120600890910201546001600160a01b031614158061169c57506001600160a01b038b1660009081526065602090815260408083208d8452909152902054606680548c9290811061168757611687613c7d565b90600052602060002090600802016002015414155b6116b85760405162461bcd60e51b815260040161049a9061385f565b6116fe565b6001600160a01b038b1660009081526065602090815260408083208d8452909152902054156116fe5760405162461bcd60e51b815260040161049a9061385f565b61172260405180606001604052806000815260200160008152602001600081525090565b604051632e76c56d60e21b8152600481018c90526001600160a01b038d169063b9db15b49060240160006040518083038186803b15801561176257600080fd5b505afa158015611776573d6000803e3d6000fd5b505050506040513d6000823e601f3d908101601f1916820160405261179e9190810190613545565b50506040840181905260208401919091529082526118245760405162461bcd60e51b815260206004820152603f60248201527f4d696e74696e67204d61726b6574706c6163653a2043616e6e6f74206d696e7460448201527f206d6f726520746f6b656e732066726f6d20746869732050726f647563742100606482015260840161049a565b6000606660018160018154018082558091505003906000526020600020906008020190508c8160000160006101000a8154816001600160a01b0302191690836001600160a01b03160217905550828160010160006101000a8154816001600160a01b0302191690836001600160a01b031602179055508b816002018190555060005b848110156119c0576118f28c8c838181106118c3576118c3613c7d565b905060200201358b8b848181106118dc576118dc613c7d565b9050602002013585600001518660200151612bcc565b6066546119ae9061190590600190613bb7565b8d8d8481811061191757611917613c7d565b905060200201358c8c8581811061193057611930613c7d565b905060200201358b8b8681811061194957611949613c7d565b905060200201358a8a8781811061196257611962613c7d565b90506020028101906119749190613a50565b8080601f016020809104026020016040519081016040528093929190818152602001838380828437600092019190915250612d1e92505050565b806119b881613c4c565b9150506118a6565b506066546119d090600190613bb7565b606560008f6001600160a01b03166001600160a01b0316815260200190815260200160002060008e8152602001908152602001600020819055507f9c82f4230a033475cfb564c6eb24f4ad45139901a657e8edd9a6cd234e3549498d8d878790506001606680549050611a439190613bb7565b604080516001600160a01b039095168552602085019390935291830152606082015260800160405180910390a150505050505050505050505050565b6033546001600160a01b03163314611aa95760405162461bcd60e51b815260040161049a906139cd565b611ab36000612e64565b565b600060668881548110611aca57611aca613c7d565b90600052602060002090600802019050806004018781548110611aef57611aef613c7d565b90600052602060002001548511158015611b285750806003018781548110611b1957611b19613c7d565b90600052602060002001548610155b611ba65760405162461bcd60e51b815260206004820152604360248201527f4d696e74696e67204d61726b6574706c6163653a204e6577206c696d6974732060448201527f6d7573742062652077697468696e207468652070726576696f7573206c696d6960648201526274732160e81b608482015260a40161049a565b8054611bba906001600160a01b03166112f3565b50611bdf60405180606001604052806000815260200160008152602001600081525090565b81546002830154604051632e76c56d60e21b81526001600160a01b039092169163b9db15b491611c159160040190815260200190565b60006040518083038186803b158015611c2d57600080fd5b505afa158015611c41573d6000803e3d6000fd5b505050506040513d6000823e601f3d908101601f19168201604052611c699190810190613545565b50505060208301819052818352611c84918991899190612bcc565b611c8e8787613bb7565b826003018981548110611ca357611ca3613c7d565b9060005260206000200154836004018a81548110611cc357611cc3613c7d565b9060005260206000200154611cd89190613bb7565b611ce29190613bb7565b826005018981548110611cf757611cf7613c7d565b906000526020600020016000828254611d109190613bb7565b9250508190555086826003018981548110611d2d57611d2d613c7d565b906000526020600020018190555085826004018981548110611d5157611d51613c7d565b906000526020600020018190555084826006018981548110611d7557611d75613c7d565b90600052602060002001819055508383836007018a81548110611d9a57611d9a613c7d565b906000526020600020019190611db1929190612eb6565b5081546005830180547fd99934f5b053ba28c54ae74875195b688f9367ba5b0c50f5233e692eb91549c8926001600160a01b0316918c918c919082908110611dfb57611dfb613c7d565b9060005260206000200154898989604051611e1c979695949392919061371d565b60405180910390a1505050505050505050565b606654600090611e9d5760405162461bcd60e51b815260206004820152603360248201527f4d696e74696e67204d61726b6574706c6163653a20546865726520617265206e6044820152721bc81bd999995c9cc81c9959da5cdd195c9959606a1b606482015260840161049a565b6001600160a01b0383166000818152606560209081526040808320868452909152902054606680549091908110611ed657611ed6613c7d565b60009182526020909120600890910201546001600160a01b031614611f715760405162461bcd60e51b8152602060048201526044602482018190527f4d696e74696e67204d61726b6574706c6163653a20546865726520617265206e908201527f6f206f6666657273207265676973746572656420666f722074686174206164646064820152637265737360e01b608482015260a40161049a565b6001600160a01b0383166000908152606560209081526040808320858452909152902054606680548492908110611faa57611faa613c7d565b9060005260206000209060080201600201541461203e5760405162461bcd60e51b815260206004820152604660248201527f4d696e74696e67204d61726b6574706c6163653a20546865726520617265206960448201527f73206e6f206f66666572207265676973746572656420666f72207468617420706064820152651c9bd91d58dd60d21b608482015260a40161049a565b506001600160a01b03919091166000908152606560209081526040808320938352929052205490565b6033546001600160a01b031633146120915760405162461bcd60e51b815260040161049a906139cd565b6069805461ffff191661ffff8316908117909155606754604080516001600160a01b03909216825260208201929092527f2adb51c26afe364a53c16cd44e82bdf5a52680ad11c64f2dbeb5bdb3764f731d9101611579565b6000806000806000806060600060668a8154811061210957612109613c7d565b60009182526020918290206040805161010081018252600890930290910180546001600160a01b039081168452600182015416838501526002810154838301526003810180548351818702810187019094528084529394919360608601939283018282801561219757602002820191906000526020600020905b815481526020019060010190808311612183575b50505050508152602001600482018054806020026020016040519081016040528092919081815260200182805480156121ef57602002820191906000526020600020905b8154815260200190600101908083116121db575b505050505081526020016005820180548060200260200160405190810160405280929190818152602001828054801561224757602002820191906000526020600020905b815481526020019060010190808311612233575b505050505081526020016006820180548060200260200160405190810160405280929190818152602001828054801561229f57602002820191906000526020600020905b81548152602001906001019080831161228b575b5050505050815260200160078201805480602002602001604051908101604052809291908181526020016000905b828210156123795783829060005260206000200180546122ec90613c11565b80601f016020809104026020016040519081016040528092919081815260200182805461231890613c11565b80156123655780601f1061233a57610100808354040283529160200191612365565b820191906000526020600020905b81548152906001019060200180831161234857829003601f168201915b5050505050815260200190600101906122cd565b505050508152505090508060000151816040015182606001518b815181106123a3576123a3613c7d565b602002602001015183608001518c815181106123c1576123c1613c7d565b60200260200101518460a001518d815181106123df576123df613c7d565b60200260200101518560c001518e815181106123fd576123fd613c7d565b60200260200101518660e001518f8151811061241b5761241b613c7d565b602002602001015197509750975097509750975097505092959891949750929550565b60006066848154811061245357612453613c7d565b6000918252602090912060089091020180549091506001600160a01b031661248d5760405162461bcd60e51b815260040161049a90613a02565b600581015483106124b05760405162461bcd60e51b815260040161049a9061392d565b60008160050184815481106124c7576124c7613c7d565b9060005260206000200154116125455760405162461bcd60e51b815260206004820152603c60248201527f4d696e74696e67204d61726b6574706c6163653a2043616e6e6f74206d696e7460448201527f206d6f726520746f6b656e7320666f7220746869732072616e67652100000000606482015260840161049a565b8181600301848154811061255b5761255b613c7d565b906000526020600020015411158015612593575080600401838154811061258457612584613c7d565b90600052602060002001548211155b6125af5760405162461bcd60e51b815260040161049a90613970565b8060060183815481106125c4576125c4613c7d565b90600052602060002001543410156125ee5760405162461bcd60e51b815260040161049a90613818565b80546040516301ffc9a760e01b8152632baae9fd60e01b6004820152600091829182916001600160a01b0316906301ffc9a79060240160206040518083038186803b15801561263c57600080fd5b505afa158015612650573d6000803e3d6000fd5b505050506040513d601f19601f8201168201806040525081019061267491906132a4565b905080156127cf5783546006850180546001600160a01b0390921691632a55205a916000918a9081106126a9576126a9613c7d565b90600052602060002001546040518363ffffffff1660e01b81526004016126da929190918252602082015260400190565b604080518083038186803b1580156126f157600080fd5b505afa158015612705573d6000803e3d6000fd5b505050506040513d601f19601f820116820180604052508101906127299190613183565b60695491945092506001600160a01b038416906108fc90620186a09061275b9061ffff62010000820481169116613b14565b61276c9061ffff16620186a0613b93565b62ffffff16876006018a8154811061278657612786613c7d565b906000526020600020015461279b9190613b74565b6127a59190613b52565b6040518115909202916000818181858888f193505050501580156127cd573d6000803e3d6000fd5b505b336001600160a01b03166108fc8560060188815481106127f1576127f1613c7d565b9060005260206000200154346128079190613bb7565b6040518115909202916000818181858888f1935050505015801561282f573d6000803e3d6000fd5b506067546069546006860180546001600160a01b03909316926108fc92620186a09261ffff909116918b90811061286857612868613c7d565b906000526020600020015461287d9190613b74565b6128879190613b52565b6040518115909202916000818181858888f193505050501580156128af573d6000803e3d6000fd5b5060018401546069546006860180546001600160a01b03909316926108fc92620186a0926201000090910461ffff16918b9081106128ef576128ef613c7d565b90600052602060002001546129049190613b74565b61290e9190613b52565b6040518115909202916000818181858888f19350505050158015612936573d6000803e3d6000fd5b5083600501868154811061294c5761294c613c7d565b6000918252602082200180549161296283613bfa565b919050555083600501868154811061297c5761297c613c7d565b9060005260206000200154600014156129ed576068805490600061299f83613bfa565b909155505083546040517fd7597aa2d6438f91b7d71e7d13764734af94bc7db28326e194bfab67236e58c1916129e4916001600160a01b03909116908a908a906136fc565b60405180910390a15b83546002850154604051630ab714fb60e11b81526001600160a01b039092169163156e29f691612a24913391908a906004016136fc565b600060405180830381600087803b158015612a3e57600080fd5b505af1158015612a52573d6000803e3d6000fd5b50508554604080513381526001600160a01b03909216602083015281018a905260608101899052608081018890527f188c6e7ce5cf6a45f5d4441da49a243005c388c7f4f00137378ba3d058baf01d925060a001905060405180910390a150505050505050565b6033546001600160a01b03163314612ae35760405162461bcd60e51b815260040161049a906139cd565b6069805463ffff000019166201000061ffff8416908102919091179091556040519081527f6a6cc0807c3fb0910ab842e5fd4c193307b3cff967f1a7d096538e4961884b7090602001611579565b6033546001600160a01b03163314612b5b5760405162461bcd60e51b815260040161049a906139cd565b6001600160a01b038116612bc05760405162461bcd60e51b815260206004820152602660248201527f4f776e61626c653a206e6577206f776e657220697320746865207a65726f206160448201526564647265737360d01b606482015260840161049a565b612bc981612e64565b50565b82841115612c685760405162461bcd60e51b815260206004820152605960248201527f4d696e74696e67204d61726b6574706c6163653a2052616e676527732073746160448201527f7274696e6720746f6b656e2068617320746f206265206c657373207468616e2060648201527f7468652072616e6765277320656e64696e6720746f6b656e2100000000000000608482015260a40161049a565b80612c738484613b3a565b1115612d185760405162461bcd60e51b815260206004820152606260248201527f4d696e74696e67204d61726b6574706c6163653a2052616e6765277320656e6460448201527f696e6720746f6b656e2068617320746f206265206c657373206f72206571756160648201527f6c207468616e207468652070726f64756374277320656e64696e6720746f6b656084820152616e2160f01b60a482015260c40161049a565b50505050565b600060668681548110612d3357612d33613c7d565b60009182526020808320600360089093020191820180546001818101835591855282852001899055600483018054808301825590855282852001889055600683018054918201815584529220909101849055905060058101612d958686613bb7565b612da0906001613b3a565b815460018181018455600093845260208085209092019290925560078401805492830181558352918290208451612ddf93919092019190850190612f3a565b508054600282015460078301547f5fb7e8962f72a7aa133e869363451a963b669f4833ca29bc394ebd53f121b98f926001600160a01b031691908990612e2790600190613bb7565b89898989604051612e3f9897969594939291906137c3565b60405180910390a160688054906000612e5783613c4c565b9190505550505050505050565b603380546001600160a01b038381166001600160a01b0319831681179093556040519116919082907f8be0079c531659141344cd1fd0a4f28419497f9722a3daafe3b4186f6b6457e090600090a35050565b828054612ec290613c11565b90600052602060002090601f016020900481019282612ee45760008555612f2a565b82601f10612efd5782800160ff19823516178555612f2a565b82800160010185558215612f2a579182015b82811115612f2a578235825591602001919060010190612f0f565b50612f36929150612fae565b5090565b828054612f4690613c11565b90600052602060002090601f016020900481019282612f685760008555612f2a565b82601f10612f8157805160ff1916838001178555612f2a565b82800160010185558215612f2a579182015b82811115612f2a578251825591602001919060010190612f93565b5b80821115612f365760008155600101612faf565b8035612fce81613ca9565b919050565b60008083601f840112612fe557600080fd5b50813567ffffffffffffffff811115612ffd57600080fd5b6020830191508360208260051b850101111561301857600080fd5b9250929050565b600082601f83011261303057600080fd5b8135602061304561304083613ac8565b613a97565b80838252828201915082860187848660051b890101111561306557600080fd5b60005b8581101561308457813584529284019290840190600101613068565b5090979650505050505050565b600082601f8301126130a257600080fd5b815160206130b261304083613ac8565b80838252828201915082860187848660051b89010111156130d257600080fd5b60005b85811015613084578151845292840192908401906001016130d5565b60008083601f84011261310357600080fd5b50813567ffffffffffffffff81111561311b57600080fd5b60208301915083602082850101111561301857600080fd5b60006020828403121561314557600080fd5b813561315081613ca9565b9392505050565b6000806040838503121561316a57600080fd5b823561317581613ca9565b946020939093013593505050565b6000806040838503121561319657600080fd5b82516131a181613ca9565b6020939093015192949293505050565b600080600080600080600080600080600060e08c8e0312156131d257600080fd5b6131db8c612fc3565b9a5060208c0135995067ffffffffffffffff8060408e013511156131fe57600080fd5b61320e8e60408f01358f01612fd3565b909a50985060608d013581101561322457600080fd5b6132348e60608f01358f01612fd3565b909850965060808d013581101561324a57600080fd5b61325a8e60808f01358f01612fd3565b909650945060a08d013581101561327057600080fd5b506132818d60a08e01358e01612fd3565b909350915061329260c08d01612fc3565b90509295989b509295989b9093969950565b6000602082840312156132b657600080fd5b8151801515811461315057600080fd5b6000602082840312156132d857600080fd5b813561ffff8116811461315057600080fd5b6000602082840312156132fc57600080fd5b5035919050565b600080600080600060a0868803121561331b57600080fd5b85359450602086013567ffffffffffffffff8082111561333a57600080fd5b61334689838a0161301f565b9550604088013591508082111561335c57600080fd5b61336889838a0161301f565b9450606088013591508082111561337e57600080fd5b61338a89838a0161301f565b935060808801359150808211156133a057600080fd5b818801915088601f8301126133b457600080fd5b6133c16130408335613ac8565b8083358252602082019150602084018b6020863560051b87010111156133e657600080fd5b60005b853581101561346157848235111561340057600080fd5b813586018d603f82011261341357600080fd5b602081013561342461304082613aec565b8181528f604083850101111561343957600080fd5b81604084016020830137600060209282018301528652948501949290920191506001016133e9565b5050809450505050509295509295909350565b6000806040838503121561348757600080fd5b50508035926020909101359150565b600080600080600080608087890312156134af57600080fd5b8635955060208701359450604087013567ffffffffffffffff808211156134d557600080fd5b6134e18a838b01612fd3565b909650945060608901359150808211156134fa57600080fd5b5061350789828a01612fd3565b979a9699509497509295939492505050565b60008060006060848603121561352e57600080fd5b505081359360208301359350604090920135919050565b600080600080600060a0868803121561355d57600080fd5b855194506020860151935060408601519250606086015167ffffffffffffffff8082111561358a57600080fd5b818801915088601f83011261359e57600080fd5b81516135ac61304082613aec565b8181528a60208386010111156135c157600080fd5b6135d2826020830160208701613bce565b60808a0151909550925050808211156135ea57600080fd5b506135f788828901613091565b9150509295509295909350565b60008060008060008060a0878903121561361d57600080fd5b86359550602087013594506040870135935060608701359250608087013567ffffffffffffffff81111561365057600080fd5b61350789828a016130f1565b600080600080600080600060c0888a03121561367757600080fd5b873596506020880135955060408801359450606088013593506080880135925060a088013567ffffffffffffffff8111156136b157600080fd5b6136bd8a828b016130f1565b989b979a50959850939692959293505050565b600081518084526136e8816020860160208601613bce565b601f01601f19169290920160200192915050565b6001600160a01b039390931683526020830191909152604082015260600190565b60018060a01b038816815286602082015285604082015284606082015283608082015260c060a08201528160c0820152818360e0830137600081830160e090810191909152601f909201601f191601019695505050505050565b60018060a01b03881681528660208201528560408201528460608201528360808201528260a082015260e060c082015260006137b660e08301846136d0565b9998505050505050505050565b600061010060018060a01b038b1683528960208401528860408401528760608401528660808401528560a08401528460c08401528060e0840152613809818401856136d0565b9b9a5050505050505050505050565b60208082526027908201527f4d696e74696e67204d61726b6574706c6163653a20496e737566696369656e746040820152662046756e64732160c81b606082015260800190565b6020808252604a908201527f4d696e74696e67204d61726b6574706c6163653a20416e206f6666657220616c60408201527f72656164792065786973747320666f72207468697320636f6e747261637420616060820152691b99081c1c9bd91d58dd60b21b608082015260a00190565b602080825260409082018190527f4d696e74696e67204d61726b6574706c6163653a204f6666657227732072616e908201527f6765732073686f756c642068617665207468652073616d65206c656e67746821606082015260800190565b60208082526023908201527f4d696e74696e67204d61726b6574706c6163653a20496e76616c69642072616e60408201526267652160e81b606082015260800190565b6020808252603e908201527f4d696e74696e67204d61726b6574706c6163653a20546f6b656e20646f65736e60408201527f27742062656c6f6e6720696e2074686174206f666665722072616e6765210000606082015260800190565b6020808252818101527f4f776e61626c653a2063616c6c6572206973206e6f7420746865206f776e6572604082015260600190565b6020808252602e908201527f4d696e74696e67204d61726b6574706c6163653a20496e76616c69642050726f60408201526d647563742053656c65637465642160901b606082015260800190565b6000808335601e19843603018112613a6757600080fd5b83018035915067ffffffffffffffff821115613a8257600080fd5b60200191503681900382131561301857600080fd5b604051601f8201601f1916810167ffffffffffffffff81118282101715613ac057613ac0613c93565b604052919050565b600067ffffffffffffffff821115613ae257613ae2613c93565b5060051b60200190565b600067ffffffffffffffff821115613b0657613b06613c93565b50601f01601f191660200190565b600061ffff808316818516808303821115613b3157613b31613c67565b01949350505050565b60008219821115613b4d57613b4d613c67565b500190565b600082613b6f57634e487b7160e01b600052601260045260246000fd5b500490565b6000816000190483118215151615613b8e57613b8e613c67565b500290565b600062ffffff83811690831681811015613baf57613baf613c67565b039392505050565b600082821015613bc957613bc9613c67565b500390565b60005b83811015613be9578181015183820152602001613bd1565b83811115612d185750506000910152565b600081613c0957613c09613c67565b506000190190565b600181811c90821680613c2557607f821691505b60208210811415613c4657634e487b7160e01b600052602260045260246000fd5b50919050565b6000600019821415613c6057613c60613c67565b5060010190565b634e487b7160e01b600052601160045260246000fd5b634e487b7160e01b600052603260045260246000fd5b634e487b7160e01b600052604160045260246000fd5b6001600160a01b0381168114612bc957600080fdfea2646970667358221220711517afafc3dbc9b024614653cef289fba7da763d169781e6ecae53b0201fa064736f6c63430008070033",
  "linkReferences": {},
  "deployedLinkReferences": {}
}