{
  "address": "0xf3e558A6E1541943e15DB7fAE935dDB03815ad56",
  "abi": [
    {
      "inputs": [
        {
          "internalType": "uint256",
          "name": "value",
          "type": "uint256"
        },
        {
          "internalType": "uint256",
          "name": "length",
          "type": "uint256"
        }
      ],
      "name": "StringsInsufficientHexLength",
      "type": "error"
    },
    {
      "anonymous": false,
      "inputs": [
        {
          "indexed": true,
          "internalType": "bytes32",
          "name": "role",
          "type": "bytes32"
        },
        {
          "indexed": true,
          "internalType": "bytes32",
          "name": "previousAdminRole",
          "type": "bytes32"
        },
        {
          "indexed": true,
          "internalType": "bytes32",
          "name": "newAdminRole",
          "type": "bytes32"
        }
      ],
      "name": "RoleAdminChanged",
      "type": "event"
    },
    {
      "anonymous": false,
      "inputs": [
        {
          "indexed": true,
          "internalType": "bytes32",
          "name": "role",
          "type": "bytes32"
        },
        {
          "indexed": true,
          "internalType": "address",
          "name": "account",
          "type": "address"
        },
        {
          "indexed": true,
          "internalType": "address",
          "name": "sender",
          "type": "address"
        }
      ],
      "name": "RoleGranted",
      "type": "event"
    },
    {
      "anonymous": false,
      "inputs": [
        {
          "indexed": true,
          "internalType": "bytes32",
          "name": "role",
          "type": "bytes32"
        },
        {
          "indexed": true,
          "internalType": "address",
          "name": "account",
          "type": "address"
        },
        {
          "indexed": true,
          "internalType": "address",
          "name": "sender",
          "type": "address"
        }
      ],
      "name": "RoleRevoked",
      "type": "event"
    },
    {
      "anonymous": false,
      "inputs": [
        {
          "indexed": false,
          "internalType": "address",
          "name": "user",
          "type": "address"
        },
        {
          "indexed": false,
          "internalType": "address",
          "name": "token",
          "type": "address"
        },
        {
          "indexed": false,
          "internalType": "uint256",
          "name": "amount",
          "type": "uint256"
        }
      ],
      "name": "WithdrewPoints",
      "type": "event"
    },
    {
      "inputs": [],
      "name": "ADMINISTRATOR",
      "outputs": [
        {
          "internalType": "bytes32",
          "name": "",
          "type": "bytes32"
        }
      ],
      "stateMutability": "view",
      "type": "function"
    },
    {
      "inputs": [],
      "name": "DEFAULT_ADMIN_ROLE",
      "outputs": [
        {
          "internalType": "bytes32",
          "name": "",
          "type": "bytes32"
        }
      ],
      "stateMutability": "view",
      "type": "function"
    },
    {
      "inputs": [],
      "name": "WITHDRAW_SIGNER",
      "outputs": [
        {
          "internalType": "bytes32",
          "name": "",
          "type": "bytes32"
        }
      ],
      "stateMutability": "view",
      "type": "function"
    },
    {
      "inputs": [
        {
          "internalType": "bytes32",
          "name": "role",
          "type": "bytes32"
        }
      ],
      "name": "getRoleAdmin",
      "outputs": [
        {
          "internalType": "bytes32",
          "name": "",
          "type": "bytes32"
        }
      ],
      "stateMutability": "view",
      "type": "function"
    },
    {
      "inputs": [
        {
          "internalType": "bytes32",
          "name": "role",
          "type": "bytes32"
        },
        {
          "internalType": "uint256",
          "name": "index",
          "type": "uint256"
        }
      ],
      "name": "getRoleMember",
      "outputs": [
        {
          "internalType": "address",
          "name": "",
          "type": "address"
        }
      ],
      "stateMutability": "view",
      "type": "function"
    },
    {
      "inputs": [
        {
          "internalType": "bytes32",
          "name": "role",
          "type": "bytes32"
        }
      ],
      "name": "getRoleMemberCount",
      "outputs": [
        {
          "internalType": "uint256",
          "name": "",
          "type": "uint256"
        }
      ],
      "stateMutability": "view",
      "type": "function"
    },
    {
      "inputs": [
        {
          "internalType": "address",
          "name": "receiver",
          "type": "address"
        },
        {
          "internalType": "address",
          "name": "token",
          "type": "address"
        },
        {
          "internalType": "uint256",
          "name": "amount",
          "type": "uint256"
        }
      ],
      "name": "getWithdrawHash",
      "outputs": [
        {
          "internalType": "bytes32",
          "name": "",
          "type": "bytes32"
        }
      ],
      "stateMutability": "view",
      "type": "function"
    },
    {
      "inputs": [
        {
          "internalType": "bytes32",
          "name": "role",
          "type": "bytes32"
        },
        {
          "internalType": "address",
          "name": "account",
          "type": "address"
        }
      ],
      "name": "grantRole",
      "outputs": [],
      "stateMutability": "nonpayable",
      "type": "function"
    },
    {
      "inputs": [
        {
          "internalType": "bytes32",
          "name": "role",
          "type": "bytes32"
        },
        {
          "internalType": "address",
          "name": "account",
          "type": "address"
        }
      ],
      "name": "hasRole",
      "outputs": [
        {
          "internalType": "bool",
          "name": "",
          "type": "bool"
        }
      ],
      "stateMutability": "view",
      "type": "function"
    },
    {
      "inputs": [
        {
          "internalType": "bytes32",
          "name": "role",
          "type": "bytes32"
        },
        {
          "internalType": "address",
          "name": "account",
          "type": "address"
        }
      ],
      "name": "renounceRole",
      "outputs": [],
      "stateMutability": "nonpayable",
      "type": "function"
    },
    {
      "inputs": [
        {
          "internalType": "bytes32",
          "name": "role",
          "type": "bytes32"
        },
        {
          "internalType": "address",
          "name": "account",
          "type": "address"
        }
      ],
      "name": "revokeRole",
      "outputs": [],
      "stateMutability": "nonpayable",
      "type": "function"
    },
    {
      "inputs": [
        {
          "internalType": "uint256",
          "name": "timeInSeconds",
          "type": "uint256"
        }
      ],
      "name": "setWithdrawTimeLimit",
      "outputs": [],
      "stateMutability": "nonpayable",
      "type": "function"
    },
    {
      "inputs": [
        {
          "internalType": "uint256",
          "name": "amount",
          "type": "uint256"
        },
        {
          "internalType": "bytes",
          "name": "signature",
          "type": "bytes"
        }
      ],
      "name": "withdraw",
      "outputs": [],
      "stateMutability": "nonpayable",
      "type": "function"
    }
  ],
  "transactionHash": "0x8d6d663abb7c92d736216d5433fd152e9c69d8b38895413fdbe26ceeef53d3f3",
  "args": [],
  "numDeployments": 1,
  "solcInputHash": "044f863d67f7fb0ad11e54e0c46f0a37",
  "bytecode": "0x6080604052348015600f57600080fd5b5061117d8061001f6000396000f3fe608060405234801561001057600080fd5b50600436106100cf5760003560e01c806381e7c3901161008c578063a217fddf11610066578063a217fddf146101d0578063ca15c873146101d8578063d547741f146101eb578063fa2edf10146101fe57600080fd5b806381e7c3901461016f5780639010d07c1461018257806391d14854146101ad57600080fd5b8063030ba25d146100d457806303aac99f146100e9578063248a9ca3146100fc5780632f2ff15d1461012257806336568abe1461013557806359fe727914610148575b600080fd5b6100e76100e2366004610de0565b610225565b005b6100e76100f7366004610e9b565b6104d5565b61010f61010a366004610e9b565b610525565b6040519081526020015b60405180910390f35b6100e7610130366004610ed0565b610547565b6100e7610143366004610ed0565b610569565b61010f7f1959792afc6b020af87e178d7b19fcc140aca47290ef021bbdb58aa0b70c0b9f81565b61010f61017d366004610efc565b6105e7565b610195610190366004610f38565b610727565b6040516001600160a01b039091168152602001610119565b6101c06101bb366004610ed0565b610755565b6040519015158152602001610119565b61010f600081565b61010f6101e6366004610e9b565b61078d565b6100e76101f9366004610ed0565b6107b1565b61010f7f8a43fb683ea3ec35449b33dd7e81508331a13bd722eaa8ce13ba29cc60084d5681565b7f3178d75a97455c722bbe6e3619364b9b8f446a5900d6fbcc8d92ea722276883e547f3178d75a97455c722bbe6e3619364b9b8f446a5900d6fbcc8d92ea722276883a906000906102819033906001600160a01b0316866105e7565b905060006102dc826040517f19457468657265756d205369676e6564204d6573736167653a0a3332000000006020820152603c8101829052600090605c01604051602081830303815290604052805190602001209050919050565b905061030c7f8a43fb683ea3ec35449b33dd7e81508331a13bd722eaa8ce13ba29cc60084d566101bb83876107ce565b61036d5760405162461bcd60e51b815260206004820152602760248201527f506f696e747348616e646c65723a20496e76616c6964207769746864726177206044820152661c995c5d595cdd60ca1b60648201526084015b60405180910390fd5b3360009081526005840160205260409020548511156103e15760405162461bcd60e51b815260206004820152602a60248201527f506f696e747348616e646c65723a20496e73756666696369656e7420706f696e60448201526974732062616c616e636560b01b6064820152608401610364565b33600090815260058401602052604081208054879290610402908490610f70565b909155505060048381015460405163a9059cbb60e01b81523392810192909252602482018790526001600160a01b03169063a9059cbb906044016020604051808303816000875af115801561045b573d6000803e3d6000fd5b505050506040513d601f19601f8201168201806040525081019061047f9190610f83565b506004830154604080513381526001600160a01b03909216602083015281018690527f49313b10a2817fbb91a5ab98bce6e52d5763a85196de40d240fe413bbf0b06809060600160405180910390a15050505050565b7f1959792afc6b020af87e178d7b19fcc140aca47290ef021bbdb58aa0b70c0b9f610500813361084d565b507f3178d75a97455c722bbe6e3619364b9b8f446a5900d6fbcc8d92ea722276884155565b6000908152600080516020611108833981519152602052604090206001015490565b61055082610525565b61055a813361084d565b61056483836108b1565b505050565b6001600160a01b03811633146105d95760405162461bcd60e51b815260206004820152602f60248201527f416363657373436f6e74726f6c3a2063616e206f6e6c792072656e6f756e636560448201526e103937b632b9903337b91039b2b63360891b6064820152608401610364565b6105e38282610948565b5050565b6001600160a01b03831660009081527f3178d75a97455c722bbe6e3619364b9b8f446a5900d6fbcc8d92ea722276883f60205260408120547f3178d75a97455c722bbe6e3619364b9b8f446a5900d6fbcc8d92ea722276883a908311156106a05760405162461bcd60e51b815260206004820152602760248201527f506f696e747357697468647261773a20496e76616c696420776974686472617760448201526608185b5bdd5b9d60ca1b6064820152608401610364565b6001600160a01b03851660009081526005820160205260409020548590859085906106c96109dd565b6040516bffffffffffffffffffffffff19606096871b811660208301529490951b909316603485015260488401919091526068830152608882015260a801604051602081830303815290604052805190602001209150509392505050565b60008281526000805160206111288339815191526020526040812061074c9083610a2a565b90505b92915050565b6000918252600080516020611108833981519152602090815260408084206001600160a01b0393909316845291905290205460ff1690565b60008181526000805160206111288339815191526020526040812061074f90610a36565b6107ba82610525565b6107c4813361084d565b6105648383610948565b6000806000806107dd85610a40565b6040805160008152602081018083528b905260ff8316918101919091526060810184905260808101839052929550909350915060019060a0016020604051602081039080840390855afa158015610838573d6000803e3d6000fd5b5050604051601f190151979650505050505050565b6108578282610755565b6105e35761086f816001600160a01b03166014610ab4565b61087a836020610ab4565b60405160200161088b929190610fd0565b60408051601f198184030181529082905262461bcd60e51b825261036491600401611045565b6108bb8282610755565b6105e3576000828152600080516020611108833981519152602090815260408083206001600160a01b0385168085529252808320805460ff1916600117905551339285917f2f8788117e7eff1d82e926ec794901d17c78024a50270940304540a733656f0d9190a46000828152600080516020611128833981519152602052604090206105649082610c34565b6109528282610755565b156105e3576000828152600080516020611108833981519152602090815260408083206001600160a01b0385168085529252808320805460ff1916905551339285917ff6391f5c32d9c69d2a47ea670b442974b53935d1edc7fd64eb21e047a839171b9190a46000828152600080516020611128833981519152602052604090206105649082610c49565b600060647f3178d75a97455c722bbe6e3619364b9b8f446a5900d6fbcc8d92ea722276883a60070154610a109042611078565b610a1a919061108b565b610a259060646110ad565b905090565b600061074c8383610c5e565b600061074f825490565b60008060008351604114610a965760405162461bcd60e51b815260206004820152601860248201527f696e76616c6964207369676e6174757265206c656e67746800000000000000006044820152606401610364565b50505060208101516040820151606090920151909260009190911a90565b6060826000610ac48460026110ad565b610acf906002611078565b67ffffffffffffffff811115610ae757610ae7610dca565b6040519080825280601f01601f191660200182016040528015610b11576020820181803683370190505b509050600360fc1b81600081518110610b2c57610b2c6110c4565b60200101906001600160f81b031916908160001a905350600f60fb1b81600181518110610b5b57610b5b6110c4565b60200101906001600160f81b031916908160001a9053506000610b7f8560026110ad565b610b8a906001611078565b90505b6001811115610c02576f181899199a1a9b1b9c1cb0b131b232b360811b83600f1660108110610bbe57610bbe6110c4565b1a60f81b828281518110610bd457610bd46110c4565b60200101906001600160f81b031916908160001a90535060049290921c91610bfb816110da565b9050610b8d565b508115610c2c5760405163e22e27eb60e01b81526004810186905260248101859052604401610364565b949350505050565b600061074c836001600160a01b038416610c88565b600061074c836001600160a01b038416610cd7565b6000826000018281548110610c7557610c756110c4565b9060005260206000200154905092915050565b6000818152600183016020526040812054610ccf5750815460018181018455600084815260208082209093018490558454848252828601909352604090209190915561074f565b50600061074f565b60008181526001830160205260408120548015610dc0576000610cfb600183610f70565b8554909150600090610d0f90600190610f70565b9050808214610d74576000866000018281548110610d2f57610d2f6110c4565b9060005260206000200154905080876000018481548110610d5257610d526110c4565b6000918252602080832090910192909255918252600188019052604090208390555b8554869080610d8557610d856110f1565b60019003818190600052602060002001600090559055856001016000868152602001908152602001600020600090556001935050505061074f565b600091505061074f565b634e487b7160e01b600052604160045260246000fd5b60008060408385031215610df357600080fd5b82359150602083013567ffffffffffffffff80821115610e1257600080fd5b818501915085601f830112610e2657600080fd5b813581811115610e3857610e38610dca565b604051601f8201601f19908116603f01168101908382118183101715610e6057610e60610dca565b81604052828152886020848701011115610e7957600080fd5b8260208601602083013760006020848301015280955050505050509250929050565b600060208284031215610ead57600080fd5b5035919050565b80356001600160a01b0381168114610ecb57600080fd5b919050565b60008060408385031215610ee357600080fd5b82359150610ef360208401610eb4565b90509250929050565b600080600060608486031215610f1157600080fd5b610f1a84610eb4565b9250610f2860208501610eb4565b9150604084013590509250925092565b60008060408385031215610f4b57600080fd5b50508035926020909101359150565b634e487b7160e01b600052601160045260246000fd5b8181038181111561074f5761074f610f5a565b600060208284031215610f9557600080fd5b81518015158114610fa557600080fd5b9392505050565b60005b83811015610fc7578181015183820152602001610faf565b50506000910152565b7f416363657373436f6e74726f6c3a206163636f756e7420000000000000000000815260008351611008816017850160208801610fac565b7001034b99036b4b9b9b4b733903937b6329607d1b6017918401918201528351611039816028840160208801610fac565b01602801949350505050565b6020815260008251806020840152611064816040850160208701610fac565b601f01601f19169190910160400192915050565b8082018082111561074f5761074f610f5a565b6000826110a857634e487b7160e01b600052601260045260246000fd5b500490565b808202811582820484141761074f5761074f610f5a565b634e487b7160e01b600052603260045260246000fd5b6000816110e9576110e9610f5a565b506000190190565b634e487b7160e01b600052603160045260246000fdfe4f4f658137f4e10317e1a22624c2b114af7563a20fb2e3444ae2ac2342d457d04f4f658137f4e10317e1a22624c2b114af7563a20fb2e3444ae2ac2342d457d1a2646970667358221220a649bd07ce28ebf505ba33ea1602e779b71d0fbd5a3fab5a2d4de04fcd88a19864736f6c63430008190033",
  "devdoc": {
    "errors": {
      "StringsInsufficientHexLength(uint256,uint256)": [
        {
          "details": "The `value` string doesn't fit in the specified `length`."
        }
      ]
    },
    "kind": "dev",
    "methods": {},
    "title": "Withdraw logic for the points system",
    "version": 1
  },
  "userdoc": {
    "kind": "user",
    "methods": {},
    "version": 1
  },
  "storageLayout": {
    "storage": [],
    "types": null
  }
}