{
  "address": "0x99521D5095eF077239419DF7c160090e8B23297d",
  "abi": [
    {
      "anonymous": false,
      "inputs": [
        {
          "indexed": true,
          "internalType": "bytes32",
          "name": "role",
          "type": "bytes32"
        },
        {
          "indexed": true,
          "internalType": "bytes32",
          "name": "previousAdminRole",
          "type": "bytes32"
        },
        {
          "indexed": true,
          "internalType": "bytes32",
          "name": "newAdminRole",
          "type": "bytes32"
        }
      ],
      "name": "RoleAdminChanged",
      "type": "event"
    },
    {
      "anonymous": false,
      "inputs": [
        {
          "indexed": true,
          "internalType": "bytes32",
          "name": "role",
          "type": "bytes32"
        },
        {
          "indexed": true,
          "internalType": "address",
          "name": "account",
          "type": "address"
        },
        {
          "indexed": true,
          "internalType": "address",
          "name": "sender",
          "type": "address"
        }
      ],
      "name": "RoleGranted",
      "type": "event"
    },
    {
      "anonymous": false,
      "inputs": [
        {
          "indexed": true,
          "internalType": "bytes32",
          "name": "role",
          "type": "bytes32"
        },
        {
          "indexed": true,
          "internalType": "address",
          "name": "account",
          "type": "address"
        },
        {
          "indexed": true,
          "internalType": "address",
          "name": "sender",
          "type": "address"
        }
      ],
      "name": "RoleRevoked",
      "type": "event"
    },
    {
      "anonymous": false,
      "inputs": [
        {
          "indexed": false,
          "internalType": "address",
          "name": "user",
          "type": "address"
        },
        {
          "indexed": false,
          "internalType": "address",
          "name": "token",
          "type": "address"
        },
        {
          "indexed": false,
          "internalType": "uint256",
          "name": "amount",
          "type": "uint256"
        }
      ],
      "name": "WithdrewCredit",
      "type": "event"
    },
    {
      "inputs": [],
      "name": "ADMINISTRATOR",
      "outputs": [
        {
          "internalType": "bytes32",
          "name": "",
          "type": "bytes32"
        }
      ],
      "stateMutability": "view",
      "type": "function"
    },
    {
      "inputs": [],
      "name": "ALLOWED_ERC777",
      "outputs": [
        {
          "internalType": "bytes32",
          "name": "",
          "type": "bytes32"
        }
      ],
      "stateMutability": "view",
      "type": "function"
    },
    {
      "inputs": [],
      "name": "DEFAULT_ADMIN_ROLE",
      "outputs": [
        {
          "internalType": "bytes32",
          "name": "",
          "type": "bytes32"
        }
      ],
      "stateMutability": "view",
      "type": "function"
    },
    {
      "inputs": [],
      "name": "WITHDRAW_SIGNER",
      "outputs": [
        {
          "internalType": "bytes32",
          "name": "",
          "type": "bytes32"
        }
      ],
      "stateMutability": "view",
      "type": "function"
    },
    {
      "inputs": [
        {
          "internalType": "bytes32",
          "name": "role",
          "type": "bytes32"
        }
      ],
      "name": "getRoleAdmin",
      "outputs": [
        {
          "internalType": "bytes32",
          "name": "",
          "type": "bytes32"
        }
      ],
      "stateMutability": "view",
      "type": "function"
    },
    {
      "inputs": [
        {
          "internalType": "bytes32",
          "name": "role",
          "type": "bytes32"
        },
        {
          "internalType": "uint256",
          "name": "index",
          "type": "uint256"
        }
      ],
      "name": "getRoleMember",
      "outputs": [
        {
          "internalType": "address",
          "name": "",
          "type": "address"
        }
      ],
      "stateMutability": "view",
      "type": "function"
    },
    {
      "inputs": [
        {
          "internalType": "bytes32",
          "name": "role",
          "type": "bytes32"
        }
      ],
      "name": "getRoleMemberCount",
      "outputs": [
        {
          "internalType": "uint256",
          "name": "",
          "type": "uint256"
        }
      ],
      "stateMutability": "view",
      "type": "function"
    },
    {
      "inputs": [
        {
          "internalType": "address",
          "name": "receiver",
          "type": "address"
        },
        {
          "internalType": "address",
          "name": "erc777Address",
          "type": "address"
        },
        {
          "internalType": "uint256",
          "name": "amount",
          "type": "uint256"
        }
      ],
      "name": "getWithdrawHash",
      "outputs": [
        {
          "internalType": "bytes32",
          "name": "",
          "type": "bytes32"
        }
      ],
      "stateMutability": "view",
      "type": "function"
    },
    {
      "inputs": [
        {
          "internalType": "bytes32",
          "name": "role",
          "type": "bytes32"
        },
        {
          "internalType": "address",
          "name": "account",
          "type": "address"
        }
      ],
      "name": "grantRole",
      "outputs": [],
      "stateMutability": "nonpayable",
      "type": "function"
    },
    {
      "inputs": [
        {
          "internalType": "bytes32",
          "name": "role",
          "type": "bytes32"
        },
        {
          "internalType": "address",
          "name": "account",
          "type": "address"
        }
      ],
      "name": "hasRole",
      "outputs": [
        {
          "internalType": "bool",
          "name": "",
          "type": "bool"
        }
      ],
      "stateMutability": "view",
      "type": "function"
    },
    {
      "inputs": [
        {
          "internalType": "bytes32",
          "name": "role",
          "type": "bytes32"
        },
        {
          "internalType": "address",
          "name": "account",
          "type": "address"
        }
      ],
      "name": "renounceRole",
      "outputs": [],
      "stateMutability": "nonpayable",
      "type": "function"
    },
    {
      "inputs": [
        {
          "internalType": "bytes32",
          "name": "role",
          "type": "bytes32"
        },
        {
          "internalType": "address",
          "name": "account",
          "type": "address"
        }
      ],
      "name": "revokeRole",
      "outputs": [],
      "stateMutability": "nonpayable",
      "type": "function"
    },
    {
      "inputs": [
        {
          "internalType": "uint256",
          "name": "timeInSeconds",
          "type": "uint256"
        }
      ],
      "name": "setWithdrawTimeLimit",
      "outputs": [],
      "stateMutability": "nonpayable",
      "type": "function"
    },
    {
      "inputs": [
        {
          "internalType": "address",
          "name": "erc777Address",
          "type": "address"
        },
        {
          "internalType": "uint256",
          "name": "amount",
          "type": "uint256"
        },
        {
          "internalType": "bytes",
          "name": "signature",
          "type": "bytes"
        }
      ],
      "name": "withdraw",
      "outputs": [],
      "stateMutability": "nonpayable",
      "type": "function"
    }
  ],
  "transactionHash": "0xd7ea2f3cc4b9a1a1e94022f15eda4f4911c0debfd21e7fcd05661da8f1abcf6f",
  "args": [],
  "numDeployments": 6,
  "solcInputHash": "f2fbba04e7e6f86243301cfb5e363df1",
  "bytecode": "0x608060405234801561001057600080fd5b50611316806100206000396000f3fe608060405234801561001057600080fd5b50600436106100ea5760003560e01c80639010d07c1161008c578063ca15c87311610066578063ca15c873146101f3578063d547741f14610206578063d7ccbefe14610219578063fa2edf101461024057600080fd5b80639010d07c1461019d57806391d14854146101c8578063a217fddf146101eb57600080fd5b806331f09265116100c857806331f092651461013d57806336568abe1461015057806359fe72791461016357806381e7c3901461018a57600080fd5b806303aac99f146100ef578063248a9ca3146101045780632f2ff15d1461012a575b600080fd5b6101026100fd366004610f7c565b610267565b005b610117610112366004610f7c565b6102b7565b6040519081526020015b60405180910390f35b610102610138366004610fb1565b6102d9565b61010261014b366004610ff3565b6102fb565b61010261015e366004610fb1565b6106ea565b6101177f5feb4fc8353744df88c070fec2ce0b260201a0f48c15e9c30b74c6772f05987e81565b6101176101983660046110be565b610768565b6101b06101ab3660046110fa565b6108a1565b6040516001600160a01b039091168152602001610121565b6101db6101d6366004610fb1565b6108cf565b6040519015158152602001610121565b610117600081565b610117610201366004610f7c565b610907565b610102610214366004610fb1565b61092b565b6101177f632cf005d591a00d863083f41da4ebaf8627023b95d6248039a4445218150dc281565b6101177fafba2f79a991a75cf9fb7e6662fd74474d42a18ba3dd347d244fd2e438dfd95b81565b7f5feb4fc8353744df88c070fec2ce0b260201a0f48c15e9c30b74c6772f05987e6102928133610948565b507f4450215f052c8f729ef154acb1b5bb971dcf3a8c302f328f6a0a91077b170fb755565b60009081526000805160206112a1833981519152602052604090206001015490565b6102e2826102b7565b6102ec8133610948565b6102f683836109ac565b505050565b6103257f632cf005d591a00d863083f41da4ebaf8627023b95d6248039a4445218150dc2846108cf565b6103825760405162461bcd60e51b8152602060048201526024808201527f43726564697448616e646c65723a20496e76616c696420746f6b656e206164646044820152637265737360e01b60648201526084015b60405180910390fd5b600061038f338585610768565b905060006103ea826040517f19457468657265756d205369676e6564204d6573736167653a0a3332000000006020820152603c8101829052600090605c01604051602081830303815290604052805190602001209050919050565b905061041a7fafba2f79a991a75cf9fb7e6662fd74474d42a18ba3dd347d244fd2e438dfd95b6101d68386610a43565b6104765760405162461bcd60e51b815260206004820152602760248201527f43726564697448616e646c65723a20496e76616c6964207769746864726177206044820152661c995c5d595cdd60ca1b6064820152608401610379565b3360009081527f4450215f052c8f729ef154acb1b5bb971dcf3a8c302f328f6a0a91077b170fb660205260409020547f4450215f052c8f729ef154acb1b5bb971dcf3a8c302f328f6a0a91077b170fb59085111561052f5760405162461bcd60e51b815260206004820152603060248201527f43726564697448616e646c65723a20496e73756666696369656e74206f76657260448201526f616c6c20757365722062616c616e636560801b6064820152608401610379565b6001600160a01b0386166000908152602082815260408083203384529091529020548511156105b15760405162461bcd60e51b815260206004820152602860248201527f43726564697448616e646c65723a20496e73756666696369656e7420757365726044820152672062616c616e636560c01b6064820152608401610379565b336000908152600182016020526040812080548792906105d2908490611132565b90915550506001600160a01b03861660009081526020828152604080832033845290915281208054879290610608908490611132565b9091555050604051634decdde360e11b815233600482015260248101869052606060448201526014606482015273524149522043726564697420576974686472617760601b60848201526001600160a01b03871690639bd9bbc69060a401600060405180830381600087803b15801561068057600080fd5b505af1158015610694573d6000803e3d6000fd5b5050604080513381526001600160a01b038a1660208201529081018890527fb77a0d3da4845f4f5b2c240ac7cc31644f332f637a22a1ac2389ca37ce536da89250606001905060405180910390a1505050505050565b6001600160a01b038116331461075a5760405162461bcd60e51b815260206004820152602f60248201527f416363657373436f6e74726f6c3a2063616e206f6e6c792072656e6f756e636560448201526e103937b632b9903337b91039b2b63360891b6064820152608401610379565b6107648282610ac2565b5050565b6000807f4450215f052c8f729ef154acb1b5bb971dcf3a8c302f328f6a0a91077b170fb56001600160a01b03808616600090815260208381526040808320938a16835292905220549091508311156108115760405162461bcd60e51b815260206004820152602660248201527f43726564697448616e646c65723a20496e76616c696420776974686472617720604482015265185b5bdd5b9d60d21b6064820152608401610379565b6001600160a01b0380851660009081526020838152604080832093891683529290522054859085908590610843610b57565b6040516bffffffffffffffffffffffff19606096871b811660208301529490951b909316603485015260488401919091526068830152608882015260a801604051602081830303815290604052805190602001209150509392505050565b60008281526000805160206112c1833981519152602052604081206108c69083610bc0565b90505b92915050565b60009182526000805160206112a1833981519152602090815260408084206001600160a01b0393909316845291905290205460ff1690565b60008181526000805160206112c1833981519152602052604081206108c990610bcc565b610934826102b7565b61093e8133610948565b6102f68383610ac2565b61095282826108cf565b6107645761096a816001600160a01b03166014610bd6565b610975836020610bd6565b604051602001610986929190611169565b60408051601f198184030181529082905262461bcd60e51b8252610379916004016111de565b6109b682826108cf565b6107645760008281526000805160206112a1833981519152602090815260408083206001600160a01b0385168085529252808320805460ff1916600117905551339285917f2f8788117e7eff1d82e926ec794901d17c78024a50270940304540a733656f0d9190a460008281526000805160206112c1833981519152602052604090206102f69082610d72565b600080600080610a5285610d87565b6040805160008152602081018083528b905260ff8316918101919091526060810184905260808101839052929550909350915060019060a0016020604051602081039080840390855afa158015610aad573d6000803e3d6000fd5b5050604051601f190151979650505050505050565b610acc82826108cf565b156107645760008281526000805160206112a1833981519152602090815260408083206001600160a01b0385168085529252808320805460ff1916905551339285917ff6391f5c32d9c69d2a47ea670b442974b53935d1edc7fd64eb21e047a839171b9190a460008281526000805160206112c1833981519152602052604090206102f69082610dfb565b60006064610b654282611211565b610b6f9190611224565b610b7a906064611246565b7f4450215f052c8f729ef154acb1b5bb971dcf3a8c302f328f6a0a91077b170fb754909150610ba94283611132565b1015610bbd57610bba606482611211565b90505b90565b60006108c68383610e10565b60006108c9825490565b60606000610be5836002611246565b610bf0906002611211565b67ffffffffffffffff811115610c0857610c08610fdd565b6040519080825280601f01601f191660200182016040528015610c32576020820181803683370190505b509050600360fc1b81600081518110610c4d57610c4d61125d565b60200101906001600160f81b031916908160001a905350600f60fb1b81600181518110610c7c57610c7c61125d565b60200101906001600160f81b031916908160001a9053506000610ca0846002611246565b610cab906001611211565b90505b6001811115610d23576f181899199a1a9b1b9c1cb0b131b232b360811b85600f1660108110610cdf57610cdf61125d565b1a60f81b828281518110610cf557610cf561125d565b60200101906001600160f81b031916908160001a90535060049490941c93610d1c81611273565b9050610cae565b5083156108c65760405162461bcd60e51b815260206004820181905260248201527f537472696e67733a20686578206c656e67746820696e73756666696369656e746044820152606401610379565b60006108c6836001600160a01b038416610e3a565b60008060008351604114610ddd5760405162461bcd60e51b815260206004820152601860248201527f696e76616c6964207369676e6174757265206c656e67746800000000000000006044820152606401610379565b50505060208101516040820151606090920151909260009190911a90565b60006108c6836001600160a01b038416610e89565b6000826000018281548110610e2757610e2761125d565b9060005260206000200154905092915050565b6000818152600183016020526040812054610e81575081546001818101845560008481526020808220909301849055845484825282860190935260409020919091556108c9565b5060006108c9565b60008181526001830160205260408120548015610f72576000610ead600183611132565b8554909150600090610ec190600190611132565b9050818114610f26576000866000018281548110610ee157610ee161125d565b9060005260206000200154905080876000018481548110610f0457610f0461125d565b6000918252602080832090910192909255918252600188019052604090208390555b8554869080610f3757610f3761128a565b6001900381819060005260206000200160009055905585600101600086815260200190815260200160002060009055600193505050506108c9565b60009150506108c9565b600060208284031215610f8e57600080fd5b5035919050565b80356001600160a01b0381168114610fac57600080fd5b919050565b60008060408385031215610fc457600080fd5b82359150610fd460208401610f95565b90509250929050565b634e487b7160e01b600052604160045260246000fd5b60008060006060848603121561100857600080fd5b61101184610f95565b925060208401359150604084013567ffffffffffffffff8082111561103557600080fd5b818601915086601f83011261104957600080fd5b81358181111561105b5761105b610fdd565b604051601f8201601f19908116603f0116810190838211818310171561108357611083610fdd565b8160405282815289602084870101111561109c57600080fd5b8260208601602083013760006020848301015280955050505050509250925092565b6000806000606084860312156110d357600080fd5b6110dc84610f95565b92506110ea60208501610f95565b9150604084013590509250925092565b6000806040838503121561110d57600080fd5b50508035926020909101359150565b634e487b7160e01b600052601160045260246000fd5b818103818111156108c9576108c961111c565b60005b83811015611160578181015183820152602001611148565b50506000910152565b7f416363657373436f6e74726f6c3a206163636f756e74200000000000000000008152600083516111a1816017850160208801611145565b7001034b99036b4b9b9b4b733903937b6329607d1b60179184019182015283516111d2816028840160208801611145565b01602801949350505050565b60208152600082518060208401526111fd816040850160208701611145565b601f01601f19169190910160400192915050565b808201808211156108c9576108c961111c565b60008261124157634e487b7160e01b600052601260045260246000fd5b500490565b80820281158282048414176108c9576108c961111c565b634e487b7160e01b600052603260045260246000fd5b6000816112825761128261111c565b506000190190565b634e487b7160e01b600052603160045260246000fdfe4f4f658137f4e10317e1a22624c2b114af7563a20fb2e3444ae2ac2342d457d04f4f658137f4e10317e1a22624c2b114af7563a20fb2e3444ae2ac2342d457d1a26469706673582212208a70ecbe07dfe2c0c87a6b967ad216243ed4ccd407cbd7a759328c36549798fa64736f6c63430008130033",
  "devdoc": {
    "kind": "dev",
    "methods": {},
    "title": "Withdraw logic for the credit system",
    "version": 1
  },
  "userdoc": {
    "kind": "user",
    "methods": {},
    "notice": "Uses the ERC777 interface to transfer tokens back to the users",
    "version": 1
  },
  "storageLayout": {
    "storage": [],
    "types": null
  }
}