{
  "address": "0x02d583542D9Dd3A101DBfA0c126B1Bcb29b6cE26",
  "abi": [
    {
      "anonymous": false,
      "inputs": [
        {
          "indexed": false,
          "internalType": "uint256",
          "name": "productIndex",
          "type": "uint256"
        },
        {
          "indexed": false,
          "internalType": "uint256",
          "name": "start",
          "type": "uint256"
        },
        {
          "indexed": false,
          "internalType": "uint256",
          "name": "end",
          "type": "uint256"
        },
        {
          "indexed": false,
          "internalType": "uint256",
          "name": "price",
          "type": "uint256"
        },
        {
          "indexed": false,
          "internalType": "uint256",
          "name": "tokensAllowed",
          "type": "uint256"
        },
        {
          "indexed": false,
          "internalType": "uint256",
          "name": "lockedTokens",
          "type": "uint256"
        },
        {
          "indexed": false,
          "internalType": "string",
          "name": "name",
          "type": "string"
        },
        {
          "indexed": false,
          "internalType": "uint256",
          "name": "rangeIndex",
          "type": "uint256"
        }
      ],
      "name": "CreatedRange",
      "type": "event"
    },
    {
      "anonymous": false,
      "inputs": [
        {
          "indexed": true,
          "internalType": "bytes32",
          "name": "role",
          "type": "bytes32"
        },
        {
          "indexed": true,
          "internalType": "bytes32",
          "name": "previousAdminRole",
          "type": "bytes32"
        },
        {
          "indexed": true,
          "internalType": "bytes32",
          "name": "newAdminRole",
          "type": "bytes32"
        }
      ],
      "name": "RoleAdminChanged",
      "type": "event"
    },
    {
      "anonymous": false,
      "inputs": [
        {
          "indexed": true,
          "internalType": "bytes32",
          "name": "role",
          "type": "bytes32"
        },
        {
          "indexed": true,
          "internalType": "address",
          "name": "account",
          "type": "address"
        },
        {
          "indexed": true,
          "internalType": "address",
          "name": "sender",
          "type": "address"
        }
      ],
      "name": "RoleGranted",
      "type": "event"
    },
    {
      "anonymous": false,
      "inputs": [
        {
          "indexed": true,
          "internalType": "bytes32",
          "name": "role",
          "type": "bytes32"
        },
        {
          "indexed": true,
          "internalType": "address",
          "name": "account",
          "type": "address"
        },
        {
          "indexed": true,
          "internalType": "address",
          "name": "sender",
          "type": "address"
        }
      ],
      "name": "RoleRevoked",
      "type": "event"
    },
    {
      "anonymous": false,
      "inputs": [
        {
          "indexed": true,
          "internalType": "uint256",
          "name": "rangeIndex",
          "type": "uint256"
        },
        {
          "indexed": false,
          "internalType": "uint256",
          "name": "from",
          "type": "uint256"
        },
        {
          "indexed": false,
          "internalType": "uint256",
          "name": "to",
          "type": "uint256"
        },
        {
          "indexed": false,
          "internalType": "uint256",
          "name": "lockedTokens",
          "type": "uint256"
        }
      ],
      "name": "TradingLocked",
      "type": "event"
    },
    {
      "anonymous": false,
      "inputs": [
        {
          "indexed": true,
          "internalType": "uint256",
          "name": "rangeIndex",
          "type": "uint256"
        },
        {
          "indexed": false,
          "internalType": "uint256",
          "name": "from",
          "type": "uint256"
        },
        {
          "indexed": false,
          "internalType": "uint256",
          "name": "to",
          "type": "uint256"
        }
      ],
      "name": "TradingUnlocked",
      "type": "event"
    },
    {
      "anonymous": false,
      "inputs": [
        {
          "indexed": false,
          "internalType": "uint256",
          "name": "rangeIndex",
          "type": "uint256"
        },
        {
          "indexed": false,
          "internalType": "string",
          "name": "name",
          "type": "string"
        },
        {
          "indexed": false,
          "internalType": "uint256",
          "name": "price",
          "type": "uint256"
        },
        {
          "indexed": false,
          "internalType": "uint256",
          "name": "tokensAllowed",
          "type": "uint256"
        },
        {
          "indexed": false,
          "internalType": "uint256",
          "name": "lockedTokens",
          "type": "uint256"
        }
      ],
      "name": "UpdatedRange",
      "type": "event"
    },
    {
      "inputs": [],
      "name": "CREATOR",
      "outputs": [
        {
          "internalType": "bytes32",
          "name": "",
          "type": "bytes32"
        }
      ],
      "stateMutability": "view",
      "type": "function"
    },
    {
      "inputs": [
        {
          "internalType": "uint256",
          "name": "productId_",
          "type": "uint256"
        },
        {
          "internalType": "uint256",
          "name": "rangeStart_",
          "type": "uint256"
        },
        {
          "internalType": "uint256",
          "name": "rangeEnd_",
          "type": "uint256"
        }
      ],
      "name": "canCreateRange",
      "outputs": [
        {
          "internalType": "bool",
          "name": "",
          "type": "bool"
        }
      ],
      "stateMutability": "view",
      "type": "function"
    },
    {
      "inputs": [
        {
          "internalType": "uint256",
          "name": "collectionId",
          "type": "uint256"
        },
        {
          "internalType": "uint256",
          "name": "rangeLength",
          "type": "uint256"
        },
        {
          "internalType": "uint256",
          "name": "price",
          "type": "uint256"
        },
        {
          "internalType": "uint256",
          "name": "tokensAllowed",
          "type": "uint256"
        },
        {
          "internalType": "uint256",
          "name": "lockedTokens",
          "type": "uint256"
        },
        {
          "internalType": "string",
          "name": "name",
          "type": "string"
        }
      ],
      "name": "createRange",
      "outputs": [],
      "stateMutability": "nonpayable",
      "type": "function"
    },
    {
      "inputs": [
        {
          "internalType": "uint256",
          "name": "collectionId",
          "type": "uint256"
        },
        {
          "components": [
            {
              "internalType": "uint256",
              "name": "rangeLength",
              "type": "uint256"
            },
            {
              "internalType": "uint256",
              "name": "price",
              "type": "uint256"
            },
            {
              "internalType": "uint256",
              "name": "tokensAllowed",
              "type": "uint256"
            },
            {
              "internalType": "uint256",
              "name": "lockedTokens",
              "type": "uint256"
            },
            {
              "internalType": "string",
              "name": "name",
              "type": "string"
            }
          ],
          "internalType": "struct RAIRRangesFacet.rangeData[]",
          "name": "data",
          "type": "tuple[]"
        }
      ],
      "name": "createRangeBatch",
      "outputs": [],
      "stateMutability": "nonpayable",
      "type": "function"
    },
    {
      "inputs": [
        {
          "internalType": "bytes32",
          "name": "role",
          "type": "bytes32"
        }
      ],
      "name": "getRoleAdmin",
      "outputs": [
        {
          "internalType": "bytes32",
          "name": "",
          "type": "bytes32"
        }
      ],
      "stateMutability": "view",
      "type": "function"
    },
    {
      "inputs": [
        {
          "internalType": "bytes32",
          "name": "role",
          "type": "bytes32"
        },
        {
          "internalType": "uint256",
          "name": "index",
          "type": "uint256"
        }
      ],
      "name": "getRoleMember",
      "outputs": [
        {
          "internalType": "address",
          "name": "",
          "type": "address"
        }
      ],
      "stateMutability": "view",
      "type": "function"
    },
    {
      "inputs": [
        {
          "internalType": "bytes32",
          "name": "role",
          "type": "bytes32"
        }
      ],
      "name": "getRoleMemberCount",
      "outputs": [
        {
          "internalType": "uint256",
          "name": "",
          "type": "uint256"
        }
      ],
      "stateMutability": "view",
      "type": "function"
    },
    {
      "inputs": [
        {
          "internalType": "bytes32",
          "name": "role",
          "type": "bytes32"
        },
        {
          "internalType": "address",
          "name": "account",
          "type": "address"
        }
      ],
      "name": "grantRole",
      "outputs": [],
      "stateMutability": "nonpayable",
      "type": "function"
    },
    {
      "inputs": [
        {
          "internalType": "bytes32",
          "name": "role",
          "type": "bytes32"
        },
        {
          "internalType": "address",
          "name": "account",
          "type": "address"
        }
      ],
      "name": "hasRole",
      "outputs": [
        {
          "internalType": "bool",
          "name": "",
          "type": "bool"
        }
      ],
      "stateMutability": "view",
      "type": "function"
    },
    {
      "inputs": [
        {
          "internalType": "uint256",
          "name": "rangeId",
          "type": "uint256"
        }
      ],
      "name": "isRangeLocked",
      "outputs": [
        {
          "internalType": "bool",
          "name": "",
          "type": "bool"
        }
      ],
      "stateMutability": "view",
      "type": "function"
    },
    {
      "inputs": [
        {
          "internalType": "uint256",
          "name": "collectionId",
          "type": "uint256"
        },
        {
          "internalType": "uint256",
          "name": "rangeIndex",
          "type": "uint256"
        }
      ],
      "name": "productRangeInfo",
      "outputs": [
        {
          "components": [
            {
              "internalType": "uint256",
              "name": "rangeStart",
              "type": "uint256"
            },
            {
              "internalType": "uint256",
              "name": "rangeEnd",
              "type": "uint256"
            },
            {
              "internalType": "uint256",
              "name": "tokensAllowed",
              "type": "uint256"
            },
            {
              "internalType": "uint256",
              "name": "mintableTokens",
              "type": "uint256"
            },
            {
              "internalType": "uint256",
              "name": "lockedTokens",
              "type": "uint256"
            },
            {
              "internalType": "uint256",
              "name": "rangePrice",
              "type": "uint256"
            },
            {
              "internalType": "string",
              "name": "rangeName",
              "type": "string"
            }
          ],
          "internalType": "struct range",
          "name": "data",
          "type": "tuple"
        }
      ],
      "stateMutability": "view",
      "type": "function"
    },
    {
      "inputs": [
        {
          "internalType": "uint256",
          "name": "rangeId",
          "type": "uint256"
        }
      ],
      "name": "rangeInfo",
      "outputs": [
        {
          "components": [
            {
              "internalType": "uint256",
              "name": "rangeStart",
              "type": "uint256"
            },
            {
              "internalType": "uint256",
              "name": "rangeEnd",
              "type": "uint256"
            },
            {
              "internalType": "uint256",
              "name": "tokensAllowed",
              "type": "uint256"
            },
            {
              "internalType": "uint256",
              "name": "mintableTokens",
              "type": "uint256"
            },
            {
              "internalType": "uint256",
              "name": "lockedTokens",
              "type": "uint256"
            },
            {
              "internalType": "uint256",
              "name": "rangePrice",
              "type": "uint256"
            },
            {
              "internalType": "string",
              "name": "rangeName",
              "type": "string"
            }
          ],
          "internalType": "struct range",
          "name": "data",
          "type": "tuple"
        },
        {
          "internalType": "uint256",
          "name": "productIndex",
          "type": "uint256"
        }
      ],
      "stateMutability": "view",
      "type": "function"
    },
    {
      "inputs": [
        {
          "internalType": "uint256",
          "name": "rangeIndex_",
          "type": "uint256"
        }
      ],
      "name": "rangeToProduct",
      "outputs": [
        {
          "internalType": "uint256",
          "name": "",
          "type": "uint256"
        }
      ],
      "stateMutability": "view",
      "type": "function"
    },
    {
      "inputs": [
        {
          "internalType": "bytes32",
          "name": "role",
          "type": "bytes32"
        },
        {
          "internalType": "address",
          "name": "account",
          "type": "address"
        }
      ],
      "name": "renounceRole",
      "outputs": [],
      "stateMutability": "nonpayable",
      "type": "function"
    },
    {
      "inputs": [
        {
          "internalType": "bytes32",
          "name": "role",
          "type": "bytes32"
        },
        {
          "internalType": "address",
          "name": "account",
          "type": "address"
        }
      ],
      "name": "revokeRole",
      "outputs": [],
      "stateMutability": "nonpayable",
      "type": "function"
    },
    {
      "inputs": [
        {
          "internalType": "uint256",
          "name": "rangeId",
          "type": "uint256"
        },
        {
          "internalType": "string",
          "name": "name",
          "type": "string"
        },
        {
          "internalType": "uint256",
          "name": "price_",
          "type": "uint256"
        },
        {
          "internalType": "uint256",
          "name": "tokensAllowed_",
          "type": "uint256"
        },
        {
          "internalType": "uint256",
          "name": "lockedTokens_",
          "type": "uint256"
        }
      ],
      "name": "updateRange",
      "outputs": [],
      "stateMutability": "nonpayable",
      "type": "function"
    }
  ],
  "transactionHash": "0x8e9d83bff1a41e0d225ca6ad60d39c691fe890c08c57ca7cebff7fd9cf564050",
  "args": [],
  "numDeployments": 8,
  "solcInputHash": "20f9898b8b044e557cfcc0d19a64a9cc",
  "bytecode": "0x608060405234801561001057600080fd5b50611f84806100206000396000f3fe608060405234801561001057600080fd5b50600436106101005760003560e01c80636e30b3d311610097578063ca15c87311610066578063ca15c87314610251578063d547741f14610264578063e054431114610277578063e4fbb6091461028a57600080fd5b80636e30b3d3146101df5780639010d07c146101f257806391d148541461021d578063c99931be1461023057600080fd5b806336568abe116100d357806336568abe14610176578063381f5ebb146101895780633cd97a55146101ac578063673636b7146101cc57600080fd5b8063192e322c14610105578063248a9ca31461011a5780632f2ff15d1461015057806335755a7314610163575b600080fd5b610118610113366004611625565b61029f565b005b61013d6101283660046116c8565b6000908152600a602052604090206001015490565b6040519081526020015b60405180910390f35b61011861015e3660046116e1565b610333565b61011861017136600461171d565b61035e565b6101186101843660046116e1565b610519565b61019c6101973660046116c8565b610597565b6040519015158152602001610147565b6101bf6101ba36600461179c565b6105f0565b6040516101479190611867565b6101186101da366004611890565b610821565b61019c6101ed366004611966565b6109dd565b61020561020036600461179c565b610bba565b6040516001600160a01b039091168152602001610147565b61019c61022b3660046116e1565b610bdb565b61024361023e3660046116c8565b610c06565b604051610147929190611992565b61013d61025f3660046116c8565b610d80565b6101186102723660046116e1565b610d97565b61013d6102853660046116c8565b610dbd565b61013d600080516020611f2f83398151915281565b600080516020611f2f8339815191526102b88133610df7565b600e54889081106102e45760405162461bcd60e51b81526004016102db906119b4565b60405180910390fd5b610328898989898989898080601f016020809104026020016040519081016040528093929190818152602001838380828437600092019190915250610e5b92505050565b505050505050505050565b6000828152600a602052604090206001015461034f8133610df7565b61035983836111c8565b505050565b600080516020611f2f8339815191526103778133610df7565b600e548490811061039a5760405162461bcd60e51b81526004016102db906119b4565b826103e75760405162461bcd60e51b815260206004820152601860248201527f52414952204552433732313a20456d707479206172726179000000000000000060448201526064016102db565b60005b83811015610511576104ff8686868481811061040857610408611a01565b905060200281019061041a9190611a17565b3587878581811061042d5761042d611a01565b905060200281019061043f9190611a17565b6020013588888681811061045557610455611a01565b90506020028101906104679190611a17565b6040013589898781811061047d5761047d611a01565b905060200281019061048f9190611a17565b606001358a8a888181106104a5576104a5611a01565b90506020028101906104b79190611a17565b6104c5906080810190611a37565b8080601f016020809104026020016040519081016040528093929190818152602001838380828437600092019190915250610e5b92505050565b8061050981611a9b565b9150506103ea565b505050505050565b6001600160a01b03811633146105895760405162461bcd60e51b815260206004820152602f60248201527f416363657373436f6e74726f6c3a2063616e206f6e6c792072656e6f756e636560448201526e103937b632b9903337b91039b2b63360891b60648201526084016102db565b6105938282611262565b5050565b600f54600090829081106105bd5760405162461bcd60e51b81526004016102db90611ab4565b600080600f0184815481106105d4576105d4611a01565b9060005260206000209060070201600401541191505b50919050565b6106306040518060e00160405280600081526020016000815260200160008152602001600081526020016000815260200160008152602001606081525090565b600e54839081106106535760405162461bcd60e51b81526004016102db906119b4565b826000600e01858154811061066a5761066a611a01565b906000526020600020906005020160040180549050116106dc5760405162461bcd60e51b815260206004820152602760248201527f52414952204552433732312052616e6765733a20496e76616c69642072616e676044820152660ca40d2dcc8caf60cb1b60648201526084016102db565b600e8054600f9190869081106106f4576106f4611a01565b9060005260206000209060050201600401848154811061071657610716611a01565b90600052602060002001548154811061073157610731611a01565b90600052602060002090600702016040518060e001604052908160008201548152602001600182015481526020016002820154815260200160038201548152602001600482015481526020016005820154815260200160068201805461079690611afc565b80601f01602080910402602001604051908101604052809291908181526020018280546107c290611afc565b801561080f5780601f106107e45761010080835404028352916020019161080f565b820191906000526020600020905b8154815290600101906020018083116107f257829003601f168201915b50505050508152505091505092915050565b600f54859081106108445760405162461bcd60e51b81526004016102db90611ab4565b600080516020611f2f83398151915261085d8133610df7565b606485101561087e5760405162461bcd60e51b81526004016102db90611b30565b600080600f01888154811061089557610895611a01565b9060005260206000209060070201905084816000015482600101546108ba9190611b7d565b6108c5906001611b90565b10156108e35760405162461bcd60e51b81526004016102db90611ba3565b8054600182015485916108f591611b7d565b610900906001611b90565b101561091e5760405162461bcd60e51b81526004016102db90611c00565b60028101859055831561097d5780546001820154604080519283526020830191909152810185905288907fd2deaeacc8e325d59c09833f4f8df9c144784d547a7725c7085fae3b644c93e49060600160405180910390a2600481018490555b6006810161098b8882611ca3565b50600581018690556040517f675fe88181b85cb3612f534abc69fa999ba2e4744dc830488c9de8b25ec6cfd1906109cb908a908a908a908a908a90611d63565b60405180910390a15050505050505050565b6000806000600e0185815481106109f6576109f6611a01565b9060005260206000209060050201600401805480602002602001604051908101604052809291908181526020018280548015610a5157602002820191906000526020600020905b815481526020019060010190808311610a3d575b5050505050905060005b8151811015610bac57846000600f01838381518110610a7c57610a7c611a01565b602002602001015181548110610a9457610a94611a01565b90600052602060002090600702016000015411158015610af45750846000600f01838381518110610ac757610ac7611a01565b602002602001015181548110610adf57610adf611a01565b90600052602060002090600702016001015410155b80610b8a5750836000600f01838381518110610b1257610b12611a01565b602002602001015181548110610b2a57610b2a611a01565b90600052602060002090600702016000015411158015610b8a5750836000600f01838381518110610b5d57610b5d611a01565b602002602001015181548110610b7557610b75611a01565b90600052602060002090600702016001015410155b15610b9a57600092505050610bb3565b80610ba481611a9b565b915050610a5b565b5060019150505b9392505050565b6000828152600b60205260408120610bd290836112dd565b90505b92915050565b6000918252600a602090815260408084206001600160a01b0393909316845291905290205460ff1690565b610c466040518060e00160405280600081526020016000815260200160008152602001600081526020016000815260200160008152602001606081525090565b600f5460009083908110610c6c5760405162461bcd60e51b81526004016102db90611ab4565b600f805485908110610c8057610c80611a01565b90600052602060002090600702016040518060e0016040529081600082015481526020016001820154815260200160028201548152602001600382015481526020016004820154815260200160058201548152602001600682018054610ce590611afc565b80601f0160208091040260200160405190810160405280929190818152602001828054610d1190611afc565b8015610d5e5780601f10610d3357610100808354040283529160200191610d5e565b820191906000526020600020905b815481529060010190602001808311610d4157829003601f168201915b5050509190925250505060009485526018602052604090942054939492505050565b6000818152600b60205260408120610bd5906112e9565b6000828152600a6020526040902060010154610db38133610df7565b6103598383611262565b600f5460009082908110610de35760405162461bcd60e51b81526004016102db90611ab4565b505060009081526018602052604090205490565b610e018282610bdb565b61059357610e19816001600160a01b031660146112f3565b610e248360206112f3565b604051602001610e35929190611d99565b60408051601f198184030181529082905262461bcd60e51b82526102db91600401611e0e565b831580610e69575060648410155b610e855760405162461bcd60e51b81526004016102db90611b30565b82851015610ea55760405162461bcd60e51b81526004016102db90611ba3565b81851015610ec55760405162461bcd60e51b81526004016102db90611c00565b600080600e018781548110610edc57610edc611a01565b60009182526020822060046005909202019081015490925015610f5b57600482018054600f9190610f0f90600190611b7d565b81548110610f1f57610f1f611a01565b906000526020600020015481548110610f3a57610f3a611a01565b9060005260206000209060070201600101546001610f589190611b90565b90505b600f80546001818101808455600093845260079092027f8d1108e10bcb7c27dddfc02ed9d693a074039d026cf4ea4240b40f7d581ac802019291610f9f9190611b7d565b600180860154919250610fb28b86611b90565b610fbc9190611b7d565b11156110275760405162461bcd60e51b815260206004820152603460248201527f52414952204552433732313a2052616e6765206c656e677468206578636565646044820152737320636f6c6c656374696f6e206c696d6974732160601b60648201526084016102db565b82825560016110368a85611b90565b6110409190611b7d565b600183015560028201879055600382018990556004820186905585156110b3578154600183015460048401546040805193845260208401929092529082015281907fd2deaeacc8e325d59c09833f4f8df9c144784d547a7725c7085fae3b644c93e49060600160405180910390a2611104565b85600003611104578154600183015460405183927f83d23f069f5730ce94e107a9258bae3b7a0f97184978fd7daa41c8df8ac6c29e926110fb92918252602082015260400190565b60405180910390a25b60058201889055600682016111198682611ca3565b50896000601801600083815260200190815260200160002081905550836004018190806001815401808255809150506001900390600052602060002001600090919091909150557fc4e232d19c750404428930450f0a050bf4c166f32910679d1b9e52f17bad83478a8360000154846001015485600501548660020154876004015488600601886040516111b4989796959493929190611e21565b60405180910390a150505050505050505050565b6111d28282610bdb565b610593576000828152600a602090815260408083206001600160a01b03851684529091529020805460ff1916600117905561120a3390565b6001600160a01b0316816001600160a01b0316837f2f8788117e7eff1d82e926ec794901d17c78024a50270940304540a733656f0d60405160405180910390a46000828152600b60205260409020610359908261148f565b61126c8282610bdb565b15610593576000828152600a602090815260408083206001600160a01b0385168085529252808320805460ff1916905551339285917ff6391f5c32d9c69d2a47ea670b442974b53935d1edc7fd64eb21e047a839171b9190a46000828152600b6020526040902061035990826114a4565b6000610bd283836114b9565b6000610bd5825490565b60606000611302836002611ee2565b61130d906002611b90565b67ffffffffffffffff8111156113255761132561187a565b6040519080825280601f01601f19166020018201604052801561134f576020820181803683370190505b509050600360fc1b8160008151811061136a5761136a611a01565b60200101906001600160f81b031916908160001a905350600f60fb1b8160018151811061139957611399611a01565b60200101906001600160f81b031916908160001a90535060006113bd846002611ee2565b6113c8906001611b90565b90505b6001811115611440576f181899199a1a9b1b9c1cb0b131b232b360811b85600f16601081106113fc576113fc611a01565b1a60f81b82828151811061141257611412611a01565b60200101906001600160f81b031916908160001a90535060049490941c9361143981611f01565b90506113cb565b508315610bd25760405162461bcd60e51b815260206004820181905260248201527f537472696e67733a20686578206c656e67746820696e73756666696369656e7460448201526064016102db565b6000610bd2836001600160a01b0384166114e3565b6000610bd2836001600160a01b038416611532565b60008260000182815481106114d0576114d0611a01565b9060005260206000200154905092915050565b600081815260018301602052604081205461152a57508154600181810184556000848152602080822090930184905584548482528286019093526040902091909155610bd5565b506000610bd5565b6000818152600183016020526040812054801561161b576000611556600183611b7d565b855490915060009061156a90600190611b7d565b90508181146115cf57600086600001828154811061158a5761158a611a01565b90600052602060002001549050808760000184815481106115ad576115ad611a01565b6000918252602080832090910192909255918252600188019052604090208390555b85548690806115e0576115e0611f18565b600190038181906000526020600020016000905590558560010160008681526020019081526020016000206000905560019350505050610bd5565b6000915050610bd5565b600080600080600080600060c0888a03121561164057600080fd5b873596506020880135955060408801359450606088013593506080880135925060a088013567ffffffffffffffff8082111561167b57600080fd5b818a0191508a601f83011261168f57600080fd5b81358181111561169e57600080fd5b8b60208285010111156116b057600080fd5b60208301945080935050505092959891949750929550565b6000602082840312156116da57600080fd5b5035919050565b600080604083850312156116f457600080fd5b8235915060208301356001600160a01b038116811461171257600080fd5b809150509250929050565b60008060006040848603121561173257600080fd5b83359250602084013567ffffffffffffffff8082111561175157600080fd5b818601915086601f83011261176557600080fd5b81358181111561177457600080fd5b8760208260051b850101111561178957600080fd5b6020830194508093505050509250925092565b600080604083850312156117af57600080fd5b50508035926020909101359150565b60005b838110156117d95781810151838201526020016117c1565b50506000910152565b600081518084526117fa8160208601602086016117be565b601f01601f19169290920160200192915050565b805182526020810151602083015260408101516040830152606081015160608301526080810151608083015260a081015160a0830152600060c082015160e060c085015261185f60e08501826117e2565b949350505050565b602081526000610bd2602083018461180e565b634e487b7160e01b600052604160045260246000fd5b600080600080600060a086880312156118a857600080fd5b85359450602086013567ffffffffffffffff808211156118c757600080fd5b818801915088601f8301126118db57600080fd5b8135818111156118ed576118ed61187a565b604051601f8201601f19908116603f011681019083821181831017156119155761191561187a565b816040528281528b602084870101111561192e57600080fd5b826020860160208301376000928101602001929092525096999698505050506040850135946060810135946080909101359350915050565b60008060006060848603121561197b57600080fd5b505081359360208301359350604090920135919050565b6040815260006119a5604083018561180e565b90508260208301529392505050565b6020808252602d908201527f52414952204552433732312052616e6765733a20436f6c6c656374696f6e206460408201526c1bd95cc81b9bdd08195e1a5cdd609a1b606082015260800190565b634e487b7160e01b600052603260045260246000fd5b60008235609e19833603018112611a2d57600080fd5b9190910192915050565b6000808335601e19843603018112611a4e57600080fd5b83018035915067ffffffffffffffff821115611a6957600080fd5b602001915036819003821315611a7e57600080fd5b9250929050565b634e487b7160e01b600052601160045260246000fd5b600060018201611aad57611aad611a85565b5060010190565b60208082526028908201527f52414952204552433732312052616e6765733a2052616e676520646f6573206e6040820152671bdd08195e1a5cdd60c21b606082015260800190565b600181811c90821680611b1057607f821691505b6020821081036105ea57634e487b7160e01b600052602260045260246000fd5b6020808252602d908201527f52414952204552433732313a204d696e696d756d20707269636520616c6c6f7760408201526c6564206973203130302077656960981b606082015260800190565b81810381811115610bd557610bd5611a85565b80820180821115610bd557610bd5611a85565b6020808252603e908201527f52414952204552433732313a20416c6c6f77656420746f6b656e732073686f7560408201527f6c64206265206c657373207468616e2072616e67652773206c656e6774680000606082015260800190565b6020808252603d908201527f52414952204552433732313a204c6f636b656420746f6b656e732073686f756c60408201527f64206265206c657373207468616e2072616e67652773206c656e677468000000606082015260800190565b601f82111561035957600081815260208120601f850160051c81016020861015611c845750805b601f850160051c820191505b8181101561051157828155600101611c90565b815167ffffffffffffffff811115611cbd57611cbd61187a565b611cd181611ccb8454611afc565b84611c5d565b602080601f831160018114611d065760008415611cee5750858301515b600019600386901b1c1916600185901b178555610511565b600085815260208120601f198616915b82811015611d3557888601518255948401946001909101908401611d16565b5085821015611d535787850151600019600388901b60f8161c191681555b5050505050600190811b01905550565b85815260a060208201526000611d7c60a08301876117e2565b604083019590955250606081019290925260809091015292915050565b7f416363657373436f6e74726f6c3a206163636f756e7420000000000000000000815260008351611dd18160178501602088016117be565b7001034b99036b4b9b9b4b733903937b6329607d1b6017918401918201528351611e028160288401602088016117be565b01602801949350505050565b602081526000610bd260208301846117e2565b60006101008a835260208a818501528960408501528860608501528760808501528660a08501528160c085015260008654611e5b81611afc565b9386018490526101209360018281168015611e7d5760018114611e9757611ec5565b60ff1984168988015282151560051b890187019450611ec5565b8a6000528560002060005b84811015611ebd5781548b82018a0152908301908701611ea2565b8a0188019550505b505050508093505050508260e08301529998505050505050505050565b6000816000190483118215151615611efc57611efc611a85565b500290565b600081611f1057611f10611a85565b506000190190565b634e487b7160e01b600052603160045260246000fdfe3c2519c4487d47714872f92cf90a50c25f5deaec2789dc2a497b1272df611db6a2646970667358221220c7f0f8b0b9516f70510e3b496d62f0c5ebf1691f231f3e87a15e9b2ca470405664736f6c63430008100033",
  "devdoc": {
    "author": "Juan M. Sanchez M.",
    "details": "Notice that this contract is inheriting from AccessControlAppStorageEnumerable721",
    "events": {
      "CreatedRange(uint256,uint256,uint256,uint256,uint256,uint256,string,uint256)": {
        "params": {
          "end": "Contains the last NFT of the range collection",
          "lockedTokens": "Contains all the NFT tokens in the range that are unavailable for sell",
          "name": "Contains the name for the created NFT collection range",
          "price": "Contains the selling price for the range of NFT",
          "productIndex": "Contains the position where the product was indexed",
          "rangeIndex": "Contains the position where the range was indexed",
          "start": "Contains the start position of the range of nft collection",
          "tokensAllowed": "Contains all the allowed NFT tokens in the range that are available for sell"
        }
      },
      "TradingLocked(uint256,uint256,uint256,uint256)": {
        "params": {
          "from": "Contains the starting NFT of the range that we want to lock",
          "lockedTokens": "Contains all the NFT tokens in the range that are unavailable for sell",
          "rangeIndex": "Contains the position where the range was indexed",
          "to": "Contains the last NFT of the range that we want to lock"
        }
      },
      "TradingUnlocked(uint256,uint256,uint256)": {
        "params": {
          "from": "Contains the starting NFT of the range that we want to lock",
          "rangeIndex": "Contains the position where the range was indexed",
          "to": "Contains the last NFT of the range that we want to lock"
        }
      },
      "UpdatedRange(uint256,string,uint256,uint256,uint256)": {
        "params": {
          "lockedTokens": "Contains all the NFT tokens in the range that are unavailable for sell",
          "name": "Contains the name for the created NFT collection range",
          "price": "Contains the selling price for the range of NFT",
          "rangeIndex": "Contains the position where the range was indexed",
          "tokensAllowed": "Contains all the allowed NFT tokens in the range that are available for sell"
        }
      }
    },
    "kind": "dev",
    "methods": {
      "canCreateRange(uint256,uint256,uint256)": {
        "params": {
          "productId_": "Contains the identification for the product",
          "rangeEnd_": "Contains the tentative NFT to use as ending point of the range",
          "rangeStart_": "Contains the tentative NFT to use as starting point of the range "
        },
        "returns": {
          "_0": "bool With the answer if the range cant be creater or not"
        }
      },
      "createRange(uint256,uint256,uint256,uint256,uint256,string)": {
        "details": "This function is only available to an account with a `CREATOR` roleThis function require thar the collection ID match a valid collection ",
        "params": {
          "collectionId": "Contains the identification for the product",
          "lockedTokens": "Contains all the NFT tokens in the range that are unavailable for sell",
          "name": "Contains the name for the created NFT collection range",
          "price": "Contains the selling price for the range of NFT",
          "rangeLength": "Number of tokens contained in the range",
          "tokensAllowed": "Contains all the allowed NFT tokens in the range that are available for sell"
        }
      },
      "createRangeBatch(uint256,(uint256,uint256,uint256,uint256,string)[])": {
        "details": "This function is only available to an account with a `CREATOR` roleThis function require thar the collection ID match a valid collection ",
        "params": {
          "collectionId": "Contains the identification for the product",
          "data": "An array with the data for all the ranges that we want to implement "
        }
      },
      "getRoleAdmin(bytes32)": {
        "params": {
          "role": "Contains the role that we want to verify"
        },
        "returns": {
          "_0": "bytes that indicates if an account has or not an admin role"
        }
      },
      "getRoleMember(bytes32,uint256)": {
        "params": {
          "index": "Contains the indexed position to verify inside the role members list",
          "role": "Contains the role that we want to verify"
        },
        "returns": {
          "_0": "address that indicates the address indexed in that position"
        }
      },
      "getRoleMemberCount(bytes32)": {
        "params": {
          "role": "Contains the role that we want to verify"
        },
        "returns": {
          "_0": "uint256 that indicates the total accounts with that role"
        }
      },
      "grantRole(bytes32,address)": {
        "details": "This function is only available to an account with an Admin role",
        "params": {
          "account": "Contains the account that has the role we want to update",
          "role": "Contains the role that we want to grant"
        }
      },
      "hasRole(bytes32,address)": {
        "params": {
          "account": "Contains the account address thay we want to verify",
          "role": "Contains the role that we want to verify"
        },
        "returns": {
          "_0": "bool that indicates if an account has or not a role"
        }
      },
      "isRangeLocked(uint256)": {
        "details": "This function requires that the rangeIndex_ points to an existing range ",
        "params": {
          "rangeId": "Identification of the range to verify"
        },
        "returns": {
          "_0": "bool with the current status of the range lock\t\t\ttrue for lock and false for unlocked"
        }
      },
      "productRangeInfo(uint256,uint256)": {
        "params": {
          "collectionId": "Index of the product to verify",
          "rangeIndex": "Index of the range to verify"
        },
        "returns": {
          "data": "\t\t\tInformation about the range"
        }
      },
      "rangeInfo(uint256)": {
        "details": "This function requires that the rangeIndex_ points to an existing range ",
        "params": {
          "rangeId": "Identification of the range to verify"
        },
        "returns": {
          "data": "\t\t\tInformation about the range",
          "productIndex": "\tContains the index of the product in the range"
        }
      },
      "rangeToProduct(uint256)": {
        "details": "This function requires that the rangeIndex_ points to an existing range ",
        "params": {
          "rangeIndex_": "Identification of the range to verify"
        },
        "returns": {
          "_0": "uint which indicates the index of the product"
        }
      },
      "renounceRole(bytes32,address)": {
        "details": "Currently you can only renounce to your own roles",
        "params": {
          "account": "Contains the account that has the role we want to update",
          "role": "Contains the role to remove from our account"
        }
      },
      "revokeRole(bytes32,address)": {
        "details": "This function is only available to an account with an Admin role",
        "params": {
          "account": "Contains the account that has the role we want to update",
          "role": "Contains the role that we want to revoke"
        }
      },
      "updateRange(uint256,string,uint256,uint256,uint256)": {
        "details": "This function requires that the rangeIndex_ points to an existing rangeThis function is only available to an account with a `CREATOR` role",
        "params": {
          "lockedTokens_": "Contains all the NFT tokens in the range that are unavailable for sell",
          "name": "Contains the name for the created NFT collection range",
          "price_": "Contains the selling price for the range of NFT",
          "rangeId": "Identification of the range to verify",
          "tokensAllowed_": "Contains all the allowed NFT tokens in the range that are available for sell"
        }
      }
    },
    "title": "This is contract to manage the Rair token ranges facet",
    "version": 1
  },
  "userdoc": {
    "events": {
      "CreatedRange(uint256,uint256,uint256,uint256,uint256,uint256,string,uint256)": {
        "notice": "This event stores in the blockchain when the NFT range is correctly created"
      },
      "RoleAdminChanged(bytes32,bytes32,bytes32)": {
        "notice": "This event stores in the blockchain when we change an admin role"
      },
      "RoleGranted(bytes32,address,address)": {
        "notice": "This event stores in the blockchain when we grant a role"
      },
      "RoleRevoked(bytes32,address,address)": {
        "notice": "This event stores in the blockchain when we revoke a role"
      },
      "TradingLocked(uint256,uint256,uint256,uint256)": {
        "notice": "This event stores in the blockchain when the NFT range trading is effectively locked  "
      },
      "TradingUnlocked(uint256,uint256,uint256)": {
        "notice": "This event stores in the blockchain when the NFT range trading is effectively unlocked "
      },
      "UpdatedRange(uint256,string,uint256,uint256,uint256)": {
        "notice": "This event stores in the blockchain when the NFT range is correctly updated"
      }
    },
    "kind": "user",
    "methods": {
      "canCreateRange(uint256,uint256,uint256)": {
        "notice": "This functions allow us to know if a desidred range can be created or not"
      },
      "createRange(uint256,uint256,uint256,uint256,uint256,string)": {
        "notice": "This function that will create the NFT range if the requirements are meet"
      },
      "createRangeBatch(uint256,(uint256,uint256,uint256,uint256,string)[])": {
        "notice": "This function will create as many ranges as the data array requires"
      },
      "getRoleAdmin(bytes32)": {
        "notice": "Allow us to check the admin role that contains a role"
      },
      "getRoleMember(bytes32,uint256)": {
        "notice": "Allow us to check the address of an indexed position for the role list"
      },
      "getRoleMemberCount(bytes32)": {
        "notice": "Allow us to check total members that has an selected role"
      },
      "grantRole(bytes32,address)": {
        "notice": "Allow us to grant a role to an account"
      },
      "hasRole(bytes32,address)": {
        "notice": "Allow us to check the if and account has a selected role"
      },
      "isRangeLocked(uint256)": {
        "notice": "This functions shows is the range is currently locked or not "
      },
      "productRangeInfo(uint256,uint256)": {
        "notice": "This functions shows the information for the range of a product"
      },
      "rangeInfo(uint256)": {
        "notice": "This functions allow us to check the information of the range"
      },
      "rangeToProduct(uint256)": {
        "notice": "This functions return us the product that containt the selected range"
      },
      "renounceRole(bytes32,address)": {
        "notice": "Allow us to renounce to a role"
      },
      "revokeRole(bytes32,address)": {
        "notice": "Allow us to revoke a role to an account"
      },
      "updateRange(uint256,string,uint256,uint256,uint256)": {
        "notice": "This functions allow us to update the information about a range"
      }
    },
    "notice": "You can use this contract to administrate ranges, transfers & minting of the tokens",
    "version": 1
  },
  "storageLayout": {
    "storage": [
      {
        "astId": 8073,
        "contract": "contracts/tokens/RAIR Token Facets/RangesFacet.sol:RAIRRangesFacet",
        "label": "s",
        "offset": 0,
        "slot": "0",
        "type": "t_struct(AppStorage721)8057_storage"
      }
    ],
    "types": {
      "t_address": {
        "encoding": "inplace",
        "label": "address",
        "numberOfBytes": "20"
      },
      "t_array(t_bytes32)dyn_storage": {
        "base": "t_bytes32",
        "encoding": "dynamic_array",
        "label": "bytes32[]",
        "numberOfBytes": "32"
      },
      "t_array(t_struct(product)7946_storage)dyn_storage": {
        "base": "t_struct(product)7946_storage",
        "encoding": "dynamic_array",
        "label": "struct product[]",
        "numberOfBytes": "32"
      },
      "t_array(t_struct(range)7934_storage)dyn_storage": {
        "base": "t_struct(range)7934_storage",
        "encoding": "dynamic_array",
        "label": "struct range[]",
        "numberOfBytes": "32"
      },
      "t_array(t_uint256)dyn_storage": {
        "base": "t_uint256",
        "encoding": "dynamic_array",
        "label": "uint256[]",
        "numberOfBytes": "32"
      },
      "t_bool": {
        "encoding": "inplace",
        "label": "bool",
        "numberOfBytes": "1"
      },
      "t_bytes32": {
        "encoding": "inplace",
        "label": "bytes32",
        "numberOfBytes": "32"
      },
      "t_mapping(t_address,t_bool)": {
        "encoding": "mapping",
        "key": "t_address",
        "label": "mapping(address => bool)",
        "numberOfBytes": "32",
        "value": "t_bool"
      },
      "t_mapping(t_address,t_mapping(t_address,t_bool))": {
        "encoding": "mapping",
        "key": "t_address",
        "label": "mapping(address => mapping(address => bool))",
        "numberOfBytes": "32",
        "value": "t_mapping(t_address,t_bool)"
      },
      "t_mapping(t_address,t_mapping(t_uint256,t_uint256))": {
        "encoding": "mapping",
        "key": "t_address",
        "label": "mapping(address => mapping(uint256 => uint256))",
        "numberOfBytes": "32",
        "value": "t_mapping(t_uint256,t_uint256)"
      },
      "t_mapping(t_address,t_uint256)": {
        "encoding": "mapping",
        "key": "t_address",
        "label": "mapping(address => uint256)",
        "numberOfBytes": "32",
        "value": "t_uint256"
      },
      "t_mapping(t_bytes32,t_struct(AddressSet)2617_storage)": {
        "encoding": "mapping",
        "key": "t_bytes32",
        "label": "mapping(bytes32 => struct EnumerableSet.AddressSet)",
        "numberOfBytes": "32",
        "value": "t_struct(AddressSet)2617_storage"
      },
      "t_mapping(t_bytes32,t_struct(RoleData)5792_storage)": {
        "encoding": "mapping",
        "key": "t_bytes32",
        "label": "mapping(bytes32 => struct RoleData)",
        "numberOfBytes": "32",
        "value": "t_struct(RoleData)5792_storage"
      },
      "t_mapping(t_bytes32,t_uint256)": {
        "encoding": "mapping",
        "key": "t_bytes32",
        "label": "mapping(bytes32 => uint256)",
        "numberOfBytes": "32",
        "value": "t_uint256"
      },
      "t_mapping(t_uint256,t_address)": {
        "encoding": "mapping",
        "key": "t_uint256",
        "label": "mapping(uint256 => address)",
        "numberOfBytes": "32",
        "value": "t_address"
      },
      "t_mapping(t_uint256,t_array(t_uint256)dyn_storage)": {
        "encoding": "mapping",
        "key": "t_uint256",
        "label": "mapping(uint256 => uint256[])",
        "numberOfBytes": "32",
        "value": "t_array(t_uint256)dyn_storage"
      },
      "t_mapping(t_uint256,t_bool)": {
        "encoding": "mapping",
        "key": "t_uint256",
        "label": "mapping(uint256 => bool)",
        "numberOfBytes": "32",
        "value": "t_bool"
      },
      "t_mapping(t_uint256,t_string_storage)": {
        "encoding": "mapping",
        "key": "t_uint256",
        "label": "mapping(uint256 => string)",
        "numberOfBytes": "32",
        "value": "t_string_storage"
      },
      "t_mapping(t_uint256,t_uint256)": {
        "encoding": "mapping",
        "key": "t_uint256",
        "label": "mapping(uint256 => uint256)",
        "numberOfBytes": "32",
        "value": "t_uint256"
      },
      "t_string_storage": {
        "encoding": "bytes",
        "label": "string",
        "numberOfBytes": "32"
      },
      "t_struct(AddressSet)2617_storage": {
        "encoding": "inplace",
        "label": "struct EnumerableSet.AddressSet",
        "members": [
          {
            "astId": 2616,
            "contract": "contracts/tokens/RAIR Token Facets/RangesFacet.sol:RAIRRangesFacet",
            "label": "_inner",
            "offset": 0,
            "slot": "0",
            "type": "t_struct(Set)2316_storage"
          }
        ],
        "numberOfBytes": "64"
      },
      "t_struct(AppStorage721)8057_storage": {
        "encoding": "inplace",
        "label": "struct AppStorage721",
        "members": [
          {
            "astId": 7948,
            "contract": "contracts/tokens/RAIR Token Facets/RangesFacet.sol:RAIRRangesFacet",
            "label": "_name",
            "offset": 0,
            "slot": "0",
            "type": "t_string_storage"
          },
          {
            "astId": 7950,
            "contract": "contracts/tokens/RAIR Token Facets/RangesFacet.sol:RAIRRangesFacet",
            "label": "_symbol",
            "offset": 0,
            "slot": "1",
            "type": "t_string_storage"
          },
          {
            "astId": 7954,
            "contract": "contracts/tokens/RAIR Token Facets/RangesFacet.sol:RAIRRangesFacet",
            "label": "_owners",
            "offset": 0,
            "slot": "2",
            "type": "t_mapping(t_uint256,t_address)"
          },
          {
            "astId": 7958,
            "contract": "contracts/tokens/RAIR Token Facets/RangesFacet.sol:RAIRRangesFacet",
            "label": "_balances",
            "offset": 0,
            "slot": "3",
            "type": "t_mapping(t_address,t_uint256)"
          },
          {
            "astId": 7962,
            "contract": "contracts/tokens/RAIR Token Facets/RangesFacet.sol:RAIRRangesFacet",
            "label": "_tokenApprovals",
            "offset": 0,
            "slot": "4",
            "type": "t_mapping(t_uint256,t_address)"
          },
          {
            "astId": 7968,
            "contract": "contracts/tokens/RAIR Token Facets/RangesFacet.sol:RAIRRangesFacet",
            "label": "_operatorApprovals",
            "offset": 0,
            "slot": "5",
            "type": "t_mapping(t_address,t_mapping(t_address,t_bool))"
          },
          {
            "astId": 7974,
            "contract": "contracts/tokens/RAIR Token Facets/RangesFacet.sol:RAIRRangesFacet",
            "label": "_ownedTokens",
            "offset": 0,
            "slot": "6",
            "type": "t_mapping(t_address,t_mapping(t_uint256,t_uint256))"
          },
          {
            "astId": 7978,
            "contract": "contracts/tokens/RAIR Token Facets/RangesFacet.sol:RAIRRangesFacet",
            "label": "_ownedTokensIndex",
            "offset": 0,
            "slot": "7",
            "type": "t_mapping(t_uint256,t_uint256)"
          },
          {
            "astId": 7981,
            "contract": "contracts/tokens/RAIR Token Facets/RangesFacet.sol:RAIRRangesFacet",
            "label": "_allTokens",
            "offset": 0,
            "slot": "8",
            "type": "t_array(t_uint256)dyn_storage"
          },
          {
            "astId": 7985,
            "contract": "contracts/tokens/RAIR Token Facets/RangesFacet.sol:RAIRRangesFacet",
            "label": "_allTokensIndex",
            "offset": 0,
            "slot": "9",
            "type": "t_mapping(t_uint256,t_uint256)"
          },
          {
            "astId": 7990,
            "contract": "contracts/tokens/RAIR Token Facets/RangesFacet.sol:RAIRRangesFacet",
            "label": "_roles",
            "offset": 0,
            "slot": "10",
            "type": "t_mapping(t_bytes32,t_struct(RoleData)5792_storage)"
          },
          {
            "astId": 7995,
            "contract": "contracts/tokens/RAIR Token Facets/RangesFacet.sol:RAIRRangesFacet",
            "label": "_roleMembers",
            "offset": 0,
            "slot": "11",
            "type": "t_mapping(t_bytes32,t_struct(AddressSet)2617_storage)"
          },
          {
            "astId": 7997,
            "contract": "contracts/tokens/RAIR Token Facets/RangesFacet.sol:RAIRRangesFacet",
            "label": "baseURI",
            "offset": 0,
            "slot": "12",
            "type": "t_string_storage"
          },
          {
            "astId": 7999,
            "contract": "contracts/tokens/RAIR Token Facets/RangesFacet.sol:RAIRRangesFacet",
            "label": "factoryAddress",
            "offset": 0,
            "slot": "13",
            "type": "t_address"
          },
          {
            "astId": 8001,
            "contract": "contracts/tokens/RAIR Token Facets/RangesFacet.sol:RAIRRangesFacet",
            "label": "royaltyFee",
            "offset": 20,
            "slot": "13",
            "type": "t_uint16"
          },
          {
            "astId": 8005,
            "contract": "contracts/tokens/RAIR Token Facets/RangesFacet.sol:RAIRRangesFacet",
            "label": "products",
            "offset": 0,
            "slot": "14",
            "type": "t_array(t_struct(product)7946_storage)dyn_storage"
          },
          {
            "astId": 8009,
            "contract": "contracts/tokens/RAIR Token Facets/RangesFacet.sol:RAIRRangesFacet",
            "label": "ranges",
            "offset": 0,
            "slot": "15",
            "type": "t_array(t_struct(range)7934_storage)dyn_storage"
          },
          {
            "astId": 8013,
            "contract": "contracts/tokens/RAIR Token Facets/RangesFacet.sol:RAIRRangesFacet",
            "label": "tokenToProduct",
            "offset": 0,
            "slot": "16",
            "type": "t_mapping(t_uint256,t_uint256)"
          },
          {
            "astId": 8017,
            "contract": "contracts/tokens/RAIR Token Facets/RangesFacet.sol:RAIRRangesFacet",
            "label": "tokenToRange",
            "offset": 0,
            "slot": "17",
            "type": "t_mapping(t_uint256,t_uint256)"
          },
          {
            "astId": 8021,
            "contract": "contracts/tokens/RAIR Token Facets/RangesFacet.sol:RAIRRangesFacet",
            "label": "uniqueTokenURI",
            "offset": 0,
            "slot": "18",
            "type": "t_mapping(t_uint256,t_string_storage)"
          },
          {
            "astId": 8025,
            "contract": "contracts/tokens/RAIR Token Facets/RangesFacet.sol:RAIRRangesFacet",
            "label": "productURI",
            "offset": 0,
            "slot": "19",
            "type": "t_mapping(t_uint256,t_string_storage)"
          },
          {
            "astId": 8029,
            "contract": "contracts/tokens/RAIR Token Facets/RangesFacet.sol:RAIRRangesFacet",
            "label": "appendTokenIndexToProductURI",
            "offset": 0,
            "slot": "20",
            "type": "t_mapping(t_uint256,t_bool)"
          },
          {
            "astId": 8031,
            "contract": "contracts/tokens/RAIR Token Facets/RangesFacet.sol:RAIRRangesFacet",
            "label": "appendTokenIndexToBaseURI",
            "offset": 0,
            "slot": "21",
            "type": "t_bool"
          },
          {
            "astId": 8036,
            "contract": "contracts/tokens/RAIR Token Facets/RangesFacet.sol:RAIRRangesFacet",
            "label": "tokensByProduct",
            "offset": 0,
            "slot": "22",
            "type": "t_mapping(t_uint256,t_array(t_uint256)dyn_storage)"
          },
          {
            "astId": 8038,
            "contract": "contracts/tokens/RAIR Token Facets/RangesFacet.sol:RAIRRangesFacet",
            "label": "contractMetadataURI",
            "offset": 0,
            "slot": "23",
            "type": "t_string_storage"
          },
          {
            "astId": 8042,
            "contract": "contracts/tokens/RAIR Token Facets/RangesFacet.sol:RAIRRangesFacet",
            "label": "rangeToProduct",
            "offset": 0,
            "slot": "24",
            "type": "t_mapping(t_uint256,t_uint256)"
          },
          {
            "astId": 8046,
            "contract": "contracts/tokens/RAIR Token Facets/RangesFacet.sol:RAIRRangesFacet",
            "label": "_minted",
            "offset": 0,
            "slot": "25",
            "type": "t_mapping(t_uint256,t_bool)"
          },
          {
            "astId": 8050,
            "contract": "contracts/tokens/RAIR Token Facets/RangesFacet.sol:RAIRRangesFacet",
            "label": "rangeURI",
            "offset": 0,
            "slot": "26",
            "type": "t_mapping(t_uint256,t_string_storage)"
          },
          {
            "astId": 8054,
            "contract": "contracts/tokens/RAIR Token Facets/RangesFacet.sol:RAIRRangesFacet",
            "label": "appendTokenIndexToRangeURI",
            "offset": 0,
            "slot": "27",
            "type": "t_mapping(t_uint256,t_bool)"
          },
          {
            "astId": 8056,
            "contract": "contracts/tokens/RAIR Token Facets/RangesFacet.sol:RAIRRangesFacet",
            "label": "_metadataExtension",
            "offset": 0,
            "slot": "28",
            "type": "t_string_storage"
          }
        ],
        "numberOfBytes": "928"
      },
      "t_struct(RoleData)5792_storage": {
        "encoding": "inplace",
        "label": "struct RoleData",
        "members": [
          {
            "astId": 5789,
            "contract": "contracts/tokens/RAIR Token Facets/RangesFacet.sol:RAIRRangesFacet",
            "label": "members",
            "offset": 0,
            "slot": "0",
            "type": "t_mapping(t_address,t_bool)"
          },
          {
            "astId": 5791,
            "contract": "contracts/tokens/RAIR Token Facets/RangesFacet.sol:RAIRRangesFacet",
            "label": "adminRole",
            "offset": 0,
            "slot": "1",
            "type": "t_bytes32"
          }
        ],
        "numberOfBytes": "64"
      },
      "t_struct(Set)2316_storage": {
        "encoding": "inplace",
        "label": "struct EnumerableSet.Set",
        "members": [
          {
            "astId": 2311,
            "contract": "contracts/tokens/RAIR Token Facets/RangesFacet.sol:RAIRRangesFacet",
            "label": "_values",
            "offset": 0,
            "slot": "0",
            "type": "t_array(t_bytes32)dyn_storage"
          },
          {
            "astId": 2315,
            "contract": "contracts/tokens/RAIR Token Facets/RangesFacet.sol:RAIRRangesFacet",
            "label": "_indexes",
            "offset": 0,
            "slot": "1",
            "type": "t_mapping(t_bytes32,t_uint256)"
          }
        ],
        "numberOfBytes": "64"
      },
      "t_struct(product)7946_storage": {
        "encoding": "inplace",
        "label": "struct product",
        "members": [
          {
            "astId": 7936,
            "contract": "contracts/tokens/RAIR Token Facets/RangesFacet.sol:RAIRRangesFacet",
            "label": "startingToken",
            "offset": 0,
            "slot": "0",
            "type": "t_uint256"
          },
          {
            "astId": 7938,
            "contract": "contracts/tokens/RAIR Token Facets/RangesFacet.sol:RAIRRangesFacet",
            "label": "endingToken",
            "offset": 0,
            "slot": "1",
            "type": "t_uint256"
          },
          {
            "astId": 7940,
            "contract": "contracts/tokens/RAIR Token Facets/RangesFacet.sol:RAIRRangesFacet",
            "label": "mintableTokens",
            "offset": 0,
            "slot": "2",
            "type": "t_uint256"
          },
          {
            "astId": 7942,
            "contract": "contracts/tokens/RAIR Token Facets/RangesFacet.sol:RAIRRangesFacet",
            "label": "name",
            "offset": 0,
            "slot": "3",
            "type": "t_string_storage"
          },
          {
            "astId": 7945,
            "contract": "contracts/tokens/RAIR Token Facets/RangesFacet.sol:RAIRRangesFacet",
            "label": "rangeList",
            "offset": 0,
            "slot": "4",
            "type": "t_array(t_uint256)dyn_storage"
          }
        ],
        "numberOfBytes": "160"
      },
      "t_struct(range)7934_storage": {
        "encoding": "inplace",
        "label": "struct range",
        "members": [
          {
            "astId": 7921,
            "contract": "contracts/tokens/RAIR Token Facets/RangesFacet.sol:RAIRRangesFacet",
            "label": "rangeStart",
            "offset": 0,
            "slot": "0",
            "type": "t_uint256"
          },
          {
            "astId": 7923,
            "contract": "contracts/tokens/RAIR Token Facets/RangesFacet.sol:RAIRRangesFacet",
            "label": "rangeEnd",
            "offset": 0,
            "slot": "1",
            "type": "t_uint256"
          },
          {
            "astId": 7925,
            "contract": "contracts/tokens/RAIR Token Facets/RangesFacet.sol:RAIRRangesFacet",
            "label": "tokensAllowed",
            "offset": 0,
            "slot": "2",
            "type": "t_uint256"
          },
          {
            "astId": 7927,
            "contract": "contracts/tokens/RAIR Token Facets/RangesFacet.sol:RAIRRangesFacet",
            "label": "mintableTokens",
            "offset": 0,
            "slot": "3",
            "type": "t_uint256"
          },
          {
            "astId": 7929,
            "contract": "contracts/tokens/RAIR Token Facets/RangesFacet.sol:RAIRRangesFacet",
            "label": "lockedTokens",
            "offset": 0,
            "slot": "4",
            "type": "t_uint256"
          },
          {
            "astId": 7931,
            "contract": "contracts/tokens/RAIR Token Facets/RangesFacet.sol:RAIRRangesFacet",
            "label": "rangePrice",
            "offset": 0,
            "slot": "5",
            "type": "t_uint256"
          },
          {
            "astId": 7933,
            "contract": "contracts/tokens/RAIR Token Facets/RangesFacet.sol:RAIRRangesFacet",
            "label": "rangeName",
            "offset": 0,
            "slot": "6",
            "type": "t_string_storage"
          }
        ],
        "numberOfBytes": "224"
      },
      "t_uint16": {
        "encoding": "inplace",
        "label": "uint16",
        "numberOfBytes": "2"
      },
      "t_uint256": {
        "encoding": "inplace",
        "label": "uint256",
        "numberOfBytes": "32"
      }
    }
  }
}