{
  "address": "0xEa47fa3863E4390efA1aaF88024340c7aeC7B449",
  "abi": [
    {
      "anonymous": false,
      "inputs": [
        {
          "indexed": true,
          "internalType": "bytes32",
          "name": "role",
          "type": "bytes32"
        },
        {
          "indexed": true,
          "internalType": "bytes32",
          "name": "previousAdminRole",
          "type": "bytes32"
        },
        {
          "indexed": true,
          "internalType": "bytes32",
          "name": "newAdminRole",
          "type": "bytes32"
        }
      ],
      "name": "RoleAdminChanged",
      "type": "event"
    },
    {
      "anonymous": false,
      "inputs": [
        {
          "indexed": true,
          "internalType": "bytes32",
          "name": "role",
          "type": "bytes32"
        },
        {
          "indexed": true,
          "internalType": "address",
          "name": "account",
          "type": "address"
        },
        {
          "indexed": true,
          "internalType": "address",
          "name": "sender",
          "type": "address"
        }
      ],
      "name": "RoleGranted",
      "type": "event"
    },
    {
      "anonymous": false,
      "inputs": [
        {
          "indexed": true,
          "internalType": "bytes32",
          "name": "role",
          "type": "bytes32"
        },
        {
          "indexed": true,
          "internalType": "address",
          "name": "account",
          "type": "address"
        },
        {
          "indexed": true,
          "internalType": "address",
          "name": "sender",
          "type": "address"
        }
      ],
      "name": "RoleRevoked",
      "type": "event"
    },
    {
      "anonymous": false,
      "inputs": [
        {
          "indexed": false,
          "internalType": "address",
          "name": "erc721Address",
          "type": "address"
        },
        {
          "indexed": false,
          "internalType": "address",
          "name": "buyer",
          "type": "address"
        },
        {
          "indexed": false,
          "internalType": "address",
          "name": "seller",
          "type": "address"
        },
        {
          "indexed": false,
          "internalType": "uint256",
          "name": "token",
          "type": "uint256"
        },
        {
          "indexed": false,
          "internalType": "uint256",
          "name": "tokenPrice",
          "type": "uint256"
        }
      ],
      "name": "TokenSold",
      "type": "event"
    },
    {
      "inputs": [],
      "name": "MAINTAINER",
      "outputs": [
        {
          "internalType": "bytes32",
          "name": "",
          "type": "bytes32"
        }
      ],
      "stateMutability": "view",
      "type": "function"
    },
    {
      "inputs": [],
      "name": "RESALE_ADMIN",
      "outputs": [
        {
          "internalType": "bytes32",
          "name": "",
          "type": "bytes32"
        }
      ],
      "stateMutability": "view",
      "type": "function"
    },
    {
      "inputs": [
        {
          "internalType": "address",
          "name": "erc721",
          "type": "address"
        },
        {
          "internalType": "address",
          "name": "buyer",
          "type": "address"
        },
        {
          "internalType": "address",
          "name": "seller",
          "type": "address"
        },
        {
          "internalType": "uint256",
          "name": "token",
          "type": "uint256"
        },
        {
          "internalType": "uint256",
          "name": "tokenPrice",
          "type": "uint256"
        },
        {
          "internalType": "address",
          "name": "nodeAddress",
          "type": "address"
        }
      ],
      "name": "generateResaleHash",
      "outputs": [
        {
          "internalType": "bytes32",
          "name": "",
          "type": "bytes32"
        }
      ],
      "stateMutability": "view",
      "type": "function"
    },
    {
      "inputs": [
        {
          "internalType": "bytes32",
          "name": "role",
          "type": "bytes32"
        }
      ],
      "name": "getRoleAdmin",
      "outputs": [
        {
          "internalType": "bytes32",
          "name": "",
          "type": "bytes32"
        }
      ],
      "stateMutability": "view",
      "type": "function"
    },
    {
      "inputs": [
        {
          "internalType": "bytes32",
          "name": "role",
          "type": "bytes32"
        },
        {
          "internalType": "uint256",
          "name": "index",
          "type": "uint256"
        }
      ],
      "name": "getRoleMember",
      "outputs": [
        {
          "internalType": "address",
          "name": "",
          "type": "address"
        }
      ],
      "stateMutability": "view",
      "type": "function"
    },
    {
      "inputs": [
        {
          "internalType": "bytes32",
          "name": "role",
          "type": "bytes32"
        }
      ],
      "name": "getRoleMemberCount",
      "outputs": [
        {
          "internalType": "uint256",
          "name": "",
          "type": "uint256"
        }
      ],
      "stateMutability": "view",
      "type": "function"
    },
    {
      "inputs": [
        {
          "internalType": "address",
          "name": "erc721",
          "type": "address"
        }
      ],
      "name": "getRoyalties",
      "outputs": [
        {
          "components": [
            {
              "internalType": "address",
              "name": "recipient",
              "type": "address"
            },
            {
              "internalType": "uint256",
              "name": "percentage",
              "type": "uint256"
            }
          ],
          "internalType": "struct ResaleStorage.feeSplits[]",
          "name": "",
          "type": "tuple[]"
        }
      ],
      "stateMutability": "view",
      "type": "function"
    },
    {
      "inputs": [
        {
          "internalType": "bytes32",
          "name": "role",
          "type": "bytes32"
        },
        {
          "internalType": "address",
          "name": "account",
          "type": "address"
        }
      ],
      "name": "grantRole",
      "outputs": [],
      "stateMutability": "nonpayable",
      "type": "function"
    },
    {
      "inputs": [
        {
          "internalType": "bytes32",
          "name": "role",
          "type": "bytes32"
        },
        {
          "internalType": "address",
          "name": "account",
          "type": "address"
        }
      ],
      "name": "hasRole",
      "outputs": [
        {
          "internalType": "bool",
          "name": "",
          "type": "bool"
        }
      ],
      "stateMutability": "view",
      "type": "function"
    },
    {
      "inputs": [
        {
          "internalType": "address",
          "name": "erc721",
          "type": "address"
        },
        {
          "internalType": "address",
          "name": "buyer",
          "type": "address"
        },
        {
          "internalType": "address",
          "name": "seller",
          "type": "address"
        },
        {
          "internalType": "uint256",
          "name": "token",
          "type": "uint256"
        },
        {
          "internalType": "uint256",
          "name": "tokenPrice",
          "type": "uint256"
        },
        {
          "internalType": "address",
          "name": "nodeAddress",
          "type": "address"
        },
        {
          "internalType": "bytes",
          "name": "signature",
          "type": "bytes"
        }
      ],
      "name": "purchaseTokenOffer",
      "outputs": [],
      "stateMutability": "payable",
      "type": "function"
    },
    {
      "inputs": [
        {
          "internalType": "bytes32",
          "name": "role",
          "type": "bytes32"
        },
        {
          "internalType": "address",
          "name": "account",
          "type": "address"
        }
      ],
      "name": "renounceRole",
      "outputs": [],
      "stateMutability": "nonpayable",
      "type": "function"
    },
    {
      "inputs": [
        {
          "internalType": "bytes32",
          "name": "role",
          "type": "bytes32"
        },
        {
          "internalType": "address",
          "name": "account",
          "type": "address"
        }
      ],
      "name": "revokeRole",
      "outputs": [],
      "stateMutability": "nonpayable",
      "type": "function"
    },
    {
      "inputs": [
        {
          "internalType": "uint256",
          "name": "value",
          "type": "uint256"
        }
      ],
      "name": "setDecimalPow",
      "outputs": [],
      "stateMutability": "nonpayable",
      "type": "function"
    },
    {
      "inputs": [
        {
          "internalType": "uint256",
          "name": "value",
          "type": "uint256"
        }
      ],
      "name": "setPurchaseGracePeriod",
      "outputs": [],
      "stateMutability": "nonpayable",
      "type": "function"
    },
    {
      "inputs": [
        {
          "internalType": "address",
          "name": "erc721",
          "type": "address"
        },
        {
          "components": [
            {
              "internalType": "address",
              "name": "recipient",
              "type": "address"
            },
            {
              "internalType": "uint256",
              "name": "percentage",
              "type": "uint256"
            }
          ],
          "internalType": "struct ResaleStorage.feeSplits[]",
          "name": "fees",
          "type": "tuple[]"
        }
      ],
      "name": "setRoyalties",
      "outputs": [],
      "stateMutability": "nonpayable",
      "type": "function"
    }
  ],
  "transactionHash": "0x67d8f6e4c56977c56ffba99795f9367a9bbfbc7fd1b4fb22151303023d1ac0dc",
  "args": [],
  "numDeployments": 2,
  "solcInputHash": "ef88618c35ce66182f06ff22b1901306",
  "bytecode": "0x608060405234801561000f575f80fd5b5061195b8061001d5f395ff3fe6080604052600436106100e4575f3560e01c80636394f83f11610087578063ca15c87311610057578063ca15c873146102a2578063d547741f146102c1578063da9bdab0146102e0578063ec71bce814610313575f80fd5b80636394f83f146101fe5780638e118fb31461021d5780639010d07c1461023c57806391d1485414610273575f80fd5b80632f2ff15d116100c25780632f2ff15d1461018c57806336568abe146101ad57806346b51ea5146101cc57806358a59bf4146101df575f80fd5b806314556a56146100e8578063248a9ca31461011d5780632aabb72614610159575b5f80fd5b3480156100f3575f80fd5b5061010761010236600461142a565b610332565b6040516101149190611445565b60405180910390f35b348015610128575f80fd5b5061014b61013736600461149c565b5f9081526020819052604090206001015490565b604051908152602001610114565b348015610164575f80fd5b5061014b7fd88b35d7427a01a8e16d8a129535b4cf3150edf8d92c0a44dc1eba73bdaf18cb81565b348015610197575f80fd5b506101ab6101a63660046114b3565b6103c5565b005b3480156101b8575f80fd5b506101ab6101c73660046114b3565b6103ef565b6101ab6101da3660046114f5565b610472565b3480156101ea575f80fd5b506101ab6101f936600461149c565b61093f565b348015610209575f80fd5b5061014b6102183660046115fb565b61098f565b348015610228575f80fd5b506101ab610237366004611667565b610b66565b348015610247575f80fd5b5061025b6102563660046116e8565b610d72565b6040516001600160a01b039091168152602001610114565b34801561027e575f80fd5b5061029261028d3660046114b3565b610d92565b6040519015158152602001610114565b3480156102ad575f80fd5b5061014b6102bc36600461149c565b610dba565b3480156102cc575f80fd5b506101ab6102db3660046114b3565b610dd0565b3480156102eb575f80fd5b5061014b7fc0f3378637414317b885402eb428659ba3cbc2330f4bee724741cd4aea9b8b4981565b34801561031e575f80fd5b506101ab61032d36600461149c565b610df5565b60605f805160206119068339815191526001600160a01b0383165f908152602091825260408082208054825181860281018601909352808352919390929084015b828210156103ba575f848152602090819020604080518082019091526002850290910180546001600160a01b03168252600190810154828401529083529092019101610373565b505050509050919050565b5f828152602081905260409020600101546103e08133610e45565b6103ea8383610ea9565b505050565b6001600160a01b03811633146104645760405162461bcd60e51b815260206004820152602f60248201527f416363657373436f6e74726f6c3a2063616e206f6e6c792072656e6f756e636560448201526e103937b632b9903337b91039b2b63360891b60648201526084015b60405180910390fd5b61046e8282610f3f565b5050565b6001600160a01b0387165f9081525f8051602061190683398151915260205260408120906104a489898989898961098f565b90505f6104fd826040517f19457468657265756d205369676e6564204d6573736167653a0a3332000000006020820152603c81018290525f90605c01604051602081830303815290604052805190602001209050919050565b905061052d7fc0f3378637414317b885402eb428659ba3cbc2330f4bee724741cd4aea9b8b4961028d8387610fb6565b6105795760405162461bcd60e51b815260206004820181905260248201527f526573616c653a20496e76616c69642077697468647261772072657175657374604482015260640161045b565b348611156105c95760405162461bcd60e51b815260206004820152601b60248201527f526573616c653a20496e73756666696369656e742066756e6473210000000000604482015260640161045b565b855f6105d5823461171c565b111561061057336108fc6105e9893461171c565b6040518115909202915f818181858888f1935050505015801561060e573d5f803e3d5ffd5b505b6003545f9061062090606461172f565b60045461062d908a61172f565b6106379190611746565b6040519091506001600160a01b0388169082156108fc029083905f818181858888f1935050505015801561066d573d5f803e3d5ffd5b5080610679818461171c565b60035490935061068a90606461172f565b600554610697908b61172f565b6106a19190611746565b6006546040519193506001600160a01b03169083156108fc029084905f818181858888f193505050501580156106d9573d5f803e3d5ffd5b506106e48282611765565b90506106f0828461171c565b92505f5b86548110156107c35760035461070b90606461172f565b87828154811061071d5761071d611778565b905f5260205f209060020201600101548b610738919061172f565b6107429190611746565b925086818154811061075657610756611778565b5f91825260208220600290910201546040516001600160a01b039091169185156108fc02918691818181858888f19350505050158015610798573d5f803e3d5ffd5b506107a38383611765565b91506107af838561171c565b9350806107bb8161178c565b9150506106f4565b506040516001600160a01b038c169084156108fc029085905f818181858888f193505050501580156107f7573d5f803e3d5ffd5b506108028382611765565b905088811461085d5760405162461bcd60e51b815260206004820152602160248201527f526573616c653a204572726f72207472616e7366657272696e672066756e64736044820152602160f81b606482015260840161045b565b6040516323b872dd60e01b81526001600160a01b038c811660048301528d81166024830152604482018c90528e16906323b872dd906064015f604051808303815f87803b1580156108ac575f80fd5b505af11580156108be573d5f803e3d5ffd5b505050507f2f0996da6c077604b5bde68e82fc6389b549462f3d448d4bda60ad38e1a739868d8d8d8d8d6040516109289594939291906001600160a01b03958616815293851660208501529190931660408301526060820192909252608081019190915260a00190565b60405180910390a150505050505050505050505050565b7fd88b35d7427a01a8e16d8a129535b4cf3150edf8d92c0a44dc1eba73bdaf18cb61096a8133610e45565b507f232aa753920d876dd52c6464ae9dec228a3cfdca7d146885d71d13b28dc65b9855565b60405163e985e9c560e01b81526001600160a01b0385811660048301523060248301525f919088169063e985e9c590604401602060405180830381865afa1580156109dc573d5f803e3d5ffd5b505050506040513d601f19601f82011682018060405250810190610a0091906117a4565b80610a7a575060405163020604bf60e21b81526004810185905230906001600160a01b0389169063081812fc90602401602060405180830381865afa158015610a4b573d5f803e3d5ffd5b505050506040513d601f19601f82011682018060405250810190610a6f91906117c3565b6001600160a01b0316145b610adf5760405162461bcd60e51b815260206004820152603060248201527f526573616c653a204d61726b6574706c6163652069736e277420617070726f7660448201526f656420666f72207472616e736665727360801b606482015260840161045b565b868686868686610aed611030565b6040516bffffffffffffffffffffffff19606098891b8116602083015296881b8716603482015294871b86166048860152605c850193909352607c84019190915290931b909116609c82015260b081019190915260d0016040516020818303038152906040528051906020012090509695505050505050565b825f5f80516020611906833981519152604051632474521560e21b81527f3c2519c4487d47714872f92cf90a50c25f5deaec2789dc2a497b1272df611db660048201523360248201529091506001600160a01b038316906391d1485490604401602060405180830381865afa158015610be1573d5f803e3d5ffd5b505050506040513d601f19601f82011682018060405250810190610c0591906117a4565b80610c775750604051632474521560e21b81525f60048201523360248201526001600160a01b038316906391d1485490604401602060405180830381865afa158015610c53573d5f803e3d5ffd5b505050506040513d601f19601f82011682018060405250810190610c7791906117a4565b610ce95760405162461bcd60e51b815260206004820152603d60248201527f526573616c653a204f6e6c7920746865206f776e6572206f66206120636f6e7460448201527f726163742063616e2073657420637573746f6d20726f79616c74696573000000606482015260840161045b565b5f5b83811015610d6a576001600160a01b0386165f9081525f8051602061190683398151915260205260409020858583818110610d2857610d28611778565b83546001810185555f9485526020909420604090910292909201926002029091019050610d5582826117de565b50508080610d629061178c565b915050610ceb565b505050505050565b5f828152600160205260408120610d89908361107b565b90505b92915050565b5f918252602082815260408084206001600160a01b0393909316845291905290205460ff1690565b5f818152600160205260408120610d8c90611086565b5f82815260208190526040902060010154610deb8133610e45565b6103ea8383610f3f565b7fd88b35d7427a01a8e16d8a129535b4cf3150edf8d92c0a44dc1eba73bdaf18cb610e208133610e45565b507f232aa753920d876dd52c6464ae9dec228a3cfdca7d146885d71d13b28dc65b9955565b610e4f8282610d92565b61046e57610e67816001600160a01b0316601461108f565b610e7283602061108f565b604051602001610e83929190611836565b60408051601f198184030181529082905262461bcd60e51b825261045b916004016118aa565b610eb38282610d92565b61046e575f828152602081815260408083206001600160a01b03851684529091529020805460ff19166001179055610ee83390565b6001600160a01b0316816001600160a01b0316837f2f8788117e7eff1d82e926ec794901d17c78024a50270940304540a733656f0d60405160405180910390a45f8281526001602052604090206103ea9082611225565b610f498282610d92565b1561046e575f828152602081815260408083206001600160a01b0385168085529252808320805460ff1916905551339285917ff6391f5c32d9c69d2a47ea670b442974b53935d1edc7fd64eb21e047a839171b9190a45f8281526001602052604090206103ea9082611239565b5f805f80610fc38561124d565b604080515f8152602081018083528b905260ff8316918101919091526060810184905260808101839052929550909350915060019060a0016020604051602081039080840390855afa15801561101b573d5f803e3d5ffd5b5050604051601f190151979650505050505050565b5f61103c606442611746565b61104790606461172f565b7f232aa753920d876dd52c6464ae9dec228a3cfdca7d146885d71d13b28dc65b98549091506110769082611765565b905090565b5f610d8983836112be565b5f610d8c825490565b60605f61109d83600261172f565b6110a8906002611765565b67ffffffffffffffff8111156110c0576110c06114e1565b6040519080825280601f01601f1916602001820160405280156110ea576020820181803683370190505b509050600360fc1b815f8151811061110457611104611778565b60200101906001600160f81b03191690815f1a905350600f60fb1b8160018151811061113257611132611778565b60200101906001600160f81b03191690815f1a9053505f61115484600261172f565b61115f906001611765565b90505b60018111156111d6576f181899199a1a9b1b9c1cb0b131b232b360811b85600f166010811061119357611193611778565b1a60f81b8282815181106111a9576111a9611778565b60200101906001600160f81b03191690815f1a90535060049490941c936111cf816118dc565b9050611162565b508315610d895760405162461bcd60e51b815260206004820181905260248201527f537472696e67733a20686578206c656e67746820696e73756666696369656e74604482015260640161045b565b5f610d89836001600160a01b0384166112e4565b5f610d89836001600160a01b038416611330565b5f805f83516041146112a15760405162461bcd60e51b815260206004820181905260248201527f526573616c653a20696e76616c6964207369676e6174757265206c656e677468604482015260640161045b565b5050506020810151604082015160609092015190925f9190911a90565b5f825f0182815481106112d3576112d3611778565b905f5260205f200154905092915050565b5f81815260018301602052604081205461132957508154600181810184555f848152602080822090930184905584548482528286019093526040902091909155610d8c565b505f610d8c565b5f818152600183016020526040812054801561140a575f61135260018361171c565b85549091505f906113659060019061171c565b90508181146113c4575f865f01828154811061138357611383611778565b905f5260205f200154905080875f0184815481106113a3576113a3611778565b5f918252602080832090910192909255918252600188019052604090208390555b85548690806113d5576113d56118f1565b600190038181905f5260205f20015f90559055856001015f8681526020019081526020015f205f905560019350505050610d8c565b5f915050610d8c565b6001600160a01b0381168114611427575f80fd5b50565b5f6020828403121561143a575f80fd5b8135610d8981611413565b602080825282518282018190525f919060409081850190868401855b8281101561148f57815180516001600160a01b03168552860151868501529284019290850190600101611461565b5091979650505050505050565b5f602082840312156114ac575f80fd5b5035919050565b5f80604083850312156114c4575f80fd5b8235915060208301356114d681611413565b809150509250929050565b634e487b7160e01b5f52604160045260245ffd5b5f805f805f805f60e0888a03121561150b575f80fd5b873561151681611413565b9650602088013561152681611413565b9550604088013561153681611413565b9450606088013593506080880135925060a088013561155481611413565b915060c088013567ffffffffffffffff80821115611570575f80fd5b818a0191508a601f830112611583575f80fd5b813581811115611595576115956114e1565b604051601f8201601f19908116603f011681019083821181831017156115bd576115bd6114e1565b816040528281528d60208487010111156115d5575f80fd5b826020860160208301375f60208483010152809550505050505092959891949750929550565b5f805f805f8060c08789031215611610575f80fd5b863561161b81611413565b9550602087013561162b81611413565b9450604087013561163b81611413565b9350606087013592506080870135915060a087013561165981611413565b809150509295509295509295565b5f805f60408486031215611679575f80fd5b833561168481611413565b9250602084013567ffffffffffffffff808211156116a0575f80fd5b818601915086601f8301126116b3575f80fd5b8135818111156116c1575f80fd5b8760208260061b85010111156116d5575f80fd5b6020830194508093505050509250925092565b5f80604083850312156116f9575f80fd5b50508035926020909101359150565b634e487b7160e01b5f52601160045260245ffd5b81810381811115610d8c57610d8c611708565b8082028115828204841417610d8c57610d8c611708565b5f8261176057634e487b7160e01b5f52601260045260245ffd5b500490565b80820180821115610d8c57610d8c611708565b634e487b7160e01b5f52603260045260245ffd5b5f6001820161179d5761179d611708565b5060010190565b5f602082840312156117b4575f80fd5b81518015158114610d89575f80fd5b5f602082840312156117d3575f80fd5b8151610d8981611413565b81356117e981611413565b81546001600160a01b0319166001600160a01b03919091161781556020919091013560019190910155565b5f5b8381101561182e578181015183820152602001611816565b50505f910152565b7f416363657373436f6e74726f6c3a206163636f756e742000000000000000000081525f835161186d816017850160208801611814565b7001034b99036b4b9b9b4b733903937b6329607d1b601791840191820152835161189e816028840160208801611814565b01602801949350505050565b602081525f82518060208401526118c8816040850160208701611814565b601f01601f19169190910160400192915050565b5f816118ea576118ea611708565b505f190190565b634e487b7160e01b5f52603160045260245ffdfe232aa753920d876dd52c6464ae9dec228a3cfdca7d146885d71d13b28dc65b96a264697066735822122090c41672063d8cb11f7ba072212e78ce13aad3ace9233e993d174ef9daaf634464736f6c63430008140033",
  "devdoc": {
    "author": "Juan M. Sanchez M.",
    "details": "Uses signed messages for gasless offer postings",
    "events": {
      "RoleAdminChanged(bytes32,bytes32,bytes32)": {
        "params": {
          "newAdminRole": "contains the new status of the role",
          "previousAdminRole": "contains the previous status of the role",
          "role": "Contains the role we want to update"
        }
      },
      "RoleGranted(bytes32,address,address)": {
        "params": {
          "account": "contains the address that we want to grant the role",
          "role": "Contains the role we want to update",
          "sender": "contains the address that is changing the role of the account"
        }
      },
      "RoleRevoked(bytes32,address,address)": {
        "params": {
          "account": "contains the address that we want to revoke the role",
          "role": "Contains the role we want to update",
          "sender": "contains the address that is changing the role of the account"
        }
      }
    },
    "kind": "dev",
    "methods": {
      "getRoleAdmin(bytes32)": {
        "params": {
          "role": "Contains the role that we want to verify"
        },
        "returns": {
          "_0": "bytes that indicates if an account has or not an admin role"
        }
      },
      "getRoleMember(bytes32,uint256)": {
        "params": {
          "index": "Contains the indexed position to verify inside the role members list",
          "role": "Contains the role that we want to verify"
        },
        "returns": {
          "_0": "address that indicates the address indexed in that position"
        }
      },
      "getRoleMemberCount(bytes32)": {
        "params": {
          "role": "Contains the role that we want to verify"
        },
        "returns": {
          "_0": "uint256 that indicates the total accounts with that role"
        }
      },
      "grantRole(bytes32,address)": {
        "details": "This function is only available to an account with an Admin role",
        "params": {
          "account": "Contains the account that has the role we want to update",
          "role": "Contains the role that we want to grant"
        }
      },
      "hasRole(bytes32,address)": {
        "params": {
          "account": "Contains the account address thay we want to verify",
          "role": "Contains the role that we want to verify"
        },
        "returns": {
          "_0": "bool that indicates if an account has or not a role"
        }
      },
      "renounceRole(bytes32,address)": {
        "details": "Currently you can only renounce to your own roles",
        "params": {
          "account": "Contains the account that has the role we want to update",
          "role": "Contains the role to remove from our account"
        }
      },
      "revokeRole(bytes32,address)": {
        "details": "This function is only available to an account with an Admin role",
        "params": {
          "account": "Contains the account that has the role we want to update",
          "role": "Contains the role that we want to revoke"
        }
      }
    },
    "title": "RAIR Diamond - Resale Marketplace facet",
    "version": 1
  },
  "userdoc": {
    "events": {
      "RoleAdminChanged(bytes32,bytes32,bytes32)": {
        "notice": "This event stores in the blockchain when we change an admin role"
      },
      "RoleGranted(bytes32,address,address)": {
        "notice": "This event stores in the blockchain when we grant a role"
      },
      "RoleRevoked(bytes32,address,address)": {
        "notice": "This event stores in the blockchain when we revoke a role"
      }
    },
    "kind": "user",
    "methods": {
      "getRoleAdmin(bytes32)": {
        "notice": "Allow us to check the admin role that contains a role"
      },
      "getRoleMember(bytes32,uint256)": {
        "notice": "Allow us to check the address of an indexed position for the role list"
      },
      "getRoleMemberCount(bytes32)": {
        "notice": "Allow us to check total members that has an selected role"
      },
      "grantRole(bytes32,address)": {
        "notice": "Allow us to grant a role to an account"
      },
      "hasRole(bytes32,address)": {
        "notice": "Allow us to check the if and account has a selected role"
      },
      "renounceRole(bytes32,address)": {
        "notice": "Allow us to renounce to a role"
      },
      "revokeRole(bytes32,address)": {
        "notice": "Allow us to revoke a role to an account"
      }
    },
    "notice": "Facet in charge of transfering NFTs and funds",
    "version": 1
  },
  "storageLayout": {
    "storage": [
      {
        "astId": 2162,
        "contract": "contracts/Marketplace/Facets/ResalesFacet.sol:ResaleFacet",
        "label": "s",
        "offset": 0,
        "slot": "0",
        "type": "t_struct(AppStorage)2143_storage"
      }
    ],
    "types": {
      "t_address": {
        "encoding": "inplace",
        "label": "address",
        "numberOfBytes": "20"
      },
      "t_array(t_bytes32)dyn_storage": {
        "base": "t_bytes32",
        "encoding": "dynamic_array",
        "label": "bytes32[]",
        "numberOfBytes": "32"
      },
      "t_array(t_struct(feeSplits)2087_storage)dyn_storage": {
        "base": "t_struct(feeSplits)2087_storage",
        "encoding": "dynamic_array",
        "label": "struct feeSplits[]",
        "numberOfBytes": "32"
      },
      "t_array(t_struct(mintingOffer)2100_storage)dyn_storage": {
        "base": "t_struct(mintingOffer)2100_storage",
        "encoding": "dynamic_array",
        "label": "struct mintingOffer[]",
        "numberOfBytes": "32"
      },
      "t_array(t_uint256)dyn_storage": {
        "base": "t_uint256",
        "encoding": "dynamic_array",
        "label": "uint256[]",
        "numberOfBytes": "32"
      },
      "t_bool": {
        "encoding": "inplace",
        "label": "bool",
        "numberOfBytes": "1"
      },
      "t_bytes32": {
        "encoding": "inplace",
        "label": "bytes32",
        "numberOfBytes": "32"
      },
      "t_mapping(t_address,t_array(t_uint256)dyn_storage)": {
        "encoding": "mapping",
        "key": "t_address",
        "label": "mapping(address => uint256[])",
        "numberOfBytes": "32",
        "value": "t_array(t_uint256)dyn_storage"
      },
      "t_mapping(t_address,t_bool)": {
        "encoding": "mapping",
        "key": "t_address",
        "label": "mapping(address => bool)",
        "numberOfBytes": "32",
        "value": "t_bool"
      },
      "t_mapping(t_address,t_mapping(t_uint256,t_uint256))": {
        "encoding": "mapping",
        "key": "t_address",
        "label": "mapping(address => mapping(uint256 => uint256))",
        "numberOfBytes": "32",
        "value": "t_mapping(t_uint256,t_uint256)"
      },
      "t_mapping(t_bytes32,t_struct(AddressSet)1788_storage)": {
        "encoding": "mapping",
        "key": "t_bytes32",
        "label": "mapping(bytes32 => struct EnumerableSet.AddressSet)",
        "numberOfBytes": "32",
        "value": "t_struct(AddressSet)1788_storage"
      },
      "t_mapping(t_bytes32,t_struct(RoleData)2107_storage)": {
        "encoding": "mapping",
        "key": "t_bytes32",
        "label": "mapping(bytes32 => struct RoleData)",
        "numberOfBytes": "32",
        "value": "t_struct(RoleData)2107_storage"
      },
      "t_mapping(t_bytes32,t_uint256)": {
        "encoding": "mapping",
        "key": "t_bytes32",
        "label": "mapping(bytes32 => uint256)",
        "numberOfBytes": "32",
        "value": "t_uint256"
      },
      "t_mapping(t_uint256,t_uint256)": {
        "encoding": "mapping",
        "key": "t_uint256",
        "label": "mapping(uint256 => uint256)",
        "numberOfBytes": "32",
        "value": "t_uint256"
      },
      "t_struct(AddressSet)1788_storage": {
        "encoding": "inplace",
        "label": "struct EnumerableSet.AddressSet",
        "members": [
          {
            "astId": 1787,
            "contract": "contracts/Marketplace/Facets/ResalesFacet.sol:ResaleFacet",
            "label": "_inner",
            "offset": 0,
            "slot": "0",
            "type": "t_struct(Set)1473_storage"
          }
        ],
        "numberOfBytes": "64"
      },
      "t_struct(AppStorage)2143_storage": {
        "encoding": "inplace",
        "label": "struct AppStorage",
        "members": [
          {
            "astId": 2112,
            "contract": "contracts/Marketplace/Facets/ResalesFacet.sol:ResaleFacet",
            "label": "_roles",
            "offset": 0,
            "slot": "0",
            "type": "t_mapping(t_bytes32,t_struct(RoleData)2107_storage)"
          },
          {
            "astId": 2117,
            "contract": "contracts/Marketplace/Facets/ResalesFacet.sol:ResaleFacet",
            "label": "_roleMembers",
            "offset": 0,
            "slot": "1",
            "type": "t_mapping(t_bytes32,t_struct(AddressSet)1788_storage)"
          },
          {
            "astId": 2119,
            "contract": "contracts/Marketplace/Facets/ResalesFacet.sol:ResaleFacet",
            "label": "decimals",
            "offset": 0,
            "slot": "2",
            "type": "t_uint16"
          },
          {
            "astId": 2121,
            "contract": "contracts/Marketplace/Facets/ResalesFacet.sol:ResaleFacet",
            "label": "decimalPow",
            "offset": 0,
            "slot": "3",
            "type": "t_uint256"
          },
          {
            "astId": 2123,
            "contract": "contracts/Marketplace/Facets/ResalesFacet.sol:ResaleFacet",
            "label": "nodeFee",
            "offset": 0,
            "slot": "4",
            "type": "t_uint256"
          },
          {
            "astId": 2125,
            "contract": "contracts/Marketplace/Facets/ResalesFacet.sol:ResaleFacet",
            "label": "treasuryFee",
            "offset": 0,
            "slot": "5",
            "type": "t_uint256"
          },
          {
            "astId": 2127,
            "contract": "contracts/Marketplace/Facets/ResalesFacet.sol:ResaleFacet",
            "label": "treasuryAddress",
            "offset": 0,
            "slot": "6",
            "type": "t_address"
          },
          {
            "astId": 2131,
            "contract": "contracts/Marketplace/Facets/ResalesFacet.sol:ResaleFacet",
            "label": "mintingOffers",
            "offset": 0,
            "slot": "7",
            "type": "t_array(t_struct(mintingOffer)2100_storage)dyn_storage"
          },
          {
            "astId": 2137,
            "contract": "contracts/Marketplace/Facets/ResalesFacet.sol:ResaleFacet",
            "label": "addressToRangeOffer",
            "offset": 0,
            "slot": "8",
            "type": "t_mapping(t_address,t_mapping(t_uint256,t_uint256))"
          },
          {
            "astId": 2142,
            "contract": "contracts/Marketplace/Facets/ResalesFacet.sol:ResaleFacet",
            "label": "addressToOffers",
            "offset": 0,
            "slot": "9",
            "type": "t_mapping(t_address,t_array(t_uint256)dyn_storage)"
          }
        ],
        "numberOfBytes": "320"
      },
      "t_struct(RoleData)2107_storage": {
        "encoding": "inplace",
        "label": "struct RoleData",
        "members": [
          {
            "astId": 2104,
            "contract": "contracts/Marketplace/Facets/ResalesFacet.sol:ResaleFacet",
            "label": "members",
            "offset": 0,
            "slot": "0",
            "type": "t_mapping(t_address,t_bool)"
          },
          {
            "astId": 2106,
            "contract": "contracts/Marketplace/Facets/ResalesFacet.sol:ResaleFacet",
            "label": "adminRole",
            "offset": 0,
            "slot": "1",
            "type": "t_bytes32"
          }
        ],
        "numberOfBytes": "64"
      },
      "t_struct(Set)1473_storage": {
        "encoding": "inplace",
        "label": "struct EnumerableSet.Set",
        "members": [
          {
            "astId": 1468,
            "contract": "contracts/Marketplace/Facets/ResalesFacet.sol:ResaleFacet",
            "label": "_values",
            "offset": 0,
            "slot": "0",
            "type": "t_array(t_bytes32)dyn_storage"
          },
          {
            "astId": 1472,
            "contract": "contracts/Marketplace/Facets/ResalesFacet.sol:ResaleFacet",
            "label": "_indexes",
            "offset": 0,
            "slot": "1",
            "type": "t_mapping(t_bytes32,t_uint256)"
          }
        ],
        "numberOfBytes": "64"
      },
      "t_struct(feeSplits)2087_storage": {
        "encoding": "inplace",
        "label": "struct feeSplits",
        "members": [
          {
            "astId": 2082,
            "contract": "contracts/Marketplace/Facets/ResalesFacet.sol:ResaleFacet",
            "label": "recipient",
            "offset": 0,
            "slot": "0",
            "type": "t_address"
          },
          {
            "astId": 2084,
            "contract": "contracts/Marketplace/Facets/ResalesFacet.sol:ResaleFacet",
            "label": "canBeContract",
            "offset": 20,
            "slot": "0",
            "type": "t_bool"
          },
          {
            "astId": 2086,
            "contract": "contracts/Marketplace/Facets/ResalesFacet.sol:ResaleFacet",
            "label": "percentage",
            "offset": 0,
            "slot": "1",
            "type": "t_uint256"
          }
        ],
        "numberOfBytes": "64"
      },
      "t_struct(mintingOffer)2100_storage": {
        "encoding": "inplace",
        "label": "struct mintingOffer",
        "members": [
          {
            "astId": 2089,
            "contract": "contracts/Marketplace/Facets/ResalesFacet.sol:ResaleFacet",
            "label": "erc721Address",
            "offset": 0,
            "slot": "0",
            "type": "t_address"
          },
          {
            "astId": 2091,
            "contract": "contracts/Marketplace/Facets/ResalesFacet.sol:ResaleFacet",
            "label": "nodeAddress",
            "offset": 0,
            "slot": "1",
            "type": "t_address"
          },
          {
            "astId": 2093,
            "contract": "contracts/Marketplace/Facets/ResalesFacet.sol:ResaleFacet",
            "label": "rangeIndex",
            "offset": 0,
            "slot": "2",
            "type": "t_uint256"
          },
          {
            "astId": 2097,
            "contract": "contracts/Marketplace/Facets/ResalesFacet.sol:ResaleFacet",
            "label": "fees",
            "offset": 0,
            "slot": "3",
            "type": "t_array(t_struct(feeSplits)2087_storage)dyn_storage"
          },
          {
            "astId": 2099,
            "contract": "contracts/Marketplace/Facets/ResalesFacet.sol:ResaleFacet",
            "label": "visible",
            "offset": 0,
            "slot": "4",
            "type": "t_bool"
          }
        ],
        "numberOfBytes": "160"
      },
      "t_uint16": {
        "encoding": "inplace",
        "label": "uint16",
        "numberOfBytes": "2"
      },
      "t_uint256": {
        "encoding": "inplace",
        "label": "uint256",
        "numberOfBytes": "32"
      }
    }
  }
}